{
	"data": {
		"bytecode": {
			"linkReferences": {},
			"object": "6080604052600367ffffffffffffffff81111561001f5761001e6100da565b5b60405190808252806020026020018201604052801561004d5781602001602082028036833780820191505090505b505f9080519060200190610062929190610074565b5034801561006e575f80fd5b50610107565b828054828255905f5260205f209081019282156100ae579160200282015b828111156100ad578251825591602001919060010190610092565b5b5090506100bb91906100bf565b5090565b5b808211156100d6575f815f9055506001016100c0565b5090565b7f4e487b71000000000000000000000000000000000000000000000000000000005f52604160045260245ffd5b6103bf806101145f395ff3fe608060405234801561000f575f80fd5b506004361061003f575f3560e01c80633f2273b3146100435780639a9bdca71461004d578063a622a1de1461007d575b5f80fd5b61004b61009b565b005b6100676004803603810190610062919061024b565b610102565b6040516100749190610285565b60405180910390f35b610085610121565b60405161009291906102b6565b60405180910390f35b602b5f80815481106100b0576100af6102cf565b5b905f5260205f20018190555060195f6001815481106100d2576100d16102cf565b5b905f5260205f20018190555060205f6002815481106100f4576100f36102cf565b5b905f5260205f200181905550565b5f8181548110610110575f80fd5b905f5260205f20015f915090505481565b5f805f801b90505f602060ff1667ffffffffffffffff811115610147576101466102fc565b5b6040519080825280601f01601f1916602001820160405280156101795781602001600182028036833780820191505090505b5090505f5b602060ff168110156101ef57825f6020811061019d5761019c6102cf565b5b1a60f81b825f815181106101b4576101b36102cf565b5b60200101907effffffffffffffffffffffffffffffffffffffffffffffffffffffffffffff191690815f1a905350808060010191505061017e565b505f818051906020012090506001815f1c61020a9190610356565b5f1b935050505090565b5f80fd5b5f819050919050565b61022a81610218565b8114610234575f80fd5b50565b5f8135905061024581610221565b92915050565b5f602082840312156102605761025f610214565b5b5f61026d84828501610237565b91505092915050565b61027f81610218565b82525050565b5f6020820190506102985f830184610276565b92915050565b5f819050919050565b6102b08161029e565b82525050565b5f6020820190506102c95f8301846102a7565b92915050565b7f4e487b71000000000000000000000000000000000000000000000000000000005f52603260045260245ffd5b7f4e487b71000000000000000000000000000000000000000000000000000000005f52604160045260245ffd5b7f4e487b71000000000000000000000000000000000000000000000000000000005f52601160045260245ffd5b5f61036082610218565b915061036b83610218565b925082820190508082111561038357610382610329565b5b9291505056fea2646970667358221220aae81f011d1f23403b90f3dfb3efacd0b9911f69ed7b6ba37df98e7a639f88cb64736f6c63430008160033",
			"opcodes": "PUSH1 0x80 PUSH1 0x40 MSTORE PUSH1 0x3 PUSH8 0xFFFFFFFFFFFFFFFF DUP2 GT ISZERO PUSH2 0x1F JUMPI PUSH2 0x1E PUSH2 0xDA JUMP JUMPDEST JUMPDEST PUSH1 0x40 MLOAD SWAP1 DUP1 DUP3 MSTORE DUP1 PUSH1 0x20 MUL PUSH1 0x20 ADD DUP3 ADD PUSH1 0x40 MSTORE DUP1 ISZERO PUSH2 0x4D JUMPI DUP2 PUSH1 0x20 ADD PUSH1 0x20 DUP3 MUL DUP1 CALLDATASIZE DUP4 CALLDATACOPY DUP1 DUP3 ADD SWAP2 POP POP SWAP1 POP JUMPDEST POP PUSH0 SWAP1 DUP1 MLOAD SWAP1 PUSH1 0x20 ADD SWAP1 PUSH2 0x62 SWAP3 SWAP2 SWAP1 PUSH2 0x74 JUMP JUMPDEST POP CALLVALUE DUP1 ISZERO PUSH2 0x6E JUMPI PUSH0 DUP1 REVERT JUMPDEST POP PUSH2 0x107 JUMP JUMPDEST DUP3 DUP1 SLOAD DUP3 DUP3 SSTORE SWAP1 PUSH0 MSTORE PUSH1 0x20 PUSH0 KECCAK256 SWAP1 DUP2 ADD SWAP3 DUP3 ISZERO PUSH2 0xAE JUMPI SWAP2 PUSH1 0x20 MUL DUP3 ADD JUMPDEST DUP3 DUP2 GT ISZERO PUSH2 0xAD JUMPI DUP3 MLOAD DUP3 SSTORE SWAP2 PUSH1 0x20 ADD SWAP2 SWAP1 PUSH1 0x1 ADD SWAP1 PUSH2 0x92 JUMP JUMPDEST JUMPDEST POP SWAP1 POP PUSH2 0xBB SWAP2 SWAP1 PUSH2 0xBF JUMP JUMPDEST POP SWAP1 JUMP JUMPDEST JUMPDEST DUP1 DUP3 GT ISZERO PUSH2 0xD6 JUMPI PUSH0 DUP2 PUSH0 SWAP1 SSTORE POP PUSH1 0x1 ADD PUSH2 0xC0 JUMP JUMPDEST POP SWAP1 JUMP JUMPDEST PUSH32 0x4E487B7100000000000000000000000000000000000000000000000000000000 PUSH0 MSTORE PUSH1 0x41 PUSH1 0x4 MSTORE PUSH1 0x24 PUSH0 REVERT JUMPDEST PUSH2 0x3BF DUP1 PUSH2 0x114 PUSH0 CODECOPY PUSH0 RETURN INVALID PUSH1 0x80 PUSH1 0x40 MSTORE CALLVALUE DUP1 ISZERO PUSH2 0xF JUMPI PUSH0 DUP1 REVERT JUMPDEST POP PUSH1 0x4 CALLDATASIZE LT PUSH2 0x3F JUMPI PUSH0 CALLDATALOAD PUSH1 0xE0 SHR DUP1 PUSH4 0x3F2273B3 EQ PUSH2 0x43 JUMPI DUP1 PUSH4 0x9A9BDCA7 EQ PUSH2 0x4D JUMPI DUP1 PUSH4 0xA622A1DE EQ PUSH2 0x7D JUMPI JUMPDEST PUSH0 DUP1 REVERT JUMPDEST PUSH2 0x4B PUSH2 0x9B JUMP JUMPDEST STOP JUMPDEST PUSH2 0x67 PUSH1 0x4 DUP1 CALLDATASIZE SUB DUP2 ADD SWAP1 PUSH2 0x62 SWAP2 SWAP1 PUSH2 0x24B JUMP JUMPDEST PUSH2 0x102 JUMP JUMPDEST PUSH1 0x40 MLOAD PUSH2 0x74 SWAP2 SWAP1 PUSH2 0x285 JUMP JUMPDEST PUSH1 0x40 MLOAD DUP1 SWAP2 SUB SWAP1 RETURN JUMPDEST PUSH2 0x85 PUSH2 0x121 JUMP JUMPDEST PUSH1 0x40 MLOAD PUSH2 0x92 SWAP2 SWAP1 PUSH2 0x2B6 JUMP JUMPDEST PUSH1 0x40 MLOAD DUP1 SWAP2 SUB SWAP1 RETURN JUMPDEST PUSH1 0x2B PUSH0 DUP1 DUP2 SLOAD DUP2 LT PUSH2 0xB0 JUMPI PUSH2 0xAF PUSH2 0x2CF JUMP JUMPDEST JUMPDEST SWAP1 PUSH0 MSTORE PUSH1 0x20 PUSH0 KECCAK256 ADD DUP2 SWAP1 SSTORE POP PUSH1 0x19 PUSH0 PUSH1 0x1 DUP2 SLOAD DUP2 LT PUSH2 0xD2 JUMPI PUSH2 0xD1 PUSH2 0x2CF JUMP JUMPDEST JUMPDEST SWAP1 PUSH0 MSTORE PUSH1 0x20 PUSH0 KECCAK256 ADD DUP2 SWAP1 SSTORE POP PUSH1 0x20 PUSH0 PUSH1 0x2 DUP2 SLOAD DUP2 LT PUSH2 0xF4 JUMPI PUSH2 0xF3 PUSH2 0x2CF JUMP JUMPDEST JUMPDEST SWAP1 PUSH0 MSTORE PUSH1 0x20 PUSH0 KECCAK256 ADD DUP2 SWAP1 SSTORE POP JUMP JUMPDEST PUSH0 DUP2 DUP2 SLOAD DUP2 LT PUSH2 0x110 JUMPI PUSH0 DUP1 REVERT JUMPDEST SWAP1 PUSH0 MSTORE PUSH1 0x20 PUSH0 KECCAK256 ADD PUSH0 SWAP2 POP SWAP1 POP SLOAD DUP2 JUMP JUMPDEST PUSH0 DUP1 PUSH0 DUP1 SHL SWAP1 POP PUSH0 PUSH1 0x20 PUSH1 0xFF AND PUSH8 0xFFFFFFFFFFFFFFFF DUP2 GT ISZERO PUSH2 0x147 JUMPI PUSH2 0x146 PUSH2 0x2FC JUMP JUMPDEST JUMPDEST PUSH1 0x40 MLOAD SWAP1 DUP1 DUP3 MSTORE DUP1 PUSH1 0x1F ADD PUSH1 0x1F NOT AND PUSH1 0x20 ADD DUP3 ADD PUSH1 0x40 MSTORE DUP1 ISZERO PUSH2 0x179 JUMPI DUP2 PUSH1 0x20 ADD PUSH1 0x1 DUP3 MUL DUP1 CALLDATASIZE DUP4 CALLDATACOPY DUP1 DUP3 ADD SWAP2 POP POP SWAP1 POP JUMPDEST POP SWAP1 POP PUSH0 JUMPDEST PUSH1 0x20 PUSH1 0xFF AND DUP2 LT ISZERO PUSH2 0x1EF JUMPI DUP3 PUSH0 PUSH1 0x20 DUP2 LT PUSH2 0x19D JUMPI PUSH2 0x19C PUSH2 0x2CF JUMP JUMPDEST JUMPDEST BYTE PUSH1 0xF8 SHL DUP3 PUSH0 DUP2 MLOAD DUP2 LT PUSH2 0x1B4 JUMPI PUSH2 0x1B3 PUSH2 0x2CF JUMP JUMPDEST JUMPDEST PUSH1 0x20 ADD ADD SWAP1 PUSH31 0xFFFFFFFFFFFFFFFFFFFFFFFFFFFFFFFFFFFFFFFFFFFFFFFFFFFFFFFFFFFFFF NOT AND SWAP1 DUP2 PUSH0 BYTE SWAP1 MSTORE8 POP DUP1 DUP1 PUSH1 0x1 ADD SWAP2 POP POP PUSH2 0x17E JUMP JUMPDEST POP PUSH0 DUP2 DUP1 MLOAD SWAP1 PUSH1 0x20 ADD KECCAK256 SWAP1 POP PUSH1 0x1 DUP2 PUSH0 SHR PUSH2 0x20A SWAP2 SWAP1 PUSH2 0x356 JUMP JUMPDEST PUSH0 SHL SWAP4 POP POP POP POP SWAP1 JUMP JUMPDEST PUSH0 DUP1 REVERT JUMPDEST PUSH0 DUP2 SWAP1 POP SWAP2 SWAP1 POP JUMP JUMPDEST PUSH2 0x22A DUP2 PUSH2 0x218 JUMP JUMPDEST DUP2 EQ PUSH2 0x234 JUMPI PUSH0 DUP1 REVERT JUMPDEST POP JUMP JUMPDEST PUSH0 DUP2 CALLDATALOAD SWAP1 POP PUSH2 0x245 DUP2 PUSH2 0x221 JUMP JUMPDEST SWAP3 SWAP2 POP POP JUMP JUMPDEST PUSH0 PUSH1 0x20 DUP3 DUP5 SUB SLT ISZERO PUSH2 0x260 JUMPI PUSH2 0x25F PUSH2 0x214 JUMP JUMPDEST JUMPDEST PUSH0 PUSH2 0x26D DUP5 DUP3 DUP6 ADD PUSH2 0x237 JUMP JUMPDEST SWAP2 POP POP SWAP3 SWAP2 POP POP JUMP JUMPDEST PUSH2 0x27F DUP2 PUSH2 0x218 JUMP JUMPDEST DUP3 MSTORE POP POP JUMP JUMPDEST PUSH0 PUSH1 0x20 DUP3 ADD SWAP1 POP PUSH2 0x298 PUSH0 DUP4 ADD DUP5 PUSH2 0x276 JUMP JUMPDEST SWAP3 SWAP2 POP POP JUMP JUMPDEST PUSH0 DUP2 SWAP1 POP SWAP2 SWAP1 POP JUMP JUMPDEST PUSH2 0x2B0 DUP2 PUSH2 0x29E JUMP JUMPDEST DUP3 MSTORE POP POP JUMP JUMPDEST PUSH0 PUSH1 0x20 DUP3 ADD SWAP1 POP PUSH2 0x2C9 PUSH0 DUP4 ADD DUP5 PUSH2 0x2A7 JUMP JUMPDEST SWAP3 SWAP2 POP POP JUMP JUMPDEST PUSH32 0x4E487B7100000000000000000000000000000000000000000000000000000000 PUSH0 MSTORE PUSH1 0x32 PUSH1 0x4 MSTORE PUSH1 0x24 PUSH0 REVERT JUMPDEST PUSH32 0x4E487B7100000000000000000000000000000000000000000000000000000000 PUSH0 MSTORE PUSH1 0x41 PUSH1 0x4 MSTORE PUSH1 0x24 PUSH0 REVERT JUMPDEST PUSH32 0x4E487B7100000000000000000000000000000000000000000000000000000000 PUSH0 MSTORE PUSH1 0x11 PUSH1 0x4 MSTORE PUSH1 0x24 PUSH0 REVERT JUMPDEST PUSH0 PUSH2 0x360 DUP3 PUSH2 0x218 JUMP JUMPDEST SWAP2 POP PUSH2 0x36B DUP4 PUSH2 0x218 JUMP JUMPDEST SWAP3 POP DUP3 DUP3 ADD SWAP1 POP DUP1 DUP3 GT ISZERO PUSH2 0x383 JUMPI PUSH2 0x382 PUSH2 0x329 JUMP JUMPDEST JUMPDEST SWAP3 SWAP2 POP POP JUMP INVALID LOG2 PUSH5 0x6970667358 0x22 SLT KECCAK256 0xAA 0xE8 0x1F ADD SAR 0x1F 0x23 BLOCKHASH EXTCODESIZE SWAP1 RETURN 0xDF 0xB3 0xEF 0xAC 0xD0 0xB9 SWAP2 0x1F PUSH10 0xED7B6BA37DF98E7A639F DUP9 0xCB PUSH5 0x736F6C6343 STOP ADDMOD AND STOP CALLER "
		},
		"gasEstimates": {
			"creation": {
				"codeDepositCost": "191800",
				"executionCost": "infinite",
				"totalCost": "infinite"
			},
			"external": {
				"addElement()": "72994",
				"dynamicArray(uint256)": "infinite",
				"getlocaltion()": "infinite"
			}
		},
		"methodIdentifiers": {
			"addElement()": "3f2273b3",
			"dynamicArray(uint256)": "9a9bdca7",
			"getlocaltion()": "a622a1de"
		}
	},
	"abi": [
		{
			"inputs": [],
			"name": "addElement",
			"outputs": [],
			"stateMutability": "nonpayable",
			"type": "function"
		},
		{
			"inputs": [
				{
					"internalType": "uint256",
					"name": "",
					"type": "uint256"
				}
			],
			"name": "dynamicArray",
			"outputs": [
				{
					"internalType": "uint256",
					"name": "",
					"type": "uint256"
				}
			],
			"stateMutability": "view",
			"type": "function"
		},
		{
			"inputs": [],
			"name": "getlocaltion",
			"outputs": [
				{
					"internalType": "bytes32",
					"name": "c",
					"type": "bytes32"
				}
			],
			"stateMutability": "pure",
			"type": "function"
		}
	]
}