{
	"data": {
		"bytecode": {
			"linkReferences": {},
			"object": "608060405234801561001057600080fd5b50610153806100206000396000f3fe6080604052600436106100295760003560e01c806326121ff01461002e578063e2179b8e1461006b575b600080fd5b610036610082565b60405180827bffffffffffffffffffffffffffffffffffffffffffffffffffffffff1916815260200191505060405180910390f35b34801561007757600080fd5b50610080610091565b005b60006326121ff060e01b905090565b3073ffffffffffffffffffffffffffffffffffffffff166326121ff0600a6103206040518363ffffffff1660e01b81526004016020604051808303818589803b1580156100dd57600080fd5b5088f11580156100f1573d6000803e3d6000fd5b5050505050506040513d602081101561010957600080fd5b81019080805190602001909291905050505056fea26469706673582212201007ce2b6114eddd992e55cb15fbe9692f94749bf89a5bfe8c26b928b693c19764736f6c634300060c0033",
			"opcodes": "PUSH1 0x80 PUSH1 0x40 MSTORE CALLVALUE DUP1 ISZERO PUSH2 0x10 JUMPI PUSH1 0x0 DUP1 REVERT JUMPDEST POP PUSH2 0x153 DUP1 PUSH2 0x20 PUSH1 0x0 CODECOPY PUSH1 0x0 RETURN INVALID PUSH1 0x80 PUSH1 0x40 MSTORE PUSH1 0x4 CALLDATASIZE LT PUSH2 0x29 JUMPI PUSH1 0x0 CALLDATALOAD PUSH1 0xE0 SHR DUP1 PUSH4 0x26121FF0 EQ PUSH2 0x2E JUMPI DUP1 PUSH4 0xE2179B8E EQ PUSH2 0x6B JUMPI JUMPDEST PUSH1 0x0 DUP1 REVERT JUMPDEST PUSH2 0x36 PUSH2 0x82 JUMP JUMPDEST PUSH1 0x40 MLOAD DUP1 DUP3 PUSH28 0xFFFFFFFFFFFFFFFFFFFFFFFFFFFFFFFFFFFFFFFFFFFFFFFFFFFFFFFF NOT AND DUP2 MSTORE PUSH1 0x20 ADD SWAP2 POP POP PUSH1 0x40 MLOAD DUP1 SWAP2 SUB SWAP1 RETURN JUMPDEST CALLVALUE DUP1 ISZERO PUSH2 0x77 JUMPI PUSH1 0x0 DUP1 REVERT JUMPDEST POP PUSH2 0x80 PUSH2 0x91 JUMP JUMPDEST STOP JUMPDEST PUSH1 0x0 PUSH4 0x26121FF0 PUSH1 0xE0 SHL SWAP1 POP SWAP1 JUMP JUMPDEST ADDRESS PUSH20 0xFFFFFFFFFFFFFFFFFFFFFFFFFFFFFFFFFFFFFFFF AND PUSH4 0x26121FF0 PUSH1 0xA PUSH2 0x320 PUSH1 0x40 MLOAD DUP4 PUSH4 0xFFFFFFFF AND PUSH1 0xE0 SHL DUP2 MSTORE PUSH1 0x4 ADD PUSH1 0x20 PUSH1 0x40 MLOAD DUP1 DUP4 SUB DUP2 DUP6 DUP10 DUP1 EXTCODESIZE ISZERO DUP1 ISZERO PUSH2 0xDD JUMPI PUSH1 0x0 DUP1 REVERT JUMPDEST POP DUP9 CALL ISZERO DUP1 ISZERO PUSH2 0xF1 JUMPI RETURNDATASIZE PUSH1 0x0 DUP1 RETURNDATACOPY RETURNDATASIZE PUSH1 0x0 REVERT JUMPDEST POP POP POP POP POP POP PUSH1 0x40 MLOAD RETURNDATASIZE PUSH1 0x20 DUP2 LT ISZERO PUSH2 0x109 JUMPI PUSH1 0x0 DUP1 REVERT JUMPDEST DUP2 ADD SWAP1 DUP1 DUP1 MLOAD SWAP1 PUSH1 0x20 ADD SWAP1 SWAP3 SWAP2 SWAP1 POP POP POP POP JUMP INVALID LOG2 PUSH5 0x6970667358 0x22 SLT KECCAK256 LT SMOD 0xCE 0x2B PUSH2 0x14ED 0xDD SWAP10 0x2E SSTORE 0xCB ISZERO 0xFB 0xE9 PUSH10 0x2F94749BF89A5BFE8C26 0xB9 0x28 0xB6 SWAP4 0xC1 SWAP8 PUSH5 0x736F6C6343 STOP MOD 0xC STOP CALLER "
		},
		"gasEstimates": {
			"creation": {
				"codeDepositCost": "67800",
				"executionCost": "117",
				"totalCost": "67917"
			},
			"external": {
				"f()": "182",
				"g()": "infinite"
			}
		},
		"methodIdentifiers": {
			"f()": "26121ff0",
			"g()": "e2179b8e"
		}
	},
	"abi": [
		{
			"inputs": [],
			"name": "f",
			"outputs": [
				{
					"internalType": "bytes4",
					"name": "",
					"type": "bytes4"
				}
			],
			"stateMutability": "payable",
			"type": "function"
		},
		{
			"inputs": [],
			"name": "g",
			"outputs": [],
			"stateMutability": "nonpayable",
			"type": "function"
		}
	]
}