{
	"contracts/Test101.sol": {
		"Test": {
			"abi": [
				{
					"inputs": [],
					"stateMutability": "nonpayable",
					"type": "constructor"
				},
				{
					"inputs": [],
					"name": "a",
					"outputs": [
						{
							"internalType": "uint256",
							"name": "",
							"type": "uint256"
						}
					],
					"stateMutability": "view",
					"type": "function"
				},
				{
					"inputs": [],
					"name": "b",
					"outputs": [
						{
							"internalType": "uint256",
							"name": "",
							"type": "uint256"
						}
					],
					"stateMutability": "view",
					"type": "function"
				},
				{
					"inputs": [],
					"name": "test1",
					"outputs": [
						{
							"internalType": "uint8",
							"name": "",
							"type": "uint8"
						}
					],
					"stateMutability": "pure",
					"type": "function"
				},
				{
					"inputs": [],
					"name": "test2",
					"outputs": [
						{
							"internalType": "uint8",
							"name": "",
							"type": "uint8"
						}
					],
					"stateMutability": "pure",
					"type": "function"
				},
				{
					"inputs": [],
					"name": "test3",
					"outputs": [
						{
							"internalType": "bool",
							"name": "",
							"type": "bool"
						}
					],
					"stateMutability": "pure",
					"type": "function"
				},
				{
					"inputs": [],
					"name": "test4",
					"outputs": [
						{
							"internalType": "bytes2",
							"name": "",
							"type": "bytes2"
						}
					],
					"stateMutability": "pure",
					"type": "function"
				},
				{
					"inputs": [],
					"name": "test5",
					"outputs": [
						{
							"internalType": "int8",
							"name": "",
							"type": "int8"
						}
					],
					"stateMutability": "pure",
					"type": "function"
				}
			],
			"devdoc": {
				"kind": "dev",
				"methods": {},
				"version": 1
			},
			"evm": {
				"assembly": "    /* \"contracts/Test101.sol\":61:937  contract Test {... */\n  mstore(0x40, 0x80)\n    /* \"contracts/Test101.sol\":802:804  20 */\n  0x14\n    /* \"contracts/Test101.sol\":783:804  uint256 public a = 20 */\n  0x00\n  sstore\n    /* \"contracts/Test101.sol\":830:832  10 */\n  0x0a\n    /* \"contracts/Test101.sol\":811:832  uint256 public b = 10 */\n  0x01\n  sstore\n    /* \"contracts/Test101.sol\":78:101  constructor(){... */\n  callvalue\n  dup1\n  iszero\n  tag_1\n  jumpi\n  0x00\n  dup1\n  revert\ntag_1:\n  pop\n    /* \"contracts/Test101.sol\":61:937  contract Test {... */\n  dataSize(sub_0)\n  dup1\n  dataOffset(sub_0)\n  0x00\n  codecopy\n  0x00\n  return\nstop\n\nsub_0: assembly {\n        /* \"contracts/Test101.sol\":61:937  contract Test {... */\n      mstore(0x40, 0x80)\n      callvalue\n      dup1\n      iszero\n      tag_1\n      jumpi\n      0x00\n      dup1\n      revert\n    tag_1:\n      pop\n      jumpi(tag_2, lt(calldatasize, 0x04))\n      shr(0xe0, calldataload(0x00))\n      dup1\n      0x4df7e3d0\n      gt\n      tag_10\n      jumpi\n      dup1\n      0x4df7e3d0\n      eq\n      tag_6\n      jumpi\n      dup1\n      0x66e41cb7\n      eq\n      tag_7\n      jumpi\n      dup1\n      0x6b59084d\n      eq\n      tag_8\n      jumpi\n      dup1\n      0x8f0d282d\n      eq\n      tag_9\n      jumpi\n      jump(tag_2)\n    tag_10:\n      dup1\n      0x0a8e8e01\n      eq\n      tag_3\n      jumpi\n      dup1\n      0x0dbe671f\n      eq\n      tag_4\n      jumpi\n      dup1\n      0x1ad7be82\n      eq\n      tag_5\n      jumpi\n    tag_2:\n      0x00\n      dup1\n      revert\n        /* \"contracts/Test101.sol\":393:665  function test3() public pure returns(bool){... */\n    tag_3:\n      tag_11\n      tag_12\n      jump\t// in\n    tag_11:\n      mload(0x40)\n      tag_13\n      swap2\n      swap1\n      tag_14\n      jump\t// in\n    tag_13:\n      mload(0x40)\n      dup1\n      swap2\n      sub\n      swap1\n      return\n        /* \"contracts/Test101.sol\":783:804  uint256 public a = 20 */\n    tag_4:\n      tag_15\n      tag_16\n      jump\t// in\n    tag_15:\n      mload(0x40)\n      tag_17\n      swap2\n      swap1\n      tag_18\n      jump\t// in\n    tag_17:\n      mload(0x40)\n      dup1\n      swap2\n      sub\n      swap1\n      return\n        /* \"contracts/Test101.sol\":841:934  function test5() public pure returns (int8) {... */\n    tag_5:\n      tag_19\n      tag_20\n      jump\t// in\n    tag_19:\n      mload(0x40)\n      tag_21\n      swap2\n      swap1\n      tag_22\n      jump\t// in\n    tag_21:\n      mload(0x40)\n      dup1\n      swap2\n      sub\n      swap1\n      return\n        /* \"contracts/Test101.sol\":811:832  uint256 public b = 10 */\n    tag_6:\n      tag_23\n      tag_24\n      jump\t// in\n    tag_23:\n      mload(0x40)\n      tag_25\n      swap2\n      swap1\n      tag_18\n      jump\t// in\n    tag_25:\n      mload(0x40)\n      dup1\n      swap2\n      sub\n      swap1\n      return\n        /* \"contracts/Test101.sol\":248:381  function test2() public pure returns(uint8){... */\n    tag_7:\n      tag_26\n      tag_27\n      jump\t// in\n    tag_26:\n      mload(0x40)\n      tag_28\n      swap2\n      swap1\n      tag_29\n      jump\t// in\n    tag_28:\n      mload(0x40)\n      dup1\n      swap2\n      sub\n      swap1\n      return\n        /* \"contracts/Test101.sol\":109:240  function test1() public pure returns(uint8){... */\n    tag_8:\n      tag_30\n      tag_31\n      jump\t// in\n    tag_30:\n      mload(0x40)\n      tag_32\n      swap2\n      swap1\n      tag_29\n      jump\t// in\n    tag_32:\n      mload(0x40)\n      dup1\n      swap2\n      sub\n      swap1\n      return\n        /* \"contracts/Test101.sol\":673:775  function test4() public pure returns(bytes2){... */\n    tag_9:\n      tag_33\n      tag_34\n      jump\t// in\n    tag_33:\n      mload(0x40)\n      tag_35\n      swap2\n      swap1\n      tag_36\n      jump\t// in\n    tag_35:\n      mload(0x40)\n      dup1\n      swap2\n      sub\n      swap1\n      return\n        /* \"contracts/Test101.sol\":393:665  function test3() public pure returns(bool){... */\n    tag_12:\n        /* \"contracts/Test101.sol\":430:434  bool */\n      0x00\n        /* \"contracts/Test101.sol\":448:454  int8 x */\n      dup1\n        /* \"contracts/Test101.sol\":457:471  type(int8).min */\n      0xffffffffffffffffffffffffffffffffffffffffffffffffffffffffffffff80\n        /* \"contracts/Test101.sol\":448:471  int8 x = type(int8).min */\n      swap1\n      pop\n        /* \"contracts/Test101.sol\":517:518  x */\n      dup1\n        /* \"contracts/Test101.sol\":511:518  -x == x */\n      0x00\n      signextend\n        /* \"contracts/Test101.sol\":512:513  x */\n      dup2\n        /* \"contracts/Test101.sol\":511:513  -x */\n      0x00\n      sub\n        /* \"contracts/Test101.sol\":511:518  -x == x */\n      0x00\n      signextend\n      sub\n        /* \"contracts/Test101.sol\":508:566  if(-x == x){... */\n      tag_38\n      jumpi\n        /* \"contracts/Test101.sol\":545:549  true */\n      0x01\n        /* \"contracts/Test101.sol\":538:549  return true */\n      swap2\n      pop\n      pop\n      jump(tag_37)\n        /* \"contracts/Test101.sol\":508:566  if(-x == x){... */\n    tag_38:\n        /* \"contracts/Test101.sol\":594:599  false */\n      0x00\n        /* \"contracts/Test101.sol\":587:599  return false */\n      swap2\n      pop\n      pop\n        /* \"contracts/Test101.sol\":393:665  function test3() public pure returns(bool){... */\n    tag_37:\n      swap1\n      jump\t// out\n        /* \"contracts/Test101.sol\":783:804  uint256 public a = 20 */\n    tag_16:\n      sload(0x00)\n      dup2\n      jump\t// out\n        /* \"contracts/Test101.sol\":841:934  function test5() public pure returns (int8) {... */\n    tag_20:\n        /* \"contracts/Test101.sol\":879:883  int8 */\n      0x00\n        /* \"contracts/Test101.sol\":896:902  int8 i */\n      dup1\n        /* \"contracts/Test101.sol\":905:906  3 */\n      0x03\n        /* \"contracts/Test101.sol\":896:906  int8 i = 3 */\n      swap1\n      pop\n        /* \"contracts/Test101.sol\":925:926  i */\n      dup1\n        /* \"contracts/Test101.sol\":924:926  ~i */\n      not\n        /* \"contracts/Test101.sol\":917:926  return ~i */\n      swap2\n      pop\n      pop\n        /* \"contracts/Test101.sol\":841:934  function test5() public pure returns (int8) {... */\n      swap1\n      jump\t// out\n        /* \"contracts/Test101.sol\":811:832  uint256 public b = 10 */\n    tag_24:\n      sload(0x01)\n      dup2\n      jump\t// out\n        /* \"contracts/Test101.sol\":248:381  function test2() public pure returns(uint8){... */\n    tag_27:\n        /* \"contracts/Test101.sol\":285:290  uint8 */\n      0x00\n        /* \"contracts/Test101.sol\":302:309  uint8 i */\n      dup1\n        /* \"contracts/Test101.sol\":312:315  255 */\n      0xff\n        /* \"contracts/Test101.sol\":302:315  uint8 i = 255 */\n      swap1\n      pop\n        /* \"contracts/Test101.sol\":326:333  uint8 j */\n      0x00\n        /* \"contracts/Test101.sol\":336:337  1 */\n      0x01\n        /* \"contracts/Test101.sol\":326:337  uint8 j = 1 */\n      swap1\n      pop\n        /* \"contracts/Test101.sol\":367:368  j */\n      dup1\n        /* \"contracts/Test101.sol\":365:366  i */\n      dup3\n        /* \"contracts/Test101.sol\":365:368  i+j */\n      add\n        /* \"contracts/Test101.sol\":358:368  return i+j */\n      swap3\n      pop\n      pop\n      pop\n        /* \"contracts/Test101.sol\":248:381  function test2() public pure returns(uint8){... */\n      swap1\n      jump\t// out\n        /* \"contracts/Test101.sol\":109:240  function test1() public pure returns(uint8){... */\n    tag_31:\n        /* \"contracts/Test101.sol\":146:151  uint8 */\n      0x00\n        /* \"contracts/Test101.sol\":163:170  uint8 i */\n      dup1\n        /* \"contracts/Test101.sol\":173:174  5 */\n      0x05\n        /* \"contracts/Test101.sol\":163:174  uint8 i = 5 */\n      swap1\n      pop\n        /* \"contracts/Test101.sol\":185:192  uint8 j */\n      0x00\n        /* \"contracts/Test101.sol\":195:196  6 */\n      0x06\n        /* \"contracts/Test101.sol\":185:196  uint8 j = 6 */\n      swap1\n      pop\n        /* \"contracts/Test101.sol\":226:227  j */\n      dup1\n        /* \"contracts/Test101.sol\":224:225  i */\n      dup3\n        /* \"contracts/Test101.sol\":224:227  i-j */\n      sub\n        /* \"contracts/Test101.sol\":217:227  return i-j */\n      swap3\n      pop\n      pop\n      pop\n        /* \"contracts/Test101.sol\":109:240  function test1() public pure returns(uint8){... */\n      swap1\n      jump\t// out\n        /* \"contracts/Test101.sol\":673:775  function test4() public pure returns(bytes2){... */\n    tag_34:\n        /* \"contracts/Test101.sol\":710:716  bytes2 */\n      0x00\n        /* \"contracts/Test101.sol\":728:736  bytes2 u */\n      dup1\n        /* \"contracts/Test101.sol\":728:743  bytes2 u = \"ab\" */\n      0x6162000000000000000000000000000000000000000000000000000000000000\n      swap1\n      pop\n        /* \"contracts/Test101.sol\":766:767  1 */\n      0x01\n        /* \"contracts/Test101.sol\":761:762  u */\n      dup2\n        /* \"contracts/Test101.sol\":761:767  u << 1 */\n      not(0xffffffffffffffffffffffffffffffffffffffffffffffffffffffffffff)\n      and\n      swap1\n      shl\n        /* \"contracts/Test101.sol\":754:767  return u << 1 */\n      swap2\n      pop\n      pop\n        /* \"contracts/Test101.sol\":673:775  function test4() public pure returns(bytes2){... */\n      swap1\n      jump\t// out\n        /* \"#utility.yul\":7:97   */\n    tag_43:\n        /* \"#utility.yul\":41:48   */\n      0x00\n        /* \"#utility.yul\":84:89   */\n      dup2\n        /* \"#utility.yul\":77:90   */\n      iszero\n        /* \"#utility.yul\":70:91   */\n      iszero\n        /* \"#utility.yul\":59:91   */\n      swap1\n      pop\n        /* \"#utility.yul\":7:97   */\n      swap2\n      swap1\n      pop\n      jump\t// out\n        /* \"#utility.yul\":103:212   */\n    tag_44:\n        /* \"#utility.yul\":184:205   */\n      tag_56\n        /* \"#utility.yul\":199:204   */\n      dup2\n        /* \"#utility.yul\":184:205   */\n      tag_43\n      jump\t// in\n    tag_56:\n        /* \"#utility.yul\":179:182   */\n      dup3\n        /* \"#utility.yul\":172:206   */\n      mstore\n        /* \"#utility.yul\":103:212   */\n      pop\n      pop\n      jump\t// out\n        /* \"#utility.yul\":218:428   */\n    tag_14:\n        /* \"#utility.yul\":305:309   */\n      0x00\n        /* \"#utility.yul\":343:345   */\n      0x20\n        /* \"#utility.yul\":332:341   */\n      dup3\n        /* \"#utility.yul\":328:346   */\n      add\n        /* \"#utility.yul\":320:346   */\n      swap1\n      pop\n        /* \"#utility.yul\":356:421   */\n      tag_58\n        /* \"#utility.yul\":418:419   */\n      0x00\n        /* \"#utility.yul\":407:416   */\n      dup4\n        /* \"#utility.yul\":403:420   */\n      add\n        /* \"#utility.yul\":394:400   */\n      dup5\n        /* \"#utility.yul\":356:421   */\n      tag_44\n      jump\t// in\n    tag_58:\n        /* \"#utility.yul\":218:428   */\n      swap3\n      swap2\n      pop\n      pop\n      jump\t// out\n        /* \"#utility.yul\":434:511   */\n    tag_45:\n        /* \"#utility.yul\":471:478   */\n      0x00\n        /* \"#utility.yul\":500:505   */\n      dup2\n        /* \"#utility.yul\":489:505   */\n      swap1\n      pop\n        /* \"#utility.yul\":434:511   */\n      swap2\n      swap1\n      pop\n      jump\t// out\n        /* \"#utility.yul\":517:635   */\n    tag_46:\n        /* \"#utility.yul\":604:628   */\n      tag_61\n        /* \"#utility.yul\":622:627   */\n      dup2\n        /* \"#utility.yul\":604:628   */\n      tag_45\n      jump\t// in\n    tag_61:\n        /* \"#utility.yul\":599:602   */\n      dup3\n        /* \"#utility.yul\":592:629   */\n      mstore\n        /* \"#utility.yul\":517:635   */\n      pop\n      pop\n      jump\t// out\n        /* \"#utility.yul\":641:863   */\n    tag_18:\n        /* \"#utility.yul\":734:738   */\n      0x00\n        /* \"#utility.yul\":772:774   */\n      0x20\n        /* \"#utility.yul\":761:770   */\n      dup3\n        /* \"#utility.yul\":757:775   */\n      add\n        /* \"#utility.yul\":749:775   */\n      swap1\n      pop\n        /* \"#utility.yul\":785:856   */\n      tag_63\n        /* \"#utility.yul\":853:854   */\n      0x00\n        /* \"#utility.yul\":842:851   */\n      dup4\n        /* \"#utility.yul\":838:855   */\n      add\n        /* \"#utility.yul\":829:835   */\n      dup5\n        /* \"#utility.yul\":785:856   */\n      tag_46\n      jump\t// in\n    tag_63:\n        /* \"#utility.yul\":641:863   */\n      swap3\n      swap2\n      pop\n      pop\n      jump\t// out\n        /* \"#utility.yul\":869:958   */\n    tag_47:\n        /* \"#utility.yul\":903:910   */\n      0x00\n        /* \"#utility.yul\":946:951   */\n      dup2\n        /* \"#utility.yul\":943:944   */\n      0x00\n        /* \"#utility.yul\":932:952   */\n      signextend\n        /* \"#utility.yul\":921:952   */\n      swap1\n      pop\n        /* \"#utility.yul\":869:958   */\n      swap2\n      swap1\n      pop\n      jump\t// out\n        /* \"#utility.yul\":964:1073   */\n    tag_48:\n        /* \"#utility.yul\":1045:1066   */\n      tag_66\n        /* \"#utility.yul\":1060:1065   */\n      dup2\n        /* \"#utility.yul\":1045:1066   */\n      tag_47\n      jump\t// in\n    tag_66:\n        /* \"#utility.yul\":1040:1043   */\n      dup3\n        /* \"#utility.yul\":1033:1067   */\n      mstore\n        /* \"#utility.yul\":964:1073   */\n      pop\n      pop\n      jump\t// out\n        /* \"#utility.yul\":1079:1289   */\n    tag_22:\n        /* \"#utility.yul\":1166:1170   */\n      0x00\n        /* \"#utility.yul\":1204:1206   */\n      0x20\n        /* \"#utility.yul\":1193:1202   */\n      dup3\n        /* \"#utility.yul\":1189:1207   */\n      add\n        /* \"#utility.yul\":1181:1207   */\n      swap1\n      pop\n        /* \"#utility.yul\":1217:1282   */\n      tag_68\n        /* \"#utility.yul\":1279:1280   */\n      0x00\n        /* \"#utility.yul\":1268:1277   */\n      dup4\n        /* \"#utility.yul\":1264:1281   */\n      add\n        /* \"#utility.yul\":1255:1261   */\n      dup5\n        /* \"#utility.yul\":1217:1282   */\n      tag_48\n      jump\t// in\n    tag_68:\n        /* \"#utility.yul\":1079:1289   */\n      swap3\n      swap2\n      pop\n      pop\n      jump\t// out\n        /* \"#utility.yul\":1295:1381   */\n    tag_49:\n        /* \"#utility.yul\":1330:1337   */\n      0x00\n        /* \"#utility.yul\":1370:1374   */\n      0xff\n        /* \"#utility.yul\":1363:1368   */\n      dup3\n        /* \"#utility.yul\":1359:1375   */\n      and\n        /* \"#utility.yul\":1348:1375   */\n      swap1\n      pop\n        /* \"#utility.yul\":1295:1381   */\n      swap2\n      swap1\n      pop\n      jump\t// out\n        /* \"#utility.yul\":1387:1499   */\n    tag_50:\n        /* \"#utility.yul\":1470:1492   */\n      tag_71\n        /* \"#utility.yul\":1486:1491   */\n      dup2\n        /* \"#utility.yul\":1470:1492   */\n      tag_49\n      jump\t// in\n    tag_71:\n        /* \"#utility.yul\":1465:1468   */\n      dup3\n        /* \"#utility.yul\":1458:1493   */\n      mstore\n        /* \"#utility.yul\":1387:1499   */\n      pop\n      pop\n      jump\t// out\n        /* \"#utility.yul\":1505:1719   */\n    tag_29:\n        /* \"#utility.yul\":1594:1598   */\n      0x00\n        /* \"#utility.yul\":1632:1634   */\n      0x20\n        /* \"#utility.yul\":1621:1630   */\n      dup3\n        /* \"#utility.yul\":1617:1635   */\n      add\n        /* \"#utility.yul\":1609:1635   */\n      swap1\n      pop\n        /* \"#utility.yul\":1645:1712   */\n      tag_73\n        /* \"#utility.yul\":1709:1710   */\n      0x00\n        /* \"#utility.yul\":1698:1707   */\n      dup4\n        /* \"#utility.yul\":1694:1711   */\n      add\n        /* \"#utility.yul\":1685:1691   */\n      dup5\n        /* \"#utility.yul\":1645:1712   */\n      tag_50\n      jump\t// in\n    tag_73:\n        /* \"#utility.yul\":1505:1719   */\n      swap3\n      swap2\n      pop\n      pop\n      jump\t// out\n        /* \"#utility.yul\":1725:1874   */\n    tag_51:\n        /* \"#utility.yul\":1761:1768   */\n      0x00\n        /* \"#utility.yul\":1801:1867   */\n      0xffff000000000000000000000000000000000000000000000000000000000000\n        /* \"#utility.yul\":1794:1799   */\n      dup3\n        /* \"#utility.yul\":1790:1868   */\n      and\n        /* \"#utility.yul\":1779:1868   */\n      swap1\n      pop\n        /* \"#utility.yul\":1725:1874   */\n      swap2\n      swap1\n      pop\n      jump\t// out\n        /* \"#utility.yul\":1880:1995   */\n    tag_52:\n        /* \"#utility.yul\":1965:1988   */\n      tag_76\n        /* \"#utility.yul\":1982:1987   */\n      dup2\n        /* \"#utility.yul\":1965:1988   */\n      tag_51\n      jump\t// in\n    tag_76:\n        /* \"#utility.yul\":1960:1963   */\n      dup3\n        /* \"#utility.yul\":1953:1989   */\n      mstore\n        /* \"#utility.yul\":1880:1995   */\n      pop\n      pop\n      jump\t// out\n        /* \"#utility.yul\":2001:2219   */\n    tag_36:\n        /* \"#utility.yul\":2092:2096   */\n      0x00\n        /* \"#utility.yul\":2130:2132   */\n      0x20\n        /* \"#utility.yul\":2119:2128   */\n      dup3\n        /* \"#utility.yul\":2115:2133   */\n      add\n        /* \"#utility.yul\":2107:2133   */\n      swap1\n      pop\n        /* \"#utility.yul\":2143:2212   */\n      tag_78\n        /* \"#utility.yul\":2209:2210   */\n      0x00\n        /* \"#utility.yul\":2198:2207   */\n      dup4\n        /* \"#utility.yul\":2194:2211   */\n      add\n        /* \"#utility.yul\":2185:2191   */\n      dup5\n        /* \"#utility.yul\":2143:2212   */\n      tag_52\n      jump\t// in\n    tag_78:\n        /* \"#utility.yul\":2001:2219   */\n      swap3\n      swap2\n      pop\n      pop\n      jump\t// out\n\n    auxdata: 0xa2646970667358221220dbb295072382da2e01ef4569841201df1983694fb827307325a7ae7e5e843f1b64736f6c63430008180033\n}\n",
				"bytecode": {
					"linkReferences": {},
					"object": "608060405260145f55600a600155348015610018575f80fd5b5061037d806100265f395ff3fe608060405234801561000f575f80fd5b506004361061007b575f3560e01c80634df7e3d0116100595780634df7e3d0146100d957806366e41cb7146100f75780636b59084d146101155780638f0d282d146101335761007b565b80630a8e8e011461007f5780630dbe671f1461009d5780631ad7be82146100bb575b5f80fd5b610087610151565b6040516100949190610243565b60405180910390f35b6100a5610195565b6040516100b29190610274565b60405180910390f35b6100c361019a565b6040516100d091906102a7565b60405180910390f35b6100e16101a8565b6040516100ee9190610274565b60405180910390f35b6100ff6101ae565b60405161010c91906102db565b60405180910390f35b61011d6101c3565b60405161012a91906102db565b60405180910390f35b61013b6101d8565b604051610148919061032e565b60405180910390f35b5f807fffffffffffffffffffffffffffffffffffffffffffffffffffffffffffffff809050805f0b815f035f0b0361018d576001915050610192565b5f9150505b90565b5f5481565b5f8060039050801991505090565b60015481565b5f8060ff90505f600190508082019250505090565b5f80600590505f600690508082039250505090565b5f807f616200000000000000000000000000000000000000000000000000000000000090506001817dffffffffffffffffffffffffffffffffffffffffffffffffffffffffffff1916901b91505090565b5f8115159050919050565b61023d81610229565b82525050565b5f6020820190506102565f830184610234565b92915050565b5f819050919050565b61026e8161025c565b82525050565b5f6020820190506102875f830184610265565b92915050565b5f815f0b9050919050565b6102a18161028d565b82525050565b5f6020820190506102ba5f830184610298565b92915050565b5f60ff82169050919050565b6102d5816102c0565b82525050565b5f6020820190506102ee5f8301846102cc565b92915050565b5f7fffff00000000000000000000000000000000000000000000000000000000000082169050919050565b610328816102f4565b82525050565b5f6020820190506103415f83018461031f565b9291505056fea2646970667358221220dbb295072382da2e01ef4569841201df1983694fb827307325a7ae7e5e843f1b64736f6c63430008180033",
					"opcodes": "PUSH1 0x80 PUSH1 0x40 MSTORE PUSH1 0x14 PUSH0 SSTORE PUSH1 0xA PUSH1 0x1 SSTORE CALLVALUE DUP1 ISZERO PUSH2 0x18 JUMPI PUSH0 DUP1 REVERT JUMPDEST POP PUSH2 0x37D DUP1 PUSH2 0x26 PUSH0 CODECOPY PUSH0 RETURN INVALID PUSH1 0x80 PUSH1 0x40 MSTORE CALLVALUE DUP1 ISZERO PUSH2 0xF JUMPI PUSH0 DUP1 REVERT JUMPDEST POP PUSH1 0x4 CALLDATASIZE LT PUSH2 0x7B JUMPI PUSH0 CALLDATALOAD PUSH1 0xE0 SHR DUP1 PUSH4 0x4DF7E3D0 GT PUSH2 0x59 JUMPI DUP1 PUSH4 0x4DF7E3D0 EQ PUSH2 0xD9 JUMPI DUP1 PUSH4 0x66E41CB7 EQ PUSH2 0xF7 JUMPI DUP1 PUSH4 0x6B59084D EQ PUSH2 0x115 JUMPI DUP1 PUSH4 0x8F0D282D EQ PUSH2 0x133 JUMPI PUSH2 0x7B JUMP JUMPDEST DUP1 PUSH4 0xA8E8E01 EQ PUSH2 0x7F JUMPI DUP1 PUSH4 0xDBE671F EQ PUSH2 0x9D JUMPI DUP1 PUSH4 0x1AD7BE82 EQ PUSH2 0xBB JUMPI JUMPDEST PUSH0 DUP1 REVERT JUMPDEST PUSH2 0x87 PUSH2 0x151 JUMP JUMPDEST PUSH1 0x40 MLOAD PUSH2 0x94 SWAP2 SWAP1 PUSH2 0x243 JUMP JUMPDEST PUSH1 0x40 MLOAD DUP1 SWAP2 SUB SWAP1 RETURN JUMPDEST PUSH2 0xA5 PUSH2 0x195 JUMP JUMPDEST PUSH1 0x40 MLOAD PUSH2 0xB2 SWAP2 SWAP1 PUSH2 0x274 JUMP JUMPDEST PUSH1 0x40 MLOAD DUP1 SWAP2 SUB SWAP1 RETURN JUMPDEST PUSH2 0xC3 PUSH2 0x19A JUMP JUMPDEST PUSH1 0x40 MLOAD PUSH2 0xD0 SWAP2 SWAP1 PUSH2 0x2A7 JUMP JUMPDEST PUSH1 0x40 MLOAD DUP1 SWAP2 SUB SWAP1 RETURN JUMPDEST PUSH2 0xE1 PUSH2 0x1A8 JUMP JUMPDEST PUSH1 0x40 MLOAD PUSH2 0xEE SWAP2 SWAP1 PUSH2 0x274 JUMP JUMPDEST PUSH1 0x40 MLOAD DUP1 SWAP2 SUB SWAP1 RETURN JUMPDEST PUSH2 0xFF PUSH2 0x1AE JUMP JUMPDEST PUSH1 0x40 MLOAD PUSH2 0x10C SWAP2 SWAP1 PUSH2 0x2DB JUMP JUMPDEST PUSH1 0x40 MLOAD DUP1 SWAP2 SUB SWAP1 RETURN JUMPDEST PUSH2 0x11D PUSH2 0x1C3 JUMP JUMPDEST PUSH1 0x40 MLOAD PUSH2 0x12A SWAP2 SWAP1 PUSH2 0x2DB JUMP JUMPDEST PUSH1 0x40 MLOAD DUP1 SWAP2 SUB SWAP1 RETURN JUMPDEST PUSH2 0x13B PUSH2 0x1D8 JUMP JUMPDEST PUSH1 0x40 MLOAD PUSH2 0x148 SWAP2 SWAP1 PUSH2 0x32E JUMP JUMPDEST PUSH1 0x40 MLOAD DUP1 SWAP2 SUB SWAP1 RETURN JUMPDEST PUSH0 DUP1 PUSH32 0xFFFFFFFFFFFFFFFFFFFFFFFFFFFFFFFFFFFFFFFFFFFFFFFFFFFFFFFFFFFFFF80 SWAP1 POP DUP1 PUSH0 SIGNEXTEND DUP2 PUSH0 SUB PUSH0 SIGNEXTEND SUB PUSH2 0x18D JUMPI PUSH1 0x1 SWAP2 POP POP PUSH2 0x192 JUMP JUMPDEST PUSH0 SWAP2 POP POP JUMPDEST SWAP1 JUMP JUMPDEST PUSH0 SLOAD DUP2 JUMP JUMPDEST PUSH0 DUP1 PUSH1 0x3 SWAP1 POP DUP1 NOT SWAP2 POP POP SWAP1 JUMP JUMPDEST PUSH1 0x1 SLOAD DUP2 JUMP JUMPDEST PUSH0 DUP1 PUSH1 0xFF SWAP1 POP PUSH0 PUSH1 0x1 SWAP1 POP DUP1 DUP3 ADD SWAP3 POP POP POP SWAP1 JUMP JUMPDEST PUSH0 DUP1 PUSH1 0x5 SWAP1 POP PUSH0 PUSH1 0x6 SWAP1 POP DUP1 DUP3 SUB SWAP3 POP POP POP SWAP1 JUMP JUMPDEST PUSH0 DUP1 PUSH32 0x6162000000000000000000000000000000000000000000000000000000000000 SWAP1 POP PUSH1 0x1 DUP2 PUSH30 0xFFFFFFFFFFFFFFFFFFFFFFFFFFFFFFFFFFFFFFFFFFFFFFFFFFFFFFFFFFFF NOT AND SWAP1 SHL SWAP2 POP POP SWAP1 JUMP JUMPDEST PUSH0 DUP2 ISZERO ISZERO SWAP1 POP SWAP2 SWAP1 POP JUMP JUMPDEST PUSH2 0x23D DUP2 PUSH2 0x229 JUMP JUMPDEST DUP3 MSTORE POP POP JUMP JUMPDEST PUSH0 PUSH1 0x20 DUP3 ADD SWAP1 POP PUSH2 0x256 PUSH0 DUP4 ADD DUP5 PUSH2 0x234 JUMP JUMPDEST SWAP3 SWAP2 POP POP JUMP JUMPDEST PUSH0 DUP2 SWAP1 POP SWAP2 SWAP1 POP JUMP JUMPDEST PUSH2 0x26E DUP2 PUSH2 0x25C JUMP JUMPDEST DUP3 MSTORE POP POP JUMP JUMPDEST PUSH0 PUSH1 0x20 DUP3 ADD SWAP1 POP PUSH2 0x287 PUSH0 DUP4 ADD DUP5 PUSH2 0x265 JUMP JUMPDEST SWAP3 SWAP2 POP POP JUMP JUMPDEST PUSH0 DUP2 PUSH0 SIGNEXTEND SWAP1 POP SWAP2 SWAP1 POP JUMP JUMPDEST PUSH2 0x2A1 DUP2 PUSH2 0x28D JUMP JUMPDEST DUP3 MSTORE POP POP JUMP JUMPDEST PUSH0 PUSH1 0x20 DUP3 ADD SWAP1 POP PUSH2 0x2BA PUSH0 DUP4 ADD DUP5 PUSH2 0x298 JUMP JUMPDEST SWAP3 SWAP2 POP POP JUMP JUMPDEST PUSH0 PUSH1 0xFF DUP3 AND SWAP1 POP SWAP2 SWAP1 POP JUMP JUMPDEST PUSH2 0x2D5 DUP2 PUSH2 0x2C0 JUMP JUMPDEST DUP3 MSTORE POP POP JUMP JUMPDEST PUSH0 PUSH1 0x20 DUP3 ADD SWAP1 POP PUSH2 0x2EE PUSH0 DUP4 ADD DUP5 PUSH2 0x2CC JUMP JUMPDEST SWAP3 SWAP2 POP POP JUMP JUMPDEST PUSH0 PUSH32 0xFFFF000000000000000000000000000000000000000000000000000000000000 DUP3 AND SWAP1 POP SWAP2 SWAP1 POP JUMP JUMPDEST PUSH2 0x328 DUP2 PUSH2 0x2F4 JUMP JUMPDEST DUP3 MSTORE POP POP JUMP JUMPDEST PUSH0 PUSH1 0x20 DUP3 ADD SWAP1 POP PUSH2 0x341 PUSH0 DUP4 ADD DUP5 PUSH2 0x31F JUMP JUMPDEST SWAP3 SWAP2 POP POP JUMP INVALID LOG2 PUSH5 0x6970667358 0x22 SLT KECCAK256 0xDB 0xB2 SWAP6 SMOD 0x23 DUP3 0xDA 0x2E ADD 0xEF GASLIMIT PUSH10 0x841201DF1983694FB827 ADDRESS PUSH20 0x25A7AE7E5E843F1B64736F6C6343000818003300 "
				},
				"gasEstimates": {
					"creation": {
						"codeDepositCost": "178600",
						"executionCost": "44429",
						"totalCost": "223029"
					},
					"external": {
						"a()": "2447",
						"b()": "2425",
						"test1()": "413",
						"test2()": "391",
						"test3()": "405",
						"test4()": "435",
						"test5()": "400"
					}
				},
				"methodIdentifiers": {
					"a()": "0dbe671f",
					"b()": "4df7e3d0",
					"test1()": "6b59084d",
					"test2()": "66e41cb7",
					"test3()": "0a8e8e01",
					"test4()": "8f0d282d",
					"test5()": "1ad7be82"
				}
			},
			"storageLayout": {
				"storage": [
					{
						"astId": 85,
						"contract": "contracts/Test101.sol:Test",
						"label": "a",
						"offset": 0,
						"slot": "0",
						"type": "t_uint256"
					},
					{
						"astId": 88,
						"contract": "contracts/Test101.sol:Test",
						"label": "b",
						"offset": 0,
						"slot": "1",
						"type": "t_uint256"
					}
				],
				"types": {
					"t_uint256": {
						"encoding": "inplace",
						"label": "uint256",
						"numberOfBytes": "32"
					}
				}
			},
			"userdoc": {
				"kind": "user",
				"methods": {},
				"version": 1
			}
		}
	}
}