{
	"contracts/Demo11.sol": {
		"ToDoList": {
			"abi": [
				{
					"inputs": [
						{
							"internalType": "string",
							"name": "name_",
							"type": "string"
						}
					],
					"name": "create",
					"outputs": [],
					"stateMutability": "nonpayable",
					"type": "function"
				},
				{
					"inputs": [
						{
							"internalType": "uint256",
							"name": "index_",
							"type": "uint256"
						}
					],
					"name": "get1",
					"outputs": [
						{
							"internalType": "string",
							"name": "name_",
							"type": "string"
						},
						{
							"internalType": "bool",
							"name": "isComplete",
							"type": "bool"
						}
					],
					"stateMutability": "view",
					"type": "function"
				},
				{
					"inputs": [
						{
							"internalType": "uint256",
							"name": "index_",
							"type": "uint256"
						}
					],
					"name": "get2",
					"outputs": [
						{
							"internalType": "string",
							"name": "name_",
							"type": "string"
						},
						{
							"internalType": "bool",
							"name": "isComplete",
							"type": "bool"
						}
					],
					"stateMutability": "view",
					"type": "function"
				},
				{
					"inputs": [
						{
							"internalType": "uint256",
							"name": "",
							"type": "uint256"
						}
					],
					"name": "list",
					"outputs": [
						{
							"internalType": "string",
							"name": "name",
							"type": "string"
						},
						{
							"internalType": "bool",
							"name": "isComplete",
							"type": "bool"
						}
					],
					"stateMutability": "view",
					"type": "function"
				},
				{
					"inputs": [
						{
							"internalType": "uint256",
							"name": "index_",
							"type": "uint256"
						},
						{
							"internalType": "string",
							"name": "name_",
							"type": "string"
						}
					],
					"name": "modiName1",
					"outputs": [],
					"stateMutability": "nonpayable",
					"type": "function"
				},
				{
					"inputs": [
						{
							"internalType": "uint256",
							"name": "index_",
							"type": "uint256"
						},
						{
							"internalType": "string",
							"name": "name_",
							"type": "string"
						}
					],
					"name": "modiName2",
					"outputs": [],
					"stateMutability": "nonpayable",
					"type": "function"
				},
				{
					"inputs": [
						{
							"internalType": "uint256",
							"name": "index_",
							"type": "uint256"
						},
						{
							"internalType": "bool",
							"name": "status_",
							"type": "bool"
						}
					],
					"name": "modiStatus1",
					"outputs": [],
					"stateMutability": "nonpayable",
					"type": "function"
				},
				{
					"inputs": [
						{
							"internalType": "uint256",
							"name": "index_",
							"type": "uint256"
						}
					],
					"name": "modiStatus2",
					"outputs": [],
					"stateMutability": "nonpayable",
					"type": "function"
				}
			],
			"devdoc": {
				"kind": "dev",
				"methods": {},
				"version": 1
			},
			"evm": {
				"assembly": "    /* \"contracts/Demo11.sol\":93:1283  contract ToDoList{... */\n  mstore(0x40, 0x80)\n  callvalue\n  dup1\n  iszero\n  tag_1\n  jumpi\n  0x00\n  dup1\n  revert\ntag_1:\n  pop\n  dataSize(sub_0)\n  dup1\n  dataOffset(sub_0)\n  0x00\n  codecopy\n  0x00\n  return\nstop\n\nsub_0: assembly {\n        /* \"contracts/Demo11.sol\":93:1283  contract ToDoList{... */\n      mstore(0x40, 0x80)\n      callvalue\n      dup1\n      iszero\n      tag_1\n      jumpi\n      0x00\n      dup1\n      revert\n    tag_1:\n      pop\n      jumpi(tag_2, lt(calldatasize, 0x04))\n      shr(0xe0, calldataload(0x00))\n      dup1\n      0x9c117f0f\n      gt\n      tag_11\n      jumpi\n      dup1\n      0x9c117f0f\n      eq\n      tag_7\n      jumpi\n      dup1\n      0xb6a46b3b\n      eq\n      tag_8\n      jumpi\n      dup1\n      0xc91b78cb\n      eq\n      tag_9\n      jumpi\n      dup1\n      0xd511b4be\n      eq\n      tag_10\n      jumpi\n      jump(tag_2)\n    tag_11:\n      dup1\n      0x1fbb5bc5\n      eq\n      tag_3\n      jumpi\n      dup1\n      0x31184dc3\n      eq\n      tag_4\n      jumpi\n      dup1\n      0x4112a18e\n      eq\n      tag_5\n      jumpi\n      dup1\n      0x80c9419e\n      eq\n      tag_6\n      jumpi\n    tag_2:\n      0x00\n      dup1\n      revert\n        /* \"contracts/Demo11.sol\":406:512  function modiName1(uint256 index_,string memory name_) public {... */\n    tag_3:\n      tag_12\n      0x04\n      dup1\n      calldatasize\n      sub\n      dup2\n      add\n      swap1\n      tag_13\n      swap2\n      swap1\n      tag_14\n      jump\t// in\n    tag_13:\n      tag_15\n      jump\t// in\n    tag_12:\n      stop\n        /* \"contracts/Demo11.sol\":1096:1277  function get2(uint256 index_) public view returns(string memory name_,bool isComplete){... */\n    tag_4:\n      tag_16\n      0x04\n      dup1\n      calldatasize\n      sub\n      dup2\n      add\n      swap1\n      tag_17\n      swap2\n      swap1\n      tag_18\n      jump\t// in\n    tag_17:\n      tag_19\n      jump\t// in\n    tag_16:\n      mload(0x40)\n      tag_20\n      swap3\n      swap2\n      swap1\n      tag_21\n      jump\t// in\n    tag_20:\n      mload(0x40)\n      dup1\n      swap2\n      sub\n      swap1\n      return\n        /* \"contracts/Demo11.sol\":669:777  function modiStatus1(uint256 index_,bool status_) public{... */\n    tag_5:\n      tag_22\n      0x04\n      dup1\n      calldatasize\n      sub\n      dup2\n      add\n      swap1\n      tag_23\n      swap2\n      swap1\n      tag_24\n      jump\t// in\n    tag_23:\n      tag_25\n      jump\t// in\n    tag_22:\n      stop\n        /* \"contracts/Demo11.sol\":190:208  Todo[] public list */\n    tag_6:\n      tag_26\n      0x04\n      dup1\n      calldatasize\n      sub\n      dup2\n      add\n      swap1\n      tag_27\n      swap2\n      swap1\n      tag_18\n      jump\t// in\n    tag_27:\n      tag_28\n      jump\t// in\n    tag_26:\n      mload(0x40)\n      tag_29\n      swap3\n      swap2\n      swap1\n      tag_21\n      jump\t// in\n    tag_29:\n      mload(0x40)\n      dup1\n      swap2\n      sub\n      swap1\n      return\n        /* \"contracts/Demo11.sol\":905:1087  function get1(uint256 index_) public view returns(string memory name_,bool isComplete){... */\n    tag_7:\n      tag_30\n      0x04\n      dup1\n      calldatasize\n      sub\n      dup2\n      add\n      swap1\n      tag_31\n      swap2\n      swap1\n      tag_18\n      jump\t// in\n    tag_31:\n      tag_32\n      jump\t// in\n    tag_30:\n      mload(0x40)\n      tag_33\n      swap3\n      swap2\n      swap1\n      tag_21\n      jump\t// in\n    tag_33:\n      mload(0x40)\n      dup1\n      swap2\n      sub\n      swap1\n      return\n        /* \"contracts/Demo11.sol\":217:397  function create(string memory name_) public{... */\n    tag_8:\n      tag_34\n      0x04\n      dup1\n      calldatasize\n      sub\n      dup2\n      add\n      swap1\n      tag_35\n      swap2\n      swap1\n      tag_36\n      jump\t// in\n    tag_35:\n      tag_37\n      jump\t// in\n    tag_34:\n      stop\n        /* \"contracts/Demo11.sol\":520:661  function modiName2(uint256 index_,string memory name_) public {... */\n    tag_9:\n      tag_38\n      0x04\n      dup1\n      calldatasize\n      sub\n      dup2\n      add\n      swap1\n      tag_39\n      swap2\n      swap1\n      tag_14\n      jump\t// in\n    tag_39:\n      tag_40\n      jump\t// in\n    tag_38:\n      stop\n        /* \"contracts/Demo11.sol\":785:897  function modiStatus2(uint256 index_) public{... */\n    tag_10:\n      tag_41\n      0x04\n      dup1\n      calldatasize\n      sub\n      dup2\n      add\n      swap1\n      tag_42\n      swap2\n      swap1\n      tag_18\n      jump\t// in\n    tag_42:\n      tag_43\n      jump\t// in\n    tag_41:\n      stop\n        /* \"contracts/Demo11.sol\":406:512  function modiName1(uint256 index_,string memory name_) public {... */\n    tag_15:\n        /* \"contracts/Demo11.sol\":499:504  name_ */\n      dup1\n        /* \"contracts/Demo11.sol\":479:483  list */\n      0x00\n        /* \"contracts/Demo11.sol\":484:490  index_ */\n      dup4\n        /* \"contracts/Demo11.sol\":479:491  list[index_] */\n      dup2\n      sload\n      dup2\n      lt\n      tag_45\n      jumpi\n      tag_46\n      tag_47\n      jump\t// in\n    tag_46:\n    tag_45:\n      swap1\n      0x00\n      mstore\n      keccak256(0x00, 0x20)\n      swap1\n      0x02\n      mul\n      add\n        /* \"contracts/Demo11.sol\":479:496  list[index_].name */\n      0x00\n      add\n        /* \"contracts/Demo11.sol\":479:504  list[index_].name = name_ */\n      swap1\n      dup2\n      tag_49\n      swap2\n      swap1\n      tag_50\n      jump\t// in\n    tag_49:\n      pop\n        /* \"contracts/Demo11.sol\":406:512  function modiName1(uint256 index_,string memory name_) public {... */\n      pop\n      pop\n      jump\t// out\n        /* \"contracts/Demo11.sol\":1096:1277  function get2(uint256 index_) public view returns(string memory name_,bool isComplete){... */\n    tag_19:\n        /* \"contracts/Demo11.sol\":1146:1165  string memory name_ */\n      0x60\n        /* \"contracts/Demo11.sol\":1166:1181  bool isComplete */\n      0x00\n        /* \"contracts/Demo11.sol\":1193:1209  Todo memory todo */\n      dup1\n        /* \"contracts/Demo11.sol\":1212:1216  list */\n      0x00\n        /* \"contracts/Demo11.sol\":1217:1223  index_ */\n      dup5\n        /* \"contracts/Demo11.sol\":1212:1224  list[index_] */\n      dup2\n      sload\n      dup2\n      lt\n      tag_52\n      jumpi\n      tag_53\n      tag_47\n      jump\t// in\n    tag_53:\n    tag_52:\n      swap1\n      0x00\n      mstore\n      keccak256(0x00, 0x20)\n      swap1\n      0x02\n      mul\n      add\n        /* \"contracts/Demo11.sol\":1193:1224  Todo memory todo = list[index_] */\n      mload(0x40)\n      dup1\n      0x40\n      add\n      0x40\n      mstore\n      swap1\n      dup2\n      0x00\n      dup3\n      add\n      dup1\n      sload\n      tag_55\n      swap1\n      tag_56\n      jump\t// in\n    tag_55:\n      dup1\n      0x1f\n      add\n      0x20\n      dup1\n      swap2\n      div\n      mul\n      0x20\n      add\n      mload(0x40)\n      swap1\n      dup2\n      add\n      0x40\n      mstore\n      dup1\n      swap3\n      swap2\n      swap1\n      dup2\n      dup2\n      mstore\n      0x20\n      add\n      dup3\n      dup1\n      sload\n      tag_57\n      swap1\n      tag_56\n      jump\t// in\n    tag_57:\n      dup1\n      iszero\n      tag_58\n      jumpi\n      dup1\n      0x1f\n      lt\n      tag_59\n      jumpi\n      0x0100\n      dup1\n      dup4\n      sload\n      div\n      mul\n      dup4\n      mstore\n      swap2\n      0x20\n      add\n      swap2\n      jump(tag_58)\n    tag_59:\n      dup3\n      add\n      swap2\n      swap1\n      0x00\n      mstore\n      keccak256(0x00, 0x20)\n      swap1\n    tag_60:\n      dup2\n      sload\n      dup2\n      mstore\n      swap1\n      0x01\n      add\n      swap1\n      0x20\n      add\n      dup1\n      dup4\n      gt\n      tag_60\n      jumpi\n      dup3\n      swap1\n      sub\n      0x1f\n      and\n      dup3\n      add\n      swap2\n    tag_58:\n      pop\n      pop\n      pop\n      pop\n      pop\n      dup2\n      mstore\n      0x20\n      add\n      0x01\n      dup3\n      add\n      0x00\n      swap1\n      sload\n      swap1\n      0x0100\n      exp\n      swap1\n      div\n      0xff\n      and\n      iszero\n      iszero\n      iszero\n      iszero\n      dup2\n      mstore\n      pop\n      pop\n      swap1\n      pop\n        /* \"contracts/Demo11.sol\":1243:1247  todo */\n      dup1\n        /* \"contracts/Demo11.sol\":1243:1252  todo.name */\n      0x00\n      add\n      mload\n        /* \"contracts/Demo11.sol\":1253:1257  todo */\n      dup2\n        /* \"contracts/Demo11.sol\":1253:1268  todo.isComplete */\n      0x20\n      add\n      mload\n        /* \"contracts/Demo11.sol\":1235:1269  return (todo.name,todo.isComplete) */\n      swap3\n      pop\n      swap3\n      pop\n      pop\n        /* \"contracts/Demo11.sol\":1096:1277  function get2(uint256 index_) public view returns(string memory name_,bool isComplete){... */\n      swap2\n      pop\n      swap2\n      jump\t// out\n        /* \"contracts/Demo11.sol\":669:777  function modiStatus1(uint256 index_,bool status_) public{... */\n    tag_25:\n        /* \"contracts/Demo11.sol\":762:769  status_ */\n      dup1\n        /* \"contracts/Demo11.sol\":736:740  list */\n      0x00\n        /* \"contracts/Demo11.sol\":741:747  index_ */\n      dup4\n        /* \"contracts/Demo11.sol\":736:748  list[index_] */\n      dup2\n      sload\n      dup2\n      lt\n      tag_62\n      jumpi\n      tag_63\n      tag_47\n      jump\t// in\n    tag_63:\n    tag_62:\n      swap1\n      0x00\n      mstore\n      keccak256(0x00, 0x20)\n      swap1\n      0x02\n      mul\n      add\n        /* \"contracts/Demo11.sol\":736:759  list[index_].isComplete */\n      0x01\n      add\n      0x00\n        /* \"contracts/Demo11.sol\":736:769  list[index_].isComplete = status_ */\n      0x0100\n      exp\n      dup2\n      sload\n      dup2\n      0xff\n      mul\n      not\n      and\n      swap1\n      dup4\n      iszero\n      iszero\n      mul\n      or\n      swap1\n      sstore\n      pop\n        /* \"contracts/Demo11.sol\":669:777  function modiStatus1(uint256 index_,bool status_) public{... */\n      pop\n      pop\n      jump\t// out\n        /* \"contracts/Demo11.sol\":190:208  Todo[] public list */\n    tag_28:\n      0x00\n      dup2\n      dup2\n      sload\n      dup2\n      lt\n      tag_65\n      jumpi\n      0x00\n      dup1\n      revert\n    tag_65:\n      swap1\n      0x00\n      mstore\n      keccak256(0x00, 0x20)\n      swap1\n      0x02\n      mul\n      add\n      0x00\n      swap2\n      pop\n      swap1\n      pop\n      dup1\n      0x00\n      add\n      dup1\n      sload\n      tag_67\n      swap1\n      tag_56\n      jump\t// in\n    tag_67:\n      dup1\n      0x1f\n      add\n      0x20\n      dup1\n      swap2\n      div\n      mul\n      0x20\n      add\n      mload(0x40)\n      swap1\n      dup2\n      add\n      0x40\n      mstore\n      dup1\n      swap3\n      swap2\n      swap1\n      dup2\n      dup2\n      mstore\n      0x20\n      add\n      dup3\n      dup1\n      sload\n      tag_68\n      swap1\n      tag_56\n      jump\t// in\n    tag_68:\n      dup1\n      iszero\n      tag_69\n      jumpi\n      dup1\n      0x1f\n      lt\n      tag_70\n      jumpi\n      0x0100\n      dup1\n      dup4\n      sload\n      div\n      mul\n      dup4\n      mstore\n      swap2\n      0x20\n      add\n      swap2\n      jump(tag_69)\n    tag_70:\n      dup3\n      add\n      swap2\n      swap1\n      0x00\n      mstore\n      keccak256(0x00, 0x20)\n      swap1\n    tag_71:\n      dup2\n      sload\n      dup2\n      mstore\n      swap1\n      0x01\n      add\n      swap1\n      0x20\n      add\n      dup1\n      dup4\n      gt\n      tag_71\n      jumpi\n      dup3\n      swap1\n      sub\n      0x1f\n      and\n      dup3\n      add\n      swap2\n    tag_69:\n      pop\n      pop\n      pop\n      pop\n      pop\n      swap1\n      dup1\n      0x01\n      add\n      0x00\n      swap1\n      sload\n      swap1\n      0x0100\n      exp\n      swap1\n      div\n      0xff\n      and\n      swap1\n      pop\n      dup3\n      jump\t// out\n        /* \"contracts/Demo11.sol\":905:1087  function get1(uint256 index_) public view returns(string memory name_,bool isComplete){... */\n    tag_32:\n        /* \"contracts/Demo11.sol\":955:974  string memory name_ */\n      0x60\n        /* \"contracts/Demo11.sol\":975:990  bool isComplete */\n      0x00\n        /* \"contracts/Demo11.sol\":1002:1019  Todo storage todo */\n      dup1\n        /* \"contracts/Demo11.sol\":1022:1026  list */\n      0x00\n        /* \"contracts/Demo11.sol\":1027:1033  index_ */\n      dup5\n        /* \"contracts/Demo11.sol\":1022:1034  list[index_] */\n      dup2\n      sload\n      dup2\n      lt\n      tag_73\n      jumpi\n      tag_74\n      tag_47\n      jump\t// in\n    tag_74:\n    tag_73:\n      swap1\n      0x00\n      mstore\n      keccak256(0x00, 0x20)\n      swap1\n      0x02\n      mul\n      add\n        /* \"contracts/Demo11.sol\":1002:1034  Todo storage todo = list[index_] */\n      swap1\n      pop\n        /* \"contracts/Demo11.sol\":1053:1057  todo */\n      dup1\n        /* \"contracts/Demo11.sol\":1053:1062  todo.name */\n      0x00\n      add\n        /* \"contracts/Demo11.sol\":1063:1067  todo */\n      dup2\n        /* \"contracts/Demo11.sol\":1063:1078  todo.isComplete */\n      0x01\n      add\n      0x00\n      swap1\n      sload\n      swap1\n      0x0100\n      exp\n      swap1\n      div\n      0xff\n      and\n        /* \"contracts/Demo11.sol\":1045:1079  return (todo.name,todo.isComplete) */\n      dup2\n      dup1\n      sload\n      tag_76\n      swap1\n      tag_56\n      jump\t// in\n    tag_76:\n      dup1\n      0x1f\n      add\n      0x20\n      dup1\n      swap2\n      div\n      mul\n      0x20\n      add\n      mload(0x40)\n      swap1\n      dup2\n      add\n      0x40\n      mstore\n      dup1\n      swap3\n      swap2\n      swap1\n      dup2\n      dup2\n      mstore\n      0x20\n      add\n      dup3\n      dup1\n      sload\n      tag_77\n      swap1\n      tag_56\n      jump\t// in\n    tag_77:\n      dup1\n      iszero\n      tag_78\n      jumpi\n      dup1\n      0x1f\n      lt\n      tag_79\n      jumpi\n      0x0100\n      dup1\n      dup4\n      sload\n      div\n      mul\n      dup4\n      mstore\n      swap2\n      0x20\n      add\n      swap2\n      jump(tag_78)\n    tag_79:\n      dup3\n      add\n      swap2\n      swap1\n      0x00\n      mstore\n      keccak256(0x00, 0x20)\n      swap1\n    tag_80:\n      dup2\n      sload\n      dup2\n      mstore\n      swap1\n      0x01\n      add\n      swap1\n      0x20\n      add\n      dup1\n      dup4\n      gt\n      tag_80\n      jumpi\n      dup3\n      swap1\n      sub\n      0x1f\n      and\n      dup3\n      add\n      swap2\n    tag_78:\n      pop\n      pop\n      pop\n      pop\n      pop\n      swap2\n      pop\n      swap3\n      pop\n      swap3\n      pop\n      pop\n        /* \"contracts/Demo11.sol\":905:1087  function get1(uint256 index_) public view returns(string memory name_,bool isComplete){... */\n      swap2\n      pop\n      swap2\n      jump\t// out\n        /* \"contracts/Demo11.sol\":217:397  function create(string memory name_) public{... */\n    tag_37:\n        /* \"contracts/Demo11.sol\":271:275  list */\n      0x00\n        /* \"contracts/Demo11.sol\":295:378  Todo({... */\n      mload(0x40)\n      dup1\n      0x40\n      add\n      0x40\n      mstore\n      dup1\n        /* \"contracts/Demo11.sol\":323:328  name_ */\n      dup4\n        /* \"contracts/Demo11.sol\":295:378  Todo({... */\n      dup2\n      mstore\n      0x20\n      add\n        /* \"contracts/Demo11.sol\":357:362  false */\n      0x00\n        /* \"contracts/Demo11.sol\":295:378  Todo({... */\n      iszero\n      iszero\n      dup2\n      mstore\n      pop\n        /* \"contracts/Demo11.sol\":271:389  list.push(... */\n      swap1\n      dup1\n      0x01\n      dup2\n      sload\n      add\n      dup1\n      dup3\n      sstore\n      dup1\n      swap2\n      pop\n      pop\n      0x01\n      swap1\n      sub\n      swap1\n      0x00\n      mstore\n      keccak256(0x00, 0x20)\n      swap1\n      0x02\n      mul\n      add\n      0x00\n      swap1\n      swap2\n      swap1\n      swap2\n      swap1\n      swap2\n      pop\n      0x00\n      dup3\n      add\n      mload\n      dup2\n      0x00\n      add\n      swap1\n      dup2\n      tag_83\n      swap2\n      swap1\n      tag_50\n      jump\t// in\n    tag_83:\n      pop\n      0x20\n      dup3\n      add\n      mload\n      dup2\n      0x01\n      add\n      exp(0x0100, 0x00)\n      dup2\n      sload\n      dup2\n      0xff\n      mul\n      not\n      and\n      swap1\n      dup4\n      iszero\n      iszero\n      mul\n      or\n      swap1\n      sstore\n      pop\n      pop\n      pop\n        /* \"contracts/Demo11.sol\":217:397  function create(string memory name_) public{... */\n      pop\n      jump\t// out\n        /* \"contracts/Demo11.sol\":520:661  function modiName2(uint256 index_,string memory name_) public {... */\n    tag_40:\n        /* \"contracts/Demo11.sol\":593:610  Todo storage todo */\n      0x00\n        /* \"contracts/Demo11.sol\":613:617  list */\n      dup1\n        /* \"contracts/Demo11.sol\":618:624  index_ */\n      dup4\n        /* \"contracts/Demo11.sol\":613:625  list[index_] */\n      dup2\n      sload\n      dup2\n      lt\n      tag_85\n      jumpi\n      tag_86\n      tag_47\n      jump\t// in\n    tag_86:\n    tag_85:\n      swap1\n      0x00\n      mstore\n      keccak256(0x00, 0x20)\n      swap1\n      0x02\n      mul\n      add\n        /* \"contracts/Demo11.sol\":593:625  Todo storage todo = list[index_] */\n      swap1\n      pop\n        /* \"contracts/Demo11.sol\":648:653  name_ */\n      dup2\n        /* \"contracts/Demo11.sol\":636:640  todo */\n      dup2\n        /* \"contracts/Demo11.sol\":636:645  todo.name */\n      0x00\n      add\n        /* \"contracts/Demo11.sol\":636:653  todo.name = name_ */\n      swap1\n      dup2\n      tag_88\n      swap2\n      swap1\n      tag_50\n      jump\t// in\n    tag_88:\n      pop\n        /* \"contracts/Demo11.sol\":582:661  {... */\n      pop\n        /* \"contracts/Demo11.sol\":520:661  function modiName2(uint256 index_,string memory name_) public {... */\n      pop\n      pop\n      jump\t// out\n        /* \"contracts/Demo11.sol\":785:897  function modiStatus2(uint256 index_) public{... */\n    tag_43:\n        /* \"contracts/Demo11.sol\":866:870  list */\n      0x00\n        /* \"contracts/Demo11.sol\":871:877  index_ */\n      dup2\n        /* \"contracts/Demo11.sol\":866:878  list[index_] */\n      dup2\n      sload\n      dup2\n      lt\n      tag_90\n      jumpi\n      tag_91\n      tag_47\n      jump\t// in\n    tag_91:\n    tag_90:\n      swap1\n      0x00\n      mstore\n      keccak256(0x00, 0x20)\n      swap1\n      0x02\n      mul\n      add\n        /* \"contracts/Demo11.sol\":866:889  list[index_].isComplete */\n      0x01\n      add\n      0x00\n      swap1\n      sload\n      swap1\n      0x0100\n      exp\n      swap1\n      div\n      0xff\n      and\n        /* \"contracts/Demo11.sol\":865:889  !list[index_].isComplete */\n      iszero\n        /* \"contracts/Demo11.sol\":839:843  list */\n      0x00\n        /* \"contracts/Demo11.sol\":844:850  index_ */\n      dup3\n        /* \"contracts/Demo11.sol\":839:851  list[index_] */\n      dup2\n      sload\n      dup2\n      lt\n      tag_93\n      jumpi\n      tag_94\n      tag_47\n      jump\t// in\n    tag_94:\n    tag_93:\n      swap1\n      0x00\n      mstore\n      keccak256(0x00, 0x20)\n      swap1\n      0x02\n      mul\n      add\n        /* \"contracts/Demo11.sol\":839:862  list[index_].isComplete */\n      0x01\n      add\n      0x00\n        /* \"contracts/Demo11.sol\":839:889  list[index_].isComplete = !list[index_].isComplete */\n      0x0100\n      exp\n      dup2\n      sload\n      dup2\n      0xff\n      mul\n      not\n      and\n      swap1\n      dup4\n      iszero\n      iszero\n      mul\n      or\n      swap1\n      sstore\n      pop\n        /* \"contracts/Demo11.sol\":785:897  function modiStatus2(uint256 index_) public{... */\n      pop\n      jump\t// out\n        /* \"#utility.yul\":7:82   */\n    tag_96:\n        /* \"#utility.yul\":40:46   */\n      0x00\n        /* \"#utility.yul\":73:75   */\n      0x40\n        /* \"#utility.yul\":67:76   */\n      mload\n        /* \"#utility.yul\":57:76   */\n      swap1\n      pop\n        /* \"#utility.yul\":7:82   */\n      swap1\n      jump\t// out\n        /* \"#utility.yul\":88:205   */\n    tag_97:\n        /* \"#utility.yul\":197:198   */\n      0x00\n        /* \"#utility.yul\":194:195   */\n      dup1\n        /* \"#utility.yul\":187:199   */\n      revert\n        /* \"#utility.yul\":211:328   */\n    tag_98:\n        /* \"#utility.yul\":320:321   */\n      0x00\n        /* \"#utility.yul\":317:318   */\n      dup1\n        /* \"#utility.yul\":310:322   */\n      revert\n        /* \"#utility.yul\":334:411   */\n    tag_99:\n        /* \"#utility.yul\":371:378   */\n      0x00\n        /* \"#utility.yul\":400:405   */\n      dup2\n        /* \"#utility.yul\":389:405   */\n      swap1\n      pop\n        /* \"#utility.yul\":334:411   */\n      swap2\n      swap1\n      pop\n      jump\t// out\n        /* \"#utility.yul\":417:539   */\n    tag_100:\n        /* \"#utility.yul\":490:514   */\n      tag_142\n        /* \"#utility.yul\":508:513   */\n      dup2\n        /* \"#utility.yul\":490:514   */\n      tag_99\n      jump\t// in\n    tag_142:\n        /* \"#utility.yul\":483:488   */\n      dup2\n        /* \"#utility.yul\":480:515   */\n      eq\n        /* \"#utility.yul\":470:533   */\n      tag_143\n      jumpi\n        /* \"#utility.yul\":529:530   */\n      0x00\n        /* \"#utility.yul\":526:527   */\n      dup1\n        /* \"#utility.yul\":519:531   */\n      revert\n        /* \"#utility.yul\":470:533   */\n    tag_143:\n        /* \"#utility.yul\":417:539   */\n      pop\n      jump\t// out\n        /* \"#utility.yul\":545:684   */\n    tag_101:\n        /* \"#utility.yul\":591:596   */\n      0x00\n        /* \"#utility.yul\":629:635   */\n      dup2\n        /* \"#utility.yul\":616:636   */\n      calldataload\n        /* \"#utility.yul\":607:636   */\n      swap1\n      pop\n        /* \"#utility.yul\":645:678   */\n      tag_145\n        /* \"#utility.yul\":672:677   */\n      dup2\n        /* \"#utility.yul\":645:678   */\n      tag_100\n      jump\t// in\n    tag_145:\n        /* \"#utility.yul\":545:684   */\n      swap3\n      swap2\n      pop\n      pop\n      jump\t// out\n        /* \"#utility.yul\":690:807   */\n    tag_102:\n        /* \"#utility.yul\":799:800   */\n      0x00\n        /* \"#utility.yul\":796:797   */\n      dup1\n        /* \"#utility.yul\":789:801   */\n      revert\n        /* \"#utility.yul\":813:930   */\n    tag_103:\n        /* \"#utility.yul\":922:923   */\n      0x00\n        /* \"#utility.yul\":919:920   */\n      dup1\n        /* \"#utility.yul\":912:924   */\n      revert\n        /* \"#utility.yul\":936:1038   */\n    tag_104:\n        /* \"#utility.yul\":977:983   */\n      0x00\n        /* \"#utility.yul\":1028:1030   */\n      0x1f\n        /* \"#utility.yul\":1024:1031   */\n      not\n        /* \"#utility.yul\":1019:1021   */\n      0x1f\n        /* \"#utility.yul\":1012:1017   */\n      dup4\n        /* \"#utility.yul\":1008:1022   */\n      add\n        /* \"#utility.yul\":1004:1032   */\n      and\n        /* \"#utility.yul\":994:1032   */\n      swap1\n      pop\n        /* \"#utility.yul\":936:1038   */\n      swap2\n      swap1\n      pop\n      jump\t// out\n        /* \"#utility.yul\":1044:1224   */\n    tag_105:\n        /* \"#utility.yul\":1092:1169   */\n      0x4e487b7100000000000000000000000000000000000000000000000000000000\n        /* \"#utility.yul\":1089:1090   */\n      0x00\n        /* \"#utility.yul\":1082:1170   */\n      mstore\n        /* \"#utility.yul\":1189:1193   */\n      0x41\n        /* \"#utility.yul\":1186:1187   */\n      0x04\n        /* \"#utility.yul\":1179:1194   */\n      mstore\n        /* \"#utility.yul\":1213:1217   */\n      0x24\n        /* \"#utility.yul\":1210:1211   */\n      0x00\n        /* \"#utility.yul\":1203:1218   */\n      revert\n        /* \"#utility.yul\":1230:1511   */\n    tag_106:\n        /* \"#utility.yul\":1313:1340   */\n      tag_151\n        /* \"#utility.yul\":1335:1339   */\n      dup3\n        /* \"#utility.yul\":1313:1340   */\n      tag_104\n      jump\t// in\n    tag_151:\n        /* \"#utility.yul\":1305:1311   */\n      dup2\n        /* \"#utility.yul\":1301:1341   */\n      add\n        /* \"#utility.yul\":1443:1449   */\n      dup2\n        /* \"#utility.yul\":1431:1441   */\n      dup2\n        /* \"#utility.yul\":1428:1450   */\n      lt\n        /* \"#utility.yul\":1407:1425   */\n      0xffffffffffffffff\n        /* \"#utility.yul\":1395:1405   */\n      dup3\n        /* \"#utility.yul\":1392:1426   */\n      gt\n        /* \"#utility.yul\":1389:1451   */\n      or\n        /* \"#utility.yul\":1386:1474   */\n      iszero\n      tag_152\n      jumpi\n        /* \"#utility.yul\":1454:1472   */\n      tag_153\n      tag_105\n      jump\t// in\n    tag_153:\n        /* \"#utility.yul\":1386:1474   */\n    tag_152:\n        /* \"#utility.yul\":1494:1504   */\n      dup1\n        /* \"#utility.yul\":1490:1492   */\n      0x40\n        /* \"#utility.yul\":1483:1505   */\n      mstore\n        /* \"#utility.yul\":1273:1511   */\n      pop\n        /* \"#utility.yul\":1230:1511   */\n      pop\n      pop\n      jump\t// out\n        /* \"#utility.yul\":1517:1646   */\n    tag_107:\n        /* \"#utility.yul\":1551:1557   */\n      0x00\n        /* \"#utility.yul\":1578:1598   */\n      tag_155\n      tag_96\n      jump\t// in\n    tag_155:\n        /* \"#utility.yul\":1568:1598   */\n      swap1\n      pop\n        /* \"#utility.yul\":1607:1640   */\n      tag_156\n        /* \"#utility.yul\":1635:1639   */\n      dup3\n        /* \"#utility.yul\":1627:1633   */\n      dup3\n        /* \"#utility.yul\":1607:1640   */\n      tag_106\n      jump\t// in\n    tag_156:\n        /* \"#utility.yul\":1517:1646   */\n      swap2\n      swap1\n      pop\n      jump\t// out\n        /* \"#utility.yul\":1652:1960   */\n    tag_108:\n        /* \"#utility.yul\":1714:1718   */\n      0x00\n        /* \"#utility.yul\":1804:1822   */\n      0xffffffffffffffff\n        /* \"#utility.yul\":1796:1802   */\n      dup3\n        /* \"#utility.yul\":1793:1823   */\n      gt\n        /* \"#utility.yul\":1790:1846   */\n      iszero\n      tag_158\n      jumpi\n        /* \"#utility.yul\":1826:1844   */\n      tag_159\n      tag_105\n      jump\t// in\n    tag_159:\n        /* \"#utility.yul\":1790:1846   */\n    tag_158:\n        /* \"#utility.yul\":1864:1893   */\n      tag_160\n        /* \"#utility.yul\":1886:1892   */\n      dup3\n        /* \"#utility.yul\":1864:1893   */\n      tag_104\n      jump\t// in\n    tag_160:\n        /* \"#utility.yul\":1856:1893   */\n      swap1\n      pop\n        /* \"#utility.yul\":1948:1952   */\n      0x20\n        /* \"#utility.yul\":1942:1946   */\n      dup2\n        /* \"#utility.yul\":1938:1953   */\n      add\n        /* \"#utility.yul\":1930:1953   */\n      swap1\n      pop\n        /* \"#utility.yul\":1652:1960   */\n      swap2\n      swap1\n      pop\n      jump\t// out\n        /* \"#utility.yul\":1966:2112   */\n    tag_109:\n        /* \"#utility.yul\":2063:2069   */\n      dup3\n        /* \"#utility.yul\":2058:2061   */\n      dup2\n        /* \"#utility.yul\":2053:2056   */\n      dup4\n        /* \"#utility.yul\":2040:2070   */\n      calldatacopy\n        /* \"#utility.yul\":2104:2105   */\n      0x00\n        /* \"#utility.yul\":2095:2101   */\n      dup4\n        /* \"#utility.yul\":2090:2093   */\n      dup4\n        /* \"#utility.yul\":2086:2102   */\n      add\n        /* \"#utility.yul\":2079:2106   */\n      mstore\n        /* \"#utility.yul\":1966:2112   */\n      pop\n      pop\n      pop\n      jump\t// out\n        /* \"#utility.yul\":2118:2543   */\n    tag_110:\n        /* \"#utility.yul\":2196:2201   */\n      0x00\n        /* \"#utility.yul\":2221:2287   */\n      tag_163\n        /* \"#utility.yul\":2237:2286   */\n      tag_164\n        /* \"#utility.yul\":2279:2285   */\n      dup5\n        /* \"#utility.yul\":2237:2286   */\n      tag_108\n      jump\t// in\n    tag_164:\n        /* \"#utility.yul\":2221:2287   */\n      tag_107\n      jump\t// in\n    tag_163:\n        /* \"#utility.yul\":2212:2287   */\n      swap1\n      pop\n        /* \"#utility.yul\":2310:2316   */\n      dup3\n        /* \"#utility.yul\":2303:2308   */\n      dup2\n        /* \"#utility.yul\":2296:2317   */\n      mstore\n        /* \"#utility.yul\":2348:2352   */\n      0x20\n        /* \"#utility.yul\":2341:2346   */\n      dup2\n        /* \"#utility.yul\":2337:2353   */\n      add\n        /* \"#utility.yul\":2386:2389   */\n      dup5\n        /* \"#utility.yul\":2377:2383   */\n      dup5\n        /* \"#utility.yul\":2372:2375   */\n      dup5\n        /* \"#utility.yul\":2368:2384   */\n      add\n        /* \"#utility.yul\":2365:2390   */\n      gt\n        /* \"#utility.yul\":2362:2474   */\n      iszero\n      tag_165\n      jumpi\n        /* \"#utility.yul\":2393:2472   */\n      tag_166\n      tag_103\n      jump\t// in\n    tag_166:\n        /* \"#utility.yul\":2362:2474   */\n    tag_165:\n        /* \"#utility.yul\":2483:2537   */\n      tag_167\n        /* \"#utility.yul\":2530:2536   */\n      dup5\n        /* \"#utility.yul\":2525:2528   */\n      dup3\n        /* \"#utility.yul\":2520:2523   */\n      dup6\n        /* \"#utility.yul\":2483:2537   */\n      tag_109\n      jump\t// in\n    tag_167:\n        /* \"#utility.yul\":2202:2543   */\n      pop\n        /* \"#utility.yul\":2118:2543   */\n      swap4\n      swap3\n      pop\n      pop\n      pop\n      jump\t// out\n        /* \"#utility.yul\":2563:2903   */\n    tag_111:\n        /* \"#utility.yul\":2619:2624   */\n      0x00\n        /* \"#utility.yul\":2668:2671   */\n      dup3\n        /* \"#utility.yul\":2661:2665   */\n      0x1f\n        /* \"#utility.yul\":2653:2659   */\n      dup4\n        /* \"#utility.yul\":2649:2666   */\n      add\n        /* \"#utility.yul\":2645:2672   */\n      slt\n        /* \"#utility.yul\":2635:2757   */\n      tag_169\n      jumpi\n        /* \"#utility.yul\":2676:2755   */\n      tag_170\n      tag_102\n      jump\t// in\n    tag_170:\n        /* \"#utility.yul\":2635:2757   */\n    tag_169:\n        /* \"#utility.yul\":2793:2799   */\n      dup2\n        /* \"#utility.yul\":2780:2800   */\n      calldataload\n        /* \"#utility.yul\":2818:2897   */\n      tag_171\n        /* \"#utility.yul\":2893:2896   */\n      dup5\n        /* \"#utility.yul\":2885:2891   */\n      dup3\n        /* \"#utility.yul\":2878:2882   */\n      0x20\n        /* \"#utility.yul\":2870:2876   */\n      dup7\n        /* \"#utility.yul\":2866:2883   */\n      add\n        /* \"#utility.yul\":2818:2897   */\n      tag_110\n      jump\t// in\n    tag_171:\n        /* \"#utility.yul\":2809:2897   */\n      swap2\n      pop\n        /* \"#utility.yul\":2625:2903   */\n      pop\n        /* \"#utility.yul\":2563:2903   */\n      swap3\n      swap2\n      pop\n      pop\n      jump\t// out\n        /* \"#utility.yul\":2909:3563   */\n    tag_14:\n        /* \"#utility.yul\":2987:2993   */\n      0x00\n        /* \"#utility.yul\":2995:3001   */\n      dup1\n        /* \"#utility.yul\":3044:3046   */\n      0x40\n        /* \"#utility.yul\":3032:3041   */\n      dup4\n        /* \"#utility.yul\":3023:3030   */\n      dup6\n        /* \"#utility.yul\":3019:3042   */\n      sub\n        /* \"#utility.yul\":3015:3047   */\n      slt\n        /* \"#utility.yul\":3012:3131   */\n      iszero\n      tag_173\n      jumpi\n        /* \"#utility.yul\":3050:3129   */\n      tag_174\n      tag_97\n      jump\t// in\n    tag_174:\n        /* \"#utility.yul\":3012:3131   */\n    tag_173:\n        /* \"#utility.yul\":3170:3171   */\n      0x00\n        /* \"#utility.yul\":3195:3248   */\n      tag_175\n        /* \"#utility.yul\":3240:3247   */\n      dup6\n        /* \"#utility.yul\":3231:3237   */\n      dup3\n        /* \"#utility.yul\":3220:3229   */\n      dup7\n        /* \"#utility.yul\":3216:3238   */\n      add\n        /* \"#utility.yul\":3195:3248   */\n      tag_101\n      jump\t// in\n    tag_175:\n        /* \"#utility.yul\":3185:3248   */\n      swap3\n      pop\n        /* \"#utility.yul\":3141:3258   */\n      pop\n        /* \"#utility.yul\":3325:3327   */\n      0x20\n        /* \"#utility.yul\":3314:3323   */\n      dup4\n        /* \"#utility.yul\":3310:3328   */\n      add\n        /* \"#utility.yul\":3297:3329   */\n      calldataload\n        /* \"#utility.yul\":3356:3374   */\n      0xffffffffffffffff\n        /* \"#utility.yul\":3348:3354   */\n      dup2\n        /* \"#utility.yul\":3345:3375   */\n      gt\n        /* \"#utility.yul\":3342:3459   */\n      iszero\n      tag_176\n      jumpi\n        /* \"#utility.yul\":3378:3457   */\n      tag_177\n      tag_98\n      jump\t// in\n    tag_177:\n        /* \"#utility.yul\":3342:3459   */\n    tag_176:\n        /* \"#utility.yul\":3483:3546   */\n      tag_178\n        /* \"#utility.yul\":3538:3545   */\n      dup6\n        /* \"#utility.yul\":3529:3535   */\n      dup3\n        /* \"#utility.yul\":3518:3527   */\n      dup7\n        /* \"#utility.yul\":3514:3536   */\n      add\n        /* \"#utility.yul\":3483:3546   */\n      tag_111\n      jump\t// in\n    tag_178:\n        /* \"#utility.yul\":3473:3546   */\n      swap2\n      pop\n        /* \"#utility.yul\":3268:3556   */\n      pop\n        /* \"#utility.yul\":2909:3563   */\n      swap3\n      pop\n      swap3\n      swap1\n      pop\n      jump\t// out\n        /* \"#utility.yul\":3569:3898   */\n    tag_18:\n        /* \"#utility.yul\":3628:3634   */\n      0x00\n        /* \"#utility.yul\":3677:3679   */\n      0x20\n        /* \"#utility.yul\":3665:3674   */\n      dup3\n        /* \"#utility.yul\":3656:3663   */\n      dup5\n        /* \"#utility.yul\":3652:3675   */\n      sub\n        /* \"#utility.yul\":3648:3680   */\n      slt\n        /* \"#utility.yul\":3645:3764   */\n      iszero\n      tag_180\n      jumpi\n        /* \"#utility.yul\":3683:3762   */\n      tag_181\n      tag_97\n      jump\t// in\n    tag_181:\n        /* \"#utility.yul\":3645:3764   */\n    tag_180:\n        /* \"#utility.yul\":3803:3804   */\n      0x00\n        /* \"#utility.yul\":3828:3881   */\n      tag_182\n        /* \"#utility.yul\":3873:3880   */\n      dup5\n        /* \"#utility.yul\":3864:3870   */\n      dup3\n        /* \"#utility.yul\":3853:3862   */\n      dup6\n        /* \"#utility.yul\":3849:3871   */\n      add\n        /* \"#utility.yul\":3828:3881   */\n      tag_101\n      jump\t// in\n    tag_182:\n        /* \"#utility.yul\":3818:3881   */\n      swap2\n      pop\n        /* \"#utility.yul\":3774:3891   */\n      pop\n        /* \"#utility.yul\":3569:3898   */\n      swap3\n      swap2\n      pop\n      pop\n      jump\t// out\n        /* \"#utility.yul\":3904:4003   */\n    tag_112:\n        /* \"#utility.yul\":3956:3962   */\n      0x00\n        /* \"#utility.yul\":3990:3995   */\n      dup2\n        /* \"#utility.yul\":3984:3996   */\n      mload\n        /* \"#utility.yul\":3974:3996   */\n      swap1\n      pop\n        /* \"#utility.yul\":3904:4003   */\n      swap2\n      swap1\n      pop\n      jump\t// out\n        /* \"#utility.yul\":4009:4178   */\n    tag_113:\n        /* \"#utility.yul\":4093:4104   */\n      0x00\n        /* \"#utility.yul\":4127:4133   */\n      dup3\n        /* \"#utility.yul\":4122:4125   */\n      dup3\n        /* \"#utility.yul\":4115:4134   */\n      mstore\n        /* \"#utility.yul\":4167:4171   */\n      0x20\n        /* \"#utility.yul\":4162:4165   */\n      dup3\n        /* \"#utility.yul\":4158:4172   */\n      add\n        /* \"#utility.yul\":4143:4172   */\n      swap1\n      pop\n        /* \"#utility.yul\":4009:4178   */\n      swap3\n      swap2\n      pop\n      pop\n      jump\t// out\n        /* \"#utility.yul\":4184:4430   */\n    tag_114:\n        /* \"#utility.yul\":4265:4266   */\n      0x00\n        /* \"#utility.yul\":4275:4388   */\n    tag_186:\n        /* \"#utility.yul\":4289:4295   */\n      dup4\n        /* \"#utility.yul\":4286:4287   */\n      dup2\n        /* \"#utility.yul\":4283:4296   */\n      lt\n        /* \"#utility.yul\":4275:4388   */\n      iszero\n      tag_188\n      jumpi\n        /* \"#utility.yul\":4374:4375   */\n      dup1\n        /* \"#utility.yul\":4369:4372   */\n      dup3\n        /* \"#utility.yul\":4365:4376   */\n      add\n        /* \"#utility.yul\":4359:4377   */\n      mload\n        /* \"#utility.yul\":4355:4356   */\n      dup2\n        /* \"#utility.yul\":4350:4353   */\n      dup5\n        /* \"#utility.yul\":4346:4357   */\n      add\n        /* \"#utility.yul\":4339:4378   */\n      mstore\n        /* \"#utility.yul\":4311:4313   */\n      0x20\n        /* \"#utility.yul\":4308:4309   */\n      dup2\n        /* \"#utility.yul\":4304:4314   */\n      add\n        /* \"#utility.yul\":4299:4314   */\n      swap1\n      pop\n        /* \"#utility.yul\":4275:4388   */\n      jump(tag_186)\n    tag_188:\n        /* \"#utility.yul\":4422:4423   */\n      0x00\n        /* \"#utility.yul\":4413:4419   */\n      dup5\n        /* \"#utility.yul\":4408:4411   */\n      dup5\n        /* \"#utility.yul\":4404:4420   */\n      add\n        /* \"#utility.yul\":4397:4424   */\n      mstore\n        /* \"#utility.yul\":4246:4430   */\n      pop\n        /* \"#utility.yul\":4184:4430   */\n      pop\n      pop\n      pop\n      jump\t// out\n        /* \"#utility.yul\":4436:4813   */\n    tag_115:\n        /* \"#utility.yul\":4524:4527   */\n      0x00\n        /* \"#utility.yul\":4552:4591   */\n      tag_190\n        /* \"#utility.yul\":4585:4590   */\n      dup3\n        /* \"#utility.yul\":4552:4591   */\n      tag_112\n      jump\t// in\n    tag_190:\n        /* \"#utility.yul\":4607:4678   */\n      tag_191\n        /* \"#utility.yul\":4671:4677   */\n      dup2\n        /* \"#utility.yul\":4666:4669   */\n      dup6\n        /* \"#utility.yul\":4607:4678   */\n      tag_113\n      jump\t// in\n    tag_191:\n        /* \"#utility.yul\":4600:4678   */\n      swap4\n      pop\n        /* \"#utility.yul\":4687:4752   */\n      tag_192\n        /* \"#utility.yul\":4745:4751   */\n      dup2\n        /* \"#utility.yul\":4740:4743   */\n      dup6\n        /* \"#utility.yul\":4733:4737   */\n      0x20\n        /* \"#utility.yul\":4726:4731   */\n      dup7\n        /* \"#utility.yul\":4722:4738   */\n      add\n        /* \"#utility.yul\":4687:4752   */\n      tag_114\n      jump\t// in\n    tag_192:\n        /* \"#utility.yul\":4777:4806   */\n      tag_193\n        /* \"#utility.yul\":4799:4805   */\n      dup2\n        /* \"#utility.yul\":4777:4806   */\n      tag_104\n      jump\t// in\n    tag_193:\n        /* \"#utility.yul\":4772:4775   */\n      dup5\n        /* \"#utility.yul\":4768:4807   */\n      add\n        /* \"#utility.yul\":4761:4807   */\n      swap2\n      pop\n        /* \"#utility.yul\":4528:4813   */\n      pop\n        /* \"#utility.yul\":4436:4813   */\n      swap3\n      swap2\n      pop\n      pop\n      jump\t// out\n        /* \"#utility.yul\":4819:4909   */\n    tag_116:\n        /* \"#utility.yul\":4853:4860   */\n      0x00\n        /* \"#utility.yul\":4896:4901   */\n      dup2\n        /* \"#utility.yul\":4889:4902   */\n      iszero\n        /* \"#utility.yul\":4882:4903   */\n      iszero\n        /* \"#utility.yul\":4871:4903   */\n      swap1\n      pop\n        /* \"#utility.yul\":4819:4909   */\n      swap2\n      swap1\n      pop\n      jump\t// out\n        /* \"#utility.yul\":4915:5024   */\n    tag_117:\n        /* \"#utility.yul\":4996:5017   */\n      tag_196\n        /* \"#utility.yul\":5011:5016   */\n      dup2\n        /* \"#utility.yul\":4996:5017   */\n      tag_116\n      jump\t// in\n    tag_196:\n        /* \"#utility.yul\":4991:4994   */\n      dup3\n        /* \"#utility.yul\":4984:5018   */\n      mstore\n        /* \"#utility.yul\":4915:5024   */\n      pop\n      pop\n      jump\t// out\n        /* \"#utility.yul\":5030:5441   */\n    tag_21:\n        /* \"#utility.yul\":5165:5169   */\n      0x00\n        /* \"#utility.yul\":5203:5205   */\n      0x40\n        /* \"#utility.yul\":5192:5201   */\n      dup3\n        /* \"#utility.yul\":5188:5206   */\n      add\n        /* \"#utility.yul\":5180:5206   */\n      swap1\n      pop\n        /* \"#utility.yul\":5252:5261   */\n      dup2\n        /* \"#utility.yul\":5246:5250   */\n      dup2\n        /* \"#utility.yul\":5242:5262   */\n      sub\n        /* \"#utility.yul\":5238:5239   */\n      0x00\n        /* \"#utility.yul\":5227:5236   */\n      dup4\n        /* \"#utility.yul\":5223:5240   */\n      add\n        /* \"#utility.yul\":5216:5263   */\n      mstore\n        /* \"#utility.yul\":5280:5358   */\n      tag_198\n        /* \"#utility.yul\":5353:5357   */\n      dup2\n        /* \"#utility.yul\":5344:5350   */\n      dup6\n        /* \"#utility.yul\":5280:5358   */\n      tag_115\n      jump\t// in\n    tag_198:\n        /* \"#utility.yul\":5272:5358   */\n      swap1\n      pop\n        /* \"#utility.yul\":5368:5434   */\n      tag_199\n        /* \"#utility.yul\":5430:5432   */\n      0x20\n        /* \"#utility.yul\":5419:5428   */\n      dup4\n        /* \"#utility.yul\":5415:5433   */\n      add\n        /* \"#utility.yul\":5406:5412   */\n      dup5\n        /* \"#utility.yul\":5368:5434   */\n      tag_117\n      jump\t// in\n    tag_199:\n        /* \"#utility.yul\":5030:5441   */\n      swap4\n      swap3\n      pop\n      pop\n      pop\n      jump\t// out\n        /* \"#utility.yul\":5447:5563   */\n    tag_118:\n        /* \"#utility.yul\":5517:5538   */\n      tag_201\n        /* \"#utility.yul\":5532:5537   */\n      dup2\n        /* \"#utility.yul\":5517:5538   */\n      tag_116\n      jump\t// in\n    tag_201:\n        /* \"#utility.yul\":5510:5515   */\n      dup2\n        /* \"#utility.yul\":5507:5539   */\n      eq\n        /* \"#utility.yul\":5497:5557   */\n      tag_202\n      jumpi\n        /* \"#utility.yul\":5553:5554   */\n      0x00\n        /* \"#utility.yul\":5550:5551   */\n      dup1\n        /* \"#utility.yul\":5543:5555   */\n      revert\n        /* \"#utility.yul\":5497:5557   */\n    tag_202:\n        /* \"#utility.yul\":5447:5563   */\n      pop\n      jump\t// out\n        /* \"#utility.yul\":5569:5702   */\n    tag_119:\n        /* \"#utility.yul\":5612:5617   */\n      0x00\n        /* \"#utility.yul\":5650:5656   */\n      dup2\n        /* \"#utility.yul\":5637:5657   */\n      calldataload\n        /* \"#utility.yul\":5628:5657   */\n      swap1\n      pop\n        /* \"#utility.yul\":5666:5696   */\n      tag_204\n        /* \"#utility.yul\":5690:5695   */\n      dup2\n        /* \"#utility.yul\":5666:5696   */\n      tag_118\n      jump\t// in\n    tag_204:\n        /* \"#utility.yul\":5569:5702   */\n      swap3\n      swap2\n      pop\n      pop\n      jump\t// out\n        /* \"#utility.yul\":5708:6176   */\n    tag_24:\n        /* \"#utility.yul\":5773:5779   */\n      0x00\n        /* \"#utility.yul\":5781:5787   */\n      dup1\n        /* \"#utility.yul\":5830:5832   */\n      0x40\n        /* \"#utility.yul\":5818:5827   */\n      dup4\n        /* \"#utility.yul\":5809:5816   */\n      dup6\n        /* \"#utility.yul\":5805:5828   */\n      sub\n        /* \"#utility.yul\":5801:5833   */\n      slt\n        /* \"#utility.yul\":5798:5917   */\n      iszero\n      tag_206\n      jumpi\n        /* \"#utility.yul\":5836:5915   */\n      tag_207\n      tag_97\n      jump\t// in\n    tag_207:\n        /* \"#utility.yul\":5798:5917   */\n    tag_206:\n        /* \"#utility.yul\":5956:5957   */\n      0x00\n        /* \"#utility.yul\":5981:6034   */\n      tag_208\n        /* \"#utility.yul\":6026:6033   */\n      dup6\n        /* \"#utility.yul\":6017:6023   */\n      dup3\n        /* \"#utility.yul\":6006:6015   */\n      dup7\n        /* \"#utility.yul\":6002:6024   */\n      add\n        /* \"#utility.yul\":5981:6034   */\n      tag_101\n      jump\t// in\n    tag_208:\n        /* \"#utility.yul\":5971:6034   */\n      swap3\n      pop\n        /* \"#utility.yul\":5927:6044   */\n      pop\n        /* \"#utility.yul\":6083:6085   */\n      0x20\n        /* \"#utility.yul\":6109:6159   */\n      tag_209\n        /* \"#utility.yul\":6151:6158   */\n      dup6\n        /* \"#utility.yul\":6142:6148   */\n      dup3\n        /* \"#utility.yul\":6131:6140   */\n      dup7\n        /* \"#utility.yul\":6127:6149   */\n      add\n        /* \"#utility.yul\":6109:6159   */\n      tag_119\n      jump\t// in\n    tag_209:\n        /* \"#utility.yul\":6099:6159   */\n      swap2\n      pop\n        /* \"#utility.yul\":6054:6169   */\n      pop\n        /* \"#utility.yul\":5708:6176   */\n      swap3\n      pop\n      swap3\n      swap1\n      pop\n      jump\t// out\n        /* \"#utility.yul\":6182:6691   */\n    tag_36:\n        /* \"#utility.yul\":6251:6257   */\n      0x00\n        /* \"#utility.yul\":6300:6302   */\n      0x20\n        /* \"#utility.yul\":6288:6297   */\n      dup3\n        /* \"#utility.yul\":6279:6286   */\n      dup5\n        /* \"#utility.yul\":6275:6298   */\n      sub\n        /* \"#utility.yul\":6271:6303   */\n      slt\n        /* \"#utility.yul\":6268:6387   */\n      iszero\n      tag_211\n      jumpi\n        /* \"#utility.yul\":6306:6385   */\n      tag_212\n      tag_97\n      jump\t// in\n    tag_212:\n        /* \"#utility.yul\":6268:6387   */\n    tag_211:\n        /* \"#utility.yul\":6454:6455   */\n      0x00\n        /* \"#utility.yul\":6443:6452   */\n      dup3\n        /* \"#utility.yul\":6439:6456   */\n      add\n        /* \"#utility.yul\":6426:6457   */\n      calldataload\n        /* \"#utility.yul\":6484:6502   */\n      0xffffffffffffffff\n        /* \"#utility.yul\":6476:6482   */\n      dup2\n        /* \"#utility.yul\":6473:6503   */\n      gt\n        /* \"#utility.yul\":6470:6587   */\n      iszero\n      tag_213\n      jumpi\n        /* \"#utility.yul\":6506:6585   */\n      tag_214\n      tag_98\n      jump\t// in\n    tag_214:\n        /* \"#utility.yul\":6470:6587   */\n    tag_213:\n        /* \"#utility.yul\":6611:6674   */\n      tag_215\n        /* \"#utility.yul\":6666:6673   */\n      dup5\n        /* \"#utility.yul\":6657:6663   */\n      dup3\n        /* \"#utility.yul\":6646:6655   */\n      dup6\n        /* \"#utility.yul\":6642:6664   */\n      add\n        /* \"#utility.yul\":6611:6674   */\n      tag_111\n      jump\t// in\n    tag_215:\n        /* \"#utility.yul\":6601:6674   */\n      swap2\n      pop\n        /* \"#utility.yul\":6397:6684   */\n      pop\n        /* \"#utility.yul\":6182:6691   */\n      swap3\n      swap2\n      pop\n      pop\n      jump\t// out\n        /* \"#utility.yul\":6697:6877   */\n    tag_47:\n        /* \"#utility.yul\":6745:6822   */\n      0x4e487b7100000000000000000000000000000000000000000000000000000000\n        /* \"#utility.yul\":6742:6743   */\n      0x00\n        /* \"#utility.yul\":6735:6823   */\n      mstore\n        /* \"#utility.yul\":6842:6846   */\n      0x32\n        /* \"#utility.yul\":6839:6840   */\n      0x04\n        /* \"#utility.yul\":6832:6847   */\n      mstore\n        /* \"#utility.yul\":6866:6870   */\n      0x24\n        /* \"#utility.yul\":6863:6864   */\n      0x00\n        /* \"#utility.yul\":6856:6871   */\n      revert\n        /* \"#utility.yul\":6883:7063   */\n    tag_120:\n        /* \"#utility.yul\":6931:7008   */\n      0x4e487b7100000000000000000000000000000000000000000000000000000000\n        /* \"#utility.yul\":6928:6929   */\n      0x00\n        /* \"#utility.yul\":6921:7009   */\n      mstore\n        /* \"#utility.yul\":7028:7032   */\n      0x22\n        /* \"#utility.yul\":7025:7026   */\n      0x04\n        /* \"#utility.yul\":7018:7033   */\n      mstore\n        /* \"#utility.yul\":7052:7056   */\n      0x24\n        /* \"#utility.yul\":7049:7050   */\n      0x00\n        /* \"#utility.yul\":7042:7057   */\n      revert\n        /* \"#utility.yul\":7069:7389   */\n    tag_56:\n        /* \"#utility.yul\":7113:7119   */\n      0x00\n        /* \"#utility.yul\":7150:7151   */\n      0x02\n        /* \"#utility.yul\":7144:7148   */\n      dup3\n        /* \"#utility.yul\":7140:7152   */\n      div\n        /* \"#utility.yul\":7130:7152   */\n      swap1\n      pop\n        /* \"#utility.yul\":7197:7198   */\n      0x01\n        /* \"#utility.yul\":7191:7195   */\n      dup3\n        /* \"#utility.yul\":7187:7199   */\n      and\n        /* \"#utility.yul\":7218:7236   */\n      dup1\n        /* \"#utility.yul\":7208:7289   */\n      tag_219\n      jumpi\n        /* \"#utility.yul\":7274:7278   */\n      0x7f\n        /* \"#utility.yul\":7266:7272   */\n      dup3\n        /* \"#utility.yul\":7262:7279   */\n      and\n        /* \"#utility.yul\":7252:7279   */\n      swap2\n      pop\n        /* \"#utility.yul\":7208:7289   */\n    tag_219:\n        /* \"#utility.yul\":7336:7338   */\n      0x20\n        /* \"#utility.yul\":7328:7334   */\n      dup3\n        /* \"#utility.yul\":7325:7339   */\n      lt\n        /* \"#utility.yul\":7305:7323   */\n      dup2\n        /* \"#utility.yul\":7302:7340   */\n      sub\n        /* \"#utility.yul\":7299:7383   */\n      tag_220\n      jumpi\n        /* \"#utility.yul\":7355:7373   */\n      tag_221\n      tag_120\n      jump\t// in\n    tag_221:\n        /* \"#utility.yul\":7299:7383   */\n    tag_220:\n        /* \"#utility.yul\":7120:7389   */\n      pop\n        /* \"#utility.yul\":7069:7389   */\n      swap2\n      swap1\n      pop\n      jump\t// out\n        /* \"#utility.yul\":7395:7536   */\n    tag_121:\n        /* \"#utility.yul\":7444:7448   */\n      0x00\n        /* \"#utility.yul\":7467:7470   */\n      dup2\n        /* \"#utility.yul\":7459:7470   */\n      swap1\n      pop\n        /* \"#utility.yul\":7490:7493   */\n      dup2\n        /* \"#utility.yul\":7487:7488   */\n      0x00\n        /* \"#utility.yul\":7480:7494   */\n      mstore\n        /* \"#utility.yul\":7524:7528   */\n      0x20\n        /* \"#utility.yul\":7521:7522   */\n      0x00\n        /* \"#utility.yul\":7511:7529   */\n      keccak256\n        /* \"#utility.yul\":7503:7529   */\n      swap1\n      pop\n        /* \"#utility.yul\":7395:7536   */\n      swap2\n      swap1\n      pop\n      jump\t// out\n        /* \"#utility.yul\":7542:7635   */\n    tag_122:\n        /* \"#utility.yul\":7579:7585   */\n      0x00\n        /* \"#utility.yul\":7626:7628   */\n      0x20\n        /* \"#utility.yul\":7621:7623   */\n      0x1f\n        /* \"#utility.yul\":7614:7619   */\n      dup4\n        /* \"#utility.yul\":7610:7624   */\n      add\n        /* \"#utility.yul\":7606:7629   */\n      div\n        /* \"#utility.yul\":7596:7629   */\n      swap1\n      pop\n        /* \"#utility.yul\":7542:7635   */\n      swap2\n      swap1\n      pop\n      jump\t// out\n        /* \"#utility.yul\":7641:7748   */\n    tag_123:\n        /* \"#utility.yul\":7685:7693   */\n      0x00\n        /* \"#utility.yul\":7735:7740   */\n      dup3\n        /* \"#utility.yul\":7729:7733   */\n      dup3\n        /* \"#utility.yul\":7725:7741   */\n      shl\n        /* \"#utility.yul\":7704:7741   */\n      swap1\n      pop\n        /* \"#utility.yul\":7641:7748   */\n      swap3\n      swap2\n      pop\n      pop\n      jump\t// out\n        /* \"#utility.yul\":7754:8147   */\n    tag_124:\n        /* \"#utility.yul\":7823:7829   */\n      0x00\n        /* \"#utility.yul\":7873:7874   */\n      0x08\n        /* \"#utility.yul\":7861:7871   */\n      dup4\n        /* \"#utility.yul\":7857:7875   */\n      mul\n        /* \"#utility.yul\":7896:7993   */\n      tag_226\n        /* \"#utility.yul\":7926:7992   */\n      0xffffffffffffffffffffffffffffffffffffffffffffffffffffffffffffffff\n        /* \"#utility.yul\":7915:7924   */\n      dup3\n        /* \"#utility.yul\":7896:7993   */\n      tag_123\n      jump\t// in\n    tag_226:\n        /* \"#utility.yul\":8014:8053   */\n      tag_227\n        /* \"#utility.yul\":8044:8052   */\n      dup7\n        /* \"#utility.yul\":8033:8042   */\n      dup4\n        /* \"#utility.yul\":8014:8053   */\n      tag_123\n      jump\t// in\n    tag_227:\n        /* \"#utility.yul\":8002:8053   */\n      swap6\n      pop\n        /* \"#utility.yul\":8086:8090   */\n      dup1\n        /* \"#utility.yul\":8082:8091   */\n      not\n        /* \"#utility.yul\":8075:8080   */\n      dup5\n        /* \"#utility.yul\":8071:8092   */\n      and\n        /* \"#utility.yul\":8062:8092   */\n      swap4\n      pop\n        /* \"#utility.yul\":8135:8139   */\n      dup1\n        /* \"#utility.yul\":8125:8133   */\n      dup7\n        /* \"#utility.yul\":8121:8140   */\n      and\n        /* \"#utility.yul\":8114:8119   */\n      dup5\n        /* \"#utility.yul\":8111:8141   */\n      or\n        /* \"#utility.yul\":8101:8141   */\n      swap3\n      pop\n        /* \"#utility.yul\":7830:8147   */\n      pop\n      pop\n        /* \"#utility.yul\":7754:8147   */\n      swap4\n      swap3\n      pop\n      pop\n      pop\n      jump\t// out\n        /* \"#utility.yul\":8153:8213   */\n    tag_125:\n        /* \"#utility.yul\":8181:8184   */\n      0x00\n        /* \"#utility.yul\":8202:8207   */\n      dup2\n        /* \"#utility.yul\":8195:8207   */\n      swap1\n      pop\n        /* \"#utility.yul\":8153:8213   */\n      swap2\n      swap1\n      pop\n      jump\t// out\n        /* \"#utility.yul\":8219:8361   */\n    tag_126:\n        /* \"#utility.yul\":8269:8278   */\n      0x00\n        /* \"#utility.yul\":8302:8355   */\n      tag_230\n        /* \"#utility.yul\":8320:8354   */\n      tag_231\n        /* \"#utility.yul\":8329:8353   */\n      tag_232\n        /* \"#utility.yul\":8347:8352   */\n      dup5\n        /* \"#utility.yul\":8329:8353   */\n      tag_99\n      jump\t// in\n    tag_232:\n        /* \"#utility.yul\":8320:8354   */\n      tag_125\n      jump\t// in\n    tag_231:\n        /* \"#utility.yul\":8302:8355   */\n      tag_99\n      jump\t// in\n    tag_230:\n        /* \"#utility.yul\":8289:8355   */\n      swap1\n      pop\n        /* \"#utility.yul\":8219:8361   */\n      swap2\n      swap1\n      pop\n      jump\t// out\n        /* \"#utility.yul\":8367:8442   */\n    tag_127:\n        /* \"#utility.yul\":8410:8413   */\n      0x00\n        /* \"#utility.yul\":8431:8436   */\n      dup2\n        /* \"#utility.yul\":8424:8436   */\n      swap1\n      pop\n        /* \"#utility.yul\":8367:8442   */\n      swap2\n      swap1\n      pop\n      jump\t// out\n        /* \"#utility.yul\":8448:8717   */\n    tag_128:\n        /* \"#utility.yul\":8558:8597   */\n      tag_235\n        /* \"#utility.yul\":8589:8596   */\n      dup4\n        /* \"#utility.yul\":8558:8597   */\n      tag_126\n      jump\t// in\n    tag_235:\n        /* \"#utility.yul\":8619:8710   */\n      tag_236\n        /* \"#utility.yul\":8668:8709   */\n      tag_237\n        /* \"#utility.yul\":8692:8708   */\n      dup3\n        /* \"#utility.yul\":8668:8709   */\n      tag_127\n      jump\t// in\n    tag_237:\n        /* \"#utility.yul\":8660:8666   */\n      dup5\n        /* \"#utility.yul\":8653:8657   */\n      dup5\n        /* \"#utility.yul\":8647:8658   */\n      sload\n        /* \"#utility.yul\":8619:8710   */\n      tag_124\n      jump\t// in\n    tag_236:\n        /* \"#utility.yul\":8613:8617   */\n      dup3\n        /* \"#utility.yul\":8606:8711   */\n      sstore\n        /* \"#utility.yul\":8524:8717   */\n      pop\n        /* \"#utility.yul\":8448:8717   */\n      pop\n      pop\n      pop\n      jump\t// out\n        /* \"#utility.yul\":8723:8796   */\n    tag_129:\n        /* \"#utility.yul\":8768:8771   */\n      0x00\n        /* \"#utility.yul\":8723:8796   */\n      swap1\n      jump\t// out\n        /* \"#utility.yul\":8802:8991   */\n    tag_130:\n        /* \"#utility.yul\":8879:8911   */\n      tag_240\n      tag_129\n      jump\t// in\n    tag_240:\n        /* \"#utility.yul\":8920:8985   */\n      tag_241\n        /* \"#utility.yul\":8978:8984   */\n      dup2\n        /* \"#utility.yul\":8970:8976   */\n      dup5\n        /* \"#utility.yul\":8964:8968   */\n      dup5\n        /* \"#utility.yul\":8920:8985   */\n      tag_128\n      jump\t// in\n    tag_241:\n        /* \"#utility.yul\":8855:8991   */\n      pop\n        /* \"#utility.yul\":8802:8991   */\n      pop\n      pop\n      jump\t// out\n        /* \"#utility.yul\":8997:9183   */\n    tag_131:\n        /* \"#utility.yul\":9057:9177   */\n    tag_243:\n        /* \"#utility.yul\":9074:9077   */\n      dup2\n        /* \"#utility.yul\":9067:9072   */\n      dup2\n        /* \"#utility.yul\":9064:9078   */\n      lt\n        /* \"#utility.yul\":9057:9177   */\n      iszero\n      tag_245\n      jumpi\n        /* \"#utility.yul\":9128:9167   */\n      tag_246\n        /* \"#utility.yul\":9165:9166   */\n      0x00\n        /* \"#utility.yul\":9158:9163   */\n      dup3\n        /* \"#utility.yul\":9128:9167   */\n      tag_130\n      jump\t// in\n    tag_246:\n        /* \"#utility.yul\":9101:9102   */\n      0x01\n        /* \"#utility.yul\":9094:9099   */\n      dup2\n        /* \"#utility.yul\":9090:9103   */\n      add\n        /* \"#utility.yul\":9081:9103   */\n      swap1\n      pop\n        /* \"#utility.yul\":9057:9177   */\n      jump(tag_243)\n    tag_245:\n        /* \"#utility.yul\":8997:9183   */\n      pop\n      pop\n      jump\t// out\n        /* \"#utility.yul\":9189:9732   */\n    tag_132:\n        /* \"#utility.yul\":9290:9292   */\n      0x1f\n        /* \"#utility.yul\":9285:9288   */\n      dup3\n        /* \"#utility.yul\":9282:9293   */\n      gt\n        /* \"#utility.yul\":9279:9725   */\n      iszero\n      tag_248\n      jumpi\n        /* \"#utility.yul\":9324:9362   */\n      tag_249\n        /* \"#utility.yul\":9356:9361   */\n      dup2\n        /* \"#utility.yul\":9324:9362   */\n      tag_121\n      jump\t// in\n    tag_249:\n        /* \"#utility.yul\":9408:9437   */\n      tag_250\n        /* \"#utility.yul\":9426:9436   */\n      dup5\n        /* \"#utility.yul\":9408:9437   */\n      tag_122\n      jump\t// in\n    tag_250:\n        /* \"#utility.yul\":9398:9406   */\n      dup2\n        /* \"#utility.yul\":9394:9438   */\n      add\n        /* \"#utility.yul\":9591:9593   */\n      0x20\n        /* \"#utility.yul\":9579:9589   */\n      dup6\n        /* \"#utility.yul\":9576:9594   */\n      lt\n        /* \"#utility.yul\":9573:9622   */\n      iszero\n      tag_251\n      jumpi\n        /* \"#utility.yul\":9612:9620   */\n      dup2\n        /* \"#utility.yul\":9597:9620   */\n      swap1\n      pop\n        /* \"#utility.yul\":9573:9622   */\n    tag_251:\n        /* \"#utility.yul\":9635:9715   */\n      tag_252\n        /* \"#utility.yul\":9691:9713   */\n      tag_253\n        /* \"#utility.yul\":9709:9712   */\n      dup6\n        /* \"#utility.yul\":9691:9713   */\n      tag_122\n      jump\t// in\n    tag_253:\n        /* \"#utility.yul\":9681:9689   */\n      dup4\n        /* \"#utility.yul\":9677:9714   */\n      add\n        /* \"#utility.yul\":9664:9675   */\n      dup3\n        /* \"#utility.yul\":9635:9715   */\n      tag_131\n      jump\t// in\n    tag_252:\n        /* \"#utility.yul\":9294:9725   */\n      pop\n      pop\n        /* \"#utility.yul\":9279:9725   */\n    tag_248:\n        /* \"#utility.yul\":9189:9732   */\n      pop\n      pop\n      pop\n      jump\t// out\n        /* \"#utility.yul\":9738:9855   */\n    tag_133:\n        /* \"#utility.yul\":9792:9800   */\n      0x00\n        /* \"#utility.yul\":9842:9847   */\n      dup3\n        /* \"#utility.yul\":9836:9840   */\n      dup3\n        /* \"#utility.yul\":9832:9848   */\n      shr\n        /* \"#utility.yul\":9811:9848   */\n      swap1\n      pop\n        /* \"#utility.yul\":9738:9855   */\n      swap3\n      swap2\n      pop\n      pop\n      jump\t// out\n        /* \"#utility.yul\":9861:10030   */\n    tag_134:\n        /* \"#utility.yul\":9905:9911   */\n      0x00\n        /* \"#utility.yul\":9938:9989   */\n      tag_256\n        /* \"#utility.yul\":9986:9987   */\n      0x00\n        /* \"#utility.yul\":9982:9988   */\n      not\n        /* \"#utility.yul\":9974:9979   */\n      dup5\n        /* \"#utility.yul\":9971:9972   */\n      0x08\n        /* \"#utility.yul\":9967:9980   */\n      mul\n        /* \"#utility.yul\":9938:9989   */\n      tag_133\n      jump\t// in\n    tag_256:\n        /* \"#utility.yul\":9934:9990   */\n      not\n        /* \"#utility.yul\":10019:10023   */\n      dup1\n        /* \"#utility.yul\":10013:10017   */\n      dup4\n        /* \"#utility.yul\":10009:10024   */\n      and\n        /* \"#utility.yul\":9999:10024   */\n      swap2\n      pop\n        /* \"#utility.yul\":9912:10030   */\n      pop\n        /* \"#utility.yul\":9861:10030   */\n      swap3\n      swap2\n      pop\n      pop\n      jump\t// out\n        /* \"#utility.yul\":10035:10330   */\n    tag_135:\n        /* \"#utility.yul\":10111:10115   */\n      0x00\n        /* \"#utility.yul\":10257:10286   */\n      tag_258\n        /* \"#utility.yul\":10282:10285   */\n      dup4\n        /* \"#utility.yul\":10276:10280   */\n      dup4\n        /* \"#utility.yul\":10257:10286   */\n      tag_134\n      jump\t// in\n    tag_258:\n        /* \"#utility.yul\":10249:10286   */\n      swap2\n      pop\n        /* \"#utility.yul\":10319:10322   */\n      dup3\n        /* \"#utility.yul\":10316:10317   */\n      0x02\n        /* \"#utility.yul\":10312:10323   */\n      mul\n        /* \"#utility.yul\":10306:10310   */\n      dup3\n        /* \"#utility.yul\":10303:10324   */\n      or\n        /* \"#utility.yul\":10295:10324   */\n      swap1\n      pop\n        /* \"#utility.yul\":10035:10330   */\n      swap3\n      swap2\n      pop\n      pop\n      jump\t// out\n        /* \"#utility.yul\":10335:11730   */\n    tag_50:\n        /* \"#utility.yul\":10452:10489   */\n      tag_260\n        /* \"#utility.yul\":10485:10488   */\n      dup3\n        /* \"#utility.yul\":10452:10489   */\n      tag_112\n      jump\t// in\n    tag_260:\n        /* \"#utility.yul\":10554:10572   */\n      0xffffffffffffffff\n        /* \"#utility.yul\":10546:10552   */\n      dup2\n        /* \"#utility.yul\":10543:10573   */\n      gt\n        /* \"#utility.yul\":10540:10596   */\n      iszero\n      tag_261\n      jumpi\n        /* \"#utility.yul\":10576:10594   */\n      tag_262\n      tag_105\n      jump\t// in\n    tag_262:\n        /* \"#utility.yul\":10540:10596   */\n    tag_261:\n        /* \"#utility.yul\":10620:10658   */\n      tag_263\n        /* \"#utility.yul\":10652:10656   */\n      dup3\n        /* \"#utility.yul\":10646:10657   */\n      sload\n        /* \"#utility.yul\":10620:10658   */\n      tag_56\n      jump\t// in\n    tag_263:\n        /* \"#utility.yul\":10705:10772   */\n      tag_264\n        /* \"#utility.yul\":10765:10771   */\n      dup3\n        /* \"#utility.yul\":10757:10763   */\n      dup3\n        /* \"#utility.yul\":10751:10755   */\n      dup6\n        /* \"#utility.yul\":10705:10772   */\n      tag_132\n      jump\t// in\n    tag_264:\n        /* \"#utility.yul\":10799:10800   */\n      0x00\n        /* \"#utility.yul\":10823:10827   */\n      0x20\n        /* \"#utility.yul\":10810:10827   */\n      swap1\n      pop\n        /* \"#utility.yul\":10855:10857   */\n      0x1f\n        /* \"#utility.yul\":10847:10853   */\n      dup4\n        /* \"#utility.yul\":10844:10858   */\n      gt\n        /* \"#utility.yul\":10872:10873   */\n      0x01\n        /* \"#utility.yul\":10867:11485   */\n      dup2\n      eq\n      tag_266\n      jumpi\n        /* \"#utility.yul\":11529:11530   */\n      0x00\n        /* \"#utility.yul\":11546:11552   */\n      dup5\n        /* \"#utility.yul\":11543:11620   */\n      iszero\n      tag_267\n      jumpi\n        /* \"#utility.yul\":11595:11604   */\n      dup3\n        /* \"#utility.yul\":11590:11593   */\n      dup8\n        /* \"#utility.yul\":11586:11605   */\n      add\n        /* \"#utility.yul\":11580:11606   */\n      mload\n        /* \"#utility.yul\":11571:11606   */\n      swap1\n      pop\n        /* \"#utility.yul\":11543:11620   */\n    tag_267:\n        /* \"#utility.yul\":11646:11713   */\n      tag_268\n        /* \"#utility.yul\":11706:11712   */\n      dup6\n        /* \"#utility.yul\":11699:11704   */\n      dup3\n        /* \"#utility.yul\":11646:11713   */\n      tag_135\n      jump\t// in\n    tag_268:\n        /* \"#utility.yul\":11640:11644   */\n      dup7\n        /* \"#utility.yul\":11633:11714   */\n      sstore\n        /* \"#utility.yul\":11502:11724   */\n      pop\n        /* \"#utility.yul\":10837:11724   */\n      jump(tag_265)\n        /* \"#utility.yul\":10867:11485   */\n    tag_266:\n        /* \"#utility.yul\":10919:10923   */\n      0x1f\n        /* \"#utility.yul\":10915:10924   */\n      not\n        /* \"#utility.yul\":10907:10913   */\n      dup5\n        /* \"#utility.yul\":10903:10925   */\n      and\n        /* \"#utility.yul\":10953:10990   */\n      tag_269\n        /* \"#utility.yul\":10985:10989   */\n      dup7\n        /* \"#utility.yul\":10953:10990   */\n      tag_121\n      jump\t// in\n    tag_269:\n        /* \"#utility.yul\":11012:11013   */\n      0x00\n        /* \"#utility.yul\":11026:11234   */\n    tag_270:\n        /* \"#utility.yul\":11040:11047   */\n      dup3\n        /* \"#utility.yul\":11037:11038   */\n      dup2\n        /* \"#utility.yul\":11034:11048   */\n      lt\n        /* \"#utility.yul\":11026:11234   */\n      iszero\n      tag_272\n      jumpi\n        /* \"#utility.yul\":11119:11128   */\n      dup5\n        /* \"#utility.yul\":11114:11117   */\n      dup10\n        /* \"#utility.yul\":11110:11129   */\n      add\n        /* \"#utility.yul\":11104:11130   */\n      mload\n        /* \"#utility.yul\":11096:11102   */\n      dup3\n        /* \"#utility.yul\":11089:11131   */\n      sstore\n        /* \"#utility.yul\":11170:11171   */\n      0x01\n        /* \"#utility.yul\":11162:11168   */\n      dup3\n        /* \"#utility.yul\":11158:11172   */\n      add\n        /* \"#utility.yul\":11148:11172   */\n      swap2\n      pop\n        /* \"#utility.yul\":11217:11219   */\n      0x20\n        /* \"#utility.yul\":11206:11215   */\n      dup6\n        /* \"#utility.yul\":11202:11220   */\n      add\n        /* \"#utility.yul\":11189:11220   */\n      swap5\n      pop\n        /* \"#utility.yul\":11063:11067   */\n      0x20\n        /* \"#utility.yul\":11060:11061   */\n      dup2\n        /* \"#utility.yul\":11056:11068   */\n      add\n        /* \"#utility.yul\":11051:11068   */\n      swap1\n      pop\n        /* \"#utility.yul\":11026:11234   */\n      jump(tag_270)\n    tag_272:\n        /* \"#utility.yul\":11262:11268   */\n      dup7\n        /* \"#utility.yul\":11253:11260   */\n      dup4\n        /* \"#utility.yul\":11250:11269   */\n      lt\n        /* \"#utility.yul\":11247:11426   */\n      iszero\n      tag_273\n      jumpi\n        /* \"#utility.yul\":11320:11329   */\n      dup5\n        /* \"#utility.yul\":11315:11318   */\n      dup10\n        /* \"#utility.yul\":11311:11330   */\n      add\n        /* \"#utility.yul\":11305:11331   */\n      mload\n        /* \"#utility.yul\":11363:11411   */\n      tag_274\n        /* \"#utility.yul\":11405:11409   */\n      0x1f\n        /* \"#utility.yul\":11397:11403   */\n      dup10\n        /* \"#utility.yul\":11393:11410   */\n      and\n        /* \"#utility.yul\":11382:11391   */\n      dup3\n        /* \"#utility.yul\":11363:11411   */\n      tag_134\n      jump\t// in\n    tag_274:\n        /* \"#utility.yul\":11355:11361   */\n      dup4\n        /* \"#utility.yul\":11348:11412   */\n      sstore\n        /* \"#utility.yul\":11270:11426   */\n      pop\n        /* \"#utility.yul\":11247:11426   */\n    tag_273:\n        /* \"#utility.yul\":11472:11473   */\n      0x01\n        /* \"#utility.yul\":11468:11469   */\n      0x02\n        /* \"#utility.yul\":11460:11466   */\n      dup9\n        /* \"#utility.yul\":11456:11470   */\n      mul\n        /* \"#utility.yul\":11452:11474   */\n      add\n        /* \"#utility.yul\":11446:11450   */\n      dup9\n        /* \"#utility.yul\":11439:11475   */\n      sstore\n        /* \"#utility.yul\":10874:11485   */\n      pop\n      pop\n      pop\n        /* \"#utility.yul\":10837:11724   */\n    tag_265:\n      pop\n        /* \"#utility.yul\":10427:11730   */\n      pop\n      pop\n      pop\n        /* \"#utility.yul\":10335:11730   */\n      pop\n      pop\n      jump\t// out\n\n    auxdata: 0xa2646970667358221220d54b6c03d19802f6acbe121106a64fa0a642001c859fce06f379e4ef5431171d64736f6c63430008180033\n}\n",
				"bytecode": {
					"linkReferences": {},
					"object": "608060405234801561000f575f80fd5b50610c4d8061001d5f395ff3fe608060405234801561000f575f80fd5b5060043610610086575f3560e01c80639c117f0f116100595780639c117f0f14610124578063b6a46b3b14610155578063c91b78cb14610171578063d511b4be1461018d57610086565b80631fbb5bc51461008a57806331184dc3146100a65780634112a18e146100d757806380c9419e146100f3575b5f80fd5b6100a4600480360381019061009f919061072b565b6101a9565b005b6100c060048036038101906100bb9190610785565b6101dc565b6040516100ce929190610844565b60405180910390f35b6100f160048036038101906100ec919061089c565b6102c8565b005b61010d60048036038101906101089190610785565b610305565b60405161011b929190610844565b60405180910390f35b61013e60048036038101906101399190610785565b6103c5565b60405161014c929190610844565b60405180910390f35b61016f600480360381019061016a91906108da565b610492565b005b61018b6004803603810190610186919061072b565b610508565b005b6101a760048036038101906101a29190610785565b610540565b005b805f83815481106101bd576101bc610921565b5b905f5260205f2090600202015f0190816101d79190610b48565b505050565b60605f805f84815481106101f3576101f2610921565b5b905f5260205f2090600202016040518060400160405290815f820180546102199061097b565b80601f01602080910402602001604051908101604052809291908181526020018280546102459061097b565b80156102905780601f1061026757610100808354040283529160200191610290565b820191905f5260205f20905b81548152906001019060200180831161027357829003601f168201915b50505050508152602001600182015f9054906101000a900460ff1615151515815250509050805f015181602001519250925050915091565b805f83815481106102dc576102db610921565b5b905f5260205f2090600202016001015f6101000a81548160ff0219169083151502179055505050565b5f8181548110610313575f80fd5b905f5260205f2090600202015f91509050805f0180546103329061097b565b80601f016020809104026020016040519081016040528092919081815260200182805461035e9061097b565b80156103a95780601f10610380576101008083540402835291602001916103a9565b820191905f5260205f20905b81548152906001019060200180831161038c57829003601f168201915b505050505090806001015f9054906101000a900460ff16905082565b60605f805f84815481106103dc576103db610921565b5b905f5260205f2090600202019050805f01816001015f9054906101000a900460ff1681805461040a9061097b565b80601f01602080910402602001604051908101604052809291908181526020018280546104369061097b565b80156104815780601f1061045857610100808354040283529160200191610481565b820191905f5260205f20905b81548152906001019060200180831161046457829003601f168201915b505050505091509250925050915091565b5f60405180604001604052808381526020015f1515815250908060018154018082558091505060019003905f5260205f2090600202015f909190919091505f820151815f0190816104e39190610b48565b506020820151816001015f6101000a81548160ff021916908315150217905550505050565b5f80838154811061051c5761051b610921565b5b905f5260205f209060020201905081815f01908161053a9190610b48565b50505050565b5f818154811061055357610552610921565b5b905f5260205f2090600202016001015f9054906101000a900460ff16155f828154811061058357610582610921565b5b905f5260205f2090600202016001015f6101000a81548160ff02191690831515021790555050565b5f604051905090565b5f80fd5b5f80fd5b5f819050919050565b6105ce816105bc565b81146105d8575f80fd5b50565b5f813590506105e9816105c5565b92915050565b5f80fd5b5f80fd5b5f601f19601f8301169050919050565b7f4e487b71000000000000000000000000000000000000000000000000000000005f52604160045260245ffd5b61063d826105f7565b810181811067ffffffffffffffff8211171561065c5761065b610607565b5b80604052505050565b5f61066e6105ab565b905061067a8282610634565b919050565b5f67ffffffffffffffff82111561069957610698610607565b5b6106a2826105f7565b9050602081019050919050565b828183375f83830152505050565b5f6106cf6106ca8461067f565b610665565b9050828152602081018484840111156106eb576106ea6105f3565b5b6106f68482856106af565b509392505050565b5f82601f830112610712576107116105ef565b5b81356107228482602086016106bd565b91505092915050565b5f8060408385031215610741576107406105b4565b5b5f61074e858286016105db565b925050602083013567ffffffffffffffff81111561076f5761076e6105b8565b5b61077b858286016106fe565b9150509250929050565b5f6020828403121561079a576107996105b4565b5b5f6107a7848285016105db565b91505092915050565b5f81519050919050565b5f82825260208201905092915050565b5f5b838110156107e75780820151818401526020810190506107cc565b5f8484015250505050565b5f6107fc826107b0565b61080681856107ba565b93506108168185602086016107ca565b61081f816105f7565b840191505092915050565b5f8115159050919050565b61083e8161082a565b82525050565b5f6040820190508181035f83015261085c81856107f2565b905061086b6020830184610835565b9392505050565b61087b8161082a565b8114610885575f80fd5b50565b5f8135905061089681610872565b92915050565b5f80604083850312156108b2576108b16105b4565b5b5f6108bf858286016105db565b92505060206108d085828601610888565b9150509250929050565b5f602082840312156108ef576108ee6105b4565b5b5f82013567ffffffffffffffff81111561090c5761090b6105b8565b5b610918848285016106fe565b91505092915050565b7f4e487b71000000000000000000000000000000000000000000000000000000005f52603260045260245ffd5b7f4e487b71000000000000000000000000000000000000000000000000000000005f52602260045260245ffd5b5f600282049050600182168061099257607f821691505b6020821081036109a5576109a461094e565b5b50919050565b5f819050815f5260205f209050919050565b5f6020601f8301049050919050565b5f82821b905092915050565b5f60088302610a077fffffffffffffffffffffffffffffffffffffffffffffffffffffffffffffffff826109cc565b610a1186836109cc565b95508019841693508086168417925050509392505050565b5f819050919050565b5f610a4c610a47610a42846105bc565b610a29565b6105bc565b9050919050565b5f819050919050565b610a6583610a32565b610a79610a7182610a53565b8484546109d8565b825550505050565b5f90565b610a8d610a81565b610a98818484610a5c565b505050565b5b81811015610abb57610ab05f82610a85565b600181019050610a9e565b5050565b601f821115610b0057610ad1816109ab565b610ada846109bd565b81016020851015610ae9578190505b610afd610af5856109bd565b830182610a9d565b50505b505050565b5f82821c905092915050565b5f610b205f1984600802610b05565b1980831691505092915050565b5f610b388383610b11565b9150826002028217905092915050565b610b51826107b0565b67ffffffffffffffff811115610b6a57610b69610607565b5b610b74825461097b565b610b7f828285610abf565b5f60209050601f831160018114610bb0575f8415610b9e578287015190505b610ba88582610b2d565b865550610c0f565b601f198416610bbe866109ab565b5f5b82811015610be557848901518255600182019150602085019450602081019050610bc0565b86831015610c025784890151610bfe601f891682610b11565b8355505b6001600288020188555050505b50505050505056fea2646970667358221220d54b6c03d19802f6acbe121106a64fa0a642001c859fce06f379e4ef5431171d64736f6c63430008180033",
					"opcodes": "PUSH1 0x80 PUSH1 0x40 MSTORE CALLVALUE DUP1 ISZERO PUSH2 0xF JUMPI PUSH0 DUP1 REVERT JUMPDEST POP PUSH2 0xC4D DUP1 PUSH2 0x1D PUSH0 CODECOPY PUSH0 RETURN INVALID PUSH1 0x80 PUSH1 0x40 MSTORE CALLVALUE DUP1 ISZERO PUSH2 0xF JUMPI PUSH0 DUP1 REVERT JUMPDEST POP PUSH1 0x4 CALLDATASIZE LT PUSH2 0x86 JUMPI PUSH0 CALLDATALOAD PUSH1 0xE0 SHR DUP1 PUSH4 0x9C117F0F GT PUSH2 0x59 JUMPI DUP1 PUSH4 0x9C117F0F EQ PUSH2 0x124 JUMPI DUP1 PUSH4 0xB6A46B3B EQ PUSH2 0x155 JUMPI DUP1 PUSH4 0xC91B78CB EQ PUSH2 0x171 JUMPI DUP1 PUSH4 0xD511B4BE EQ PUSH2 0x18D JUMPI PUSH2 0x86 JUMP JUMPDEST DUP1 PUSH4 0x1FBB5BC5 EQ PUSH2 0x8A JUMPI DUP1 PUSH4 0x31184DC3 EQ PUSH2 0xA6 JUMPI DUP1 PUSH4 0x4112A18E EQ PUSH2 0xD7 JUMPI DUP1 PUSH4 0x80C9419E EQ PUSH2 0xF3 JUMPI JUMPDEST PUSH0 DUP1 REVERT JUMPDEST PUSH2 0xA4 PUSH1 0x4 DUP1 CALLDATASIZE SUB DUP2 ADD SWAP1 PUSH2 0x9F SWAP2 SWAP1 PUSH2 0x72B JUMP JUMPDEST PUSH2 0x1A9 JUMP JUMPDEST STOP JUMPDEST PUSH2 0xC0 PUSH1 0x4 DUP1 CALLDATASIZE SUB DUP2 ADD SWAP1 PUSH2 0xBB SWAP2 SWAP1 PUSH2 0x785 JUMP JUMPDEST PUSH2 0x1DC JUMP JUMPDEST PUSH1 0x40 MLOAD PUSH2 0xCE SWAP3 SWAP2 SWAP1 PUSH2 0x844 JUMP JUMPDEST PUSH1 0x40 MLOAD DUP1 SWAP2 SUB SWAP1 RETURN JUMPDEST PUSH2 0xF1 PUSH1 0x4 DUP1 CALLDATASIZE SUB DUP2 ADD SWAP1 PUSH2 0xEC SWAP2 SWAP1 PUSH2 0x89C JUMP JUMPDEST PUSH2 0x2C8 JUMP JUMPDEST STOP JUMPDEST PUSH2 0x10D PUSH1 0x4 DUP1 CALLDATASIZE SUB DUP2 ADD SWAP1 PUSH2 0x108 SWAP2 SWAP1 PUSH2 0x785 JUMP JUMPDEST PUSH2 0x305 JUMP JUMPDEST PUSH1 0x40 MLOAD PUSH2 0x11B SWAP3 SWAP2 SWAP1 PUSH2 0x844 JUMP JUMPDEST PUSH1 0x40 MLOAD DUP1 SWAP2 SUB SWAP1 RETURN JUMPDEST PUSH2 0x13E PUSH1 0x4 DUP1 CALLDATASIZE SUB DUP2 ADD SWAP1 PUSH2 0x139 SWAP2 SWAP1 PUSH2 0x785 JUMP JUMPDEST PUSH2 0x3C5 JUMP JUMPDEST PUSH1 0x40 MLOAD PUSH2 0x14C SWAP3 SWAP2 SWAP1 PUSH2 0x844 JUMP JUMPDEST PUSH1 0x40 MLOAD DUP1 SWAP2 SUB SWAP1 RETURN JUMPDEST PUSH2 0x16F PUSH1 0x4 DUP1 CALLDATASIZE SUB DUP2 ADD SWAP1 PUSH2 0x16A SWAP2 SWAP1 PUSH2 0x8DA JUMP JUMPDEST PUSH2 0x492 JUMP JUMPDEST STOP JUMPDEST PUSH2 0x18B PUSH1 0x4 DUP1 CALLDATASIZE SUB DUP2 ADD SWAP1 PUSH2 0x186 SWAP2 SWAP1 PUSH2 0x72B JUMP JUMPDEST PUSH2 0x508 JUMP JUMPDEST STOP JUMPDEST PUSH2 0x1A7 PUSH1 0x4 DUP1 CALLDATASIZE SUB DUP2 ADD SWAP1 PUSH2 0x1A2 SWAP2 SWAP1 PUSH2 0x785 JUMP JUMPDEST PUSH2 0x540 JUMP JUMPDEST STOP JUMPDEST DUP1 PUSH0 DUP4 DUP2 SLOAD DUP2 LT PUSH2 0x1BD JUMPI PUSH2 0x1BC PUSH2 0x921 JUMP JUMPDEST JUMPDEST SWAP1 PUSH0 MSTORE PUSH1 0x20 PUSH0 KECCAK256 SWAP1 PUSH1 0x2 MUL ADD PUSH0 ADD SWAP1 DUP2 PUSH2 0x1D7 SWAP2 SWAP1 PUSH2 0xB48 JUMP JUMPDEST POP POP POP JUMP JUMPDEST PUSH1 0x60 PUSH0 DUP1 PUSH0 DUP5 DUP2 SLOAD DUP2 LT PUSH2 0x1F3 JUMPI PUSH2 0x1F2 PUSH2 0x921 JUMP JUMPDEST JUMPDEST SWAP1 PUSH0 MSTORE PUSH1 0x20 PUSH0 KECCAK256 SWAP1 PUSH1 0x2 MUL ADD PUSH1 0x40 MLOAD DUP1 PUSH1 0x40 ADD PUSH1 0x40 MSTORE SWAP1 DUP2 PUSH0 DUP3 ADD DUP1 SLOAD PUSH2 0x219 SWAP1 PUSH2 0x97B JUMP JUMPDEST DUP1 PUSH1 0x1F ADD PUSH1 0x20 DUP1 SWAP2 DIV MUL PUSH1 0x20 ADD PUSH1 0x40 MLOAD SWAP1 DUP2 ADD PUSH1 0x40 MSTORE DUP1 SWAP3 SWAP2 SWAP1 DUP2 DUP2 MSTORE PUSH1 0x20 ADD DUP3 DUP1 SLOAD PUSH2 0x245 SWAP1 PUSH2 0x97B JUMP JUMPDEST DUP1 ISZERO PUSH2 0x290 JUMPI DUP1 PUSH1 0x1F LT PUSH2 0x267 JUMPI PUSH2 0x100 DUP1 DUP4 SLOAD DIV MUL DUP4 MSTORE SWAP2 PUSH1 0x20 ADD SWAP2 PUSH2 0x290 JUMP JUMPDEST DUP3 ADD SWAP2 SWAP1 PUSH0 MSTORE PUSH1 0x20 PUSH0 KECCAK256 SWAP1 JUMPDEST DUP2 SLOAD DUP2 MSTORE SWAP1 PUSH1 0x1 ADD SWAP1 PUSH1 0x20 ADD DUP1 DUP4 GT PUSH2 0x273 JUMPI DUP3 SWAP1 SUB PUSH1 0x1F AND DUP3 ADD SWAP2 JUMPDEST POP POP POP POP POP DUP2 MSTORE PUSH1 0x20 ADD PUSH1 0x1 DUP3 ADD PUSH0 SWAP1 SLOAD SWAP1 PUSH2 0x100 EXP SWAP1 DIV PUSH1 0xFF AND ISZERO ISZERO ISZERO ISZERO DUP2 MSTORE POP POP SWAP1 POP DUP1 PUSH0 ADD MLOAD DUP2 PUSH1 0x20 ADD MLOAD SWAP3 POP SWAP3 POP POP SWAP2 POP SWAP2 JUMP JUMPDEST DUP1 PUSH0 DUP4 DUP2 SLOAD DUP2 LT PUSH2 0x2DC JUMPI PUSH2 0x2DB PUSH2 0x921 JUMP JUMPDEST JUMPDEST SWAP1 PUSH0 MSTORE PUSH1 0x20 PUSH0 KECCAK256 SWAP1 PUSH1 0x2 MUL ADD PUSH1 0x1 ADD PUSH0 PUSH2 0x100 EXP DUP2 SLOAD DUP2 PUSH1 0xFF MUL NOT AND SWAP1 DUP4 ISZERO ISZERO MUL OR SWAP1 SSTORE POP POP POP JUMP JUMPDEST PUSH0 DUP2 DUP2 SLOAD DUP2 LT PUSH2 0x313 JUMPI PUSH0 DUP1 REVERT JUMPDEST SWAP1 PUSH0 MSTORE PUSH1 0x20 PUSH0 KECCAK256 SWAP1 PUSH1 0x2 MUL ADD PUSH0 SWAP2 POP SWAP1 POP DUP1 PUSH0 ADD DUP1 SLOAD PUSH2 0x332 SWAP1 PUSH2 0x97B JUMP JUMPDEST DUP1 PUSH1 0x1F ADD PUSH1 0x20 DUP1 SWAP2 DIV MUL PUSH1 0x20 ADD PUSH1 0x40 MLOAD SWAP1 DUP2 ADD PUSH1 0x40 MSTORE DUP1 SWAP3 SWAP2 SWAP1 DUP2 DUP2 MSTORE PUSH1 0x20 ADD DUP3 DUP1 SLOAD PUSH2 0x35E SWAP1 PUSH2 0x97B JUMP JUMPDEST DUP1 ISZERO PUSH2 0x3A9 JUMPI DUP1 PUSH1 0x1F LT PUSH2 0x380 JUMPI PUSH2 0x100 DUP1 DUP4 SLOAD DIV MUL DUP4 MSTORE SWAP2 PUSH1 0x20 ADD SWAP2 PUSH2 0x3A9 JUMP JUMPDEST DUP3 ADD SWAP2 SWAP1 PUSH0 MSTORE PUSH1 0x20 PUSH0 KECCAK256 SWAP1 JUMPDEST DUP2 SLOAD DUP2 MSTORE SWAP1 PUSH1 0x1 ADD SWAP1 PUSH1 0x20 ADD DUP1 DUP4 GT PUSH2 0x38C JUMPI DUP3 SWAP1 SUB PUSH1 0x1F AND DUP3 ADD SWAP2 JUMPDEST POP POP POP POP POP SWAP1 DUP1 PUSH1 0x1 ADD PUSH0 SWAP1 SLOAD SWAP1 PUSH2 0x100 EXP SWAP1 DIV PUSH1 0xFF AND SWAP1 POP DUP3 JUMP JUMPDEST PUSH1 0x60 PUSH0 DUP1 PUSH0 DUP5 DUP2 SLOAD DUP2 LT PUSH2 0x3DC JUMPI PUSH2 0x3DB PUSH2 0x921 JUMP JUMPDEST JUMPDEST SWAP1 PUSH0 MSTORE PUSH1 0x20 PUSH0 KECCAK256 SWAP1 PUSH1 0x2 MUL ADD SWAP1 POP DUP1 PUSH0 ADD DUP2 PUSH1 0x1 ADD PUSH0 SWAP1 SLOAD SWAP1 PUSH2 0x100 EXP SWAP1 DIV PUSH1 0xFF AND DUP2 DUP1 SLOAD PUSH2 0x40A SWAP1 PUSH2 0x97B JUMP JUMPDEST DUP1 PUSH1 0x1F ADD PUSH1 0x20 DUP1 SWAP2 DIV MUL PUSH1 0x20 ADD PUSH1 0x40 MLOAD SWAP1 DUP2 ADD PUSH1 0x40 MSTORE DUP1 SWAP3 SWAP2 SWAP1 DUP2 DUP2 MSTORE PUSH1 0x20 ADD DUP3 DUP1 SLOAD PUSH2 0x436 SWAP1 PUSH2 0x97B JUMP JUMPDEST DUP1 ISZERO PUSH2 0x481 JUMPI DUP1 PUSH1 0x1F LT PUSH2 0x458 JUMPI PUSH2 0x100 DUP1 DUP4 SLOAD DIV MUL DUP4 MSTORE SWAP2 PUSH1 0x20 ADD SWAP2 PUSH2 0x481 JUMP JUMPDEST DUP3 ADD SWAP2 SWAP1 PUSH0 MSTORE PUSH1 0x20 PUSH0 KECCAK256 SWAP1 JUMPDEST DUP2 SLOAD DUP2 MSTORE SWAP1 PUSH1 0x1 ADD SWAP1 PUSH1 0x20 ADD DUP1 DUP4 GT PUSH2 0x464 JUMPI DUP3 SWAP1 SUB PUSH1 0x1F AND DUP3 ADD SWAP2 JUMPDEST POP POP POP POP POP SWAP2 POP SWAP3 POP SWAP3 POP POP SWAP2 POP SWAP2 JUMP JUMPDEST PUSH0 PUSH1 0x40 MLOAD DUP1 PUSH1 0x40 ADD PUSH1 0x40 MSTORE DUP1 DUP4 DUP2 MSTORE PUSH1 0x20 ADD PUSH0 ISZERO ISZERO DUP2 MSTORE POP SWAP1 DUP1 PUSH1 0x1 DUP2 SLOAD ADD DUP1 DUP3 SSTORE DUP1 SWAP2 POP POP PUSH1 0x1 SWAP1 SUB SWAP1 PUSH0 MSTORE PUSH1 0x20 PUSH0 KECCAK256 SWAP1 PUSH1 0x2 MUL ADD PUSH0 SWAP1 SWAP2 SWAP1 SWAP2 SWAP1 SWAP2 POP PUSH0 DUP3 ADD MLOAD DUP2 PUSH0 ADD SWAP1 DUP2 PUSH2 0x4E3 SWAP2 SWAP1 PUSH2 0xB48 JUMP JUMPDEST POP PUSH1 0x20 DUP3 ADD MLOAD DUP2 PUSH1 0x1 ADD PUSH0 PUSH2 0x100 EXP DUP2 SLOAD DUP2 PUSH1 0xFF MUL NOT AND SWAP1 DUP4 ISZERO ISZERO MUL OR SWAP1 SSTORE POP POP POP POP JUMP JUMPDEST PUSH0 DUP1 DUP4 DUP2 SLOAD DUP2 LT PUSH2 0x51C JUMPI PUSH2 0x51B PUSH2 0x921 JUMP JUMPDEST JUMPDEST SWAP1 PUSH0 MSTORE PUSH1 0x20 PUSH0 KECCAK256 SWAP1 PUSH1 0x2 MUL ADD SWAP1 POP DUP2 DUP2 PUSH0 ADD SWAP1 DUP2 PUSH2 0x53A SWAP2 SWAP1 PUSH2 0xB48 JUMP JUMPDEST POP POP POP POP JUMP JUMPDEST PUSH0 DUP2 DUP2 SLOAD DUP2 LT PUSH2 0x553 JUMPI PUSH2 0x552 PUSH2 0x921 JUMP JUMPDEST JUMPDEST SWAP1 PUSH0 MSTORE PUSH1 0x20 PUSH0 KECCAK256 SWAP1 PUSH1 0x2 MUL ADD PUSH1 0x1 ADD PUSH0 SWAP1 SLOAD SWAP1 PUSH2 0x100 EXP SWAP1 DIV PUSH1 0xFF AND ISZERO PUSH0 DUP3 DUP2 SLOAD DUP2 LT PUSH2 0x583 JUMPI PUSH2 0x582 PUSH2 0x921 JUMP JUMPDEST JUMPDEST SWAP1 PUSH0 MSTORE PUSH1 0x20 PUSH0 KECCAK256 SWAP1 PUSH1 0x2 MUL ADD PUSH1 0x1 ADD PUSH0 PUSH2 0x100 EXP DUP2 SLOAD DUP2 PUSH1 0xFF MUL NOT AND SWAP1 DUP4 ISZERO ISZERO MUL OR SWAP1 SSTORE POP POP JUMP JUMPDEST PUSH0 PUSH1 0x40 MLOAD SWAP1 POP SWAP1 JUMP JUMPDEST PUSH0 DUP1 REVERT JUMPDEST PUSH0 DUP1 REVERT JUMPDEST PUSH0 DUP2 SWAP1 POP SWAP2 SWAP1 POP JUMP JUMPDEST PUSH2 0x5CE DUP2 PUSH2 0x5BC JUMP JUMPDEST DUP2 EQ PUSH2 0x5D8 JUMPI PUSH0 DUP1 REVERT JUMPDEST POP JUMP JUMPDEST PUSH0 DUP2 CALLDATALOAD SWAP1 POP PUSH2 0x5E9 DUP2 PUSH2 0x5C5 JUMP JUMPDEST SWAP3 SWAP2 POP POP JUMP JUMPDEST PUSH0 DUP1 REVERT JUMPDEST PUSH0 DUP1 REVERT JUMPDEST PUSH0 PUSH1 0x1F NOT PUSH1 0x1F DUP4 ADD AND SWAP1 POP SWAP2 SWAP1 POP JUMP JUMPDEST PUSH32 0x4E487B7100000000000000000000000000000000000000000000000000000000 PUSH0 MSTORE PUSH1 0x41 PUSH1 0x4 MSTORE PUSH1 0x24 PUSH0 REVERT JUMPDEST PUSH2 0x63D DUP3 PUSH2 0x5F7 JUMP JUMPDEST DUP2 ADD DUP2 DUP2 LT PUSH8 0xFFFFFFFFFFFFFFFF DUP3 GT OR ISZERO PUSH2 0x65C JUMPI PUSH2 0x65B PUSH2 0x607 JUMP JUMPDEST JUMPDEST DUP1 PUSH1 0x40 MSTORE POP POP POP JUMP JUMPDEST PUSH0 PUSH2 0x66E PUSH2 0x5AB JUMP JUMPDEST SWAP1 POP PUSH2 0x67A DUP3 DUP3 PUSH2 0x634 JUMP JUMPDEST SWAP2 SWAP1 POP JUMP JUMPDEST PUSH0 PUSH8 0xFFFFFFFFFFFFFFFF DUP3 GT ISZERO PUSH2 0x699 JUMPI PUSH2 0x698 PUSH2 0x607 JUMP JUMPDEST JUMPDEST PUSH2 0x6A2 DUP3 PUSH2 0x5F7 JUMP JUMPDEST SWAP1 POP PUSH1 0x20 DUP2 ADD SWAP1 POP SWAP2 SWAP1 POP JUMP JUMPDEST DUP3 DUP2 DUP4 CALLDATACOPY PUSH0 DUP4 DUP4 ADD MSTORE POP POP POP JUMP JUMPDEST PUSH0 PUSH2 0x6CF PUSH2 0x6CA DUP5 PUSH2 0x67F JUMP JUMPDEST PUSH2 0x665 JUMP JUMPDEST SWAP1 POP DUP3 DUP2 MSTORE PUSH1 0x20 DUP2 ADD DUP5 DUP5 DUP5 ADD GT ISZERO PUSH2 0x6EB JUMPI PUSH2 0x6EA PUSH2 0x5F3 JUMP JUMPDEST JUMPDEST PUSH2 0x6F6 DUP5 DUP3 DUP6 PUSH2 0x6AF JUMP JUMPDEST POP SWAP4 SWAP3 POP POP POP JUMP JUMPDEST PUSH0 DUP3 PUSH1 0x1F DUP4 ADD SLT PUSH2 0x712 JUMPI PUSH2 0x711 PUSH2 0x5EF JUMP JUMPDEST JUMPDEST DUP2 CALLDATALOAD PUSH2 0x722 DUP5 DUP3 PUSH1 0x20 DUP7 ADD PUSH2 0x6BD JUMP JUMPDEST SWAP2 POP POP SWAP3 SWAP2 POP POP JUMP JUMPDEST PUSH0 DUP1 PUSH1 0x40 DUP4 DUP6 SUB SLT ISZERO PUSH2 0x741 JUMPI PUSH2 0x740 PUSH2 0x5B4 JUMP JUMPDEST JUMPDEST PUSH0 PUSH2 0x74E DUP6 DUP3 DUP7 ADD PUSH2 0x5DB JUMP JUMPDEST SWAP3 POP POP PUSH1 0x20 DUP4 ADD CALLDATALOAD PUSH8 0xFFFFFFFFFFFFFFFF DUP2 GT ISZERO PUSH2 0x76F JUMPI PUSH2 0x76E PUSH2 0x5B8 JUMP JUMPDEST JUMPDEST PUSH2 0x77B DUP6 DUP3 DUP7 ADD PUSH2 0x6FE JUMP JUMPDEST SWAP2 POP POP SWAP3 POP SWAP3 SWAP1 POP JUMP JUMPDEST PUSH0 PUSH1 0x20 DUP3 DUP5 SUB SLT ISZERO PUSH2 0x79A JUMPI PUSH2 0x799 PUSH2 0x5B4 JUMP JUMPDEST JUMPDEST PUSH0 PUSH2 0x7A7 DUP5 DUP3 DUP6 ADD PUSH2 0x5DB JUMP JUMPDEST SWAP2 POP POP SWAP3 SWAP2 POP POP JUMP JUMPDEST PUSH0 DUP2 MLOAD SWAP1 POP SWAP2 SWAP1 POP JUMP JUMPDEST PUSH0 DUP3 DUP3 MSTORE PUSH1 0x20 DUP3 ADD SWAP1 POP SWAP3 SWAP2 POP POP JUMP JUMPDEST PUSH0 JUMPDEST DUP4 DUP2 LT ISZERO PUSH2 0x7E7 JUMPI DUP1 DUP3 ADD MLOAD DUP2 DUP5 ADD MSTORE PUSH1 0x20 DUP2 ADD SWAP1 POP PUSH2 0x7CC JUMP JUMPDEST PUSH0 DUP5 DUP5 ADD MSTORE POP POP POP POP JUMP JUMPDEST PUSH0 PUSH2 0x7FC DUP3 PUSH2 0x7B0 JUMP JUMPDEST PUSH2 0x806 DUP2 DUP6 PUSH2 0x7BA JUMP JUMPDEST SWAP4 POP PUSH2 0x816 DUP2 DUP6 PUSH1 0x20 DUP7 ADD PUSH2 0x7CA JUMP JUMPDEST PUSH2 0x81F DUP2 PUSH2 0x5F7 JUMP JUMPDEST DUP5 ADD SWAP2 POP POP SWAP3 SWAP2 POP POP JUMP JUMPDEST PUSH0 DUP2 ISZERO ISZERO SWAP1 POP SWAP2 SWAP1 POP JUMP JUMPDEST PUSH2 0x83E DUP2 PUSH2 0x82A JUMP JUMPDEST DUP3 MSTORE POP POP JUMP JUMPDEST PUSH0 PUSH1 0x40 DUP3 ADD SWAP1 POP DUP2 DUP2 SUB PUSH0 DUP4 ADD MSTORE PUSH2 0x85C DUP2 DUP6 PUSH2 0x7F2 JUMP JUMPDEST SWAP1 POP PUSH2 0x86B PUSH1 0x20 DUP4 ADD DUP5 PUSH2 0x835 JUMP JUMPDEST SWAP4 SWAP3 POP POP POP JUMP JUMPDEST PUSH2 0x87B DUP2 PUSH2 0x82A JUMP JUMPDEST DUP2 EQ PUSH2 0x885 JUMPI PUSH0 DUP1 REVERT JUMPDEST POP JUMP JUMPDEST PUSH0 DUP2 CALLDATALOAD SWAP1 POP PUSH2 0x896 DUP2 PUSH2 0x872 JUMP JUMPDEST SWAP3 SWAP2 POP POP JUMP JUMPDEST PUSH0 DUP1 PUSH1 0x40 DUP4 DUP6 SUB SLT ISZERO PUSH2 0x8B2 JUMPI PUSH2 0x8B1 PUSH2 0x5B4 JUMP JUMPDEST JUMPDEST PUSH0 PUSH2 0x8BF DUP6 DUP3 DUP7 ADD PUSH2 0x5DB JUMP JUMPDEST SWAP3 POP POP PUSH1 0x20 PUSH2 0x8D0 DUP6 DUP3 DUP7 ADD PUSH2 0x888 JUMP JUMPDEST SWAP2 POP POP SWAP3 POP SWAP3 SWAP1 POP JUMP JUMPDEST PUSH0 PUSH1 0x20 DUP3 DUP5 SUB SLT ISZERO PUSH2 0x8EF JUMPI PUSH2 0x8EE PUSH2 0x5B4 JUMP JUMPDEST JUMPDEST PUSH0 DUP3 ADD CALLDATALOAD PUSH8 0xFFFFFFFFFFFFFFFF DUP2 GT ISZERO PUSH2 0x90C JUMPI PUSH2 0x90B PUSH2 0x5B8 JUMP JUMPDEST JUMPDEST PUSH2 0x918 DUP5 DUP3 DUP6 ADD PUSH2 0x6FE JUMP JUMPDEST SWAP2 POP POP SWAP3 SWAP2 POP POP JUMP JUMPDEST PUSH32 0x4E487B7100000000000000000000000000000000000000000000000000000000 PUSH0 MSTORE PUSH1 0x32 PUSH1 0x4 MSTORE PUSH1 0x24 PUSH0 REVERT JUMPDEST PUSH32 0x4E487B7100000000000000000000000000000000000000000000000000000000 PUSH0 MSTORE PUSH1 0x22 PUSH1 0x4 MSTORE PUSH1 0x24 PUSH0 REVERT JUMPDEST PUSH0 PUSH1 0x2 DUP3 DIV SWAP1 POP PUSH1 0x1 DUP3 AND DUP1 PUSH2 0x992 JUMPI PUSH1 0x7F DUP3 AND SWAP2 POP JUMPDEST PUSH1 0x20 DUP3 LT DUP2 SUB PUSH2 0x9A5 JUMPI PUSH2 0x9A4 PUSH2 0x94E JUMP JUMPDEST JUMPDEST POP SWAP2 SWAP1 POP JUMP JUMPDEST PUSH0 DUP2 SWAP1 POP DUP2 PUSH0 MSTORE PUSH1 0x20 PUSH0 KECCAK256 SWAP1 POP SWAP2 SWAP1 POP JUMP JUMPDEST PUSH0 PUSH1 0x20 PUSH1 0x1F DUP4 ADD DIV SWAP1 POP SWAP2 SWAP1 POP JUMP JUMPDEST PUSH0 DUP3 DUP3 SHL SWAP1 POP SWAP3 SWAP2 POP POP JUMP JUMPDEST PUSH0 PUSH1 0x8 DUP4 MUL PUSH2 0xA07 PUSH32 0xFFFFFFFFFFFFFFFFFFFFFFFFFFFFFFFFFFFFFFFFFFFFFFFFFFFFFFFFFFFFFFFF DUP3 PUSH2 0x9CC JUMP JUMPDEST PUSH2 0xA11 DUP7 DUP4 PUSH2 0x9CC JUMP JUMPDEST SWAP6 POP DUP1 NOT DUP5 AND SWAP4 POP DUP1 DUP7 AND DUP5 OR SWAP3 POP POP POP SWAP4 SWAP3 POP POP POP JUMP JUMPDEST PUSH0 DUP2 SWAP1 POP SWAP2 SWAP1 POP JUMP JUMPDEST PUSH0 PUSH2 0xA4C PUSH2 0xA47 PUSH2 0xA42 DUP5 PUSH2 0x5BC JUMP JUMPDEST PUSH2 0xA29 JUMP JUMPDEST PUSH2 0x5BC JUMP JUMPDEST SWAP1 POP SWAP2 SWAP1 POP JUMP JUMPDEST PUSH0 DUP2 SWAP1 POP SWAP2 SWAP1 POP JUMP JUMPDEST PUSH2 0xA65 DUP4 PUSH2 0xA32 JUMP JUMPDEST PUSH2 0xA79 PUSH2 0xA71 DUP3 PUSH2 0xA53 JUMP JUMPDEST DUP5 DUP5 SLOAD PUSH2 0x9D8 JUMP JUMPDEST DUP3 SSTORE POP POP POP POP JUMP JUMPDEST PUSH0 SWAP1 JUMP JUMPDEST PUSH2 0xA8D PUSH2 0xA81 JUMP JUMPDEST PUSH2 0xA98 DUP2 DUP5 DUP5 PUSH2 0xA5C JUMP JUMPDEST POP POP POP JUMP JUMPDEST JUMPDEST DUP2 DUP2 LT ISZERO PUSH2 0xABB JUMPI PUSH2 0xAB0 PUSH0 DUP3 PUSH2 0xA85 JUMP JUMPDEST PUSH1 0x1 DUP2 ADD SWAP1 POP PUSH2 0xA9E JUMP JUMPDEST POP POP JUMP JUMPDEST PUSH1 0x1F DUP3 GT ISZERO PUSH2 0xB00 JUMPI PUSH2 0xAD1 DUP2 PUSH2 0x9AB JUMP JUMPDEST PUSH2 0xADA DUP5 PUSH2 0x9BD JUMP JUMPDEST DUP2 ADD PUSH1 0x20 DUP6 LT ISZERO PUSH2 0xAE9 JUMPI DUP2 SWAP1 POP JUMPDEST PUSH2 0xAFD PUSH2 0xAF5 DUP6 PUSH2 0x9BD JUMP JUMPDEST DUP4 ADD DUP3 PUSH2 0xA9D JUMP JUMPDEST POP POP JUMPDEST POP POP POP JUMP JUMPDEST PUSH0 DUP3 DUP3 SHR SWAP1 POP SWAP3 SWAP2 POP POP JUMP JUMPDEST PUSH0 PUSH2 0xB20 PUSH0 NOT DUP5 PUSH1 0x8 MUL PUSH2 0xB05 JUMP JUMPDEST NOT DUP1 DUP4 AND SWAP2 POP POP SWAP3 SWAP2 POP POP JUMP JUMPDEST PUSH0 PUSH2 0xB38 DUP4 DUP4 PUSH2 0xB11 JUMP JUMPDEST SWAP2 POP DUP3 PUSH1 0x2 MUL DUP3 OR SWAP1 POP SWAP3 SWAP2 POP POP JUMP JUMPDEST PUSH2 0xB51 DUP3 PUSH2 0x7B0 JUMP JUMPDEST PUSH8 0xFFFFFFFFFFFFFFFF DUP2 GT ISZERO PUSH2 0xB6A JUMPI PUSH2 0xB69 PUSH2 0x607 JUMP JUMPDEST JUMPDEST PUSH2 0xB74 DUP3 SLOAD PUSH2 0x97B JUMP JUMPDEST PUSH2 0xB7F DUP3 DUP3 DUP6 PUSH2 0xABF JUMP JUMPDEST PUSH0 PUSH1 0x20 SWAP1 POP PUSH1 0x1F DUP4 GT PUSH1 0x1 DUP2 EQ PUSH2 0xBB0 JUMPI PUSH0 DUP5 ISZERO PUSH2 0xB9E JUMPI DUP3 DUP8 ADD MLOAD SWAP1 POP JUMPDEST PUSH2 0xBA8 DUP6 DUP3 PUSH2 0xB2D JUMP JUMPDEST DUP7 SSTORE POP PUSH2 0xC0F JUMP JUMPDEST PUSH1 0x1F NOT DUP5 AND PUSH2 0xBBE DUP7 PUSH2 0x9AB JUMP JUMPDEST PUSH0 JUMPDEST DUP3 DUP2 LT ISZERO PUSH2 0xBE5 JUMPI DUP5 DUP10 ADD MLOAD DUP3 SSTORE PUSH1 0x1 DUP3 ADD SWAP2 POP PUSH1 0x20 DUP6 ADD SWAP5 POP PUSH1 0x20 DUP2 ADD SWAP1 POP PUSH2 0xBC0 JUMP JUMPDEST DUP7 DUP4 LT ISZERO PUSH2 0xC02 JUMPI DUP5 DUP10 ADD MLOAD PUSH2 0xBFE PUSH1 0x1F DUP10 AND DUP3 PUSH2 0xB11 JUMP JUMPDEST DUP4 SSTORE POP JUMPDEST PUSH1 0x1 PUSH1 0x2 DUP9 MUL ADD DUP9 SSTORE POP POP POP JUMPDEST POP POP POP POP POP POP JUMP INVALID LOG2 PUSH5 0x6970667358 0x22 SLT KECCAK256 0xD5 0x4B PUSH13 0x3D19802F6ACBE121106A64FA0 0xA6 TIMESTAMP STOP SHR DUP6 SWAP16 0xCE MOD RETURN PUSH26 0xE4EF5431171D64736F6C63430008180033000000000000000000 "
				},
				"gasEstimates": {
					"creation": {
						"codeDepositCost": "629800",
						"executionCost": "662",
						"totalCost": "630462"
					},
					"external": {
						"create(string)": "infinite",
						"get1(uint256)": "infinite",
						"get2(uint256)": "infinite",
						"list(uint256)": "infinite",
						"modiName1(uint256,string)": "infinite",
						"modiName2(uint256,string)": "infinite",
						"modiStatus1(uint256,bool)": "27083",
						"modiStatus2(uint256)": "31259"
					}
				},
				"methodIdentifiers": {
					"create(string)": "b6a46b3b",
					"get1(uint256)": "9c117f0f",
					"get2(uint256)": "31184dc3",
					"list(uint256)": "80c9419e",
					"modiName1(uint256,string)": "1fbb5bc5",
					"modiName2(uint256,string)": "c91b78cb",
					"modiStatus1(uint256,bool)": "4112a18e",
					"modiStatus2(uint256)": "d511b4be"
				}
			},
			"storageLayout": {
				"storage": [
					{
						"astId": 11,
						"contract": "contracts/Demo11.sol:ToDoList",
						"label": "list",
						"offset": 0,
						"slot": "0",
						"type": "t_array(t_struct(Todo)7_storage)dyn_storage"
					}
				],
				"types": {
					"t_array(t_struct(Todo)7_storage)dyn_storage": {
						"base": "t_struct(Todo)7_storage",
						"encoding": "dynamic_array",
						"label": "struct ToDoList.Todo[]",
						"numberOfBytes": "32"
					},
					"t_bool": {
						"encoding": "inplace",
						"label": "bool",
						"numberOfBytes": "1"
					},
					"t_string_storage": {
						"encoding": "bytes",
						"label": "string",
						"numberOfBytes": "32"
					},
					"t_struct(Todo)7_storage": {
						"encoding": "inplace",
						"label": "struct ToDoList.Todo",
						"members": [
							{
								"astId": 4,
								"contract": "contracts/Demo11.sol:ToDoList",
								"label": "name",
								"offset": 0,
								"slot": "0",
								"type": "t_string_storage"
							},
							{
								"astId": 6,
								"contract": "contracts/Demo11.sol:ToDoList",
								"label": "isComplete",
								"offset": 0,
								"slot": "1",
								"type": "t_bool"
							}
						],
						"numberOfBytes": "64"
					}
				}
			},
			"userdoc": {
				"kind": "user",
				"methods": {},
				"notice": "index 怎么实现？",
				"version": 1
			}
		}
	}
}