{
	"contracts/Demo13.sol": {
		"Crowdfunding": {
			"abi": [
				{
					"inputs": [
						{
							"internalType": "address",
							"name": "beneficiary_",
							"type": "address"
						},
						{
							"internalType": "uint256",
							"name": "fundingGoal_",
							"type": "uint256"
						}
					],
					"stateMutability": "nonpayable",
					"type": "constructor"
				},
				{
					"inputs": [],
					"name": "beneficiary",
					"outputs": [
						{
							"internalType": "address",
							"name": "",
							"type": "address"
						}
					],
					"stateMutability": "view",
					"type": "function"
				},
				{
					"inputs": [],
					"name": "close",
					"outputs": [
						{
							"internalType": "bool",
							"name": "",
							"type": "bool"
						}
					],
					"stateMutability": "nonpayable",
					"type": "function"
				},
				{
					"inputs": [],
					"name": "contribution",
					"outputs": [],
					"stateMutability": "payable",
					"type": "function"
				},
				{
					"inputs": [
						{
							"internalType": "uint256",
							"name": "",
							"type": "uint256"
						}
					],
					"name": "funderKeys",
					"outputs": [
						{
							"internalType": "address",
							"name": "",
							"type": "address"
						}
					],
					"stateMutability": "view",
					"type": "function"
				},
				{
					"inputs": [
						{
							"internalType": "address",
							"name": "",
							"type": "address"
						}
					],
					"name": "funders",
					"outputs": [
						{
							"internalType": "uint256",
							"name": "",
							"type": "uint256"
						}
					],
					"stateMutability": "view",
					"type": "function"
				},
				{
					"inputs": [],
					"name": "fundersLength",
					"outputs": [
						{
							"internalType": "uint256",
							"name": "",
							"type": "uint256"
						}
					],
					"stateMutability": "view",
					"type": "function"
				},
				{
					"inputs": [],
					"name": "fundingAmount",
					"outputs": [
						{
							"internalType": "uint256",
							"name": "",
							"type": "uint256"
						}
					],
					"stateMutability": "view",
					"type": "function"
				},
				{
					"inputs": [],
					"name": "fundingGoal",
					"outputs": [
						{
							"internalType": "uint256",
							"name": "",
							"type": "uint256"
						}
					],
					"stateMutability": "view",
					"type": "function"
				},
				{
					"inputs": [],
					"name": "validable",
					"outputs": [
						{
							"internalType": "bool",
							"name": "",
							"type": "bool"
						}
					],
					"stateMutability": "view",
					"type": "function"
				}
			],
			"devdoc": {
				"kind": "dev",
				"methods": {},
				"version": 1
			},
			"evm": {
				"assembly": "    /* \"contracts/Demo13.sol\":61:1435  contract Crowdfunding{... */\n  mstore(0x40, 0xc0)\n    /* \"contracts/Demo13.sol\":376:380  true */\n  0x01\n    /* \"contracts/Demo13.sol\":352:380  bool public validable = true */\n  0x04\n  exp(0x0100, 0x00)\n  dup2\n  sload\n  dup2\n  0xff\n  mul\n  not\n  and\n  swap1\n  dup4\n  iszero\n  iszero\n  mul\n  or\n  swap1\n  sstore\n  pop\n    /* \"contracts/Demo13.sol\":389:525  constructor(address beneficiary_,uint256 fundingGoal_){... */\n  callvalue\n  dup1\n  iszero\n  tag_1\n  jumpi\n  0x00\n  dup1\n  revert\ntag_1:\n  pop\n  mload(0x40)\n  sub(codesize, bytecodeSize)\n  dup1\n  bytecodeSize\n  dup4\n  codecopy\n  dup2\n  dup2\n  add\n  0x40\n  mstore\n  dup2\n  add\n  swap1\n  tag_2\n  swap2\n  swap1\n  tag_3\n  jump\t// in\ntag_2:\n    /* \"contracts/Demo13.sol\":468:480  beneficiary_ */\n  dup2\n    /* \"contracts/Demo13.sol\":454:480  beneficiary = beneficiary_ */\n  0xffffffffffffffffffffffffffffffffffffffff\n  and\n  0x80\n  dup2\n  0xffffffffffffffffffffffffffffffffffffffff\n  and\n  dup2\n  mstore\n  pop\n  pop\n    /* \"contracts/Demo13.sol\":505:517  fundingGoal_ */\n  dup1\n    /* \"contracts/Demo13.sol\":491:517  fundingGoal = fundingGoal_ */\n  0xa0\n  dup2\n  dup2\n  mstore\n  pop\n  pop\n    /* \"contracts/Demo13.sol\":389:525  constructor(address beneficiary_,uint256 fundingGoal_){... */\n  pop\n  pop\n    /* \"contracts/Demo13.sol\":61:1435  contract Crowdfunding{... */\n  jump(tag_6)\n    /* \"#utility.yul\":88:205   */\ntag_8:\n    /* \"#utility.yul\":197:198   */\n  0x00\n    /* \"#utility.yul\":194:195   */\n  dup1\n    /* \"#utility.yul\":187:199   */\n  revert\n    /* \"#utility.yul\":334:460   */\ntag_10:\n    /* \"#utility.yul\":371:378   */\n  0x00\n    /* \"#utility.yul\":411:453   */\n  0xffffffffffffffffffffffffffffffffffffffff\n    /* \"#utility.yul\":404:409   */\n  dup3\n    /* \"#utility.yul\":400:454   */\n  and\n    /* \"#utility.yul\":389:454   */\n  swap1\n  pop\n    /* \"#utility.yul\":334:460   */\n  swap2\n  swap1\n  pop\n  jump\t// out\n    /* \"#utility.yul\":466:562   */\ntag_11:\n    /* \"#utility.yul\":503:510   */\n  0x00\n    /* \"#utility.yul\":532:556   */\n  tag_23\n    /* \"#utility.yul\":550:555   */\n  dup3\n    /* \"#utility.yul\":532:556   */\n  tag_10\n  jump\t// in\ntag_23:\n    /* \"#utility.yul\":521:556   */\n  swap1\n  pop\n    /* \"#utility.yul\":466:562   */\n  swap2\n  swap1\n  pop\n  jump\t// out\n    /* \"#utility.yul\":568:690   */\ntag_12:\n    /* \"#utility.yul\":641:665   */\n  tag_25\n    /* \"#utility.yul\":659:664   */\n  dup2\n    /* \"#utility.yul\":641:665   */\n  tag_11\n  jump\t// in\ntag_25:\n    /* \"#utility.yul\":634:639   */\n  dup2\n    /* \"#utility.yul\":631:666   */\n  eq\n    /* \"#utility.yul\":621:684   */\n  tag_26\n  jumpi\n    /* \"#utility.yul\":680:681   */\n  0x00\n    /* \"#utility.yul\":677:678   */\n  dup1\n    /* \"#utility.yul\":670:682   */\n  revert\n    /* \"#utility.yul\":621:684   */\ntag_26:\n    /* \"#utility.yul\":568:690   */\n  pop\n  jump\t// out\n    /* \"#utility.yul\":696:839   */\ntag_13:\n    /* \"#utility.yul\":753:758   */\n  0x00\n    /* \"#utility.yul\":784:790   */\n  dup2\n    /* \"#utility.yul\":778:791   */\n  mload\n    /* \"#utility.yul\":769:791   */\n  swap1\n  pop\n    /* \"#utility.yul\":800:833   */\n  tag_28\n    /* \"#utility.yul\":827:832   */\n  dup2\n    /* \"#utility.yul\":800:833   */\n  tag_12\n  jump\t// in\ntag_28:\n    /* \"#utility.yul\":696:839   */\n  swap3\n  swap2\n  pop\n  pop\n  jump\t// out\n    /* \"#utility.yul\":845:922   */\ntag_14:\n    /* \"#utility.yul\":882:889   */\n  0x00\n    /* \"#utility.yul\":911:916   */\n  dup2\n    /* \"#utility.yul\":900:916   */\n  swap1\n  pop\n    /* \"#utility.yul\":845:922   */\n  swap2\n  swap1\n  pop\n  jump\t// out\n    /* \"#utility.yul\":928:1050   */\ntag_15:\n    /* \"#utility.yul\":1001:1025   */\n  tag_31\n    /* \"#utility.yul\":1019:1024   */\n  dup2\n    /* \"#utility.yul\":1001:1025   */\n  tag_14\n  jump\t// in\ntag_31:\n    /* \"#utility.yul\":994:999   */\n  dup2\n    /* \"#utility.yul\":991:1026   */\n  eq\n    /* \"#utility.yul\":981:1044   */\n  tag_32\n  jumpi\n    /* \"#utility.yul\":1040:1041   */\n  0x00\n    /* \"#utility.yul\":1037:1038   */\n  dup1\n    /* \"#utility.yul\":1030:1042   */\n  revert\n    /* \"#utility.yul\":981:1044   */\ntag_32:\n    /* \"#utility.yul\":928:1050   */\n  pop\n  jump\t// out\n    /* \"#utility.yul\":1056:1199   */\ntag_16:\n    /* \"#utility.yul\":1113:1118   */\n  0x00\n    /* \"#utility.yul\":1144:1150   */\n  dup2\n    /* \"#utility.yul\":1138:1151   */\n  mload\n    /* \"#utility.yul\":1129:1151   */\n  swap1\n  pop\n    /* \"#utility.yul\":1160:1193   */\n  tag_34\n    /* \"#utility.yul\":1187:1192   */\n  dup2\n    /* \"#utility.yul\":1160:1193   */\n  tag_15\n  jump\t// in\ntag_34:\n    /* \"#utility.yul\":1056:1199   */\n  swap3\n  swap2\n  pop\n  pop\n  jump\t// out\n    /* \"#utility.yul\":1205:1712   */\ntag_3:\n    /* \"#utility.yul\":1284:1290   */\n  0x00\n    /* \"#utility.yul\":1292:1298   */\n  dup1\n    /* \"#utility.yul\":1341:1343   */\n  0x40\n    /* \"#utility.yul\":1329:1338   */\n  dup4\n    /* \"#utility.yul\":1320:1327   */\n  dup6\n    /* \"#utility.yul\":1316:1339   */\n  sub\n    /* \"#utility.yul\":1312:1344   */\n  slt\n    /* \"#utility.yul\":1309:1428   */\n  iszero\n  tag_36\n  jumpi\n    /* \"#utility.yul\":1347:1426   */\n  tag_37\n  tag_8\n  jump\t// in\ntag_37:\n    /* \"#utility.yul\":1309:1428   */\ntag_36:\n    /* \"#utility.yul\":1467:1468   */\n  0x00\n    /* \"#utility.yul\":1492:1556   */\n  tag_38\n    /* \"#utility.yul\":1548:1555   */\n  dup6\n    /* \"#utility.yul\":1539:1545   */\n  dup3\n    /* \"#utility.yul\":1528:1537   */\n  dup7\n    /* \"#utility.yul\":1524:1546   */\n  add\n    /* \"#utility.yul\":1492:1556   */\n  tag_13\n  jump\t// in\ntag_38:\n    /* \"#utility.yul\":1482:1556   */\n  swap3\n  pop\n    /* \"#utility.yul\":1438:1566   */\n  pop\n    /* \"#utility.yul\":1605:1607   */\n  0x20\n    /* \"#utility.yul\":1631:1695   */\n  tag_39\n    /* \"#utility.yul\":1687:1694   */\n  dup6\n    /* \"#utility.yul\":1678:1684   */\n  dup3\n    /* \"#utility.yul\":1667:1676   */\n  dup7\n    /* \"#utility.yul\":1663:1685   */\n  add\n    /* \"#utility.yul\":1631:1695   */\n  tag_16\n  jump\t// in\ntag_39:\n    /* \"#utility.yul\":1621:1695   */\n  swap2\n  pop\n    /* \"#utility.yul\":1576:1705   */\n  pop\n    /* \"#utility.yul\":1205:1712   */\n  swap3\n  pop\n  swap3\n  swap1\n  pop\n  jump\t// out\n    /* \"contracts/Demo13.sol\":61:1435  contract Crowdfunding{... */\ntag_6:\n  mload(0x80)\n  mload(0xa0)\n  codecopy(0x00, dataOffset(sub_0), dataSize(sub_0))\n  0x00\n  assignImmutable(\"0xceebf77a833b30520287ddd9478ff51abbdffa30aa90a8d655dba0e8a79ce0c1\")\n  0x00\n  assignImmutable(\"0x2a80e1ef1d7842f27f2e6be0972bb708b9a135c38860dbe73c27c3486c34f4de\")\n  return(0x00, dataSize(sub_0))\nstop\n\nsub_0: assembly {\n        /* \"contracts/Demo13.sol\":61:1435  contract Crowdfunding{... */\n      mstore(0x40, 0x80)\n      jumpi(tag_1, lt(calldatasize, 0x04))\n      shr(0xe0, calldataload(0x00))\n      dup1\n      0x43d726d6\n      gt\n      tag_11\n      jumpi\n      dup1\n      0x43d726d6\n      eq\n      tag_6\n      jumpi\n      dup1\n      0x50520b1f\n      eq\n      tag_7\n      jumpi\n      dup1\n      0x7a3a0e84\n      eq\n      tag_8\n      jumpi\n      dup1\n      0x94de8484\n      eq\n      tag_9\n      jumpi\n      dup1\n      0xe3d94735\n      eq\n      tag_10\n      jumpi\n      jump(tag_1)\n    tag_11:\n      dup1\n      0x031b3677\n      eq\n      tag_2\n      jumpi\n      dup1\n      0x04a79c97\n      eq\n      tag_3\n      jumpi\n      dup1\n      0x38af3eed\n      eq\n      tag_4\n      jumpi\n      dup1\n      0x39f8cd04\n      eq\n      tag_5\n      jumpi\n    tag_1:\n      0x00\n      dup1\n      revert\n        /* \"contracts/Demo13.sol\":217:259  mapping (address=> uint256) public funders */\n    tag_2:\n      callvalue\n      dup1\n      iszero\n      tag_12\n      jumpi\n      0x00\n      dup1\n      revert\n    tag_12:\n      pop\n      tag_13\n      0x04\n      dup1\n      calldatasize\n      sub\n      dup2\n      add\n      swap1\n      tag_14\n      swap2\n      swap1\n      tag_15\n      jump\t// in\n    tag_14:\n      tag_16\n      jump\t// in\n    tag_13:\n      mload(0x40)\n      tag_17\n      swap2\n      swap1\n      tag_18\n      jump\t// in\n    tag_17:\n      mload(0x40)\n      dup1\n      swap2\n      sub\n      swap1\n      return\n        /* \"contracts/Demo13.sol\":182:210  uint256 public fundingAmount */\n    tag_3:\n      callvalue\n      dup1\n      iszero\n      tag_19\n      jumpi\n      0x00\n      dup1\n      revert\n    tag_19:\n      pop\n      tag_20\n      tag_21\n      jump\t// in\n    tag_20:\n      mload(0x40)\n      tag_22\n      swap2\n      swap1\n      tag_18\n      jump\t// in\n    tag_22:\n      mload(0x40)\n      dup1\n      swap2\n      sub\n      swap1\n      return\n        /* \"contracts/Demo13.sol\":89:125  address public immutable beneficiary */\n    tag_4:\n      callvalue\n      dup1\n      iszero\n      tag_23\n      jumpi\n      0x00\n      dup1\n      revert\n    tag_23:\n      pop\n      tag_24\n      tag_25\n      jump\t// in\n    tag_24:\n      mload(0x40)\n      tag_26\n      swap2\n      swap1\n      tag_27\n      jump\t// in\n    tag_26:\n      mload(0x40)\n      dup1\n      swap2\n      sub\n      swap1\n      return\n        /* \"contracts/Demo13.sol\":315:343  address[] public  funderKeys */\n    tag_5:\n      callvalue\n      dup1\n      iszero\n      tag_28\n      jumpi\n      0x00\n      dup1\n      revert\n    tag_28:\n      pop\n      tag_29\n      0x04\n      dup1\n      calldatasize\n      sub\n      dup2\n      add\n      swap1\n      tag_30\n      swap2\n      swap1\n      tag_31\n      jump\t// in\n    tag_30:\n      tag_32\n      jump\t// in\n    tag_29:\n      mload(0x40)\n      tag_33\n      swap2\n      swap1\n      tag_27\n      jump\t// in\n    tag_33:\n      mload(0x40)\n      dup1\n      swap2\n      sub\n      swap1\n      return\n        /* \"contracts/Demo13.sol\":953:1326  function close() public returns(bool){   ... */\n    tag_6:\n      callvalue\n      dup1\n      iszero\n      tag_34\n      jumpi\n      0x00\n      dup1\n      revert\n    tag_34:\n      pop\n      tag_35\n      tag_36\n      jump\t// in\n    tag_35:\n      mload(0x40)\n      tag_37\n      swap2\n      swap1\n      tag_38\n      jump\t// in\n    tag_37:\n      mload(0x40)\n      dup1\n      swap2\n      sub\n      swap1\n      return\n        /* \"contracts/Demo13.sol\":533:945  function contribution() public payable {... */\n    tag_7:\n      tag_39\n      tag_40\n      jump\t// in\n    tag_39:\n      stop\n        /* \"contracts/Demo13.sol\":132:168  uint256 public immutable fundingGoal */\n    tag_8:\n      callvalue\n      dup1\n      iszero\n      tag_41\n      jumpi\n      0x00\n      dup1\n      revert\n    tag_41:\n      pop\n      tag_42\n      tag_43\n      jump\t// in\n    tag_42:\n      mload(0x40)\n      tag_44\n      swap2\n      swap1\n      tag_18\n      jump\t// in\n    tag_44:\n      mload(0x40)\n      dup1\n      swap2\n      sub\n      swap1\n      return\n        /* \"contracts/Demo13.sol\":352:380  bool public validable = true */\n    tag_9:\n      callvalue\n      dup1\n      iszero\n      tag_45\n      jumpi\n      0x00\n      dup1\n      revert\n    tag_45:\n      pop\n      tag_46\n      tag_47\n      jump\t// in\n    tag_46:\n      mload(0x40)\n      tag_48\n      swap2\n      swap1\n      tag_38\n      jump\t// in\n    tag_48:\n      mload(0x40)\n      dup1\n      swap2\n      sub\n      swap1\n      return\n        /* \"contracts/Demo13.sol\":1334:1430  function fundersLength() public view returns(uint256){... */\n    tag_10:\n      callvalue\n      dup1\n      iszero\n      tag_49\n      jumpi\n      0x00\n      dup1\n      revert\n    tag_49:\n      pop\n      tag_50\n      tag_51\n      jump\t// in\n    tag_50:\n      mload(0x40)\n      tag_52\n      swap2\n      swap1\n      tag_18\n      jump\t// in\n    tag_52:\n      mload(0x40)\n      dup1\n      swap2\n      sub\n      swap1\n      return\n        /* \"contracts/Demo13.sol\":217:259  mapping (address=> uint256) public funders */\n    tag_16:\n      mstore(0x20, 0x01)\n      dup1\n      0x00\n      mstore\n      keccak256(0x00, 0x40)\n      0x00\n      swap2\n      pop\n      swap1\n      pop\n      sload\n      dup2\n      jump\t// out\n        /* \"contracts/Demo13.sol\":182:210  uint256 public fundingAmount */\n    tag_21:\n      sload(0x00)\n      dup2\n      jump\t// out\n        /* \"contracts/Demo13.sol\":89:125  address public immutable beneficiary */\n    tag_25:\n      immutable(\"0x2a80e1ef1d7842f27f2e6be0972bb708b9a135c38860dbe73c27c3486c34f4de\")\n      dup2\n      jump\t// out\n        /* \"contracts/Demo13.sol\":315:343  address[] public  funderKeys */\n    tag_32:\n      0x03\n      dup2\n      dup2\n      sload\n      dup2\n      lt\n      tag_53\n      jumpi\n      0x00\n      dup1\n      revert\n    tag_53:\n      swap1\n      0x00\n      mstore\n      keccak256(0x00, 0x20)\n      add\n      0x00\n      swap2\n      pop\n      sload\n      swap1\n      0x0100\n      exp\n      swap1\n      div\n      0xffffffffffffffffffffffffffffffffffffffff\n      and\n      dup2\n      jump\t// out\n        /* \"contracts/Demo13.sol\":953:1326  function close() public returns(bool){   ... */\n    tag_36:\n        /* \"contracts/Demo13.sol\":985:989  bool */\n      0x00\n        /* \"contracts/Demo13.sol\":1046:1057  fundingGoal */\n      immutable(\"0xceebf77a833b30520287ddd9478ff51abbdffa30aa90a8d655dba0e8a79ce0c1\")\n        /* \"contracts/Demo13.sol\":1031:1044  fundingAmount */\n      sload(0x00)\n        /* \"contracts/Demo13.sol\":1031:1057  fundingAmount< fundingGoal */\n      lt\n        /* \"contracts/Demo13.sol\":1028:1098  if(fundingAmount< fundingGoal){... */\n      iszero\n      tag_56\n      jumpi\n        /* \"contracts/Demo13.sol\":1081:1086  false */\n      0x00\n        /* \"contracts/Demo13.sol\":1074:1086  return false */\n      swap1\n      pop\n      jump(tag_55)\n        /* \"contracts/Demo13.sol\":1028:1098  if(fundingAmount< fundingGoal){... */\n    tag_56:\n        /* \"contracts/Demo13.sol\":1108:1122  uint256 amount */\n      0x00\n        /* \"contracts/Demo13.sol\":1125:1138  fundingAmount */\n      dup1\n      sload\n        /* \"contracts/Demo13.sol\":1108:1138  uint256 amount = fundingAmount */\n      swap1\n      pop\n        /* \"contracts/Demo13.sol\":1192:1197  false */\n      0x00\n        /* \"contracts/Demo13.sol\":1180:1189  validable */\n      0x04\n      0x00\n        /* \"contracts/Demo13.sol\":1180:1197  validable = false */\n      0x0100\n      exp\n      dup2\n      sload\n      dup2\n      0xff\n      mul\n      not\n      and\n      swap1\n      dup4\n      iszero\n      iszero\n      mul\n      or\n      swap1\n      sstore\n      pop\n        /* \"contracts/Demo13.sol\":1224:1225  0 */\n      0x00\n        /* \"contracts/Demo13.sol\":1208:1221  fundingAmount */\n      dup1\n        /* \"contracts/Demo13.sol\":1208:1225  fundingAmount = 0 */\n      dup2\n      swap1\n      sstore\n      pop\n        /* \"contracts/Demo13.sol\":1268:1279  beneficiary */\n      immutable(\"0x2a80e1ef1d7842f27f2e6be0972bb708b9a135c38860dbe73c27c3486c34f4de\")\n        /* \"contracts/Demo13.sol\":1259:1289  payable (beneficiary).transfer */\n      0xffffffffffffffffffffffffffffffffffffffff\n      and\n        /* \"contracts/Demo13.sol\":1259:1297  payable (beneficiary).transfer(amount) */\n      0x08fc\n        /* \"contracts/Demo13.sol\":1290:1296  amount */\n      dup3\n        /* \"contracts/Demo13.sol\":1259:1297  payable (beneficiary).transfer(amount) */\n      swap1\n      dup2\n      iszero\n      mul\n      swap1\n      mload(0x40)\n      0x00\n      mload(0x40)\n      dup1\n      dup4\n      sub\n      dup2\n      dup6\n      dup9\n      dup9\n      call\n      swap4\n      pop\n      pop\n      pop\n      pop\n      iszero\n      dup1\n      iszero\n      tag_58\n      jumpi\n      returndatasize\n      0x00\n      dup1\n      returndatacopy\n      revert(0x00, returndatasize)\n    tag_58:\n      pop\n        /* \"contracts/Demo13.sol\":1314:1318  true */\n      0x01\n        /* \"contracts/Demo13.sol\":1307:1318  return true */\n      swap2\n      pop\n      pop\n        /* \"contracts/Demo13.sol\":953:1326  function close() public returns(bool){   ... */\n    tag_55:\n      swap1\n      jump\t// out\n        /* \"contracts/Demo13.sol\":533:945  function contribution() public payable {... */\n    tag_40:\n        /* \"contracts/Demo13.sol\":591:600  validable */\n      0x04\n      0x00\n      swap1\n      sload\n      swap1\n      0x0100\n      exp\n      swap1\n      div\n      0xff\n      and\n        /* \"contracts/Demo13.sol\":583:632  require(validable,\"Crowdfunding has been closed\") */\n      tag_60\n      jumpi\n      mload(0x40)\n      0x08c379a000000000000000000000000000000000000000000000000000000000\n      dup2\n      mstore\n      0x04\n      add\n      tag_61\n      swap1\n      tag_62\n      jump\t// in\n    tag_61:\n      mload(0x40)\n      dup1\n      swap2\n      sub\n      swap1\n      revert\n    tag_60:\n        /* \"contracts/Demo13.sol\":660:669  msg.value */\n      callvalue\n        /* \"contracts/Demo13.sol\":643:656  fundingAmount */\n      0x00\n      dup1\n        /* \"contracts/Demo13.sol\":643:669  fundingAmount += msg.value */\n      dup3\n      dup3\n      sload\n      tag_63\n      swap2\n      swap1\n      tag_64\n      jump\t// in\n    tag_63:\n      swap3\n      pop\n      pop\n      dup2\n      swap1\n      sstore\n      pop\n        /* \"contracts/Demo13.sol\":703:712  msg.value */\n      callvalue\n        /* \"contracts/Demo13.sol\":680:687  funders */\n      0x01\n        /* \"contracts/Demo13.sol\":680:699  funders[msg.sender] */\n      0x00\n        /* \"contracts/Demo13.sol\":688:698  msg.sender */\n      caller\n        /* \"contracts/Demo13.sol\":680:699  funders[msg.sender] */\n      0xffffffffffffffffffffffffffffffffffffffff\n      and\n      0xffffffffffffffffffffffffffffffffffffffff\n      and\n      dup2\n      mstore\n      0x20\n      add\n      swap1\n      dup2\n      mstore\n      0x20\n      add\n      0x00\n      keccak256\n      0x00\n        /* \"contracts/Demo13.sol\":680:712  funders[msg.sender] += msg.value */\n      dup3\n      dup3\n      sload\n      tag_65\n      swap2\n      swap1\n      tag_64\n      jump\t// in\n    tag_65:\n      swap3\n      pop\n      pop\n      dup2\n      swap1\n      sstore\n      pop\n        /* \"contracts/Demo13.sol\":746:760  funderInserted */\n      0x02\n        /* \"contracts/Demo13.sol\":746:772  funderInserted[msg.sender] */\n      0x00\n        /* \"contracts/Demo13.sol\":761:771  msg.sender */\n      caller\n        /* \"contracts/Demo13.sol\":746:772  funderInserted[msg.sender] */\n      0xffffffffffffffffffffffffffffffffffffffff\n      and\n      0xffffffffffffffffffffffffffffffffffffffff\n      and\n      dup2\n      mstore\n      0x20\n      add\n      swap1\n      dup2\n      mstore\n      0x20\n      add\n      0x00\n      keccak256\n      0x00\n      swap1\n      sload\n      swap1\n      0x0100\n      exp\n      swap1\n      div\n      0xff\n      and\n        /* \"contracts/Demo13.sol\":742:938  if(!funderInserted[msg.sender]){... */\n      tag_66\n      jumpi\n        /* \"contracts/Demo13.sol\":852:856  true */\n      0x01\n        /* \"contracts/Demo13.sol\":823:837  funderInserted */\n      0x02\n        /* \"contracts/Demo13.sol\":823:849  funderInserted[msg.sender] */\n      0x00\n        /* \"contracts/Demo13.sol\":838:848  msg.sender */\n      caller\n        /* \"contracts/Demo13.sol\":823:849  funderInserted[msg.sender] */\n      0xffffffffffffffffffffffffffffffffffffffff\n      and\n      0xffffffffffffffffffffffffffffffffffffffff\n      and\n      dup2\n      mstore\n      0x20\n      add\n      swap1\n      dup2\n      mstore\n      0x20\n      add\n      0x00\n      keccak256\n      0x00\n        /* \"contracts/Demo13.sol\":823:856  funderInserted[msg.sender] = true */\n      0x0100\n      exp\n      dup2\n      sload\n      dup2\n      0xff\n      mul\n      not\n      and\n      swap1\n      dup4\n      iszero\n      iszero\n      mul\n      or\n      swap1\n      sstore\n      pop\n        /* \"contracts/Demo13.sol\":899:909  funderKeys */\n      0x03\n        /* \"contracts/Demo13.sol\":915:925  msg.sender */\n      caller\n        /* \"contracts/Demo13.sol\":899:926  funderKeys.push(msg.sender) */\n      swap1\n      dup1\n      0x01\n      dup2\n      sload\n      add\n      dup1\n      dup3\n      sstore\n      dup1\n      swap2\n      pop\n      pop\n      0x01\n      swap1\n      sub\n      swap1\n      0x00\n      mstore\n      keccak256(0x00, 0x20)\n      add\n      0x00\n      swap1\n      swap2\n      swap1\n      swap2\n      swap1\n      swap2\n      0x0100\n      exp\n      dup2\n      sload\n      dup2\n      0xffffffffffffffffffffffffffffffffffffffff\n      mul\n      not\n      and\n      swap1\n      dup4\n      0xffffffffffffffffffffffffffffffffffffffff\n      and\n      mul\n      or\n      swap1\n      sstore\n      pop\n        /* \"contracts/Demo13.sol\":742:938  if(!funderInserted[msg.sender]){... */\n    tag_66:\n        /* \"contracts/Demo13.sol\":533:945  function contribution() public payable {... */\n      jump\t// out\n        /* \"contracts/Demo13.sol\":132:168  uint256 public immutable fundingGoal */\n    tag_43:\n      immutable(\"0xceebf77a833b30520287ddd9478ff51abbdffa30aa90a8d655dba0e8a79ce0c1\")\n      dup2\n      jump\t// out\n        /* \"contracts/Demo13.sol\":352:380  bool public validable = true */\n    tag_47:\n      0x04\n      0x00\n      swap1\n      sload\n      swap1\n      0x0100\n      exp\n      swap1\n      div\n      0xff\n      and\n      dup2\n      jump\t// out\n        /* \"contracts/Demo13.sol\":1334:1430  function fundersLength() public view returns(uint256){... */\n    tag_51:\n        /* \"contracts/Demo13.sol\":1379:1386  uint256 */\n      0x00\n        /* \"contracts/Demo13.sol\":1405:1415  funderKeys */\n      0x03\n        /* \"contracts/Demo13.sol\":1405:1422  funderKeys.length */\n      dup1\n      sload\n      swap1\n      pop\n        /* \"contracts/Demo13.sol\":1398:1422  return funderKeys.length */\n      swap1\n      pop\n        /* \"contracts/Demo13.sol\":1334:1430  function fundersLength() public view returns(uint256){... */\n      swap1\n      jump\t// out\n        /* \"#utility.yul\":88:205   */\n    tag_70:\n        /* \"#utility.yul\":197:198   */\n      0x00\n        /* \"#utility.yul\":194:195   */\n      dup1\n        /* \"#utility.yul\":187:199   */\n      revert\n        /* \"#utility.yul\":334:460   */\n    tag_72:\n        /* \"#utility.yul\":371:378   */\n      0x00\n        /* \"#utility.yul\":411:453   */\n      0xffffffffffffffffffffffffffffffffffffffff\n        /* \"#utility.yul\":404:409   */\n      dup3\n        /* \"#utility.yul\":400:454   */\n      and\n        /* \"#utility.yul\":389:454   */\n      swap1\n      pop\n        /* \"#utility.yul\":334:460   */\n      swap2\n      swap1\n      pop\n      jump\t// out\n        /* \"#utility.yul\":466:562   */\n    tag_73:\n        /* \"#utility.yul\":503:510   */\n      0x00\n        /* \"#utility.yul\":532:556   */\n      tag_93\n        /* \"#utility.yul\":550:555   */\n      dup3\n        /* \"#utility.yul\":532:556   */\n      tag_72\n      jump\t// in\n    tag_93:\n        /* \"#utility.yul\":521:556   */\n      swap1\n      pop\n        /* \"#utility.yul\":466:562   */\n      swap2\n      swap1\n      pop\n      jump\t// out\n        /* \"#utility.yul\":568:690   */\n    tag_74:\n        /* \"#utility.yul\":641:665   */\n      tag_95\n        /* \"#utility.yul\":659:664   */\n      dup2\n        /* \"#utility.yul\":641:665   */\n      tag_73\n      jump\t// in\n    tag_95:\n        /* \"#utility.yul\":634:639   */\n      dup2\n        /* \"#utility.yul\":631:666   */\n      eq\n        /* \"#utility.yul\":621:684   */\n      tag_96\n      jumpi\n        /* \"#utility.yul\":680:681   */\n      0x00\n        /* \"#utility.yul\":677:678   */\n      dup1\n        /* \"#utility.yul\":670:682   */\n      revert\n        /* \"#utility.yul\":621:684   */\n    tag_96:\n        /* \"#utility.yul\":568:690   */\n      pop\n      jump\t// out\n        /* \"#utility.yul\":696:835   */\n    tag_75:\n        /* \"#utility.yul\":742:747   */\n      0x00\n        /* \"#utility.yul\":780:786   */\n      dup2\n        /* \"#utility.yul\":767:787   */\n      calldataload\n        /* \"#utility.yul\":758:787   */\n      swap1\n      pop\n        /* \"#utility.yul\":796:829   */\n      tag_98\n        /* \"#utility.yul\":823:828   */\n      dup2\n        /* \"#utility.yul\":796:829   */\n      tag_74\n      jump\t// in\n    tag_98:\n        /* \"#utility.yul\":696:835   */\n      swap3\n      swap2\n      pop\n      pop\n      jump\t// out\n        /* \"#utility.yul\":841:1170   */\n    tag_15:\n        /* \"#utility.yul\":900:906   */\n      0x00\n        /* \"#utility.yul\":949:951   */\n      0x20\n        /* \"#utility.yul\":937:946   */\n      dup3\n        /* \"#utility.yul\":928:935   */\n      dup5\n        /* \"#utility.yul\":924:947   */\n      sub\n        /* \"#utility.yul\":920:952   */\n      slt\n        /* \"#utility.yul\":917:1036   */\n      iszero\n      tag_100\n      jumpi\n        /* \"#utility.yul\":955:1034   */\n      tag_101\n      tag_70\n      jump\t// in\n    tag_101:\n        /* \"#utility.yul\":917:1036   */\n    tag_100:\n        /* \"#utility.yul\":1075:1076   */\n      0x00\n        /* \"#utility.yul\":1100:1153   */\n      tag_102\n        /* \"#utility.yul\":1145:1152   */\n      dup5\n        /* \"#utility.yul\":1136:1142   */\n      dup3\n        /* \"#utility.yul\":1125:1134   */\n      dup6\n        /* \"#utility.yul\":1121:1143   */\n      add\n        /* \"#utility.yul\":1100:1153   */\n      tag_75\n      jump\t// in\n    tag_102:\n        /* \"#utility.yul\":1090:1153   */\n      swap2\n      pop\n        /* \"#utility.yul\":1046:1163   */\n      pop\n        /* \"#utility.yul\":841:1170   */\n      swap3\n      swap2\n      pop\n      pop\n      jump\t// out\n        /* \"#utility.yul\":1176:1253   */\n    tag_76:\n        /* \"#utility.yul\":1213:1220   */\n      0x00\n        /* \"#utility.yul\":1242:1247   */\n      dup2\n        /* \"#utility.yul\":1231:1247   */\n      swap1\n      pop\n        /* \"#utility.yul\":1176:1253   */\n      swap2\n      swap1\n      pop\n      jump\t// out\n        /* \"#utility.yul\":1259:1377   */\n    tag_77:\n        /* \"#utility.yul\":1346:1370   */\n      tag_105\n        /* \"#utility.yul\":1364:1369   */\n      dup2\n        /* \"#utility.yul\":1346:1370   */\n      tag_76\n      jump\t// in\n    tag_105:\n        /* \"#utility.yul\":1341:1344   */\n      dup3\n        /* \"#utility.yul\":1334:1371   */\n      mstore\n        /* \"#utility.yul\":1259:1377   */\n      pop\n      pop\n      jump\t// out\n        /* \"#utility.yul\":1383:1605   */\n    tag_18:\n        /* \"#utility.yul\":1476:1480   */\n      0x00\n        /* \"#utility.yul\":1514:1516   */\n      0x20\n        /* \"#utility.yul\":1503:1512   */\n      dup3\n        /* \"#utility.yul\":1499:1517   */\n      add\n        /* \"#utility.yul\":1491:1517   */\n      swap1\n      pop\n        /* \"#utility.yul\":1527:1598   */\n      tag_107\n        /* \"#utility.yul\":1595:1596   */\n      0x00\n        /* \"#utility.yul\":1584:1593   */\n      dup4\n        /* \"#utility.yul\":1580:1597   */\n      add\n        /* \"#utility.yul\":1571:1577   */\n      dup5\n        /* \"#utility.yul\":1527:1598   */\n      tag_77\n      jump\t// in\n    tag_107:\n        /* \"#utility.yul\":1383:1605   */\n      swap3\n      swap2\n      pop\n      pop\n      jump\t// out\n        /* \"#utility.yul\":1611:1729   */\n    tag_78:\n        /* \"#utility.yul\":1698:1722   */\n      tag_109\n        /* \"#utility.yul\":1716:1721   */\n      dup2\n        /* \"#utility.yul\":1698:1722   */\n      tag_73\n      jump\t// in\n    tag_109:\n        /* \"#utility.yul\":1693:1696   */\n      dup3\n        /* \"#utility.yul\":1686:1723   */\n      mstore\n        /* \"#utility.yul\":1611:1729   */\n      pop\n      pop\n      jump\t// out\n        /* \"#utility.yul\":1735:1957   */\n    tag_27:\n        /* \"#utility.yul\":1828:1832   */\n      0x00\n        /* \"#utility.yul\":1866:1868   */\n      0x20\n        /* \"#utility.yul\":1855:1864   */\n      dup3\n        /* \"#utility.yul\":1851:1869   */\n      add\n        /* \"#utility.yul\":1843:1869   */\n      swap1\n      pop\n        /* \"#utility.yul\":1879:1950   */\n      tag_111\n        /* \"#utility.yul\":1947:1948   */\n      0x00\n        /* \"#utility.yul\":1936:1945   */\n      dup4\n        /* \"#utility.yul\":1932:1949   */\n      add\n        /* \"#utility.yul\":1923:1929   */\n      dup5\n        /* \"#utility.yul\":1879:1950   */\n      tag_78\n      jump\t// in\n    tag_111:\n        /* \"#utility.yul\":1735:1957   */\n      swap3\n      swap2\n      pop\n      pop\n      jump\t// out\n        /* \"#utility.yul\":1963:2085   */\n    tag_79:\n        /* \"#utility.yul\":2036:2060   */\n      tag_113\n        /* \"#utility.yul\":2054:2059   */\n      dup2\n        /* \"#utility.yul\":2036:2060   */\n      tag_76\n      jump\t// in\n    tag_113:\n        /* \"#utility.yul\":2029:2034   */\n      dup2\n        /* \"#utility.yul\":2026:2061   */\n      eq\n        /* \"#utility.yul\":2016:2079   */\n      tag_114\n      jumpi\n        /* \"#utility.yul\":2075:2076   */\n      0x00\n        /* \"#utility.yul\":2072:2073   */\n      dup1\n        /* \"#utility.yul\":2065:2077   */\n      revert\n        /* \"#utility.yul\":2016:2079   */\n    tag_114:\n        /* \"#utility.yul\":1963:2085   */\n      pop\n      jump\t// out\n        /* \"#utility.yul\":2091:2230   */\n    tag_80:\n        /* \"#utility.yul\":2137:2142   */\n      0x00\n        /* \"#utility.yul\":2175:2181   */\n      dup2\n        /* \"#utility.yul\":2162:2182   */\n      calldataload\n        /* \"#utility.yul\":2153:2182   */\n      swap1\n      pop\n        /* \"#utility.yul\":2191:2224   */\n      tag_116\n        /* \"#utility.yul\":2218:2223   */\n      dup2\n        /* \"#utility.yul\":2191:2224   */\n      tag_79\n      jump\t// in\n    tag_116:\n        /* \"#utility.yul\":2091:2230   */\n      swap3\n      swap2\n      pop\n      pop\n      jump\t// out\n        /* \"#utility.yul\":2236:2565   */\n    tag_31:\n        /* \"#utility.yul\":2295:2301   */\n      0x00\n        /* \"#utility.yul\":2344:2346   */\n      0x20\n        /* \"#utility.yul\":2332:2341   */\n      dup3\n        /* \"#utility.yul\":2323:2330   */\n      dup5\n        /* \"#utility.yul\":2319:2342   */\n      sub\n        /* \"#utility.yul\":2315:2347   */\n      slt\n        /* \"#utility.yul\":2312:2431   */\n      iszero\n      tag_118\n      jumpi\n        /* \"#utility.yul\":2350:2429   */\n      tag_119\n      tag_70\n      jump\t// in\n    tag_119:\n        /* \"#utility.yul\":2312:2431   */\n    tag_118:\n        /* \"#utility.yul\":2470:2471   */\n      0x00\n        /* \"#utility.yul\":2495:2548   */\n      tag_120\n        /* \"#utility.yul\":2540:2547   */\n      dup5\n        /* \"#utility.yul\":2531:2537   */\n      dup3\n        /* \"#utility.yul\":2520:2529   */\n      dup6\n        /* \"#utility.yul\":2516:2538   */\n      add\n        /* \"#utility.yul\":2495:2548   */\n      tag_80\n      jump\t// in\n    tag_120:\n        /* \"#utility.yul\":2485:2548   */\n      swap2\n      pop\n        /* \"#utility.yul\":2441:2558   */\n      pop\n        /* \"#utility.yul\":2236:2565   */\n      swap3\n      swap2\n      pop\n      pop\n      jump\t// out\n        /* \"#utility.yul\":2571:2661   */\n    tag_81:\n        /* \"#utility.yul\":2605:2612   */\n      0x00\n        /* \"#utility.yul\":2648:2653   */\n      dup2\n        /* \"#utility.yul\":2641:2654   */\n      iszero\n        /* \"#utility.yul\":2634:2655   */\n      iszero\n        /* \"#utility.yul\":2623:2655   */\n      swap1\n      pop\n        /* \"#utility.yul\":2571:2661   */\n      swap2\n      swap1\n      pop\n      jump\t// out\n        /* \"#utility.yul\":2667:2776   */\n    tag_82:\n        /* \"#utility.yul\":2748:2769   */\n      tag_123\n        /* \"#utility.yul\":2763:2768   */\n      dup2\n        /* \"#utility.yul\":2748:2769   */\n      tag_81\n      jump\t// in\n    tag_123:\n        /* \"#utility.yul\":2743:2746   */\n      dup3\n        /* \"#utility.yul\":2736:2770   */\n      mstore\n        /* \"#utility.yul\":2667:2776   */\n      pop\n      pop\n      jump\t// out\n        /* \"#utility.yul\":2782:2992   */\n    tag_38:\n        /* \"#utility.yul\":2869:2873   */\n      0x00\n        /* \"#utility.yul\":2907:2909   */\n      0x20\n        /* \"#utility.yul\":2896:2905   */\n      dup3\n        /* \"#utility.yul\":2892:2910   */\n      add\n        /* \"#utility.yul\":2884:2910   */\n      swap1\n      pop\n        /* \"#utility.yul\":2920:2985   */\n      tag_125\n        /* \"#utility.yul\":2982:2983   */\n      0x00\n        /* \"#utility.yul\":2971:2980   */\n      dup4\n        /* \"#utility.yul\":2967:2984   */\n      add\n        /* \"#utility.yul\":2958:2964   */\n      dup5\n        /* \"#utility.yul\":2920:2985   */\n      tag_82\n      jump\t// in\n    tag_125:\n        /* \"#utility.yul\":2782:2992   */\n      swap3\n      swap2\n      pop\n      pop\n      jump\t// out\n        /* \"#utility.yul\":2998:3167   */\n    tag_83:\n        /* \"#utility.yul\":3082:3093   */\n      0x00\n        /* \"#utility.yul\":3116:3122   */\n      dup3\n        /* \"#utility.yul\":3111:3114   */\n      dup3\n        /* \"#utility.yul\":3104:3123   */\n      mstore\n        /* \"#utility.yul\":3156:3160   */\n      0x20\n        /* \"#utility.yul\":3151:3154   */\n      dup3\n        /* \"#utility.yul\":3147:3161   */\n      add\n        /* \"#utility.yul\":3132:3161   */\n      swap1\n      pop\n        /* \"#utility.yul\":2998:3167   */\n      swap3\n      swap2\n      pop\n      pop\n      jump\t// out\n        /* \"#utility.yul\":3173:3351   */\n    tag_84:\n        /* \"#utility.yul\":3313:3343   */\n      0x43726f776466756e64696e6720686173206265656e20636c6f73656400000000\n        /* \"#utility.yul\":3309:3310   */\n      0x00\n        /* \"#utility.yul\":3301:3307   */\n      dup3\n        /* \"#utility.yul\":3297:3311   */\n      add\n        /* \"#utility.yul\":3290:3344   */\n      mstore\n        /* \"#utility.yul\":3173:3351   */\n      pop\n      jump\t// out\n        /* \"#utility.yul\":3357:3723   */\n    tag_85:\n        /* \"#utility.yul\":3499:3502   */\n      0x00\n        /* \"#utility.yul\":3520:3587   */\n      tag_129\n        /* \"#utility.yul\":3584:3586   */\n      0x1c\n        /* \"#utility.yul\":3579:3582   */\n      dup4\n        /* \"#utility.yul\":3520:3587   */\n      tag_83\n      jump\t// in\n    tag_129:\n        /* \"#utility.yul\":3513:3587   */\n      swap2\n      pop\n        /* \"#utility.yul\":3596:3689   */\n      tag_130\n        /* \"#utility.yul\":3685:3688   */\n      dup3\n        /* \"#utility.yul\":3596:3689   */\n      tag_84\n      jump\t// in\n    tag_130:\n        /* \"#utility.yul\":3714:3716   */\n      0x20\n        /* \"#utility.yul\":3709:3712   */\n      dup3\n        /* \"#utility.yul\":3705:3717   */\n      add\n        /* \"#utility.yul\":3698:3717   */\n      swap1\n      pop\n        /* \"#utility.yul\":3357:3723   */\n      swap2\n      swap1\n      pop\n      jump\t// out\n        /* \"#utility.yul\":3729:4148   */\n    tag_62:\n        /* \"#utility.yul\":3895:3899   */\n      0x00\n        /* \"#utility.yul\":3933:3935   */\n      0x20\n        /* \"#utility.yul\":3922:3931   */\n      dup3\n        /* \"#utility.yul\":3918:3936   */\n      add\n        /* \"#utility.yul\":3910:3936   */\n      swap1\n      pop\n        /* \"#utility.yul\":3982:3991   */\n      dup2\n        /* \"#utility.yul\":3976:3980   */\n      dup2\n        /* \"#utility.yul\":3972:3992   */\n      sub\n        /* \"#utility.yul\":3968:3969   */\n      0x00\n        /* \"#utility.yul\":3957:3966   */\n      dup4\n        /* \"#utility.yul\":3953:3970   */\n      add\n        /* \"#utility.yul\":3946:3993   */\n      mstore\n        /* \"#utility.yul\":4010:4141   */\n      tag_132\n        /* \"#utility.yul\":4136:4140   */\n      dup2\n        /* \"#utility.yul\":4010:4141   */\n      tag_85\n      jump\t// in\n    tag_132:\n        /* \"#utility.yul\":4002:4141   */\n      swap1\n      pop\n        /* \"#utility.yul\":3729:4148   */\n      swap2\n      swap1\n      pop\n      jump\t// out\n        /* \"#utility.yul\":4154:4334   */\n    tag_86:\n        /* \"#utility.yul\":4202:4279   */\n      0x4e487b7100000000000000000000000000000000000000000000000000000000\n        /* \"#utility.yul\":4199:4200   */\n      0x00\n        /* \"#utility.yul\":4192:4280   */\n      mstore\n        /* \"#utility.yul\":4299:4303   */\n      0x11\n        /* \"#utility.yul\":4296:4297   */\n      0x04\n        /* \"#utility.yul\":4289:4304   */\n      mstore\n        /* \"#utility.yul\":4323:4327   */\n      0x24\n        /* \"#utility.yul\":4320:4321   */\n      0x00\n        /* \"#utility.yul\":4313:4328   */\n      revert\n        /* \"#utility.yul\":4340:4531   */\n    tag_64:\n        /* \"#utility.yul\":4380:4383   */\n      0x00\n        /* \"#utility.yul\":4399:4419   */\n      tag_135\n        /* \"#utility.yul\":4417:4418   */\n      dup3\n        /* \"#utility.yul\":4399:4419   */\n      tag_76\n      jump\t// in\n    tag_135:\n        /* \"#utility.yul\":4394:4419   */\n      swap2\n      pop\n        /* \"#utility.yul\":4433:4453   */\n      tag_136\n        /* \"#utility.yul\":4451:4452   */\n      dup4\n        /* \"#utility.yul\":4433:4453   */\n      tag_76\n      jump\t// in\n    tag_136:\n        /* \"#utility.yul\":4428:4453   */\n      swap3\n      pop\n        /* \"#utility.yul\":4476:4477   */\n      dup3\n        /* \"#utility.yul\":4473:4474   */\n      dup3\n        /* \"#utility.yul\":4469:4478   */\n      add\n        /* \"#utility.yul\":4462:4478   */\n      swap1\n      pop\n        /* \"#utility.yul\":4497:4500   */\n      dup1\n        /* \"#utility.yul\":4494:4495   */\n      dup3\n        /* \"#utility.yul\":4491:4501   */\n      gt\n        /* \"#utility.yul\":4488:4524   */\n      iszero\n      tag_137\n      jumpi\n        /* \"#utility.yul\":4504:4522   */\n      tag_138\n      tag_86\n      jump\t// in\n    tag_138:\n        /* \"#utility.yul\":4488:4524   */\n    tag_137:\n        /* \"#utility.yul\":4340:4531   */\n      swap3\n      swap2\n      pop\n      pop\n      jump\t// out\n\n    auxdata: 0xa2646970667358221220d6c6f4c414cdf533ab5f6e6f719c252d412032e91e79fe72fa3de7a66cb22d2a64736f6c63430008180033\n}\n",
				"bytecode": {
					"linkReferences": {},
					"object": "60c0604052600160045f6101000a81548160ff021916908315150217905550348015610029575f80fd5b50604051610947380380610947833981810160405281019061004b919061011f565b8173ffffffffffffffffffffffffffffffffffffffff1660808173ffffffffffffffffffffffffffffffffffffffff16815250508060a08181525050505061015d565b5f80fd5b5f73ffffffffffffffffffffffffffffffffffffffff82169050919050565b5f6100bb82610092565b9050919050565b6100cb816100b1565b81146100d5575f80fd5b50565b5f815190506100e6816100c2565b92915050565b5f819050919050565b6100fe816100ec565b8114610108575f80fd5b50565b5f81519050610119816100f5565b92915050565b5f80604083850312156101355761013461008e565b5b5f610142858286016100d8565b92505060206101538582860161010b565b9150509250929050565b60805160a0516107bb61018c5f395f8181610283015261050301525f818161022301526102d801526107bb5ff3fe608060405260043610610085575f3560e01c806343d726d61161005857806343d726d61461015557806350520b1f1461017f5780637a3a0e841461018957806394de8484146101b3578063e3d94735146101dd57610085565b8063031b36771461008957806304a79c97146100c557806338af3eed146100ef57806339f8cd0414610119575b5f80fd5b348015610094575f80fd5b506100af60048036038101906100aa91906105a1565b610207565b6040516100bc91906105e4565b60405180910390f35b3480156100d0575f80fd5b506100d961021c565b6040516100e691906105e4565b60405180910390f35b3480156100fa575f80fd5b50610103610221565b604051610110919061060c565b60405180910390f35b348015610124575f80fd5b5061013f600480360381019061013a919061064f565b610245565b60405161014c919061060c565b60405180910390f35b348015610160575f80fd5b50610169610280565b6040516101769190610694565b60405180910390f35b610187610343565b005b348015610194575f80fd5b5061019d610501565b6040516101aa91906105e4565b60405180910390f35b3480156101be575f80fd5b506101c7610525565b6040516101d49190610694565b60405180910390f35b3480156101e8575f80fd5b506101f1610537565b6040516101fe91906105e4565b60405180910390f35b6001602052805f5260405f205f915090505481565b5f5481565b7f000000000000000000000000000000000000000000000000000000000000000081565b60038181548110610254575f80fd5b905f5260205f20015f915054906101000a900473ffffffffffffffffffffffffffffffffffffffff1681565b5f7f00000000000000000000000000000000000000000000000000000000000000005f5410156102b2575f9050610340565b5f805490505f60045f6101000a81548160ff0219169083151502179055505f80819055507f000000000000000000000000000000000000000000000000000000000000000073ffffffffffffffffffffffffffffffffffffffff166108fc8290811502906040515f60405180830381858888f19350505050158015610339573d5f803e3d5ffd5b5060019150505b90565b60045f9054906101000a900460ff16610391576040517f08c379a000000000000000000000000000000000000000000000000000000000815260040161038890610707565b60405180910390fd5b345f808282546103a19190610752565b925050819055503460015f3373ffffffffffffffffffffffffffffffffffffffff1673ffffffffffffffffffffffffffffffffffffffff1681526020019081526020015f205f8282546103f49190610752565b9250508190555060025f3373ffffffffffffffffffffffffffffffffffffffff1673ffffffffffffffffffffffffffffffffffffffff1681526020019081526020015f205f9054906101000a900460ff166104ff57600160025f3373ffffffffffffffffffffffffffffffffffffffff1673ffffffffffffffffffffffffffffffffffffffff1681526020019081526020015f205f6101000a81548160ff021916908315150217905550600333908060018154018082558091505060019003905f5260205f20015f9091909190916101000a81548173ffffffffffffffffffffffffffffffffffffffff021916908373ffffffffffffffffffffffffffffffffffffffff1602179055505b565b7f000000000000000000000000000000000000000000000000000000000000000081565b60045f9054906101000a900460ff1681565b5f600380549050905090565b5f80fd5b5f73ffffffffffffffffffffffffffffffffffffffff82169050919050565b5f61057082610547565b9050919050565b61058081610566565b811461058a575f80fd5b50565b5f8135905061059b81610577565b92915050565b5f602082840312156105b6576105b5610543565b5b5f6105c38482850161058d565b91505092915050565b5f819050919050565b6105de816105cc565b82525050565b5f6020820190506105f75f8301846105d5565b92915050565b61060681610566565b82525050565b5f60208201905061061f5f8301846105fd565b92915050565b61062e816105cc565b8114610638575f80fd5b50565b5f8135905061064981610625565b92915050565b5f6020828403121561066457610663610543565b5b5f6106718482850161063b565b91505092915050565b5f8115159050919050565b61068e8161067a565b82525050565b5f6020820190506106a75f830184610685565b92915050565b5f82825260208201905092915050565b7f43726f776466756e64696e6720686173206265656e20636c6f736564000000005f82015250565b5f6106f1601c836106ad565b91506106fc826106bd565b602082019050919050565b5f6020820190508181035f83015261071e816106e5565b9050919050565b7f4e487b71000000000000000000000000000000000000000000000000000000005f52601160045260245ffd5b5f61075c826105cc565b9150610767836105cc565b925082820190508082111561077f5761077e610725565b5b9291505056fea2646970667358221220d6c6f4c414cdf533ab5f6e6f719c252d412032e91e79fe72fa3de7a66cb22d2a64736f6c63430008180033",
					"opcodes": "PUSH1 0xC0 PUSH1 0x40 MSTORE PUSH1 0x1 PUSH1 0x4 PUSH0 PUSH2 0x100 EXP DUP2 SLOAD DUP2 PUSH1 0xFF MUL NOT AND SWAP1 DUP4 ISZERO ISZERO MUL OR SWAP1 SSTORE POP CALLVALUE DUP1 ISZERO PUSH2 0x29 JUMPI PUSH0 DUP1 REVERT JUMPDEST POP PUSH1 0x40 MLOAD PUSH2 0x947 CODESIZE SUB DUP1 PUSH2 0x947 DUP4 CODECOPY DUP2 DUP2 ADD PUSH1 0x40 MSTORE DUP2 ADD SWAP1 PUSH2 0x4B SWAP2 SWAP1 PUSH2 0x11F JUMP JUMPDEST DUP2 PUSH20 0xFFFFFFFFFFFFFFFFFFFFFFFFFFFFFFFFFFFFFFFF AND PUSH1 0x80 DUP2 PUSH20 0xFFFFFFFFFFFFFFFFFFFFFFFFFFFFFFFFFFFFFFFF AND DUP2 MSTORE POP POP DUP1 PUSH1 0xA0 DUP2 DUP2 MSTORE POP POP POP POP PUSH2 0x15D JUMP JUMPDEST PUSH0 DUP1 REVERT JUMPDEST PUSH0 PUSH20 0xFFFFFFFFFFFFFFFFFFFFFFFFFFFFFFFFFFFFFFFF DUP3 AND SWAP1 POP SWAP2 SWAP1 POP JUMP JUMPDEST PUSH0 PUSH2 0xBB DUP3 PUSH2 0x92 JUMP JUMPDEST SWAP1 POP SWAP2 SWAP1 POP JUMP JUMPDEST PUSH2 0xCB DUP2 PUSH2 0xB1 JUMP JUMPDEST DUP2 EQ PUSH2 0xD5 JUMPI PUSH0 DUP1 REVERT JUMPDEST POP JUMP JUMPDEST PUSH0 DUP2 MLOAD SWAP1 POP PUSH2 0xE6 DUP2 PUSH2 0xC2 JUMP JUMPDEST SWAP3 SWAP2 POP POP JUMP JUMPDEST PUSH0 DUP2 SWAP1 POP SWAP2 SWAP1 POP JUMP JUMPDEST PUSH2 0xFE DUP2 PUSH2 0xEC JUMP JUMPDEST DUP2 EQ PUSH2 0x108 JUMPI PUSH0 DUP1 REVERT JUMPDEST POP JUMP JUMPDEST PUSH0 DUP2 MLOAD SWAP1 POP PUSH2 0x119 DUP2 PUSH2 0xF5 JUMP JUMPDEST SWAP3 SWAP2 POP POP JUMP JUMPDEST PUSH0 DUP1 PUSH1 0x40 DUP4 DUP6 SUB SLT ISZERO PUSH2 0x135 JUMPI PUSH2 0x134 PUSH2 0x8E JUMP JUMPDEST JUMPDEST PUSH0 PUSH2 0x142 DUP6 DUP3 DUP7 ADD PUSH2 0xD8 JUMP JUMPDEST SWAP3 POP POP PUSH1 0x20 PUSH2 0x153 DUP6 DUP3 DUP7 ADD PUSH2 0x10B JUMP JUMPDEST SWAP2 POP POP SWAP3 POP SWAP3 SWAP1 POP JUMP JUMPDEST PUSH1 0x80 MLOAD PUSH1 0xA0 MLOAD PUSH2 0x7BB PUSH2 0x18C PUSH0 CODECOPY PUSH0 DUP2 DUP2 PUSH2 0x283 ADD MSTORE PUSH2 0x503 ADD MSTORE PUSH0 DUP2 DUP2 PUSH2 0x223 ADD MSTORE PUSH2 0x2D8 ADD MSTORE PUSH2 0x7BB PUSH0 RETURN INVALID PUSH1 0x80 PUSH1 0x40 MSTORE PUSH1 0x4 CALLDATASIZE LT PUSH2 0x85 JUMPI PUSH0 CALLDATALOAD PUSH1 0xE0 SHR DUP1 PUSH4 0x43D726D6 GT PUSH2 0x58 JUMPI DUP1 PUSH4 0x43D726D6 EQ PUSH2 0x155 JUMPI DUP1 PUSH4 0x50520B1F EQ PUSH2 0x17F JUMPI DUP1 PUSH4 0x7A3A0E84 EQ PUSH2 0x189 JUMPI DUP1 PUSH4 0x94DE8484 EQ PUSH2 0x1B3 JUMPI DUP1 PUSH4 0xE3D94735 EQ PUSH2 0x1DD JUMPI PUSH2 0x85 JUMP JUMPDEST DUP1 PUSH4 0x31B3677 EQ PUSH2 0x89 JUMPI DUP1 PUSH4 0x4A79C97 EQ PUSH2 0xC5 JUMPI DUP1 PUSH4 0x38AF3EED EQ PUSH2 0xEF JUMPI DUP1 PUSH4 0x39F8CD04 EQ PUSH2 0x119 JUMPI JUMPDEST PUSH0 DUP1 REVERT JUMPDEST CALLVALUE DUP1 ISZERO PUSH2 0x94 JUMPI PUSH0 DUP1 REVERT JUMPDEST POP PUSH2 0xAF PUSH1 0x4 DUP1 CALLDATASIZE SUB DUP2 ADD SWAP1 PUSH2 0xAA SWAP2 SWAP1 PUSH2 0x5A1 JUMP JUMPDEST PUSH2 0x207 JUMP JUMPDEST PUSH1 0x40 MLOAD PUSH2 0xBC SWAP2 SWAP1 PUSH2 0x5E4 JUMP JUMPDEST PUSH1 0x40 MLOAD DUP1 SWAP2 SUB SWAP1 RETURN JUMPDEST CALLVALUE DUP1 ISZERO PUSH2 0xD0 JUMPI PUSH0 DUP1 REVERT JUMPDEST POP PUSH2 0xD9 PUSH2 0x21C JUMP JUMPDEST PUSH1 0x40 MLOAD PUSH2 0xE6 SWAP2 SWAP1 PUSH2 0x5E4 JUMP JUMPDEST PUSH1 0x40 MLOAD DUP1 SWAP2 SUB SWAP1 RETURN JUMPDEST CALLVALUE DUP1 ISZERO PUSH2 0xFA JUMPI PUSH0 DUP1 REVERT JUMPDEST POP PUSH2 0x103 PUSH2 0x221 JUMP JUMPDEST PUSH1 0x40 MLOAD PUSH2 0x110 SWAP2 SWAP1 PUSH2 0x60C JUMP JUMPDEST PUSH1 0x40 MLOAD DUP1 SWAP2 SUB SWAP1 RETURN JUMPDEST CALLVALUE DUP1 ISZERO PUSH2 0x124 JUMPI PUSH0 DUP1 REVERT JUMPDEST POP PUSH2 0x13F PUSH1 0x4 DUP1 CALLDATASIZE SUB DUP2 ADD SWAP1 PUSH2 0x13A SWAP2 SWAP1 PUSH2 0x64F JUMP JUMPDEST PUSH2 0x245 JUMP JUMPDEST PUSH1 0x40 MLOAD PUSH2 0x14C SWAP2 SWAP1 PUSH2 0x60C JUMP JUMPDEST PUSH1 0x40 MLOAD DUP1 SWAP2 SUB SWAP1 RETURN JUMPDEST CALLVALUE DUP1 ISZERO PUSH2 0x160 JUMPI PUSH0 DUP1 REVERT JUMPDEST POP PUSH2 0x169 PUSH2 0x280 JUMP JUMPDEST PUSH1 0x40 MLOAD PUSH2 0x176 SWAP2 SWAP1 PUSH2 0x694 JUMP JUMPDEST PUSH1 0x40 MLOAD DUP1 SWAP2 SUB SWAP1 RETURN JUMPDEST PUSH2 0x187 PUSH2 0x343 JUMP JUMPDEST STOP JUMPDEST CALLVALUE DUP1 ISZERO PUSH2 0x194 JUMPI PUSH0 DUP1 REVERT JUMPDEST POP PUSH2 0x19D PUSH2 0x501 JUMP JUMPDEST PUSH1 0x40 MLOAD PUSH2 0x1AA SWAP2 SWAP1 PUSH2 0x5E4 JUMP JUMPDEST PUSH1 0x40 MLOAD DUP1 SWAP2 SUB SWAP1 RETURN JUMPDEST CALLVALUE DUP1 ISZERO PUSH2 0x1BE JUMPI PUSH0 DUP1 REVERT JUMPDEST POP PUSH2 0x1C7 PUSH2 0x525 JUMP JUMPDEST PUSH1 0x40 MLOAD PUSH2 0x1D4 SWAP2 SWAP1 PUSH2 0x694 JUMP JUMPDEST PUSH1 0x40 MLOAD DUP1 SWAP2 SUB SWAP1 RETURN JUMPDEST CALLVALUE DUP1 ISZERO PUSH2 0x1E8 JUMPI PUSH0 DUP1 REVERT JUMPDEST POP PUSH2 0x1F1 PUSH2 0x537 JUMP JUMPDEST PUSH1 0x40 MLOAD PUSH2 0x1FE SWAP2 SWAP1 PUSH2 0x5E4 JUMP JUMPDEST PUSH1 0x40 MLOAD DUP1 SWAP2 SUB SWAP1 RETURN JUMPDEST PUSH1 0x1 PUSH1 0x20 MSTORE DUP1 PUSH0 MSTORE PUSH1 0x40 PUSH0 KECCAK256 PUSH0 SWAP2 POP SWAP1 POP SLOAD DUP2 JUMP JUMPDEST PUSH0 SLOAD DUP2 JUMP JUMPDEST PUSH32 0x0 DUP2 JUMP JUMPDEST PUSH1 0x3 DUP2 DUP2 SLOAD DUP2 LT PUSH2 0x254 JUMPI PUSH0 DUP1 REVERT JUMPDEST SWAP1 PUSH0 MSTORE PUSH1 0x20 PUSH0 KECCAK256 ADD PUSH0 SWAP2 POP SLOAD SWAP1 PUSH2 0x100 EXP SWAP1 DIV PUSH20 0xFFFFFFFFFFFFFFFFFFFFFFFFFFFFFFFFFFFFFFFF AND DUP2 JUMP JUMPDEST PUSH0 PUSH32 0x0 PUSH0 SLOAD LT ISZERO PUSH2 0x2B2 JUMPI PUSH0 SWAP1 POP PUSH2 0x340 JUMP JUMPDEST PUSH0 DUP1 SLOAD SWAP1 POP PUSH0 PUSH1 0x4 PUSH0 PUSH2 0x100 EXP DUP2 SLOAD DUP2 PUSH1 0xFF MUL NOT AND SWAP1 DUP4 ISZERO ISZERO MUL OR SWAP1 SSTORE POP PUSH0 DUP1 DUP2 SWAP1 SSTORE POP PUSH32 0x0 PUSH20 0xFFFFFFFFFFFFFFFFFFFFFFFFFFFFFFFFFFFFFFFF AND PUSH2 0x8FC DUP3 SWAP1 DUP2 ISZERO MUL SWAP1 PUSH1 0x40 MLOAD PUSH0 PUSH1 0x40 MLOAD DUP1 DUP4 SUB DUP2 DUP6 DUP9 DUP9 CALL SWAP4 POP POP POP POP ISZERO DUP1 ISZERO PUSH2 0x339 JUMPI RETURNDATASIZE PUSH0 DUP1 RETURNDATACOPY RETURNDATASIZE PUSH0 REVERT JUMPDEST POP PUSH1 0x1 SWAP2 POP POP JUMPDEST SWAP1 JUMP JUMPDEST PUSH1 0x4 PUSH0 SWAP1 SLOAD SWAP1 PUSH2 0x100 EXP SWAP1 DIV PUSH1 0xFF AND PUSH2 0x391 JUMPI PUSH1 0x40 MLOAD PUSH32 0x8C379A000000000000000000000000000000000000000000000000000000000 DUP2 MSTORE PUSH1 0x4 ADD PUSH2 0x388 SWAP1 PUSH2 0x707 JUMP JUMPDEST PUSH1 0x40 MLOAD DUP1 SWAP2 SUB SWAP1 REVERT JUMPDEST CALLVALUE PUSH0 DUP1 DUP3 DUP3 SLOAD PUSH2 0x3A1 SWAP2 SWAP1 PUSH2 0x752 JUMP JUMPDEST SWAP3 POP POP DUP2 SWAP1 SSTORE POP CALLVALUE PUSH1 0x1 PUSH0 CALLER PUSH20 0xFFFFFFFFFFFFFFFFFFFFFFFFFFFFFFFFFFFFFFFF AND PUSH20 0xFFFFFFFFFFFFFFFFFFFFFFFFFFFFFFFFFFFFFFFF AND DUP2 MSTORE PUSH1 0x20 ADD SWAP1 DUP2 MSTORE PUSH1 0x20 ADD PUSH0 KECCAK256 PUSH0 DUP3 DUP3 SLOAD PUSH2 0x3F4 SWAP2 SWAP1 PUSH2 0x752 JUMP JUMPDEST SWAP3 POP POP DUP2 SWAP1 SSTORE POP PUSH1 0x2 PUSH0 CALLER PUSH20 0xFFFFFFFFFFFFFFFFFFFFFFFFFFFFFFFFFFFFFFFF AND PUSH20 0xFFFFFFFFFFFFFFFFFFFFFFFFFFFFFFFFFFFFFFFF AND DUP2 MSTORE PUSH1 0x20 ADD SWAP1 DUP2 MSTORE PUSH1 0x20 ADD PUSH0 KECCAK256 PUSH0 SWAP1 SLOAD SWAP1 PUSH2 0x100 EXP SWAP1 DIV PUSH1 0xFF AND PUSH2 0x4FF JUMPI PUSH1 0x1 PUSH1 0x2 PUSH0 CALLER PUSH20 0xFFFFFFFFFFFFFFFFFFFFFFFFFFFFFFFFFFFFFFFF AND PUSH20 0xFFFFFFFFFFFFFFFFFFFFFFFFFFFFFFFFFFFFFFFF AND DUP2 MSTORE PUSH1 0x20 ADD SWAP1 DUP2 MSTORE PUSH1 0x20 ADD PUSH0 KECCAK256 PUSH0 PUSH2 0x100 EXP DUP2 SLOAD DUP2 PUSH1 0xFF MUL NOT AND SWAP1 DUP4 ISZERO ISZERO MUL OR SWAP1 SSTORE POP PUSH1 0x3 CALLER SWAP1 DUP1 PUSH1 0x1 DUP2 SLOAD ADD DUP1 DUP3 SSTORE DUP1 SWAP2 POP POP PUSH1 0x1 SWAP1 SUB SWAP1 PUSH0 MSTORE PUSH1 0x20 PUSH0 KECCAK256 ADD PUSH0 SWAP1 SWAP2 SWAP1 SWAP2 SWAP1 SWAP2 PUSH2 0x100 EXP DUP2 SLOAD DUP2 PUSH20 0xFFFFFFFFFFFFFFFFFFFFFFFFFFFFFFFFFFFFFFFF MUL NOT AND SWAP1 DUP4 PUSH20 0xFFFFFFFFFFFFFFFFFFFFFFFFFFFFFFFFFFFFFFFF AND MUL OR SWAP1 SSTORE POP JUMPDEST JUMP JUMPDEST PUSH32 0x0 DUP2 JUMP JUMPDEST PUSH1 0x4 PUSH0 SWAP1 SLOAD SWAP1 PUSH2 0x100 EXP SWAP1 DIV PUSH1 0xFF AND DUP2 JUMP JUMPDEST PUSH0 PUSH1 0x3 DUP1 SLOAD SWAP1 POP SWAP1 POP SWAP1 JUMP JUMPDEST PUSH0 DUP1 REVERT JUMPDEST PUSH0 PUSH20 0xFFFFFFFFFFFFFFFFFFFFFFFFFFFFFFFFFFFFFFFF DUP3 AND SWAP1 POP SWAP2 SWAP1 POP JUMP JUMPDEST PUSH0 PUSH2 0x570 DUP3 PUSH2 0x547 JUMP JUMPDEST SWAP1 POP SWAP2 SWAP1 POP JUMP JUMPDEST PUSH2 0x580 DUP2 PUSH2 0x566 JUMP JUMPDEST DUP2 EQ PUSH2 0x58A JUMPI PUSH0 DUP1 REVERT JUMPDEST POP JUMP JUMPDEST PUSH0 DUP2 CALLDATALOAD SWAP1 POP PUSH2 0x59B DUP2 PUSH2 0x577 JUMP JUMPDEST SWAP3 SWAP2 POP POP JUMP JUMPDEST PUSH0 PUSH1 0x20 DUP3 DUP5 SUB SLT ISZERO PUSH2 0x5B6 JUMPI PUSH2 0x5B5 PUSH2 0x543 JUMP JUMPDEST JUMPDEST PUSH0 PUSH2 0x5C3 DUP5 DUP3 DUP6 ADD PUSH2 0x58D JUMP JUMPDEST SWAP2 POP POP SWAP3 SWAP2 POP POP JUMP JUMPDEST PUSH0 DUP2 SWAP1 POP SWAP2 SWAP1 POP JUMP JUMPDEST PUSH2 0x5DE DUP2 PUSH2 0x5CC JUMP JUMPDEST DUP3 MSTORE POP POP JUMP JUMPDEST PUSH0 PUSH1 0x20 DUP3 ADD SWAP1 POP PUSH2 0x5F7 PUSH0 DUP4 ADD DUP5 PUSH2 0x5D5 JUMP JUMPDEST SWAP3 SWAP2 POP POP JUMP JUMPDEST PUSH2 0x606 DUP2 PUSH2 0x566 JUMP JUMPDEST DUP3 MSTORE POP POP JUMP JUMPDEST PUSH0 PUSH1 0x20 DUP3 ADD SWAP1 POP PUSH2 0x61F PUSH0 DUP4 ADD DUP5 PUSH2 0x5FD JUMP JUMPDEST SWAP3 SWAP2 POP POP JUMP JUMPDEST PUSH2 0x62E DUP2 PUSH2 0x5CC JUMP JUMPDEST DUP2 EQ PUSH2 0x638 JUMPI PUSH0 DUP1 REVERT JUMPDEST POP JUMP JUMPDEST PUSH0 DUP2 CALLDATALOAD SWAP1 POP PUSH2 0x649 DUP2 PUSH2 0x625 JUMP JUMPDEST SWAP3 SWAP2 POP POP JUMP JUMPDEST PUSH0 PUSH1 0x20 DUP3 DUP5 SUB SLT ISZERO PUSH2 0x664 JUMPI PUSH2 0x663 PUSH2 0x543 JUMP JUMPDEST JUMPDEST PUSH0 PUSH2 0x671 DUP5 DUP3 DUP6 ADD PUSH2 0x63B JUMP JUMPDEST SWAP2 POP POP SWAP3 SWAP2 POP POP JUMP JUMPDEST PUSH0 DUP2 ISZERO ISZERO SWAP1 POP SWAP2 SWAP1 POP JUMP JUMPDEST PUSH2 0x68E DUP2 PUSH2 0x67A JUMP JUMPDEST DUP3 MSTORE POP POP JUMP JUMPDEST PUSH0 PUSH1 0x20 DUP3 ADD SWAP1 POP PUSH2 0x6A7 PUSH0 DUP4 ADD DUP5 PUSH2 0x685 JUMP JUMPDEST SWAP3 SWAP2 POP POP JUMP JUMPDEST PUSH0 DUP3 DUP3 MSTORE PUSH1 0x20 DUP3 ADD SWAP1 POP SWAP3 SWAP2 POP POP JUMP JUMPDEST PUSH32 0x43726F776466756E64696E6720686173206265656E20636C6F73656400000000 PUSH0 DUP3 ADD MSTORE POP JUMP JUMPDEST PUSH0 PUSH2 0x6F1 PUSH1 0x1C DUP4 PUSH2 0x6AD JUMP JUMPDEST SWAP2 POP PUSH2 0x6FC DUP3 PUSH2 0x6BD JUMP JUMPDEST PUSH1 0x20 DUP3 ADD SWAP1 POP SWAP2 SWAP1 POP JUMP JUMPDEST PUSH0 PUSH1 0x20 DUP3 ADD SWAP1 POP DUP2 DUP2 SUB PUSH0 DUP4 ADD MSTORE PUSH2 0x71E DUP2 PUSH2 0x6E5 JUMP JUMPDEST SWAP1 POP SWAP2 SWAP1 POP JUMP JUMPDEST PUSH32 0x4E487B7100000000000000000000000000000000000000000000000000000000 PUSH0 MSTORE PUSH1 0x11 PUSH1 0x4 MSTORE PUSH1 0x24 PUSH0 REVERT JUMPDEST PUSH0 PUSH2 0x75C DUP3 PUSH2 0x5CC JUMP JUMPDEST SWAP2 POP PUSH2 0x767 DUP4 PUSH2 0x5CC JUMP JUMPDEST SWAP3 POP DUP3 DUP3 ADD SWAP1 POP DUP1 DUP3 GT ISZERO PUSH2 0x77F JUMPI PUSH2 0x77E PUSH2 0x725 JUMP JUMPDEST JUMPDEST SWAP3 SWAP2 POP POP JUMP INVALID LOG2 PUSH5 0x6970667358 0x22 SLT KECCAK256 0xD6 0xC6 DELEGATECALL 0xC4 EQ 0xCD CREATE2 CALLER 0xAB PUSH0 PUSH15 0x6F719C252D412032E91E79FE72FA3D 0xE7 0xA6 PUSH13 0xB22D2A64736F6C634300081800 CALLER "
				},
				"gasEstimates": {
					"creation": {
						"codeDepositCost": "395800",
						"executionCost": "infinite",
						"totalCost": "infinite"
					},
					"external": {
						"beneficiary()": "infinite",
						"close()": "infinite",
						"contribution()": "infinite",
						"funderKeys(uint256)": "5011",
						"funders(address)": "2803",
						"fundersLength()": "2528",
						"fundingAmount()": "2447",
						"fundingGoal()": "infinite",
						"validable()": "2532"
					}
				},
				"methodIdentifiers": {
					"beneficiary()": "38af3eed",
					"close()": "43d726d6",
					"contribution()": "50520b1f",
					"funderKeys(uint256)": "39f8cd04",
					"funders(address)": "031b3677",
					"fundersLength()": "e3d94735",
					"fundingAmount()": "04a79c97",
					"fundingGoal()": "7a3a0e84",
					"validable()": "94de8484"
				}
			},
			"storageLayout": {
				"storage": [
					{
						"astId": 7,
						"contract": "contracts/Demo13.sol:Crowdfunding",
						"label": "fundingAmount",
						"offset": 0,
						"slot": "0",
						"type": "t_uint256"
					},
					{
						"astId": 11,
						"contract": "contracts/Demo13.sol:Crowdfunding",
						"label": "funders",
						"offset": 0,
						"slot": "1",
						"type": "t_mapping(t_address,t_uint256)"
					},
					{
						"astId": 15,
						"contract": "contracts/Demo13.sol:Crowdfunding",
						"label": "funderInserted",
						"offset": 0,
						"slot": "2",
						"type": "t_mapping(t_address,t_bool)"
					},
					{
						"astId": 18,
						"contract": "contracts/Demo13.sol:Crowdfunding",
						"label": "funderKeys",
						"offset": 0,
						"slot": "3",
						"type": "t_array(t_address)dyn_storage"
					},
					{
						"astId": 21,
						"contract": "contracts/Demo13.sol:Crowdfunding",
						"label": "validable",
						"offset": 0,
						"slot": "4",
						"type": "t_bool"
					}
				],
				"types": {
					"t_address": {
						"encoding": "inplace",
						"label": "address",
						"numberOfBytes": "20"
					},
					"t_array(t_address)dyn_storage": {
						"base": "t_address",
						"encoding": "dynamic_array",
						"label": "address[]",
						"numberOfBytes": "32"
					},
					"t_bool": {
						"encoding": "inplace",
						"label": "bool",
						"numberOfBytes": "1"
					},
					"t_mapping(t_address,t_bool)": {
						"encoding": "mapping",
						"key": "t_address",
						"label": "mapping(address => bool)",
						"numberOfBytes": "32",
						"value": "t_bool"
					},
					"t_mapping(t_address,t_uint256)": {
						"encoding": "mapping",
						"key": "t_address",
						"label": "mapping(address => uint256)",
						"numberOfBytes": "32",
						"value": "t_uint256"
					},
					"t_uint256": {
						"encoding": "inplace",
						"label": "uint256",
						"numberOfBytes": "32"
					}
				}
			},
			"userdoc": {
				"kind": "user",
				"methods": {},
				"version": 1
			}
		}
	}
}