{
	"contracts/Test.sol": {
		"Demo": {
			"abi": [
				{
					"inputs": [
						{
							"internalType": "bytes32",
							"name": "bts",
							"type": "bytes32"
						}
					],
					"name": "add",
					"outputs": [
						{
							"internalType": "bytes32",
							"name": "",
							"type": "bytes32"
						}
					],
					"stateMutability": "pure",
					"type": "function"
				},
				{
					"inputs": [],
					"name": "countLocal",
					"outputs": [
						{
							"internalType": "bytes32",
							"name": "",
							"type": "bytes32"
						}
					],
					"stateMutability": "nonpayable",
					"type": "function"
				},
				{
					"inputs": [
						{
							"internalType": "bytes32",
							"name": "_bts",
							"type": "bytes32"
						}
					],
					"name": "countLocal1",
					"outputs": [
						{
							"internalType": "bytes32",
							"name": "",
							"type": "bytes32"
						}
					],
					"stateMutability": "pure",
					"type": "function"
				},
				{
					"inputs": [
						{
							"internalType": "bytes32",
							"name": "data",
							"type": "bytes32"
						}
					],
					"name": "getDateFromLocal",
					"outputs": [
						{
							"internalType": "uint256",
							"name": "b",
							"type": "uint256"
						}
					],
					"stateMutability": "view",
					"type": "function"
				},
				{
					"inputs": [
						{
							"internalType": "uint256",
							"name": "i",
							"type": "uint256"
						},
						{
							"internalType": "uint256",
							"name": "j",
							"type": "uint256"
						}
					],
					"name": "getLocal",
					"outputs": [
						{
							"internalType": "bytes32",
							"name": "",
							"type": "bytes32"
						}
					],
					"stateMutability": "pure",
					"type": "function"
				},
				{
					"inputs": [
						{
							"internalType": "uint256",
							"name": "index",
							"type": "uint256"
						}
					],
					"name": "getSecArr",
					"outputs": [
						{
							"internalType": "uint256[]",
							"name": "",
							"type": "uint256[]"
						}
					],
					"stateMutability": "view",
					"type": "function"
				},
				{
					"inputs": [
						{
							"internalType": "uint256",
							"name": "",
							"type": "uint256"
						},
						{
							"internalType": "uint256",
							"name": "",
							"type": "uint256"
						}
					],
					"name": "secArr",
					"outputs": [
						{
							"internalType": "uint256",
							"name": "",
							"type": "uint256"
						}
					],
					"stateMutability": "view",
					"type": "function"
				}
			],
			"devdoc": {
				"kind": "dev",
				"methods": {},
				"version": 1
			},
			"evm": {
				"assembly": "    /* \"contracts/Test.sol\":61:2669  contract Demo{... */\n  mstore(0x40, 0x80)\n  callvalue\n  dup1\n  iszero\n  tag_1\n  jumpi\n  0x00\n  dup1\n  revert\ntag_1:\n  pop\n  dataSize(sub_0)\n  dup1\n  dataOffset(sub_0)\n  0x00\n  codecopy\n  0x00\n  return\nstop\n\nsub_0: assembly {\n        /* \"contracts/Test.sol\":61:2669  contract Demo{... */\n      mstore(0x40, 0x80)\n      callvalue\n      dup1\n      iszero\n      tag_1\n      jumpi\n      0x00\n      dup1\n      revert\n    tag_1:\n      pop\n      jumpi(tag_2, lt(calldatasize, 0x04))\n      shr(0xe0, calldataload(0x00))\n      dup1\n      0x69237b87\n      gt\n      tag_10\n      jumpi\n      dup1\n      0x69237b87\n      eq\n      tag_6\n      jumpi\n      dup1\n      0x86fa04c9\n      eq\n      tag_7\n      jumpi\n      dup1\n      0xa8ff75ad\n      eq\n      tag_8\n      jumpi\n      dup1\n      0xec16537b\n      eq\n      tag_9\n      jumpi\n      jump(tag_2)\n    tag_10:\n      dup1\n      0x0c5a8a4d\n      eq\n      tag_3\n      jumpi\n      dup1\n      0x23106c65\n      eq\n      tag_4\n      jumpi\n      dup1\n      0x446bffba\n      eq\n      tag_5\n      jumpi\n    tag_2:\n      0x00\n      dup1\n      revert\n        /* \"contracts/Test.sol\":265:518  function countLocal1(bytes32 _bts) public pure returns(bytes32 ){... */\n    tag_3:\n      tag_11\n      0x04\n      dup1\n      calldatasize\n      sub\n      dup2\n      add\n      swap1\n      tag_12\n      swap2\n      swap1\n      tag_13\n      jump\t// in\n    tag_12:\n      tag_14\n      jump\t// in\n    tag_11:\n      mload(0x40)\n      tag_15\n      swap2\n      swap1\n      tag_16\n      jump\t// in\n    tag_15:\n      mload(0x40)\n      dup1\n      swap2\n      sub\n      swap1\n      return\n        /* \"contracts/Test.sol\":601:1248  function countLocal() public returns (bytes32){... */\n    tag_4:\n      tag_17\n      tag_18\n      jump\t// in\n    tag_17:\n      mload(0x40)\n      tag_19\n      swap2\n      swap1\n      tag_16\n      jump\t// in\n    tag_19:\n      mload(0x40)\n      dup1\n      swap2\n      sub\n      swap1\n      return\n        /* \"contracts/Test.sol\":1519:1654  function add(bytes32 bts) public pure returns(bytes32){... */\n    tag_5:\n      tag_20\n      0x04\n      dup1\n      calldatasize\n      sub\n      dup2\n      add\n      swap1\n      tag_21\n      swap2\n      swap1\n      tag_13\n      jump\t// in\n    tag_21:\n      tag_22\n      jump\t// in\n    tag_20:\n      mload(0x40)\n      tag_23\n      swap2\n      swap1\n      tag_16\n      jump\t// in\n    tag_23:\n      mload(0x40)\n      dup1\n      swap2\n      sub\n      swap1\n      return\n        /* \"contracts/Test.sol\":146:256  function getSecArr(uint256 index) public view returns(uint256[] memory){... */\n    tag_6:\n      tag_24\n      0x04\n      dup1\n      calldatasize\n      sub\n      dup2\n      add\n      swap1\n      tag_25\n      swap2\n      swap1\n      tag_26\n      jump\t// in\n    tag_25:\n      tag_27\n      jump\t// in\n    tag_24:\n      mload(0x40)\n      tag_28\n      swap2\n      swap1\n      tag_29\n      jump\t// in\n    tag_28:\n      mload(0x40)\n      dup1\n      swap2\n      sub\n      swap1\n      return\n        /* \"contracts/Test.sol\":1256:1435  function getDateFromLocal(bytes32 data) public view returns(uint256 b){... */\n    tag_7:\n      tag_30\n      0x04\n      dup1\n      calldatasize\n      sub\n      dup2\n      add\n      swap1\n      tag_31\n      swap2\n      swap1\n      tag_13\n      jump\t// in\n    tag_31:\n      tag_32\n      jump\t// in\n    tag_30:\n      mload(0x40)\n      tag_33\n      swap2\n      swap1\n      tag_34\n      jump\t// in\n    tag_33:\n      mload(0x40)\n      dup1\n      swap2\n      sub\n      swap1\n      return\n        /* \"contracts/Test.sol\":2052:2658  function getLocal(uint256 i,uint256 j) public pure returns(bytes32){... */\n    tag_8:\n      tag_35\n      0x04\n      dup1\n      calldatasize\n      sub\n      dup2\n      add\n      swap1\n      tag_36\n      swap2\n      swap1\n      tag_37\n      jump\t// in\n    tag_36:\n      tag_38\n      jump\t// in\n    tag_35:\n      mload(0x40)\n      tag_39\n      swap2\n      swap1\n      tag_16\n      jump\t// in\n    tag_39:\n      mload(0x40)\n      dup1\n      swap2\n      sub\n      swap1\n      return\n        /* \"contracts/Test.sol\":112:137  uint256[][] public secArr */\n    tag_9:\n      tag_40\n      0x04\n      dup1\n      calldatasize\n      sub\n      dup2\n      add\n      swap1\n      tag_41\n      swap2\n      swap1\n      tag_37\n      jump\t// in\n    tag_41:\n      tag_42\n      jump\t// in\n    tag_40:\n      mload(0x40)\n      tag_43\n      swap2\n      swap1\n      tag_34\n      jump\t// in\n    tag_43:\n      mload(0x40)\n      dup1\n      swap2\n      sub\n      swap1\n      return\n        /* \"contracts/Test.sol\":265:518  function countLocal1(bytes32 _bts) public pure returns(bytes32 ){... */\n    tag_14:\n        /* \"contracts/Test.sol\":320:327  bytes32 */\n      0x00\n        /* \"contracts/Test.sol\":340:356  bytes memory bts */\n      dup1\n        /* \"contracts/Test.sol\":369:380  _bts.length */\n      0x20\n        /* \"contracts/Test.sol\":359:381  new bytes(_bts.length) */\n      0xff\n      and\n      0xffffffffffffffff\n      dup2\n      gt\n      iszero\n      tag_45\n      jumpi\n      tag_46\n      tag_47\n      jump\t// in\n    tag_46:\n    tag_45:\n      mload(0x40)\n      swap1\n      dup1\n      dup3\n      mstore\n      dup1\n      0x1f\n      add\n      not(0x1f)\n      and\n      0x20\n      add\n      dup3\n      add\n      0x40\n      mstore\n      dup1\n      iszero\n      tag_48\n      jumpi\n      dup2\n      0x20\n      add\n      0x01\n      dup3\n      mul\n      dup1\n      calldatasize\n      dup4\n      calldatacopy\n      dup1\n      dup3\n      add\n      swap2\n      pop\n      pop\n      swap1\n      pop\n    tag_48:\n      pop\n        /* \"contracts/Test.sol\":340:381  bytes memory bts = new bytes(_bts.length) */\n      swap1\n      pop\n        /* \"contracts/Test.sol\":396:405  uint256 i */\n      0x00\n        /* \"contracts/Test.sol\":392:477  for(uint256 i = 0 ; i < _bts.length ; i++){... */\n    tag_49:\n        /* \"contracts/Test.sol\":416:427  _bts.length */\n      0x20\n        /* \"contracts/Test.sol\":412:427  i < _bts.length */\n      0xff\n      and\n        /* \"contracts/Test.sol\":412:413  i */\n      dup2\n        /* \"contracts/Test.sol\":412:427  i < _bts.length */\n      lt\n        /* \"contracts/Test.sol\":392:477  for(uint256 i = 0 ; i < _bts.length ; i++){... */\n      iszero\n      tag_50\n      jumpi\n        /* \"contracts/Test.sol\":458:462  _bts */\n      dup4\n        /* \"contracts/Test.sol\":463:464  i */\n      dup2\n        /* \"contracts/Test.sol\":458:465  _bts[i] */\n      0x20\n      dup2\n      lt\n      tag_52\n      jumpi\n      tag_53\n      tag_54\n      jump\t// in\n    tag_53:\n    tag_52:\n      byte\n      0xf8\n      shl\n        /* \"contracts/Test.sol\":449:452  bts */\n      dup3\n        /* \"contracts/Test.sol\":453:454  i */\n      dup3\n        /* \"contracts/Test.sol\":449:455  bts[i] */\n      dup2\n      mload\n      dup2\n      lt\n      tag_55\n      jumpi\n      tag_56\n      tag_54\n      jump\t// in\n    tag_56:\n    tag_55:\n      0x20\n      add\n      add\n        /* \"contracts/Test.sol\":449:465  bts[i] = _bts[i] */\n      swap1\n      not(0xffffffffffffffffffffffffffffffffffffffffffffffffffffffffffffff)\n      and\n      swap1\n      dup2\n      0x00\n      byte\n      swap1\n      mstore8\n      pop\n        /* \"contracts/Test.sol\":430:433  i++ */\n      dup1\n      dup1\n      0x01\n      add\n      swap2\n      pop\n      pop\n        /* \"contracts/Test.sol\":392:477  for(uint256 i = 0 ; i < _bts.length ; i++){... */\n      jump(tag_49)\n    tag_50:\n      pop\n        /* \"contracts/Test.sol\":504:507  bts */\n      dup1\n        /* \"contracts/Test.sol\":494:508  keccak256(bts) */\n      dup1\n      mload\n      swap1\n      0x20\n      add\n      keccak256\n        /* \"contracts/Test.sol\":487:508  return keccak256(bts) */\n      swap2\n      pop\n      pop\n        /* \"contracts/Test.sol\":265:518  function countLocal1(bytes32 _bts) public pure returns(bytes32 ){... */\n      swap2\n      swap1\n      pop\n      jump\t// out\n        /* \"contracts/Test.sol\":601:1248  function countLocal() public returns (bytes32){... */\n    tag_18:\n        /* \"contracts/Test.sol\":639:646  bytes32 */\n      0x00\n        /* \"contracts/Test.sol\":684:705  uint256[] memory arr1 */\n      dup1\n        /* \"contracts/Test.sol\":722:723  3 */\n      0x03\n        /* \"contracts/Test.sol\":708:724  new uint256[](3) */\n      0xffffffffffffffff\n      dup2\n      gt\n      iszero\n      tag_58\n      jumpi\n      tag_59\n      tag_47\n      jump\t// in\n    tag_59:\n    tag_58:\n      mload(0x40)\n      swap1\n      dup1\n      dup3\n      mstore\n      dup1\n      0x20\n      mul\n      0x20\n      add\n      dup3\n      add\n      0x40\n      mstore\n      dup1\n      iszero\n      tag_60\n      jumpi\n      dup2\n      0x20\n      add\n      0x20\n      dup3\n      mul\n      dup1\n      calldatasize\n      dup4\n      calldatacopy\n      dup1\n      dup3\n      add\n      swap2\n      pop\n      pop\n      swap1\n      pop\n    tag_60:\n      pop\n        /* \"contracts/Test.sol\":684:724  uint256[] memory arr1 = new uint256[](3) */\n      swap1\n      pop\n        /* \"contracts/Test.sol\":745:747  11 */\n      0x0b\n        /* \"contracts/Test.sol\":735:739  arr1 */\n      dup2\n        /* \"contracts/Test.sol\":740:741  0 */\n      0x00\n        /* \"contracts/Test.sol\":735:742  arr1[0] */\n      dup2\n      mload\n      dup2\n      lt\n      tag_61\n      jumpi\n      tag_62\n      tag_54\n      jump\t// in\n    tag_62:\n    tag_61:\n      0x20\n      mul\n      0x20\n      add\n      add\n        /* \"contracts/Test.sol\":735:747  arr1[0] = 11 */\n      dup2\n      dup2\n      mstore\n      pop\n      pop\n        /* \"contracts/Test.sol\":768:770  22 */\n      0x16\n        /* \"contracts/Test.sol\":758:762  arr1 */\n      dup2\n        /* \"contracts/Test.sol\":763:764  1 */\n      0x01\n        /* \"contracts/Test.sol\":758:765  arr1[1] */\n      dup2\n      mload\n      dup2\n      lt\n      tag_63\n      jumpi\n      tag_64\n      tag_54\n      jump\t// in\n    tag_64:\n    tag_63:\n      0x20\n      mul\n      0x20\n      add\n      add\n        /* \"contracts/Test.sol\":758:770  arr1[1] = 22 */\n      dup2\n      dup2\n      mstore\n      pop\n      pop\n        /* \"contracts/Test.sol\":791:793  33 */\n      0x21\n        /* \"contracts/Test.sol\":781:785  arr1 */\n      dup2\n        /* \"contracts/Test.sol\":786:787  2 */\n      0x02\n        /* \"contracts/Test.sol\":781:788  arr1[2] */\n      dup2\n      mload\n      dup2\n      lt\n      tag_65\n      jumpi\n      tag_66\n      tag_54\n      jump\t// in\n    tag_66:\n    tag_65:\n      0x20\n      mul\n      0x20\n      add\n      add\n        /* \"contracts/Test.sol\":781:793  arr1[2] = 33 */\n      dup2\n      dup2\n      mstore\n      pop\n      pop\n        /* \"contracts/Test.sol\":804:810  secArr */\n      0x00\n        /* \"contracts/Test.sol\":816:820  arr1 */\n      dup2\n        /* \"contracts/Test.sol\":804:821  secArr.push(arr1) */\n      swap1\n      dup1\n      0x01\n      dup2\n      sload\n      add\n      dup1\n      dup3\n      sstore\n      dup1\n      swap2\n      pop\n      pop\n      0x01\n      swap1\n      sub\n      swap1\n      0x00\n      mstore\n      keccak256(0x00, 0x20)\n      add\n      0x00\n      swap1\n      swap2\n      swap1\n      swap2\n      swap1\n      swap2\n      pop\n      swap1\n      dup1\n      mload\n      swap1\n      0x20\n      add\n      swap1\n      tag_68\n      swap3\n      swap2\n      swap1\n      tag_69\n      jump\t// in\n    tag_68:\n      pop\n        /* \"contracts/Test.sol\":834:855  uint256[] memory arr2 */\n      0x00\n        /* \"contracts/Test.sol\":872:873  4 */\n      0x04\n        /* \"contracts/Test.sol\":858:874  new uint256[](4) */\n      0xffffffffffffffff\n      dup2\n      gt\n      iszero\n      tag_70\n      jumpi\n      tag_71\n      tag_47\n      jump\t// in\n    tag_71:\n    tag_70:\n      mload(0x40)\n      swap1\n      dup1\n      dup3\n      mstore\n      dup1\n      0x20\n      mul\n      0x20\n      add\n      dup3\n      add\n      0x40\n      mstore\n      dup1\n      iszero\n      tag_72\n      jumpi\n      dup2\n      0x20\n      add\n      0x20\n      dup3\n      mul\n      dup1\n      calldatasize\n      dup4\n      calldatacopy\n      dup1\n      dup3\n      add\n      swap2\n      pop\n      pop\n      swap1\n      pop\n    tag_72:\n      pop\n        /* \"contracts/Test.sol\":834:874  uint256[] memory arr2 = new uint256[](4) */\n      swap1\n      pop\n        /* \"contracts/Test.sol\":895:897  44 */\n      0x2c\n        /* \"contracts/Test.sol\":885:889  arr2 */\n      dup2\n        /* \"contracts/Test.sol\":890:891  0 */\n      0x00\n        /* \"contracts/Test.sol\":885:892  arr2[0] */\n      dup2\n      mload\n      dup2\n      lt\n      tag_73\n      jumpi\n      tag_74\n      tag_54\n      jump\t// in\n    tag_74:\n    tag_73:\n      0x20\n      mul\n      0x20\n      add\n      add\n        /* \"contracts/Test.sol\":885:897  arr2[0] = 44 */\n      dup2\n      dup2\n      mstore\n      pop\n      pop\n        /* \"contracts/Test.sol\":918:920  55 */\n      0x37\n        /* \"contracts/Test.sol\":908:912  arr2 */\n      dup2\n        /* \"contracts/Test.sol\":913:914  1 */\n      0x01\n        /* \"contracts/Test.sol\":908:915  arr2[1] */\n      dup2\n      mload\n      dup2\n      lt\n      tag_75\n      jumpi\n      tag_76\n      tag_54\n      jump\t// in\n    tag_76:\n    tag_75:\n      0x20\n      mul\n      0x20\n      add\n      add\n        /* \"contracts/Test.sol\":908:920  arr2[1] = 55 */\n      dup2\n      dup2\n      mstore\n      pop\n      pop\n        /* \"contracts/Test.sol\":941:943  66 */\n      0x42\n        /* \"contracts/Test.sol\":931:935  arr2 */\n      dup2\n        /* \"contracts/Test.sol\":936:937  2 */\n      0x02\n        /* \"contracts/Test.sol\":931:938  arr2[2] */\n      dup2\n      mload\n      dup2\n      lt\n      tag_77\n      jumpi\n      tag_78\n      tag_54\n      jump\t// in\n    tag_78:\n    tag_77:\n      0x20\n      mul\n      0x20\n      add\n      add\n        /* \"contracts/Test.sol\":931:943  arr2[2] = 66 */\n      dup2\n      dup2\n      mstore\n      pop\n      pop\n        /* \"contracts/Test.sol\":964:966  77 */\n      0x4d\n        /* \"contracts/Test.sol\":954:958  arr2 */\n      dup2\n        /* \"contracts/Test.sol\":959:960  3 */\n      0x03\n        /* \"contracts/Test.sol\":954:961  arr2[3] */\n      dup2\n      mload\n      dup2\n      lt\n      tag_79\n      jumpi\n      tag_80\n      tag_54\n      jump\t// in\n    tag_80:\n    tag_79:\n      0x20\n      mul\n      0x20\n      add\n      add\n        /* \"contracts/Test.sol\":954:966  arr2[3] = 77 */\n      dup2\n      dup2\n      mstore\n      pop\n      pop\n        /* \"contracts/Test.sol\":977:983  secArr */\n      0x00\n        /* \"contracts/Test.sol\":989:993  arr2 */\n      dup2\n        /* \"contracts/Test.sol\":977:994  secArr.push(arr2) */\n      swap1\n      dup1\n      0x01\n      dup2\n      sload\n      add\n      dup1\n      dup3\n      sstore\n      dup1\n      swap2\n      pop\n      pop\n      0x01\n      swap1\n      sub\n      swap1\n      0x00\n      mstore\n      keccak256(0x00, 0x20)\n      add\n      0x00\n      swap1\n      swap2\n      swap1\n      swap2\n      swap1\n      swap2\n      pop\n      swap1\n      dup1\n      mload\n      swap1\n      0x20\n      add\n      swap1\n      tag_82\n      swap3\n      swap2\n      swap1\n      tag_69\n      jump\t// in\n    tag_82:\n      pop\n        /* \"contracts/Test.sol\":1005:1021  bytes32 arrLocal */\n      0x00\n        /* \"contracts/Test.sol\":1040:1041  0 */\n      dup1\n        /* \"contracts/Test.sol\":1024:1043  bytes32(uint256(0)) */\n      0x00\n      shl\n        /* \"contracts/Test.sol\":1005:1043  bytes32 arrLocal = bytes32(uint256(0)) */\n      swap1\n      pop\n        /* \"contracts/Test.sol\":1054:1070  bytes memory bts */\n      0x00\n        /* \"contracts/Test.sol\":1083:1098  arrLocal.length */\n      0x20\n        /* \"contracts/Test.sol\":1073:1099  new bytes(arrLocal.length) */\n      0xff\n      and\n      0xffffffffffffffff\n      dup2\n      gt\n      iszero\n      tag_83\n      jumpi\n      tag_84\n      tag_47\n      jump\t// in\n    tag_84:\n    tag_83:\n      mload(0x40)\n      swap1\n      dup1\n      dup3\n      mstore\n      dup1\n      0x1f\n      add\n      not(0x1f)\n      and\n      0x20\n      add\n      dup3\n      add\n      0x40\n      mstore\n      dup1\n      iszero\n      tag_85\n      jumpi\n      dup2\n      0x20\n      add\n      0x01\n      dup3\n      mul\n      dup1\n      calldatasize\n      dup4\n      calldatacopy\n      dup1\n      dup3\n      add\n      swap2\n      pop\n      pop\n      swap1\n      pop\n    tag_85:\n      pop\n        /* \"contracts/Test.sol\":1054:1099  bytes memory bts = new bytes(arrLocal.length) */\n      swap1\n      pop\n        /* \"contracts/Test.sol\":1114:1123  uint256 i */\n      0x00\n        /* \"contracts/Test.sol\":1110:1203  for(uint256 i = 0 ; i < arrLocal.length ; i++){... */\n    tag_86:\n        /* \"contracts/Test.sol\":1134:1149  arrLocal.length */\n      0x20\n        /* \"contracts/Test.sol\":1130:1149  i < arrLocal.length */\n      0xff\n      and\n        /* \"contracts/Test.sol\":1130:1131  i */\n      dup2\n        /* \"contracts/Test.sol\":1130:1149  i < arrLocal.length */\n      lt\n        /* \"contracts/Test.sol\":1110:1203  for(uint256 i = 0 ; i < arrLocal.length ; i++){... */\n      iszero\n      tag_87\n      jumpi\n        /* \"contracts/Test.sol\":1180:1188  arrLocal */\n      dup3\n        /* \"contracts/Test.sol\":1189:1190  i */\n      dup2\n        /* \"contracts/Test.sol\":1180:1191  arrLocal[i] */\n      0x20\n      dup2\n      lt\n      tag_89\n      jumpi\n      tag_90\n      tag_54\n      jump\t// in\n    tag_90:\n    tag_89:\n      byte\n      0xf8\n      shl\n        /* \"contracts/Test.sol\":1171:1174  bts */\n      dup3\n        /* \"contracts/Test.sol\":1175:1176  i */\n      dup3\n        /* \"contracts/Test.sol\":1171:1177  bts[i] */\n      dup2\n      mload\n      dup2\n      lt\n      tag_91\n      jumpi\n      tag_92\n      tag_54\n      jump\t// in\n    tag_92:\n    tag_91:\n      0x20\n      add\n      add\n        /* \"contracts/Test.sol\":1171:1191  bts[i] = arrLocal[i] */\n      swap1\n      not(0xffffffffffffffffffffffffffffffffffffffffffffffffffffffffffffff)\n      and\n      swap1\n      dup2\n      0x00\n      byte\n      swap1\n      mstore8\n      pop\n        /* \"contracts/Test.sol\":1152:1155  i++ */\n      dup1\n      dup1\n      0x01\n      add\n      swap2\n      pop\n      pop\n        /* \"contracts/Test.sol\":1110:1203  for(uint256 i = 0 ; i < arrLocal.length ; i++){... */\n      jump(tag_86)\n    tag_87:\n      pop\n        /* \"contracts/Test.sol\":1230:1233  bts */\n      dup1\n        /* \"contracts/Test.sol\":1220:1234  keccak256(bts) */\n      dup1\n      mload\n      swap1\n      0x20\n      add\n      keccak256\n        /* \"contracts/Test.sol\":1213:1234  return keccak256(bts) */\n      swap5\n      pop\n      pop\n      pop\n      pop\n      pop\n        /* \"contracts/Test.sol\":601:1248  function countLocal() public returns (bytes32){... */\n      swap1\n      jump\t// out\n        /* \"contracts/Test.sol\":1519:1654  function add(bytes32 bts) public pure returns(bytes32){... */\n    tag_22:\n        /* \"contracts/Test.sol\":1565:1572  bytes32 */\n      0x00\n        /* \"contracts/Test.sol\":1584:1596  uint256 temp */\n      dup1\n        /* \"contracts/Test.sol\":1607:1610  bts */\n      dup3\n        /* \"contracts/Test.sol\":1599:1611  uint256(bts) */\n      0x00\n      shr\n        /* \"contracts/Test.sol\":1584:1611  uint256 temp = uint256(bts) */\n      swap1\n      pop\n        /* \"contracts/Test.sol\":1644:1645  1 */\n      0x01\n        /* \"contracts/Test.sol\":1637:1641  temp */\n      dup2\n        /* \"contracts/Test.sol\":1637:1645  temp + 1 */\n      tag_94\n      swap2\n      swap1\n      tag_95\n      jump\t// in\n    tag_94:\n        /* \"contracts/Test.sol\":1629:1646  bytes32(temp + 1) */\n      0x00\n      shl\n        /* \"contracts/Test.sol\":1622:1646  return bytes32(temp + 1) */\n      swap2\n      pop\n      pop\n        /* \"contracts/Test.sol\":1519:1654  function add(bytes32 bts) public pure returns(bytes32){... */\n      swap2\n      swap1\n      pop\n      jump\t// out\n        /* \"contracts/Test.sol\":146:256  function getSecArr(uint256 index) public view returns(uint256[] memory){... */\n    tag_27:\n        /* \"contracts/Test.sol\":200:216  uint256[] memory */\n      0x60\n        /* \"contracts/Test.sol\":235:241  secArr */\n      0x00\n        /* \"contracts/Test.sol\":242:247  index */\n      dup3\n        /* \"contracts/Test.sol\":235:248  secArr[index] */\n      dup2\n      sload\n      dup2\n      lt\n      tag_97\n      jumpi\n      tag_98\n      tag_54\n      jump\t// in\n    tag_98:\n    tag_97:\n      swap1\n      0x00\n      mstore\n      keccak256(0x00, 0x20)\n      add\n        /* \"contracts/Test.sol\":228:248  return secArr[index] */\n      dup1\n      sload\n      dup1\n      0x20\n      mul\n      0x20\n      add\n      mload(0x40)\n      swap1\n      dup2\n      add\n      0x40\n      mstore\n      dup1\n      swap3\n      swap2\n      swap1\n      dup2\n      dup2\n      mstore\n      0x20\n      add\n      dup3\n      dup1\n      sload\n      dup1\n      iszero\n      tag_100\n      jumpi\n      0x20\n      mul\n      dup3\n      add\n      swap2\n      swap1\n      0x00\n      mstore\n      keccak256(0x00, 0x20)\n      swap1\n    tag_101:\n      dup2\n      sload\n      dup2\n      mstore\n      0x20\n      add\n      swap1\n      0x01\n      add\n      swap1\n      dup1\n      dup4\n      gt\n      tag_101\n      jumpi\n    tag_100:\n      pop\n      pop\n      pop\n      pop\n      pop\n      swap1\n      pop\n        /* \"contracts/Test.sol\":146:256  function getSecArr(uint256 index) public view returns(uint256[] memory){... */\n      swap2\n      swap1\n      pop\n      jump\t// out\n        /* \"contracts/Test.sol\":1256:1435  function getDateFromLocal(bytes32 data) public view returns(uint256 b){... */\n    tag_32:\n        /* \"contracts/Test.sol\":1316:1325  uint256 b */\n      0x00\n        /* \"contracts/Test.sol\":1412:1416  data */\n      dup2\n        /* \"contracts/Test.sol\":1406:1417  sload(data) */\n      sload\n        /* \"contracts/Test.sol\":1401:1417  b := sload(data) */\n      swap1\n      pop\n        /* \"contracts/Test.sol\":1256:1435  function getDateFromLocal(bytes32 data) public view returns(uint256 b){... */\n      swap2\n      swap1\n      pop\n      jump\t// out\n        /* \"contracts/Test.sol\":2052:2658  function getLocal(uint256 i,uint256 j) public pure returns(bytes32){... */\n    tag_38:\n        /* \"contracts/Test.sol\":2111:2118  bytes32 */\n      0x00\n        /* \"contracts/Test.sol\":2130:2146  bytes32 arrLocal */\n      dup1\n        /* \"contracts/Test.sol\":2165:2166  0 */\n      0x00\n        /* \"contracts/Test.sol\":2149:2168  bytes32(uint256(0)) */\n      dup1\n      shl\n        /* \"contracts/Test.sol\":2130:2168  bytes32 arrLocal = bytes32(uint256(0)) */\n      swap1\n      pop\n        /* \"contracts/Test.sol\":2179:2195  bytes memory bts */\n      0x00\n        /* \"contracts/Test.sol\":2208:2223  arrLocal.length */\n      0x20\n        /* \"contracts/Test.sol\":2198:2224  new bytes(arrLocal.length) */\n      0xff\n      and\n      0xffffffffffffffff\n      dup2\n      gt\n      iszero\n      tag_104\n      jumpi\n      tag_105\n      tag_47\n      jump\t// in\n    tag_105:\n    tag_104:\n      mload(0x40)\n      swap1\n      dup1\n      dup3\n      mstore\n      dup1\n      0x1f\n      add\n      not(0x1f)\n      and\n      0x20\n      add\n      dup3\n      add\n      0x40\n      mstore\n      dup1\n      iszero\n      tag_106\n      jumpi\n      dup2\n      0x20\n      add\n      0x01\n      dup3\n      mul\n      dup1\n      calldatasize\n      dup4\n      calldatacopy\n      dup1\n      dup3\n      add\n      swap2\n      pop\n      pop\n      swap1\n      pop\n    tag_106:\n      pop\n        /* \"contracts/Test.sol\":2179:2224  bytes memory bts = new bytes(arrLocal.length) */\n      swap1\n      pop\n        /* \"contracts/Test.sol\":2239:2248  uint256 k */\n      0x00\n        /* \"contracts/Test.sol\":2235:2328  for(uint256 k = 0 ; k < arrLocal.length ; k++){... */\n    tag_107:\n        /* \"contracts/Test.sol\":2259:2274  arrLocal.length */\n      0x20\n        /* \"contracts/Test.sol\":2255:2274  k < arrLocal.length */\n      0xff\n      and\n        /* \"contracts/Test.sol\":2255:2256  k */\n      dup2\n        /* \"contracts/Test.sol\":2255:2274  k < arrLocal.length */\n      lt\n        /* \"contracts/Test.sol\":2235:2328  for(uint256 k = 0 ; k < arrLocal.length ; k++){... */\n      iszero\n      tag_108\n      jumpi\n        /* \"contracts/Test.sol\":2305:2313  arrLocal */\n      dup3\n        /* \"contracts/Test.sol\":2314:2315  k */\n      dup2\n        /* \"contracts/Test.sol\":2305:2316  arrLocal[k] */\n      0x20\n      dup2\n      lt\n      tag_110\n      jumpi\n      tag_111\n      tag_54\n      jump\t// in\n    tag_111:\n    tag_110:\n      byte\n      0xf8\n      shl\n        /* \"contracts/Test.sol\":2296:2299  bts */\n      dup3\n        /* \"contracts/Test.sol\":2300:2301  k */\n      dup3\n        /* \"contracts/Test.sol\":2296:2302  bts[k] */\n      dup2\n      mload\n      dup2\n      lt\n      tag_112\n      jumpi\n      tag_113\n      tag_54\n      jump\t// in\n    tag_113:\n    tag_112:\n      0x20\n      add\n      add\n        /* \"contracts/Test.sol\":2296:2316  bts[k] = arrLocal[k] */\n      swap1\n      not(0xffffffffffffffffffffffffffffffffffffffffffffffffffffffffffffff)\n      and\n      swap1\n      dup2\n      0x00\n      byte\n      swap1\n      mstore8\n      pop\n        /* \"contracts/Test.sol\":2277:2280  k++ */\n      dup1\n      dup1\n      0x01\n      add\n      swap2\n      pop\n      pop\n        /* \"contracts/Test.sol\":2235:2328  for(uint256 k = 0 ; k < arrLocal.length ; k++){... */\n      jump(tag_107)\n    tag_108:\n      pop\n        /* \"contracts/Test.sol\":2340:2357  bytes32 arrLocal1 */\n      0x00\n        /* \"contracts/Test.sol\":2393:2394  i */\n      dup6\n        /* \"contracts/Test.sol\":2386:2389  bts */\n      dup3\n        /* \"contracts/Test.sol\":2376:2390  keccak256(bts) */\n      dup1\n      mload\n      swap1\n      0x20\n      add\n      keccak256\n        /* \"contracts/Test.sol\":2368:2391  uint256(keccak256(bts)) */\n      0x00\n      shr\n        /* \"contracts/Test.sol\":2368:2394  uint256(keccak256(bts)) +i */\n      tag_114\n      swap2\n      swap1\n      tag_95\n      jump\t// in\n    tag_114:\n        /* \"contracts/Test.sol\":2360:2395  bytes32(uint256(keccak256(bts)) +i) */\n      0x00\n      shl\n        /* \"contracts/Test.sol\":2340:2395  bytes32 arrLocal1 = bytes32(uint256(keccak256(bts)) +i) */\n      swap1\n      pop\n        /* \"contracts/Test.sol\":2406:2423  bytes memory bts1 */\n      0x00\n        /* \"contracts/Test.sol\":2436:2452  arrLocal1.length */\n      0x20\n        /* \"contracts/Test.sol\":2426:2453  new bytes(arrLocal1.length) */\n      0xff\n      and\n      0xffffffffffffffff\n      dup2\n      gt\n      iszero\n      tag_115\n      jumpi\n      tag_116\n      tag_47\n      jump\t// in\n    tag_116:\n    tag_115:\n      mload(0x40)\n      swap1\n      dup1\n      dup3\n      mstore\n      dup1\n      0x1f\n      add\n      not(0x1f)\n      and\n      0x20\n      add\n      dup3\n      add\n      0x40\n      mstore\n      dup1\n      iszero\n      tag_117\n      jumpi\n      dup2\n      0x20\n      add\n      0x01\n      dup3\n      mul\n      dup1\n      calldatasize\n      dup4\n      calldatacopy\n      dup1\n      dup3\n      add\n      swap2\n      pop\n      pop\n      swap1\n      pop\n    tag_117:\n      pop\n        /* \"contracts/Test.sol\":2406:2453  bytes memory bts1 = new bytes(arrLocal1.length) */\n      swap1\n      pop\n        /* \"contracts/Test.sol\":2468:2477  uint256 p */\n      0x00\n        /* \"contracts/Test.sol\":2464:2560  for(uint256 p = 0 ; p < arrLocal1.length ; p++){... */\n    tag_118:\n        /* \"contracts/Test.sol\":2488:2504  arrLocal1.length */\n      0x20\n        /* \"contracts/Test.sol\":2484:2504  p < arrLocal1.length */\n      0xff\n      and\n        /* \"contracts/Test.sol\":2484:2485  p */\n      dup2\n        /* \"contracts/Test.sol\":2484:2504  p < arrLocal1.length */\n      lt\n        /* \"contracts/Test.sol\":2464:2560  for(uint256 p = 0 ; p < arrLocal1.length ; p++){... */\n      iszero\n      tag_119\n      jumpi\n        /* \"contracts/Test.sol\":2536:2545  arrLocal1 */\n      dup3\n        /* \"contracts/Test.sol\":2546:2547  p */\n      dup2\n        /* \"contracts/Test.sol\":2536:2548  arrLocal1[p] */\n      0x20\n      dup2\n      lt\n      tag_121\n      jumpi\n      tag_122\n      tag_54\n      jump\t// in\n    tag_122:\n    tag_121:\n      byte\n      0xf8\n      shl\n        /* \"contracts/Test.sol\":2526:2530  bts1 */\n      dup3\n        /* \"contracts/Test.sol\":2531:2532  p */\n      dup3\n        /* \"contracts/Test.sol\":2526:2533  bts1[p] */\n      dup2\n      mload\n      dup2\n      lt\n      tag_123\n      jumpi\n      tag_124\n      tag_54\n      jump\t// in\n    tag_124:\n    tag_123:\n      0x20\n      add\n      add\n        /* \"contracts/Test.sol\":2526:2548  bts1[p] = arrLocal1[p] */\n      swap1\n      not(0xffffffffffffffffffffffffffffffffffffffffffffffffffffffffffffff)\n      and\n      swap1\n      dup2\n      0x00\n      byte\n      swap1\n      mstore8\n      pop\n        /* \"contracts/Test.sol\":2507:2510  p++ */\n      dup1\n      dup1\n      0x01\n      add\n      swap2\n      pop\n      pop\n        /* \"contracts/Test.sol\":2464:2560  for(uint256 p = 0 ; p < arrLocal1.length ; p++){... */\n      jump(tag_118)\n    tag_119:\n      pop\n        /* \"contracts/Test.sol\":2570:2579  uint256 h */\n      0x00\n        /* \"contracts/Test.sol\":2592:2595  256 */\n      0x0100\n        /* \"contracts/Test.sol\":2586:2589  256 */\n      dup1\n        /* \"contracts/Test.sol\":2582:2583  j */\n      dup9\n        /* \"contracts/Test.sol\":2582:2589  j * 256 */\n      tag_125\n      swap2\n      swap1\n      tag_126\n      jump\t// in\n    tag_125:\n        /* \"contracts/Test.sol\":2582:2595  j * 256 / 256 */\n      tag_127\n      swap2\n      swap1\n      tag_128\n      jump\t// in\n    tag_127:\n        /* \"contracts/Test.sol\":2570:2595  uint256 h = j * 256 / 256 */\n      swap1\n      pop\n        /* \"contracts/Test.sol\":2648:2649  h */\n      dup1\n        /* \"contracts/Test.sol\":2639:2643  bts1 */\n      dup3\n        /* \"contracts/Test.sol\":2629:2644  keccak256(bts1) */\n      dup1\n      mload\n      swap1\n      0x20\n      add\n      keccak256\n        /* \"contracts/Test.sol\":2621:2645  uint256(keccak256(bts1)) */\n      0x00\n      shr\n        /* \"contracts/Test.sol\":2621:2649  uint256(keccak256(bts1)) + h */\n      tag_129\n      swap2\n      swap1\n      tag_95\n      jump\t// in\n    tag_129:\n        /* \"contracts/Test.sol\":2613:2650  bytes32(uint256(keccak256(bts1)) + h) */\n      0x00\n      shl\n        /* \"contracts/Test.sol\":2606:2650  return bytes32(uint256(keccak256(bts1)) + h) */\n      swap6\n      pop\n      pop\n      pop\n      pop\n      pop\n      pop\n        /* \"contracts/Test.sol\":2052:2658  function getLocal(uint256 i,uint256 j) public pure returns(bytes32){... */\n      swap3\n      swap2\n      pop\n      pop\n      jump\t// out\n        /* \"contracts/Test.sol\":112:137  uint256[][] public secArr */\n    tag_42:\n      0x00\n      dup3\n      dup2\n      sload\n      dup2\n      lt\n      tag_130\n      jumpi\n      0x00\n      dup1\n      revert\n    tag_130:\n      swap1\n      0x00\n      mstore\n      keccak256(0x00, 0x20)\n      add\n      dup2\n      dup2\n      sload\n      dup2\n      lt\n      tag_132\n      jumpi\n      0x00\n      dup1\n      revert\n    tag_132:\n      swap1\n      0x00\n      mstore\n      keccak256(0x00, 0x20)\n      add\n      0x00\n      swap2\n      pop\n      swap2\n      pop\n      pop\n      sload\n      dup2\n      jump\t// out\n    tag_69:\n      dup3\n      dup1\n      sload\n      dup3\n      dup3\n      sstore\n      swap1\n      0x00\n      mstore\n      keccak256(0x00, 0x20)\n      swap1\n      dup2\n      add\n      swap3\n      dup3\n      iszero\n      tag_134\n      jumpi\n      swap2\n      0x20\n      mul\n      dup3\n      add\n    tag_135:\n      dup3\n      dup2\n      gt\n      iszero\n      tag_136\n      jumpi\n      dup3\n      mload\n      dup3\n      sstore\n      swap2\n      0x20\n      add\n      swap2\n      swap1\n      0x01\n      add\n      swap1\n      jump(tag_135)\n    tag_136:\n    tag_134:\n      pop\n      swap1\n      pop\n      tag_137\n      swap2\n      swap1\n      tag_138\n      jump\t// in\n    tag_137:\n      pop\n      swap1\n      jump\t// out\n    tag_138:\n    tag_139:\n      dup1\n      dup3\n      gt\n      iszero\n      tag_140\n      jumpi\n      0x00\n      dup2\n      0x00\n      swap1\n      sstore\n      pop\n      0x01\n      add\n      jump(tag_139)\n    tag_140:\n      pop\n      swap1\n      jump\t// out\n        /* \"#utility.yul\":88:205   */\n    tag_142:\n        /* \"#utility.yul\":197:198   */\n      0x00\n        /* \"#utility.yul\":194:195   */\n      dup1\n        /* \"#utility.yul\":187:199   */\n      revert\n        /* \"#utility.yul\":334:411   */\n    tag_144:\n        /* \"#utility.yul\":371:378   */\n      0x00\n        /* \"#utility.yul\":400:405   */\n      dup2\n        /* \"#utility.yul\":389:405   */\n      swap1\n      pop\n        /* \"#utility.yul\":334:411   */\n      swap2\n      swap1\n      pop\n      jump\t// out\n        /* \"#utility.yul\":417:539   */\n    tag_145:\n        /* \"#utility.yul\":490:514   */\n      tag_167\n        /* \"#utility.yul\":508:513   */\n      dup2\n        /* \"#utility.yul\":490:514   */\n      tag_144\n      jump\t// in\n    tag_167:\n        /* \"#utility.yul\":483:488   */\n      dup2\n        /* \"#utility.yul\":480:515   */\n      eq\n        /* \"#utility.yul\":470:533   */\n      tag_168\n      jumpi\n        /* \"#utility.yul\":529:530   */\n      0x00\n        /* \"#utility.yul\":526:527   */\n      dup1\n        /* \"#utility.yul\":519:531   */\n      revert\n        /* \"#utility.yul\":470:533   */\n    tag_168:\n        /* \"#utility.yul\":417:539   */\n      pop\n      jump\t// out\n        /* \"#utility.yul\":545:684   */\n    tag_146:\n        /* \"#utility.yul\":591:596   */\n      0x00\n        /* \"#utility.yul\":629:635   */\n      dup2\n        /* \"#utility.yul\":616:636   */\n      calldataload\n        /* \"#utility.yul\":607:636   */\n      swap1\n      pop\n        /* \"#utility.yul\":645:678   */\n      tag_170\n        /* \"#utility.yul\":672:677   */\n      dup2\n        /* \"#utility.yul\":645:678   */\n      tag_145\n      jump\t// in\n    tag_170:\n        /* \"#utility.yul\":545:684   */\n      swap3\n      swap2\n      pop\n      pop\n      jump\t// out\n        /* \"#utility.yul\":690:1019   */\n    tag_13:\n        /* \"#utility.yul\":749:755   */\n      0x00\n        /* \"#utility.yul\":798:800   */\n      0x20\n        /* \"#utility.yul\":786:795   */\n      dup3\n        /* \"#utility.yul\":777:784   */\n      dup5\n        /* \"#utility.yul\":773:796   */\n      sub\n        /* \"#utility.yul\":769:801   */\n      slt\n        /* \"#utility.yul\":766:885   */\n      iszero\n      tag_172\n      jumpi\n        /* \"#utility.yul\":804:883   */\n      tag_173\n      tag_142\n      jump\t// in\n    tag_173:\n        /* \"#utility.yul\":766:885   */\n    tag_172:\n        /* \"#utility.yul\":924:925   */\n      0x00\n        /* \"#utility.yul\":949:1002   */\n      tag_174\n        /* \"#utility.yul\":994:1001   */\n      dup5\n        /* \"#utility.yul\":985:991   */\n      dup3\n        /* \"#utility.yul\":974:983   */\n      dup6\n        /* \"#utility.yul\":970:992   */\n      add\n        /* \"#utility.yul\":949:1002   */\n      tag_146\n      jump\t// in\n    tag_174:\n        /* \"#utility.yul\":939:1002   */\n      swap2\n      pop\n        /* \"#utility.yul\":895:1012   */\n      pop\n        /* \"#utility.yul\":690:1019   */\n      swap3\n      swap2\n      pop\n      pop\n      jump\t// out\n        /* \"#utility.yul\":1025:1143   */\n    tag_147:\n        /* \"#utility.yul\":1112:1136   */\n      tag_176\n        /* \"#utility.yul\":1130:1135   */\n      dup2\n        /* \"#utility.yul\":1112:1136   */\n      tag_144\n      jump\t// in\n    tag_176:\n        /* \"#utility.yul\":1107:1110   */\n      dup3\n        /* \"#utility.yul\":1100:1137   */\n      mstore\n        /* \"#utility.yul\":1025:1143   */\n      pop\n      pop\n      jump\t// out\n        /* \"#utility.yul\":1149:1371   */\n    tag_16:\n        /* \"#utility.yul\":1242:1246   */\n      0x00\n        /* \"#utility.yul\":1280:1282   */\n      0x20\n        /* \"#utility.yul\":1269:1278   */\n      dup3\n        /* \"#utility.yul\":1265:1283   */\n      add\n        /* \"#utility.yul\":1257:1283   */\n      swap1\n      pop\n        /* \"#utility.yul\":1293:1364   */\n      tag_178\n        /* \"#utility.yul\":1361:1362   */\n      0x00\n        /* \"#utility.yul\":1350:1359   */\n      dup4\n        /* \"#utility.yul\":1346:1363   */\n      add\n        /* \"#utility.yul\":1337:1343   */\n      dup5\n        /* \"#utility.yul\":1293:1364   */\n      tag_147\n      jump\t// in\n    tag_178:\n        /* \"#utility.yul\":1149:1371   */\n      swap3\n      swap2\n      pop\n      pop\n      jump\t// out\n        /* \"#utility.yul\":1377:1454   */\n    tag_148:\n        /* \"#utility.yul\":1414:1421   */\n      0x00\n        /* \"#utility.yul\":1443:1448   */\n      dup2\n        /* \"#utility.yul\":1432:1448   */\n      swap1\n      pop\n        /* \"#utility.yul\":1377:1454   */\n      swap2\n      swap1\n      pop\n      jump\t// out\n        /* \"#utility.yul\":1460:1582   */\n    tag_149:\n        /* \"#utility.yul\":1533:1557   */\n      tag_181\n        /* \"#utility.yul\":1551:1556   */\n      dup2\n        /* \"#utility.yul\":1533:1557   */\n      tag_148\n      jump\t// in\n    tag_181:\n        /* \"#utility.yul\":1526:1531   */\n      dup2\n        /* \"#utility.yul\":1523:1558   */\n      eq\n        /* \"#utility.yul\":1513:1576   */\n      tag_182\n      jumpi\n        /* \"#utility.yul\":1572:1573   */\n      0x00\n        /* \"#utility.yul\":1569:1570   */\n      dup1\n        /* \"#utility.yul\":1562:1574   */\n      revert\n        /* \"#utility.yul\":1513:1576   */\n    tag_182:\n        /* \"#utility.yul\":1460:1582   */\n      pop\n      jump\t// out\n        /* \"#utility.yul\":1588:1727   */\n    tag_150:\n        /* \"#utility.yul\":1634:1639   */\n      0x00\n        /* \"#utility.yul\":1672:1678   */\n      dup2\n        /* \"#utility.yul\":1659:1679   */\n      calldataload\n        /* \"#utility.yul\":1650:1679   */\n      swap1\n      pop\n        /* \"#utility.yul\":1688:1721   */\n      tag_184\n        /* \"#utility.yul\":1715:1720   */\n      dup2\n        /* \"#utility.yul\":1688:1721   */\n      tag_149\n      jump\t// in\n    tag_184:\n        /* \"#utility.yul\":1588:1727   */\n      swap3\n      swap2\n      pop\n      pop\n      jump\t// out\n        /* \"#utility.yul\":1733:2062   */\n    tag_26:\n        /* \"#utility.yul\":1792:1798   */\n      0x00\n        /* \"#utility.yul\":1841:1843   */\n      0x20\n        /* \"#utility.yul\":1829:1838   */\n      dup3\n        /* \"#utility.yul\":1820:1827   */\n      dup5\n        /* \"#utility.yul\":1816:1839   */\n      sub\n        /* \"#utility.yul\":1812:1844   */\n      slt\n        /* \"#utility.yul\":1809:1928   */\n      iszero\n      tag_186\n      jumpi\n        /* \"#utility.yul\":1847:1926   */\n      tag_187\n      tag_142\n      jump\t// in\n    tag_187:\n        /* \"#utility.yul\":1809:1928   */\n    tag_186:\n        /* \"#utility.yul\":1967:1968   */\n      0x00\n        /* \"#utility.yul\":1992:2045   */\n      tag_188\n        /* \"#utility.yul\":2037:2044   */\n      dup5\n        /* \"#utility.yul\":2028:2034   */\n      dup3\n        /* \"#utility.yul\":2017:2026   */\n      dup6\n        /* \"#utility.yul\":2013:2035   */\n      add\n        /* \"#utility.yul\":1992:2045   */\n      tag_150\n      jump\t// in\n    tag_188:\n        /* \"#utility.yul\":1982:2045   */\n      swap2\n      pop\n        /* \"#utility.yul\":1938:2055   */\n      pop\n        /* \"#utility.yul\":1733:2062   */\n      swap3\n      swap2\n      pop\n      pop\n      jump\t// out\n        /* \"#utility.yul\":2068:2182   */\n    tag_151:\n        /* \"#utility.yul\":2135:2141   */\n      0x00\n        /* \"#utility.yul\":2169:2174   */\n      dup2\n        /* \"#utility.yul\":2163:2175   */\n      mload\n        /* \"#utility.yul\":2153:2175   */\n      swap1\n      pop\n        /* \"#utility.yul\":2068:2182   */\n      swap2\n      swap1\n      pop\n      jump\t// out\n        /* \"#utility.yul\":2188:2372   */\n    tag_152:\n        /* \"#utility.yul\":2287:2298   */\n      0x00\n        /* \"#utility.yul\":2321:2327   */\n      dup3\n        /* \"#utility.yul\":2316:2319   */\n      dup3\n        /* \"#utility.yul\":2309:2328   */\n      mstore\n        /* \"#utility.yul\":2361:2365   */\n      0x20\n        /* \"#utility.yul\":2356:2359   */\n      dup3\n        /* \"#utility.yul\":2352:2366   */\n      add\n        /* \"#utility.yul\":2337:2366   */\n      swap1\n      pop\n        /* \"#utility.yul\":2188:2372   */\n      swap3\n      swap2\n      pop\n      pop\n      jump\t// out\n        /* \"#utility.yul\":2378:2510   */\n    tag_153:\n        /* \"#utility.yul\":2445:2449   */\n      0x00\n        /* \"#utility.yul\":2468:2471   */\n      dup2\n        /* \"#utility.yul\":2460:2471   */\n      swap1\n      pop\n        /* \"#utility.yul\":2498:2502   */\n      0x20\n        /* \"#utility.yul\":2493:2496   */\n      dup3\n        /* \"#utility.yul\":2489:2503   */\n      add\n        /* \"#utility.yul\":2481:2503   */\n      swap1\n      pop\n        /* \"#utility.yul\":2378:2510   */\n      swap2\n      swap1\n      pop\n      jump\t// out\n        /* \"#utility.yul\":2516:2624   */\n    tag_154:\n        /* \"#utility.yul\":2593:2617   */\n      tag_193\n        /* \"#utility.yul\":2611:2616   */\n      dup2\n        /* \"#utility.yul\":2593:2617   */\n      tag_148\n      jump\t// in\n    tag_193:\n        /* \"#utility.yul\":2588:2591   */\n      dup3\n        /* \"#utility.yul\":2581:2618   */\n      mstore\n        /* \"#utility.yul\":2516:2624   */\n      pop\n      pop\n      jump\t// out\n        /* \"#utility.yul\":2630:2809   */\n    tag_155:\n        /* \"#utility.yul\":2699:2709   */\n      0x00\n        /* \"#utility.yul\":2720:2766   */\n      tag_195\n        /* \"#utility.yul\":2762:2765   */\n      dup4\n        /* \"#utility.yul\":2754:2760   */\n      dup4\n        /* \"#utility.yul\":2720:2766   */\n      tag_154\n      jump\t// in\n    tag_195:\n        /* \"#utility.yul\":2798:2802   */\n      0x20\n        /* \"#utility.yul\":2793:2796   */\n      dup4\n        /* \"#utility.yul\":2789:2803   */\n      add\n        /* \"#utility.yul\":2775:2803   */\n      swap1\n      pop\n        /* \"#utility.yul\":2630:2809   */\n      swap3\n      swap2\n      pop\n      pop\n      jump\t// out\n        /* \"#utility.yul\":2815:2928   */\n    tag_156:\n        /* \"#utility.yul\":2885:2889   */\n      0x00\n        /* \"#utility.yul\":2917:2921   */\n      0x20\n        /* \"#utility.yul\":2912:2915   */\n      dup3\n        /* \"#utility.yul\":2908:2922   */\n      add\n        /* \"#utility.yul\":2900:2922   */\n      swap1\n      pop\n        /* \"#utility.yul\":2815:2928   */\n      swap2\n      swap1\n      pop\n      jump\t// out\n        /* \"#utility.yul\":2964:3696   */\n    tag_157:\n        /* \"#utility.yul\":3083:3086   */\n      0x00\n        /* \"#utility.yul\":3112:3166   */\n      tag_198\n        /* \"#utility.yul\":3160:3165   */\n      dup3\n        /* \"#utility.yul\":3112:3166   */\n      tag_151\n      jump\t// in\n    tag_198:\n        /* \"#utility.yul\":3182:3268   */\n      tag_199\n        /* \"#utility.yul\":3261:3267   */\n      dup2\n        /* \"#utility.yul\":3256:3259   */\n      dup6\n        /* \"#utility.yul\":3182:3268   */\n      tag_152\n      jump\t// in\n    tag_199:\n        /* \"#utility.yul\":3175:3268   */\n      swap4\n      pop\n        /* \"#utility.yul\":3292:3348   */\n      tag_200\n        /* \"#utility.yul\":3342:3347   */\n      dup4\n        /* \"#utility.yul\":3292:3348   */\n      tag_153\n      jump\t// in\n    tag_200:\n        /* \"#utility.yul\":3371:3378   */\n      dup1\n        /* \"#utility.yul\":3402:3403   */\n      0x00\n        /* \"#utility.yul\":3387:3671   */\n    tag_201:\n        /* \"#utility.yul\":3412:3418   */\n      dup4\n        /* \"#utility.yul\":3409:3410   */\n      dup2\n        /* \"#utility.yul\":3406:3419   */\n      lt\n        /* \"#utility.yul\":3387:3671   */\n      iszero\n      tag_203\n      jumpi\n        /* \"#utility.yul\":3488:3494   */\n      dup2\n        /* \"#utility.yul\":3482:3495   */\n      mload\n        /* \"#utility.yul\":3515:3578   */\n      tag_204\n        /* \"#utility.yul\":3574:3577   */\n      dup9\n        /* \"#utility.yul\":3559:3572   */\n      dup3\n        /* \"#utility.yul\":3515:3578   */\n      tag_155\n      jump\t// in\n    tag_204:\n        /* \"#utility.yul\":3508:3578   */\n      swap8\n      pop\n        /* \"#utility.yul\":3601:3661   */\n      tag_205\n        /* \"#utility.yul\":3654:3660   */\n      dup4\n        /* \"#utility.yul\":3601:3661   */\n      tag_156\n      jump\t// in\n    tag_205:\n        /* \"#utility.yul\":3591:3661   */\n      swap3\n      pop\n        /* \"#utility.yul\":3447:3671   */\n      pop\n        /* \"#utility.yul\":3434:3435   */\n      0x01\n        /* \"#utility.yul\":3431:3432   */\n      dup2\n        /* \"#utility.yul\":3427:3436   */\n      add\n        /* \"#utility.yul\":3422:3436   */\n      swap1\n      pop\n        /* \"#utility.yul\":3387:3671   */\n      jump(tag_201)\n    tag_203:\n        /* \"#utility.yul\":3391:3405   */\n      pop\n        /* \"#utility.yul\":3687:3690   */\n      dup6\n        /* \"#utility.yul\":3680:3690   */\n      swap4\n      pop\n        /* \"#utility.yul\":3088:3696   */\n      pop\n      pop\n      pop\n        /* \"#utility.yul\":2964:3696   */\n      swap3\n      swap2\n      pop\n      pop\n      jump\t// out\n        /* \"#utility.yul\":3702:4075   */\n    tag_29:\n        /* \"#utility.yul\":3845:3849   */\n      0x00\n        /* \"#utility.yul\":3883:3885   */\n      0x20\n        /* \"#utility.yul\":3872:3881   */\n      dup3\n        /* \"#utility.yul\":3868:3886   */\n      add\n        /* \"#utility.yul\":3860:3886   */\n      swap1\n      pop\n        /* \"#utility.yul\":3932:3941   */\n      dup2\n        /* \"#utility.yul\":3926:3930   */\n      dup2\n        /* \"#utility.yul\":3922:3942   */\n      sub\n        /* \"#utility.yul\":3918:3919   */\n      0x00\n        /* \"#utility.yul\":3907:3916   */\n      dup4\n        /* \"#utility.yul\":3903:3920   */\n      add\n        /* \"#utility.yul\":3896:3943   */\n      mstore\n        /* \"#utility.yul\":3960:4068   */\n      tag_207\n        /* \"#utility.yul\":4063:4067   */\n      dup2\n        /* \"#utility.yul\":4054:4060   */\n      dup5\n        /* \"#utility.yul\":3960:4068   */\n      tag_157\n      jump\t// in\n    tag_207:\n        /* \"#utility.yul\":3952:4068   */\n      swap1\n      pop\n        /* \"#utility.yul\":3702:4075   */\n      swap3\n      swap2\n      pop\n      pop\n      jump\t// out\n        /* \"#utility.yul\":4081:4199   */\n    tag_158:\n        /* \"#utility.yul\":4168:4192   */\n      tag_209\n        /* \"#utility.yul\":4186:4191   */\n      dup2\n        /* \"#utility.yul\":4168:4192   */\n      tag_148\n      jump\t// in\n    tag_209:\n        /* \"#utility.yul\":4163:4166   */\n      dup3\n        /* \"#utility.yul\":4156:4193   */\n      mstore\n        /* \"#utility.yul\":4081:4199   */\n      pop\n      pop\n      jump\t// out\n        /* \"#utility.yul\":4205:4427   */\n    tag_34:\n        /* \"#utility.yul\":4298:4302   */\n      0x00\n        /* \"#utility.yul\":4336:4338   */\n      0x20\n        /* \"#utility.yul\":4325:4334   */\n      dup3\n        /* \"#utility.yul\":4321:4339   */\n      add\n        /* \"#utility.yul\":4313:4339   */\n      swap1\n      pop\n        /* \"#utility.yul\":4349:4420   */\n      tag_211\n        /* \"#utility.yul\":4417:4418   */\n      0x00\n        /* \"#utility.yul\":4406:4415   */\n      dup4\n        /* \"#utility.yul\":4402:4419   */\n      add\n        /* \"#utility.yul\":4393:4399   */\n      dup5\n        /* \"#utility.yul\":4349:4420   */\n      tag_158\n      jump\t// in\n    tag_211:\n        /* \"#utility.yul\":4205:4427   */\n      swap3\n      swap2\n      pop\n      pop\n      jump\t// out\n        /* \"#utility.yul\":4433:4907   */\n    tag_37:\n        /* \"#utility.yul\":4501:4507   */\n      0x00\n        /* \"#utility.yul\":4509:4515   */\n      dup1\n        /* \"#utility.yul\":4558:4560   */\n      0x40\n        /* \"#utility.yul\":4546:4555   */\n      dup4\n        /* \"#utility.yul\":4537:4544   */\n      dup6\n        /* \"#utility.yul\":4533:4556   */\n      sub\n        /* \"#utility.yul\":4529:4561   */\n      slt\n        /* \"#utility.yul\":4526:4645   */\n      iszero\n      tag_213\n      jumpi\n        /* \"#utility.yul\":4564:4643   */\n      tag_214\n      tag_142\n      jump\t// in\n    tag_214:\n        /* \"#utility.yul\":4526:4645   */\n    tag_213:\n        /* \"#utility.yul\":4684:4685   */\n      0x00\n        /* \"#utility.yul\":4709:4762   */\n      tag_215\n        /* \"#utility.yul\":4754:4761   */\n      dup6\n        /* \"#utility.yul\":4745:4751   */\n      dup3\n        /* \"#utility.yul\":4734:4743   */\n      dup7\n        /* \"#utility.yul\":4730:4752   */\n      add\n        /* \"#utility.yul\":4709:4762   */\n      tag_150\n      jump\t// in\n    tag_215:\n        /* \"#utility.yul\":4699:4762   */\n      swap3\n      pop\n        /* \"#utility.yul\":4655:4772   */\n      pop\n        /* \"#utility.yul\":4811:4813   */\n      0x20\n        /* \"#utility.yul\":4837:4890   */\n      tag_216\n        /* \"#utility.yul\":4882:4889   */\n      dup6\n        /* \"#utility.yul\":4873:4879   */\n      dup3\n        /* \"#utility.yul\":4862:4871   */\n      dup7\n        /* \"#utility.yul\":4858:4880   */\n      add\n        /* \"#utility.yul\":4837:4890   */\n      tag_150\n      jump\t// in\n    tag_216:\n        /* \"#utility.yul\":4827:4890   */\n      swap2\n      pop\n        /* \"#utility.yul\":4782:4900   */\n      pop\n        /* \"#utility.yul\":4433:4907   */\n      swap3\n      pop\n      swap3\n      swap1\n      pop\n      jump\t// out\n        /* \"#utility.yul\":4913:5093   */\n    tag_47:\n        /* \"#utility.yul\":4961:5038   */\n      0x4e487b7100000000000000000000000000000000000000000000000000000000\n        /* \"#utility.yul\":4958:4959   */\n      0x00\n        /* \"#utility.yul\":4951:5039   */\n      mstore\n        /* \"#utility.yul\":5058:5062   */\n      0x41\n        /* \"#utility.yul\":5055:5056   */\n      0x04\n        /* \"#utility.yul\":5048:5063   */\n      mstore\n        /* \"#utility.yul\":5082:5086   */\n      0x24\n        /* \"#utility.yul\":5079:5080   */\n      0x00\n        /* \"#utility.yul\":5072:5087   */\n      revert\n        /* \"#utility.yul\":5099:5279   */\n    tag_54:\n        /* \"#utility.yul\":5147:5224   */\n      0x4e487b7100000000000000000000000000000000000000000000000000000000\n        /* \"#utility.yul\":5144:5145   */\n      0x00\n        /* \"#utility.yul\":5137:5225   */\n      mstore\n        /* \"#utility.yul\":5244:5248   */\n      0x32\n        /* \"#utility.yul\":5241:5242   */\n      0x04\n        /* \"#utility.yul\":5234:5249   */\n      mstore\n        /* \"#utility.yul\":5268:5272   */\n      0x24\n        /* \"#utility.yul\":5265:5266   */\n      0x00\n        /* \"#utility.yul\":5258:5273   */\n      revert\n        /* \"#utility.yul\":5285:5465   */\n    tag_159:\n        /* \"#utility.yul\":5333:5410   */\n      0x4e487b7100000000000000000000000000000000000000000000000000000000\n        /* \"#utility.yul\":5330:5331   */\n      0x00\n        /* \"#utility.yul\":5323:5411   */\n      mstore\n        /* \"#utility.yul\":5430:5434   */\n      0x11\n        /* \"#utility.yul\":5427:5428   */\n      0x04\n        /* \"#utility.yul\":5420:5435   */\n      mstore\n        /* \"#utility.yul\":5454:5458   */\n      0x24\n        /* \"#utility.yul\":5451:5452   */\n      0x00\n        /* \"#utility.yul\":5444:5459   */\n      revert\n        /* \"#utility.yul\":5471:5662   */\n    tag_95:\n        /* \"#utility.yul\":5511:5514   */\n      0x00\n        /* \"#utility.yul\":5530:5550   */\n      tag_221\n        /* \"#utility.yul\":5548:5549   */\n      dup3\n        /* \"#utility.yul\":5530:5550   */\n      tag_148\n      jump\t// in\n    tag_221:\n        /* \"#utility.yul\":5525:5550   */\n      swap2\n      pop\n        /* \"#utility.yul\":5564:5584   */\n      tag_222\n        /* \"#utility.yul\":5582:5583   */\n      dup4\n        /* \"#utility.yul\":5564:5584   */\n      tag_148\n      jump\t// in\n    tag_222:\n        /* \"#utility.yul\":5559:5584   */\n      swap3\n      pop\n        /* \"#utility.yul\":5607:5608   */\n      dup3\n        /* \"#utility.yul\":5604:5605   */\n      dup3\n        /* \"#utility.yul\":5600:5609   */\n      add\n        /* \"#utility.yul\":5593:5609   */\n      swap1\n      pop\n        /* \"#utility.yul\":5628:5631   */\n      dup1\n        /* \"#utility.yul\":5625:5626   */\n      dup3\n        /* \"#utility.yul\":5622:5632   */\n      gt\n        /* \"#utility.yul\":5619:5655   */\n      iszero\n      tag_223\n      jumpi\n        /* \"#utility.yul\":5635:5653   */\n      tag_224\n      tag_159\n      jump\t// in\n    tag_224:\n        /* \"#utility.yul\":5619:5655   */\n    tag_223:\n        /* \"#utility.yul\":5471:5662   */\n      swap3\n      swap2\n      pop\n      pop\n      jump\t// out\n        /* \"#utility.yul\":5668:6078   */\n    tag_126:\n        /* \"#utility.yul\":5708:5715   */\n      0x00\n        /* \"#utility.yul\":5731:5751   */\n      tag_226\n        /* \"#utility.yul\":5749:5750   */\n      dup3\n        /* \"#utility.yul\":5731:5751   */\n      tag_148\n      jump\t// in\n    tag_226:\n        /* \"#utility.yul\":5726:5751   */\n      swap2\n      pop\n        /* \"#utility.yul\":5765:5785   */\n      tag_227\n        /* \"#utility.yul\":5783:5784   */\n      dup4\n        /* \"#utility.yul\":5765:5785   */\n      tag_148\n      jump\t// in\n    tag_227:\n        /* \"#utility.yul\":5760:5785   */\n      swap3\n      pop\n        /* \"#utility.yul\":5820:5821   */\n      dup3\n        /* \"#utility.yul\":5817:5818   */\n      dup3\n        /* \"#utility.yul\":5813:5822   */\n      mul\n        /* \"#utility.yul\":5842:5872   */\n      tag_228\n        /* \"#utility.yul\":5860:5871   */\n      dup2\n        /* \"#utility.yul\":5842:5872   */\n      tag_148\n      jump\t// in\n    tag_228:\n        /* \"#utility.yul\":5831:5872   */\n      swap2\n      pop\n        /* \"#utility.yul\":6021:6022   */\n      dup3\n        /* \"#utility.yul\":6012:6019   */\n      dup3\n        /* \"#utility.yul\":6008:6023   */\n      div\n        /* \"#utility.yul\":6005:6006   */\n      dup5\n        /* \"#utility.yul\":6002:6024   */\n      eq\n        /* \"#utility.yul\":5982:5983   */\n      dup4\n        /* \"#utility.yul\":5975:5984   */\n      iszero\n        /* \"#utility.yul\":5955:6038   */\n      or\n        /* \"#utility.yul\":5932:6071   */\n      tag_229\n      jumpi\n        /* \"#utility.yul\":6051:6069   */\n      tag_230\n      tag_159\n      jump\t// in\n    tag_230:\n        /* \"#utility.yul\":5932:6071   */\n    tag_229:\n        /* \"#utility.yul\":5716:6078   */\n      pop\n        /* \"#utility.yul\":5668:6078   */\n      swap3\n      swap2\n      pop\n      pop\n      jump\t// out\n        /* \"#utility.yul\":6084:6264   */\n    tag_160:\n        /* \"#utility.yul\":6132:6209   */\n      0x4e487b7100000000000000000000000000000000000000000000000000000000\n        /* \"#utility.yul\":6129:6130   */\n      0x00\n        /* \"#utility.yul\":6122:6210   */\n      mstore\n        /* \"#utility.yul\":6229:6233   */\n      0x12\n        /* \"#utility.yul\":6226:6227   */\n      0x04\n        /* \"#utility.yul\":6219:6234   */\n      mstore\n        /* \"#utility.yul\":6253:6257   */\n      0x24\n        /* \"#utility.yul\":6250:6251   */\n      0x00\n        /* \"#utility.yul\":6243:6258   */\n      revert\n        /* \"#utility.yul\":6270:6455   */\n    tag_128:\n        /* \"#utility.yul\":6310:6311   */\n      0x00\n        /* \"#utility.yul\":6327:6347   */\n      tag_233\n        /* \"#utility.yul\":6345:6346   */\n      dup3\n        /* \"#utility.yul\":6327:6347   */\n      tag_148\n      jump\t// in\n    tag_233:\n        /* \"#utility.yul\":6322:6347   */\n      swap2\n      pop\n        /* \"#utility.yul\":6361:6381   */\n      tag_234\n        /* \"#utility.yul\":6379:6380   */\n      dup4\n        /* \"#utility.yul\":6361:6381   */\n      tag_148\n      jump\t// in\n    tag_234:\n        /* \"#utility.yul\":6356:6381   */\n      swap3\n      pop\n        /* \"#utility.yul\":6400:6401   */\n      dup3\n        /* \"#utility.yul\":6390:6425   */\n      tag_235\n      jumpi\n        /* \"#utility.yul\":6405:6423   */\n      tag_236\n      tag_160\n      jump\t// in\n    tag_236:\n        /* \"#utility.yul\":6390:6425   */\n    tag_235:\n        /* \"#utility.yul\":6447:6448   */\n      dup3\n        /* \"#utility.yul\":6444:6445   */\n      dup3\n        /* \"#utility.yul\":6440:6449   */\n      div\n        /* \"#utility.yul\":6435:6449   */\n      swap1\n      pop\n        /* \"#utility.yul\":6270:6455   */\n      swap3\n      swap2\n      pop\n      pop\n      jump\t// out\n\n    auxdata: 0xa2646970667358221220844682e7128197c32868d9ae8d919186b5a45497f050daef2eff4f8617d89b8e64736f6c63430008160033\n}\n",
				"bytecode": {
					"linkReferences": {},
					"object": "608060405234801561000f575f80fd5b50610c448061001d5f395ff3fe608060405234801561000f575f80fd5b506004361061007b575f3560e01c806369237b871161005957806369237b87146100fd57806386fa04c91461012d578063a8ff75ad1461015d578063ec16537b1461018d5761007b565b80630c5a8a4d1461007f57806323106c65146100af578063446bffba146100cd575b5f80fd5b610099600480360381019061009491906108c8565b6101bd565b6040516100a69190610902565b60405180910390f35b6100b7610296565b6040516100c49190610902565b60405180910390f35b6100e760048036038101906100e291906108c8565b61056c565b6040516100f49190610902565b60405180910390f35b6101176004803603810190610112919061094e565b61058a565b6040516101249190610a30565b60405180910390f35b610147600480360381019061014291906108c8565b6105fb565b6040516101549190610a5f565b60405180910390f35b61017760048036038101906101729190610a78565b610605565b6040516101849190610902565b60405180910390f35b6101a760048036038101906101a29190610a78565b6107f6565b6040516101b49190610a5f565b60405180910390f35b5f80602060ff1667ffffffffffffffff8111156101dd576101dc610ab6565b5b6040519080825280601f01601f19166020018201604052801561020f5781602001600182028036833780820191505090505b5090505f5b602060ff168110156102855783816020811061023357610232610ae3565b5b1a60f81b82828151811061024a57610249610ae3565b5b60200101907effffffffffffffffffffffffffffffffffffffffffffffffffffffffffffff191690815f1a9053508080600101915050610214565b508080519060200120915050919050565b5f80600367ffffffffffffffff8111156102b3576102b2610ab6565b5b6040519080825280602002602001820160405280156102e15781602001602082028036833780820191505090505b509050600b815f815181106102f9576102f8610ae3565b5b60200260200101818152505060168160018151811061031b5761031a610ae3565b5b60200260200101818152505060218160028151811061033d5761033c610ae3565b5b6020026020010181815250505f81908060018154018082558091505060019003905f5260205f20015f90919091909150908051906020019061038092919061082b565b505f600467ffffffffffffffff81111561039d5761039c610ab6565b5b6040519080825280602002602001820160405280156103cb5781602001602082028036833780820191505090505b509050602c815f815181106103e3576103e2610ae3565b5b60200260200101818152505060378160018151811061040557610404610ae3565b5b60200260200101818152505060428160028151811061042757610426610ae3565b5b602002602001018181525050604d8160038151811061044957610448610ae3565b5b6020026020010181815250505f81908060018154018082558091505060019003905f5260205f20015f90919091909150908051906020019061048c92919061082b565b505f805f1b90505f602060ff1667ffffffffffffffff8111156104b2576104b1610ab6565b5b6040519080825280601f01601f1916602001820160405280156104e45781602001600182028036833780820191505090505b5090505f5b602060ff1681101561055a5782816020811061050857610507610ae3565b5b1a60f81b82828151811061051f5761051e610ae3565b5b60200101907effffffffffffffffffffffffffffffffffffffffffffffffffffffffffffff191690815f1a90535080806001019150506104e9565b50808051906020012094505050505090565b5f80825f1c90506001816105809190610b3d565b5f1b915050919050565b60605f828154811061059f5761059e610ae3565b5b905f5260205f20018054806020026020016040519081016040528092919081815260200182805480156105ef57602002820191905f5260205f20905b8154815260200190600101908083116105db575b50505050509050919050565b5f81549050919050565b5f805f801b90505f602060ff1667ffffffffffffffff81111561062b5761062a610ab6565b5b6040519080825280601f01601f19166020018201604052801561065d5781602001600182028036833780820191505090505b5090505f5b602060ff168110156106d35782816020811061068157610680610ae3565b5b1a60f81b82828151811061069857610697610ae3565b5b60200101907effffffffffffffffffffffffffffffffffffffffffffffffffffffffffffff191690815f1a9053508080600101915050610662565b505f8582805190602001205f1c6106ea9190610b3d565b5f1b90505f602060ff1667ffffffffffffffff81111561070d5761070c610ab6565b5b6040519080825280601f01601f19166020018201604052801561073f5781602001600182028036833780820191505090505b5090505f5b602060ff168110156107b55782816020811061076357610762610ae3565b5b1a60f81b82828151811061077a57610779610ae3565b5b60200101907effffffffffffffffffffffffffffffffffffffffffffffffffffffffffffff191690815f1a9053508080600101915050610744565b505f61010080886107c69190610b70565b6107d09190610bde565b90508082805190602001205f1c6107e79190610b3d565b5f1b9550505050505092915050565b5f8281548110610804575f80fd5b905f5260205f20018181548110610819575f80fd5b905f5260205f20015f91509150505481565b828054828255905f5260205f20908101928215610865579160200282015b82811115610864578251825591602001919060010190610849565b5b5090506108729190610876565b5090565b5b8082111561088d575f815f905550600101610877565b5090565b5f80fd5b5f819050919050565b6108a781610895565b81146108b1575f80fd5b50565b5f813590506108c28161089e565b92915050565b5f602082840312156108dd576108dc610891565b5b5f6108ea848285016108b4565b91505092915050565b6108fc81610895565b82525050565b5f6020820190506109155f8301846108f3565b92915050565b5f819050919050565b61092d8161091b565b8114610937575f80fd5b50565b5f8135905061094881610924565b92915050565b5f6020828403121561096357610962610891565b5b5f6109708482850161093a565b91505092915050565b5f81519050919050565b5f82825260208201905092915050565b5f819050602082019050919050565b6109ab8161091b565b82525050565b5f6109bc83836109a2565b60208301905092915050565b5f602082019050919050565b5f6109de82610979565b6109e88185610983565b93506109f383610993565b805f5b83811015610a23578151610a0a88826109b1565b9750610a15836109c8565b9250506001810190506109f6565b5085935050505092915050565b5f6020820190508181035f830152610a4881846109d4565b905092915050565b610a598161091b565b82525050565b5f602082019050610a725f830184610a50565b92915050565b5f8060408385031215610a8e57610a8d610891565b5b5f610a9b8582860161093a565b9250506020610aac8582860161093a565b9150509250929050565b7f4e487b71000000000000000000000000000000000000000000000000000000005f52604160045260245ffd5b7f4e487b71000000000000000000000000000000000000000000000000000000005f52603260045260245ffd5b7f4e487b71000000000000000000000000000000000000000000000000000000005f52601160045260245ffd5b5f610b478261091b565b9150610b528361091b565b9250828201905080821115610b6a57610b69610b10565b5b92915050565b5f610b7a8261091b565b9150610b858361091b565b9250828202610b938161091b565b91508282048414831517610baa57610ba9610b10565b5b5092915050565b7f4e487b71000000000000000000000000000000000000000000000000000000005f52601260045260245ffd5b5f610be88261091b565b9150610bf38361091b565b925082610c0357610c02610bb1565b5b82820490509291505056fea2646970667358221220844682e7128197c32868d9ae8d919186b5a45497f050daef2eff4f8617d89b8e64736f6c63430008160033",
					"opcodes": "PUSH1 0x80 PUSH1 0x40 MSTORE CALLVALUE DUP1 ISZERO PUSH2 0xF JUMPI PUSH0 DUP1 REVERT JUMPDEST POP PUSH2 0xC44 DUP1 PUSH2 0x1D PUSH0 CODECOPY PUSH0 RETURN INVALID PUSH1 0x80 PUSH1 0x40 MSTORE CALLVALUE DUP1 ISZERO PUSH2 0xF JUMPI PUSH0 DUP1 REVERT JUMPDEST POP PUSH1 0x4 CALLDATASIZE LT PUSH2 0x7B JUMPI PUSH0 CALLDATALOAD PUSH1 0xE0 SHR DUP1 PUSH4 0x69237B87 GT PUSH2 0x59 JUMPI DUP1 PUSH4 0x69237B87 EQ PUSH2 0xFD JUMPI DUP1 PUSH4 0x86FA04C9 EQ PUSH2 0x12D JUMPI DUP1 PUSH4 0xA8FF75AD EQ PUSH2 0x15D JUMPI DUP1 PUSH4 0xEC16537B EQ PUSH2 0x18D JUMPI PUSH2 0x7B JUMP JUMPDEST DUP1 PUSH4 0xC5A8A4D EQ PUSH2 0x7F JUMPI DUP1 PUSH4 0x23106C65 EQ PUSH2 0xAF JUMPI DUP1 PUSH4 0x446BFFBA EQ PUSH2 0xCD JUMPI JUMPDEST PUSH0 DUP1 REVERT JUMPDEST PUSH2 0x99 PUSH1 0x4 DUP1 CALLDATASIZE SUB DUP2 ADD SWAP1 PUSH2 0x94 SWAP2 SWAP1 PUSH2 0x8C8 JUMP JUMPDEST PUSH2 0x1BD JUMP JUMPDEST PUSH1 0x40 MLOAD PUSH2 0xA6 SWAP2 SWAP1 PUSH2 0x902 JUMP JUMPDEST PUSH1 0x40 MLOAD DUP1 SWAP2 SUB SWAP1 RETURN JUMPDEST PUSH2 0xB7 PUSH2 0x296 JUMP JUMPDEST PUSH1 0x40 MLOAD PUSH2 0xC4 SWAP2 SWAP1 PUSH2 0x902 JUMP JUMPDEST PUSH1 0x40 MLOAD DUP1 SWAP2 SUB SWAP1 RETURN JUMPDEST PUSH2 0xE7 PUSH1 0x4 DUP1 CALLDATASIZE SUB DUP2 ADD SWAP1 PUSH2 0xE2 SWAP2 SWAP1 PUSH2 0x8C8 JUMP JUMPDEST PUSH2 0x56C JUMP JUMPDEST PUSH1 0x40 MLOAD PUSH2 0xF4 SWAP2 SWAP1 PUSH2 0x902 JUMP JUMPDEST PUSH1 0x40 MLOAD DUP1 SWAP2 SUB SWAP1 RETURN JUMPDEST PUSH2 0x117 PUSH1 0x4 DUP1 CALLDATASIZE SUB DUP2 ADD SWAP1 PUSH2 0x112 SWAP2 SWAP1 PUSH2 0x94E JUMP JUMPDEST PUSH2 0x58A JUMP JUMPDEST PUSH1 0x40 MLOAD PUSH2 0x124 SWAP2 SWAP1 PUSH2 0xA30 JUMP JUMPDEST PUSH1 0x40 MLOAD DUP1 SWAP2 SUB SWAP1 RETURN JUMPDEST PUSH2 0x147 PUSH1 0x4 DUP1 CALLDATASIZE SUB DUP2 ADD SWAP1 PUSH2 0x142 SWAP2 SWAP1 PUSH2 0x8C8 JUMP JUMPDEST PUSH2 0x5FB JUMP JUMPDEST PUSH1 0x40 MLOAD PUSH2 0x154 SWAP2 SWAP1 PUSH2 0xA5F JUMP JUMPDEST PUSH1 0x40 MLOAD DUP1 SWAP2 SUB SWAP1 RETURN JUMPDEST PUSH2 0x177 PUSH1 0x4 DUP1 CALLDATASIZE SUB DUP2 ADD SWAP1 PUSH2 0x172 SWAP2 SWAP1 PUSH2 0xA78 JUMP JUMPDEST PUSH2 0x605 JUMP JUMPDEST PUSH1 0x40 MLOAD PUSH2 0x184 SWAP2 SWAP1 PUSH2 0x902 JUMP JUMPDEST PUSH1 0x40 MLOAD DUP1 SWAP2 SUB SWAP1 RETURN JUMPDEST PUSH2 0x1A7 PUSH1 0x4 DUP1 CALLDATASIZE SUB DUP2 ADD SWAP1 PUSH2 0x1A2 SWAP2 SWAP1 PUSH2 0xA78 JUMP JUMPDEST PUSH2 0x7F6 JUMP JUMPDEST PUSH1 0x40 MLOAD PUSH2 0x1B4 SWAP2 SWAP1 PUSH2 0xA5F JUMP JUMPDEST PUSH1 0x40 MLOAD DUP1 SWAP2 SUB SWAP1 RETURN JUMPDEST PUSH0 DUP1 PUSH1 0x20 PUSH1 0xFF AND PUSH8 0xFFFFFFFFFFFFFFFF DUP2 GT ISZERO PUSH2 0x1DD JUMPI PUSH2 0x1DC PUSH2 0xAB6 JUMP JUMPDEST JUMPDEST PUSH1 0x40 MLOAD SWAP1 DUP1 DUP3 MSTORE DUP1 PUSH1 0x1F ADD PUSH1 0x1F NOT AND PUSH1 0x20 ADD DUP3 ADD PUSH1 0x40 MSTORE DUP1 ISZERO PUSH2 0x20F JUMPI DUP2 PUSH1 0x20 ADD PUSH1 0x1 DUP3 MUL DUP1 CALLDATASIZE DUP4 CALLDATACOPY DUP1 DUP3 ADD SWAP2 POP POP SWAP1 POP JUMPDEST POP SWAP1 POP PUSH0 JUMPDEST PUSH1 0x20 PUSH1 0xFF AND DUP2 LT ISZERO PUSH2 0x285 JUMPI DUP4 DUP2 PUSH1 0x20 DUP2 LT PUSH2 0x233 JUMPI PUSH2 0x232 PUSH2 0xAE3 JUMP JUMPDEST JUMPDEST BYTE PUSH1 0xF8 SHL DUP3 DUP3 DUP2 MLOAD DUP2 LT PUSH2 0x24A JUMPI PUSH2 0x249 PUSH2 0xAE3 JUMP JUMPDEST JUMPDEST PUSH1 0x20 ADD ADD SWAP1 PUSH31 0xFFFFFFFFFFFFFFFFFFFFFFFFFFFFFFFFFFFFFFFFFFFFFFFFFFFFFFFFFFFFFF NOT AND SWAP1 DUP2 PUSH0 BYTE SWAP1 MSTORE8 POP DUP1 DUP1 PUSH1 0x1 ADD SWAP2 POP POP PUSH2 0x214 JUMP JUMPDEST POP DUP1 DUP1 MLOAD SWAP1 PUSH1 0x20 ADD KECCAK256 SWAP2 POP POP SWAP2 SWAP1 POP JUMP JUMPDEST PUSH0 DUP1 PUSH1 0x3 PUSH8 0xFFFFFFFFFFFFFFFF DUP2 GT ISZERO PUSH2 0x2B3 JUMPI PUSH2 0x2B2 PUSH2 0xAB6 JUMP JUMPDEST JUMPDEST PUSH1 0x40 MLOAD SWAP1 DUP1 DUP3 MSTORE DUP1 PUSH1 0x20 MUL PUSH1 0x20 ADD DUP3 ADD PUSH1 0x40 MSTORE DUP1 ISZERO PUSH2 0x2E1 JUMPI DUP2 PUSH1 0x20 ADD PUSH1 0x20 DUP3 MUL DUP1 CALLDATASIZE DUP4 CALLDATACOPY DUP1 DUP3 ADD SWAP2 POP POP SWAP1 POP JUMPDEST POP SWAP1 POP PUSH1 0xB DUP2 PUSH0 DUP2 MLOAD DUP2 LT PUSH2 0x2F9 JUMPI PUSH2 0x2F8 PUSH2 0xAE3 JUMP JUMPDEST JUMPDEST PUSH1 0x20 MUL PUSH1 0x20 ADD ADD DUP2 DUP2 MSTORE POP POP PUSH1 0x16 DUP2 PUSH1 0x1 DUP2 MLOAD DUP2 LT PUSH2 0x31B JUMPI PUSH2 0x31A PUSH2 0xAE3 JUMP JUMPDEST JUMPDEST PUSH1 0x20 MUL PUSH1 0x20 ADD ADD DUP2 DUP2 MSTORE POP POP PUSH1 0x21 DUP2 PUSH1 0x2 DUP2 MLOAD DUP2 LT PUSH2 0x33D JUMPI PUSH2 0x33C PUSH2 0xAE3 JUMP JUMPDEST JUMPDEST PUSH1 0x20 MUL PUSH1 0x20 ADD ADD DUP2 DUP2 MSTORE POP POP PUSH0 DUP2 SWAP1 DUP1 PUSH1 0x1 DUP2 SLOAD ADD DUP1 DUP3 SSTORE DUP1 SWAP2 POP POP PUSH1 0x1 SWAP1 SUB SWAP1 PUSH0 MSTORE PUSH1 0x20 PUSH0 KECCAK256 ADD PUSH0 SWAP1 SWAP2 SWAP1 SWAP2 SWAP1 SWAP2 POP SWAP1 DUP1 MLOAD SWAP1 PUSH1 0x20 ADD SWAP1 PUSH2 0x380 SWAP3 SWAP2 SWAP1 PUSH2 0x82B JUMP JUMPDEST POP PUSH0 PUSH1 0x4 PUSH8 0xFFFFFFFFFFFFFFFF DUP2 GT ISZERO PUSH2 0x39D JUMPI PUSH2 0x39C PUSH2 0xAB6 JUMP JUMPDEST JUMPDEST PUSH1 0x40 MLOAD SWAP1 DUP1 DUP3 MSTORE DUP1 PUSH1 0x20 MUL PUSH1 0x20 ADD DUP3 ADD PUSH1 0x40 MSTORE DUP1 ISZERO PUSH2 0x3CB JUMPI DUP2 PUSH1 0x20 ADD PUSH1 0x20 DUP3 MUL DUP1 CALLDATASIZE DUP4 CALLDATACOPY DUP1 DUP3 ADD SWAP2 POP POP SWAP1 POP JUMPDEST POP SWAP1 POP PUSH1 0x2C DUP2 PUSH0 DUP2 MLOAD DUP2 LT PUSH2 0x3E3 JUMPI PUSH2 0x3E2 PUSH2 0xAE3 JUMP JUMPDEST JUMPDEST PUSH1 0x20 MUL PUSH1 0x20 ADD ADD DUP2 DUP2 MSTORE POP POP PUSH1 0x37 DUP2 PUSH1 0x1 DUP2 MLOAD DUP2 LT PUSH2 0x405 JUMPI PUSH2 0x404 PUSH2 0xAE3 JUMP JUMPDEST JUMPDEST PUSH1 0x20 MUL PUSH1 0x20 ADD ADD DUP2 DUP2 MSTORE POP POP PUSH1 0x42 DUP2 PUSH1 0x2 DUP2 MLOAD DUP2 LT PUSH2 0x427 JUMPI PUSH2 0x426 PUSH2 0xAE3 JUMP JUMPDEST JUMPDEST PUSH1 0x20 MUL PUSH1 0x20 ADD ADD DUP2 DUP2 MSTORE POP POP PUSH1 0x4D DUP2 PUSH1 0x3 DUP2 MLOAD DUP2 LT PUSH2 0x449 JUMPI PUSH2 0x448 PUSH2 0xAE3 JUMP JUMPDEST JUMPDEST PUSH1 0x20 MUL PUSH1 0x20 ADD ADD DUP2 DUP2 MSTORE POP POP PUSH0 DUP2 SWAP1 DUP1 PUSH1 0x1 DUP2 SLOAD ADD DUP1 DUP3 SSTORE DUP1 SWAP2 POP POP PUSH1 0x1 SWAP1 SUB SWAP1 PUSH0 MSTORE PUSH1 0x20 PUSH0 KECCAK256 ADD PUSH0 SWAP1 SWAP2 SWAP1 SWAP2 SWAP1 SWAP2 POP SWAP1 DUP1 MLOAD SWAP1 PUSH1 0x20 ADD SWAP1 PUSH2 0x48C SWAP3 SWAP2 SWAP1 PUSH2 0x82B JUMP JUMPDEST POP PUSH0 DUP1 PUSH0 SHL SWAP1 POP PUSH0 PUSH1 0x20 PUSH1 0xFF AND PUSH8 0xFFFFFFFFFFFFFFFF DUP2 GT ISZERO PUSH2 0x4B2 JUMPI PUSH2 0x4B1 PUSH2 0xAB6 JUMP JUMPDEST JUMPDEST PUSH1 0x40 MLOAD SWAP1 DUP1 DUP3 MSTORE DUP1 PUSH1 0x1F ADD PUSH1 0x1F NOT AND PUSH1 0x20 ADD DUP3 ADD PUSH1 0x40 MSTORE DUP1 ISZERO PUSH2 0x4E4 JUMPI DUP2 PUSH1 0x20 ADD PUSH1 0x1 DUP3 MUL DUP1 CALLDATASIZE DUP4 CALLDATACOPY DUP1 DUP3 ADD SWAP2 POP POP SWAP1 POP JUMPDEST POP SWAP1 POP PUSH0 JUMPDEST PUSH1 0x20 PUSH1 0xFF AND DUP2 LT ISZERO PUSH2 0x55A JUMPI DUP3 DUP2 PUSH1 0x20 DUP2 LT PUSH2 0x508 JUMPI PUSH2 0x507 PUSH2 0xAE3 JUMP JUMPDEST JUMPDEST BYTE PUSH1 0xF8 SHL DUP3 DUP3 DUP2 MLOAD DUP2 LT PUSH2 0x51F JUMPI PUSH2 0x51E PUSH2 0xAE3 JUMP JUMPDEST JUMPDEST PUSH1 0x20 ADD ADD SWAP1 PUSH31 0xFFFFFFFFFFFFFFFFFFFFFFFFFFFFFFFFFFFFFFFFFFFFFFFFFFFFFFFFFFFFFF NOT AND SWAP1 DUP2 PUSH0 BYTE SWAP1 MSTORE8 POP DUP1 DUP1 PUSH1 0x1 ADD SWAP2 POP POP PUSH2 0x4E9 JUMP JUMPDEST POP DUP1 DUP1 MLOAD SWAP1 PUSH1 0x20 ADD KECCAK256 SWAP5 POP POP POP POP POP SWAP1 JUMP JUMPDEST PUSH0 DUP1 DUP3 PUSH0 SHR SWAP1 POP PUSH1 0x1 DUP2 PUSH2 0x580 SWAP2 SWAP1 PUSH2 0xB3D JUMP JUMPDEST PUSH0 SHL SWAP2 POP POP SWAP2 SWAP1 POP JUMP JUMPDEST PUSH1 0x60 PUSH0 DUP3 DUP2 SLOAD DUP2 LT PUSH2 0x59F JUMPI PUSH2 0x59E PUSH2 0xAE3 JUMP JUMPDEST JUMPDEST SWAP1 PUSH0 MSTORE PUSH1 0x20 PUSH0 KECCAK256 ADD DUP1 SLOAD DUP1 PUSH1 0x20 MUL PUSH1 0x20 ADD PUSH1 0x40 MLOAD SWAP1 DUP2 ADD PUSH1 0x40 MSTORE DUP1 SWAP3 SWAP2 SWAP1 DUP2 DUP2 MSTORE PUSH1 0x20 ADD DUP3 DUP1 SLOAD DUP1 ISZERO PUSH2 0x5EF JUMPI PUSH1 0x20 MUL DUP3 ADD SWAP2 SWAP1 PUSH0 MSTORE PUSH1 0x20 PUSH0 KECCAK256 SWAP1 JUMPDEST DUP2 SLOAD DUP2 MSTORE PUSH1 0x20 ADD SWAP1 PUSH1 0x1 ADD SWAP1 DUP1 DUP4 GT PUSH2 0x5DB JUMPI JUMPDEST POP POP POP POP POP SWAP1 POP SWAP2 SWAP1 POP JUMP JUMPDEST PUSH0 DUP2 SLOAD SWAP1 POP SWAP2 SWAP1 POP JUMP JUMPDEST PUSH0 DUP1 PUSH0 DUP1 SHL SWAP1 POP PUSH0 PUSH1 0x20 PUSH1 0xFF AND PUSH8 0xFFFFFFFFFFFFFFFF DUP2 GT ISZERO PUSH2 0x62B JUMPI PUSH2 0x62A PUSH2 0xAB6 JUMP JUMPDEST JUMPDEST PUSH1 0x40 MLOAD SWAP1 DUP1 DUP3 MSTORE DUP1 PUSH1 0x1F ADD PUSH1 0x1F NOT AND PUSH1 0x20 ADD DUP3 ADD PUSH1 0x40 MSTORE DUP1 ISZERO PUSH2 0x65D JUMPI DUP2 PUSH1 0x20 ADD PUSH1 0x1 DUP3 MUL DUP1 CALLDATASIZE DUP4 CALLDATACOPY DUP1 DUP3 ADD SWAP2 POP POP SWAP1 POP JUMPDEST POP SWAP1 POP PUSH0 JUMPDEST PUSH1 0x20 PUSH1 0xFF AND DUP2 LT ISZERO PUSH2 0x6D3 JUMPI DUP3 DUP2 PUSH1 0x20 DUP2 LT PUSH2 0x681 JUMPI PUSH2 0x680 PUSH2 0xAE3 JUMP JUMPDEST JUMPDEST BYTE PUSH1 0xF8 SHL DUP3 DUP3 DUP2 MLOAD DUP2 LT PUSH2 0x698 JUMPI PUSH2 0x697 PUSH2 0xAE3 JUMP JUMPDEST JUMPDEST PUSH1 0x20 ADD ADD SWAP1 PUSH31 0xFFFFFFFFFFFFFFFFFFFFFFFFFFFFFFFFFFFFFFFFFFFFFFFFFFFFFFFFFFFFFF NOT AND SWAP1 DUP2 PUSH0 BYTE SWAP1 MSTORE8 POP DUP1 DUP1 PUSH1 0x1 ADD SWAP2 POP POP PUSH2 0x662 JUMP JUMPDEST POP PUSH0 DUP6 DUP3 DUP1 MLOAD SWAP1 PUSH1 0x20 ADD KECCAK256 PUSH0 SHR PUSH2 0x6EA SWAP2 SWAP1 PUSH2 0xB3D JUMP JUMPDEST PUSH0 SHL SWAP1 POP PUSH0 PUSH1 0x20 PUSH1 0xFF AND PUSH8 0xFFFFFFFFFFFFFFFF DUP2 GT ISZERO PUSH2 0x70D JUMPI PUSH2 0x70C PUSH2 0xAB6 JUMP JUMPDEST JUMPDEST PUSH1 0x40 MLOAD SWAP1 DUP1 DUP3 MSTORE DUP1 PUSH1 0x1F ADD PUSH1 0x1F NOT AND PUSH1 0x20 ADD DUP3 ADD PUSH1 0x40 MSTORE DUP1 ISZERO PUSH2 0x73F JUMPI DUP2 PUSH1 0x20 ADD PUSH1 0x1 DUP3 MUL DUP1 CALLDATASIZE DUP4 CALLDATACOPY DUP1 DUP3 ADD SWAP2 POP POP SWAP1 POP JUMPDEST POP SWAP1 POP PUSH0 JUMPDEST PUSH1 0x20 PUSH1 0xFF AND DUP2 LT ISZERO PUSH2 0x7B5 JUMPI DUP3 DUP2 PUSH1 0x20 DUP2 LT PUSH2 0x763 JUMPI PUSH2 0x762 PUSH2 0xAE3 JUMP JUMPDEST JUMPDEST BYTE PUSH1 0xF8 SHL DUP3 DUP3 DUP2 MLOAD DUP2 LT PUSH2 0x77A JUMPI PUSH2 0x779 PUSH2 0xAE3 JUMP JUMPDEST JUMPDEST PUSH1 0x20 ADD ADD SWAP1 PUSH31 0xFFFFFFFFFFFFFFFFFFFFFFFFFFFFFFFFFFFFFFFFFFFFFFFFFFFFFFFFFFFFFF NOT AND SWAP1 DUP2 PUSH0 BYTE SWAP1 MSTORE8 POP DUP1 DUP1 PUSH1 0x1 ADD SWAP2 POP POP PUSH2 0x744 JUMP JUMPDEST POP PUSH0 PUSH2 0x100 DUP1 DUP9 PUSH2 0x7C6 SWAP2 SWAP1 PUSH2 0xB70 JUMP JUMPDEST PUSH2 0x7D0 SWAP2 SWAP1 PUSH2 0xBDE JUMP JUMPDEST SWAP1 POP DUP1 DUP3 DUP1 MLOAD SWAP1 PUSH1 0x20 ADD KECCAK256 PUSH0 SHR PUSH2 0x7E7 SWAP2 SWAP1 PUSH2 0xB3D JUMP JUMPDEST PUSH0 SHL SWAP6 POP POP POP POP POP POP SWAP3 SWAP2 POP POP JUMP JUMPDEST PUSH0 DUP3 DUP2 SLOAD DUP2 LT PUSH2 0x804 JUMPI PUSH0 DUP1 REVERT JUMPDEST SWAP1 PUSH0 MSTORE PUSH1 0x20 PUSH0 KECCAK256 ADD DUP2 DUP2 SLOAD DUP2 LT PUSH2 0x819 JUMPI PUSH0 DUP1 REVERT JUMPDEST SWAP1 PUSH0 MSTORE PUSH1 0x20 PUSH0 KECCAK256 ADD PUSH0 SWAP2 POP SWAP2 POP POP SLOAD DUP2 JUMP JUMPDEST DUP3 DUP1 SLOAD DUP3 DUP3 SSTORE SWAP1 PUSH0 MSTORE PUSH1 0x20 PUSH0 KECCAK256 SWAP1 DUP2 ADD SWAP3 DUP3 ISZERO PUSH2 0x865 JUMPI SWAP2 PUSH1 0x20 MUL DUP3 ADD JUMPDEST DUP3 DUP2 GT ISZERO PUSH2 0x864 JUMPI DUP3 MLOAD DUP3 SSTORE SWAP2 PUSH1 0x20 ADD SWAP2 SWAP1 PUSH1 0x1 ADD SWAP1 PUSH2 0x849 JUMP JUMPDEST JUMPDEST POP SWAP1 POP PUSH2 0x872 SWAP2 SWAP1 PUSH2 0x876 JUMP JUMPDEST POP SWAP1 JUMP JUMPDEST JUMPDEST DUP1 DUP3 GT ISZERO PUSH2 0x88D JUMPI PUSH0 DUP2 PUSH0 SWAP1 SSTORE POP PUSH1 0x1 ADD PUSH2 0x877 JUMP JUMPDEST POP SWAP1 JUMP JUMPDEST PUSH0 DUP1 REVERT JUMPDEST PUSH0 DUP2 SWAP1 POP SWAP2 SWAP1 POP JUMP JUMPDEST PUSH2 0x8A7 DUP2 PUSH2 0x895 JUMP JUMPDEST DUP2 EQ PUSH2 0x8B1 JUMPI PUSH0 DUP1 REVERT JUMPDEST POP JUMP JUMPDEST PUSH0 DUP2 CALLDATALOAD SWAP1 POP PUSH2 0x8C2 DUP2 PUSH2 0x89E JUMP JUMPDEST SWAP3 SWAP2 POP POP JUMP JUMPDEST PUSH0 PUSH1 0x20 DUP3 DUP5 SUB SLT ISZERO PUSH2 0x8DD JUMPI PUSH2 0x8DC PUSH2 0x891 JUMP JUMPDEST JUMPDEST PUSH0 PUSH2 0x8EA DUP5 DUP3 DUP6 ADD PUSH2 0x8B4 JUMP JUMPDEST SWAP2 POP POP SWAP3 SWAP2 POP POP JUMP JUMPDEST PUSH2 0x8FC DUP2 PUSH2 0x895 JUMP JUMPDEST DUP3 MSTORE POP POP JUMP JUMPDEST PUSH0 PUSH1 0x20 DUP3 ADD SWAP1 POP PUSH2 0x915 PUSH0 DUP4 ADD DUP5 PUSH2 0x8F3 JUMP JUMPDEST SWAP3 SWAP2 POP POP JUMP JUMPDEST PUSH0 DUP2 SWAP1 POP SWAP2 SWAP1 POP JUMP JUMPDEST PUSH2 0x92D DUP2 PUSH2 0x91B JUMP JUMPDEST DUP2 EQ PUSH2 0x937 JUMPI PUSH0 DUP1 REVERT JUMPDEST POP JUMP JUMPDEST PUSH0 DUP2 CALLDATALOAD SWAP1 POP PUSH2 0x948 DUP2 PUSH2 0x924 JUMP JUMPDEST SWAP3 SWAP2 POP POP JUMP JUMPDEST PUSH0 PUSH1 0x20 DUP3 DUP5 SUB SLT ISZERO PUSH2 0x963 JUMPI PUSH2 0x962 PUSH2 0x891 JUMP JUMPDEST JUMPDEST PUSH0 PUSH2 0x970 DUP5 DUP3 DUP6 ADD PUSH2 0x93A JUMP JUMPDEST SWAP2 POP POP SWAP3 SWAP2 POP POP JUMP JUMPDEST PUSH0 DUP2 MLOAD SWAP1 POP SWAP2 SWAP1 POP JUMP JUMPDEST PUSH0 DUP3 DUP3 MSTORE PUSH1 0x20 DUP3 ADD SWAP1 POP SWAP3 SWAP2 POP POP JUMP JUMPDEST PUSH0 DUP2 SWAP1 POP PUSH1 0x20 DUP3 ADD SWAP1 POP SWAP2 SWAP1 POP JUMP JUMPDEST PUSH2 0x9AB DUP2 PUSH2 0x91B JUMP JUMPDEST DUP3 MSTORE POP POP JUMP JUMPDEST PUSH0 PUSH2 0x9BC DUP4 DUP4 PUSH2 0x9A2 JUMP JUMPDEST PUSH1 0x20 DUP4 ADD SWAP1 POP SWAP3 SWAP2 POP POP JUMP JUMPDEST PUSH0 PUSH1 0x20 DUP3 ADD SWAP1 POP SWAP2 SWAP1 POP JUMP JUMPDEST PUSH0 PUSH2 0x9DE DUP3 PUSH2 0x979 JUMP JUMPDEST PUSH2 0x9E8 DUP2 DUP6 PUSH2 0x983 JUMP JUMPDEST SWAP4 POP PUSH2 0x9F3 DUP4 PUSH2 0x993 JUMP JUMPDEST DUP1 PUSH0 JUMPDEST DUP4 DUP2 LT ISZERO PUSH2 0xA23 JUMPI DUP2 MLOAD PUSH2 0xA0A DUP9 DUP3 PUSH2 0x9B1 JUMP JUMPDEST SWAP8 POP PUSH2 0xA15 DUP4 PUSH2 0x9C8 JUMP JUMPDEST SWAP3 POP POP PUSH1 0x1 DUP2 ADD SWAP1 POP PUSH2 0x9F6 JUMP JUMPDEST POP DUP6 SWAP4 POP POP POP POP SWAP3 SWAP2 POP POP JUMP JUMPDEST PUSH0 PUSH1 0x20 DUP3 ADD SWAP1 POP DUP2 DUP2 SUB PUSH0 DUP4 ADD MSTORE PUSH2 0xA48 DUP2 DUP5 PUSH2 0x9D4 JUMP JUMPDEST SWAP1 POP SWAP3 SWAP2 POP POP JUMP JUMPDEST PUSH2 0xA59 DUP2 PUSH2 0x91B JUMP JUMPDEST DUP3 MSTORE POP POP JUMP JUMPDEST PUSH0 PUSH1 0x20 DUP3 ADD SWAP1 POP PUSH2 0xA72 PUSH0 DUP4 ADD DUP5 PUSH2 0xA50 JUMP JUMPDEST SWAP3 SWAP2 POP POP JUMP JUMPDEST PUSH0 DUP1 PUSH1 0x40 DUP4 DUP6 SUB SLT ISZERO PUSH2 0xA8E JUMPI PUSH2 0xA8D PUSH2 0x891 JUMP JUMPDEST JUMPDEST PUSH0 PUSH2 0xA9B DUP6 DUP3 DUP7 ADD PUSH2 0x93A JUMP JUMPDEST SWAP3 POP POP PUSH1 0x20 PUSH2 0xAAC DUP6 DUP3 DUP7 ADD PUSH2 0x93A JUMP JUMPDEST SWAP2 POP POP SWAP3 POP SWAP3 SWAP1 POP JUMP JUMPDEST PUSH32 0x4E487B7100000000000000000000000000000000000000000000000000000000 PUSH0 MSTORE PUSH1 0x41 PUSH1 0x4 MSTORE PUSH1 0x24 PUSH0 REVERT JUMPDEST PUSH32 0x4E487B7100000000000000000000000000000000000000000000000000000000 PUSH0 MSTORE PUSH1 0x32 PUSH1 0x4 MSTORE PUSH1 0x24 PUSH0 REVERT JUMPDEST PUSH32 0x4E487B7100000000000000000000000000000000000000000000000000000000 PUSH0 MSTORE PUSH1 0x11 PUSH1 0x4 MSTORE PUSH1 0x24 PUSH0 REVERT JUMPDEST PUSH0 PUSH2 0xB47 DUP3 PUSH2 0x91B JUMP JUMPDEST SWAP2 POP PUSH2 0xB52 DUP4 PUSH2 0x91B JUMP JUMPDEST SWAP3 POP DUP3 DUP3 ADD SWAP1 POP DUP1 DUP3 GT ISZERO PUSH2 0xB6A JUMPI PUSH2 0xB69 PUSH2 0xB10 JUMP JUMPDEST JUMPDEST SWAP3 SWAP2 POP POP JUMP JUMPDEST PUSH0 PUSH2 0xB7A DUP3 PUSH2 0x91B JUMP JUMPDEST SWAP2 POP PUSH2 0xB85 DUP4 PUSH2 0x91B JUMP JUMPDEST SWAP3 POP DUP3 DUP3 MUL PUSH2 0xB93 DUP2 PUSH2 0x91B JUMP JUMPDEST SWAP2 POP DUP3 DUP3 DIV DUP5 EQ DUP4 ISZERO OR PUSH2 0xBAA JUMPI PUSH2 0xBA9 PUSH2 0xB10 JUMP JUMPDEST JUMPDEST POP SWAP3 SWAP2 POP POP JUMP JUMPDEST PUSH32 0x4E487B7100000000000000000000000000000000000000000000000000000000 PUSH0 MSTORE PUSH1 0x12 PUSH1 0x4 MSTORE PUSH1 0x24 PUSH0 REVERT JUMPDEST PUSH0 PUSH2 0xBE8 DUP3 PUSH2 0x91B JUMP JUMPDEST SWAP2 POP PUSH2 0xBF3 DUP4 PUSH2 0x91B JUMP JUMPDEST SWAP3 POP DUP3 PUSH2 0xC03 JUMPI PUSH2 0xC02 PUSH2 0xBB1 JUMP JUMPDEST JUMPDEST DUP3 DUP3 DIV SWAP1 POP SWAP3 SWAP2 POP POP JUMP INVALID LOG2 PUSH5 0x6970667358 0x22 SLT KECCAK256 DUP5 CHAINID DUP3 0xE7 SLT DUP2 SWAP8 0xC3 0x28 PUSH9 0xD9AE8D919186B5A454 SWAP8 CREATE POP 0xDA 0xEF 0x2E SELFDESTRUCT 0x4F DUP7 OR 0xD8 SWAP12 DUP15 PUSH5 0x736F6C6343 STOP ADDMOD AND STOP CALLER "
				},
				"gasEstimates": {
					"creation": {
						"codeDepositCost": "628000",
						"executionCost": "662",
						"totalCost": "628662"
					},
					"external": {
						"add(bytes32)": "infinite",
						"countLocal()": "infinite",
						"countLocal1(bytes32)": "infinite",
						"getDateFromLocal(bytes32)": "2715",
						"getLocal(uint256,uint256)": "infinite",
						"getSecArr(uint256)": "infinite",
						"secArr(uint256,uint256)": "infinite"
					}
				},
				"methodIdentifiers": {
					"add(bytes32)": "446bffba",
					"countLocal()": "23106c65",
					"countLocal1(bytes32)": "0c5a8a4d",
					"getDateFromLocal(bytes32)": "86fa04c9",
					"getLocal(uint256,uint256)": "a8ff75ad",
					"getSecArr(uint256)": "69237b87",
					"secArr(uint256,uint256)": "ec16537b"
				}
			},
			"storageLayout": {
				"storage": [
					{
						"astId": 5,
						"contract": "contracts/Test.sol:Demo",
						"label": "secArr",
						"offset": 0,
						"slot": "0",
						"type": "t_array(t_array(t_uint256)dyn_storage)dyn_storage"
					}
				],
				"types": {
					"t_array(t_array(t_uint256)dyn_storage)dyn_storage": {
						"base": "t_array(t_uint256)dyn_storage",
						"encoding": "dynamic_array",
						"label": "uint256[][]",
						"numberOfBytes": "32"
					},
					"t_array(t_uint256)dyn_storage": {
						"base": "t_uint256",
						"encoding": "dynamic_array",
						"label": "uint256[]",
						"numberOfBytes": "32"
					},
					"t_uint256": {
						"encoding": "inplace",
						"label": "uint256",
						"numberOfBytes": "32"
					}
				}
			},
			"userdoc": {
				"kind": "user",
				"methods": {},
				"version": 1
			}
		}
	}
}