{
	"contracts/ERC1822.sol": {
		"MyToken": {
			"abi": [
				{
					"inputs": [
						{
							"internalType": "uint256",
							"name": "_initialSupply",
							"type": "uint256"
						}
					],
					"name": "constructor1",
					"outputs": [],
					"stateMutability": "nonpayable",
					"type": "function"
				},
				{
					"inputs": [],
					"name": "initialized",
					"outputs": [
						{
							"internalType": "bool",
							"name": "",
							"type": "bool"
						}
					],
					"stateMutability": "view",
					"type": "function"
				},
				{
					"inputs": [],
					"name": "proxiableUUID",
					"outputs": [
						{
							"internalType": "bytes32",
							"name": "",
							"type": "bytes32"
						}
					],
					"stateMutability": "pure",
					"type": "function"
				},
				{
					"inputs": [
						{
							"internalType": "address",
							"name": "",
							"type": "address"
						}
					],
					"name": "tokens",
					"outputs": [
						{
							"internalType": "uint256",
							"name": "",
							"type": "uint256"
						}
					],
					"stateMutability": "view",
					"type": "function"
				},
				{
					"inputs": [],
					"name": "totalSupply",
					"outputs": [
						{
							"internalType": "uint256",
							"name": "",
							"type": "uint256"
						}
					],
					"stateMutability": "view",
					"type": "function"
				},
				{
					"inputs": [
						{
							"internalType": "address",
							"name": "to",
							"type": "address"
						},
						{
							"internalType": "uint256",
							"name": "amount",
							"type": "uint256"
						}
					],
					"name": "transfer",
					"outputs": [],
					"stateMutability": "nonpayable",
					"type": "function"
				},
				{
					"inputs": [
						{
							"internalType": "address",
							"name": "newCode",
							"type": "address"
						}
					],
					"name": "updateCode",
					"outputs": [],
					"stateMutability": "nonpayable",
					"type": "function"
				}
			],
			"devdoc": {
				"kind": "dev",
				"methods": {},
				"version": 1
			},
			"evm": {
				"assembly": "    /* \"contracts/ERC1822.sol\":1884:2411  contract MyToken is ERC20DataLayout, ERC20, Owned, Proxiable, LibraryLock {... */\n  mstore(0x40, 0x80)\n    /* \"contracts/ERC1822.sol\":1076:1081  false */\n  0x00\n    /* \"contracts/ERC1822.sol\":1050:1081  bool public initialized = false */\n  dup1\n  exp(0x0100, 0x00)\n  dup2\n  sload\n  dup2\n  0xff\n  mul\n  not\n  and\n  swap1\n  dup4\n  iszero\n  iszero\n  mul\n  or\n  swap1\n  sstore\n  pop\n    /* \"contracts/ERC1822.sol\":1884:2411  contract MyToken is ERC20DataLayout, ERC20, Owned, Proxiable, LibraryLock {... */\n  callvalue\n  dup1\n  iszero\n  tag_1\n  jumpi\n  0x00\n  dup1\n  revert\ntag_1:\n  pop\n  dataSize(sub_0)\n  dup1\n  dataOffset(sub_0)\n  0x00\n  codecopy\n  0x00\n  return\nstop\n\nsub_0: assembly {\n        /* \"contracts/ERC1822.sol\":1884:2411  contract MyToken is ERC20DataLayout, ERC20, Owned, Proxiable, LibraryLock {... */\n      mstore(0x40, 0x80)\n      callvalue\n      dup1\n      iszero\n      tag_1\n      jumpi\n      0x00\n      dup1\n      revert\n    tag_1:\n      pop\n      jumpi(tag_2, lt(calldatasize, 0x04))\n      shr(0xe0, calldataload(0x00))\n      dup1\n      0x52d1902d\n      gt\n      tag_10\n      jumpi\n      dup1\n      0x52d1902d\n      eq\n      tag_6\n      jumpi\n      dup1\n      0x828d2a42\n      eq\n      tag_7\n      jumpi\n      dup1\n      0xa9059cbb\n      eq\n      tag_8\n      jumpi\n      dup1\n      0xe4860339\n      eq\n      tag_9\n      jumpi\n      jump(tag_2)\n    tag_10:\n      dup1\n      0x158ef93e\n      eq\n      tag_3\n      jumpi\n      dup1\n      0x18160ddd\n      eq\n      tag_4\n      jumpi\n      dup1\n      0x46951954\n      eq\n      tag_5\n      jumpi\n    tag_2:\n      0x00\n      dup1\n      revert\n        /* \"contracts/ERC1822.sol\":1050:1081  bool public initialized = false */\n    tag_3:\n      tag_11\n      tag_12\n      jump\t// in\n    tag_11:\n      mload(0x40)\n      tag_13\n      swap2\n      swap1\n      tag_14\n      jump\t// in\n    tag_13:\n      mload(0x40)\n      dup1\n      swap2\n      sub\n      swap1\n      return\n        /* \"contracts/ERC1822.sol\":1534:1560  uint256 public totalSupply */\n    tag_4:\n      tag_15\n      tag_16\n      jump\t// in\n    tag_15:\n      mload(0x40)\n      tag_17\n      swap2\n      swap1\n      tag_18\n      jump\t// in\n    tag_17:\n      mload(0x40)\n      dup1\n      swap2\n      sub\n      swap1\n      return\n        /* \"contracts/ERC1822.sol\":2173:2287  function updateCode(address newCode) public onlyOwner delegatedOnly  {... */\n    tag_5:\n      tag_19\n      0x04\n      dup1\n      calldatasize\n      sub\n      dup2\n      add\n      swap1\n      tag_20\n      swap2\n      swap1\n      tag_21\n      jump\t// in\n    tag_20:\n      tag_22\n      jump\t// in\n    tag_19:\n      stop\n        /* \"contracts/ERC1822.sol\":594:741  function proxiableUUID() public pure returns (bytes32) {... */\n    tag_6:\n      tag_23\n      tag_24\n      jump\t// in\n    tag_23:\n      mload(0x40)\n      tag_25\n      swap2\n      swap1\n      tag_26\n      jump\t// in\n    tag_25:\n      mload(0x40)\n      dup1\n      swap2\n      sub\n      swap1\n      return\n        /* \"contracts/ERC1822.sol\":1967:2167  function constructor1(uint256 _initialSupply) public {... */\n    tag_7:\n      tag_27\n      0x04\n      dup1\n      calldatasize\n      sub\n      dup2\n      add\n      swap1\n      tag_28\n      swap2\n      swap1\n      tag_29\n      jump\t// in\n    tag_28:\n      tag_30\n      jump\t// in\n    tag_27:\n      stop\n        /* \"contracts/ERC1822.sol\":2293:2408  function transfer(address to, uint256 amount) public delegatedOnly {... */\n    tag_8:\n      tag_31\n      0x04\n      dup1\n      calldatasize\n      sub\n      dup2\n      add\n      swap1\n      tag_32\n      swap2\n      swap1\n      tag_33\n      jump\t// in\n    tag_32:\n      tag_34\n      jump\t// in\n    tag_31:\n      stop\n        /* \"contracts/ERC1822.sol\":1565:1604  mapping(address=>uint256) public tokens */\n    tag_9:\n      tag_35\n      0x04\n      dup1\n      calldatasize\n      sub\n      dup2\n      add\n      swap1\n      tag_36\n      swap2\n      swap1\n      tag_21\n      jump\t// in\n    tag_36:\n      tag_37\n      jump\t// in\n    tag_35:\n      mload(0x40)\n      tag_38\n      swap2\n      swap1\n      tag_18\n      jump\t// in\n    tag_38:\n      mload(0x40)\n      dup1\n      swap2\n      sub\n      swap1\n      return\n        /* \"contracts/ERC1822.sol\":1050:1081  bool public initialized = false */\n    tag_12:\n      0x00\n      dup1\n      sload\n      swap1\n      0x0100\n      exp\n      swap1\n      div\n      0xff\n      and\n      dup2\n      jump\t// out\n        /* \"contracts/ERC1822.sol\":1534:1560  uint256 public totalSupply */\n    tag_16:\n      sload(0x01)\n      dup2\n      jump\t// out\n        /* \"contracts/ERC1822.sol\":2173:2287  function updateCode(address newCode) public onlyOwner delegatedOnly  {... */\n    tag_22:\n        /* \"contracts/ERC1822.sol\":933:938  owner */\n      0x03\n      0x00\n      swap1\n      sload\n      swap1\n      0x0100\n      exp\n      swap1\n      div\n      0xffffffffffffffffffffffffffffffffffffffff\n      and\n        /* \"contracts/ERC1822.sol\":919:938  msg.sender == owner */\n      0xffffffffffffffffffffffffffffffffffffffff\n      and\n        /* \"contracts/ERC1822.sol\":919:929  msg.sender */\n      caller\n        /* \"contracts/ERC1822.sol\":919:938  msg.sender == owner */\n      0xffffffffffffffffffffffffffffffffffffffff\n      and\n      eq\n        /* \"contracts/ERC1822.sol\":911:987  require(msg.sender == owner, \"Only owner is allowed to perform this action\") */\n      tag_40\n      jumpi\n      mload(0x40)\n      0x08c379a000000000000000000000000000000000000000000000000000000000\n      dup2\n      mstore\n      0x04\n      add\n      tag_41\n      swap1\n      tag_42\n      jump\t// in\n    tag_41:\n      mload(0x40)\n      dup1\n      swap2\n      sub\n      swap1\n      revert\n    tag_40:\n        /* \"contracts/ERC1822.sol\":1319:1323  true */\n      0x01\n        /* \"contracts/ERC1822.sol\":1304:1323  initialized == true */\n      iszero\n      iszero\n        /* \"contracts/ERC1822.sol\":1304:1315  initialized */\n      0x00\n      dup1\n      sload\n      swap1\n      0x0100\n      exp\n      swap1\n      div\n      0xff\n      and\n        /* \"contracts/ERC1822.sol\":1304:1323  initialized == true */\n      iszero\n      iszero\n      eq\n        /* \"contracts/ERC1822.sol\":1296:1378  require(initialized == true, \"The library is locked. No direct 'call' is allowed\") */\n      tag_44\n      jumpi\n      mload(0x40)\n      0x08c379a000000000000000000000000000000000000000000000000000000000\n      dup2\n      mstore\n      0x04\n      add\n      tag_45\n      swap1\n      tag_46\n      jump\t// in\n    tag_45:\n      mload(0x40)\n      dup1\n      swap2\n      sub\n      swap1\n      revert\n    tag_44:\n        /* \"contracts/ERC1822.sol\":2253:2279  updateCodeAddress(newCode) */\n      tag_48\n        /* \"contracts/ERC1822.sol\":2271:2278  newCode */\n      dup2\n        /* \"contracts/ERC1822.sol\":2253:2270  updateCodeAddress */\n      tag_49\n        /* \"contracts/ERC1822.sol\":2253:2279  updateCodeAddress(newCode) */\n      jump\t// in\n    tag_48:\n        /* \"contracts/ERC1822.sol\":2173:2287  function updateCode(address newCode) public onlyOwner delegatedOnly  {... */\n      pop\n      jump\t// out\n        /* \"contracts/ERC1822.sol\":594:741  function proxiableUUID() public pure returns (bytes32) {... */\n    tag_24:\n        /* \"contracts/ERC1822.sol\":640:647  bytes32 */\n      0x00\n        /* \"contracts/ERC1822.sol\":667:733  0xc5f16f0fcc639fa48a6947836d9850f504798523bf8c9a3a87d5876cf622bcf7 */\n      0xc5f16f0fcc639fa48a6947836d9850f504798523bf8c9a3a87d5876cf622bcf7\n        /* \"contracts/ERC1822.sol\":660:733  return 0xc5f16f0fcc639fa48a6947836d9850f504798523bf8c9a3a87d5876cf622bcf7 */\n      0x00\n      shl\n      swap1\n      pop\n        /* \"contracts/ERC1822.sol\":594:741  function proxiableUUID() public pure returns (bytes32) {... */\n      swap1\n      jump\t// out\n        /* \"contracts/ERC1822.sol\":1967:2167  function constructor1(uint256 _initialSupply) public {... */\n    tag_30:\n        /* \"contracts/ERC1822.sol\":2045:2059  _initialSupply */\n      dup1\n        /* \"contracts/ERC1822.sol\":2031:2042  totalSupply */\n      0x01\n        /* \"contracts/ERC1822.sol\":2031:2059  totalSupply = _initialSupply */\n      dup2\n      swap1\n      sstore\n      pop\n        /* \"contracts/ERC1822.sol\":2091:2105  _initialSupply */\n      dup1\n        /* \"contracts/ERC1822.sol\":2070:2076  tokens */\n      0x02\n        /* \"contracts/ERC1822.sol\":2070:2088  tokens[msg.sender] */\n      0x00\n        /* \"contracts/ERC1822.sol\":2077:2087  msg.sender */\n      caller\n        /* \"contracts/ERC1822.sol\":2070:2088  tokens[msg.sender] */\n      0xffffffffffffffffffffffffffffffffffffffff\n      and\n      0xffffffffffffffffffffffffffffffffffffffff\n      and\n      dup2\n      mstore\n      0x20\n      add\n      swap1\n      dup2\n      mstore\n      0x20\n      add\n      0x00\n      keccak256\n        /* \"contracts/ERC1822.sol\":2070:2105  tokens[msg.sender] = _initialSupply */\n      dup2\n      swap1\n      sstore\n      pop\n        /* \"contracts/ERC1822.sol\":2116:2128  initialize() */\n      tag_52\n        /* \"contracts/ERC1822.sol\":2116:2126  initialize */\n      tag_53\n        /* \"contracts/ERC1822.sol\":2116:2128  initialize() */\n      jump\t// in\n    tag_52:\n        /* \"contracts/ERC1822.sol\":2139:2159  setOwner(msg.sender) */\n      tag_54\n        /* \"contracts/ERC1822.sol\":2148:2158  msg.sender */\n      caller\n        /* \"contracts/ERC1822.sol\":2139:2147  setOwner */\n      tag_55\n        /* \"contracts/ERC1822.sol\":2139:2159  setOwner(msg.sender) */\n      jump\t// in\n    tag_54:\n        /* \"contracts/ERC1822.sol\":1967:2167  function constructor1(uint256 _initialSupply) public {... */\n      pop\n      jump\t// out\n        /* \"contracts/ERC1822.sol\":2293:2408  function transfer(address to, uint256 amount) public delegatedOnly {... */\n    tag_34:\n        /* \"contracts/ERC1822.sol\":1319:1323  true */\n      0x01\n        /* \"contracts/ERC1822.sol\":1304:1323  initialized == true */\n      iszero\n      iszero\n        /* \"contracts/ERC1822.sol\":1304:1315  initialized */\n      0x00\n      dup1\n      sload\n      swap1\n      0x0100\n      exp\n      swap1\n      div\n      0xff\n      and\n        /* \"contracts/ERC1822.sol\":1304:1323  initialized == true */\n      iszero\n      iszero\n      eq\n        /* \"contracts/ERC1822.sol\":1296:1378  require(initialized == true, \"The library is locked. No direct 'call' is allowed\") */\n      tag_57\n      jumpi\n      mload(0x40)\n      0x08c379a000000000000000000000000000000000000000000000000000000000\n      dup2\n      mstore\n      0x04\n      add\n      tag_58\n      swap1\n      tag_46\n      jump\t// in\n    tag_58:\n      mload(0x40)\n      dup1\n      swap2\n      sub\n      swap1\n      revert\n    tag_57:\n        /* \"contracts/ERC1822.sol\":2293:2408  function transfer(address to, uint256 amount) public delegatedOnly {... */\n      pop\n      pop\n      jump\t// out\n        /* \"contracts/ERC1822.sol\":1565:1604  mapping(address=>uint256) public tokens */\n    tag_37:\n      mstore(0x20, 0x02)\n      dup1\n      0x00\n      mstore\n      keccak256(0x00, 0x40)\n      0x00\n      swap2\n      pop\n      swap1\n      pop\n      sload\n      dup2\n      jump\t// out\n        /* \"contracts/ERC1822.sol\":217:588  function updateCodeAddress(address newAddress) internal {... */\n    tag_49:\n        /* \"contracts/ERC1822.sol\":381:391  newAddress */\n      dup1\n        /* \"contracts/ERC1822.sol\":371:406  Proxiable(newAddress).proxiableUUID */\n      0xffffffffffffffffffffffffffffffffffffffff\n      and\n      0x52d1902d\n        /* \"contracts/ERC1822.sol\":371:408  Proxiable(newAddress).proxiableUUID() */\n      mload(0x40)\n      dup2\n      0xffffffff\n      and\n      0xe0\n      shl\n      dup2\n      mstore\n      0x04\n      add\n      0x20\n      mload(0x40)\n      dup1\n      dup4\n      sub\n      dup2\n      dup7\n      gas\n      staticcall\n      iszero\n      dup1\n      iszero\n      tag_62\n      jumpi\n      returndatasize\n      0x00\n      dup1\n      returndatacopy\n      revert(0x00, returndatasize)\n    tag_62:\n      pop\n      pop\n      pop\n      pop\n      mload(0x40)\n      returndatasize\n      not(0x1f)\n      0x1f\n      dup3\n      add\n      and\n      dup3\n      add\n      dup1\n      0x40\n      mstore\n      pop\n      dup2\n      add\n      swap1\n      tag_63\n      swap2\n      swap1\n      tag_64\n      jump\t// in\n    tag_63:\n        /* \"contracts/ERC1822.sol\":300:366  0xc5f16f0fcc639fa48a6947836d9850f504798523bf8c9a3a87d5876cf622bcf7 */\n      0xc5f16f0fcc639fa48a6947836d9850f504798523bf8c9a3a87d5876cf622bcf7\n        /* \"contracts/ERC1822.sol\":292:367  bytes32(0xc5f16f0fcc639fa48a6947836d9850f504798523bf8c9a3a87d5876cf622bcf7) */\n      0x00\n      shl\n        /* \"contracts/ERC1822.sol\":292:408  bytes32(0xc5f16f0fcc639fa48a6947836d9850f504798523bf8c9a3a87d5876cf622bcf7) == Proxiable(newAddress).proxiableUUID() */\n      eq\n        /* \"contracts/ERC1822.sol\":284:426  require(bytes32(0xc5f16f0fcc639fa48a6947836d9850f504798523bf8c9a3a87d5876cf622bcf7) == Proxiable(newAddress).proxiableUUID(),\"Not compatible\") */\n      tag_65\n      jumpi\n      mload(0x40)\n      0x08c379a000000000000000000000000000000000000000000000000000000000\n      dup2\n      mstore\n      0x04\n      add\n      tag_66\n      swap1\n      tag_67\n      jump\t// in\n    tag_66:\n      mload(0x40)\n      dup1\n      swap2\n      sub\n      swap1\n      revert\n    tag_65:\n        /* \"contracts/ERC1822.sol\":559:569  newAddress */\n      dup1\n        /* \"contracts/ERC1822.sol\":491:557  0xc5f16f0fcc639fa48a6947836d9850f504798523bf8c9a3a87d5876cf622bcf7 */\n      0xc5f16f0fcc639fa48a6947836d9850f504798523bf8c9a3a87d5876cf622bcf7\n        /* \"contracts/ERC1822.sol\":484:570  sstore(0xc5f16f0fcc639fa48a6947836d9850f504798523bf8c9a3a87d5876cf622bcf7, newAddress) */\n      sstore\n        /* \"contracts/ERC1822.sol\":217:588  function updateCodeAddress(address newAddress) internal {... */\n      pop\n      jump\t// out\n        /* \"contracts/ERC1822.sol\":1404:1472  function initialize() internal {... */\n    tag_53:\n        /* \"contracts/ERC1822.sol\":1460:1464  true */\n      0x01\n        /* \"contracts/ERC1822.sol\":1446:1457  initialized */\n      0x00\n      dup1\n        /* \"contracts/ERC1822.sol\":1446:1464  initialized = true */\n      0x0100\n      exp\n      dup2\n      sload\n      dup2\n      0xff\n      mul\n      not\n      and\n      swap1\n      dup4\n      iszero\n      iszero\n      mul\n      or\n      swap1\n      sstore\n      pop\n        /* \"contracts/ERC1822.sol\":1404:1472  function initialize() internal {... */\n      jump\t// out\n        /* \"contracts/ERC1822.sol\":797:873  function setOwner(address _owner) internal {... */\n    tag_55:\n        /* \"contracts/ERC1822.sol\":859:865  _owner */\n      dup1\n        /* \"contracts/ERC1822.sol\":851:856  owner */\n      0x03\n      0x00\n        /* \"contracts/ERC1822.sol\":851:865  owner = _owner */\n      0x0100\n      exp\n      dup2\n      sload\n      dup2\n      0xffffffffffffffffffffffffffffffffffffffff\n      mul\n      not\n      and\n      swap1\n      dup4\n      0xffffffffffffffffffffffffffffffffffffffff\n      and\n      mul\n      or\n      swap1\n      sstore\n      pop\n        /* \"contracts/ERC1822.sol\":797:873  function setOwner(address _owner) internal {... */\n      pop\n      jump\t// out\n        /* \"#utility.yul\":7:97   */\n    tag_70:\n        /* \"#utility.yul\":41:48   */\n      0x00\n        /* \"#utility.yul\":84:89   */\n      dup2\n        /* \"#utility.yul\":77:90   */\n      iszero\n        /* \"#utility.yul\":70:91   */\n      iszero\n        /* \"#utility.yul\":59:91   */\n      swap1\n      pop\n        /* \"#utility.yul\":7:97   */\n      swap2\n      swap1\n      pop\n      jump\t// out\n        /* \"#utility.yul\":103:212   */\n    tag_71:\n        /* \"#utility.yul\":184:205   */\n      tag_97\n        /* \"#utility.yul\":199:204   */\n      dup2\n        /* \"#utility.yul\":184:205   */\n      tag_70\n      jump\t// in\n    tag_97:\n        /* \"#utility.yul\":179:182   */\n      dup3\n        /* \"#utility.yul\":172:206   */\n      mstore\n        /* \"#utility.yul\":103:212   */\n      pop\n      pop\n      jump\t// out\n        /* \"#utility.yul\":218:428   */\n    tag_14:\n        /* \"#utility.yul\":305:309   */\n      0x00\n        /* \"#utility.yul\":343:345   */\n      0x20\n        /* \"#utility.yul\":332:341   */\n      dup3\n        /* \"#utility.yul\":328:346   */\n      add\n        /* \"#utility.yul\":320:346   */\n      swap1\n      pop\n        /* \"#utility.yul\":356:421   */\n      tag_99\n        /* \"#utility.yul\":418:419   */\n      0x00\n        /* \"#utility.yul\":407:416   */\n      dup4\n        /* \"#utility.yul\":403:420   */\n      add\n        /* \"#utility.yul\":394:400   */\n      dup5\n        /* \"#utility.yul\":356:421   */\n      tag_71\n      jump\t// in\n    tag_99:\n        /* \"#utility.yul\":218:428   */\n      swap3\n      swap2\n      pop\n      pop\n      jump\t// out\n        /* \"#utility.yul\":434:511   */\n    tag_72:\n        /* \"#utility.yul\":471:478   */\n      0x00\n        /* \"#utility.yul\":500:505   */\n      dup2\n        /* \"#utility.yul\":489:505   */\n      swap1\n      pop\n        /* \"#utility.yul\":434:511   */\n      swap2\n      swap1\n      pop\n      jump\t// out\n        /* \"#utility.yul\":517:635   */\n    tag_73:\n        /* \"#utility.yul\":604:628   */\n      tag_102\n        /* \"#utility.yul\":622:627   */\n      dup2\n        /* \"#utility.yul\":604:628   */\n      tag_72\n      jump\t// in\n    tag_102:\n        /* \"#utility.yul\":599:602   */\n      dup3\n        /* \"#utility.yul\":592:629   */\n      mstore\n        /* \"#utility.yul\":517:635   */\n      pop\n      pop\n      jump\t// out\n        /* \"#utility.yul\":641:863   */\n    tag_18:\n        /* \"#utility.yul\":734:738   */\n      0x00\n        /* \"#utility.yul\":772:774   */\n      0x20\n        /* \"#utility.yul\":761:770   */\n      dup3\n        /* \"#utility.yul\":757:775   */\n      add\n        /* \"#utility.yul\":749:775   */\n      swap1\n      pop\n        /* \"#utility.yul\":785:856   */\n      tag_104\n        /* \"#utility.yul\":853:854   */\n      0x00\n        /* \"#utility.yul\":842:851   */\n      dup4\n        /* \"#utility.yul\":838:855   */\n      add\n        /* \"#utility.yul\":829:835   */\n      dup5\n        /* \"#utility.yul\":785:856   */\n      tag_73\n      jump\t// in\n    tag_104:\n        /* \"#utility.yul\":641:863   */\n      swap3\n      swap2\n      pop\n      pop\n      jump\t// out\n        /* \"#utility.yul\":950:1067   */\n    tag_75:\n        /* \"#utility.yul\":1059:1060   */\n      0x00\n        /* \"#utility.yul\":1056:1057   */\n      dup1\n        /* \"#utility.yul\":1049:1061   */\n      revert\n        /* \"#utility.yul\":1196:1322   */\n    tag_77:\n        /* \"#utility.yul\":1233:1240   */\n      0x00\n        /* \"#utility.yul\":1273:1315   */\n      0xffffffffffffffffffffffffffffffffffffffff\n        /* \"#utility.yul\":1266:1271   */\n      dup3\n        /* \"#utility.yul\":1262:1316   */\n      and\n        /* \"#utility.yul\":1251:1316   */\n      swap1\n      pop\n        /* \"#utility.yul\":1196:1322   */\n      swap2\n      swap1\n      pop\n      jump\t// out\n        /* \"#utility.yul\":1328:1424   */\n    tag_78:\n        /* \"#utility.yul\":1365:1372   */\n      0x00\n        /* \"#utility.yul\":1394:1418   */\n      tag_110\n        /* \"#utility.yul\":1412:1417   */\n      dup3\n        /* \"#utility.yul\":1394:1418   */\n      tag_77\n      jump\t// in\n    tag_110:\n        /* \"#utility.yul\":1383:1418   */\n      swap1\n      pop\n        /* \"#utility.yul\":1328:1424   */\n      swap2\n      swap1\n      pop\n      jump\t// out\n        /* \"#utility.yul\":1430:1552   */\n    tag_79:\n        /* \"#utility.yul\":1503:1527   */\n      tag_112\n        /* \"#utility.yul\":1521:1526   */\n      dup2\n        /* \"#utility.yul\":1503:1527   */\n      tag_78\n      jump\t// in\n    tag_112:\n        /* \"#utility.yul\":1496:1501   */\n      dup2\n        /* \"#utility.yul\":1493:1528   */\n      eq\n        /* \"#utility.yul\":1483:1546   */\n      tag_113\n      jumpi\n        /* \"#utility.yul\":1542:1543   */\n      0x00\n        /* \"#utility.yul\":1539:1540   */\n      dup1\n        /* \"#utility.yul\":1532:1544   */\n      revert\n        /* \"#utility.yul\":1483:1546   */\n    tag_113:\n        /* \"#utility.yul\":1430:1552   */\n      pop\n      jump\t// out\n        /* \"#utility.yul\":1558:1697   */\n    tag_80:\n        /* \"#utility.yul\":1604:1609   */\n      0x00\n        /* \"#utility.yul\":1642:1648   */\n      dup2\n        /* \"#utility.yul\":1629:1649   */\n      calldataload\n        /* \"#utility.yul\":1620:1649   */\n      swap1\n      pop\n        /* \"#utility.yul\":1658:1691   */\n      tag_115\n        /* \"#utility.yul\":1685:1690   */\n      dup2\n        /* \"#utility.yul\":1658:1691   */\n      tag_79\n      jump\t// in\n    tag_115:\n        /* \"#utility.yul\":1558:1697   */\n      swap3\n      swap2\n      pop\n      pop\n      jump\t// out\n        /* \"#utility.yul\":1703:2032   */\n    tag_21:\n        /* \"#utility.yul\":1762:1768   */\n      0x00\n        /* \"#utility.yul\":1811:1813   */\n      0x20\n        /* \"#utility.yul\":1799:1808   */\n      dup3\n        /* \"#utility.yul\":1790:1797   */\n      dup5\n        /* \"#utility.yul\":1786:1809   */\n      sub\n        /* \"#utility.yul\":1782:1814   */\n      slt\n        /* \"#utility.yul\":1779:1898   */\n      iszero\n      tag_117\n      jumpi\n        /* \"#utility.yul\":1817:1896   */\n      tag_118\n      tag_75\n      jump\t// in\n    tag_118:\n        /* \"#utility.yul\":1779:1898   */\n    tag_117:\n        /* \"#utility.yul\":1937:1938   */\n      0x00\n        /* \"#utility.yul\":1962:2015   */\n      tag_119\n        /* \"#utility.yul\":2007:2014   */\n      dup5\n        /* \"#utility.yul\":1998:2004   */\n      dup3\n        /* \"#utility.yul\":1987:1996   */\n      dup6\n        /* \"#utility.yul\":1983:2005   */\n      add\n        /* \"#utility.yul\":1962:2015   */\n      tag_80\n      jump\t// in\n    tag_119:\n        /* \"#utility.yul\":1952:2015   */\n      swap2\n      pop\n        /* \"#utility.yul\":1908:2025   */\n      pop\n        /* \"#utility.yul\":1703:2032   */\n      swap3\n      swap2\n      pop\n      pop\n      jump\t// out\n        /* \"#utility.yul\":2038:2115   */\n    tag_81:\n        /* \"#utility.yul\":2075:2082   */\n      0x00\n        /* \"#utility.yul\":2104:2109   */\n      dup2\n        /* \"#utility.yul\":2093:2109   */\n      swap1\n      pop\n        /* \"#utility.yul\":2038:2115   */\n      swap2\n      swap1\n      pop\n      jump\t// out\n        /* \"#utility.yul\":2121:2239   */\n    tag_82:\n        /* \"#utility.yul\":2208:2232   */\n      tag_122\n        /* \"#utility.yul\":2226:2231   */\n      dup2\n        /* \"#utility.yul\":2208:2232   */\n      tag_81\n      jump\t// in\n    tag_122:\n        /* \"#utility.yul\":2203:2206   */\n      dup3\n        /* \"#utility.yul\":2196:2233   */\n      mstore\n        /* \"#utility.yul\":2121:2239   */\n      pop\n      pop\n      jump\t// out\n        /* \"#utility.yul\":2245:2467   */\n    tag_26:\n        /* \"#utility.yul\":2338:2342   */\n      0x00\n        /* \"#utility.yul\":2376:2378   */\n      0x20\n        /* \"#utility.yul\":2365:2374   */\n      dup3\n        /* \"#utility.yul\":2361:2379   */\n      add\n        /* \"#utility.yul\":2353:2379   */\n      swap1\n      pop\n        /* \"#utility.yul\":2389:2460   */\n      tag_124\n        /* \"#utility.yul\":2457:2458   */\n      0x00\n        /* \"#utility.yul\":2446:2455   */\n      dup4\n        /* \"#utility.yul\":2442:2459   */\n      add\n        /* \"#utility.yul\":2433:2439   */\n      dup5\n        /* \"#utility.yul\":2389:2460   */\n      tag_82\n      jump\t// in\n    tag_124:\n        /* \"#utility.yul\":2245:2467   */\n      swap3\n      swap2\n      pop\n      pop\n      jump\t// out\n        /* \"#utility.yul\":2473:2595   */\n    tag_83:\n        /* \"#utility.yul\":2546:2570   */\n      tag_126\n        /* \"#utility.yul\":2564:2569   */\n      dup2\n        /* \"#utility.yul\":2546:2570   */\n      tag_72\n      jump\t// in\n    tag_126:\n        /* \"#utility.yul\":2539:2544   */\n      dup2\n        /* \"#utility.yul\":2536:2571   */\n      eq\n        /* \"#utility.yul\":2526:2589   */\n      tag_127\n      jumpi\n        /* \"#utility.yul\":2585:2586   */\n      0x00\n        /* \"#utility.yul\":2582:2583   */\n      dup1\n        /* \"#utility.yul\":2575:2587   */\n      revert\n        /* \"#utility.yul\":2526:2589   */\n    tag_127:\n        /* \"#utility.yul\":2473:2595   */\n      pop\n      jump\t// out\n        /* \"#utility.yul\":2601:2740   */\n    tag_84:\n        /* \"#utility.yul\":2647:2652   */\n      0x00\n        /* \"#utility.yul\":2685:2691   */\n      dup2\n        /* \"#utility.yul\":2672:2692   */\n      calldataload\n        /* \"#utility.yul\":2663:2692   */\n      swap1\n      pop\n        /* \"#utility.yul\":2701:2734   */\n      tag_129\n        /* \"#utility.yul\":2728:2733   */\n      dup2\n        /* \"#utility.yul\":2701:2734   */\n      tag_83\n      jump\t// in\n    tag_129:\n        /* \"#utility.yul\":2601:2740   */\n      swap3\n      swap2\n      pop\n      pop\n      jump\t// out\n        /* \"#utility.yul\":2746:3075   */\n    tag_29:\n        /* \"#utility.yul\":2805:2811   */\n      0x00\n        /* \"#utility.yul\":2854:2856   */\n      0x20\n        /* \"#utility.yul\":2842:2851   */\n      dup3\n        /* \"#utility.yul\":2833:2840   */\n      dup5\n        /* \"#utility.yul\":2829:2852   */\n      sub\n        /* \"#utility.yul\":2825:2857   */\n      slt\n        /* \"#utility.yul\":2822:2941   */\n      iszero\n      tag_131\n      jumpi\n        /* \"#utility.yul\":2860:2939   */\n      tag_132\n      tag_75\n      jump\t// in\n    tag_132:\n        /* \"#utility.yul\":2822:2941   */\n    tag_131:\n        /* \"#utility.yul\":2980:2981   */\n      0x00\n        /* \"#utility.yul\":3005:3058   */\n      tag_133\n        /* \"#utility.yul\":3050:3057   */\n      dup5\n        /* \"#utility.yul\":3041:3047   */\n      dup3\n        /* \"#utility.yul\":3030:3039   */\n      dup6\n        /* \"#utility.yul\":3026:3048   */\n      add\n        /* \"#utility.yul\":3005:3058   */\n      tag_84\n      jump\t// in\n    tag_133:\n        /* \"#utility.yul\":2995:3058   */\n      swap2\n      pop\n        /* \"#utility.yul\":2951:3068   */\n      pop\n        /* \"#utility.yul\":2746:3075   */\n      swap3\n      swap2\n      pop\n      pop\n      jump\t// out\n        /* \"#utility.yul\":3081:3555   */\n    tag_33:\n        /* \"#utility.yul\":3149:3155   */\n      0x00\n        /* \"#utility.yul\":3157:3163   */\n      dup1\n        /* \"#utility.yul\":3206:3208   */\n      0x40\n        /* \"#utility.yul\":3194:3203   */\n      dup4\n        /* \"#utility.yul\":3185:3192   */\n      dup6\n        /* \"#utility.yul\":3181:3204   */\n      sub\n        /* \"#utility.yul\":3177:3209   */\n      slt\n        /* \"#utility.yul\":3174:3293   */\n      iszero\n      tag_135\n      jumpi\n        /* \"#utility.yul\":3212:3291   */\n      tag_136\n      tag_75\n      jump\t// in\n    tag_136:\n        /* \"#utility.yul\":3174:3293   */\n    tag_135:\n        /* \"#utility.yul\":3332:3333   */\n      0x00\n        /* \"#utility.yul\":3357:3410   */\n      tag_137\n        /* \"#utility.yul\":3402:3409   */\n      dup6\n        /* \"#utility.yul\":3393:3399   */\n      dup3\n        /* \"#utility.yul\":3382:3391   */\n      dup7\n        /* \"#utility.yul\":3378:3400   */\n      add\n        /* \"#utility.yul\":3357:3410   */\n      tag_80\n      jump\t// in\n    tag_137:\n        /* \"#utility.yul\":3347:3410   */\n      swap3\n      pop\n        /* \"#utility.yul\":3303:3420   */\n      pop\n        /* \"#utility.yul\":3459:3461   */\n      0x20\n        /* \"#utility.yul\":3485:3538   */\n      tag_138\n        /* \"#utility.yul\":3530:3537   */\n      dup6\n        /* \"#utility.yul\":3521:3527   */\n      dup3\n        /* \"#utility.yul\":3510:3519   */\n      dup7\n        /* \"#utility.yul\":3506:3528   */\n      add\n        /* \"#utility.yul\":3485:3538   */\n      tag_84\n      jump\t// in\n    tag_138:\n        /* \"#utility.yul\":3475:3538   */\n      swap2\n      pop\n        /* \"#utility.yul\":3430:3548   */\n      pop\n        /* \"#utility.yul\":3081:3555   */\n      swap3\n      pop\n      swap3\n      swap1\n      pop\n      jump\t// out\n        /* \"#utility.yul\":3561:3730   */\n    tag_85:\n        /* \"#utility.yul\":3645:3656   */\n      0x00\n        /* \"#utility.yul\":3679:3685   */\n      dup3\n        /* \"#utility.yul\":3674:3677   */\n      dup3\n        /* \"#utility.yul\":3667:3686   */\n      mstore\n        /* \"#utility.yul\":3719:3723   */\n      0x20\n        /* \"#utility.yul\":3714:3717   */\n      dup3\n        /* \"#utility.yul\":3710:3724   */\n      add\n        /* \"#utility.yul\":3695:3724   */\n      swap1\n      pop\n        /* \"#utility.yul\":3561:3730   */\n      swap3\n      swap2\n      pop\n      pop\n      jump\t// out\n        /* \"#utility.yul\":3736:3967   */\n    tag_86:\n        /* \"#utility.yul\":3876:3910   */\n      0x4f6e6c79206f776e657220697320616c6c6f77656420746f20706572666f726d\n        /* \"#utility.yul\":3872:3873   */\n      0x00\n        /* \"#utility.yul\":3864:3870   */\n      dup3\n        /* \"#utility.yul\":3860:3874   */\n      add\n        /* \"#utility.yul\":3853:3911   */\n      mstore\n        /* \"#utility.yul\":3945:3959   */\n      0x207468697320616374696f6e0000000000000000000000000000000000000000\n        /* \"#utility.yul\":3940:3942   */\n      0x20\n        /* \"#utility.yul\":3932:3938   */\n      dup3\n        /* \"#utility.yul\":3928:3943   */\n      add\n        /* \"#utility.yul\":3921:3960   */\n      mstore\n        /* \"#utility.yul\":3736:3967   */\n      pop\n      jump\t// out\n        /* \"#utility.yul\":3973:4339   */\n    tag_87:\n        /* \"#utility.yul\":4115:4118   */\n      0x00\n        /* \"#utility.yul\":4136:4203   */\n      tag_142\n        /* \"#utility.yul\":4200:4202   */\n      0x2c\n        /* \"#utility.yul\":4195:4198   */\n      dup4\n        /* \"#utility.yul\":4136:4203   */\n      tag_85\n      jump\t// in\n    tag_142:\n        /* \"#utility.yul\":4129:4203   */\n      swap2\n      pop\n        /* \"#utility.yul\":4212:4305   */\n      tag_143\n        /* \"#utility.yul\":4301:4304   */\n      dup3\n        /* \"#utility.yul\":4212:4305   */\n      tag_86\n      jump\t// in\n    tag_143:\n        /* \"#utility.yul\":4330:4332   */\n      0x40\n        /* \"#utility.yul\":4325:4328   */\n      dup3\n        /* \"#utility.yul\":4321:4333   */\n      add\n        /* \"#utility.yul\":4314:4333   */\n      swap1\n      pop\n        /* \"#utility.yul\":3973:4339   */\n      swap2\n      swap1\n      pop\n      jump\t// out\n        /* \"#utility.yul\":4345:4764   */\n    tag_42:\n        /* \"#utility.yul\":4511:4515   */\n      0x00\n        /* \"#utility.yul\":4549:4551   */\n      0x20\n        /* \"#utility.yul\":4538:4547   */\n      dup3\n        /* \"#utility.yul\":4534:4552   */\n      add\n        /* \"#utility.yul\":4526:4552   */\n      swap1\n      pop\n        /* \"#utility.yul\":4598:4607   */\n      dup2\n        /* \"#utility.yul\":4592:4596   */\n      dup2\n        /* \"#utility.yul\":4588:4608   */\n      sub\n        /* \"#utility.yul\":4584:4585   */\n      0x00\n        /* \"#utility.yul\":4573:4582   */\n      dup4\n        /* \"#utility.yul\":4569:4586   */\n      add\n        /* \"#utility.yul\":4562:4609   */\n      mstore\n        /* \"#utility.yul\":4626:4757   */\n      tag_145\n        /* \"#utility.yul\":4752:4756   */\n      dup2\n        /* \"#utility.yul\":4626:4757   */\n      tag_87\n      jump\t// in\n    tag_145:\n        /* \"#utility.yul\":4618:4757   */\n      swap1\n      pop\n        /* \"#utility.yul\":4345:4764   */\n      swap2\n      swap1\n      pop\n      jump\t// out\n        /* \"#utility.yul\":4770:5007   */\n    tag_88:\n        /* \"#utility.yul\":4910:4944   */\n      0x546865206c696272617279206973206c6f636b65642e204e6f20646972656374\n        /* \"#utility.yul\":4906:4907   */\n      0x00\n        /* \"#utility.yul\":4898:4904   */\n      dup3\n        /* \"#utility.yul\":4894:4908   */\n      add\n        /* \"#utility.yul\":4887:4945   */\n      mstore\n        /* \"#utility.yul\":4979:4999   */\n      0x202763616c6c2720697320616c6c6f7765640000000000000000000000000000\n        /* \"#utility.yul\":4974:4976   */\n      0x20\n        /* \"#utility.yul\":4966:4972   */\n      dup3\n        /* \"#utility.yul\":4962:4977   */\n      add\n        /* \"#utility.yul\":4955:5000   */\n      mstore\n        /* \"#utility.yul\":4770:5007   */\n      pop\n      jump\t// out\n        /* \"#utility.yul\":5013:5379   */\n    tag_89:\n        /* \"#utility.yul\":5155:5158   */\n      0x00\n        /* \"#utility.yul\":5176:5243   */\n      tag_148\n        /* \"#utility.yul\":5240:5242   */\n      0x32\n        /* \"#utility.yul\":5235:5238   */\n      dup4\n        /* \"#utility.yul\":5176:5243   */\n      tag_85\n      jump\t// in\n    tag_148:\n        /* \"#utility.yul\":5169:5243   */\n      swap2\n      pop\n        /* \"#utility.yul\":5252:5345   */\n      tag_149\n        /* \"#utility.yul\":5341:5344   */\n      dup3\n        /* \"#utility.yul\":5252:5345   */\n      tag_88\n      jump\t// in\n    tag_149:\n        /* \"#utility.yul\":5370:5372   */\n      0x40\n        /* \"#utility.yul\":5365:5368   */\n      dup3\n        /* \"#utility.yul\":5361:5373   */\n      add\n        /* \"#utility.yul\":5354:5373   */\n      swap1\n      pop\n        /* \"#utility.yul\":5013:5379   */\n      swap2\n      swap1\n      pop\n      jump\t// out\n        /* \"#utility.yul\":5385:5804   */\n    tag_46:\n        /* \"#utility.yul\":5551:5555   */\n      0x00\n        /* \"#utility.yul\":5589:5591   */\n      0x20\n        /* \"#utility.yul\":5578:5587   */\n      dup3\n        /* \"#utility.yul\":5574:5592   */\n      add\n        /* \"#utility.yul\":5566:5592   */\n      swap1\n      pop\n        /* \"#utility.yul\":5638:5647   */\n      dup2\n        /* \"#utility.yul\":5632:5636   */\n      dup2\n        /* \"#utility.yul\":5628:5648   */\n      sub\n        /* \"#utility.yul\":5624:5625   */\n      0x00\n        /* \"#utility.yul\":5613:5622   */\n      dup4\n        /* \"#utility.yul\":5609:5626   */\n      add\n        /* \"#utility.yul\":5602:5649   */\n      mstore\n        /* \"#utility.yul\":5666:5797   */\n      tag_151\n        /* \"#utility.yul\":5792:5796   */\n      dup2\n        /* \"#utility.yul\":5666:5797   */\n      tag_89\n      jump\t// in\n    tag_151:\n        /* \"#utility.yul\":5658:5797   */\n      swap1\n      pop\n        /* \"#utility.yul\":5385:5804   */\n      swap2\n      swap1\n      pop\n      jump\t// out\n        /* \"#utility.yul\":5810:5932   */\n    tag_90:\n        /* \"#utility.yul\":5883:5907   */\n      tag_153\n        /* \"#utility.yul\":5901:5906   */\n      dup2\n        /* \"#utility.yul\":5883:5907   */\n      tag_81\n      jump\t// in\n    tag_153:\n        /* \"#utility.yul\":5876:5881   */\n      dup2\n        /* \"#utility.yul\":5873:5908   */\n      eq\n        /* \"#utility.yul\":5863:5926   */\n      tag_154\n      jumpi\n        /* \"#utility.yul\":5922:5923   */\n      0x00\n        /* \"#utility.yul\":5919:5920   */\n      dup1\n        /* \"#utility.yul\":5912:5924   */\n      revert\n        /* \"#utility.yul\":5863:5926   */\n    tag_154:\n        /* \"#utility.yul\":5810:5932   */\n      pop\n      jump\t// out\n        /* \"#utility.yul\":5938:6081   */\n    tag_91:\n        /* \"#utility.yul\":5995:6000   */\n      0x00\n        /* \"#utility.yul\":6026:6032   */\n      dup2\n        /* \"#utility.yul\":6020:6033   */\n      mload\n        /* \"#utility.yul\":6011:6033   */\n      swap1\n      pop\n        /* \"#utility.yul\":6042:6075   */\n      tag_156\n        /* \"#utility.yul\":6069:6074   */\n      dup2\n        /* \"#utility.yul\":6042:6075   */\n      tag_90\n      jump\t// in\n    tag_156:\n        /* \"#utility.yul\":5938:6081   */\n      swap3\n      swap2\n      pop\n      pop\n      jump\t// out\n        /* \"#utility.yul\":6087:6438   */\n    tag_64:\n        /* \"#utility.yul\":6157:6163   */\n      0x00\n        /* \"#utility.yul\":6206:6208   */\n      0x20\n        /* \"#utility.yul\":6194:6203   */\n      dup3\n        /* \"#utility.yul\":6185:6192   */\n      dup5\n        /* \"#utility.yul\":6181:6204   */\n      sub\n        /* \"#utility.yul\":6177:6209   */\n      slt\n        /* \"#utility.yul\":6174:6293   */\n      iszero\n      tag_158\n      jumpi\n        /* \"#utility.yul\":6212:6291   */\n      tag_159\n      tag_75\n      jump\t// in\n    tag_159:\n        /* \"#utility.yul\":6174:6293   */\n    tag_158:\n        /* \"#utility.yul\":6332:6333   */\n      0x00\n        /* \"#utility.yul\":6357:6421   */\n      tag_160\n        /* \"#utility.yul\":6413:6420   */\n      dup5\n        /* \"#utility.yul\":6404:6410   */\n      dup3\n        /* \"#utility.yul\":6393:6402   */\n      dup6\n        /* \"#utility.yul\":6389:6411   */\n      add\n        /* \"#utility.yul\":6357:6421   */\n      tag_91\n      jump\t// in\n    tag_160:\n        /* \"#utility.yul\":6347:6421   */\n      swap2\n      pop\n        /* \"#utility.yul\":6303:6431   */\n      pop\n        /* \"#utility.yul\":6087:6438   */\n      swap3\n      swap2\n      pop\n      pop\n      jump\t// out\n        /* \"#utility.yul\":6444:6608   */\n    tag_92:\n        /* \"#utility.yul\":6584:6600   */\n      0x4e6f7420636f6d70617469626c65000000000000000000000000000000000000\n        /* \"#utility.yul\":6580:6581   */\n      0x00\n        /* \"#utility.yul\":6572:6578   */\n      dup3\n        /* \"#utility.yul\":6568:6582   */\n      add\n        /* \"#utility.yul\":6561:6601   */\n      mstore\n        /* \"#utility.yul\":6444:6608   */\n      pop\n      jump\t// out\n        /* \"#utility.yul\":6614:6980   */\n    tag_93:\n        /* \"#utility.yul\":6756:6759   */\n      0x00\n        /* \"#utility.yul\":6777:6844   */\n      tag_163\n        /* \"#utility.yul\":6841:6843   */\n      0x0e\n        /* \"#utility.yul\":6836:6839   */\n      dup4\n        /* \"#utility.yul\":6777:6844   */\n      tag_85\n      jump\t// in\n    tag_163:\n        /* \"#utility.yul\":6770:6844   */\n      swap2\n      pop\n        /* \"#utility.yul\":6853:6946   */\n      tag_164\n        /* \"#utility.yul\":6942:6945   */\n      dup3\n        /* \"#utility.yul\":6853:6946   */\n      tag_92\n      jump\t// in\n    tag_164:\n        /* \"#utility.yul\":6971:6973   */\n      0x20\n        /* \"#utility.yul\":6966:6969   */\n      dup3\n        /* \"#utility.yul\":6962:6974   */\n      add\n        /* \"#utility.yul\":6955:6974   */\n      swap1\n      pop\n        /* \"#utility.yul\":6614:6980   */\n      swap2\n      swap1\n      pop\n      jump\t// out\n        /* \"#utility.yul\":6986:7405   */\n    tag_67:\n        /* \"#utility.yul\":7152:7156   */\n      0x00\n        /* \"#utility.yul\":7190:7192   */\n      0x20\n        /* \"#utility.yul\":7179:7188   */\n      dup3\n        /* \"#utility.yul\":7175:7193   */\n      add\n        /* \"#utility.yul\":7167:7193   */\n      swap1\n      pop\n        /* \"#utility.yul\":7239:7248   */\n      dup2\n        /* \"#utility.yul\":7233:7237   */\n      dup2\n        /* \"#utility.yul\":7229:7249   */\n      sub\n        /* \"#utility.yul\":7225:7226   */\n      0x00\n        /* \"#utility.yul\":7214:7223   */\n      dup4\n        /* \"#utility.yul\":7210:7227   */\n      add\n        /* \"#utility.yul\":7203:7250   */\n      mstore\n        /* \"#utility.yul\":7267:7398   */\n      tag_166\n        /* \"#utility.yul\":7393:7397   */\n      dup2\n        /* \"#utility.yul\":7267:7398   */\n      tag_93\n      jump\t// in\n    tag_166:\n        /* \"#utility.yul\":7259:7398   */\n      swap1\n      pop\n        /* \"#utility.yul\":6986:7405   */\n      swap2\n      swap1\n      pop\n      jump\t// out\n\n    auxdata: 0xa26469706673582212204e550ff097a941bd7f264e8cdb3933464acacd3820c2b8b71dc5f4e830783f2164736f6c63430008110033\n}\n",
				"bytecode": {
					"linkReferences": {},
					"object": "608060405260008060006101000a81548160ff02191690831515021790555034801561002a57600080fd5b506108b18061003a6000396000f3fe608060405234801561001057600080fd5b506004361061007d5760003560e01c806352d1902d1161005b57806352d1902d146100da578063828d2a42146100f8578063a9059cbb14610114578063e4860339146101305761007d565b8063158ef93e1461008257806318160ddd146100a057806346951954146100be575b600080fd5b61008a610160565b60405161009791906104d5565b60405180910390f35b6100a8610171565b6040516100b59190610509565b60405180910390f35b6100d860048036038101906100d39190610587565b610177565b005b6100e2610267565b6040516100ef91906105cd565b60405180910390f35b610112600480360381019061010d9190610614565b610292565b005b61012e60048036038101906101299190610641565b6102f1565b005b61014a60048036038101906101459190610587565b610349565b6040516101579190610509565b60405180910390f35b60008054906101000a900460ff1681565b60015481565b600360009054906101000a900473ffffffffffffffffffffffffffffffffffffffff1673ffffffffffffffffffffffffffffffffffffffff163373ffffffffffffffffffffffffffffffffffffffff1614610207576040517f08c379a00000000000000000000000000000000000000000000000000000000081526004016101fe90610704565b60405180910390fd5b6001151560008054906101000a900460ff1615151461025b576040517f08c379a000000000000000000000000000000000000000000000000000000000815260040161025290610796565b60405180910390fd5b61026481610361565b50565b60007fc5f16f0fcc639fa48a6947836d9850f504798523bf8c9a3a87d5876cf622bcf760001b905090565b8060018190555080600260003373ffffffffffffffffffffffffffffffffffffffff1673ffffffffffffffffffffffffffffffffffffffff168152602001908152602001600020819055506102e561045a565b6102ee33610476565b50565b6001151560008054906101000a900460ff16151514610345576040517f08c379a000000000000000000000000000000000000000000000000000000000815260040161033c90610796565b60405180910390fd5b5050565b60026020528060005260406000206000915090505481565b8073ffffffffffffffffffffffffffffffffffffffff166352d1902d6040518163ffffffff1660e01b8152600401602060405180830381865afa1580156103ac573d6000803e3d6000fd5b505050506040513d601f19601f820116820180604052508101906103d091906107e2565b7fc5f16f0fcc639fa48a6947836d9850f504798523bf8c9a3a87d5876cf622bcf760001b14610434576040517f08c379a000000000000000000000000000000000000000000000000000000000815260040161042b9061085b565b60405180910390fd5b807fc5f16f0fcc639fa48a6947836d9850f504798523bf8c9a3a87d5876cf622bcf75550565b60016000806101000a81548160ff021916908315150217905550565b80600360006101000a81548173ffffffffffffffffffffffffffffffffffffffff021916908373ffffffffffffffffffffffffffffffffffffffff16021790555050565b60008115159050919050565b6104cf816104ba565b82525050565b60006020820190506104ea60008301846104c6565b92915050565b6000819050919050565b610503816104f0565b82525050565b600060208201905061051e60008301846104fa565b92915050565b600080fd5b600073ffffffffffffffffffffffffffffffffffffffff82169050919050565b600061055482610529565b9050919050565b61056481610549565b811461056f57600080fd5b50565b6000813590506105818161055b565b92915050565b60006020828403121561059d5761059c610524565b5b60006105ab84828501610572565b91505092915050565b6000819050919050565b6105c7816105b4565b82525050565b60006020820190506105e260008301846105be565b92915050565b6105f1816104f0565b81146105fc57600080fd5b50565b60008135905061060e816105e8565b92915050565b60006020828403121561062a57610629610524565b5b6000610638848285016105ff565b91505092915050565b6000806040838503121561065857610657610524565b5b600061066685828601610572565b9250506020610677858286016105ff565b9150509250929050565b600082825260208201905092915050565b7f4f6e6c79206f776e657220697320616c6c6f77656420746f20706572666f726d60008201527f207468697320616374696f6e0000000000000000000000000000000000000000602082015250565b60006106ee602c83610681565b91506106f982610692565b604082019050919050565b6000602082019050818103600083015261071d816106e1565b9050919050565b7f546865206c696272617279206973206c6f636b65642e204e6f2064697265637460008201527f202763616c6c2720697320616c6c6f7765640000000000000000000000000000602082015250565b6000610780603283610681565b915061078b82610724565b604082019050919050565b600060208201905081810360008301526107af81610773565b9050919050565b6107bf816105b4565b81146107ca57600080fd5b50565b6000815190506107dc816107b6565b92915050565b6000602082840312156107f8576107f7610524565b5b6000610806848285016107cd565b91505092915050565b7f4e6f7420636f6d70617469626c65000000000000000000000000000000000000600082015250565b6000610845600e83610681565b91506108508261080f565b602082019050919050565b6000602082019050818103600083015261087481610838565b905091905056fea26469706673582212204e550ff097a941bd7f264e8cdb3933464acacd3820c2b8b71dc5f4e830783f2164736f6c63430008110033",
					"opcodes": "PUSH1 0x80 PUSH1 0x40 MSTORE PUSH1 0x0 DUP1 PUSH1 0x0 PUSH2 0x100 EXP DUP2 SLOAD DUP2 PUSH1 0xFF MUL NOT AND SWAP1 DUP4 ISZERO ISZERO MUL OR SWAP1 SSTORE POP CALLVALUE DUP1 ISZERO PUSH2 0x2A JUMPI PUSH1 0x0 DUP1 REVERT JUMPDEST POP PUSH2 0x8B1 DUP1 PUSH2 0x3A PUSH1 0x0 CODECOPY PUSH1 0x0 RETURN INVALID PUSH1 0x80 PUSH1 0x40 MSTORE CALLVALUE DUP1 ISZERO PUSH2 0x10 JUMPI PUSH1 0x0 DUP1 REVERT JUMPDEST POP PUSH1 0x4 CALLDATASIZE LT PUSH2 0x7D JUMPI PUSH1 0x0 CALLDATALOAD PUSH1 0xE0 SHR DUP1 PUSH4 0x52D1902D GT PUSH2 0x5B JUMPI DUP1 PUSH4 0x52D1902D EQ PUSH2 0xDA JUMPI DUP1 PUSH4 0x828D2A42 EQ PUSH2 0xF8 JUMPI DUP1 PUSH4 0xA9059CBB EQ PUSH2 0x114 JUMPI DUP1 PUSH4 0xE4860339 EQ PUSH2 0x130 JUMPI PUSH2 0x7D JUMP JUMPDEST DUP1 PUSH4 0x158EF93E EQ PUSH2 0x82 JUMPI DUP1 PUSH4 0x18160DDD EQ PUSH2 0xA0 JUMPI DUP1 PUSH4 0x46951954 EQ PUSH2 0xBE JUMPI JUMPDEST PUSH1 0x0 DUP1 REVERT JUMPDEST PUSH2 0x8A PUSH2 0x160 JUMP JUMPDEST PUSH1 0x40 MLOAD PUSH2 0x97 SWAP2 SWAP1 PUSH2 0x4D5 JUMP JUMPDEST PUSH1 0x40 MLOAD DUP1 SWAP2 SUB SWAP1 RETURN JUMPDEST PUSH2 0xA8 PUSH2 0x171 JUMP JUMPDEST PUSH1 0x40 MLOAD PUSH2 0xB5 SWAP2 SWAP1 PUSH2 0x509 JUMP JUMPDEST PUSH1 0x40 MLOAD DUP1 SWAP2 SUB SWAP1 RETURN JUMPDEST PUSH2 0xD8 PUSH1 0x4 DUP1 CALLDATASIZE SUB DUP2 ADD SWAP1 PUSH2 0xD3 SWAP2 SWAP1 PUSH2 0x587 JUMP JUMPDEST PUSH2 0x177 JUMP JUMPDEST STOP JUMPDEST PUSH2 0xE2 PUSH2 0x267 JUMP JUMPDEST PUSH1 0x40 MLOAD PUSH2 0xEF SWAP2 SWAP1 PUSH2 0x5CD JUMP JUMPDEST PUSH1 0x40 MLOAD DUP1 SWAP2 SUB SWAP1 RETURN JUMPDEST PUSH2 0x112 PUSH1 0x4 DUP1 CALLDATASIZE SUB DUP2 ADD SWAP1 PUSH2 0x10D SWAP2 SWAP1 PUSH2 0x614 JUMP JUMPDEST PUSH2 0x292 JUMP JUMPDEST STOP JUMPDEST PUSH2 0x12E PUSH1 0x4 DUP1 CALLDATASIZE SUB DUP2 ADD SWAP1 PUSH2 0x129 SWAP2 SWAP1 PUSH2 0x641 JUMP JUMPDEST PUSH2 0x2F1 JUMP JUMPDEST STOP JUMPDEST PUSH2 0x14A PUSH1 0x4 DUP1 CALLDATASIZE SUB DUP2 ADD SWAP1 PUSH2 0x145 SWAP2 SWAP1 PUSH2 0x587 JUMP JUMPDEST PUSH2 0x349 JUMP JUMPDEST PUSH1 0x40 MLOAD PUSH2 0x157 SWAP2 SWAP1 PUSH2 0x509 JUMP JUMPDEST PUSH1 0x40 MLOAD DUP1 SWAP2 SUB SWAP1 RETURN JUMPDEST PUSH1 0x0 DUP1 SLOAD SWAP1 PUSH2 0x100 EXP SWAP1 DIV PUSH1 0xFF AND DUP2 JUMP JUMPDEST PUSH1 0x1 SLOAD DUP2 JUMP JUMPDEST PUSH1 0x3 PUSH1 0x0 SWAP1 SLOAD SWAP1 PUSH2 0x100 EXP SWAP1 DIV PUSH20 0xFFFFFFFFFFFFFFFFFFFFFFFFFFFFFFFFFFFFFFFF AND PUSH20 0xFFFFFFFFFFFFFFFFFFFFFFFFFFFFFFFFFFFFFFFF AND CALLER PUSH20 0xFFFFFFFFFFFFFFFFFFFFFFFFFFFFFFFFFFFFFFFF AND EQ PUSH2 0x207 JUMPI PUSH1 0x40 MLOAD PUSH32 0x8C379A000000000000000000000000000000000000000000000000000000000 DUP2 MSTORE PUSH1 0x4 ADD PUSH2 0x1FE SWAP1 PUSH2 0x704 JUMP JUMPDEST PUSH1 0x40 MLOAD DUP1 SWAP2 SUB SWAP1 REVERT JUMPDEST PUSH1 0x1 ISZERO ISZERO PUSH1 0x0 DUP1 SLOAD SWAP1 PUSH2 0x100 EXP SWAP1 DIV PUSH1 0xFF AND ISZERO ISZERO EQ PUSH2 0x25B JUMPI PUSH1 0x40 MLOAD PUSH32 0x8C379A000000000000000000000000000000000000000000000000000000000 DUP2 MSTORE PUSH1 0x4 ADD PUSH2 0x252 SWAP1 PUSH2 0x796 JUMP JUMPDEST PUSH1 0x40 MLOAD DUP1 SWAP2 SUB SWAP1 REVERT JUMPDEST PUSH2 0x264 DUP2 PUSH2 0x361 JUMP JUMPDEST POP JUMP JUMPDEST PUSH1 0x0 PUSH32 0xC5F16F0FCC639FA48A6947836D9850F504798523BF8C9A3A87D5876CF622BCF7 PUSH1 0x0 SHL SWAP1 POP SWAP1 JUMP JUMPDEST DUP1 PUSH1 0x1 DUP2 SWAP1 SSTORE POP DUP1 PUSH1 0x2 PUSH1 0x0 CALLER PUSH20 0xFFFFFFFFFFFFFFFFFFFFFFFFFFFFFFFFFFFFFFFF AND PUSH20 0xFFFFFFFFFFFFFFFFFFFFFFFFFFFFFFFFFFFFFFFF AND DUP2 MSTORE PUSH1 0x20 ADD SWAP1 DUP2 MSTORE PUSH1 0x20 ADD PUSH1 0x0 KECCAK256 DUP2 SWAP1 SSTORE POP PUSH2 0x2E5 PUSH2 0x45A JUMP JUMPDEST PUSH2 0x2EE CALLER PUSH2 0x476 JUMP JUMPDEST POP JUMP JUMPDEST PUSH1 0x1 ISZERO ISZERO PUSH1 0x0 DUP1 SLOAD SWAP1 PUSH2 0x100 EXP SWAP1 DIV PUSH1 0xFF AND ISZERO ISZERO EQ PUSH2 0x345 JUMPI PUSH1 0x40 MLOAD PUSH32 0x8C379A000000000000000000000000000000000000000000000000000000000 DUP2 MSTORE PUSH1 0x4 ADD PUSH2 0x33C SWAP1 PUSH2 0x796 JUMP JUMPDEST PUSH1 0x40 MLOAD DUP1 SWAP2 SUB SWAP1 REVERT JUMPDEST POP POP JUMP JUMPDEST PUSH1 0x2 PUSH1 0x20 MSTORE DUP1 PUSH1 0x0 MSTORE PUSH1 0x40 PUSH1 0x0 KECCAK256 PUSH1 0x0 SWAP2 POP SWAP1 POP SLOAD DUP2 JUMP JUMPDEST DUP1 PUSH20 0xFFFFFFFFFFFFFFFFFFFFFFFFFFFFFFFFFFFFFFFF AND PUSH4 0x52D1902D PUSH1 0x40 MLOAD DUP2 PUSH4 0xFFFFFFFF AND PUSH1 0xE0 SHL DUP2 MSTORE PUSH1 0x4 ADD PUSH1 0x20 PUSH1 0x40 MLOAD DUP1 DUP4 SUB DUP2 DUP7 GAS STATICCALL ISZERO DUP1 ISZERO PUSH2 0x3AC JUMPI RETURNDATASIZE PUSH1 0x0 DUP1 RETURNDATACOPY RETURNDATASIZE PUSH1 0x0 REVERT JUMPDEST POP POP POP POP PUSH1 0x40 MLOAD RETURNDATASIZE PUSH1 0x1F NOT PUSH1 0x1F DUP3 ADD AND DUP3 ADD DUP1 PUSH1 0x40 MSTORE POP DUP2 ADD SWAP1 PUSH2 0x3D0 SWAP2 SWAP1 PUSH2 0x7E2 JUMP JUMPDEST PUSH32 0xC5F16F0FCC639FA48A6947836D9850F504798523BF8C9A3A87D5876CF622BCF7 PUSH1 0x0 SHL EQ PUSH2 0x434 JUMPI PUSH1 0x40 MLOAD PUSH32 0x8C379A000000000000000000000000000000000000000000000000000000000 DUP2 MSTORE PUSH1 0x4 ADD PUSH2 0x42B SWAP1 PUSH2 0x85B JUMP JUMPDEST PUSH1 0x40 MLOAD DUP1 SWAP2 SUB SWAP1 REVERT JUMPDEST DUP1 PUSH32 0xC5F16F0FCC639FA48A6947836D9850F504798523BF8C9A3A87D5876CF622BCF7 SSTORE POP JUMP JUMPDEST PUSH1 0x1 PUSH1 0x0 DUP1 PUSH2 0x100 EXP DUP2 SLOAD DUP2 PUSH1 0xFF MUL NOT AND SWAP1 DUP4 ISZERO ISZERO MUL OR SWAP1 SSTORE POP JUMP JUMPDEST DUP1 PUSH1 0x3 PUSH1 0x0 PUSH2 0x100 EXP DUP2 SLOAD DUP2 PUSH20 0xFFFFFFFFFFFFFFFFFFFFFFFFFFFFFFFFFFFFFFFF MUL NOT AND SWAP1 DUP4 PUSH20 0xFFFFFFFFFFFFFFFFFFFFFFFFFFFFFFFFFFFFFFFF AND MUL OR SWAP1 SSTORE POP POP JUMP JUMPDEST PUSH1 0x0 DUP2 ISZERO ISZERO SWAP1 POP SWAP2 SWAP1 POP JUMP JUMPDEST PUSH2 0x4CF DUP2 PUSH2 0x4BA JUMP JUMPDEST DUP3 MSTORE POP POP JUMP JUMPDEST PUSH1 0x0 PUSH1 0x20 DUP3 ADD SWAP1 POP PUSH2 0x4EA PUSH1 0x0 DUP4 ADD DUP5 PUSH2 0x4C6 JUMP JUMPDEST SWAP3 SWAP2 POP POP JUMP JUMPDEST PUSH1 0x0 DUP2 SWAP1 POP SWAP2 SWAP1 POP JUMP JUMPDEST PUSH2 0x503 DUP2 PUSH2 0x4F0 JUMP JUMPDEST DUP3 MSTORE POP POP JUMP JUMPDEST PUSH1 0x0 PUSH1 0x20 DUP3 ADD SWAP1 POP PUSH2 0x51E PUSH1 0x0 DUP4 ADD DUP5 PUSH2 0x4FA JUMP JUMPDEST SWAP3 SWAP2 POP POP JUMP JUMPDEST PUSH1 0x0 DUP1 REVERT JUMPDEST PUSH1 0x0 PUSH20 0xFFFFFFFFFFFFFFFFFFFFFFFFFFFFFFFFFFFFFFFF DUP3 AND SWAP1 POP SWAP2 SWAP1 POP JUMP JUMPDEST PUSH1 0x0 PUSH2 0x554 DUP3 PUSH2 0x529 JUMP JUMPDEST SWAP1 POP SWAP2 SWAP1 POP JUMP JUMPDEST PUSH2 0x564 DUP2 PUSH2 0x549 JUMP JUMPDEST DUP2 EQ PUSH2 0x56F JUMPI PUSH1 0x0 DUP1 REVERT JUMPDEST POP JUMP JUMPDEST PUSH1 0x0 DUP2 CALLDATALOAD SWAP1 POP PUSH2 0x581 DUP2 PUSH2 0x55B JUMP JUMPDEST SWAP3 SWAP2 POP POP JUMP JUMPDEST PUSH1 0x0 PUSH1 0x20 DUP3 DUP5 SUB SLT ISZERO PUSH2 0x59D JUMPI PUSH2 0x59C PUSH2 0x524 JUMP JUMPDEST JUMPDEST PUSH1 0x0 PUSH2 0x5AB DUP5 DUP3 DUP6 ADD PUSH2 0x572 JUMP JUMPDEST SWAP2 POP POP SWAP3 SWAP2 POP POP JUMP JUMPDEST PUSH1 0x0 DUP2 SWAP1 POP SWAP2 SWAP1 POP JUMP JUMPDEST PUSH2 0x5C7 DUP2 PUSH2 0x5B4 JUMP JUMPDEST DUP3 MSTORE POP POP JUMP JUMPDEST PUSH1 0x0 PUSH1 0x20 DUP3 ADD SWAP1 POP PUSH2 0x5E2 PUSH1 0x0 DUP4 ADD DUP5 PUSH2 0x5BE JUMP JUMPDEST SWAP3 SWAP2 POP POP JUMP JUMPDEST PUSH2 0x5F1 DUP2 PUSH2 0x4F0 JUMP JUMPDEST DUP2 EQ PUSH2 0x5FC JUMPI PUSH1 0x0 DUP1 REVERT JUMPDEST POP JUMP JUMPDEST PUSH1 0x0 DUP2 CALLDATALOAD SWAP1 POP PUSH2 0x60E DUP2 PUSH2 0x5E8 JUMP JUMPDEST SWAP3 SWAP2 POP POP JUMP JUMPDEST PUSH1 0x0 PUSH1 0x20 DUP3 DUP5 SUB SLT ISZERO PUSH2 0x62A JUMPI PUSH2 0x629 PUSH2 0x524 JUMP JUMPDEST JUMPDEST PUSH1 0x0 PUSH2 0x638 DUP5 DUP3 DUP6 ADD PUSH2 0x5FF JUMP JUMPDEST SWAP2 POP POP SWAP3 SWAP2 POP POP JUMP JUMPDEST PUSH1 0x0 DUP1 PUSH1 0x40 DUP4 DUP6 SUB SLT ISZERO PUSH2 0x658 JUMPI PUSH2 0x657 PUSH2 0x524 JUMP JUMPDEST JUMPDEST PUSH1 0x0 PUSH2 0x666 DUP6 DUP3 DUP7 ADD PUSH2 0x572 JUMP JUMPDEST SWAP3 POP POP PUSH1 0x20 PUSH2 0x677 DUP6 DUP3 DUP7 ADD PUSH2 0x5FF JUMP JUMPDEST SWAP2 POP POP SWAP3 POP SWAP3 SWAP1 POP JUMP JUMPDEST PUSH1 0x0 DUP3 DUP3 MSTORE PUSH1 0x20 DUP3 ADD SWAP1 POP SWAP3 SWAP2 POP POP JUMP JUMPDEST PUSH32 0x4F6E6C79206F776E657220697320616C6C6F77656420746F20706572666F726D PUSH1 0x0 DUP3 ADD MSTORE PUSH32 0x207468697320616374696F6E0000000000000000000000000000000000000000 PUSH1 0x20 DUP3 ADD MSTORE POP JUMP JUMPDEST PUSH1 0x0 PUSH2 0x6EE PUSH1 0x2C DUP4 PUSH2 0x681 JUMP JUMPDEST SWAP2 POP PUSH2 0x6F9 DUP3 PUSH2 0x692 JUMP JUMPDEST PUSH1 0x40 DUP3 ADD SWAP1 POP SWAP2 SWAP1 POP JUMP JUMPDEST PUSH1 0x0 PUSH1 0x20 DUP3 ADD SWAP1 POP DUP2 DUP2 SUB PUSH1 0x0 DUP4 ADD MSTORE PUSH2 0x71D DUP2 PUSH2 0x6E1 JUMP JUMPDEST SWAP1 POP SWAP2 SWAP1 POP JUMP JUMPDEST PUSH32 0x546865206C696272617279206973206C6F636B65642E204E6F20646972656374 PUSH1 0x0 DUP3 ADD MSTORE PUSH32 0x202763616C6C2720697320616C6C6F7765640000000000000000000000000000 PUSH1 0x20 DUP3 ADD MSTORE POP JUMP JUMPDEST PUSH1 0x0 PUSH2 0x780 PUSH1 0x32 DUP4 PUSH2 0x681 JUMP JUMPDEST SWAP2 POP PUSH2 0x78B DUP3 PUSH2 0x724 JUMP JUMPDEST PUSH1 0x40 DUP3 ADD SWAP1 POP SWAP2 SWAP1 POP JUMP JUMPDEST PUSH1 0x0 PUSH1 0x20 DUP3 ADD SWAP1 POP DUP2 DUP2 SUB PUSH1 0x0 DUP4 ADD MSTORE PUSH2 0x7AF DUP2 PUSH2 0x773 JUMP JUMPDEST SWAP1 POP SWAP2 SWAP1 POP JUMP JUMPDEST PUSH2 0x7BF DUP2 PUSH2 0x5B4 JUMP JUMPDEST DUP2 EQ PUSH2 0x7CA JUMPI PUSH1 0x0 DUP1 REVERT JUMPDEST POP JUMP JUMPDEST PUSH1 0x0 DUP2 MLOAD SWAP1 POP PUSH2 0x7DC DUP2 PUSH2 0x7B6 JUMP JUMPDEST SWAP3 SWAP2 POP POP JUMP JUMPDEST PUSH1 0x0 PUSH1 0x20 DUP3 DUP5 SUB SLT ISZERO PUSH2 0x7F8 JUMPI PUSH2 0x7F7 PUSH2 0x524 JUMP JUMPDEST JUMPDEST PUSH1 0x0 PUSH2 0x806 DUP5 DUP3 DUP6 ADD PUSH2 0x7CD JUMP JUMPDEST SWAP2 POP POP SWAP3 SWAP2 POP POP JUMP JUMPDEST PUSH32 0x4E6F7420636F6D70617469626C65000000000000000000000000000000000000 PUSH1 0x0 DUP3 ADD MSTORE POP JUMP JUMPDEST PUSH1 0x0 PUSH2 0x845 PUSH1 0xE DUP4 PUSH2 0x681 JUMP JUMPDEST SWAP2 POP PUSH2 0x850 DUP3 PUSH2 0x80F JUMP JUMPDEST PUSH1 0x20 DUP3 ADD SWAP1 POP SWAP2 SWAP1 POP JUMP JUMPDEST PUSH1 0x0 PUSH1 0x20 DUP3 ADD SWAP1 POP DUP2 DUP2 SUB PUSH1 0x0 DUP4 ADD MSTORE PUSH2 0x874 DUP2 PUSH2 0x838 JUMP JUMPDEST SWAP1 POP SWAP2 SWAP1 POP JUMP INVALID LOG2 PUSH5 0x6970667358 0x22 SLT KECCAK256 0x4E SSTORE 0xF CREATE SWAP8 0xA9 COINBASE 0xBD PUSH32 0x264E8CDB3933464ACACD3820C2B8B71DC5F4E830783F2164736F6C6343000811 STOP CALLER "
				},
				"gasEstimates": {
					"creation": {
						"codeDepositCost": "445000",
						"executionCost": "24747",
						"totalCost": "469747"
					},
					"external": {
						"constructor1(uint256)": "93331",
						"initialized()": "2469",
						"proxiableUUID()": "343",
						"tokens(address)": "2880",
						"totalSupply()": "2452",
						"transfer(address,uint256)": "3143",
						"updateCode(address)": "infinite"
					}
				},
				"methodIdentifiers": {
					"constructor1(uint256)": "828d2a42",
					"initialized()": "158ef93e",
					"proxiableUUID()": "52d1902d",
					"tokens(address)": "e4860339",
					"totalSupply()": "18160ddd",
					"transfer(address,uint256)": "a9059cbb",
					"updateCode(address)": "46951954"
				}
			},
			"storageLayout": {
				"storage": [
					{
						"astId": 59,
						"contract": "contracts/ERC1822.sol:MyToken",
						"label": "initialized",
						"offset": 0,
						"slot": "0",
						"type": "t_bool"
					},
					{
						"astId": 86,
						"contract": "contracts/ERC1822.sol:MyToken",
						"label": "totalSupply",
						"offset": 0,
						"slot": "1",
						"type": "t_uint256"
					},
					{
						"astId": 90,
						"contract": "contracts/ERC1822.sol:MyToken",
						"label": "tokens",
						"offset": 0,
						"slot": "2",
						"type": "t_mapping(t_address,t_uint256)"
					},
					{
						"astId": 33,
						"contract": "contracts/ERC1822.sol:MyToken",
						"label": "owner",
						"offset": 0,
						"slot": "3",
						"type": "t_address"
					}
				],
				"types": {
					"t_address": {
						"encoding": "inplace",
						"label": "address",
						"numberOfBytes": "20"
					},
					"t_bool": {
						"encoding": "inplace",
						"label": "bool",
						"numberOfBytes": "1"
					},
					"t_mapping(t_address,t_uint256)": {
						"encoding": "mapping",
						"key": "t_address",
						"label": "mapping(address => uint256)",
						"numberOfBytes": "32",
						"value": "t_uint256"
					},
					"t_uint256": {
						"encoding": "inplace",
						"label": "uint256",
						"numberOfBytes": "32"
					}
				}
			},
			"userdoc": {
				"kind": "user",
				"methods": {},
				"version": 1
			}
		}
	}
}