{
	"contracts/Demo.sol": {
		"Demo": {
			"abi": [
				{
					"inputs": [
						{
							"internalType": "UFixed8x1",
							"name": "a",
							"type": "uint8"
						},
						{
							"internalType": "UFixed8x1",
							"name": "b",
							"type": "uint8"
						}
					],
					"name": "add",
					"outputs": [
						{
							"internalType": "UFixed8x1",
							"name": "",
							"type": "uint8"
						}
					],
					"stateMutability": "pure",
					"type": "function"
				},
				{
					"inputs": [
						{
							"internalType": "UFixed8x1",
							"name": "num",
							"type": "uint8"
						}
					],
					"name": "floor",
					"outputs": [
						{
							"internalType": "uint8",
							"name": "",
							"type": "uint8"
						}
					],
					"stateMutability": "pure",
					"type": "function"
				},
				{
					"inputs": [
						{
							"internalType": "UFixed8x1",
							"name": "a",
							"type": "uint8"
						},
						{
							"internalType": "uint8",
							"name": "b",
							"type": "uint8"
						}
					],
					"name": "mul",
					"outputs": [
						{
							"internalType": "UFixed8x1",
							"name": "",
							"type": "uint8"
						}
					],
					"stateMutability": "pure",
					"type": "function"
				},
				{
					"inputs": [
						{
							"internalType": "uint8",
							"name": "num",
							"type": "uint8"
						}
					],
					"name": "toUFixed8x1",
					"outputs": [
						{
							"internalType": "UFixed8x1",
							"name": "",
							"type": "uint8"
						}
					],
					"stateMutability": "pure",
					"type": "function"
				}
			],
			"devdoc": {
				"kind": "dev",
				"methods": {},
				"version": 1
			},
			"evm": {
				"assembly": "    /* \"contracts/Demo.sol\":1254:1743  contract Demo{... */\n  mstore(0x40, 0x80)\n  callvalue\n  dup1\n  iszero\n  tag_1\n  jumpi\n  0x00\n  dup1\n  revert\ntag_1:\n  pop\n  dataSize(sub_0)\n  dup1\n  dataOffset(sub_0)\n  0x00\n  codecopy\n  0x00\n  return\nstop\n\nsub_0: assembly {\n        /* \"contracts/Demo.sol\":1254:1743  contract Demo{... */\n      mstore(0x40, 0x80)\n      callvalue\n      dup1\n      iszero\n      tag_1\n      jumpi\n      0x00\n      dup1\n      revert\n    tag_1:\n      pop\n      jumpi(tag_2, lt(calldatasize, 0x04))\n      shr(0xe0, calldataload(0x00))\n      dup1\n      0x12e8e1aa\n      eq\n      tag_3\n      jumpi\n      dup1\n      0x3dca3927\n      eq\n      tag_4\n      jumpi\n      dup1\n      0xbb4e3f4d\n      eq\n      tag_5\n      jumpi\n      dup1\n      0xe51a3b40\n      eq\n      tag_6\n      jumpi\n    tag_2:\n      0x00\n      dup1\n      revert\n        /* \"contracts/Demo.sol\":1274:1388  function toUFixed8x1(uint8 num) public pure returns(UFixed8x1){... */\n    tag_3:\n      tag_7\n      0x04\n      dup1\n      calldatasize\n      sub\n      dup2\n      add\n      swap1\n      tag_8\n      swap2\n      swap1\n      tag_9\n      jump\t// in\n    tag_8:\n      tag_10\n      jump\t// in\n    tag_7:\n      mload(0x40)\n      tag_11\n      swap2\n      swap1\n      tag_12\n      jump\t// in\n    tag_11:\n      mload(0x40)\n      dup1\n      swap2\n      sub\n      swap1\n      return\n        /* \"contracts/Demo.sol\":1396:1498  function floor(UFixed8x1 num) public pure returns(uint8){... */\n    tag_4:\n      tag_13\n      0x04\n      dup1\n      calldatasize\n      sub\n      dup2\n      add\n      swap1\n      tag_14\n      swap2\n      swap1\n      tag_15\n      jump\t// in\n    tag_14:\n      tag_16\n      jump\t// in\n    tag_13:\n      mload(0x40)\n      tag_17\n      swap2\n      swap1\n      tag_18\n      jump\t// in\n    tag_17:\n      mload(0x40)\n      dup1\n      swap2\n      sub\n      swap1\n      return\n        /* \"contracts/Demo.sol\":1506:1619  function add(UFixed8x1 a, UFixed8x1 b) public pure returns(UFixed8x1){... */\n    tag_5:\n      tag_19\n      0x04\n      dup1\n      calldatasize\n      sub\n      dup2\n      add\n      swap1\n      tag_20\n      swap2\n      swap1\n      tag_21\n      jump\t// in\n    tag_20:\n      tag_22\n      jump\t// in\n    tag_19:\n      mload(0x40)\n      tag_23\n      swap2\n      swap1\n      tag_12\n      jump\t// in\n    tag_23:\n      mload(0x40)\n      dup1\n      swap2\n      sub\n      swap1\n      return\n        /* \"contracts/Demo.sol\":1627:1736  function mul(UFixed8x1 a, uint8 b) public pure returns(UFixed8x1){... */\n    tag_6:\n      tag_24\n      0x04\n      dup1\n      calldatasize\n      sub\n      dup2\n      add\n      swap1\n      tag_25\n      swap2\n      swap1\n      tag_26\n      jump\t// in\n    tag_25:\n      tag_27\n      jump\t// in\n    tag_24:\n      mload(0x40)\n      tag_28\n      swap2\n      swap1\n      tag_12\n      jump\t// in\n    tag_28:\n      mload(0x40)\n      dup1\n      swap2\n      sub\n      swap1\n      return\n        /* \"contracts/Demo.sol\":1274:1388  function toUFixed8x1(uint8 num) public pure returns(UFixed8x1){... */\n    tag_10:\n        /* \"contracts/Demo.sol\":1326:1335  UFixed8x1 */\n      0x00\n        /* \"contracts/Demo.sol\":1354:1380  FixedMath.toUFixed8x1(num) */\n      tag_30\n        /* \"contracts/Demo.sol\":1376:1379  num */\n      dup3\n        /* \"contracts/Demo.sol\":1354:1375  FixedMath.toUFixed8x1 */\n      tag_31\n        /* \"contracts/Demo.sol\":1354:1380  FixedMath.toUFixed8x1(num) */\n      jump\t// in\n    tag_30:\n        /* \"contracts/Demo.sol\":1347:1380  return FixedMath.toUFixed8x1(num) */\n      swap1\n      pop\n        /* \"contracts/Demo.sol\":1274:1388  function toUFixed8x1(uint8 num) public pure returns(UFixed8x1){... */\n      swap2\n      swap1\n      pop\n      jump\t// out\n        /* \"contracts/Demo.sol\":1396:1498  function floor(UFixed8x1 num) public pure returns(uint8){... */\n    tag_16:\n        /* \"contracts/Demo.sol\":1446:1451  uint8 */\n      0x00\n        /* \"contracts/Demo.sol\":1470:1490  FixedMath.floor(num) */\n      tag_33\n        /* \"contracts/Demo.sol\":1486:1489  num */\n      dup3\n        /* \"contracts/Demo.sol\":1470:1485  FixedMath.floor */\n      tag_34\n        /* \"contracts/Demo.sol\":1470:1490  FixedMath.floor(num) */\n      jump\t// in\n    tag_33:\n        /* \"contracts/Demo.sol\":1463:1490  return FixedMath.floor(num) */\n      swap1\n      pop\n        /* \"contracts/Demo.sol\":1396:1498  function floor(UFixed8x1 num) public pure returns(uint8){... */\n      swap2\n      swap1\n      pop\n      jump\t// out\n        /* \"contracts/Demo.sol\":1506:1619  function add(UFixed8x1 a, UFixed8x1 b) public pure returns(UFixed8x1){... */\n    tag_22:\n        /* \"contracts/Demo.sol\":1565:1574  UFixed8x1 */\n      0x00\n        /* \"contracts/Demo.sol\":1593:1611  FixedMath.add(a,b) */\n      tag_36\n        /* \"contracts/Demo.sol\":1607:1608  a */\n      dup4\n        /* \"contracts/Demo.sol\":1609:1610  b */\n      dup4\n        /* \"contracts/Demo.sol\":1593:1606  FixedMath.add */\n      tag_37\n        /* \"contracts/Demo.sol\":1593:1611  FixedMath.add(a,b) */\n      jump\t// in\n    tag_36:\n        /* \"contracts/Demo.sol\":1586:1611  return FixedMath.add(a,b) */\n      swap1\n      pop\n        /* \"contracts/Demo.sol\":1506:1619  function add(UFixed8x1 a, UFixed8x1 b) public pure returns(UFixed8x1){... */\n      swap3\n      swap2\n      pop\n      pop\n      jump\t// out\n        /* \"contracts/Demo.sol\":1627:1736  function mul(UFixed8x1 a, uint8 b) public pure returns(UFixed8x1){... */\n    tag_27:\n        /* \"contracts/Demo.sol\":1682:1691  UFixed8x1 */\n      0x00\n        /* \"contracts/Demo.sol\":1710:1728  FixedMath.mul(a,b) */\n      tag_39\n        /* \"contracts/Demo.sol\":1724:1725  a */\n      dup4\n        /* \"contracts/Demo.sol\":1726:1727  b */\n      dup4\n        /* \"contracts/Demo.sol\":1710:1723  FixedMath.mul */\n      tag_40\n        /* \"contracts/Demo.sol\":1710:1728  FixedMath.mul(a,b) */\n      jump\t// in\n    tag_39:\n        /* \"contracts/Demo.sol\":1703:1728  return FixedMath.mul(a,b) */\n      swap1\n      pop\n        /* \"contracts/Demo.sol\":1627:1736  function mul(UFixed8x1 a, uint8 b) public pure returns(UFixed8x1){... */\n      swap3\n      swap2\n      pop\n      pop\n      jump\t// out\n        /* \"contracts/Demo.sol\":1127:1247  function toUFixed8x1(uint8 a) internal pure returns (UFixed8x1) {... */\n    tag_31:\n        /* \"contracts/Demo.sol\":1180:1189  UFixed8x1 */\n      0x00\n        /* \"contracts/Demo.sol\":293:295  10 */\n      0x0a\n        /* \"contracts/Demo.sol\":1224:1225  a */\n      dup3\n        /* \"contracts/Demo.sol\":1224:1238  a * multiplier */\n      tag_42\n      swap2\n      swap1\n      tag_43\n      jump\t// in\n    tag_42:\n        /* \"contracts/Demo.sol\":1202:1239  return UFixed8x1.wrap(a * multiplier) */\n      swap1\n      pop\n        /* \"contracts/Demo.sol\":1127:1247  function toUFixed8x1(uint8 a) internal pure returns (UFixed8x1) {... */\n      swap2\n      swap1\n      pop\n      jump\t// out\n        /* \"contracts/Demo.sol\":899:1015  function floor(UFixed8x1 a) internal pure returns (uint8) {... */\n    tag_34:\n        /* \"contracts/Demo.sol\":950:955  uint8 */\n      0x00\n        /* \"contracts/Demo.sol\":293:295  10 */\n      0x0a\n        /* \"contracts/Demo.sol\":992:993  a */\n      dup3\n        /* \"contracts/Demo.sol\":975:1007  UFixed8x1.unwrap(a) / multiplier */\n      tag_45\n      swap2\n      swap1\n      tag_46\n      jump\t// in\n    tag_45:\n        /* \"contracts/Demo.sol\":968:1007  return UFixed8x1.unwrap(a) / multiplier */\n      swap1\n      pop\n        /* \"contracts/Demo.sol\":899:1015  function floor(UFixed8x1 a) internal pure returns (uint8) {... */\n      swap2\n      swap1\n      pop\n      jump\t// out\n        /* \"contracts/Demo.sol\":400:556  function add(UFixed8x1 a, UFixed8x1 b) internal pure returns (UFixed8x1) {... */\n    tag_37:\n        /* \"contracts/Demo.sol\":462:471  UFixed8x1 */\n      0x00\n        /* \"contracts/Demo.sol\":545:546  b */\n      dup2\n        /* \"contracts/Demo.sol\":523:524  a */\n      dup4\n        /* \"contracts/Demo.sol\":506:547  UFixed8x1.unwrap(a) + UFixed8x1.unwrap(b) */\n      tag_48\n      swap2\n      swap1\n      tag_49\n      jump\t// in\n    tag_48:\n        /* \"contracts/Demo.sol\":484:548  return UFixed8x1.wrap(UFixed8x1.unwrap(a) + UFixed8x1.unwrap(b)) */\n      swap1\n      pop\n        /* \"contracts/Demo.sol\":400:556  function add(UFixed8x1 a, UFixed8x1 b) internal pure returns (UFixed8x1) {... */\n      swap3\n      swap2\n      pop\n      pop\n      jump\t// out\n        /* \"contracts/Demo.sol\":651:785  function mul(UFixed8x1 a, uint8 b) internal pure returns (UFixed8x1) {... */\n    tag_40:\n        /* \"contracts/Demo.sol\":709:718  UFixed8x1 */\n      0x00\n        /* \"contracts/Demo.sol\":775:776  b */\n      dup2\n        /* \"contracts/Demo.sol\":770:771  a */\n      dup4\n        /* \"contracts/Demo.sol\":753:776  UFixed8x1.unwrap(a) * b */\n      tag_51\n      swap2\n      swap1\n      tag_43\n      jump\t// in\n    tag_51:\n        /* \"contracts/Demo.sol\":731:777  return UFixed8x1.wrap(UFixed8x1.unwrap(a) * b) */\n      swap1\n      pop\n        /* \"contracts/Demo.sol\":651:785  function mul(UFixed8x1 a, uint8 b) internal pure returns (UFixed8x1) {... */\n      swap3\n      swap2\n      pop\n      pop\n      jump\t// out\n        /* \"#utility.yul\":88:205   */\n    tag_53:\n        /* \"#utility.yul\":197:198   */\n      0x00\n        /* \"#utility.yul\":194:195   */\n      dup1\n        /* \"#utility.yul\":187:199   */\n      revert\n        /* \"#utility.yul\":334:420   */\n    tag_55:\n        /* \"#utility.yul\":369:376   */\n      0x00\n        /* \"#utility.yul\":409:413   */\n      0xff\n        /* \"#utility.yul\":402:407   */\n      dup3\n        /* \"#utility.yul\":398:414   */\n      and\n        /* \"#utility.yul\":387:414   */\n      swap1\n      pop\n        /* \"#utility.yul\":334:420   */\n      swap2\n      swap1\n      pop\n      jump\t// out\n        /* \"#utility.yul\":426:544   */\n    tag_56:\n        /* \"#utility.yul\":497:519   */\n      tag_72\n        /* \"#utility.yul\":513:518   */\n      dup2\n        /* \"#utility.yul\":497:519   */\n      tag_55\n      jump\t// in\n    tag_72:\n        /* \"#utility.yul\":490:495   */\n      dup2\n        /* \"#utility.yul\":487:520   */\n      eq\n        /* \"#utility.yul\":477:538   */\n      tag_73\n      jumpi\n        /* \"#utility.yul\":534:535   */\n      0x00\n        /* \"#utility.yul\":531:532   */\n      dup1\n        /* \"#utility.yul\":524:536   */\n      revert\n        /* \"#utility.yul\":477:538   */\n    tag_73:\n        /* \"#utility.yul\":426:544   */\n      pop\n      jump\t// out\n        /* \"#utility.yul\":550:685   */\n    tag_57:\n        /* \"#utility.yul\":594:599   */\n      0x00\n        /* \"#utility.yul\":632:638   */\n      dup2\n        /* \"#utility.yul\":619:639   */\n      calldataload\n        /* \"#utility.yul\":610:639   */\n      swap1\n      pop\n        /* \"#utility.yul\":648:679   */\n      tag_75\n        /* \"#utility.yul\":673:678   */\n      dup2\n        /* \"#utility.yul\":648:679   */\n      tag_56\n      jump\t// in\n    tag_75:\n        /* \"#utility.yul\":550:685   */\n      swap3\n      swap2\n      pop\n      pop\n      jump\t// out\n        /* \"#utility.yul\":691:1016   */\n    tag_9:\n        /* \"#utility.yul\":748:754   */\n      0x00\n        /* \"#utility.yul\":797:799   */\n      0x20\n        /* \"#utility.yul\":785:794   */\n      dup3\n        /* \"#utility.yul\":776:783   */\n      dup5\n        /* \"#utility.yul\":772:795   */\n      sub\n        /* \"#utility.yul\":768:800   */\n      slt\n        /* \"#utility.yul\":765:884   */\n      iszero\n      tag_77\n      jumpi\n        /* \"#utility.yul\":803:882   */\n      tag_78\n      tag_53\n      jump\t// in\n    tag_78:\n        /* \"#utility.yul\":765:884   */\n    tag_77:\n        /* \"#utility.yul\":923:924   */\n      0x00\n        /* \"#utility.yul\":948:999   */\n      tag_79\n        /* \"#utility.yul\":991:998   */\n      dup5\n        /* \"#utility.yul\":982:988   */\n      dup3\n        /* \"#utility.yul\":971:980   */\n      dup6\n        /* \"#utility.yul\":967:989   */\n      add\n        /* \"#utility.yul\":948:999   */\n      tag_57\n      jump\t// in\n    tag_79:\n        /* \"#utility.yul\":938:999   */\n      swap2\n      pop\n        /* \"#utility.yul\":894:1009   */\n      pop\n        /* \"#utility.yul\":691:1016   */\n      swap3\n      swap2\n      pop\n      pop\n      jump\t// out\n        /* \"#utility.yul\":1022:1082   */\n    tag_58:\n        /* \"#utility.yul\":1050:1053   */\n      0x00\n        /* \"#utility.yul\":1071:1076   */\n      dup2\n        /* \"#utility.yul\":1064:1076   */\n      swap1\n      pop\n        /* \"#utility.yul\":1022:1082   */\n      swap2\n      swap1\n      pop\n      jump\t// out\n        /* \"#utility.yul\":1088:1222   */\n    tag_59:\n        /* \"#utility.yul\":1134:1143   */\n      0x00\n        /* \"#utility.yul\":1167:1216   */\n      tag_82\n        /* \"#utility.yul\":1183:1215   */\n      tag_83\n        /* \"#utility.yul\":1192:1214   */\n      tag_84\n        /* \"#utility.yul\":1208:1213   */\n      dup5\n        /* \"#utility.yul\":1192:1214   */\n      tag_55\n      jump\t// in\n    tag_84:\n        /* \"#utility.yul\":1183:1215   */\n      tag_58\n      jump\t// in\n    tag_83:\n        /* \"#utility.yul\":1167:1216   */\n      tag_55\n      jump\t// in\n    tag_82:\n        /* \"#utility.yul\":1154:1216   */\n      swap1\n      pop\n        /* \"#utility.yul\":1088:1222   */\n      swap2\n      swap1\n      pop\n      jump\t// out\n        /* \"#utility.yul\":1228:1380   */\n    tag_60:\n        /* \"#utility.yul\":1340:1373   */\n      tag_86\n        /* \"#utility.yul\":1367:1372   */\n      dup2\n        /* \"#utility.yul\":1340:1373   */\n      tag_59\n      jump\t// in\n    tag_86:\n        /* \"#utility.yul\":1335:1338   */\n      dup3\n        /* \"#utility.yul\":1328:1374   */\n      mstore\n        /* \"#utility.yul\":1228:1380   */\n      pop\n      pop\n      jump\t// out\n        /* \"#utility.yul\":1386:1658   */\n    tag_12:\n        /* \"#utility.yul\":1504:1508   */\n      0x00\n        /* \"#utility.yul\":1542:1544   */\n      0x20\n        /* \"#utility.yul\":1531:1540   */\n      dup3\n        /* \"#utility.yul\":1527:1545   */\n      add\n        /* \"#utility.yul\":1519:1545   */\n      swap1\n      pop\n        /* \"#utility.yul\":1555:1651   */\n      tag_88\n        /* \"#utility.yul\":1648:1649   */\n      0x00\n        /* \"#utility.yul\":1637:1646   */\n      dup4\n        /* \"#utility.yul\":1633:1650   */\n      add\n        /* \"#utility.yul\":1624:1630   */\n      dup5\n        /* \"#utility.yul\":1555:1651   */\n      tag_60\n      jump\t// in\n    tag_88:\n        /* \"#utility.yul\":1386:1658   */\n      swap3\n      swap2\n      pop\n      pop\n      jump\t// out\n        /* \"#utility.yul\":1664:1811   */\n    tag_61:\n        /* \"#utility.yul\":1764:1786   */\n      tag_90\n        /* \"#utility.yul\":1780:1785   */\n      dup2\n        /* \"#utility.yul\":1764:1786   */\n      tag_55\n      jump\t// in\n    tag_90:\n        /* \"#utility.yul\":1757:1762   */\n      dup2\n        /* \"#utility.yul\":1754:1787   */\n      eq\n        /* \"#utility.yul\":1744:1805   */\n      tag_91\n      jumpi\n        /* \"#utility.yul\":1801:1802   */\n      0x00\n        /* \"#utility.yul\":1798:1799   */\n      dup1\n        /* \"#utility.yul\":1791:1803   */\n      revert\n        /* \"#utility.yul\":1744:1805   */\n    tag_91:\n        /* \"#utility.yul\":1664:1811   */\n      pop\n      jump\t// out\n        /* \"#utility.yul\":1817:2010   */\n    tag_62:\n        /* \"#utility.yul\":1890:1895   */\n      0x00\n        /* \"#utility.yul\":1928:1934   */\n      dup2\n        /* \"#utility.yul\":1915:1935   */\n      calldataload\n        /* \"#utility.yul\":1906:1935   */\n      swap1\n      pop\n        /* \"#utility.yul\":1944:2004   */\n      tag_93\n        /* \"#utility.yul\":1998:2003   */\n      dup2\n        /* \"#utility.yul\":1944:2004   */\n      tag_61\n      jump\t// in\n    tag_93:\n        /* \"#utility.yul\":1817:2010   */\n      swap3\n      swap2\n      pop\n      pop\n      jump\t// out\n        /* \"#utility.yul\":2016:2399   */\n    tag_15:\n        /* \"#utility.yul\":2102:2108   */\n      0x00\n        /* \"#utility.yul\":2151:2153   */\n      0x20\n        /* \"#utility.yul\":2139:2148   */\n      dup3\n        /* \"#utility.yul\":2130:2137   */\n      dup5\n        /* \"#utility.yul\":2126:2149   */\n      sub\n        /* \"#utility.yul\":2122:2154   */\n      slt\n        /* \"#utility.yul\":2119:2238   */\n      iszero\n      tag_95\n      jumpi\n        /* \"#utility.yul\":2157:2236   */\n      tag_96\n      tag_53\n      jump\t// in\n    tag_96:\n        /* \"#utility.yul\":2119:2238   */\n    tag_95:\n        /* \"#utility.yul\":2277:2278   */\n      0x00\n        /* \"#utility.yul\":2302:2382   */\n      tag_97\n        /* \"#utility.yul\":2374:2381   */\n      dup5\n        /* \"#utility.yul\":2365:2371   */\n      dup3\n        /* \"#utility.yul\":2354:2363   */\n      dup6\n        /* \"#utility.yul\":2350:2372   */\n      add\n        /* \"#utility.yul\":2302:2382   */\n      tag_62\n      jump\t// in\n    tag_97:\n        /* \"#utility.yul\":2292:2382   */\n      swap2\n      pop\n        /* \"#utility.yul\":2248:2392   */\n      pop\n        /* \"#utility.yul\":2016:2399   */\n      swap3\n      swap2\n      pop\n      pop\n      jump\t// out\n        /* \"#utility.yul\":2405:2517   */\n    tag_63:\n        /* \"#utility.yul\":2488:2510   */\n      tag_99\n        /* \"#utility.yul\":2504:2509   */\n      dup2\n        /* \"#utility.yul\":2488:2510   */\n      tag_55\n      jump\t// in\n    tag_99:\n        /* \"#utility.yul\":2483:2486   */\n      dup3\n        /* \"#utility.yul\":2476:2511   */\n      mstore\n        /* \"#utility.yul\":2405:2517   */\n      pop\n      pop\n      jump\t// out\n        /* \"#utility.yul\":2523:2737   */\n    tag_18:\n        /* \"#utility.yul\":2612:2616   */\n      0x00\n        /* \"#utility.yul\":2650:2652   */\n      0x20\n        /* \"#utility.yul\":2639:2648   */\n      dup3\n        /* \"#utility.yul\":2635:2653   */\n      add\n        /* \"#utility.yul\":2627:2653   */\n      swap1\n      pop\n        /* \"#utility.yul\":2663:2730   */\n      tag_101\n        /* \"#utility.yul\":2727:2728   */\n      0x00\n        /* \"#utility.yul\":2716:2725   */\n      dup4\n        /* \"#utility.yul\":2712:2729   */\n      add\n        /* \"#utility.yul\":2703:2709   */\n      dup5\n        /* \"#utility.yul\":2663:2730   */\n      tag_63\n      jump\t// in\n    tag_101:\n        /* \"#utility.yul\":2523:2737   */\n      swap3\n      swap2\n      pop\n      pop\n      jump\t// out\n        /* \"#utility.yul\":2743:3325   */\n    tag_21:\n        /* \"#utility.yul\":2865:2871   */\n      0x00\n        /* \"#utility.yul\":2873:2879   */\n      dup1\n        /* \"#utility.yul\":2922:2924   */\n      0x40\n        /* \"#utility.yul\":2910:2919   */\n      dup4\n        /* \"#utility.yul\":2901:2908   */\n      dup6\n        /* \"#utility.yul\":2897:2920   */\n      sub\n        /* \"#utility.yul\":2893:2925   */\n      slt\n        /* \"#utility.yul\":2890:3009   */\n      iszero\n      tag_103\n      jumpi\n        /* \"#utility.yul\":2928:3007   */\n      tag_104\n      tag_53\n      jump\t// in\n    tag_104:\n        /* \"#utility.yul\":2890:3009   */\n    tag_103:\n        /* \"#utility.yul\":3048:3049   */\n      0x00\n        /* \"#utility.yul\":3073:3153   */\n      tag_105\n        /* \"#utility.yul\":3145:3152   */\n      dup6\n        /* \"#utility.yul\":3136:3142   */\n      dup3\n        /* \"#utility.yul\":3125:3134   */\n      dup7\n        /* \"#utility.yul\":3121:3143   */\n      add\n        /* \"#utility.yul\":3073:3153   */\n      tag_62\n      jump\t// in\n    tag_105:\n        /* \"#utility.yul\":3063:3153   */\n      swap3\n      pop\n        /* \"#utility.yul\":3019:3163   */\n      pop\n        /* \"#utility.yul\":3202:3204   */\n      0x20\n        /* \"#utility.yul\":3228:3308   */\n      tag_106\n        /* \"#utility.yul\":3300:3307   */\n      dup6\n        /* \"#utility.yul\":3291:3297   */\n      dup3\n        /* \"#utility.yul\":3280:3289   */\n      dup7\n        /* \"#utility.yul\":3276:3298   */\n      add\n        /* \"#utility.yul\":3228:3308   */\n      tag_62\n      jump\t// in\n    tag_106:\n        /* \"#utility.yul\":3218:3308   */\n      swap2\n      pop\n        /* \"#utility.yul\":3173:3318   */\n      pop\n        /* \"#utility.yul\":2743:3325   */\n      swap3\n      pop\n      swap3\n      swap1\n      pop\n      jump\t// out\n        /* \"#utility.yul\":3331:3855   */\n    tag_26:\n        /* \"#utility.yul\":3424:3430   */\n      0x00\n        /* \"#utility.yul\":3432:3438   */\n      dup1\n        /* \"#utility.yul\":3481:3483   */\n      0x40\n        /* \"#utility.yul\":3469:3478   */\n      dup4\n        /* \"#utility.yul\":3460:3467   */\n      dup6\n        /* \"#utility.yul\":3456:3479   */\n      sub\n        /* \"#utility.yul\":3452:3484   */\n      slt\n        /* \"#utility.yul\":3449:3568   */\n      iszero\n      tag_108\n      jumpi\n        /* \"#utility.yul\":3487:3566   */\n      tag_109\n      tag_53\n      jump\t// in\n    tag_109:\n        /* \"#utility.yul\":3449:3568   */\n    tag_108:\n        /* \"#utility.yul\":3607:3608   */\n      0x00\n        /* \"#utility.yul\":3632:3712   */\n      tag_110\n        /* \"#utility.yul\":3704:3711   */\n      dup6\n        /* \"#utility.yul\":3695:3701   */\n      dup3\n        /* \"#utility.yul\":3684:3693   */\n      dup7\n        /* \"#utility.yul\":3680:3702   */\n      add\n        /* \"#utility.yul\":3632:3712   */\n      tag_62\n      jump\t// in\n    tag_110:\n        /* \"#utility.yul\":3622:3712   */\n      swap3\n      pop\n        /* \"#utility.yul\":3578:3722   */\n      pop\n        /* \"#utility.yul\":3761:3763   */\n      0x20\n        /* \"#utility.yul\":3787:3838   */\n      tag_111\n        /* \"#utility.yul\":3830:3837   */\n      dup6\n        /* \"#utility.yul\":3821:3827   */\n      dup3\n        /* \"#utility.yul\":3810:3819   */\n      dup7\n        /* \"#utility.yul\":3806:3828   */\n      add\n        /* \"#utility.yul\":3787:3838   */\n      tag_57\n      jump\t// in\n    tag_111:\n        /* \"#utility.yul\":3777:3838   */\n      swap2\n      pop\n        /* \"#utility.yul\":3732:3848   */\n      pop\n        /* \"#utility.yul\":3331:3855   */\n      swap3\n      pop\n      swap3\n      swap1\n      pop\n      jump\t// out\n        /* \"#utility.yul\":3861:4041   */\n    tag_64:\n        /* \"#utility.yul\":3909:3986   */\n      0x4e487b7100000000000000000000000000000000000000000000000000000000\n        /* \"#utility.yul\":3906:3907   */\n      0x00\n        /* \"#utility.yul\":3899:3987   */\n      mstore\n        /* \"#utility.yul\":4006:4010   */\n      0x11\n        /* \"#utility.yul\":4003:4004   */\n      0x04\n        /* \"#utility.yul\":3996:4011   */\n      mstore\n        /* \"#utility.yul\":4030:4034   */\n      0x24\n        /* \"#utility.yul\":4027:4028   */\n      0x00\n        /* \"#utility.yul\":4020:4035   */\n      revert\n        /* \"#utility.yul\":4047:4318   */\n    tag_43:\n        /* \"#utility.yul\":4085:4092   */\n      0x00\n        /* \"#utility.yul\":4108:4126   */\n      tag_114\n        /* \"#utility.yul\":4124:4125   */\n      dup3\n        /* \"#utility.yul\":4108:4126   */\n      tag_55\n      jump\t// in\n    tag_114:\n        /* \"#utility.yul\":4103:4126   */\n      swap2\n      pop\n        /* \"#utility.yul\":4140:4158   */\n      tag_115\n        /* \"#utility.yul\":4156:4157   */\n      dup4\n        /* \"#utility.yul\":4140:4158   */\n      tag_55\n      jump\t// in\n    tag_115:\n        /* \"#utility.yul\":4135:4158   */\n      swap3\n      pop\n        /* \"#utility.yul\":4193:4194   */\n      dup3\n        /* \"#utility.yul\":4190:4191   */\n      dup3\n        /* \"#utility.yul\":4186:4195   */\n      mul\n        /* \"#utility.yul\":4215:4243   */\n      tag_116\n        /* \"#utility.yul\":4231:4242   */\n      dup2\n        /* \"#utility.yul\":4215:4243   */\n      tag_55\n      jump\t// in\n    tag_116:\n        /* \"#utility.yul\":4204:4243   */\n      swap2\n      pop\n        /* \"#utility.yul\":4275:4286   */\n      dup1\n        /* \"#utility.yul\":4266:4273   */\n      dup3\n        /* \"#utility.yul\":4263:4287   */\n      eq\n        /* \"#utility.yul\":4253:4311   */\n      tag_117\n      jumpi\n        /* \"#utility.yul\":4291:4309   */\n      tag_118\n      tag_64\n      jump\t// in\n    tag_118:\n        /* \"#utility.yul\":4253:4311   */\n    tag_117:\n        /* \"#utility.yul\":4093:4318   */\n      pop\n        /* \"#utility.yul\":4047:4318   */\n      swap3\n      swap2\n      pop\n      pop\n      jump\t// out\n        /* \"#utility.yul\":4324:4504   */\n    tag_65:\n        /* \"#utility.yul\":4372:4449   */\n      0x4e487b7100000000000000000000000000000000000000000000000000000000\n        /* \"#utility.yul\":4369:4370   */\n      0x00\n        /* \"#utility.yul\":4362:4450   */\n      mstore\n        /* \"#utility.yul\":4469:4473   */\n      0x12\n        /* \"#utility.yul\":4466:4467   */\n      0x04\n        /* \"#utility.yul\":4459:4474   */\n      mstore\n        /* \"#utility.yul\":4493:4497   */\n      0x24\n        /* \"#utility.yul\":4490:4491   */\n      0x00\n        /* \"#utility.yul\":4483:4498   */\n      revert\n        /* \"#utility.yul\":4510:4689   */\n    tag_46:\n        /* \"#utility.yul\":4548:4549   */\n      0x00\n        /* \"#utility.yul\":4565:4583   */\n      tag_121\n        /* \"#utility.yul\":4581:4582   */\n      dup3\n        /* \"#utility.yul\":4565:4583   */\n      tag_55\n      jump\t// in\n    tag_121:\n        /* \"#utility.yul\":4560:4583   */\n      swap2\n      pop\n        /* \"#utility.yul\":4597:4615   */\n      tag_122\n        /* \"#utility.yul\":4613:4614   */\n      dup4\n        /* \"#utility.yul\":4597:4615   */\n      tag_55\n      jump\t// in\n    tag_122:\n        /* \"#utility.yul\":4592:4615   */\n      swap3\n      pop\n        /* \"#utility.yul\":4634:4635   */\n      dup3\n        /* \"#utility.yul\":4624:4659   */\n      tag_123\n      jumpi\n        /* \"#utility.yul\":4639:4657   */\n      tag_124\n      tag_65\n      jump\t// in\n    tag_124:\n        /* \"#utility.yul\":4624:4659   */\n    tag_123:\n        /* \"#utility.yul\":4681:4682   */\n      dup3\n        /* \"#utility.yul\":4678:4679   */\n      dup3\n        /* \"#utility.yul\":4674:4683   */\n      div\n        /* \"#utility.yul\":4669:4683   */\n      swap1\n      pop\n        /* \"#utility.yul\":4510:4689   */\n      swap3\n      swap2\n      pop\n      pop\n      jump\t// out\n        /* \"#utility.yul\":4695:4883   */\n    tag_49:\n        /* \"#utility.yul\":4733:4736   */\n      0x00\n        /* \"#utility.yul\":4752:4770   */\n      tag_126\n        /* \"#utility.yul\":4768:4769   */\n      dup3\n        /* \"#utility.yul\":4752:4770   */\n      tag_55\n      jump\t// in\n    tag_126:\n        /* \"#utility.yul\":4747:4770   */\n      swap2\n      pop\n        /* \"#utility.yul\":4784:4802   */\n      tag_127\n        /* \"#utility.yul\":4800:4801   */\n      dup4\n        /* \"#utility.yul\":4784:4802   */\n      tag_55\n      jump\t// in\n    tag_127:\n        /* \"#utility.yul\":4779:4802   */\n      swap3\n      pop\n        /* \"#utility.yul\":4825:4826   */\n      dup3\n        /* \"#utility.yul\":4822:4823   */\n      dup3\n        /* \"#utility.yul\":4818:4827   */\n      add\n        /* \"#utility.yul\":4811:4827   */\n      swap1\n      pop\n        /* \"#utility.yul\":4848:4852   */\n      0xff\n        /* \"#utility.yul\":4843:4846   */\n      dup2\n        /* \"#utility.yul\":4840:4853   */\n      gt\n        /* \"#utility.yul\":4837:4876   */\n      iszero\n      tag_128\n      jumpi\n        /* \"#utility.yul\":4856:4874   */\n      tag_129\n      tag_64\n      jump\t// in\n    tag_129:\n        /* \"#utility.yul\":4837:4876   */\n    tag_128:\n        /* \"#utility.yul\":4695:4883   */\n      swap3\n      swap2\n      pop\n      pop\n      jump\t// out\n\n    auxdata: 0xa2646970667358221220fbb42f4948c2dc7e0466c97159b3446f4db5cfa7dd9e7345905f13f0ad5df38064736f6c63430008180033\n}\n",
				"bytecode": {
					"linkReferences": {},
					"object": "608060405234801561000f575f80fd5b5061048a8061001d5f395ff3fe608060405234801561000f575f80fd5b506004361061004a575f3560e01c806312e8e1aa1461004e5780633dca39271461007e578063bb4e3f4d146100ae578063e51a3b40146100de575b5f80fd5b610068600480360381019061006391906101e4565b61010e565b6040516100759190610248565b60405180910390f35b6100986004803603810190610093919061028b565b61011f565b6040516100a591906102c5565b60405180910390f35b6100c860048036038101906100c391906102de565b610130565b6040516100d59190610248565b60405180910390f35b6100f860048036038101906100f3919061031c565b610143565b6040516101059190610248565b60405180910390f35b5f61011882610156565b9050919050565b5f6101298261016b565b9050919050565b5f61013b8383610180565b905092915050565b5f61014e8383610195565b905092915050565b5f600a826101649190610387565b9050919050565b5f600a8261017991906103f0565b9050919050565b5f818361018d9190610420565b905092915050565b5f81836101a29190610387565b905092915050565b5f80fd5b5f60ff82169050919050565b6101c3816101ae565b81146101cd575f80fd5b50565b5f813590506101de816101ba565b92915050565b5f602082840312156101f9576101f86101aa565b5b5f610206848285016101d0565b91505092915050565b5f819050919050565b5f61023261022d610228846101ae565b61020f565b6101ae565b9050919050565b61024281610218565b82525050565b5f60208201905061025b5f830184610239565b92915050565b61026a816101ae565b8114610274575f80fd5b50565b5f8135905061028581610261565b92915050565b5f602082840312156102a05761029f6101aa565b5b5f6102ad84828501610277565b91505092915050565b6102bf816101ae565b82525050565b5f6020820190506102d85f8301846102b6565b92915050565b5f80604083850312156102f4576102f36101aa565b5b5f61030185828601610277565b925050602061031285828601610277565b9150509250929050565b5f8060408385031215610332576103316101aa565b5b5f61033f85828601610277565b9250506020610350858286016101d0565b9150509250929050565b7f4e487b71000000000000000000000000000000000000000000000000000000005f52601160045260245ffd5b5f610391826101ae565b915061039c836101ae565b92508282026103aa816101ae565b91508082146103bc576103bb61035a565b5b5092915050565b7f4e487b71000000000000000000000000000000000000000000000000000000005f52601260045260245ffd5b5f6103fa826101ae565b9150610405836101ae565b925082610415576104146103c3565b5b828204905092915050565b5f61042a826101ae565b9150610435836101ae565b9250828201905060ff81111561044e5761044d61035a565b5b9291505056fea2646970667358221220fbb42f4948c2dc7e0466c97159b3446f4db5cfa7dd9e7345905f13f0ad5df38064736f6c63430008180033",
					"opcodes": "PUSH1 0x80 PUSH1 0x40 MSTORE CALLVALUE DUP1 ISZERO PUSH2 0xF JUMPI PUSH0 DUP1 REVERT JUMPDEST POP PUSH2 0x48A DUP1 PUSH2 0x1D PUSH0 CODECOPY PUSH0 RETURN INVALID PUSH1 0x80 PUSH1 0x40 MSTORE CALLVALUE DUP1 ISZERO PUSH2 0xF JUMPI PUSH0 DUP1 REVERT JUMPDEST POP PUSH1 0x4 CALLDATASIZE LT PUSH2 0x4A JUMPI PUSH0 CALLDATALOAD PUSH1 0xE0 SHR DUP1 PUSH4 0x12E8E1AA EQ PUSH2 0x4E JUMPI DUP1 PUSH4 0x3DCA3927 EQ PUSH2 0x7E JUMPI DUP1 PUSH4 0xBB4E3F4D EQ PUSH2 0xAE JUMPI DUP1 PUSH4 0xE51A3B40 EQ PUSH2 0xDE JUMPI JUMPDEST PUSH0 DUP1 REVERT JUMPDEST PUSH2 0x68 PUSH1 0x4 DUP1 CALLDATASIZE SUB DUP2 ADD SWAP1 PUSH2 0x63 SWAP2 SWAP1 PUSH2 0x1E4 JUMP JUMPDEST PUSH2 0x10E JUMP JUMPDEST PUSH1 0x40 MLOAD PUSH2 0x75 SWAP2 SWAP1 PUSH2 0x248 JUMP JUMPDEST PUSH1 0x40 MLOAD DUP1 SWAP2 SUB SWAP1 RETURN JUMPDEST PUSH2 0x98 PUSH1 0x4 DUP1 CALLDATASIZE SUB DUP2 ADD SWAP1 PUSH2 0x93 SWAP2 SWAP1 PUSH2 0x28B JUMP JUMPDEST PUSH2 0x11F JUMP JUMPDEST PUSH1 0x40 MLOAD PUSH2 0xA5 SWAP2 SWAP1 PUSH2 0x2C5 JUMP JUMPDEST PUSH1 0x40 MLOAD DUP1 SWAP2 SUB SWAP1 RETURN JUMPDEST PUSH2 0xC8 PUSH1 0x4 DUP1 CALLDATASIZE SUB DUP2 ADD SWAP1 PUSH2 0xC3 SWAP2 SWAP1 PUSH2 0x2DE JUMP JUMPDEST PUSH2 0x130 JUMP JUMPDEST PUSH1 0x40 MLOAD PUSH2 0xD5 SWAP2 SWAP1 PUSH2 0x248 JUMP JUMPDEST PUSH1 0x40 MLOAD DUP1 SWAP2 SUB SWAP1 RETURN JUMPDEST PUSH2 0xF8 PUSH1 0x4 DUP1 CALLDATASIZE SUB DUP2 ADD SWAP1 PUSH2 0xF3 SWAP2 SWAP1 PUSH2 0x31C JUMP JUMPDEST PUSH2 0x143 JUMP JUMPDEST PUSH1 0x40 MLOAD PUSH2 0x105 SWAP2 SWAP1 PUSH2 0x248 JUMP JUMPDEST PUSH1 0x40 MLOAD DUP1 SWAP2 SUB SWAP1 RETURN JUMPDEST PUSH0 PUSH2 0x118 DUP3 PUSH2 0x156 JUMP JUMPDEST SWAP1 POP SWAP2 SWAP1 POP JUMP JUMPDEST PUSH0 PUSH2 0x129 DUP3 PUSH2 0x16B JUMP JUMPDEST SWAP1 POP SWAP2 SWAP1 POP JUMP JUMPDEST PUSH0 PUSH2 0x13B DUP4 DUP4 PUSH2 0x180 JUMP JUMPDEST SWAP1 POP SWAP3 SWAP2 POP POP JUMP JUMPDEST PUSH0 PUSH2 0x14E DUP4 DUP4 PUSH2 0x195 JUMP JUMPDEST SWAP1 POP SWAP3 SWAP2 POP POP JUMP JUMPDEST PUSH0 PUSH1 0xA DUP3 PUSH2 0x164 SWAP2 SWAP1 PUSH2 0x387 JUMP JUMPDEST SWAP1 POP SWAP2 SWAP1 POP JUMP JUMPDEST PUSH0 PUSH1 0xA DUP3 PUSH2 0x179 SWAP2 SWAP1 PUSH2 0x3F0 JUMP JUMPDEST SWAP1 POP SWAP2 SWAP1 POP JUMP JUMPDEST PUSH0 DUP2 DUP4 PUSH2 0x18D SWAP2 SWAP1 PUSH2 0x420 JUMP JUMPDEST SWAP1 POP SWAP3 SWAP2 POP POP JUMP JUMPDEST PUSH0 DUP2 DUP4 PUSH2 0x1A2 SWAP2 SWAP1 PUSH2 0x387 JUMP JUMPDEST SWAP1 POP SWAP3 SWAP2 POP POP JUMP JUMPDEST PUSH0 DUP1 REVERT JUMPDEST PUSH0 PUSH1 0xFF DUP3 AND SWAP1 POP SWAP2 SWAP1 POP JUMP JUMPDEST PUSH2 0x1C3 DUP2 PUSH2 0x1AE JUMP JUMPDEST DUP2 EQ PUSH2 0x1CD JUMPI PUSH0 DUP1 REVERT JUMPDEST POP JUMP JUMPDEST PUSH0 DUP2 CALLDATALOAD SWAP1 POP PUSH2 0x1DE DUP2 PUSH2 0x1BA JUMP JUMPDEST SWAP3 SWAP2 POP POP JUMP JUMPDEST PUSH0 PUSH1 0x20 DUP3 DUP5 SUB SLT ISZERO PUSH2 0x1F9 JUMPI PUSH2 0x1F8 PUSH2 0x1AA JUMP JUMPDEST JUMPDEST PUSH0 PUSH2 0x206 DUP5 DUP3 DUP6 ADD PUSH2 0x1D0 JUMP JUMPDEST SWAP2 POP POP SWAP3 SWAP2 POP POP JUMP JUMPDEST PUSH0 DUP2 SWAP1 POP SWAP2 SWAP1 POP JUMP JUMPDEST PUSH0 PUSH2 0x232 PUSH2 0x22D PUSH2 0x228 DUP5 PUSH2 0x1AE JUMP JUMPDEST PUSH2 0x20F JUMP JUMPDEST PUSH2 0x1AE JUMP JUMPDEST SWAP1 POP SWAP2 SWAP1 POP JUMP JUMPDEST PUSH2 0x242 DUP2 PUSH2 0x218 JUMP JUMPDEST DUP3 MSTORE POP POP JUMP JUMPDEST PUSH0 PUSH1 0x20 DUP3 ADD SWAP1 POP PUSH2 0x25B PUSH0 DUP4 ADD DUP5 PUSH2 0x239 JUMP JUMPDEST SWAP3 SWAP2 POP POP JUMP JUMPDEST PUSH2 0x26A DUP2 PUSH2 0x1AE JUMP JUMPDEST DUP2 EQ PUSH2 0x274 JUMPI PUSH0 DUP1 REVERT JUMPDEST POP JUMP JUMPDEST PUSH0 DUP2 CALLDATALOAD SWAP1 POP PUSH2 0x285 DUP2 PUSH2 0x261 JUMP JUMPDEST SWAP3 SWAP2 POP POP JUMP JUMPDEST PUSH0 PUSH1 0x20 DUP3 DUP5 SUB SLT ISZERO PUSH2 0x2A0 JUMPI PUSH2 0x29F PUSH2 0x1AA JUMP JUMPDEST JUMPDEST PUSH0 PUSH2 0x2AD DUP5 DUP3 DUP6 ADD PUSH2 0x277 JUMP JUMPDEST SWAP2 POP POP SWAP3 SWAP2 POP POP JUMP JUMPDEST PUSH2 0x2BF DUP2 PUSH2 0x1AE JUMP JUMPDEST DUP3 MSTORE POP POP JUMP JUMPDEST PUSH0 PUSH1 0x20 DUP3 ADD SWAP1 POP PUSH2 0x2D8 PUSH0 DUP4 ADD DUP5 PUSH2 0x2B6 JUMP JUMPDEST SWAP3 SWAP2 POP POP JUMP JUMPDEST PUSH0 DUP1 PUSH1 0x40 DUP4 DUP6 SUB SLT ISZERO PUSH2 0x2F4 JUMPI PUSH2 0x2F3 PUSH2 0x1AA JUMP JUMPDEST JUMPDEST PUSH0 PUSH2 0x301 DUP6 DUP3 DUP7 ADD PUSH2 0x277 JUMP JUMPDEST SWAP3 POP POP PUSH1 0x20 PUSH2 0x312 DUP6 DUP3 DUP7 ADD PUSH2 0x277 JUMP JUMPDEST SWAP2 POP POP SWAP3 POP SWAP3 SWAP1 POP JUMP JUMPDEST PUSH0 DUP1 PUSH1 0x40 DUP4 DUP6 SUB SLT ISZERO PUSH2 0x332 JUMPI PUSH2 0x331 PUSH2 0x1AA JUMP JUMPDEST JUMPDEST PUSH0 PUSH2 0x33F DUP6 DUP3 DUP7 ADD PUSH2 0x277 JUMP JUMPDEST SWAP3 POP POP PUSH1 0x20 PUSH2 0x350 DUP6 DUP3 DUP7 ADD PUSH2 0x1D0 JUMP JUMPDEST SWAP2 POP POP SWAP3 POP SWAP3 SWAP1 POP JUMP JUMPDEST PUSH32 0x4E487B7100000000000000000000000000000000000000000000000000000000 PUSH0 MSTORE PUSH1 0x11 PUSH1 0x4 MSTORE PUSH1 0x24 PUSH0 REVERT JUMPDEST PUSH0 PUSH2 0x391 DUP3 PUSH2 0x1AE JUMP JUMPDEST SWAP2 POP PUSH2 0x39C DUP4 PUSH2 0x1AE JUMP JUMPDEST SWAP3 POP DUP3 DUP3 MUL PUSH2 0x3AA DUP2 PUSH2 0x1AE JUMP JUMPDEST SWAP2 POP DUP1 DUP3 EQ PUSH2 0x3BC JUMPI PUSH2 0x3BB PUSH2 0x35A JUMP JUMPDEST JUMPDEST POP SWAP3 SWAP2 POP POP JUMP JUMPDEST PUSH32 0x4E487B7100000000000000000000000000000000000000000000000000000000 PUSH0 MSTORE PUSH1 0x12 PUSH1 0x4 MSTORE PUSH1 0x24 PUSH0 REVERT JUMPDEST PUSH0 PUSH2 0x3FA DUP3 PUSH2 0x1AE JUMP JUMPDEST SWAP2 POP PUSH2 0x405 DUP4 PUSH2 0x1AE JUMP JUMPDEST SWAP3 POP DUP3 PUSH2 0x415 JUMPI PUSH2 0x414 PUSH2 0x3C3 JUMP JUMPDEST JUMPDEST DUP3 DUP3 DIV SWAP1 POP SWAP3 SWAP2 POP POP JUMP JUMPDEST PUSH0 PUSH2 0x42A DUP3 PUSH2 0x1AE JUMP JUMPDEST SWAP2 POP PUSH2 0x435 DUP4 PUSH2 0x1AE JUMP JUMPDEST SWAP3 POP DUP3 DUP3 ADD SWAP1 POP PUSH1 0xFF DUP2 GT ISZERO PUSH2 0x44E JUMPI PUSH2 0x44D PUSH2 0x35A JUMP JUMPDEST JUMPDEST SWAP3 SWAP2 POP POP JUMP INVALID LOG2 PUSH5 0x6970667358 0x22 SLT KECCAK256 0xFB 0xB4 0x2F BLOBHASH BASEFEE 0xC2 0xDC PUSH31 0x466C97159B3446F4DB5CFA7DD9E7345905F13F0AD5DF38064736F6C634300 ADDMOD XOR STOP CALLER "
				},
				"gasEstimates": {
					"creation": {
						"codeDepositCost": "232400",
						"executionCost": "273",
						"totalCost": "232673"
					},
					"external": {
						"add(uint8,uint8)": "infinite",
						"floor(uint8)": "infinite",
						"mul(uint8,uint8)": "infinite",
						"toUFixed8x1(uint8)": "infinite"
					}
				},
				"methodIdentifiers": {
					"add(uint8,uint8)": "bb4e3f4d",
					"floor(uint8)": "3dca3927",
					"mul(uint8,uint8)": "e51a3b40",
					"toUFixed8x1(uint8)": "12e8e1aa"
				}
			},
			"storageLayout": {
				"storage": [],
				"types": null
			},
			"userdoc": {
				"kind": "user",
				"methods": {},
				"version": 1
			}
		}
	}
}