{
	"contracts/Demo12.sol": {
		"ToDoList": {
			"abi": [
				{
					"inputs": [
						{
							"internalType": "string",
							"name": "name_",
							"type": "string"
						}
					],
					"name": "create",
					"outputs": [],
					"stateMutability": "nonpayable",
					"type": "function"
				},
				{
					"inputs": [
						{
							"internalType": "uint256",
							"name": "index_",
							"type": "uint256"
						}
					],
					"name": "get1",
					"outputs": [
						{
							"internalType": "string",
							"name": "name_",
							"type": "string"
						},
						{
							"internalType": "bool",
							"name": "isComplete",
							"type": "bool"
						}
					],
					"stateMutability": "view",
					"type": "function"
				},
				{
					"inputs": [
						{
							"internalType": "uint256",
							"name": "index_",
							"type": "uint256"
						}
					],
					"name": "get2",
					"outputs": [
						{
							"internalType": "string",
							"name": "name_",
							"type": "string"
						},
						{
							"internalType": "bool",
							"name": "isComplete",
							"type": "bool"
						}
					],
					"stateMutability": "view",
					"type": "function"
				},
				{
					"inputs": [
						{
							"internalType": "uint256",
							"name": "",
							"type": "uint256"
						}
					],
					"name": "list",
					"outputs": [
						{
							"internalType": "uint256",
							"name": "index",
							"type": "uint256"
						},
						{
							"internalType": "string",
							"name": "name",
							"type": "string"
						},
						{
							"internalType": "bool",
							"name": "isComplete",
							"type": "bool"
						}
					],
					"stateMutability": "view",
					"type": "function"
				},
				{
					"inputs": [
						{
							"internalType": "uint256",
							"name": "index_",
							"type": "uint256"
						},
						{
							"internalType": "string",
							"name": "name_",
							"type": "string"
						}
					],
					"name": "modiName1",
					"outputs": [],
					"stateMutability": "nonpayable",
					"type": "function"
				},
				{
					"inputs": [
						{
							"internalType": "uint256",
							"name": "index_",
							"type": "uint256"
						},
						{
							"internalType": "bool",
							"name": "status_",
							"type": "bool"
						}
					],
					"name": "modiStatus1",
					"outputs": [],
					"stateMutability": "nonpayable",
					"type": "function"
				},
				{
					"inputs": [
						{
							"internalType": "uint256",
							"name": "index_",
							"type": "uint256"
						}
					],
					"name": "modiStatus2",
					"outputs": [],
					"stateMutability": "nonpayable",
					"type": "function"
				}
			],
			"devdoc": {
				"kind": "dev",
				"methods": {},
				"version": 1
			},
			"evm": {
				"assembly": "    /* \"contracts/Demo12.sol\":93:2201  contract ToDoList{... */\n  mstore(0x40, 0x80)\n  callvalue\n  dup1\n  iszero\n  tag_1\n  jumpi\n  0x00\n  dup1\n  revert\ntag_1:\n  pop\n  dataSize(sub_0)\n  dup1\n  dataOffset(sub_0)\n  0x00\n  codecopy\n  0x00\n  return\nstop\n\nsub_0: assembly {\n        /* \"contracts/Demo12.sol\":93:2201  contract ToDoList{... */\n      mstore(0x40, 0x80)\n      callvalue\n      dup1\n      iszero\n      tag_1\n      jumpi\n      0x00\n      dup1\n      revert\n    tag_1:\n      pop\n      jumpi(tag_2, lt(calldatasize, 0x04))\n      shr(0xe0, calldataload(0x00))\n      dup1\n      0x80c9419e\n      gt\n      tag_10\n      jumpi\n      dup1\n      0x80c9419e\n      eq\n      tag_6\n      jumpi\n      dup1\n      0x9c117f0f\n      eq\n      tag_7\n      jumpi\n      dup1\n      0xb6a46b3b\n      eq\n      tag_8\n      jumpi\n      dup1\n      0xd511b4be\n      eq\n      tag_9\n      jumpi\n      jump(tag_2)\n    tag_10:\n      dup1\n      0x1fbb5bc5\n      eq\n      tag_3\n      jumpi\n      dup1\n      0x31184dc3\n      eq\n      tag_4\n      jumpi\n      dup1\n      0x4112a18e\n      eq\n      tag_5\n      jumpi\n    tag_2:\n      0x00\n      dup1\n      revert\n        /* \"contracts/Demo12.sol\":481:789  function modiName1(uint256 index_,string memory name_) public {... */\n    tag_3:\n      tag_11\n      0x04\n      dup1\n      calldatasize\n      sub\n      dup2\n      add\n      swap1\n      tag_12\n      swap2\n      swap1\n      tag_13\n      jump\t// in\n    tag_12:\n      tag_14\n      jump\t// in\n    tag_11:\n      stop\n        /* \"contracts/Demo12.sol\":1817:2195  function get2(uint256 index_) public view returns(string memory name_,bool isComplete){... */\n    tag_4:\n      tag_15\n      0x04\n      dup1\n      calldatasize\n      sub\n      dup2\n      add\n      swap1\n      tag_16\n      swap2\n      swap1\n      tag_17\n      jump\t// in\n    tag_16:\n      tag_18\n      jump\t// in\n    tag_15:\n      mload(0x40)\n      tag_19\n      swap3\n      swap2\n      swap1\n      tag_20\n      jump\t// in\n    tag_19:\n      mload(0x40)\n      dup1\n      swap2\n      sub\n      swap1\n      return\n        /* \"contracts/Demo12.sol\":797:1107  function modiStatus1(uint256 index_,bool status_) public{... */\n    tag_5:\n      tag_21\n      0x04\n      dup1\n      calldatasize\n      sub\n      dup2\n      add\n      swap1\n      tag_22\n      swap2\n      swap1\n      tag_23\n      jump\t// in\n    tag_22:\n      tag_24\n      jump\t// in\n    tag_21:\n      stop\n        /* \"contracts/Demo12.sol\":214:232  Todo[] public list */\n    tag_6:\n      tag_25\n      0x04\n      dup1\n      calldatasize\n      sub\n      dup2\n      add\n      swap1\n      tag_26\n      swap2\n      swap1\n      tag_17\n      jump\t// in\n    tag_26:\n      tag_27\n      jump\t// in\n    tag_25:\n      mload(0x40)\n      tag_28\n      swap4\n      swap3\n      swap2\n      swap1\n      tag_29\n      jump\t// in\n    tag_28:\n      mload(0x40)\n      dup1\n      swap2\n      sub\n      swap1\n      return\n        /* \"contracts/Demo12.sol\":1429:1808  function get1(uint256 index_) public view returns(string memory name_,bool isComplete){... */\n    tag_7:\n      tag_30\n      0x04\n      dup1\n      calldatasize\n      sub\n      dup2\n      add\n      swap1\n      tag_31\n      swap2\n      swap1\n      tag_17\n      jump\t// in\n    tag_31:\n      tag_32\n      jump\t// in\n    tag_30:\n      mload(0x40)\n      tag_33\n      swap3\n      swap2\n      swap1\n      tag_20\n      jump\t// in\n    tag_33:\n      mload(0x40)\n      dup1\n      swap2\n      sub\n      swap1\n      return\n        /* \"contracts/Demo12.sol\":261:472  function create(string memory name_) public{... */\n    tag_8:\n      tag_34\n      0x04\n      dup1\n      calldatasize\n      sub\n      dup2\n      add\n      swap1\n      tag_35\n      swap2\n      swap1\n      tag_36\n      jump\t// in\n    tag_35:\n      tag_37\n      jump\t// in\n    tag_34:\n      stop\n        /* \"contracts/Demo12.sol\":1115:1421  function modiStatus2(uint256 index_) public{... */\n    tag_9:\n      tag_38\n      0x04\n      dup1\n      calldatasize\n      sub\n      dup2\n      add\n      swap1\n      tag_39\n      swap2\n      swap1\n      tag_17\n      jump\t// in\n    tag_39:\n      tag_40\n      jump\t// in\n    tag_38:\n      stop\n        /* \"contracts/Demo12.sol\":481:789  function modiName1(uint256 index_,string memory name_) public {... */\n    tag_14:\n        /* \"contracts/Demo12.sol\":554:571  Todo storage todo */\n      0x00\n        /* \"contracts/Demo12.sol\":586:595  uint256 i */\n      dup1\n        /* \"contracts/Demo12.sol\":598:599  0 */\n      0x00\n        /* \"contracts/Demo12.sol\":586:599  uint256 i = 0 */\n      swap1\n      pop\n        /* \"contracts/Demo12.sol\":582:782  for(uint256 i = 0;i< list.length;i++){... */\n    tag_42:\n        /* \"contracts/Demo12.sol\":603:607  list */\n      0x00\n        /* \"contracts/Demo12.sol\":603:614  list.length */\n      dup1\n      sload\n      swap1\n      pop\n        /* \"contracts/Demo12.sol\":600:601  i */\n      dup2\n        /* \"contracts/Demo12.sol\":600:614  i< list.length */\n      lt\n        /* \"contracts/Demo12.sol\":582:782  for(uint256 i = 0;i< list.length;i++){... */\n      iszero\n      tag_43\n      jumpi\n        /* \"contracts/Demo12.sol\":654:660  index_ */\n      dup4\n        /* \"contracts/Demo12.sol\":637:641  list */\n      0x00\n        /* \"contracts/Demo12.sol\":642:643  i */\n      dup3\n        /* \"contracts/Demo12.sol\":637:644  list[i] */\n      dup2\n      sload\n      dup2\n      lt\n      tag_45\n      jumpi\n      tag_46\n      tag_47\n      jump\t// in\n    tag_46:\n    tag_45:\n      swap1\n      0x00\n      mstore\n      keccak256(0x00, 0x20)\n      swap1\n      0x03\n      mul\n      add\n        /* \"contracts/Demo12.sol\":637:650  list[i].index */\n      0x00\n      add\n      sload\n        /* \"contracts/Demo12.sol\":637:660  list[i].index == index_ */\n      sub\n        /* \"contracts/Demo12.sol\":634:771  if(list[i].index == index_){... */\n      tag_49\n      jumpi\n        /* \"contracts/Demo12.sol\":687:691  list */\n      0x00\n        /* \"contracts/Demo12.sol\":692:693  i */\n      dup2\n        /* \"contracts/Demo12.sol\":687:694  list[i] */\n      dup2\n      sload\n      dup2\n      lt\n      tag_50\n      jumpi\n      tag_51\n      tag_47\n      jump\t// in\n    tag_51:\n    tag_50:\n      swap1\n      0x00\n      mstore\n      keccak256(0x00, 0x20)\n      swap1\n      0x03\n      mul\n      add\n        /* \"contracts/Demo12.sol\":680:694  todo = list[i] */\n      swap2\n      pop\n        /* \"contracts/Demo12.sol\":725:730  name_ */\n      dup3\n        /* \"contracts/Demo12.sol\":713:717  todo */\n      dup3\n        /* \"contracts/Demo12.sol\":713:722  todo.name */\n      0x01\n      add\n        /* \"contracts/Demo12.sol\":713:730  todo.name = name_ */\n      swap1\n      dup2\n      tag_53\n      swap2\n      swap1\n      tag_54\n      jump\t// in\n    tag_53:\n      pop\n        /* \"contracts/Demo12.sol\":749:754  break */\n      jump(tag_43)\n        /* \"contracts/Demo12.sol\":634:771  if(list[i].index == index_){... */\n    tag_49:\n        /* \"contracts/Demo12.sol\":615:618  i++ */\n      dup1\n      dup1\n      0x01\n      add\n      swap2\n      pop\n      pop\n        /* \"contracts/Demo12.sol\":582:782  for(uint256 i = 0;i< list.length;i++){... */\n      jump(tag_42)\n    tag_43:\n      pop\n        /* \"contracts/Demo12.sol\":543:789  {... */\n      pop\n        /* \"contracts/Demo12.sol\":481:789  function modiName1(uint256 index_,string memory name_) public {... */\n      pop\n      pop\n      jump\t// out\n        /* \"contracts/Demo12.sol\":1817:2195  function get2(uint256 index_) public view returns(string memory name_,bool isComplete){... */\n    tag_18:\n        /* \"contracts/Demo12.sol\":1867:1886  string memory name_ */\n      0x60\n        /* \"contracts/Demo12.sol\":1887:1902  bool isComplete */\n      0x00\n        /* \"contracts/Demo12.sol\":1914:1930  Todo memory todo */\n      tag_56\n      tag_57\n      jump\t// in\n    tag_56:\n        /* \"contracts/Demo12.sol\":1945:1954  uint256 i */\n      0x00\n        /* \"contracts/Demo12.sol\":1941:2188  for(uint256 i = 0;i< list.length;i++){... */\n    tag_58:\n        /* \"contracts/Demo12.sol\":1962:1966  list */\n      0x00\n        /* \"contracts/Demo12.sol\":1962:1973  list.length */\n      dup1\n      sload\n      swap1\n      pop\n        /* \"contracts/Demo12.sol\":1959:1960  i */\n      dup2\n        /* \"contracts/Demo12.sol\":1959:1973  i< list.length */\n      lt\n        /* \"contracts/Demo12.sol\":1941:2188  for(uint256 i = 0;i< list.length;i++){... */\n      iszero\n      tag_59\n      jumpi\n        /* \"contracts/Demo12.sol\":2013:2019  index_ */\n      dup5\n        /* \"contracts/Demo12.sol\":1996:2000  list */\n      0x00\n        /* \"contracts/Demo12.sol\":2001:2002  i */\n      dup3\n        /* \"contracts/Demo12.sol\":1996:2003  list[i] */\n      dup2\n      sload\n      dup2\n      lt\n      tag_61\n      jumpi\n      tag_62\n      tag_47\n      jump\t// in\n    tag_62:\n    tag_61:\n      swap1\n      0x00\n      mstore\n      keccak256(0x00, 0x20)\n      swap1\n      0x03\n      mul\n      add\n        /* \"contracts/Demo12.sol\":1996:2009  list[i].index */\n      0x00\n      add\n      sload\n        /* \"contracts/Demo12.sol\":1996:2019  list[i].index == index_ */\n      sub\n        /* \"contracts/Demo12.sol\":1993:2177  if(list[i].index == index_){... */\n      tag_64\n      jumpi\n        /* \"contracts/Demo12.sol\":2046:2050  list */\n      0x00\n        /* \"contracts/Demo12.sol\":2051:2052  i */\n      dup2\n        /* \"contracts/Demo12.sol\":2046:2053  list[i] */\n      dup2\n      sload\n      dup2\n      lt\n      tag_65\n      jumpi\n      tag_66\n      tag_47\n      jump\t// in\n    tag_66:\n    tag_65:\n      swap1\n      0x00\n      mstore\n      keccak256(0x00, 0x20)\n      swap1\n      0x03\n      mul\n      add\n        /* \"contracts/Demo12.sol\":2039:2053  todo = list[i] */\n      mload(0x40)\n      dup1\n      0x60\n      add\n      0x40\n      mstore\n      swap1\n      dup2\n      0x00\n      dup3\n      add\n      sload\n      dup2\n      mstore\n      0x20\n      add\n      0x01\n      dup3\n      add\n      dup1\n      sload\n      tag_68\n      swap1\n      tag_69\n      jump\t// in\n    tag_68:\n      dup1\n      0x1f\n      add\n      0x20\n      dup1\n      swap2\n      div\n      mul\n      0x20\n      add\n      mload(0x40)\n      swap1\n      dup2\n      add\n      0x40\n      mstore\n      dup1\n      swap3\n      swap2\n      swap1\n      dup2\n      dup2\n      mstore\n      0x20\n      add\n      dup3\n      dup1\n      sload\n      tag_70\n      swap1\n      tag_69\n      jump\t// in\n    tag_70:\n      dup1\n      iszero\n      tag_71\n      jumpi\n      dup1\n      0x1f\n      lt\n      tag_72\n      jumpi\n      0x0100\n      dup1\n      dup4\n      sload\n      div\n      mul\n      dup4\n      mstore\n      swap2\n      0x20\n      add\n      swap2\n      jump(tag_71)\n    tag_72:\n      dup3\n      add\n      swap2\n      swap1\n      0x00\n      mstore\n      keccak256(0x00, 0x20)\n      swap1\n    tag_73:\n      dup2\n      sload\n      dup2\n      mstore\n      swap1\n      0x01\n      add\n      swap1\n      0x20\n      add\n      dup1\n      dup4\n      gt\n      tag_73\n      jumpi\n      dup3\n      swap1\n      sub\n      0x1f\n      and\n      dup3\n      add\n      swap2\n    tag_71:\n      pop\n      pop\n      pop\n      pop\n      pop\n      dup2\n      mstore\n      0x20\n      add\n      0x02\n      dup3\n      add\n      0x00\n      swap1\n      sload\n      swap1\n      0x0100\n      exp\n      swap1\n      div\n      0xff\n      and\n      iszero\n      iszero\n      iszero\n      iszero\n      dup2\n      mstore\n      pop\n      pop\n      swap2\n      pop\n        /* \"contracts/Demo12.sol\":2080:2084  todo */\n      dup2\n        /* \"contracts/Demo12.sol\":2080:2089  todo.name */\n      0x20\n      add\n      mload\n        /* \"contracts/Demo12.sol\":2072:2089  name_ = todo.name */\n      swap4\n      pop\n        /* \"contracts/Demo12.sol\":2121:2125  todo */\n      dup2\n        /* \"contracts/Demo12.sol\":2121:2136  todo.isComplete */\n      0x40\n      add\n      mload\n        /* \"contracts/Demo12.sol\":2108:2136  isComplete = todo.isComplete */\n      swap3\n      pop\n        /* \"contracts/Demo12.sol\":2155:2160  break */\n      jump(tag_59)\n        /* \"contracts/Demo12.sol\":1993:2177  if(list[i].index == index_){... */\n    tag_64:\n        /* \"contracts/Demo12.sol\":1974:1977  i++ */\n      dup1\n      dup1\n      0x01\n      add\n      swap2\n      pop\n      pop\n        /* \"contracts/Demo12.sol\":1941:2188  for(uint256 i = 0;i< list.length;i++){... */\n      jump(tag_58)\n    tag_59:\n      pop\n        /* \"contracts/Demo12.sol\":1903:2195  {... */\n      pop\n        /* \"contracts/Demo12.sol\":1817:2195  function get2(uint256 index_) public view returns(string memory name_,bool isComplete){... */\n      swap2\n      pop\n      swap2\n      jump\t// out\n        /* \"contracts/Demo12.sol\":797:1107  function modiStatus1(uint256 index_,bool status_) public{... */\n    tag_24:\n        /* \"contracts/Demo12.sol\":864:881  Todo storage todo */\n      0x00\n        /* \"contracts/Demo12.sol\":896:905  uint256 i */\n      dup1\n        /* \"contracts/Demo12.sol\":908:909  0 */\n      0x00\n        /* \"contracts/Demo12.sol\":896:909  uint256 i = 0 */\n      swap1\n      pop\n        /* \"contracts/Demo12.sol\":892:1100  for(uint256 i = 0;i< list.length;i++){... */\n    tag_75:\n        /* \"contracts/Demo12.sol\":913:917  list */\n      0x00\n        /* \"contracts/Demo12.sol\":913:924  list.length */\n      dup1\n      sload\n      swap1\n      pop\n        /* \"contracts/Demo12.sol\":910:911  i */\n      dup2\n        /* \"contracts/Demo12.sol\":910:924  i< list.length */\n      lt\n        /* \"contracts/Demo12.sol\":892:1100  for(uint256 i = 0;i< list.length;i++){... */\n      iszero\n      tag_76\n      jumpi\n        /* \"contracts/Demo12.sol\":964:970  index_ */\n      dup4\n        /* \"contracts/Demo12.sol\":947:951  list */\n      0x00\n        /* \"contracts/Demo12.sol\":952:953  i */\n      dup3\n        /* \"contracts/Demo12.sol\":947:954  list[i] */\n      dup2\n      sload\n      dup2\n      lt\n      tag_78\n      jumpi\n      tag_79\n      tag_47\n      jump\t// in\n    tag_79:\n    tag_78:\n      swap1\n      0x00\n      mstore\n      keccak256(0x00, 0x20)\n      swap1\n      0x03\n      mul\n      add\n        /* \"contracts/Demo12.sol\":947:960  list[i].index */\n      0x00\n      add\n      sload\n        /* \"contracts/Demo12.sol\":947:970  list[i].index == index_ */\n      sub\n        /* \"contracts/Demo12.sol\":944:1089  if(list[i].index == index_){... */\n      tag_81\n      jumpi\n        /* \"contracts/Demo12.sol\":997:1001  list */\n      0x00\n        /* \"contracts/Demo12.sol\":1002:1003  i */\n      dup2\n        /* \"contracts/Demo12.sol\":997:1004  list[i] */\n      dup2\n      sload\n      dup2\n      lt\n      tag_82\n      jumpi\n      tag_83\n      tag_47\n      jump\t// in\n    tag_83:\n    tag_82:\n      swap1\n      0x00\n      mstore\n      keccak256(0x00, 0x20)\n      swap1\n      0x03\n      mul\n      add\n        /* \"contracts/Demo12.sol\":990:1004  todo = list[i] */\n      swap2\n      pop\n        /* \"contracts/Demo12.sol\":1041:1048  status_ */\n      dup3\n        /* \"contracts/Demo12.sol\":1023:1027  todo */\n      dup3\n        /* \"contracts/Demo12.sol\":1023:1038  todo.isComplete */\n      0x02\n      add\n      0x00\n        /* \"contracts/Demo12.sol\":1023:1048  todo.isComplete = status_ */\n      0x0100\n      exp\n      dup2\n      sload\n      dup2\n      0xff\n      mul\n      not\n      and\n      swap1\n      dup4\n      iszero\n      iszero\n      mul\n      or\n      swap1\n      sstore\n      pop\n        /* \"contracts/Demo12.sol\":1067:1072  break */\n      jump(tag_76)\n        /* \"contracts/Demo12.sol\":944:1089  if(list[i].index == index_){... */\n    tag_81:\n        /* \"contracts/Demo12.sol\":925:928  i++ */\n      dup1\n      dup1\n      0x01\n      add\n      swap2\n      pop\n      pop\n        /* \"contracts/Demo12.sol\":892:1100  for(uint256 i = 0;i< list.length;i++){... */\n      jump(tag_75)\n    tag_76:\n      pop\n        /* \"contracts/Demo12.sol\":853:1107  {... */\n      pop\n        /* \"contracts/Demo12.sol\":797:1107  function modiStatus1(uint256 index_,bool status_) public{... */\n      pop\n      pop\n      jump\t// out\n        /* \"contracts/Demo12.sol\":214:232  Todo[] public list */\n    tag_27:\n      0x00\n      dup2\n      dup2\n      sload\n      dup2\n      lt\n      tag_85\n      jumpi\n      0x00\n      dup1\n      revert\n    tag_85:\n      swap1\n      0x00\n      mstore\n      keccak256(0x00, 0x20)\n      swap1\n      0x03\n      mul\n      add\n      0x00\n      swap2\n      pop\n      swap1\n      pop\n      dup1\n      0x00\n      add\n      sload\n      swap1\n      dup1\n      0x01\n      add\n      dup1\n      sload\n      tag_87\n      swap1\n      tag_69\n      jump\t// in\n    tag_87:\n      dup1\n      0x1f\n      add\n      0x20\n      dup1\n      swap2\n      div\n      mul\n      0x20\n      add\n      mload(0x40)\n      swap1\n      dup2\n      add\n      0x40\n      mstore\n      dup1\n      swap3\n      swap2\n      swap1\n      dup2\n      dup2\n      mstore\n      0x20\n      add\n      dup3\n      dup1\n      sload\n      tag_88\n      swap1\n      tag_69\n      jump\t// in\n    tag_88:\n      dup1\n      iszero\n      tag_89\n      jumpi\n      dup1\n      0x1f\n      lt\n      tag_90\n      jumpi\n      0x0100\n      dup1\n      dup4\n      sload\n      div\n      mul\n      dup4\n      mstore\n      swap2\n      0x20\n      add\n      swap2\n      jump(tag_89)\n    tag_90:\n      dup3\n      add\n      swap2\n      swap1\n      0x00\n      mstore\n      keccak256(0x00, 0x20)\n      swap1\n    tag_91:\n      dup2\n      sload\n      dup2\n      mstore\n      swap1\n      0x01\n      add\n      swap1\n      0x20\n      add\n      dup1\n      dup4\n      gt\n      tag_91\n      jumpi\n      dup3\n      swap1\n      sub\n      0x1f\n      and\n      dup3\n      add\n      swap2\n    tag_89:\n      pop\n      pop\n      pop\n      pop\n      pop\n      swap1\n      dup1\n      0x02\n      add\n      0x00\n      swap1\n      sload\n      swap1\n      0x0100\n      exp\n      swap1\n      div\n      0xff\n      and\n      swap1\n      pop\n      dup4\n      jump\t// out\n        /* \"contracts/Demo12.sol\":1429:1808  function get1(uint256 index_) public view returns(string memory name_,bool isComplete){... */\n    tag_32:\n        /* \"contracts/Demo12.sol\":1479:1498  string memory name_ */\n      0x60\n        /* \"contracts/Demo12.sol\":1499:1514  bool isComplete */\n      0x00\n        /* \"contracts/Demo12.sol\":1526:1543  Todo storage todo */\n      dup1\n        /* \"contracts/Demo12.sol\":1558:1567  uint256 i */\n      0x00\n        /* \"contracts/Demo12.sol\":1554:1801  for(uint256 i = 0;i< list.length;i++){... */\n    tag_93:\n        /* \"contracts/Demo12.sol\":1575:1579  list */\n      0x00\n        /* \"contracts/Demo12.sol\":1575:1586  list.length */\n      dup1\n      sload\n      swap1\n      pop\n        /* \"contracts/Demo12.sol\":1572:1573  i */\n      dup2\n        /* \"contracts/Demo12.sol\":1572:1586  i< list.length */\n      lt\n        /* \"contracts/Demo12.sol\":1554:1801  for(uint256 i = 0;i< list.length;i++){... */\n      iszero\n      tag_94\n      jumpi\n        /* \"contracts/Demo12.sol\":1626:1632  index_ */\n      dup5\n        /* \"contracts/Demo12.sol\":1609:1613  list */\n      0x00\n        /* \"contracts/Demo12.sol\":1614:1615  i */\n      dup3\n        /* \"contracts/Demo12.sol\":1609:1616  list[i] */\n      dup2\n      sload\n      dup2\n      lt\n      tag_96\n      jumpi\n      tag_97\n      tag_47\n      jump\t// in\n    tag_97:\n    tag_96:\n      swap1\n      0x00\n      mstore\n      keccak256(0x00, 0x20)\n      swap1\n      0x03\n      mul\n      add\n        /* \"contracts/Demo12.sol\":1609:1622  list[i].index */\n      0x00\n      add\n      sload\n        /* \"contracts/Demo12.sol\":1609:1632  list[i].index == index_ */\n      sub\n        /* \"contracts/Demo12.sol\":1606:1790  if(list[i].index == index_){... */\n      tag_99\n      jumpi\n        /* \"contracts/Demo12.sol\":1659:1663  list */\n      0x00\n        /* \"contracts/Demo12.sol\":1664:1665  i */\n      dup2\n        /* \"contracts/Demo12.sol\":1659:1666  list[i] */\n      dup2\n      sload\n      dup2\n      lt\n      tag_100\n      jumpi\n      tag_101\n      tag_47\n      jump\t// in\n    tag_101:\n    tag_100:\n      swap1\n      0x00\n      mstore\n      keccak256(0x00, 0x20)\n      swap1\n      0x03\n      mul\n      add\n        /* \"contracts/Demo12.sol\":1652:1666  todo = list[i] */\n      swap2\n      pop\n        /* \"contracts/Demo12.sol\":1693:1697  todo */\n      dup2\n        /* \"contracts/Demo12.sol\":1693:1702  todo.name */\n      0x01\n      add\n        /* \"contracts/Demo12.sol\":1685:1702  name_ = todo.name */\n      dup1\n      sload\n      tag_103\n      swap1\n      tag_69\n      jump\t// in\n    tag_103:\n      dup1\n      0x1f\n      add\n      0x20\n      dup1\n      swap2\n      div\n      mul\n      0x20\n      add\n      mload(0x40)\n      swap1\n      dup2\n      add\n      0x40\n      mstore\n      dup1\n      swap3\n      swap2\n      swap1\n      dup2\n      dup2\n      mstore\n      0x20\n      add\n      dup3\n      dup1\n      sload\n      tag_104\n      swap1\n      tag_69\n      jump\t// in\n    tag_104:\n      dup1\n      iszero\n      tag_105\n      jumpi\n      dup1\n      0x1f\n      lt\n      tag_106\n      jumpi\n      0x0100\n      dup1\n      dup4\n      sload\n      div\n      mul\n      dup4\n      mstore\n      swap2\n      0x20\n      add\n      swap2\n      jump(tag_105)\n    tag_106:\n      dup3\n      add\n      swap2\n      swap1\n      0x00\n      mstore\n      keccak256(0x00, 0x20)\n      swap1\n    tag_107:\n      dup2\n      sload\n      dup2\n      mstore\n      swap1\n      0x01\n      add\n      swap1\n      0x20\n      add\n      dup1\n      dup4\n      gt\n      tag_107\n      jumpi\n      dup3\n      swap1\n      sub\n      0x1f\n      and\n      dup3\n      add\n      swap2\n    tag_105:\n      pop\n      pop\n      pop\n      pop\n      pop\n      swap4\n      pop\n        /* \"contracts/Demo12.sol\":1734:1738  todo */\n      dup2\n        /* \"contracts/Demo12.sol\":1734:1749  todo.isComplete */\n      0x02\n      add\n      0x00\n      swap1\n      sload\n      swap1\n      0x0100\n      exp\n      swap1\n      div\n      0xff\n      and\n        /* \"contracts/Demo12.sol\":1721:1749  isComplete = todo.isComplete */\n      swap3\n      pop\n        /* \"contracts/Demo12.sol\":1768:1773  break */\n      jump(tag_94)\n        /* \"contracts/Demo12.sol\":1606:1790  if(list[i].index == index_){... */\n    tag_99:\n        /* \"contracts/Demo12.sol\":1587:1590  i++ */\n      dup1\n      dup1\n      0x01\n      add\n      swap2\n      pop\n      pop\n        /* \"contracts/Demo12.sol\":1554:1801  for(uint256 i = 0;i< list.length;i++){... */\n      jump(tag_93)\n    tag_94:\n      pop\n        /* \"contracts/Demo12.sol\":1515:1808  {... */\n      pop\n        /* \"contracts/Demo12.sol\":1429:1808  function get1(uint256 index_) public view returns(string memory name_,bool isComplete){... */\n      swap2\n      pop\n      swap2\n      jump\t// out\n        /* \"contracts/Demo12.sol\":261:472  function create(string memory name_) public{... */\n    tag_37:\n        /* \"contracts/Demo12.sol\":315:319  list */\n      0x00\n        /* \"contracts/Demo12.sol\":339:453  Todo({... */\n      mload(0x40)\n      dup1\n      0x60\n      add\n      0x40\n      mstore\n      dup1\n        /* \"contracts/Demo12.sol\":370:375  index */\n      0x01\n      0x00\n        /* \"contracts/Demo12.sol\":368:375  ++index */\n      dup2\n      sload\n      tag_109\n      swap1\n      tag_110\n      jump\t// in\n    tag_109:\n      swap2\n      swap1\n      pop\n      dup2\n      swap1\n      sstore\n        /* \"contracts/Demo12.sol\":339:453  Todo({... */\n      dup2\n      mstore\n      0x20\n      add\n        /* \"contracts/Demo12.sol\":398:403  name_ */\n      dup4\n        /* \"contracts/Demo12.sol\":339:453  Todo({... */\n      dup2\n      mstore\n      0x20\n      add\n        /* \"contracts/Demo12.sol\":432:437  false */\n      0x00\n        /* \"contracts/Demo12.sol\":339:453  Todo({... */\n      iszero\n      iszero\n      dup2\n      mstore\n      pop\n        /* \"contracts/Demo12.sol\":315:464  list.push(... */\n      swap1\n      dup1\n      0x01\n      dup2\n      sload\n      add\n      dup1\n      dup3\n      sstore\n      dup1\n      swap2\n      pop\n      pop\n      0x01\n      swap1\n      sub\n      swap1\n      0x00\n      mstore\n      keccak256(0x00, 0x20)\n      swap1\n      0x03\n      mul\n      add\n      0x00\n      swap1\n      swap2\n      swap1\n      swap2\n      swap1\n      swap2\n      pop\n      0x00\n      dup3\n      add\n      mload\n      dup2\n      0x00\n      add\n      sstore\n      0x20\n      dup3\n      add\n      mload\n      dup2\n      0x01\n      add\n      swap1\n      dup2\n      tag_112\n      swap2\n      swap1\n      tag_54\n      jump\t// in\n    tag_112:\n      pop\n      0x40\n      dup3\n      add\n      mload\n      dup2\n      0x02\n      add\n      exp(0x0100, 0x00)\n      dup2\n      sload\n      dup2\n      0xff\n      mul\n      not\n      and\n      swap1\n      dup4\n      iszero\n      iszero\n      mul\n      or\n      swap1\n      sstore\n      pop\n      pop\n      pop\n        /* \"contracts/Demo12.sol\":261:472  function create(string memory name_) public{... */\n      pop\n      jump\t// out\n        /* \"contracts/Demo12.sol\":1115:1421  function modiStatus2(uint256 index_) public{... */\n    tag_40:\n        /* \"contracts/Demo12.sol\":1169:1186  Todo storage todo */\n      0x00\n        /* \"contracts/Demo12.sol\":1201:1210  uint256 i */\n      dup1\n        /* \"contracts/Demo12.sol\":1213:1214  0 */\n      0x00\n        /* \"contracts/Demo12.sol\":1201:1214  uint256 i = 0 */\n      swap1\n      pop\n        /* \"contracts/Demo12.sol\":1197:1414  for(uint256 i = 0;i< list.length;i++){... */\n    tag_114:\n        /* \"contracts/Demo12.sol\":1218:1222  list */\n      0x00\n        /* \"contracts/Demo12.sol\":1218:1229  list.length */\n      dup1\n      sload\n      swap1\n      pop\n        /* \"contracts/Demo12.sol\":1215:1216  i */\n      dup2\n        /* \"contracts/Demo12.sol\":1215:1229  i< list.length */\n      lt\n        /* \"contracts/Demo12.sol\":1197:1414  for(uint256 i = 0;i< list.length;i++){... */\n      iszero\n      tag_115\n      jumpi\n        /* \"contracts/Demo12.sol\":1269:1275  index_ */\n      dup3\n        /* \"contracts/Demo12.sol\":1252:1256  list */\n      0x00\n        /* \"contracts/Demo12.sol\":1257:1258  i */\n      dup3\n        /* \"contracts/Demo12.sol\":1252:1259  list[i] */\n      dup2\n      sload\n      dup2\n      lt\n      tag_117\n      jumpi\n      tag_118\n      tag_47\n      jump\t// in\n    tag_118:\n    tag_117:\n      swap1\n      0x00\n      mstore\n      keccak256(0x00, 0x20)\n      swap1\n      0x03\n      mul\n      add\n        /* \"contracts/Demo12.sol\":1252:1265  list[i].index */\n      0x00\n      add\n      sload\n        /* \"contracts/Demo12.sol\":1252:1275  list[i].index == index_ */\n      sub\n        /* \"contracts/Demo12.sol\":1249:1403  if(list[i].index == index_){... */\n      tag_120\n      jumpi\n        /* \"contracts/Demo12.sol\":1302:1306  list */\n      0x00\n        /* \"contracts/Demo12.sol\":1307:1308  i */\n      dup2\n        /* \"contracts/Demo12.sol\":1302:1309  list[i] */\n      dup2\n      sload\n      dup2\n      lt\n      tag_121\n      jumpi\n      tag_122\n      tag_47\n      jump\t// in\n    tag_122:\n    tag_121:\n      swap1\n      0x00\n      mstore\n      keccak256(0x00, 0x20)\n      swap1\n      0x03\n      mul\n      add\n        /* \"contracts/Demo12.sol\":1295:1309  todo = list[i] */\n      swap2\n      pop\n        /* \"contracts/Demo12.sol\":1347:1351  todo */\n      dup2\n        /* \"contracts/Demo12.sol\":1347:1362  todo.isComplete */\n      0x02\n      add\n      0x00\n      swap1\n      sload\n      swap1\n      0x0100\n      exp\n      swap1\n      div\n      0xff\n      and\n        /* \"contracts/Demo12.sol\":1346:1362  !todo.isComplete */\n      iszero\n        /* \"contracts/Demo12.sol\":1328:1332  todo */\n      dup3\n        /* \"contracts/Demo12.sol\":1328:1343  todo.isComplete */\n      0x02\n      add\n      0x00\n        /* \"contracts/Demo12.sol\":1328:1362  todo.isComplete = !todo.isComplete */\n      0x0100\n      exp\n      dup2\n      sload\n      dup2\n      0xff\n      mul\n      not\n      and\n      swap1\n      dup4\n      iszero\n      iszero\n      mul\n      or\n      swap1\n      sstore\n      pop\n        /* \"contracts/Demo12.sol\":1381:1386  break */\n      jump(tag_115)\n        /* \"contracts/Demo12.sol\":1249:1403  if(list[i].index == index_){... */\n    tag_120:\n        /* \"contracts/Demo12.sol\":1230:1233  i++ */\n      dup1\n      dup1\n      0x01\n      add\n      swap2\n      pop\n      pop\n        /* \"contracts/Demo12.sol\":1197:1414  for(uint256 i = 0;i< list.length;i++){... */\n      jump(tag_114)\n    tag_115:\n      pop\n        /* \"contracts/Demo12.sol\":1158:1421  {... */\n      pop\n        /* \"contracts/Demo12.sol\":1115:1421  function modiStatus2(uint256 index_) public{... */\n      pop\n      jump\t// out\n    tag_57:\n      mload(0x40)\n      dup1\n      0x60\n      add\n      0x40\n      mstore\n      dup1\n      0x00\n      dup2\n      mstore\n      0x20\n      add\n      0x60\n      dup2\n      mstore\n      0x20\n      add\n      iszero(iszero(0x00))\n      dup2\n      mstore\n      pop\n      swap1\n      jump\t// out\n        /* \"#utility.yul\":7:82   */\n    tag_124:\n        /* \"#utility.yul\":40:46   */\n      0x00\n        /* \"#utility.yul\":73:75   */\n      0x40\n        /* \"#utility.yul\":67:76   */\n      mload\n        /* \"#utility.yul\":57:76   */\n      swap1\n      pop\n        /* \"#utility.yul\":7:82   */\n      swap1\n      jump\t// out\n        /* \"#utility.yul\":88:205   */\n    tag_125:\n        /* \"#utility.yul\":197:198   */\n      0x00\n        /* \"#utility.yul\":194:195   */\n      dup1\n        /* \"#utility.yul\":187:199   */\n      revert\n        /* \"#utility.yul\":211:328   */\n    tag_126:\n        /* \"#utility.yul\":320:321   */\n      0x00\n        /* \"#utility.yul\":317:318   */\n      dup1\n        /* \"#utility.yul\":310:322   */\n      revert\n        /* \"#utility.yul\":334:411   */\n    tag_127:\n        /* \"#utility.yul\":371:378   */\n      0x00\n        /* \"#utility.yul\":400:405   */\n      dup2\n        /* \"#utility.yul\":389:405   */\n      swap1\n      pop\n        /* \"#utility.yul\":334:411   */\n      swap2\n      swap1\n      pop\n      jump\t// out\n        /* \"#utility.yul\":417:539   */\n    tag_128:\n        /* \"#utility.yul\":490:514   */\n      tag_172\n        /* \"#utility.yul\":508:513   */\n      dup2\n        /* \"#utility.yul\":490:514   */\n      tag_127\n      jump\t// in\n    tag_172:\n        /* \"#utility.yul\":483:488   */\n      dup2\n        /* \"#utility.yul\":480:515   */\n      eq\n        /* \"#utility.yul\":470:533   */\n      tag_173\n      jumpi\n        /* \"#utility.yul\":529:530   */\n      0x00\n        /* \"#utility.yul\":526:527   */\n      dup1\n        /* \"#utility.yul\":519:531   */\n      revert\n        /* \"#utility.yul\":470:533   */\n    tag_173:\n        /* \"#utility.yul\":417:539   */\n      pop\n      jump\t// out\n        /* \"#utility.yul\":545:684   */\n    tag_129:\n        /* \"#utility.yul\":591:596   */\n      0x00\n        /* \"#utility.yul\":629:635   */\n      dup2\n        /* \"#utility.yul\":616:636   */\n      calldataload\n        /* \"#utility.yul\":607:636   */\n      swap1\n      pop\n        /* \"#utility.yul\":645:678   */\n      tag_175\n        /* \"#utility.yul\":672:677   */\n      dup2\n        /* \"#utility.yul\":645:678   */\n      tag_128\n      jump\t// in\n    tag_175:\n        /* \"#utility.yul\":545:684   */\n      swap3\n      swap2\n      pop\n      pop\n      jump\t// out\n        /* \"#utility.yul\":690:807   */\n    tag_130:\n        /* \"#utility.yul\":799:800   */\n      0x00\n        /* \"#utility.yul\":796:797   */\n      dup1\n        /* \"#utility.yul\":789:801   */\n      revert\n        /* \"#utility.yul\":813:930   */\n    tag_131:\n        /* \"#utility.yul\":922:923   */\n      0x00\n        /* \"#utility.yul\":919:920   */\n      dup1\n        /* \"#utility.yul\":912:924   */\n      revert\n        /* \"#utility.yul\":936:1038   */\n    tag_132:\n        /* \"#utility.yul\":977:983   */\n      0x00\n        /* \"#utility.yul\":1028:1030   */\n      0x1f\n        /* \"#utility.yul\":1024:1031   */\n      not\n        /* \"#utility.yul\":1019:1021   */\n      0x1f\n        /* \"#utility.yul\":1012:1017   */\n      dup4\n        /* \"#utility.yul\":1008:1022   */\n      add\n        /* \"#utility.yul\":1004:1032   */\n      and\n        /* \"#utility.yul\":994:1032   */\n      swap1\n      pop\n        /* \"#utility.yul\":936:1038   */\n      swap2\n      swap1\n      pop\n      jump\t// out\n        /* \"#utility.yul\":1044:1224   */\n    tag_133:\n        /* \"#utility.yul\":1092:1169   */\n      0x4e487b7100000000000000000000000000000000000000000000000000000000\n        /* \"#utility.yul\":1089:1090   */\n      0x00\n        /* \"#utility.yul\":1082:1170   */\n      mstore\n        /* \"#utility.yul\":1189:1193   */\n      0x41\n        /* \"#utility.yul\":1186:1187   */\n      0x04\n        /* \"#utility.yul\":1179:1194   */\n      mstore\n        /* \"#utility.yul\":1213:1217   */\n      0x24\n        /* \"#utility.yul\":1210:1211   */\n      0x00\n        /* \"#utility.yul\":1203:1218   */\n      revert\n        /* \"#utility.yul\":1230:1511   */\n    tag_134:\n        /* \"#utility.yul\":1313:1340   */\n      tag_181\n        /* \"#utility.yul\":1335:1339   */\n      dup3\n        /* \"#utility.yul\":1313:1340   */\n      tag_132\n      jump\t// in\n    tag_181:\n        /* \"#utility.yul\":1305:1311   */\n      dup2\n        /* \"#utility.yul\":1301:1341   */\n      add\n        /* \"#utility.yul\":1443:1449   */\n      dup2\n        /* \"#utility.yul\":1431:1441   */\n      dup2\n        /* \"#utility.yul\":1428:1450   */\n      lt\n        /* \"#utility.yul\":1407:1425   */\n      0xffffffffffffffff\n        /* \"#utility.yul\":1395:1405   */\n      dup3\n        /* \"#utility.yul\":1392:1426   */\n      gt\n        /* \"#utility.yul\":1389:1451   */\n      or\n        /* \"#utility.yul\":1386:1474   */\n      iszero\n      tag_182\n      jumpi\n        /* \"#utility.yul\":1454:1472   */\n      tag_183\n      tag_133\n      jump\t// in\n    tag_183:\n        /* \"#utility.yul\":1386:1474   */\n    tag_182:\n        /* \"#utility.yul\":1494:1504   */\n      dup1\n        /* \"#utility.yul\":1490:1492   */\n      0x40\n        /* \"#utility.yul\":1483:1505   */\n      mstore\n        /* \"#utility.yul\":1273:1511   */\n      pop\n        /* \"#utility.yul\":1230:1511   */\n      pop\n      pop\n      jump\t// out\n        /* \"#utility.yul\":1517:1646   */\n    tag_135:\n        /* \"#utility.yul\":1551:1557   */\n      0x00\n        /* \"#utility.yul\":1578:1598   */\n      tag_185\n      tag_124\n      jump\t// in\n    tag_185:\n        /* \"#utility.yul\":1568:1598   */\n      swap1\n      pop\n        /* \"#utility.yul\":1607:1640   */\n      tag_186\n        /* \"#utility.yul\":1635:1639   */\n      dup3\n        /* \"#utility.yul\":1627:1633   */\n      dup3\n        /* \"#utility.yul\":1607:1640   */\n      tag_134\n      jump\t// in\n    tag_186:\n        /* \"#utility.yul\":1517:1646   */\n      swap2\n      swap1\n      pop\n      jump\t// out\n        /* \"#utility.yul\":1652:1960   */\n    tag_136:\n        /* \"#utility.yul\":1714:1718   */\n      0x00\n        /* \"#utility.yul\":1804:1822   */\n      0xffffffffffffffff\n        /* \"#utility.yul\":1796:1802   */\n      dup3\n        /* \"#utility.yul\":1793:1823   */\n      gt\n        /* \"#utility.yul\":1790:1846   */\n      iszero\n      tag_188\n      jumpi\n        /* \"#utility.yul\":1826:1844   */\n      tag_189\n      tag_133\n      jump\t// in\n    tag_189:\n        /* \"#utility.yul\":1790:1846   */\n    tag_188:\n        /* \"#utility.yul\":1864:1893   */\n      tag_190\n        /* \"#utility.yul\":1886:1892   */\n      dup3\n        /* \"#utility.yul\":1864:1893   */\n      tag_132\n      jump\t// in\n    tag_190:\n        /* \"#utility.yul\":1856:1893   */\n      swap1\n      pop\n        /* \"#utility.yul\":1948:1952   */\n      0x20\n        /* \"#utility.yul\":1942:1946   */\n      dup2\n        /* \"#utility.yul\":1938:1953   */\n      add\n        /* \"#utility.yul\":1930:1953   */\n      swap1\n      pop\n        /* \"#utility.yul\":1652:1960   */\n      swap2\n      swap1\n      pop\n      jump\t// out\n        /* \"#utility.yul\":1966:2112   */\n    tag_137:\n        /* \"#utility.yul\":2063:2069   */\n      dup3\n        /* \"#utility.yul\":2058:2061   */\n      dup2\n        /* \"#utility.yul\":2053:2056   */\n      dup4\n        /* \"#utility.yul\":2040:2070   */\n      calldatacopy\n        /* \"#utility.yul\":2104:2105   */\n      0x00\n        /* \"#utility.yul\":2095:2101   */\n      dup4\n        /* \"#utility.yul\":2090:2093   */\n      dup4\n        /* \"#utility.yul\":2086:2102   */\n      add\n        /* \"#utility.yul\":2079:2106   */\n      mstore\n        /* \"#utility.yul\":1966:2112   */\n      pop\n      pop\n      pop\n      jump\t// out\n        /* \"#utility.yul\":2118:2543   */\n    tag_138:\n        /* \"#utility.yul\":2196:2201   */\n      0x00\n        /* \"#utility.yul\":2221:2287   */\n      tag_193\n        /* \"#utility.yul\":2237:2286   */\n      tag_194\n        /* \"#utility.yul\":2279:2285   */\n      dup5\n        /* \"#utility.yul\":2237:2286   */\n      tag_136\n      jump\t// in\n    tag_194:\n        /* \"#utility.yul\":2221:2287   */\n      tag_135\n      jump\t// in\n    tag_193:\n        /* \"#utility.yul\":2212:2287   */\n      swap1\n      pop\n        /* \"#utility.yul\":2310:2316   */\n      dup3\n        /* \"#utility.yul\":2303:2308   */\n      dup2\n        /* \"#utility.yul\":2296:2317   */\n      mstore\n        /* \"#utility.yul\":2348:2352   */\n      0x20\n        /* \"#utility.yul\":2341:2346   */\n      dup2\n        /* \"#utility.yul\":2337:2353   */\n      add\n        /* \"#utility.yul\":2386:2389   */\n      dup5\n        /* \"#utility.yul\":2377:2383   */\n      dup5\n        /* \"#utility.yul\":2372:2375   */\n      dup5\n        /* \"#utility.yul\":2368:2384   */\n      add\n        /* \"#utility.yul\":2365:2390   */\n      gt\n        /* \"#utility.yul\":2362:2474   */\n      iszero\n      tag_195\n      jumpi\n        /* \"#utility.yul\":2393:2472   */\n      tag_196\n      tag_131\n      jump\t// in\n    tag_196:\n        /* \"#utility.yul\":2362:2474   */\n    tag_195:\n        /* \"#utility.yul\":2483:2537   */\n      tag_197\n        /* \"#utility.yul\":2530:2536   */\n      dup5\n        /* \"#utility.yul\":2525:2528   */\n      dup3\n        /* \"#utility.yul\":2520:2523   */\n      dup6\n        /* \"#utility.yul\":2483:2537   */\n      tag_137\n      jump\t// in\n    tag_197:\n        /* \"#utility.yul\":2202:2543   */\n      pop\n        /* \"#utility.yul\":2118:2543   */\n      swap4\n      swap3\n      pop\n      pop\n      pop\n      jump\t// out\n        /* \"#utility.yul\":2563:2903   */\n    tag_139:\n        /* \"#utility.yul\":2619:2624   */\n      0x00\n        /* \"#utility.yul\":2668:2671   */\n      dup3\n        /* \"#utility.yul\":2661:2665   */\n      0x1f\n        /* \"#utility.yul\":2653:2659   */\n      dup4\n        /* \"#utility.yul\":2649:2666   */\n      add\n        /* \"#utility.yul\":2645:2672   */\n      slt\n        /* \"#utility.yul\":2635:2757   */\n      tag_199\n      jumpi\n        /* \"#utility.yul\":2676:2755   */\n      tag_200\n      tag_130\n      jump\t// in\n    tag_200:\n        /* \"#utility.yul\":2635:2757   */\n    tag_199:\n        /* \"#utility.yul\":2793:2799   */\n      dup2\n        /* \"#utility.yul\":2780:2800   */\n      calldataload\n        /* \"#utility.yul\":2818:2897   */\n      tag_201\n        /* \"#utility.yul\":2893:2896   */\n      dup5\n        /* \"#utility.yul\":2885:2891   */\n      dup3\n        /* \"#utility.yul\":2878:2882   */\n      0x20\n        /* \"#utility.yul\":2870:2876   */\n      dup7\n        /* \"#utility.yul\":2866:2883   */\n      add\n        /* \"#utility.yul\":2818:2897   */\n      tag_138\n      jump\t// in\n    tag_201:\n        /* \"#utility.yul\":2809:2897   */\n      swap2\n      pop\n        /* \"#utility.yul\":2625:2903   */\n      pop\n        /* \"#utility.yul\":2563:2903   */\n      swap3\n      swap2\n      pop\n      pop\n      jump\t// out\n        /* \"#utility.yul\":2909:3563   */\n    tag_13:\n        /* \"#utility.yul\":2987:2993   */\n      0x00\n        /* \"#utility.yul\":2995:3001   */\n      dup1\n        /* \"#utility.yul\":3044:3046   */\n      0x40\n        /* \"#utility.yul\":3032:3041   */\n      dup4\n        /* \"#utility.yul\":3023:3030   */\n      dup6\n        /* \"#utility.yul\":3019:3042   */\n      sub\n        /* \"#utility.yul\":3015:3047   */\n      slt\n        /* \"#utility.yul\":3012:3131   */\n      iszero\n      tag_203\n      jumpi\n        /* \"#utility.yul\":3050:3129   */\n      tag_204\n      tag_125\n      jump\t// in\n    tag_204:\n        /* \"#utility.yul\":3012:3131   */\n    tag_203:\n        /* \"#utility.yul\":3170:3171   */\n      0x00\n        /* \"#utility.yul\":3195:3248   */\n      tag_205\n        /* \"#utility.yul\":3240:3247   */\n      dup6\n        /* \"#utility.yul\":3231:3237   */\n      dup3\n        /* \"#utility.yul\":3220:3229   */\n      dup7\n        /* \"#utility.yul\":3216:3238   */\n      add\n        /* \"#utility.yul\":3195:3248   */\n      tag_129\n      jump\t// in\n    tag_205:\n        /* \"#utility.yul\":3185:3248   */\n      swap3\n      pop\n        /* \"#utility.yul\":3141:3258   */\n      pop\n        /* \"#utility.yul\":3325:3327   */\n      0x20\n        /* \"#utility.yul\":3314:3323   */\n      dup4\n        /* \"#utility.yul\":3310:3328   */\n      add\n        /* \"#utility.yul\":3297:3329   */\n      calldataload\n        /* \"#utility.yul\":3356:3374   */\n      0xffffffffffffffff\n        /* \"#utility.yul\":3348:3354   */\n      dup2\n        /* \"#utility.yul\":3345:3375   */\n      gt\n        /* \"#utility.yul\":3342:3459   */\n      iszero\n      tag_206\n      jumpi\n        /* \"#utility.yul\":3378:3457   */\n      tag_207\n      tag_126\n      jump\t// in\n    tag_207:\n        /* \"#utility.yul\":3342:3459   */\n    tag_206:\n        /* \"#utility.yul\":3483:3546   */\n      tag_208\n        /* \"#utility.yul\":3538:3545   */\n      dup6\n        /* \"#utility.yul\":3529:3535   */\n      dup3\n        /* \"#utility.yul\":3518:3527   */\n      dup7\n        /* \"#utility.yul\":3514:3536   */\n      add\n        /* \"#utility.yul\":3483:3546   */\n      tag_139\n      jump\t// in\n    tag_208:\n        /* \"#utility.yul\":3473:3546   */\n      swap2\n      pop\n        /* \"#utility.yul\":3268:3556   */\n      pop\n        /* \"#utility.yul\":2909:3563   */\n      swap3\n      pop\n      swap3\n      swap1\n      pop\n      jump\t// out\n        /* \"#utility.yul\":3569:3898   */\n    tag_17:\n        /* \"#utility.yul\":3628:3634   */\n      0x00\n        /* \"#utility.yul\":3677:3679   */\n      0x20\n        /* \"#utility.yul\":3665:3674   */\n      dup3\n        /* \"#utility.yul\":3656:3663   */\n      dup5\n        /* \"#utility.yul\":3652:3675   */\n      sub\n        /* \"#utility.yul\":3648:3680   */\n      slt\n        /* \"#utility.yul\":3645:3764   */\n      iszero\n      tag_210\n      jumpi\n        /* \"#utility.yul\":3683:3762   */\n      tag_211\n      tag_125\n      jump\t// in\n    tag_211:\n        /* \"#utility.yul\":3645:3764   */\n    tag_210:\n        /* \"#utility.yul\":3803:3804   */\n      0x00\n        /* \"#utility.yul\":3828:3881   */\n      tag_212\n        /* \"#utility.yul\":3873:3880   */\n      dup5\n        /* \"#utility.yul\":3864:3870   */\n      dup3\n        /* \"#utility.yul\":3853:3862   */\n      dup6\n        /* \"#utility.yul\":3849:3871   */\n      add\n        /* \"#utility.yul\":3828:3881   */\n      tag_129\n      jump\t// in\n    tag_212:\n        /* \"#utility.yul\":3818:3881   */\n      swap2\n      pop\n        /* \"#utility.yul\":3774:3891   */\n      pop\n        /* \"#utility.yul\":3569:3898   */\n      swap3\n      swap2\n      pop\n      pop\n      jump\t// out\n        /* \"#utility.yul\":3904:4003   */\n    tag_140:\n        /* \"#utility.yul\":3956:3962   */\n      0x00\n        /* \"#utility.yul\":3990:3995   */\n      dup2\n        /* \"#utility.yul\":3984:3996   */\n      mload\n        /* \"#utility.yul\":3974:3996   */\n      swap1\n      pop\n        /* \"#utility.yul\":3904:4003   */\n      swap2\n      swap1\n      pop\n      jump\t// out\n        /* \"#utility.yul\":4009:4178   */\n    tag_141:\n        /* \"#utility.yul\":4093:4104   */\n      0x00\n        /* \"#utility.yul\":4127:4133   */\n      dup3\n        /* \"#utility.yul\":4122:4125   */\n      dup3\n        /* \"#utility.yul\":4115:4134   */\n      mstore\n        /* \"#utility.yul\":4167:4171   */\n      0x20\n        /* \"#utility.yul\":4162:4165   */\n      dup3\n        /* \"#utility.yul\":4158:4172   */\n      add\n        /* \"#utility.yul\":4143:4172   */\n      swap1\n      pop\n        /* \"#utility.yul\":4009:4178   */\n      swap3\n      swap2\n      pop\n      pop\n      jump\t// out\n        /* \"#utility.yul\":4184:4430   */\n    tag_142:\n        /* \"#utility.yul\":4265:4266   */\n      0x00\n        /* \"#utility.yul\":4275:4388   */\n    tag_216:\n        /* \"#utility.yul\":4289:4295   */\n      dup4\n        /* \"#utility.yul\":4286:4287   */\n      dup2\n        /* \"#utility.yul\":4283:4296   */\n      lt\n        /* \"#utility.yul\":4275:4388   */\n      iszero\n      tag_218\n      jumpi\n        /* \"#utility.yul\":4374:4375   */\n      dup1\n        /* \"#utility.yul\":4369:4372   */\n      dup3\n        /* \"#utility.yul\":4365:4376   */\n      add\n        /* \"#utility.yul\":4359:4377   */\n      mload\n        /* \"#utility.yul\":4355:4356   */\n      dup2\n        /* \"#utility.yul\":4350:4353   */\n      dup5\n        /* \"#utility.yul\":4346:4357   */\n      add\n        /* \"#utility.yul\":4339:4378   */\n      mstore\n        /* \"#utility.yul\":4311:4313   */\n      0x20\n        /* \"#utility.yul\":4308:4309   */\n      dup2\n        /* \"#utility.yul\":4304:4314   */\n      add\n        /* \"#utility.yul\":4299:4314   */\n      swap1\n      pop\n        /* \"#utility.yul\":4275:4388   */\n      jump(tag_216)\n    tag_218:\n        /* \"#utility.yul\":4422:4423   */\n      0x00\n        /* \"#utility.yul\":4413:4419   */\n      dup5\n        /* \"#utility.yul\":4408:4411   */\n      dup5\n        /* \"#utility.yul\":4404:4420   */\n      add\n        /* \"#utility.yul\":4397:4424   */\n      mstore\n        /* \"#utility.yul\":4246:4430   */\n      pop\n        /* \"#utility.yul\":4184:4430   */\n      pop\n      pop\n      pop\n      jump\t// out\n        /* \"#utility.yul\":4436:4813   */\n    tag_143:\n        /* \"#utility.yul\":4524:4527   */\n      0x00\n        /* \"#utility.yul\":4552:4591   */\n      tag_220\n        /* \"#utility.yul\":4585:4590   */\n      dup3\n        /* \"#utility.yul\":4552:4591   */\n      tag_140\n      jump\t// in\n    tag_220:\n        /* \"#utility.yul\":4607:4678   */\n      tag_221\n        /* \"#utility.yul\":4671:4677   */\n      dup2\n        /* \"#utility.yul\":4666:4669   */\n      dup6\n        /* \"#utility.yul\":4607:4678   */\n      tag_141\n      jump\t// in\n    tag_221:\n        /* \"#utility.yul\":4600:4678   */\n      swap4\n      pop\n        /* \"#utility.yul\":4687:4752   */\n      tag_222\n        /* \"#utility.yul\":4745:4751   */\n      dup2\n        /* \"#utility.yul\":4740:4743   */\n      dup6\n        /* \"#utility.yul\":4733:4737   */\n      0x20\n        /* \"#utility.yul\":4726:4731   */\n      dup7\n        /* \"#utility.yul\":4722:4738   */\n      add\n        /* \"#utility.yul\":4687:4752   */\n      tag_142\n      jump\t// in\n    tag_222:\n        /* \"#utility.yul\":4777:4806   */\n      tag_223\n        /* \"#utility.yul\":4799:4805   */\n      dup2\n        /* \"#utility.yul\":4777:4806   */\n      tag_132\n      jump\t// in\n    tag_223:\n        /* \"#utility.yul\":4772:4775   */\n      dup5\n        /* \"#utility.yul\":4768:4807   */\n      add\n        /* \"#utility.yul\":4761:4807   */\n      swap2\n      pop\n        /* \"#utility.yul\":4528:4813   */\n      pop\n        /* \"#utility.yul\":4436:4813   */\n      swap3\n      swap2\n      pop\n      pop\n      jump\t// out\n        /* \"#utility.yul\":4819:4909   */\n    tag_144:\n        /* \"#utility.yul\":4853:4860   */\n      0x00\n        /* \"#utility.yul\":4896:4901   */\n      dup2\n        /* \"#utility.yul\":4889:4902   */\n      iszero\n        /* \"#utility.yul\":4882:4903   */\n      iszero\n        /* \"#utility.yul\":4871:4903   */\n      swap1\n      pop\n        /* \"#utility.yul\":4819:4909   */\n      swap2\n      swap1\n      pop\n      jump\t// out\n        /* \"#utility.yul\":4915:5024   */\n    tag_145:\n        /* \"#utility.yul\":4996:5017   */\n      tag_226\n        /* \"#utility.yul\":5011:5016   */\n      dup2\n        /* \"#utility.yul\":4996:5017   */\n      tag_144\n      jump\t// in\n    tag_226:\n        /* \"#utility.yul\":4991:4994   */\n      dup3\n        /* \"#utility.yul\":4984:5018   */\n      mstore\n        /* \"#utility.yul\":4915:5024   */\n      pop\n      pop\n      jump\t// out\n        /* \"#utility.yul\":5030:5441   */\n    tag_20:\n        /* \"#utility.yul\":5165:5169   */\n      0x00\n        /* \"#utility.yul\":5203:5205   */\n      0x40\n        /* \"#utility.yul\":5192:5201   */\n      dup3\n        /* \"#utility.yul\":5188:5206   */\n      add\n        /* \"#utility.yul\":5180:5206   */\n      swap1\n      pop\n        /* \"#utility.yul\":5252:5261   */\n      dup2\n        /* \"#utility.yul\":5246:5250   */\n      dup2\n        /* \"#utility.yul\":5242:5262   */\n      sub\n        /* \"#utility.yul\":5238:5239   */\n      0x00\n        /* \"#utility.yul\":5227:5236   */\n      dup4\n        /* \"#utility.yul\":5223:5240   */\n      add\n        /* \"#utility.yul\":5216:5263   */\n      mstore\n        /* \"#utility.yul\":5280:5358   */\n      tag_228\n        /* \"#utility.yul\":5353:5357   */\n      dup2\n        /* \"#utility.yul\":5344:5350   */\n      dup6\n        /* \"#utility.yul\":5280:5358   */\n      tag_143\n      jump\t// in\n    tag_228:\n        /* \"#utility.yul\":5272:5358   */\n      swap1\n      pop\n        /* \"#utility.yul\":5368:5434   */\n      tag_229\n        /* \"#utility.yul\":5430:5432   */\n      0x20\n        /* \"#utility.yul\":5419:5428   */\n      dup4\n        /* \"#utility.yul\":5415:5433   */\n      add\n        /* \"#utility.yul\":5406:5412   */\n      dup5\n        /* \"#utility.yul\":5368:5434   */\n      tag_145\n      jump\t// in\n    tag_229:\n        /* \"#utility.yul\":5030:5441   */\n      swap4\n      swap3\n      pop\n      pop\n      pop\n      jump\t// out\n        /* \"#utility.yul\":5447:5563   */\n    tag_146:\n        /* \"#utility.yul\":5517:5538   */\n      tag_231\n        /* \"#utility.yul\":5532:5537   */\n      dup2\n        /* \"#utility.yul\":5517:5538   */\n      tag_144\n      jump\t// in\n    tag_231:\n        /* \"#utility.yul\":5510:5515   */\n      dup2\n        /* \"#utility.yul\":5507:5539   */\n      eq\n        /* \"#utility.yul\":5497:5557   */\n      tag_232\n      jumpi\n        /* \"#utility.yul\":5553:5554   */\n      0x00\n        /* \"#utility.yul\":5550:5551   */\n      dup1\n        /* \"#utility.yul\":5543:5555   */\n      revert\n        /* \"#utility.yul\":5497:5557   */\n    tag_232:\n        /* \"#utility.yul\":5447:5563   */\n      pop\n      jump\t// out\n        /* \"#utility.yul\":5569:5702   */\n    tag_147:\n        /* \"#utility.yul\":5612:5617   */\n      0x00\n        /* \"#utility.yul\":5650:5656   */\n      dup2\n        /* \"#utility.yul\":5637:5657   */\n      calldataload\n        /* \"#utility.yul\":5628:5657   */\n      swap1\n      pop\n        /* \"#utility.yul\":5666:5696   */\n      tag_234\n        /* \"#utility.yul\":5690:5695   */\n      dup2\n        /* \"#utility.yul\":5666:5696   */\n      tag_146\n      jump\t// in\n    tag_234:\n        /* \"#utility.yul\":5569:5702   */\n      swap3\n      swap2\n      pop\n      pop\n      jump\t// out\n        /* \"#utility.yul\":5708:6176   */\n    tag_23:\n        /* \"#utility.yul\":5773:5779   */\n      0x00\n        /* \"#utility.yul\":5781:5787   */\n      dup1\n        /* \"#utility.yul\":5830:5832   */\n      0x40\n        /* \"#utility.yul\":5818:5827   */\n      dup4\n        /* \"#utility.yul\":5809:5816   */\n      dup6\n        /* \"#utility.yul\":5805:5828   */\n      sub\n        /* \"#utility.yul\":5801:5833   */\n      slt\n        /* \"#utility.yul\":5798:5917   */\n      iszero\n      tag_236\n      jumpi\n        /* \"#utility.yul\":5836:5915   */\n      tag_237\n      tag_125\n      jump\t// in\n    tag_237:\n        /* \"#utility.yul\":5798:5917   */\n    tag_236:\n        /* \"#utility.yul\":5956:5957   */\n      0x00\n        /* \"#utility.yul\":5981:6034   */\n      tag_238\n        /* \"#utility.yul\":6026:6033   */\n      dup6\n        /* \"#utility.yul\":6017:6023   */\n      dup3\n        /* \"#utility.yul\":6006:6015   */\n      dup7\n        /* \"#utility.yul\":6002:6024   */\n      add\n        /* \"#utility.yul\":5981:6034   */\n      tag_129\n      jump\t// in\n    tag_238:\n        /* \"#utility.yul\":5971:6034   */\n      swap3\n      pop\n        /* \"#utility.yul\":5927:6044   */\n      pop\n        /* \"#utility.yul\":6083:6085   */\n      0x20\n        /* \"#utility.yul\":6109:6159   */\n      tag_239\n        /* \"#utility.yul\":6151:6158   */\n      dup6\n        /* \"#utility.yul\":6142:6148   */\n      dup3\n        /* \"#utility.yul\":6131:6140   */\n      dup7\n        /* \"#utility.yul\":6127:6149   */\n      add\n        /* \"#utility.yul\":6109:6159   */\n      tag_147\n      jump\t// in\n    tag_239:\n        /* \"#utility.yul\":6099:6159   */\n      swap2\n      pop\n        /* \"#utility.yul\":6054:6169   */\n      pop\n        /* \"#utility.yul\":5708:6176   */\n      swap3\n      pop\n      swap3\n      swap1\n      pop\n      jump\t// out\n        /* \"#utility.yul\":6182:6300   */\n    tag_148:\n        /* \"#utility.yul\":6269:6293   */\n      tag_241\n        /* \"#utility.yul\":6287:6292   */\n      dup2\n        /* \"#utility.yul\":6269:6293   */\n      tag_127\n      jump\t// in\n    tag_241:\n        /* \"#utility.yul\":6264:6267   */\n      dup3\n        /* \"#utility.yul\":6257:6294   */\n      mstore\n        /* \"#utility.yul\":6182:6300   */\n      pop\n      pop\n      jump\t// out\n        /* \"#utility.yul\":6306:6827   */\n    tag_29:\n        /* \"#utility.yul\":6469:6473   */\n      0x00\n        /* \"#utility.yul\":6507:6509   */\n      0x60\n        /* \"#utility.yul\":6496:6505   */\n      dup3\n        /* \"#utility.yul\":6492:6510   */\n      add\n        /* \"#utility.yul\":6484:6510   */\n      swap1\n      pop\n        /* \"#utility.yul\":6520:6591   */\n      tag_243\n        /* \"#utility.yul\":6588:6589   */\n      0x00\n        /* \"#utility.yul\":6577:6586   */\n      dup4\n        /* \"#utility.yul\":6573:6590   */\n      add\n        /* \"#utility.yul\":6564:6570   */\n      dup7\n        /* \"#utility.yul\":6520:6591   */\n      tag_148\n      jump\t// in\n    tag_243:\n        /* \"#utility.yul\":6638:6647   */\n      dup2\n        /* \"#utility.yul\":6632:6636   */\n      dup2\n        /* \"#utility.yul\":6628:6648   */\n      sub\n        /* \"#utility.yul\":6623:6625   */\n      0x20\n        /* \"#utility.yul\":6612:6621   */\n      dup4\n        /* \"#utility.yul\":6608:6626   */\n      add\n        /* \"#utility.yul\":6601:6649   */\n      mstore\n        /* \"#utility.yul\":6666:6744   */\n      tag_244\n        /* \"#utility.yul\":6739:6743   */\n      dup2\n        /* \"#utility.yul\":6730:6736   */\n      dup6\n        /* \"#utility.yul\":6666:6744   */\n      tag_143\n      jump\t// in\n    tag_244:\n        /* \"#utility.yul\":6658:6744   */\n      swap1\n      pop\n        /* \"#utility.yul\":6754:6820   */\n      tag_245\n        /* \"#utility.yul\":6816:6818   */\n      0x40\n        /* \"#utility.yul\":6805:6814   */\n      dup4\n        /* \"#utility.yul\":6801:6819   */\n      add\n        /* \"#utility.yul\":6792:6798   */\n      dup5\n        /* \"#utility.yul\":6754:6820   */\n      tag_145\n      jump\t// in\n    tag_245:\n        /* \"#utility.yul\":6306:6827   */\n      swap5\n      swap4\n      pop\n      pop\n      pop\n      pop\n      jump\t// out\n        /* \"#utility.yul\":6833:7342   */\n    tag_36:\n        /* \"#utility.yul\":6902:6908   */\n      0x00\n        /* \"#utility.yul\":6951:6953   */\n      0x20\n        /* \"#utility.yul\":6939:6948   */\n      dup3\n        /* \"#utility.yul\":6930:6937   */\n      dup5\n        /* \"#utility.yul\":6926:6949   */\n      sub\n        /* \"#utility.yul\":6922:6954   */\n      slt\n        /* \"#utility.yul\":6919:7038   */\n      iszero\n      tag_247\n      jumpi\n        /* \"#utility.yul\":6957:7036   */\n      tag_248\n      tag_125\n      jump\t// in\n    tag_248:\n        /* \"#utility.yul\":6919:7038   */\n    tag_247:\n        /* \"#utility.yul\":7105:7106   */\n      0x00\n        /* \"#utility.yul\":7094:7103   */\n      dup3\n        /* \"#utility.yul\":7090:7107   */\n      add\n        /* \"#utility.yul\":7077:7108   */\n      calldataload\n        /* \"#utility.yul\":7135:7153   */\n      0xffffffffffffffff\n        /* \"#utility.yul\":7127:7133   */\n      dup2\n        /* \"#utility.yul\":7124:7154   */\n      gt\n        /* \"#utility.yul\":7121:7238   */\n      iszero\n      tag_249\n      jumpi\n        /* \"#utility.yul\":7157:7236   */\n      tag_250\n      tag_126\n      jump\t// in\n    tag_250:\n        /* \"#utility.yul\":7121:7238   */\n    tag_249:\n        /* \"#utility.yul\":7262:7325   */\n      tag_251\n        /* \"#utility.yul\":7317:7324   */\n      dup5\n        /* \"#utility.yul\":7308:7314   */\n      dup3\n        /* \"#utility.yul\":7297:7306   */\n      dup6\n        /* \"#utility.yul\":7293:7315   */\n      add\n        /* \"#utility.yul\":7262:7325   */\n      tag_139\n      jump\t// in\n    tag_251:\n        /* \"#utility.yul\":7252:7325   */\n      swap2\n      pop\n        /* \"#utility.yul\":7048:7335   */\n      pop\n        /* \"#utility.yul\":6833:7342   */\n      swap3\n      swap2\n      pop\n      pop\n      jump\t// out\n        /* \"#utility.yul\":7348:7528   */\n    tag_47:\n        /* \"#utility.yul\":7396:7473   */\n      0x4e487b7100000000000000000000000000000000000000000000000000000000\n        /* \"#utility.yul\":7393:7394   */\n      0x00\n        /* \"#utility.yul\":7386:7474   */\n      mstore\n        /* \"#utility.yul\":7493:7497   */\n      0x32\n        /* \"#utility.yul\":7490:7491   */\n      0x04\n        /* \"#utility.yul\":7483:7498   */\n      mstore\n        /* \"#utility.yul\":7517:7521   */\n      0x24\n        /* \"#utility.yul\":7514:7515   */\n      0x00\n        /* \"#utility.yul\":7507:7522   */\n      revert\n        /* \"#utility.yul\":7534:7714   */\n    tag_149:\n        /* \"#utility.yul\":7582:7659   */\n      0x4e487b7100000000000000000000000000000000000000000000000000000000\n        /* \"#utility.yul\":7579:7580   */\n      0x00\n        /* \"#utility.yul\":7572:7660   */\n      mstore\n        /* \"#utility.yul\":7679:7683   */\n      0x22\n        /* \"#utility.yul\":7676:7677   */\n      0x04\n        /* \"#utility.yul\":7669:7684   */\n      mstore\n        /* \"#utility.yul\":7703:7707   */\n      0x24\n        /* \"#utility.yul\":7700:7701   */\n      0x00\n        /* \"#utility.yul\":7693:7708   */\n      revert\n        /* \"#utility.yul\":7720:8040   */\n    tag_69:\n        /* \"#utility.yul\":7764:7770   */\n      0x00\n        /* \"#utility.yul\":7801:7802   */\n      0x02\n        /* \"#utility.yul\":7795:7799   */\n      dup3\n        /* \"#utility.yul\":7791:7803   */\n      div\n        /* \"#utility.yul\":7781:7803   */\n      swap1\n      pop\n        /* \"#utility.yul\":7848:7849   */\n      0x01\n        /* \"#utility.yul\":7842:7846   */\n      dup3\n        /* \"#utility.yul\":7838:7850   */\n      and\n        /* \"#utility.yul\":7869:7887   */\n      dup1\n        /* \"#utility.yul\":7859:7940   */\n      tag_255\n      jumpi\n        /* \"#utility.yul\":7925:7929   */\n      0x7f\n        /* \"#utility.yul\":7917:7923   */\n      dup3\n        /* \"#utility.yul\":7913:7930   */\n      and\n        /* \"#utility.yul\":7903:7930   */\n      swap2\n      pop\n        /* \"#utility.yul\":7859:7940   */\n    tag_255:\n        /* \"#utility.yul\":7987:7989   */\n      0x20\n        /* \"#utility.yul\":7979:7985   */\n      dup3\n        /* \"#utility.yul\":7976:7990   */\n      lt\n        /* \"#utility.yul\":7956:7974   */\n      dup2\n        /* \"#utility.yul\":7953:7991   */\n      sub\n        /* \"#utility.yul\":7950:8034   */\n      tag_256\n      jumpi\n        /* \"#utility.yul\":8006:8024   */\n      tag_257\n      tag_149\n      jump\t// in\n    tag_257:\n        /* \"#utility.yul\":7950:8034   */\n    tag_256:\n        /* \"#utility.yul\":7771:8040   */\n      pop\n        /* \"#utility.yul\":7720:8040   */\n      swap2\n      swap1\n      pop\n      jump\t// out\n        /* \"#utility.yul\":8046:8187   */\n    tag_150:\n        /* \"#utility.yul\":8095:8099   */\n      0x00\n        /* \"#utility.yul\":8118:8121   */\n      dup2\n        /* \"#utility.yul\":8110:8121   */\n      swap1\n      pop\n        /* \"#utility.yul\":8141:8144   */\n      dup2\n        /* \"#utility.yul\":8138:8139   */\n      0x00\n        /* \"#utility.yul\":8131:8145   */\n      mstore\n        /* \"#utility.yul\":8175:8179   */\n      0x20\n        /* \"#utility.yul\":8172:8173   */\n      0x00\n        /* \"#utility.yul\":8162:8180   */\n      keccak256\n        /* \"#utility.yul\":8154:8180   */\n      swap1\n      pop\n        /* \"#utility.yul\":8046:8187   */\n      swap2\n      swap1\n      pop\n      jump\t// out\n        /* \"#utility.yul\":8193:8286   */\n    tag_151:\n        /* \"#utility.yul\":8230:8236   */\n      0x00\n        /* \"#utility.yul\":8277:8279   */\n      0x20\n        /* \"#utility.yul\":8272:8274   */\n      0x1f\n        /* \"#utility.yul\":8265:8270   */\n      dup4\n        /* \"#utility.yul\":8261:8275   */\n      add\n        /* \"#utility.yul\":8257:8280   */\n      div\n        /* \"#utility.yul\":8247:8280   */\n      swap1\n      pop\n        /* \"#utility.yul\":8193:8286   */\n      swap2\n      swap1\n      pop\n      jump\t// out\n        /* \"#utility.yul\":8292:8399   */\n    tag_152:\n        /* \"#utility.yul\":8336:8344   */\n      0x00\n        /* \"#utility.yul\":8386:8391   */\n      dup3\n        /* \"#utility.yul\":8380:8384   */\n      dup3\n        /* \"#utility.yul\":8376:8392   */\n      shl\n        /* \"#utility.yul\":8355:8392   */\n      swap1\n      pop\n        /* \"#utility.yul\":8292:8399   */\n      swap3\n      swap2\n      pop\n      pop\n      jump\t// out\n        /* \"#utility.yul\":8405:8798   */\n    tag_153:\n        /* \"#utility.yul\":8474:8480   */\n      0x00\n        /* \"#utility.yul\":8524:8525   */\n      0x08\n        /* \"#utility.yul\":8512:8522   */\n      dup4\n        /* \"#utility.yul\":8508:8526   */\n      mul\n        /* \"#utility.yul\":8547:8644   */\n      tag_262\n        /* \"#utility.yul\":8577:8643   */\n      0xffffffffffffffffffffffffffffffffffffffffffffffffffffffffffffffff\n        /* \"#utility.yul\":8566:8575   */\n      dup3\n        /* \"#utility.yul\":8547:8644   */\n      tag_152\n      jump\t// in\n    tag_262:\n        /* \"#utility.yul\":8665:8704   */\n      tag_263\n        /* \"#utility.yul\":8695:8703   */\n      dup7\n        /* \"#utility.yul\":8684:8693   */\n      dup4\n        /* \"#utility.yul\":8665:8704   */\n      tag_152\n      jump\t// in\n    tag_263:\n        /* \"#utility.yul\":8653:8704   */\n      swap6\n      pop\n        /* \"#utility.yul\":8737:8741   */\n      dup1\n        /* \"#utility.yul\":8733:8742   */\n      not\n        /* \"#utility.yul\":8726:8731   */\n      dup5\n        /* \"#utility.yul\":8722:8743   */\n      and\n        /* \"#utility.yul\":8713:8743   */\n      swap4\n      pop\n        /* \"#utility.yul\":8786:8790   */\n      dup1\n        /* \"#utility.yul\":8776:8784   */\n      dup7\n        /* \"#utility.yul\":8772:8791   */\n      and\n        /* \"#utility.yul\":8765:8770   */\n      dup5\n        /* \"#utility.yul\":8762:8792   */\n      or\n        /* \"#utility.yul\":8752:8792   */\n      swap3\n      pop\n        /* \"#utility.yul\":8481:8798   */\n      pop\n      pop\n        /* \"#utility.yul\":8405:8798   */\n      swap4\n      swap3\n      pop\n      pop\n      pop\n      jump\t// out\n        /* \"#utility.yul\":8804:8864   */\n    tag_154:\n        /* \"#utility.yul\":8832:8835   */\n      0x00\n        /* \"#utility.yul\":8853:8858   */\n      dup2\n        /* \"#utility.yul\":8846:8858   */\n      swap1\n      pop\n        /* \"#utility.yul\":8804:8864   */\n      swap2\n      swap1\n      pop\n      jump\t// out\n        /* \"#utility.yul\":8870:9012   */\n    tag_155:\n        /* \"#utility.yul\":8920:8929   */\n      0x00\n        /* \"#utility.yul\":8953:9006   */\n      tag_266\n        /* \"#utility.yul\":8971:9005   */\n      tag_267\n        /* \"#utility.yul\":8980:9004   */\n      tag_268\n        /* \"#utility.yul\":8998:9003   */\n      dup5\n        /* \"#utility.yul\":8980:9004   */\n      tag_127\n      jump\t// in\n    tag_268:\n        /* \"#utility.yul\":8971:9005   */\n      tag_154\n      jump\t// in\n    tag_267:\n        /* \"#utility.yul\":8953:9006   */\n      tag_127\n      jump\t// in\n    tag_266:\n        /* \"#utility.yul\":8940:9006   */\n      swap1\n      pop\n        /* \"#utility.yul\":8870:9012   */\n      swap2\n      swap1\n      pop\n      jump\t// out\n        /* \"#utility.yul\":9018:9093   */\n    tag_156:\n        /* \"#utility.yul\":9061:9064   */\n      0x00\n        /* \"#utility.yul\":9082:9087   */\n      dup2\n        /* \"#utility.yul\":9075:9087   */\n      swap1\n      pop\n        /* \"#utility.yul\":9018:9093   */\n      swap2\n      swap1\n      pop\n      jump\t// out\n        /* \"#utility.yul\":9099:9368   */\n    tag_157:\n        /* \"#utility.yul\":9209:9248   */\n      tag_271\n        /* \"#utility.yul\":9240:9247   */\n      dup4\n        /* \"#utility.yul\":9209:9248   */\n      tag_155\n      jump\t// in\n    tag_271:\n        /* \"#utility.yul\":9270:9361   */\n      tag_272\n        /* \"#utility.yul\":9319:9360   */\n      tag_273\n        /* \"#utility.yul\":9343:9359   */\n      dup3\n        /* \"#utility.yul\":9319:9360   */\n      tag_156\n      jump\t// in\n    tag_273:\n        /* \"#utility.yul\":9311:9317   */\n      dup5\n        /* \"#utility.yul\":9304:9308   */\n      dup5\n        /* \"#utility.yul\":9298:9309   */\n      sload\n        /* \"#utility.yul\":9270:9361   */\n      tag_153\n      jump\t// in\n    tag_272:\n        /* \"#utility.yul\":9264:9268   */\n      dup3\n        /* \"#utility.yul\":9257:9362   */\n      sstore\n        /* \"#utility.yul\":9175:9368   */\n      pop\n        /* \"#utility.yul\":9099:9368   */\n      pop\n      pop\n      pop\n      jump\t// out\n        /* \"#utility.yul\":9374:9447   */\n    tag_158:\n        /* \"#utility.yul\":9419:9422   */\n      0x00\n        /* \"#utility.yul\":9374:9447   */\n      swap1\n      jump\t// out\n        /* \"#utility.yul\":9453:9642   */\n    tag_159:\n        /* \"#utility.yul\":9530:9562   */\n      tag_276\n      tag_158\n      jump\t// in\n    tag_276:\n        /* \"#utility.yul\":9571:9636   */\n      tag_277\n        /* \"#utility.yul\":9629:9635   */\n      dup2\n        /* \"#utility.yul\":9621:9627   */\n      dup5\n        /* \"#utility.yul\":9615:9619   */\n      dup5\n        /* \"#utility.yul\":9571:9636   */\n      tag_157\n      jump\t// in\n    tag_277:\n        /* \"#utility.yul\":9506:9642   */\n      pop\n        /* \"#utility.yul\":9453:9642   */\n      pop\n      pop\n      jump\t// out\n        /* \"#utility.yul\":9648:9834   */\n    tag_160:\n        /* \"#utility.yul\":9708:9828   */\n    tag_279:\n        /* \"#utility.yul\":9725:9728   */\n      dup2\n        /* \"#utility.yul\":9718:9723   */\n      dup2\n        /* \"#utility.yul\":9715:9729   */\n      lt\n        /* \"#utility.yul\":9708:9828   */\n      iszero\n      tag_281\n      jumpi\n        /* \"#utility.yul\":9779:9818   */\n      tag_282\n        /* \"#utility.yul\":9816:9817   */\n      0x00\n        /* \"#utility.yul\":9809:9814   */\n      dup3\n        /* \"#utility.yul\":9779:9818   */\n      tag_159\n      jump\t// in\n    tag_282:\n        /* \"#utility.yul\":9752:9753   */\n      0x01\n        /* \"#utility.yul\":9745:9750   */\n      dup2\n        /* \"#utility.yul\":9741:9754   */\n      add\n        /* \"#utility.yul\":9732:9754   */\n      swap1\n      pop\n        /* \"#utility.yul\":9708:9828   */\n      jump(tag_279)\n    tag_281:\n        /* \"#utility.yul\":9648:9834   */\n      pop\n      pop\n      jump\t// out\n        /* \"#utility.yul\":9840:10383   */\n    tag_161:\n        /* \"#utility.yul\":9941:9943   */\n      0x1f\n        /* \"#utility.yul\":9936:9939   */\n      dup3\n        /* \"#utility.yul\":9933:9944   */\n      gt\n        /* \"#utility.yul\":9930:10376   */\n      iszero\n      tag_284\n      jumpi\n        /* \"#utility.yul\":9975:10013   */\n      tag_285\n        /* \"#utility.yul\":10007:10012   */\n      dup2\n        /* \"#utility.yul\":9975:10013   */\n      tag_150\n      jump\t// in\n    tag_285:\n        /* \"#utility.yul\":10059:10088   */\n      tag_286\n        /* \"#utility.yul\":10077:10087   */\n      dup5\n        /* \"#utility.yul\":10059:10088   */\n      tag_151\n      jump\t// in\n    tag_286:\n        /* \"#utility.yul\":10049:10057   */\n      dup2\n        /* \"#utility.yul\":10045:10089   */\n      add\n        /* \"#utility.yul\":10242:10244   */\n      0x20\n        /* \"#utility.yul\":10230:10240   */\n      dup6\n        /* \"#utility.yul\":10227:10245   */\n      lt\n        /* \"#utility.yul\":10224:10273   */\n      iszero\n      tag_287\n      jumpi\n        /* \"#utility.yul\":10263:10271   */\n      dup2\n        /* \"#utility.yul\":10248:10271   */\n      swap1\n      pop\n        /* \"#utility.yul\":10224:10273   */\n    tag_287:\n        /* \"#utility.yul\":10286:10366   */\n      tag_288\n        /* \"#utility.yul\":10342:10364   */\n      tag_289\n        /* \"#utility.yul\":10360:10363   */\n      dup6\n        /* \"#utility.yul\":10342:10364   */\n      tag_151\n      jump\t// in\n    tag_289:\n        /* \"#utility.yul\":10332:10340   */\n      dup4\n        /* \"#utility.yul\":10328:10365   */\n      add\n        /* \"#utility.yul\":10315:10326   */\n      dup3\n        /* \"#utility.yul\":10286:10366   */\n      tag_160\n      jump\t// in\n    tag_288:\n        /* \"#utility.yul\":9945:10376   */\n      pop\n      pop\n        /* \"#utility.yul\":9930:10376   */\n    tag_284:\n        /* \"#utility.yul\":9840:10383   */\n      pop\n      pop\n      pop\n      jump\t// out\n        /* \"#utility.yul\":10389:10506   */\n    tag_162:\n        /* \"#utility.yul\":10443:10451   */\n      0x00\n        /* \"#utility.yul\":10493:10498   */\n      dup3\n        /* \"#utility.yul\":10487:10491   */\n      dup3\n        /* \"#utility.yul\":10483:10499   */\n      shr\n        /* \"#utility.yul\":10462:10499   */\n      swap1\n      pop\n        /* \"#utility.yul\":10389:10506   */\n      swap3\n      swap2\n      pop\n      pop\n      jump\t// out\n        /* \"#utility.yul\":10512:10681   */\n    tag_163:\n        /* \"#utility.yul\":10556:10562   */\n      0x00\n        /* \"#utility.yul\":10589:10640   */\n      tag_292\n        /* \"#utility.yul\":10637:10638   */\n      0x00\n        /* \"#utility.yul\":10633:10639   */\n      not\n        /* \"#utility.yul\":10625:10630   */\n      dup5\n        /* \"#utility.yul\":10622:10623   */\n      0x08\n        /* \"#utility.yul\":10618:10631   */\n      mul\n        /* \"#utility.yul\":10589:10640   */\n      tag_162\n      jump\t// in\n    tag_292:\n        /* \"#utility.yul\":10585:10641   */\n      not\n        /* \"#utility.yul\":10670:10674   */\n      dup1\n        /* \"#utility.yul\":10664:10668   */\n      dup4\n        /* \"#utility.yul\":10660:10675   */\n      and\n        /* \"#utility.yul\":10650:10675   */\n      swap2\n      pop\n        /* \"#utility.yul\":10563:10681   */\n      pop\n        /* \"#utility.yul\":10512:10681   */\n      swap3\n      swap2\n      pop\n      pop\n      jump\t// out\n        /* \"#utility.yul\":10686:10981   */\n    tag_164:\n        /* \"#utility.yul\":10762:10766   */\n      0x00\n        /* \"#utility.yul\":10908:10937   */\n      tag_294\n        /* \"#utility.yul\":10933:10936   */\n      dup4\n        /* \"#utility.yul\":10927:10931   */\n      dup4\n        /* \"#utility.yul\":10908:10937   */\n      tag_163\n      jump\t// in\n    tag_294:\n        /* \"#utility.yul\":10900:10937   */\n      swap2\n      pop\n        /* \"#utility.yul\":10970:10973   */\n      dup3\n        /* \"#utility.yul\":10967:10968   */\n      0x02\n        /* \"#utility.yul\":10963:10974   */\n      mul\n        /* \"#utility.yul\":10957:10961   */\n      dup3\n        /* \"#utility.yul\":10954:10975   */\n      or\n        /* \"#utility.yul\":10946:10975   */\n      swap1\n      pop\n        /* \"#utility.yul\":10686:10981   */\n      swap3\n      swap2\n      pop\n      pop\n      jump\t// out\n        /* \"#utility.yul\":10986:12381   */\n    tag_54:\n        /* \"#utility.yul\":11103:11140   */\n      tag_296\n        /* \"#utility.yul\":11136:11139   */\n      dup3\n        /* \"#utility.yul\":11103:11140   */\n      tag_140\n      jump\t// in\n    tag_296:\n        /* \"#utility.yul\":11205:11223   */\n      0xffffffffffffffff\n        /* \"#utility.yul\":11197:11203   */\n      dup2\n        /* \"#utility.yul\":11194:11224   */\n      gt\n        /* \"#utility.yul\":11191:11247   */\n      iszero\n      tag_297\n      jumpi\n        /* \"#utility.yul\":11227:11245   */\n      tag_298\n      tag_133\n      jump\t// in\n    tag_298:\n        /* \"#utility.yul\":11191:11247   */\n    tag_297:\n        /* \"#utility.yul\":11271:11309   */\n      tag_299\n        /* \"#utility.yul\":11303:11307   */\n      dup3\n        /* \"#utility.yul\":11297:11308   */\n      sload\n        /* \"#utility.yul\":11271:11309   */\n      tag_69\n      jump\t// in\n    tag_299:\n        /* \"#utility.yul\":11356:11423   */\n      tag_300\n        /* \"#utility.yul\":11416:11422   */\n      dup3\n        /* \"#utility.yul\":11408:11414   */\n      dup3\n        /* \"#utility.yul\":11402:11406   */\n      dup6\n        /* \"#utility.yul\":11356:11423   */\n      tag_161\n      jump\t// in\n    tag_300:\n        /* \"#utility.yul\":11450:11451   */\n      0x00\n        /* \"#utility.yul\":11474:11478   */\n      0x20\n        /* \"#utility.yul\":11461:11478   */\n      swap1\n      pop\n        /* \"#utility.yul\":11506:11508   */\n      0x1f\n        /* \"#utility.yul\":11498:11504   */\n      dup4\n        /* \"#utility.yul\":11495:11509   */\n      gt\n        /* \"#utility.yul\":11523:11524   */\n      0x01\n        /* \"#utility.yul\":11518:12136   */\n      dup2\n      eq\n      tag_302\n      jumpi\n        /* \"#utility.yul\":12180:12181   */\n      0x00\n        /* \"#utility.yul\":12197:12203   */\n      dup5\n        /* \"#utility.yul\":12194:12271   */\n      iszero\n      tag_303\n      jumpi\n        /* \"#utility.yul\":12246:12255   */\n      dup3\n        /* \"#utility.yul\":12241:12244   */\n      dup8\n        /* \"#utility.yul\":12237:12256   */\n      add\n        /* \"#utility.yul\":12231:12257   */\n      mload\n        /* \"#utility.yul\":12222:12257   */\n      swap1\n      pop\n        /* \"#utility.yul\":12194:12271   */\n    tag_303:\n        /* \"#utility.yul\":12297:12364   */\n      tag_304\n        /* \"#utility.yul\":12357:12363   */\n      dup6\n        /* \"#utility.yul\":12350:12355   */\n      dup3\n        /* \"#utility.yul\":12297:12364   */\n      tag_164\n      jump\t// in\n    tag_304:\n        /* \"#utility.yul\":12291:12295   */\n      dup7\n        /* \"#utility.yul\":12284:12365   */\n      sstore\n        /* \"#utility.yul\":12153:12375   */\n      pop\n        /* \"#utility.yul\":11488:12375   */\n      jump(tag_301)\n        /* \"#utility.yul\":11518:12136   */\n    tag_302:\n        /* \"#utility.yul\":11570:11574   */\n      0x1f\n        /* \"#utility.yul\":11566:11575   */\n      not\n        /* \"#utility.yul\":11558:11564   */\n      dup5\n        /* \"#utility.yul\":11554:11576   */\n      and\n        /* \"#utility.yul\":11604:11641   */\n      tag_305\n        /* \"#utility.yul\":11636:11640   */\n      dup7\n        /* \"#utility.yul\":11604:11641   */\n      tag_150\n      jump\t// in\n    tag_305:\n        /* \"#utility.yul\":11663:11664   */\n      0x00\n        /* \"#utility.yul\":11677:11885   */\n    tag_306:\n        /* \"#utility.yul\":11691:11698   */\n      dup3\n        /* \"#utility.yul\":11688:11689   */\n      dup2\n        /* \"#utility.yul\":11685:11699   */\n      lt\n        /* \"#utility.yul\":11677:11885   */\n      iszero\n      tag_308\n      jumpi\n        /* \"#utility.yul\":11770:11779   */\n      dup5\n        /* \"#utility.yul\":11765:11768   */\n      dup10\n        /* \"#utility.yul\":11761:11780   */\n      add\n        /* \"#utility.yul\":11755:11781   */\n      mload\n        /* \"#utility.yul\":11747:11753   */\n      dup3\n        /* \"#utility.yul\":11740:11782   */\n      sstore\n        /* \"#utility.yul\":11821:11822   */\n      0x01\n        /* \"#utility.yul\":11813:11819   */\n      dup3\n        /* \"#utility.yul\":11809:11823   */\n      add\n        /* \"#utility.yul\":11799:11823   */\n      swap2\n      pop\n        /* \"#utility.yul\":11868:11870   */\n      0x20\n        /* \"#utility.yul\":11857:11866   */\n      dup6\n        /* \"#utility.yul\":11853:11871   */\n      add\n        /* \"#utility.yul\":11840:11871   */\n      swap5\n      pop\n        /* \"#utility.yul\":11714:11718   */\n      0x20\n        /* \"#utility.yul\":11711:11712   */\n      dup2\n        /* \"#utility.yul\":11707:11719   */\n      add\n        /* \"#utility.yul\":11702:11719   */\n      swap1\n      pop\n        /* \"#utility.yul\":11677:11885   */\n      jump(tag_306)\n    tag_308:\n        /* \"#utility.yul\":11913:11919   */\n      dup7\n        /* \"#utility.yul\":11904:11911   */\n      dup4\n        /* \"#utility.yul\":11901:11920   */\n      lt\n        /* \"#utility.yul\":11898:12077   */\n      iszero\n      tag_309\n      jumpi\n        /* \"#utility.yul\":11971:11980   */\n      dup5\n        /* \"#utility.yul\":11966:11969   */\n      dup10\n        /* \"#utility.yul\":11962:11981   */\n      add\n        /* \"#utility.yul\":11956:11982   */\n      mload\n        /* \"#utility.yul\":12014:12062   */\n      tag_310\n        /* \"#utility.yul\":12056:12060   */\n      0x1f\n        /* \"#utility.yul\":12048:12054   */\n      dup10\n        /* \"#utility.yul\":12044:12061   */\n      and\n        /* \"#utility.yul\":12033:12042   */\n      dup3\n        /* \"#utility.yul\":12014:12062   */\n      tag_163\n      jump\t// in\n    tag_310:\n        /* \"#utility.yul\":12006:12012   */\n      dup4\n        /* \"#utility.yul\":11999:12063   */\n      sstore\n        /* \"#utility.yul\":11921:12077   */\n      pop\n        /* \"#utility.yul\":11898:12077   */\n    tag_309:\n        /* \"#utility.yul\":12123:12124   */\n      0x01\n        /* \"#utility.yul\":12119:12120   */\n      0x02\n        /* \"#utility.yul\":12111:12117   */\n      dup9\n        /* \"#utility.yul\":12107:12121   */\n      mul\n        /* \"#utility.yul\":12103:12125   */\n      add\n        /* \"#utility.yul\":12097:12101   */\n      dup9\n        /* \"#utility.yul\":12090:12126   */\n      sstore\n        /* \"#utility.yul\":11525:12136   */\n      pop\n      pop\n      pop\n        /* \"#utility.yul\":11488:12375   */\n    tag_301:\n      pop\n        /* \"#utility.yul\":11078:12381   */\n      pop\n      pop\n      pop\n        /* \"#utility.yul\":10986:12381   */\n      pop\n      pop\n      jump\t// out\n        /* \"#utility.yul\":12387:12567   */\n    tag_165:\n        /* \"#utility.yul\":12435:12512   */\n      0x4e487b7100000000000000000000000000000000000000000000000000000000\n        /* \"#utility.yul\":12432:12433   */\n      0x00\n        /* \"#utility.yul\":12425:12513   */\n      mstore\n        /* \"#utility.yul\":12532:12536   */\n      0x11\n        /* \"#utility.yul\":12529:12530   */\n      0x04\n        /* \"#utility.yul\":12522:12537   */\n      mstore\n        /* \"#utility.yul\":12556:12560   */\n      0x24\n        /* \"#utility.yul\":12553:12554   */\n      0x00\n        /* \"#utility.yul\":12546:12561   */\n      revert\n        /* \"#utility.yul\":12573:12806   */\n    tag_110:\n        /* \"#utility.yul\":12612:12615   */\n      0x00\n        /* \"#utility.yul\":12635:12659   */\n      tag_313\n        /* \"#utility.yul\":12653:12658   */\n      dup3\n        /* \"#utility.yul\":12635:12659   */\n      tag_127\n      jump\t// in\n    tag_313:\n        /* \"#utility.yul\":12626:12659   */\n      swap2\n      pop\n        /* \"#utility.yul\":12681:12747   */\n      0xffffffffffffffffffffffffffffffffffffffffffffffffffffffffffffffff\n        /* \"#utility.yul\":12674:12679   */\n      dup3\n        /* \"#utility.yul\":12671:12748   */\n      sub\n        /* \"#utility.yul\":12668:12771   */\n      tag_314\n      jumpi\n        /* \"#utility.yul\":12751:12769   */\n      tag_315\n      tag_165\n      jump\t// in\n    tag_315:\n        /* \"#utility.yul\":12668:12771   */\n    tag_314:\n        /* \"#utility.yul\":12798:12799   */\n      0x01\n        /* \"#utility.yul\":12791:12796   */\n      dup3\n        /* \"#utility.yul\":12787:12800   */\n      add\n        /* \"#utility.yul\":12780:12800   */\n      swap1\n      pop\n        /* \"#utility.yul\":12573:12806   */\n      swap2\n      swap1\n      pop\n      jump\t// out\n\n    auxdata: 0xa26469706673582212204c798f3ff7a7ba8c446985570580e4bd97b0e7358f59e070ab87d61920026e1d64736f6c63430008180033\n}\n",
				"bytecode": {
					"linkReferences": {},
					"object": "608060405234801561000f575f80fd5b50610e708061001d5f395ff3fe608060405234801561000f575f80fd5b506004361061007b575f3560e01c806380c9419e1161005957806380c9419e146100e85780639c117f0f1461011a578063b6a46b3b1461014b578063d511b4be146101675761007b565b80631fbb5bc51461007f57806331184dc31461009b5780634112a18e146100cc575b5f80fd5b6100996004803603810190610094919061088f565b610183565b005b6100b560048036038101906100b091906108e9565b610208565b6040516100c39291906109a8565b60405180910390f35b6100e660048036038101906100e19190610a00565b61034f565b005b61010260048036038101906100fd91906108e9565b6103dd565b60405161011193929190610a4d565b60405180910390f35b610134600480360381019061012f91906108e9565b6104a3565b6040516101429291906109a8565b60405180910390f35b61016560048036038101906101609190610a89565b6105b7565b005b610181600480360381019061017c91906108e9565b610650565b005b5f805f90505b5f8054905081101561020257835f82815481106101a9576101a8610ad0565b5b905f5260205f2090600302015f0154036101f5575f81815481106101d0576101cf610ad0565b5b905f5260205f2090600302019150828260010190816101ef9190610cf7565b50610202565b8080600101915050610189565b50505050565b60605f6102136106ee565b5f5b5f8054905081101561034857845f828154811061023557610234610ad0565b5b905f5260205f2090600302015f01540361033b575f818154811061025c5761025b610ad0565b5b905f5260205f2090600302016040518060600160405290815f820154815260200160018201805461028c90610b2a565b80601f01602080910402602001604051908101604052809291908181526020018280546102b890610b2a565b80156103035780601f106102da57610100808354040283529160200191610303565b820191905f5260205f20905b8154815290600101906020018083116102e657829003601f168201915b50505050508152602001600282015f9054906101000a900460ff16151515158152505091508160200151935081604001519250610348565b8080600101915050610215565b5050915091565b5f805f90505b5f805490508110156103d757835f828154811061037557610374610ad0565b5b905f5260205f2090600302015f0154036103ca575f818154811061039c5761039b610ad0565b5b905f5260205f209060030201915082826002015f6101000a81548160ff0219169083151502179055506103d7565b8080600101915050610355565b50505050565b5f81815481106103eb575f80fd5b905f5260205f2090600302015f91509050805f01549080600101805461041090610b2a565b80601f016020809104026020016040519081016040528092919081815260200182805461043c90610b2a565b80156104875780601f1061045e57610100808354040283529160200191610487565b820191905f5260205f20905b81548152906001019060200180831161046a57829003601f168201915b505050505090806002015f9054906101000a900460ff16905083565b60605f805f5b5f805490508110156105b057845f82815481106104c9576104c8610ad0565b5b905f5260205f2090600302015f0154036105a3575f81815481106104f0576104ef610ad0565b5b905f5260205f209060030201915081600101805461050d90610b2a565b80601f016020809104026020016040519081016040528092919081815260200182805461053990610b2a565b80156105845780601f1061055b57610100808354040283529160200191610584565b820191905f5260205f20905b81548152906001019060200180831161056757829003601f168201915b50505050509350816002015f9054906101000a900460ff1692506105b0565b80806001019150506104a9565b5050915091565b5f604051806060016040528060015f81546105d190610df3565b91905081905581526020018381526020015f1515815250908060018154018082558091505060019003905f5260205f2090600302015f909190919091505f820151815f0155602082015181600101908161062b9190610cf7565b506040820151816002015f6101000a81548160ff021916908315150217905550505050565b5f805f90505b5f805490508110156106e957825f828154811061067657610675610ad0565b5b905f5260205f2090600302015f0154036106dc575f818154811061069d5761069c610ad0565b5b905f5260205f2090600302019150816002015f9054906101000a900460ff1615826002015f6101000a81548160ff0219169083151502179055506106e9565b8080600101915050610656565b505050565b60405180606001604052805f8152602001606081526020015f151581525090565b5f604051905090565b5f80fd5b5f80fd5b5f819050919050565b61073281610720565b811461073c575f80fd5b50565b5f8135905061074d81610729565b92915050565b5f80fd5b5f80fd5b5f601f19601f8301169050919050565b7f4e487b71000000000000000000000000000000000000000000000000000000005f52604160045260245ffd5b6107a18261075b565b810181811067ffffffffffffffff821117156107c0576107bf61076b565b5b80604052505050565b5f6107d261070f565b90506107de8282610798565b919050565b5f67ffffffffffffffff8211156107fd576107fc61076b565b5b6108068261075b565b9050602081019050919050565b828183375f83830152505050565b5f61083361082e846107e3565b6107c9565b90508281526020810184848401111561084f5761084e610757565b5b61085a848285610813565b509392505050565b5f82601f83011261087657610875610753565b5b8135610886848260208601610821565b91505092915050565b5f80604083850312156108a5576108a4610718565b5b5f6108b28582860161073f565b925050602083013567ffffffffffffffff8111156108d3576108d261071c565b5b6108df85828601610862565b9150509250929050565b5f602082840312156108fe576108fd610718565b5b5f61090b8482850161073f565b91505092915050565b5f81519050919050565b5f82825260208201905092915050565b5f5b8381101561094b578082015181840152602081019050610930565b5f8484015250505050565b5f61096082610914565b61096a818561091e565b935061097a81856020860161092e565b6109838161075b565b840191505092915050565b5f8115159050919050565b6109a28161098e565b82525050565b5f6040820190508181035f8301526109c08185610956565b90506109cf6020830184610999565b9392505050565b6109df8161098e565b81146109e9575f80fd5b50565b5f813590506109fa816109d6565b92915050565b5f8060408385031215610a1657610a15610718565b5b5f610a238582860161073f565b9250506020610a34858286016109ec565b9150509250929050565b610a4781610720565b82525050565b5f606082019050610a605f830186610a3e565b8181036020830152610a728185610956565b9050610a816040830184610999565b949350505050565b5f60208284031215610a9e57610a9d610718565b5b5f82013567ffffffffffffffff811115610abb57610aba61071c565b5b610ac784828501610862565b91505092915050565b7f4e487b71000000000000000000000000000000000000000000000000000000005f52603260045260245ffd5b7f4e487b71000000000000000000000000000000000000000000000000000000005f52602260045260245ffd5b5f6002820490506001821680610b4157607f821691505b602082108103610b5457610b53610afd565b5b50919050565b5f819050815f5260205f209050919050565b5f6020601f8301049050919050565b5f82821b905092915050565b5f60088302610bb67fffffffffffffffffffffffffffffffffffffffffffffffffffffffffffffffff82610b7b565b610bc08683610b7b565b95508019841693508086168417925050509392505050565b5f819050919050565b5f610bfb610bf6610bf184610720565b610bd8565b610720565b9050919050565b5f819050919050565b610c1483610be1565b610c28610c2082610c02565b848454610b87565b825550505050565b5f90565b610c3c610c30565b610c47818484610c0b565b505050565b5b81811015610c6a57610c5f5f82610c34565b600181019050610c4d565b5050565b601f821115610caf57610c8081610b5a565b610c8984610b6c565b81016020851015610c98578190505b610cac610ca485610b6c565b830182610c4c565b50505b505050565b5f82821c905092915050565b5f610ccf5f1984600802610cb4565b1980831691505092915050565b5f610ce78383610cc0565b9150826002028217905092915050565b610d0082610914565b67ffffffffffffffff811115610d1957610d1861076b565b5b610d238254610b2a565b610d2e828285610c6e565b5f60209050601f831160018114610d5f575f8415610d4d578287015190505b610d578582610cdc565b865550610dbe565b601f198416610d6d86610b5a565b5f5b82811015610d9457848901518255600182019150602085019450602081019050610d6f565b86831015610db15784890151610dad601f891682610cc0565b8355505b6001600288020188555050505b505050505050565b7f4e487b71000000000000000000000000000000000000000000000000000000005f52601160045260245ffd5b5f610dfd82610720565b91507fffffffffffffffffffffffffffffffffffffffffffffffffffffffffffffffff8203610e2f57610e2e610dc6565b5b60018201905091905056fea26469706673582212204c798f3ff7a7ba8c446985570580e4bd97b0e7358f59e070ab87d61920026e1d64736f6c63430008180033",
					"opcodes": "PUSH1 0x80 PUSH1 0x40 MSTORE CALLVALUE DUP1 ISZERO PUSH2 0xF JUMPI PUSH0 DUP1 REVERT JUMPDEST POP PUSH2 0xE70 DUP1 PUSH2 0x1D PUSH0 CODECOPY PUSH0 RETURN INVALID PUSH1 0x80 PUSH1 0x40 MSTORE CALLVALUE DUP1 ISZERO PUSH2 0xF JUMPI PUSH0 DUP1 REVERT JUMPDEST POP PUSH1 0x4 CALLDATASIZE LT PUSH2 0x7B JUMPI PUSH0 CALLDATALOAD PUSH1 0xE0 SHR DUP1 PUSH4 0x80C9419E GT PUSH2 0x59 JUMPI DUP1 PUSH4 0x80C9419E EQ PUSH2 0xE8 JUMPI DUP1 PUSH4 0x9C117F0F EQ PUSH2 0x11A JUMPI DUP1 PUSH4 0xB6A46B3B EQ PUSH2 0x14B JUMPI DUP1 PUSH4 0xD511B4BE EQ PUSH2 0x167 JUMPI PUSH2 0x7B JUMP JUMPDEST DUP1 PUSH4 0x1FBB5BC5 EQ PUSH2 0x7F JUMPI DUP1 PUSH4 0x31184DC3 EQ PUSH2 0x9B JUMPI DUP1 PUSH4 0x4112A18E EQ PUSH2 0xCC JUMPI JUMPDEST PUSH0 DUP1 REVERT JUMPDEST PUSH2 0x99 PUSH1 0x4 DUP1 CALLDATASIZE SUB DUP2 ADD SWAP1 PUSH2 0x94 SWAP2 SWAP1 PUSH2 0x88F JUMP JUMPDEST PUSH2 0x183 JUMP JUMPDEST STOP JUMPDEST PUSH2 0xB5 PUSH1 0x4 DUP1 CALLDATASIZE SUB DUP2 ADD SWAP1 PUSH2 0xB0 SWAP2 SWAP1 PUSH2 0x8E9 JUMP JUMPDEST PUSH2 0x208 JUMP JUMPDEST PUSH1 0x40 MLOAD PUSH2 0xC3 SWAP3 SWAP2 SWAP1 PUSH2 0x9A8 JUMP JUMPDEST PUSH1 0x40 MLOAD DUP1 SWAP2 SUB SWAP1 RETURN JUMPDEST PUSH2 0xE6 PUSH1 0x4 DUP1 CALLDATASIZE SUB DUP2 ADD SWAP1 PUSH2 0xE1 SWAP2 SWAP1 PUSH2 0xA00 JUMP JUMPDEST PUSH2 0x34F JUMP JUMPDEST STOP JUMPDEST PUSH2 0x102 PUSH1 0x4 DUP1 CALLDATASIZE SUB DUP2 ADD SWAP1 PUSH2 0xFD SWAP2 SWAP1 PUSH2 0x8E9 JUMP JUMPDEST PUSH2 0x3DD JUMP JUMPDEST PUSH1 0x40 MLOAD PUSH2 0x111 SWAP4 SWAP3 SWAP2 SWAP1 PUSH2 0xA4D JUMP JUMPDEST PUSH1 0x40 MLOAD DUP1 SWAP2 SUB SWAP1 RETURN JUMPDEST PUSH2 0x134 PUSH1 0x4 DUP1 CALLDATASIZE SUB DUP2 ADD SWAP1 PUSH2 0x12F SWAP2 SWAP1 PUSH2 0x8E9 JUMP JUMPDEST PUSH2 0x4A3 JUMP JUMPDEST PUSH1 0x40 MLOAD PUSH2 0x142 SWAP3 SWAP2 SWAP1 PUSH2 0x9A8 JUMP JUMPDEST PUSH1 0x40 MLOAD DUP1 SWAP2 SUB SWAP1 RETURN JUMPDEST PUSH2 0x165 PUSH1 0x4 DUP1 CALLDATASIZE SUB DUP2 ADD SWAP1 PUSH2 0x160 SWAP2 SWAP1 PUSH2 0xA89 JUMP JUMPDEST PUSH2 0x5B7 JUMP JUMPDEST STOP JUMPDEST PUSH2 0x181 PUSH1 0x4 DUP1 CALLDATASIZE SUB DUP2 ADD SWAP1 PUSH2 0x17C SWAP2 SWAP1 PUSH2 0x8E9 JUMP JUMPDEST PUSH2 0x650 JUMP JUMPDEST STOP JUMPDEST PUSH0 DUP1 PUSH0 SWAP1 POP JUMPDEST PUSH0 DUP1 SLOAD SWAP1 POP DUP2 LT ISZERO PUSH2 0x202 JUMPI DUP4 PUSH0 DUP3 DUP2 SLOAD DUP2 LT PUSH2 0x1A9 JUMPI PUSH2 0x1A8 PUSH2 0xAD0 JUMP JUMPDEST JUMPDEST SWAP1 PUSH0 MSTORE PUSH1 0x20 PUSH0 KECCAK256 SWAP1 PUSH1 0x3 MUL ADD PUSH0 ADD SLOAD SUB PUSH2 0x1F5 JUMPI PUSH0 DUP2 DUP2 SLOAD DUP2 LT PUSH2 0x1D0 JUMPI PUSH2 0x1CF PUSH2 0xAD0 JUMP JUMPDEST JUMPDEST SWAP1 PUSH0 MSTORE PUSH1 0x20 PUSH0 KECCAK256 SWAP1 PUSH1 0x3 MUL ADD SWAP2 POP DUP3 DUP3 PUSH1 0x1 ADD SWAP1 DUP2 PUSH2 0x1EF SWAP2 SWAP1 PUSH2 0xCF7 JUMP JUMPDEST POP PUSH2 0x202 JUMP JUMPDEST DUP1 DUP1 PUSH1 0x1 ADD SWAP2 POP POP PUSH2 0x189 JUMP JUMPDEST POP POP POP POP JUMP JUMPDEST PUSH1 0x60 PUSH0 PUSH2 0x213 PUSH2 0x6EE JUMP JUMPDEST PUSH0 JUMPDEST PUSH0 DUP1 SLOAD SWAP1 POP DUP2 LT ISZERO PUSH2 0x348 JUMPI DUP5 PUSH0 DUP3 DUP2 SLOAD DUP2 LT PUSH2 0x235 JUMPI PUSH2 0x234 PUSH2 0xAD0 JUMP JUMPDEST JUMPDEST SWAP1 PUSH0 MSTORE PUSH1 0x20 PUSH0 KECCAK256 SWAP1 PUSH1 0x3 MUL ADD PUSH0 ADD SLOAD SUB PUSH2 0x33B JUMPI PUSH0 DUP2 DUP2 SLOAD DUP2 LT PUSH2 0x25C JUMPI PUSH2 0x25B PUSH2 0xAD0 JUMP JUMPDEST JUMPDEST SWAP1 PUSH0 MSTORE PUSH1 0x20 PUSH0 KECCAK256 SWAP1 PUSH1 0x3 MUL ADD PUSH1 0x40 MLOAD DUP1 PUSH1 0x60 ADD PUSH1 0x40 MSTORE SWAP1 DUP2 PUSH0 DUP3 ADD SLOAD DUP2 MSTORE PUSH1 0x20 ADD PUSH1 0x1 DUP3 ADD DUP1 SLOAD PUSH2 0x28C SWAP1 PUSH2 0xB2A JUMP JUMPDEST DUP1 PUSH1 0x1F ADD PUSH1 0x20 DUP1 SWAP2 DIV MUL PUSH1 0x20 ADD PUSH1 0x40 MLOAD SWAP1 DUP2 ADD PUSH1 0x40 MSTORE DUP1 SWAP3 SWAP2 SWAP1 DUP2 DUP2 MSTORE PUSH1 0x20 ADD DUP3 DUP1 SLOAD PUSH2 0x2B8 SWAP1 PUSH2 0xB2A JUMP JUMPDEST DUP1 ISZERO PUSH2 0x303 JUMPI DUP1 PUSH1 0x1F LT PUSH2 0x2DA JUMPI PUSH2 0x100 DUP1 DUP4 SLOAD DIV MUL DUP4 MSTORE SWAP2 PUSH1 0x20 ADD SWAP2 PUSH2 0x303 JUMP JUMPDEST DUP3 ADD SWAP2 SWAP1 PUSH0 MSTORE PUSH1 0x20 PUSH0 KECCAK256 SWAP1 JUMPDEST DUP2 SLOAD DUP2 MSTORE SWAP1 PUSH1 0x1 ADD SWAP1 PUSH1 0x20 ADD DUP1 DUP4 GT PUSH2 0x2E6 JUMPI DUP3 SWAP1 SUB PUSH1 0x1F AND DUP3 ADD SWAP2 JUMPDEST POP POP POP POP POP DUP2 MSTORE PUSH1 0x20 ADD PUSH1 0x2 DUP3 ADD PUSH0 SWAP1 SLOAD SWAP1 PUSH2 0x100 EXP SWAP1 DIV PUSH1 0xFF AND ISZERO ISZERO ISZERO ISZERO DUP2 MSTORE POP POP SWAP2 POP DUP2 PUSH1 0x20 ADD MLOAD SWAP4 POP DUP2 PUSH1 0x40 ADD MLOAD SWAP3 POP PUSH2 0x348 JUMP JUMPDEST DUP1 DUP1 PUSH1 0x1 ADD SWAP2 POP POP PUSH2 0x215 JUMP JUMPDEST POP POP SWAP2 POP SWAP2 JUMP JUMPDEST PUSH0 DUP1 PUSH0 SWAP1 POP JUMPDEST PUSH0 DUP1 SLOAD SWAP1 POP DUP2 LT ISZERO PUSH2 0x3D7 JUMPI DUP4 PUSH0 DUP3 DUP2 SLOAD DUP2 LT PUSH2 0x375 JUMPI PUSH2 0x374 PUSH2 0xAD0 JUMP JUMPDEST JUMPDEST SWAP1 PUSH0 MSTORE PUSH1 0x20 PUSH0 KECCAK256 SWAP1 PUSH1 0x3 MUL ADD PUSH0 ADD SLOAD SUB PUSH2 0x3CA JUMPI PUSH0 DUP2 DUP2 SLOAD DUP2 LT PUSH2 0x39C JUMPI PUSH2 0x39B PUSH2 0xAD0 JUMP JUMPDEST JUMPDEST SWAP1 PUSH0 MSTORE PUSH1 0x20 PUSH0 KECCAK256 SWAP1 PUSH1 0x3 MUL ADD SWAP2 POP DUP3 DUP3 PUSH1 0x2 ADD PUSH0 PUSH2 0x100 EXP DUP2 SLOAD DUP2 PUSH1 0xFF MUL NOT AND SWAP1 DUP4 ISZERO ISZERO MUL OR SWAP1 SSTORE POP PUSH2 0x3D7 JUMP JUMPDEST DUP1 DUP1 PUSH1 0x1 ADD SWAP2 POP POP PUSH2 0x355 JUMP JUMPDEST POP POP POP POP JUMP JUMPDEST PUSH0 DUP2 DUP2 SLOAD DUP2 LT PUSH2 0x3EB JUMPI PUSH0 DUP1 REVERT JUMPDEST SWAP1 PUSH0 MSTORE PUSH1 0x20 PUSH0 KECCAK256 SWAP1 PUSH1 0x3 MUL ADD PUSH0 SWAP2 POP SWAP1 POP DUP1 PUSH0 ADD SLOAD SWAP1 DUP1 PUSH1 0x1 ADD DUP1 SLOAD PUSH2 0x410 SWAP1 PUSH2 0xB2A JUMP JUMPDEST DUP1 PUSH1 0x1F ADD PUSH1 0x20 DUP1 SWAP2 DIV MUL PUSH1 0x20 ADD PUSH1 0x40 MLOAD SWAP1 DUP2 ADD PUSH1 0x40 MSTORE DUP1 SWAP3 SWAP2 SWAP1 DUP2 DUP2 MSTORE PUSH1 0x20 ADD DUP3 DUP1 SLOAD PUSH2 0x43C SWAP1 PUSH2 0xB2A JUMP JUMPDEST DUP1 ISZERO PUSH2 0x487 JUMPI DUP1 PUSH1 0x1F LT PUSH2 0x45E JUMPI PUSH2 0x100 DUP1 DUP4 SLOAD DIV MUL DUP4 MSTORE SWAP2 PUSH1 0x20 ADD SWAP2 PUSH2 0x487 JUMP JUMPDEST DUP3 ADD SWAP2 SWAP1 PUSH0 MSTORE PUSH1 0x20 PUSH0 KECCAK256 SWAP1 JUMPDEST DUP2 SLOAD DUP2 MSTORE SWAP1 PUSH1 0x1 ADD SWAP1 PUSH1 0x20 ADD DUP1 DUP4 GT PUSH2 0x46A JUMPI DUP3 SWAP1 SUB PUSH1 0x1F AND DUP3 ADD SWAP2 JUMPDEST POP POP POP POP POP SWAP1 DUP1 PUSH1 0x2 ADD PUSH0 SWAP1 SLOAD SWAP1 PUSH2 0x100 EXP SWAP1 DIV PUSH1 0xFF AND SWAP1 POP DUP4 JUMP JUMPDEST PUSH1 0x60 PUSH0 DUP1 PUSH0 JUMPDEST PUSH0 DUP1 SLOAD SWAP1 POP DUP2 LT ISZERO PUSH2 0x5B0 JUMPI DUP5 PUSH0 DUP3 DUP2 SLOAD DUP2 LT PUSH2 0x4C9 JUMPI PUSH2 0x4C8 PUSH2 0xAD0 JUMP JUMPDEST JUMPDEST SWAP1 PUSH0 MSTORE PUSH1 0x20 PUSH0 KECCAK256 SWAP1 PUSH1 0x3 MUL ADD PUSH0 ADD SLOAD SUB PUSH2 0x5A3 JUMPI PUSH0 DUP2 DUP2 SLOAD DUP2 LT PUSH2 0x4F0 JUMPI PUSH2 0x4EF PUSH2 0xAD0 JUMP JUMPDEST JUMPDEST SWAP1 PUSH0 MSTORE PUSH1 0x20 PUSH0 KECCAK256 SWAP1 PUSH1 0x3 MUL ADD SWAP2 POP DUP2 PUSH1 0x1 ADD DUP1 SLOAD PUSH2 0x50D SWAP1 PUSH2 0xB2A JUMP JUMPDEST DUP1 PUSH1 0x1F ADD PUSH1 0x20 DUP1 SWAP2 DIV MUL PUSH1 0x20 ADD PUSH1 0x40 MLOAD SWAP1 DUP2 ADD PUSH1 0x40 MSTORE DUP1 SWAP3 SWAP2 SWAP1 DUP2 DUP2 MSTORE PUSH1 0x20 ADD DUP3 DUP1 SLOAD PUSH2 0x539 SWAP1 PUSH2 0xB2A JUMP JUMPDEST DUP1 ISZERO PUSH2 0x584 JUMPI DUP1 PUSH1 0x1F LT PUSH2 0x55B JUMPI PUSH2 0x100 DUP1 DUP4 SLOAD DIV MUL DUP4 MSTORE SWAP2 PUSH1 0x20 ADD SWAP2 PUSH2 0x584 JUMP JUMPDEST DUP3 ADD SWAP2 SWAP1 PUSH0 MSTORE PUSH1 0x20 PUSH0 KECCAK256 SWAP1 JUMPDEST DUP2 SLOAD DUP2 MSTORE SWAP1 PUSH1 0x1 ADD SWAP1 PUSH1 0x20 ADD DUP1 DUP4 GT PUSH2 0x567 JUMPI DUP3 SWAP1 SUB PUSH1 0x1F AND DUP3 ADD SWAP2 JUMPDEST POP POP POP POP POP SWAP4 POP DUP2 PUSH1 0x2 ADD PUSH0 SWAP1 SLOAD SWAP1 PUSH2 0x100 EXP SWAP1 DIV PUSH1 0xFF AND SWAP3 POP PUSH2 0x5B0 JUMP JUMPDEST DUP1 DUP1 PUSH1 0x1 ADD SWAP2 POP POP PUSH2 0x4A9 JUMP JUMPDEST POP POP SWAP2 POP SWAP2 JUMP JUMPDEST PUSH0 PUSH1 0x40 MLOAD DUP1 PUSH1 0x60 ADD PUSH1 0x40 MSTORE DUP1 PUSH1 0x1 PUSH0 DUP2 SLOAD PUSH2 0x5D1 SWAP1 PUSH2 0xDF3 JUMP JUMPDEST SWAP2 SWAP1 POP DUP2 SWAP1 SSTORE DUP2 MSTORE PUSH1 0x20 ADD DUP4 DUP2 MSTORE PUSH1 0x20 ADD PUSH0 ISZERO ISZERO DUP2 MSTORE POP SWAP1 DUP1 PUSH1 0x1 DUP2 SLOAD ADD DUP1 DUP3 SSTORE DUP1 SWAP2 POP POP PUSH1 0x1 SWAP1 SUB SWAP1 PUSH0 MSTORE PUSH1 0x20 PUSH0 KECCAK256 SWAP1 PUSH1 0x3 MUL ADD PUSH0 SWAP1 SWAP2 SWAP1 SWAP2 SWAP1 SWAP2 POP PUSH0 DUP3 ADD MLOAD DUP2 PUSH0 ADD SSTORE PUSH1 0x20 DUP3 ADD MLOAD DUP2 PUSH1 0x1 ADD SWAP1 DUP2 PUSH2 0x62B SWAP2 SWAP1 PUSH2 0xCF7 JUMP JUMPDEST POP PUSH1 0x40 DUP3 ADD MLOAD DUP2 PUSH1 0x2 ADD PUSH0 PUSH2 0x100 EXP DUP2 SLOAD DUP2 PUSH1 0xFF MUL NOT AND SWAP1 DUP4 ISZERO ISZERO MUL OR SWAP1 SSTORE POP POP POP POP JUMP JUMPDEST PUSH0 DUP1 PUSH0 SWAP1 POP JUMPDEST PUSH0 DUP1 SLOAD SWAP1 POP DUP2 LT ISZERO PUSH2 0x6E9 JUMPI DUP3 PUSH0 DUP3 DUP2 SLOAD DUP2 LT PUSH2 0x676 JUMPI PUSH2 0x675 PUSH2 0xAD0 JUMP JUMPDEST JUMPDEST SWAP1 PUSH0 MSTORE PUSH1 0x20 PUSH0 KECCAK256 SWAP1 PUSH1 0x3 MUL ADD PUSH0 ADD SLOAD SUB PUSH2 0x6DC JUMPI PUSH0 DUP2 DUP2 SLOAD DUP2 LT PUSH2 0x69D JUMPI PUSH2 0x69C PUSH2 0xAD0 JUMP JUMPDEST JUMPDEST SWAP1 PUSH0 MSTORE PUSH1 0x20 PUSH0 KECCAK256 SWAP1 PUSH1 0x3 MUL ADD SWAP2 POP DUP2 PUSH1 0x2 ADD PUSH0 SWAP1 SLOAD SWAP1 PUSH2 0x100 EXP SWAP1 DIV PUSH1 0xFF AND ISZERO DUP3 PUSH1 0x2 ADD PUSH0 PUSH2 0x100 EXP DUP2 SLOAD DUP2 PUSH1 0xFF MUL NOT AND SWAP1 DUP4 ISZERO ISZERO MUL OR SWAP1 SSTORE POP PUSH2 0x6E9 JUMP JUMPDEST DUP1 DUP1 PUSH1 0x1 ADD SWAP2 POP POP PUSH2 0x656 JUMP JUMPDEST POP POP POP JUMP JUMPDEST PUSH1 0x40 MLOAD DUP1 PUSH1 0x60 ADD PUSH1 0x40 MSTORE DUP1 PUSH0 DUP2 MSTORE PUSH1 0x20 ADD PUSH1 0x60 DUP2 MSTORE PUSH1 0x20 ADD PUSH0 ISZERO ISZERO DUP2 MSTORE POP SWAP1 JUMP JUMPDEST PUSH0 PUSH1 0x40 MLOAD SWAP1 POP SWAP1 JUMP JUMPDEST PUSH0 DUP1 REVERT JUMPDEST PUSH0 DUP1 REVERT JUMPDEST PUSH0 DUP2 SWAP1 POP SWAP2 SWAP1 POP JUMP JUMPDEST PUSH2 0x732 DUP2 PUSH2 0x720 JUMP JUMPDEST DUP2 EQ PUSH2 0x73C JUMPI PUSH0 DUP1 REVERT JUMPDEST POP JUMP JUMPDEST PUSH0 DUP2 CALLDATALOAD SWAP1 POP PUSH2 0x74D DUP2 PUSH2 0x729 JUMP JUMPDEST SWAP3 SWAP2 POP POP JUMP JUMPDEST PUSH0 DUP1 REVERT JUMPDEST PUSH0 DUP1 REVERT JUMPDEST PUSH0 PUSH1 0x1F NOT PUSH1 0x1F DUP4 ADD AND SWAP1 POP SWAP2 SWAP1 POP JUMP JUMPDEST PUSH32 0x4E487B7100000000000000000000000000000000000000000000000000000000 PUSH0 MSTORE PUSH1 0x41 PUSH1 0x4 MSTORE PUSH1 0x24 PUSH0 REVERT JUMPDEST PUSH2 0x7A1 DUP3 PUSH2 0x75B JUMP JUMPDEST DUP2 ADD DUP2 DUP2 LT PUSH8 0xFFFFFFFFFFFFFFFF DUP3 GT OR ISZERO PUSH2 0x7C0 JUMPI PUSH2 0x7BF PUSH2 0x76B JUMP JUMPDEST JUMPDEST DUP1 PUSH1 0x40 MSTORE POP POP POP JUMP JUMPDEST PUSH0 PUSH2 0x7D2 PUSH2 0x70F JUMP JUMPDEST SWAP1 POP PUSH2 0x7DE DUP3 DUP3 PUSH2 0x798 JUMP JUMPDEST SWAP2 SWAP1 POP JUMP JUMPDEST PUSH0 PUSH8 0xFFFFFFFFFFFFFFFF DUP3 GT ISZERO PUSH2 0x7FD JUMPI PUSH2 0x7FC PUSH2 0x76B JUMP JUMPDEST JUMPDEST PUSH2 0x806 DUP3 PUSH2 0x75B JUMP JUMPDEST SWAP1 POP PUSH1 0x20 DUP2 ADD SWAP1 POP SWAP2 SWAP1 POP JUMP JUMPDEST DUP3 DUP2 DUP4 CALLDATACOPY PUSH0 DUP4 DUP4 ADD MSTORE POP POP POP JUMP JUMPDEST PUSH0 PUSH2 0x833 PUSH2 0x82E DUP5 PUSH2 0x7E3 JUMP JUMPDEST PUSH2 0x7C9 JUMP JUMPDEST SWAP1 POP DUP3 DUP2 MSTORE PUSH1 0x20 DUP2 ADD DUP5 DUP5 DUP5 ADD GT ISZERO PUSH2 0x84F JUMPI PUSH2 0x84E PUSH2 0x757 JUMP JUMPDEST JUMPDEST PUSH2 0x85A DUP5 DUP3 DUP6 PUSH2 0x813 JUMP JUMPDEST POP SWAP4 SWAP3 POP POP POP JUMP JUMPDEST PUSH0 DUP3 PUSH1 0x1F DUP4 ADD SLT PUSH2 0x876 JUMPI PUSH2 0x875 PUSH2 0x753 JUMP JUMPDEST JUMPDEST DUP2 CALLDATALOAD PUSH2 0x886 DUP5 DUP3 PUSH1 0x20 DUP7 ADD PUSH2 0x821 JUMP JUMPDEST SWAP2 POP POP SWAP3 SWAP2 POP POP JUMP JUMPDEST PUSH0 DUP1 PUSH1 0x40 DUP4 DUP6 SUB SLT ISZERO PUSH2 0x8A5 JUMPI PUSH2 0x8A4 PUSH2 0x718 JUMP JUMPDEST JUMPDEST PUSH0 PUSH2 0x8B2 DUP6 DUP3 DUP7 ADD PUSH2 0x73F JUMP JUMPDEST SWAP3 POP POP PUSH1 0x20 DUP4 ADD CALLDATALOAD PUSH8 0xFFFFFFFFFFFFFFFF DUP2 GT ISZERO PUSH2 0x8D3 JUMPI PUSH2 0x8D2 PUSH2 0x71C JUMP JUMPDEST JUMPDEST PUSH2 0x8DF DUP6 DUP3 DUP7 ADD PUSH2 0x862 JUMP JUMPDEST SWAP2 POP POP SWAP3 POP SWAP3 SWAP1 POP JUMP JUMPDEST PUSH0 PUSH1 0x20 DUP3 DUP5 SUB SLT ISZERO PUSH2 0x8FE JUMPI PUSH2 0x8FD PUSH2 0x718 JUMP JUMPDEST JUMPDEST PUSH0 PUSH2 0x90B DUP5 DUP3 DUP6 ADD PUSH2 0x73F JUMP JUMPDEST SWAP2 POP POP SWAP3 SWAP2 POP POP JUMP JUMPDEST PUSH0 DUP2 MLOAD SWAP1 POP SWAP2 SWAP1 POP JUMP JUMPDEST PUSH0 DUP3 DUP3 MSTORE PUSH1 0x20 DUP3 ADD SWAP1 POP SWAP3 SWAP2 POP POP JUMP JUMPDEST PUSH0 JUMPDEST DUP4 DUP2 LT ISZERO PUSH2 0x94B JUMPI DUP1 DUP3 ADD MLOAD DUP2 DUP5 ADD MSTORE PUSH1 0x20 DUP2 ADD SWAP1 POP PUSH2 0x930 JUMP JUMPDEST PUSH0 DUP5 DUP5 ADD MSTORE POP POP POP POP JUMP JUMPDEST PUSH0 PUSH2 0x960 DUP3 PUSH2 0x914 JUMP JUMPDEST PUSH2 0x96A DUP2 DUP6 PUSH2 0x91E JUMP JUMPDEST SWAP4 POP PUSH2 0x97A DUP2 DUP6 PUSH1 0x20 DUP7 ADD PUSH2 0x92E JUMP JUMPDEST PUSH2 0x983 DUP2 PUSH2 0x75B JUMP JUMPDEST DUP5 ADD SWAP2 POP POP SWAP3 SWAP2 POP POP JUMP JUMPDEST PUSH0 DUP2 ISZERO ISZERO SWAP1 POP SWAP2 SWAP1 POP JUMP JUMPDEST PUSH2 0x9A2 DUP2 PUSH2 0x98E JUMP JUMPDEST DUP3 MSTORE POP POP JUMP JUMPDEST PUSH0 PUSH1 0x40 DUP3 ADD SWAP1 POP DUP2 DUP2 SUB PUSH0 DUP4 ADD MSTORE PUSH2 0x9C0 DUP2 DUP6 PUSH2 0x956 JUMP JUMPDEST SWAP1 POP PUSH2 0x9CF PUSH1 0x20 DUP4 ADD DUP5 PUSH2 0x999 JUMP JUMPDEST SWAP4 SWAP3 POP POP POP JUMP JUMPDEST PUSH2 0x9DF DUP2 PUSH2 0x98E JUMP JUMPDEST DUP2 EQ PUSH2 0x9E9 JUMPI PUSH0 DUP1 REVERT JUMPDEST POP JUMP JUMPDEST PUSH0 DUP2 CALLDATALOAD SWAP1 POP PUSH2 0x9FA DUP2 PUSH2 0x9D6 JUMP JUMPDEST SWAP3 SWAP2 POP POP JUMP JUMPDEST PUSH0 DUP1 PUSH1 0x40 DUP4 DUP6 SUB SLT ISZERO PUSH2 0xA16 JUMPI PUSH2 0xA15 PUSH2 0x718 JUMP JUMPDEST JUMPDEST PUSH0 PUSH2 0xA23 DUP6 DUP3 DUP7 ADD PUSH2 0x73F JUMP JUMPDEST SWAP3 POP POP PUSH1 0x20 PUSH2 0xA34 DUP6 DUP3 DUP7 ADD PUSH2 0x9EC JUMP JUMPDEST SWAP2 POP POP SWAP3 POP SWAP3 SWAP1 POP JUMP JUMPDEST PUSH2 0xA47 DUP2 PUSH2 0x720 JUMP JUMPDEST DUP3 MSTORE POP POP JUMP JUMPDEST PUSH0 PUSH1 0x60 DUP3 ADD SWAP1 POP PUSH2 0xA60 PUSH0 DUP4 ADD DUP7 PUSH2 0xA3E JUMP JUMPDEST DUP2 DUP2 SUB PUSH1 0x20 DUP4 ADD MSTORE PUSH2 0xA72 DUP2 DUP6 PUSH2 0x956 JUMP JUMPDEST SWAP1 POP PUSH2 0xA81 PUSH1 0x40 DUP4 ADD DUP5 PUSH2 0x999 JUMP JUMPDEST SWAP5 SWAP4 POP POP POP POP JUMP JUMPDEST PUSH0 PUSH1 0x20 DUP3 DUP5 SUB SLT ISZERO PUSH2 0xA9E JUMPI PUSH2 0xA9D PUSH2 0x718 JUMP JUMPDEST JUMPDEST PUSH0 DUP3 ADD CALLDATALOAD PUSH8 0xFFFFFFFFFFFFFFFF DUP2 GT ISZERO PUSH2 0xABB JUMPI PUSH2 0xABA PUSH2 0x71C JUMP JUMPDEST JUMPDEST PUSH2 0xAC7 DUP5 DUP3 DUP6 ADD PUSH2 0x862 JUMP JUMPDEST SWAP2 POP POP SWAP3 SWAP2 POP POP JUMP JUMPDEST PUSH32 0x4E487B7100000000000000000000000000000000000000000000000000000000 PUSH0 MSTORE PUSH1 0x32 PUSH1 0x4 MSTORE PUSH1 0x24 PUSH0 REVERT JUMPDEST PUSH32 0x4E487B7100000000000000000000000000000000000000000000000000000000 PUSH0 MSTORE PUSH1 0x22 PUSH1 0x4 MSTORE PUSH1 0x24 PUSH0 REVERT JUMPDEST PUSH0 PUSH1 0x2 DUP3 DIV SWAP1 POP PUSH1 0x1 DUP3 AND DUP1 PUSH2 0xB41 JUMPI PUSH1 0x7F DUP3 AND SWAP2 POP JUMPDEST PUSH1 0x20 DUP3 LT DUP2 SUB PUSH2 0xB54 JUMPI PUSH2 0xB53 PUSH2 0xAFD JUMP JUMPDEST JUMPDEST POP SWAP2 SWAP1 POP JUMP JUMPDEST PUSH0 DUP2 SWAP1 POP DUP2 PUSH0 MSTORE PUSH1 0x20 PUSH0 KECCAK256 SWAP1 POP SWAP2 SWAP1 POP JUMP JUMPDEST PUSH0 PUSH1 0x20 PUSH1 0x1F DUP4 ADD DIV SWAP1 POP SWAP2 SWAP1 POP JUMP JUMPDEST PUSH0 DUP3 DUP3 SHL SWAP1 POP SWAP3 SWAP2 POP POP JUMP JUMPDEST PUSH0 PUSH1 0x8 DUP4 MUL PUSH2 0xBB6 PUSH32 0xFFFFFFFFFFFFFFFFFFFFFFFFFFFFFFFFFFFFFFFFFFFFFFFFFFFFFFFFFFFFFFFF DUP3 PUSH2 0xB7B JUMP JUMPDEST PUSH2 0xBC0 DUP7 DUP4 PUSH2 0xB7B JUMP JUMPDEST SWAP6 POP DUP1 NOT DUP5 AND SWAP4 POP DUP1 DUP7 AND DUP5 OR SWAP3 POP POP POP SWAP4 SWAP3 POP POP POP JUMP JUMPDEST PUSH0 DUP2 SWAP1 POP SWAP2 SWAP1 POP JUMP JUMPDEST PUSH0 PUSH2 0xBFB PUSH2 0xBF6 PUSH2 0xBF1 DUP5 PUSH2 0x720 JUMP JUMPDEST PUSH2 0xBD8 JUMP JUMPDEST PUSH2 0x720 JUMP JUMPDEST SWAP1 POP SWAP2 SWAP1 POP JUMP JUMPDEST PUSH0 DUP2 SWAP1 POP SWAP2 SWAP1 POP JUMP JUMPDEST PUSH2 0xC14 DUP4 PUSH2 0xBE1 JUMP JUMPDEST PUSH2 0xC28 PUSH2 0xC20 DUP3 PUSH2 0xC02 JUMP JUMPDEST DUP5 DUP5 SLOAD PUSH2 0xB87 JUMP JUMPDEST DUP3 SSTORE POP POP POP POP JUMP JUMPDEST PUSH0 SWAP1 JUMP JUMPDEST PUSH2 0xC3C PUSH2 0xC30 JUMP JUMPDEST PUSH2 0xC47 DUP2 DUP5 DUP5 PUSH2 0xC0B JUMP JUMPDEST POP POP POP JUMP JUMPDEST JUMPDEST DUP2 DUP2 LT ISZERO PUSH2 0xC6A JUMPI PUSH2 0xC5F PUSH0 DUP3 PUSH2 0xC34 JUMP JUMPDEST PUSH1 0x1 DUP2 ADD SWAP1 POP PUSH2 0xC4D JUMP JUMPDEST POP POP JUMP JUMPDEST PUSH1 0x1F DUP3 GT ISZERO PUSH2 0xCAF JUMPI PUSH2 0xC80 DUP2 PUSH2 0xB5A JUMP JUMPDEST PUSH2 0xC89 DUP5 PUSH2 0xB6C JUMP JUMPDEST DUP2 ADD PUSH1 0x20 DUP6 LT ISZERO PUSH2 0xC98 JUMPI DUP2 SWAP1 POP JUMPDEST PUSH2 0xCAC PUSH2 0xCA4 DUP6 PUSH2 0xB6C JUMP JUMPDEST DUP4 ADD DUP3 PUSH2 0xC4C JUMP JUMPDEST POP POP JUMPDEST POP POP POP JUMP JUMPDEST PUSH0 DUP3 DUP3 SHR SWAP1 POP SWAP3 SWAP2 POP POP JUMP JUMPDEST PUSH0 PUSH2 0xCCF PUSH0 NOT DUP5 PUSH1 0x8 MUL PUSH2 0xCB4 JUMP JUMPDEST NOT DUP1 DUP4 AND SWAP2 POP POP SWAP3 SWAP2 POP POP JUMP JUMPDEST PUSH0 PUSH2 0xCE7 DUP4 DUP4 PUSH2 0xCC0 JUMP JUMPDEST SWAP2 POP DUP3 PUSH1 0x2 MUL DUP3 OR SWAP1 POP SWAP3 SWAP2 POP POP JUMP JUMPDEST PUSH2 0xD00 DUP3 PUSH2 0x914 JUMP JUMPDEST PUSH8 0xFFFFFFFFFFFFFFFF DUP2 GT ISZERO PUSH2 0xD19 JUMPI PUSH2 0xD18 PUSH2 0x76B JUMP JUMPDEST JUMPDEST PUSH2 0xD23 DUP3 SLOAD PUSH2 0xB2A JUMP JUMPDEST PUSH2 0xD2E DUP3 DUP3 DUP6 PUSH2 0xC6E JUMP JUMPDEST PUSH0 PUSH1 0x20 SWAP1 POP PUSH1 0x1F DUP4 GT PUSH1 0x1 DUP2 EQ PUSH2 0xD5F JUMPI PUSH0 DUP5 ISZERO PUSH2 0xD4D JUMPI DUP3 DUP8 ADD MLOAD SWAP1 POP JUMPDEST PUSH2 0xD57 DUP6 DUP3 PUSH2 0xCDC JUMP JUMPDEST DUP7 SSTORE POP PUSH2 0xDBE JUMP JUMPDEST PUSH1 0x1F NOT DUP5 AND PUSH2 0xD6D DUP7 PUSH2 0xB5A JUMP JUMPDEST PUSH0 JUMPDEST DUP3 DUP2 LT ISZERO PUSH2 0xD94 JUMPI DUP5 DUP10 ADD MLOAD DUP3 SSTORE PUSH1 0x1 DUP3 ADD SWAP2 POP PUSH1 0x20 DUP6 ADD SWAP5 POP PUSH1 0x20 DUP2 ADD SWAP1 POP PUSH2 0xD6F JUMP JUMPDEST DUP7 DUP4 LT ISZERO PUSH2 0xDB1 JUMPI DUP5 DUP10 ADD MLOAD PUSH2 0xDAD PUSH1 0x1F DUP10 AND DUP3 PUSH2 0xCC0 JUMP JUMPDEST DUP4 SSTORE POP JUMPDEST PUSH1 0x1 PUSH1 0x2 DUP9 MUL ADD DUP9 SSTORE POP POP POP JUMPDEST POP POP POP POP POP POP JUMP JUMPDEST PUSH32 0x4E487B7100000000000000000000000000000000000000000000000000000000 PUSH0 MSTORE PUSH1 0x11 PUSH1 0x4 MSTORE PUSH1 0x24 PUSH0 REVERT JUMPDEST PUSH0 PUSH2 0xDFD DUP3 PUSH2 0x720 JUMP JUMPDEST SWAP2 POP PUSH32 0xFFFFFFFFFFFFFFFFFFFFFFFFFFFFFFFFFFFFFFFFFFFFFFFFFFFFFFFFFFFFFFFF DUP3 SUB PUSH2 0xE2F JUMPI PUSH2 0xE2E PUSH2 0xDC6 JUMP JUMPDEST JUMPDEST PUSH1 0x1 DUP3 ADD SWAP1 POP SWAP2 SWAP1 POP JUMP INVALID LOG2 PUSH5 0x6970667358 0x22 SLT KECCAK256 0x4C PUSH26 0x8F3FF7A7BA8C446985570580E4BD97B0E7358F59E070AB87D619 KECCAK256 MUL PUSH15 0x1D64736F6C63430008180033000000 "
				},
				"gasEstimates": {
					"creation": {
						"codeDepositCost": "739200",
						"executionCost": "771",
						"totalCost": "739971"
					},
					"external": {
						"create(string)": "infinite",
						"get1(uint256)": "infinite",
						"get2(uint256)": "infinite",
						"list(uint256)": "infinite",
						"modiName1(uint256,string)": "infinite",
						"modiStatus1(uint256,bool)": "infinite",
						"modiStatus2(uint256)": "infinite"
					}
				},
				"methodIdentifiers": {
					"create(string)": "b6a46b3b",
					"get1(uint256)": "9c117f0f",
					"get2(uint256)": "31184dc3",
					"list(uint256)": "80c9419e",
					"modiName1(uint256,string)": "1fbb5bc5",
					"modiStatus1(uint256,bool)": "4112a18e",
					"modiStatus2(uint256)": "d511b4be"
				}
			},
			"storageLayout": {
				"storage": [
					{
						"astId": 13,
						"contract": "contracts/Demo12.sol:ToDoList",
						"label": "list",
						"offset": 0,
						"slot": "0",
						"type": "t_array(t_struct(Todo)9_storage)dyn_storage"
					},
					{
						"astId": 15,
						"contract": "contracts/Demo12.sol:ToDoList",
						"label": "index",
						"offset": 0,
						"slot": "1",
						"type": "t_uint256"
					}
				],
				"types": {
					"t_array(t_struct(Todo)9_storage)dyn_storage": {
						"base": "t_struct(Todo)9_storage",
						"encoding": "dynamic_array",
						"label": "struct ToDoList.Todo[]",
						"numberOfBytes": "32"
					},
					"t_bool": {
						"encoding": "inplace",
						"label": "bool",
						"numberOfBytes": "1"
					},
					"t_string_storage": {
						"encoding": "bytes",
						"label": "string",
						"numberOfBytes": "32"
					},
					"t_struct(Todo)9_storage": {
						"encoding": "inplace",
						"label": "struct ToDoList.Todo",
						"members": [
							{
								"astId": 4,
								"contract": "contracts/Demo12.sol:ToDoList",
								"label": "index",
								"offset": 0,
								"slot": "0",
								"type": "t_uint256"
							},
							{
								"astId": 6,
								"contract": "contracts/Demo12.sol:ToDoList",
								"label": "name",
								"offset": 0,
								"slot": "1",
								"type": "t_string_storage"
							},
							{
								"astId": 8,
								"contract": "contracts/Demo12.sol:ToDoList",
								"label": "isComplete",
								"offset": 0,
								"slot": "2",
								"type": "t_bool"
							}
						],
						"numberOfBytes": "96"
					},
					"t_uint256": {
						"encoding": "inplace",
						"label": "uint256",
						"numberOfBytes": "32"
					}
				}
			},
			"userdoc": {
				"kind": "user",
				"methods": {},
				"notice": "index 怎么实现？",
				"version": 1
			}
		}
	}
}