{
	"contracts/Test1.sol": {
		"Test": {
			"abi": [
				{
					"inputs": [
						{
							"internalType": "bytes32",
							"name": "data",
							"type": "bytes32"
						}
					],
					"name": "getDateFromLocal",
					"outputs": [
						{
							"internalType": "uint256",
							"name": "b",
							"type": "uint256"
						}
					],
					"stateMutability": "view",
					"type": "function"
				},
				{
					"inputs": [
						{
							"internalType": "address",
							"name": "ads1",
							"type": "address"
						},
						{
							"internalType": "address",
							"name": "ads2",
							"type": "address"
						},
						{
							"internalType": "uint256",
							"name": "slot",
							"type": "uint256"
						}
					],
					"name": "mapLocation",
					"outputs": [
						{
							"internalType": "bytes32",
							"name": "local2",
							"type": "bytes32"
						}
					],
					"stateMutability": "pure",
					"type": "function"
				},
				{
					"inputs": [],
					"name": "set",
					"outputs": [],
					"stateMutability": "nonpayable",
					"type": "function"
				}
			],
			"devdoc": {
				"kind": "dev",
				"methods": {},
				"version": 1
			},
			"evm": {
				"assembly": "    /* \"contracts/Test1.sol\":61:960  contract Test{... */\n  mstore(0x40, 0x80)\n  callvalue\n  dup1\n  iszero\n  tag_1\n  jumpi\n  0x00\n  dup1\n  revert\ntag_1:\n  pop\n  dataSize(sub_0)\n  dup1\n  dataOffset(sub_0)\n  0x00\n  codecopy\n  0x00\n  return\nstop\n\nsub_0: assembly {\n        /* \"contracts/Test1.sol\":61:960  contract Test{... */\n      mstore(0x40, 0x80)\n      callvalue\n      dup1\n      iszero\n      tag_1\n      jumpi\n      0x00\n      dup1\n      revert\n    tag_1:\n      pop\n      jumpi(tag_2, lt(calldatasize, 0x04))\n      shr(0xe0, calldataload(0x00))\n      dup1\n      0x86fa04c9\n      eq\n      tag_3\n      jumpi\n      dup1\n      0xb8e010de\n      eq\n      tag_4\n      jumpi\n      dup1\n      0xdd8be437\n      eq\n      tag_5\n      jumpi\n    tag_2:\n      0x00\n      dup1\n      revert\n        /* \"contracts/Test1.sol\":403:582  function getDateFromLocal(bytes32 data) public view returns(uint256 b){... */\n    tag_3:\n      tag_6\n      0x04\n      dup1\n      calldatasize\n      sub\n      dup2\n      add\n      swap1\n      tag_7\n      swap2\n      swap1\n      tag_8\n      jump\t// in\n    tag_7:\n      tag_9\n      jump\t// in\n    tag_6:\n      mload(0x40)\n      tag_10\n      swap2\n      swap1\n      tag_11\n      jump\t// in\n    tag_10:\n      mload(0x40)\n      dup1\n      swap2\n      sub\n      swap1\n      return\n        /* \"contracts/Test1.sol\":143:389  function set() public {... */\n    tag_4:\n      tag_12\n      tag_13\n      jump\t// in\n    tag_12:\n      stop\n        /* \"contracts/Test1.sol\":593:957  function mapLocation(address ads1, address ads2, uint256 slot) public pure returns (bytes32 local2) {... */\n    tag_5:\n      tag_14\n      0x04\n      dup1\n      calldatasize\n      sub\n      dup2\n      add\n      swap1\n      tag_15\n      swap2\n      swap1\n      tag_16\n      jump\t// in\n    tag_15:\n      tag_17\n      jump\t// in\n    tag_14:\n      mload(0x40)\n      tag_18\n      swap2\n      swap1\n      tag_19\n      jump\t// in\n    tag_18:\n      mload(0x40)\n      dup1\n      swap2\n      sub\n      swap1\n      return\n        /* \"contracts/Test1.sol\":403:582  function getDateFromLocal(bytes32 data) public view returns(uint256 b){... */\n    tag_9:\n        /* \"contracts/Test1.sol\":463:472  uint256 b */\n      0x00\n        /* \"contracts/Test1.sol\":559:563  data */\n      dup2\n        /* \"contracts/Test1.sol\":553:564  sload(data) */\n      sload\n        /* \"contracts/Test1.sol\":548:564  b := sload(data) */\n      swap1\n      pop\n        /* \"contracts/Test1.sol\":403:582  function getDateFromLocal(bytes32 data) public view returns(uint256 b){... */\n      swap2\n      swap1\n      pop\n      jump\t// out\n        /* \"contracts/Test1.sol\":143:389  function set() public {... */\n    tag_13:\n        /* \"contracts/Test1.sol\":270:273  100 */\n      0x64\n        /* \"contracts/Test1.sol\":176:179  map */\n      0x00\n        /* \"contracts/Test1.sol\":176:223  map[0x5B38Da6a701c568545dCfcB03FcB875f56beddC4] */\n      dup1\n        /* \"contracts/Test1.sol\":180:222  0x5B38Da6a701c568545dCfcB03FcB875f56beddC4 */\n      0x5b38da6a701c568545dcfcb03fcb875f56beddc4\n        /* \"contracts/Test1.sol\":176:223  map[0x5B38Da6a701c568545dCfcB03FcB875f56beddC4] */\n      0xffffffffffffffffffffffffffffffffffffffff\n      and\n      0xffffffffffffffffffffffffffffffffffffffff\n      and\n      dup2\n      mstore\n      0x20\n      add\n      swap1\n      dup2\n      mstore\n      0x20\n      add\n      0x00\n      keccak256\n        /* \"contracts/Test1.sol\":176:267  map[0x5B38Da6a701c568545dCfcB03FcB875f56beddC4][0xAb8483F64d9C6d1EcF9b849Ae677dD3315835cb2] */\n      0x00\n        /* \"contracts/Test1.sol\":224:266  0xAb8483F64d9C6d1EcF9b849Ae677dD3315835cb2 */\n      0xab8483f64d9c6d1ecf9b849ae677dd3315835cb2\n        /* \"contracts/Test1.sol\":176:267  map[0x5B38Da6a701c568545dCfcB03FcB875f56beddC4][0xAb8483F64d9C6d1EcF9b849Ae677dD3315835cb2] */\n      0xffffffffffffffffffffffffffffffffffffffff\n      and\n      0xffffffffffffffffffffffffffffffffffffffff\n      and\n      dup2\n      mstore\n      0x20\n      add\n      swap1\n      dup2\n      mstore\n      0x20\n      add\n      0x00\n      keccak256\n        /* \"contracts/Test1.sol\":176:273  map[0x5B38Da6a701c568545dCfcB03FcB875f56beddC4][0xAb8483F64d9C6d1EcF9b849Ae677dD3315835cb2] = 100 */\n      dup2\n      swap1\n      sstore\n      pop\n        /* \"contracts/Test1.sol\":378:381  101 */\n      0x65\n        /* \"contracts/Test1.sol\":284:287  map */\n      0x00\n        /* \"contracts/Test1.sol\":284:331  map[0x4B20993Bc481177ec7E8f571ceCaE8A9e22C02db] */\n      dup1\n        /* \"contracts/Test1.sol\":288:330  0x4B20993Bc481177ec7E8f571ceCaE8A9e22C02db */\n      0x4b20993bc481177ec7e8f571cecae8a9e22c02db\n        /* \"contracts/Test1.sol\":284:331  map[0x4B20993Bc481177ec7E8f571ceCaE8A9e22C02db] */\n      0xffffffffffffffffffffffffffffffffffffffff\n      and\n      0xffffffffffffffffffffffffffffffffffffffff\n      and\n      dup2\n      mstore\n      0x20\n      add\n      swap1\n      dup2\n      mstore\n      0x20\n      add\n      0x00\n      keccak256\n        /* \"contracts/Test1.sol\":284:375  map[0x4B20993Bc481177ec7E8f571ceCaE8A9e22C02db][0x78731D3Ca6b7E34aC0F824c42a7cC18A495cabaB] */\n      0x00\n        /* \"contracts/Test1.sol\":332:374  0x78731D3Ca6b7E34aC0F824c42a7cC18A495cabaB */\n      0x78731d3ca6b7e34ac0f824c42a7cc18a495cabab\n        /* \"contracts/Test1.sol\":284:375  map[0x4B20993Bc481177ec7E8f571ceCaE8A9e22C02db][0x78731D3Ca6b7E34aC0F824c42a7cC18A495cabaB] */\n      0xffffffffffffffffffffffffffffffffffffffff\n      and\n      0xffffffffffffffffffffffffffffffffffffffff\n      and\n      dup2\n      mstore\n      0x20\n      add\n      swap1\n      dup2\n      mstore\n      0x20\n      add\n      0x00\n      keccak256\n        /* \"contracts/Test1.sol\":284:381  map[0x4B20993Bc481177ec7E8f571ceCaE8A9e22C02db][0x78731D3Ca6b7E34aC0F824c42a7cC18A495cabaB] = 101 */\n      dup2\n      swap1\n      sstore\n      pop\n        /* \"contracts/Test1.sol\":143:389  function set() public {... */\n      jump\t// out\n        /* \"contracts/Test1.sol\":593:957  function mapLocation(address ads1, address ads2, uint256 slot) public pure returns (bytes32 local2) {... */\n    tag_17:\n        /* \"contracts/Test1.sol\":677:691  bytes32 local2 */\n      0x00\n        /* \"contracts/Test1.sol\":714:728  bytes32 local1 */\n      dup1\n        /* \"contracts/Test1.sol\":774:778  ads1 */\n      dup5\n        /* \"contracts/Test1.sol\":758:780  uint256(uint160(ads1)) */\n      0xffffffffffffffffffffffffffffffffffffffff\n      and\n        /* \"contracts/Test1.sol\":782:786  slot */\n      dup4\n        /* \"contracts/Test1.sol\":741:787  abi.encodePacked(uint256(uint160(ads1)), slot) */\n      add(0x20, mload(0x40))\n      tag_23\n      swap3\n      swap2\n      swap1\n      tag_24\n      jump\t// in\n    tag_23:\n      mload(0x40)\n      0x20\n      dup2\n      dup4\n      sub\n      sub\n      dup2\n      mstore\n      swap1\n      0x40\n      mstore\n        /* \"contracts/Test1.sol\":731:788  keccak256(abi.encodePacked(uint256(uint160(ads1)), slot)) */\n      dup1\n      mload\n      swap1\n      0x20\n      add\n      keccak256\n        /* \"contracts/Test1.sol\":714:788  bytes32 local1 = keccak256(abi.encodePacked(uint256(uint160(ads1)), slot)) */\n      swap1\n      pop\n        /* \"contracts/Test1.sol\":853:857  ads2 */\n      dup4\n        /* \"contracts/Test1.sol\":837:859  uint256(uint160(ads2)) */\n      0xffffffffffffffffffffffffffffffffffffffff\n      and\n        /* \"contracts/Test1.sol\":861:867  local1 */\n      dup2\n        /* \"contracts/Test1.sol\":820:868  abi.encodePacked(uint256(uint160(ads2)), local1) */\n      add(0x20, mload(0x40))\n      tag_25\n      swap3\n      swap2\n      swap1\n      tag_26\n      jump\t// in\n    tag_25:\n      mload(0x40)\n      0x20\n      dup2\n      dup4\n      sub\n      sub\n      dup2\n      mstore\n      swap1\n      0x40\n      mstore\n        /* \"contracts/Test1.sol\":810:869  keccak256(abi.encodePacked(uint256(uint160(ads2)), local1)) */\n      dup1\n      mload\n      swap1\n      0x20\n      add\n      keccak256\n        /* \"contracts/Test1.sol\":801:869  local2 = keccak256(abi.encodePacked(uint256(uint160(ads2)), local1)) */\n      swap2\n      pop\n        /* \"contracts/Test1.sol\":693:957  {... */\n      pop\n        /* \"contracts/Test1.sol\":593:957  function mapLocation(address ads1, address ads2, uint256 slot) public pure returns (bytes32 local2) {... */\n      swap4\n      swap3\n      pop\n      pop\n      pop\n      jump\t// out\n        /* \"#utility.yul\":88:205   */\n    tag_28:\n        /* \"#utility.yul\":197:198   */\n      0x00\n        /* \"#utility.yul\":194:195   */\n      dup1\n        /* \"#utility.yul\":187:199   */\n      revert\n        /* \"#utility.yul\":334:411   */\n    tag_30:\n        /* \"#utility.yul\":371:378   */\n      0x00\n        /* \"#utility.yul\":400:405   */\n      dup2\n        /* \"#utility.yul\":389:405   */\n      swap1\n      pop\n        /* \"#utility.yul\":334:411   */\n      swap2\n      swap1\n      pop\n      jump\t// out\n        /* \"#utility.yul\":417:539   */\n    tag_31:\n        /* \"#utility.yul\":490:514   */\n      tag_52\n        /* \"#utility.yul\":508:513   */\n      dup2\n        /* \"#utility.yul\":490:514   */\n      tag_30\n      jump\t// in\n    tag_52:\n        /* \"#utility.yul\":483:488   */\n      dup2\n        /* \"#utility.yul\":480:515   */\n      eq\n        /* \"#utility.yul\":470:533   */\n      tag_53\n      jumpi\n        /* \"#utility.yul\":529:530   */\n      0x00\n        /* \"#utility.yul\":526:527   */\n      dup1\n        /* \"#utility.yul\":519:531   */\n      revert\n        /* \"#utility.yul\":470:533   */\n    tag_53:\n        /* \"#utility.yul\":417:539   */\n      pop\n      jump\t// out\n        /* \"#utility.yul\":545:684   */\n    tag_32:\n        /* \"#utility.yul\":591:596   */\n      0x00\n        /* \"#utility.yul\":629:635   */\n      dup2\n        /* \"#utility.yul\":616:636   */\n      calldataload\n        /* \"#utility.yul\":607:636   */\n      swap1\n      pop\n        /* \"#utility.yul\":645:678   */\n      tag_55\n        /* \"#utility.yul\":672:677   */\n      dup2\n        /* \"#utility.yul\":645:678   */\n      tag_31\n      jump\t// in\n    tag_55:\n        /* \"#utility.yul\":545:684   */\n      swap3\n      swap2\n      pop\n      pop\n      jump\t// out\n        /* \"#utility.yul\":690:1019   */\n    tag_8:\n        /* \"#utility.yul\":749:755   */\n      0x00\n        /* \"#utility.yul\":798:800   */\n      0x20\n        /* \"#utility.yul\":786:795   */\n      dup3\n        /* \"#utility.yul\":777:784   */\n      dup5\n        /* \"#utility.yul\":773:796   */\n      sub\n        /* \"#utility.yul\":769:801   */\n      slt\n        /* \"#utility.yul\":766:885   */\n      iszero\n      tag_57\n      jumpi\n        /* \"#utility.yul\":804:883   */\n      tag_58\n      tag_28\n      jump\t// in\n    tag_58:\n        /* \"#utility.yul\":766:885   */\n    tag_57:\n        /* \"#utility.yul\":924:925   */\n      0x00\n        /* \"#utility.yul\":949:1002   */\n      tag_59\n        /* \"#utility.yul\":994:1001   */\n      dup5\n        /* \"#utility.yul\":985:991   */\n      dup3\n        /* \"#utility.yul\":974:983   */\n      dup6\n        /* \"#utility.yul\":970:992   */\n      add\n        /* \"#utility.yul\":949:1002   */\n      tag_32\n      jump\t// in\n    tag_59:\n        /* \"#utility.yul\":939:1002   */\n      swap2\n      pop\n        /* \"#utility.yul\":895:1012   */\n      pop\n        /* \"#utility.yul\":690:1019   */\n      swap3\n      swap2\n      pop\n      pop\n      jump\t// out\n        /* \"#utility.yul\":1025:1102   */\n    tag_33:\n        /* \"#utility.yul\":1062:1069   */\n      0x00\n        /* \"#utility.yul\":1091:1096   */\n      dup2\n        /* \"#utility.yul\":1080:1096   */\n      swap1\n      pop\n        /* \"#utility.yul\":1025:1102   */\n      swap2\n      swap1\n      pop\n      jump\t// out\n        /* \"#utility.yul\":1108:1226   */\n    tag_34:\n        /* \"#utility.yul\":1195:1219   */\n      tag_62\n        /* \"#utility.yul\":1213:1218   */\n      dup2\n        /* \"#utility.yul\":1195:1219   */\n      tag_33\n      jump\t// in\n    tag_62:\n        /* \"#utility.yul\":1190:1193   */\n      dup3\n        /* \"#utility.yul\":1183:1220   */\n      mstore\n        /* \"#utility.yul\":1108:1226   */\n      pop\n      pop\n      jump\t// out\n        /* \"#utility.yul\":1232:1454   */\n    tag_11:\n        /* \"#utility.yul\":1325:1329   */\n      0x00\n        /* \"#utility.yul\":1363:1365   */\n      0x20\n        /* \"#utility.yul\":1352:1361   */\n      dup3\n        /* \"#utility.yul\":1348:1366   */\n      add\n        /* \"#utility.yul\":1340:1366   */\n      swap1\n      pop\n        /* \"#utility.yul\":1376:1447   */\n      tag_64\n        /* \"#utility.yul\":1444:1445   */\n      0x00\n        /* \"#utility.yul\":1433:1442   */\n      dup4\n        /* \"#utility.yul\":1429:1446   */\n      add\n        /* \"#utility.yul\":1420:1426   */\n      dup5\n        /* \"#utility.yul\":1376:1447   */\n      tag_34\n      jump\t// in\n    tag_64:\n        /* \"#utility.yul\":1232:1454   */\n      swap3\n      swap2\n      pop\n      pop\n      jump\t// out\n        /* \"#utility.yul\":1460:1586   */\n    tag_35:\n        /* \"#utility.yul\":1497:1504   */\n      0x00\n        /* \"#utility.yul\":1537:1579   */\n      0xffffffffffffffffffffffffffffffffffffffff\n        /* \"#utility.yul\":1530:1535   */\n      dup3\n        /* \"#utility.yul\":1526:1580   */\n      and\n        /* \"#utility.yul\":1515:1580   */\n      swap1\n      pop\n        /* \"#utility.yul\":1460:1586   */\n      swap2\n      swap1\n      pop\n      jump\t// out\n        /* \"#utility.yul\":1592:1688   */\n    tag_36:\n        /* \"#utility.yul\":1629:1636   */\n      0x00\n        /* \"#utility.yul\":1658:1682   */\n      tag_67\n        /* \"#utility.yul\":1676:1681   */\n      dup3\n        /* \"#utility.yul\":1658:1682   */\n      tag_35\n      jump\t// in\n    tag_67:\n        /* \"#utility.yul\":1647:1682   */\n      swap1\n      pop\n        /* \"#utility.yul\":1592:1688   */\n      swap2\n      swap1\n      pop\n      jump\t// out\n        /* \"#utility.yul\":1694:1816   */\n    tag_37:\n        /* \"#utility.yul\":1767:1791   */\n      tag_69\n        /* \"#utility.yul\":1785:1790   */\n      dup2\n        /* \"#utility.yul\":1767:1791   */\n      tag_36\n      jump\t// in\n    tag_69:\n        /* \"#utility.yul\":1760:1765   */\n      dup2\n        /* \"#utility.yul\":1757:1792   */\n      eq\n        /* \"#utility.yul\":1747:1810   */\n      tag_70\n      jumpi\n        /* \"#utility.yul\":1806:1807   */\n      0x00\n        /* \"#utility.yul\":1803:1804   */\n      dup1\n        /* \"#utility.yul\":1796:1808   */\n      revert\n        /* \"#utility.yul\":1747:1810   */\n    tag_70:\n        /* \"#utility.yul\":1694:1816   */\n      pop\n      jump\t// out\n        /* \"#utility.yul\":1822:1961   */\n    tag_38:\n        /* \"#utility.yul\":1868:1873   */\n      0x00\n        /* \"#utility.yul\":1906:1912   */\n      dup2\n        /* \"#utility.yul\":1893:1913   */\n      calldataload\n        /* \"#utility.yul\":1884:1913   */\n      swap1\n      pop\n        /* \"#utility.yul\":1922:1955   */\n      tag_72\n        /* \"#utility.yul\":1949:1954   */\n      dup2\n        /* \"#utility.yul\":1922:1955   */\n      tag_37\n      jump\t// in\n    tag_72:\n        /* \"#utility.yul\":1822:1961   */\n      swap3\n      swap2\n      pop\n      pop\n      jump\t// out\n        /* \"#utility.yul\":1967:2089   */\n    tag_39:\n        /* \"#utility.yul\":2040:2064   */\n      tag_74\n        /* \"#utility.yul\":2058:2063   */\n      dup2\n        /* \"#utility.yul\":2040:2064   */\n      tag_33\n      jump\t// in\n    tag_74:\n        /* \"#utility.yul\":2033:2038   */\n      dup2\n        /* \"#utility.yul\":2030:2065   */\n      eq\n        /* \"#utility.yul\":2020:2083   */\n      tag_75\n      jumpi\n        /* \"#utility.yul\":2079:2080   */\n      0x00\n        /* \"#utility.yul\":2076:2077   */\n      dup1\n        /* \"#utility.yul\":2069:2081   */\n      revert\n        /* \"#utility.yul\":2020:2083   */\n    tag_75:\n        /* \"#utility.yul\":1967:2089   */\n      pop\n      jump\t// out\n        /* \"#utility.yul\":2095:2234   */\n    tag_40:\n        /* \"#utility.yul\":2141:2146   */\n      0x00\n        /* \"#utility.yul\":2179:2185   */\n      dup2\n        /* \"#utility.yul\":2166:2186   */\n      calldataload\n        /* \"#utility.yul\":2157:2186   */\n      swap1\n      pop\n        /* \"#utility.yul\":2195:2228   */\n      tag_77\n        /* \"#utility.yul\":2222:2227   */\n      dup2\n        /* \"#utility.yul\":2195:2228   */\n      tag_39\n      jump\t// in\n    tag_77:\n        /* \"#utility.yul\":2095:2234   */\n      swap3\n      swap2\n      pop\n      pop\n      jump\t// out\n        /* \"#utility.yul\":2240:2859   */\n    tag_16:\n        /* \"#utility.yul\":2317:2323   */\n      0x00\n        /* \"#utility.yul\":2325:2331   */\n      dup1\n        /* \"#utility.yul\":2333:2339   */\n      0x00\n        /* \"#utility.yul\":2382:2384   */\n      0x60\n        /* \"#utility.yul\":2370:2379   */\n      dup5\n        /* \"#utility.yul\":2361:2368   */\n      dup7\n        /* \"#utility.yul\":2357:2380   */\n      sub\n        /* \"#utility.yul\":2353:2385   */\n      slt\n        /* \"#utility.yul\":2350:2469   */\n      iszero\n      tag_79\n      jumpi\n        /* \"#utility.yul\":2388:2467   */\n      tag_80\n      tag_28\n      jump\t// in\n    tag_80:\n        /* \"#utility.yul\":2350:2469   */\n    tag_79:\n        /* \"#utility.yul\":2508:2509   */\n      0x00\n        /* \"#utility.yul\":2533:2586   */\n      tag_81\n        /* \"#utility.yul\":2578:2585   */\n      dup7\n        /* \"#utility.yul\":2569:2575   */\n      dup3\n        /* \"#utility.yul\":2558:2567   */\n      dup8\n        /* \"#utility.yul\":2554:2576   */\n      add\n        /* \"#utility.yul\":2533:2586   */\n      tag_38\n      jump\t// in\n    tag_81:\n        /* \"#utility.yul\":2523:2586   */\n      swap4\n      pop\n        /* \"#utility.yul\":2479:2596   */\n      pop\n        /* \"#utility.yul\":2635:2637   */\n      0x20\n        /* \"#utility.yul\":2661:2714   */\n      tag_82\n        /* \"#utility.yul\":2706:2713   */\n      dup7\n        /* \"#utility.yul\":2697:2703   */\n      dup3\n        /* \"#utility.yul\":2686:2695   */\n      dup8\n        /* \"#utility.yul\":2682:2704   */\n      add\n        /* \"#utility.yul\":2661:2714   */\n      tag_38\n      jump\t// in\n    tag_82:\n        /* \"#utility.yul\":2651:2714   */\n      swap3\n      pop\n        /* \"#utility.yul\":2606:2724   */\n      pop\n        /* \"#utility.yul\":2763:2765   */\n      0x40\n        /* \"#utility.yul\":2789:2842   */\n      tag_83\n        /* \"#utility.yul\":2834:2841   */\n      dup7\n        /* \"#utility.yul\":2825:2831   */\n      dup3\n        /* \"#utility.yul\":2814:2823   */\n      dup8\n        /* \"#utility.yul\":2810:2832   */\n      add\n        /* \"#utility.yul\":2789:2842   */\n      tag_40\n      jump\t// in\n    tag_83:\n        /* \"#utility.yul\":2779:2842   */\n      swap2\n      pop\n        /* \"#utility.yul\":2734:2852   */\n      pop\n        /* \"#utility.yul\":2240:2859   */\n      swap3\n      pop\n      swap3\n      pop\n      swap3\n      jump\t// out\n        /* \"#utility.yul\":2865:2983   */\n    tag_41:\n        /* \"#utility.yul\":2952:2976   */\n      tag_85\n        /* \"#utility.yul\":2970:2975   */\n      dup2\n        /* \"#utility.yul\":2952:2976   */\n      tag_30\n      jump\t// in\n    tag_85:\n        /* \"#utility.yul\":2947:2950   */\n      dup3\n        /* \"#utility.yul\":2940:2977   */\n      mstore\n        /* \"#utility.yul\":2865:2983   */\n      pop\n      pop\n      jump\t// out\n        /* \"#utility.yul\":2989:3211   */\n    tag_19:\n        /* \"#utility.yul\":3082:3086   */\n      0x00\n        /* \"#utility.yul\":3120:3122   */\n      0x20\n        /* \"#utility.yul\":3109:3118   */\n      dup3\n        /* \"#utility.yul\":3105:3123   */\n      add\n        /* \"#utility.yul\":3097:3123   */\n      swap1\n      pop\n        /* \"#utility.yul\":3133:3204   */\n      tag_87\n        /* \"#utility.yul\":3201:3202   */\n      0x00\n        /* \"#utility.yul\":3190:3199   */\n      dup4\n        /* \"#utility.yul\":3186:3203   */\n      add\n        /* \"#utility.yul\":3177:3183   */\n      dup5\n        /* \"#utility.yul\":3133:3204   */\n      tag_41\n      jump\t// in\n    tag_87:\n        /* \"#utility.yul\":2989:3211   */\n      swap3\n      swap2\n      pop\n      pop\n      jump\t// out\n        /* \"#utility.yul\":3217:3296   */\n    tag_42:\n        /* \"#utility.yul\":3256:3263   */\n      0x00\n        /* \"#utility.yul\":3285:3290   */\n      dup2\n        /* \"#utility.yul\":3274:3290   */\n      swap1\n      pop\n        /* \"#utility.yul\":3217:3296   */\n      swap2\n      swap1\n      pop\n      jump\t// out\n        /* \"#utility.yul\":3302:3459   */\n    tag_43:\n        /* \"#utility.yul\":3407:3452   */\n      tag_90\n        /* \"#utility.yul\":3427:3451   */\n      tag_91\n        /* \"#utility.yul\":3445:3450   */\n      dup3\n        /* \"#utility.yul\":3427:3451   */\n      tag_33\n      jump\t// in\n    tag_91:\n        /* \"#utility.yul\":3407:3452   */\n      tag_42\n      jump\t// in\n    tag_90:\n        /* \"#utility.yul\":3402:3405   */\n      dup3\n        /* \"#utility.yul\":3395:3453   */\n      mstore\n        /* \"#utility.yul\":3302:3459   */\n      pop\n      pop\n      jump\t// out\n        /* \"#utility.yul\":3465:3862   */\n    tag_24:\n        /* \"#utility.yul\":3605:3608   */\n      0x00\n        /* \"#utility.yul\":3620:3695   */\n      tag_93\n        /* \"#utility.yul\":3691:3694   */\n      dup3\n        /* \"#utility.yul\":3682:3688   */\n      dup6\n        /* \"#utility.yul\":3620:3695   */\n      tag_43\n      jump\t// in\n    tag_93:\n        /* \"#utility.yul\":3720:3722   */\n      0x20\n        /* \"#utility.yul\":3715:3718   */\n      dup3\n        /* \"#utility.yul\":3711:3723   */\n      add\n        /* \"#utility.yul\":3704:3723   */\n      swap2\n      pop\n        /* \"#utility.yul\":3733:3808   */\n      tag_94\n        /* \"#utility.yul\":3804:3807   */\n      dup3\n        /* \"#utility.yul\":3795:3801   */\n      dup5\n        /* \"#utility.yul\":3733:3808   */\n      tag_43\n      jump\t// in\n    tag_94:\n        /* \"#utility.yul\":3833:3835   */\n      0x20\n        /* \"#utility.yul\":3828:3831   */\n      dup3\n        /* \"#utility.yul\":3824:3836   */\n      add\n        /* \"#utility.yul\":3817:3836   */\n      swap2\n      pop\n        /* \"#utility.yul\":3853:3856   */\n      dup2\n        /* \"#utility.yul\":3846:3856   */\n      swap1\n      pop\n        /* \"#utility.yul\":3465:3862   */\n      swap4\n      swap3\n      pop\n      pop\n      pop\n      jump\t// out\n        /* \"#utility.yul\":3868:3947   */\n    tag_44:\n        /* \"#utility.yul\":3907:3914   */\n      0x00\n        /* \"#utility.yul\":3936:3941   */\n      dup2\n        /* \"#utility.yul\":3925:3941   */\n      swap1\n      pop\n        /* \"#utility.yul\":3868:3947   */\n      swap2\n      swap1\n      pop\n      jump\t// out\n        /* \"#utility.yul\":3953:4110   */\n    tag_45:\n        /* \"#utility.yul\":4058:4103   */\n      tag_97\n        /* \"#utility.yul\":4078:4102   */\n      tag_98\n        /* \"#utility.yul\":4096:4101   */\n      dup3\n        /* \"#utility.yul\":4078:4102   */\n      tag_30\n      jump\t// in\n    tag_98:\n        /* \"#utility.yul\":4058:4103   */\n      tag_44\n      jump\t// in\n    tag_97:\n        /* \"#utility.yul\":4053:4056   */\n      dup3\n        /* \"#utility.yul\":4046:4104   */\n      mstore\n        /* \"#utility.yul\":3953:4110   */\n      pop\n      pop\n      jump\t// out\n        /* \"#utility.yul\":4116:4513   */\n    tag_26:\n        /* \"#utility.yul\":4256:4259   */\n      0x00\n        /* \"#utility.yul\":4271:4346   */\n      tag_100\n        /* \"#utility.yul\":4342:4345   */\n      dup3\n        /* \"#utility.yul\":4333:4339   */\n      dup6\n        /* \"#utility.yul\":4271:4346   */\n      tag_43\n      jump\t// in\n    tag_100:\n        /* \"#utility.yul\":4371:4373   */\n      0x20\n        /* \"#utility.yul\":4366:4369   */\n      dup3\n        /* \"#utility.yul\":4362:4374   */\n      add\n        /* \"#utility.yul\":4355:4374   */\n      swap2\n      pop\n        /* \"#utility.yul\":4384:4459   */\n      tag_101\n        /* \"#utility.yul\":4455:4458   */\n      dup3\n        /* \"#utility.yul\":4446:4452   */\n      dup5\n        /* \"#utility.yul\":4384:4459   */\n      tag_45\n      jump\t// in\n    tag_101:\n        /* \"#utility.yul\":4484:4486   */\n      0x20\n        /* \"#utility.yul\":4479:4482   */\n      dup3\n        /* \"#utility.yul\":4475:4487   */\n      add\n        /* \"#utility.yul\":4468:4487   */\n      swap2\n      pop\n        /* \"#utility.yul\":4504:4507   */\n      dup2\n        /* \"#utility.yul\":4497:4507   */\n      swap1\n      pop\n        /* \"#utility.yul\":4116:4513   */\n      swap4\n      swap3\n      pop\n      pop\n      pop\n      jump\t// out\n\n    auxdata: 0xa26469706673582212206839525ff90b02180e722669dade9b6556198c098e9dda7b47935324d511b98964736f6c63430008160033\n}\n",
				"bytecode": {
					"linkReferences": {},
					"object": "608060405234801561000f575f80fd5b506104ea8061001d5f395ff3fe608060405234801561000f575f80fd5b506004361061003f575f3560e01c806386fa04c914610043578063b8e010de14610073578063dd8be4371461007d575b5f80fd5b61005d600480360381019061005891906102c6565b6100ad565b60405161006a9190610309565b60405180910390f35b61007b6100b7565b005b610097600480360381019061009291906103a6565b610203565b6040516100a49190610405565b60405180910390f35b5f81549050919050565b60645f80735b38da6a701c568545dcfcb03fcb875f56beddc473ffffffffffffffffffffffffffffffffffffffff1673ffffffffffffffffffffffffffffffffffffffff1681526020019081526020015f205f73ab8483f64d9c6d1ecf9b849ae677dd3315835cb273ffffffffffffffffffffffffffffffffffffffff1673ffffffffffffffffffffffffffffffffffffffff1681526020019081526020015f208190555060655f80734b20993bc481177ec7e8f571cecae8a9e22c02db73ffffffffffffffffffffffffffffffffffffffff1673ffffffffffffffffffffffffffffffffffffffff1681526020019081526020015f205f7378731d3ca6b7e34ac0f824c42a7cc18a495cabab73ffffffffffffffffffffffffffffffffffffffff1673ffffffffffffffffffffffffffffffffffffffff1681526020019081526020015f2081905550565b5f808473ffffffffffffffffffffffffffffffffffffffff168360405160200161022e92919061043e565b6040516020818303038152906040528051906020012090508373ffffffffffffffffffffffffffffffffffffffff168160405160200161026f929190610489565b604051602081830303815290604052805190602001209150509392505050565b5f80fd5b5f819050919050565b6102a581610293565b81146102af575f80fd5b50565b5f813590506102c08161029c565b92915050565b5f602082840312156102db576102da61028f565b5b5f6102e8848285016102b2565b91505092915050565b5f819050919050565b610303816102f1565b82525050565b5f60208201905061031c5f8301846102fa565b92915050565b5f73ffffffffffffffffffffffffffffffffffffffff82169050919050565b5f61034b82610322565b9050919050565b61035b81610341565b8114610365575f80fd5b50565b5f8135905061037681610352565b92915050565b610385816102f1565b811461038f575f80fd5b50565b5f813590506103a08161037c565b92915050565b5f805f606084860312156103bd576103bc61028f565b5b5f6103ca86828701610368565b93505060206103db86828701610368565b92505060406103ec86828701610392565b9150509250925092565b6103ff81610293565b82525050565b5f6020820190506104185f8301846103f6565b92915050565b5f819050919050565b610438610433826102f1565b61041e565b82525050565b5f6104498285610427565b6020820191506104598284610427565b6020820191508190509392505050565b5f819050919050565b61048361047e82610293565b610469565b82525050565b5f6104948285610427565b6020820191506104a48284610472565b602082019150819050939250505056fea26469706673582212206839525ff90b02180e722669dade9b6556198c098e9dda7b47935324d511b98964736f6c63430008160033",
					"opcodes": "PUSH1 0x80 PUSH1 0x40 MSTORE CALLVALUE DUP1 ISZERO PUSH2 0xF JUMPI PUSH0 DUP1 REVERT JUMPDEST POP PUSH2 0x4EA DUP1 PUSH2 0x1D PUSH0 CODECOPY PUSH0 RETURN INVALID PUSH1 0x80 PUSH1 0x40 MSTORE CALLVALUE DUP1 ISZERO PUSH2 0xF JUMPI PUSH0 DUP1 REVERT JUMPDEST POP PUSH1 0x4 CALLDATASIZE LT PUSH2 0x3F JUMPI PUSH0 CALLDATALOAD PUSH1 0xE0 SHR DUP1 PUSH4 0x86FA04C9 EQ PUSH2 0x43 JUMPI DUP1 PUSH4 0xB8E010DE EQ PUSH2 0x73 JUMPI DUP1 PUSH4 0xDD8BE437 EQ PUSH2 0x7D JUMPI JUMPDEST PUSH0 DUP1 REVERT JUMPDEST PUSH2 0x5D PUSH1 0x4 DUP1 CALLDATASIZE SUB DUP2 ADD SWAP1 PUSH2 0x58 SWAP2 SWAP1 PUSH2 0x2C6 JUMP JUMPDEST PUSH2 0xAD JUMP JUMPDEST PUSH1 0x40 MLOAD PUSH2 0x6A SWAP2 SWAP1 PUSH2 0x309 JUMP JUMPDEST PUSH1 0x40 MLOAD DUP1 SWAP2 SUB SWAP1 RETURN JUMPDEST PUSH2 0x7B PUSH2 0xB7 JUMP JUMPDEST STOP JUMPDEST PUSH2 0x97 PUSH1 0x4 DUP1 CALLDATASIZE SUB DUP2 ADD SWAP1 PUSH2 0x92 SWAP2 SWAP1 PUSH2 0x3A6 JUMP JUMPDEST PUSH2 0x203 JUMP JUMPDEST PUSH1 0x40 MLOAD PUSH2 0xA4 SWAP2 SWAP1 PUSH2 0x405 JUMP JUMPDEST PUSH1 0x40 MLOAD DUP1 SWAP2 SUB SWAP1 RETURN JUMPDEST PUSH0 DUP2 SLOAD SWAP1 POP SWAP2 SWAP1 POP JUMP JUMPDEST PUSH1 0x64 PUSH0 DUP1 PUSH20 0x5B38DA6A701C568545DCFCB03FCB875F56BEDDC4 PUSH20 0xFFFFFFFFFFFFFFFFFFFFFFFFFFFFFFFFFFFFFFFF AND PUSH20 0xFFFFFFFFFFFFFFFFFFFFFFFFFFFFFFFFFFFFFFFF AND DUP2 MSTORE PUSH1 0x20 ADD SWAP1 DUP2 MSTORE PUSH1 0x20 ADD PUSH0 KECCAK256 PUSH0 PUSH20 0xAB8483F64D9C6D1ECF9B849AE677DD3315835CB2 PUSH20 0xFFFFFFFFFFFFFFFFFFFFFFFFFFFFFFFFFFFFFFFF AND PUSH20 0xFFFFFFFFFFFFFFFFFFFFFFFFFFFFFFFFFFFFFFFF AND DUP2 MSTORE PUSH1 0x20 ADD SWAP1 DUP2 MSTORE PUSH1 0x20 ADD PUSH0 KECCAK256 DUP2 SWAP1 SSTORE POP PUSH1 0x65 PUSH0 DUP1 PUSH20 0x4B20993BC481177EC7E8F571CECAE8A9E22C02DB PUSH20 0xFFFFFFFFFFFFFFFFFFFFFFFFFFFFFFFFFFFFFFFF AND PUSH20 0xFFFFFFFFFFFFFFFFFFFFFFFFFFFFFFFFFFFFFFFF AND DUP2 MSTORE PUSH1 0x20 ADD SWAP1 DUP2 MSTORE PUSH1 0x20 ADD PUSH0 KECCAK256 PUSH0 PUSH20 0x78731D3CA6B7E34AC0F824C42A7CC18A495CABAB PUSH20 0xFFFFFFFFFFFFFFFFFFFFFFFFFFFFFFFFFFFFFFFF AND PUSH20 0xFFFFFFFFFFFFFFFFFFFFFFFFFFFFFFFFFFFFFFFF AND DUP2 MSTORE PUSH1 0x20 ADD SWAP1 DUP2 MSTORE PUSH1 0x20 ADD PUSH0 KECCAK256 DUP2 SWAP1 SSTORE POP JUMP JUMPDEST PUSH0 DUP1 DUP5 PUSH20 0xFFFFFFFFFFFFFFFFFFFFFFFFFFFFFFFFFFFFFFFF AND DUP4 PUSH1 0x40 MLOAD PUSH1 0x20 ADD PUSH2 0x22E SWAP3 SWAP2 SWAP1 PUSH2 0x43E JUMP JUMPDEST PUSH1 0x40 MLOAD PUSH1 0x20 DUP2 DUP4 SUB SUB DUP2 MSTORE SWAP1 PUSH1 0x40 MSTORE DUP1 MLOAD SWAP1 PUSH1 0x20 ADD KECCAK256 SWAP1 POP DUP4 PUSH20 0xFFFFFFFFFFFFFFFFFFFFFFFFFFFFFFFFFFFFFFFF AND DUP2 PUSH1 0x40 MLOAD PUSH1 0x20 ADD PUSH2 0x26F SWAP3 SWAP2 SWAP1 PUSH2 0x489 JUMP JUMPDEST PUSH1 0x40 MLOAD PUSH1 0x20 DUP2 DUP4 SUB SUB DUP2 MSTORE SWAP1 PUSH1 0x40 MSTORE DUP1 MLOAD SWAP1 PUSH1 0x20 ADD KECCAK256 SWAP2 POP POP SWAP4 SWAP3 POP POP POP JUMP JUMPDEST PUSH0 DUP1 REVERT JUMPDEST PUSH0 DUP2 SWAP1 POP SWAP2 SWAP1 POP JUMP JUMPDEST PUSH2 0x2A5 DUP2 PUSH2 0x293 JUMP JUMPDEST DUP2 EQ PUSH2 0x2AF JUMPI PUSH0 DUP1 REVERT JUMPDEST POP JUMP JUMPDEST PUSH0 DUP2 CALLDATALOAD SWAP1 POP PUSH2 0x2C0 DUP2 PUSH2 0x29C JUMP JUMPDEST SWAP3 SWAP2 POP POP JUMP JUMPDEST PUSH0 PUSH1 0x20 DUP3 DUP5 SUB SLT ISZERO PUSH2 0x2DB JUMPI PUSH2 0x2DA PUSH2 0x28F JUMP JUMPDEST JUMPDEST PUSH0 PUSH2 0x2E8 DUP5 DUP3 DUP6 ADD PUSH2 0x2B2 JUMP JUMPDEST SWAP2 POP POP SWAP3 SWAP2 POP POP JUMP JUMPDEST PUSH0 DUP2 SWAP1 POP SWAP2 SWAP1 POP JUMP JUMPDEST PUSH2 0x303 DUP2 PUSH2 0x2F1 JUMP JUMPDEST DUP3 MSTORE POP POP JUMP JUMPDEST PUSH0 PUSH1 0x20 DUP3 ADD SWAP1 POP PUSH2 0x31C PUSH0 DUP4 ADD DUP5 PUSH2 0x2FA JUMP JUMPDEST SWAP3 SWAP2 POP POP JUMP JUMPDEST PUSH0 PUSH20 0xFFFFFFFFFFFFFFFFFFFFFFFFFFFFFFFFFFFFFFFF DUP3 AND SWAP1 POP SWAP2 SWAP1 POP JUMP JUMPDEST PUSH0 PUSH2 0x34B DUP3 PUSH2 0x322 JUMP JUMPDEST SWAP1 POP SWAP2 SWAP1 POP JUMP JUMPDEST PUSH2 0x35B DUP2 PUSH2 0x341 JUMP JUMPDEST DUP2 EQ PUSH2 0x365 JUMPI PUSH0 DUP1 REVERT JUMPDEST POP JUMP JUMPDEST PUSH0 DUP2 CALLDATALOAD SWAP1 POP PUSH2 0x376 DUP2 PUSH2 0x352 JUMP JUMPDEST SWAP3 SWAP2 POP POP JUMP JUMPDEST PUSH2 0x385 DUP2 PUSH2 0x2F1 JUMP JUMPDEST DUP2 EQ PUSH2 0x38F JUMPI PUSH0 DUP1 REVERT JUMPDEST POP JUMP JUMPDEST PUSH0 DUP2 CALLDATALOAD SWAP1 POP PUSH2 0x3A0 DUP2 PUSH2 0x37C JUMP JUMPDEST SWAP3 SWAP2 POP POP JUMP JUMPDEST PUSH0 DUP1 PUSH0 PUSH1 0x60 DUP5 DUP7 SUB SLT ISZERO PUSH2 0x3BD JUMPI PUSH2 0x3BC PUSH2 0x28F JUMP JUMPDEST JUMPDEST PUSH0 PUSH2 0x3CA DUP7 DUP3 DUP8 ADD PUSH2 0x368 JUMP JUMPDEST SWAP4 POP POP PUSH1 0x20 PUSH2 0x3DB DUP7 DUP3 DUP8 ADD PUSH2 0x368 JUMP JUMPDEST SWAP3 POP POP PUSH1 0x40 PUSH2 0x3EC DUP7 DUP3 DUP8 ADD PUSH2 0x392 JUMP JUMPDEST SWAP2 POP POP SWAP3 POP SWAP3 POP SWAP3 JUMP JUMPDEST PUSH2 0x3FF DUP2 PUSH2 0x293 JUMP JUMPDEST DUP3 MSTORE POP POP JUMP JUMPDEST PUSH0 PUSH1 0x20 DUP3 ADD SWAP1 POP PUSH2 0x418 PUSH0 DUP4 ADD DUP5 PUSH2 0x3F6 JUMP JUMPDEST SWAP3 SWAP2 POP POP JUMP JUMPDEST PUSH0 DUP2 SWAP1 POP SWAP2 SWAP1 POP JUMP JUMPDEST PUSH2 0x438 PUSH2 0x433 DUP3 PUSH2 0x2F1 JUMP JUMPDEST PUSH2 0x41E JUMP JUMPDEST DUP3 MSTORE POP POP JUMP JUMPDEST PUSH0 PUSH2 0x449 DUP3 DUP6 PUSH2 0x427 JUMP JUMPDEST PUSH1 0x20 DUP3 ADD SWAP2 POP PUSH2 0x459 DUP3 DUP5 PUSH2 0x427 JUMP JUMPDEST PUSH1 0x20 DUP3 ADD SWAP2 POP DUP2 SWAP1 POP SWAP4 SWAP3 POP POP POP JUMP JUMPDEST PUSH0 DUP2 SWAP1 POP SWAP2 SWAP1 POP JUMP JUMPDEST PUSH2 0x483 PUSH2 0x47E DUP3 PUSH2 0x293 JUMP JUMPDEST PUSH2 0x469 JUMP JUMPDEST DUP3 MSTORE POP POP JUMP JUMPDEST PUSH0 PUSH2 0x494 DUP3 DUP6 PUSH2 0x427 JUMP JUMPDEST PUSH1 0x20 DUP3 ADD SWAP2 POP PUSH2 0x4A4 DUP3 DUP5 PUSH2 0x472 JUMP JUMPDEST PUSH1 0x20 DUP3 ADD SWAP2 POP DUP2 SWAP1 POP SWAP4 SWAP3 POP POP POP JUMP INVALID LOG2 PUSH5 0x6970667358 0x22 SLT KECCAK256 PUSH9 0x39525FF90B02180E72 0x26 PUSH10 0xDADE9B6556198C098E9D 0xDA PUSH28 0x47935324D511B98964736F6C63430008160033000000000000000000 "
				},
				"gasEstimates": {
					"creation": {
						"codeDepositCost": "251600",
						"executionCost": "292",
						"totalCost": "251892"
					},
					"external": {
						"getDateFromLocal(bytes32)": "2671",
						"mapLocation(address,address,uint256)": "infinite",
						"set()": "44723"
					}
				},
				"methodIdentifiers": {
					"getDateFromLocal(bytes32)": "86fa04c9",
					"mapLocation(address,address,uint256)": "dd8be437",
					"set()": "b8e010de"
				}
			},
			"storageLayout": {
				"storage": [
					{
						"astId": 7,
						"contract": "contracts/Test1.sol:Test",
						"label": "map",
						"offset": 0,
						"slot": "0",
						"type": "t_mapping(t_address,t_mapping(t_address,t_uint256))"
					}
				],
				"types": {
					"t_address": {
						"encoding": "inplace",
						"label": "address",
						"numberOfBytes": "20"
					},
					"t_mapping(t_address,t_mapping(t_address,t_uint256))": {
						"encoding": "mapping",
						"key": "t_address",
						"label": "mapping(address => mapping(address => uint256))",
						"numberOfBytes": "32",
						"value": "t_mapping(t_address,t_uint256)"
					},
					"t_mapping(t_address,t_uint256)": {
						"encoding": "mapping",
						"key": "t_address",
						"label": "mapping(address => uint256)",
						"numberOfBytes": "32",
						"value": "t_uint256"
					},
					"t_uint256": {
						"encoding": "inplace",
						"label": "uint256",
						"numberOfBytes": "32"
					}
				}
			},
			"userdoc": {
				"kind": "user",
				"methods": {},
				"version": 1
			}
		}
	}
}