{
	"contracts/selfdestruct.sol": {
		"Demo": {
			"abi": [
				{
					"inputs": [],
					"name": "deposit",
					"outputs": [],
					"stateMutability": "payable",
					"type": "function"
				},
				{
					"inputs": [],
					"name": "get",
					"outputs": [
						{
							"internalType": "uint256",
							"name": "",
							"type": "uint256"
						}
					],
					"stateMutability": "view",
					"type": "function"
				},
				{
					"inputs": [],
					"name": "num",
					"outputs": [
						{
							"internalType": "uint256",
							"name": "",
							"type": "uint256"
						}
					],
					"stateMutability": "view",
					"type": "function"
				},
				{
					"inputs": [],
					"name": "selfDestruct",
					"outputs": [],
					"stateMutability": "nonpayable",
					"type": "function"
				},
				{
					"inputs": [
						{
							"internalType": "uint256",
							"name": "_num",
							"type": "uint256"
						}
					],
					"name": "set",
					"outputs": [],
					"stateMutability": "nonpayable",
					"type": "function"
				}
			],
			"devdoc": {
				"kind": "dev",
				"methods": {},
				"version": 1
			},
			"evm": {
				"assembly": "    /* \"contracts/selfdestruct.sol\":91:434  contract Demo{... */\n  mstore(0x40, 0x80)\n  callvalue\n  dup1\n  iszero\n  tag_1\n  jumpi\n  0x00\n  dup1\n  revert\ntag_1:\n  pop\n  dataSize(sub_0)\n  dup1\n  dataOffset(sub_0)\n  0x00\n  codecopy\n  0x00\n  return\nstop\n\nsub_0: assembly {\n        /* \"contracts/selfdestruct.sol\":91:434  contract Demo{... */\n      mstore(0x40, 0x80)\n      jumpi(tag_1, lt(calldatasize, 0x04))\n      shr(0xe0, calldataload(0x00))\n      dup1\n      0x4e70b1dc\n      eq\n      tag_2\n      jumpi\n      dup1\n      0x60fe47b1\n      eq\n      tag_3\n      jumpi\n      dup1\n      0x6d4ce63c\n      eq\n      tag_4\n      jumpi\n      dup1\n      0x9cb8a26a\n      eq\n      tag_5\n      jumpi\n      dup1\n      0xd0e30db0\n      eq\n      tag_6\n      jumpi\n    tag_1:\n      0x00\n      dup1\n      revert\n        /* \"contracts/selfdestruct.sol\":111:129  uint256 public num */\n    tag_2:\n      callvalue\n      dup1\n      iszero\n      tag_7\n      jumpi\n      0x00\n      dup1\n      revert\n    tag_7:\n      pop\n      tag_8\n      tag_9\n      jump\t// in\n    tag_8:\n      mload(0x40)\n      tag_10\n      swap2\n      swap1\n      tag_11\n      jump\t// in\n    tag_10:\n      mload(0x40)\n      dup1\n      swap2\n      sub\n      swap1\n      return\n        /* \"contracts/selfdestruct.sol\":218:280  function set(uint256 _num) public{... */\n    tag_3:\n      callvalue\n      dup1\n      iszero\n      tag_12\n      jumpi\n      0x00\n      dup1\n      revert\n    tag_12:\n      pop\n      tag_13\n      0x04\n      dup1\n      calldatasize\n      sub\n      dup2\n      add\n      swap1\n      tag_14\n      swap2\n      swap1\n      tag_15\n      jump\t// in\n    tag_14:\n      tag_16\n      jump\t// in\n    tag_13:\n      stop\n        /* \"contracts/selfdestruct.sol\":138:210  function get() public view returns(uint256){... */\n    tag_4:\n      callvalue\n      dup1\n      iszero\n      tag_17\n      jumpi\n      0x00\n      dup1\n      revert\n    tag_17:\n      pop\n      tag_18\n      tag_19\n      jump\t// in\n    tag_18:\n      mload(0x40)\n      tag_20\n      swap2\n      swap1\n      tag_11\n      jump\t// in\n    tag_20:\n      mload(0x40)\n      dup1\n      swap2\n      sub\n      swap1\n      return\n        /* \"contracts/selfdestruct.sol\":288:371  function selfDestruct() public {... */\n    tag_5:\n      callvalue\n      dup1\n      iszero\n      tag_21\n      jumpi\n      0x00\n      dup1\n      revert\n    tag_21:\n      pop\n      tag_22\n      tag_23\n      jump\t// in\n    tag_22:\n      stop\n        /* \"contracts/selfdestruct.sol\":379:431  function deposit() public payable {... */\n    tag_6:\n      tag_24\n      tag_25\n      jump\t// in\n    tag_24:\n      stop\n        /* \"contracts/selfdestruct.sol\":111:129  uint256 public num */\n    tag_9:\n      sload(0x00)\n      dup2\n      jump\t// out\n        /* \"contracts/selfdestruct.sol\":218:280  function set(uint256 _num) public{... */\n    tag_16:\n        /* \"contracts/selfdestruct.sol\":268:272  _num */\n      dup1\n        /* \"contracts/selfdestruct.sol\":262:265  num */\n      0x00\n        /* \"contracts/selfdestruct.sol\":262:272  num = _num */\n      dup2\n      swap1\n      sstore\n      pop\n        /* \"contracts/selfdestruct.sol\":218:280  function set(uint256 _num) public{... */\n      pop\n      jump\t// out\n        /* \"contracts/selfdestruct.sol\":138:210  function get() public view returns(uint256){... */\n    tag_19:\n        /* \"contracts/selfdestruct.sol\":173:180  uint256 */\n      0x00\n        /* \"contracts/selfdestruct.sol\":199:202  num */\n      dup1\n      sload\n        /* \"contracts/selfdestruct.sol\":192:202  return num */\n      swap1\n      pop\n        /* \"contracts/selfdestruct.sol\":138:210  function get() public view returns(uint256){... */\n      swap1\n      jump\t// out\n        /* \"contracts/selfdestruct.sol\":288:371  function selfDestruct() public {... */\n    tag_23:\n        /* \"contracts/selfdestruct.sol\":351:361  msg.sender */\n      caller\n        /* \"contracts/selfdestruct.sol\":329:363  selfdestruct(payable (msg.sender)) */\n      0xffffffffffffffffffffffffffffffffffffffff\n      and\n      selfdestruct\n        /* \"contracts/selfdestruct.sol\":379:431  function deposit() public payable {... */\n    tag_25:\n      jump\t// out\n        /* \"#utility.yul\":7:84   */\n    tag_30:\n        /* \"#utility.yul\":44:51   */\n      0x00\n        /* \"#utility.yul\":73:78   */\n      dup2\n        /* \"#utility.yul\":62:78   */\n      swap1\n      pop\n        /* \"#utility.yul\":7:84   */\n      swap2\n      swap1\n      pop\n      jump\t// out\n        /* \"#utility.yul\":90:208   */\n    tag_31:\n        /* \"#utility.yul\":177:201   */\n      tag_40\n        /* \"#utility.yul\":195:200   */\n      dup2\n        /* \"#utility.yul\":177:201   */\n      tag_30\n      jump\t// in\n    tag_40:\n        /* \"#utility.yul\":172:175   */\n      dup3\n        /* \"#utility.yul\":165:202   */\n      mstore\n        /* \"#utility.yul\":90:208   */\n      pop\n      pop\n      jump\t// out\n        /* \"#utility.yul\":214:436   */\n    tag_11:\n        /* \"#utility.yul\":307:311   */\n      0x00\n        /* \"#utility.yul\":345:347   */\n      0x20\n        /* \"#utility.yul\":334:343   */\n      dup3\n        /* \"#utility.yul\":330:348   */\n      add\n        /* \"#utility.yul\":322:348   */\n      swap1\n      pop\n        /* \"#utility.yul\":358:429   */\n      tag_42\n        /* \"#utility.yul\":426:427   */\n      0x00\n        /* \"#utility.yul\":415:424   */\n      dup4\n        /* \"#utility.yul\":411:428   */\n      add\n        /* \"#utility.yul\":402:408   */\n      dup5\n        /* \"#utility.yul\":358:429   */\n      tag_31\n      jump\t// in\n    tag_42:\n        /* \"#utility.yul\":214:436   */\n      swap3\n      swap2\n      pop\n      pop\n      jump\t// out\n        /* \"#utility.yul\":523:640   */\n    tag_33:\n        /* \"#utility.yul\":632:633   */\n      0x00\n        /* \"#utility.yul\":629:630   */\n      dup1\n        /* \"#utility.yul\":622:634   */\n      revert\n        /* \"#utility.yul\":769:891   */\n    tag_35:\n        /* \"#utility.yul\":842:866   */\n      tag_47\n        /* \"#utility.yul\":860:865   */\n      dup2\n        /* \"#utility.yul\":842:866   */\n      tag_30\n      jump\t// in\n    tag_47:\n        /* \"#utility.yul\":835:840   */\n      dup2\n        /* \"#utility.yul\":832:867   */\n      eq\n        /* \"#utility.yul\":822:885   */\n      tag_48\n      jumpi\n        /* \"#utility.yul\":881:882   */\n      0x00\n        /* \"#utility.yul\":878:879   */\n      dup1\n        /* \"#utility.yul\":871:883   */\n      revert\n        /* \"#utility.yul\":822:885   */\n    tag_48:\n        /* \"#utility.yul\":769:891   */\n      pop\n      jump\t// out\n        /* \"#utility.yul\":897:1036   */\n    tag_36:\n        /* \"#utility.yul\":943:948   */\n      0x00\n        /* \"#utility.yul\":981:987   */\n      dup2\n        /* \"#utility.yul\":968:988   */\n      calldataload\n        /* \"#utility.yul\":959:988   */\n      swap1\n      pop\n        /* \"#utility.yul\":997:1030   */\n      tag_50\n        /* \"#utility.yul\":1024:1029   */\n      dup2\n        /* \"#utility.yul\":997:1030   */\n      tag_35\n      jump\t// in\n    tag_50:\n        /* \"#utility.yul\":897:1036   */\n      swap3\n      swap2\n      pop\n      pop\n      jump\t// out\n        /* \"#utility.yul\":1042:1371   */\n    tag_15:\n        /* \"#utility.yul\":1101:1107   */\n      0x00\n        /* \"#utility.yul\":1150:1152   */\n      0x20\n        /* \"#utility.yul\":1138:1147   */\n      dup3\n        /* \"#utility.yul\":1129:1136   */\n      dup5\n        /* \"#utility.yul\":1125:1148   */\n      sub\n        /* \"#utility.yul\":1121:1153   */\n      slt\n        /* \"#utility.yul\":1118:1237   */\n      iszero\n      tag_52\n      jumpi\n        /* \"#utility.yul\":1156:1235   */\n      tag_53\n      tag_33\n      jump\t// in\n    tag_53:\n        /* \"#utility.yul\":1118:1237   */\n    tag_52:\n        /* \"#utility.yul\":1276:1277   */\n      0x00\n        /* \"#utility.yul\":1301:1354   */\n      tag_54\n        /* \"#utility.yul\":1346:1353   */\n      dup5\n        /* \"#utility.yul\":1337:1343   */\n      dup3\n        /* \"#utility.yul\":1326:1335   */\n      dup6\n        /* \"#utility.yul\":1322:1344   */\n      add\n        /* \"#utility.yul\":1301:1354   */\n      tag_36\n      jump\t// in\n    tag_54:\n        /* \"#utility.yul\":1291:1354   */\n      swap2\n      pop\n        /* \"#utility.yul\":1247:1364   */\n      pop\n        /* \"#utility.yul\":1042:1371   */\n      swap3\n      swap2\n      pop\n      pop\n      jump\t// out\n\n    auxdata: 0xa264697066735822122064326be43bf1749d3f5c3940c3aa0389a1cc4af64387532d21ab30d2d3a6058164736f6c63430008180033\n}\n",
				"bytecode": {
					"linkReferences": {},
					"object": "608060405234801561000f575f80fd5b506101da8061001d5f395ff3fe608060405260043610610049575f3560e01c80634e70b1dc1461004d57806360fe47b1146100775780636d4ce63c1461009f5780639cb8a26a146100c9578063d0e30db0146100df575b5f80fd5b348015610058575f80fd5b506100616100e9565b60405161006e9190610132565b60405180910390f35b348015610082575f80fd5b5061009d60048036038101906100989190610179565b6100ee565b005b3480156100aa575f80fd5b506100b36100f7565b6040516100c09190610132565b60405180910390f35b3480156100d4575f80fd5b506100dd6100ff565b005b6100e7610118565b005b5f5481565b805f8190555050565b5f8054905090565b3373ffffffffffffffffffffffffffffffffffffffff16ff5b565b5f819050919050565b61012c8161011a565b82525050565b5f6020820190506101455f830184610123565b92915050565b5f80fd5b6101588161011a565b8114610162575f80fd5b50565b5f813590506101738161014f565b92915050565b5f6020828403121561018e5761018d61014b565b5b5f61019b84828501610165565b9150509291505056fea264697066735822122064326be43bf1749d3f5c3940c3aa0389a1cc4af64387532d21ab30d2d3a6058164736f6c63430008180033",
					"opcodes": "PUSH1 0x80 PUSH1 0x40 MSTORE CALLVALUE DUP1 ISZERO PUSH2 0xF JUMPI PUSH0 DUP1 REVERT JUMPDEST POP PUSH2 0x1DA DUP1 PUSH2 0x1D PUSH0 CODECOPY PUSH0 RETURN INVALID PUSH1 0x80 PUSH1 0x40 MSTORE PUSH1 0x4 CALLDATASIZE LT PUSH2 0x49 JUMPI PUSH0 CALLDATALOAD PUSH1 0xE0 SHR DUP1 PUSH4 0x4E70B1DC EQ PUSH2 0x4D JUMPI DUP1 PUSH4 0x60FE47B1 EQ PUSH2 0x77 JUMPI DUP1 PUSH4 0x6D4CE63C EQ PUSH2 0x9F JUMPI DUP1 PUSH4 0x9CB8A26A EQ PUSH2 0xC9 JUMPI DUP1 PUSH4 0xD0E30DB0 EQ PUSH2 0xDF JUMPI JUMPDEST PUSH0 DUP1 REVERT JUMPDEST CALLVALUE DUP1 ISZERO PUSH2 0x58 JUMPI PUSH0 DUP1 REVERT JUMPDEST POP PUSH2 0x61 PUSH2 0xE9 JUMP JUMPDEST PUSH1 0x40 MLOAD PUSH2 0x6E SWAP2 SWAP1 PUSH2 0x132 JUMP JUMPDEST PUSH1 0x40 MLOAD DUP1 SWAP2 SUB SWAP1 RETURN JUMPDEST CALLVALUE DUP1 ISZERO PUSH2 0x82 JUMPI PUSH0 DUP1 REVERT JUMPDEST POP PUSH2 0x9D PUSH1 0x4 DUP1 CALLDATASIZE SUB DUP2 ADD SWAP1 PUSH2 0x98 SWAP2 SWAP1 PUSH2 0x179 JUMP JUMPDEST PUSH2 0xEE JUMP JUMPDEST STOP JUMPDEST CALLVALUE DUP1 ISZERO PUSH2 0xAA JUMPI PUSH0 DUP1 REVERT JUMPDEST POP PUSH2 0xB3 PUSH2 0xF7 JUMP JUMPDEST PUSH1 0x40 MLOAD PUSH2 0xC0 SWAP2 SWAP1 PUSH2 0x132 JUMP JUMPDEST PUSH1 0x40 MLOAD DUP1 SWAP2 SUB SWAP1 RETURN JUMPDEST CALLVALUE DUP1 ISZERO PUSH2 0xD4 JUMPI PUSH0 DUP1 REVERT JUMPDEST POP PUSH2 0xDD PUSH2 0xFF JUMP JUMPDEST STOP JUMPDEST PUSH2 0xE7 PUSH2 0x118 JUMP JUMPDEST STOP JUMPDEST PUSH0 SLOAD DUP2 JUMP JUMPDEST DUP1 PUSH0 DUP2 SWAP1 SSTORE POP POP JUMP JUMPDEST PUSH0 DUP1 SLOAD SWAP1 POP SWAP1 JUMP JUMPDEST CALLER PUSH20 0xFFFFFFFFFFFFFFFFFFFFFFFFFFFFFFFFFFFFFFFF AND SELFDESTRUCT JUMPDEST JUMP JUMPDEST PUSH0 DUP2 SWAP1 POP SWAP2 SWAP1 POP JUMP JUMPDEST PUSH2 0x12C DUP2 PUSH2 0x11A JUMP JUMPDEST DUP3 MSTORE POP POP JUMP JUMPDEST PUSH0 PUSH1 0x20 DUP3 ADD SWAP1 POP PUSH2 0x145 PUSH0 DUP4 ADD DUP5 PUSH2 0x123 JUMP JUMPDEST SWAP3 SWAP2 POP POP JUMP JUMPDEST PUSH0 DUP1 REVERT JUMPDEST PUSH2 0x158 DUP2 PUSH2 0x11A JUMP JUMPDEST DUP2 EQ PUSH2 0x162 JUMPI PUSH0 DUP1 REVERT JUMPDEST POP JUMP JUMPDEST PUSH0 DUP2 CALLDATALOAD SWAP1 POP PUSH2 0x173 DUP2 PUSH2 0x14F JUMP JUMPDEST SWAP3 SWAP2 POP POP JUMP JUMPDEST PUSH0 PUSH1 0x20 DUP3 DUP5 SUB SLT ISZERO PUSH2 0x18E JUMPI PUSH2 0x18D PUSH2 0x14B JUMP JUMPDEST JUMPDEST PUSH0 PUSH2 0x19B DUP5 DUP3 DUP6 ADD PUSH2 0x165 JUMP JUMPDEST SWAP2 POP POP SWAP3 SWAP2 POP POP JUMP INVALID LOG2 PUSH5 0x6970667358 0x22 SLT KECCAK256 PUSH5 0x326BE43BF1 PUSH21 0x9D3F5C3940C3AA0389A1CC4AF64387532D21AB30D2 0xD3 0xA6 SDIV DUP2 PUSH5 0x736F6C6343 STOP ADDMOD XOR STOP CALLER "
				},
				"gasEstimates": {
					"creation": {
						"codeDepositCost": "94800",
						"executionCost": "139",
						"totalCost": "94939"
					},
					"external": {
						"deposit()": "185",
						"get()": "2454",
						"num()": "2402",
						"selfDestruct()": "27786",
						"set(uint256)": "22514"
					}
				},
				"methodIdentifiers": {
					"deposit()": "d0e30db0",
					"get()": "6d4ce63c",
					"num()": "4e70b1dc",
					"selfDestruct()": "9cb8a26a",
					"set(uint256)": "60fe47b1"
				}
			},
			"storageLayout": {
				"storage": [
					{
						"astId": 3,
						"contract": "contracts/selfdestruct.sol:Demo",
						"label": "num",
						"offset": 0,
						"slot": "0",
						"type": "t_uint256"
					}
				],
				"types": {
					"t_uint256": {
						"encoding": "inplace",
						"label": "uint256",
						"numberOfBytes": "32"
					}
				}
			},
			"userdoc": {
				"kind": "user",
				"methods": {},
				"version": 1
			}
		}
	}
}