{
	"contracts/Demo10.sol": {
		"Demo": {
			"abi": [
				{
					"inputs": [
						{
							"internalType": "uint8",
							"name": "value",
							"type": "uint8"
						}
					],
					"name": "toStr",
					"outputs": [
						{
							"internalType": "string",
							"name": "",
							"type": "string"
						}
					],
					"stateMutability": "pure",
					"type": "function"
				},
				{
					"inputs": [
						{
							"internalType": "uint256",
							"name": "value",
							"type": "uint256"
						}
					],
					"name": "toStr1",
					"outputs": [
						{
							"internalType": "string",
							"name": "",
							"type": "string"
						}
					],
					"stateMutability": "pure",
					"type": "function"
				},
				{
					"inputs": [
						{
							"internalType": "uint256",
							"name": "value",
							"type": "uint256"
						}
					],
					"name": "toStr2",
					"outputs": [
						{
							"internalType": "string",
							"name": "str",
							"type": "string"
						}
					],
					"stateMutability": "pure",
					"type": "function"
				}
			],
			"devdoc": {
				"kind": "dev",
				"methods": {},
				"version": 1
			},
			"evm": {
				"assembly": "    /* \"contracts/Demo10.sol\":61:1185  contract Demo {... */\n  mstore(0x40, 0x80)\n  callvalue\n  dup1\n  iszero\n  tag_1\n  jumpi\n  0x00\n  dup1\n  revert\ntag_1:\n  pop\n  dataSize(sub_0)\n  dup1\n  dataOffset(sub_0)\n  0x00\n  codecopy\n  0x00\n  return\nstop\n\nsub_0: assembly {\n        /* \"contracts/Demo10.sol\":61:1185  contract Demo {... */\n      mstore(0x40, 0x80)\n      callvalue\n      dup1\n      iszero\n      tag_1\n      jumpi\n      0x00\n      dup1\n      revert\n    tag_1:\n      pop\n      jumpi(tag_2, lt(calldatasize, 0x04))\n      shr(0xe0, calldataload(0x00))\n      dup1\n      0x1025c370\n      eq\n      tag_3\n      jumpi\n      dup1\n      0x6e02e414\n      eq\n      tag_4\n      jumpi\n      dup1\n      0xe5a60df7\n      eq\n      tag_5\n      jumpi\n    tag_2:\n      0x00\n      dup1\n      revert\n        /* \"contracts/Demo10.sol\":499:827  function toStr1(uint256 value) public pure returns(string memory){... */\n    tag_3:\n      tag_6\n      0x04\n      dup1\n      calldatasize\n      sub\n      dup2\n      add\n      swap1\n      tag_7\n      swap2\n      swap1\n      tag_8\n      jump\t// in\n    tag_7:\n      tag_9\n      jump\t// in\n    tag_6:\n      mload(0x40)\n      tag_10\n      swap2\n      swap1\n      tag_11\n      jump\t// in\n    tag_10:\n      mload(0x40)\n      dup1\n      swap2\n      sub\n      swap1\n      return\n        /* \"contracts/Demo10.sol\":913:1182  function toStr2(uint256 value) public pure returns(string memory str){... */\n    tag_4:\n      tag_12\n      0x04\n      dup1\n      calldatasize\n      sub\n      dup2\n      add\n      swap1\n      tag_13\n      swap2\n      swap1\n      tag_8\n      jump\t// in\n    tag_13:\n      tag_14\n      jump\t// in\n    tag_12:\n      mload(0x40)\n      tag_15\n      swap2\n      swap1\n      tag_11\n      jump\t// in\n    tag_15:\n      mload(0x40)\n      dup1\n      swap2\n      sub\n      swap1\n      return\n        /* \"contracts/Demo10.sol\":145:435  function toStr(uint8 value) public pure  returns(string memory){... */\n    tag_5:\n      tag_16\n      0x04\n      dup1\n      calldatasize\n      sub\n      dup2\n      add\n      swap1\n      tag_17\n      swap2\n      swap1\n      tag_18\n      jump\t// in\n    tag_17:\n      tag_19\n      jump\t// in\n    tag_16:\n      mload(0x40)\n      tag_20\n      swap2\n      swap1\n      tag_11\n      jump\t// in\n    tag_20:\n      mload(0x40)\n      dup1\n      swap2\n      sub\n      swap1\n      return\n        /* \"contracts/Demo10.sol\":499:827  function toStr1(uint256 value) public pure returns(string memory){... */\n    tag_9:\n        /* \"contracts/Demo10.sol\":550:563  string memory */\n      0x60\n        /* \"contracts/Demo10.sol\":574:595  bytes memory alphabet */\n      0x00\n        /* \"contracts/Demo10.sol\":574:616  bytes memory alphabet = \"0123456789abcdef\" */\n      mload(0x40)\n      dup1\n      0x40\n      add\n      0x40\n      mstore\n      dup1\n      0x10\n      dup2\n      mstore\n      0x20\n      add\n      0x3031323334353637383961626364656600000000000000000000000000000000\n      dup2\n      mstore\n      pop\n      swap1\n      pop\n        /* \"contracts/Demo10.sol\":626:638  bytes32 data */\n      0x00\n        /* \"contracts/Demo10.sol\":649:654  value */\n      dup4\n        /* \"contracts/Demo10.sol\":641:655  bytes32(value) */\n      0x00\n      shl\n        /* \"contracts/Demo10.sol\":626:655  bytes32 data = bytes32(value) */\n      swap1\n      pop\n        /* \"contracts/Demo10.sol\":665:681  bytes memory bts */\n      0x00\n        /* \"contracts/Demo10.sol\":694:695  1 */\n      0x01\n        /* \"contracts/Demo10.sol\":684:696  new bytes(1) */\n      0xffffffffffffffff\n      dup2\n      gt\n      iszero\n      tag_22\n      jumpi\n      tag_23\n      tag_24\n      jump\t// in\n    tag_23:\n    tag_22:\n      mload(0x40)\n      swap1\n      dup1\n      dup3\n      mstore\n      dup1\n      0x1f\n      add\n      not(0x1f)\n      and\n      0x20\n      add\n      dup3\n      add\n      0x40\n      mstore\n      dup1\n      iszero\n      tag_25\n      jumpi\n      dup2\n      0x20\n      add\n      0x01\n      dup3\n      mul\n      dup1\n      calldatasize\n      dup4\n      calldatacopy\n      dup1\n      dup3\n      add\n      swap2\n      pop\n      pop\n      swap1\n      pop\n    tag_25:\n      pop\n        /* \"contracts/Demo10.sol\":665:696  bytes memory bts = new bytes(1) */\n      swap1\n      pop\n        /* \"contracts/Demo10.sol\":706:719  uint256 index */\n      0x00\n        /* \"contracts/Demo10.sol\":735:736  1 */\n      0x01\n        /* \"contracts/Demo10.sol\":722:733  data.length */\n      0x20\n        /* \"contracts/Demo10.sol\":722:736  data.length -1 */\n      tag_26\n      swap2\n      swap1\n      tag_27\n      jump\t// in\n    tag_26:\n        /* \"contracts/Demo10.sol\":706:736  uint256 index = data.length -1 */\n      0xff\n      and\n      swap1\n      pop\n        /* \"contracts/Demo10.sol\":756:764  alphabet */\n      dup4\n        /* \"contracts/Demo10.sol\":785:789  0x0f */\n      0x0f\n        /* \"contracts/Demo10.sol\":771:789  data[index] & 0x0f */\n      0xf8\n      shl\n        /* \"contracts/Demo10.sol\":771:775  data */\n      dup5\n        /* \"contracts/Demo10.sol\":776:781  index */\n      dup4\n        /* \"contracts/Demo10.sol\":771:782  data[index] */\n      0x20\n      dup2\n      lt\n      tag_28\n      jumpi\n      tag_29\n      tag_30\n      jump\t// in\n    tag_29:\n    tag_28:\n      byte\n      0xf8\n      shl\n        /* \"contracts/Demo10.sol\":771:789  data[index] & 0x0f */\n      and\n        /* \"contracts/Demo10.sol\":765:790  uint8(data[index] & 0x0f) */\n      0xf8\n      shr\n        /* \"contracts/Demo10.sol\":756:791  alphabet[uint8(data[index] & 0x0f)] */\n      0xff\n      and\n      dup2\n      mload\n      dup2\n      lt\n      tag_31\n      jumpi\n      tag_32\n      tag_30\n      jump\t// in\n    tag_32:\n    tag_31:\n      0x20\n      add\n      add\n      mload\n      0xf8\n      shr\n      0xf8\n      shl\n        /* \"contracts/Demo10.sol\":747:750  bts */\n      dup3\n        /* \"contracts/Demo10.sol\":751:752  0 */\n      0x00\n        /* \"contracts/Demo10.sol\":747:753  bts[0] */\n      dup2\n      mload\n      dup2\n      lt\n      tag_33\n      jumpi\n      tag_34\n      tag_30\n      jump\t// in\n    tag_34:\n    tag_33:\n      0x20\n      add\n      add\n        /* \"contracts/Demo10.sol\":747:791  bts[0] = alphabet[uint8(data[index] & 0x0f)] */\n      swap1\n      not(0xffffffffffffffffffffffffffffffffffffffffffffffffffffffffffffff)\n      and\n      swap1\n      dup2\n      0x00\n      byte\n      swap1\n      mstore8\n      pop\n        /* \"contracts/Demo10.sol\":815:818  bts */\n      dup2\n        /* \"contracts/Demo10.sol\":801:819  return string(bts) */\n      swap5\n      pop\n      pop\n      pop\n      pop\n      pop\n        /* \"contracts/Demo10.sol\":499:827  function toStr1(uint256 value) public pure returns(string memory){... */\n      swap2\n      swap1\n      pop\n      jump\t// out\n        /* \"contracts/Demo10.sol\":913:1182  function toStr2(uint256 value) public pure returns(string memory str){... */\n    tag_14:\n        /* \"contracts/Demo10.sol\":964:981  string memory str */\n      0x60\n        /* \"contracts/Demo10.sol\":1005:1006  0 */\n      0x00\n        /* \"contracts/Demo10.sol\":996:1001  value */\n      dup3\n        /* \"contracts/Demo10.sol\":996:1006  value == 0 */\n      sub\n        /* \"contracts/Demo10.sol\":993:1019  if(value == 0)  return \"0\" */\n      tag_36\n      jumpi\n        /* \"contracts/Demo10.sol\":1009:1019  return \"0\" */\n      mload(0x40)\n      dup1\n      0x40\n      add\n      0x40\n      mstore\n      dup1\n      0x01\n      dup2\n      mstore\n      0x20\n      add\n      0x3000000000000000000000000000000000000000000000000000000000000000\n      dup2\n      mstore\n      pop\n      swap1\n      pop\n      jump(tag_35)\n        /* \"contracts/Demo10.sol\":993:1019  if(value == 0)  return \"0\" */\n    tag_36:\n        /* \"contracts/Demo10.sol\":1030:1175  while(value != 0){... */\n    tag_37:\n        /* \"contracts/Demo10.sol\":1045:1046  0 */\n      0x00\n        /* \"contracts/Demo10.sol\":1036:1041  value */\n      dup3\n        /* \"contracts/Demo10.sol\":1036:1046  value != 0 */\n      eq\n        /* \"contracts/Demo10.sol\":1030:1175  while(value != 0){... */\n      tag_38\n      jumpi\n        /* \"contracts/Demo10.sol\":1061:1070  uint256 r */\n      0x00\n        /* \"contracts/Demo10.sol\":1081:1083  10 */\n      0x0a\n        /* \"contracts/Demo10.sol\":1073:1078  value */\n      dup4\n        /* \"contracts/Demo10.sol\":1073:1083  value % 10 */\n      tag_39\n      swap2\n      swap1\n      tag_40\n      jump\t// in\n    tag_39:\n        /* \"contracts/Demo10.sol\":1061:1083  uint256 r = value % 10 */\n      swap1\n      pop\n        /* \"contracts/Demo10.sol\":1113:1115  10 */\n      0x0a\n        /* \"contracts/Demo10.sol\":1105:1110  value */\n      dup4\n        /* \"contracts/Demo10.sol\":1105:1115  value / 10 */\n      tag_41\n      swap2\n      swap1\n      tag_42\n      jump\t// in\n    tag_41:\n        /* \"contracts/Demo10.sol\":1097:1115  value = value / 10 */\n      swap3\n      pop\n        /* \"contracts/Demo10.sol\":1149:1158  toStr1(r) */\n      tag_43\n        /* \"contracts/Demo10.sol\":1156:1157  r */\n      dup2\n        /* \"contracts/Demo10.sol\":1149:1155  toStr1 */\n      tag_9\n        /* \"contracts/Demo10.sol\":1149:1158  toStr1(r) */\n      jump\t// in\n    tag_43:\n        /* \"contracts/Demo10.sol\":1159:1162  str */\n      dup3\n        /* \"contracts/Demo10.sol\":1135:1163  string.concat(toStr1(r),str) */\n      add(0x20, mload(0x40))\n      tag_44\n      swap3\n      swap2\n      swap1\n      tag_45\n      jump\t// in\n    tag_44:\n      mload(0x40)\n      0x20\n      dup2\n      dup4\n      sub\n      sub\n      dup2\n      mstore\n      swap1\n      0x40\n      mstore\n        /* \"contracts/Demo10.sol\":1129:1163  str = string.concat(toStr1(r),str) */\n      swap2\n      pop\n        /* \"contracts/Demo10.sol\":1047:1175  {... */\n      pop\n        /* \"contracts/Demo10.sol\":1030:1175  while(value != 0){... */\n      jump(tag_37)\n    tag_38:\n        /* \"contracts/Demo10.sol\":913:1182  function toStr2(uint256 value) public pure returns(string memory str){... */\n    tag_35:\n      swap2\n      swap1\n      pop\n      jump\t// out\n        /* \"contracts/Demo10.sol\":145:435  function toStr(uint8 value) public pure  returns(string memory){... */\n    tag_19:\n        /* \"contracts/Demo10.sol\":194:207  string memory */\n      0x60\n        /* \"contracts/Demo10.sol\":235:237  10 */\n      0x0a\n        /* \"contracts/Demo10.sol\":227:232  value */\n      dup3\n        /* \"contracts/Demo10.sol\":227:237  value < 10 */\n      0xff\n      and\n      lt\n        /* \"contracts/Demo10.sol\":219:252  require(value < 10,\"error value\") */\n      tag_47\n      jumpi\n      mload(0x40)\n      0x08c379a000000000000000000000000000000000000000000000000000000000\n      dup2\n      mstore\n      0x04\n      add\n      tag_48\n      swap1\n      tag_49\n      jump\t// in\n    tag_48:\n      mload(0x40)\n      dup1\n      swap2\n      sub\n      swap1\n      revert\n    tag_47:\n        /* \"contracts/Demo10.sol\":263:284  bytes memory alphabet */\n      0x00\n        /* \"contracts/Demo10.sol\":263:299  bytes memory alphabet = \"0123456789\" */\n      mload(0x40)\n      dup1\n      0x40\n      add\n      0x40\n      mstore\n      dup1\n      0x0a\n      dup2\n      mstore\n      0x20\n      add\n      0x3031323334353637383900000000000000000000000000000000000000000000\n      dup2\n      mstore\n      pop\n      swap1\n      pop\n        /* \"contracts/Demo10.sol\":310:319  bytes1 b1 */\n      0x00\n        /* \"contracts/Demo10.sol\":322:330  alphabet */\n      dup2\n        /* \"contracts/Demo10.sol\":331:336  value */\n      dup5\n        /* \"contracts/Demo10.sol\":322:337  alphabet[value] */\n      0xff\n      and\n      dup2\n      mload\n      dup2\n      lt\n      tag_50\n      jumpi\n      tag_51\n      tag_30\n      jump\t// in\n    tag_51:\n    tag_50:\n      0x20\n      add\n      add\n      mload\n      0xf8\n      shr\n      0xf8\n      shl\n        /* \"contracts/Demo10.sol\":310:337  bytes1 b1 = alphabet[value] */\n      swap1\n      pop\n        /* \"contracts/Demo10.sol\":348:363  bytes memory bs */\n      0x00\n        /* \"contracts/Demo10.sol\":376:377  1 */\n      0x01\n        /* \"contracts/Demo10.sol\":366:378  new bytes(1) */\n      0xffffffffffffffff\n      dup2\n      gt\n      iszero\n      tag_52\n      jumpi\n      tag_53\n      tag_24\n      jump\t// in\n    tag_53:\n    tag_52:\n      mload(0x40)\n      swap1\n      dup1\n      dup3\n      mstore\n      dup1\n      0x1f\n      add\n      not(0x1f)\n      and\n      0x20\n      add\n      dup3\n      add\n      0x40\n      mstore\n      dup1\n      iszero\n      tag_54\n      jumpi\n      dup2\n      0x20\n      add\n      0x01\n      dup3\n      mul\n      dup1\n      calldatasize\n      dup4\n      calldatacopy\n      dup1\n      dup3\n      add\n      swap2\n      pop\n      pop\n      swap1\n      pop\n    tag_54:\n      pop\n        /* \"contracts/Demo10.sol\":348:378  bytes memory bs = new bytes(1) */\n      swap1\n      pop\n        /* \"contracts/Demo10.sol\":397:399  b1 */\n      dup2\n        /* \"contracts/Demo10.sol\":389:391  bs */\n      dup2\n        /* \"contracts/Demo10.sol\":392:393  0 */\n      0x00\n        /* \"contracts/Demo10.sol\":389:394  bs[0] */\n      dup2\n      mload\n      dup2\n      lt\n      tag_55\n      jumpi\n      tag_56\n      tag_30\n      jump\t// in\n    tag_56:\n    tag_55:\n      0x20\n      add\n      add\n        /* \"contracts/Demo10.sol\":389:399  bs[0] = b1 */\n      swap1\n      not(0xffffffffffffffffffffffffffffffffffffffffffffffffffffffffffffff)\n      and\n      swap1\n      dup2\n      0x00\n      byte\n      swap1\n      mstore8\n      pop\n        /* \"contracts/Demo10.sol\":424:426  bs */\n      dup1\n        /* \"contracts/Demo10.sol\":410:427  return string(bs) */\n      swap4\n      pop\n      pop\n      pop\n      pop\n        /* \"contracts/Demo10.sol\":145:435  function toStr(uint8 value) public pure  returns(string memory){... */\n      swap2\n      swap1\n      pop\n      jump\t// out\n        /* \"#utility.yul\":88:205   */\n    tag_58:\n        /* \"#utility.yul\":197:198   */\n      0x00\n        /* \"#utility.yul\":194:195   */\n      dup1\n        /* \"#utility.yul\":187:199   */\n      revert\n        /* \"#utility.yul\":334:411   */\n    tag_60:\n        /* \"#utility.yul\":371:378   */\n      0x00\n        /* \"#utility.yul\":400:405   */\n      dup2\n        /* \"#utility.yul\":389:405   */\n      swap1\n      pop\n        /* \"#utility.yul\":334:411   */\n      swap2\n      swap1\n      pop\n      jump\t// out\n        /* \"#utility.yul\":417:539   */\n    tag_61:\n        /* \"#utility.yul\":490:514   */\n      tag_83\n        /* \"#utility.yul\":508:513   */\n      dup2\n        /* \"#utility.yul\":490:514   */\n      tag_60\n      jump\t// in\n    tag_83:\n        /* \"#utility.yul\":483:488   */\n      dup2\n        /* \"#utility.yul\":480:515   */\n      eq\n        /* \"#utility.yul\":470:533   */\n      tag_84\n      jumpi\n        /* \"#utility.yul\":529:530   */\n      0x00\n        /* \"#utility.yul\":526:527   */\n      dup1\n        /* \"#utility.yul\":519:531   */\n      revert\n        /* \"#utility.yul\":470:533   */\n    tag_84:\n        /* \"#utility.yul\":417:539   */\n      pop\n      jump\t// out\n        /* \"#utility.yul\":545:684   */\n    tag_62:\n        /* \"#utility.yul\":591:596   */\n      0x00\n        /* \"#utility.yul\":629:635   */\n      dup2\n        /* \"#utility.yul\":616:636   */\n      calldataload\n        /* \"#utility.yul\":607:636   */\n      swap1\n      pop\n        /* \"#utility.yul\":645:678   */\n      tag_86\n        /* \"#utility.yul\":672:677   */\n      dup2\n        /* \"#utility.yul\":645:678   */\n      tag_61\n      jump\t// in\n    tag_86:\n        /* \"#utility.yul\":545:684   */\n      swap3\n      swap2\n      pop\n      pop\n      jump\t// out\n        /* \"#utility.yul\":690:1019   */\n    tag_8:\n        /* \"#utility.yul\":749:755   */\n      0x00\n        /* \"#utility.yul\":798:800   */\n      0x20\n        /* \"#utility.yul\":786:795   */\n      dup3\n        /* \"#utility.yul\":777:784   */\n      dup5\n        /* \"#utility.yul\":773:796   */\n      sub\n        /* \"#utility.yul\":769:801   */\n      slt\n        /* \"#utility.yul\":766:885   */\n      iszero\n      tag_88\n      jumpi\n        /* \"#utility.yul\":804:883   */\n      tag_89\n      tag_58\n      jump\t// in\n    tag_89:\n        /* \"#utility.yul\":766:885   */\n    tag_88:\n        /* \"#utility.yul\":924:925   */\n      0x00\n        /* \"#utility.yul\":949:1002   */\n      tag_90\n        /* \"#utility.yul\":994:1001   */\n      dup5\n        /* \"#utility.yul\":985:991   */\n      dup3\n        /* \"#utility.yul\":974:983   */\n      dup6\n        /* \"#utility.yul\":970:992   */\n      add\n        /* \"#utility.yul\":949:1002   */\n      tag_62\n      jump\t// in\n    tag_90:\n        /* \"#utility.yul\":939:1002   */\n      swap2\n      pop\n        /* \"#utility.yul\":895:1012   */\n      pop\n        /* \"#utility.yul\":690:1019   */\n      swap3\n      swap2\n      pop\n      pop\n      jump\t// out\n        /* \"#utility.yul\":1025:1124   */\n    tag_63:\n        /* \"#utility.yul\":1077:1083   */\n      0x00\n        /* \"#utility.yul\":1111:1116   */\n      dup2\n        /* \"#utility.yul\":1105:1117   */\n      mload\n        /* \"#utility.yul\":1095:1117   */\n      swap1\n      pop\n        /* \"#utility.yul\":1025:1124   */\n      swap2\n      swap1\n      pop\n      jump\t// out\n        /* \"#utility.yul\":1130:1299   */\n    tag_64:\n        /* \"#utility.yul\":1214:1225   */\n      0x00\n        /* \"#utility.yul\":1248:1254   */\n      dup3\n        /* \"#utility.yul\":1243:1246   */\n      dup3\n        /* \"#utility.yul\":1236:1255   */\n      mstore\n        /* \"#utility.yul\":1288:1292   */\n      0x20\n        /* \"#utility.yul\":1283:1286   */\n      dup3\n        /* \"#utility.yul\":1279:1293   */\n      add\n        /* \"#utility.yul\":1264:1293   */\n      swap1\n      pop\n        /* \"#utility.yul\":1130:1299   */\n      swap3\n      swap2\n      pop\n      pop\n      jump\t// out\n        /* \"#utility.yul\":1305:1444   */\n    tag_65:\n        /* \"#utility.yul\":1394:1400   */\n      dup3\n        /* \"#utility.yul\":1389:1392   */\n      dup2\n        /* \"#utility.yul\":1384:1387   */\n      dup4\n        /* \"#utility.yul\":1378:1401   */\n      mcopy\n        /* \"#utility.yul\":1435:1436   */\n      0x00\n        /* \"#utility.yul\":1426:1432   */\n      dup4\n        /* \"#utility.yul\":1421:1424   */\n      dup4\n        /* \"#utility.yul\":1417:1433   */\n      add\n        /* \"#utility.yul\":1410:1437   */\n      mstore\n        /* \"#utility.yul\":1305:1444   */\n      pop\n      pop\n      pop\n      jump\t// out\n        /* \"#utility.yul\":1450:1552   */\n    tag_66:\n        /* \"#utility.yul\":1491:1497   */\n      0x00\n        /* \"#utility.yul\":1542:1544   */\n      0x1f\n        /* \"#utility.yul\":1538:1545   */\n      not\n        /* \"#utility.yul\":1533:1535   */\n      0x1f\n        /* \"#utility.yul\":1526:1531   */\n      dup4\n        /* \"#utility.yul\":1522:1536   */\n      add\n        /* \"#utility.yul\":1518:1546   */\n      and\n        /* \"#utility.yul\":1508:1546   */\n      swap1\n      pop\n        /* \"#utility.yul\":1450:1552   */\n      swap2\n      swap1\n      pop\n      jump\t// out\n        /* \"#utility.yul\":1558:1935   */\n    tag_67:\n        /* \"#utility.yul\":1646:1649   */\n      0x00\n        /* \"#utility.yul\":1674:1713   */\n      tag_96\n        /* \"#utility.yul\":1707:1712   */\n      dup3\n        /* \"#utility.yul\":1674:1713   */\n      tag_63\n      jump\t// in\n    tag_96:\n        /* \"#utility.yul\":1729:1800   */\n      tag_97\n        /* \"#utility.yul\":1793:1799   */\n      dup2\n        /* \"#utility.yul\":1788:1791   */\n      dup6\n        /* \"#utility.yul\":1729:1800   */\n      tag_64\n      jump\t// in\n    tag_97:\n        /* \"#utility.yul\":1722:1800   */\n      swap4\n      pop\n        /* \"#utility.yul\":1809:1874   */\n      tag_98\n        /* \"#utility.yul\":1867:1873   */\n      dup2\n        /* \"#utility.yul\":1862:1865   */\n      dup6\n        /* \"#utility.yul\":1855:1859   */\n      0x20\n        /* \"#utility.yul\":1848:1853   */\n      dup7\n        /* \"#utility.yul\":1844:1860   */\n      add\n        /* \"#utility.yul\":1809:1874   */\n      tag_65\n      jump\t// in\n    tag_98:\n        /* \"#utility.yul\":1899:1928   */\n      tag_99\n        /* \"#utility.yul\":1921:1927   */\n      dup2\n        /* \"#utility.yul\":1899:1928   */\n      tag_66\n      jump\t// in\n    tag_99:\n        /* \"#utility.yul\":1894:1897   */\n      dup5\n        /* \"#utility.yul\":1890:1929   */\n      add\n        /* \"#utility.yul\":1883:1929   */\n      swap2\n      pop\n        /* \"#utility.yul\":1650:1935   */\n      pop\n        /* \"#utility.yul\":1558:1935   */\n      swap3\n      swap2\n      pop\n      pop\n      jump\t// out\n        /* \"#utility.yul\":1941:2254   */\n    tag_11:\n        /* \"#utility.yul\":2054:2058   */\n      0x00\n        /* \"#utility.yul\":2092:2094   */\n      0x20\n        /* \"#utility.yul\":2081:2090   */\n      dup3\n        /* \"#utility.yul\":2077:2095   */\n      add\n        /* \"#utility.yul\":2069:2095   */\n      swap1\n      pop\n        /* \"#utility.yul\":2141:2150   */\n      dup2\n        /* \"#utility.yul\":2135:2139   */\n      dup2\n        /* \"#utility.yul\":2131:2151   */\n      sub\n        /* \"#utility.yul\":2127:2128   */\n      0x00\n        /* \"#utility.yul\":2116:2125   */\n      dup4\n        /* \"#utility.yul\":2112:2129   */\n      add\n        /* \"#utility.yul\":2105:2152   */\n      mstore\n        /* \"#utility.yul\":2169:2247   */\n      tag_101\n        /* \"#utility.yul\":2242:2246   */\n      dup2\n        /* \"#utility.yul\":2233:2239   */\n      dup5\n        /* \"#utility.yul\":2169:2247   */\n      tag_67\n      jump\t// in\n    tag_101:\n        /* \"#utility.yul\":2161:2247   */\n      swap1\n      pop\n        /* \"#utility.yul\":1941:2254   */\n      swap3\n      swap2\n      pop\n      pop\n      jump\t// out\n        /* \"#utility.yul\":2260:2346   */\n    tag_68:\n        /* \"#utility.yul\":2295:2302   */\n      0x00\n        /* \"#utility.yul\":2335:2339   */\n      0xff\n        /* \"#utility.yul\":2328:2333   */\n      dup3\n        /* \"#utility.yul\":2324:2340   */\n      and\n        /* \"#utility.yul\":2313:2340   */\n      swap1\n      pop\n        /* \"#utility.yul\":2260:2346   */\n      swap2\n      swap1\n      pop\n      jump\t// out\n        /* \"#utility.yul\":2352:2470   */\n    tag_69:\n        /* \"#utility.yul\":2423:2445   */\n      tag_104\n        /* \"#utility.yul\":2439:2444   */\n      dup2\n        /* \"#utility.yul\":2423:2445   */\n      tag_68\n      jump\t// in\n    tag_104:\n        /* \"#utility.yul\":2416:2421   */\n      dup2\n        /* \"#utility.yul\":2413:2446   */\n      eq\n        /* \"#utility.yul\":2403:2464   */\n      tag_105\n      jumpi\n        /* \"#utility.yul\":2460:2461   */\n      0x00\n        /* \"#utility.yul\":2457:2458   */\n      dup1\n        /* \"#utility.yul\":2450:2462   */\n      revert\n        /* \"#utility.yul\":2403:2464   */\n    tag_105:\n        /* \"#utility.yul\":2352:2470   */\n      pop\n      jump\t// out\n        /* \"#utility.yul\":2476:2611   */\n    tag_70:\n        /* \"#utility.yul\":2520:2525   */\n      0x00\n        /* \"#utility.yul\":2558:2564   */\n      dup2\n        /* \"#utility.yul\":2545:2565   */\n      calldataload\n        /* \"#utility.yul\":2536:2565   */\n      swap1\n      pop\n        /* \"#utility.yul\":2574:2605   */\n      tag_107\n        /* \"#utility.yul\":2599:2604   */\n      dup2\n        /* \"#utility.yul\":2574:2605   */\n      tag_69\n      jump\t// in\n    tag_107:\n        /* \"#utility.yul\":2476:2611   */\n      swap3\n      swap2\n      pop\n      pop\n      jump\t// out\n        /* \"#utility.yul\":2617:2942   */\n    tag_18:\n        /* \"#utility.yul\":2674:2680   */\n      0x00\n        /* \"#utility.yul\":2723:2725   */\n      0x20\n        /* \"#utility.yul\":2711:2720   */\n      dup3\n        /* \"#utility.yul\":2702:2709   */\n      dup5\n        /* \"#utility.yul\":2698:2721   */\n      sub\n        /* \"#utility.yul\":2694:2726   */\n      slt\n        /* \"#utility.yul\":2691:2810   */\n      iszero\n      tag_109\n      jumpi\n        /* \"#utility.yul\":2729:2808   */\n      tag_110\n      tag_58\n      jump\t// in\n    tag_110:\n        /* \"#utility.yul\":2691:2810   */\n    tag_109:\n        /* \"#utility.yul\":2849:2850   */\n      0x00\n        /* \"#utility.yul\":2874:2925   */\n      tag_111\n        /* \"#utility.yul\":2917:2924   */\n      dup5\n        /* \"#utility.yul\":2908:2914   */\n      dup3\n        /* \"#utility.yul\":2897:2906   */\n      dup6\n        /* \"#utility.yul\":2893:2915   */\n      add\n        /* \"#utility.yul\":2874:2925   */\n      tag_70\n      jump\t// in\n    tag_111:\n        /* \"#utility.yul\":2864:2925   */\n      swap2\n      pop\n        /* \"#utility.yul\":2820:2935   */\n      pop\n        /* \"#utility.yul\":2617:2942   */\n      swap3\n      swap2\n      pop\n      pop\n      jump\t// out\n        /* \"#utility.yul\":2948:3128   */\n    tag_24:\n        /* \"#utility.yul\":2996:3073   */\n      0x4e487b7100000000000000000000000000000000000000000000000000000000\n        /* \"#utility.yul\":2993:2994   */\n      0x00\n        /* \"#utility.yul\":2986:3074   */\n      mstore\n        /* \"#utility.yul\":3093:3097   */\n      0x41\n        /* \"#utility.yul\":3090:3091   */\n      0x04\n        /* \"#utility.yul\":3083:3098   */\n      mstore\n        /* \"#utility.yul\":3117:3121   */\n      0x24\n        /* \"#utility.yul\":3114:3115   */\n      0x00\n        /* \"#utility.yul\":3107:3122   */\n      revert\n        /* \"#utility.yul\":3134:3314   */\n    tag_71:\n        /* \"#utility.yul\":3182:3259   */\n      0x4e487b7100000000000000000000000000000000000000000000000000000000\n        /* \"#utility.yul\":3179:3180   */\n      0x00\n        /* \"#utility.yul\":3172:3260   */\n      mstore\n        /* \"#utility.yul\":3279:3283   */\n      0x11\n        /* \"#utility.yul\":3276:3277   */\n      0x04\n        /* \"#utility.yul\":3269:3284   */\n      mstore\n        /* \"#utility.yul\":3303:3307   */\n      0x24\n        /* \"#utility.yul\":3300:3301   */\n      0x00\n        /* \"#utility.yul\":3293:3308   */\n      revert\n        /* \"#utility.yul\":3320:3511   */\n    tag_27:\n        /* \"#utility.yul\":3358:3362   */\n      0x00\n        /* \"#utility.yul\":3378:3396   */\n      tag_115\n        /* \"#utility.yul\":3394:3395   */\n      dup3\n        /* \"#utility.yul\":3378:3396   */\n      tag_68\n      jump\t// in\n    tag_115:\n        /* \"#utility.yul\":3373:3396   */\n      swap2\n      pop\n        /* \"#utility.yul\":3410:3428   */\n      tag_116\n        /* \"#utility.yul\":3426:3427   */\n      dup4\n        /* \"#utility.yul\":3410:3428   */\n      tag_68\n      jump\t// in\n    tag_116:\n        /* \"#utility.yul\":3405:3428   */\n      swap3\n      pop\n        /* \"#utility.yul\":3452:3453   */\n      dup3\n        /* \"#utility.yul\":3449:3450   */\n      dup3\n        /* \"#utility.yul\":3445:3454   */\n      sub\n        /* \"#utility.yul\":3437:3454   */\n      swap1\n      pop\n        /* \"#utility.yul\":3476:3480   */\n      0xff\n        /* \"#utility.yul\":3470:3474   */\n      dup2\n        /* \"#utility.yul\":3467:3481   */\n      gt\n        /* \"#utility.yul\":3464:3504   */\n      iszero\n      tag_117\n      jumpi\n        /* \"#utility.yul\":3484:3502   */\n      tag_118\n      tag_71\n      jump\t// in\n    tag_118:\n        /* \"#utility.yul\":3464:3504   */\n    tag_117:\n        /* \"#utility.yul\":3320:3511   */\n      swap3\n      swap2\n      pop\n      pop\n      jump\t// out\n        /* \"#utility.yul\":3517:3697   */\n    tag_30:\n        /* \"#utility.yul\":3565:3642   */\n      0x4e487b7100000000000000000000000000000000000000000000000000000000\n        /* \"#utility.yul\":3562:3563   */\n      0x00\n        /* \"#utility.yul\":3555:3643   */\n      mstore\n        /* \"#utility.yul\":3662:3666   */\n      0x32\n        /* \"#utility.yul\":3659:3660   */\n      0x04\n        /* \"#utility.yul\":3652:3667   */\n      mstore\n        /* \"#utility.yul\":3686:3690   */\n      0x24\n        /* \"#utility.yul\":3683:3684   */\n      0x00\n        /* \"#utility.yul\":3676:3691   */\n      revert\n        /* \"#utility.yul\":3703:3883   */\n    tag_72:\n        /* \"#utility.yul\":3751:3828   */\n      0x4e487b7100000000000000000000000000000000000000000000000000000000\n        /* \"#utility.yul\":3748:3749   */\n      0x00\n        /* \"#utility.yul\":3741:3829   */\n      mstore\n        /* \"#utility.yul\":3848:3852   */\n      0x12\n        /* \"#utility.yul\":3845:3846   */\n      0x04\n        /* \"#utility.yul\":3838:3853   */\n      mstore\n        /* \"#utility.yul\":3872:3876   */\n      0x24\n        /* \"#utility.yul\":3869:3870   */\n      0x00\n        /* \"#utility.yul\":3862:3877   */\n      revert\n        /* \"#utility.yul\":3889:4065   */\n    tag_40:\n        /* \"#utility.yul\":3921:3922   */\n      0x00\n        /* \"#utility.yul\":3938:3958   */\n      tag_122\n        /* \"#utility.yul\":3956:3957   */\n      dup3\n        /* \"#utility.yul\":3938:3958   */\n      tag_60\n      jump\t// in\n    tag_122:\n        /* \"#utility.yul\":3933:3958   */\n      swap2\n      pop\n        /* \"#utility.yul\":3972:3992   */\n      tag_123\n        /* \"#utility.yul\":3990:3991   */\n      dup4\n        /* \"#utility.yul\":3972:3992   */\n      tag_60\n      jump\t// in\n    tag_123:\n        /* \"#utility.yul\":3967:3992   */\n      swap3\n      pop\n        /* \"#utility.yul\":4011:4012   */\n      dup3\n        /* \"#utility.yul\":4001:4036   */\n      tag_124\n      jumpi\n        /* \"#utility.yul\":4016:4034   */\n      tag_125\n      tag_72\n      jump\t// in\n    tag_125:\n        /* \"#utility.yul\":4001:4036   */\n    tag_124:\n        /* \"#utility.yul\":4057:4058   */\n      dup3\n        /* \"#utility.yul\":4054:4055   */\n      dup3\n        /* \"#utility.yul\":4050:4059   */\n      mod\n        /* \"#utility.yul\":4045:4059   */\n      swap1\n      pop\n        /* \"#utility.yul\":3889:4065   */\n      swap3\n      swap2\n      pop\n      pop\n      jump\t// out\n        /* \"#utility.yul\":4071:4256   */\n    tag_42:\n        /* \"#utility.yul\":4111:4112   */\n      0x00\n        /* \"#utility.yul\":4128:4148   */\n      tag_127\n        /* \"#utility.yul\":4146:4147   */\n      dup3\n        /* \"#utility.yul\":4128:4148   */\n      tag_60\n      jump\t// in\n    tag_127:\n        /* \"#utility.yul\":4123:4148   */\n      swap2\n      pop\n        /* \"#utility.yul\":4162:4182   */\n      tag_128\n        /* \"#utility.yul\":4180:4181   */\n      dup4\n        /* \"#utility.yul\":4162:4182   */\n      tag_60\n      jump\t// in\n    tag_128:\n        /* \"#utility.yul\":4157:4182   */\n      swap3\n      pop\n        /* \"#utility.yul\":4201:4202   */\n      dup3\n        /* \"#utility.yul\":4191:4226   */\n      tag_129\n      jumpi\n        /* \"#utility.yul\":4206:4224   */\n      tag_130\n      tag_72\n      jump\t// in\n    tag_130:\n        /* \"#utility.yul\":4191:4226   */\n    tag_129:\n        /* \"#utility.yul\":4248:4249   */\n      dup3\n        /* \"#utility.yul\":4245:4246   */\n      dup3\n        /* \"#utility.yul\":4241:4250   */\n      div\n        /* \"#utility.yul\":4236:4250   */\n      swap1\n      pop\n        /* \"#utility.yul\":4071:4256   */\n      swap3\n      swap2\n      pop\n      pop\n      jump\t// out\n        /* \"#utility.yul\":4262:4410   */\n    tag_73:\n        /* \"#utility.yul\":4364:4375   */\n      0x00\n        /* \"#utility.yul\":4401:4404   */\n      dup2\n        /* \"#utility.yul\":4386:4404   */\n      swap1\n      pop\n        /* \"#utility.yul\":4262:4410   */\n      swap3\n      swap2\n      pop\n      pop\n      jump\t// out\n        /* \"#utility.yul\":4416:4806   */\n    tag_74:\n        /* \"#utility.yul\":4522:4525   */\n      0x00\n        /* \"#utility.yul\":4550:4589   */\n      tag_133\n        /* \"#utility.yul\":4583:4588   */\n      dup3\n        /* \"#utility.yul\":4550:4589   */\n      tag_63\n      jump\t// in\n    tag_133:\n        /* \"#utility.yul\":4605:4694   */\n      tag_134\n        /* \"#utility.yul\":4687:4693   */\n      dup2\n        /* \"#utility.yul\":4682:4685   */\n      dup6\n        /* \"#utility.yul\":4605:4694   */\n      tag_73\n      jump\t// in\n    tag_134:\n        /* \"#utility.yul\":4598:4694   */\n      swap4\n      pop\n        /* \"#utility.yul\":4703:4768   */\n      tag_135\n        /* \"#utility.yul\":4761:4767   */\n      dup2\n        /* \"#utility.yul\":4756:4759   */\n      dup6\n        /* \"#utility.yul\":4749:4753   */\n      0x20\n        /* \"#utility.yul\":4742:4747   */\n      dup7\n        /* \"#utility.yul\":4738:4754   */\n      add\n        /* \"#utility.yul\":4703:4768   */\n      tag_65\n      jump\t// in\n    tag_135:\n        /* \"#utility.yul\":4793:4799   */\n      dup1\n        /* \"#utility.yul\":4788:4791   */\n      dup5\n        /* \"#utility.yul\":4784:4800   */\n      add\n        /* \"#utility.yul\":4777:4800   */\n      swap2\n      pop\n        /* \"#utility.yul\":4526:4806   */\n      pop\n        /* \"#utility.yul\":4416:4806   */\n      swap3\n      swap2\n      pop\n      pop\n      jump\t// out\n        /* \"#utility.yul\":4812:5247   */\n    tag_45:\n        /* \"#utility.yul\":4992:4995   */\n      0x00\n        /* \"#utility.yul\":5014:5109   */\n      tag_137\n        /* \"#utility.yul\":5105:5108   */\n      dup3\n        /* \"#utility.yul\":5096:5102   */\n      dup6\n        /* \"#utility.yul\":5014:5109   */\n      tag_74\n      jump\t// in\n    tag_137:\n        /* \"#utility.yul\":5007:5109   */\n      swap2\n      pop\n        /* \"#utility.yul\":5126:5221   */\n      tag_138\n        /* \"#utility.yul\":5217:5220   */\n      dup3\n        /* \"#utility.yul\":5208:5214   */\n      dup5\n        /* \"#utility.yul\":5126:5221   */\n      tag_74\n      jump\t// in\n    tag_138:\n        /* \"#utility.yul\":5119:5221   */\n      swap2\n      pop\n        /* \"#utility.yul\":5238:5241   */\n      dup2\n        /* \"#utility.yul\":5231:5241   */\n      swap1\n      pop\n        /* \"#utility.yul\":4812:5247   */\n      swap4\n      swap3\n      pop\n      pop\n      pop\n      jump\t// out\n        /* \"#utility.yul\":5253:5414   */\n    tag_75:\n        /* \"#utility.yul\":5393:5406   */\n      0x6572726f722076616c7565000000000000000000000000000000000000000000\n        /* \"#utility.yul\":5389:5390   */\n      0x00\n        /* \"#utility.yul\":5381:5387   */\n      dup3\n        /* \"#utility.yul\":5377:5391   */\n      add\n        /* \"#utility.yul\":5370:5407   */\n      mstore\n        /* \"#utility.yul\":5253:5414   */\n      pop\n      jump\t// out\n        /* \"#utility.yul\":5420:5786   */\n    tag_76:\n        /* \"#utility.yul\":5562:5565   */\n      0x00\n        /* \"#utility.yul\":5583:5650   */\n      tag_141\n        /* \"#utility.yul\":5647:5649   */\n      0x0b\n        /* \"#utility.yul\":5642:5645   */\n      dup4\n        /* \"#utility.yul\":5583:5650   */\n      tag_64\n      jump\t// in\n    tag_141:\n        /* \"#utility.yul\":5576:5650   */\n      swap2\n      pop\n        /* \"#utility.yul\":5659:5752   */\n      tag_142\n        /* \"#utility.yul\":5748:5751   */\n      dup3\n        /* \"#utility.yul\":5659:5752   */\n      tag_75\n      jump\t// in\n    tag_142:\n        /* \"#utility.yul\":5777:5779   */\n      0x20\n        /* \"#utility.yul\":5772:5775   */\n      dup3\n        /* \"#utility.yul\":5768:5780   */\n      add\n        /* \"#utility.yul\":5761:5780   */\n      swap1\n      pop\n        /* \"#utility.yul\":5420:5786   */\n      swap2\n      swap1\n      pop\n      jump\t// out\n        /* \"#utility.yul\":5792:6211   */\n    tag_49:\n        /* \"#utility.yul\":5958:5962   */\n      0x00\n        /* \"#utility.yul\":5996:5998   */\n      0x20\n        /* \"#utility.yul\":5985:5994   */\n      dup3\n        /* \"#utility.yul\":5981:5999   */\n      add\n        /* \"#utility.yul\":5973:5999   */\n      swap1\n      pop\n        /* \"#utility.yul\":6045:6054   */\n      dup2\n        /* \"#utility.yul\":6039:6043   */\n      dup2\n        /* \"#utility.yul\":6035:6055   */\n      sub\n        /* \"#utility.yul\":6031:6032   */\n      0x00\n        /* \"#utility.yul\":6020:6029   */\n      dup4\n        /* \"#utility.yul\":6016:6033   */\n      add\n        /* \"#utility.yul\":6009:6056   */\n      mstore\n        /* \"#utility.yul\":6073:6204   */\n      tag_144\n        /* \"#utility.yul\":6199:6203   */\n      dup2\n        /* \"#utility.yul\":6073:6204   */\n      tag_76\n      jump\t// in\n    tag_144:\n        /* \"#utility.yul\":6065:6204   */\n      swap1\n      pop\n        /* \"#utility.yul\":5792:6211   */\n      swap2\n      swap1\n      pop\n      jump\t// out\n\n    auxdata: 0xa2646970667358221220f4eadbd2e655fb907b926bf9dbe67815e1ca4e6c5422afda305b725ee236238564736f6c63430008190033\n}\n",
				"bytecode": {
					"linkReferences": {},
					"object": "6080604052348015600e575f80fd5b506107848061001c5f395ff3fe608060405234801561000f575f80fd5b506004361061003f575f3560e01c80631025c370146100435780636e02e41414610073578063e5a60df7146100a3575b5f80fd5b61005d60048036038101906100589190610425565b6100d3565b60405161006a91906104c0565b60405180910390f35b61008d60048036038101906100889190610425565b610206565b60405161009a91906104c0565b60405180910390f35b6100bd60048036038101906100b89190610516565b6102ab565b6040516100ca91906104c0565b60405180910390f35b60605f6040518060400160405280601081526020017f303132333435363738396162636465660000000000000000000000000000000081525090505f835f1b90505f600167ffffffffffffffff8111156101305761012f610541565b5b6040519080825280601f01601f1916602001820160405280156101625781602001600182028036833780820191505090505b5090505f60016020610174919061059b565b60ff16905083600f60f81b848360208110610192576101916105cf565b5b1a60f81b1660f81c60ff16815181106101ae576101ad6105cf565b5b602001015160f81c60f81b825f815181106101cc576101cb6105cf565b5b60200101907effffffffffffffffffffffffffffffffffffffffffffffffffffffffffffff191690815f1a90535081945050505050919050565b60605f820361024c576040518060400160405280600181526020017f300000000000000000000000000000000000000000000000000000000000000081525090506102a6565b5b5f82146102a5575f600a836102629190610629565b9050600a836102719190610659565b925061027c816100d3565b8260405160200161028e9291906106c3565b60405160208183030381529060405291505061024d565b5b919050565b6060600a8260ff16106102f3576040517f08c379a00000000000000000000000000000000000000000000000000000000081526004016102ea90610730565b60405180910390fd5b5f6040518060400160405280600a81526020017f303132333435363738390000000000000000000000000000000000000000000081525090505f818460ff1681518110610343576103426105cf565b5b602001015160f81c60f81b90505f600167ffffffffffffffff81111561036c5761036b610541565b5b6040519080825280601f01601f19166020018201604052801561039e5781602001600182028036833780820191505090505b50905081815f815181106103b5576103b46105cf565b5b60200101907effffffffffffffffffffffffffffffffffffffffffffffffffffffffffffff191690815f1a905350809350505050919050565b5f80fd5b5f819050919050565b610404816103f2565b811461040e575f80fd5b50565b5f8135905061041f816103fb565b92915050565b5f6020828403121561043a576104396103ee565b5b5f61044784828501610411565b91505092915050565b5f81519050919050565b5f82825260208201905092915050565b8281835e5f83830152505050565b5f601f19601f8301169050919050565b5f61049282610450565b61049c818561045a565b93506104ac81856020860161046a565b6104b581610478565b840191505092915050565b5f6020820190508181035f8301526104d88184610488565b905092915050565b5f60ff82169050919050565b6104f5816104e0565b81146104ff575f80fd5b50565b5f81359050610510816104ec565b92915050565b5f6020828403121561052b5761052a6103ee565b5b5f61053884828501610502565b91505092915050565b7f4e487b71000000000000000000000000000000000000000000000000000000005f52604160045260245ffd5b7f4e487b71000000000000000000000000000000000000000000000000000000005f52601160045260245ffd5b5f6105a5826104e0565b91506105b0836104e0565b9250828203905060ff8111156105c9576105c861056e565b5b92915050565b7f4e487b71000000000000000000000000000000000000000000000000000000005f52603260045260245ffd5b7f4e487b71000000000000000000000000000000000000000000000000000000005f52601260045260245ffd5b5f610633826103f2565b915061063e836103f2565b92508261064e5761064d6105fc565b5b828206905092915050565b5f610663826103f2565b915061066e836103f2565b92508261067e5761067d6105fc565b5b828204905092915050565b5f81905092915050565b5f61069d82610450565b6106a78185610689565b93506106b781856020860161046a565b80840191505092915050565b5f6106ce8285610693565b91506106da8284610693565b91508190509392505050565b7f6572726f722076616c75650000000000000000000000000000000000000000005f82015250565b5f61071a600b8361045a565b9150610725826106e6565b602082019050919050565b5f6020820190508181035f8301526107478161070e565b905091905056fea2646970667358221220f4eadbd2e655fb907b926bf9dbe67815e1ca4e6c5422afda305b725ee236238564736f6c63430008190033",
					"opcodes": "PUSH1 0x80 PUSH1 0x40 MSTORE CALLVALUE DUP1 ISZERO PUSH1 0xE JUMPI PUSH0 DUP1 REVERT JUMPDEST POP PUSH2 0x784 DUP1 PUSH2 0x1C PUSH0 CODECOPY PUSH0 RETURN INVALID PUSH1 0x80 PUSH1 0x40 MSTORE CALLVALUE DUP1 ISZERO PUSH2 0xF JUMPI PUSH0 DUP1 REVERT JUMPDEST POP PUSH1 0x4 CALLDATASIZE LT PUSH2 0x3F JUMPI PUSH0 CALLDATALOAD PUSH1 0xE0 SHR DUP1 PUSH4 0x1025C370 EQ PUSH2 0x43 JUMPI DUP1 PUSH4 0x6E02E414 EQ PUSH2 0x73 JUMPI DUP1 PUSH4 0xE5A60DF7 EQ PUSH2 0xA3 JUMPI JUMPDEST PUSH0 DUP1 REVERT JUMPDEST PUSH2 0x5D PUSH1 0x4 DUP1 CALLDATASIZE SUB DUP2 ADD SWAP1 PUSH2 0x58 SWAP2 SWAP1 PUSH2 0x425 JUMP JUMPDEST PUSH2 0xD3 JUMP JUMPDEST PUSH1 0x40 MLOAD PUSH2 0x6A SWAP2 SWAP1 PUSH2 0x4C0 JUMP JUMPDEST PUSH1 0x40 MLOAD DUP1 SWAP2 SUB SWAP1 RETURN JUMPDEST PUSH2 0x8D PUSH1 0x4 DUP1 CALLDATASIZE SUB DUP2 ADD SWAP1 PUSH2 0x88 SWAP2 SWAP1 PUSH2 0x425 JUMP JUMPDEST PUSH2 0x206 JUMP JUMPDEST PUSH1 0x40 MLOAD PUSH2 0x9A SWAP2 SWAP1 PUSH2 0x4C0 JUMP JUMPDEST PUSH1 0x40 MLOAD DUP1 SWAP2 SUB SWAP1 RETURN JUMPDEST PUSH2 0xBD PUSH1 0x4 DUP1 CALLDATASIZE SUB DUP2 ADD SWAP1 PUSH2 0xB8 SWAP2 SWAP1 PUSH2 0x516 JUMP JUMPDEST PUSH2 0x2AB JUMP JUMPDEST PUSH1 0x40 MLOAD PUSH2 0xCA SWAP2 SWAP1 PUSH2 0x4C0 JUMP JUMPDEST PUSH1 0x40 MLOAD DUP1 SWAP2 SUB SWAP1 RETURN JUMPDEST PUSH1 0x60 PUSH0 PUSH1 0x40 MLOAD DUP1 PUSH1 0x40 ADD PUSH1 0x40 MSTORE DUP1 PUSH1 0x10 DUP2 MSTORE PUSH1 0x20 ADD PUSH32 0x3031323334353637383961626364656600000000000000000000000000000000 DUP2 MSTORE POP SWAP1 POP PUSH0 DUP4 PUSH0 SHL SWAP1 POP PUSH0 PUSH1 0x1 PUSH8 0xFFFFFFFFFFFFFFFF DUP2 GT ISZERO PUSH2 0x130 JUMPI PUSH2 0x12F PUSH2 0x541 JUMP JUMPDEST JUMPDEST PUSH1 0x40 MLOAD SWAP1 DUP1 DUP3 MSTORE DUP1 PUSH1 0x1F ADD PUSH1 0x1F NOT AND PUSH1 0x20 ADD DUP3 ADD PUSH1 0x40 MSTORE DUP1 ISZERO PUSH2 0x162 JUMPI DUP2 PUSH1 0x20 ADD PUSH1 0x1 DUP3 MUL DUP1 CALLDATASIZE DUP4 CALLDATACOPY DUP1 DUP3 ADD SWAP2 POP POP SWAP1 POP JUMPDEST POP SWAP1 POP PUSH0 PUSH1 0x1 PUSH1 0x20 PUSH2 0x174 SWAP2 SWAP1 PUSH2 0x59B JUMP JUMPDEST PUSH1 0xFF AND SWAP1 POP DUP4 PUSH1 0xF PUSH1 0xF8 SHL DUP5 DUP4 PUSH1 0x20 DUP2 LT PUSH2 0x192 JUMPI PUSH2 0x191 PUSH2 0x5CF JUMP JUMPDEST JUMPDEST BYTE PUSH1 0xF8 SHL AND PUSH1 0xF8 SHR PUSH1 0xFF AND DUP2 MLOAD DUP2 LT PUSH2 0x1AE JUMPI PUSH2 0x1AD PUSH2 0x5CF JUMP JUMPDEST JUMPDEST PUSH1 0x20 ADD ADD MLOAD PUSH1 0xF8 SHR PUSH1 0xF8 SHL DUP3 PUSH0 DUP2 MLOAD DUP2 LT PUSH2 0x1CC JUMPI PUSH2 0x1CB PUSH2 0x5CF JUMP JUMPDEST JUMPDEST PUSH1 0x20 ADD ADD SWAP1 PUSH31 0xFFFFFFFFFFFFFFFFFFFFFFFFFFFFFFFFFFFFFFFFFFFFFFFFFFFFFFFFFFFFFF NOT AND SWAP1 DUP2 PUSH0 BYTE SWAP1 MSTORE8 POP DUP2 SWAP5 POP POP POP POP POP SWAP2 SWAP1 POP JUMP JUMPDEST PUSH1 0x60 PUSH0 DUP3 SUB PUSH2 0x24C JUMPI PUSH1 0x40 MLOAD DUP1 PUSH1 0x40 ADD PUSH1 0x40 MSTORE DUP1 PUSH1 0x1 DUP2 MSTORE PUSH1 0x20 ADD PUSH32 0x3000000000000000000000000000000000000000000000000000000000000000 DUP2 MSTORE POP SWAP1 POP PUSH2 0x2A6 JUMP JUMPDEST JUMPDEST PUSH0 DUP3 EQ PUSH2 0x2A5 JUMPI PUSH0 PUSH1 0xA DUP4 PUSH2 0x262 SWAP2 SWAP1 PUSH2 0x629 JUMP JUMPDEST SWAP1 POP PUSH1 0xA DUP4 PUSH2 0x271 SWAP2 SWAP1 PUSH2 0x659 JUMP JUMPDEST SWAP3 POP PUSH2 0x27C DUP2 PUSH2 0xD3 JUMP JUMPDEST DUP3 PUSH1 0x40 MLOAD PUSH1 0x20 ADD PUSH2 0x28E SWAP3 SWAP2 SWAP1 PUSH2 0x6C3 JUMP JUMPDEST PUSH1 0x40 MLOAD PUSH1 0x20 DUP2 DUP4 SUB SUB DUP2 MSTORE SWAP1 PUSH1 0x40 MSTORE SWAP2 POP POP PUSH2 0x24D JUMP JUMPDEST JUMPDEST SWAP2 SWAP1 POP JUMP JUMPDEST PUSH1 0x60 PUSH1 0xA DUP3 PUSH1 0xFF AND LT PUSH2 0x2F3 JUMPI PUSH1 0x40 MLOAD PUSH32 0x8C379A000000000000000000000000000000000000000000000000000000000 DUP2 MSTORE PUSH1 0x4 ADD PUSH2 0x2EA SWAP1 PUSH2 0x730 JUMP JUMPDEST PUSH1 0x40 MLOAD DUP1 SWAP2 SUB SWAP1 REVERT JUMPDEST PUSH0 PUSH1 0x40 MLOAD DUP1 PUSH1 0x40 ADD PUSH1 0x40 MSTORE DUP1 PUSH1 0xA DUP2 MSTORE PUSH1 0x20 ADD PUSH32 0x3031323334353637383900000000000000000000000000000000000000000000 DUP2 MSTORE POP SWAP1 POP PUSH0 DUP2 DUP5 PUSH1 0xFF AND DUP2 MLOAD DUP2 LT PUSH2 0x343 JUMPI PUSH2 0x342 PUSH2 0x5CF JUMP JUMPDEST JUMPDEST PUSH1 0x20 ADD ADD MLOAD PUSH1 0xF8 SHR PUSH1 0xF8 SHL SWAP1 POP PUSH0 PUSH1 0x1 PUSH8 0xFFFFFFFFFFFFFFFF DUP2 GT ISZERO PUSH2 0x36C JUMPI PUSH2 0x36B PUSH2 0x541 JUMP JUMPDEST JUMPDEST PUSH1 0x40 MLOAD SWAP1 DUP1 DUP3 MSTORE DUP1 PUSH1 0x1F ADD PUSH1 0x1F NOT AND PUSH1 0x20 ADD DUP3 ADD PUSH1 0x40 MSTORE DUP1 ISZERO PUSH2 0x39E JUMPI DUP2 PUSH1 0x20 ADD PUSH1 0x1 DUP3 MUL DUP1 CALLDATASIZE DUP4 CALLDATACOPY DUP1 DUP3 ADD SWAP2 POP POP SWAP1 POP JUMPDEST POP SWAP1 POP DUP2 DUP2 PUSH0 DUP2 MLOAD DUP2 LT PUSH2 0x3B5 JUMPI PUSH2 0x3B4 PUSH2 0x5CF JUMP JUMPDEST JUMPDEST PUSH1 0x20 ADD ADD SWAP1 PUSH31 0xFFFFFFFFFFFFFFFFFFFFFFFFFFFFFFFFFFFFFFFFFFFFFFFFFFFFFFFFFFFFFF NOT AND SWAP1 DUP2 PUSH0 BYTE SWAP1 MSTORE8 POP DUP1 SWAP4 POP POP POP POP SWAP2 SWAP1 POP JUMP JUMPDEST PUSH0 DUP1 REVERT JUMPDEST PUSH0 DUP2 SWAP1 POP SWAP2 SWAP1 POP JUMP JUMPDEST PUSH2 0x404 DUP2 PUSH2 0x3F2 JUMP JUMPDEST DUP2 EQ PUSH2 0x40E JUMPI PUSH0 DUP1 REVERT JUMPDEST POP JUMP JUMPDEST PUSH0 DUP2 CALLDATALOAD SWAP1 POP PUSH2 0x41F DUP2 PUSH2 0x3FB JUMP JUMPDEST SWAP3 SWAP2 POP POP JUMP JUMPDEST PUSH0 PUSH1 0x20 DUP3 DUP5 SUB SLT ISZERO PUSH2 0x43A JUMPI PUSH2 0x439 PUSH2 0x3EE JUMP JUMPDEST JUMPDEST PUSH0 PUSH2 0x447 DUP5 DUP3 DUP6 ADD PUSH2 0x411 JUMP JUMPDEST SWAP2 POP POP SWAP3 SWAP2 POP POP JUMP JUMPDEST PUSH0 DUP2 MLOAD SWAP1 POP SWAP2 SWAP1 POP JUMP JUMPDEST PUSH0 DUP3 DUP3 MSTORE PUSH1 0x20 DUP3 ADD SWAP1 POP SWAP3 SWAP2 POP POP JUMP JUMPDEST DUP3 DUP2 DUP4 MCOPY PUSH0 DUP4 DUP4 ADD MSTORE POP POP POP JUMP JUMPDEST PUSH0 PUSH1 0x1F NOT PUSH1 0x1F DUP4 ADD AND SWAP1 POP SWAP2 SWAP1 POP JUMP JUMPDEST PUSH0 PUSH2 0x492 DUP3 PUSH2 0x450 JUMP JUMPDEST PUSH2 0x49C DUP2 DUP6 PUSH2 0x45A JUMP JUMPDEST SWAP4 POP PUSH2 0x4AC DUP2 DUP6 PUSH1 0x20 DUP7 ADD PUSH2 0x46A JUMP JUMPDEST PUSH2 0x4B5 DUP2 PUSH2 0x478 JUMP JUMPDEST DUP5 ADD SWAP2 POP POP SWAP3 SWAP2 POP POP JUMP JUMPDEST PUSH0 PUSH1 0x20 DUP3 ADD SWAP1 POP DUP2 DUP2 SUB PUSH0 DUP4 ADD MSTORE PUSH2 0x4D8 DUP2 DUP5 PUSH2 0x488 JUMP JUMPDEST SWAP1 POP SWAP3 SWAP2 POP POP JUMP JUMPDEST PUSH0 PUSH1 0xFF DUP3 AND SWAP1 POP SWAP2 SWAP1 POP JUMP JUMPDEST PUSH2 0x4F5 DUP2 PUSH2 0x4E0 JUMP JUMPDEST DUP2 EQ PUSH2 0x4FF JUMPI PUSH0 DUP1 REVERT JUMPDEST POP JUMP JUMPDEST PUSH0 DUP2 CALLDATALOAD SWAP1 POP PUSH2 0x510 DUP2 PUSH2 0x4EC JUMP JUMPDEST SWAP3 SWAP2 POP POP JUMP JUMPDEST PUSH0 PUSH1 0x20 DUP3 DUP5 SUB SLT ISZERO PUSH2 0x52B JUMPI PUSH2 0x52A PUSH2 0x3EE JUMP JUMPDEST JUMPDEST PUSH0 PUSH2 0x538 DUP5 DUP3 DUP6 ADD PUSH2 0x502 JUMP JUMPDEST SWAP2 POP POP SWAP3 SWAP2 POP POP JUMP JUMPDEST PUSH32 0x4E487B7100000000000000000000000000000000000000000000000000000000 PUSH0 MSTORE PUSH1 0x41 PUSH1 0x4 MSTORE PUSH1 0x24 PUSH0 REVERT JUMPDEST PUSH32 0x4E487B7100000000000000000000000000000000000000000000000000000000 PUSH0 MSTORE PUSH1 0x11 PUSH1 0x4 MSTORE PUSH1 0x24 PUSH0 REVERT JUMPDEST PUSH0 PUSH2 0x5A5 DUP3 PUSH2 0x4E0 JUMP JUMPDEST SWAP2 POP PUSH2 0x5B0 DUP4 PUSH2 0x4E0 JUMP JUMPDEST SWAP3 POP DUP3 DUP3 SUB SWAP1 POP PUSH1 0xFF DUP2 GT ISZERO PUSH2 0x5C9 JUMPI PUSH2 0x5C8 PUSH2 0x56E JUMP JUMPDEST JUMPDEST SWAP3 SWAP2 POP POP JUMP JUMPDEST PUSH32 0x4E487B7100000000000000000000000000000000000000000000000000000000 PUSH0 MSTORE PUSH1 0x32 PUSH1 0x4 MSTORE PUSH1 0x24 PUSH0 REVERT JUMPDEST PUSH32 0x4E487B7100000000000000000000000000000000000000000000000000000000 PUSH0 MSTORE PUSH1 0x12 PUSH1 0x4 MSTORE PUSH1 0x24 PUSH0 REVERT JUMPDEST PUSH0 PUSH2 0x633 DUP3 PUSH2 0x3F2 JUMP JUMPDEST SWAP2 POP PUSH2 0x63E DUP4 PUSH2 0x3F2 JUMP JUMPDEST SWAP3 POP DUP3 PUSH2 0x64E JUMPI PUSH2 0x64D PUSH2 0x5FC JUMP JUMPDEST JUMPDEST DUP3 DUP3 MOD SWAP1 POP SWAP3 SWAP2 POP POP JUMP JUMPDEST PUSH0 PUSH2 0x663 DUP3 PUSH2 0x3F2 JUMP JUMPDEST SWAP2 POP PUSH2 0x66E DUP4 PUSH2 0x3F2 JUMP JUMPDEST SWAP3 POP DUP3 PUSH2 0x67E JUMPI PUSH2 0x67D PUSH2 0x5FC JUMP JUMPDEST JUMPDEST DUP3 DUP3 DIV SWAP1 POP SWAP3 SWAP2 POP POP JUMP JUMPDEST PUSH0 DUP2 SWAP1 POP SWAP3 SWAP2 POP POP JUMP JUMPDEST PUSH0 PUSH2 0x69D DUP3 PUSH2 0x450 JUMP JUMPDEST PUSH2 0x6A7 DUP2 DUP6 PUSH2 0x689 JUMP JUMPDEST SWAP4 POP PUSH2 0x6B7 DUP2 DUP6 PUSH1 0x20 DUP7 ADD PUSH2 0x46A JUMP JUMPDEST DUP1 DUP5 ADD SWAP2 POP POP SWAP3 SWAP2 POP POP JUMP JUMPDEST PUSH0 PUSH2 0x6CE DUP3 DUP6 PUSH2 0x693 JUMP JUMPDEST SWAP2 POP PUSH2 0x6DA DUP3 DUP5 PUSH2 0x693 JUMP JUMPDEST SWAP2 POP DUP2 SWAP1 POP SWAP4 SWAP3 POP POP POP JUMP JUMPDEST PUSH32 0x6572726F722076616C7565000000000000000000000000000000000000000000 PUSH0 DUP3 ADD MSTORE POP JUMP JUMPDEST PUSH0 PUSH2 0x71A PUSH1 0xB DUP4 PUSH2 0x45A JUMP JUMPDEST SWAP2 POP PUSH2 0x725 DUP3 PUSH2 0x6E6 JUMP JUMPDEST PUSH1 0x20 DUP3 ADD SWAP1 POP SWAP2 SWAP1 POP JUMP JUMPDEST PUSH0 PUSH1 0x20 DUP3 ADD SWAP1 POP DUP2 DUP2 SUB PUSH0 DUP4 ADD MSTORE PUSH2 0x747 DUP2 PUSH2 0x70E JUMP JUMPDEST SWAP1 POP SWAP2 SWAP1 POP JUMP INVALID LOG2 PUSH5 0x6970667358 0x22 SLT KECCAK256 DELEGATECALL 0xEA 0xDB 0xD2 0xE6 SSTORE 0xFB SWAP1 PUSH28 0x926BF9DBE67815E1CA4E6C5422AFDA305B725EE236238564736F6C63 NUMBER STOP ADDMOD NOT STOP CALLER "
				},
				"gasEstimates": {
					"creation": {
						"codeDepositCost": "384800",
						"executionCost": "422",
						"totalCost": "385222"
					},
					"external": {
						"toStr(uint8)": "infinite",
						"toStr1(uint256)": "infinite",
						"toStr2(uint256)": "infinite"
					}
				},
				"methodIdentifiers": {
					"toStr(uint8)": "e5a60df7",
					"toStr1(uint256)": "1025c370",
					"toStr2(uint256)": "6e02e414"
				}
			},
			"storageLayout": {
				"storage": [],
				"types": null
			},
			"userdoc": {
				"kind": "user",
				"methods": {},
				"version": 1
			}
		}
	}
}