{
	"contracts/NetSpace.sol": {
		"Demo1": {
			"abi": [
				{
					"inputs": [],
					"name": "get",
					"outputs": [
						{
							"internalType": "uint256",
							"name": "",
							"type": "uint256"
						}
					],
					"stateMutability": "view",
					"type": "function"
				},
				{
					"inputs": [
						{
							"internalType": "uint256",
							"name": "_num",
							"type": "uint256"
						}
					],
					"name": "set",
					"outputs": [],
					"stateMutability": "nonpayable",
					"type": "function"
				},
				{
					"inputs": [],
					"name": "test",
					"outputs": [
						{
							"internalType": "uint256",
							"name": "",
							"type": "uint256"
						}
					],
					"stateMutability": "pure",
					"type": "function"
				}
			],
			"devdoc": {
				"kind": "dev",
				"methods": {},
				"version": 1
			},
			"evm": {
				"assembly": "    /* \"contracts/NetSpace.sol\":541:947  contract Demo1 {... */\n  mstore(0x40, 0x80)\n  callvalue\n  dup1\n  iszero\n  tag_1\n  jumpi\n  0x00\n  dup1\n  revert\ntag_1:\n  pop\n  dataSize(sub_0)\n  dup1\n  dataOffset(sub_0)\n  0x00\n  codecopy\n  0x00\n  return\nstop\n\nsub_0: assembly {\n        /* \"contracts/NetSpace.sol\":541:947  contract Demo1 {... */\n      mstore(0x40, 0x80)\n      callvalue\n      dup1\n      iszero\n      tag_1\n      jumpi\n      0x00\n      dup1\n      revert\n    tag_1:\n      pop\n      jumpi(tag_2, lt(calldatasize, 0x04))\n      shr(0xe0, calldataload(0x00))\n      dup1\n      0x60fe47b1\n      eq\n      tag_3\n      jumpi\n      dup1\n      0x6d4ce63c\n      eq\n      tag_4\n      jumpi\n      dup1\n      0xf8a8fd6d\n      eq\n      tag_5\n      jumpi\n    tag_2:\n      0x00\n      dup1\n      revert\n        /* \"contracts/NetSpace.sol\":646:706  function set(uint256 _num) public{... */\n    tag_3:\n      tag_6\n      0x04\n      dup1\n      calldatasize\n      sub\n      dup2\n      add\n      swap1\n      tag_7\n      swap2\n      swap1\n      tag_8\n      jump\t// in\n    tag_7:\n      tag_9\n      jump\t// in\n    tag_6:\n      stop\n        /* \"contracts/NetSpace.sol\":785:855  function get() public view returns(uint256){... */\n    tag_4:\n      tag_10\n      tag_11\n      jump\t// in\n    tag_10:\n      mload(0x40)\n      tag_12\n      swap2\n      swap1\n      tag_13\n      jump\t// in\n    tag_12:\n      mload(0x40)\n      dup1\n      swap2\n      sub\n      swap1\n      return\n        /* \"contracts/NetSpace.sol\":861:936  function test() public pure returns(uint256){... */\n    tag_5:\n      tag_14\n      tag_15\n      jump\t// in\n    tag_14:\n      mload(0x40)\n      tag_16\n      swap2\n      swap1\n      tag_13\n      jump\t// in\n    tag_16:\n      mload(0x40)\n      dup1\n      swap2\n      sub\n      swap1\n      return\n        /* \"contracts/NetSpace.sol\":646:706  function set(uint256 _num) public{... */\n    tag_9:\n        /* \"contracts/NetSpace.sol\":695:699  _num */\n      dup1\n        /* \"contracts/NetSpace.sol\":689:692  num */\n      0x00\n        /* \"contracts/NetSpace.sol\":689:699  num = _num */\n      dup2\n      swap1\n      sstore\n      pop\n        /* \"contracts/NetSpace.sol\":646:706  function set(uint256 _num) public{... */\n      pop\n      jump\t// out\n        /* \"contracts/NetSpace.sol\":785:855  function get() public view returns(uint256){... */\n    tag_11:\n        /* \"contracts/NetSpace.sol\":820:827  uint256 */\n      0x00\n        /* \"contracts/NetSpace.sol\":845:848  num */\n      dup1\n      sload\n        /* \"contracts/NetSpace.sol\":838:848  return num */\n      swap1\n      pop\n        /* \"contracts/NetSpace.sol\":785:855  function get() public view returns(uint256){... */\n      swap1\n      jump\t// out\n        /* \"contracts/NetSpace.sol\":861:936  function test() public pure returns(uint256){... */\n    tag_15:\n        /* \"contracts/NetSpace.sol\":897:904  uint256 */\n      0x00\n        /* \"contracts/NetSpace.sol\":922:929  2**3**2 */\n      0x0200\n        /* \"contracts/NetSpace.sol\":915:929  return 2**3**2 */\n      swap1\n      pop\n        /* \"contracts/NetSpace.sol\":861:936  function test() public pure returns(uint256){... */\n      swap1\n      jump\t// out\n        /* \"#utility.yul\":88:205   */\n    tag_21:\n        /* \"#utility.yul\":197:198   */\n      0x00\n        /* \"#utility.yul\":194:195   */\n      dup1\n        /* \"#utility.yul\":187:199   */\n      revert\n        /* \"#utility.yul\":334:411   */\n    tag_23:\n        /* \"#utility.yul\":371:378   */\n      0x00\n        /* \"#utility.yul\":400:405   */\n      dup2\n        /* \"#utility.yul\":389:405   */\n      swap1\n      pop\n        /* \"#utility.yul\":334:411   */\n      swap2\n      swap1\n      pop\n      jump\t// out\n        /* \"#utility.yul\":417:539   */\n    tag_24:\n        /* \"#utility.yul\":490:514   */\n      tag_33\n        /* \"#utility.yul\":508:513   */\n      dup2\n        /* \"#utility.yul\":490:514   */\n      tag_23\n      jump\t// in\n    tag_33:\n        /* \"#utility.yul\":483:488   */\n      dup2\n        /* \"#utility.yul\":480:515   */\n      eq\n        /* \"#utility.yul\":470:533   */\n      tag_34\n      jumpi\n        /* \"#utility.yul\":529:530   */\n      0x00\n        /* \"#utility.yul\":526:527   */\n      dup1\n        /* \"#utility.yul\":519:531   */\n      revert\n        /* \"#utility.yul\":470:533   */\n    tag_34:\n        /* \"#utility.yul\":417:539   */\n      pop\n      jump\t// out\n        /* \"#utility.yul\":545:684   */\n    tag_25:\n        /* \"#utility.yul\":591:596   */\n      0x00\n        /* \"#utility.yul\":629:635   */\n      dup2\n        /* \"#utility.yul\":616:636   */\n      calldataload\n        /* \"#utility.yul\":607:636   */\n      swap1\n      pop\n        /* \"#utility.yul\":645:678   */\n      tag_36\n        /* \"#utility.yul\":672:677   */\n      dup2\n        /* \"#utility.yul\":645:678   */\n      tag_24\n      jump\t// in\n    tag_36:\n        /* \"#utility.yul\":545:684   */\n      swap3\n      swap2\n      pop\n      pop\n      jump\t// out\n        /* \"#utility.yul\":690:1019   */\n    tag_8:\n        /* \"#utility.yul\":749:755   */\n      0x00\n        /* \"#utility.yul\":798:800   */\n      0x20\n        /* \"#utility.yul\":786:795   */\n      dup3\n        /* \"#utility.yul\":777:784   */\n      dup5\n        /* \"#utility.yul\":773:796   */\n      sub\n        /* \"#utility.yul\":769:801   */\n      slt\n        /* \"#utility.yul\":766:885   */\n      iszero\n      tag_38\n      jumpi\n        /* \"#utility.yul\":804:883   */\n      tag_39\n      tag_21\n      jump\t// in\n    tag_39:\n        /* \"#utility.yul\":766:885   */\n    tag_38:\n        /* \"#utility.yul\":924:925   */\n      0x00\n        /* \"#utility.yul\":949:1002   */\n      tag_40\n        /* \"#utility.yul\":994:1001   */\n      dup5\n        /* \"#utility.yul\":985:991   */\n      dup3\n        /* \"#utility.yul\":974:983   */\n      dup6\n        /* \"#utility.yul\":970:992   */\n      add\n        /* \"#utility.yul\":949:1002   */\n      tag_25\n      jump\t// in\n    tag_40:\n        /* \"#utility.yul\":939:1002   */\n      swap2\n      pop\n        /* \"#utility.yul\":895:1012   */\n      pop\n        /* \"#utility.yul\":690:1019   */\n      swap3\n      swap2\n      pop\n      pop\n      jump\t// out\n        /* \"#utility.yul\":1025:1143   */\n    tag_26:\n        /* \"#utility.yul\":1112:1136   */\n      tag_42\n        /* \"#utility.yul\":1130:1135   */\n      dup2\n        /* \"#utility.yul\":1112:1136   */\n      tag_23\n      jump\t// in\n    tag_42:\n        /* \"#utility.yul\":1107:1110   */\n      dup3\n        /* \"#utility.yul\":1100:1137   */\n      mstore\n        /* \"#utility.yul\":1025:1143   */\n      pop\n      pop\n      jump\t// out\n        /* \"#utility.yul\":1149:1371   */\n    tag_13:\n        /* \"#utility.yul\":1242:1246   */\n      0x00\n        /* \"#utility.yul\":1280:1282   */\n      0x20\n        /* \"#utility.yul\":1269:1278   */\n      dup3\n        /* \"#utility.yul\":1265:1283   */\n      add\n        /* \"#utility.yul\":1257:1283   */\n      swap1\n      pop\n        /* \"#utility.yul\":1293:1364   */\n      tag_44\n        /* \"#utility.yul\":1361:1362   */\n      0x00\n        /* \"#utility.yul\":1350:1359   */\n      dup4\n        /* \"#utility.yul\":1346:1363   */\n      add\n        /* \"#utility.yul\":1337:1343   */\n      dup5\n        /* \"#utility.yul\":1293:1364   */\n      tag_26\n      jump\t// in\n    tag_44:\n        /* \"#utility.yul\":1149:1371   */\n      swap3\n      swap2\n      pop\n      pop\n      jump\t// out\n\n    auxdata: 0xa2646970667358221220039c11dc521100e4b4f966d412f3ed188f5014dd1f170175041abbf5861a7a2c64736f6c63430008140033\n}\n",
				"bytecode": {
					"linkReferences": {},
					"object": "608060405234801561000f575f80fd5b506101758061001d5f395ff3fe608060405234801561000f575f80fd5b506004361061003f575f3560e01c806360fe47b1146100435780636d4ce63c1461005f578063f8a8fd6d1461007d575b5f80fd5b61005d600480360381019061005891906100ec565b61009b565b005b6100676100a4565b6040516100749190610126565b60405180910390f35b6100856100ac565b6040516100929190610126565b60405180910390f35b805f8190555050565b5f8054905090565b5f610200905090565b5f80fd5b5f819050919050565b6100cb816100b9565b81146100d5575f80fd5b50565b5f813590506100e6816100c2565b92915050565b5f60208284031215610101576101006100b5565b5b5f61010e848285016100d8565b91505092915050565b610120816100b9565b82525050565b5f6020820190506101395f830184610117565b9291505056fea2646970667358221220039c11dc521100e4b4f966d412f3ed188f5014dd1f170175041abbf5861a7a2c64736f6c63430008140033",
					"opcodes": "PUSH1 0x80 PUSH1 0x40 MSTORE CALLVALUE DUP1 ISZERO PUSH2 0xF JUMPI PUSH0 DUP1 REVERT JUMPDEST POP PUSH2 0x175 DUP1 PUSH2 0x1D PUSH0 CODECOPY PUSH0 RETURN INVALID PUSH1 0x80 PUSH1 0x40 MSTORE CALLVALUE DUP1 ISZERO PUSH2 0xF JUMPI PUSH0 DUP1 REVERT JUMPDEST POP PUSH1 0x4 CALLDATASIZE LT PUSH2 0x3F JUMPI PUSH0 CALLDATALOAD PUSH1 0xE0 SHR DUP1 PUSH4 0x60FE47B1 EQ PUSH2 0x43 JUMPI DUP1 PUSH4 0x6D4CE63C EQ PUSH2 0x5F JUMPI DUP1 PUSH4 0xF8A8FD6D EQ PUSH2 0x7D JUMPI JUMPDEST PUSH0 DUP1 REVERT JUMPDEST PUSH2 0x5D PUSH1 0x4 DUP1 CALLDATASIZE SUB DUP2 ADD SWAP1 PUSH2 0x58 SWAP2 SWAP1 PUSH2 0xEC JUMP JUMPDEST PUSH2 0x9B JUMP JUMPDEST STOP JUMPDEST PUSH2 0x67 PUSH2 0xA4 JUMP JUMPDEST PUSH1 0x40 MLOAD PUSH2 0x74 SWAP2 SWAP1 PUSH2 0x126 JUMP JUMPDEST PUSH1 0x40 MLOAD DUP1 SWAP2 SUB SWAP1 RETURN JUMPDEST PUSH2 0x85 PUSH2 0xAC JUMP JUMPDEST PUSH1 0x40 MLOAD PUSH2 0x92 SWAP2 SWAP1 PUSH2 0x126 JUMP JUMPDEST PUSH1 0x40 MLOAD DUP1 SWAP2 SUB SWAP1 RETURN JUMPDEST DUP1 PUSH0 DUP2 SWAP1 SSTORE POP POP JUMP JUMPDEST PUSH0 DUP1 SLOAD SWAP1 POP SWAP1 JUMP JUMPDEST PUSH0 PUSH2 0x200 SWAP1 POP SWAP1 JUMP JUMPDEST PUSH0 DUP1 REVERT JUMPDEST PUSH0 DUP2 SWAP1 POP SWAP2 SWAP1 POP JUMP JUMPDEST PUSH2 0xCB DUP2 PUSH2 0xB9 JUMP JUMPDEST DUP2 EQ PUSH2 0xD5 JUMPI PUSH0 DUP1 REVERT JUMPDEST POP JUMP JUMPDEST PUSH0 DUP2 CALLDATALOAD SWAP1 POP PUSH2 0xE6 DUP2 PUSH2 0xC2 JUMP JUMPDEST SWAP3 SWAP2 POP POP JUMP JUMPDEST PUSH0 PUSH1 0x20 DUP3 DUP5 SUB SLT ISZERO PUSH2 0x101 JUMPI PUSH2 0x100 PUSH2 0xB5 JUMP JUMPDEST JUMPDEST PUSH0 PUSH2 0x10E DUP5 DUP3 DUP6 ADD PUSH2 0xD8 JUMP JUMPDEST SWAP2 POP POP SWAP3 SWAP2 POP POP JUMP JUMPDEST PUSH2 0x120 DUP2 PUSH2 0xB9 JUMP JUMPDEST DUP3 MSTORE POP POP JUMP JUMPDEST PUSH0 PUSH1 0x20 DUP3 ADD SWAP1 POP PUSH2 0x139 PUSH0 DUP4 ADD DUP5 PUSH2 0x117 JUMP JUMPDEST SWAP3 SWAP2 POP POP JUMP INVALID LOG2 PUSH5 0x6970667358 0x22 SLT KECCAK256 SUB SWAP13 GT 0xDC MSTORE GT STOP 0xE4 0xB4 0xF9 PUSH7 0xD412F3ED188F50 EQ 0xDD 0x1F OR ADD PUSH22 0x41ABBF5861A7A2C64736F6C63430008140033000000 "
				},
				"gasEstimates": {
					"creation": {
						"codeDepositCost": "74600",
						"executionCost": "121",
						"totalCost": "74721"
					},
					"external": {
						"get()": "2432",
						"set(uint256)": "22492",
						"test()": "354"
					}
				},
				"methodIdentifiers": {
					"get()": "6d4ce63c",
					"set(uint256)": "60fe47b1",
					"test()": "f8a8fd6d"
				}
			},
			"storageLayout": {
				"storage": [
					{
						"astId": 41,
						"contract": "contracts/NetSpace.sol:Demo1",
						"label": "num",
						"offset": 0,
						"slot": "0",
						"type": "t_uint256"
					},
					{
						"astId": 43,
						"contract": "contracts/NetSpace.sol:Demo1",
						"label": "num1",
						"offset": 0,
						"slot": "1",
						"type": "t_uint256"
					}
				],
				"types": {
					"t_uint256": {
						"encoding": "inplace",
						"label": "uint256",
						"numberOfBytes": "32"
					}
				}
			},
			"userdoc": {
				"kind": "user",
				"methods": {
					"get()": {
						"notice": "获取状态变量并将值返回aaaa"
					},
					"set(uint256)": {
						"notice": "将_num存储到状态变量num"
					}
				},
				"version": 1
			}
		}
	}
}