{
	"contracts/EtherWei.sol": {
		"Test": {
			"abi": [
				{
					"anonymous": false,
					"inputs": [
						{
							"indexed": false,
							"internalType": "string",
							"name": "functionName",
							"type": "string"
						},
						{
							"indexed": false,
							"internalType": "uint256",
							"name": "amount",
							"type": "uint256"
						}
					],
					"name": "Log",
					"type": "event"
				},
				{
					"stateMutability": "payable",
					"type": "fallback"
				},
				{
					"inputs": [
						{
							"internalType": "address",
							"name": "addr",
							"type": "address"
						}
					],
					"name": "callEther",
					"outputs": [
						{
							"internalType": "bool",
							"name": "",
							"type": "bool"
						}
					],
					"stateMutability": "nonpayable",
					"type": "function"
				},
				{
					"inputs": [
						{
							"internalType": "address",
							"name": "addr",
							"type": "address"
						}
					],
					"name": "sendEther",
					"outputs": [
						{
							"internalType": "bool",
							"name": "",
							"type": "bool"
						}
					],
					"stateMutability": "nonpayable",
					"type": "function"
				},
				{
					"inputs": [
						{
							"internalType": "address",
							"name": "addr",
							"type": "address"
						}
					],
					"name": "transferEther",
					"outputs": [],
					"stateMutability": "nonpayable",
					"type": "function"
				},
				{
					"stateMutability": "payable",
					"type": "receive"
				}
			],
			"devdoc": {
				"kind": "dev",
				"methods": {},
				"version": 1
			},
			"evm": {
				"assembly": "    /* \"contracts/EtherWei.sol\":1215:1916  contract Test{... */\n  mstore(0x40, 0x80)\n  callvalue\n  dup1\n  iszero\n  tag_1\n  jumpi\n  0x00\n  dup1\n  revert\ntag_1:\n  pop\n  dataSize(sub_0)\n  dup1\n  dataOffset(sub_0)\n  0x00\n  codecopy\n  0x00\n  return\nstop\n\nsub_0: assembly {\n        /* \"contracts/EtherWei.sol\":1215:1916  contract Test{... */\n      mstore(0x40, 0x80)\n      jumpi(tag_1, lt(calldatasize, 0x04))\n      shr(0xe0, calldataload(0x00))\n      dup1\n      0x48c981e2\n      eq\n      tag_3\n      jumpi\n      dup1\n      0x6b55e991\n      eq\n      tag_4\n      jumpi\n      dup1\n      0x6d6e2411\n      eq\n      tag_5\n      jumpi\n      jump(tag_2)\n    tag_1:\n      jumpi(tag_2, calldatasize)\n        /* \"contracts/EtherWei.sol\":1425:1449  Log(\"receive\",msg.value) */\n      0xdd970dd9b5bfe707922155b058a407655cb18288b807e2216442bca8ad83d6b5\n        /* \"contracts/EtherWei.sol\":1439:1448  msg.value */\n      callvalue\n        /* \"contracts/EtherWei.sol\":1425:1449  Log(\"receive\",msg.value) */\n      mload(0x40)\n      tag_8\n      swap2\n      swap1\n      tag_9\n      jump\t// in\n    tag_8:\n      mload(0x40)\n      dup1\n      swap2\n      sub\n      swap1\n      log1\n        /* \"contracts/EtherWei.sol\":1215:1916  contract Test{... */\n      stop\n    tag_2:\n        /* \"contracts/EtherWei.sol\":1340:1365  Log(\"fallback\",msg.value) */\n      0xdd970dd9b5bfe707922155b058a407655cb18288b807e2216442bca8ad83d6b5\n        /* \"contracts/EtherWei.sol\":1355:1364  msg.value */\n      callvalue\n        /* \"contracts/EtherWei.sol\":1340:1365  Log(\"fallback\",msg.value) */\n      mload(0x40)\n      tag_12\n      swap2\n      swap1\n      tag_13\n      jump\t// in\n    tag_12:\n      mload(0x40)\n      dup1\n      swap2\n      sub\n      swap1\n      log1\n        /* \"contracts/EtherWei.sol\":1215:1916  contract Test{... */\n      stop\n        /* \"contracts/EtherWei.sol\":1465:1604  function sendEther(address addr) public returns (bool){... */\n    tag_3:\n      callvalue\n      dup1\n      iszero\n      tag_14\n      jumpi\n      0x00\n      dup1\n      revert\n    tag_14:\n      pop\n      tag_15\n      0x04\n      dup1\n      calldatasize\n      sub\n      dup2\n      add\n      swap1\n      tag_16\n      swap2\n      swap1\n      tag_17\n      jump\t// in\n    tag_16:\n      tag_18\n      jump\t// in\n    tag_15:\n      mload(0x40)\n      tag_19\n      swap2\n      swap1\n      tag_20\n      jump\t// in\n    tag_19:\n      mload(0x40)\n      dup1\n      swap2\n      sub\n      swap1\n      return\n        /* \"contracts/EtherWei.sol\":1613:1706  function transferEther(address addr) public{... */\n    tag_4:\n      callvalue\n      dup1\n      iszero\n      tag_21\n      jumpi\n      0x00\n      dup1\n      revert\n    tag_21:\n      pop\n      tag_22\n      0x04\n      dup1\n      calldatasize\n      sub\n      dup2\n      add\n      swap1\n      tag_23\n      swap2\n      swap1\n      tag_17\n      jump\t// in\n    tag_23:\n      tag_24\n      jump\t// in\n    tag_22:\n      stop\n        /* \"contracts/EtherWei.sol\":1715:1908  function callEther(address addr) public returns (bool){... */\n    tag_5:\n      callvalue\n      dup1\n      iszero\n      tag_25\n      jumpi\n      0x00\n      dup1\n      revert\n    tag_25:\n      pop\n      tag_26\n      0x04\n      dup1\n      calldatasize\n      sub\n      dup2\n      add\n      swap1\n      tag_27\n      swap2\n      swap1\n      tag_17\n      jump\t// in\n    tag_27:\n      tag_28\n      jump\t// in\n    tag_26:\n      mload(0x40)\n      tag_29\n      swap2\n      swap1\n      tag_20\n      jump\t// in\n    tag_29:\n      mload(0x40)\n      dup1\n      swap2\n      sub\n      swap1\n      return\n        /* \"contracts/EtherWei.sol\":1465:1604  function sendEther(address addr) public returns (bool){... */\n    tag_18:\n        /* \"contracts/EtherWei.sol\":1514:1518  bool */\n      0x00\n        /* \"contracts/EtherWei.sol\":1530:1541  bool result */\n      dup1\n        /* \"contracts/EtherWei.sol\":1553:1557  addr */\n      dup3\n        /* \"contracts/EtherWei.sol\":1545:1563  payable(addr).send */\n      0xffffffffffffffffffffffffffffffffffffffff\n      and\n        /* \"contracts/EtherWei.sol\":1545:1572  payable(addr).send(1 ether) */\n      0x08fc\n        /* \"contracts/EtherWei.sol\":1564:1571  1 ether */\n      0x0de0b6b3a7640000\n        /* \"contracts/EtherWei.sol\":1545:1572  payable(addr).send(1 ether) */\n      swap1\n      dup2\n      iszero\n      mul\n      swap1\n      mload(0x40)\n      0x00\n      mload(0x40)\n      dup1\n      dup4\n      sub\n      dup2\n      dup6\n      dup9\n      dup9\n      call\n      swap4\n      pop\n      pop\n      pop\n      pop\n        /* \"contracts/EtherWei.sol\":1530:1572  bool result  = payable(addr).send(1 ether) */\n      swap1\n      pop\n        /* \"contracts/EtherWei.sol\":1590:1596  result */\n      dup1\n        /* \"contracts/EtherWei.sol\":1583:1596  return result */\n      swap2\n      pop\n      pop\n        /* \"contracts/EtherWei.sol\":1465:1604  function sendEther(address addr) public returns (bool){... */\n      swap2\n      swap1\n      pop\n      jump\t// out\n        /* \"contracts/EtherWei.sol\":1613:1706  function transferEther(address addr) public{... */\n    tag_24:\n        /* \"contracts/EtherWei.sol\":1675:1679  addr */\n      dup1\n        /* \"contracts/EtherWei.sol\":1667:1689  payable(addr).transfer */\n      0xffffffffffffffffffffffffffffffffffffffff\n      and\n        /* \"contracts/EtherWei.sol\":1667:1698  payable(addr).transfer(1 ether) */\n      0x08fc\n        /* \"contracts/EtherWei.sol\":1690:1697  1 ether */\n      0x0de0b6b3a7640000\n        /* \"contracts/EtherWei.sol\":1667:1698  payable(addr).transfer(1 ether) */\n      swap1\n      dup2\n      iszero\n      mul\n      swap1\n      mload(0x40)\n      0x00\n      mload(0x40)\n      dup1\n      dup4\n      sub\n      dup2\n      dup6\n      dup9\n      dup9\n      call\n      swap4\n      pop\n      pop\n      pop\n      pop\n      iszero\n      dup1\n      iszero\n      tag_34\n      jumpi\n      returndatasize\n      0x00\n      dup1\n      returndatacopy\n      revert(0x00, returndatasize)\n    tag_34:\n      pop\n        /* \"contracts/EtherWei.sol\":1613:1706  function transferEther(address addr) public{... */\n      pop\n      jump\t// out\n        /* \"contracts/EtherWei.sol\":1715:1908  function callEther(address addr) public returns (bool){... */\n    tag_28:\n        /* \"contracts/EtherWei.sol\":1764:1768  bool */\n      0x00\n        /* \"contracts/EtherWei.sol\":1780:1791  bool result */\n      dup1\n        /* \"contracts/EtherWei.sol\":1804:1808  addr */\n      dup3\n        /* \"contracts/EtherWei.sol\":1796:1814  payable(addr).call */\n      0xffffffffffffffffffffffffffffffffffffffff\n      and\n        /* \"contracts/EtherWei.sol\":1822:1829  1 ether */\n      0x0de0b6b3a7640000\n        /* \"contracts/EtherWei.sol\":1867:1875  10 ether */\n      0x8ac7230489e80000\n        /* \"contracts/EtherWei.sol\":1831:1876  abi.encodeWithSignature(\"deposit()\",10 ether) */\n      add(0x24, mload(0x40))\n      tag_36\n      swap2\n      swap1\n      tag_37\n      jump\t// in\n    tag_36:\n      mload(0x40)\n      0x20\n      dup2\n      dup4\n      sub\n      sub\n      dup2\n      mstore\n      swap1\n      0x40\n      mstore\n      and(not(0xffffffffffffffffffffffffffffffffffffffffffffffffffffffff), 0xd0e30db000000000000000000000000000000000000000000000000000000000)\n      0x20\n      dup3\n      add\n      dup1\n      mload\n      0xffffffffffffffffffffffffffffffffffffffffffffffffffffffff\n      dup4\n      dup2\n      dup4\n      and\n      or\n      dup4\n      mstore\n      pop\n      pop\n      pop\n      pop\n        /* \"contracts/EtherWei.sol\":1796:1877  payable(addr).call{value: 1 ether}(abi.encodeWithSignature(\"deposit()\",10 ether)) */\n      mload(0x40)\n      tag_38\n      swap2\n      swap1\n      tag_39\n      jump\t// in\n    tag_38:\n      0x00\n      mload(0x40)\n      dup1\n      dup4\n      sub\n      dup2\n      dup6\n      dup8\n      gas\n      call\n      swap3\n      pop\n      pop\n      pop\n      returndatasize\n      dup1\n      0x00\n      dup2\n      eq\n      tag_42\n      jumpi\n      mload(0x40)\n      swap2\n      pop\n      and(add(returndatasize, 0x3f), not(0x1f))\n      dup3\n      add\n      0x40\n      mstore\n      returndatasize\n      dup3\n      mstore\n      returndatasize\n      0x00\n      0x20\n      dup5\n      add\n      returndatacopy\n      jump(tag_41)\n    tag_42:\n      0x60\n      swap2\n      pop\n    tag_41:\n      pop\n        /* \"contracts/EtherWei.sol\":1779:1877  (bool result,) = payable(addr).call{value: 1 ether}(abi.encodeWithSignature(\"deposit()\",10 ether)) */\n      pop\n      swap1\n      pop\n        /* \"contracts/EtherWei.sol\":1894:1900  result */\n      dup1\n        /* \"contracts/EtherWei.sol\":1887:1900  return result */\n      swap2\n      pop\n      pop\n        /* \"contracts/EtherWei.sol\":1715:1908  function callEther(address addr) public returns (bool){... */\n      swap2\n      swap1\n      pop\n      jump\t// out\n        /* \"#utility.yul\":7:176   */\n    tag_43:\n        /* \"#utility.yul\":91:102   */\n      0x00\n        /* \"#utility.yul\":125:131   */\n      dup3\n        /* \"#utility.yul\":120:123   */\n      dup3\n        /* \"#utility.yul\":113:132   */\n      mstore\n        /* \"#utility.yul\":165:169   */\n      0x20\n        /* \"#utility.yul\":160:163   */\n      dup3\n        /* \"#utility.yul\":156:170   */\n      add\n        /* \"#utility.yul\":141:170   */\n      swap1\n      pop\n        /* \"#utility.yul\":7:176   */\n      swap3\n      swap2\n      pop\n      pop\n      jump\t// out\n        /* \"#utility.yul\":182:339   */\n    tag_44:\n        /* \"#utility.yul\":322:331   */\n      0x7265636569766500000000000000000000000000000000000000000000000000\n        /* \"#utility.yul\":318:319   */\n      0x00\n        /* \"#utility.yul\":310:316   */\n      dup3\n        /* \"#utility.yul\":306:320   */\n      add\n        /* \"#utility.yul\":299:332   */\n      mstore\n        /* \"#utility.yul\":182:339   */\n      pop\n      jump\t// out\n        /* \"#utility.yul\":345:710   */\n    tag_45:\n        /* \"#utility.yul\":487:490   */\n      0x00\n        /* \"#utility.yul\":508:574   */\n      tag_72\n        /* \"#utility.yul\":572:573   */\n      0x07\n        /* \"#utility.yul\":567:570   */\n      dup4\n        /* \"#utility.yul\":508:574   */\n      tag_43\n      jump\t// in\n    tag_72:\n        /* \"#utility.yul\":501:574   */\n      swap2\n      pop\n        /* \"#utility.yul\":583:676   */\n      tag_73\n        /* \"#utility.yul\":672:675   */\n      dup3\n        /* \"#utility.yul\":583:676   */\n      tag_44\n      jump\t// in\n    tag_73:\n        /* \"#utility.yul\":701:703   */\n      0x20\n        /* \"#utility.yul\":696:699   */\n      dup3\n        /* \"#utility.yul\":692:704   */\n      add\n        /* \"#utility.yul\":685:704   */\n      swap1\n      pop\n        /* \"#utility.yul\":345:710   */\n      swap2\n      swap1\n      pop\n      jump\t// out\n        /* \"#utility.yul\":716:793   */\n    tag_46:\n        /* \"#utility.yul\":753:760   */\n      0x00\n        /* \"#utility.yul\":782:787   */\n      dup2\n        /* \"#utility.yul\":771:787   */\n      swap1\n      pop\n        /* \"#utility.yul\":716:793   */\n      swap2\n      swap1\n      pop\n      jump\t// out\n        /* \"#utility.yul\":799:917   */\n    tag_47:\n        /* \"#utility.yul\":886:910   */\n      tag_76\n        /* \"#utility.yul\":904:909   */\n      dup2\n        /* \"#utility.yul\":886:910   */\n      tag_46\n      jump\t// in\n    tag_76:\n        /* \"#utility.yul\":881:884   */\n      dup3\n        /* \"#utility.yul\":874:911   */\n      mstore\n        /* \"#utility.yul\":799:917   */\n      pop\n      pop\n      jump\t// out\n        /* \"#utility.yul\":923:1452   */\n    tag_9:\n        /* \"#utility.yul\":1117:1121   */\n      0x00\n        /* \"#utility.yul\":1155:1157   */\n      0x40\n        /* \"#utility.yul\":1144:1153   */\n      dup3\n        /* \"#utility.yul\":1140:1158   */\n      add\n        /* \"#utility.yul\":1132:1158   */\n      swap1\n      pop\n        /* \"#utility.yul\":1204:1213   */\n      dup2\n        /* \"#utility.yul\":1198:1202   */\n      dup2\n        /* \"#utility.yul\":1194:1214   */\n      sub\n        /* \"#utility.yul\":1190:1191   */\n      0x00\n        /* \"#utility.yul\":1179:1188   */\n      dup4\n        /* \"#utility.yul\":1175:1192   */\n      add\n        /* \"#utility.yul\":1168:1215   */\n      mstore\n        /* \"#utility.yul\":1232:1363   */\n      tag_78\n        /* \"#utility.yul\":1358:1362   */\n      dup2\n        /* \"#utility.yul\":1232:1363   */\n      tag_45\n      jump\t// in\n    tag_78:\n        /* \"#utility.yul\":1224:1363   */\n      swap1\n      pop\n        /* \"#utility.yul\":1373:1445   */\n      tag_79\n        /* \"#utility.yul\":1441:1443   */\n      0x20\n        /* \"#utility.yul\":1430:1439   */\n      dup4\n        /* \"#utility.yul\":1426:1444   */\n      add\n        /* \"#utility.yul\":1417:1423   */\n      dup5\n        /* \"#utility.yul\":1373:1445   */\n      tag_47\n      jump\t// in\n    tag_79:\n        /* \"#utility.yul\":923:1452   */\n      swap3\n      swap2\n      pop\n      pop\n      jump\t// out\n        /* \"#utility.yul\":1458:1616   */\n    tag_48:\n        /* \"#utility.yul\":1598:1608   */\n      0x66616c6c6261636b000000000000000000000000000000000000000000000000\n        /* \"#utility.yul\":1594:1595   */\n      0x00\n        /* \"#utility.yul\":1586:1592   */\n      dup3\n        /* \"#utility.yul\":1582:1596   */\n      add\n        /* \"#utility.yul\":1575:1609   */\n      mstore\n        /* \"#utility.yul\":1458:1616   */\n      pop\n      jump\t// out\n        /* \"#utility.yul\":1622:1987   */\n    tag_49:\n        /* \"#utility.yul\":1764:1767   */\n      0x00\n        /* \"#utility.yul\":1785:1851   */\n      tag_82\n        /* \"#utility.yul\":1849:1850   */\n      0x08\n        /* \"#utility.yul\":1844:1847   */\n      dup4\n        /* \"#utility.yul\":1785:1851   */\n      tag_43\n      jump\t// in\n    tag_82:\n        /* \"#utility.yul\":1778:1851   */\n      swap2\n      pop\n        /* \"#utility.yul\":1860:1953   */\n      tag_83\n        /* \"#utility.yul\":1949:1952   */\n      dup3\n        /* \"#utility.yul\":1860:1953   */\n      tag_48\n      jump\t// in\n    tag_83:\n        /* \"#utility.yul\":1978:1980   */\n      0x20\n        /* \"#utility.yul\":1973:1976   */\n      dup3\n        /* \"#utility.yul\":1969:1981   */\n      add\n        /* \"#utility.yul\":1962:1981   */\n      swap1\n      pop\n        /* \"#utility.yul\":1622:1987   */\n      swap2\n      swap1\n      pop\n      jump\t// out\n        /* \"#utility.yul\":1993:2522   */\n    tag_13:\n        /* \"#utility.yul\":2187:2191   */\n      0x00\n        /* \"#utility.yul\":2225:2227   */\n      0x40\n        /* \"#utility.yul\":2214:2223   */\n      dup3\n        /* \"#utility.yul\":2210:2228   */\n      add\n        /* \"#utility.yul\":2202:2228   */\n      swap1\n      pop\n        /* \"#utility.yul\":2274:2283   */\n      dup2\n        /* \"#utility.yul\":2268:2272   */\n      dup2\n        /* \"#utility.yul\":2264:2284   */\n      sub\n        /* \"#utility.yul\":2260:2261   */\n      0x00\n        /* \"#utility.yul\":2249:2258   */\n      dup4\n        /* \"#utility.yul\":2245:2262   */\n      add\n        /* \"#utility.yul\":2238:2285   */\n      mstore\n        /* \"#utility.yul\":2302:2433   */\n      tag_85\n        /* \"#utility.yul\":2428:2432   */\n      dup2\n        /* \"#utility.yul\":2302:2433   */\n      tag_49\n      jump\t// in\n    tag_85:\n        /* \"#utility.yul\":2294:2433   */\n      swap1\n      pop\n        /* \"#utility.yul\":2443:2515   */\n      tag_86\n        /* \"#utility.yul\":2511:2513   */\n      0x20\n        /* \"#utility.yul\":2500:2509   */\n      dup4\n        /* \"#utility.yul\":2496:2514   */\n      add\n        /* \"#utility.yul\":2487:2493   */\n      dup5\n        /* \"#utility.yul\":2443:2515   */\n      tag_47\n      jump\t// in\n    tag_86:\n        /* \"#utility.yul\":1993:2522   */\n      swap3\n      swap2\n      pop\n      pop\n      jump\t// out\n        /* \"#utility.yul\":2609:2726   */\n    tag_51:\n        /* \"#utility.yul\":2718:2719   */\n      0x00\n        /* \"#utility.yul\":2715:2716   */\n      dup1\n        /* \"#utility.yul\":2708:2720   */\n      revert\n        /* \"#utility.yul\":2855:2981   */\n    tag_53:\n        /* \"#utility.yul\":2892:2899   */\n      0x00\n        /* \"#utility.yul\":2932:2974   */\n      0xffffffffffffffffffffffffffffffffffffffff\n        /* \"#utility.yul\":2925:2930   */\n      dup3\n        /* \"#utility.yul\":2921:2975   */\n      and\n        /* \"#utility.yul\":2910:2975   */\n      swap1\n      pop\n        /* \"#utility.yul\":2855:2981   */\n      swap2\n      swap1\n      pop\n      jump\t// out\n        /* \"#utility.yul\":2987:3083   */\n    tag_54:\n        /* \"#utility.yul\":3024:3031   */\n      0x00\n        /* \"#utility.yul\":3053:3077   */\n      tag_92\n        /* \"#utility.yul\":3071:3076   */\n      dup3\n        /* \"#utility.yul\":3053:3077   */\n      tag_53\n      jump\t// in\n    tag_92:\n        /* \"#utility.yul\":3042:3077   */\n      swap1\n      pop\n        /* \"#utility.yul\":2987:3083   */\n      swap2\n      swap1\n      pop\n      jump\t// out\n        /* \"#utility.yul\":3089:3211   */\n    tag_55:\n        /* \"#utility.yul\":3162:3186   */\n      tag_94\n        /* \"#utility.yul\":3180:3185   */\n      dup2\n        /* \"#utility.yul\":3162:3186   */\n      tag_54\n      jump\t// in\n    tag_94:\n        /* \"#utility.yul\":3155:3160   */\n      dup2\n        /* \"#utility.yul\":3152:3187   */\n      eq\n        /* \"#utility.yul\":3142:3205   */\n      tag_95\n      jumpi\n        /* \"#utility.yul\":3201:3202   */\n      0x00\n        /* \"#utility.yul\":3198:3199   */\n      dup1\n        /* \"#utility.yul\":3191:3203   */\n      revert\n        /* \"#utility.yul\":3142:3205   */\n    tag_95:\n        /* \"#utility.yul\":3089:3211   */\n      pop\n      jump\t// out\n        /* \"#utility.yul\":3217:3356   */\n    tag_56:\n        /* \"#utility.yul\":3263:3268   */\n      0x00\n        /* \"#utility.yul\":3301:3307   */\n      dup2\n        /* \"#utility.yul\":3288:3308   */\n      calldataload\n        /* \"#utility.yul\":3279:3308   */\n      swap1\n      pop\n        /* \"#utility.yul\":3317:3350   */\n      tag_97\n        /* \"#utility.yul\":3344:3349   */\n      dup2\n        /* \"#utility.yul\":3317:3350   */\n      tag_55\n      jump\t// in\n    tag_97:\n        /* \"#utility.yul\":3217:3356   */\n      swap3\n      swap2\n      pop\n      pop\n      jump\t// out\n        /* \"#utility.yul\":3362:3691   */\n    tag_17:\n        /* \"#utility.yul\":3421:3427   */\n      0x00\n        /* \"#utility.yul\":3470:3472   */\n      0x20\n        /* \"#utility.yul\":3458:3467   */\n      dup3\n        /* \"#utility.yul\":3449:3456   */\n      dup5\n        /* \"#utility.yul\":3445:3468   */\n      sub\n        /* \"#utility.yul\":3441:3473   */\n      slt\n        /* \"#utility.yul\":3438:3557   */\n      iszero\n      tag_99\n      jumpi\n        /* \"#utility.yul\":3476:3555   */\n      tag_100\n      tag_51\n      jump\t// in\n    tag_100:\n        /* \"#utility.yul\":3438:3557   */\n    tag_99:\n        /* \"#utility.yul\":3596:3597   */\n      0x00\n        /* \"#utility.yul\":3621:3674   */\n      tag_101\n        /* \"#utility.yul\":3666:3673   */\n      dup5\n        /* \"#utility.yul\":3657:3663   */\n      dup3\n        /* \"#utility.yul\":3646:3655   */\n      dup6\n        /* \"#utility.yul\":3642:3664   */\n      add\n        /* \"#utility.yul\":3621:3674   */\n      tag_56\n      jump\t// in\n    tag_101:\n        /* \"#utility.yul\":3611:3674   */\n      swap2\n      pop\n        /* \"#utility.yul\":3567:3684   */\n      pop\n        /* \"#utility.yul\":3362:3691   */\n      swap3\n      swap2\n      pop\n      pop\n      jump\t// out\n        /* \"#utility.yul\":3697:3787   */\n    tag_57:\n        /* \"#utility.yul\":3731:3738   */\n      0x00\n        /* \"#utility.yul\":3774:3779   */\n      dup2\n        /* \"#utility.yul\":3767:3780   */\n      iszero\n        /* \"#utility.yul\":3760:3781   */\n      iszero\n        /* \"#utility.yul\":3749:3781   */\n      swap1\n      pop\n        /* \"#utility.yul\":3697:3787   */\n      swap2\n      swap1\n      pop\n      jump\t// out\n        /* \"#utility.yul\":3793:3902   */\n    tag_58:\n        /* \"#utility.yul\":3874:3895   */\n      tag_104\n        /* \"#utility.yul\":3889:3894   */\n      dup2\n        /* \"#utility.yul\":3874:3895   */\n      tag_57\n      jump\t// in\n    tag_104:\n        /* \"#utility.yul\":3869:3872   */\n      dup3\n        /* \"#utility.yul\":3862:3896   */\n      mstore\n        /* \"#utility.yul\":3793:3902   */\n      pop\n      pop\n      jump\t// out\n        /* \"#utility.yul\":3908:4118   */\n    tag_20:\n        /* \"#utility.yul\":3995:3999   */\n      0x00\n        /* \"#utility.yul\":4033:4035   */\n      0x20\n        /* \"#utility.yul\":4022:4031   */\n      dup3\n        /* \"#utility.yul\":4018:4036   */\n      add\n        /* \"#utility.yul\":4010:4036   */\n      swap1\n      pop\n        /* \"#utility.yul\":4046:4111   */\n      tag_106\n        /* \"#utility.yul\":4108:4109   */\n      0x00\n        /* \"#utility.yul\":4097:4106   */\n      dup4\n        /* \"#utility.yul\":4093:4110   */\n      add\n        /* \"#utility.yul\":4084:4090   */\n      dup5\n        /* \"#utility.yul\":4046:4111   */\n      tag_58\n      jump\t// in\n    tag_106:\n        /* \"#utility.yul\":3908:4118   */\n      swap3\n      swap2\n      pop\n      pop\n      jump\t// out\n        /* \"#utility.yul\":4124:4228   */\n    tag_59:\n        /* \"#utility.yul\":4188:4195   */\n      0x00\n        /* \"#utility.yul\":4217:4222   */\n      dup2\n        /* \"#utility.yul\":4206:4222   */\n      swap1\n      pop\n        /* \"#utility.yul\":4124:4228   */\n      swap2\n      swap1\n      pop\n      jump\t// out\n        /* \"#utility.yul\":4234:4335   */\n    tag_60:\n        /* \"#utility.yul\":4270:4277   */\n      0x00\n        /* \"#utility.yul\":4310:4328   */\n      0xffffffffffffffff\n        /* \"#utility.yul\":4303:4308   */\n      dup3\n        /* \"#utility.yul\":4299:4329   */\n      and\n        /* \"#utility.yul\":4288:4329   */\n      swap1\n      pop\n        /* \"#utility.yul\":4234:4335   */\n      swap2\n      swap1\n      pop\n      jump\t// out\n        /* \"#utility.yul\":4341:4401   */\n    tag_61:\n        /* \"#utility.yul\":4369:4372   */\n      0x00\n        /* \"#utility.yul\":4390:4395   */\n      dup2\n        /* \"#utility.yul\":4383:4395   */\n      swap1\n      pop\n        /* \"#utility.yul\":4341:4401   */\n      swap2\n      swap1\n      pop\n      jump\t// out\n        /* \"#utility.yul\":4407:4601   */\n    tag_62:\n        /* \"#utility.yul\":4483:4492   */\n      0x00\n        /* \"#utility.yul\":4516:4595   */\n      tag_111\n        /* \"#utility.yul\":4533:4594   */\n      tag_112\n        /* \"#utility.yul\":4542:4593   */\n      tag_113\n        /* \"#utility.yul\":4587:4592   */\n      dup5\n        /* \"#utility.yul\":4542:4593   */\n      tag_59\n      jump\t// in\n    tag_113:\n        /* \"#utility.yul\":4533:4594   */\n      tag_61\n      jump\t// in\n    tag_112:\n        /* \"#utility.yul\":4516:4595   */\n      tag_60\n      jump\t// in\n    tag_111:\n        /* \"#utility.yul\":4503:4595   */\n      swap1\n      pop\n        /* \"#utility.yul\":4407:4601   */\n      swap2\n      swap1\n      pop\n      jump\t// out\n        /* \"#utility.yul\":4607:4790   */\n    tag_63:\n        /* \"#utility.yul\":4720:4783   */\n      tag_115\n        /* \"#utility.yul\":4777:4782   */\n      dup2\n        /* \"#utility.yul\":4720:4783   */\n      tag_62\n      jump\t// in\n    tag_115:\n        /* \"#utility.yul\":4715:4718   */\n      dup3\n        /* \"#utility.yul\":4708:4784   */\n      mstore\n        /* \"#utility.yul\":4607:4790   */\n      pop\n      pop\n      jump\t// out\n        /* \"#utility.yul\":4796:5070   */\n    tag_37:\n        /* \"#utility.yul\":4915:4919   */\n      0x00\n        /* \"#utility.yul\":4953:4955   */\n      0x20\n        /* \"#utility.yul\":4942:4951   */\n      dup3\n        /* \"#utility.yul\":4938:4956   */\n      add\n        /* \"#utility.yul\":4930:4956   */\n      swap1\n      pop\n        /* \"#utility.yul\":4966:5063   */\n      tag_117\n        /* \"#utility.yul\":5060:5061   */\n      0x00\n        /* \"#utility.yul\":5049:5058   */\n      dup4\n        /* \"#utility.yul\":5045:5062   */\n      add\n        /* \"#utility.yul\":5036:5042   */\n      dup5\n        /* \"#utility.yul\":4966:5063   */\n      tag_63\n      jump\t// in\n    tag_117:\n        /* \"#utility.yul\":4796:5070   */\n      swap3\n      swap2\n      pop\n      pop\n      jump\t// out\n        /* \"#utility.yul\":5076:5174   */\n    tag_64:\n        /* \"#utility.yul\":5127:5133   */\n      0x00\n        /* \"#utility.yul\":5161:5166   */\n      dup2\n        /* \"#utility.yul\":5155:5167   */\n      mload\n        /* \"#utility.yul\":5145:5167   */\n      swap1\n      pop\n        /* \"#utility.yul\":5076:5174   */\n      swap2\n      swap1\n      pop\n      jump\t// out\n        /* \"#utility.yul\":5180:5327   */\n    tag_65:\n        /* \"#utility.yul\":5281:5292   */\n      0x00\n        /* \"#utility.yul\":5318:5321   */\n      dup2\n        /* \"#utility.yul\":5303:5321   */\n      swap1\n      pop\n        /* \"#utility.yul\":5180:5327   */\n      swap3\n      swap2\n      pop\n      pop\n      jump\t// out\n        /* \"#utility.yul\":5333:5579   */\n    tag_66:\n        /* \"#utility.yul\":5414:5415   */\n      0x00\n        /* \"#utility.yul\":5424:5537   */\n    tag_121:\n        /* \"#utility.yul\":5438:5444   */\n      dup4\n        /* \"#utility.yul\":5435:5436   */\n      dup2\n        /* \"#utility.yul\":5432:5445   */\n      lt\n        /* \"#utility.yul\":5424:5537   */\n      iszero\n      tag_123\n      jumpi\n        /* \"#utility.yul\":5523:5524   */\n      dup1\n        /* \"#utility.yul\":5518:5521   */\n      dup3\n        /* \"#utility.yul\":5514:5525   */\n      add\n        /* \"#utility.yul\":5508:5526   */\n      mload\n        /* \"#utility.yul\":5504:5505   */\n      dup2\n        /* \"#utility.yul\":5499:5502   */\n      dup5\n        /* \"#utility.yul\":5495:5506   */\n      add\n        /* \"#utility.yul\":5488:5527   */\n      mstore\n        /* \"#utility.yul\":5460:5462   */\n      0x20\n        /* \"#utility.yul\":5457:5458   */\n      dup2\n        /* \"#utility.yul\":5453:5463   */\n      add\n        /* \"#utility.yul\":5448:5463   */\n      swap1\n      pop\n        /* \"#utility.yul\":5424:5537   */\n      jump(tag_121)\n    tag_123:\n        /* \"#utility.yul\":5571:5572   */\n      0x00\n        /* \"#utility.yul\":5562:5568   */\n      dup5\n        /* \"#utility.yul\":5557:5560   */\n      dup5\n        /* \"#utility.yul\":5553:5569   */\n      add\n        /* \"#utility.yul\":5546:5573   */\n      mstore\n        /* \"#utility.yul\":5395:5579   */\n      pop\n        /* \"#utility.yul\":5333:5579   */\n      pop\n      pop\n      pop\n      jump\t// out\n        /* \"#utility.yul\":5585:5971   */\n    tag_67:\n        /* \"#utility.yul\":5689:5692   */\n      0x00\n        /* \"#utility.yul\":5717:5755   */\n      tag_125\n        /* \"#utility.yul\":5749:5754   */\n      dup3\n        /* \"#utility.yul\":5717:5755   */\n      tag_64\n      jump\t// in\n    tag_125:\n        /* \"#utility.yul\":5771:5859   */\n      tag_126\n        /* \"#utility.yul\":5852:5858   */\n      dup2\n        /* \"#utility.yul\":5847:5850   */\n      dup6\n        /* \"#utility.yul\":5771:5859   */\n      tag_65\n      jump\t// in\n    tag_126:\n        /* \"#utility.yul\":5764:5859   */\n      swap4\n      pop\n        /* \"#utility.yul\":5868:5933   */\n      tag_127\n        /* \"#utility.yul\":5926:5932   */\n      dup2\n        /* \"#utility.yul\":5921:5924   */\n      dup6\n        /* \"#utility.yul\":5914:5918   */\n      0x20\n        /* \"#utility.yul\":5907:5912   */\n      dup7\n        /* \"#utility.yul\":5903:5919   */\n      add\n        /* \"#utility.yul\":5868:5933   */\n      tag_66\n      jump\t// in\n    tag_127:\n        /* \"#utility.yul\":5958:5964   */\n      dup1\n        /* \"#utility.yul\":5953:5956   */\n      dup5\n        /* \"#utility.yul\":5949:5965   */\n      add\n        /* \"#utility.yul\":5942:5965   */\n      swap2\n      pop\n        /* \"#utility.yul\":5693:5971   */\n      pop\n        /* \"#utility.yul\":5585:5971   */\n      swap3\n      swap2\n      pop\n      pop\n      jump\t// out\n        /* \"#utility.yul\":5977:6248   */\n    tag_39:\n        /* \"#utility.yul\":6107:6110   */\n      0x00\n        /* \"#utility.yul\":6129:6222   */\n      tag_129\n        /* \"#utility.yul\":6218:6221   */\n      dup3\n        /* \"#utility.yul\":6209:6215   */\n      dup5\n        /* \"#utility.yul\":6129:6222   */\n      tag_67\n      jump\t// in\n    tag_129:\n        /* \"#utility.yul\":6122:6222   */\n      swap2\n      pop\n        /* \"#utility.yul\":6239:6242   */\n      dup2\n        /* \"#utility.yul\":6232:6242   */\n      swap1\n      pop\n        /* \"#utility.yul\":5977:6248   */\n      swap3\n      swap2\n      pop\n      pop\n      jump\t// out\n\n    auxdata: 0xa264697066735822122086c791ecccf622c2735d71b2a7b01b26c0b381d01eb0620ca297873ecd867f1664736f6c63430008180033\n}\n",
				"bytecode": {
					"linkReferences": {},
					"object": "608060405234801561000f575f80fd5b506105ed8061001d5f395ff3fe608060405260043610610037575f3560e01c806348c981e2146100ae5780636b55e991146100ea5780636d6e24111461011257610075565b36610075577fdd970dd9b5bfe707922155b058a407655cb18288b807e2216442bca8ad83d6b53460405161006b9190610369565b60405180910390a1005b7fdd970dd9b5bfe707922155b058a407655cb18288b807e2216442bca8ad83d6b5346040516100a491906103df565b60405180910390a1005b3480156100b9575f80fd5b506100d460048036038101906100cf9190610469565b61014e565b6040516100e191906104ae565b60405180910390f35b3480156100f5575f80fd5b50610110600480360381019061010b9190610469565b610197565b005b34801561011d575f80fd5b5061013860048036038101906101339190610469565b6101e6565b60405161014591906104ae565b60405180910390f35b5f808273ffffffffffffffffffffffffffffffffffffffff166108fc670de0b6b3a764000090811502906040515f60405180830381858888f19350505050905080915050919050565b8073ffffffffffffffffffffffffffffffffffffffff166108fc670de0b6b3a764000090811502906040515f60405180830381858888f193505050501580156101e2573d5f803e3d5ffd5b5050565b5f808273ffffffffffffffffffffffffffffffffffffffff16670de0b6b3a7640000678ac7230489e80000604051602401610221919061051c565b6040516020818303038152906040527fd0e30db0000000000000000000000000000000000000000000000000000000007bffffffffffffffffffffffffffffffffffffffffffffffffffffffff19166020820180517bffffffffffffffffffffffffffffffffffffffffffffffffffffffff83818316178352505050506040516102ab91906105a1565b5f6040518083038185875af1925050503d805f81146102e5576040519150601f19603f3d011682016040523d82523d5f602084013e6102ea565b606091505b5050905080915050919050565b5f82825260208201905092915050565b7f72656365697665000000000000000000000000000000000000000000000000005f82015250565b5f61033b6007836102f7565b915061034682610307565b602082019050919050565b5f819050919050565b61036381610351565b82525050565b5f6040820190508181035f8301526103808161032f565b905061038f602083018461035a565b92915050565b7f66616c6c6261636b0000000000000000000000000000000000000000000000005f82015250565b5f6103c96008836102f7565b91506103d482610395565b602082019050919050565b5f6040820190508181035f8301526103f6816103bd565b9050610405602083018461035a565b92915050565b5f80fd5b5f73ffffffffffffffffffffffffffffffffffffffff82169050919050565b5f6104388261040f565b9050919050565b6104488161042e565b8114610452575f80fd5b50565b5f813590506104638161043f565b92915050565b5f6020828403121561047e5761047d61040b565b5b5f61048b84828501610455565b91505092915050565b5f8115159050919050565b6104a881610494565b82525050565b5f6020820190506104c15f83018461049f565b92915050565b5f819050919050565b5f67ffffffffffffffff82169050919050565b5f819050919050565b5f6105066105016104fc846104c7565b6104e3565b6104d0565b9050919050565b610516816104ec565b82525050565b5f60208201905061052f5f83018461050d565b92915050565b5f81519050919050565b5f81905092915050565b5f5b8381101561056657808201518184015260208101905061054b565b5f8484015250505050565b5f61057b82610535565b610585818561053f565b9350610595818560208601610549565b80840191505092915050565b5f6105ac8284610571565b91508190509291505056fea264697066735822122086c791ecccf622c2735d71b2a7b01b26c0b381d01eb0620ca297873ecd867f1664736f6c63430008180033",
					"opcodes": "PUSH1 0x80 PUSH1 0x40 MSTORE CALLVALUE DUP1 ISZERO PUSH2 0xF JUMPI PUSH0 DUP1 REVERT JUMPDEST POP PUSH2 0x5ED DUP1 PUSH2 0x1D PUSH0 CODECOPY PUSH0 RETURN INVALID PUSH1 0x80 PUSH1 0x40 MSTORE PUSH1 0x4 CALLDATASIZE LT PUSH2 0x37 JUMPI PUSH0 CALLDATALOAD PUSH1 0xE0 SHR DUP1 PUSH4 0x48C981E2 EQ PUSH2 0xAE JUMPI DUP1 PUSH4 0x6B55E991 EQ PUSH2 0xEA JUMPI DUP1 PUSH4 0x6D6E2411 EQ PUSH2 0x112 JUMPI PUSH2 0x75 JUMP JUMPDEST CALLDATASIZE PUSH2 0x75 JUMPI PUSH32 0xDD970DD9B5BFE707922155B058A407655CB18288B807E2216442BCA8AD83D6B5 CALLVALUE PUSH1 0x40 MLOAD PUSH2 0x6B SWAP2 SWAP1 PUSH2 0x369 JUMP JUMPDEST PUSH1 0x40 MLOAD DUP1 SWAP2 SUB SWAP1 LOG1 STOP JUMPDEST PUSH32 0xDD970DD9B5BFE707922155B058A407655CB18288B807E2216442BCA8AD83D6B5 CALLVALUE PUSH1 0x40 MLOAD PUSH2 0xA4 SWAP2 SWAP1 PUSH2 0x3DF JUMP JUMPDEST PUSH1 0x40 MLOAD DUP1 SWAP2 SUB SWAP1 LOG1 STOP JUMPDEST CALLVALUE DUP1 ISZERO PUSH2 0xB9 JUMPI PUSH0 DUP1 REVERT JUMPDEST POP PUSH2 0xD4 PUSH1 0x4 DUP1 CALLDATASIZE SUB DUP2 ADD SWAP1 PUSH2 0xCF SWAP2 SWAP1 PUSH2 0x469 JUMP JUMPDEST PUSH2 0x14E JUMP JUMPDEST PUSH1 0x40 MLOAD PUSH2 0xE1 SWAP2 SWAP1 PUSH2 0x4AE JUMP JUMPDEST PUSH1 0x40 MLOAD DUP1 SWAP2 SUB SWAP1 RETURN JUMPDEST CALLVALUE DUP1 ISZERO PUSH2 0xF5 JUMPI PUSH0 DUP1 REVERT JUMPDEST POP PUSH2 0x110 PUSH1 0x4 DUP1 CALLDATASIZE SUB DUP2 ADD SWAP1 PUSH2 0x10B SWAP2 SWAP1 PUSH2 0x469 JUMP JUMPDEST PUSH2 0x197 JUMP JUMPDEST STOP JUMPDEST CALLVALUE DUP1 ISZERO PUSH2 0x11D JUMPI PUSH0 DUP1 REVERT JUMPDEST POP PUSH2 0x138 PUSH1 0x4 DUP1 CALLDATASIZE SUB DUP2 ADD SWAP1 PUSH2 0x133 SWAP2 SWAP1 PUSH2 0x469 JUMP JUMPDEST PUSH2 0x1E6 JUMP JUMPDEST PUSH1 0x40 MLOAD PUSH2 0x145 SWAP2 SWAP1 PUSH2 0x4AE JUMP JUMPDEST PUSH1 0x40 MLOAD DUP1 SWAP2 SUB SWAP1 RETURN JUMPDEST PUSH0 DUP1 DUP3 PUSH20 0xFFFFFFFFFFFFFFFFFFFFFFFFFFFFFFFFFFFFFFFF AND PUSH2 0x8FC PUSH8 0xDE0B6B3A7640000 SWAP1 DUP2 ISZERO MUL SWAP1 PUSH1 0x40 MLOAD PUSH0 PUSH1 0x40 MLOAD DUP1 DUP4 SUB DUP2 DUP6 DUP9 DUP9 CALL SWAP4 POP POP POP POP SWAP1 POP DUP1 SWAP2 POP POP SWAP2 SWAP1 POP JUMP JUMPDEST DUP1 PUSH20 0xFFFFFFFFFFFFFFFFFFFFFFFFFFFFFFFFFFFFFFFF AND PUSH2 0x8FC PUSH8 0xDE0B6B3A7640000 SWAP1 DUP2 ISZERO MUL SWAP1 PUSH1 0x40 MLOAD PUSH0 PUSH1 0x40 MLOAD DUP1 DUP4 SUB DUP2 DUP6 DUP9 DUP9 CALL SWAP4 POP POP POP POP ISZERO DUP1 ISZERO PUSH2 0x1E2 JUMPI RETURNDATASIZE PUSH0 DUP1 RETURNDATACOPY RETURNDATASIZE PUSH0 REVERT JUMPDEST POP POP JUMP JUMPDEST PUSH0 DUP1 DUP3 PUSH20 0xFFFFFFFFFFFFFFFFFFFFFFFFFFFFFFFFFFFFFFFF AND PUSH8 0xDE0B6B3A7640000 PUSH8 0x8AC7230489E80000 PUSH1 0x40 MLOAD PUSH1 0x24 ADD PUSH2 0x221 SWAP2 SWAP1 PUSH2 0x51C JUMP JUMPDEST PUSH1 0x40 MLOAD PUSH1 0x20 DUP2 DUP4 SUB SUB DUP2 MSTORE SWAP1 PUSH1 0x40 MSTORE PUSH32 0xD0E30DB000000000000000000000000000000000000000000000000000000000 PUSH28 0xFFFFFFFFFFFFFFFFFFFFFFFFFFFFFFFFFFFFFFFFFFFFFFFFFFFFFFFF NOT AND PUSH1 0x20 DUP3 ADD DUP1 MLOAD PUSH28 0xFFFFFFFFFFFFFFFFFFFFFFFFFFFFFFFFFFFFFFFFFFFFFFFFFFFFFFFF DUP4 DUP2 DUP4 AND OR DUP4 MSTORE POP POP POP POP PUSH1 0x40 MLOAD PUSH2 0x2AB SWAP2 SWAP1 PUSH2 0x5A1 JUMP JUMPDEST PUSH0 PUSH1 0x40 MLOAD DUP1 DUP4 SUB DUP2 DUP6 DUP8 GAS CALL SWAP3 POP POP POP RETURNDATASIZE DUP1 PUSH0 DUP2 EQ PUSH2 0x2E5 JUMPI PUSH1 0x40 MLOAD SWAP2 POP PUSH1 0x1F NOT PUSH1 0x3F RETURNDATASIZE ADD AND DUP3 ADD PUSH1 0x40 MSTORE RETURNDATASIZE DUP3 MSTORE RETURNDATASIZE PUSH0 PUSH1 0x20 DUP5 ADD RETURNDATACOPY PUSH2 0x2EA JUMP JUMPDEST PUSH1 0x60 SWAP2 POP JUMPDEST POP POP SWAP1 POP DUP1 SWAP2 POP POP SWAP2 SWAP1 POP JUMP JUMPDEST PUSH0 DUP3 DUP3 MSTORE PUSH1 0x20 DUP3 ADD SWAP1 POP SWAP3 SWAP2 POP POP JUMP JUMPDEST PUSH32 0x7265636569766500000000000000000000000000000000000000000000000000 PUSH0 DUP3 ADD MSTORE POP JUMP JUMPDEST PUSH0 PUSH2 0x33B PUSH1 0x7 DUP4 PUSH2 0x2F7 JUMP JUMPDEST SWAP2 POP PUSH2 0x346 DUP3 PUSH2 0x307 JUMP JUMPDEST PUSH1 0x20 DUP3 ADD SWAP1 POP SWAP2 SWAP1 POP JUMP JUMPDEST PUSH0 DUP2 SWAP1 POP SWAP2 SWAP1 POP JUMP JUMPDEST PUSH2 0x363 DUP2 PUSH2 0x351 JUMP JUMPDEST DUP3 MSTORE POP POP JUMP JUMPDEST PUSH0 PUSH1 0x40 DUP3 ADD SWAP1 POP DUP2 DUP2 SUB PUSH0 DUP4 ADD MSTORE PUSH2 0x380 DUP2 PUSH2 0x32F JUMP JUMPDEST SWAP1 POP PUSH2 0x38F PUSH1 0x20 DUP4 ADD DUP5 PUSH2 0x35A JUMP JUMPDEST SWAP3 SWAP2 POP POP JUMP JUMPDEST PUSH32 0x66616C6C6261636B000000000000000000000000000000000000000000000000 PUSH0 DUP3 ADD MSTORE POP JUMP JUMPDEST PUSH0 PUSH2 0x3C9 PUSH1 0x8 DUP4 PUSH2 0x2F7 JUMP JUMPDEST SWAP2 POP PUSH2 0x3D4 DUP3 PUSH2 0x395 JUMP JUMPDEST PUSH1 0x20 DUP3 ADD SWAP1 POP SWAP2 SWAP1 POP JUMP JUMPDEST PUSH0 PUSH1 0x40 DUP3 ADD SWAP1 POP DUP2 DUP2 SUB PUSH0 DUP4 ADD MSTORE PUSH2 0x3F6 DUP2 PUSH2 0x3BD JUMP JUMPDEST SWAP1 POP PUSH2 0x405 PUSH1 0x20 DUP4 ADD DUP5 PUSH2 0x35A JUMP JUMPDEST SWAP3 SWAP2 POP POP JUMP JUMPDEST PUSH0 DUP1 REVERT JUMPDEST PUSH0 PUSH20 0xFFFFFFFFFFFFFFFFFFFFFFFFFFFFFFFFFFFFFFFF DUP3 AND SWAP1 POP SWAP2 SWAP1 POP JUMP JUMPDEST PUSH0 PUSH2 0x438 DUP3 PUSH2 0x40F JUMP JUMPDEST SWAP1 POP SWAP2 SWAP1 POP JUMP JUMPDEST PUSH2 0x448 DUP2 PUSH2 0x42E JUMP JUMPDEST DUP2 EQ PUSH2 0x452 JUMPI PUSH0 DUP1 REVERT JUMPDEST POP JUMP JUMPDEST PUSH0 DUP2 CALLDATALOAD SWAP1 POP PUSH2 0x463 DUP2 PUSH2 0x43F JUMP JUMPDEST SWAP3 SWAP2 POP POP JUMP JUMPDEST PUSH0 PUSH1 0x20 DUP3 DUP5 SUB SLT ISZERO PUSH2 0x47E JUMPI PUSH2 0x47D PUSH2 0x40B JUMP JUMPDEST JUMPDEST PUSH0 PUSH2 0x48B DUP5 DUP3 DUP6 ADD PUSH2 0x455 JUMP JUMPDEST SWAP2 POP POP SWAP3 SWAP2 POP POP JUMP JUMPDEST PUSH0 DUP2 ISZERO ISZERO SWAP1 POP SWAP2 SWAP1 POP JUMP JUMPDEST PUSH2 0x4A8 DUP2 PUSH2 0x494 JUMP JUMPDEST DUP3 MSTORE POP POP JUMP JUMPDEST PUSH0 PUSH1 0x20 DUP3 ADD SWAP1 POP PUSH2 0x4C1 PUSH0 DUP4 ADD DUP5 PUSH2 0x49F JUMP JUMPDEST SWAP3 SWAP2 POP POP JUMP JUMPDEST PUSH0 DUP2 SWAP1 POP SWAP2 SWAP1 POP JUMP JUMPDEST PUSH0 PUSH8 0xFFFFFFFFFFFFFFFF DUP3 AND SWAP1 POP SWAP2 SWAP1 POP JUMP JUMPDEST PUSH0 DUP2 SWAP1 POP SWAP2 SWAP1 POP JUMP JUMPDEST PUSH0 PUSH2 0x506 PUSH2 0x501 PUSH2 0x4FC DUP5 PUSH2 0x4C7 JUMP JUMPDEST PUSH2 0x4E3 JUMP JUMPDEST PUSH2 0x4D0 JUMP JUMPDEST SWAP1 POP SWAP2 SWAP1 POP JUMP JUMPDEST PUSH2 0x516 DUP2 PUSH2 0x4EC JUMP JUMPDEST DUP3 MSTORE POP POP JUMP JUMPDEST PUSH0 PUSH1 0x20 DUP3 ADD SWAP1 POP PUSH2 0x52F PUSH0 DUP4 ADD DUP5 PUSH2 0x50D JUMP JUMPDEST SWAP3 SWAP2 POP POP JUMP JUMPDEST PUSH0 DUP2 MLOAD SWAP1 POP SWAP2 SWAP1 POP JUMP JUMPDEST PUSH0 DUP2 SWAP1 POP SWAP3 SWAP2 POP POP JUMP JUMPDEST PUSH0 JUMPDEST DUP4 DUP2 LT ISZERO PUSH2 0x566 JUMPI DUP1 DUP3 ADD MLOAD DUP2 DUP5 ADD MSTORE PUSH1 0x20 DUP2 ADD SWAP1 POP PUSH2 0x54B JUMP JUMPDEST PUSH0 DUP5 DUP5 ADD MSTORE POP POP POP POP JUMP JUMPDEST PUSH0 PUSH2 0x57B DUP3 PUSH2 0x535 JUMP JUMPDEST PUSH2 0x585 DUP2 DUP6 PUSH2 0x53F JUMP JUMPDEST SWAP4 POP PUSH2 0x595 DUP2 DUP6 PUSH1 0x20 DUP7 ADD PUSH2 0x549 JUMP JUMPDEST DUP1 DUP5 ADD SWAP2 POP POP SWAP3 SWAP2 POP POP JUMP JUMPDEST PUSH0 PUSH2 0x5AC DUP3 DUP5 PUSH2 0x571 JUMP JUMPDEST SWAP2 POP DUP2 SWAP1 POP SWAP3 SWAP2 POP POP JUMP INVALID LOG2 PUSH5 0x6970667358 0x22 SLT KECCAK256 DUP7 0xC7 SWAP2 0xEC 0xCC 0xF6 0x22 0xC2 PUSH20 0x5D71B2A7B01B26C0B381D01EB0620CA297873ECD DUP7 PUSH32 0x1664736F6C634300081800330000000000000000000000000000000000000000 "
				},
				"gasEstimates": {
					"creation": {
						"codeDepositCost": "303400",
						"executionCost": "341",
						"totalCost": "303741"
					},
					"external": {
						"": "2282",
						"callEther(address)": "infinite",
						"sendEther(address)": "infinite",
						"transferEther(address)": "infinite"
					}
				},
				"methodIdentifiers": {
					"callEther(address)": "6d6e2411",
					"sendEther(address)": "48c981e2",
					"transferEther(address)": "6b55e991"
				}
			},
			"storageLayout": {
				"storage": [],
				"types": null
			},
			"userdoc": {
				"kind": "user",
				"methods": {},
				"version": 1
			}
		}
	}
}