{
	"contracts/EtherWei.sol": {
		"Demo": {
			"abi": [
				{
					"anonymous": false,
					"inputs": [
						{
							"indexed": false,
							"internalType": "string",
							"name": "functionName",
							"type": "string"
						},
						{
							"indexed": false,
							"internalType": "uint256",
							"name": "amount",
							"type": "uint256"
						}
					],
					"name": "Log",
					"type": "event"
				},
				{
					"stateMutability": "payable",
					"type": "fallback"
				},
				{
					"inputs": [
						{
							"internalType": "uint256",
							"name": "num",
							"type": "uint256"
						}
					],
					"name": "add",
					"outputs": [
						{
							"internalType": "uint256",
							"name": "",
							"type": "uint256"
						}
					],
					"stateMutability": "view",
					"type": "function"
				},
				{
					"inputs": [],
					"name": "add",
					"outputs": [
						{
							"internalType": "uint256",
							"name": "",
							"type": "uint256"
						}
					],
					"stateMutability": "view",
					"type": "function"
				},
				{
					"inputs": [],
					"name": "deposit",
					"outputs": [],
					"stateMutability": "payable",
					"type": "function"
				},
				{
					"inputs": [],
					"name": "param",
					"outputs": [
						{
							"internalType": "uint256",
							"name": "",
							"type": "uint256"
						}
					],
					"stateMutability": "view",
					"type": "function"
				},
				{
					"inputs": [],
					"name": "verify",
					"outputs": [
						{
							"internalType": "bool",
							"name": "",
							"type": "bool"
						},
						{
							"internalType": "bool",
							"name": "",
							"type": "bool"
						},
						{
							"internalType": "bool",
							"name": "",
							"type": "bool"
						}
					],
					"stateMutability": "pure",
					"type": "function"
				},
				{
					"stateMutability": "payable",
					"type": "receive"
				}
			],
			"devdoc": {
				"kind": "dev",
				"methods": {},
				"version": 1
			},
			"evm": {
				"assembly": "    /* \"contracts/EtherWei.sol\":59:1211  contract Demo{... */\n  mstore(0x40, 0x80)\n    /* \"contracts/EtherWei.sol\":148:149  1 */\n  0x01\n    /* \"contracts/EtherWei.sol\":131:149  uint256 amount = 1 */\n  0x00\n  sstore\n    /* \"contracts/EtherWei.sol\":59:1211  contract Demo{... */\n  callvalue\n  dup1\n  iszero\n  tag_1\n  jumpi\n  0x00\n  dup1\n  revert\ntag_1:\n  pop\n  dataSize(sub_0)\n  dup1\n  dataOffset(sub_0)\n  0x00\n  codecopy\n  0x00\n  return\nstop\n\nsub_0: assembly {\n        /* \"contracts/EtherWei.sol\":59:1211  contract Demo{... */\n      mstore(0x40, 0x80)\n      jumpi(tag_1, lt(calldatasize, 0x04))\n      shr(0xe0, calldataload(0x00))\n      dup1\n      0x1003e2d2\n      eq\n      tag_3\n      jumpi\n      dup1\n      0x4f2be91f\n      eq\n      tag_4\n      jumpi\n      dup1\n      0x883d87b1\n      eq\n      tag_5\n      jumpi\n      dup1\n      0xd0e30db0\n      eq\n      tag_6\n      jumpi\n      dup1\n      0xfc735e99\n      eq\n      tag_7\n      jumpi\n      jump(tag_2)\n    tag_1:\n      jumpi(tag_2, calldatasize)\n        /* \"contracts/EtherWei.sol\":1159:1160  2 */\n      0x02\n        /* \"contracts/EtherWei.sol\":1150:1156  amount */\n      0x00\n        /* \"contracts/EtherWei.sol\":1150:1160  amount = 2 */\n      dup2\n      swap1\n      sstore\n      pop\n        /* \"contracts/EtherWei.sol\":1176:1200  Log(\"receive\",msg.value) */\n      0xdd970dd9b5bfe707922155b058a407655cb18288b807e2216442bca8ad83d6b5\n        /* \"contracts/EtherWei.sol\":1190:1199  msg.value */\n      callvalue\n        /* \"contracts/EtherWei.sol\":1176:1200  Log(\"receive\",msg.value) */\n      mload(0x40)\n      tag_10\n      swap2\n      swap1\n      tag_11\n      jump\t// in\n    tag_10:\n      mload(0x40)\n      dup1\n      swap2\n      sub\n      swap1\n      log1\n        /* \"contracts/EtherWei.sol\":59:1211  contract Demo{... */\n      stop\n    tag_2:\n      0x00\n      calldatasize\n        /* \"contracts/EtherWei.sol\":998:1017  bytes memory output */\n      0x60\n        /* \"contracts/EtherWei.sol\":1049:1054  input */\n      dup3\n      dup3\n        /* \"contracts/EtherWei.sol\":1055:1056  4 */\n      0x04\n        /* \"contracts/EtherWei.sol\":1049:1058  input[4:] */\n      swap1\n      dup1\n      swap3\n      tag_14\n      swap4\n      swap3\n      swap2\n      swap1\n      tag_15\n      jump\t// in\n    tag_14:\n        /* \"contracts/EtherWei.sol\":1038:1070  abi.decode(input[4:], (uint256)) */\n      dup2\n      add\n      swap1\n      tag_16\n      swap2\n      swap1\n      tag_17\n      jump\t// in\n    tag_16:\n        /* \"contracts/EtherWei.sol\":1030:1035  param */\n      0x01\n        /* \"contracts/EtherWei.sol\":1030:1070  param = abi.decode(input[4:], (uint256)) */\n      dup2\n      swap1\n      sstore\n      pop\n        /* \"contracts/EtherWei.sol\":1088:1093  input */\n      dup3\n      dup3\n        /* \"contracts/EtherWei.sol\":1081:1093  return input */\n      dup1\n      dup1\n      0x1f\n      add\n      0x20\n      dup1\n      swap2\n      div\n      mul\n      0x20\n      add\n      mload(0x40)\n      swap1\n      dup2\n      add\n      0x40\n      mstore\n      dup1\n      swap4\n      swap3\n      swap2\n      swap1\n      dup2\n      dup2\n      mstore\n      0x20\n      add\n      dup4\n      dup4\n      dup1\n      dup3\n      dup5\n      calldatacopy\n      0x00\n      dup2\n      dup5\n      add\n      mstore\n      not(0x1f)\n      0x1f\n      dup3\n      add\n      and\n      swap1\n      pop\n      dup1\n      dup4\n      add\n      swap3\n      pop\n      pop\n      pop\n      pop\n      pop\n      pop\n      pop\n      swap1\n      pop\n        /* \"contracts/EtherWei.sol\":941:1103  fallback(bytes calldata input) external payable returns (bytes memory output){ ... */\n      swap2\n      pop\n      pop\n        /* \"contracts/EtherWei.sol\":59:1211  contract Demo{... */\n      dup1\n      mload\n      swap1\n      0x20\n      add\n      return\n        /* \"contracts/EtherWei.sol\":276:431  function add(uint256 num) public view  returns(uint256){... */\n    tag_3:\n      callvalue\n      dup1\n      iszero\n      tag_18\n      jumpi\n      0x00\n      dup1\n      revert\n    tag_18:\n      pop\n      tag_19\n      0x04\n      dup1\n      calldatasize\n      sub\n      dup2\n      add\n      swap1\n      tag_20\n      swap2\n      swap1\n      tag_17\n      jump\t// in\n    tag_20:\n      tag_21\n      jump\t// in\n    tag_19:\n      mload(0x40)\n      tag_22\n      swap2\n      swap1\n      tag_23\n      jump\t// in\n    tag_22:\n      mload(0x40)\n      dup1\n      swap2\n      sub\n      swap1\n      return\n        /* \"contracts/EtherWei.sol\":185:268  function add() public view  returns(uint256){... */\n    tag_4:\n      callvalue\n      dup1\n      iszero\n      tag_24\n      jumpi\n      0x00\n      dup1\n      revert\n    tag_24:\n      pop\n      tag_25\n      tag_26\n      jump\t// in\n    tag_25:\n      mload(0x40)\n      tag_27\n      swap2\n      swap1\n      tag_23\n      jump\t// in\n    tag_27:\n      mload(0x40)\n      dup1\n      swap2\n      sub\n      swap1\n      return\n        /* \"contracts/EtherWei.sol\":156:176  uint256 public param */\n    tag_5:\n      callvalue\n      dup1\n      iszero\n      tag_28\n      jumpi\n      0x00\n      dup1\n      revert\n    tag_28:\n      pop\n      tag_29\n      tag_30\n      jump\t// in\n    tag_29:\n      mload(0x40)\n      tag_31\n      swap2\n      swap1\n      tag_23\n      jump\t// in\n    tag_31:\n      mload(0x40)\n      dup1\n      swap2\n      sub\n      swap1\n      return\n        /* \"contracts/EtherWei.sol\":678:814  function deposit() public payable {... */\n    tag_6:\n      tag_32\n      tag_33\n      jump\t// in\n    tag_32:\n      stop\n        /* \"contracts/EtherWei.sol\":439:670  function verify() public pure  returns(bool,bool,bool){... */\n    tag_7:\n      callvalue\n      dup1\n      iszero\n      tag_34\n      jumpi\n      0x00\n      dup1\n      revert\n    tag_34:\n      pop\n      tag_35\n      tag_36\n      jump\t// in\n    tag_35:\n      mload(0x40)\n      tag_37\n      swap4\n      swap3\n      swap2\n      swap1\n      tag_38\n      jump\t// in\n    tag_37:\n      mload(0x40)\n      dup1\n      swap2\n      sub\n      swap1\n      return\n        /* \"contracts/EtherWei.sol\":276:431  function add(uint256 num) public view  returns(uint256){... */\n    tag_21:\n        /* \"contracts/EtherWei.sol\":323:330  uint256 */\n      0x00\n        /* \"contracts/EtherWei.sol\":416:423  1 ether */\n      0x0de0b6b3a7640000\n        /* \"contracts/EtherWei.sol\":410:413  num */\n      dup3\n        /* \"contracts/EtherWei.sol\":410:423  num * 1 ether */\n      tag_40\n      swap2\n      swap1\n      tag_41\n      jump\t// in\n    tag_40:\n        /* \"contracts/EtherWei.sol\":401:407  amount */\n      sload(0x00)\n        /* \"contracts/EtherWei.sol\":401:423  amount + num * 1 ether */\n      tag_42\n      swap2\n      swap1\n      tag_43\n      jump\t// in\n    tag_42:\n        /* \"contracts/EtherWei.sol\":394:423  return amount + num * 1 ether */\n      swap1\n      pop\n        /* \"contracts/EtherWei.sol\":276:431  function add(uint256 num) public view  returns(uint256){... */\n      swap2\n      swap1\n      pop\n      jump\t// out\n        /* \"contracts/EtherWei.sol\":185:268  function add() public view  returns(uint256){... */\n    tag_26:\n        /* \"contracts/EtherWei.sol\":221:228  uint256 */\n      0x00\n        /* \"contracts/EtherWei.sol\":255:260  1 wei */\n      0x01\n        /* \"contracts/EtherWei.sol\":246:252  amount */\n      sload(0x00)\n        /* \"contracts/EtherWei.sol\":246:260  amount + 1 wei */\n      tag_45\n      swap2\n      swap1\n      tag_43\n      jump\t// in\n    tag_45:\n        /* \"contracts/EtherWei.sol\":239:260  return amount + 1 wei */\n      swap1\n      pop\n        /* \"contracts/EtherWei.sol\":185:268  function add() public view  returns(uint256){... */\n      swap1\n      jump\t// out\n        /* \"contracts/EtherWei.sol\":156:176  uint256 public param */\n    tag_30:\n      sload(0x01)\n      dup2\n      jump\t// out\n        /* \"contracts/EtherWei.sol\":678:814  function deposit() public payable {... */\n    tag_33:\n        /* \"contracts/EtherWei.sol\":728:752  Log(\"deposit\",msg.value) */\n      0xdd970dd9b5bfe707922155b058a407655cb18288b807e2216442bca8ad83d6b5\n        /* \"contracts/EtherWei.sol\":742:751  msg.value */\n      callvalue\n        /* \"contracts/EtherWei.sol\":728:752  Log(\"deposit\",msg.value) */\n      mload(0x40)\n      tag_47\n      swap2\n      swap1\n      tag_48\n      jump\t// in\n    tag_47:\n      mload(0x40)\n      dup1\n      swap2\n      sub\n      swap1\n      log1\n        /* \"contracts/EtherWei.sol\":782:790  msg.data */\n      0x00\n      calldatasize\n        /* \"contracts/EtherWei.sol\":791:792  4 */\n      0x04\n        /* \"contracts/EtherWei.sol\":782:794  msg.data[4:] */\n      swap1\n      dup1\n      swap3\n      tag_49\n      swap4\n      swap3\n      swap2\n      swap1\n      tag_15\n      jump\t// in\n    tag_49:\n        /* \"contracts/EtherWei.sol\":771:806  abi.decode(msg.data[4:], (uint256)) */\n      dup2\n      add\n      swap1\n      tag_50\n      swap2\n      swap1\n      tag_17\n      jump\t// in\n    tag_50:\n        /* \"contracts/EtherWei.sol\":763:768  param */\n      0x01\n        /* \"contracts/EtherWei.sol\":763:806  param = abi.decode(msg.data[4:], (uint256)) */\n      dup2\n      swap1\n      sstore\n      pop\n        /* \"contracts/EtherWei.sol\":678:814  function deposit() public payable {... */\n      jump\t// out\n        /* \"contracts/EtherWei.sol\":439:670  function verify() public pure  returns(bool,bool,bool){... */\n    tag_36:\n        /* \"contracts/EtherWei.sol\":478:482  bool */\n      0x00\n        /* \"contracts/EtherWei.sol\":483:487  bool */\n      dup1\n        /* \"contracts/EtherWei.sol\":488:492  bool */\n      0x00\n        /* \"contracts/EtherWei.sol\":504:515  bool onewei */\n      dup1\n        /* \"contracts/EtherWei.sol\":527:528  1 */\n      0x01\n        /* \"contracts/EtherWei.sol\":518:523  1 wei */\n      dup1\n        /* \"contracts/EtherWei.sol\":518:528  1 wei == 1 */\n      eq\n        /* \"contracts/EtherWei.sol\":504:528  bool onewei = 1 wei == 1 */\n      swap1\n      pop\n        /* \"contracts/EtherWei.sol\":539:551  bool onegwei */\n      0x00\n        /* \"contracts/EtherWei.sol\":564:571  10 ** 9 */\n      0x3b9aca00\n        /* \"contracts/EtherWei.sol\":554:560  1 gwei */\n      dup1\n        /* \"contracts/EtherWei.sol\":554:571  1 gwei == 10 ** 9 */\n      eq\n        /* \"contracts/EtherWei.sol\":539:571  bool onegwei = 1 gwei == 10 ** 9 */\n      swap1\n      pop\n        /* \"contracts/EtherWei.sol\":582:595  bool oneether */\n      0x00\n        /* \"contracts/EtherWei.sol\":609:617  10 ** 18 */\n      0x0de0b6b3a7640000\n        /* \"contracts/EtherWei.sol\":598:605  1 ether */\n      dup1\n        /* \"contracts/EtherWei.sol\":598:617  1 ether == 10 ** 18 */\n      eq\n        /* \"contracts/EtherWei.sol\":582:617  bool oneether = 1 ether == 10 ** 18 */\n      swap1\n      pop\n        /* \"contracts/EtherWei.sol\":638:644  onewei */\n      dup3\n        /* \"contracts/EtherWei.sol\":645:652  onegwei */\n      dup3\n        /* \"contracts/EtherWei.sol\":653:661  oneether */\n      dup3\n        /* \"contracts/EtherWei.sol\":630:662  return (onewei,onegwei,oneether) */\n      swap6\n      pop\n      swap6\n      pop\n      swap6\n      pop\n      pop\n      pop\n      pop\n        /* \"contracts/EtherWei.sol\":439:670  function verify() public pure  returns(bool,bool,bool){... */\n      swap1\n      swap2\n      swap3\n      jump\t// out\n        /* \"#utility.yul\":7:176   */\n    tag_52:\n        /* \"#utility.yul\":91:102   */\n      0x00\n        /* \"#utility.yul\":125:131   */\n      dup3\n        /* \"#utility.yul\":120:123   */\n      dup3\n        /* \"#utility.yul\":113:132   */\n      mstore\n        /* \"#utility.yul\":165:169   */\n      0x20\n        /* \"#utility.yul\":160:163   */\n      dup3\n        /* \"#utility.yul\":156:170   */\n      add\n        /* \"#utility.yul\":141:170   */\n      swap1\n      pop\n        /* \"#utility.yul\":7:176   */\n      swap3\n      swap2\n      pop\n      pop\n      jump\t// out\n        /* \"#utility.yul\":182:339   */\n    tag_53:\n        /* \"#utility.yul\":322:331   */\n      0x7265636569766500000000000000000000000000000000000000000000000000\n        /* \"#utility.yul\":318:319   */\n      0x00\n        /* \"#utility.yul\":310:316   */\n      dup3\n        /* \"#utility.yul\":306:320   */\n      add\n        /* \"#utility.yul\":299:332   */\n      mstore\n        /* \"#utility.yul\":182:339   */\n      pop\n      jump\t// out\n        /* \"#utility.yul\":345:710   */\n    tag_54:\n        /* \"#utility.yul\":487:490   */\n      0x00\n        /* \"#utility.yul\":508:574   */\n      tag_73\n        /* \"#utility.yul\":572:573   */\n      0x07\n        /* \"#utility.yul\":567:570   */\n      dup4\n        /* \"#utility.yul\":508:574   */\n      tag_52\n      jump\t// in\n    tag_73:\n        /* \"#utility.yul\":501:574   */\n      swap2\n      pop\n        /* \"#utility.yul\":583:676   */\n      tag_74\n        /* \"#utility.yul\":672:675   */\n      dup3\n        /* \"#utility.yul\":583:676   */\n      tag_53\n      jump\t// in\n    tag_74:\n        /* \"#utility.yul\":701:703   */\n      0x20\n        /* \"#utility.yul\":696:699   */\n      dup3\n        /* \"#utility.yul\":692:704   */\n      add\n        /* \"#utility.yul\":685:704   */\n      swap1\n      pop\n        /* \"#utility.yul\":345:710   */\n      swap2\n      swap1\n      pop\n      jump\t// out\n        /* \"#utility.yul\":716:793   */\n    tag_55:\n        /* \"#utility.yul\":753:760   */\n      0x00\n        /* \"#utility.yul\":782:787   */\n      dup2\n        /* \"#utility.yul\":771:787   */\n      swap1\n      pop\n        /* \"#utility.yul\":716:793   */\n      swap2\n      swap1\n      pop\n      jump\t// out\n        /* \"#utility.yul\":799:917   */\n    tag_56:\n        /* \"#utility.yul\":886:910   */\n      tag_77\n        /* \"#utility.yul\":904:909   */\n      dup2\n        /* \"#utility.yul\":886:910   */\n      tag_55\n      jump\t// in\n    tag_77:\n        /* \"#utility.yul\":881:884   */\n      dup3\n        /* \"#utility.yul\":874:911   */\n      mstore\n        /* \"#utility.yul\":799:917   */\n      pop\n      pop\n      jump\t// out\n        /* \"#utility.yul\":923:1452   */\n    tag_11:\n        /* \"#utility.yul\":1117:1121   */\n      0x00\n        /* \"#utility.yul\":1155:1157   */\n      0x40\n        /* \"#utility.yul\":1144:1153   */\n      dup3\n        /* \"#utility.yul\":1140:1158   */\n      add\n        /* \"#utility.yul\":1132:1158   */\n      swap1\n      pop\n        /* \"#utility.yul\":1204:1213   */\n      dup2\n        /* \"#utility.yul\":1198:1202   */\n      dup2\n        /* \"#utility.yul\":1194:1214   */\n      sub\n        /* \"#utility.yul\":1190:1191   */\n      0x00\n        /* \"#utility.yul\":1179:1188   */\n      dup4\n        /* \"#utility.yul\":1175:1192   */\n      add\n        /* \"#utility.yul\":1168:1215   */\n      mstore\n        /* \"#utility.yul\":1232:1363   */\n      tag_79\n        /* \"#utility.yul\":1358:1362   */\n      dup2\n        /* \"#utility.yul\":1232:1363   */\n      tag_54\n      jump\t// in\n    tag_79:\n        /* \"#utility.yul\":1224:1363   */\n      swap1\n      pop\n        /* \"#utility.yul\":1373:1445   */\n      tag_80\n        /* \"#utility.yul\":1441:1443   */\n      0x20\n        /* \"#utility.yul\":1430:1439   */\n      dup4\n        /* \"#utility.yul\":1426:1444   */\n      add\n        /* \"#utility.yul\":1417:1423   */\n      dup5\n        /* \"#utility.yul\":1373:1445   */\n      tag_56\n      jump\t// in\n    tag_80:\n        /* \"#utility.yul\":923:1452   */\n      swap3\n      swap2\n      pop\n      pop\n      jump\t// out\n        /* \"#utility.yul\":1539:1656   */\n    tag_58:\n        /* \"#utility.yul\":1648:1649   */\n      0x00\n        /* \"#utility.yul\":1645:1646   */\n      dup1\n        /* \"#utility.yul\":1638:1650   */\n      revert\n        /* \"#utility.yul\":1662:1779   */\n    tag_59:\n        /* \"#utility.yul\":1771:1772   */\n      0x00\n        /* \"#utility.yul\":1768:1769   */\n      dup1\n        /* \"#utility.yul\":1761:1773   */\n      revert\n        /* \"#utility.yul\":1785:2254   */\n    tag_15:\n        /* \"#utility.yul\":1890:1899   */\n      0x00\n        /* \"#utility.yul\":1901:1910   */\n      dup1\n        /* \"#utility.yul\":1939:1947   */\n      dup6\n        /* \"#utility.yul\":1927:1937   */\n      dup6\n        /* \"#utility.yul\":1924:1948   */\n      gt\n        /* \"#utility.yul\":1921:2032   */\n      iszero\n      tag_85\n      jumpi\n        /* \"#utility.yul\":1951:2030   */\n      tag_86\n      tag_58\n      jump\t// in\n    tag_86:\n        /* \"#utility.yul\":1921:2032   */\n    tag_85:\n        /* \"#utility.yul\":2057:2063   */\n      dup4\n        /* \"#utility.yul\":2047:2055   */\n      dup7\n        /* \"#utility.yul\":2044:2064   */\n      gt\n        /* \"#utility.yul\":2041:2148   */\n      iszero\n      tag_87\n      jumpi\n        /* \"#utility.yul\":2067:2146   */\n      tag_88\n      tag_59\n      jump\t// in\n    tag_88:\n        /* \"#utility.yul\":2041:2148   */\n    tag_87:\n        /* \"#utility.yul\":2198:2199   */\n      0x01\n        /* \"#utility.yul\":2186:2196   */\n      dup6\n        /* \"#utility.yul\":2182:2200   */\n      mul\n        /* \"#utility.yul\":2174:2180   */\n      dup4\n        /* \"#utility.yul\":2170:2201   */\n      add\n        /* \"#utility.yul\":2157:2201   */\n      swap2\n      pop\n        /* \"#utility.yul\":2237:2247   */\n      dup5\n        /* \"#utility.yul\":2227:2235   */\n      dup7\n        /* \"#utility.yul\":2223:2248   */\n      sub\n        /* \"#utility.yul\":2210:2248   */\n      swap1\n      pop\n        /* \"#utility.yul\":1785:2254   */\n      swap5\n      pop\n      swap5\n      swap3\n      pop\n      pop\n      pop\n      jump\t// out\n        /* \"#utility.yul\":2260:2377   */\n    tag_60:\n        /* \"#utility.yul\":2369:2370   */\n      0x00\n        /* \"#utility.yul\":2366:2367   */\n      dup1\n        /* \"#utility.yul\":2359:2371   */\n      revert\n        /* \"#utility.yul\":2506:2628   */\n    tag_62:\n        /* \"#utility.yul\":2579:2603   */\n      tag_92\n        /* \"#utility.yul\":2597:2602   */\n      dup2\n        /* \"#utility.yul\":2579:2603   */\n      tag_55\n      jump\t// in\n    tag_92:\n        /* \"#utility.yul\":2572:2577   */\n      dup2\n        /* \"#utility.yul\":2569:2604   */\n      eq\n        /* \"#utility.yul\":2559:2622   */\n      tag_93\n      jumpi\n        /* \"#utility.yul\":2618:2619   */\n      0x00\n        /* \"#utility.yul\":2615:2616   */\n      dup1\n        /* \"#utility.yul\":2608:2620   */\n      revert\n        /* \"#utility.yul\":2559:2622   */\n    tag_93:\n        /* \"#utility.yul\":2506:2628   */\n      pop\n      jump\t// out\n        /* \"#utility.yul\":2634:2773   */\n    tag_63:\n        /* \"#utility.yul\":2680:2685   */\n      0x00\n        /* \"#utility.yul\":2718:2724   */\n      dup2\n        /* \"#utility.yul\":2705:2725   */\n      calldataload\n        /* \"#utility.yul\":2696:2725   */\n      swap1\n      pop\n        /* \"#utility.yul\":2734:2767   */\n      tag_95\n        /* \"#utility.yul\":2761:2766   */\n      dup2\n        /* \"#utility.yul\":2734:2767   */\n      tag_62\n      jump\t// in\n    tag_95:\n        /* \"#utility.yul\":2634:2773   */\n      swap3\n      swap2\n      pop\n      pop\n      jump\t// out\n        /* \"#utility.yul\":2779:3108   */\n    tag_17:\n        /* \"#utility.yul\":2838:2844   */\n      0x00\n        /* \"#utility.yul\":2887:2889   */\n      0x20\n        /* \"#utility.yul\":2875:2884   */\n      dup3\n        /* \"#utility.yul\":2866:2873   */\n      dup5\n        /* \"#utility.yul\":2862:2885   */\n      sub\n        /* \"#utility.yul\":2858:2890   */\n      slt\n        /* \"#utility.yul\":2855:2974   */\n      iszero\n      tag_97\n      jumpi\n        /* \"#utility.yul\":2893:2972   */\n      tag_98\n      tag_60\n      jump\t// in\n    tag_98:\n        /* \"#utility.yul\":2855:2974   */\n    tag_97:\n        /* \"#utility.yul\":3013:3014   */\n      0x00\n        /* \"#utility.yul\":3038:3091   */\n      tag_99\n        /* \"#utility.yul\":3083:3090   */\n      dup5\n        /* \"#utility.yul\":3074:3080   */\n      dup3\n        /* \"#utility.yul\":3063:3072   */\n      dup6\n        /* \"#utility.yul\":3059:3081   */\n      add\n        /* \"#utility.yul\":3038:3091   */\n      tag_63\n      jump\t// in\n    tag_99:\n        /* \"#utility.yul\":3028:3091   */\n      swap2\n      pop\n        /* \"#utility.yul\":2984:3101   */\n      pop\n        /* \"#utility.yul\":2779:3108   */\n      swap3\n      swap2\n      pop\n      pop\n      jump\t// out\n        /* \"#utility.yul\":3114:3336   */\n    tag_23:\n        /* \"#utility.yul\":3207:3211   */\n      0x00\n        /* \"#utility.yul\":3245:3247   */\n      0x20\n        /* \"#utility.yul\":3234:3243   */\n      dup3\n        /* \"#utility.yul\":3230:3248   */\n      add\n        /* \"#utility.yul\":3222:3248   */\n      swap1\n      pop\n        /* \"#utility.yul\":3258:3329   */\n      tag_101\n        /* \"#utility.yul\":3326:3327   */\n      0x00\n        /* \"#utility.yul\":3315:3324   */\n      dup4\n        /* \"#utility.yul\":3311:3328   */\n      add\n        /* \"#utility.yul\":3302:3308   */\n      dup5\n        /* \"#utility.yul\":3258:3329   */\n      tag_56\n      jump\t// in\n    tag_101:\n        /* \"#utility.yul\":3114:3336   */\n      swap3\n      swap2\n      pop\n      pop\n      jump\t// out\n        /* \"#utility.yul\":3342:3432   */\n    tag_64:\n        /* \"#utility.yul\":3376:3383   */\n      0x00\n        /* \"#utility.yul\":3419:3424   */\n      dup2\n        /* \"#utility.yul\":3412:3425   */\n      iszero\n        /* \"#utility.yul\":3405:3426   */\n      iszero\n        /* \"#utility.yul\":3394:3426   */\n      swap1\n      pop\n        /* \"#utility.yul\":3342:3432   */\n      swap2\n      swap1\n      pop\n      jump\t// out\n        /* \"#utility.yul\":3438:3547   */\n    tag_65:\n        /* \"#utility.yul\":3519:3540   */\n      tag_104\n        /* \"#utility.yul\":3534:3539   */\n      dup2\n        /* \"#utility.yul\":3519:3540   */\n      tag_64\n      jump\t// in\n    tag_104:\n        /* \"#utility.yul\":3514:3517   */\n      dup3\n        /* \"#utility.yul\":3507:3541   */\n      mstore\n        /* \"#utility.yul\":3438:3547   */\n      pop\n      pop\n      jump\t// out\n        /* \"#utility.yul\":3553:3959   */\n    tag_38:\n        /* \"#utility.yul\":3684:3688   */\n      0x00\n        /* \"#utility.yul\":3722:3724   */\n      0x60\n        /* \"#utility.yul\":3711:3720   */\n      dup3\n        /* \"#utility.yul\":3707:3725   */\n      add\n        /* \"#utility.yul\":3699:3725   */\n      swap1\n      pop\n        /* \"#utility.yul\":3735:3800   */\n      tag_106\n        /* \"#utility.yul\":3797:3798   */\n      0x00\n        /* \"#utility.yul\":3786:3795   */\n      dup4\n        /* \"#utility.yul\":3782:3799   */\n      add\n        /* \"#utility.yul\":3773:3779   */\n      dup7\n        /* \"#utility.yul\":3735:3800   */\n      tag_65\n      jump\t// in\n    tag_106:\n        /* \"#utility.yul\":3810:3876   */\n      tag_107\n        /* \"#utility.yul\":3872:3874   */\n      0x20\n        /* \"#utility.yul\":3861:3870   */\n      dup4\n        /* \"#utility.yul\":3857:3875   */\n      add\n        /* \"#utility.yul\":3848:3854   */\n      dup6\n        /* \"#utility.yul\":3810:3876   */\n      tag_65\n      jump\t// in\n    tag_107:\n        /* \"#utility.yul\":3886:3952   */\n      tag_108\n        /* \"#utility.yul\":3948:3950   */\n      0x40\n        /* \"#utility.yul\":3937:3946   */\n      dup4\n        /* \"#utility.yul\":3933:3951   */\n      add\n        /* \"#utility.yul\":3924:3930   */\n      dup5\n        /* \"#utility.yul\":3886:3952   */\n      tag_65\n      jump\t// in\n    tag_108:\n        /* \"#utility.yul\":3553:3959   */\n      swap5\n      swap4\n      pop\n      pop\n      pop\n      pop\n      jump\t// out\n        /* \"#utility.yul\":3965:4145   */\n    tag_66:\n        /* \"#utility.yul\":4013:4090   */\n      0x4e487b7100000000000000000000000000000000000000000000000000000000\n        /* \"#utility.yul\":4010:4011   */\n      0x00\n        /* \"#utility.yul\":4003:4091   */\n      mstore\n        /* \"#utility.yul\":4110:4114   */\n      0x11\n        /* \"#utility.yul\":4107:4108   */\n      0x04\n        /* \"#utility.yul\":4100:4115   */\n      mstore\n        /* \"#utility.yul\":4134:4138   */\n      0x24\n        /* \"#utility.yul\":4131:4132   */\n      0x00\n        /* \"#utility.yul\":4124:4139   */\n      revert\n        /* \"#utility.yul\":4151:4561   */\n    tag_41:\n        /* \"#utility.yul\":4191:4198   */\n      0x00\n        /* \"#utility.yul\":4214:4234   */\n      tag_111\n        /* \"#utility.yul\":4232:4233   */\n      dup3\n        /* \"#utility.yul\":4214:4234   */\n      tag_55\n      jump\t// in\n    tag_111:\n        /* \"#utility.yul\":4209:4234   */\n      swap2\n      pop\n        /* \"#utility.yul\":4248:4268   */\n      tag_112\n        /* \"#utility.yul\":4266:4267   */\n      dup4\n        /* \"#utility.yul\":4248:4268   */\n      tag_55\n      jump\t// in\n    tag_112:\n        /* \"#utility.yul\":4243:4268   */\n      swap3\n      pop\n        /* \"#utility.yul\":4303:4304   */\n      dup3\n        /* \"#utility.yul\":4300:4301   */\n      dup3\n        /* \"#utility.yul\":4296:4305   */\n      mul\n        /* \"#utility.yul\":4325:4355   */\n      tag_113\n        /* \"#utility.yul\":4343:4354   */\n      dup2\n        /* \"#utility.yul\":4325:4355   */\n      tag_55\n      jump\t// in\n    tag_113:\n        /* \"#utility.yul\":4314:4355   */\n      swap2\n      pop\n        /* \"#utility.yul\":4504:4505   */\n      dup3\n        /* \"#utility.yul\":4495:4502   */\n      dup3\n        /* \"#utility.yul\":4491:4506   */\n      div\n        /* \"#utility.yul\":4488:4489   */\n      dup5\n        /* \"#utility.yul\":4485:4507   */\n      eq\n        /* \"#utility.yul\":4465:4466   */\n      dup4\n        /* \"#utility.yul\":4458:4467   */\n      iszero\n        /* \"#utility.yul\":4438:4521   */\n      or\n        /* \"#utility.yul\":4415:4554   */\n      tag_114\n      jumpi\n        /* \"#utility.yul\":4534:4552   */\n      tag_115\n      tag_66\n      jump\t// in\n    tag_115:\n        /* \"#utility.yul\":4415:4554   */\n    tag_114:\n        /* \"#utility.yul\":4199:4561   */\n      pop\n        /* \"#utility.yul\":4151:4561   */\n      swap3\n      swap2\n      pop\n      pop\n      jump\t// out\n        /* \"#utility.yul\":4567:4758   */\n    tag_43:\n        /* \"#utility.yul\":4607:4610   */\n      0x00\n        /* \"#utility.yul\":4626:4646   */\n      tag_117\n        /* \"#utility.yul\":4644:4645   */\n      dup3\n        /* \"#utility.yul\":4626:4646   */\n      tag_55\n      jump\t// in\n    tag_117:\n        /* \"#utility.yul\":4621:4646   */\n      swap2\n      pop\n        /* \"#utility.yul\":4660:4680   */\n      tag_118\n        /* \"#utility.yul\":4678:4679   */\n      dup4\n        /* \"#utility.yul\":4660:4680   */\n      tag_55\n      jump\t// in\n    tag_118:\n        /* \"#utility.yul\":4655:4680   */\n      swap3\n      pop\n        /* \"#utility.yul\":4703:4704   */\n      dup3\n        /* \"#utility.yul\":4700:4701   */\n      dup3\n        /* \"#utility.yul\":4696:4705   */\n      add\n        /* \"#utility.yul\":4689:4705   */\n      swap1\n      pop\n        /* \"#utility.yul\":4724:4727   */\n      dup1\n        /* \"#utility.yul\":4721:4722   */\n      dup3\n        /* \"#utility.yul\":4718:4728   */\n      gt\n        /* \"#utility.yul\":4715:4751   */\n      iszero\n      tag_119\n      jumpi\n        /* \"#utility.yul\":4731:4749   */\n      tag_120\n      tag_66\n      jump\t// in\n    tag_120:\n        /* \"#utility.yul\":4715:4751   */\n    tag_119:\n        /* \"#utility.yul\":4567:4758   */\n      swap3\n      swap2\n      pop\n      pop\n      jump\t// out\n        /* \"#utility.yul\":4764:4921   */\n    tag_67:\n        /* \"#utility.yul\":4904:4913   */\n      0x6465706f73697400000000000000000000000000000000000000000000000000\n        /* \"#utility.yul\":4900:4901   */\n      0x00\n        /* \"#utility.yul\":4892:4898   */\n      dup3\n        /* \"#utility.yul\":4888:4902   */\n      add\n        /* \"#utility.yul\":4881:4914   */\n      mstore\n        /* \"#utility.yul\":4764:4921   */\n      pop\n      jump\t// out\n        /* \"#utility.yul\":4927:5292   */\n    tag_68:\n        /* \"#utility.yul\":5069:5072   */\n      0x00\n        /* \"#utility.yul\":5090:5156   */\n      tag_123\n        /* \"#utility.yul\":5154:5155   */\n      0x07\n        /* \"#utility.yul\":5149:5152   */\n      dup4\n        /* \"#utility.yul\":5090:5156   */\n      tag_52\n      jump\t// in\n    tag_123:\n        /* \"#utility.yul\":5083:5156   */\n      swap2\n      pop\n        /* \"#utility.yul\":5165:5258   */\n      tag_124\n        /* \"#utility.yul\":5254:5257   */\n      dup3\n        /* \"#utility.yul\":5165:5258   */\n      tag_67\n      jump\t// in\n    tag_124:\n        /* \"#utility.yul\":5283:5285   */\n      0x20\n        /* \"#utility.yul\":5278:5281   */\n      dup3\n        /* \"#utility.yul\":5274:5286   */\n      add\n        /* \"#utility.yul\":5267:5286   */\n      swap1\n      pop\n        /* \"#utility.yul\":4927:5292   */\n      swap2\n      swap1\n      pop\n      jump\t// out\n        /* \"#utility.yul\":5298:5827   */\n    tag_48:\n        /* \"#utility.yul\":5492:5496   */\n      0x00\n        /* \"#utility.yul\":5530:5532   */\n      0x40\n        /* \"#utility.yul\":5519:5528   */\n      dup3\n        /* \"#utility.yul\":5515:5533   */\n      add\n        /* \"#utility.yul\":5507:5533   */\n      swap1\n      pop\n        /* \"#utility.yul\":5579:5588   */\n      dup2\n        /* \"#utility.yul\":5573:5577   */\n      dup2\n        /* \"#utility.yul\":5569:5589   */\n      sub\n        /* \"#utility.yul\":5565:5566   */\n      0x00\n        /* \"#utility.yul\":5554:5563   */\n      dup4\n        /* \"#utility.yul\":5550:5567   */\n      add\n        /* \"#utility.yul\":5543:5590   */\n      mstore\n        /* \"#utility.yul\":5607:5738   */\n      tag_126\n        /* \"#utility.yul\":5733:5737   */\n      dup2\n        /* \"#utility.yul\":5607:5738   */\n      tag_68\n      jump\t// in\n    tag_126:\n        /* \"#utility.yul\":5599:5738   */\n      swap1\n      pop\n        /* \"#utility.yul\":5748:5820   */\n      tag_127\n        /* \"#utility.yul\":5816:5818   */\n      0x20\n        /* \"#utility.yul\":5805:5814   */\n      dup4\n        /* \"#utility.yul\":5801:5819   */\n      add\n        /* \"#utility.yul\":5792:5798   */\n      dup5\n        /* \"#utility.yul\":5748:5820   */\n      tag_56\n      jump\t// in\n    tag_127:\n        /* \"#utility.yul\":5298:5827   */\n      swap3\n      swap2\n      pop\n      pop\n      jump\t// out\n\n    auxdata: 0xa2646970667358221220dac6ad411d8c4f393b210ef11710fc9db03e2bac69d76f5d1f4586d9b8b7f16064736f6c63430008180033\n}\n",
				"bytecode": {
					"linkReferences": {},
					"object": "608060405260015f55348015610013575f80fd5b50610595806100215f395ff3fe60806040526004361061004d575f3560e01c80631003e2d21461010d5780634f2be91f14610149578063883d87b114610173578063d0e30db01461019d578063fc735e99146101a757610092565b366100925760025f819055507fdd970dd9b5bfe707922155b058a407655cb18288b807e2216442bca8ad83d6b5346040516100889190610319565b60405180910390a1005b5f366060828260049080926100a99392919061034d565b8101906100b691906103b5565b60018190555082828080601f0160208091040260200160405190810160405280939291908181526020018383808284375f81840152601f19601f820116905080830192505050505050509050915050805190602001f35b348015610118575f80fd5b50610133600480360381019061012e91906103b5565b6101d3565b60405161014091906103e0565b60405180910390f35b348015610154575f80fd5b5061015d6101fb565b60405161016a91906103e0565b60405180910390f35b34801561017e575f80fd5b5061018761020f565b60405161019491906103e0565b60405180910390f35b6101a5610215565b005b3480156101b2575f80fd5b506101bb610274565b6040516101ca93929190610413565b60405180910390f35b5f670de0b6b3a7640000826101e89190610475565b5f546101f491906104b6565b9050919050565b5f60015f5461020a91906104b6565b905090565b60015481565b7fdd970dd9b5bfe707922155b058a407655cb18288b807e2216442bca8ad83d6b5346040516102449190610533565b60405180910390a15f36600490809261025f9392919061034d565b81019061026c91906103b5565b600181905550565b5f805f806001801490505f633b9aca00801490505f670de0b6b3a764000080149050828282955095509550505050909192565b5f82825260208201905092915050565b7f72656365697665000000000000000000000000000000000000000000000000005f82015250565b5f6102eb6007836102a7565b91506102f6826102b7565b602082019050919050565b5f819050919050565b61031381610301565b82525050565b5f6040820190508181035f830152610330816102df565b905061033f602083018461030a565b92915050565b5f80fd5b5f80fd5b5f80858511156103605761035f610345565b5b8386111561037157610370610349565b5b6001850283019150848603905094509492505050565b5f80fd5b61039481610301565b811461039e575f80fd5b50565b5f813590506103af8161038b565b92915050565b5f602082840312156103ca576103c9610387565b5b5f6103d7848285016103a1565b91505092915050565b5f6020820190506103f35f83018461030a565b92915050565b5f8115159050919050565b61040d816103f9565b82525050565b5f6060820190506104265f830186610404565b6104336020830185610404565b6104406040830184610404565b949350505050565b7f4e487b71000000000000000000000000000000000000000000000000000000005f52601160045260245ffd5b5f61047f82610301565b915061048a83610301565b925082820261049881610301565b915082820484148315176104af576104ae610448565b5b5092915050565b5f6104c082610301565b91506104cb83610301565b92508282019050808211156104e3576104e2610448565b5b92915050565b7f6465706f736974000000000000000000000000000000000000000000000000005f82015250565b5f61051d6007836102a7565b9150610528826104e9565b602082019050919050565b5f6040820190508181035f83015261054a81610511565b9050610559602083018461030a565b9291505056fea2646970667358221220dac6ad411d8c4f393b210ef11710fc9db03e2bac69d76f5d1f4586d9b8b7f16064736f6c63430008180033",
					"opcodes": "PUSH1 0x80 PUSH1 0x40 MSTORE PUSH1 0x1 PUSH0 SSTORE CALLVALUE DUP1 ISZERO PUSH2 0x13 JUMPI PUSH0 DUP1 REVERT JUMPDEST POP PUSH2 0x595 DUP1 PUSH2 0x21 PUSH0 CODECOPY PUSH0 RETURN INVALID PUSH1 0x80 PUSH1 0x40 MSTORE PUSH1 0x4 CALLDATASIZE LT PUSH2 0x4D JUMPI PUSH0 CALLDATALOAD PUSH1 0xE0 SHR DUP1 PUSH4 0x1003E2D2 EQ PUSH2 0x10D JUMPI DUP1 PUSH4 0x4F2BE91F EQ PUSH2 0x149 JUMPI DUP1 PUSH4 0x883D87B1 EQ PUSH2 0x173 JUMPI DUP1 PUSH4 0xD0E30DB0 EQ PUSH2 0x19D JUMPI DUP1 PUSH4 0xFC735E99 EQ PUSH2 0x1A7 JUMPI PUSH2 0x92 JUMP JUMPDEST CALLDATASIZE PUSH2 0x92 JUMPI PUSH1 0x2 PUSH0 DUP2 SWAP1 SSTORE POP PUSH32 0xDD970DD9B5BFE707922155B058A407655CB18288B807E2216442BCA8AD83D6B5 CALLVALUE PUSH1 0x40 MLOAD PUSH2 0x88 SWAP2 SWAP1 PUSH2 0x319 JUMP JUMPDEST PUSH1 0x40 MLOAD DUP1 SWAP2 SUB SWAP1 LOG1 STOP JUMPDEST PUSH0 CALLDATASIZE PUSH1 0x60 DUP3 DUP3 PUSH1 0x4 SWAP1 DUP1 SWAP3 PUSH2 0xA9 SWAP4 SWAP3 SWAP2 SWAP1 PUSH2 0x34D JUMP JUMPDEST DUP2 ADD SWAP1 PUSH2 0xB6 SWAP2 SWAP1 PUSH2 0x3B5 JUMP JUMPDEST PUSH1 0x1 DUP2 SWAP1 SSTORE POP DUP3 DUP3 DUP1 DUP1 PUSH1 0x1F ADD PUSH1 0x20 DUP1 SWAP2 DIV MUL PUSH1 0x20 ADD PUSH1 0x40 MLOAD SWAP1 DUP2 ADD PUSH1 0x40 MSTORE DUP1 SWAP4 SWAP3 SWAP2 SWAP1 DUP2 DUP2 MSTORE PUSH1 0x20 ADD DUP4 DUP4 DUP1 DUP3 DUP5 CALLDATACOPY PUSH0 DUP2 DUP5 ADD MSTORE PUSH1 0x1F NOT PUSH1 0x1F DUP3 ADD AND SWAP1 POP DUP1 DUP4 ADD SWAP3 POP POP POP POP POP POP POP SWAP1 POP SWAP2 POP POP DUP1 MLOAD SWAP1 PUSH1 0x20 ADD RETURN JUMPDEST CALLVALUE DUP1 ISZERO PUSH2 0x118 JUMPI PUSH0 DUP1 REVERT JUMPDEST POP PUSH2 0x133 PUSH1 0x4 DUP1 CALLDATASIZE SUB DUP2 ADD SWAP1 PUSH2 0x12E SWAP2 SWAP1 PUSH2 0x3B5 JUMP JUMPDEST PUSH2 0x1D3 JUMP JUMPDEST PUSH1 0x40 MLOAD PUSH2 0x140 SWAP2 SWAP1 PUSH2 0x3E0 JUMP JUMPDEST PUSH1 0x40 MLOAD DUP1 SWAP2 SUB SWAP1 RETURN JUMPDEST CALLVALUE DUP1 ISZERO PUSH2 0x154 JUMPI PUSH0 DUP1 REVERT JUMPDEST POP PUSH2 0x15D PUSH2 0x1FB JUMP JUMPDEST PUSH1 0x40 MLOAD PUSH2 0x16A SWAP2 SWAP1 PUSH2 0x3E0 JUMP JUMPDEST PUSH1 0x40 MLOAD DUP1 SWAP2 SUB SWAP1 RETURN JUMPDEST CALLVALUE DUP1 ISZERO PUSH2 0x17E JUMPI PUSH0 DUP1 REVERT JUMPDEST POP PUSH2 0x187 PUSH2 0x20F JUMP JUMPDEST PUSH1 0x40 MLOAD PUSH2 0x194 SWAP2 SWAP1 PUSH2 0x3E0 JUMP JUMPDEST PUSH1 0x40 MLOAD DUP1 SWAP2 SUB SWAP1 RETURN JUMPDEST PUSH2 0x1A5 PUSH2 0x215 JUMP JUMPDEST STOP JUMPDEST CALLVALUE DUP1 ISZERO PUSH2 0x1B2 JUMPI PUSH0 DUP1 REVERT JUMPDEST POP PUSH2 0x1BB PUSH2 0x274 JUMP JUMPDEST PUSH1 0x40 MLOAD PUSH2 0x1CA SWAP4 SWAP3 SWAP2 SWAP1 PUSH2 0x413 JUMP JUMPDEST PUSH1 0x40 MLOAD DUP1 SWAP2 SUB SWAP1 RETURN JUMPDEST PUSH0 PUSH8 0xDE0B6B3A7640000 DUP3 PUSH2 0x1E8 SWAP2 SWAP1 PUSH2 0x475 JUMP JUMPDEST PUSH0 SLOAD PUSH2 0x1F4 SWAP2 SWAP1 PUSH2 0x4B6 JUMP JUMPDEST SWAP1 POP SWAP2 SWAP1 POP JUMP JUMPDEST PUSH0 PUSH1 0x1 PUSH0 SLOAD PUSH2 0x20A SWAP2 SWAP1 PUSH2 0x4B6 JUMP JUMPDEST SWAP1 POP SWAP1 JUMP JUMPDEST PUSH1 0x1 SLOAD DUP2 JUMP JUMPDEST PUSH32 0xDD970DD9B5BFE707922155B058A407655CB18288B807E2216442BCA8AD83D6B5 CALLVALUE PUSH1 0x40 MLOAD PUSH2 0x244 SWAP2 SWAP1 PUSH2 0x533 JUMP JUMPDEST PUSH1 0x40 MLOAD DUP1 SWAP2 SUB SWAP1 LOG1 PUSH0 CALLDATASIZE PUSH1 0x4 SWAP1 DUP1 SWAP3 PUSH2 0x25F SWAP4 SWAP3 SWAP2 SWAP1 PUSH2 0x34D JUMP JUMPDEST DUP2 ADD SWAP1 PUSH2 0x26C SWAP2 SWAP1 PUSH2 0x3B5 JUMP JUMPDEST PUSH1 0x1 DUP2 SWAP1 SSTORE POP JUMP JUMPDEST PUSH0 DUP1 PUSH0 DUP1 PUSH1 0x1 DUP1 EQ SWAP1 POP PUSH0 PUSH4 0x3B9ACA00 DUP1 EQ SWAP1 POP PUSH0 PUSH8 0xDE0B6B3A7640000 DUP1 EQ SWAP1 POP DUP3 DUP3 DUP3 SWAP6 POP SWAP6 POP SWAP6 POP POP POP POP SWAP1 SWAP2 SWAP3 JUMP JUMPDEST PUSH0 DUP3 DUP3 MSTORE PUSH1 0x20 DUP3 ADD SWAP1 POP SWAP3 SWAP2 POP POP JUMP JUMPDEST PUSH32 0x7265636569766500000000000000000000000000000000000000000000000000 PUSH0 DUP3 ADD MSTORE POP JUMP JUMPDEST PUSH0 PUSH2 0x2EB PUSH1 0x7 DUP4 PUSH2 0x2A7 JUMP JUMPDEST SWAP2 POP PUSH2 0x2F6 DUP3 PUSH2 0x2B7 JUMP JUMPDEST PUSH1 0x20 DUP3 ADD SWAP1 POP SWAP2 SWAP1 POP JUMP JUMPDEST PUSH0 DUP2 SWAP1 POP SWAP2 SWAP1 POP JUMP JUMPDEST PUSH2 0x313 DUP2 PUSH2 0x301 JUMP JUMPDEST DUP3 MSTORE POP POP JUMP JUMPDEST PUSH0 PUSH1 0x40 DUP3 ADD SWAP1 POP DUP2 DUP2 SUB PUSH0 DUP4 ADD MSTORE PUSH2 0x330 DUP2 PUSH2 0x2DF JUMP JUMPDEST SWAP1 POP PUSH2 0x33F PUSH1 0x20 DUP4 ADD DUP5 PUSH2 0x30A JUMP JUMPDEST SWAP3 SWAP2 POP POP JUMP JUMPDEST PUSH0 DUP1 REVERT JUMPDEST PUSH0 DUP1 REVERT JUMPDEST PUSH0 DUP1 DUP6 DUP6 GT ISZERO PUSH2 0x360 JUMPI PUSH2 0x35F PUSH2 0x345 JUMP JUMPDEST JUMPDEST DUP4 DUP7 GT ISZERO PUSH2 0x371 JUMPI PUSH2 0x370 PUSH2 0x349 JUMP JUMPDEST JUMPDEST PUSH1 0x1 DUP6 MUL DUP4 ADD SWAP2 POP DUP5 DUP7 SUB SWAP1 POP SWAP5 POP SWAP5 SWAP3 POP POP POP JUMP JUMPDEST PUSH0 DUP1 REVERT JUMPDEST PUSH2 0x394 DUP2 PUSH2 0x301 JUMP JUMPDEST DUP2 EQ PUSH2 0x39E JUMPI PUSH0 DUP1 REVERT JUMPDEST POP JUMP JUMPDEST PUSH0 DUP2 CALLDATALOAD SWAP1 POP PUSH2 0x3AF DUP2 PUSH2 0x38B JUMP JUMPDEST SWAP3 SWAP2 POP POP JUMP JUMPDEST PUSH0 PUSH1 0x20 DUP3 DUP5 SUB SLT ISZERO PUSH2 0x3CA JUMPI PUSH2 0x3C9 PUSH2 0x387 JUMP JUMPDEST JUMPDEST PUSH0 PUSH2 0x3D7 DUP5 DUP3 DUP6 ADD PUSH2 0x3A1 JUMP JUMPDEST SWAP2 POP POP SWAP3 SWAP2 POP POP JUMP JUMPDEST PUSH0 PUSH1 0x20 DUP3 ADD SWAP1 POP PUSH2 0x3F3 PUSH0 DUP4 ADD DUP5 PUSH2 0x30A JUMP JUMPDEST SWAP3 SWAP2 POP POP JUMP JUMPDEST PUSH0 DUP2 ISZERO ISZERO SWAP1 POP SWAP2 SWAP1 POP JUMP JUMPDEST PUSH2 0x40D DUP2 PUSH2 0x3F9 JUMP JUMPDEST DUP3 MSTORE POP POP JUMP JUMPDEST PUSH0 PUSH1 0x60 DUP3 ADD SWAP1 POP PUSH2 0x426 PUSH0 DUP4 ADD DUP7 PUSH2 0x404 JUMP JUMPDEST PUSH2 0x433 PUSH1 0x20 DUP4 ADD DUP6 PUSH2 0x404 JUMP JUMPDEST PUSH2 0x440 PUSH1 0x40 DUP4 ADD DUP5 PUSH2 0x404 JUMP JUMPDEST SWAP5 SWAP4 POP POP POP POP JUMP JUMPDEST PUSH32 0x4E487B7100000000000000000000000000000000000000000000000000000000 PUSH0 MSTORE PUSH1 0x11 PUSH1 0x4 MSTORE PUSH1 0x24 PUSH0 REVERT JUMPDEST PUSH0 PUSH2 0x47F DUP3 PUSH2 0x301 JUMP JUMPDEST SWAP2 POP PUSH2 0x48A DUP4 PUSH2 0x301 JUMP JUMPDEST SWAP3 POP DUP3 DUP3 MUL PUSH2 0x498 DUP2 PUSH2 0x301 JUMP JUMPDEST SWAP2 POP DUP3 DUP3 DIV DUP5 EQ DUP4 ISZERO OR PUSH2 0x4AF JUMPI PUSH2 0x4AE PUSH2 0x448 JUMP JUMPDEST JUMPDEST POP SWAP3 SWAP2 POP POP JUMP JUMPDEST PUSH0 PUSH2 0x4C0 DUP3 PUSH2 0x301 JUMP JUMPDEST SWAP2 POP PUSH2 0x4CB DUP4 PUSH2 0x301 JUMP JUMPDEST SWAP3 POP DUP3 DUP3 ADD SWAP1 POP DUP1 DUP3 GT ISZERO PUSH2 0x4E3 JUMPI PUSH2 0x4E2 PUSH2 0x448 JUMP JUMPDEST JUMPDEST SWAP3 SWAP2 POP POP JUMP JUMPDEST PUSH32 0x6465706F73697400000000000000000000000000000000000000000000000000 PUSH0 DUP3 ADD MSTORE POP JUMP JUMPDEST PUSH0 PUSH2 0x51D PUSH1 0x7 DUP4 PUSH2 0x2A7 JUMP JUMPDEST SWAP2 POP PUSH2 0x528 DUP3 PUSH2 0x4E9 JUMP JUMPDEST PUSH1 0x20 DUP3 ADD SWAP1 POP SWAP2 SWAP1 POP JUMP JUMPDEST PUSH0 PUSH1 0x40 DUP3 ADD SWAP1 POP DUP2 DUP2 SUB PUSH0 DUP4 ADD MSTORE PUSH2 0x54A DUP2 PUSH2 0x511 JUMP JUMPDEST SWAP1 POP PUSH2 0x559 PUSH1 0x20 DUP4 ADD DUP5 PUSH2 0x30A JUMP JUMPDEST SWAP3 SWAP2 POP POP JUMP INVALID LOG2 PUSH5 0x6970667358 0x22 SLT KECCAK256 0xDA 0xC6 0xAD COINBASE SAR DUP13 0x4F CODECOPY EXTCODESIZE 0x21 0xE CALL OR LT 0xFC SWAP14 0xB0 RETURNDATACOPY 0x2B 0xAC PUSH10 0xD76F5D1F4586D9B8B7F1 PUSH1 0x64 PUSH20 0x6F6C634300081800330000000000000000000000 "
				},
				"gasEstimates": {
					"creation": {
						"codeDepositCost": "285800",
						"executionCost": "22427",
						"totalCost": "308227"
					},
					"external": {
						"": "infinite",
						"add()": "infinite",
						"add(uint256)": "infinite",
						"deposit()": "infinite",
						"param()": "2447",
						"verify()": "infinite"
					}
				},
				"methodIdentifiers": {
					"add()": "4f2be91f",
					"add(uint256)": "1003e2d2",
					"deposit()": "d0e30db0",
					"param()": "883d87b1",
					"verify()": "fc735e99"
				}
			},
			"storageLayout": {
				"storage": [
					{
						"astId": 10,
						"contract": "contracts/EtherWei.sol:Demo",
						"label": "amount",
						"offset": 0,
						"slot": "0",
						"type": "t_uint256"
					},
					{
						"astId": 12,
						"contract": "contracts/EtherWei.sol:Demo",
						"label": "param",
						"offset": 0,
						"slot": "1",
						"type": "t_uint256"
					}
				],
				"types": {
					"t_uint256": {
						"encoding": "inplace",
						"label": "uint256",
						"numberOfBytes": "32"
					}
				}
			},
			"userdoc": {
				"kind": "user",
				"methods": {},
				"version": 1
			}
		}
	}
}