{
	"contracts/Test10.sol": {
		"Oracle": {
			"abi": [
				{
					"anonymous": false,
					"inputs": [
						{
							"indexed": false,
							"internalType": "uint256",
							"name": "",
							"type": "uint256"
						}
					],
					"name": "NewRequest",
					"type": "event"
				},
				{
					"inputs": [
						{
							"internalType": "bytes",
							"name": "data",
							"type": "bytes"
						},
						{
							"internalType": "function (uint256) external",
							"name": "callback",
							"type": "function"
						}
					],
					"name": "query",
					"outputs": [],
					"stateMutability": "nonpayable",
					"type": "function"
				},
				{
					"inputs": [
						{
							"internalType": "uint256",
							"name": "requestID",
							"type": "uint256"
						},
						{
							"internalType": "uint256",
							"name": "response",
							"type": "uint256"
						}
					],
					"name": "reply",
					"outputs": [],
					"stateMutability": "nonpayable",
					"type": "function"
				}
			],
			"devdoc": {
				"kind": "dev",
				"methods": {},
				"version": 1
			},
			"evm": {
				"assembly": "    /* \"contracts/Test10.sol\":61:621  contract Oracle {... */\n  mstore(0x40, 0x80)\n  callvalue\n  dup1\n  iszero\n  tag_1\n  jumpi\n  0x00\n  dup1\n  revert\ntag_1:\n  pop\n  dataSize(sub_0)\n  dup1\n  dataOffset(sub_0)\n  0x00\n  codecopy\n  0x00\n  return\nstop\n\nsub_0: assembly {\n        /* \"contracts/Test10.sol\":61:621  contract Oracle {... */\n      mstore(0x40, 0x80)\n      callvalue\n      dup1\n      iszero\n      tag_1\n      jumpi\n      0x00\n      dup1\n      revert\n    tag_1:\n      pop\n      jumpi(tag_2, lt(calldatasize, 0x04))\n      shr(0xe0, calldataload(0x00))\n      dup1\n      0xc1e51817\n      eq\n      tag_3\n      jumpi\n      dup1\n      0xd72d6770\n      eq\n      tag_4\n      jumpi\n    tag_2:\n      0x00\n      dup1\n      revert\n        /* \"contracts/Test10.sol\":453:618  function reply(uint256 requestID, uint256 response) public {... */\n    tag_3:\n      tag_5\n      0x04\n      dup1\n      calldatasize\n      sub\n      dup2\n      add\n      swap1\n      tag_6\n      swap2\n      swap1\n      tag_7\n      jump\t// in\n    tag_6:\n      tag_8\n      jump\t// in\n    tag_5:\n      stop\n        /* \"contracts/Test10.sol\":247:445  function query(bytes memory data, function(uint256) external callback)... */\n    tag_4:\n      tag_9\n      0x04\n      dup1\n      calldatasize\n      sub\n      dup2\n      add\n      swap1\n      tag_10\n      swap2\n      swap1\n      tag_11\n      jump\t// in\n    tag_10:\n      tag_12\n      jump\t// in\n    tag_9:\n      stop\n        /* \"contracts/Test10.sol\":453:618  function reply(uint256 requestID, uint256 response) public {... */\n    tag_8:\n        /* \"contracts/Test10.sol\":572:580  requests */\n      0x00\n        /* \"contracts/Test10.sol\":581:590  requestID */\n      dup3\n        /* \"contracts/Test10.sol\":572:591  requests[requestID] */\n      dup2\n      sload\n      dup2\n      lt\n      tag_14\n      jumpi\n      tag_15\n      tag_16\n      jump\t// in\n    tag_15:\n    tag_14:\n      swap1\n      0x00\n      mstore\n      keccak256(0x00, 0x20)\n      swap1\n      0x02\n      mul\n      add\n        /* \"contracts/Test10.sol\":572:600  requests[requestID].callback */\n      0x01\n      add\n      0x00\n      swap1\n      sload\n      swap1\n      0x0100\n      exp\n      swap1\n      div\n      dup1\n      0x20\n      shr\n      0xffffffffffffffffffffffffffffffffffffffff\n      and\n      swap1\n      0xffffffff\n      and\n        /* \"contracts/Test10.sol\":601:609  response */\n      dup3\n        /* \"contracts/Test10.sol\":572:610  requests[requestID].callback(response) */\n      mload(0x40)\n      dup3\n      0xffffffff\n      and\n      0xe0\n      shl\n      dup2\n      mstore\n      0x04\n      add\n      tag_18\n      swap2\n      swap1\n      tag_19\n      jump\t// in\n    tag_18:\n      0x00\n      mload(0x40)\n      dup1\n      dup4\n      sub\n      dup2\n      0x00\n      dup8\n      dup1\n      extcodesize\n      iszero\n      dup1\n      iszero\n      tag_20\n      jumpi\n      0x00\n      dup1\n      revert\n    tag_20:\n      pop\n      gas\n      call\n      iszero\n      dup1\n      iszero\n      tag_22\n      jumpi\n      returndatasize\n      0x00\n      dup1\n      returndatacopy\n      revert(0x00, returndatasize)\n    tag_22:\n      pop\n      pop\n      pop\n      pop\n        /* \"contracts/Test10.sol\":453:618  function reply(uint256 requestID, uint256 response) public {... */\n      pop\n      pop\n      jump\t// out\n        /* \"contracts/Test10.sol\":247:445  function query(bytes memory data, function(uint256) external callback)... */\n    tag_12:\n        /* \"contracts/Test10.sol\":352:360  requests */\n      0x00\n        /* \"contracts/Test10.sol\":366:389  Request(data, callback) */\n      mload(0x40)\n      dup1\n      0x40\n      add\n      0x40\n      mstore\n      dup1\n        /* \"contracts/Test10.sol\":374:378  data */\n      dup6\n        /* \"contracts/Test10.sol\":366:389  Request(data, callback) */\n      dup2\n      mstore\n      0x20\n      add\n        /* \"contracts/Test10.sol\":380:388  callback */\n      dup5\n      dup5\n        /* \"contracts/Test10.sol\":366:389  Request(data, callback) */\n      0xffffffff\n      and\n      swap1\n      0x20\n      shl\n      or\n      0x40\n      shl\n      dup2\n      mstore\n      pop\n        /* \"contracts/Test10.sol\":352:390  requests.push(Request(data, callback)) */\n      swap1\n      dup1\n      0x01\n      dup2\n      sload\n      add\n      dup1\n      dup3\n      sstore\n      dup1\n      swap2\n      pop\n      pop\n      0x01\n      swap1\n      sub\n      swap1\n      0x00\n      mstore\n      keccak256(0x00, 0x20)\n      swap1\n      0x02\n      mul\n      add\n      0x00\n      swap1\n      swap2\n      swap1\n      swap2\n      swap1\n      swap2\n      pop\n      0x00\n      dup3\n      add\n      mload\n      dup2\n      0x00\n      add\n      swap1\n      dup2\n      tag_25\n      swap2\n      swap1\n      tag_26\n      jump\t// in\n    tag_25:\n      pop\n      0x20\n      dup3\n      add\n      mload\n      dup1\n      0x60\n      shr\n      swap1\n      0x40\n      shr\n      0xffffffff\n      and\n      dup3\n      0x01\n      add\n      exp(0x0100, 0x00)\n      dup2\n      sload\n      dup2\n      0xffffffffffffffffffffffffffffffffffffffffffffffff\n      mul\n      not\n      and\n      swap1\n      dup5\n      dup5\n      0xffffffff\n      and\n      swap1\n      0xffffffffffffffffffffffffffffffffffffffff\n      and\n      0x20\n      shl\n      or\n      mul\n      or\n      swap1\n      sstore\n      pop\n      pop\n      pop\n      pop\n        /* \"contracts/Test10.sol\":406:437  NewRequest(requests.length - 1) */\n      0xe5e7dd91b3ed7fb84c335f117423d1b9bbbed2d76c57e81520dd681b9ede9885\n        /* \"contracts/Test10.sol\":435:436  1 */\n      0x01\n        /* \"contracts/Test10.sol\":417:425  requests */\n      0x00\n        /* \"contracts/Test10.sol\":417:432  requests.length */\n      dup1\n      sload\n      swap1\n      pop\n        /* \"contracts/Test10.sol\":417:436  requests.length - 1 */\n      tag_27\n      swap2\n      swap1\n      tag_28\n      jump\t// in\n    tag_27:\n        /* \"contracts/Test10.sol\":406:437  NewRequest(requests.length - 1) */\n      mload(0x40)\n      tag_29\n      swap2\n      swap1\n      tag_19\n      jump\t// in\n    tag_29:\n      mload(0x40)\n      dup1\n      swap2\n      sub\n      swap1\n      log1\n        /* \"contracts/Test10.sol\":247:445  function query(bytes memory data, function(uint256) external callback)... */\n      pop\n      pop\n      pop\n      jump\t// out\n        /* \"#utility.yul\":7:82   */\n    tag_30:\n        /* \"#utility.yul\":40:46   */\n      0x00\n        /* \"#utility.yul\":73:75   */\n      0x40\n        /* \"#utility.yul\":67:76   */\n      mload\n        /* \"#utility.yul\":57:76   */\n      swap1\n      pop\n        /* \"#utility.yul\":7:82   */\n      swap1\n      jump\t// out\n        /* \"#utility.yul\":88:205   */\n    tag_31:\n        /* \"#utility.yul\":197:198   */\n      0x00\n        /* \"#utility.yul\":194:195   */\n      dup1\n        /* \"#utility.yul\":187:199   */\n      revert\n        /* \"#utility.yul\":211:328   */\n    tag_32:\n        /* \"#utility.yul\":320:321   */\n      0x00\n        /* \"#utility.yul\":317:318   */\n      dup1\n        /* \"#utility.yul\":310:322   */\n      revert\n        /* \"#utility.yul\":334:411   */\n    tag_33:\n        /* \"#utility.yul\":371:378   */\n      0x00\n        /* \"#utility.yul\":400:405   */\n      dup2\n        /* \"#utility.yul\":389:405   */\n      swap1\n      pop\n        /* \"#utility.yul\":334:411   */\n      swap2\n      swap1\n      pop\n      jump\t// out\n        /* \"#utility.yul\":417:539   */\n    tag_34:\n        /* \"#utility.yul\":490:514   */\n      tag_80\n        /* \"#utility.yul\":508:513   */\n      dup2\n        /* \"#utility.yul\":490:514   */\n      tag_33\n      jump\t// in\n    tag_80:\n        /* \"#utility.yul\":483:488   */\n      dup2\n        /* \"#utility.yul\":480:515   */\n      eq\n        /* \"#utility.yul\":470:533   */\n      tag_81\n      jumpi\n        /* \"#utility.yul\":529:530   */\n      0x00\n        /* \"#utility.yul\":526:527   */\n      dup1\n        /* \"#utility.yul\":519:531   */\n      revert\n        /* \"#utility.yul\":470:533   */\n    tag_81:\n        /* \"#utility.yul\":417:539   */\n      pop\n      jump\t// out\n        /* \"#utility.yul\":545:684   */\n    tag_35:\n        /* \"#utility.yul\":591:596   */\n      0x00\n        /* \"#utility.yul\":629:635   */\n      dup2\n        /* \"#utility.yul\":616:636   */\n      calldataload\n        /* \"#utility.yul\":607:636   */\n      swap1\n      pop\n        /* \"#utility.yul\":645:678   */\n      tag_83\n        /* \"#utility.yul\":672:677   */\n      dup2\n        /* \"#utility.yul\":645:678   */\n      tag_34\n      jump\t// in\n    tag_83:\n        /* \"#utility.yul\":545:684   */\n      swap3\n      swap2\n      pop\n      pop\n      jump\t// out\n        /* \"#utility.yul\":690:1164   */\n    tag_7:\n        /* \"#utility.yul\":758:764   */\n      0x00\n        /* \"#utility.yul\":766:772   */\n      dup1\n        /* \"#utility.yul\":815:817   */\n      0x40\n        /* \"#utility.yul\":803:812   */\n      dup4\n        /* \"#utility.yul\":794:801   */\n      dup6\n        /* \"#utility.yul\":790:813   */\n      sub\n        /* \"#utility.yul\":786:818   */\n      slt\n        /* \"#utility.yul\":783:902   */\n      iszero\n      tag_85\n      jumpi\n        /* \"#utility.yul\":821:900   */\n      tag_86\n      tag_31\n      jump\t// in\n    tag_86:\n        /* \"#utility.yul\":783:902   */\n    tag_85:\n        /* \"#utility.yul\":941:942   */\n      0x00\n        /* \"#utility.yul\":966:1019   */\n      tag_87\n        /* \"#utility.yul\":1011:1018   */\n      dup6\n        /* \"#utility.yul\":1002:1008   */\n      dup3\n        /* \"#utility.yul\":991:1000   */\n      dup7\n        /* \"#utility.yul\":987:1009   */\n      add\n        /* \"#utility.yul\":966:1019   */\n      tag_35\n      jump\t// in\n    tag_87:\n        /* \"#utility.yul\":956:1019   */\n      swap3\n      pop\n        /* \"#utility.yul\":912:1029   */\n      pop\n        /* \"#utility.yul\":1068:1070   */\n      0x20\n        /* \"#utility.yul\":1094:1147   */\n      tag_88\n        /* \"#utility.yul\":1139:1146   */\n      dup6\n        /* \"#utility.yul\":1130:1136   */\n      dup3\n        /* \"#utility.yul\":1119:1128   */\n      dup7\n        /* \"#utility.yul\":1115:1137   */\n      add\n        /* \"#utility.yul\":1094:1147   */\n      tag_35\n      jump\t// in\n    tag_88:\n        /* \"#utility.yul\":1084:1147   */\n      swap2\n      pop\n        /* \"#utility.yul\":1039:1157   */\n      pop\n        /* \"#utility.yul\":690:1164   */\n      swap3\n      pop\n      swap3\n      swap1\n      pop\n      jump\t// out\n        /* \"#utility.yul\":1170:1287   */\n    tag_36:\n        /* \"#utility.yul\":1279:1280   */\n      0x00\n        /* \"#utility.yul\":1276:1277   */\n      dup1\n        /* \"#utility.yul\":1269:1281   */\n      revert\n        /* \"#utility.yul\":1293:1410   */\n    tag_37:\n        /* \"#utility.yul\":1402:1403   */\n      0x00\n        /* \"#utility.yul\":1399:1400   */\n      dup1\n        /* \"#utility.yul\":1392:1404   */\n      revert\n        /* \"#utility.yul\":1416:1518   */\n    tag_38:\n        /* \"#utility.yul\":1457:1463   */\n      0x00\n        /* \"#utility.yul\":1508:1510   */\n      0x1f\n        /* \"#utility.yul\":1504:1511   */\n      not\n        /* \"#utility.yul\":1499:1501   */\n      0x1f\n        /* \"#utility.yul\":1492:1497   */\n      dup4\n        /* \"#utility.yul\":1488:1502   */\n      add\n        /* \"#utility.yul\":1484:1512   */\n      and\n        /* \"#utility.yul\":1474:1512   */\n      swap1\n      pop\n        /* \"#utility.yul\":1416:1518   */\n      swap2\n      swap1\n      pop\n      jump\t// out\n        /* \"#utility.yul\":1524:1704   */\n    tag_39:\n        /* \"#utility.yul\":1572:1649   */\n      0x4e487b7100000000000000000000000000000000000000000000000000000000\n        /* \"#utility.yul\":1569:1570   */\n      0x00\n        /* \"#utility.yul\":1562:1650   */\n      mstore\n        /* \"#utility.yul\":1669:1673   */\n      0x41\n        /* \"#utility.yul\":1666:1667   */\n      0x04\n        /* \"#utility.yul\":1659:1674   */\n      mstore\n        /* \"#utility.yul\":1693:1697   */\n      0x24\n        /* \"#utility.yul\":1690:1691   */\n      0x00\n        /* \"#utility.yul\":1683:1698   */\n      revert\n        /* \"#utility.yul\":1710:1991   */\n    tag_40:\n        /* \"#utility.yul\":1793:1820   */\n      tag_94\n        /* \"#utility.yul\":1815:1819   */\n      dup3\n        /* \"#utility.yul\":1793:1820   */\n      tag_38\n      jump\t// in\n    tag_94:\n        /* \"#utility.yul\":1785:1791   */\n      dup2\n        /* \"#utility.yul\":1781:1821   */\n      add\n        /* \"#utility.yul\":1923:1929   */\n      dup2\n        /* \"#utility.yul\":1911:1921   */\n      dup2\n        /* \"#utility.yul\":1908:1930   */\n      lt\n        /* \"#utility.yul\":1887:1905   */\n      0xffffffffffffffff\n        /* \"#utility.yul\":1875:1885   */\n      dup3\n        /* \"#utility.yul\":1872:1906   */\n      gt\n        /* \"#utility.yul\":1869:1931   */\n      or\n        /* \"#utility.yul\":1866:1954   */\n      iszero\n      tag_95\n      jumpi\n        /* \"#utility.yul\":1934:1952   */\n      tag_96\n      tag_39\n      jump\t// in\n    tag_96:\n        /* \"#utility.yul\":1866:1954   */\n    tag_95:\n        /* \"#utility.yul\":1974:1984   */\n      dup1\n        /* \"#utility.yul\":1970:1972   */\n      0x40\n        /* \"#utility.yul\":1963:1985   */\n      mstore\n        /* \"#utility.yul\":1753:1991   */\n      pop\n        /* \"#utility.yul\":1710:1991   */\n      pop\n      pop\n      jump\t// out\n        /* \"#utility.yul\":1997:2126   */\n    tag_41:\n        /* \"#utility.yul\":2031:2037   */\n      0x00\n        /* \"#utility.yul\":2058:2078   */\n      tag_98\n      tag_30\n      jump\t// in\n    tag_98:\n        /* \"#utility.yul\":2048:2078   */\n      swap1\n      pop\n        /* \"#utility.yul\":2087:2120   */\n      tag_99\n        /* \"#utility.yul\":2115:2119   */\n      dup3\n        /* \"#utility.yul\":2107:2113   */\n      dup3\n        /* \"#utility.yul\":2087:2120   */\n      tag_40\n      jump\t// in\n    tag_99:\n        /* \"#utility.yul\":1997:2126   */\n      swap2\n      swap1\n      pop\n      jump\t// out\n        /* \"#utility.yul\":2132:2439   */\n    tag_42:\n        /* \"#utility.yul\":2193:2197   */\n      0x00\n        /* \"#utility.yul\":2283:2301   */\n      0xffffffffffffffff\n        /* \"#utility.yul\":2275:2281   */\n      dup3\n        /* \"#utility.yul\":2272:2302   */\n      gt\n        /* \"#utility.yul\":2269:2325   */\n      iszero\n      tag_101\n      jumpi\n        /* \"#utility.yul\":2305:2323   */\n      tag_102\n      tag_39\n      jump\t// in\n    tag_102:\n        /* \"#utility.yul\":2269:2325   */\n    tag_101:\n        /* \"#utility.yul\":2343:2372   */\n      tag_103\n        /* \"#utility.yul\":2365:2371   */\n      dup3\n        /* \"#utility.yul\":2343:2372   */\n      tag_38\n      jump\t// in\n    tag_103:\n        /* \"#utility.yul\":2335:2372   */\n      swap1\n      pop\n        /* \"#utility.yul\":2427:2431   */\n      0x20\n        /* \"#utility.yul\":2421:2425   */\n      dup2\n        /* \"#utility.yul\":2417:2432   */\n      add\n        /* \"#utility.yul\":2409:2432   */\n      swap1\n      pop\n        /* \"#utility.yul\":2132:2439   */\n      swap2\n      swap1\n      pop\n      jump\t// out\n        /* \"#utility.yul\":2445:2591   */\n    tag_43:\n        /* \"#utility.yul\":2542:2548   */\n      dup3\n        /* \"#utility.yul\":2537:2540   */\n      dup2\n        /* \"#utility.yul\":2532:2535   */\n      dup4\n        /* \"#utility.yul\":2519:2549   */\n      calldatacopy\n        /* \"#utility.yul\":2583:2584   */\n      0x00\n        /* \"#utility.yul\":2574:2580   */\n      dup4\n        /* \"#utility.yul\":2569:2572   */\n      dup4\n        /* \"#utility.yul\":2565:2581   */\n      add\n        /* \"#utility.yul\":2558:2585   */\n      mstore\n        /* \"#utility.yul\":2445:2591   */\n      pop\n      pop\n      pop\n      jump\t// out\n        /* \"#utility.yul\":2597:3020   */\n    tag_44:\n        /* \"#utility.yul\":2674:2679   */\n      0x00\n        /* \"#utility.yul\":2699:2764   */\n      tag_106\n        /* \"#utility.yul\":2715:2763   */\n      tag_107\n        /* \"#utility.yul\":2756:2762   */\n      dup5\n        /* \"#utility.yul\":2715:2763   */\n      tag_42\n      jump\t// in\n    tag_107:\n        /* \"#utility.yul\":2699:2764   */\n      tag_41\n      jump\t// in\n    tag_106:\n        /* \"#utility.yul\":2690:2764   */\n      swap1\n      pop\n        /* \"#utility.yul\":2787:2793   */\n      dup3\n        /* \"#utility.yul\":2780:2785   */\n      dup2\n        /* \"#utility.yul\":2773:2794   */\n      mstore\n        /* \"#utility.yul\":2825:2829   */\n      0x20\n        /* \"#utility.yul\":2818:2823   */\n      dup2\n        /* \"#utility.yul\":2814:2830   */\n      add\n        /* \"#utility.yul\":2863:2866   */\n      dup5\n        /* \"#utility.yul\":2854:2860   */\n      dup5\n        /* \"#utility.yul\":2849:2852   */\n      dup5\n        /* \"#utility.yul\":2845:2861   */\n      add\n        /* \"#utility.yul\":2842:2867   */\n      gt\n        /* \"#utility.yul\":2839:2951   */\n      iszero\n      tag_108\n      jumpi\n        /* \"#utility.yul\":2870:2949   */\n      tag_109\n      tag_37\n      jump\t// in\n    tag_109:\n        /* \"#utility.yul\":2839:2951   */\n    tag_108:\n        /* \"#utility.yul\":2960:3014   */\n      tag_110\n        /* \"#utility.yul\":3007:3013   */\n      dup5\n        /* \"#utility.yul\":3002:3005   */\n      dup3\n        /* \"#utility.yul\":2997:3000   */\n      dup6\n        /* \"#utility.yul\":2960:3014   */\n      tag_43\n      jump\t// in\n    tag_110:\n        /* \"#utility.yul\":2680:3020   */\n      pop\n        /* \"#utility.yul\":2597:3020   */\n      swap4\n      swap3\n      pop\n      pop\n      pop\n      jump\t// out\n        /* \"#utility.yul\":3039:3377   */\n    tag_45:\n        /* \"#utility.yul\":3094:3099   */\n      0x00\n        /* \"#utility.yul\":3143:3146   */\n      dup3\n        /* \"#utility.yul\":3136:3140   */\n      0x1f\n        /* \"#utility.yul\":3128:3134   */\n      dup4\n        /* \"#utility.yul\":3124:3141   */\n      add\n        /* \"#utility.yul\":3120:3147   */\n      slt\n        /* \"#utility.yul\":3110:3232   */\n      tag_112\n      jumpi\n        /* \"#utility.yul\":3151:3230   */\n      tag_113\n      tag_36\n      jump\t// in\n    tag_113:\n        /* \"#utility.yul\":3110:3232   */\n    tag_112:\n        /* \"#utility.yul\":3268:3274   */\n      dup2\n        /* \"#utility.yul\":3255:3275   */\n      calldataload\n        /* \"#utility.yul\":3293:3371   */\n      tag_114\n        /* \"#utility.yul\":3367:3370   */\n      dup5\n        /* \"#utility.yul\":3359:3365   */\n      dup3\n        /* \"#utility.yul\":3352:3356   */\n      0x20\n        /* \"#utility.yul\":3344:3350   */\n      dup7\n        /* \"#utility.yul\":3340:3357   */\n      add\n        /* \"#utility.yul\":3293:3371   */\n      tag_44\n      jump\t// in\n    tag_114:\n        /* \"#utility.yul\":3284:3371   */\n      swap2\n      pop\n        /* \"#utility.yul\":3100:3377   */\n      pop\n        /* \"#utility.yul\":3039:3377   */\n      swap3\n      swap2\n      pop\n      pop\n      jump\t// out\n        /* \"#utility.yul\":3383:3533   */\n    tag_46:\n        /* \"#utility.yul\":3420:3427   */\n      0x00\n        /* \"#utility.yul\":3460:3526   */\n      0xffffffffffffffffffffffffffffffffffffffffffffffff0000000000000000\n        /* \"#utility.yul\":3453:3458   */\n      dup3\n        /* \"#utility.yul\":3449:3527   */\n      and\n        /* \"#utility.yul\":3438:3527   */\n      swap1\n      pop\n        /* \"#utility.yul\":3383:3533   */\n      swap2\n      swap1\n      pop\n      jump\t// out\n        /* \"#utility.yul\":3539:3680   */\n    tag_47:\n        /* \"#utility.yul\":3621:3628   */\n      0x00\n        /* \"#utility.yul\":3650:3674   */\n      tag_117\n        /* \"#utility.yul\":3668:3673   */\n      dup3\n        /* \"#utility.yul\":3650:3674   */\n      tag_46\n      jump\t// in\n    tag_117:\n        /* \"#utility.yul\":3639:3674   */\n      swap1\n      pop\n        /* \"#utility.yul\":3539:3680   */\n      swap2\n      swap1\n      pop\n      jump\t// out\n        /* \"#utility.yul\":3686:3898   */\n    tag_48:\n        /* \"#utility.yul\":3804:3873   */\n      tag_119\n        /* \"#utility.yul\":3867:3872   */\n      dup2\n        /* \"#utility.yul\":3804:3873   */\n      tag_47\n      jump\t// in\n    tag_119:\n        /* \"#utility.yul\":3797:3802   */\n      dup2\n        /* \"#utility.yul\":3794:3874   */\n      eq\n        /* \"#utility.yul\":3784:3892   */\n      tag_120\n      jumpi\n        /* \"#utility.yul\":3888:3889   */\n      0x00\n        /* \"#utility.yul\":3885:3886   */\n      dup1\n        /* \"#utility.yul\":3878:3890   */\n      revert\n        /* \"#utility.yul\":3784:3892   */\n    tag_120:\n        /* \"#utility.yul\":3686:3898   */\n      pop\n      jump\t// out\n        /* \"#utility.yul\":3904:4127   */\n    tag_49:\n        /* \"#utility.yul\":3995:3998   */\n      0x00\n        /* \"#utility.yul\":4029:4035   */\n      dup2\n        /* \"#utility.yul\":4016:4036   */\n      calldataload\n        /* \"#utility.yul\":4009:4036   */\n      swap1\n      pop\n        /* \"#utility.yul\":4045:4121   */\n      tag_122\n        /* \"#utility.yul\":4117:4120   */\n      dup2\n        /* \"#utility.yul\":4045:4121   */\n      tag_48\n      jump\t// in\n    tag_122:\n        /* \"#utility.yul\":3904:4127   */\n      swap3\n      swap2\n      pop\n      pop\n      jump\t// out\n        /* \"#utility.yul\":4133:4237   */\n    tag_50:\n        /* \"#utility.yul\":4176:4184   */\n      0x00\n        /* \"#utility.yul\":4224:4229   */\n      dup2\n        /* \"#utility.yul\":4220:4222   */\n      0x20\n        /* \"#utility.yul\":4216:4230   */\n      shr\n        /* \"#utility.yul\":4195:4230   */\n      swap1\n      pop\n        /* \"#utility.yul\":4133:4237   */\n      swap2\n      swap1\n      pop\n      jump\t// out\n        /* \"#utility.yul\":4243:4347   */\n    tag_51:\n        /* \"#utility.yul\":4286:4294   */\n      0x00\n        /* \"#utility.yul\":4334:4339   */\n      dup2\n        /* \"#utility.yul\":4330:4332   */\n      0x40\n        /* \"#utility.yul\":4326:4340   */\n      shr\n        /* \"#utility.yul\":4305:4340   */\n      swap1\n      pop\n        /* \"#utility.yul\":4243:4347   */\n      swap2\n      swap1\n      pop\n      jump\t// out\n        /* \"#utility.yul\":4353:4574   */\n    tag_52:\n        /* \"#utility.yul\":4402:4406   */\n      0x00\n        /* \"#utility.yul\":4408:4416   */\n      dup1\n        /* \"#utility.yul\":4439:4472   */\n      tag_126\n        /* \"#utility.yul\":4463:4471   */\n      dup4\n        /* \"#utility.yul\":4439:4472   */\n      tag_51\n      jump\t// in\n    tag_126:\n        /* \"#utility.yul\":4427:4472   */\n      swap3\n      pop\n        /* \"#utility.yul\":4507:4517   */\n      0xffffffff\n        /* \"#utility.yul\":4497:4505   */\n      dup4\n        /* \"#utility.yul\":4493:4518   */\n      and\n        /* \"#utility.yul\":4481:4518   */\n      swap1\n      pop\n        /* \"#utility.yul\":4535:4568   */\n      tag_127\n        /* \"#utility.yul\":4559:4567   */\n      dup4\n        /* \"#utility.yul\":4535:4568   */\n      tag_50\n      jump\t// in\n    tag_127:\n        /* \"#utility.yul\":4527:4568   */\n      swap2\n      pop\n        /* \"#utility.yul\":4353:4574   */\n      swap2\n      pop\n      swap2\n      jump\t// out\n        /* \"#utility.yul\":4580:4852   */\n    tag_53:\n        /* \"#utility.yul\":4679:4683   */\n      0x00\n        /* \"#utility.yul\":4685:4702   */\n      dup1\n        /* \"#utility.yul\":4740:4846   */\n      tag_129\n        /* \"#utility.yul\":4767:4845   */\n      tag_130\n        /* \"#utility.yul\":4841:4844   */\n      dup6\n        /* \"#utility.yul\":4833:4839   */\n      dup6\n        /* \"#utility.yul\":4767:4845   */\n      tag_49\n      jump\t// in\n    tag_130:\n        /* \"#utility.yul\":4740:4846   */\n      tag_52\n      jump\t// in\n    tag_129:\n        /* \"#utility.yul\":4713:4846   */\n      swap2\n      pop\n      swap2\n      pop\n        /* \"#utility.yul\":4580:4852   */\n      swap3\n      pop\n      swap3\n      swap1\n      pop\n      jump\t// out\n        /* \"#utility.yul\":4858:5624   */\n    tag_11:\n        /* \"#utility.yul\":4980:4986   */\n      0x00\n        /* \"#utility.yul\":4988:4994   */\n      dup1\n        /* \"#utility.yul\":4996:5002   */\n      0x00\n        /* \"#utility.yul\":5045:5047   */\n      0x40\n        /* \"#utility.yul\":5033:5042   */\n      dup5\n        /* \"#utility.yul\":5024:5031   */\n      dup7\n        /* \"#utility.yul\":5020:5043   */\n      sub\n        /* \"#utility.yul\":5016:5048   */\n      slt\n        /* \"#utility.yul\":5013:5132   */\n      iszero\n      tag_132\n      jumpi\n        /* \"#utility.yul\":5051:5130   */\n      tag_133\n      tag_31\n      jump\t// in\n    tag_133:\n        /* \"#utility.yul\":5013:5132   */\n    tag_132:\n        /* \"#utility.yul\":5199:5200   */\n      0x00\n        /* \"#utility.yul\":5188:5197   */\n      dup5\n        /* \"#utility.yul\":5184:5201   */\n      add\n        /* \"#utility.yul\":5171:5202   */\n      calldataload\n        /* \"#utility.yul\":5229:5247   */\n      0xffffffffffffffff\n        /* \"#utility.yul\":5221:5227   */\n      dup2\n        /* \"#utility.yul\":5218:5248   */\n      gt\n        /* \"#utility.yul\":5215:5332   */\n      iszero\n      tag_134\n      jumpi\n        /* \"#utility.yul\":5251:5330   */\n      tag_135\n      tag_32\n      jump\t// in\n    tag_135:\n        /* \"#utility.yul\":5215:5332   */\n    tag_134:\n        /* \"#utility.yul\":5356:5418   */\n      tag_136\n        /* \"#utility.yul\":5410:5417   */\n      dup7\n        /* \"#utility.yul\":5401:5407   */\n      dup3\n        /* \"#utility.yul\":5390:5399   */\n      dup8\n        /* \"#utility.yul\":5386:5408   */\n      add\n        /* \"#utility.yul\":5356:5418   */\n      tag_45\n      jump\t// in\n    tag_136:\n        /* \"#utility.yul\":5346:5418   */\n      swap4\n      pop\n        /* \"#utility.yul\":5142:5428   */\n      pop\n        /* \"#utility.yul\":5467:5469   */\n      0x20\n        /* \"#utility.yul\":5501:5607   */\n      tag_137\n        /* \"#utility.yul\":5599:5606   */\n      dup7\n        /* \"#utility.yul\":5590:5596   */\n      dup3\n        /* \"#utility.yul\":5579:5588   */\n      dup8\n        /* \"#utility.yul\":5575:5597   */\n      add\n        /* \"#utility.yul\":5501:5607   */\n      tag_53\n      jump\t// in\n    tag_137:\n        /* \"#utility.yul\":5483:5607   */\n      swap3\n      pop\n      swap3\n      pop\n        /* \"#utility.yul\":5438:5617   */\n      pop\n        /* \"#utility.yul\":4858:5624   */\n      swap3\n      pop\n      swap3\n      pop\n      swap3\n      jump\t// out\n        /* \"#utility.yul\":5630:5810   */\n    tag_16:\n        /* \"#utility.yul\":5678:5755   */\n      0x4e487b7100000000000000000000000000000000000000000000000000000000\n        /* \"#utility.yul\":5675:5676   */\n      0x00\n        /* \"#utility.yul\":5668:5756   */\n      mstore\n        /* \"#utility.yul\":5775:5779   */\n      0x32\n        /* \"#utility.yul\":5772:5773   */\n      0x04\n        /* \"#utility.yul\":5765:5780   */\n      mstore\n        /* \"#utility.yul\":5799:5803   */\n      0x24\n        /* \"#utility.yul\":5796:5797   */\n      0x00\n        /* \"#utility.yul\":5789:5804   */\n      revert\n        /* \"#utility.yul\":5816:5934   */\n    tag_54:\n        /* \"#utility.yul\":5903:5927   */\n      tag_140\n        /* \"#utility.yul\":5921:5926   */\n      dup2\n        /* \"#utility.yul\":5903:5927   */\n      tag_33\n      jump\t// in\n    tag_140:\n        /* \"#utility.yul\":5898:5901   */\n      dup3\n        /* \"#utility.yul\":5891:5928   */\n      mstore\n        /* \"#utility.yul\":5816:5934   */\n      pop\n      pop\n      jump\t// out\n        /* \"#utility.yul\":5940:6162   */\n    tag_19:\n        /* \"#utility.yul\":6033:6037   */\n      0x00\n        /* \"#utility.yul\":6071:6073   */\n      0x20\n        /* \"#utility.yul\":6060:6069   */\n      dup3\n        /* \"#utility.yul\":6056:6074   */\n      add\n        /* \"#utility.yul\":6048:6074   */\n      swap1\n      pop\n        /* \"#utility.yul\":6084:6155   */\n      tag_142\n        /* \"#utility.yul\":6152:6153   */\n      0x00\n        /* \"#utility.yul\":6141:6150   */\n      dup4\n        /* \"#utility.yul\":6137:6154   */\n      add\n        /* \"#utility.yul\":6128:6134   */\n      dup5\n        /* \"#utility.yul\":6084:6155   */\n      tag_54\n      jump\t// in\n    tag_142:\n        /* \"#utility.yul\":5940:6162   */\n      swap3\n      swap2\n      pop\n      pop\n      jump\t// out\n        /* \"#utility.yul\":6168:6266   */\n    tag_55:\n        /* \"#utility.yul\":6219:6225   */\n      0x00\n        /* \"#utility.yul\":6253:6258   */\n      dup2\n        /* \"#utility.yul\":6247:6259   */\n      mload\n        /* \"#utility.yul\":6237:6259   */\n      swap1\n      pop\n        /* \"#utility.yul\":6168:6266   */\n      swap2\n      swap1\n      pop\n      jump\t// out\n        /* \"#utility.yul\":6272:6452   */\n    tag_56:\n        /* \"#utility.yul\":6320:6397   */\n      0x4e487b7100000000000000000000000000000000000000000000000000000000\n        /* \"#utility.yul\":6317:6318   */\n      0x00\n        /* \"#utility.yul\":6310:6398   */\n      mstore\n        /* \"#utility.yul\":6417:6421   */\n      0x22\n        /* \"#utility.yul\":6414:6415   */\n      0x04\n        /* \"#utility.yul\":6407:6422   */\n      mstore\n        /* \"#utility.yul\":6441:6445   */\n      0x24\n        /* \"#utility.yul\":6438:6439   */\n      0x00\n        /* \"#utility.yul\":6431:6446   */\n      revert\n        /* \"#utility.yul\":6458:6778   */\n    tag_57:\n        /* \"#utility.yul\":6502:6508   */\n      0x00\n        /* \"#utility.yul\":6539:6540   */\n      0x02\n        /* \"#utility.yul\":6533:6537   */\n      dup3\n        /* \"#utility.yul\":6529:6541   */\n      div\n        /* \"#utility.yul\":6519:6541   */\n      swap1\n      pop\n        /* \"#utility.yul\":6586:6587   */\n      0x01\n        /* \"#utility.yul\":6580:6584   */\n      dup3\n        /* \"#utility.yul\":6576:6588   */\n      and\n        /* \"#utility.yul\":6607:6625   */\n      dup1\n        /* \"#utility.yul\":6597:6678   */\n      tag_146\n      jumpi\n        /* \"#utility.yul\":6663:6667   */\n      0x7f\n        /* \"#utility.yul\":6655:6661   */\n      dup3\n        /* \"#utility.yul\":6651:6668   */\n      and\n        /* \"#utility.yul\":6641:6668   */\n      swap2\n      pop\n        /* \"#utility.yul\":6597:6678   */\n    tag_146:\n        /* \"#utility.yul\":6725:6727   */\n      0x20\n        /* \"#utility.yul\":6717:6723   */\n      dup3\n        /* \"#utility.yul\":6714:6728   */\n      lt\n        /* \"#utility.yul\":6694:6712   */\n      dup2\n        /* \"#utility.yul\":6691:6729   */\n      sub\n        /* \"#utility.yul\":6688:6772   */\n      tag_147\n      jumpi\n        /* \"#utility.yul\":6744:6762   */\n      tag_148\n      tag_56\n      jump\t// in\n    tag_148:\n        /* \"#utility.yul\":6688:6772   */\n    tag_147:\n        /* \"#utility.yul\":6509:6778   */\n      pop\n        /* \"#utility.yul\":6458:6778   */\n      swap2\n      swap1\n      pop\n      jump\t// out\n        /* \"#utility.yul\":6784:6924   */\n    tag_58:\n        /* \"#utility.yul\":6832:6836   */\n      0x00\n        /* \"#utility.yul\":6855:6858   */\n      dup2\n        /* \"#utility.yul\":6847:6858   */\n      swap1\n      pop\n        /* \"#utility.yul\":6878:6881   */\n      dup2\n        /* \"#utility.yul\":6875:6876   */\n      0x00\n        /* \"#utility.yul\":6868:6882   */\n      mstore\n        /* \"#utility.yul\":6912:6916   */\n      0x20\n        /* \"#utility.yul\":6909:6910   */\n      0x00\n        /* \"#utility.yul\":6899:6917   */\n      keccak256\n        /* \"#utility.yul\":6891:6917   */\n      swap1\n      pop\n        /* \"#utility.yul\":6784:6924   */\n      swap2\n      swap1\n      pop\n      jump\t// out\n        /* \"#utility.yul\":6930:7023   */\n    tag_59:\n        /* \"#utility.yul\":6967:6973   */\n      0x00\n        /* \"#utility.yul\":7014:7016   */\n      0x20\n        /* \"#utility.yul\":7009:7011   */\n      0x1f\n        /* \"#utility.yul\":7002:7007   */\n      dup4\n        /* \"#utility.yul\":6998:7012   */\n      add\n        /* \"#utility.yul\":6994:7017   */\n      div\n        /* \"#utility.yul\":6984:7017   */\n      swap1\n      pop\n        /* \"#utility.yul\":6930:7023   */\n      swap2\n      swap1\n      pop\n      jump\t// out\n        /* \"#utility.yul\":7029:7136   */\n    tag_60:\n        /* \"#utility.yul\":7073:7081   */\n      0x00\n        /* \"#utility.yul\":7123:7128   */\n      dup3\n        /* \"#utility.yul\":7117:7121   */\n      dup3\n        /* \"#utility.yul\":7113:7129   */\n      shl\n        /* \"#utility.yul\":7092:7129   */\n      swap1\n      pop\n        /* \"#utility.yul\":7029:7136   */\n      swap3\n      swap2\n      pop\n      pop\n      jump\t// out\n        /* \"#utility.yul\":7142:7535   */\n    tag_61:\n        /* \"#utility.yul\":7211:7217   */\n      0x00\n        /* \"#utility.yul\":7261:7262   */\n      0x08\n        /* \"#utility.yul\":7249:7259   */\n      dup4\n        /* \"#utility.yul\":7245:7263   */\n      mul\n        /* \"#utility.yul\":7284:7381   */\n      tag_153\n        /* \"#utility.yul\":7314:7380   */\n      0xffffffffffffffffffffffffffffffffffffffffffffffffffffffffffffffff\n        /* \"#utility.yul\":7303:7312   */\n      dup3\n        /* \"#utility.yul\":7284:7381   */\n      tag_60\n      jump\t// in\n    tag_153:\n        /* \"#utility.yul\":7402:7441   */\n      tag_154\n        /* \"#utility.yul\":7432:7440   */\n      dup7\n        /* \"#utility.yul\":7421:7430   */\n      dup4\n        /* \"#utility.yul\":7402:7441   */\n      tag_60\n      jump\t// in\n    tag_154:\n        /* \"#utility.yul\":7390:7441   */\n      swap6\n      pop\n        /* \"#utility.yul\":7474:7478   */\n      dup1\n        /* \"#utility.yul\":7470:7479   */\n      not\n        /* \"#utility.yul\":7463:7468   */\n      dup5\n        /* \"#utility.yul\":7459:7480   */\n      and\n        /* \"#utility.yul\":7450:7480   */\n      swap4\n      pop\n        /* \"#utility.yul\":7523:7527   */\n      dup1\n        /* \"#utility.yul\":7513:7521   */\n      dup7\n        /* \"#utility.yul\":7509:7528   */\n      and\n        /* \"#utility.yul\":7502:7507   */\n      dup5\n        /* \"#utility.yul\":7499:7529   */\n      or\n        /* \"#utility.yul\":7489:7529   */\n      swap3\n      pop\n        /* \"#utility.yul\":7218:7535   */\n      pop\n      pop\n        /* \"#utility.yul\":7142:7535   */\n      swap4\n      swap3\n      pop\n      pop\n      pop\n      jump\t// out\n        /* \"#utility.yul\":7541:7601   */\n    tag_62:\n        /* \"#utility.yul\":7569:7572   */\n      0x00\n        /* \"#utility.yul\":7590:7595   */\n      dup2\n        /* \"#utility.yul\":7583:7595   */\n      swap1\n      pop\n        /* \"#utility.yul\":7541:7601   */\n      swap2\n      swap1\n      pop\n      jump\t// out\n        /* \"#utility.yul\":7607:7749   */\n    tag_63:\n        /* \"#utility.yul\":7657:7666   */\n      0x00\n        /* \"#utility.yul\":7690:7743   */\n      tag_157\n        /* \"#utility.yul\":7708:7742   */\n      tag_158\n        /* \"#utility.yul\":7717:7741   */\n      tag_159\n        /* \"#utility.yul\":7735:7740   */\n      dup5\n        /* \"#utility.yul\":7717:7741   */\n      tag_33\n      jump\t// in\n    tag_159:\n        /* \"#utility.yul\":7708:7742   */\n      tag_62\n      jump\t// in\n    tag_158:\n        /* \"#utility.yul\":7690:7743   */\n      tag_33\n      jump\t// in\n    tag_157:\n        /* \"#utility.yul\":7677:7743   */\n      swap1\n      pop\n        /* \"#utility.yul\":7607:7749   */\n      swap2\n      swap1\n      pop\n      jump\t// out\n        /* \"#utility.yul\":7755:7830   */\n    tag_64:\n        /* \"#utility.yul\":7798:7801   */\n      0x00\n        /* \"#utility.yul\":7819:7824   */\n      dup2\n        /* \"#utility.yul\":7812:7824   */\n      swap1\n      pop\n        /* \"#utility.yul\":7755:7830   */\n      swap2\n      swap1\n      pop\n      jump\t// out\n        /* \"#utility.yul\":7836:8105   */\n    tag_65:\n        /* \"#utility.yul\":7946:7985   */\n      tag_162\n        /* \"#utility.yul\":7977:7984   */\n      dup4\n        /* \"#utility.yul\":7946:7985   */\n      tag_63\n      jump\t// in\n    tag_162:\n        /* \"#utility.yul\":8007:8098   */\n      tag_163\n        /* \"#utility.yul\":8056:8097   */\n      tag_164\n        /* \"#utility.yul\":8080:8096   */\n      dup3\n        /* \"#utility.yul\":8056:8097   */\n      tag_64\n      jump\t// in\n    tag_164:\n        /* \"#utility.yul\":8048:8054   */\n      dup5\n        /* \"#utility.yul\":8041:8045   */\n      dup5\n        /* \"#utility.yul\":8035:8046   */\n      sload\n        /* \"#utility.yul\":8007:8098   */\n      tag_61\n      jump\t// in\n    tag_163:\n        /* \"#utility.yul\":8001:8005   */\n      dup3\n        /* \"#utility.yul\":7994:8099   */\n      sstore\n        /* \"#utility.yul\":7912:8105   */\n      pop\n        /* \"#utility.yul\":7836:8105   */\n      pop\n      pop\n      pop\n      jump\t// out\n        /* \"#utility.yul\":8111:8184   */\n    tag_66:\n        /* \"#utility.yul\":8156:8159   */\n      0x00\n        /* \"#utility.yul\":8111:8184   */\n      swap1\n      jump\t// out\n        /* \"#utility.yul\":8190:8379   */\n    tag_67:\n        /* \"#utility.yul\":8267:8299   */\n      tag_167\n      tag_66\n      jump\t// in\n    tag_167:\n        /* \"#utility.yul\":8308:8373   */\n      tag_168\n        /* \"#utility.yul\":8366:8372   */\n      dup2\n        /* \"#utility.yul\":8358:8364   */\n      dup5\n        /* \"#utility.yul\":8352:8356   */\n      dup5\n        /* \"#utility.yul\":8308:8373   */\n      tag_65\n      jump\t// in\n    tag_168:\n        /* \"#utility.yul\":8243:8379   */\n      pop\n        /* \"#utility.yul\":8190:8379   */\n      pop\n      pop\n      jump\t// out\n        /* \"#utility.yul\":8385:8571   */\n    tag_68:\n        /* \"#utility.yul\":8445:8565   */\n    tag_170:\n        /* \"#utility.yul\":8462:8465   */\n      dup2\n        /* \"#utility.yul\":8455:8460   */\n      dup2\n        /* \"#utility.yul\":8452:8466   */\n      lt\n        /* \"#utility.yul\":8445:8565   */\n      iszero\n      tag_172\n      jumpi\n        /* \"#utility.yul\":8516:8555   */\n      tag_173\n        /* \"#utility.yul\":8553:8554   */\n      0x00\n        /* \"#utility.yul\":8546:8551   */\n      dup3\n        /* \"#utility.yul\":8516:8555   */\n      tag_67\n      jump\t// in\n    tag_173:\n        /* \"#utility.yul\":8489:8490   */\n      0x01\n        /* \"#utility.yul\":8482:8487   */\n      dup2\n        /* \"#utility.yul\":8478:8491   */\n      add\n        /* \"#utility.yul\":8469:8491   */\n      swap1\n      pop\n        /* \"#utility.yul\":8445:8565   */\n      jump(tag_170)\n    tag_172:\n        /* \"#utility.yul\":8385:8571   */\n      pop\n      pop\n      jump\t// out\n        /* \"#utility.yul\":8577:9118   */\n    tag_69:\n        /* \"#utility.yul\":8677:8679   */\n      0x1f\n        /* \"#utility.yul\":8672:8675   */\n      dup3\n        /* \"#utility.yul\":8669:8680   */\n      gt\n        /* \"#utility.yul\":8666:9111   */\n      iszero\n      tag_175\n      jumpi\n        /* \"#utility.yul\":8711:8748   */\n      tag_176\n        /* \"#utility.yul\":8742:8747   */\n      dup2\n        /* \"#utility.yul\":8711:8748   */\n      tag_58\n      jump\t// in\n    tag_176:\n        /* \"#utility.yul\":8794:8823   */\n      tag_177\n        /* \"#utility.yul\":8812:8822   */\n      dup5\n        /* \"#utility.yul\":8794:8823   */\n      tag_59\n      jump\t// in\n    tag_177:\n        /* \"#utility.yul\":8784:8792   */\n      dup2\n        /* \"#utility.yul\":8780:8824   */\n      add\n        /* \"#utility.yul\":8977:8979   */\n      0x20\n        /* \"#utility.yul\":8965:8975   */\n      dup6\n        /* \"#utility.yul\":8962:8980   */\n      lt\n        /* \"#utility.yul\":8959:9008   */\n      iszero\n      tag_178\n      jumpi\n        /* \"#utility.yul\":8998:9006   */\n      dup2\n        /* \"#utility.yul\":8983:9006   */\n      swap1\n      pop\n        /* \"#utility.yul\":8959:9008   */\n    tag_178:\n        /* \"#utility.yul\":9021:9101   */\n      tag_179\n        /* \"#utility.yul\":9077:9099   */\n      tag_180\n        /* \"#utility.yul\":9095:9098   */\n      dup6\n        /* \"#utility.yul\":9077:9099   */\n      tag_59\n      jump\t// in\n    tag_180:\n        /* \"#utility.yul\":9067:9075   */\n      dup4\n        /* \"#utility.yul\":9063:9100   */\n      add\n        /* \"#utility.yul\":9050:9061   */\n      dup3\n        /* \"#utility.yul\":9021:9101   */\n      tag_68\n      jump\t// in\n    tag_179:\n        /* \"#utility.yul\":8681:9111   */\n      pop\n      pop\n        /* \"#utility.yul\":8666:9111   */\n    tag_175:\n        /* \"#utility.yul\":8577:9118   */\n      pop\n      pop\n      pop\n      jump\t// out\n        /* \"#utility.yul\":9124:9241   */\n    tag_70:\n        /* \"#utility.yul\":9178:9186   */\n      0x00\n        /* \"#utility.yul\":9228:9233   */\n      dup3\n        /* \"#utility.yul\":9222:9226   */\n      dup3\n        /* \"#utility.yul\":9218:9234   */\n      shr\n        /* \"#utility.yul\":9197:9234   */\n      swap1\n      pop\n        /* \"#utility.yul\":9124:9241   */\n      swap3\n      swap2\n      pop\n      pop\n      jump\t// out\n        /* \"#utility.yul\":9247:9416   */\n    tag_71:\n        /* \"#utility.yul\":9291:9297   */\n      0x00\n        /* \"#utility.yul\":9324:9375   */\n      tag_183\n        /* \"#utility.yul\":9372:9373   */\n      0x00\n        /* \"#utility.yul\":9368:9374   */\n      not\n        /* \"#utility.yul\":9360:9365   */\n      dup5\n        /* \"#utility.yul\":9357:9358   */\n      0x08\n        /* \"#utility.yul\":9353:9366   */\n      mul\n        /* \"#utility.yul\":9324:9375   */\n      tag_70\n      jump\t// in\n    tag_183:\n        /* \"#utility.yul\":9320:9376   */\n      not\n        /* \"#utility.yul\":9405:9409   */\n      dup1\n        /* \"#utility.yul\":9399:9403   */\n      dup4\n        /* \"#utility.yul\":9395:9410   */\n      and\n        /* \"#utility.yul\":9385:9410   */\n      swap2\n      pop\n        /* \"#utility.yul\":9298:9416   */\n      pop\n        /* \"#utility.yul\":9247:9416   */\n      swap3\n      swap2\n      pop\n      pop\n      jump\t// out\n        /* \"#utility.yul\":9421:9716   */\n    tag_72:\n        /* \"#utility.yul\":9497:9501   */\n      0x00\n        /* \"#utility.yul\":9643:9672   */\n      tag_185\n        /* \"#utility.yul\":9668:9671   */\n      dup4\n        /* \"#utility.yul\":9662:9666   */\n      dup4\n        /* \"#utility.yul\":9643:9672   */\n      tag_71\n      jump\t// in\n    tag_185:\n        /* \"#utility.yul\":9635:9672   */\n      swap2\n      pop\n        /* \"#utility.yul\":9705:9708   */\n      dup3\n        /* \"#utility.yul\":9702:9703   */\n      0x02\n        /* \"#utility.yul\":9698:9709   */\n      mul\n        /* \"#utility.yul\":9692:9696   */\n      dup3\n        /* \"#utility.yul\":9689:9710   */\n      or\n        /* \"#utility.yul\":9681:9710   */\n      swap1\n      pop\n        /* \"#utility.yul\":9421:9716   */\n      swap3\n      swap2\n      pop\n      pop\n      jump\t// out\n        /* \"#utility.yul\":9721:11111   */\n    tag_26:\n        /* \"#utility.yul\":9836:9872   */\n      tag_187\n        /* \"#utility.yul\":9868:9871   */\n      dup3\n        /* \"#utility.yul\":9836:9872   */\n      tag_55\n      jump\t// in\n    tag_187:\n        /* \"#utility.yul\":9937:9955   */\n      0xffffffffffffffff\n        /* \"#utility.yul\":9929:9935   */\n      dup2\n        /* \"#utility.yul\":9926:9956   */\n      gt\n        /* \"#utility.yul\":9923:9979   */\n      iszero\n      tag_188\n      jumpi\n        /* \"#utility.yul\":9959:9977   */\n      tag_189\n      tag_39\n      jump\t// in\n    tag_189:\n        /* \"#utility.yul\":9923:9979   */\n    tag_188:\n        /* \"#utility.yul\":10003:10041   */\n      tag_190\n        /* \"#utility.yul\":10035:10039   */\n      dup3\n        /* \"#utility.yul\":10029:10040   */\n      sload\n        /* \"#utility.yul\":10003:10041   */\n      tag_57\n      jump\t// in\n    tag_190:\n        /* \"#utility.yul\":10088:10154   */\n      tag_191\n        /* \"#utility.yul\":10147:10153   */\n      dup3\n        /* \"#utility.yul\":10139:10145   */\n      dup3\n        /* \"#utility.yul\":10133:10137   */\n      dup6\n        /* \"#utility.yul\":10088:10154   */\n      tag_69\n      jump\t// in\n    tag_191:\n        /* \"#utility.yul\":10181:10182   */\n      0x00\n        /* \"#utility.yul\":10205:10209   */\n      0x20\n        /* \"#utility.yul\":10192:10209   */\n      swap1\n      pop\n        /* \"#utility.yul\":10237:10239   */\n      0x1f\n        /* \"#utility.yul\":10229:10235   */\n      dup4\n        /* \"#utility.yul\":10226:10240   */\n      gt\n        /* \"#utility.yul\":10254:10255   */\n      0x01\n        /* \"#utility.yul\":10249:10866   */\n      dup2\n      eq\n      tag_193\n      jumpi\n        /* \"#utility.yul\":10910:10911   */\n      0x00\n        /* \"#utility.yul\":10927:10933   */\n      dup5\n        /* \"#utility.yul\":10924:11001   */\n      iszero\n      tag_194\n      jumpi\n        /* \"#utility.yul\":10976:10985   */\n      dup3\n        /* \"#utility.yul\":10971:10974   */\n      dup8\n        /* \"#utility.yul\":10967:10986   */\n      add\n        /* \"#utility.yul\":10961:10987   */\n      mload\n        /* \"#utility.yul\":10952:10987   */\n      swap1\n      pop\n        /* \"#utility.yul\":10924:11001   */\n    tag_194:\n        /* \"#utility.yul\":11027:11094   */\n      tag_195\n        /* \"#utility.yul\":11087:11093   */\n      dup6\n        /* \"#utility.yul\":11080:11085   */\n      dup3\n        /* \"#utility.yul\":11027:11094   */\n      tag_72\n      jump\t// in\n    tag_195:\n        /* \"#utility.yul\":11021:11025   */\n      dup7\n        /* \"#utility.yul\":11014:11095   */\n      sstore\n        /* \"#utility.yul\":10883:11105   */\n      pop\n        /* \"#utility.yul\":10219:11105   */\n      jump(tag_192)\n        /* \"#utility.yul\":10249:10866   */\n    tag_193:\n        /* \"#utility.yul\":10301:10305   */\n      0x1f\n        /* \"#utility.yul\":10297:10306   */\n      not\n        /* \"#utility.yul\":10289:10295   */\n      dup5\n        /* \"#utility.yul\":10285:10307   */\n      and\n        /* \"#utility.yul\":10335:10371   */\n      tag_196\n        /* \"#utility.yul\":10366:10370   */\n      dup7\n        /* \"#utility.yul\":10335:10371   */\n      tag_58\n      jump\t// in\n    tag_196:\n        /* \"#utility.yul\":10393:10394   */\n      0x00\n        /* \"#utility.yul\":10407:10615   */\n    tag_197:\n        /* \"#utility.yul\":10421:10428   */\n      dup3\n        /* \"#utility.yul\":10418:10419   */\n      dup2\n        /* \"#utility.yul\":10415:10429   */\n      lt\n        /* \"#utility.yul\":10407:10615   */\n      iszero\n      tag_199\n      jumpi\n        /* \"#utility.yul\":10500:10509   */\n      dup5\n        /* \"#utility.yul\":10495:10498   */\n      dup10\n        /* \"#utility.yul\":10491:10510   */\n      add\n        /* \"#utility.yul\":10485:10511   */\n      mload\n        /* \"#utility.yul\":10477:10483   */\n      dup3\n        /* \"#utility.yul\":10470:10512   */\n      sstore\n        /* \"#utility.yul\":10551:10552   */\n      0x01\n        /* \"#utility.yul\":10543:10549   */\n      dup3\n        /* \"#utility.yul\":10539:10553   */\n      add\n        /* \"#utility.yul\":10529:10553   */\n      swap2\n      pop\n        /* \"#utility.yul\":10598:10600   */\n      0x20\n        /* \"#utility.yul\":10587:10596   */\n      dup6\n        /* \"#utility.yul\":10583:10601   */\n      add\n        /* \"#utility.yul\":10570:10601   */\n      swap5\n      pop\n        /* \"#utility.yul\":10444:10448   */\n      0x20\n        /* \"#utility.yul\":10441:10442   */\n      dup2\n        /* \"#utility.yul\":10437:10449   */\n      add\n        /* \"#utility.yul\":10432:10449   */\n      swap1\n      pop\n        /* \"#utility.yul\":10407:10615   */\n      jump(tag_197)\n    tag_199:\n        /* \"#utility.yul\":10643:10649   */\n      dup7\n        /* \"#utility.yul\":10634:10641   */\n      dup4\n        /* \"#utility.yul\":10631:10650   */\n      lt\n        /* \"#utility.yul\":10628:10807   */\n      iszero\n      tag_200\n      jumpi\n        /* \"#utility.yul\":10701:10710   */\n      dup5\n        /* \"#utility.yul\":10696:10699   */\n      dup10\n        /* \"#utility.yul\":10692:10711   */\n      add\n        /* \"#utility.yul\":10686:10712   */\n      mload\n        /* \"#utility.yul\":10744:10792   */\n      tag_201\n        /* \"#utility.yul\":10786:10790   */\n      0x1f\n        /* \"#utility.yul\":10778:10784   */\n      dup10\n        /* \"#utility.yul\":10774:10791   */\n      and\n        /* \"#utility.yul\":10763:10772   */\n      dup3\n        /* \"#utility.yul\":10744:10792   */\n      tag_71\n      jump\t// in\n    tag_201:\n        /* \"#utility.yul\":10736:10742   */\n      dup4\n        /* \"#utility.yul\":10729:10793   */\n      sstore\n        /* \"#utility.yul\":10651:10807   */\n      pop\n        /* \"#utility.yul\":10628:10807   */\n    tag_200:\n        /* \"#utility.yul\":10853:10854   */\n      0x01\n        /* \"#utility.yul\":10849:10850   */\n      0x02\n        /* \"#utility.yul\":10841:10847   */\n      dup9\n        /* \"#utility.yul\":10837:10851   */\n      mul\n        /* \"#utility.yul\":10833:10855   */\n      add\n        /* \"#utility.yul\":10827:10831   */\n      dup9\n        /* \"#utility.yul\":10820:10856   */\n      sstore\n        /* \"#utility.yul\":10256:10866   */\n      pop\n      pop\n      pop\n        /* \"#utility.yul\":10219:11105   */\n    tag_192:\n      pop\n        /* \"#utility.yul\":9811:11111   */\n      pop\n      pop\n      pop\n        /* \"#utility.yul\":9721:11111   */\n      pop\n      pop\n      jump\t// out\n        /* \"#utility.yul\":11117:11297   */\n    tag_73:\n        /* \"#utility.yul\":11165:11242   */\n      0x4e487b7100000000000000000000000000000000000000000000000000000000\n        /* \"#utility.yul\":11162:11163   */\n      0x00\n        /* \"#utility.yul\":11155:11243   */\n      mstore\n        /* \"#utility.yul\":11262:11266   */\n      0x11\n        /* \"#utility.yul\":11259:11260   */\n      0x04\n        /* \"#utility.yul\":11252:11267   */\n      mstore\n        /* \"#utility.yul\":11286:11290   */\n      0x24\n        /* \"#utility.yul\":11283:11284   */\n      0x00\n        /* \"#utility.yul\":11276:11291   */\n      revert\n        /* \"#utility.yul\":11303:11497   */\n    tag_28:\n        /* \"#utility.yul\":11343:11347   */\n      0x00\n        /* \"#utility.yul\":11363:11383   */\n      tag_204\n        /* \"#utility.yul\":11381:11382   */\n      dup3\n        /* \"#utility.yul\":11363:11383   */\n      tag_33\n      jump\t// in\n    tag_204:\n        /* \"#utility.yul\":11358:11383   */\n      swap2\n      pop\n        /* \"#utility.yul\":11397:11417   */\n      tag_205\n        /* \"#utility.yul\":11415:11416   */\n      dup4\n        /* \"#utility.yul\":11397:11417   */\n      tag_33\n      jump\t// in\n    tag_205:\n        /* \"#utility.yul\":11392:11417   */\n      swap3\n      pop\n        /* \"#utility.yul\":11441:11442   */\n      dup3\n        /* \"#utility.yul\":11438:11439   */\n      dup3\n        /* \"#utility.yul\":11434:11443   */\n      sub\n        /* \"#utility.yul\":11426:11443   */\n      swap1\n      pop\n        /* \"#utility.yul\":11465:11466   */\n      dup2\n        /* \"#utility.yul\":11459:11463   */\n      dup2\n        /* \"#utility.yul\":11456:11467   */\n      gt\n        /* \"#utility.yul\":11453:11490   */\n      iszero\n      tag_206\n      jumpi\n        /* \"#utility.yul\":11470:11488   */\n      tag_207\n      tag_73\n      jump\t// in\n    tag_207:\n        /* \"#utility.yul\":11453:11490   */\n    tag_206:\n        /* \"#utility.yul\":11303:11497   */\n      swap3\n      swap2\n      pop\n      pop\n      jump\t// out\n\n    auxdata: 0xa26469706673582212206da29bfea70951a77203e56f5af7668e1d6b322cebddd9a7ff9059159e5aea6b64736f6c63430008160033\n}\n",
				"bytecode": {
					"linkReferences": {},
					"object": "608060405234801561000f575f80fd5b506108b98061001d5f395ff3fe608060405234801561000f575f80fd5b5060043610610034575f3560e01c8063c1e5181714610038578063d72d677014610054575b5f80fd5b610052600480360381019061004d9190610261565b610070565b005b61006e6004803603810190610069919061049e565b61010b565b005b5f8281548110610083576100826104fb565b5b905f5260205f2090600202016001015f9054906101000a90048060201c73ffffffffffffffffffffffffffffffffffffffff169063ffffffff16826040518263ffffffff1660e01b81526004016100da9190610537565b5f604051808303815f87803b1580156100f1575f80fd5b505af1158015610103573d5f803e3d5ffd5b505050505050565b5f6040518060400160405280858152602001848463ffffffff169060201b1760401b815250908060018154018082558091505060019003905f5260205f2090600202015f909190919091505f820151815f0190816101699190610754565b5060208201518060601c9060401c63ffffffff16826001015f6101000a81548177ffffffffffffffffffffffffffffffffffffffffffffffff02191690848463ffffffff169073ffffffffffffffffffffffffffffffffffffffff1660201b1702179055505050507fe5e7dd91b3ed7fb84c335f117423d1b9bbbed2d76c57e81520dd681b9ede988560015f805490506102039190610850565b6040516102109190610537565b60405180910390a1505050565b5f604051905090565b5f80fd5b5f80fd5b5f819050919050565b6102408161022e565b811461024a575f80fd5b50565b5f8135905061025b81610237565b92915050565b5f806040838503121561027757610276610226565b5b5f6102848582860161024d565b92505060206102958582860161024d565b9150509250929050565b5f80fd5b5f80fd5b5f601f19601f8301169050919050565b7f4e487b71000000000000000000000000000000000000000000000000000000005f52604160045260245ffd5b6102ed826102a7565b810181811067ffffffffffffffff8211171561030c5761030b6102b7565b5b80604052505050565b5f61031e61021d565b905061032a82826102e4565b919050565b5f67ffffffffffffffff821115610349576103486102b7565b5b610352826102a7565b9050602081019050919050565b828183375f83830152505050565b5f61037f61037a8461032f565b610315565b90508281526020810184848401111561039b5761039a6102a3565b5b6103a684828561035f565b509392505050565b5f82601f8301126103c2576103c161029f565b5b81356103d284826020860161036d565b91505092915050565b5f7fffffffffffffffffffffffffffffffffffffffffffffffff000000000000000082169050919050565b5f610410826103db565b9050919050565b61042081610406565b811461042a575f80fd5b50565b5f8135905061043b81610417565b92915050565b5f8160201c9050919050565b5f8160401c9050919050565b5f806104648361044d565b925063ffffffff8316905061047883610441565b9150915091565b5f8061049361048e858561042d565b610459565b915091509250929050565b5f805f604084860312156104b5576104b4610226565b5b5f84013567ffffffffffffffff8111156104d2576104d161022a565b5b6104de868287016103ae565b93505060206104ef8682870161047f565b92509250509250925092565b7f4e487b71000000000000000000000000000000000000000000000000000000005f52603260045260245ffd5b6105318161022e565b82525050565b5f60208201905061054a5f830184610528565b92915050565b5f81519050919050565b7f4e487b71000000000000000000000000000000000000000000000000000000005f52602260045260245ffd5b5f600282049050600182168061059e57607f821691505b6020821081036105b1576105b061055a565b5b50919050565b5f819050815f5260205f209050919050565b5f6020601f8301049050919050565b5f82821b905092915050565b5f600883026106137fffffffffffffffffffffffffffffffffffffffffffffffffffffffffffffffff826105d8565b61061d86836105d8565b95508019841693508086168417925050509392505050565b5f819050919050565b5f61065861065361064e8461022e565b610635565b61022e565b9050919050565b5f819050919050565b6106718361063e565b61068561067d8261065f565b8484546105e4565b825550505050565b5f90565b61069961068d565b6106a4818484610668565b505050565b5b818110156106c7576106bc5f82610691565b6001810190506106aa565b5050565b601f82111561070c576106dd816105b7565b6106e6846105c9565b810160208510156106f5578190505b610709610701856105c9565b8301826106a9565b50505b505050565b5f82821c905092915050565b5f61072c5f1984600802610711565b1980831691505092915050565b5f610744838361071d565b9150826002028217905092915050565b61075d82610550565b67ffffffffffffffff811115610776576107756102b7565b5b6107808254610587565b61078b8282856106cb565b5f60209050601f8311600181146107bc575f84156107aa578287015190505b6107b48582610739565b86555061081b565b601f1984166107ca866105b7565b5f5b828110156107f1578489015182556001820191506020850194506020810190506107cc565b8683101561080e578489015161080a601f89168261071d565b8355505b6001600288020188555050505b505050505050565b7f4e487b71000000000000000000000000000000000000000000000000000000005f52601160045260245ffd5b5f61085a8261022e565b91506108658361022e565b925082820390508181111561087d5761087c610823565b5b9291505056fea26469706673582212206da29bfea70951a77203e56f5af7668e1d6b322cebddd9a7ff9059159e5aea6b64736f6c63430008160033",
					"opcodes": "PUSH1 0x80 PUSH1 0x40 MSTORE CALLVALUE DUP1 ISZERO PUSH2 0xF JUMPI PUSH0 DUP1 REVERT JUMPDEST POP PUSH2 0x8B9 DUP1 PUSH2 0x1D PUSH0 CODECOPY PUSH0 RETURN INVALID PUSH1 0x80 PUSH1 0x40 MSTORE CALLVALUE DUP1 ISZERO PUSH2 0xF JUMPI PUSH0 DUP1 REVERT JUMPDEST POP PUSH1 0x4 CALLDATASIZE LT PUSH2 0x34 JUMPI PUSH0 CALLDATALOAD PUSH1 0xE0 SHR DUP1 PUSH4 0xC1E51817 EQ PUSH2 0x38 JUMPI DUP1 PUSH4 0xD72D6770 EQ PUSH2 0x54 JUMPI JUMPDEST PUSH0 DUP1 REVERT JUMPDEST PUSH2 0x52 PUSH1 0x4 DUP1 CALLDATASIZE SUB DUP2 ADD SWAP1 PUSH2 0x4D SWAP2 SWAP1 PUSH2 0x261 JUMP JUMPDEST PUSH2 0x70 JUMP JUMPDEST STOP JUMPDEST PUSH2 0x6E PUSH1 0x4 DUP1 CALLDATASIZE SUB DUP2 ADD SWAP1 PUSH2 0x69 SWAP2 SWAP1 PUSH2 0x49E JUMP JUMPDEST PUSH2 0x10B JUMP JUMPDEST STOP JUMPDEST PUSH0 DUP3 DUP2 SLOAD DUP2 LT PUSH2 0x83 JUMPI PUSH2 0x82 PUSH2 0x4FB JUMP JUMPDEST JUMPDEST SWAP1 PUSH0 MSTORE PUSH1 0x20 PUSH0 KECCAK256 SWAP1 PUSH1 0x2 MUL ADD PUSH1 0x1 ADD PUSH0 SWAP1 SLOAD SWAP1 PUSH2 0x100 EXP SWAP1 DIV DUP1 PUSH1 0x20 SHR PUSH20 0xFFFFFFFFFFFFFFFFFFFFFFFFFFFFFFFFFFFFFFFF AND SWAP1 PUSH4 0xFFFFFFFF AND DUP3 PUSH1 0x40 MLOAD DUP3 PUSH4 0xFFFFFFFF AND PUSH1 0xE0 SHL DUP2 MSTORE PUSH1 0x4 ADD PUSH2 0xDA SWAP2 SWAP1 PUSH2 0x537 JUMP JUMPDEST PUSH0 PUSH1 0x40 MLOAD DUP1 DUP4 SUB DUP2 PUSH0 DUP8 DUP1 EXTCODESIZE ISZERO DUP1 ISZERO PUSH2 0xF1 JUMPI PUSH0 DUP1 REVERT JUMPDEST POP GAS CALL ISZERO DUP1 ISZERO PUSH2 0x103 JUMPI RETURNDATASIZE PUSH0 DUP1 RETURNDATACOPY RETURNDATASIZE PUSH0 REVERT JUMPDEST POP POP POP POP POP POP JUMP JUMPDEST PUSH0 PUSH1 0x40 MLOAD DUP1 PUSH1 0x40 ADD PUSH1 0x40 MSTORE DUP1 DUP6 DUP2 MSTORE PUSH1 0x20 ADD DUP5 DUP5 PUSH4 0xFFFFFFFF AND SWAP1 PUSH1 0x20 SHL OR PUSH1 0x40 SHL DUP2 MSTORE POP SWAP1 DUP1 PUSH1 0x1 DUP2 SLOAD ADD DUP1 DUP3 SSTORE DUP1 SWAP2 POP POP PUSH1 0x1 SWAP1 SUB SWAP1 PUSH0 MSTORE PUSH1 0x20 PUSH0 KECCAK256 SWAP1 PUSH1 0x2 MUL ADD PUSH0 SWAP1 SWAP2 SWAP1 SWAP2 SWAP1 SWAP2 POP PUSH0 DUP3 ADD MLOAD DUP2 PUSH0 ADD SWAP1 DUP2 PUSH2 0x169 SWAP2 SWAP1 PUSH2 0x754 JUMP JUMPDEST POP PUSH1 0x20 DUP3 ADD MLOAD DUP1 PUSH1 0x60 SHR SWAP1 PUSH1 0x40 SHR PUSH4 0xFFFFFFFF AND DUP3 PUSH1 0x1 ADD PUSH0 PUSH2 0x100 EXP DUP2 SLOAD DUP2 PUSH24 0xFFFFFFFFFFFFFFFFFFFFFFFFFFFFFFFFFFFFFFFFFFFFFFFF MUL NOT AND SWAP1 DUP5 DUP5 PUSH4 0xFFFFFFFF AND SWAP1 PUSH20 0xFFFFFFFFFFFFFFFFFFFFFFFFFFFFFFFFFFFFFFFF AND PUSH1 0x20 SHL OR MUL OR SWAP1 SSTORE POP POP POP POP PUSH32 0xE5E7DD91B3ED7FB84C335F117423D1B9BBBED2D76C57E81520DD681B9EDE9885 PUSH1 0x1 PUSH0 DUP1 SLOAD SWAP1 POP PUSH2 0x203 SWAP2 SWAP1 PUSH2 0x850 JUMP JUMPDEST PUSH1 0x40 MLOAD PUSH2 0x210 SWAP2 SWAP1 PUSH2 0x537 JUMP JUMPDEST PUSH1 0x40 MLOAD DUP1 SWAP2 SUB SWAP1 LOG1 POP POP POP JUMP JUMPDEST PUSH0 PUSH1 0x40 MLOAD SWAP1 POP SWAP1 JUMP JUMPDEST PUSH0 DUP1 REVERT JUMPDEST PUSH0 DUP1 REVERT JUMPDEST PUSH0 DUP2 SWAP1 POP SWAP2 SWAP1 POP JUMP JUMPDEST PUSH2 0x240 DUP2 PUSH2 0x22E JUMP JUMPDEST DUP2 EQ PUSH2 0x24A JUMPI PUSH0 DUP1 REVERT JUMPDEST POP JUMP JUMPDEST PUSH0 DUP2 CALLDATALOAD SWAP1 POP PUSH2 0x25B DUP2 PUSH2 0x237 JUMP JUMPDEST SWAP3 SWAP2 POP POP JUMP JUMPDEST PUSH0 DUP1 PUSH1 0x40 DUP4 DUP6 SUB SLT ISZERO PUSH2 0x277 JUMPI PUSH2 0x276 PUSH2 0x226 JUMP JUMPDEST JUMPDEST PUSH0 PUSH2 0x284 DUP6 DUP3 DUP7 ADD PUSH2 0x24D JUMP JUMPDEST SWAP3 POP POP PUSH1 0x20 PUSH2 0x295 DUP6 DUP3 DUP7 ADD PUSH2 0x24D JUMP JUMPDEST SWAP2 POP POP SWAP3 POP SWAP3 SWAP1 POP JUMP JUMPDEST PUSH0 DUP1 REVERT JUMPDEST PUSH0 DUP1 REVERT JUMPDEST PUSH0 PUSH1 0x1F NOT PUSH1 0x1F DUP4 ADD AND SWAP1 POP SWAP2 SWAP1 POP JUMP JUMPDEST PUSH32 0x4E487B7100000000000000000000000000000000000000000000000000000000 PUSH0 MSTORE PUSH1 0x41 PUSH1 0x4 MSTORE PUSH1 0x24 PUSH0 REVERT JUMPDEST PUSH2 0x2ED DUP3 PUSH2 0x2A7 JUMP JUMPDEST DUP2 ADD DUP2 DUP2 LT PUSH8 0xFFFFFFFFFFFFFFFF DUP3 GT OR ISZERO PUSH2 0x30C JUMPI PUSH2 0x30B PUSH2 0x2B7 JUMP JUMPDEST JUMPDEST DUP1 PUSH1 0x40 MSTORE POP POP POP JUMP JUMPDEST PUSH0 PUSH2 0x31E PUSH2 0x21D JUMP JUMPDEST SWAP1 POP PUSH2 0x32A DUP3 DUP3 PUSH2 0x2E4 JUMP JUMPDEST SWAP2 SWAP1 POP JUMP JUMPDEST PUSH0 PUSH8 0xFFFFFFFFFFFFFFFF DUP3 GT ISZERO PUSH2 0x349 JUMPI PUSH2 0x348 PUSH2 0x2B7 JUMP JUMPDEST JUMPDEST PUSH2 0x352 DUP3 PUSH2 0x2A7 JUMP JUMPDEST SWAP1 POP PUSH1 0x20 DUP2 ADD SWAP1 POP SWAP2 SWAP1 POP JUMP JUMPDEST DUP3 DUP2 DUP4 CALLDATACOPY PUSH0 DUP4 DUP4 ADD MSTORE POP POP POP JUMP JUMPDEST PUSH0 PUSH2 0x37F PUSH2 0x37A DUP5 PUSH2 0x32F JUMP JUMPDEST PUSH2 0x315 JUMP JUMPDEST SWAP1 POP DUP3 DUP2 MSTORE PUSH1 0x20 DUP2 ADD DUP5 DUP5 DUP5 ADD GT ISZERO PUSH2 0x39B JUMPI PUSH2 0x39A PUSH2 0x2A3 JUMP JUMPDEST JUMPDEST PUSH2 0x3A6 DUP5 DUP3 DUP6 PUSH2 0x35F JUMP JUMPDEST POP SWAP4 SWAP3 POP POP POP JUMP JUMPDEST PUSH0 DUP3 PUSH1 0x1F DUP4 ADD SLT PUSH2 0x3C2 JUMPI PUSH2 0x3C1 PUSH2 0x29F JUMP JUMPDEST JUMPDEST DUP2 CALLDATALOAD PUSH2 0x3D2 DUP5 DUP3 PUSH1 0x20 DUP7 ADD PUSH2 0x36D JUMP JUMPDEST SWAP2 POP POP SWAP3 SWAP2 POP POP JUMP JUMPDEST PUSH0 PUSH32 0xFFFFFFFFFFFFFFFFFFFFFFFFFFFFFFFFFFFFFFFFFFFFFFFF0000000000000000 DUP3 AND SWAP1 POP SWAP2 SWAP1 POP JUMP JUMPDEST PUSH0 PUSH2 0x410 DUP3 PUSH2 0x3DB JUMP JUMPDEST SWAP1 POP SWAP2 SWAP1 POP JUMP JUMPDEST PUSH2 0x420 DUP2 PUSH2 0x406 JUMP JUMPDEST DUP2 EQ PUSH2 0x42A JUMPI PUSH0 DUP1 REVERT JUMPDEST POP JUMP JUMPDEST PUSH0 DUP2 CALLDATALOAD SWAP1 POP PUSH2 0x43B DUP2 PUSH2 0x417 JUMP JUMPDEST SWAP3 SWAP2 POP POP JUMP JUMPDEST PUSH0 DUP2 PUSH1 0x20 SHR SWAP1 POP SWAP2 SWAP1 POP JUMP JUMPDEST PUSH0 DUP2 PUSH1 0x40 SHR SWAP1 POP SWAP2 SWAP1 POP JUMP JUMPDEST PUSH0 DUP1 PUSH2 0x464 DUP4 PUSH2 0x44D JUMP JUMPDEST SWAP3 POP PUSH4 0xFFFFFFFF DUP4 AND SWAP1 POP PUSH2 0x478 DUP4 PUSH2 0x441 JUMP JUMPDEST SWAP2 POP SWAP2 POP SWAP2 JUMP JUMPDEST PUSH0 DUP1 PUSH2 0x493 PUSH2 0x48E DUP6 DUP6 PUSH2 0x42D JUMP JUMPDEST PUSH2 0x459 JUMP JUMPDEST SWAP2 POP SWAP2 POP SWAP3 POP SWAP3 SWAP1 POP JUMP JUMPDEST PUSH0 DUP1 PUSH0 PUSH1 0x40 DUP5 DUP7 SUB SLT ISZERO PUSH2 0x4B5 JUMPI PUSH2 0x4B4 PUSH2 0x226 JUMP JUMPDEST JUMPDEST PUSH0 DUP5 ADD CALLDATALOAD PUSH8 0xFFFFFFFFFFFFFFFF DUP2 GT ISZERO PUSH2 0x4D2 JUMPI PUSH2 0x4D1 PUSH2 0x22A JUMP JUMPDEST JUMPDEST PUSH2 0x4DE DUP7 DUP3 DUP8 ADD PUSH2 0x3AE JUMP JUMPDEST SWAP4 POP POP PUSH1 0x20 PUSH2 0x4EF DUP7 DUP3 DUP8 ADD PUSH2 0x47F JUMP JUMPDEST SWAP3 POP SWAP3 POP POP SWAP3 POP SWAP3 POP SWAP3 JUMP JUMPDEST PUSH32 0x4E487B7100000000000000000000000000000000000000000000000000000000 PUSH0 MSTORE PUSH1 0x32 PUSH1 0x4 MSTORE PUSH1 0x24 PUSH0 REVERT JUMPDEST PUSH2 0x531 DUP2 PUSH2 0x22E JUMP JUMPDEST DUP3 MSTORE POP POP JUMP JUMPDEST PUSH0 PUSH1 0x20 DUP3 ADD SWAP1 POP PUSH2 0x54A PUSH0 DUP4 ADD DUP5 PUSH2 0x528 JUMP JUMPDEST SWAP3 SWAP2 POP POP JUMP JUMPDEST PUSH0 DUP2 MLOAD SWAP1 POP SWAP2 SWAP1 POP JUMP JUMPDEST PUSH32 0x4E487B7100000000000000000000000000000000000000000000000000000000 PUSH0 MSTORE PUSH1 0x22 PUSH1 0x4 MSTORE PUSH1 0x24 PUSH0 REVERT JUMPDEST PUSH0 PUSH1 0x2 DUP3 DIV SWAP1 POP PUSH1 0x1 DUP3 AND DUP1 PUSH2 0x59E JUMPI PUSH1 0x7F DUP3 AND SWAP2 POP JUMPDEST PUSH1 0x20 DUP3 LT DUP2 SUB PUSH2 0x5B1 JUMPI PUSH2 0x5B0 PUSH2 0x55A JUMP JUMPDEST JUMPDEST POP SWAP2 SWAP1 POP JUMP JUMPDEST PUSH0 DUP2 SWAP1 POP DUP2 PUSH0 MSTORE PUSH1 0x20 PUSH0 KECCAK256 SWAP1 POP SWAP2 SWAP1 POP JUMP JUMPDEST PUSH0 PUSH1 0x20 PUSH1 0x1F DUP4 ADD DIV SWAP1 POP SWAP2 SWAP1 POP JUMP JUMPDEST PUSH0 DUP3 DUP3 SHL SWAP1 POP SWAP3 SWAP2 POP POP JUMP JUMPDEST PUSH0 PUSH1 0x8 DUP4 MUL PUSH2 0x613 PUSH32 0xFFFFFFFFFFFFFFFFFFFFFFFFFFFFFFFFFFFFFFFFFFFFFFFFFFFFFFFFFFFFFFFF DUP3 PUSH2 0x5D8 JUMP JUMPDEST PUSH2 0x61D DUP7 DUP4 PUSH2 0x5D8 JUMP JUMPDEST SWAP6 POP DUP1 NOT DUP5 AND SWAP4 POP DUP1 DUP7 AND DUP5 OR SWAP3 POP POP POP SWAP4 SWAP3 POP POP POP JUMP JUMPDEST PUSH0 DUP2 SWAP1 POP SWAP2 SWAP1 POP JUMP JUMPDEST PUSH0 PUSH2 0x658 PUSH2 0x653 PUSH2 0x64E DUP5 PUSH2 0x22E JUMP JUMPDEST PUSH2 0x635 JUMP JUMPDEST PUSH2 0x22E JUMP JUMPDEST SWAP1 POP SWAP2 SWAP1 POP JUMP JUMPDEST PUSH0 DUP2 SWAP1 POP SWAP2 SWAP1 POP JUMP JUMPDEST PUSH2 0x671 DUP4 PUSH2 0x63E JUMP JUMPDEST PUSH2 0x685 PUSH2 0x67D DUP3 PUSH2 0x65F JUMP JUMPDEST DUP5 DUP5 SLOAD PUSH2 0x5E4 JUMP JUMPDEST DUP3 SSTORE POP POP POP POP JUMP JUMPDEST PUSH0 SWAP1 JUMP JUMPDEST PUSH2 0x699 PUSH2 0x68D JUMP JUMPDEST PUSH2 0x6A4 DUP2 DUP5 DUP5 PUSH2 0x668 JUMP JUMPDEST POP POP POP JUMP JUMPDEST JUMPDEST DUP2 DUP2 LT ISZERO PUSH2 0x6C7 JUMPI PUSH2 0x6BC PUSH0 DUP3 PUSH2 0x691 JUMP JUMPDEST PUSH1 0x1 DUP2 ADD SWAP1 POP PUSH2 0x6AA JUMP JUMPDEST POP POP JUMP JUMPDEST PUSH1 0x1F DUP3 GT ISZERO PUSH2 0x70C JUMPI PUSH2 0x6DD DUP2 PUSH2 0x5B7 JUMP JUMPDEST PUSH2 0x6E6 DUP5 PUSH2 0x5C9 JUMP JUMPDEST DUP2 ADD PUSH1 0x20 DUP6 LT ISZERO PUSH2 0x6F5 JUMPI DUP2 SWAP1 POP JUMPDEST PUSH2 0x709 PUSH2 0x701 DUP6 PUSH2 0x5C9 JUMP JUMPDEST DUP4 ADD DUP3 PUSH2 0x6A9 JUMP JUMPDEST POP POP JUMPDEST POP POP POP JUMP JUMPDEST PUSH0 DUP3 DUP3 SHR SWAP1 POP SWAP3 SWAP2 POP POP JUMP JUMPDEST PUSH0 PUSH2 0x72C PUSH0 NOT DUP5 PUSH1 0x8 MUL PUSH2 0x711 JUMP JUMPDEST NOT DUP1 DUP4 AND SWAP2 POP POP SWAP3 SWAP2 POP POP JUMP JUMPDEST PUSH0 PUSH2 0x744 DUP4 DUP4 PUSH2 0x71D JUMP JUMPDEST SWAP2 POP DUP3 PUSH1 0x2 MUL DUP3 OR SWAP1 POP SWAP3 SWAP2 POP POP JUMP JUMPDEST PUSH2 0x75D DUP3 PUSH2 0x550 JUMP JUMPDEST PUSH8 0xFFFFFFFFFFFFFFFF DUP2 GT ISZERO PUSH2 0x776 JUMPI PUSH2 0x775 PUSH2 0x2B7 JUMP JUMPDEST JUMPDEST PUSH2 0x780 DUP3 SLOAD PUSH2 0x587 JUMP JUMPDEST PUSH2 0x78B DUP3 DUP3 DUP6 PUSH2 0x6CB JUMP JUMPDEST PUSH0 PUSH1 0x20 SWAP1 POP PUSH1 0x1F DUP4 GT PUSH1 0x1 DUP2 EQ PUSH2 0x7BC JUMPI PUSH0 DUP5 ISZERO PUSH2 0x7AA JUMPI DUP3 DUP8 ADD MLOAD SWAP1 POP JUMPDEST PUSH2 0x7B4 DUP6 DUP3 PUSH2 0x739 JUMP JUMPDEST DUP7 SSTORE POP PUSH2 0x81B JUMP JUMPDEST PUSH1 0x1F NOT DUP5 AND PUSH2 0x7CA DUP7 PUSH2 0x5B7 JUMP JUMPDEST PUSH0 JUMPDEST DUP3 DUP2 LT ISZERO PUSH2 0x7F1 JUMPI DUP5 DUP10 ADD MLOAD DUP3 SSTORE PUSH1 0x1 DUP3 ADD SWAP2 POP PUSH1 0x20 DUP6 ADD SWAP5 POP PUSH1 0x20 DUP2 ADD SWAP1 POP PUSH2 0x7CC JUMP JUMPDEST DUP7 DUP4 LT ISZERO PUSH2 0x80E JUMPI DUP5 DUP10 ADD MLOAD PUSH2 0x80A PUSH1 0x1F DUP10 AND DUP3 PUSH2 0x71D JUMP JUMPDEST DUP4 SSTORE POP JUMPDEST PUSH1 0x1 PUSH1 0x2 DUP9 MUL ADD DUP9 SSTORE POP POP POP JUMPDEST POP POP POP POP POP POP JUMP JUMPDEST PUSH32 0x4E487B7100000000000000000000000000000000000000000000000000000000 PUSH0 MSTORE PUSH1 0x11 PUSH1 0x4 MSTORE PUSH1 0x24 PUSH0 REVERT JUMPDEST PUSH0 PUSH2 0x85A DUP3 PUSH2 0x22E JUMP JUMPDEST SWAP2 POP PUSH2 0x865 DUP4 PUSH2 0x22E JUMP JUMPDEST SWAP3 POP DUP3 DUP3 SUB SWAP1 POP DUP2 DUP2 GT ISZERO PUSH2 0x87D JUMPI PUSH2 0x87C PUSH2 0x823 JUMP JUMPDEST JUMPDEST SWAP3 SWAP2 POP POP JUMP INVALID LOG2 PUSH5 0x6970667358 0x22 SLT KECCAK256 PUSH14 0xA29BFEA70951A77203E56F5AF766 DUP15 SAR PUSH12 0x322CEBDDD9A7FF9059159E5A 0xEA PUSH12 0x64736F6C6343000816003300 "
				},
				"gasEstimates": {
					"creation": {
						"codeDepositCost": "446600",
						"executionCost": "478",
						"totalCost": "447078"
					},
					"external": {
						"query(bytes,function)": "infinite",
						"reply(uint256,uint256)": "infinite"
					}
				},
				"methodIdentifiers": {
					"query(bytes,function)": "d72d6770",
					"reply(uint256,uint256)": "c1e51817"
				}
			},
			"storageLayout": {
				"storage": [
					{
						"astId": 14,
						"contract": "contracts/Test10.sol:Oracle",
						"label": "requests",
						"offset": 0,
						"slot": "0",
						"type": "t_array(t_struct(Request)10_storage)dyn_storage"
					}
				],
				"types": {
					"t_array(t_struct(Request)10_storage)dyn_storage": {
						"base": "t_struct(Request)10_storage",
						"encoding": "dynamic_array",
						"label": "struct Oracle.Request[]",
						"numberOfBytes": "32"
					},
					"t_bytes_storage": {
						"encoding": "bytes",
						"label": "bytes",
						"numberOfBytes": "32"
					},
					"t_function_external_nonpayable(t_uint256)returns()": {
						"encoding": "inplace",
						"label": "function (uint256) external",
						"numberOfBytes": "24"
					},
					"t_struct(Request)10_storage": {
						"encoding": "inplace",
						"label": "struct Oracle.Request",
						"members": [
							{
								"astId": 3,
								"contract": "contracts/Test10.sol:Oracle",
								"label": "data",
								"offset": 0,
								"slot": "0",
								"type": "t_bytes_storage"
							},
							{
								"astId": 9,
								"contract": "contracts/Test10.sol:Oracle",
								"label": "callback",
								"offset": 0,
								"slot": "1",
								"type": "t_function_external_nonpayable(t_uint256)returns()"
							}
						],
						"numberOfBytes": "64"
					}
				}
			},
			"userdoc": {
				"kind": "user",
				"methods": {},
				"version": 1
			}
		}
	}
}