{
	"contracts/Demo1.sol": {
		"Demo": {
			"abi": [
				{
					"inputs": [
						{
							"internalType": "address",
							"name": "leader_",
							"type": "address"
						}
					],
					"stateMutability": "nonpayable",
					"type": "constructor"
				},
				{
					"inputs": [
						{
							"internalType": "string",
							"name": "notice",
							"type": "string"
						}
					],
					"name": "MyError",
					"type": "error"
				},
				{
					"anonymous": false,
					"inputs": [
						{
							"indexed": false,
							"internalType": "string",
							"name": "functionName",
							"type": "string"
						},
						{
							"indexed": false,
							"internalType": "address",
							"name": "addr",
							"type": "address"
						},
						{
							"indexed": false,
							"internalType": "uint256",
							"name": "amount",
							"type": "uint256"
						},
						{
							"indexed": false,
							"internalType": "bytes",
							"name": "data",
							"type": "bytes"
						}
					],
					"name": "Log",
					"type": "event"
				},
				{
					"anonymous": false,
					"inputs": [
						{
							"indexed": false,
							"internalType": "uint8",
							"name": "",
							"type": "uint8"
						}
					],
					"name": "Step",
					"type": "event"
				},
				{
					"stateMutability": "payable",
					"type": "fallback"
				},
				{
					"inputs": [
						{
							"internalType": "string",
							"name": "content",
							"type": "string"
						}
					],
					"name": "confort",
					"outputs": [
						{
							"internalType": "bool",
							"name": "",
							"type": "bool"
						}
					],
					"stateMutability": "payable",
					"type": "function"
				},
				{
					"inputs": [
						{
							"internalType": "string",
							"name": "content",
							"type": "string"
						}
					],
					"name": "confortRep",
					"outputs": [
						{
							"internalType": "bool",
							"name": "",
							"type": "bool"
						}
					],
					"stateMutability": "nonpayable",
					"type": "function"
				},
				{
					"inputs": [],
					"name": "destruct",
					"outputs": [],
					"stateMutability": "nonpayable",
					"type": "function"
				},
				{
					"inputs": [
						{
							"internalType": "string",
							"name": "content",
							"type": "string"
						}
					],
					"name": "hello",
					"outputs": [
						{
							"internalType": "bool",
							"name": "",
							"type": "bool"
						}
					],
					"stateMutability": "nonpayable",
					"type": "function"
				},
				{
					"inputs": [
						{
							"internalType": "string",
							"name": "content",
							"type": "string"
						}
					],
					"name": "helloRsp",
					"outputs": [
						{
							"internalType": "bool",
							"name": "",
							"type": "bool"
						}
					],
					"stateMutability": "nonpayable",
					"type": "function"
				},
				{
					"inputs": [],
					"name": "leader",
					"outputs": [
						{
							"internalType": "address",
							"name": "",
							"type": "address"
						}
					],
					"stateMutability": "view",
					"type": "function"
				},
				{
					"inputs": [],
					"name": "step",
					"outputs": [
						{
							"internalType": "uint8",
							"name": "",
							"type": "uint8"
						}
					],
					"stateMutability": "view",
					"type": "function"
				},
				{
					"stateMutability": "payable",
					"type": "receive"
				}
			],
			"devdoc": {
				"errors": {
					"MyError(string)": [
						{
							"details": "aaaaa"
						}
					]
				},
				"kind": "dev",
				"methods": {},
				"version": 1
			},
			"evm": {
				"assembly": "    /* \"contracts/Demo1.sol\":59:3005  contract Demo{... */\n  mstore(0x40, 0xa0)\n    /* \"contracts/Demo1.sol\":335:467  constructor(address leader_){... */\n  callvalue\n  dup1\n  iszero\n  tag_1\n  jumpi\n  0x00\n  dup1\n  revert\ntag_1:\n  pop\n  mload(0x40)\n  sub(codesize, bytecodeSize)\n  dup1\n  bytecodeSize\n  dup4\n  codecopy\n  dup2\n  dup2\n  add\n  0x40\n  mstore\n  dup2\n  add\n  swap1\n  tag_2\n  swap2\n  swap1\n  tag_3\n  jump\t// in\ntag_2:\n    /* \"contracts/Demo1.sol\":401:402  0 */\n  0x00\n    /* \"contracts/Demo1.sol\":382:403  leader_ != address(0) */\n  0xffffffffffffffffffffffffffffffffffffffff\n  and\n    /* \"contracts/Demo1.sol\":382:389  leader_ */\n  dup2\n    /* \"contracts/Demo1.sol\":382:403  leader_ != address(0) */\n  0xffffffffffffffffffffffffffffffffffffffff\n  and\n  sub\n    /* \"contracts/Demo1.sol\":374:432  require(leader_ != address(0),unicode\"领导地址错误\") */\n  tag_6\n  jumpi\n  mload(0x40)\n  0x08c379a000000000000000000000000000000000000000000000000000000000\n  dup2\n  mstore\n  0x04\n  add\n  tag_7\n  swap1\n  tag_8\n  jump\t// in\ntag_7:\n  mload(0x40)\n  dup1\n  swap2\n  sub\n  swap1\n  revert\ntag_6:\n    /* \"contracts/Demo1.sol\":452:459  leader_ */\n  dup1\n    /* \"contracts/Demo1.sol\":443:459  leader = leader_ */\n  0xffffffffffffffffffffffffffffffffffffffff\n  and\n  0x80\n  dup2\n  0xffffffffffffffffffffffffffffffffffffffff\n  and\n  dup2\n  mstore\n  pop\n  pop\n    /* \"contracts/Demo1.sol\":335:467  constructor(address leader_){... */\n  pop\n    /* \"contracts/Demo1.sol\":59:3005  contract Demo{... */\n  jump(tag_9)\n    /* \"#utility.yul\":88:205   */\ntag_11:\n    /* \"#utility.yul\":197:198   */\n  0x00\n    /* \"#utility.yul\":194:195   */\n  dup1\n    /* \"#utility.yul\":187:199   */\n  revert\n    /* \"#utility.yul\":334:460   */\ntag_13:\n    /* \"#utility.yul\":371:378   */\n  0x00\n    /* \"#utility.yul\":411:453   */\n  0xffffffffffffffffffffffffffffffffffffffff\n    /* \"#utility.yul\":404:409   */\n  dup3\n    /* \"#utility.yul\":400:454   */\n  and\n    /* \"#utility.yul\":389:454   */\n  swap1\n  pop\n    /* \"#utility.yul\":334:460   */\n  swap2\n  swap1\n  pop\n  jump\t// out\n    /* \"#utility.yul\":466:562   */\ntag_14:\n    /* \"#utility.yul\":503:510   */\n  0x00\n    /* \"#utility.yul\":532:556   */\n  tag_26\n    /* \"#utility.yul\":550:555   */\n  dup3\n    /* \"#utility.yul\":532:556   */\n  tag_13\n  jump\t// in\ntag_26:\n    /* \"#utility.yul\":521:556   */\n  swap1\n  pop\n    /* \"#utility.yul\":466:562   */\n  swap2\n  swap1\n  pop\n  jump\t// out\n    /* \"#utility.yul\":568:690   */\ntag_15:\n    /* \"#utility.yul\":641:665   */\n  tag_28\n    /* \"#utility.yul\":659:664   */\n  dup2\n    /* \"#utility.yul\":641:665   */\n  tag_14\n  jump\t// in\ntag_28:\n    /* \"#utility.yul\":634:639   */\n  dup2\n    /* \"#utility.yul\":631:666   */\n  eq\n    /* \"#utility.yul\":621:684   */\n  tag_29\n  jumpi\n    /* \"#utility.yul\":680:681   */\n  0x00\n    /* \"#utility.yul\":677:678   */\n  dup1\n    /* \"#utility.yul\":670:682   */\n  revert\n    /* \"#utility.yul\":621:684   */\ntag_29:\n    /* \"#utility.yul\":568:690   */\n  pop\n  jump\t// out\n    /* \"#utility.yul\":696:839   */\ntag_16:\n    /* \"#utility.yul\":753:758   */\n  0x00\n    /* \"#utility.yul\":784:790   */\n  dup2\n    /* \"#utility.yul\":778:791   */\n  mload\n    /* \"#utility.yul\":769:791   */\n  swap1\n  pop\n    /* \"#utility.yul\":800:833   */\n  tag_31\n    /* \"#utility.yul\":827:832   */\n  dup2\n    /* \"#utility.yul\":800:833   */\n  tag_15\n  jump\t// in\ntag_31:\n    /* \"#utility.yul\":696:839   */\n  swap3\n  swap2\n  pop\n  pop\n  jump\t// out\n    /* \"#utility.yul\":845:1196   */\ntag_3:\n    /* \"#utility.yul\":915:921   */\n  0x00\n    /* \"#utility.yul\":964:966   */\n  0x20\n    /* \"#utility.yul\":952:961   */\n  dup3\n    /* \"#utility.yul\":943:950   */\n  dup5\n    /* \"#utility.yul\":939:962   */\n  sub\n    /* \"#utility.yul\":935:967   */\n  slt\n    /* \"#utility.yul\":932:1051   */\n  iszero\n  tag_33\n  jumpi\n    /* \"#utility.yul\":970:1049   */\n  tag_34\n  tag_11\n  jump\t// in\ntag_34:\n    /* \"#utility.yul\":932:1051   */\ntag_33:\n    /* \"#utility.yul\":1090:1091   */\n  0x00\n    /* \"#utility.yul\":1115:1179   */\n  tag_35\n    /* \"#utility.yul\":1171:1178   */\n  dup5\n    /* \"#utility.yul\":1162:1168   */\n  dup3\n    /* \"#utility.yul\":1151:1160   */\n  dup6\n    /* \"#utility.yul\":1147:1169   */\n  add\n    /* \"#utility.yul\":1115:1179   */\n  tag_16\n  jump\t// in\ntag_35:\n    /* \"#utility.yul\":1105:1179   */\n  swap2\n  pop\n    /* \"#utility.yul\":1061:1189   */\n  pop\n    /* \"#utility.yul\":845:1196   */\n  swap3\n  swap2\n  pop\n  pop\n  jump\t// out\n    /* \"#utility.yul\":1202:1371   */\ntag_17:\n    /* \"#utility.yul\":1286:1297   */\n  0x00\n    /* \"#utility.yul\":1320:1326   */\n  dup3\n    /* \"#utility.yul\":1315:1318   */\n  dup3\n    /* \"#utility.yul\":1308:1327   */\n  mstore\n    /* \"#utility.yul\":1360:1364   */\n  0x20\n    /* \"#utility.yul\":1355:1358   */\n  dup3\n    /* \"#utility.yul\":1351:1365   */\n  add\n    /* \"#utility.yul\":1336:1365   */\n  swap1\n  pop\n    /* \"#utility.yul\":1202:1371   */\n  swap3\n  swap2\n  pop\n  pop\n  jump\t// out\n    /* \"#utility.yul\":1377:1591   */\ntag_18:\n    /* \"#utility.yul\":1517:1583   */\n  0xe9a286e5afbce59cb0e59d80e99499e8afaf0000000000000000000000000000\n    /* \"#utility.yul\":1513:1514   */\n  0x00\n    /* \"#utility.yul\":1505:1511   */\n  dup3\n    /* \"#utility.yul\":1501:1515   */\n  add\n    /* \"#utility.yul\":1494:1584   */\n  mstore\n    /* \"#utility.yul\":1377:1591   */\n  pop\n  jump\t// out\n    /* \"#utility.yul\":1597:1963   */\ntag_19:\n    /* \"#utility.yul\":1739:1742   */\n  0x00\n    /* \"#utility.yul\":1760:1827   */\n  tag_39\n    /* \"#utility.yul\":1824:1826   */\n  0x12\n    /* \"#utility.yul\":1819:1822   */\n  dup4\n    /* \"#utility.yul\":1760:1827   */\n  tag_17\n  jump\t// in\ntag_39:\n    /* \"#utility.yul\":1753:1827   */\n  swap2\n  pop\n    /* \"#utility.yul\":1836:1929   */\n  tag_40\n    /* \"#utility.yul\":1925:1928   */\n  dup3\n    /* \"#utility.yul\":1836:1929   */\n  tag_18\n  jump\t// in\ntag_40:\n    /* \"#utility.yul\":1954:1956   */\n  0x20\n    /* \"#utility.yul\":1949:1952   */\n  dup3\n    /* \"#utility.yul\":1945:1957   */\n  add\n    /* \"#utility.yul\":1938:1957   */\n  swap1\n  pop\n    /* \"#utility.yul\":1597:1963   */\n  swap2\n  swap1\n  pop\n  jump\t// out\n    /* \"#utility.yul\":1969:2388   */\ntag_8:\n    /* \"#utility.yul\":2135:2139   */\n  0x00\n    /* \"#utility.yul\":2173:2175   */\n  0x20\n    /* \"#utility.yul\":2162:2171   */\n  dup3\n    /* \"#utility.yul\":2158:2176   */\n  add\n    /* \"#utility.yul\":2150:2176   */\n  swap1\n  pop\n    /* \"#utility.yul\":2222:2231   */\n  dup2\n    /* \"#utility.yul\":2216:2220   */\n  dup2\n    /* \"#utility.yul\":2212:2232   */\n  sub\n    /* \"#utility.yul\":2208:2209   */\n  0x00\n    /* \"#utility.yul\":2197:2206   */\n  dup4\n    /* \"#utility.yul\":2193:2210   */\n  add\n    /* \"#utility.yul\":2186:2233   */\n  mstore\n    /* \"#utility.yul\":2250:2381   */\n  tag_42\n    /* \"#utility.yul\":2376:2380   */\n  dup2\n    /* \"#utility.yul\":2250:2381   */\n  tag_19\n  jump\t// in\ntag_42:\n    /* \"#utility.yul\":2242:2381   */\n  swap1\n  pop\n    /* \"#utility.yul\":1969:2388   */\n  swap2\n  swap1\n  pop\n  jump\t// out\n    /* \"contracts/Demo1.sol\":59:3005  contract Demo{... */\ntag_9:\n  mload(0x80)\n  codecopy(0x00, dataOffset(sub_0), dataSize(sub_0))\n  0x00\n  assignImmutable(\"0x2a80e1ef1d7842f27f2e6be0972bb708b9a135c38860dbe73c27c3486c34f4de\")\n  return(0x00, dataSize(sub_0))\nstop\n\nsub_0: assembly {\n        /* \"contracts/Demo1.sol\":59:3005  contract Demo{... */\n      mstore(0x40, 0x80)\n      jumpi(tag_1, lt(calldatasize, 0x04))\n      shr(0xe0, calldataload(0x00))\n      dup1\n      0x2c49549b\n      gt\n      tag_10\n      jumpi\n      dup1\n      0x2c49549b\n      eq\n      tag_6\n      jumpi\n      dup1\n      0x40eedabb\n      eq\n      tag_7\n      jumpi\n      dup1\n      0xa777d0dc\n      eq\n      tag_8\n      jumpi\n      dup1\n      0xe25fe175\n      eq\n      tag_9\n      jumpi\n      jump(tag_2)\n    tag_10:\n      dup1\n      0x12c397ef\n      eq\n      tag_3\n      jumpi\n      dup1\n      0x20f6adbb\n      eq\n      tag_4\n      jumpi\n      dup1\n      0x2b68b9c6\n      eq\n      tag_5\n      jumpi\n      jump(tag_2)\n    tag_1:\n      jumpi(tag_2, calldatasize)\n        /* \"contracts/Demo1.sol\":2955:2993  Log(\"receive\",msg.sender,msg.value,\"\") */\n      0xf7f75251dee7d7fc22deac3247729ebe7c86541f35930bf10c2a4207479a3b6c\n        /* \"contracts/Demo1.sol\":2969:2979  msg.sender */\n      caller\n        /* \"contracts/Demo1.sol\":2980:2989  msg.value */\n      callvalue\n        /* \"contracts/Demo1.sol\":2955:2993  Log(\"receive\",msg.sender,msg.value,\"\") */\n      mload(0x40)\n      tag_13\n      swap3\n      swap2\n      swap1\n      tag_14\n      jump\t// in\n    tag_13:\n      mload(0x40)\n      dup1\n      swap2\n      sub\n      swap1\n      log1\n        /* \"contracts/Demo1.sol\":59:3005  contract Demo{... */\n      stop\n    tag_2:\n        /* \"contracts/Demo1.sol\":2852:2896  Log(\"receive\",msg.sender,msg.value,msg.data) */\n      0xf7f75251dee7d7fc22deac3247729ebe7c86541f35930bf10c2a4207479a3b6c\n        /* \"contracts/Demo1.sol\":2866:2876  msg.sender */\n      caller\n        /* \"contracts/Demo1.sol\":2877:2886  msg.value */\n      callvalue\n        /* \"contracts/Demo1.sol\":2887:2895  msg.data */\n      0x00\n      calldatasize\n        /* \"contracts/Demo1.sol\":2852:2896  Log(\"receive\",msg.sender,msg.value,msg.data) */\n      mload(0x40)\n      tag_17\n      swap5\n      swap4\n      swap3\n      swap2\n      swap1\n      tag_18\n      jump\t// in\n    tag_17:\n      mload(0x40)\n      dup1\n      swap2\n      sub\n      swap1\n      log1\n        /* \"contracts/Demo1.sol\":59:3005  contract Demo{... */\n      stop\n        /* \"contracts/Demo1.sol\":1119:1449  function helloRsp(string calldata content) public NotLeader returns(bool){... */\n    tag_3:\n      callvalue\n      dup1\n      iszero\n      tag_19\n      jumpi\n      0x00\n      dup1\n      revert\n    tag_19:\n      pop\n      tag_20\n      0x04\n      dup1\n      calldatasize\n      sub\n      dup2\n      add\n      swap1\n      tag_21\n      swap2\n      swap1\n      tag_22\n      jump\t// in\n    tag_21:\n      tag_23\n      jump\t// in\n    tag_20:\n      mload(0x40)\n      tag_24\n      swap2\n      swap1\n      tag_25\n      jump\t// in\n    tag_24:\n      mload(0x40)\n      dup1\n      swap2\n      sub\n      swap1\n      return\n        /* \"contracts/Demo1.sol\":1987:2306  function confortRep(string calldata content) public NotLeader  returns(bool){... */\n    tag_4:\n      callvalue\n      dup1\n      iszero\n      tag_26\n      jumpi\n      0x00\n      dup1\n      revert\n    tag_26:\n      pop\n      tag_27\n      0x04\n      dup1\n      calldatasize\n      sub\n      dup2\n      add\n      swap1\n      tag_28\n      swap2\n      swap1\n      tag_22\n      jump\t// in\n    tag_28:\n      tag_29\n      jump\t// in\n    tag_27:\n      mload(0x40)\n      tag_30\n      swap2\n      swap1\n      tag_25\n      jump\t// in\n    tag_30:\n      mload(0x40)\n      dup1\n      swap2\n      sub\n      swap1\n      return\n        /* \"contracts/Demo1.sol\":2314:2516  function destruct() public OnlyLeader{... */\n    tag_5:\n      callvalue\n      dup1\n      iszero\n      tag_31\n      jumpi\n      0x00\n      dup1\n      revert\n    tag_31:\n      pop\n      tag_32\n      tag_33\n      jump\t// in\n    tag_32:\n      stop\n        /* \"contracts/Demo1.sol\":1457:1979  function confort(string calldata content) public OnlyLeader payable returns(bool){... */\n    tag_6:\n      tag_34\n      0x04\n      dup1\n      calldatasize\n      sub\n      dup2\n      add\n      swap1\n      tag_35\n      swap2\n      swap1\n      tag_22\n      jump\t// in\n    tag_35:\n      tag_36\n      jump\t// in\n    tag_34:\n      mload(0x40)\n      tag_37\n      swap2\n      swap1\n      tag_25\n      jump\t// in\n    tag_37:\n      mload(0x40)\n      dup1\n      swap2\n      sub\n      swap1\n      return\n        /* \"contracts/Demo1.sol\":81:112  address public immutable leader */\n    tag_7:\n      callvalue\n      dup1\n      iszero\n      tag_38\n      jumpi\n      0x00\n      dup1\n      revert\n    tag_38:\n      pop\n      tag_39\n      tag_40\n      jump\t// in\n    tag_39:\n      mload(0x40)\n      tag_41\n      swap2\n      swap1\n      tag_42\n      jump\t// in\n    tag_41:\n      mload(0x40)\n      dup1\n      swap2\n      sub\n      swap1\n      return\n        /* \"contracts/Demo1.sol\":776:1111  function hello(string calldata content) public  OnlyLeader returns(bool){... */\n    tag_8:\n      callvalue\n      dup1\n      iszero\n      tag_43\n      jumpi\n      0x00\n      dup1\n      revert\n    tag_43:\n      pop\n      tag_44\n      0x04\n      dup1\n      calldatasize\n      sub\n      dup2\n      add\n      swap1\n      tag_45\n      swap2\n      swap1\n      tag_22\n      jump\t// in\n    tag_45:\n      tag_46\n      jump\t// in\n    tag_44:\n      mload(0x40)\n      tag_47\n      swap2\n      swap1\n      tag_25\n      jump\t// in\n    tag_47:\n      mload(0x40)\n      dup1\n      swap2\n      sub\n      swap1\n      return\n        /* \"contracts/Demo1.sol\":119:137  uint8  public step */\n    tag_9:\n      callvalue\n      dup1\n      iszero\n      tag_48\n      jumpi\n      0x00\n      dup1\n      revert\n    tag_48:\n      pop\n      tag_49\n      tag_50\n      jump\t// in\n    tag_49:\n      mload(0x40)\n      tag_51\n      swap2\n      swap1\n      tag_52\n      jump\t// in\n    tag_51:\n      mload(0x40)\n      dup1\n      swap2\n      sub\n      swap1\n      return\n        /* \"contracts/Demo1.sol\":1119:1449  function helloRsp(string calldata content) public NotLeader returns(bool){... */\n    tag_23:\n        /* \"contracts/Demo1.sol\":1187:1191  bool */\n      0x00\n        /* \"contracts/Demo1.sol\":631:637  leader */\n      immutable(\"0x2a80e1ef1d7842f27f2e6be0972bb708b9a135c38860dbe73c27c3486c34f4de\")\n        /* \"contracts/Demo1.sol\":617:637  msg.sender != leader */\n      0xffffffffffffffffffffffffffffffffffffffff\n      and\n        /* \"contracts/Demo1.sol\":617:627  msg.sender */\n      caller\n        /* \"contracts/Demo1.sol\":617:637  msg.sender != leader */\n      0xffffffffffffffffffffffffffffffffffffffff\n      and\n      sub\n        /* \"contracts/Demo1.sol\":609:652  require(msg.sender != leader,\"cant leader\") */\n      tag_54\n      jumpi\n      mload(0x40)\n      0x08c379a000000000000000000000000000000000000000000000000000000000\n      dup2\n      mstore\n      0x04\n      add\n      tag_55\n      swap1\n      tag_56\n      jump\t// in\n    tag_55:\n      mload(0x40)\n      dup1\n      swap2\n      sub\n      swap1\n      revert\n    tag_54:\n        /* \"contracts/Demo1.sol\":1214:1215  1 */\n      0x01\n        /* \"contracts/Demo1.sol\":1206:1210  step */\n      0x00\n      dup1\n      sload\n      swap1\n      0x0100\n      exp\n      swap1\n      div\n      0xff\n      and\n        /* \"contracts/Demo1.sol\":1206:1215  step != 1 */\n      0xff\n      and\n      eq\n        /* \"contracts/Demo1.sol\":1203:1256  if(step != 1){... */\n      tag_58\n      jumpi\n        /* \"contracts/Demo1.sol\":1237:1243  UNKNOW */\n      mload(0x40)\n      dup1\n      0x60\n      add\n      0x40\n      mstore\n      dup1\n      0x24\n      dup2\n      mstore\n      0x20\n      add\n      data_4300302043d265546f688f77616bd17aac2a8da70e24acb13e662a44edf5afd0\n      0x24\n      swap2\n      codecopy\n        /* \"contracts/Demo1.sol\":1230:1244  revert(UNKNOW) */\n      mload(0x40)\n      0x08c379a000000000000000000000000000000000000000000000000000000000\n      dup2\n      mstore\n      0x04\n      add\n      tag_59\n      swap2\n      swap1\n      tag_60\n      jump\t// in\n    tag_59:\n      mload(0x40)\n      dup1\n      swap2\n      sub\n      swap1\n      revert\n        /* \"contracts/Demo1.sol\":1203:1256  if(step != 1){... */\n    tag_58:\n        /* \"contracts/Demo1.sol\":1272:1306  review(content,unicode\"领导好\") */\n      tag_61\n        /* \"contracts/Demo1.sol\":1279:1286  content */\n      dup4\n      dup4\n        /* \"contracts/Demo1.sol\":1272:1306  review(content,unicode\"领导好\") */\n      mload(0x40)\n      dup1\n      0x40\n      add\n      0x40\n      mstore\n      dup1\n      0x09\n      dup2\n      mstore\n      0x20\n      add\n      0xe9a286e5afbce5a5bd0000000000000000000000000000000000000000000000\n      dup2\n      mstore\n      pop\n        /* \"contracts/Demo1.sol\":1272:1278  review */\n      tag_62\n        /* \"contracts/Demo1.sol\":1272:1306  review(content,unicode\"领导好\") */\n      jump\t// in\n    tag_61:\n        /* \"contracts/Demo1.sol\":1268:1376  if(!review(content,unicode\"领导好\")){... */\n      tag_63\n      jumpi\n        /* \"contracts/Demo1.sol\":1328:1364  MyError(unicode\"必须说领导好\") */\n      mload(0x40)\n      0x8b3d2d4300000000000000000000000000000000000000000000000000000000\n      dup2\n      mstore\n      0x04\n      add\n      tag_64\n      swap1\n      tag_65\n      jump\t// in\n    tag_64:\n      mload(0x40)\n      dup1\n      swap2\n      sub\n      swap1\n      revert\n        /* \"contracts/Demo1.sol\":1268:1376  if(!review(content,unicode\"领导好\")){... */\n    tag_63:\n        /* \"contracts/Demo1.sol\":1388:1392  step */\n      0x00\n      dup1\n        /* \"contracts/Demo1.sol\":1386:1392  ++step */\n      dup2\n      dup2\n      swap1\n      sload\n      swap1\n      0x0100\n      exp\n      swap1\n      div\n      0xff\n      and\n      tag_66\n      swap1\n      tag_67\n      jump\t// in\n    tag_66:\n      swap2\n      swap1\n      0x0100\n      exp\n      dup2\n      sload\n      dup2\n      0xff\n      mul\n      not\n      and\n      swap1\n      dup4\n      0xff\n      and\n      mul\n      or\n      swap1\n      sstore\n      pop\n        /* \"contracts/Demo1.sol\":1408:1418  Step(step) */\n      0xf39143d48d073ee18f9a08fcabdbd340be0b2a698e3e45fc3b4318251131b4fc\n        /* \"contracts/Demo1.sol\":1413:1417  step */\n      0x00\n      dup1\n      sload\n      swap1\n      0x0100\n      exp\n      swap1\n      div\n      0xff\n      and\n        /* \"contracts/Demo1.sol\":1408:1418  Step(step) */\n      mload(0x40)\n      tag_68\n      swap2\n      swap1\n      tag_52\n      jump\t// in\n    tag_68:\n      mload(0x40)\n      dup1\n      swap2\n      sub\n      swap1\n      log1\n        /* \"contracts/Demo1.sol\":1436:1440  true */\n      0x01\n        /* \"contracts/Demo1.sol\":1429:1440  return true */\n      swap1\n      pop\n        /* \"contracts/Demo1.sol\":1119:1449  function helloRsp(string calldata content) public NotLeader returns(bool){... */\n      swap3\n      swap2\n      pop\n      pop\n      jump\t// out\n        /* \"contracts/Demo1.sol\":1987:2306  function confortRep(string calldata content) public NotLeader  returns(bool){... */\n    tag_29:\n        /* \"contracts/Demo1.sol\":2058:2062  bool */\n      0x00\n        /* \"contracts/Demo1.sol\":631:637  leader */\n      immutable(\"0x2a80e1ef1d7842f27f2e6be0972bb708b9a135c38860dbe73c27c3486c34f4de\")\n        /* \"contracts/Demo1.sol\":617:637  msg.sender != leader */\n      0xffffffffffffffffffffffffffffffffffffffff\n      and\n        /* \"contracts/Demo1.sol\":617:627  msg.sender */\n      caller\n        /* \"contracts/Demo1.sol\":617:637  msg.sender != leader */\n      0xffffffffffffffffffffffffffffffffffffffff\n      and\n      sub\n        /* \"contracts/Demo1.sol\":609:652  require(msg.sender != leader,\"cant leader\") */\n      tag_70\n      jumpi\n      mload(0x40)\n      0x08c379a000000000000000000000000000000000000000000000000000000000\n      dup2\n      mstore\n      0x04\n      add\n      tag_71\n      swap1\n      tag_56\n      jump\t// in\n    tag_71:\n      mload(0x40)\n      dup1\n      swap2\n      sub\n      swap1\n      revert\n    tag_70:\n        /* \"contracts/Demo1.sol\":2085:2086  3 */\n      0x03\n        /* \"contracts/Demo1.sol\":2077:2081  step */\n      0x00\n      dup1\n      sload\n      swap1\n      0x0100\n      exp\n      swap1\n      div\n      0xff\n      and\n        /* \"contracts/Demo1.sol\":2077:2086  step != 3 */\n      0xff\n      and\n      eq\n        /* \"contracts/Demo1.sol\":2074:2127  if(step != 3){... */\n      tag_73\n      jumpi\n        /* \"contracts/Demo1.sol\":2108:2114  UNKNOW */\n      mload(0x40)\n      dup1\n      0x60\n      add\n      0x40\n      mstore\n      dup1\n      0x24\n      dup2\n      mstore\n      0x20\n      add\n      data_4300302043d265546f688f77616bd17aac2a8da70e24acb13e662a44edf5afd0\n      0x24\n      swap2\n      codecopy\n        /* \"contracts/Demo1.sol\":2101:2115  revert(UNKNOW) */\n      mload(0x40)\n      0x08c379a000000000000000000000000000000000000000000000000000000000\n      dup2\n      mstore\n      0x04\n      add\n      tag_74\n      swap2\n      swap1\n      tag_60\n      jump\t// in\n    tag_74:\n      mload(0x40)\n      dup1\n      swap2\n      sub\n      swap1\n      revert\n        /* \"contracts/Demo1.sol\":2074:2127  if(step != 3){... */\n    tag_73:\n        /* \"contracts/Demo1.sol\":2143:2183  review(content,unicode\"为人名服务\") */\n      tag_75\n        /* \"contracts/Demo1.sol\":2150:2157  content */\n      dup4\n      dup4\n        /* \"contracts/Demo1.sol\":2143:2183  review(content,unicode\"为人名服务\") */\n      mload(0x40)\n      dup1\n      0x40\n      add\n      0x40\n      mstore\n      dup1\n      0x0f\n      dup2\n      mstore\n      0x20\n      add\n      0xe4b8bae4babae5908de69c8de58aa10000000000000000000000000000000000\n      dup2\n      mstore\n      pop\n        /* \"contracts/Demo1.sol\":2143:2149  review */\n      tag_62\n        /* \"contracts/Demo1.sol\":2143:2183  review(content,unicode\"为人名服务\") */\n      jump\t// in\n    tag_75:\n        /* \"contracts/Demo1.sol\":2139:2259  if(!review(content,unicode\"为人名服务\")){... */\n      tag_76\n      jumpi\n        /* \"contracts/Demo1.sol\":2205:2247  MyError(unicode\"必须说为人名服务\") */\n      mload(0x40)\n      0x8b3d2d4300000000000000000000000000000000000000000000000000000000\n      dup2\n      mstore\n      0x04\n      add\n      tag_77\n      swap1\n      tag_78\n      jump\t// in\n    tag_77:\n      mload(0x40)\n      dup1\n      swap2\n      sub\n      swap1\n      revert\n        /* \"contracts/Demo1.sol\":2139:2259  if(!review(content,unicode\"为人名服务\")){... */\n    tag_76:\n        /* \"contracts/Demo1.sol\":2271:2275  step */\n      0x00\n      dup1\n        /* \"contracts/Demo1.sol\":2269:2275  ++step */\n      dup2\n      dup2\n      swap1\n      sload\n      swap1\n      0x0100\n      exp\n      swap1\n      div\n      0xff\n      and\n      tag_79\n      swap1\n      tag_67\n      jump\t// in\n    tag_79:\n      swap2\n      swap1\n      0x0100\n      exp\n      dup2\n      sload\n      dup2\n      0xff\n      mul\n      not\n      and\n      swap1\n      dup4\n      0xff\n      and\n      mul\n      or\n      swap1\n      sstore\n      pop\n        /* \"contracts/Demo1.sol\":2293:2297  true */\n      0x01\n        /* \"contracts/Demo1.sol\":2286:2297  return true */\n      swap1\n      pop\n        /* \"contracts/Demo1.sol\":1987:2306  function confortRep(string calldata content) public NotLeader  returns(bool){... */\n      swap3\n      swap2\n      pop\n      pop\n      jump\t// out\n        /* \"contracts/Demo1.sol\":2314:2516  function destruct() public OnlyLeader{... */\n    tag_33:\n        /* \"contracts/Demo1.sol\":529:535  leader */\n      immutable(\"0x2a80e1ef1d7842f27f2e6be0972bb708b9a135c38860dbe73c27c3486c34f4de\")\n        /* \"contracts/Demo1.sol\":515:535  msg.sender == leader */\n      0xffffffffffffffffffffffffffffffffffffffff\n      and\n        /* \"contracts/Demo1.sol\":515:525  msg.sender */\n      caller\n        /* \"contracts/Demo1.sol\":515:535  msg.sender == leader */\n      0xffffffffffffffffffffffffffffffffffffffff\n      and\n      eq\n        /* \"contracts/Demo1.sol\":507:550  require(msg.sender == leader,\"only leader\") */\n      tag_81\n      jumpi\n      mload(0x40)\n      0x08c379a000000000000000000000000000000000000000000000000000000000\n      dup2\n      mstore\n      0x04\n      add\n      tag_82\n      swap1\n      tag_83\n      jump\t// in\n    tag_82:\n      mload(0x40)\n      dup1\n      swap2\n      sub\n      swap1\n      revert\n    tag_81:\n        /* \"contracts/Demo1.sol\":2373:2374  4 */\n      0x04\n        /* \"contracts/Demo1.sol\":2365:2369  step */\n      0x00\n      dup1\n      sload\n      swap1\n      0x0100\n      exp\n      swap1\n      div\n      0xff\n      and\n        /* \"contracts/Demo1.sol\":2365:2374  step != 4 */\n      0xff\n      and\n      eq\n        /* \"contracts/Demo1.sol\":2362:2415  if(step != 4){... */\n      tag_85\n      jumpi\n        /* \"contracts/Demo1.sol\":2396:2402  UNKNOW */\n      mload(0x40)\n      dup1\n      0x60\n      add\n      0x40\n      mstore\n      dup1\n      0x24\n      dup2\n      mstore\n      0x20\n      add\n      data_4300302043d265546f688f77616bd17aac2a8da70e24acb13e662a44edf5afd0\n      0x24\n      swap2\n      codecopy\n        /* \"contracts/Demo1.sol\":2389:2403  revert(UNKNOW) */\n      mload(0x40)\n      0x08c379a000000000000000000000000000000000000000000000000000000000\n      dup2\n      mstore\n      0x04\n      add\n      tag_86\n      swap2\n      swap1\n      tag_60\n      jump\t// in\n    tag_86:\n      mload(0x40)\n      dup1\n      swap2\n      sub\n      swap1\n      revert\n        /* \"contracts/Demo1.sol\":2362:2415  if(step != 4){... */\n    tag_85:\n        /* \"contracts/Demo1.sol\":2447:2453  leader */\n      immutable(\"0x2a80e1ef1d7842f27f2e6be0972bb708b9a135c38860dbe73c27c3486c34f4de\")\n        /* \"contracts/Demo1.sol\":2425:2455  selfdestruct(payable (leader)) */\n      0xffffffffffffffffffffffffffffffffffffffff\n      and\n      selfdestruct\n        /* \"contracts/Demo1.sol\":1457:1979  function confort(string calldata content) public OnlyLeader payable returns(bool){... */\n    tag_36:\n        /* \"contracts/Demo1.sol\":1533:1537  bool */\n      0x00\n        /* \"contracts/Demo1.sol\":529:535  leader */\n      immutable(\"0x2a80e1ef1d7842f27f2e6be0972bb708b9a135c38860dbe73c27c3486c34f4de\")\n        /* \"contracts/Demo1.sol\":515:535  msg.sender == leader */\n      0xffffffffffffffffffffffffffffffffffffffff\n      and\n        /* \"contracts/Demo1.sol\":515:525  msg.sender */\n      caller\n        /* \"contracts/Demo1.sol\":515:535  msg.sender == leader */\n      0xffffffffffffffffffffffffffffffffffffffff\n      and\n      eq\n        /* \"contracts/Demo1.sol\":507:550  require(msg.sender == leader,\"only leader\") */\n      tag_90\n      jumpi\n      mload(0x40)\n      0x08c379a000000000000000000000000000000000000000000000000000000000\n      dup2\n      mstore\n      0x04\n      add\n      tag_91\n      swap1\n      tag_83\n      jump\t// in\n    tag_91:\n      mload(0x40)\n      dup1\n      swap2\n      sub\n      swap1\n      revert\n    tag_90:\n        /* \"contracts/Demo1.sol\":1560:1561  2 */\n      0x02\n        /* \"contracts/Demo1.sol\":1552:1556  step */\n      0x00\n      dup1\n      sload\n      swap1\n      0x0100\n      exp\n      swap1\n      div\n      0xff\n      and\n        /* \"contracts/Demo1.sol\":1552:1561  step != 2 */\n      0xff\n      and\n      eq\n        /* \"contracts/Demo1.sol\":1549:1602  if(step != 2){... */\n      tag_93\n      jumpi\n        /* \"contracts/Demo1.sol\":1583:1589  UNKNOW */\n      mload(0x40)\n      dup1\n      0x60\n      add\n      0x40\n      mstore\n      dup1\n      0x24\n      dup2\n      mstore\n      0x20\n      add\n      data_4300302043d265546f688f77616bd17aac2a8da70e24acb13e662a44edf5afd0\n      0x24\n      swap2\n      codecopy\n        /* \"contracts/Demo1.sol\":1576:1590  revert(UNKNOW) */\n      mload(0x40)\n      0x08c379a000000000000000000000000000000000000000000000000000000000\n      dup2\n      mstore\n      0x04\n      add\n      tag_94\n      swap2\n      swap1\n      tag_60\n      jump\t// in\n    tag_94:\n      mload(0x40)\n      dup1\n      swap2\n      sub\n      swap1\n      revert\n        /* \"contracts/Demo1.sol\":1549:1602  if(step != 2){... */\n    tag_93:\n        /* \"contracts/Demo1.sol\":1618:1661  review(content,unicode\"同志们辛苦了\") */\n      tag_95\n        /* \"contracts/Demo1.sol\":1625:1632  content */\n      dup4\n      dup4\n        /* \"contracts/Demo1.sol\":1618:1661  review(content,unicode\"同志们辛苦了\") */\n      mload(0x40)\n      dup1\n      0x40\n      add\n      0x40\n      mstore\n      dup1\n      0x12\n      dup2\n      mstore\n      0x20\n      add\n      0xe5908ce5bf97e4bbace8be9be88ba6e4ba860000000000000000000000000000\n      dup2\n      mstore\n      pop\n        /* \"contracts/Demo1.sol\":1618:1624  review */\n      tag_62\n        /* \"contracts/Demo1.sol\":1618:1661  review(content,unicode\"同志们辛苦了\") */\n      jump\t// in\n    tag_95:\n        /* \"contracts/Demo1.sol\":1614:1740  if(!review(content,unicode\"同志们辛苦了\")){... */\n      tag_96\n      jumpi\n        /* \"contracts/Demo1.sol\":1683:1728  MyError(unicode\"必须说同志们辛苦了\") */\n      mload(0x40)\n      0x8b3d2d4300000000000000000000000000000000000000000000000000000000\n      dup2\n      mstore\n      0x04\n      add\n      tag_97\n      swap1\n      tag_98\n      jump\t// in\n    tag_97:\n      mload(0x40)\n      dup1\n      swap2\n      sub\n      swap1\n      revert\n        /* \"contracts/Demo1.sol\":1614:1740  if(!review(content,unicode\"同志们辛苦了\")){... */\n    tag_96:\n        /* \"contracts/Demo1.sol\":1767:1774  1 ether */\n      0x0de0b6b3a7640000\n        /* \"contracts/Demo1.sol\":1755:1764  msg.value */\n      callvalue\n        /* \"contracts/Demo1.sol\":1755:1774  msg.value < 1 ether */\n      lt\n        /* \"contracts/Demo1.sol\":1752:1844  if(msg.value < 1 ether){... */\n      iszero\n      tag_99\n      jumpi\n        /* \"contracts/Demo1.sol\":1789:1831  revert(unicode\"给钱不能少于1 ether\") */\n      mload(0x40)\n      0x08c379a000000000000000000000000000000000000000000000000000000000\n      dup2\n      mstore\n      0x04\n      add\n      tag_100\n      swap1\n      tag_101\n      jump\t// in\n    tag_100:\n      mload(0x40)\n      dup1\n      swap2\n      sub\n      swap1\n      revert\n        /* \"contracts/Demo1.sol\":1752:1844  if(msg.value < 1 ether){... */\n    tag_99:\n        /* \"contracts/Demo1.sol\":1858:1862  step */\n      0x00\n      dup1\n        /* \"contracts/Demo1.sol\":1856:1862  ++step */\n      dup2\n      dup2\n      swap1\n      sload\n      swap1\n      0x0100\n      exp\n      swap1\n      div\n      0xff\n      and\n      tag_102\n      swap1\n      tag_67\n      jump\t// in\n    tag_102:\n      swap2\n      swap1\n      0x0100\n      exp\n      dup2\n      sload\n      dup2\n      0xff\n      mul\n      not\n      and\n      swap1\n      dup4\n      0xff\n      and\n      mul\n      or\n      swap1\n      sstore\n      pop\n        /* \"contracts/Demo1.sol\":1878:1888  Step(step) */\n      0xf39143d48d073ee18f9a08fcabdbd340be0b2a698e3e45fc3b4318251131b4fc\n        /* \"contracts/Demo1.sol\":1883:1887  step */\n      0x00\n      dup1\n      sload\n      swap1\n      0x0100\n      exp\n      swap1\n      div\n      0xff\n      and\n        /* \"contracts/Demo1.sol\":1878:1888  Step(step) */\n      mload(0x40)\n      tag_103\n      swap2\n      swap1\n      tag_52\n      jump\t// in\n    tag_103:\n      mload(0x40)\n      dup1\n      swap2\n      sub\n      swap1\n      log1\n        /* \"contracts/Demo1.sol\":1904:1948  Log(\"confort\",msg.sender,msg.value,msg.data) */\n      0xf7f75251dee7d7fc22deac3247729ebe7c86541f35930bf10c2a4207479a3b6c\n        /* \"contracts/Demo1.sol\":1918:1928  msg.sender */\n      caller\n        /* \"contracts/Demo1.sol\":1929:1938  msg.value */\n      callvalue\n        /* \"contracts/Demo1.sol\":1939:1947  msg.data */\n      0x00\n      calldatasize\n        /* \"contracts/Demo1.sol\":1904:1948  Log(\"confort\",msg.sender,msg.value,msg.data) */\n      mload(0x40)\n      tag_104\n      swap5\n      swap4\n      swap3\n      swap2\n      swap1\n      tag_105\n      jump\t// in\n    tag_104:\n      mload(0x40)\n      dup1\n      swap2\n      sub\n      swap1\n      log1\n        /* \"contracts/Demo1.sol\":1966:1970  true */\n      0x01\n        /* \"contracts/Demo1.sol\":1959:1970  return true */\n      swap1\n      pop\n        /* \"contracts/Demo1.sol\":1457:1979  function confort(string calldata content) public OnlyLeader payable returns(bool){... */\n      swap3\n      swap2\n      pop\n      pop\n      jump\t// out\n        /* \"contracts/Demo1.sol\":81:112  address public immutable leader */\n    tag_40:\n      immutable(\"0x2a80e1ef1d7842f27f2e6be0972bb708b9a135c38860dbe73c27c3486c34f4de\")\n      dup2\n      jump\t// out\n        /* \"contracts/Demo1.sol\":776:1111  function hello(string calldata content) public  OnlyLeader returns(bool){... */\n    tag_46:\n        /* \"contracts/Demo1.sol\":843:847  bool */\n      0x00\n        /* \"contracts/Demo1.sol\":529:535  leader */\n      immutable(\"0x2a80e1ef1d7842f27f2e6be0972bb708b9a135c38860dbe73c27c3486c34f4de\")\n        /* \"contracts/Demo1.sol\":515:535  msg.sender == leader */\n      0xffffffffffffffffffffffffffffffffffffffff\n      and\n        /* \"contracts/Demo1.sol\":515:525  msg.sender */\n      caller\n        /* \"contracts/Demo1.sol\":515:535  msg.sender == leader */\n      0xffffffffffffffffffffffffffffffffffffffff\n      and\n      eq\n        /* \"contracts/Demo1.sol\":507:550  require(msg.sender == leader,\"only leader\") */\n      tag_107\n      jumpi\n      mload(0x40)\n      0x08c379a000000000000000000000000000000000000000000000000000000000\n      dup2\n      mstore\n      0x04\n      add\n      tag_108\n      swap1\n      tag_83\n      jump\t// in\n    tag_108:\n      mload(0x40)\n      dup1\n      swap2\n      sub\n      swap1\n      revert\n    tag_107:\n        /* \"contracts/Demo1.sol\":870:871  0 */\n      0x00\n        /* \"contracts/Demo1.sol\":862:866  step */\n      dup1\n      0x00\n      swap1\n      sload\n      swap1\n      0x0100\n      exp\n      swap1\n      div\n      0xff\n      and\n        /* \"contracts/Demo1.sol\":862:871  step != 0 */\n      0xff\n      and\n      eq\n        /* \"contracts/Demo1.sol\":859:912  if(step != 0){... */\n      tag_110\n      jumpi\n        /* \"contracts/Demo1.sol\":893:899  UNKNOW */\n      mload(0x40)\n      dup1\n      0x60\n      add\n      0x40\n      mstore\n      dup1\n      0x24\n      dup2\n      mstore\n      0x20\n      add\n      data_4300302043d265546f688f77616bd17aac2a8da70e24acb13e662a44edf5afd0\n      0x24\n      swap2\n      codecopy\n        /* \"contracts/Demo1.sol\":886:900  revert(UNKNOW) */\n      mload(0x40)\n      0x08c379a000000000000000000000000000000000000000000000000000000000\n      dup2\n      mstore\n      0x04\n      add\n      tag_111\n      swap2\n      swap1\n      tag_60\n      jump\t// in\n    tag_111:\n      mload(0x40)\n      dup1\n      swap2\n      sub\n      swap1\n      revert\n        /* \"contracts/Demo1.sol\":859:912  if(step != 0){... */\n    tag_110:\n        /* \"contracts/Demo1.sol\":928:965  review(content,unicode\"同志们好\") */\n      tag_112\n        /* \"contracts/Demo1.sol\":935:942  content */\n      dup4\n      dup4\n        /* \"contracts/Demo1.sol\":928:965  review(content,unicode\"同志们好\") */\n      mload(0x40)\n      dup1\n      0x40\n      add\n      0x40\n      mstore\n      dup1\n      0x0c\n      dup2\n      mstore\n      0x20\n      add\n      0xe5908ce5bf97e4bbace5a5bd0000000000000000000000000000000000000000\n      dup2\n      mstore\n      pop\n        /* \"contracts/Demo1.sol\":928:934  review */\n      tag_62\n        /* \"contracts/Demo1.sol\":928:965  review(content,unicode\"同志们好\") */\n      jump\t// in\n    tag_112:\n        /* \"contracts/Demo1.sol\":924:1038  if(!review(content,unicode\"同志们好\")){... */\n      tag_113\n      jumpi\n        /* \"contracts/Demo1.sol\":987:1026  MyError(unicode\"必须说同志们好\") */\n      mload(0x40)\n      0x8b3d2d4300000000000000000000000000000000000000000000000000000000\n      dup2\n      mstore\n      0x04\n      add\n      tag_114\n      swap1\n      tag_115\n      jump\t// in\n    tag_114:\n      mload(0x40)\n      dup1\n      swap2\n      sub\n      swap1\n      revert\n        /* \"contracts/Demo1.sol\":924:1038  if(!review(content,unicode\"同志们好\")){... */\n    tag_113:\n        /* \"contracts/Demo1.sol\":1050:1054  step */\n      0x00\n      dup1\n        /* \"contracts/Demo1.sol\":1048:1054  ++step */\n      dup2\n      dup2\n      swap1\n      sload\n      swap1\n      0x0100\n      exp\n      swap1\n      div\n      0xff\n      and\n      tag_116\n      swap1\n      tag_67\n      jump\t// in\n    tag_116:\n      swap2\n      swap1\n      0x0100\n      exp\n      dup2\n      sload\n      dup2\n      0xff\n      mul\n      not\n      and\n      swap1\n      dup4\n      0xff\n      and\n      mul\n      or\n      swap1\n      sstore\n      pop\n        /* \"contracts/Demo1.sol\":1070:1080  Step(step) */\n      0xf39143d48d073ee18f9a08fcabdbd340be0b2a698e3e45fc3b4318251131b4fc\n        /* \"contracts/Demo1.sol\":1075:1079  step */\n      0x00\n      dup1\n      sload\n      swap1\n      0x0100\n      exp\n      swap1\n      div\n      0xff\n      and\n        /* \"contracts/Demo1.sol\":1070:1080  Step(step) */\n      mload(0x40)\n      tag_117\n      swap2\n      swap1\n      tag_52\n      jump\t// in\n    tag_117:\n      mload(0x40)\n      dup1\n      swap2\n      sub\n      swap1\n      log1\n        /* \"contracts/Demo1.sol\":1098:1102  true */\n      0x01\n        /* \"contracts/Demo1.sol\":1091:1102  return true */\n      swap1\n      pop\n        /* \"contracts/Demo1.sol\":776:1111  function hello(string calldata content) public  OnlyLeader returns(bool){... */\n      swap3\n      swap2\n      pop\n      pop\n      jump\t// out\n        /* \"contracts/Demo1.sol\":119:137  uint8  public step */\n    tag_50:\n      0x00\n      dup1\n      sload\n      swap1\n      0x0100\n      exp\n      swap1\n      div\n      0xff\n      and\n      dup2\n      jump\t// out\n        /* \"contracts/Demo1.sol\":2534:2799  function review(string calldata content,string memory correctContent) internal pure returns(bool){... */\n    tag_62:\n        /* \"contracts/Demo1.sol\":2626:2630  bool */\n      0x00\n        /* \"contracts/Demo1.sol\":2713:2727  correctContent */\n      dup2\n        /* \"contracts/Demo1.sol\":2696:2728  abi.encodePacked(correctContent) */\n      add(0x20, mload(0x40))\n      tag_119\n      swap2\n      swap1\n      tag_120\n      jump\t// in\n    tag_119:\n      mload(0x40)\n      0x20\n      dup2\n      dup4\n      sub\n      sub\n      dup2\n      mstore\n      swap1\n      0x40\n      mstore\n        /* \"contracts/Demo1.sol\":2686:2729  keccak256(abi.encodePacked(correctContent)) */\n      dup1\n      mload\n      swap1\n      0x20\n      add\n      keccak256\n        /* \"contracts/Demo1.sol\":2673:2680  content */\n      dup5\n      dup5\n        /* \"contracts/Demo1.sol\":2656:2681  abi.encodePacked(content) */\n      add(0x20, mload(0x40))\n      tag_121\n      swap3\n      swap2\n      swap1\n      tag_122\n      jump\t// in\n    tag_121:\n      mload(0x40)\n      0x20\n      dup2\n      dup4\n      sub\n      sub\n      dup2\n      mstore\n      swap1\n      0x40\n      mstore\n        /* \"contracts/Demo1.sol\":2646:2682  keccak256(abi.encodePacked(content)) */\n      dup1\n      mload\n      swap1\n      0x20\n      add\n      keccak256\n        /* \"contracts/Demo1.sol\":2646:2729  keccak256(abi.encodePacked(content)) == keccak256(abi.encodePacked(correctContent)) */\n      sub\n        /* \"contracts/Demo1.sol\":2642:2769  if( keccak256(abi.encodePacked(content)) == keccak256(abi.encodePacked(correctContent)) ){... */\n      tag_123\n      jumpi\n        /* \"contracts/Demo1.sol\":2753:2757  true */\n      0x01\n        /* \"contracts/Demo1.sol\":2746:2757  return true */\n      swap1\n      pop\n      jump(tag_118)\n        /* \"contracts/Demo1.sol\":2642:2769  if( keccak256(abi.encodePacked(content)) == keccak256(abi.encodePacked(correctContent)) ){... */\n    tag_123:\n        /* \"contracts/Demo1.sol\":2786:2791  false */\n      0x00\n        /* \"contracts/Demo1.sol\":2779:2791  return false */\n      swap1\n      pop\n        /* \"contracts/Demo1.sol\":2534:2799  function review(string calldata content,string memory correctContent) internal pure returns(bool){... */\n    tag_118:\n      swap4\n      swap3\n      pop\n      pop\n      pop\n      jump\t// out\n        /* \"#utility.yul\":7:176   */\n    tag_124:\n        /* \"#utility.yul\":91:102   */\n      0x00\n        /* \"#utility.yul\":125:131   */\n      dup3\n        /* \"#utility.yul\":120:123   */\n      dup3\n        /* \"#utility.yul\":113:132   */\n      mstore\n        /* \"#utility.yul\":165:169   */\n      0x20\n        /* \"#utility.yul\":160:163   */\n      dup3\n        /* \"#utility.yul\":156:170   */\n      add\n        /* \"#utility.yul\":141:170   */\n      swap1\n      pop\n        /* \"#utility.yul\":7:176   */\n      swap3\n      swap2\n      pop\n      pop\n      jump\t// out\n        /* \"#utility.yul\":182:339   */\n    tag_125:\n        /* \"#utility.yul\":322:331   */\n      0x7265636569766500000000000000000000000000000000000000000000000000\n        /* \"#utility.yul\":318:319   */\n      0x00\n        /* \"#utility.yul\":310:316   */\n      dup3\n        /* \"#utility.yul\":306:320   */\n      add\n        /* \"#utility.yul\":299:332   */\n      mstore\n        /* \"#utility.yul\":182:339   */\n      pop\n      jump\t// out\n        /* \"#utility.yul\":345:710   */\n    tag_126:\n        /* \"#utility.yul\":487:490   */\n      0x00\n        /* \"#utility.yul\":508:574   */\n      tag_182\n        /* \"#utility.yul\":572:573   */\n      0x07\n        /* \"#utility.yul\":567:570   */\n      dup4\n        /* \"#utility.yul\":508:574   */\n      tag_124\n      jump\t// in\n    tag_182:\n        /* \"#utility.yul\":501:574   */\n      swap2\n      pop\n        /* \"#utility.yul\":583:676   */\n      tag_183\n        /* \"#utility.yul\":672:675   */\n      dup3\n        /* \"#utility.yul\":583:676   */\n      tag_125\n      jump\t// in\n    tag_183:\n        /* \"#utility.yul\":701:703   */\n      0x20\n        /* \"#utility.yul\":696:699   */\n      dup3\n        /* \"#utility.yul\":692:704   */\n      add\n        /* \"#utility.yul\":685:704   */\n      swap1\n      pop\n        /* \"#utility.yul\":345:710   */\n      swap2\n      swap1\n      pop\n      jump\t// out\n        /* \"#utility.yul\":716:842   */\n    tag_127:\n        /* \"#utility.yul\":753:760   */\n      0x00\n        /* \"#utility.yul\":793:835   */\n      0xffffffffffffffffffffffffffffffffffffffff\n        /* \"#utility.yul\":786:791   */\n      dup3\n        /* \"#utility.yul\":782:836   */\n      and\n        /* \"#utility.yul\":771:836   */\n      swap1\n      pop\n        /* \"#utility.yul\":716:842   */\n      swap2\n      swap1\n      pop\n      jump\t// out\n        /* \"#utility.yul\":848:944   */\n    tag_128:\n        /* \"#utility.yul\":885:892   */\n      0x00\n        /* \"#utility.yul\":914:938   */\n      tag_186\n        /* \"#utility.yul\":932:937   */\n      dup3\n        /* \"#utility.yul\":914:938   */\n      tag_127\n      jump\t// in\n    tag_186:\n        /* \"#utility.yul\":903:938   */\n      swap1\n      pop\n        /* \"#utility.yul\":848:944   */\n      swap2\n      swap1\n      pop\n      jump\t// out\n        /* \"#utility.yul\":950:1068   */\n    tag_129:\n        /* \"#utility.yul\":1037:1061   */\n      tag_188\n        /* \"#utility.yul\":1055:1060   */\n      dup2\n        /* \"#utility.yul\":1037:1061   */\n      tag_128\n      jump\t// in\n    tag_188:\n        /* \"#utility.yul\":1032:1035   */\n      dup3\n        /* \"#utility.yul\":1025:1062   */\n      mstore\n        /* \"#utility.yul\":950:1068   */\n      pop\n      pop\n      jump\t// out\n        /* \"#utility.yul\":1074:1151   */\n    tag_130:\n        /* \"#utility.yul\":1111:1118   */\n      0x00\n        /* \"#utility.yul\":1140:1145   */\n      dup2\n        /* \"#utility.yul\":1129:1145   */\n      swap1\n      pop\n        /* \"#utility.yul\":1074:1151   */\n      swap2\n      swap1\n      pop\n      jump\t// out\n        /* \"#utility.yul\":1157:1275   */\n    tag_131:\n        /* \"#utility.yul\":1244:1268   */\n      tag_191\n        /* \"#utility.yul\":1262:1267   */\n      dup2\n        /* \"#utility.yul\":1244:1268   */\n      tag_130\n      jump\t// in\n    tag_191:\n        /* \"#utility.yul\":1239:1242   */\n      dup3\n        /* \"#utility.yul\":1232:1269   */\n      mstore\n        /* \"#utility.yul\":1157:1275   */\n      pop\n      pop\n      jump\t// out\n        /* \"#utility.yul\":1281:1449   */\n    tag_132:\n        /* \"#utility.yul\":1364:1375   */\n      0x00\n        /* \"#utility.yul\":1398:1404   */\n      dup3\n        /* \"#utility.yul\":1393:1396   */\n      dup3\n        /* \"#utility.yul\":1386:1405   */\n      mstore\n        /* \"#utility.yul\":1438:1442   */\n      0x20\n        /* \"#utility.yul\":1433:1436   */\n      dup3\n        /* \"#utility.yul\":1429:1443   */\n      add\n        /* \"#utility.yul\":1414:1443   */\n      swap1\n      pop\n        /* \"#utility.yul\":1281:1449   */\n      swap3\n      swap2\n      pop\n      pop\n      jump\t// out\n        /* \"#utility.yul\":1455:1569   */\n    tag_133:\n      pop\n      jump\t// out\n        /* \"#utility.yul\":1575:1937   */\n    tag_134:\n        /* \"#utility.yul\":1716:1719   */\n      0x00\n        /* \"#utility.yul\":1737:1802   */\n      tag_195\n        /* \"#utility.yul\":1800:1801   */\n      0x00\n        /* \"#utility.yul\":1795:1798   */\n      dup4\n        /* \"#utility.yul\":1737:1802   */\n      tag_132\n      jump\t// in\n    tag_195:\n        /* \"#utility.yul\":1730:1802   */\n      swap2\n      pop\n        /* \"#utility.yul\":1811:1904   */\n      tag_196\n        /* \"#utility.yul\":1900:1903   */\n      dup3\n        /* \"#utility.yul\":1811:1904   */\n      tag_133\n      jump\t// in\n    tag_196:\n        /* \"#utility.yul\":1929:1930   */\n      0x00\n        /* \"#utility.yul\":1924:1927   */\n      dup3\n        /* \"#utility.yul\":1920:1931   */\n      add\n        /* \"#utility.yul\":1913:1931   */\n      swap1\n      pop\n        /* \"#utility.yul\":1575:1937   */\n      swap2\n      swap1\n      pop\n      jump\t// out\n        /* \"#utility.yul\":1943:2888   */\n    tag_14:\n        /* \"#utility.yul\":2265:2269   */\n      0x00\n        /* \"#utility.yul\":2303:2306   */\n      0x80\n        /* \"#utility.yul\":2292:2301   */\n      dup3\n        /* \"#utility.yul\":2288:2307   */\n      add\n        /* \"#utility.yul\":2280:2307   */\n      swap1\n      pop\n        /* \"#utility.yul\":2353:2362   */\n      dup2\n        /* \"#utility.yul\":2347:2351   */\n      dup2\n        /* \"#utility.yul\":2343:2363   */\n      sub\n        /* \"#utility.yul\":2339:2340   */\n      0x00\n        /* \"#utility.yul\":2328:2337   */\n      dup4\n        /* \"#utility.yul\":2324:2341   */\n      add\n        /* \"#utility.yul\":2317:2364   */\n      mstore\n        /* \"#utility.yul\":2381:2512   */\n      tag_198\n        /* \"#utility.yul\":2507:2511   */\n      dup2\n        /* \"#utility.yul\":2381:2512   */\n      tag_126\n      jump\t// in\n    tag_198:\n        /* \"#utility.yul\":2373:2512   */\n      swap1\n      pop\n        /* \"#utility.yul\":2522:2594   */\n      tag_199\n        /* \"#utility.yul\":2590:2592   */\n      0x20\n        /* \"#utility.yul\":2579:2588   */\n      dup4\n        /* \"#utility.yul\":2575:2593   */\n      add\n        /* \"#utility.yul\":2566:2572   */\n      dup6\n        /* \"#utility.yul\":2522:2594   */\n      tag_129\n      jump\t// in\n    tag_199:\n        /* \"#utility.yul\":2604:2676   */\n      tag_200\n        /* \"#utility.yul\":2672:2674   */\n      0x40\n        /* \"#utility.yul\":2661:2670   */\n      dup4\n        /* \"#utility.yul\":2657:2675   */\n      add\n        /* \"#utility.yul\":2648:2654   */\n      dup5\n        /* \"#utility.yul\":2604:2676   */\n      tag_131\n      jump\t// in\n    tag_200:\n        /* \"#utility.yul\":2723:2732   */\n      dup2\n        /* \"#utility.yul\":2717:2721   */\n      dup2\n        /* \"#utility.yul\":2713:2733   */\n      sub\n        /* \"#utility.yul\":2708:2710   */\n      0x60\n        /* \"#utility.yul\":2697:2706   */\n      dup4\n        /* \"#utility.yul\":2693:2711   */\n      add\n        /* \"#utility.yul\":2686:2734   */\n      mstore\n        /* \"#utility.yul\":2751:2881   */\n      tag_201\n        /* \"#utility.yul\":2876:2880   */\n      dup2\n        /* \"#utility.yul\":2751:2881   */\n      tag_134\n      jump\t// in\n    tag_201:\n        /* \"#utility.yul\":2743:2881   */\n      swap1\n      pop\n        /* \"#utility.yul\":1943:2888   */\n      swap4\n      swap3\n      pop\n      pop\n      pop\n      jump\t// out\n        /* \"#utility.yul\":2894:3040   */\n    tag_135:\n        /* \"#utility.yul\":2991:2997   */\n      dup3\n        /* \"#utility.yul\":2986:2989   */\n      dup2\n        /* \"#utility.yul\":2981:2984   */\n      dup4\n        /* \"#utility.yul\":2968:2998   */\n      calldatacopy\n        /* \"#utility.yul\":3032:3033   */\n      0x00\n        /* \"#utility.yul\":3023:3029   */\n      dup4\n        /* \"#utility.yul\":3018:3021   */\n      dup4\n        /* \"#utility.yul\":3014:3030   */\n      add\n        /* \"#utility.yul\":3007:3034   */\n      mstore\n        /* \"#utility.yul\":2894:3040   */\n      pop\n      pop\n      pop\n      jump\t// out\n        /* \"#utility.yul\":3046:3148   */\n    tag_136:\n        /* \"#utility.yul\":3087:3093   */\n      0x00\n        /* \"#utility.yul\":3138:3140   */\n      0x1f\n        /* \"#utility.yul\":3134:3141   */\n      not\n        /* \"#utility.yul\":3129:3131   */\n      0x1f\n        /* \"#utility.yul\":3122:3127   */\n      dup4\n        /* \"#utility.yul\":3118:3132   */\n      add\n        /* \"#utility.yul\":3114:3142   */\n      and\n        /* \"#utility.yul\":3104:3142   */\n      swap1\n      pop\n        /* \"#utility.yul\":3046:3148   */\n      swap2\n      swap1\n      pop\n      jump\t// out\n        /* \"#utility.yul\":3176:3490   */\n    tag_137:\n        /* \"#utility.yul\":3272:3275   */\n      0x00\n        /* \"#utility.yul\":3293:3363   */\n      tag_205\n        /* \"#utility.yul\":3356:3362   */\n      dup4\n        /* \"#utility.yul\":3351:3354   */\n      dup6\n        /* \"#utility.yul\":3293:3363   */\n      tag_132\n      jump\t// in\n    tag_205:\n        /* \"#utility.yul\":3286:3363   */\n      swap4\n      pop\n        /* \"#utility.yul\":3373:3429   */\n      tag_206\n        /* \"#utility.yul\":3422:3428   */\n      dup4\n        /* \"#utility.yul\":3417:3420   */\n      dup6\n        /* \"#utility.yul\":3410:3415   */\n      dup5\n        /* \"#utility.yul\":3373:3429   */\n      tag_135\n      jump\t// in\n    tag_206:\n        /* \"#utility.yul\":3454:3483   */\n      tag_207\n        /* \"#utility.yul\":3476:3482   */\n      dup4\n        /* \"#utility.yul\":3454:3483   */\n      tag_136\n      jump\t// in\n    tag_207:\n        /* \"#utility.yul\":3449:3452   */\n      dup5\n        /* \"#utility.yul\":3445:3484   */\n      add\n        /* \"#utility.yul\":3438:3484   */\n      swap1\n      pop\n        /* \"#utility.yul\":3176:3490   */\n      swap4\n      swap3\n      pop\n      pop\n      pop\n      jump\t// out\n        /* \"#utility.yul\":3496:4353   */\n    tag_18:\n        /* \"#utility.yul\":3774:3778   */\n      0x00\n        /* \"#utility.yul\":3812:3815   */\n      0x80\n        /* \"#utility.yul\":3801:3810   */\n      dup3\n        /* \"#utility.yul\":3797:3816   */\n      add\n        /* \"#utility.yul\":3789:3816   */\n      swap1\n      pop\n        /* \"#utility.yul\":3862:3871   */\n      dup2\n        /* \"#utility.yul\":3856:3860   */\n      dup2\n        /* \"#utility.yul\":3852:3872   */\n      sub\n        /* \"#utility.yul\":3848:3849   */\n      0x00\n        /* \"#utility.yul\":3837:3846   */\n      dup4\n        /* \"#utility.yul\":3833:3850   */\n      add\n        /* \"#utility.yul\":3826:3873   */\n      mstore\n        /* \"#utility.yul\":3890:4021   */\n      tag_209\n        /* \"#utility.yul\":4016:4020   */\n      dup2\n        /* \"#utility.yul\":3890:4021   */\n      tag_126\n      jump\t// in\n    tag_209:\n        /* \"#utility.yul\":3882:4021   */\n      swap1\n      pop\n        /* \"#utility.yul\":4031:4103   */\n      tag_210\n        /* \"#utility.yul\":4099:4101   */\n      0x20\n        /* \"#utility.yul\":4088:4097   */\n      dup4\n        /* \"#utility.yul\":4084:4102   */\n      add\n        /* \"#utility.yul\":4075:4081   */\n      dup8\n        /* \"#utility.yul\":4031:4103   */\n      tag_129\n      jump\t// in\n    tag_210:\n        /* \"#utility.yul\":4113:4185   */\n      tag_211\n        /* \"#utility.yul\":4181:4183   */\n      0x40\n        /* \"#utility.yul\":4170:4179   */\n      dup4\n        /* \"#utility.yul\":4166:4184   */\n      add\n        /* \"#utility.yul\":4157:4163   */\n      dup7\n        /* \"#utility.yul\":4113:4185   */\n      tag_131\n      jump\t// in\n    tag_211:\n        /* \"#utility.yul\":4232:4241   */\n      dup2\n        /* \"#utility.yul\":4226:4230   */\n      dup2\n        /* \"#utility.yul\":4222:4242   */\n      sub\n        /* \"#utility.yul\":4217:4219   */\n      0x60\n        /* \"#utility.yul\":4206:4215   */\n      dup4\n        /* \"#utility.yul\":4202:4220   */\n      add\n        /* \"#utility.yul\":4195:4243   */\n      mstore\n        /* \"#utility.yul\":4260:4346   */\n      tag_212\n        /* \"#utility.yul\":4341:4345   */\n      dup2\n        /* \"#utility.yul\":4332:4338   */\n      dup5\n        /* \"#utility.yul\":4324:4330   */\n      dup7\n        /* \"#utility.yul\":4260:4346   */\n      tag_137\n      jump\t// in\n    tag_212:\n        /* \"#utility.yul\":4252:4346   */\n      swap1\n      pop\n        /* \"#utility.yul\":3496:4353   */\n      swap6\n      swap5\n      pop\n      pop\n      pop\n      pop\n      pop\n      jump\t// out\n        /* \"#utility.yul\":4440:4557   */\n    tag_139:\n        /* \"#utility.yul\":4549:4550   */\n      0x00\n        /* \"#utility.yul\":4546:4547   */\n      dup1\n        /* \"#utility.yul\":4539:4551   */\n      revert\n        /* \"#utility.yul\":4563:4680   */\n    tag_140:\n        /* \"#utility.yul\":4672:4673   */\n      0x00\n        /* \"#utility.yul\":4669:4670   */\n      dup1\n        /* \"#utility.yul\":4662:4674   */\n      revert\n        /* \"#utility.yul\":4686:4803   */\n    tag_141:\n        /* \"#utility.yul\":4795:4796   */\n      0x00\n        /* \"#utility.yul\":4792:4793   */\n      dup1\n        /* \"#utility.yul\":4785:4797   */\n      revert\n        /* \"#utility.yul\":4809:4926   */\n    tag_142:\n        /* \"#utility.yul\":4918:4919   */\n      0x00\n        /* \"#utility.yul\":4915:4916   */\n      dup1\n        /* \"#utility.yul\":4908:4920   */\n      revert\n        /* \"#utility.yul\":4932:5049   */\n    tag_143:\n        /* \"#utility.yul\":5041:5042   */\n      0x00\n        /* \"#utility.yul\":5038:5039   */\n      dup1\n        /* \"#utility.yul\":5031:5043   */\n      revert\n        /* \"#utility.yul\":5069:5622   */\n    tag_144:\n        /* \"#utility.yul\":5127:5135   */\n      0x00\n        /* \"#utility.yul\":5137:5143   */\n      dup1\n        /* \"#utility.yul\":5187:5190   */\n      dup4\n        /* \"#utility.yul\":5180:5184   */\n      0x1f\n        /* \"#utility.yul\":5172:5178   */\n      dup5\n        /* \"#utility.yul\":5168:5185   */\n      add\n        /* \"#utility.yul\":5164:5191   */\n      slt\n        /* \"#utility.yul\":5154:5276   */\n      tag_220\n      jumpi\n        /* \"#utility.yul\":5195:5274   */\n      tag_221\n      tag_141\n      jump\t// in\n    tag_221:\n        /* \"#utility.yul\":5154:5276   */\n    tag_220:\n        /* \"#utility.yul\":5308:5314   */\n      dup3\n        /* \"#utility.yul\":5295:5315   */\n      calldataload\n        /* \"#utility.yul\":5285:5315   */\n      swap1\n      pop\n        /* \"#utility.yul\":5338:5356   */\n      0xffffffffffffffff\n        /* \"#utility.yul\":5330:5336   */\n      dup2\n        /* \"#utility.yul\":5327:5357   */\n      gt\n        /* \"#utility.yul\":5324:5441   */\n      iszero\n      tag_222\n      jumpi\n        /* \"#utility.yul\":5360:5439   */\n      tag_223\n      tag_142\n      jump\t// in\n    tag_223:\n        /* \"#utility.yul\":5324:5441   */\n    tag_222:\n        /* \"#utility.yul\":5474:5478   */\n      0x20\n        /* \"#utility.yul\":5466:5472   */\n      dup4\n        /* \"#utility.yul\":5462:5479   */\n      add\n        /* \"#utility.yul\":5450:5479   */\n      swap2\n      pop\n        /* \"#utility.yul\":5528:5531   */\n      dup4\n        /* \"#utility.yul\":5520:5524   */\n      0x01\n        /* \"#utility.yul\":5512:5518   */\n      dup3\n        /* \"#utility.yul\":5508:5525   */\n      mul\n        /* \"#utility.yul\":5498:5506   */\n      dup4\n        /* \"#utility.yul\":5494:5526   */\n      add\n        /* \"#utility.yul\":5491:5532   */\n      gt\n        /* \"#utility.yul\":5488:5616   */\n      iszero\n      tag_224\n      jumpi\n        /* \"#utility.yul\":5535:5614   */\n      tag_225\n      tag_143\n      jump\t// in\n    tag_225:\n        /* \"#utility.yul\":5488:5616   */\n    tag_224:\n        /* \"#utility.yul\":5069:5622   */\n      swap3\n      pop\n      swap3\n      swap1\n      pop\n      jump\t// out\n        /* \"#utility.yul\":5628:6157   */\n    tag_22:\n        /* \"#utility.yul\":5699:5705   */\n      0x00\n        /* \"#utility.yul\":5707:5713   */\n      dup1\n        /* \"#utility.yul\":5756:5758   */\n      0x20\n        /* \"#utility.yul\":5744:5753   */\n      dup4\n        /* \"#utility.yul\":5735:5742   */\n      dup6\n        /* \"#utility.yul\":5731:5754   */\n      sub\n        /* \"#utility.yul\":5727:5759   */\n      slt\n        /* \"#utility.yul\":5724:5843   */\n      iszero\n      tag_227\n      jumpi\n        /* \"#utility.yul\":5762:5841   */\n      tag_228\n      tag_139\n      jump\t// in\n    tag_228:\n        /* \"#utility.yul\":5724:5843   */\n    tag_227:\n        /* \"#utility.yul\":5910:5911   */\n      0x00\n        /* \"#utility.yul\":5899:5908   */\n      dup4\n        /* \"#utility.yul\":5895:5912   */\n      add\n        /* \"#utility.yul\":5882:5913   */\n      calldataload\n        /* \"#utility.yul\":5940:5958   */\n      0xffffffffffffffff\n        /* \"#utility.yul\":5932:5938   */\n      dup2\n        /* \"#utility.yul\":5929:5959   */\n      gt\n        /* \"#utility.yul\":5926:6043   */\n      iszero\n      tag_229\n      jumpi\n        /* \"#utility.yul\":5962:6041   */\n      tag_230\n      tag_140\n      jump\t// in\n    tag_230:\n        /* \"#utility.yul\":5926:6043   */\n    tag_229:\n        /* \"#utility.yul\":6075:6140   */\n      tag_231\n        /* \"#utility.yul\":6132:6139   */\n      dup6\n        /* \"#utility.yul\":6123:6129   */\n      dup3\n        /* \"#utility.yul\":6112:6121   */\n      dup7\n        /* \"#utility.yul\":6108:6130   */\n      add\n        /* \"#utility.yul\":6075:6140   */\n      tag_144\n      jump\t// in\n    tag_231:\n        /* \"#utility.yul\":6057:6140   */\n      swap3\n      pop\n      swap3\n      pop\n        /* \"#utility.yul\":5853:6150   */\n      pop\n        /* \"#utility.yul\":5628:6157   */\n      swap3\n      pop\n      swap3\n      swap1\n      pop\n      jump\t// out\n        /* \"#utility.yul\":6163:6253   */\n    tag_145:\n        /* \"#utility.yul\":6197:6204   */\n      0x00\n        /* \"#utility.yul\":6240:6245   */\n      dup2\n        /* \"#utility.yul\":6233:6246   */\n      iszero\n        /* \"#utility.yul\":6226:6247   */\n      iszero\n        /* \"#utility.yul\":6215:6247   */\n      swap1\n      pop\n        /* \"#utility.yul\":6163:6253   */\n      swap2\n      swap1\n      pop\n      jump\t// out\n        /* \"#utility.yul\":6259:6368   */\n    tag_146:\n        /* \"#utility.yul\":6340:6361   */\n      tag_234\n        /* \"#utility.yul\":6355:6360   */\n      dup2\n        /* \"#utility.yul\":6340:6361   */\n      tag_145\n      jump\t// in\n    tag_234:\n        /* \"#utility.yul\":6335:6338   */\n      dup3\n        /* \"#utility.yul\":6328:6362   */\n      mstore\n        /* \"#utility.yul\":6259:6368   */\n      pop\n      pop\n      jump\t// out\n        /* \"#utility.yul\":6374:6584   */\n    tag_25:\n        /* \"#utility.yul\":6461:6465   */\n      0x00\n        /* \"#utility.yul\":6499:6501   */\n      0x20\n        /* \"#utility.yul\":6488:6497   */\n      dup3\n        /* \"#utility.yul\":6484:6502   */\n      add\n        /* \"#utility.yul\":6476:6502   */\n      swap1\n      pop\n        /* \"#utility.yul\":6512:6577   */\n      tag_236\n        /* \"#utility.yul\":6574:6575   */\n      0x00\n        /* \"#utility.yul\":6563:6572   */\n      dup4\n        /* \"#utility.yul\":6559:6576   */\n      add\n        /* \"#utility.yul\":6550:6556   */\n      dup5\n        /* \"#utility.yul\":6512:6577   */\n      tag_146\n      jump\t// in\n    tag_236:\n        /* \"#utility.yul\":6374:6584   */\n      swap3\n      swap2\n      pop\n      pop\n      jump\t// out\n        /* \"#utility.yul\":6590:6812   */\n    tag_42:\n        /* \"#utility.yul\":6683:6687   */\n      0x00\n        /* \"#utility.yul\":6721:6723   */\n      0x20\n        /* \"#utility.yul\":6710:6719   */\n      dup3\n        /* \"#utility.yul\":6706:6724   */\n      add\n        /* \"#utility.yul\":6698:6724   */\n      swap1\n      pop\n        /* \"#utility.yul\":6734:6805   */\n      tag_238\n        /* \"#utility.yul\":6802:6803   */\n      0x00\n        /* \"#utility.yul\":6791:6800   */\n      dup4\n        /* \"#utility.yul\":6787:6804   */\n      add\n        /* \"#utility.yul\":6778:6784   */\n      dup5\n        /* \"#utility.yul\":6734:6805   */\n      tag_129\n      jump\t// in\n    tag_238:\n        /* \"#utility.yul\":6590:6812   */\n      swap3\n      swap2\n      pop\n      pop\n      jump\t// out\n        /* \"#utility.yul\":6818:6904   */\n    tag_147:\n        /* \"#utility.yul\":6853:6860   */\n      0x00\n        /* \"#utility.yul\":6893:6897   */\n      0xff\n        /* \"#utility.yul\":6886:6891   */\n      dup3\n        /* \"#utility.yul\":6882:6898   */\n      and\n        /* \"#utility.yul\":6871:6898   */\n      swap1\n      pop\n        /* \"#utility.yul\":6818:6904   */\n      swap2\n      swap1\n      pop\n      jump\t// out\n        /* \"#utility.yul\":6910:7022   */\n    tag_148:\n        /* \"#utility.yul\":6993:7015   */\n      tag_241\n        /* \"#utility.yul\":7009:7014   */\n      dup2\n        /* \"#utility.yul\":6993:7015   */\n      tag_147\n      jump\t// in\n    tag_241:\n        /* \"#utility.yul\":6988:6991   */\n      dup3\n        /* \"#utility.yul\":6981:7016   */\n      mstore\n        /* \"#utility.yul\":6910:7022   */\n      pop\n      pop\n      jump\t// out\n        /* \"#utility.yul\":7028:7242   */\n    tag_52:\n        /* \"#utility.yul\":7117:7121   */\n      0x00\n        /* \"#utility.yul\":7155:7157   */\n      0x20\n        /* \"#utility.yul\":7144:7153   */\n      dup3\n        /* \"#utility.yul\":7140:7158   */\n      add\n        /* \"#utility.yul\":7132:7158   */\n      swap1\n      pop\n        /* \"#utility.yul\":7168:7235   */\n      tag_243\n        /* \"#utility.yul\":7232:7233   */\n      0x00\n        /* \"#utility.yul\":7221:7230   */\n      dup4\n        /* \"#utility.yul\":7217:7234   */\n      add\n        /* \"#utility.yul\":7208:7214   */\n      dup5\n        /* \"#utility.yul\":7168:7235   */\n      tag_148\n      jump\t// in\n    tag_243:\n        /* \"#utility.yul\":7028:7242   */\n      swap3\n      swap2\n      pop\n      pop\n      jump\t// out\n        /* \"#utility.yul\":7248:7409   */\n    tag_149:\n        /* \"#utility.yul\":7388:7401   */\n      0x63616e74206c6561646572000000000000000000000000000000000000000000\n        /* \"#utility.yul\":7384:7385   */\n      0x00\n        /* \"#utility.yul\":7376:7382   */\n      dup3\n        /* \"#utility.yul\":7372:7386   */\n      add\n        /* \"#utility.yul\":7365:7402   */\n      mstore\n        /* \"#utility.yul\":7248:7409   */\n      pop\n      jump\t// out\n        /* \"#utility.yul\":7415:7781   */\n    tag_150:\n        /* \"#utility.yul\":7557:7560   */\n      0x00\n        /* \"#utility.yul\":7578:7645   */\n      tag_246\n        /* \"#utility.yul\":7642:7644   */\n      0x0b\n        /* \"#utility.yul\":7637:7640   */\n      dup4\n        /* \"#utility.yul\":7578:7645   */\n      tag_124\n      jump\t// in\n    tag_246:\n        /* \"#utility.yul\":7571:7645   */\n      swap2\n      pop\n        /* \"#utility.yul\":7654:7747   */\n      tag_247\n        /* \"#utility.yul\":7743:7746   */\n      dup3\n        /* \"#utility.yul\":7654:7747   */\n      tag_149\n      jump\t// in\n    tag_247:\n        /* \"#utility.yul\":7772:7774   */\n      0x20\n        /* \"#utility.yul\":7767:7770   */\n      dup3\n        /* \"#utility.yul\":7763:7775   */\n      add\n        /* \"#utility.yul\":7756:7775   */\n      swap1\n      pop\n        /* \"#utility.yul\":7415:7781   */\n      swap2\n      swap1\n      pop\n      jump\t// out\n        /* \"#utility.yul\":7787:8206   */\n    tag_56:\n        /* \"#utility.yul\":7953:7957   */\n      0x00\n        /* \"#utility.yul\":7991:7993   */\n      0x20\n        /* \"#utility.yul\":7980:7989   */\n      dup3\n        /* \"#utility.yul\":7976:7994   */\n      add\n        /* \"#utility.yul\":7968:7994   */\n      swap1\n      pop\n        /* \"#utility.yul\":8040:8049   */\n      dup2\n        /* \"#utility.yul\":8034:8038   */\n      dup2\n        /* \"#utility.yul\":8030:8050   */\n      sub\n        /* \"#utility.yul\":8026:8027   */\n      0x00\n        /* \"#utility.yul\":8015:8024   */\n      dup4\n        /* \"#utility.yul\":8011:8028   */\n      add\n        /* \"#utility.yul\":8004:8051   */\n      mstore\n        /* \"#utility.yul\":8068:8199   */\n      tag_249\n        /* \"#utility.yul\":8194:8198   */\n      dup2\n        /* \"#utility.yul\":8068:8199   */\n      tag_150\n      jump\t// in\n    tag_249:\n        /* \"#utility.yul\":8060:8199   */\n      swap1\n      pop\n        /* \"#utility.yul\":7787:8206   */\n      swap2\n      swap1\n      pop\n      jump\t// out\n        /* \"#utility.yul\":8212:8311   */\n    tag_151:\n        /* \"#utility.yul\":8264:8270   */\n      0x00\n        /* \"#utility.yul\":8298:8303   */\n      dup2\n        /* \"#utility.yul\":8292:8304   */\n      mload\n        /* \"#utility.yul\":8282:8304   */\n      swap1\n      pop\n        /* \"#utility.yul\":8212:8311   */\n      swap2\n      swap1\n      pop\n      jump\t// out\n        /* \"#utility.yul\":8317:8563   */\n    tag_152:\n        /* \"#utility.yul\":8398:8399   */\n      0x00\n        /* \"#utility.yul\":8408:8521   */\n    tag_252:\n        /* \"#utility.yul\":8422:8428   */\n      dup4\n        /* \"#utility.yul\":8419:8420   */\n      dup2\n        /* \"#utility.yul\":8416:8429   */\n      lt\n        /* \"#utility.yul\":8408:8521   */\n      iszero\n      tag_254\n      jumpi\n        /* \"#utility.yul\":8507:8508   */\n      dup1\n        /* \"#utility.yul\":8502:8505   */\n      dup3\n        /* \"#utility.yul\":8498:8509   */\n      add\n        /* \"#utility.yul\":8492:8510   */\n      mload\n        /* \"#utility.yul\":8488:8489   */\n      dup2\n        /* \"#utility.yul\":8483:8486   */\n      dup5\n        /* \"#utility.yul\":8479:8490   */\n      add\n        /* \"#utility.yul\":8472:8511   */\n      mstore\n        /* \"#utility.yul\":8444:8446   */\n      0x20\n        /* \"#utility.yul\":8441:8442   */\n      dup2\n        /* \"#utility.yul\":8437:8447   */\n      add\n        /* \"#utility.yul\":8432:8447   */\n      swap1\n      pop\n        /* \"#utility.yul\":8408:8521   */\n      jump(tag_252)\n    tag_254:\n        /* \"#utility.yul\":8555:8556   */\n      0x00\n        /* \"#utility.yul\":8546:8552   */\n      dup5\n        /* \"#utility.yul\":8541:8544   */\n      dup5\n        /* \"#utility.yul\":8537:8553   */\n      add\n        /* \"#utility.yul\":8530:8557   */\n      mstore\n        /* \"#utility.yul\":8379:8563   */\n      pop\n        /* \"#utility.yul\":8317:8563   */\n      pop\n      pop\n      pop\n      jump\t// out\n        /* \"#utility.yul\":8569:8946   */\n    tag_153:\n        /* \"#utility.yul\":8657:8660   */\n      0x00\n        /* \"#utility.yul\":8685:8724   */\n      tag_256\n        /* \"#utility.yul\":8718:8723   */\n      dup3\n        /* \"#utility.yul\":8685:8724   */\n      tag_151\n      jump\t// in\n    tag_256:\n        /* \"#utility.yul\":8740:8811   */\n      tag_257\n        /* \"#utility.yul\":8804:8810   */\n      dup2\n        /* \"#utility.yul\":8799:8802   */\n      dup6\n        /* \"#utility.yul\":8740:8811   */\n      tag_124\n      jump\t// in\n    tag_257:\n        /* \"#utility.yul\":8733:8811   */\n      swap4\n      pop\n        /* \"#utility.yul\":8820:8885   */\n      tag_258\n        /* \"#utility.yul\":8878:8884   */\n      dup2\n        /* \"#utility.yul\":8873:8876   */\n      dup6\n        /* \"#utility.yul\":8866:8870   */\n      0x20\n        /* \"#utility.yul\":8859:8864   */\n      dup7\n        /* \"#utility.yul\":8855:8871   */\n      add\n        /* \"#utility.yul\":8820:8885   */\n      tag_152\n      jump\t// in\n    tag_258:\n        /* \"#utility.yul\":8910:8939   */\n      tag_259\n        /* \"#utility.yul\":8932:8938   */\n      dup2\n        /* \"#utility.yul\":8910:8939   */\n      tag_136\n      jump\t// in\n    tag_259:\n        /* \"#utility.yul\":8905:8908   */\n      dup5\n        /* \"#utility.yul\":8901:8940   */\n      add\n        /* \"#utility.yul\":8894:8940   */\n      swap2\n      pop\n        /* \"#utility.yul\":8661:8946   */\n      pop\n        /* \"#utility.yul\":8569:8946   */\n      swap3\n      swap2\n      pop\n      pop\n      jump\t// out\n        /* \"#utility.yul\":8952:9265   */\n    tag_60:\n        /* \"#utility.yul\":9065:9069   */\n      0x00\n        /* \"#utility.yul\":9103:9105   */\n      0x20\n        /* \"#utility.yul\":9092:9101   */\n      dup3\n        /* \"#utility.yul\":9088:9106   */\n      add\n        /* \"#utility.yul\":9080:9106   */\n      swap1\n      pop\n        /* \"#utility.yul\":9152:9161   */\n      dup2\n        /* \"#utility.yul\":9146:9150   */\n      dup2\n        /* \"#utility.yul\":9142:9162   */\n      sub\n        /* \"#utility.yul\":9138:9139   */\n      0x00\n        /* \"#utility.yul\":9127:9136   */\n      dup4\n        /* \"#utility.yul\":9123:9140   */\n      add\n        /* \"#utility.yul\":9116:9163   */\n      mstore\n        /* \"#utility.yul\":9180:9258   */\n      tag_261\n        /* \"#utility.yul\":9253:9257   */\n      dup2\n        /* \"#utility.yul\":9244:9250   */\n      dup5\n        /* \"#utility.yul\":9180:9258   */\n      tag_153\n      jump\t// in\n    tag_261:\n        /* \"#utility.yul\":9172:9258   */\n      swap1\n      pop\n        /* \"#utility.yul\":8952:9265   */\n      swap3\n      swap2\n      pop\n      pop\n      jump\t// out\n        /* \"#utility.yul\":9271:9485   */\n    tag_154:\n        /* \"#utility.yul\":9411:9477   */\n      0xe5bf85e9a1bbe8afb4e9a286e5afbce5a5bd0000000000000000000000000000\n        /* \"#utility.yul\":9407:9408   */\n      0x00\n        /* \"#utility.yul\":9399:9405   */\n      dup3\n        /* \"#utility.yul\":9395:9409   */\n      add\n        /* \"#utility.yul\":9388:9478   */\n      mstore\n        /* \"#utility.yul\":9271:9485   */\n      pop\n      jump\t// out\n        /* \"#utility.yul\":9491:9857   */\n    tag_155:\n        /* \"#utility.yul\":9633:9636   */\n      0x00\n        /* \"#utility.yul\":9654:9721   */\n      tag_264\n        /* \"#utility.yul\":9718:9720   */\n      0x12\n        /* \"#utility.yul\":9713:9716   */\n      dup4\n        /* \"#utility.yul\":9654:9721   */\n      tag_124\n      jump\t// in\n    tag_264:\n        /* \"#utility.yul\":9647:9721   */\n      swap2\n      pop\n        /* \"#utility.yul\":9730:9823   */\n      tag_265\n        /* \"#utility.yul\":9819:9822   */\n      dup3\n        /* \"#utility.yul\":9730:9823   */\n      tag_154\n      jump\t// in\n    tag_265:\n        /* \"#utility.yul\":9848:9850   */\n      0x20\n        /* \"#utility.yul\":9843:9846   */\n      dup3\n        /* \"#utility.yul\":9839:9851   */\n      add\n        /* \"#utility.yul\":9832:9851   */\n      swap1\n      pop\n        /* \"#utility.yul\":9491:9857   */\n      swap2\n      swap1\n      pop\n      jump\t// out\n        /* \"#utility.yul\":9863:10282   */\n    tag_65:\n        /* \"#utility.yul\":10029:10033   */\n      0x00\n        /* \"#utility.yul\":10067:10069   */\n      0x20\n        /* \"#utility.yul\":10056:10065   */\n      dup3\n        /* \"#utility.yul\":10052:10070   */\n      add\n        /* \"#utility.yul\":10044:10070   */\n      swap1\n      pop\n        /* \"#utility.yul\":10116:10125   */\n      dup2\n        /* \"#utility.yul\":10110:10114   */\n      dup2\n        /* \"#utility.yul\":10106:10126   */\n      sub\n        /* \"#utility.yul\":10102:10103   */\n      0x00\n        /* \"#utility.yul\":10091:10100   */\n      dup4\n        /* \"#utility.yul\":10087:10104   */\n      add\n        /* \"#utility.yul\":10080:10127   */\n      mstore\n        /* \"#utility.yul\":10144:10275   */\n      tag_267\n        /* \"#utility.yul\":10270:10274   */\n      dup2\n        /* \"#utility.yul\":10144:10275   */\n      tag_155\n      jump\t// in\n    tag_267:\n        /* \"#utility.yul\":10136:10275   */\n      swap1\n      pop\n        /* \"#utility.yul\":9863:10282   */\n      swap2\n      swap1\n      pop\n      jump\t// out\n        /* \"#utility.yul\":10288:10468   */\n    tag_156:\n        /* \"#utility.yul\":10336:10413   */\n      0x4e487b7100000000000000000000000000000000000000000000000000000000\n        /* \"#utility.yul\":10333:10334   */\n      0x00\n        /* \"#utility.yul\":10326:10414   */\n      mstore\n        /* \"#utility.yul\":10433:10437   */\n      0x11\n        /* \"#utility.yul\":10430:10431   */\n      0x04\n        /* \"#utility.yul\":10423:10438   */\n      mstore\n        /* \"#utility.yul\":10457:10461   */\n      0x24\n        /* \"#utility.yul\":10454:10455   */\n      0x00\n        /* \"#utility.yul\":10447:10462   */\n      revert\n        /* \"#utility.yul\":10474:10641   */\n    tag_67:\n        /* \"#utility.yul\":10511:10514   */\n      0x00\n        /* \"#utility.yul\":10534:10556   */\n      tag_270\n        /* \"#utility.yul\":10550:10555   */\n      dup3\n        /* \"#utility.yul\":10534:10556   */\n      tag_147\n      jump\t// in\n    tag_270:\n        /* \"#utility.yul\":10525:10556   */\n      swap2\n      pop\n        /* \"#utility.yul\":10578:10582   */\n      0xff\n        /* \"#utility.yul\":10571:10576   */\n      dup3\n        /* \"#utility.yul\":10568:10583   */\n      sub\n        /* \"#utility.yul\":10565:10606   */\n      tag_271\n      jumpi\n        /* \"#utility.yul\":10586:10604   */\n      tag_272\n      tag_156\n      jump\t// in\n    tag_272:\n        /* \"#utility.yul\":10565:10606   */\n    tag_271:\n        /* \"#utility.yul\":10633:10634   */\n      0x01\n        /* \"#utility.yul\":10626:10631   */\n      dup3\n        /* \"#utility.yul\":10622:10635   */\n      add\n        /* \"#utility.yul\":10615:10635   */\n      swap1\n      pop\n        /* \"#utility.yul\":10474:10641   */\n      swap2\n      swap1\n      pop\n      jump\t// out\n        /* \"#utility.yul\":10647:10861   */\n    tag_157:\n        /* \"#utility.yul\":10787:10853   */\n      0xe5bf85e9a1bbe8afb4e4b8bae4babae5908de69c8de58aa10000000000000000\n        /* \"#utility.yul\":10783:10784   */\n      0x00\n        /* \"#utility.yul\":10775:10781   */\n      dup3\n        /* \"#utility.yul\":10771:10785   */\n      add\n        /* \"#utility.yul\":10764:10854   */\n      mstore\n        /* \"#utility.yul\":10647:10861   */\n      pop\n      jump\t// out\n        /* \"#utility.yul\":10867:11233   */\n    tag_158:\n        /* \"#utility.yul\":11009:11012   */\n      0x00\n        /* \"#utility.yul\":11030:11097   */\n      tag_275\n        /* \"#utility.yul\":11094:11096   */\n      0x18\n        /* \"#utility.yul\":11089:11092   */\n      dup4\n        /* \"#utility.yul\":11030:11097   */\n      tag_124\n      jump\t// in\n    tag_275:\n        /* \"#utility.yul\":11023:11097   */\n      swap2\n      pop\n        /* \"#utility.yul\":11106:11199   */\n      tag_276\n        /* \"#utility.yul\":11195:11198   */\n      dup3\n        /* \"#utility.yul\":11106:11199   */\n      tag_157\n      jump\t// in\n    tag_276:\n        /* \"#utility.yul\":11224:11226   */\n      0x20\n        /* \"#utility.yul\":11219:11222   */\n      dup3\n        /* \"#utility.yul\":11215:11227   */\n      add\n        /* \"#utility.yul\":11208:11227   */\n      swap1\n      pop\n        /* \"#utility.yul\":10867:11233   */\n      swap2\n      swap1\n      pop\n      jump\t// out\n        /* \"#utility.yul\":11239:11658   */\n    tag_78:\n        /* \"#utility.yul\":11405:11409   */\n      0x00\n        /* \"#utility.yul\":11443:11445   */\n      0x20\n        /* \"#utility.yul\":11432:11441   */\n      dup3\n        /* \"#utility.yul\":11428:11446   */\n      add\n        /* \"#utility.yul\":11420:11446   */\n      swap1\n      pop\n        /* \"#utility.yul\":11492:11501   */\n      dup2\n        /* \"#utility.yul\":11486:11490   */\n      dup2\n        /* \"#utility.yul\":11482:11502   */\n      sub\n        /* \"#utility.yul\":11478:11479   */\n      0x00\n        /* \"#utility.yul\":11467:11476   */\n      dup4\n        /* \"#utility.yul\":11463:11480   */\n      add\n        /* \"#utility.yul\":11456:11503   */\n      mstore\n        /* \"#utility.yul\":11520:11651   */\n      tag_278\n        /* \"#utility.yul\":11646:11650   */\n      dup2\n        /* \"#utility.yul\":11520:11651   */\n      tag_158\n      jump\t// in\n    tag_278:\n        /* \"#utility.yul\":11512:11651   */\n      swap1\n      pop\n        /* \"#utility.yul\":11239:11658   */\n      swap2\n      swap1\n      pop\n      jump\t// out\n        /* \"#utility.yul\":11664:11825   */\n    tag_159:\n        /* \"#utility.yul\":11804:11817   */\n      0x6f6e6c79206c6561646572000000000000000000000000000000000000000000\n        /* \"#utility.yul\":11800:11801   */\n      0x00\n        /* \"#utility.yul\":11792:11798   */\n      dup3\n        /* \"#utility.yul\":11788:11802   */\n      add\n        /* \"#utility.yul\":11781:11818   */\n      mstore\n        /* \"#utility.yul\":11664:11825   */\n      pop\n      jump\t// out\n        /* \"#utility.yul\":11831:12197   */\n    tag_160:\n        /* \"#utility.yul\":11973:11976   */\n      0x00\n        /* \"#utility.yul\":11994:12061   */\n      tag_281\n        /* \"#utility.yul\":12058:12060   */\n      0x0b\n        /* \"#utility.yul\":12053:12056   */\n      dup4\n        /* \"#utility.yul\":11994:12061   */\n      tag_124\n      jump\t// in\n    tag_281:\n        /* \"#utility.yul\":11987:12061   */\n      swap2\n      pop\n        /* \"#utility.yul\":12070:12163   */\n      tag_282\n        /* \"#utility.yul\":12159:12162   */\n      dup3\n        /* \"#utility.yul\":12070:12163   */\n      tag_159\n      jump\t// in\n    tag_282:\n        /* \"#utility.yul\":12188:12190   */\n      0x20\n        /* \"#utility.yul\":12183:12186   */\n      dup3\n        /* \"#utility.yul\":12179:12191   */\n      add\n        /* \"#utility.yul\":12172:12191   */\n      swap1\n      pop\n        /* \"#utility.yul\":11831:12197   */\n      swap2\n      swap1\n      pop\n      jump\t// out\n        /* \"#utility.yul\":12203:12622   */\n    tag_83:\n        /* \"#utility.yul\":12369:12373   */\n      0x00\n        /* \"#utility.yul\":12407:12409   */\n      0x20\n        /* \"#utility.yul\":12396:12405   */\n      dup3\n        /* \"#utility.yul\":12392:12410   */\n      add\n        /* \"#utility.yul\":12384:12410   */\n      swap1\n      pop\n        /* \"#utility.yul\":12456:12465   */\n      dup2\n        /* \"#utility.yul\":12450:12454   */\n      dup2\n        /* \"#utility.yul\":12446:12466   */\n      sub\n        /* \"#utility.yul\":12442:12443   */\n      0x00\n        /* \"#utility.yul\":12431:12440   */\n      dup4\n        /* \"#utility.yul\":12427:12444   */\n      add\n        /* \"#utility.yul\":12420:12467   */\n      mstore\n        /* \"#utility.yul\":12484:12615   */\n      tag_284\n        /* \"#utility.yul\":12610:12614   */\n      dup2\n        /* \"#utility.yul\":12484:12615   */\n      tag_160\n      jump\t// in\n    tag_284:\n        /* \"#utility.yul\":12476:12615   */\n      swap1\n      pop\n        /* \"#utility.yul\":12203:12622   */\n      swap2\n      swap1\n      pop\n      jump\t// out\n        /* \"#utility.yul\":14516:14730   */\n    tag_167:\n        /* \"#utility.yul\":14656:14722   */\n      0xe5bf85e9a1bbe8afb4e5908ce5bf97e4bbace8be9be88ba6e4ba860000000000\n        /* \"#utility.yul\":14652:14653   */\n      0x00\n        /* \"#utility.yul\":14644:14650   */\n      dup3\n        /* \"#utility.yul\":14640:14654   */\n      add\n        /* \"#utility.yul\":14633:14723   */\n      mstore\n        /* \"#utility.yul\":14516:14730   */\n      pop\n      jump\t// out\n        /* \"#utility.yul\":14736:15102   */\n    tag_168:\n        /* \"#utility.yul\":14878:14881   */\n      0x00\n        /* \"#utility.yul\":14899:14966   */\n      tag_304\n        /* \"#utility.yul\":14963:14965   */\n      0x1b\n        /* \"#utility.yul\":14958:14961   */\n      dup4\n        /* \"#utility.yul\":14899:14966   */\n      tag_124\n      jump\t// in\n    tag_304:\n        /* \"#utility.yul\":14892:14966   */\n      swap2\n      pop\n        /* \"#utility.yul\":14975:15068   */\n      tag_305\n        /* \"#utility.yul\":15064:15067   */\n      dup3\n        /* \"#utility.yul\":14975:15068   */\n      tag_167\n      jump\t// in\n    tag_305:\n        /* \"#utility.yul\":15093:15095   */\n      0x20\n        /* \"#utility.yul\":15088:15091   */\n      dup3\n        /* \"#utility.yul\":15084:15096   */\n      add\n        /* \"#utility.yul\":15077:15096   */\n      swap1\n      pop\n        /* \"#utility.yul\":14736:15102   */\n      swap2\n      swap1\n      pop\n      jump\t// out\n        /* \"#utility.yul\":15108:15527   */\n    tag_98:\n        /* \"#utility.yul\":15274:15278   */\n      0x00\n        /* \"#utility.yul\":15312:15314   */\n      0x20\n        /* \"#utility.yul\":15301:15310   */\n      dup3\n        /* \"#utility.yul\":15297:15315   */\n      add\n        /* \"#utility.yul\":15289:15315   */\n      swap1\n      pop\n        /* \"#utility.yul\":15361:15370   */\n      dup2\n        /* \"#utility.yul\":15355:15359   */\n      dup2\n        /* \"#utility.yul\":15351:15371   */\n      sub\n        /* \"#utility.yul\":15347:15348   */\n      0x00\n        /* \"#utility.yul\":15336:15345   */\n      dup4\n        /* \"#utility.yul\":15332:15349   */\n      add\n        /* \"#utility.yul\":15325:15372   */\n      mstore\n        /* \"#utility.yul\":15389:15520   */\n      tag_307\n        /* \"#utility.yul\":15515:15519   */\n      dup2\n        /* \"#utility.yul\":15389:15520   */\n      tag_168\n      jump\t// in\n    tag_307:\n        /* \"#utility.yul\":15381:15520   */\n      swap1\n      pop\n        /* \"#utility.yul\":15108:15527   */\n      swap2\n      swap1\n      pop\n      jump\t// out\n        /* \"#utility.yul\":15533:15747   */\n    tag_169:\n        /* \"#utility.yul\":15673:15739   */\n      0xe7bb99e992b1e4b88de883bde5b091e4ba8e3120657468657200000000000000\n        /* \"#utility.yul\":15669:15670   */\n      0x00\n        /* \"#utility.yul\":15661:15667   */\n      dup3\n        /* \"#utility.yul\":15657:15671   */\n      add\n        /* \"#utility.yul\":15650:15740   */\n      mstore\n        /* \"#utility.yul\":15533:15747   */\n      pop\n      jump\t// out\n        /* \"#utility.yul\":15753:16119   */\n    tag_170:\n        /* \"#utility.yul\":15895:15898   */\n      0x00\n        /* \"#utility.yul\":15916:15983   */\n      tag_310\n        /* \"#utility.yul\":15980:15982   */\n      0x19\n        /* \"#utility.yul\":15975:15978   */\n      dup4\n        /* \"#utility.yul\":15916:15983   */\n      tag_124\n      jump\t// in\n    tag_310:\n        /* \"#utility.yul\":15909:15983   */\n      swap2\n      pop\n        /* \"#utility.yul\":15992:16085   */\n      tag_311\n        /* \"#utility.yul\":16081:16084   */\n      dup3\n        /* \"#utility.yul\":15992:16085   */\n      tag_169\n      jump\t// in\n    tag_311:\n        /* \"#utility.yul\":16110:16112   */\n      0x20\n        /* \"#utility.yul\":16105:16108   */\n      dup3\n        /* \"#utility.yul\":16101:16113   */\n      add\n        /* \"#utility.yul\":16094:16113   */\n      swap1\n      pop\n        /* \"#utility.yul\":15753:16119   */\n      swap2\n      swap1\n      pop\n      jump\t// out\n        /* \"#utility.yul\":16125:16544   */\n    tag_101:\n        /* \"#utility.yul\":16291:16295   */\n      0x00\n        /* \"#utility.yul\":16329:16331   */\n      0x20\n        /* \"#utility.yul\":16318:16327   */\n      dup3\n        /* \"#utility.yul\":16314:16332   */\n      add\n        /* \"#utility.yul\":16306:16332   */\n      swap1\n      pop\n        /* \"#utility.yul\":16378:16387   */\n      dup2\n        /* \"#utility.yul\":16372:16376   */\n      dup2\n        /* \"#utility.yul\":16368:16388   */\n      sub\n        /* \"#utility.yul\":16364:16365   */\n      0x00\n        /* \"#utility.yul\":16353:16362   */\n      dup4\n        /* \"#utility.yul\":16349:16366   */\n      add\n        /* \"#utility.yul\":16342:16389   */\n      mstore\n        /* \"#utility.yul\":16406:16537   */\n      tag_313\n        /* \"#utility.yul\":16532:16536   */\n      dup2\n        /* \"#utility.yul\":16406:16537   */\n      tag_170\n      jump\t// in\n    tag_313:\n        /* \"#utility.yul\":16398:16537   */\n      swap1\n      pop\n        /* \"#utility.yul\":16125:16544   */\n      swap2\n      swap1\n      pop\n      jump\t// out\n        /* \"#utility.yul\":16550:16707   */\n    tag_171:\n        /* \"#utility.yul\":16690:16699   */\n      0x636f6e666f727400000000000000000000000000000000000000000000000000\n        /* \"#utility.yul\":16686:16687   */\n      0x00\n        /* \"#utility.yul\":16678:16684   */\n      dup3\n        /* \"#utility.yul\":16674:16688   */\n      add\n        /* \"#utility.yul\":16667:16700   */\n      mstore\n        /* \"#utility.yul\":16550:16707   */\n      pop\n      jump\t// out\n        /* \"#utility.yul\":16713:17078   */\n    tag_172:\n        /* \"#utility.yul\":16855:16858   */\n      0x00\n        /* \"#utility.yul\":16876:16942   */\n      tag_316\n        /* \"#utility.yul\":16940:16941   */\n      0x07\n        /* \"#utility.yul\":16935:16938   */\n      dup4\n        /* \"#utility.yul\":16876:16942   */\n      tag_124\n      jump\t// in\n    tag_316:\n        /* \"#utility.yul\":16869:16942   */\n      swap2\n      pop\n        /* \"#utility.yul\":16951:17044   */\n      tag_317\n        /* \"#utility.yul\":17040:17043   */\n      dup3\n        /* \"#utility.yul\":16951:17044   */\n      tag_171\n      jump\t// in\n    tag_317:\n        /* \"#utility.yul\":17069:17071   */\n      0x20\n        /* \"#utility.yul\":17064:17067   */\n      dup3\n        /* \"#utility.yul\":17060:17072   */\n      add\n        /* \"#utility.yul\":17053:17072   */\n      swap1\n      pop\n        /* \"#utility.yul\":16713:17078   */\n      swap2\n      swap1\n      pop\n      jump\t// out\n        /* \"#utility.yul\":17084:17941   */\n    tag_105:\n        /* \"#utility.yul\":17362:17366   */\n      0x00\n        /* \"#utility.yul\":17400:17403   */\n      0x80\n        /* \"#utility.yul\":17389:17398   */\n      dup3\n        /* \"#utility.yul\":17385:17404   */\n      add\n        /* \"#utility.yul\":17377:17404   */\n      swap1\n      pop\n        /* \"#utility.yul\":17450:17459   */\n      dup2\n        /* \"#utility.yul\":17444:17448   */\n      dup2\n        /* \"#utility.yul\":17440:17460   */\n      sub\n        /* \"#utility.yul\":17436:17437   */\n      0x00\n        /* \"#utility.yul\":17425:17434   */\n      dup4\n        /* \"#utility.yul\":17421:17438   */\n      add\n        /* \"#utility.yul\":17414:17461   */\n      mstore\n        /* \"#utility.yul\":17478:17609   */\n      tag_319\n        /* \"#utility.yul\":17604:17608   */\n      dup2\n        /* \"#utility.yul\":17478:17609   */\n      tag_172\n      jump\t// in\n    tag_319:\n        /* \"#utility.yul\":17470:17609   */\n      swap1\n      pop\n        /* \"#utility.yul\":17619:17691   */\n      tag_320\n        /* \"#utility.yul\":17687:17689   */\n      0x20\n        /* \"#utility.yul\":17676:17685   */\n      dup4\n        /* \"#utility.yul\":17672:17690   */\n      add\n        /* \"#utility.yul\":17663:17669   */\n      dup8\n        /* \"#utility.yul\":17619:17691   */\n      tag_129\n      jump\t// in\n    tag_320:\n        /* \"#utility.yul\":17701:17773   */\n      tag_321\n        /* \"#utility.yul\":17769:17771   */\n      0x40\n        /* \"#utility.yul\":17758:17767   */\n      dup4\n        /* \"#utility.yul\":17754:17772   */\n      add\n        /* \"#utility.yul\":17745:17751   */\n      dup7\n        /* \"#utility.yul\":17701:17773   */\n      tag_131\n      jump\t// in\n    tag_321:\n        /* \"#utility.yul\":17820:17829   */\n      dup2\n        /* \"#utility.yul\":17814:17818   */\n      dup2\n        /* \"#utility.yul\":17810:17830   */\n      sub\n        /* \"#utility.yul\":17805:17807   */\n      0x60\n        /* \"#utility.yul\":17794:17803   */\n      dup4\n        /* \"#utility.yul\":17790:17808   */\n      add\n        /* \"#utility.yul\":17783:17831   */\n      mstore\n        /* \"#utility.yul\":17848:17934   */\n      tag_322\n        /* \"#utility.yul\":17929:17933   */\n      dup2\n        /* \"#utility.yul\":17920:17926   */\n      dup5\n        /* \"#utility.yul\":17912:17918   */\n      dup7\n        /* \"#utility.yul\":17848:17934   */\n      tag_137\n      jump\t// in\n    tag_322:\n        /* \"#utility.yul\":17840:17934   */\n      swap1\n      pop\n        /* \"#utility.yul\":17084:17941   */\n      swap6\n      swap5\n      pop\n      pop\n      pop\n      pop\n      pop\n      jump\t// out\n        /* \"#utility.yul\":17947:18161   */\n    tag_173:\n        /* \"#utility.yul\":18087:18153   */\n      0xe5bf85e9a1bbe8afb4e5908ce5bf97e4bbace5a5bd0000000000000000000000\n        /* \"#utility.yul\":18083:18084   */\n      0x00\n        /* \"#utility.yul\":18075:18081   */\n      dup3\n        /* \"#utility.yul\":18071:18085   */\n      add\n        /* \"#utility.yul\":18064:18154   */\n      mstore\n        /* \"#utility.yul\":17947:18161   */\n      pop\n      jump\t// out\n        /* \"#utility.yul\":18167:18533   */\n    tag_174:\n        /* \"#utility.yul\":18309:18312   */\n      0x00\n        /* \"#utility.yul\":18330:18397   */\n      tag_325\n        /* \"#utility.yul\":18394:18396   */\n      0x15\n        /* \"#utility.yul\":18389:18392   */\n      dup4\n        /* \"#utility.yul\":18330:18397   */\n      tag_124\n      jump\t// in\n    tag_325:\n        /* \"#utility.yul\":18323:18397   */\n      swap2\n      pop\n        /* \"#utility.yul\":18406:18499   */\n      tag_326\n        /* \"#utility.yul\":18495:18498   */\n      dup3\n        /* \"#utility.yul\":18406:18499   */\n      tag_173\n      jump\t// in\n    tag_326:\n        /* \"#utility.yul\":18524:18526   */\n      0x20\n        /* \"#utility.yul\":18519:18522   */\n      dup3\n        /* \"#utility.yul\":18515:18527   */\n      add\n        /* \"#utility.yul\":18508:18527   */\n      swap1\n      pop\n        /* \"#utility.yul\":18167:18533   */\n      swap2\n      swap1\n      pop\n      jump\t// out\n        /* \"#utility.yul\":18539:18958   */\n    tag_115:\n        /* \"#utility.yul\":18705:18709   */\n      0x00\n        /* \"#utility.yul\":18743:18745   */\n      0x20\n        /* \"#utility.yul\":18732:18741   */\n      dup3\n        /* \"#utility.yul\":18728:18746   */\n      add\n        /* \"#utility.yul\":18720:18746   */\n      swap1\n      pop\n        /* \"#utility.yul\":18792:18801   */\n      dup2\n        /* \"#utility.yul\":18786:18790   */\n      dup2\n        /* \"#utility.yul\":18782:18802   */\n      sub\n        /* \"#utility.yul\":18778:18779   */\n      0x00\n        /* \"#utility.yul\":18767:18776   */\n      dup4\n        /* \"#utility.yul\":18763:18780   */\n      add\n        /* \"#utility.yul\":18756:18803   */\n      mstore\n        /* \"#utility.yul\":18820:18951   */\n      tag_328\n        /* \"#utility.yul\":18946:18950   */\n      dup2\n        /* \"#utility.yul\":18820:18951   */\n      tag_174\n      jump\t// in\n    tag_328:\n        /* \"#utility.yul\":18812:18951   */\n      swap1\n      pop\n        /* \"#utility.yul\":18539:18958   */\n      swap2\n      swap1\n      pop\n      jump\t// out\n        /* \"#utility.yul\":18964:19112   */\n    tag_175:\n        /* \"#utility.yul\":19066:19077   */\n      0x00\n        /* \"#utility.yul\":19103:19106   */\n      dup2\n        /* \"#utility.yul\":19088:19106   */\n      swap1\n      pop\n        /* \"#utility.yul\":18964:19112   */\n      swap3\n      swap2\n      pop\n      pop\n      jump\t// out\n        /* \"#utility.yul\":19118:19508   */\n    tag_176:\n        /* \"#utility.yul\":19224:19227   */\n      0x00\n        /* \"#utility.yul\":19252:19291   */\n      tag_331\n        /* \"#utility.yul\":19285:19290   */\n      dup3\n        /* \"#utility.yul\":19252:19291   */\n      tag_151\n      jump\t// in\n    tag_331:\n        /* \"#utility.yul\":19307:19396   */\n      tag_332\n        /* \"#utility.yul\":19389:19395   */\n      dup2\n        /* \"#utility.yul\":19384:19387   */\n      dup6\n        /* \"#utility.yul\":19307:19396   */\n      tag_175\n      jump\t// in\n    tag_332:\n        /* \"#utility.yul\":19300:19396   */\n      swap4\n      pop\n        /* \"#utility.yul\":19405:19470   */\n      tag_333\n        /* \"#utility.yul\":19463:19469   */\n      dup2\n        /* \"#utility.yul\":19458:19461   */\n      dup6\n        /* \"#utility.yul\":19451:19455   */\n      0x20\n        /* \"#utility.yul\":19444:19449   */\n      dup7\n        /* \"#utility.yul\":19440:19456   */\n      add\n        /* \"#utility.yul\":19405:19470   */\n      tag_152\n      jump\t// in\n    tag_333:\n        /* \"#utility.yul\":19495:19501   */\n      dup1\n        /* \"#utility.yul\":19490:19493   */\n      dup5\n        /* \"#utility.yul\":19486:19502   */\n      add\n        /* \"#utility.yul\":19479:19502   */\n      swap2\n      pop\n        /* \"#utility.yul\":19228:19508   */\n      pop\n        /* \"#utility.yul\":19118:19508   */\n      swap3\n      swap2\n      pop\n      pop\n      jump\t// out\n        /* \"#utility.yul\":19514:19789   */\n    tag_120:\n        /* \"#utility.yul\":19646:19649   */\n      0x00\n        /* \"#utility.yul\":19668:19763   */\n      tag_335\n        /* \"#utility.yul\":19759:19762   */\n      dup3\n        /* \"#utility.yul\":19750:19756   */\n      dup5\n        /* \"#utility.yul\":19668:19763   */\n      tag_176\n      jump\t// in\n    tag_335:\n        /* \"#utility.yul\":19661:19763   */\n      swap2\n      pop\n        /* \"#utility.yul\":19780:19783   */\n      dup2\n        /* \"#utility.yul\":19773:19783   */\n      swap1\n      pop\n        /* \"#utility.yul\":19514:19789   */\n      swap3\n      swap2\n      pop\n      pop\n      jump\t// out\n        /* \"#utility.yul\":19819:20149   */\n    tag_177:\n        /* \"#utility.yul\":19935:19938   */\n      0x00\n        /* \"#utility.yul\":19956:20045   */\n      tag_337\n        /* \"#utility.yul\":20038:20044   */\n      dup4\n        /* \"#utility.yul\":20033:20036   */\n      dup6\n        /* \"#utility.yul\":19956:20045   */\n      tag_175\n      jump\t// in\n    tag_337:\n        /* \"#utility.yul\":19949:20045   */\n      swap4\n      pop\n        /* \"#utility.yul\":20055:20111   */\n      tag_338\n        /* \"#utility.yul\":20104:20110   */\n      dup4\n        /* \"#utility.yul\":20099:20102   */\n      dup6\n        /* \"#utility.yul\":20092:20097   */\n      dup5\n        /* \"#utility.yul\":20055:20111   */\n      tag_135\n      jump\t// in\n    tag_338:\n        /* \"#utility.yul\":20136:20142   */\n      dup3\n        /* \"#utility.yul\":20131:20134   */\n      dup5\n        /* \"#utility.yul\":20127:20143   */\n      add\n        /* \"#utility.yul\":20120:20143   */\n      swap1\n      pop\n        /* \"#utility.yul\":19819:20149   */\n      swap4\n      swap3\n      pop\n      pop\n      pop\n      jump\t// out\n        /* \"#utility.yul\":20155:20450   */\n    tag_122:\n        /* \"#utility.yul\":20297:20300   */\n      0x00\n        /* \"#utility.yul\":20319:20424   */\n      tag_340\n        /* \"#utility.yul\":20420:20423   */\n      dup3\n        /* \"#utility.yul\":20411:20417   */\n      dup5\n        /* \"#utility.yul\":20403:20409   */\n      dup7\n        /* \"#utility.yul\":20319:20424   */\n      tag_177\n      jump\t// in\n    tag_340:\n        /* \"#utility.yul\":20312:20424   */\n      swap2\n      pop\n        /* \"#utility.yul\":20441:20444   */\n      dup2\n        /* \"#utility.yul\":20434:20444   */\n      swap1\n      pop\n        /* \"#utility.yul\":20155:20450   */\n      swap4\n      swap3\n      pop\n      pop\n      pop\n      jump\t// out\n    stop\n    data_4300302043d265546f688f77616bd17aac2a8da70e24acb13e662a44edf5afd0 e69caae79fa5e99499e8afafefbc8ce8afb7e88194e7b3bbe79bb8e585b3e4babae59198\n\n    auxdata: 0xa2646970667358221220f504c0490154050b83954aea26509cc01a51713a03e3b09635d6af87d487073164736f6c63430008160033\n}\n",
				"bytecode": {
					"linkReferences": {},
					"object": "60a060405234801562000010575f80fd5b50604051620016a6380380620016a6833981810160405281019062000036919062000147565b5f73ffffffffffffffffffffffffffffffffffffffff168173ffffffffffffffffffffffffffffffffffffffff1603620000a7576040517f08c379a00000000000000000000000000000000000000000000000000000000081526004016200009e90620001d5565b60405180910390fd5b8073ffffffffffffffffffffffffffffffffffffffff1660808173ffffffffffffffffffffffffffffffffffffffff168152505050620001f5565b5f80fd5b5f73ffffffffffffffffffffffffffffffffffffffff82169050919050565b5f6200011182620000e6565b9050919050565b620001238162000105565b81146200012e575f80fd5b50565b5f81519050620001418162000118565b92915050565b5f602082840312156200015f576200015e620000e2565b5b5f6200016e8482850162000131565b91505092915050565b5f82825260208201905092915050565b7fe9a286e5afbce59cb0e59d80e99499e8afaf00000000000000000000000000005f82015250565b5f620001bd60128362000177565b9150620001ca8262000187565b602082019050919050565b5f6020820190508181035f830152620001ee81620001af565b9050919050565b60805161146e620002385f395f81816102430152818161043b015281816105ef015281816106e901528181610723015281816109a201526109c7015261146e5ff3fe608060405260043610610073575f3560e01c80632c49549b1161004d5780632c49549b1461018057806340eedabb146101b0578063a777d0dc146101da578063e25fe17514610216576100b3565b806312c397ef146100f257806320f6adbb1461012e5780632b68b9c61461016a576100b3565b366100b3577ff7f75251dee7d7fc22deac3247729ebe7c86541f35930bf10c2a4207479a3b6c33346040516100a9929190610d1a565b60405180910390a1005b7ff7f75251dee7d7fc22deac3247729ebe7c86541f35930bf10c2a4207479a3b6c33345f366040516100e89493929190610db1565b60405180910390a1005b3480156100fd575f80fd5b5061011860048036038101906101139190610e6b565b610240565b6040516101259190610ed0565b60405180910390f35b348015610139575f80fd5b50610154600480360381019061014f9190610e6b565b610438565b6040516101619190610ed0565b60405180910390f35b348015610175575f80fd5b5061017e6105ed565b005b61019a60048036038101906101959190610e6b565b610720565b6040516101a79190610ed0565b60405180910390f35b3480156101bb575f80fd5b506101c46109a0565b6040516101d19190610ee9565b60405180910390f35b3480156101e5575f80fd5b5061020060048036038101906101fb9190610e6b565b6109c4565b60405161020d9190610ed0565b60405180910390f35b348015610221575f80fd5b5061022a610bbc565b6040516102379190610f1d565b60405180910390f35b5f7f000000000000000000000000000000000000000000000000000000000000000073ffffffffffffffffffffffffffffffffffffffff163373ffffffffffffffffffffffffffffffffffffffff16036102cf576040517f08c379a00000000000000000000000000000000000000000000000000000000081526004016102c690610f80565b60405180910390fd5b60015f8054906101000a900460ff1660ff161461033b57604051806060016040528060248152602001611415602491396040517f08c379a00000000000000000000000000000000000000000000000000000000081526004016103329190611008565b60405180910390fd5b61037b83836040518060400160405280600981526020017fe9a286e5afbce5a5bd0000000000000000000000000000000000000000000000815250610bcc565b6103ba576040517f8b3d2d430000000000000000000000000000000000000000000000000000000081526004016103b190611072565b60405180910390fd5b5f8081819054906101000a900460ff166103d3906110bd565b91906101000a81548160ff021916908360ff1602179055507ff39143d48d073ee18f9a08fcabdbd340be0b2a698e3e45fc3b4318251131b4fc5f8054906101000a900460ff166040516104269190610f1d565b60405180910390a16001905092915050565b5f7f000000000000000000000000000000000000000000000000000000000000000073ffffffffffffffffffffffffffffffffffffffff163373ffffffffffffffffffffffffffffffffffffffff16036104c7576040517f08c379a00000000000000000000000000000000000000000000000000000000081526004016104be90610f80565b60405180910390fd5b60035f8054906101000a900460ff1660ff161461053357604051806060016040528060248152602001611415602491396040517f08c379a000000000000000000000000000000000000000000000000000000000815260040161052a9190611008565b60405180910390fd5b61057383836040518060400160405280600f81526020017fe4b8bae4babae5908de69c8de58aa10000000000000000000000000000000000815250610bcc565b6105b2576040517f8b3d2d430000000000000000000000000000000000000000000000000000000081526004016105a99061112f565b60405180910390fd5b5f8081819054906101000a900460ff166105cb906110bd565b91906101000a81548160ff021916908360ff1602179055506001905092915050565b7f000000000000000000000000000000000000000000000000000000000000000073ffffffffffffffffffffffffffffffffffffffff163373ffffffffffffffffffffffffffffffffffffffff161461067b576040517f08c379a000000000000000000000000000000000000000000000000000000000815260040161067290611197565b60405180910390fd5b60045f8054906101000a900460ff1660ff16146106e757604051806060016040528060248152602001611415602491396040517f08c379a00000000000000000000000000000000000000000000000000000000081526004016106de9190611008565b60405180910390fd5b7f000000000000000000000000000000000000000000000000000000000000000073ffffffffffffffffffffffffffffffffffffffff16ff5b5f7f000000000000000000000000000000000000000000000000000000000000000073ffffffffffffffffffffffffffffffffffffffff163373ffffffffffffffffffffffffffffffffffffffff16146107af576040517f08c379a00000000000000000000000000000000000000000000000000000000081526004016107a690611197565b60405180910390fd5b60025f8054906101000a900460ff1660ff161461081b57604051806060016040528060248152602001611415602491396040517f08c379a00000000000000000000000000000000000000000000000000000000081526004016108129190611008565b60405180910390fd5b61085b83836040518060400160405280601281526020017fe5908ce5bf97e4bbace8be9be88ba6e4ba860000000000000000000000000000815250610bcc565b61089a576040517f8b3d2d43000000000000000000000000000000000000000000000000000000008152600401610891906111ff565b60405180910390fd5b670de0b6b3a76400003410156108e5576040517f08c379a00000000000000000000000000000000000000000000000000000000081526004016108dc90611267565b60405180910390fd5b5f8081819054906101000a900460ff166108fe906110bd565b91906101000a81548160ff021916908360ff1602179055507ff39143d48d073ee18f9a08fcabdbd340be0b2a698e3e45fc3b4318251131b4fc5f8054906101000a900460ff166040516109519190610f1d565b60405180910390a17ff7f75251dee7d7fc22deac3247729ebe7c86541f35930bf10c2a4207479a3b6c33345f3660405161098e94939291906112cf565b60405180910390a16001905092915050565b7f000000000000000000000000000000000000000000000000000000000000000081565b5f7f000000000000000000000000000000000000000000000000000000000000000073ffffffffffffffffffffffffffffffffffffffff163373ffffffffffffffffffffffffffffffffffffffff1614610a53576040517f08c379a0000000000000000000000000000000000000000000000000000000008152600401610a4a90611197565b60405180910390fd5b5f805f9054906101000a900460ff1660ff1614610abf57604051806060016040528060248152602001611415602491396040517f08c379a0000000000000000000000000000000000000000000000000000000008152600401610ab69190611008565b60405180910390fd5b610aff83836040518060400160405280600c81526020017fe5908ce5bf97e4bbace5a5bd0000000000000000000000000000000000000000815250610bcc565b610b3e576040517f8b3d2d43000000000000000000000000000000000000000000000000000000008152600401610b359061136a565b60405180910390fd5b5f8081819054906101000a900460ff16610b57906110bd565b91906101000a81548160ff021916908360ff1602179055507ff39143d48d073ee18f9a08fcabdbd340be0b2a698e3e45fc3b4318251131b4fc5f8054906101000a900460ff16604051610baa9190610f1d565b60405180910390a16001905092915050565b5f8054906101000a900460ff1681565b5f81604051602001610bde91906113c2565b604051602081830303815290604052805190602001208484604051602001610c079291906113fc565b6040516020818303038152906040528051906020012003610c2b5760019050610c2f565b5f90505b9392505050565b5f82825260208201905092915050565b7f72656365697665000000000000000000000000000000000000000000000000005f82015250565b5f610c7a600783610c36565b9150610c8582610c46565b602082019050919050565b5f73ffffffffffffffffffffffffffffffffffffffff82169050919050565b5f610cb982610c90565b9050919050565b610cc981610caf565b82525050565b5f819050919050565b610ce181610ccf565b82525050565b5f82825260208201905092915050565b50565b5f610d055f83610ce7565b9150610d1082610cf7565b5f82019050919050565b5f6080820190508181035f830152610d3181610c6e565b9050610d406020830185610cc0565b610d4d6040830184610cd8565b8181036060830152610d5e81610cfa565b90509392505050565b828183375f83830152505050565b5f601f19601f8301169050919050565b5f610d908385610ce7565b9350610d9d838584610d67565b610da683610d75565b840190509392505050565b5f6080820190508181035f830152610dc881610c6e565b9050610dd76020830187610cc0565b610de46040830186610cd8565b8181036060830152610df7818486610d85565b905095945050505050565b5f80fd5b5f80fd5b5f80fd5b5f80fd5b5f80fd5b5f8083601f840112610e2b57610e2a610e0a565b5b8235905067ffffffffffffffff811115610e4857610e47610e0e565b5b602083019150836001820283011115610e6457610e63610e12565b5b9250929050565b5f8060208385031215610e8157610e80610e02565b5b5f83013567ffffffffffffffff811115610e9e57610e9d610e06565b5b610eaa85828601610e16565b92509250509250929050565b5f8115159050919050565b610eca81610eb6565b82525050565b5f602082019050610ee35f830184610ec1565b92915050565b5f602082019050610efc5f830184610cc0565b92915050565b5f60ff82169050919050565b610f1781610f02565b82525050565b5f602082019050610f305f830184610f0e565b92915050565b7f63616e74206c65616465720000000000000000000000000000000000000000005f82015250565b5f610f6a600b83610c36565b9150610f7582610f36565b602082019050919050565b5f6020820190508181035f830152610f9781610f5e565b9050919050565b5f81519050919050565b5f5b83811015610fc5578082015181840152602081019050610faa565b5f8484015250505050565b5f610fda82610f9e565b610fe48185610c36565b9350610ff4818560208601610fa8565b610ffd81610d75565b840191505092915050565b5f6020820190508181035f8301526110208184610fd0565b905092915050565b7fe5bf85e9a1bbe8afb4e9a286e5afbce5a5bd00000000000000000000000000005f82015250565b5f61105c601283610c36565b915061106782611028565b602082019050919050565b5f6020820190508181035f83015261108981611050565b9050919050565b7f4e487b71000000000000000000000000000000000000000000000000000000005f52601160045260245ffd5b5f6110c782610f02565b915060ff82036110da576110d9611090565b5b600182019050919050565b7fe5bf85e9a1bbe8afb4e4b8bae4babae5908de69c8de58aa100000000000000005f82015250565b5f611119601883610c36565b9150611124826110e5565b602082019050919050565b5f6020820190508181035f8301526111468161110d565b9050919050565b7f6f6e6c79206c65616465720000000000000000000000000000000000000000005f82015250565b5f611181600b83610c36565b915061118c8261114d565b602082019050919050565b5f6020820190508181035f8301526111ae81611175565b9050919050565b7fe5bf85e9a1bbe8afb4e5908ce5bf97e4bbace8be9be88ba6e4ba8600000000005f82015250565b5f6111e9601b83610c36565b91506111f4826111b5565b602082019050919050565b5f6020820190508181035f830152611216816111dd565b9050919050565b7fe7bb99e992b1e4b88de883bde5b091e4ba8e31206574686572000000000000005f82015250565b5f611251601983610c36565b915061125c8261121d565b602082019050919050565b5f6020820190508181035f83015261127e81611245565b9050919050565b7f636f6e666f7274000000000000000000000000000000000000000000000000005f82015250565b5f6112b9600783610c36565b91506112c482611285565b602082019050919050565b5f6080820190508181035f8301526112e6816112ad565b90506112f56020830187610cc0565b6113026040830186610cd8565b8181036060830152611315818486610d85565b905095945050505050565b7fe5bf85e9a1bbe8afb4e5908ce5bf97e4bbace5a5bd00000000000000000000005f82015250565b5f611354601583610c36565b915061135f82611320565b602082019050919050565b5f6020820190508181035f83015261138181611348565b9050919050565b5f81905092915050565b5f61139c82610f9e565b6113a68185611388565b93506113b6818560208601610fa8565b80840191505092915050565b5f6113cd8284611392565b915081905092915050565b5f6113e38385611388565b93506113f0838584610d67565b82840190509392505050565b5f6114088284866113d8565b9150819050939250505056fee69caae79fa5e99499e8afafefbc8ce8afb7e88194e7b3bbe79bb8e585b3e4babae59198a2646970667358221220f504c0490154050b83954aea26509cc01a51713a03e3b09635d6af87d487073164736f6c63430008160033",
					"opcodes": "PUSH1 0xA0 PUSH1 0x40 MSTORE CALLVALUE DUP1 ISZERO PUSH3 0x10 JUMPI PUSH0 DUP1 REVERT JUMPDEST POP PUSH1 0x40 MLOAD PUSH3 0x16A6 CODESIZE SUB DUP1 PUSH3 0x16A6 DUP4 CODECOPY DUP2 DUP2 ADD PUSH1 0x40 MSTORE DUP2 ADD SWAP1 PUSH3 0x36 SWAP2 SWAP1 PUSH3 0x147 JUMP JUMPDEST PUSH0 PUSH20 0xFFFFFFFFFFFFFFFFFFFFFFFFFFFFFFFFFFFFFFFF AND DUP2 PUSH20 0xFFFFFFFFFFFFFFFFFFFFFFFFFFFFFFFFFFFFFFFF AND SUB PUSH3 0xA7 JUMPI PUSH1 0x40 MLOAD PUSH32 0x8C379A000000000000000000000000000000000000000000000000000000000 DUP2 MSTORE PUSH1 0x4 ADD PUSH3 0x9E SWAP1 PUSH3 0x1D5 JUMP JUMPDEST PUSH1 0x40 MLOAD DUP1 SWAP2 SUB SWAP1 REVERT JUMPDEST DUP1 PUSH20 0xFFFFFFFFFFFFFFFFFFFFFFFFFFFFFFFFFFFFFFFF AND PUSH1 0x80 DUP2 PUSH20 0xFFFFFFFFFFFFFFFFFFFFFFFFFFFFFFFFFFFFFFFF AND DUP2 MSTORE POP POP POP PUSH3 0x1F5 JUMP JUMPDEST PUSH0 DUP1 REVERT JUMPDEST PUSH0 PUSH20 0xFFFFFFFFFFFFFFFFFFFFFFFFFFFFFFFFFFFFFFFF DUP3 AND SWAP1 POP SWAP2 SWAP1 POP JUMP JUMPDEST PUSH0 PUSH3 0x111 DUP3 PUSH3 0xE6 JUMP JUMPDEST SWAP1 POP SWAP2 SWAP1 POP JUMP JUMPDEST PUSH3 0x123 DUP2 PUSH3 0x105 JUMP JUMPDEST DUP2 EQ PUSH3 0x12E JUMPI PUSH0 DUP1 REVERT JUMPDEST POP JUMP JUMPDEST PUSH0 DUP2 MLOAD SWAP1 POP PUSH3 0x141 DUP2 PUSH3 0x118 JUMP JUMPDEST SWAP3 SWAP2 POP POP JUMP JUMPDEST PUSH0 PUSH1 0x20 DUP3 DUP5 SUB SLT ISZERO PUSH3 0x15F JUMPI PUSH3 0x15E PUSH3 0xE2 JUMP JUMPDEST JUMPDEST PUSH0 PUSH3 0x16E DUP5 DUP3 DUP6 ADD PUSH3 0x131 JUMP JUMPDEST SWAP2 POP POP SWAP3 SWAP2 POP POP JUMP JUMPDEST PUSH0 DUP3 DUP3 MSTORE PUSH1 0x20 DUP3 ADD SWAP1 POP SWAP3 SWAP2 POP POP JUMP JUMPDEST PUSH32 0xE9A286E5AFBCE59CB0E59D80E99499E8AFAF0000000000000000000000000000 PUSH0 DUP3 ADD MSTORE POP JUMP JUMPDEST PUSH0 PUSH3 0x1BD PUSH1 0x12 DUP4 PUSH3 0x177 JUMP JUMPDEST SWAP2 POP PUSH3 0x1CA DUP3 PUSH3 0x187 JUMP JUMPDEST PUSH1 0x20 DUP3 ADD SWAP1 POP SWAP2 SWAP1 POP JUMP JUMPDEST PUSH0 PUSH1 0x20 DUP3 ADD SWAP1 POP DUP2 DUP2 SUB PUSH0 DUP4 ADD MSTORE PUSH3 0x1EE DUP2 PUSH3 0x1AF JUMP JUMPDEST SWAP1 POP SWAP2 SWAP1 POP JUMP JUMPDEST PUSH1 0x80 MLOAD PUSH2 0x146E PUSH3 0x238 PUSH0 CODECOPY PUSH0 DUP2 DUP2 PUSH2 0x243 ADD MSTORE DUP2 DUP2 PUSH2 0x43B ADD MSTORE DUP2 DUP2 PUSH2 0x5EF ADD MSTORE DUP2 DUP2 PUSH2 0x6E9 ADD MSTORE DUP2 DUP2 PUSH2 0x723 ADD MSTORE DUP2 DUP2 PUSH2 0x9A2 ADD MSTORE PUSH2 0x9C7 ADD MSTORE PUSH2 0x146E PUSH0 RETURN INVALID PUSH1 0x80 PUSH1 0x40 MSTORE PUSH1 0x4 CALLDATASIZE LT PUSH2 0x73 JUMPI PUSH0 CALLDATALOAD PUSH1 0xE0 SHR DUP1 PUSH4 0x2C49549B GT PUSH2 0x4D JUMPI DUP1 PUSH4 0x2C49549B EQ PUSH2 0x180 JUMPI DUP1 PUSH4 0x40EEDABB EQ PUSH2 0x1B0 JUMPI DUP1 PUSH4 0xA777D0DC EQ PUSH2 0x1DA JUMPI DUP1 PUSH4 0xE25FE175 EQ PUSH2 0x216 JUMPI PUSH2 0xB3 JUMP JUMPDEST DUP1 PUSH4 0x12C397EF EQ PUSH2 0xF2 JUMPI DUP1 PUSH4 0x20F6ADBB EQ PUSH2 0x12E JUMPI DUP1 PUSH4 0x2B68B9C6 EQ PUSH2 0x16A JUMPI PUSH2 0xB3 JUMP JUMPDEST CALLDATASIZE PUSH2 0xB3 JUMPI PUSH32 0xF7F75251DEE7D7FC22DEAC3247729EBE7C86541F35930BF10C2A4207479A3B6C CALLER CALLVALUE PUSH1 0x40 MLOAD PUSH2 0xA9 SWAP3 SWAP2 SWAP1 PUSH2 0xD1A JUMP JUMPDEST PUSH1 0x40 MLOAD DUP1 SWAP2 SUB SWAP1 LOG1 STOP JUMPDEST PUSH32 0xF7F75251DEE7D7FC22DEAC3247729EBE7C86541F35930BF10C2A4207479A3B6C CALLER CALLVALUE PUSH0 CALLDATASIZE PUSH1 0x40 MLOAD PUSH2 0xE8 SWAP5 SWAP4 SWAP3 SWAP2 SWAP1 PUSH2 0xDB1 JUMP JUMPDEST PUSH1 0x40 MLOAD DUP1 SWAP2 SUB SWAP1 LOG1 STOP JUMPDEST CALLVALUE DUP1 ISZERO PUSH2 0xFD JUMPI PUSH0 DUP1 REVERT JUMPDEST POP PUSH2 0x118 PUSH1 0x4 DUP1 CALLDATASIZE SUB DUP2 ADD SWAP1 PUSH2 0x113 SWAP2 SWAP1 PUSH2 0xE6B JUMP JUMPDEST PUSH2 0x240 JUMP JUMPDEST PUSH1 0x40 MLOAD PUSH2 0x125 SWAP2 SWAP1 PUSH2 0xED0 JUMP JUMPDEST PUSH1 0x40 MLOAD DUP1 SWAP2 SUB SWAP1 RETURN JUMPDEST CALLVALUE DUP1 ISZERO PUSH2 0x139 JUMPI PUSH0 DUP1 REVERT JUMPDEST POP PUSH2 0x154 PUSH1 0x4 DUP1 CALLDATASIZE SUB DUP2 ADD SWAP1 PUSH2 0x14F SWAP2 SWAP1 PUSH2 0xE6B JUMP JUMPDEST PUSH2 0x438 JUMP JUMPDEST PUSH1 0x40 MLOAD PUSH2 0x161 SWAP2 SWAP1 PUSH2 0xED0 JUMP JUMPDEST PUSH1 0x40 MLOAD DUP1 SWAP2 SUB SWAP1 RETURN JUMPDEST CALLVALUE DUP1 ISZERO PUSH2 0x175 JUMPI PUSH0 DUP1 REVERT JUMPDEST POP PUSH2 0x17E PUSH2 0x5ED JUMP JUMPDEST STOP JUMPDEST PUSH2 0x19A PUSH1 0x4 DUP1 CALLDATASIZE SUB DUP2 ADD SWAP1 PUSH2 0x195 SWAP2 SWAP1 PUSH2 0xE6B JUMP JUMPDEST PUSH2 0x720 JUMP JUMPDEST PUSH1 0x40 MLOAD PUSH2 0x1A7 SWAP2 SWAP1 PUSH2 0xED0 JUMP JUMPDEST PUSH1 0x40 MLOAD DUP1 SWAP2 SUB SWAP1 RETURN JUMPDEST CALLVALUE DUP1 ISZERO PUSH2 0x1BB JUMPI PUSH0 DUP1 REVERT JUMPDEST POP PUSH2 0x1C4 PUSH2 0x9A0 JUMP JUMPDEST PUSH1 0x40 MLOAD PUSH2 0x1D1 SWAP2 SWAP1 PUSH2 0xEE9 JUMP JUMPDEST PUSH1 0x40 MLOAD DUP1 SWAP2 SUB SWAP1 RETURN JUMPDEST CALLVALUE DUP1 ISZERO PUSH2 0x1E5 JUMPI PUSH0 DUP1 REVERT JUMPDEST POP PUSH2 0x200 PUSH1 0x4 DUP1 CALLDATASIZE SUB DUP2 ADD SWAP1 PUSH2 0x1FB SWAP2 SWAP1 PUSH2 0xE6B JUMP JUMPDEST PUSH2 0x9C4 JUMP JUMPDEST PUSH1 0x40 MLOAD PUSH2 0x20D SWAP2 SWAP1 PUSH2 0xED0 JUMP JUMPDEST PUSH1 0x40 MLOAD DUP1 SWAP2 SUB SWAP1 RETURN JUMPDEST CALLVALUE DUP1 ISZERO PUSH2 0x221 JUMPI PUSH0 DUP1 REVERT JUMPDEST POP PUSH2 0x22A PUSH2 0xBBC JUMP JUMPDEST PUSH1 0x40 MLOAD PUSH2 0x237 SWAP2 SWAP1 PUSH2 0xF1D JUMP JUMPDEST PUSH1 0x40 MLOAD DUP1 SWAP2 SUB SWAP1 RETURN JUMPDEST PUSH0 PUSH32 0x0 PUSH20 0xFFFFFFFFFFFFFFFFFFFFFFFFFFFFFFFFFFFFFFFF AND CALLER PUSH20 0xFFFFFFFFFFFFFFFFFFFFFFFFFFFFFFFFFFFFFFFF AND SUB PUSH2 0x2CF JUMPI PUSH1 0x40 MLOAD PUSH32 0x8C379A000000000000000000000000000000000000000000000000000000000 DUP2 MSTORE PUSH1 0x4 ADD PUSH2 0x2C6 SWAP1 PUSH2 0xF80 JUMP JUMPDEST PUSH1 0x40 MLOAD DUP1 SWAP2 SUB SWAP1 REVERT JUMPDEST PUSH1 0x1 PUSH0 DUP1 SLOAD SWAP1 PUSH2 0x100 EXP SWAP1 DIV PUSH1 0xFF AND PUSH1 0xFF AND EQ PUSH2 0x33B JUMPI PUSH1 0x40 MLOAD DUP1 PUSH1 0x60 ADD PUSH1 0x40 MSTORE DUP1 PUSH1 0x24 DUP2 MSTORE PUSH1 0x20 ADD PUSH2 0x1415 PUSH1 0x24 SWAP2 CODECOPY PUSH1 0x40 MLOAD PUSH32 0x8C379A000000000000000000000000000000000000000000000000000000000 DUP2 MSTORE PUSH1 0x4 ADD PUSH2 0x332 SWAP2 SWAP1 PUSH2 0x1008 JUMP JUMPDEST PUSH1 0x40 MLOAD DUP1 SWAP2 SUB SWAP1 REVERT JUMPDEST PUSH2 0x37B DUP4 DUP4 PUSH1 0x40 MLOAD DUP1 PUSH1 0x40 ADD PUSH1 0x40 MSTORE DUP1 PUSH1 0x9 DUP2 MSTORE PUSH1 0x20 ADD PUSH32 0xE9A286E5AFBCE5A5BD0000000000000000000000000000000000000000000000 DUP2 MSTORE POP PUSH2 0xBCC JUMP JUMPDEST PUSH2 0x3BA JUMPI PUSH1 0x40 MLOAD PUSH32 0x8B3D2D4300000000000000000000000000000000000000000000000000000000 DUP2 MSTORE PUSH1 0x4 ADD PUSH2 0x3B1 SWAP1 PUSH2 0x1072 JUMP JUMPDEST PUSH1 0x40 MLOAD DUP1 SWAP2 SUB SWAP1 REVERT JUMPDEST PUSH0 DUP1 DUP2 DUP2 SWAP1 SLOAD SWAP1 PUSH2 0x100 EXP SWAP1 DIV PUSH1 0xFF AND PUSH2 0x3D3 SWAP1 PUSH2 0x10BD JUMP JUMPDEST SWAP2 SWAP1 PUSH2 0x100 EXP DUP2 SLOAD DUP2 PUSH1 0xFF MUL NOT AND SWAP1 DUP4 PUSH1 0xFF AND MUL OR SWAP1 SSTORE POP PUSH32 0xF39143D48D073EE18F9A08FCABDBD340BE0B2A698E3E45FC3B4318251131B4FC PUSH0 DUP1 SLOAD SWAP1 PUSH2 0x100 EXP SWAP1 DIV PUSH1 0xFF AND PUSH1 0x40 MLOAD PUSH2 0x426 SWAP2 SWAP1 PUSH2 0xF1D JUMP JUMPDEST PUSH1 0x40 MLOAD DUP1 SWAP2 SUB SWAP1 LOG1 PUSH1 0x1 SWAP1 POP SWAP3 SWAP2 POP POP JUMP JUMPDEST PUSH0 PUSH32 0x0 PUSH20 0xFFFFFFFFFFFFFFFFFFFFFFFFFFFFFFFFFFFFFFFF AND CALLER PUSH20 0xFFFFFFFFFFFFFFFFFFFFFFFFFFFFFFFFFFFFFFFF AND SUB PUSH2 0x4C7 JUMPI PUSH1 0x40 MLOAD PUSH32 0x8C379A000000000000000000000000000000000000000000000000000000000 DUP2 MSTORE PUSH1 0x4 ADD PUSH2 0x4BE SWAP1 PUSH2 0xF80 JUMP JUMPDEST PUSH1 0x40 MLOAD DUP1 SWAP2 SUB SWAP1 REVERT JUMPDEST PUSH1 0x3 PUSH0 DUP1 SLOAD SWAP1 PUSH2 0x100 EXP SWAP1 DIV PUSH1 0xFF AND PUSH1 0xFF AND EQ PUSH2 0x533 JUMPI PUSH1 0x40 MLOAD DUP1 PUSH1 0x60 ADD PUSH1 0x40 MSTORE DUP1 PUSH1 0x24 DUP2 MSTORE PUSH1 0x20 ADD PUSH2 0x1415 PUSH1 0x24 SWAP2 CODECOPY PUSH1 0x40 MLOAD PUSH32 0x8C379A000000000000000000000000000000000000000000000000000000000 DUP2 MSTORE PUSH1 0x4 ADD PUSH2 0x52A SWAP2 SWAP1 PUSH2 0x1008 JUMP JUMPDEST PUSH1 0x40 MLOAD DUP1 SWAP2 SUB SWAP1 REVERT JUMPDEST PUSH2 0x573 DUP4 DUP4 PUSH1 0x40 MLOAD DUP1 PUSH1 0x40 ADD PUSH1 0x40 MSTORE DUP1 PUSH1 0xF DUP2 MSTORE PUSH1 0x20 ADD PUSH32 0xE4B8BAE4BABAE5908DE69C8DE58AA10000000000000000000000000000000000 DUP2 MSTORE POP PUSH2 0xBCC JUMP JUMPDEST PUSH2 0x5B2 JUMPI PUSH1 0x40 MLOAD PUSH32 0x8B3D2D4300000000000000000000000000000000000000000000000000000000 DUP2 MSTORE PUSH1 0x4 ADD PUSH2 0x5A9 SWAP1 PUSH2 0x112F JUMP JUMPDEST PUSH1 0x40 MLOAD DUP1 SWAP2 SUB SWAP1 REVERT JUMPDEST PUSH0 DUP1 DUP2 DUP2 SWAP1 SLOAD SWAP1 PUSH2 0x100 EXP SWAP1 DIV PUSH1 0xFF AND PUSH2 0x5CB SWAP1 PUSH2 0x10BD JUMP JUMPDEST SWAP2 SWAP1 PUSH2 0x100 EXP DUP2 SLOAD DUP2 PUSH1 0xFF MUL NOT AND SWAP1 DUP4 PUSH1 0xFF AND MUL OR SWAP1 SSTORE POP PUSH1 0x1 SWAP1 POP SWAP3 SWAP2 POP POP JUMP JUMPDEST PUSH32 0x0 PUSH20 0xFFFFFFFFFFFFFFFFFFFFFFFFFFFFFFFFFFFFFFFF AND CALLER PUSH20 0xFFFFFFFFFFFFFFFFFFFFFFFFFFFFFFFFFFFFFFFF AND EQ PUSH2 0x67B JUMPI PUSH1 0x40 MLOAD PUSH32 0x8C379A000000000000000000000000000000000000000000000000000000000 DUP2 MSTORE PUSH1 0x4 ADD PUSH2 0x672 SWAP1 PUSH2 0x1197 JUMP JUMPDEST PUSH1 0x40 MLOAD DUP1 SWAP2 SUB SWAP1 REVERT JUMPDEST PUSH1 0x4 PUSH0 DUP1 SLOAD SWAP1 PUSH2 0x100 EXP SWAP1 DIV PUSH1 0xFF AND PUSH1 0xFF AND EQ PUSH2 0x6E7 JUMPI PUSH1 0x40 MLOAD DUP1 PUSH1 0x60 ADD PUSH1 0x40 MSTORE DUP1 PUSH1 0x24 DUP2 MSTORE PUSH1 0x20 ADD PUSH2 0x1415 PUSH1 0x24 SWAP2 CODECOPY PUSH1 0x40 MLOAD PUSH32 0x8C379A000000000000000000000000000000000000000000000000000000000 DUP2 MSTORE PUSH1 0x4 ADD PUSH2 0x6DE SWAP2 SWAP1 PUSH2 0x1008 JUMP JUMPDEST PUSH1 0x40 MLOAD DUP1 SWAP2 SUB SWAP1 REVERT JUMPDEST PUSH32 0x0 PUSH20 0xFFFFFFFFFFFFFFFFFFFFFFFFFFFFFFFFFFFFFFFF AND SELFDESTRUCT JUMPDEST PUSH0 PUSH32 0x0 PUSH20 0xFFFFFFFFFFFFFFFFFFFFFFFFFFFFFFFFFFFFFFFF AND CALLER PUSH20 0xFFFFFFFFFFFFFFFFFFFFFFFFFFFFFFFFFFFFFFFF AND EQ PUSH2 0x7AF JUMPI PUSH1 0x40 MLOAD PUSH32 0x8C379A000000000000000000000000000000000000000000000000000000000 DUP2 MSTORE PUSH1 0x4 ADD PUSH2 0x7A6 SWAP1 PUSH2 0x1197 JUMP JUMPDEST PUSH1 0x40 MLOAD DUP1 SWAP2 SUB SWAP1 REVERT JUMPDEST PUSH1 0x2 PUSH0 DUP1 SLOAD SWAP1 PUSH2 0x100 EXP SWAP1 DIV PUSH1 0xFF AND PUSH1 0xFF AND EQ PUSH2 0x81B JUMPI PUSH1 0x40 MLOAD DUP1 PUSH1 0x60 ADD PUSH1 0x40 MSTORE DUP1 PUSH1 0x24 DUP2 MSTORE PUSH1 0x20 ADD PUSH2 0x1415 PUSH1 0x24 SWAP2 CODECOPY PUSH1 0x40 MLOAD PUSH32 0x8C379A000000000000000000000000000000000000000000000000000000000 DUP2 MSTORE PUSH1 0x4 ADD PUSH2 0x812 SWAP2 SWAP1 PUSH2 0x1008 JUMP JUMPDEST PUSH1 0x40 MLOAD DUP1 SWAP2 SUB SWAP1 REVERT JUMPDEST PUSH2 0x85B DUP4 DUP4 PUSH1 0x40 MLOAD DUP1 PUSH1 0x40 ADD PUSH1 0x40 MSTORE DUP1 PUSH1 0x12 DUP2 MSTORE PUSH1 0x20 ADD PUSH32 0xE5908CE5BF97E4BBACE8BE9BE88BA6E4BA860000000000000000000000000000 DUP2 MSTORE POP PUSH2 0xBCC JUMP JUMPDEST PUSH2 0x89A JUMPI PUSH1 0x40 MLOAD PUSH32 0x8B3D2D4300000000000000000000000000000000000000000000000000000000 DUP2 MSTORE PUSH1 0x4 ADD PUSH2 0x891 SWAP1 PUSH2 0x11FF JUMP JUMPDEST PUSH1 0x40 MLOAD DUP1 SWAP2 SUB SWAP1 REVERT JUMPDEST PUSH8 0xDE0B6B3A7640000 CALLVALUE LT ISZERO PUSH2 0x8E5 JUMPI PUSH1 0x40 MLOAD PUSH32 0x8C379A000000000000000000000000000000000000000000000000000000000 DUP2 MSTORE PUSH1 0x4 ADD PUSH2 0x8DC SWAP1 PUSH2 0x1267 JUMP JUMPDEST PUSH1 0x40 MLOAD DUP1 SWAP2 SUB SWAP1 REVERT JUMPDEST PUSH0 DUP1 DUP2 DUP2 SWAP1 SLOAD SWAP1 PUSH2 0x100 EXP SWAP1 DIV PUSH1 0xFF AND PUSH2 0x8FE SWAP1 PUSH2 0x10BD JUMP JUMPDEST SWAP2 SWAP1 PUSH2 0x100 EXP DUP2 SLOAD DUP2 PUSH1 0xFF MUL NOT AND SWAP1 DUP4 PUSH1 0xFF AND MUL OR SWAP1 SSTORE POP PUSH32 0xF39143D48D073EE18F9A08FCABDBD340BE0B2A698E3E45FC3B4318251131B4FC PUSH0 DUP1 SLOAD SWAP1 PUSH2 0x100 EXP SWAP1 DIV PUSH1 0xFF AND PUSH1 0x40 MLOAD PUSH2 0x951 SWAP2 SWAP1 PUSH2 0xF1D JUMP JUMPDEST PUSH1 0x40 MLOAD DUP1 SWAP2 SUB SWAP1 LOG1 PUSH32 0xF7F75251DEE7D7FC22DEAC3247729EBE7C86541F35930BF10C2A4207479A3B6C CALLER CALLVALUE PUSH0 CALLDATASIZE PUSH1 0x40 MLOAD PUSH2 0x98E SWAP5 SWAP4 SWAP3 SWAP2 SWAP1 PUSH2 0x12CF JUMP JUMPDEST PUSH1 0x40 MLOAD DUP1 SWAP2 SUB SWAP1 LOG1 PUSH1 0x1 SWAP1 POP SWAP3 SWAP2 POP POP JUMP JUMPDEST PUSH32 0x0 DUP2 JUMP JUMPDEST PUSH0 PUSH32 0x0 PUSH20 0xFFFFFFFFFFFFFFFFFFFFFFFFFFFFFFFFFFFFFFFF AND CALLER PUSH20 0xFFFFFFFFFFFFFFFFFFFFFFFFFFFFFFFFFFFFFFFF AND EQ PUSH2 0xA53 JUMPI PUSH1 0x40 MLOAD PUSH32 0x8C379A000000000000000000000000000000000000000000000000000000000 DUP2 MSTORE PUSH1 0x4 ADD PUSH2 0xA4A SWAP1 PUSH2 0x1197 JUMP JUMPDEST PUSH1 0x40 MLOAD DUP1 SWAP2 SUB SWAP1 REVERT JUMPDEST PUSH0 DUP1 PUSH0 SWAP1 SLOAD SWAP1 PUSH2 0x100 EXP SWAP1 DIV PUSH1 0xFF AND PUSH1 0xFF AND EQ PUSH2 0xABF JUMPI PUSH1 0x40 MLOAD DUP1 PUSH1 0x60 ADD PUSH1 0x40 MSTORE DUP1 PUSH1 0x24 DUP2 MSTORE PUSH1 0x20 ADD PUSH2 0x1415 PUSH1 0x24 SWAP2 CODECOPY PUSH1 0x40 MLOAD PUSH32 0x8C379A000000000000000000000000000000000000000000000000000000000 DUP2 MSTORE PUSH1 0x4 ADD PUSH2 0xAB6 SWAP2 SWAP1 PUSH2 0x1008 JUMP JUMPDEST PUSH1 0x40 MLOAD DUP1 SWAP2 SUB SWAP1 REVERT JUMPDEST PUSH2 0xAFF DUP4 DUP4 PUSH1 0x40 MLOAD DUP1 PUSH1 0x40 ADD PUSH1 0x40 MSTORE DUP1 PUSH1 0xC DUP2 MSTORE PUSH1 0x20 ADD PUSH32 0xE5908CE5BF97E4BBACE5A5BD0000000000000000000000000000000000000000 DUP2 MSTORE POP PUSH2 0xBCC JUMP JUMPDEST PUSH2 0xB3E JUMPI PUSH1 0x40 MLOAD PUSH32 0x8B3D2D4300000000000000000000000000000000000000000000000000000000 DUP2 MSTORE PUSH1 0x4 ADD PUSH2 0xB35 SWAP1 PUSH2 0x136A JUMP JUMPDEST PUSH1 0x40 MLOAD DUP1 SWAP2 SUB SWAP1 REVERT JUMPDEST PUSH0 DUP1 DUP2 DUP2 SWAP1 SLOAD SWAP1 PUSH2 0x100 EXP SWAP1 DIV PUSH1 0xFF AND PUSH2 0xB57 SWAP1 PUSH2 0x10BD JUMP JUMPDEST SWAP2 SWAP1 PUSH2 0x100 EXP DUP2 SLOAD DUP2 PUSH1 0xFF MUL NOT AND SWAP1 DUP4 PUSH1 0xFF AND MUL OR SWAP1 SSTORE POP PUSH32 0xF39143D48D073EE18F9A08FCABDBD340BE0B2A698E3E45FC3B4318251131B4FC PUSH0 DUP1 SLOAD SWAP1 PUSH2 0x100 EXP SWAP1 DIV PUSH1 0xFF AND PUSH1 0x40 MLOAD PUSH2 0xBAA SWAP2 SWAP1 PUSH2 0xF1D JUMP JUMPDEST PUSH1 0x40 MLOAD DUP1 SWAP2 SUB SWAP1 LOG1 PUSH1 0x1 SWAP1 POP SWAP3 SWAP2 POP POP JUMP JUMPDEST PUSH0 DUP1 SLOAD SWAP1 PUSH2 0x100 EXP SWAP1 DIV PUSH1 0xFF AND DUP2 JUMP JUMPDEST PUSH0 DUP2 PUSH1 0x40 MLOAD PUSH1 0x20 ADD PUSH2 0xBDE SWAP2 SWAP1 PUSH2 0x13C2 JUMP JUMPDEST PUSH1 0x40 MLOAD PUSH1 0x20 DUP2 DUP4 SUB SUB DUP2 MSTORE SWAP1 PUSH1 0x40 MSTORE DUP1 MLOAD SWAP1 PUSH1 0x20 ADD KECCAK256 DUP5 DUP5 PUSH1 0x40 MLOAD PUSH1 0x20 ADD PUSH2 0xC07 SWAP3 SWAP2 SWAP1 PUSH2 0x13FC JUMP JUMPDEST PUSH1 0x40 MLOAD PUSH1 0x20 DUP2 DUP4 SUB SUB DUP2 MSTORE SWAP1 PUSH1 0x40 MSTORE DUP1 MLOAD SWAP1 PUSH1 0x20 ADD KECCAK256 SUB PUSH2 0xC2B JUMPI PUSH1 0x1 SWAP1 POP PUSH2 0xC2F JUMP JUMPDEST PUSH0 SWAP1 POP JUMPDEST SWAP4 SWAP3 POP POP POP JUMP JUMPDEST PUSH0 DUP3 DUP3 MSTORE PUSH1 0x20 DUP3 ADD SWAP1 POP SWAP3 SWAP2 POP POP JUMP JUMPDEST PUSH32 0x7265636569766500000000000000000000000000000000000000000000000000 PUSH0 DUP3 ADD MSTORE POP JUMP JUMPDEST PUSH0 PUSH2 0xC7A PUSH1 0x7 DUP4 PUSH2 0xC36 JUMP JUMPDEST SWAP2 POP PUSH2 0xC85 DUP3 PUSH2 0xC46 JUMP JUMPDEST PUSH1 0x20 DUP3 ADD SWAP1 POP SWAP2 SWAP1 POP JUMP JUMPDEST PUSH0 PUSH20 0xFFFFFFFFFFFFFFFFFFFFFFFFFFFFFFFFFFFFFFFF DUP3 AND SWAP1 POP SWAP2 SWAP1 POP JUMP JUMPDEST PUSH0 PUSH2 0xCB9 DUP3 PUSH2 0xC90 JUMP JUMPDEST SWAP1 POP SWAP2 SWAP1 POP JUMP JUMPDEST PUSH2 0xCC9 DUP2 PUSH2 0xCAF JUMP JUMPDEST DUP3 MSTORE POP POP JUMP JUMPDEST PUSH0 DUP2 SWAP1 POP SWAP2 SWAP1 POP JUMP JUMPDEST PUSH2 0xCE1 DUP2 PUSH2 0xCCF JUMP JUMPDEST DUP3 MSTORE POP POP JUMP JUMPDEST PUSH0 DUP3 DUP3 MSTORE PUSH1 0x20 DUP3 ADD SWAP1 POP SWAP3 SWAP2 POP POP JUMP JUMPDEST POP JUMP JUMPDEST PUSH0 PUSH2 0xD05 PUSH0 DUP4 PUSH2 0xCE7 JUMP JUMPDEST SWAP2 POP PUSH2 0xD10 DUP3 PUSH2 0xCF7 JUMP JUMPDEST PUSH0 DUP3 ADD SWAP1 POP SWAP2 SWAP1 POP JUMP JUMPDEST PUSH0 PUSH1 0x80 DUP3 ADD SWAP1 POP DUP2 DUP2 SUB PUSH0 DUP4 ADD MSTORE PUSH2 0xD31 DUP2 PUSH2 0xC6E JUMP JUMPDEST SWAP1 POP PUSH2 0xD40 PUSH1 0x20 DUP4 ADD DUP6 PUSH2 0xCC0 JUMP JUMPDEST PUSH2 0xD4D PUSH1 0x40 DUP4 ADD DUP5 PUSH2 0xCD8 JUMP JUMPDEST DUP2 DUP2 SUB PUSH1 0x60 DUP4 ADD MSTORE PUSH2 0xD5E DUP2 PUSH2 0xCFA JUMP JUMPDEST SWAP1 POP SWAP4 SWAP3 POP POP POP JUMP JUMPDEST DUP3 DUP2 DUP4 CALLDATACOPY PUSH0 DUP4 DUP4 ADD MSTORE POP POP POP JUMP JUMPDEST PUSH0 PUSH1 0x1F NOT PUSH1 0x1F DUP4 ADD AND SWAP1 POP SWAP2 SWAP1 POP JUMP JUMPDEST PUSH0 PUSH2 0xD90 DUP4 DUP6 PUSH2 0xCE7 JUMP JUMPDEST SWAP4 POP PUSH2 0xD9D DUP4 DUP6 DUP5 PUSH2 0xD67 JUMP JUMPDEST PUSH2 0xDA6 DUP4 PUSH2 0xD75 JUMP JUMPDEST DUP5 ADD SWAP1 POP SWAP4 SWAP3 POP POP POP JUMP JUMPDEST PUSH0 PUSH1 0x80 DUP3 ADD SWAP1 POP DUP2 DUP2 SUB PUSH0 DUP4 ADD MSTORE PUSH2 0xDC8 DUP2 PUSH2 0xC6E JUMP JUMPDEST SWAP1 POP PUSH2 0xDD7 PUSH1 0x20 DUP4 ADD DUP8 PUSH2 0xCC0 JUMP JUMPDEST PUSH2 0xDE4 PUSH1 0x40 DUP4 ADD DUP7 PUSH2 0xCD8 JUMP JUMPDEST DUP2 DUP2 SUB PUSH1 0x60 DUP4 ADD MSTORE PUSH2 0xDF7 DUP2 DUP5 DUP7 PUSH2 0xD85 JUMP JUMPDEST SWAP1 POP SWAP6 SWAP5 POP POP POP POP POP JUMP JUMPDEST PUSH0 DUP1 REVERT JUMPDEST PUSH0 DUP1 REVERT JUMPDEST PUSH0 DUP1 REVERT JUMPDEST PUSH0 DUP1 REVERT JUMPDEST PUSH0 DUP1 REVERT JUMPDEST PUSH0 DUP1 DUP4 PUSH1 0x1F DUP5 ADD SLT PUSH2 0xE2B JUMPI PUSH2 0xE2A PUSH2 0xE0A JUMP JUMPDEST JUMPDEST DUP3 CALLDATALOAD SWAP1 POP PUSH8 0xFFFFFFFFFFFFFFFF DUP2 GT ISZERO PUSH2 0xE48 JUMPI PUSH2 0xE47 PUSH2 0xE0E JUMP JUMPDEST JUMPDEST PUSH1 0x20 DUP4 ADD SWAP2 POP DUP4 PUSH1 0x1 DUP3 MUL DUP4 ADD GT ISZERO PUSH2 0xE64 JUMPI PUSH2 0xE63 PUSH2 0xE12 JUMP JUMPDEST JUMPDEST SWAP3 POP SWAP3 SWAP1 POP JUMP JUMPDEST PUSH0 DUP1 PUSH1 0x20 DUP4 DUP6 SUB SLT ISZERO PUSH2 0xE81 JUMPI PUSH2 0xE80 PUSH2 0xE02 JUMP JUMPDEST JUMPDEST PUSH0 DUP4 ADD CALLDATALOAD PUSH8 0xFFFFFFFFFFFFFFFF DUP2 GT ISZERO PUSH2 0xE9E JUMPI PUSH2 0xE9D PUSH2 0xE06 JUMP JUMPDEST JUMPDEST PUSH2 0xEAA DUP6 DUP3 DUP7 ADD PUSH2 0xE16 JUMP JUMPDEST SWAP3 POP SWAP3 POP POP SWAP3 POP SWAP3 SWAP1 POP JUMP JUMPDEST PUSH0 DUP2 ISZERO ISZERO SWAP1 POP SWAP2 SWAP1 POP JUMP JUMPDEST PUSH2 0xECA DUP2 PUSH2 0xEB6 JUMP JUMPDEST DUP3 MSTORE POP POP JUMP JUMPDEST PUSH0 PUSH1 0x20 DUP3 ADD SWAP1 POP PUSH2 0xEE3 PUSH0 DUP4 ADD DUP5 PUSH2 0xEC1 JUMP JUMPDEST SWAP3 SWAP2 POP POP JUMP JUMPDEST PUSH0 PUSH1 0x20 DUP3 ADD SWAP1 POP PUSH2 0xEFC PUSH0 DUP4 ADD DUP5 PUSH2 0xCC0 JUMP JUMPDEST SWAP3 SWAP2 POP POP JUMP JUMPDEST PUSH0 PUSH1 0xFF DUP3 AND SWAP1 POP SWAP2 SWAP1 POP JUMP JUMPDEST PUSH2 0xF17 DUP2 PUSH2 0xF02 JUMP JUMPDEST DUP3 MSTORE POP POP JUMP JUMPDEST PUSH0 PUSH1 0x20 DUP3 ADD SWAP1 POP PUSH2 0xF30 PUSH0 DUP4 ADD DUP5 PUSH2 0xF0E JUMP JUMPDEST SWAP3 SWAP2 POP POP JUMP JUMPDEST PUSH32 0x63616E74206C6561646572000000000000000000000000000000000000000000 PUSH0 DUP3 ADD MSTORE POP JUMP JUMPDEST PUSH0 PUSH2 0xF6A PUSH1 0xB DUP4 PUSH2 0xC36 JUMP JUMPDEST SWAP2 POP PUSH2 0xF75 DUP3 PUSH2 0xF36 JUMP JUMPDEST PUSH1 0x20 DUP3 ADD SWAP1 POP SWAP2 SWAP1 POP JUMP JUMPDEST PUSH0 PUSH1 0x20 DUP3 ADD SWAP1 POP DUP2 DUP2 SUB PUSH0 DUP4 ADD MSTORE PUSH2 0xF97 DUP2 PUSH2 0xF5E JUMP JUMPDEST SWAP1 POP SWAP2 SWAP1 POP JUMP JUMPDEST PUSH0 DUP2 MLOAD SWAP1 POP SWAP2 SWAP1 POP JUMP JUMPDEST PUSH0 JUMPDEST DUP4 DUP2 LT ISZERO PUSH2 0xFC5 JUMPI DUP1 DUP3 ADD MLOAD DUP2 DUP5 ADD MSTORE PUSH1 0x20 DUP2 ADD SWAP1 POP PUSH2 0xFAA JUMP JUMPDEST PUSH0 DUP5 DUP5 ADD MSTORE POP POP POP POP JUMP JUMPDEST PUSH0 PUSH2 0xFDA DUP3 PUSH2 0xF9E JUMP JUMPDEST PUSH2 0xFE4 DUP2 DUP6 PUSH2 0xC36 JUMP JUMPDEST SWAP4 POP PUSH2 0xFF4 DUP2 DUP6 PUSH1 0x20 DUP7 ADD PUSH2 0xFA8 JUMP JUMPDEST PUSH2 0xFFD DUP2 PUSH2 0xD75 JUMP JUMPDEST DUP5 ADD SWAP2 POP POP SWAP3 SWAP2 POP POP JUMP JUMPDEST PUSH0 PUSH1 0x20 DUP3 ADD SWAP1 POP DUP2 DUP2 SUB PUSH0 DUP4 ADD MSTORE PUSH2 0x1020 DUP2 DUP5 PUSH2 0xFD0 JUMP JUMPDEST SWAP1 POP SWAP3 SWAP2 POP POP JUMP JUMPDEST PUSH32 0xE5BF85E9A1BBE8AFB4E9A286E5AFBCE5A5BD0000000000000000000000000000 PUSH0 DUP3 ADD MSTORE POP JUMP JUMPDEST PUSH0 PUSH2 0x105C PUSH1 0x12 DUP4 PUSH2 0xC36 JUMP JUMPDEST SWAP2 POP PUSH2 0x1067 DUP3 PUSH2 0x1028 JUMP JUMPDEST PUSH1 0x20 DUP3 ADD SWAP1 POP SWAP2 SWAP1 POP JUMP JUMPDEST PUSH0 PUSH1 0x20 DUP3 ADD SWAP1 POP DUP2 DUP2 SUB PUSH0 DUP4 ADD MSTORE PUSH2 0x1089 DUP2 PUSH2 0x1050 JUMP JUMPDEST SWAP1 POP SWAP2 SWAP1 POP JUMP JUMPDEST PUSH32 0x4E487B7100000000000000000000000000000000000000000000000000000000 PUSH0 MSTORE PUSH1 0x11 PUSH1 0x4 MSTORE PUSH1 0x24 PUSH0 REVERT JUMPDEST PUSH0 PUSH2 0x10C7 DUP3 PUSH2 0xF02 JUMP JUMPDEST SWAP2 POP PUSH1 0xFF DUP3 SUB PUSH2 0x10DA JUMPI PUSH2 0x10D9 PUSH2 0x1090 JUMP JUMPDEST JUMPDEST PUSH1 0x1 DUP3 ADD SWAP1 POP SWAP2 SWAP1 POP JUMP JUMPDEST PUSH32 0xE5BF85E9A1BBE8AFB4E4B8BAE4BABAE5908DE69C8DE58AA10000000000000000 PUSH0 DUP3 ADD MSTORE POP JUMP JUMPDEST PUSH0 PUSH2 0x1119 PUSH1 0x18 DUP4 PUSH2 0xC36 JUMP JUMPDEST SWAP2 POP PUSH2 0x1124 DUP3 PUSH2 0x10E5 JUMP JUMPDEST PUSH1 0x20 DUP3 ADD SWAP1 POP SWAP2 SWAP1 POP JUMP JUMPDEST PUSH0 PUSH1 0x20 DUP3 ADD SWAP1 POP DUP2 DUP2 SUB PUSH0 DUP4 ADD MSTORE PUSH2 0x1146 DUP2 PUSH2 0x110D JUMP JUMPDEST SWAP1 POP SWAP2 SWAP1 POP JUMP JUMPDEST PUSH32 0x6F6E6C79206C6561646572000000000000000000000000000000000000000000 PUSH0 DUP3 ADD MSTORE POP JUMP JUMPDEST PUSH0 PUSH2 0x1181 PUSH1 0xB DUP4 PUSH2 0xC36 JUMP JUMPDEST SWAP2 POP PUSH2 0x118C DUP3 PUSH2 0x114D JUMP JUMPDEST PUSH1 0x20 DUP3 ADD SWAP1 POP SWAP2 SWAP1 POP JUMP JUMPDEST PUSH0 PUSH1 0x20 DUP3 ADD SWAP1 POP DUP2 DUP2 SUB PUSH0 DUP4 ADD MSTORE PUSH2 0x11AE DUP2 PUSH2 0x1175 JUMP JUMPDEST SWAP1 POP SWAP2 SWAP1 POP JUMP JUMPDEST PUSH32 0xE5BF85E9A1BBE8AFB4E5908CE5BF97E4BBACE8BE9BE88BA6E4BA860000000000 PUSH0 DUP3 ADD MSTORE POP JUMP JUMPDEST PUSH0 PUSH2 0x11E9 PUSH1 0x1B DUP4 PUSH2 0xC36 JUMP JUMPDEST SWAP2 POP PUSH2 0x11F4 DUP3 PUSH2 0x11B5 JUMP JUMPDEST PUSH1 0x20 DUP3 ADD SWAP1 POP SWAP2 SWAP1 POP JUMP JUMPDEST PUSH0 PUSH1 0x20 DUP3 ADD SWAP1 POP DUP2 DUP2 SUB PUSH0 DUP4 ADD MSTORE PUSH2 0x1216 DUP2 PUSH2 0x11DD JUMP JUMPDEST SWAP1 POP SWAP2 SWAP1 POP JUMP JUMPDEST PUSH32 0xE7BB99E992B1E4B88DE883BDE5B091E4BA8E3120657468657200000000000000 PUSH0 DUP3 ADD MSTORE POP JUMP JUMPDEST PUSH0 PUSH2 0x1251 PUSH1 0x19 DUP4 PUSH2 0xC36 JUMP JUMPDEST SWAP2 POP PUSH2 0x125C DUP3 PUSH2 0x121D JUMP JUMPDEST PUSH1 0x20 DUP3 ADD SWAP1 POP SWAP2 SWAP1 POP JUMP JUMPDEST PUSH0 PUSH1 0x20 DUP3 ADD SWAP1 POP DUP2 DUP2 SUB PUSH0 DUP4 ADD MSTORE PUSH2 0x127E DUP2 PUSH2 0x1245 JUMP JUMPDEST SWAP1 POP SWAP2 SWAP1 POP JUMP JUMPDEST PUSH32 0x636F6E666F727400000000000000000000000000000000000000000000000000 PUSH0 DUP3 ADD MSTORE POP JUMP JUMPDEST PUSH0 PUSH2 0x12B9 PUSH1 0x7 DUP4 PUSH2 0xC36 JUMP JUMPDEST SWAP2 POP PUSH2 0x12C4 DUP3 PUSH2 0x1285 JUMP JUMPDEST PUSH1 0x20 DUP3 ADD SWAP1 POP SWAP2 SWAP1 POP JUMP JUMPDEST PUSH0 PUSH1 0x80 DUP3 ADD SWAP1 POP DUP2 DUP2 SUB PUSH0 DUP4 ADD MSTORE PUSH2 0x12E6 DUP2 PUSH2 0x12AD JUMP JUMPDEST SWAP1 POP PUSH2 0x12F5 PUSH1 0x20 DUP4 ADD DUP8 PUSH2 0xCC0 JUMP JUMPDEST PUSH2 0x1302 PUSH1 0x40 DUP4 ADD DUP7 PUSH2 0xCD8 JUMP JUMPDEST DUP2 DUP2 SUB PUSH1 0x60 DUP4 ADD MSTORE PUSH2 0x1315 DUP2 DUP5 DUP7 PUSH2 0xD85 JUMP JUMPDEST SWAP1 POP SWAP6 SWAP5 POP POP POP POP POP JUMP JUMPDEST PUSH32 0xE5BF85E9A1BBE8AFB4E5908CE5BF97E4BBACE5A5BD0000000000000000000000 PUSH0 DUP3 ADD MSTORE POP JUMP JUMPDEST PUSH0 PUSH2 0x1354 PUSH1 0x15 DUP4 PUSH2 0xC36 JUMP JUMPDEST SWAP2 POP PUSH2 0x135F DUP3 PUSH2 0x1320 JUMP JUMPDEST PUSH1 0x20 DUP3 ADD SWAP1 POP SWAP2 SWAP1 POP JUMP JUMPDEST PUSH0 PUSH1 0x20 DUP3 ADD SWAP1 POP DUP2 DUP2 SUB PUSH0 DUP4 ADD MSTORE PUSH2 0x1381 DUP2 PUSH2 0x1348 JUMP JUMPDEST SWAP1 POP SWAP2 SWAP1 POP JUMP JUMPDEST PUSH0 DUP2 SWAP1 POP SWAP3 SWAP2 POP POP JUMP JUMPDEST PUSH0 PUSH2 0x139C DUP3 PUSH2 0xF9E JUMP JUMPDEST PUSH2 0x13A6 DUP2 DUP6 PUSH2 0x1388 JUMP JUMPDEST SWAP4 POP PUSH2 0x13B6 DUP2 DUP6 PUSH1 0x20 DUP7 ADD PUSH2 0xFA8 JUMP JUMPDEST DUP1 DUP5 ADD SWAP2 POP POP SWAP3 SWAP2 POP POP JUMP JUMPDEST PUSH0 PUSH2 0x13CD DUP3 DUP5 PUSH2 0x1392 JUMP JUMPDEST SWAP2 POP DUP2 SWAP1 POP SWAP3 SWAP2 POP POP JUMP JUMPDEST PUSH0 PUSH2 0x13E3 DUP4 DUP6 PUSH2 0x1388 JUMP JUMPDEST SWAP4 POP PUSH2 0x13F0 DUP4 DUP6 DUP5 PUSH2 0xD67 JUMP JUMPDEST DUP3 DUP5 ADD SWAP1 POP SWAP4 SWAP3 POP POP POP JUMP JUMPDEST PUSH0 PUSH2 0x1408 DUP3 DUP5 DUP7 PUSH2 0x13D8 JUMP JUMPDEST SWAP2 POP DUP2 SWAP1 POP SWAP4 SWAP3 POP POP POP JUMP INVALID 0xE6 SWAP13 0xAA 0xE7 SWAP16 0xA5 0xE9 SWAP5 SWAP10 0xE8 0xAF 0xAF 0xEF 0xBC DUP13 0xE8 0xAF 0xB7 0xE8 DUP2 SWAP5 0xE7 0xB3 0xBB 0xE7 SWAP12 0xB8 0xE5 DUP6 0xB3 0xE4 0xBA 0xBA 0xE5 SWAP2 SWAP9 LOG2 PUSH5 0x6970667358 0x22 SLT KECCAK256 CREATE2 DIV 0xC0 0x49 ADD SLOAD SDIV SIGNEXTEND DUP4 SWAP6 0x4A 0xEA 0x26 POP SWAP13 0xC0 BYTE MLOAD PUSH18 0x3A03E3B09635D6AF87D487073164736F6C63 NUMBER STOP ADDMOD AND STOP CALLER "
				},
				"gasEstimates": {
					"creation": {
						"codeDepositCost": "1046000",
						"executionCost": "infinite",
						"totalCost": "infinite"
					},
					"external": {
						"": "infinite",
						"confort(string)": "infinite",
						"confortRep(string)": "infinite",
						"destruct()": "infinite",
						"hello(string)": "infinite",
						"helloRsp(string)": "infinite",
						"leader()": "infinite",
						"step()": "2529"
					},
					"internal": {
						"review(string calldata,string memory)": "infinite"
					}
				},
				"methodIdentifiers": {
					"confort(string)": "2c49549b",
					"confortRep(string)": "20f6adbb",
					"destruct()": "2b68b9c6",
					"hello(string)": "a777d0dc",
					"helloRsp(string)": "12c397ef",
					"leader()": "40eedabb",
					"step()": "e25fe175"
				}
			},
			"storageLayout": {
				"storage": [
					{
						"astId": 5,
						"contract": "contracts/Demo1.sol:Demo",
						"label": "step",
						"offset": 0,
						"slot": "0",
						"type": "t_uint8"
					}
				],
				"types": {
					"t_uint8": {
						"encoding": "inplace",
						"label": "uint8",
						"numberOfBytes": "1"
					}
				}
			},
			"userdoc": {
				"errors": {
					"MyError(string)": [
						{
							"notice": "自定义错误"
						}
					]
				},
				"kind": "user",
				"methods": {},
				"version": 1
			}
		}
	}
}