{
	"contracts/Version.sol": {
		"Test": {
			"abi": [
				{
					"inputs": [],
					"stateMutability": "nonpayable",
					"type": "constructor"
				},
				{
					"inputs": [],
					"name": "callDemo1Test",
					"outputs": [
						{
							"internalType": "uint256",
							"name": "",
							"type": "uint256"
						}
					],
					"stateMutability": "nonpayable",
					"type": "function"
				},
				{
					"inputs": [],
					"name": "callDemoTest",
					"outputs": [
						{
							"internalType": "uint256",
							"name": "",
							"type": "uint256"
						}
					],
					"stateMutability": "nonpayable",
					"type": "function"
				},
				{
					"inputs": [],
					"name": "getName",
					"outputs": [
						{
							"internalType": "string",
							"name": "",
							"type": "string"
						}
					],
					"stateMutability": "pure",
					"type": "function"
				},
				{
					"inputs": [],
					"name": "getSelector",
					"outputs": [
						{
							"internalType": "bytes4",
							"name": "",
							"type": "bytes4"
						}
					],
					"stateMutability": "pure",
					"type": "function"
				},
				{
					"inputs": [],
					"name": "test",
					"outputs": [
						{
							"internalType": "uint256",
							"name": "",
							"type": "uint256"
						}
					],
					"stateMutability": "pure",
					"type": "function"
				}
			],
			"devdoc": {
				"kind": "dev",
				"methods": {},
				"version": 1
			},
			"evm": {
				"assembly": "    /* \"contracts/Version.sol\":158:807  contract Test{... */\n  mstore(0x40, 0x80)\n    /* \"contracts/Version.sol\":202:245  constructor(){... */\n  callvalue\n  dup1\n  iszero\n  tag_1\n  jumpi\n  0x00\n  dup1\n  revert\ntag_1:\n  pop\n    /* \"contracts/Version.sol\":231:237  test() */\n  tag_4\n    /* \"contracts/Version.sol\":231:235  test */\n  shl(0x20, tag_5)\n    /* \"contracts/Version.sol\":231:237  test() */\n  0x20\n  shr\n  jump\t// in\ntag_4:\n    /* \"contracts/Version.sol\":225:228  num */\n  0x00\n    /* \"contracts/Version.sol\":225:237  num = test() */\n  dup2\n  swap1\n  sstore\n  pop\n    /* \"contracts/Version.sol\":158:807  contract Test{... */\n  jump(tag_6)\n    /* \"contracts/Version.sol\":253:330  function test() public pure returns(uint256){... */\ntag_5:\n    /* \"contracts/Version.sol\":289:296  uint256 */\n  0x00\n    /* \"contracts/Version.sol\":315:322  2**3**2 */\n  0x0200\n    /* \"contracts/Version.sol\":308:322  return 2**3**2 */\n  swap1\n  pop\n    /* \"contracts/Version.sol\":253:330  function test() public pure returns(uint256){... */\n  swap1\n  jump\t// out\n    /* \"contracts/Version.sol\":158:807  contract Test{... */\ntag_6:\n  dataSize(sub_0)\n  dup1\n  dataOffset(sub_0)\n  0x00\n  codecopy\n  0x00\n  return\nstop\n\nsub_0: assembly {\n        /* \"contracts/Version.sol\":158:807  contract Test{... */\n      mstore(0x40, 0x80)\n      callvalue\n      dup1\n      iszero\n      tag_1\n      jumpi\n      0x00\n      dup1\n      revert\n    tag_1:\n      pop\n      jumpi(tag_2, lt(calldatasize, 0x04))\n      shr(0xe0, calldataload(0x00))\n      dup1\n      0x034899bc\n      eq\n      tag_3\n      jumpi\n      dup1\n      0x17d7de7c\n      eq\n      tag_4\n      jumpi\n      dup1\n      0xa986ac97\n      eq\n      tag_5\n      jumpi\n      dup1\n      0xbd5a4672\n      eq\n      tag_6\n      jumpi\n      dup1\n      0xf8a8fd6d\n      eq\n      tag_7\n      jumpi\n    tag_2:\n      0x00\n      dup1\n      revert\n        /* \"contracts/Version.sol\":695:802  function getSelector() public pure returns(bytes4){... */\n    tag_3:\n      tag_8\n      tag_9\n      jump\t// in\n    tag_8:\n      mload(0x40)\n      tag_10\n      swap2\n      swap1\n      tag_11\n      jump\t// in\n    tag_10:\n      mload(0x40)\n      dup1\n      swap2\n      sub\n      swap1\n      return\n        /* \"contracts/Version.sol\":338:432  function getName() public pure returns(string memory){... */\n    tag_4:\n      tag_12\n      tag_13\n      jump\t// in\n    tag_12:\n      mload(0x40)\n      tag_14\n      swap2\n      swap1\n      tag_15\n      jump\t// in\n    tag_14:\n      mload(0x40)\n      dup1\n      swap2\n      sub\n      swap1\n      return\n        /* \"contracts/Version.sol\":440:558  function callDemoTest() public  returns(uint256){... */\n    tag_5:\n      tag_16\n      tag_17\n      jump\t// in\n    tag_16:\n      mload(0x40)\n      tag_18\n      swap2\n      swap1\n      tag_19\n      jump\t// in\n    tag_18:\n      mload(0x40)\n      dup1\n      swap2\n      sub\n      swap1\n      return\n        /* \"contracts/Version.sol\":566:687  function callDemo1Test() public  returns(uint256){... */\n    tag_6:\n      tag_20\n      tag_21\n      jump\t// in\n    tag_20:\n      mload(0x40)\n      tag_22\n      swap2\n      swap1\n      tag_19\n      jump\t// in\n    tag_22:\n      mload(0x40)\n      dup1\n      swap2\n      sub\n      swap1\n      return\n        /* \"contracts/Version.sol\":253:330  function test() public pure returns(uint256){... */\n    tag_7:\n      tag_23\n      tag_24\n      jump\t// in\n    tag_23:\n      mload(0x40)\n      tag_25\n      swap2\n      swap1\n      tag_19\n      jump\t// in\n    tag_25:\n      mload(0x40)\n      dup1\n      swap2\n      sub\n      swap1\n      return\n        /* \"contracts/Version.sol\":695:802  function getSelector() public pure returns(bytes4){... */\n    tag_9:\n        /* \"contracts/Version.sol\":738:744  bytes4 */\n      0x00\n        /* \"contracts/Version.sol\":770:793  keccak256('fallback()') */\n      0x552079dccdd240270daf6f7b8880a36555740730dd71469d4b1bb6a76a47c355\n        /* \"contracts/Version.sol\":756:794  return bytes4(keccak256('fallback()')) */\n      swap1\n      pop\n        /* \"contracts/Version.sol\":695:802  function getSelector() public pure returns(bytes4){... */\n      swap1\n      jump\t// out\n        /* \"contracts/Version.sol\":338:432  function getName() public pure returns(string memory){... */\n    tag_13:\n        /* \"contracts/Version.sol\":377:390  string memory */\n      0x60\n        /* \"contracts/Version.sol\":409:424  type(Demo).name */\n      mload(0x40)\n      dup1\n      0x40\n      add\n      0x40\n      mstore\n      0x04\n      dup2\n      mstore\n      dup1\n      0x20\n      add\n      0x44656d6f00000000000000000000000000000000000000000000000000000000\n      dup2\n      mstore\n      pop\n        /* \"contracts/Version.sol\":402:424  return type(Demo).name */\n      swap1\n      pop\n        /* \"contracts/Version.sol\":338:432  function getName() public pure returns(string memory){... */\n      swap1\n      jump\t// out\n        /* \"contracts/Version.sol\":440:558  function callDemoTest() public  returns(uint256){... */\n    tag_17:\n        /* \"contracts/Version.sol\":480:487  uint256 */\n      0x00\n        /* \"contracts/Version.sol\":499:508  Demo demo */\n      dup1\n        /* \"contracts/Version.sol\":511:521  new Demo() */\n      mload(0x40)\n      tag_29\n      swap1\n      tag_30\n      jump\t// in\n    tag_29:\n      mload(0x40)\n      dup1\n      swap2\n      sub\n      swap1\n      0x00\n      create\n      dup1\n      iszero\n      dup1\n      iszero\n      tag_31\n      jumpi\n      returndatasize\n      0x00\n      dup1\n      returndatacopy\n      revert(0x00, returndatasize)\n    tag_31:\n      pop\n        /* \"contracts/Version.sol\":499:521  Demo demo = new Demo() */\n      swap1\n      pop\n        /* \"contracts/Version.sol\":539:543  demo */\n      dup1\n        /* \"contracts/Version.sol\":539:548  demo.test */\n      0xffffffffffffffffffffffffffffffffffffffff\n      and\n      0xf8a8fd6d\n        /* \"contracts/Version.sol\":539:550  demo.test() */\n      mload(0x40)\n      dup2\n      0xffffffff\n      and\n      0xe0\n      shl\n      dup2\n      mstore\n      0x04\n      add\n      0x20\n      mload(0x40)\n      dup1\n      dup4\n      sub\n      dup2\n      dup7\n      gas\n      staticcall\n      iszero\n      dup1\n      iszero\n      tag_33\n      jumpi\n      returndatasize\n      0x00\n      dup1\n      returndatacopy\n      revert(0x00, returndatasize)\n    tag_33:\n      pop\n      pop\n      pop\n      pop\n      mload(0x40)\n      returndatasize\n      not(0x1f)\n      0x1f\n      dup3\n      add\n      and\n      dup3\n      add\n      dup1\n      0x40\n      mstore\n      pop\n      dup2\n      add\n      swap1\n      tag_34\n      swap2\n      swap1\n      tag_35\n      jump\t// in\n    tag_34:\n        /* \"contracts/Version.sol\":532:550  return demo.test() */\n      swap2\n      pop\n      pop\n        /* \"contracts/Version.sol\":440:558  function callDemoTest() public  returns(uint256){... */\n      swap1\n      jump\t// out\n        /* \"contracts/Version.sol\":566:687  function callDemo1Test() public  returns(uint256){... */\n    tag_21:\n        /* \"contracts/Version.sol\":607:614  uint256 */\n      0x00\n        /* \"contracts/Version.sol\":626:636  Demo1 demo */\n      dup1\n        /* \"contracts/Version.sol\":639:650  new Demo1() */\n      mload(0x40)\n      tag_37\n      swap1\n      tag_38\n      jump\t// in\n    tag_37:\n      mload(0x40)\n      dup1\n      swap2\n      sub\n      swap1\n      0x00\n      create\n      dup1\n      iszero\n      dup1\n      iszero\n      tag_39\n      jumpi\n      returndatasize\n      0x00\n      dup1\n      returndatacopy\n      revert(0x00, returndatasize)\n    tag_39:\n      pop\n        /* \"contracts/Version.sol\":626:650  Demo1 demo = new Demo1() */\n      swap1\n      pop\n        /* \"contracts/Version.sol\":668:672  demo */\n      dup1\n        /* \"contracts/Version.sol\":668:677  demo.test */\n      0xffffffffffffffffffffffffffffffffffffffff\n      and\n      0xf8a8fd6d\n        /* \"contracts/Version.sol\":668:679  demo.test() */\n      mload(0x40)\n      dup2\n      0xffffffff\n      and\n      0xe0\n      shl\n      dup2\n      mstore\n      0x04\n      add\n      0x20\n      mload(0x40)\n      dup1\n      dup4\n      sub\n      dup2\n      dup7\n      gas\n      staticcall\n      iszero\n      dup1\n      iszero\n      tag_41\n      jumpi\n      returndatasize\n      0x00\n      dup1\n      returndatacopy\n      revert(0x00, returndatasize)\n    tag_41:\n      pop\n      pop\n      pop\n      pop\n      mload(0x40)\n      returndatasize\n      not(0x1f)\n      0x1f\n      dup3\n      add\n      and\n      dup3\n      add\n      dup1\n      0x40\n      mstore\n      pop\n      dup2\n      add\n      swap1\n      tag_42\n      swap2\n      swap1\n      tag_35\n      jump\t// in\n    tag_42:\n        /* \"contracts/Version.sol\":661:679  return demo.test() */\n      swap2\n      pop\n      pop\n        /* \"contracts/Version.sol\":566:687  function callDemo1Test() public  returns(uint256){... */\n      swap1\n      jump\t// out\n        /* \"contracts/Version.sol\":253:330  function test() public pure returns(uint256){... */\n    tag_24:\n        /* \"contracts/Version.sol\":289:296  uint256 */\n      0x00\n        /* \"contracts/Version.sol\":315:322  2**3**2 */\n      0x0200\n        /* \"contracts/Version.sol\":308:322  return 2**3**2 */\n      swap1\n      pop\n        /* \"contracts/Version.sol\":253:330  function test() public pure returns(uint256){... */\n      swap1\n      jump\t// out\n    tag_30:\n      dataSize(sub_0)\n      dup1\n      dataOffset(sub_0)\n      dup4\n      codecopy\n      add\n      swap1\n      jump\t// out\n    tag_38:\n      dataSize(sub_1)\n      dup1\n      dataOffset(sub_1)\n      dup4\n      codecopy\n      add\n      swap1\n      jump\t// out\n        /* \"#utility.yul\":7:156   */\n    tag_44:\n        /* \"#utility.yul\":43:50   */\n      0x00\n        /* \"#utility.yul\":83:149   */\n      0xffffffff00000000000000000000000000000000000000000000000000000000\n        /* \"#utility.yul\":76:81   */\n      dup3\n        /* \"#utility.yul\":72:150   */\n      and\n        /* \"#utility.yul\":61:150   */\n      swap1\n      pop\n        /* \"#utility.yul\":7:156   */\n      swap2\n      swap1\n      pop\n      jump\t// out\n        /* \"#utility.yul\":162:277   */\n    tag_45:\n        /* \"#utility.yul\":247:270   */\n      tag_61\n        /* \"#utility.yul\":264:269   */\n      dup2\n        /* \"#utility.yul\":247:270   */\n      tag_44\n      jump\t// in\n    tag_61:\n        /* \"#utility.yul\":242:245   */\n      dup3\n        /* \"#utility.yul\":235:271   */\n      mstore\n        /* \"#utility.yul\":162:277   */\n      pop\n      pop\n      jump\t// out\n        /* \"#utility.yul\":283:501   */\n    tag_11:\n        /* \"#utility.yul\":374:378   */\n      0x00\n        /* \"#utility.yul\":412:414   */\n      0x20\n        /* \"#utility.yul\":401:410   */\n      dup3\n        /* \"#utility.yul\":397:415   */\n      add\n        /* \"#utility.yul\":389:415   */\n      swap1\n      pop\n        /* \"#utility.yul\":425:494   */\n      tag_63\n        /* \"#utility.yul\":491:492   */\n      0x00\n        /* \"#utility.yul\":480:489   */\n      dup4\n        /* \"#utility.yul\":476:493   */\n      add\n        /* \"#utility.yul\":467:473   */\n      dup5\n        /* \"#utility.yul\":425:494   */\n      tag_45\n      jump\t// in\n    tag_63:\n        /* \"#utility.yul\":283:501   */\n      swap3\n      swap2\n      pop\n      pop\n      jump\t// out\n        /* \"#utility.yul\":507:606   */\n    tag_46:\n        /* \"#utility.yul\":559:565   */\n      0x00\n        /* \"#utility.yul\":593:598   */\n      dup2\n        /* \"#utility.yul\":587:599   */\n      mload\n        /* \"#utility.yul\":577:599   */\n      swap1\n      pop\n        /* \"#utility.yul\":507:606   */\n      swap2\n      swap1\n      pop\n      jump\t// out\n        /* \"#utility.yul\":612:781   */\n    tag_47:\n        /* \"#utility.yul\":696:707   */\n      0x00\n        /* \"#utility.yul\":730:736   */\n      dup3\n        /* \"#utility.yul\":725:728   */\n      dup3\n        /* \"#utility.yul\":718:737   */\n      mstore\n        /* \"#utility.yul\":770:774   */\n      0x20\n        /* \"#utility.yul\":765:768   */\n      dup3\n        /* \"#utility.yul\":761:775   */\n      add\n        /* \"#utility.yul\":746:775   */\n      swap1\n      pop\n        /* \"#utility.yul\":612:781   */\n      swap3\n      swap2\n      pop\n      pop\n      jump\t// out\n        /* \"#utility.yul\":787:1033   */\n    tag_48:\n        /* \"#utility.yul\":868:869   */\n      0x00\n        /* \"#utility.yul\":878:991   */\n    tag_67:\n        /* \"#utility.yul\":892:898   */\n      dup4\n        /* \"#utility.yul\":889:890   */\n      dup2\n        /* \"#utility.yul\":886:899   */\n      lt\n        /* \"#utility.yul\":878:991   */\n      iszero\n      tag_69\n      jumpi\n        /* \"#utility.yul\":977:978   */\n      dup1\n        /* \"#utility.yul\":972:975   */\n      dup3\n        /* \"#utility.yul\":968:979   */\n      add\n        /* \"#utility.yul\":962:980   */\n      mload\n        /* \"#utility.yul\":958:959   */\n      dup2\n        /* \"#utility.yul\":953:956   */\n      dup5\n        /* \"#utility.yul\":949:960   */\n      add\n        /* \"#utility.yul\":942:981   */\n      mstore\n        /* \"#utility.yul\":914:916   */\n      0x20\n        /* \"#utility.yul\":911:912   */\n      dup2\n        /* \"#utility.yul\":907:917   */\n      add\n        /* \"#utility.yul\":902:917   */\n      swap1\n      pop\n        /* \"#utility.yul\":878:991   */\n      jump(tag_67)\n    tag_69:\n        /* \"#utility.yul\":1025:1026   */\n      0x00\n        /* \"#utility.yul\":1016:1022   */\n      dup5\n        /* \"#utility.yul\":1011:1014   */\n      dup5\n        /* \"#utility.yul\":1007:1023   */\n      add\n        /* \"#utility.yul\":1000:1027   */\n      mstore\n        /* \"#utility.yul\":849:1033   */\n      pop\n        /* \"#utility.yul\":787:1033   */\n      pop\n      pop\n      pop\n      jump\t// out\n        /* \"#utility.yul\":1039:1141   */\n    tag_49:\n        /* \"#utility.yul\":1080:1086   */\n      0x00\n        /* \"#utility.yul\":1131:1133   */\n      0x1f\n        /* \"#utility.yul\":1127:1134   */\n      not\n        /* \"#utility.yul\":1122:1124   */\n      0x1f\n        /* \"#utility.yul\":1115:1120   */\n      dup4\n        /* \"#utility.yul\":1111:1125   */\n      add\n        /* \"#utility.yul\":1107:1135   */\n      and\n        /* \"#utility.yul\":1097:1135   */\n      swap1\n      pop\n        /* \"#utility.yul\":1039:1141   */\n      swap2\n      swap1\n      pop\n      jump\t// out\n        /* \"#utility.yul\":1147:1524   */\n    tag_50:\n        /* \"#utility.yul\":1235:1238   */\n      0x00\n        /* \"#utility.yul\":1263:1302   */\n      tag_72\n        /* \"#utility.yul\":1296:1301   */\n      dup3\n        /* \"#utility.yul\":1263:1302   */\n      tag_46\n      jump\t// in\n    tag_72:\n        /* \"#utility.yul\":1318:1389   */\n      tag_73\n        /* \"#utility.yul\":1382:1388   */\n      dup2\n        /* \"#utility.yul\":1377:1380   */\n      dup6\n        /* \"#utility.yul\":1318:1389   */\n      tag_47\n      jump\t// in\n    tag_73:\n        /* \"#utility.yul\":1311:1389   */\n      swap4\n      pop\n        /* \"#utility.yul\":1398:1463   */\n      tag_74\n        /* \"#utility.yul\":1456:1462   */\n      dup2\n        /* \"#utility.yul\":1451:1454   */\n      dup6\n        /* \"#utility.yul\":1444:1448   */\n      0x20\n        /* \"#utility.yul\":1437:1442   */\n      dup7\n        /* \"#utility.yul\":1433:1449   */\n      add\n        /* \"#utility.yul\":1398:1463   */\n      tag_48\n      jump\t// in\n    tag_74:\n        /* \"#utility.yul\":1488:1517   */\n      tag_75\n        /* \"#utility.yul\":1510:1516   */\n      dup2\n        /* \"#utility.yul\":1488:1517   */\n      tag_49\n      jump\t// in\n    tag_75:\n        /* \"#utility.yul\":1483:1486   */\n      dup5\n        /* \"#utility.yul\":1479:1518   */\n      add\n        /* \"#utility.yul\":1472:1518   */\n      swap2\n      pop\n        /* \"#utility.yul\":1239:1524   */\n      pop\n        /* \"#utility.yul\":1147:1524   */\n      swap3\n      swap2\n      pop\n      pop\n      jump\t// out\n        /* \"#utility.yul\":1530:1843   */\n    tag_15:\n        /* \"#utility.yul\":1643:1647   */\n      0x00\n        /* \"#utility.yul\":1681:1683   */\n      0x20\n        /* \"#utility.yul\":1670:1679   */\n      dup3\n        /* \"#utility.yul\":1666:1684   */\n      add\n        /* \"#utility.yul\":1658:1684   */\n      swap1\n      pop\n        /* \"#utility.yul\":1730:1739   */\n      dup2\n        /* \"#utility.yul\":1724:1728   */\n      dup2\n        /* \"#utility.yul\":1720:1740   */\n      sub\n        /* \"#utility.yul\":1716:1717   */\n      0x00\n        /* \"#utility.yul\":1705:1714   */\n      dup4\n        /* \"#utility.yul\":1701:1718   */\n      add\n        /* \"#utility.yul\":1694:1741   */\n      mstore\n        /* \"#utility.yul\":1758:1836   */\n      tag_77\n        /* \"#utility.yul\":1831:1835   */\n      dup2\n        /* \"#utility.yul\":1822:1828   */\n      dup5\n        /* \"#utility.yul\":1758:1836   */\n      tag_50\n      jump\t// in\n    tag_77:\n        /* \"#utility.yul\":1750:1836   */\n      swap1\n      pop\n        /* \"#utility.yul\":1530:1843   */\n      swap3\n      swap2\n      pop\n      pop\n      jump\t// out\n        /* \"#utility.yul\":1849:1926   */\n    tag_51:\n        /* \"#utility.yul\":1886:1893   */\n      0x00\n        /* \"#utility.yul\":1915:1920   */\n      dup2\n        /* \"#utility.yul\":1904:1920   */\n      swap1\n      pop\n        /* \"#utility.yul\":1849:1926   */\n      swap2\n      swap1\n      pop\n      jump\t// out\n        /* \"#utility.yul\":1932:2050   */\n    tag_52:\n        /* \"#utility.yul\":2019:2043   */\n      tag_80\n        /* \"#utility.yul\":2037:2042   */\n      dup2\n        /* \"#utility.yul\":2019:2043   */\n      tag_51\n      jump\t// in\n    tag_80:\n        /* \"#utility.yul\":2014:2017   */\n      dup3\n        /* \"#utility.yul\":2007:2044   */\n      mstore\n        /* \"#utility.yul\":1932:2050   */\n      pop\n      pop\n      jump\t// out\n        /* \"#utility.yul\":2056:2278   */\n    tag_19:\n        /* \"#utility.yul\":2149:2153   */\n      0x00\n        /* \"#utility.yul\":2187:2189   */\n      0x20\n        /* \"#utility.yul\":2176:2185   */\n      dup3\n        /* \"#utility.yul\":2172:2190   */\n      add\n        /* \"#utility.yul\":2164:2190   */\n      swap1\n      pop\n        /* \"#utility.yul\":2200:2271   */\n      tag_82\n        /* \"#utility.yul\":2268:2269   */\n      0x00\n        /* \"#utility.yul\":2257:2266   */\n      dup4\n        /* \"#utility.yul\":2253:2270   */\n      add\n        /* \"#utility.yul\":2244:2250   */\n      dup5\n        /* \"#utility.yul\":2200:2271   */\n      tag_52\n      jump\t// in\n    tag_82:\n        /* \"#utility.yul\":2056:2278   */\n      swap3\n      swap2\n      pop\n      pop\n      jump\t// out\n        /* \"#utility.yul\":2365:2482   */\n    tag_54:\n        /* \"#utility.yul\":2474:2475   */\n      0x00\n        /* \"#utility.yul\":2471:2472   */\n      dup1\n        /* \"#utility.yul\":2464:2476   */\n      revert\n        /* \"#utility.yul\":2611:2733   */\n    tag_56:\n        /* \"#utility.yul\":2684:2708   */\n      tag_87\n        /* \"#utility.yul\":2702:2707   */\n      dup2\n        /* \"#utility.yul\":2684:2708   */\n      tag_51\n      jump\t// in\n    tag_87:\n        /* \"#utility.yul\":2677:2682   */\n      dup2\n        /* \"#utility.yul\":2674:2709   */\n      eq\n        /* \"#utility.yul\":2664:2727   */\n      tag_88\n      jumpi\n        /* \"#utility.yul\":2723:2724   */\n      0x00\n        /* \"#utility.yul\":2720:2721   */\n      dup1\n        /* \"#utility.yul\":2713:2725   */\n      revert\n        /* \"#utility.yul\":2664:2727   */\n    tag_88:\n        /* \"#utility.yul\":2611:2733   */\n      pop\n      jump\t// out\n        /* \"#utility.yul\":2739:2882   */\n    tag_57:\n        /* \"#utility.yul\":2796:2801   */\n      0x00\n        /* \"#utility.yul\":2827:2833   */\n      dup2\n        /* \"#utility.yul\":2821:2834   */\n      mload\n        /* \"#utility.yul\":2812:2834   */\n      swap1\n      pop\n        /* \"#utility.yul\":2843:2876   */\n      tag_90\n        /* \"#utility.yul\":2870:2875   */\n      dup2\n        /* \"#utility.yul\":2843:2876   */\n      tag_56\n      jump\t// in\n    tag_90:\n        /* \"#utility.yul\":2739:2882   */\n      swap3\n      swap2\n      pop\n      pop\n      jump\t// out\n        /* \"#utility.yul\":2888:3239   */\n    tag_35:\n        /* \"#utility.yul\":2958:2964   */\n      0x00\n        /* \"#utility.yul\":3007:3009   */\n      0x20\n        /* \"#utility.yul\":2995:3004   */\n      dup3\n        /* \"#utility.yul\":2986:2993   */\n      dup5\n        /* \"#utility.yul\":2982:3005   */\n      sub\n        /* \"#utility.yul\":2978:3010   */\n      slt\n        /* \"#utility.yul\":2975:3094   */\n      iszero\n      tag_92\n      jumpi\n        /* \"#utility.yul\":3013:3092   */\n      tag_93\n      tag_54\n      jump\t// in\n    tag_93:\n        /* \"#utility.yul\":2975:3094   */\n    tag_92:\n        /* \"#utility.yul\":3133:3134   */\n      0x00\n        /* \"#utility.yul\":3158:3222   */\n      tag_94\n        /* \"#utility.yul\":3214:3221   */\n      dup5\n        /* \"#utility.yul\":3205:3211   */\n      dup3\n        /* \"#utility.yul\":3194:3203   */\n      dup6\n        /* \"#utility.yul\":3190:3212   */\n      add\n        /* \"#utility.yul\":3158:3222   */\n      tag_57\n      jump\t// in\n    tag_94:\n        /* \"#utility.yul\":3148:3222   */\n      swap2\n      pop\n        /* \"#utility.yul\":3104:3232   */\n      pop\n        /* \"#utility.yul\":2888:3239   */\n      swap3\n      swap2\n      pop\n      pop\n      jump\t// out\n    stop\n\n    sub_0: assembly {\n            /* \"contracts/NetSpace.sol\":134:539  contract Demo {... */\n          mstore(0x40, 0x80)\n          callvalue\n          dup1\n          iszero\n          tag_1\n          jumpi\n          0x00\n          dup1\n          revert\n        tag_1:\n          pop\n          dataSize(sub_0)\n          dup1\n          dataOffset(sub_0)\n          0x00\n          codecopy\n          0x00\n          return\n        stop\n\n        sub_0: assembly {\n                /* \"contracts/NetSpace.sol\":134:539  contract Demo {... */\n              mstore(0x40, 0x80)\n              callvalue\n              dup1\n              iszero\n              tag_1\n              jumpi\n              0x00\n              dup1\n              revert\n            tag_1:\n              pop\n              jumpi(tag_2, lt(calldatasize, 0x04))\n              shr(0xe0, calldataload(0x00))\n              dup1\n              0x60fe47b1\n              eq\n              tag_3\n              jumpi\n              dup1\n              0x6d4ce63c\n              eq\n              tag_4\n              jumpi\n              dup1\n              0xf8a8fd6d\n              eq\n              tag_5\n              jumpi\n            tag_2:\n              0x00\n              dup1\n              revert\n                /* \"contracts/NetSpace.sol\":238:298  function set(uint256 _num) public{... */\n            tag_3:\n              tag_6\n              0x04\n              dup1\n              calldatasize\n              sub\n              dup2\n              add\n              swap1\n              tag_7\n              swap2\n              swap1\n              tag_8\n              jump\t// in\n            tag_7:\n              tag_9\n              jump\t// in\n            tag_6:\n              stop\n                /* \"contracts/NetSpace.sol\":377:447  function get() public view returns(uint256){... */\n            tag_4:\n              tag_10\n              tag_11\n              jump\t// in\n            tag_10:\n              mload(0x40)\n              tag_12\n              swap2\n              swap1\n              tag_13\n              jump\t// in\n            tag_12:\n              mload(0x40)\n              dup1\n              swap2\n              sub\n              swap1\n              return\n                /* \"contracts/NetSpace.sol\":453:528  function test() public pure returns(uint256){... */\n            tag_5:\n              tag_14\n              tag_15\n              jump\t// in\n            tag_14:\n              mload(0x40)\n              tag_16\n              swap2\n              swap1\n              tag_13\n              jump\t// in\n            tag_16:\n              mload(0x40)\n              dup1\n              swap2\n              sub\n              swap1\n              return\n                /* \"contracts/NetSpace.sol\":238:298  function set(uint256 _num) public{... */\n            tag_9:\n                /* \"contracts/NetSpace.sol\":287:291  _num */\n              dup1\n                /* \"contracts/NetSpace.sol\":281:284  num */\n              0x00\n                /* \"contracts/NetSpace.sol\":281:291  num = _num */\n              dup2\n              swap1\n              sstore\n              pop\n                /* \"contracts/NetSpace.sol\":238:298  function set(uint256 _num) public{... */\n              pop\n              jump\t// out\n                /* \"contracts/NetSpace.sol\":377:447  function get() public view returns(uint256){... */\n            tag_11:\n                /* \"contracts/NetSpace.sol\":412:419  uint256 */\n              0x00\n                /* \"contracts/NetSpace.sol\":437:440  num */\n              dup1\n              sload\n                /* \"contracts/NetSpace.sol\":430:440  return num */\n              swap1\n              pop\n                /* \"contracts/NetSpace.sol\":377:447  function get() public view returns(uint256){... */\n              swap1\n              jump\t// out\n                /* \"contracts/NetSpace.sol\":453:528  function test() public pure returns(uint256){... */\n            tag_15:\n                /* \"contracts/NetSpace.sol\":489:496  uint256 */\n              0x00\n                /* \"contracts/NetSpace.sol\":514:521  2**3**2 */\n              0x0200\n                /* \"contracts/NetSpace.sol\":507:521  return 2**3**2 */\n              swap1\n              pop\n                /* \"contracts/NetSpace.sol\":453:528  function test() public pure returns(uint256){... */\n              swap1\n              jump\t// out\n                /* \"#utility.yul\":88:205   */\n            tag_21:\n                /* \"#utility.yul\":197:198   */\n              0x00\n                /* \"#utility.yul\":194:195   */\n              dup1\n                /* \"#utility.yul\":187:199   */\n              revert\n                /* \"#utility.yul\":334:411   */\n            tag_23:\n                /* \"#utility.yul\":371:378   */\n              0x00\n                /* \"#utility.yul\":400:405   */\n              dup2\n                /* \"#utility.yul\":389:405   */\n              swap1\n              pop\n                /* \"#utility.yul\":334:411   */\n              swap2\n              swap1\n              pop\n              jump\t// out\n                /* \"#utility.yul\":417:539   */\n            tag_24:\n                /* \"#utility.yul\":490:514   */\n              tag_33\n                /* \"#utility.yul\":508:513   */\n              dup2\n                /* \"#utility.yul\":490:514   */\n              tag_23\n              jump\t// in\n            tag_33:\n                /* \"#utility.yul\":483:488   */\n              dup2\n                /* \"#utility.yul\":480:515   */\n              eq\n                /* \"#utility.yul\":470:533   */\n              tag_34\n              jumpi\n                /* \"#utility.yul\":529:530   */\n              0x00\n                /* \"#utility.yul\":526:527   */\n              dup1\n                /* \"#utility.yul\":519:531   */\n              revert\n                /* \"#utility.yul\":470:533   */\n            tag_34:\n                /* \"#utility.yul\":417:539   */\n              pop\n              jump\t// out\n                /* \"#utility.yul\":545:684   */\n            tag_25:\n                /* \"#utility.yul\":591:596   */\n              0x00\n                /* \"#utility.yul\":629:635   */\n              dup2\n                /* \"#utility.yul\":616:636   */\n              calldataload\n                /* \"#utility.yul\":607:636   */\n              swap1\n              pop\n                /* \"#utility.yul\":645:678   */\n              tag_36\n                /* \"#utility.yul\":672:677   */\n              dup2\n                /* \"#utility.yul\":645:678   */\n              tag_24\n              jump\t// in\n            tag_36:\n                /* \"#utility.yul\":545:684   */\n              swap3\n              swap2\n              pop\n              pop\n              jump\t// out\n                /* \"#utility.yul\":690:1019   */\n            tag_8:\n                /* \"#utility.yul\":749:755   */\n              0x00\n                /* \"#utility.yul\":798:800   */\n              0x20\n                /* \"#utility.yul\":786:795   */\n              dup3\n                /* \"#utility.yul\":777:784   */\n              dup5\n                /* \"#utility.yul\":773:796   */\n              sub\n                /* \"#utility.yul\":769:801   */\n              slt\n                /* \"#utility.yul\":766:885   */\n              iszero\n              tag_38\n              jumpi\n                /* \"#utility.yul\":804:883   */\n              tag_39\n              tag_21\n              jump\t// in\n            tag_39:\n                /* \"#utility.yul\":766:885   */\n            tag_38:\n                /* \"#utility.yul\":924:925   */\n              0x00\n                /* \"#utility.yul\":949:1002   */\n              tag_40\n                /* \"#utility.yul\":994:1001   */\n              dup5\n                /* \"#utility.yul\":985:991   */\n              dup3\n                /* \"#utility.yul\":974:983   */\n              dup6\n                /* \"#utility.yul\":970:992   */\n              add\n                /* \"#utility.yul\":949:1002   */\n              tag_25\n              jump\t// in\n            tag_40:\n                /* \"#utility.yul\":939:1002   */\n              swap2\n              pop\n                /* \"#utility.yul\":895:1012   */\n              pop\n                /* \"#utility.yul\":690:1019   */\n              swap3\n              swap2\n              pop\n              pop\n              jump\t// out\n                /* \"#utility.yul\":1025:1143   */\n            tag_26:\n                /* \"#utility.yul\":1112:1136   */\n              tag_42\n                /* \"#utility.yul\":1130:1135   */\n              dup2\n                /* \"#utility.yul\":1112:1136   */\n              tag_23\n              jump\t// in\n            tag_42:\n                /* \"#utility.yul\":1107:1110   */\n              dup3\n                /* \"#utility.yul\":1100:1137   */\n              mstore\n                /* \"#utility.yul\":1025:1143   */\n              pop\n              pop\n              jump\t// out\n                /* \"#utility.yul\":1149:1371   */\n            tag_13:\n                /* \"#utility.yul\":1242:1246   */\n              0x00\n                /* \"#utility.yul\":1280:1282   */\n              0x20\n                /* \"#utility.yul\":1269:1278   */\n              dup3\n                /* \"#utility.yul\":1265:1283   */\n              add\n                /* \"#utility.yul\":1257:1283   */\n              swap1\n              pop\n                /* \"#utility.yul\":1293:1364   */\n              tag_44\n                /* \"#utility.yul\":1361:1362   */\n              0x00\n                /* \"#utility.yul\":1350:1359   */\n              dup4\n                /* \"#utility.yul\":1346:1363   */\n              add\n                /* \"#utility.yul\":1337:1343   */\n              dup5\n                /* \"#utility.yul\":1293:1364   */\n              tag_26\n              jump\t// in\n            tag_44:\n                /* \"#utility.yul\":1149:1371   */\n              swap3\n              swap2\n              pop\n              pop\n              jump\t// out\n\n            auxdata: 0xa264697066735822122015ce595393bbf5a046e742086b1cf3f76e58d5826e44ce5f6ec21bf4a607a95f64736f6c63430008140033\n        }\n    }\n\n    sub_1: assembly {\n            /* \"contracts/NetSpace.sol\":541:947  contract Demo1 {... */\n          mstore(0x40, 0x80)\n          callvalue\n          dup1\n          iszero\n          tag_1\n          jumpi\n          0x00\n          dup1\n          revert\n        tag_1:\n          pop\n          dataSize(sub_0)\n          dup1\n          dataOffset(sub_0)\n          0x00\n          codecopy\n          0x00\n          return\n        stop\n\n        sub_0: assembly {\n                /* \"contracts/NetSpace.sol\":541:947  contract Demo1 {... */\n              mstore(0x40, 0x80)\n              callvalue\n              dup1\n              iszero\n              tag_1\n              jumpi\n              0x00\n              dup1\n              revert\n            tag_1:\n              pop\n              jumpi(tag_2, lt(calldatasize, 0x04))\n              shr(0xe0, calldataload(0x00))\n              dup1\n              0x60fe47b1\n              eq\n              tag_3\n              jumpi\n              dup1\n              0x6d4ce63c\n              eq\n              tag_4\n              jumpi\n              dup1\n              0xf8a8fd6d\n              eq\n              tag_5\n              jumpi\n            tag_2:\n              0x00\n              dup1\n              revert\n                /* \"contracts/NetSpace.sol\":646:706  function set(uint256 _num) public{... */\n            tag_3:\n              tag_6\n              0x04\n              dup1\n              calldatasize\n              sub\n              dup2\n              add\n              swap1\n              tag_7\n              swap2\n              swap1\n              tag_8\n              jump\t// in\n            tag_7:\n              tag_9\n              jump\t// in\n            tag_6:\n              stop\n                /* \"contracts/NetSpace.sol\":785:855  function get() public view returns(uint256){... */\n            tag_4:\n              tag_10\n              tag_11\n              jump\t// in\n            tag_10:\n              mload(0x40)\n              tag_12\n              swap2\n              swap1\n              tag_13\n              jump\t// in\n            tag_12:\n              mload(0x40)\n              dup1\n              swap2\n              sub\n              swap1\n              return\n                /* \"contracts/NetSpace.sol\":861:936  function test() public pure returns(uint256){... */\n            tag_5:\n              tag_14\n              tag_15\n              jump\t// in\n            tag_14:\n              mload(0x40)\n              tag_16\n              swap2\n              swap1\n              tag_13\n              jump\t// in\n            tag_16:\n              mload(0x40)\n              dup1\n              swap2\n              sub\n              swap1\n              return\n                /* \"contracts/NetSpace.sol\":646:706  function set(uint256 _num) public{... */\n            tag_9:\n                /* \"contracts/NetSpace.sol\":695:699  _num */\n              dup1\n                /* \"contracts/NetSpace.sol\":689:692  num */\n              0x00\n                /* \"contracts/NetSpace.sol\":689:699  num = _num */\n              dup2\n              swap1\n              sstore\n              pop\n                /* \"contracts/NetSpace.sol\":646:706  function set(uint256 _num) public{... */\n              pop\n              jump\t// out\n                /* \"contracts/NetSpace.sol\":785:855  function get() public view returns(uint256){... */\n            tag_11:\n                /* \"contracts/NetSpace.sol\":820:827  uint256 */\n              0x00\n                /* \"contracts/NetSpace.sol\":845:848  num */\n              dup1\n              sload\n                /* \"contracts/NetSpace.sol\":838:848  return num */\n              swap1\n              pop\n                /* \"contracts/NetSpace.sol\":785:855  function get() public view returns(uint256){... */\n              swap1\n              jump\t// out\n                /* \"contracts/NetSpace.sol\":861:936  function test() public pure returns(uint256){... */\n            tag_15:\n                /* \"contracts/NetSpace.sol\":897:904  uint256 */\n              0x00\n                /* \"contracts/NetSpace.sol\":922:929  2**3**2 */\n              0x0200\n                /* \"contracts/NetSpace.sol\":915:929  return 2**3**2 */\n              swap1\n              pop\n                /* \"contracts/NetSpace.sol\":861:936  function test() public pure returns(uint256){... */\n              swap1\n              jump\t// out\n                /* \"#utility.yul\":88:205   */\n            tag_21:\n                /* \"#utility.yul\":197:198   */\n              0x00\n                /* \"#utility.yul\":194:195   */\n              dup1\n                /* \"#utility.yul\":187:199   */\n              revert\n                /* \"#utility.yul\":334:411   */\n            tag_23:\n                /* \"#utility.yul\":371:378   */\n              0x00\n                /* \"#utility.yul\":400:405   */\n              dup2\n                /* \"#utility.yul\":389:405   */\n              swap1\n              pop\n                /* \"#utility.yul\":334:411   */\n              swap2\n              swap1\n              pop\n              jump\t// out\n                /* \"#utility.yul\":417:539   */\n            tag_24:\n                /* \"#utility.yul\":490:514   */\n              tag_33\n                /* \"#utility.yul\":508:513   */\n              dup2\n                /* \"#utility.yul\":490:514   */\n              tag_23\n              jump\t// in\n            tag_33:\n                /* \"#utility.yul\":483:488   */\n              dup2\n                /* \"#utility.yul\":480:515   */\n              eq\n                /* \"#utility.yul\":470:533   */\n              tag_34\n              jumpi\n                /* \"#utility.yul\":529:530   */\n              0x00\n                /* \"#utility.yul\":526:527   */\n              dup1\n                /* \"#utility.yul\":519:531   */\n              revert\n                /* \"#utility.yul\":470:533   */\n            tag_34:\n                /* \"#utility.yul\":417:539   */\n              pop\n              jump\t// out\n                /* \"#utility.yul\":545:684   */\n            tag_25:\n                /* \"#utility.yul\":591:596   */\n              0x00\n                /* \"#utility.yul\":629:635   */\n              dup2\n                /* \"#utility.yul\":616:636   */\n              calldataload\n                /* \"#utility.yul\":607:636   */\n              swap1\n              pop\n                /* \"#utility.yul\":645:678   */\n              tag_36\n                /* \"#utility.yul\":672:677   */\n              dup2\n                /* \"#utility.yul\":645:678   */\n              tag_24\n              jump\t// in\n            tag_36:\n                /* \"#utility.yul\":545:684   */\n              swap3\n              swap2\n              pop\n              pop\n              jump\t// out\n                /* \"#utility.yul\":690:1019   */\n            tag_8:\n                /* \"#utility.yul\":749:755   */\n              0x00\n                /* \"#utility.yul\":798:800   */\n              0x20\n                /* \"#utility.yul\":786:795   */\n              dup3\n                /* \"#utility.yul\":777:784   */\n              dup5\n                /* \"#utility.yul\":773:796   */\n              sub\n                /* \"#utility.yul\":769:801   */\n              slt\n                /* \"#utility.yul\":766:885   */\n              iszero\n              tag_38\n              jumpi\n                /* \"#utility.yul\":804:883   */\n              tag_39\n              tag_21\n              jump\t// in\n            tag_39:\n                /* \"#utility.yul\":766:885   */\n            tag_38:\n                /* \"#utility.yul\":924:925   */\n              0x00\n                /* \"#utility.yul\":949:1002   */\n              tag_40\n                /* \"#utility.yul\":994:1001   */\n              dup5\n                /* \"#utility.yul\":985:991   */\n              dup3\n                /* \"#utility.yul\":974:983   */\n              dup6\n                /* \"#utility.yul\":970:992   */\n              add\n                /* \"#utility.yul\":949:1002   */\n              tag_25\n              jump\t// in\n            tag_40:\n                /* \"#utility.yul\":939:1002   */\n              swap2\n              pop\n                /* \"#utility.yul\":895:1012   */\n              pop\n                /* \"#utility.yul\":690:1019   */\n              swap3\n              swap2\n              pop\n              pop\n              jump\t// out\n                /* \"#utility.yul\":1025:1143   */\n            tag_26:\n                /* \"#utility.yul\":1112:1136   */\n              tag_42\n                /* \"#utility.yul\":1130:1135   */\n              dup2\n                /* \"#utility.yul\":1112:1136   */\n              tag_23\n              jump\t// in\n            tag_42:\n                /* \"#utility.yul\":1107:1110   */\n              dup3\n                /* \"#utility.yul\":1100:1137   */\n              mstore\n                /* \"#utility.yul\":1025:1143   */\n              pop\n              pop\n              jump\t// out\n                /* \"#utility.yul\":1149:1371   */\n            tag_13:\n                /* \"#utility.yul\":1242:1246   */\n              0x00\n                /* \"#utility.yul\":1280:1282   */\n              0x20\n                /* \"#utility.yul\":1269:1278   */\n              dup3\n                /* \"#utility.yul\":1265:1283   */\n              add\n                /* \"#utility.yul\":1257:1283   */\n              swap1\n              pop\n                /* \"#utility.yul\":1293:1364   */\n              tag_44\n                /* \"#utility.yul\":1361:1362   */\n              0x00\n                /* \"#utility.yul\":1350:1359   */\n              dup4\n                /* \"#utility.yul\":1346:1363   */\n              add\n                /* \"#utility.yul\":1337:1343   */\n              dup5\n                /* \"#utility.yul\":1293:1364   */\n              tag_26\n              jump\t// in\n            tag_44:\n                /* \"#utility.yul\":1149:1371   */\n              swap3\n              swap2\n              pop\n              pop\n              jump\t// out\n\n            auxdata: 0xa2646970667358221220039c11dc521100e4b4f966d412f3ed188f5014dd1f170175041abbf5861a7a2c64736f6c63430008140033\n        }\n    }\n\n    auxdata: 0xa264697066735822122093aaf38ea791a7d87741cfb69e50a50e9bc85ad7889fb00859eda3ae18ff647964736f6c63430008140033\n}\n",
				"bytecode": {
					"linkReferences": {},
					"object": "608060405234801561000f575f80fd5b5061001e61002860201b60201c565b5f81905550610031565b5f610200905090565b6107918061003e5f395ff3fe608060405234801561000f575f80fd5b5060043610610055575f3560e01c8063034899bc1461005957806317d7de7c14610077578063a986ac9714610095578063bd5a4672146100b3578063f8a8fd6d146100d1575b5f80fd5b6100616100ef565b60405161006e91906102ea565b60405180910390f35b61007f610116565b60405161008c919061038d565b60405180910390f35b61009d610153565b6040516100aa91906103c5565b60405180910390f35b6100bb6101f0565b6040516100c891906103c5565b60405180910390f35b6100d961028d565b6040516100e691906103c5565b60405180910390f35b5f7f552079dccdd240270daf6f7b8880a36555740730dd71469d4b1bb6a76a47c355905090565b60606040518060400160405260048152806020017f44656d6f00000000000000000000000000000000000000000000000000000000815250905090565b5f8060405161016190610296565b604051809103905ff08015801561017a573d5f803e3d5ffd5b5090508073ffffffffffffffffffffffffffffffffffffffff1663f8a8fd6d6040518163ffffffff1660e01b8152600401602060405180830381865afa1580156101c6573d5f803e3d5ffd5b505050506040513d601f19601f820116820180604052508101906101ea919061040c565b91505090565b5f806040516101fe906102a3565b604051809103905ff080158015610217573d5f803e3d5ffd5b5090508073ffffffffffffffffffffffffffffffffffffffff1663f8a8fd6d6040518163ffffffff1660e01b8152600401602060405180830381865afa158015610263573d5f803e3d5ffd5b505050506040513d601f19601f82011682018060405250810190610287919061040c565b91505090565b5f610200905090565b6101928061043883390190565b610192806105ca83390190565b5f7fffffffff0000000000000000000000000000000000000000000000000000000082169050919050565b6102e4816102b0565b82525050565b5f6020820190506102fd5f8301846102db565b92915050565b5f81519050919050565b5f82825260208201905092915050565b5f5b8381101561033a57808201518184015260208101905061031f565b5f8484015250505050565b5f601f19601f8301169050919050565b5f61035f82610303565b610369818561030d565b935061037981856020860161031d565b61038281610345565b840191505092915050565b5f6020820190508181035f8301526103a58184610355565b905092915050565b5f819050919050565b6103bf816103ad565b82525050565b5f6020820190506103d85f8301846103b6565b92915050565b5f80fd5b6103eb816103ad565b81146103f5575f80fd5b50565b5f81519050610406816103e2565b92915050565b5f60208284031215610421576104206103de565b5b5f61042e848285016103f8565b9150509291505056fe608060405234801561000f575f80fd5b506101758061001d5f395ff3fe608060405234801561000f575f80fd5b506004361061003f575f3560e01c806360fe47b1146100435780636d4ce63c1461005f578063f8a8fd6d1461007d575b5f80fd5b61005d600480360381019061005891906100ec565b61009b565b005b6100676100a4565b6040516100749190610126565b60405180910390f35b6100856100ac565b6040516100929190610126565b60405180910390f35b805f8190555050565b5f8054905090565b5f610200905090565b5f80fd5b5f819050919050565b6100cb816100b9565b81146100d5575f80fd5b50565b5f813590506100e6816100c2565b92915050565b5f60208284031215610101576101006100b5565b5b5f61010e848285016100d8565b91505092915050565b610120816100b9565b82525050565b5f6020820190506101395f830184610117565b9291505056fea264697066735822122015ce595393bbf5a046e742086b1cf3f76e58d5826e44ce5f6ec21bf4a607a95f64736f6c63430008140033608060405234801561000f575f80fd5b506101758061001d5f395ff3fe608060405234801561000f575f80fd5b506004361061003f575f3560e01c806360fe47b1146100435780636d4ce63c1461005f578063f8a8fd6d1461007d575b5f80fd5b61005d600480360381019061005891906100ec565b61009b565b005b6100676100a4565b6040516100749190610126565b60405180910390f35b6100856100ac565b6040516100929190610126565b60405180910390f35b805f8190555050565b5f8054905090565b5f610200905090565b5f80fd5b5f819050919050565b6100cb816100b9565b81146100d5575f80fd5b50565b5f813590506100e6816100c2565b92915050565b5f60208284031215610101576101006100b5565b5b5f61010e848285016100d8565b91505092915050565b610120816100b9565b82525050565b5f6020820190506101395f830184610117565b9291505056fea2646970667358221220039c11dc521100e4b4f966d412f3ed188f5014dd1f170175041abbf5861a7a2c64736f6c63430008140033a264697066735822122093aaf38ea791a7d87741cfb69e50a50e9bc85ad7889fb00859eda3ae18ff647964736f6c63430008140033",
					"opcodes": "PUSH1 0x80 PUSH1 0x40 MSTORE CALLVALUE DUP1 ISZERO PUSH2 0xF JUMPI PUSH0 DUP1 REVERT JUMPDEST POP PUSH2 0x1E PUSH2 0x28 PUSH1 0x20 SHL PUSH1 0x20 SHR JUMP JUMPDEST PUSH0 DUP2 SWAP1 SSTORE POP PUSH2 0x31 JUMP JUMPDEST PUSH0 PUSH2 0x200 SWAP1 POP SWAP1 JUMP JUMPDEST PUSH2 0x791 DUP1 PUSH2 0x3E PUSH0 CODECOPY PUSH0 RETURN INVALID PUSH1 0x80 PUSH1 0x40 MSTORE CALLVALUE DUP1 ISZERO PUSH2 0xF JUMPI PUSH0 DUP1 REVERT JUMPDEST POP PUSH1 0x4 CALLDATASIZE LT PUSH2 0x55 JUMPI PUSH0 CALLDATALOAD PUSH1 0xE0 SHR DUP1 PUSH4 0x34899BC EQ PUSH2 0x59 JUMPI DUP1 PUSH4 0x17D7DE7C EQ PUSH2 0x77 JUMPI DUP1 PUSH4 0xA986AC97 EQ PUSH2 0x95 JUMPI DUP1 PUSH4 0xBD5A4672 EQ PUSH2 0xB3 JUMPI DUP1 PUSH4 0xF8A8FD6D EQ PUSH2 0xD1 JUMPI JUMPDEST PUSH0 DUP1 REVERT JUMPDEST PUSH2 0x61 PUSH2 0xEF JUMP JUMPDEST PUSH1 0x40 MLOAD PUSH2 0x6E SWAP2 SWAP1 PUSH2 0x2EA JUMP JUMPDEST PUSH1 0x40 MLOAD DUP1 SWAP2 SUB SWAP1 RETURN JUMPDEST PUSH2 0x7F PUSH2 0x116 JUMP JUMPDEST PUSH1 0x40 MLOAD PUSH2 0x8C SWAP2 SWAP1 PUSH2 0x38D JUMP JUMPDEST PUSH1 0x40 MLOAD DUP1 SWAP2 SUB SWAP1 RETURN JUMPDEST PUSH2 0x9D PUSH2 0x153 JUMP JUMPDEST PUSH1 0x40 MLOAD PUSH2 0xAA SWAP2 SWAP1 PUSH2 0x3C5 JUMP JUMPDEST PUSH1 0x40 MLOAD DUP1 SWAP2 SUB SWAP1 RETURN JUMPDEST PUSH2 0xBB PUSH2 0x1F0 JUMP JUMPDEST PUSH1 0x40 MLOAD PUSH2 0xC8 SWAP2 SWAP1 PUSH2 0x3C5 JUMP JUMPDEST PUSH1 0x40 MLOAD DUP1 SWAP2 SUB SWAP1 RETURN JUMPDEST PUSH2 0xD9 PUSH2 0x28D JUMP JUMPDEST PUSH1 0x40 MLOAD PUSH2 0xE6 SWAP2 SWAP1 PUSH2 0x3C5 JUMP JUMPDEST PUSH1 0x40 MLOAD DUP1 SWAP2 SUB SWAP1 RETURN JUMPDEST PUSH0 PUSH32 0x552079DCCDD240270DAF6F7B8880A36555740730DD71469D4B1BB6A76A47C355 SWAP1 POP SWAP1 JUMP JUMPDEST PUSH1 0x60 PUSH1 0x40 MLOAD DUP1 PUSH1 0x40 ADD PUSH1 0x40 MSTORE PUSH1 0x4 DUP2 MSTORE DUP1 PUSH1 0x20 ADD PUSH32 0x44656D6F00000000000000000000000000000000000000000000000000000000 DUP2 MSTORE POP SWAP1 POP SWAP1 JUMP JUMPDEST PUSH0 DUP1 PUSH1 0x40 MLOAD PUSH2 0x161 SWAP1 PUSH2 0x296 JUMP JUMPDEST PUSH1 0x40 MLOAD DUP1 SWAP2 SUB SWAP1 PUSH0 CREATE DUP1 ISZERO DUP1 ISZERO PUSH2 0x17A JUMPI RETURNDATASIZE PUSH0 DUP1 RETURNDATACOPY RETURNDATASIZE PUSH0 REVERT JUMPDEST POP SWAP1 POP DUP1 PUSH20 0xFFFFFFFFFFFFFFFFFFFFFFFFFFFFFFFFFFFFFFFF AND PUSH4 0xF8A8FD6D PUSH1 0x40 MLOAD DUP2 PUSH4 0xFFFFFFFF AND PUSH1 0xE0 SHL DUP2 MSTORE PUSH1 0x4 ADD PUSH1 0x20 PUSH1 0x40 MLOAD DUP1 DUP4 SUB DUP2 DUP7 GAS STATICCALL ISZERO DUP1 ISZERO PUSH2 0x1C6 JUMPI RETURNDATASIZE PUSH0 DUP1 RETURNDATACOPY RETURNDATASIZE PUSH0 REVERT JUMPDEST POP POP POP POP PUSH1 0x40 MLOAD RETURNDATASIZE PUSH1 0x1F NOT PUSH1 0x1F DUP3 ADD AND DUP3 ADD DUP1 PUSH1 0x40 MSTORE POP DUP2 ADD SWAP1 PUSH2 0x1EA SWAP2 SWAP1 PUSH2 0x40C JUMP JUMPDEST SWAP2 POP POP SWAP1 JUMP JUMPDEST PUSH0 DUP1 PUSH1 0x40 MLOAD PUSH2 0x1FE SWAP1 PUSH2 0x2A3 JUMP JUMPDEST PUSH1 0x40 MLOAD DUP1 SWAP2 SUB SWAP1 PUSH0 CREATE DUP1 ISZERO DUP1 ISZERO PUSH2 0x217 JUMPI RETURNDATASIZE PUSH0 DUP1 RETURNDATACOPY RETURNDATASIZE PUSH0 REVERT JUMPDEST POP SWAP1 POP DUP1 PUSH20 0xFFFFFFFFFFFFFFFFFFFFFFFFFFFFFFFFFFFFFFFF AND PUSH4 0xF8A8FD6D PUSH1 0x40 MLOAD DUP2 PUSH4 0xFFFFFFFF AND PUSH1 0xE0 SHL DUP2 MSTORE PUSH1 0x4 ADD PUSH1 0x20 PUSH1 0x40 MLOAD DUP1 DUP4 SUB DUP2 DUP7 GAS STATICCALL ISZERO DUP1 ISZERO PUSH2 0x263 JUMPI RETURNDATASIZE PUSH0 DUP1 RETURNDATACOPY RETURNDATASIZE PUSH0 REVERT JUMPDEST POP POP POP POP PUSH1 0x40 MLOAD RETURNDATASIZE PUSH1 0x1F NOT PUSH1 0x1F DUP3 ADD AND DUP3 ADD DUP1 PUSH1 0x40 MSTORE POP DUP2 ADD SWAP1 PUSH2 0x287 SWAP2 SWAP1 PUSH2 0x40C JUMP JUMPDEST SWAP2 POP POP SWAP1 JUMP JUMPDEST PUSH0 PUSH2 0x200 SWAP1 POP SWAP1 JUMP JUMPDEST PUSH2 0x192 DUP1 PUSH2 0x438 DUP4 CODECOPY ADD SWAP1 JUMP JUMPDEST PUSH2 0x192 DUP1 PUSH2 0x5CA DUP4 CODECOPY ADD SWAP1 JUMP JUMPDEST PUSH0 PUSH32 0xFFFFFFFF00000000000000000000000000000000000000000000000000000000 DUP3 AND SWAP1 POP SWAP2 SWAP1 POP JUMP JUMPDEST PUSH2 0x2E4 DUP2 PUSH2 0x2B0 JUMP JUMPDEST DUP3 MSTORE POP POP JUMP JUMPDEST PUSH0 PUSH1 0x20 DUP3 ADD SWAP1 POP PUSH2 0x2FD PUSH0 DUP4 ADD DUP5 PUSH2 0x2DB JUMP JUMPDEST SWAP3 SWAP2 POP POP JUMP JUMPDEST PUSH0 DUP2 MLOAD SWAP1 POP SWAP2 SWAP1 POP JUMP JUMPDEST PUSH0 DUP3 DUP3 MSTORE PUSH1 0x20 DUP3 ADD SWAP1 POP SWAP3 SWAP2 POP POP JUMP JUMPDEST PUSH0 JUMPDEST DUP4 DUP2 LT ISZERO PUSH2 0x33A JUMPI DUP1 DUP3 ADD MLOAD DUP2 DUP5 ADD MSTORE PUSH1 0x20 DUP2 ADD SWAP1 POP PUSH2 0x31F JUMP JUMPDEST PUSH0 DUP5 DUP5 ADD MSTORE POP POP POP POP JUMP JUMPDEST PUSH0 PUSH1 0x1F NOT PUSH1 0x1F DUP4 ADD AND SWAP1 POP SWAP2 SWAP1 POP JUMP JUMPDEST PUSH0 PUSH2 0x35F DUP3 PUSH2 0x303 JUMP JUMPDEST PUSH2 0x369 DUP2 DUP6 PUSH2 0x30D JUMP JUMPDEST SWAP4 POP PUSH2 0x379 DUP2 DUP6 PUSH1 0x20 DUP7 ADD PUSH2 0x31D JUMP JUMPDEST PUSH2 0x382 DUP2 PUSH2 0x345 JUMP JUMPDEST DUP5 ADD SWAP2 POP POP SWAP3 SWAP2 POP POP JUMP JUMPDEST PUSH0 PUSH1 0x20 DUP3 ADD SWAP1 POP DUP2 DUP2 SUB PUSH0 DUP4 ADD MSTORE PUSH2 0x3A5 DUP2 DUP5 PUSH2 0x355 JUMP JUMPDEST SWAP1 POP SWAP3 SWAP2 POP POP JUMP JUMPDEST PUSH0 DUP2 SWAP1 POP SWAP2 SWAP1 POP JUMP JUMPDEST PUSH2 0x3BF DUP2 PUSH2 0x3AD JUMP JUMPDEST DUP3 MSTORE POP POP JUMP JUMPDEST PUSH0 PUSH1 0x20 DUP3 ADD SWAP1 POP PUSH2 0x3D8 PUSH0 DUP4 ADD DUP5 PUSH2 0x3B6 JUMP JUMPDEST SWAP3 SWAP2 POP POP JUMP JUMPDEST PUSH0 DUP1 REVERT JUMPDEST PUSH2 0x3EB DUP2 PUSH2 0x3AD JUMP JUMPDEST DUP2 EQ PUSH2 0x3F5 JUMPI PUSH0 DUP1 REVERT JUMPDEST POP JUMP JUMPDEST PUSH0 DUP2 MLOAD SWAP1 POP PUSH2 0x406 DUP2 PUSH2 0x3E2 JUMP JUMPDEST SWAP3 SWAP2 POP POP JUMP JUMPDEST PUSH0 PUSH1 0x20 DUP3 DUP5 SUB SLT ISZERO PUSH2 0x421 JUMPI PUSH2 0x420 PUSH2 0x3DE JUMP JUMPDEST JUMPDEST PUSH0 PUSH2 0x42E DUP5 DUP3 DUP6 ADD PUSH2 0x3F8 JUMP JUMPDEST SWAP2 POP POP SWAP3 SWAP2 POP POP JUMP INVALID PUSH1 0x80 PUSH1 0x40 MSTORE CALLVALUE DUP1 ISZERO PUSH2 0xF JUMPI PUSH0 DUP1 REVERT JUMPDEST POP PUSH2 0x175 DUP1 PUSH2 0x1D PUSH0 CODECOPY PUSH0 RETURN INVALID PUSH1 0x80 PUSH1 0x40 MSTORE CALLVALUE DUP1 ISZERO PUSH2 0xF JUMPI PUSH0 DUP1 REVERT JUMPDEST POP PUSH1 0x4 CALLDATASIZE LT PUSH2 0x3F JUMPI PUSH0 CALLDATALOAD PUSH1 0xE0 SHR DUP1 PUSH4 0x60FE47B1 EQ PUSH2 0x43 JUMPI DUP1 PUSH4 0x6D4CE63C EQ PUSH2 0x5F JUMPI DUP1 PUSH4 0xF8A8FD6D EQ PUSH2 0x7D JUMPI JUMPDEST PUSH0 DUP1 REVERT JUMPDEST PUSH2 0x5D PUSH1 0x4 DUP1 CALLDATASIZE SUB DUP2 ADD SWAP1 PUSH2 0x58 SWAP2 SWAP1 PUSH2 0xEC JUMP JUMPDEST PUSH2 0x9B JUMP JUMPDEST STOP JUMPDEST PUSH2 0x67 PUSH2 0xA4 JUMP JUMPDEST PUSH1 0x40 MLOAD PUSH2 0x74 SWAP2 SWAP1 PUSH2 0x126 JUMP JUMPDEST PUSH1 0x40 MLOAD DUP1 SWAP2 SUB SWAP1 RETURN JUMPDEST PUSH2 0x85 PUSH2 0xAC JUMP JUMPDEST PUSH1 0x40 MLOAD PUSH2 0x92 SWAP2 SWAP1 PUSH2 0x126 JUMP JUMPDEST PUSH1 0x40 MLOAD DUP1 SWAP2 SUB SWAP1 RETURN JUMPDEST DUP1 PUSH0 DUP2 SWAP1 SSTORE POP POP JUMP JUMPDEST PUSH0 DUP1 SLOAD SWAP1 POP SWAP1 JUMP JUMPDEST PUSH0 PUSH2 0x200 SWAP1 POP SWAP1 JUMP JUMPDEST PUSH0 DUP1 REVERT JUMPDEST PUSH0 DUP2 SWAP1 POP SWAP2 SWAP1 POP JUMP JUMPDEST PUSH2 0xCB DUP2 PUSH2 0xB9 JUMP JUMPDEST DUP2 EQ PUSH2 0xD5 JUMPI PUSH0 DUP1 REVERT JUMPDEST POP JUMP JUMPDEST PUSH0 DUP2 CALLDATALOAD SWAP1 POP PUSH2 0xE6 DUP2 PUSH2 0xC2 JUMP JUMPDEST SWAP3 SWAP2 POP POP JUMP JUMPDEST PUSH0 PUSH1 0x20 DUP3 DUP5 SUB SLT ISZERO PUSH2 0x101 JUMPI PUSH2 0x100 PUSH2 0xB5 JUMP JUMPDEST JUMPDEST PUSH0 PUSH2 0x10E DUP5 DUP3 DUP6 ADD PUSH2 0xD8 JUMP JUMPDEST SWAP2 POP POP SWAP3 SWAP2 POP POP JUMP JUMPDEST PUSH2 0x120 DUP2 PUSH2 0xB9 JUMP JUMPDEST DUP3 MSTORE POP POP JUMP JUMPDEST PUSH0 PUSH1 0x20 DUP3 ADD SWAP1 POP PUSH2 0x139 PUSH0 DUP4 ADD DUP5 PUSH2 0x117 JUMP JUMPDEST SWAP3 SWAP2 POP POP JUMP INVALID LOG2 PUSH5 0x6970667358 0x22 SLT KECCAK256 ISZERO 0xCE MSIZE MSTORE8 SWAP4 0xBB CREATE2 LOG0 CHAINID 0xE7 TIMESTAMP ADDMOD PUSH12 0x1CF3F76E58D5826E44CE5F6E 0xC2 SHL DELEGATECALL 0xA6 SMOD 0xA9 PUSH0 PUSH5 0x736F6C6343 STOP ADDMOD EQ STOP CALLER PUSH1 0x80 PUSH1 0x40 MSTORE CALLVALUE DUP1 ISZERO PUSH2 0xF JUMPI PUSH0 DUP1 REVERT JUMPDEST POP PUSH2 0x175 DUP1 PUSH2 0x1D PUSH0 CODECOPY PUSH0 RETURN INVALID PUSH1 0x80 PUSH1 0x40 MSTORE CALLVALUE DUP1 ISZERO PUSH2 0xF JUMPI PUSH0 DUP1 REVERT JUMPDEST POP PUSH1 0x4 CALLDATASIZE LT PUSH2 0x3F JUMPI PUSH0 CALLDATALOAD PUSH1 0xE0 SHR DUP1 PUSH4 0x60FE47B1 EQ PUSH2 0x43 JUMPI DUP1 PUSH4 0x6D4CE63C EQ PUSH2 0x5F JUMPI DUP1 PUSH4 0xF8A8FD6D EQ PUSH2 0x7D JUMPI JUMPDEST PUSH0 DUP1 REVERT JUMPDEST PUSH2 0x5D PUSH1 0x4 DUP1 CALLDATASIZE SUB DUP2 ADD SWAP1 PUSH2 0x58 SWAP2 SWAP1 PUSH2 0xEC JUMP JUMPDEST PUSH2 0x9B JUMP JUMPDEST STOP JUMPDEST PUSH2 0x67 PUSH2 0xA4 JUMP JUMPDEST PUSH1 0x40 MLOAD PUSH2 0x74 SWAP2 SWAP1 PUSH2 0x126 JUMP JUMPDEST PUSH1 0x40 MLOAD DUP1 SWAP2 SUB SWAP1 RETURN JUMPDEST PUSH2 0x85 PUSH2 0xAC JUMP JUMPDEST PUSH1 0x40 MLOAD PUSH2 0x92 SWAP2 SWAP1 PUSH2 0x126 JUMP JUMPDEST PUSH1 0x40 MLOAD DUP1 SWAP2 SUB SWAP1 RETURN JUMPDEST DUP1 PUSH0 DUP2 SWAP1 SSTORE POP POP JUMP JUMPDEST PUSH0 DUP1 SLOAD SWAP1 POP SWAP1 JUMP JUMPDEST PUSH0 PUSH2 0x200 SWAP1 POP SWAP1 JUMP JUMPDEST PUSH0 DUP1 REVERT JUMPDEST PUSH0 DUP2 SWAP1 POP SWAP2 SWAP1 POP JUMP JUMPDEST PUSH2 0xCB DUP2 PUSH2 0xB9 JUMP JUMPDEST DUP2 EQ PUSH2 0xD5 JUMPI PUSH0 DUP1 REVERT JUMPDEST POP JUMP JUMPDEST PUSH0 DUP2 CALLDATALOAD SWAP1 POP PUSH2 0xE6 DUP2 PUSH2 0xC2 JUMP JUMPDEST SWAP3 SWAP2 POP POP JUMP JUMPDEST PUSH0 PUSH1 0x20 DUP3 DUP5 SUB SLT ISZERO PUSH2 0x101 JUMPI PUSH2 0x100 PUSH2 0xB5 JUMP JUMPDEST JUMPDEST PUSH0 PUSH2 0x10E DUP5 DUP3 DUP6 ADD PUSH2 0xD8 JUMP JUMPDEST SWAP2 POP POP SWAP3 SWAP2 POP POP JUMP JUMPDEST PUSH2 0x120 DUP2 PUSH2 0xB9 JUMP JUMPDEST DUP3 MSTORE POP POP JUMP JUMPDEST PUSH0 PUSH1 0x20 DUP3 ADD SWAP1 POP PUSH2 0x139 PUSH0 DUP4 ADD DUP5 PUSH2 0x117 JUMP JUMPDEST SWAP3 SWAP2 POP POP JUMP INVALID LOG2 PUSH5 0x6970667358 0x22 SLT KECCAK256 SUB SWAP13 GT 0xDC MSTORE GT STOP 0xE4 0xB4 0xF9 PUSH7 0xD412F3ED188F50 EQ 0xDD 0x1F OR ADD PUSH22 0x41ABBF5861A7A2C64736F6C63430008140033A26469 PUSH17 0x66735822122093AAF38EA791A7D87741CF 0xB6 SWAP15 POP 0xA5 0xE SWAP12 0xC8 GAS 0xD7 DUP9 SWAP16 0xB0 ADDMOD MSIZE 0xED LOG3 0xAE XOR SELFDESTRUCT PUSH5 0x7964736F6C PUSH4 0x43000814 STOP CALLER "
				},
				"gasEstimates": {
					"creation": {
						"codeDepositCost": "387400",
						"executionCost": "infinite",
						"totalCost": "infinite"
					},
					"external": {
						"callDemo1Test()": "infinite",
						"callDemoTest()": "infinite",
						"getName()": "infinite",
						"getSelector()": "316",
						"test()": "398"
					}
				},
				"methodIdentifiers": {
					"callDemo1Test()": "bd5a4672",
					"callDemoTest()": "a986ac97",
					"getName()": "17d7de7c",
					"getSelector()": "034899bc",
					"test()": "f8a8fd6d"
				}
			},
			"storageLayout": {
				"storage": [
					{
						"astId": 83,
						"contract": "contracts/Version.sol:Test",
						"label": "num",
						"offset": 0,
						"slot": "0",
						"type": "t_uint256"
					}
				],
				"types": {
					"t_uint256": {
						"encoding": "inplace",
						"label": "uint256",
						"numberOfBytes": "32"
					}
				}
			},
			"userdoc": {
				"kind": "user",
				"methods": {},
				"version": 1
			}
		}
	}
}