{
	"contracts/Demo5.sol": {
		"Demo": {
			"abi": [
				{
					"inputs": [
						{
							"internalType": "bytes",
							"name": "bytecode",
							"type": "bytes"
						},
						{
							"internalType": "uint256",
							"name": "_salt",
							"type": "uint256"
						}
					],
					"name": "deploy",
					"outputs": [
						{
							"internalType": "address",
							"name": "",
							"type": "address"
						}
					],
					"stateMutability": "nonpayable",
					"type": "function"
				},
				{
					"inputs": [
						{
							"internalType": "bytes",
							"name": "bytecode",
							"type": "bytes"
						},
						{
							"internalType": "uint256",
							"name": "_salt",
							"type": "uint256"
						}
					],
					"name": "getAddress",
					"outputs": [
						{
							"internalType": "address",
							"name": "",
							"type": "address"
						}
					],
					"stateMutability": "view",
					"type": "function"
				}
			],
			"devdoc": {
				"kind": "dev",
				"methods": {},
				"version": 1
			},
			"evm": {
				"assembly": "    /* \"contracts/Demo5.sol\":199:1152  contract Demo {... */\n  mstore(0x40, 0x80)\n  callvalue\n  dup1\n  iszero\n  tag_1\n  jumpi\n  0x00\n  dup1\n  revert\ntag_1:\n  pop\n  dataSize(sub_0)\n  dup1\n  dataOffset(sub_0)\n  0x00\n  codecopy\n  0x00\n  return\nstop\n\nsub_0: assembly {\n        /* \"contracts/Demo5.sol\":199:1152  contract Demo {... */\n      mstore(0x40, 0x80)\n      callvalue\n      dup1\n      iszero\n      tag_1\n      jumpi\n      0x00\n      dup1\n      revert\n    tag_1:\n      pop\n      jumpi(tag_2, lt(calldatasize, 0x04))\n      shr(0xe0, calldataload(0x00))\n      dup1\n      0x94ca2cb5\n      eq\n      tag_3\n      jumpi\n      dup1\n      0x9c4ae2d0\n      eq\n      tag_4\n      jumpi\n    tag_2:\n      0x00\n      dup1\n      revert\n        /* \"contracts/Demo5.sol\":256:778  function getAddress(bytes memory bytecode, uint256 _salt)... */\n    tag_3:\n      tag_5\n      0x04\n      dup1\n      calldatasize\n      sub\n      dup2\n      add\n      swap1\n      tag_6\n      swap2\n      swap1\n      tag_7\n      jump\t// in\n    tag_6:\n      tag_8\n      jump\t// in\n    tag_5:\n      mload(0x40)\n      tag_9\n      swap2\n      swap1\n      tag_10\n      jump\t// in\n    tag_9:\n      mload(0x40)\n      dup1\n      swap2\n      sub\n      swap1\n      return\n        /* \"contracts/Demo5.sol\":786:1149  function deploy(bytes memory bytecode, uint256 _salt)... */\n    tag_4:\n      tag_11\n      0x04\n      dup1\n      calldatasize\n      sub\n      dup2\n      add\n      swap1\n      tag_12\n      swap2\n      swap1\n      tag_7\n      jump\t// in\n    tag_12:\n      tag_13\n      jump\t// in\n    tag_11:\n      mload(0x40)\n      tag_14\n      swap2\n      swap1\n      tag_10\n      jump\t// in\n    tag_14:\n      mload(0x40)\n      dup1\n      swap2\n      sub\n      swap1\n      return\n        /* \"contracts/Demo5.sol\":256:778  function getAddress(bytes memory bytecode, uint256 _salt)... */\n    tag_8:\n        /* \"contracts/Demo5.sol\":364:371  address */\n      0x00\n        /* \"contracts/Demo5.sol\":389:401  bytes32 hash */\n      dup1\n        /* \"contracts/Demo5.sol\":470:474  0xff */\n      0xff\n        /* \"contracts/Demo5.sol\":463:475  bytes1(0xff) */\n      0xf8\n      shl\n        /* \"contracts/Demo5.sol\":521:525  this */\n      address\n        /* \"contracts/Demo5.sol\":573:578  _salt */\n      dup5\n        /* \"contracts/Demo5.sol\":615:623  bytecode */\n      dup7\n        /* \"contracts/Demo5.sol\":605:624  keccak256(bytecode) */\n      dup1\n      mload\n      swap1\n      0x20\n      add\n      keccak256\n        /* \"contracts/Demo5.sol\":428:666  abi.encodePacked(... */\n      add(0x20, mload(0x40))\n      tag_16\n      swap5\n      swap4\n      swap3\n      swap2\n      swap1\n      tag_17\n      jump\t// in\n    tag_16:\n      mload(0x40)\n      0x20\n      dup2\n      dup4\n      sub\n      sub\n      dup2\n      mstore\n      swap1\n      0x40\n      mstore\n        /* \"contracts/Demo5.sol\":404:677  keccak256(... */\n      dup1\n      mload\n      swap1\n      0x20\n      add\n      keccak256\n        /* \"contracts/Demo5.sol\":389:677  bytes32 hash = keccak256(... */\n      swap1\n      pop\n        /* \"contracts/Demo5.sol\":719:723  hash */\n      dup1\n        /* \"contracts/Demo5.sol\":711:724  uint256(hash) */\n      0x00\n      shr\n        /* \"contracts/Demo5.sol\":688:726  return address(uint160(uint256(hash))) */\n      swap2\n      pop\n      pop\n        /* \"contracts/Demo5.sol\":256:778  function getAddress(bytes memory bytecode, uint256 _salt)... */\n      swap3\n      swap2\n      pop\n      pop\n      jump\t// out\n        /* \"contracts/Demo5.sol\":786:1149  function deploy(bytes memory bytecode, uint256 _salt)... */\n    tag_13:\n        /* \"contracts/Demo5.sol\":876:883  address */\n      0x00\n        /* \"contracts/Demo5.sol\":901:913  address addr */\n      dup1\n        /* \"contracts/Demo5.sol\":951:952  0 */\n      0x00\n        /* \"contracts/Demo5.sol\":932:940  bytecode */\n      dup5\n        /* \"contracts/Demo5.sol\":932:947  bytecode.length */\n      mload\n        /* \"contracts/Demo5.sol\":932:952  bytecode.length != 0 */\n      sub\n        /* \"contracts/Demo5.sol\":924:972  require(bytecode.length != 0,\"bytecode is zero\") */\n      tag_19\n      jumpi\n      mload(0x40)\n      0x08c379a000000000000000000000000000000000000000000000000000000000\n      dup2\n      mstore\n      0x04\n      add\n      tag_20\n      swap1\n      tag_21\n      jump\t// in\n    tag_20:\n      mload(0x40)\n      dup1\n      swap2\n      sub\n      swap1\n      revert\n    tag_19:\n        /* \"contracts/Demo5.sol\":1059:1064  _salt */\n      dup3\n        /* \"contracts/Demo5.sol\":1049:1057  bytecode */\n      dup5\n        /* \"contracts/Demo5.sol\":1043:1058  mload(bytecode) */\n      mload\n        /* \"contracts/Demo5.sol\":1037:1041  0x20 */\n      0x20\n        /* \"contracts/Demo5.sol\":1028:1036  bytecode */\n      dup7\n        /* \"contracts/Demo5.sol\":1024:1042  add(bytecode,0x20) */\n      add\n        /* \"contracts/Demo5.sol\":1022:1023  0 */\n      0x00\n        /* \"contracts/Demo5.sol\":1014:1065  create2(0,add(bytecode,0x20),mload(bytecode),_salt) */\n      create2\n        /* \"contracts/Demo5.sol\":1006:1065  addr := create2(0,add(bytecode,0x20),mload(bytecode),_salt) */\n      swap1\n      pop\n        /* \"contracts/Demo5.sol\":1093:1097  addr */\n      dup1\n        /* \"contracts/Demo5.sol\":1086:1097  return addr */\n      swap2\n      pop\n      pop\n        /* \"contracts/Demo5.sol\":786:1149  function deploy(bytes memory bytecode, uint256 _salt)... */\n      swap3\n      swap2\n      pop\n      pop\n      jump\t// out\n        /* \"#utility.yul\":7:82   */\n    tag_22:\n        /* \"#utility.yul\":40:46   */\n      0x00\n        /* \"#utility.yul\":73:75   */\n      0x40\n        /* \"#utility.yul\":67:76   */\n      mload\n        /* \"#utility.yul\":57:76   */\n      swap1\n      pop\n        /* \"#utility.yul\":7:82   */\n      swap1\n      jump\t// out\n        /* \"#utility.yul\":88:205   */\n    tag_23:\n        /* \"#utility.yul\":197:198   */\n      0x00\n        /* \"#utility.yul\":194:195   */\n      dup1\n        /* \"#utility.yul\":187:199   */\n      revert\n        /* \"#utility.yul\":211:328   */\n    tag_24:\n        /* \"#utility.yul\":320:321   */\n      0x00\n        /* \"#utility.yul\":317:318   */\n      dup1\n        /* \"#utility.yul\":310:322   */\n      revert\n        /* \"#utility.yul\":334:451   */\n    tag_25:\n        /* \"#utility.yul\":443:444   */\n      0x00\n        /* \"#utility.yul\":440:441   */\n      dup1\n        /* \"#utility.yul\":433:445   */\n      revert\n        /* \"#utility.yul\":457:574   */\n    tag_26:\n        /* \"#utility.yul\":566:567   */\n      0x00\n        /* \"#utility.yul\":563:564   */\n      dup1\n        /* \"#utility.yul\":556:568   */\n      revert\n        /* \"#utility.yul\":580:682   */\n    tag_27:\n        /* \"#utility.yul\":621:627   */\n      0x00\n        /* \"#utility.yul\":672:674   */\n      0x1f\n        /* \"#utility.yul\":668:675   */\n      not\n        /* \"#utility.yul\":663:665   */\n      0x1f\n        /* \"#utility.yul\":656:661   */\n      dup4\n        /* \"#utility.yul\":652:666   */\n      add\n        /* \"#utility.yul\":648:676   */\n      and\n        /* \"#utility.yul\":638:676   */\n      swap1\n      pop\n        /* \"#utility.yul\":580:682   */\n      swap2\n      swap1\n      pop\n      jump\t// out\n        /* \"#utility.yul\":688:868   */\n    tag_28:\n        /* \"#utility.yul\":736:813   */\n      0x4e487b7100000000000000000000000000000000000000000000000000000000\n        /* \"#utility.yul\":733:734   */\n      0x00\n        /* \"#utility.yul\":726:814   */\n      mstore\n        /* \"#utility.yul\":833:837   */\n      0x41\n        /* \"#utility.yul\":830:831   */\n      0x04\n        /* \"#utility.yul\":823:838   */\n      mstore\n        /* \"#utility.yul\":857:861   */\n      0x24\n        /* \"#utility.yul\":854:855   */\n      0x00\n        /* \"#utility.yul\":847:862   */\n      revert\n        /* \"#utility.yul\":874:1155   */\n    tag_29:\n        /* \"#utility.yul\":957:984   */\n      tag_65\n        /* \"#utility.yul\":979:983   */\n      dup3\n        /* \"#utility.yul\":957:984   */\n      tag_27\n      jump\t// in\n    tag_65:\n        /* \"#utility.yul\":949:955   */\n      dup2\n        /* \"#utility.yul\":945:985   */\n      add\n        /* \"#utility.yul\":1087:1093   */\n      dup2\n        /* \"#utility.yul\":1075:1085   */\n      dup2\n        /* \"#utility.yul\":1072:1094   */\n      lt\n        /* \"#utility.yul\":1051:1069   */\n      0xffffffffffffffff\n        /* \"#utility.yul\":1039:1049   */\n      dup3\n        /* \"#utility.yul\":1036:1070   */\n      gt\n        /* \"#utility.yul\":1033:1095   */\n      or\n        /* \"#utility.yul\":1030:1118   */\n      iszero\n      tag_66\n      jumpi\n        /* \"#utility.yul\":1098:1116   */\n      tag_67\n      tag_28\n      jump\t// in\n    tag_67:\n        /* \"#utility.yul\":1030:1118   */\n    tag_66:\n        /* \"#utility.yul\":1138:1148   */\n      dup1\n        /* \"#utility.yul\":1134:1136   */\n      0x40\n        /* \"#utility.yul\":1127:1149   */\n      mstore\n        /* \"#utility.yul\":917:1155   */\n      pop\n        /* \"#utility.yul\":874:1155   */\n      pop\n      pop\n      jump\t// out\n        /* \"#utility.yul\":1161:1290   */\n    tag_30:\n        /* \"#utility.yul\":1195:1201   */\n      0x00\n        /* \"#utility.yul\":1222:1242   */\n      tag_69\n      tag_22\n      jump\t// in\n    tag_69:\n        /* \"#utility.yul\":1212:1242   */\n      swap1\n      pop\n        /* \"#utility.yul\":1251:1284   */\n      tag_70\n        /* \"#utility.yul\":1279:1283   */\n      dup3\n        /* \"#utility.yul\":1271:1277   */\n      dup3\n        /* \"#utility.yul\":1251:1284   */\n      tag_29\n      jump\t// in\n    tag_70:\n        /* \"#utility.yul\":1161:1290   */\n      swap2\n      swap1\n      pop\n      jump\t// out\n        /* \"#utility.yul\":1296:1603   */\n    tag_31:\n        /* \"#utility.yul\":1357:1361   */\n      0x00\n        /* \"#utility.yul\":1447:1465   */\n      0xffffffffffffffff\n        /* \"#utility.yul\":1439:1445   */\n      dup3\n        /* \"#utility.yul\":1436:1466   */\n      gt\n        /* \"#utility.yul\":1433:1489   */\n      iszero\n      tag_72\n      jumpi\n        /* \"#utility.yul\":1469:1487   */\n      tag_73\n      tag_28\n      jump\t// in\n    tag_73:\n        /* \"#utility.yul\":1433:1489   */\n    tag_72:\n        /* \"#utility.yul\":1507:1536   */\n      tag_74\n        /* \"#utility.yul\":1529:1535   */\n      dup3\n        /* \"#utility.yul\":1507:1536   */\n      tag_27\n      jump\t// in\n    tag_74:\n        /* \"#utility.yul\":1499:1536   */\n      swap1\n      pop\n        /* \"#utility.yul\":1591:1595   */\n      0x20\n        /* \"#utility.yul\":1585:1589   */\n      dup2\n        /* \"#utility.yul\":1581:1596   */\n      add\n        /* \"#utility.yul\":1573:1596   */\n      swap1\n      pop\n        /* \"#utility.yul\":1296:1603   */\n      swap2\n      swap1\n      pop\n      jump\t// out\n        /* \"#utility.yul\":1609:1755   */\n    tag_32:\n        /* \"#utility.yul\":1706:1712   */\n      dup3\n        /* \"#utility.yul\":1701:1704   */\n      dup2\n        /* \"#utility.yul\":1696:1699   */\n      dup4\n        /* \"#utility.yul\":1683:1713   */\n      calldatacopy\n        /* \"#utility.yul\":1747:1748   */\n      0x00\n        /* \"#utility.yul\":1738:1744   */\n      dup4\n        /* \"#utility.yul\":1733:1736   */\n      dup4\n        /* \"#utility.yul\":1729:1745   */\n      add\n        /* \"#utility.yul\":1722:1749   */\n      mstore\n        /* \"#utility.yul\":1609:1755   */\n      pop\n      pop\n      pop\n      jump\t// out\n        /* \"#utility.yul\":1761:2184   */\n    tag_33:\n        /* \"#utility.yul\":1838:1843   */\n      0x00\n        /* \"#utility.yul\":1863:1928   */\n      tag_77\n        /* \"#utility.yul\":1879:1927   */\n      tag_78\n        /* \"#utility.yul\":1920:1926   */\n      dup5\n        /* \"#utility.yul\":1879:1927   */\n      tag_31\n      jump\t// in\n    tag_78:\n        /* \"#utility.yul\":1863:1928   */\n      tag_30\n      jump\t// in\n    tag_77:\n        /* \"#utility.yul\":1854:1928   */\n      swap1\n      pop\n        /* \"#utility.yul\":1951:1957   */\n      dup3\n        /* \"#utility.yul\":1944:1949   */\n      dup2\n        /* \"#utility.yul\":1937:1958   */\n      mstore\n        /* \"#utility.yul\":1989:1993   */\n      0x20\n        /* \"#utility.yul\":1982:1987   */\n      dup2\n        /* \"#utility.yul\":1978:1994   */\n      add\n        /* \"#utility.yul\":2027:2030   */\n      dup5\n        /* \"#utility.yul\":2018:2024   */\n      dup5\n        /* \"#utility.yul\":2013:2016   */\n      dup5\n        /* \"#utility.yul\":2009:2025   */\n      add\n        /* \"#utility.yul\":2006:2031   */\n      gt\n        /* \"#utility.yul\":2003:2115   */\n      iszero\n      tag_79\n      jumpi\n        /* \"#utility.yul\":2034:2113   */\n      tag_80\n      tag_26\n      jump\t// in\n    tag_80:\n        /* \"#utility.yul\":2003:2115   */\n    tag_79:\n        /* \"#utility.yul\":2124:2178   */\n      tag_81\n        /* \"#utility.yul\":2171:2177   */\n      dup5\n        /* \"#utility.yul\":2166:2169   */\n      dup3\n        /* \"#utility.yul\":2161:2164   */\n      dup6\n        /* \"#utility.yul\":2124:2178   */\n      tag_32\n      jump\t// in\n    tag_81:\n        /* \"#utility.yul\":1844:2184   */\n      pop\n        /* \"#utility.yul\":1761:2184   */\n      swap4\n      swap3\n      pop\n      pop\n      pop\n      jump\t// out\n        /* \"#utility.yul\":2203:2541   */\n    tag_34:\n        /* \"#utility.yul\":2258:2263   */\n      0x00\n        /* \"#utility.yul\":2307:2310   */\n      dup3\n        /* \"#utility.yul\":2300:2304   */\n      0x1f\n        /* \"#utility.yul\":2292:2298   */\n      dup4\n        /* \"#utility.yul\":2288:2305   */\n      add\n        /* \"#utility.yul\":2284:2311   */\n      slt\n        /* \"#utility.yul\":2274:2396   */\n      tag_83\n      jumpi\n        /* \"#utility.yul\":2315:2394   */\n      tag_84\n      tag_25\n      jump\t// in\n    tag_84:\n        /* \"#utility.yul\":2274:2396   */\n    tag_83:\n        /* \"#utility.yul\":2432:2438   */\n      dup2\n        /* \"#utility.yul\":2419:2439   */\n      calldataload\n        /* \"#utility.yul\":2457:2535   */\n      tag_85\n        /* \"#utility.yul\":2531:2534   */\n      dup5\n        /* \"#utility.yul\":2523:2529   */\n      dup3\n        /* \"#utility.yul\":2516:2520   */\n      0x20\n        /* \"#utility.yul\":2508:2514   */\n      dup7\n        /* \"#utility.yul\":2504:2521   */\n      add\n        /* \"#utility.yul\":2457:2535   */\n      tag_33\n      jump\t// in\n    tag_85:\n        /* \"#utility.yul\":2448:2535   */\n      swap2\n      pop\n        /* \"#utility.yul\":2264:2541   */\n      pop\n        /* \"#utility.yul\":2203:2541   */\n      swap3\n      swap2\n      pop\n      pop\n      jump\t// out\n        /* \"#utility.yul\":2547:2624   */\n    tag_35:\n        /* \"#utility.yul\":2584:2591   */\n      0x00\n        /* \"#utility.yul\":2613:2618   */\n      dup2\n        /* \"#utility.yul\":2602:2618   */\n      swap1\n      pop\n        /* \"#utility.yul\":2547:2624   */\n      swap2\n      swap1\n      pop\n      jump\t// out\n        /* \"#utility.yul\":2630:2752   */\n    tag_36:\n        /* \"#utility.yul\":2703:2727   */\n      tag_88\n        /* \"#utility.yul\":2721:2726   */\n      dup2\n        /* \"#utility.yul\":2703:2727   */\n      tag_35\n      jump\t// in\n    tag_88:\n        /* \"#utility.yul\":2696:2701   */\n      dup2\n        /* \"#utility.yul\":2693:2728   */\n      eq\n        /* \"#utility.yul\":2683:2746   */\n      tag_89\n      jumpi\n        /* \"#utility.yul\":2742:2743   */\n      0x00\n        /* \"#utility.yul\":2739:2740   */\n      dup1\n        /* \"#utility.yul\":2732:2744   */\n      revert\n        /* \"#utility.yul\":2683:2746   */\n    tag_89:\n        /* \"#utility.yul\":2630:2752   */\n      pop\n      jump\t// out\n        /* \"#utility.yul\":2758:2897   */\n    tag_37:\n        /* \"#utility.yul\":2804:2809   */\n      0x00\n        /* \"#utility.yul\":2842:2848   */\n      dup2\n        /* \"#utility.yul\":2829:2849   */\n      calldataload\n        /* \"#utility.yul\":2820:2849   */\n      swap1\n      pop\n        /* \"#utility.yul\":2858:2891   */\n      tag_91\n        /* \"#utility.yul\":2885:2890   */\n      dup2\n        /* \"#utility.yul\":2858:2891   */\n      tag_36\n      jump\t// in\n    tag_91:\n        /* \"#utility.yul\":2758:2897   */\n      swap3\n      swap2\n      pop\n      pop\n      jump\t// out\n        /* \"#utility.yul\":2903:3555   */\n    tag_7:\n        /* \"#utility.yul\":2980:2986   */\n      0x00\n        /* \"#utility.yul\":2988:2994   */\n      dup1\n        /* \"#utility.yul\":3037:3039   */\n      0x40\n        /* \"#utility.yul\":3025:3034   */\n      dup4\n        /* \"#utility.yul\":3016:3023   */\n      dup6\n        /* \"#utility.yul\":3012:3035   */\n      sub\n        /* \"#utility.yul\":3008:3040   */\n      slt\n        /* \"#utility.yul\":3005:3124   */\n      iszero\n      tag_93\n      jumpi\n        /* \"#utility.yul\":3043:3122   */\n      tag_94\n      tag_23\n      jump\t// in\n    tag_94:\n        /* \"#utility.yul\":3005:3124   */\n    tag_93:\n        /* \"#utility.yul\":3191:3192   */\n      0x00\n        /* \"#utility.yul\":3180:3189   */\n      dup4\n        /* \"#utility.yul\":3176:3193   */\n      add\n        /* \"#utility.yul\":3163:3194   */\n      calldataload\n        /* \"#utility.yul\":3221:3239   */\n      0xffffffffffffffff\n        /* \"#utility.yul\":3213:3219   */\n      dup2\n        /* \"#utility.yul\":3210:3240   */\n      gt\n        /* \"#utility.yul\":3207:3324   */\n      iszero\n      tag_95\n      jumpi\n        /* \"#utility.yul\":3243:3322   */\n      tag_96\n      tag_24\n      jump\t// in\n    tag_96:\n        /* \"#utility.yul\":3207:3324   */\n    tag_95:\n        /* \"#utility.yul\":3348:3410   */\n      tag_97\n        /* \"#utility.yul\":3402:3409   */\n      dup6\n        /* \"#utility.yul\":3393:3399   */\n      dup3\n        /* \"#utility.yul\":3382:3391   */\n      dup7\n        /* \"#utility.yul\":3378:3400   */\n      add\n        /* \"#utility.yul\":3348:3410   */\n      tag_34\n      jump\t// in\n    tag_97:\n        /* \"#utility.yul\":3338:3410   */\n      swap3\n      pop\n        /* \"#utility.yul\":3134:3420   */\n      pop\n        /* \"#utility.yul\":3459:3461   */\n      0x20\n        /* \"#utility.yul\":3485:3538   */\n      tag_98\n        /* \"#utility.yul\":3530:3537   */\n      dup6\n        /* \"#utility.yul\":3521:3527   */\n      dup3\n        /* \"#utility.yul\":3510:3519   */\n      dup7\n        /* \"#utility.yul\":3506:3528   */\n      add\n        /* \"#utility.yul\":3485:3538   */\n      tag_37\n      jump\t// in\n    tag_98:\n        /* \"#utility.yul\":3475:3538   */\n      swap2\n      pop\n        /* \"#utility.yul\":3430:3548   */\n      pop\n        /* \"#utility.yul\":2903:3555   */\n      swap3\n      pop\n      swap3\n      swap1\n      pop\n      jump\t// out\n        /* \"#utility.yul\":3561:3687   */\n    tag_38:\n        /* \"#utility.yul\":3598:3605   */\n      0x00\n        /* \"#utility.yul\":3638:3680   */\n      0xffffffffffffffffffffffffffffffffffffffff\n        /* \"#utility.yul\":3631:3636   */\n      dup3\n        /* \"#utility.yul\":3627:3681   */\n      and\n        /* \"#utility.yul\":3616:3681   */\n      swap1\n      pop\n        /* \"#utility.yul\":3561:3687   */\n      swap2\n      swap1\n      pop\n      jump\t// out\n        /* \"#utility.yul\":3693:3789   */\n    tag_39:\n        /* \"#utility.yul\":3730:3737   */\n      0x00\n        /* \"#utility.yul\":3759:3783   */\n      tag_101\n        /* \"#utility.yul\":3777:3782   */\n      dup3\n        /* \"#utility.yul\":3759:3783   */\n      tag_38\n      jump\t// in\n    tag_101:\n        /* \"#utility.yul\":3748:3783   */\n      swap1\n      pop\n        /* \"#utility.yul\":3693:3789   */\n      swap2\n      swap1\n      pop\n      jump\t// out\n        /* \"#utility.yul\":3795:3913   */\n    tag_40:\n        /* \"#utility.yul\":3882:3906   */\n      tag_103\n        /* \"#utility.yul\":3900:3905   */\n      dup2\n        /* \"#utility.yul\":3882:3906   */\n      tag_39\n      jump\t// in\n    tag_103:\n        /* \"#utility.yul\":3877:3880   */\n      dup3\n        /* \"#utility.yul\":3870:3907   */\n      mstore\n        /* \"#utility.yul\":3795:3913   */\n      pop\n      pop\n      jump\t// out\n        /* \"#utility.yul\":3919:4141   */\n    tag_10:\n        /* \"#utility.yul\":4012:4016   */\n      0x00\n        /* \"#utility.yul\":4050:4052   */\n      0x20\n        /* \"#utility.yul\":4039:4048   */\n      dup3\n        /* \"#utility.yul\":4035:4053   */\n      add\n        /* \"#utility.yul\":4027:4053   */\n      swap1\n      pop\n        /* \"#utility.yul\":4063:4134   */\n      tag_105\n        /* \"#utility.yul\":4131:4132   */\n      0x00\n        /* \"#utility.yul\":4120:4129   */\n      dup4\n        /* \"#utility.yul\":4116:4133   */\n      add\n        /* \"#utility.yul\":4107:4113   */\n      dup5\n        /* \"#utility.yul\":4063:4134   */\n      tag_40\n      jump\t// in\n    tag_105:\n        /* \"#utility.yul\":3919:4141   */\n      swap3\n      swap2\n      pop\n      pop\n      jump\t// out\n        /* \"#utility.yul\":4147:4296   */\n    tag_41:\n        /* \"#utility.yul\":4183:4190   */\n      0x00\n        /* \"#utility.yul\":4223:4289   */\n      0xff00000000000000000000000000000000000000000000000000000000000000\n        /* \"#utility.yul\":4216:4221   */\n      dup3\n        /* \"#utility.yul\":4212:4290   */\n      and\n        /* \"#utility.yul\":4201:4290   */\n      swap1\n      pop\n        /* \"#utility.yul\":4147:4296   */\n      swap2\n      swap1\n      pop\n      jump\t// out\n        /* \"#utility.yul\":4302:4380   */\n    tag_42:\n        /* \"#utility.yul\":4340:4347   */\n      0x00\n        /* \"#utility.yul\":4369:4374   */\n      dup2\n        /* \"#utility.yul\":4358:4374   */\n      swap1\n      pop\n        /* \"#utility.yul\":4302:4380   */\n      swap2\n      swap1\n      pop\n      jump\t// out\n        /* \"#utility.yul\":4386:4539   */\n    tag_43:\n        /* \"#utility.yul\":4489:4532   */\n      tag_109\n        /* \"#utility.yul\":4508:4531   */\n      tag_110\n        /* \"#utility.yul\":4525:4530   */\n      dup3\n        /* \"#utility.yul\":4508:4531   */\n      tag_41\n      jump\t// in\n    tag_110:\n        /* \"#utility.yul\":4489:4532   */\n      tag_42\n      jump\t// in\n    tag_109:\n        /* \"#utility.yul\":4484:4487   */\n      dup3\n        /* \"#utility.yul\":4477:4533   */\n      mstore\n        /* \"#utility.yul\":4386:4539   */\n      pop\n      pop\n      jump\t// out\n        /* \"#utility.yul\":4545:4639   */\n    tag_44:\n        /* \"#utility.yul\":4578:4586   */\n      0x00\n        /* \"#utility.yul\":4626:4631   */\n      dup2\n        /* \"#utility.yul\":4622:4624   */\n      0x60\n        /* \"#utility.yul\":4618:4632   */\n      shl\n        /* \"#utility.yul\":4597:4632   */\n      swap1\n      pop\n        /* \"#utility.yul\":4545:4639   */\n      swap2\n      swap1\n      pop\n      jump\t// out\n        /* \"#utility.yul\":4645:4739   */\n    tag_45:\n        /* \"#utility.yul\":4684:4691   */\n      0x00\n        /* \"#utility.yul\":4713:4733   */\n      tag_113\n        /* \"#utility.yul\":4727:4732   */\n      dup3\n        /* \"#utility.yul\":4713:4733   */\n      tag_44\n      jump\t// in\n    tag_113:\n        /* \"#utility.yul\":4702:4733   */\n      swap1\n      pop\n        /* \"#utility.yul\":4645:4739   */\n      swap2\n      swap1\n      pop\n      jump\t// out\n        /* \"#utility.yul\":4745:4845   */\n    tag_46:\n        /* \"#utility.yul\":4784:4791   */\n      0x00\n        /* \"#utility.yul\":4813:4839   */\n      tag_115\n        /* \"#utility.yul\":4833:4838   */\n      dup3\n        /* \"#utility.yul\":4813:4839   */\n      tag_45\n      jump\t// in\n    tag_115:\n        /* \"#utility.yul\":4802:4839   */\n      swap1\n      pop\n        /* \"#utility.yul\":4745:4845   */\n      swap2\n      swap1\n      pop\n      jump\t// out\n        /* \"#utility.yul\":4851:5008   */\n    tag_47:\n        /* \"#utility.yul\":4956:5001   */\n      tag_117\n        /* \"#utility.yul\":4976:5000   */\n      tag_118\n        /* \"#utility.yul\":4994:4999   */\n      dup3\n        /* \"#utility.yul\":4976:5000   */\n      tag_39\n      jump\t// in\n    tag_118:\n        /* \"#utility.yul\":4956:5001   */\n      tag_46\n      jump\t// in\n    tag_117:\n        /* \"#utility.yul\":4951:4954   */\n      dup3\n        /* \"#utility.yul\":4944:5002   */\n      mstore\n        /* \"#utility.yul\":4851:5008   */\n      pop\n      pop\n      jump\t// out\n        /* \"#utility.yul\":5014:5093   */\n    tag_48:\n        /* \"#utility.yul\":5053:5060   */\n      0x00\n        /* \"#utility.yul\":5082:5087   */\n      dup2\n        /* \"#utility.yul\":5071:5087   */\n      swap1\n      pop\n        /* \"#utility.yul\":5014:5093   */\n      swap2\n      swap1\n      pop\n      jump\t// out\n        /* \"#utility.yul\":5099:5256   */\n    tag_49:\n        /* \"#utility.yul\":5204:5249   */\n      tag_121\n        /* \"#utility.yul\":5224:5248   */\n      tag_122\n        /* \"#utility.yul\":5242:5247   */\n      dup3\n        /* \"#utility.yul\":5224:5248   */\n      tag_35\n      jump\t// in\n    tag_122:\n        /* \"#utility.yul\":5204:5249   */\n      tag_48\n      jump\t// in\n    tag_121:\n        /* \"#utility.yul\":5199:5202   */\n      dup3\n        /* \"#utility.yul\":5192:5250   */\n      mstore\n        /* \"#utility.yul\":5099:5256   */\n      pop\n      pop\n      jump\t// out\n        /* \"#utility.yul\":5262:5339   */\n    tag_50:\n        /* \"#utility.yul\":5299:5306   */\n      0x00\n        /* \"#utility.yul\":5328:5333   */\n      dup2\n        /* \"#utility.yul\":5317:5333   */\n      swap1\n      pop\n        /* \"#utility.yul\":5262:5339   */\n      swap2\n      swap1\n      pop\n      jump\t// out\n        /* \"#utility.yul\":5345:5424   */\n    tag_51:\n        /* \"#utility.yul\":5384:5391   */\n      0x00\n        /* \"#utility.yul\":5413:5418   */\n      dup2\n        /* \"#utility.yul\":5402:5418   */\n      swap1\n      pop\n        /* \"#utility.yul\":5345:5424   */\n      swap2\n      swap1\n      pop\n      jump\t// out\n        /* \"#utility.yul\":5430:5587   */\n    tag_52:\n        /* \"#utility.yul\":5535:5580   */\n      tag_126\n        /* \"#utility.yul\":5555:5579   */\n      tag_127\n        /* \"#utility.yul\":5573:5578   */\n      dup3\n        /* \"#utility.yul\":5555:5579   */\n      tag_50\n      jump\t// in\n    tag_127:\n        /* \"#utility.yul\":5535:5580   */\n      tag_51\n      jump\t// in\n    tag_126:\n        /* \"#utility.yul\":5530:5533   */\n      dup3\n        /* \"#utility.yul\":5523:5581   */\n      mstore\n        /* \"#utility.yul\":5430:5587   */\n      pop\n      pop\n      jump\t// out\n        /* \"#utility.yul\":5593:6267   */\n    tag_17:\n        /* \"#utility.yul\":5787:5790   */\n      0x00\n        /* \"#utility.yul\":5802:5875   */\n      tag_129\n        /* \"#utility.yul\":5871:5874   */\n      dup3\n        /* \"#utility.yul\":5862:5868   */\n      dup8\n        /* \"#utility.yul\":5802:5875   */\n      tag_43\n      jump\t// in\n    tag_129:\n        /* \"#utility.yul\":5900:5901   */\n      0x01\n        /* \"#utility.yul\":5895:5898   */\n      dup3\n        /* \"#utility.yul\":5891:5902   */\n      add\n        /* \"#utility.yul\":5884:5902   */\n      swap2\n      pop\n        /* \"#utility.yul\":5912:5987   */\n      tag_130\n        /* \"#utility.yul\":5983:5986   */\n      dup3\n        /* \"#utility.yul\":5974:5980   */\n      dup7\n        /* \"#utility.yul\":5912:5987   */\n      tag_47\n      jump\t// in\n    tag_130:\n        /* \"#utility.yul\":6012:6014   */\n      0x14\n        /* \"#utility.yul\":6007:6010   */\n      dup3\n        /* \"#utility.yul\":6003:6015   */\n      add\n        /* \"#utility.yul\":5996:6015   */\n      swap2\n      pop\n        /* \"#utility.yul\":6025:6100   */\n      tag_131\n        /* \"#utility.yul\":6096:6099   */\n      dup3\n        /* \"#utility.yul\":6087:6093   */\n      dup6\n        /* \"#utility.yul\":6025:6100   */\n      tag_49\n      jump\t// in\n    tag_131:\n        /* \"#utility.yul\":6125:6127   */\n      0x20\n        /* \"#utility.yul\":6120:6123   */\n      dup3\n        /* \"#utility.yul\":6116:6128   */\n      add\n        /* \"#utility.yul\":6109:6128   */\n      swap2\n      pop\n        /* \"#utility.yul\":6138:6213   */\n      tag_132\n        /* \"#utility.yul\":6209:6212   */\n      dup3\n        /* \"#utility.yul\":6200:6206   */\n      dup5\n        /* \"#utility.yul\":6138:6213   */\n      tag_52\n      jump\t// in\n    tag_132:\n        /* \"#utility.yul\":6238:6240   */\n      0x20\n        /* \"#utility.yul\":6233:6236   */\n      dup3\n        /* \"#utility.yul\":6229:6241   */\n      add\n        /* \"#utility.yul\":6222:6241   */\n      swap2\n      pop\n        /* \"#utility.yul\":6258:6261   */\n      dup2\n        /* \"#utility.yul\":6251:6261   */\n      swap1\n      pop\n        /* \"#utility.yul\":5593:6267   */\n      swap6\n      swap5\n      pop\n      pop\n      pop\n      pop\n      pop\n      jump\t// out\n        /* \"#utility.yul\":6273:6442   */\n    tag_53:\n        /* \"#utility.yul\":6357:6368   */\n      0x00\n        /* \"#utility.yul\":6391:6397   */\n      dup3\n        /* \"#utility.yul\":6386:6389   */\n      dup3\n        /* \"#utility.yul\":6379:6398   */\n      mstore\n        /* \"#utility.yul\":6431:6435   */\n      0x20\n        /* \"#utility.yul\":6426:6429   */\n      dup3\n        /* \"#utility.yul\":6422:6436   */\n      add\n        /* \"#utility.yul\":6407:6436   */\n      swap1\n      pop\n        /* \"#utility.yul\":6273:6442   */\n      swap3\n      swap2\n      pop\n      pop\n      jump\t// out\n        /* \"#utility.yul\":6448:6614   */\n    tag_54:\n        /* \"#utility.yul\":6588:6606   */\n      0x62797465636f6465206973207a65726f00000000000000000000000000000000\n        /* \"#utility.yul\":6584:6585   */\n      0x00\n        /* \"#utility.yul\":6576:6582   */\n      dup3\n        /* \"#utility.yul\":6572:6586   */\n      add\n        /* \"#utility.yul\":6565:6607   */\n      mstore\n        /* \"#utility.yul\":6448:6614   */\n      pop\n      jump\t// out\n        /* \"#utility.yul\":6620:6986   */\n    tag_55:\n        /* \"#utility.yul\":6762:6765   */\n      0x00\n        /* \"#utility.yul\":6783:6850   */\n      tag_136\n        /* \"#utility.yul\":6847:6849   */\n      0x10\n        /* \"#utility.yul\":6842:6845   */\n      dup4\n        /* \"#utility.yul\":6783:6850   */\n      tag_53\n      jump\t// in\n    tag_136:\n        /* \"#utility.yul\":6776:6850   */\n      swap2\n      pop\n        /* \"#utility.yul\":6859:6952   */\n      tag_137\n        /* \"#utility.yul\":6948:6951   */\n      dup3\n        /* \"#utility.yul\":6859:6952   */\n      tag_54\n      jump\t// in\n    tag_137:\n        /* \"#utility.yul\":6977:6979   */\n      0x20\n        /* \"#utility.yul\":6972:6975   */\n      dup3\n        /* \"#utility.yul\":6968:6980   */\n      add\n        /* \"#utility.yul\":6961:6980   */\n      swap1\n      pop\n        /* \"#utility.yul\":6620:6986   */\n      swap2\n      swap1\n      pop\n      jump\t// out\n        /* \"#utility.yul\":6992:7411   */\n    tag_21:\n        /* \"#utility.yul\":7158:7162   */\n      0x00\n        /* \"#utility.yul\":7196:7198   */\n      0x20\n        /* \"#utility.yul\":7185:7194   */\n      dup3\n        /* \"#utility.yul\":7181:7199   */\n      add\n        /* \"#utility.yul\":7173:7199   */\n      swap1\n      pop\n        /* \"#utility.yul\":7245:7254   */\n      dup2\n        /* \"#utility.yul\":7239:7243   */\n      dup2\n        /* \"#utility.yul\":7235:7255   */\n      sub\n        /* \"#utility.yul\":7231:7232   */\n      0x00\n        /* \"#utility.yul\":7220:7229   */\n      dup4\n        /* \"#utility.yul\":7216:7233   */\n      add\n        /* \"#utility.yul\":7209:7256   */\n      mstore\n        /* \"#utility.yul\":7273:7404   */\n      tag_139\n        /* \"#utility.yul\":7399:7403   */\n      dup2\n        /* \"#utility.yul\":7273:7404   */\n      tag_55\n      jump\t// in\n    tag_139:\n        /* \"#utility.yul\":7265:7404   */\n      swap1\n      pop\n        /* \"#utility.yul\":6992:7411   */\n      swap2\n      swap1\n      pop\n      jump\t// out\n\n    auxdata: 0xa264697066735822122045944e235b5df5a6bc6858ce16963d2aaacfbb318861f06cd2ce55d24535f67164736f6c63430008180033\n}\n",
				"bytecode": {
					"linkReferences": {},
					"object": "608060405234801561000f575f80fd5b506105408061001d5f395ff3fe608060405234801561000f575f80fd5b5060043610610034575f3560e01c806394ca2cb5146100385780639c4ae2d014610068575b5f80fd5b610052600480360381019061004d91906102ba565b610098565b60405161005f9190610353565b60405180910390f35b610082600480360381019061007d91906102ba565b6100e0565b60405161008f9190610353565b60405180910390f35b5f8060ff60f81b308486805190602001206040516020016100bc9493929190610445565b604051602081830303815290604052805190602001209050805f1c91505092915050565b5f805f845103610125576040517f08c379a000000000000000000000000000000000000000000000000000000000815260040161011c906104ec565b60405180910390fd5b828451602086015ff590508091505092915050565b5f604051905090565b5f80fd5b5f80fd5b5f80fd5b5f80fd5b5f601f19601f8301169050919050565b7f4e487b71000000000000000000000000000000000000000000000000000000005f52604160045260245ffd5b61019982610153565b810181811067ffffffffffffffff821117156101b8576101b7610163565b5b80604052505050565b5f6101ca61013a565b90506101d68282610190565b919050565b5f67ffffffffffffffff8211156101f5576101f4610163565b5b6101fe82610153565b9050602081019050919050565b828183375f83830152505050565b5f61022b610226846101db565b6101c1565b9050828152602081018484840111156102475761024661014f565b5b61025284828561020b565b509392505050565b5f82601f83011261026e5761026d61014b565b5b813561027e848260208601610219565b91505092915050565b5f819050919050565b61029981610287565b81146102a3575f80fd5b50565b5f813590506102b481610290565b92915050565b5f80604083850312156102d0576102cf610143565b5b5f83013567ffffffffffffffff8111156102ed576102ec610147565b5b6102f98582860161025a565b925050602061030a858286016102a6565b9150509250929050565b5f73ffffffffffffffffffffffffffffffffffffffff82169050919050565b5f61033d82610314565b9050919050565b61034d81610333565b82525050565b5f6020820190506103665f830184610344565b92915050565b5f7fff0000000000000000000000000000000000000000000000000000000000000082169050919050565b5f819050919050565b6103b16103ac8261036c565b610397565b82525050565b5f8160601b9050919050565b5f6103cd826103b7565b9050919050565b5f6103de826103c3565b9050919050565b6103f66103f182610333565b6103d4565b82525050565b5f819050919050565b61041661041182610287565b6103fc565b82525050565b5f819050919050565b5f819050919050565b61043f61043a8261041c565b610425565b82525050565b5f61045082876103a0565b60018201915061046082866103e5565b6014820191506104708285610405565b602082019150610480828461042e565b60208201915081905095945050505050565b5f82825260208201905092915050565b7f62797465636f6465206973207a65726f000000000000000000000000000000005f82015250565b5f6104d6601083610492565b91506104e1826104a2565b602082019050919050565b5f6020820190508181035f830152610503816104ca565b905091905056fea264697066735822122045944e235b5df5a6bc6858ce16963d2aaacfbb318861f06cd2ce55d24535f67164736f6c63430008180033",
					"opcodes": "PUSH1 0x80 PUSH1 0x40 MSTORE CALLVALUE DUP1 ISZERO PUSH2 0xF JUMPI PUSH0 DUP1 REVERT JUMPDEST POP PUSH2 0x540 DUP1 PUSH2 0x1D PUSH0 CODECOPY PUSH0 RETURN INVALID PUSH1 0x80 PUSH1 0x40 MSTORE CALLVALUE DUP1 ISZERO PUSH2 0xF JUMPI PUSH0 DUP1 REVERT JUMPDEST POP PUSH1 0x4 CALLDATASIZE LT PUSH2 0x34 JUMPI PUSH0 CALLDATALOAD PUSH1 0xE0 SHR DUP1 PUSH4 0x94CA2CB5 EQ PUSH2 0x38 JUMPI DUP1 PUSH4 0x9C4AE2D0 EQ PUSH2 0x68 JUMPI JUMPDEST PUSH0 DUP1 REVERT JUMPDEST PUSH2 0x52 PUSH1 0x4 DUP1 CALLDATASIZE SUB DUP2 ADD SWAP1 PUSH2 0x4D SWAP2 SWAP1 PUSH2 0x2BA JUMP JUMPDEST PUSH2 0x98 JUMP JUMPDEST PUSH1 0x40 MLOAD PUSH2 0x5F SWAP2 SWAP1 PUSH2 0x353 JUMP JUMPDEST PUSH1 0x40 MLOAD DUP1 SWAP2 SUB SWAP1 RETURN JUMPDEST PUSH2 0x82 PUSH1 0x4 DUP1 CALLDATASIZE SUB DUP2 ADD SWAP1 PUSH2 0x7D SWAP2 SWAP1 PUSH2 0x2BA JUMP JUMPDEST PUSH2 0xE0 JUMP JUMPDEST PUSH1 0x40 MLOAD PUSH2 0x8F SWAP2 SWAP1 PUSH2 0x353 JUMP JUMPDEST PUSH1 0x40 MLOAD DUP1 SWAP2 SUB SWAP1 RETURN JUMPDEST PUSH0 DUP1 PUSH1 0xFF PUSH1 0xF8 SHL ADDRESS DUP5 DUP7 DUP1 MLOAD SWAP1 PUSH1 0x20 ADD KECCAK256 PUSH1 0x40 MLOAD PUSH1 0x20 ADD PUSH2 0xBC SWAP5 SWAP4 SWAP3 SWAP2 SWAP1 PUSH2 0x445 JUMP JUMPDEST PUSH1 0x40 MLOAD PUSH1 0x20 DUP2 DUP4 SUB SUB DUP2 MSTORE SWAP1 PUSH1 0x40 MSTORE DUP1 MLOAD SWAP1 PUSH1 0x20 ADD KECCAK256 SWAP1 POP DUP1 PUSH0 SHR SWAP2 POP POP SWAP3 SWAP2 POP POP JUMP JUMPDEST PUSH0 DUP1 PUSH0 DUP5 MLOAD SUB PUSH2 0x125 JUMPI PUSH1 0x40 MLOAD PUSH32 0x8C379A000000000000000000000000000000000000000000000000000000000 DUP2 MSTORE PUSH1 0x4 ADD PUSH2 0x11C SWAP1 PUSH2 0x4EC JUMP JUMPDEST PUSH1 0x40 MLOAD DUP1 SWAP2 SUB SWAP1 REVERT JUMPDEST DUP3 DUP5 MLOAD PUSH1 0x20 DUP7 ADD PUSH0 CREATE2 SWAP1 POP DUP1 SWAP2 POP POP SWAP3 SWAP2 POP POP JUMP JUMPDEST PUSH0 PUSH1 0x40 MLOAD SWAP1 POP SWAP1 JUMP JUMPDEST PUSH0 DUP1 REVERT JUMPDEST PUSH0 DUP1 REVERT JUMPDEST PUSH0 DUP1 REVERT JUMPDEST PUSH0 DUP1 REVERT JUMPDEST PUSH0 PUSH1 0x1F NOT PUSH1 0x1F DUP4 ADD AND SWAP1 POP SWAP2 SWAP1 POP JUMP JUMPDEST PUSH32 0x4E487B7100000000000000000000000000000000000000000000000000000000 PUSH0 MSTORE PUSH1 0x41 PUSH1 0x4 MSTORE PUSH1 0x24 PUSH0 REVERT JUMPDEST PUSH2 0x199 DUP3 PUSH2 0x153 JUMP JUMPDEST DUP2 ADD DUP2 DUP2 LT PUSH8 0xFFFFFFFFFFFFFFFF DUP3 GT OR ISZERO PUSH2 0x1B8 JUMPI PUSH2 0x1B7 PUSH2 0x163 JUMP JUMPDEST JUMPDEST DUP1 PUSH1 0x40 MSTORE POP POP POP JUMP JUMPDEST PUSH0 PUSH2 0x1CA PUSH2 0x13A JUMP JUMPDEST SWAP1 POP PUSH2 0x1D6 DUP3 DUP3 PUSH2 0x190 JUMP JUMPDEST SWAP2 SWAP1 POP JUMP JUMPDEST PUSH0 PUSH8 0xFFFFFFFFFFFFFFFF DUP3 GT ISZERO PUSH2 0x1F5 JUMPI PUSH2 0x1F4 PUSH2 0x163 JUMP JUMPDEST JUMPDEST PUSH2 0x1FE DUP3 PUSH2 0x153 JUMP JUMPDEST SWAP1 POP PUSH1 0x20 DUP2 ADD SWAP1 POP SWAP2 SWAP1 POP JUMP JUMPDEST DUP3 DUP2 DUP4 CALLDATACOPY PUSH0 DUP4 DUP4 ADD MSTORE POP POP POP JUMP JUMPDEST PUSH0 PUSH2 0x22B PUSH2 0x226 DUP5 PUSH2 0x1DB JUMP JUMPDEST PUSH2 0x1C1 JUMP JUMPDEST SWAP1 POP DUP3 DUP2 MSTORE PUSH1 0x20 DUP2 ADD DUP5 DUP5 DUP5 ADD GT ISZERO PUSH2 0x247 JUMPI PUSH2 0x246 PUSH2 0x14F JUMP JUMPDEST JUMPDEST PUSH2 0x252 DUP5 DUP3 DUP6 PUSH2 0x20B JUMP JUMPDEST POP SWAP4 SWAP3 POP POP POP JUMP JUMPDEST PUSH0 DUP3 PUSH1 0x1F DUP4 ADD SLT PUSH2 0x26E JUMPI PUSH2 0x26D PUSH2 0x14B JUMP JUMPDEST JUMPDEST DUP2 CALLDATALOAD PUSH2 0x27E DUP5 DUP3 PUSH1 0x20 DUP7 ADD PUSH2 0x219 JUMP JUMPDEST SWAP2 POP POP SWAP3 SWAP2 POP POP JUMP JUMPDEST PUSH0 DUP2 SWAP1 POP SWAP2 SWAP1 POP JUMP JUMPDEST PUSH2 0x299 DUP2 PUSH2 0x287 JUMP JUMPDEST DUP2 EQ PUSH2 0x2A3 JUMPI PUSH0 DUP1 REVERT JUMPDEST POP JUMP JUMPDEST PUSH0 DUP2 CALLDATALOAD SWAP1 POP PUSH2 0x2B4 DUP2 PUSH2 0x290 JUMP JUMPDEST SWAP3 SWAP2 POP POP JUMP JUMPDEST PUSH0 DUP1 PUSH1 0x40 DUP4 DUP6 SUB SLT ISZERO PUSH2 0x2D0 JUMPI PUSH2 0x2CF PUSH2 0x143 JUMP JUMPDEST JUMPDEST PUSH0 DUP4 ADD CALLDATALOAD PUSH8 0xFFFFFFFFFFFFFFFF DUP2 GT ISZERO PUSH2 0x2ED JUMPI PUSH2 0x2EC PUSH2 0x147 JUMP JUMPDEST JUMPDEST PUSH2 0x2F9 DUP6 DUP3 DUP7 ADD PUSH2 0x25A JUMP JUMPDEST SWAP3 POP POP PUSH1 0x20 PUSH2 0x30A DUP6 DUP3 DUP7 ADD PUSH2 0x2A6 JUMP JUMPDEST SWAP2 POP POP SWAP3 POP SWAP3 SWAP1 POP JUMP JUMPDEST PUSH0 PUSH20 0xFFFFFFFFFFFFFFFFFFFFFFFFFFFFFFFFFFFFFFFF DUP3 AND SWAP1 POP SWAP2 SWAP1 POP JUMP JUMPDEST PUSH0 PUSH2 0x33D DUP3 PUSH2 0x314 JUMP JUMPDEST SWAP1 POP SWAP2 SWAP1 POP JUMP JUMPDEST PUSH2 0x34D DUP2 PUSH2 0x333 JUMP JUMPDEST DUP3 MSTORE POP POP JUMP JUMPDEST PUSH0 PUSH1 0x20 DUP3 ADD SWAP1 POP PUSH2 0x366 PUSH0 DUP4 ADD DUP5 PUSH2 0x344 JUMP JUMPDEST SWAP3 SWAP2 POP POP JUMP JUMPDEST PUSH0 PUSH32 0xFF00000000000000000000000000000000000000000000000000000000000000 DUP3 AND SWAP1 POP SWAP2 SWAP1 POP JUMP JUMPDEST PUSH0 DUP2 SWAP1 POP SWAP2 SWAP1 POP JUMP JUMPDEST PUSH2 0x3B1 PUSH2 0x3AC DUP3 PUSH2 0x36C JUMP JUMPDEST PUSH2 0x397 JUMP JUMPDEST DUP3 MSTORE POP POP JUMP JUMPDEST PUSH0 DUP2 PUSH1 0x60 SHL SWAP1 POP SWAP2 SWAP1 POP JUMP JUMPDEST PUSH0 PUSH2 0x3CD DUP3 PUSH2 0x3B7 JUMP JUMPDEST SWAP1 POP SWAP2 SWAP1 POP JUMP JUMPDEST PUSH0 PUSH2 0x3DE DUP3 PUSH2 0x3C3 JUMP JUMPDEST SWAP1 POP SWAP2 SWAP1 POP JUMP JUMPDEST PUSH2 0x3F6 PUSH2 0x3F1 DUP3 PUSH2 0x333 JUMP JUMPDEST PUSH2 0x3D4 JUMP JUMPDEST DUP3 MSTORE POP POP JUMP JUMPDEST PUSH0 DUP2 SWAP1 POP SWAP2 SWAP1 POP JUMP JUMPDEST PUSH2 0x416 PUSH2 0x411 DUP3 PUSH2 0x287 JUMP JUMPDEST PUSH2 0x3FC JUMP JUMPDEST DUP3 MSTORE POP POP JUMP JUMPDEST PUSH0 DUP2 SWAP1 POP SWAP2 SWAP1 POP JUMP JUMPDEST PUSH0 DUP2 SWAP1 POP SWAP2 SWAP1 POP JUMP JUMPDEST PUSH2 0x43F PUSH2 0x43A DUP3 PUSH2 0x41C JUMP JUMPDEST PUSH2 0x425 JUMP JUMPDEST DUP3 MSTORE POP POP JUMP JUMPDEST PUSH0 PUSH2 0x450 DUP3 DUP8 PUSH2 0x3A0 JUMP JUMPDEST PUSH1 0x1 DUP3 ADD SWAP2 POP PUSH2 0x460 DUP3 DUP7 PUSH2 0x3E5 JUMP JUMPDEST PUSH1 0x14 DUP3 ADD SWAP2 POP PUSH2 0x470 DUP3 DUP6 PUSH2 0x405 JUMP JUMPDEST PUSH1 0x20 DUP3 ADD SWAP2 POP PUSH2 0x480 DUP3 DUP5 PUSH2 0x42E JUMP JUMPDEST PUSH1 0x20 DUP3 ADD SWAP2 POP DUP2 SWAP1 POP SWAP6 SWAP5 POP POP POP POP POP JUMP JUMPDEST PUSH0 DUP3 DUP3 MSTORE PUSH1 0x20 DUP3 ADD SWAP1 POP SWAP3 SWAP2 POP POP JUMP JUMPDEST PUSH32 0x62797465636F6465206973207A65726F00000000000000000000000000000000 PUSH0 DUP3 ADD MSTORE POP JUMP JUMPDEST PUSH0 PUSH2 0x4D6 PUSH1 0x10 DUP4 PUSH2 0x492 JUMP JUMPDEST SWAP2 POP PUSH2 0x4E1 DUP3 PUSH2 0x4A2 JUMP JUMPDEST PUSH1 0x20 DUP3 ADD SWAP1 POP SWAP2 SWAP1 POP JUMP JUMPDEST PUSH0 PUSH1 0x20 DUP3 ADD SWAP1 POP DUP2 DUP2 SUB PUSH0 DUP4 ADD MSTORE PUSH2 0x503 DUP2 PUSH2 0x4CA JUMP JUMPDEST SWAP1 POP SWAP2 SWAP1 POP JUMP INVALID LOG2 PUSH5 0x6970667358 0x22 SLT KECCAK256 GASLIMIT SWAP5 0x4E 0x23 JUMPDEST TSTORE CREATE2 0xA6 0xBC PUSH9 0x58CE16963D2AAACFBB BALANCE DUP9 PUSH2 0xF06C 0xD2 0xCE SSTORE 0xD2 GASLIMIT CALLDATALOAD 0xF6 PUSH18 0x64736F6C6343000818003300000000000000 "
				},
				"gasEstimates": {
					"creation": {
						"codeDepositCost": "268800",
						"executionCost": "304",
						"totalCost": "269104"
					},
					"external": {
						"deploy(bytes,uint256)": "infinite",
						"getAddress(bytes,uint256)": "infinite"
					}
				},
				"methodIdentifiers": {
					"deploy(bytes,uint256)": "9c4ae2d0",
					"getAddress(bytes,uint256)": "94ca2cb5"
				}
			},
			"storageLayout": {
				"storage": [],
				"types": null
			},
			"userdoc": {
				"kind": "user",
				"methods": {},
				"version": 1
			}
		}
	}
}