{
	"contracts/Test6.sol": {
		"Demo": {
			"abi": [
				{
					"inputs": [
						{
							"internalType": "uint256",
							"name": "_x",
							"type": "uint256"
						},
						{
							"internalType": "uint256",
							"name": "_y",
							"type": "uint256"
						}
					],
					"name": "demoAssembly1",
					"outputs": [
						{
							"internalType": "uint256",
							"name": "",
							"type": "uint256"
						}
					],
					"stateMutability": "pure",
					"type": "function"
				},
				{
					"inputs": [
						{
							"internalType": "uint256",
							"name": "_x",
							"type": "uint256"
						},
						{
							"internalType": "uint256",
							"name": "_y",
							"type": "uint256"
						}
					],
					"name": "demoAssembly11",
					"outputs": [
						{
							"internalType": "uint256",
							"name": "",
							"type": "uint256"
						}
					],
					"stateMutability": "pure",
					"type": "function"
				},
				{
					"inputs": [
						{
							"internalType": "uint256",
							"name": "_x",
							"type": "uint256"
						},
						{
							"internalType": "uint256",
							"name": "_y",
							"type": "uint256"
						}
					],
					"name": "demoAssembly12",
					"outputs": [
						{
							"internalType": "uint256",
							"name": "",
							"type": "uint256"
						}
					],
					"stateMutability": "pure",
					"type": "function"
				},
				{
					"inputs": [],
					"name": "demoAssembly2",
					"outputs": [
						{
							"internalType": "string",
							"name": "",
							"type": "string"
						}
					],
					"stateMutability": "pure",
					"type": "function"
				},
				{
					"inputs": [],
					"name": "demoAssembly3",
					"outputs": [
						{
							"internalType": "string",
							"name": "str",
							"type": "string"
						},
						{
							"internalType": "string",
							"name": "str1",
							"type": "string"
						},
						{
							"internalType": "uint256",
							"name": "local",
							"type": "uint256"
						},
						{
							"internalType": "uint256",
							"name": "",
							"type": "uint256"
						},
						{
							"internalType": "uint256",
							"name": "",
							"type": "uint256"
						}
					],
					"stateMutability": "pure",
					"type": "function"
				},
				{
					"inputs": [],
					"name": "demoAssembly4",
					"outputs": [
						{
							"internalType": "bytes1[]",
							"name": "",
							"type": "bytes1[]"
						},
						{
							"internalType": "uint256",
							"name": "",
							"type": "uint256"
						}
					],
					"stateMutability": "pure",
					"type": "function"
				},
				{
					"inputs": [],
					"name": "demoAssembly5",
					"outputs": [
						{
							"internalType": "string",
							"name": "",
							"type": "string"
						}
					],
					"stateMutability": "pure",
					"type": "function"
				},
				{
					"inputs": [
						{
							"internalType": "uint256",
							"name": "u",
							"type": "uint256"
						}
					],
					"name": "uintToBytes32",
					"outputs": [
						{
							"internalType": "bytes32",
							"name": "",
							"type": "bytes32"
						}
					],
					"stateMutability": "pure",
					"type": "function"
				}
			],
			"devdoc": {
				"kind": "dev",
				"methods": {},
				"version": 1
			},
			"evm": {
				"assembly": "    /* \"contracts/Test6.sol\":61:3776  contract Demo {... */\n  mstore(0x40, 0x80)\n  callvalue\n  dup1\n  iszero\n  tag_1\n  jumpi\n  0x00\n  dup1\n  revert\ntag_1:\n  pop\n  dataSize(sub_0)\n  dup1\n  dataOffset(sub_0)\n  0x00\n  codecopy\n  0x00\n  return\nstop\n\nsub_0: assembly {\n        /* \"contracts/Test6.sol\":61:3776  contract Demo {... */\n      mstore(0x40, 0x80)\n      callvalue\n      dup1\n      iszero\n      tag_1\n      jumpi\n      0x00\n      dup1\n      revert\n    tag_1:\n      pop\n      jumpi(tag_2, lt(calldatasize, 0x04))\n      shr(0xe0, calldataload(0x00))\n      dup1\n      0x6f34ed40\n      gt\n      tag_11\n      jumpi\n      dup1\n      0x6f34ed40\n      eq\n      tag_7\n      jumpi\n      dup1\n      0x886d3db9\n      eq\n      tag_8\n      jumpi\n      dup1\n      0xa6404fd7\n      eq\n      tag_9\n      jumpi\n      dup1\n      0xcc0db338\n      eq\n      tag_10\n      jumpi\n      jump(tag_2)\n    tag_11:\n      dup1\n      0x0f3b0978\n      eq\n      tag_3\n      jumpi\n      dup1\n      0x15c716ba\n      eq\n      tag_4\n      jumpi\n      dup1\n      0x18b6b5c4\n      eq\n      tag_5\n      jumpi\n      dup1\n      0x65775919\n      eq\n      tag_6\n      jumpi\n    tag_2:\n      0x00\n      dup1\n      revert\n        /* \"contracts/Test6.sol\":1837:2487  function demoAssembly3()... */\n    tag_3:\n      tag_12\n      tag_13\n      jump\t// in\n    tag_12:\n      mload(0x40)\n      tag_14\n      swap6\n      swap5\n      swap4\n      swap3\n      swap2\n      swap1\n      tag_15\n      jump\t// in\n    tag_14:\n      mload(0x40)\n      dup1\n      swap2\n      sub\n      swap1\n      return\n        /* \"contracts/Test6.sol\":906:1258  function demoAssembly2()... */\n    tag_4:\n      tag_16\n      tag_17\n      jump\t// in\n    tag_16:\n      mload(0x40)\n      tag_18\n      swap2\n      swap1\n      tag_19\n      jump\t// in\n    tag_18:\n      mload(0x40)\n      dup1\n      swap2\n      sub\n      swap1\n      return\n        /* \"contracts/Test6.sol\":2495:3290  function demoAssembly4()... */\n    tag_5:\n      tag_20\n      tag_21\n      jump\t// in\n    tag_20:\n      mload(0x40)\n      tag_22\n      swap3\n      swap2\n      swap1\n      tag_23\n      jump\t// in\n    tag_22:\n      mload(0x40)\n      dup1\n      swap2\n      sub\n      swap1\n      return\n        /* \"contracts/Test6.sol\":1266:1829  function demoAssembly5()... */\n    tag_6:\n      tag_24\n      tag_25\n      jump\t// in\n    tag_24:\n      mload(0x40)\n      tag_26\n      swap2\n      swap1\n      tag_19\n      jump\t// in\n    tag_26:\n      mload(0x40)\n      dup1\n      swap2\n      sub\n      swap1\n      return\n        /* \"contracts/Test6.sol\":617:898  function demoAssembly11(uint256 _x, uint256 _y)... */\n    tag_7:\n      tag_27\n      0x04\n      dup1\n      calldatasize\n      sub\n      dup2\n      add\n      swap1\n      tag_28\n      swap2\n      swap1\n      tag_29\n      jump\t// in\n    tag_28:\n      tag_30\n      jump\t// in\n    tag_27:\n      mload(0x40)\n      tag_31\n      swap2\n      swap1\n      tag_32\n      jump\t// in\n    tag_31:\n      mload(0x40)\n      dup1\n      swap2\n      sub\n      swap1\n      return\n        /* \"contracts/Test6.sol\":3303:3401  function uintToBytes32(uint256 u) public pure returns(bytes32){... */\n    tag_8:\n      tag_33\n      0x04\n      dup1\n      calldatasize\n      sub\n      dup2\n      add\n      swap1\n      tag_34\n      swap2\n      swap1\n      tag_35\n      jump\t// in\n    tag_34:\n      tag_36\n      jump\t// in\n    tag_33:\n      mload(0x40)\n      tag_37\n      swap2\n      swap1\n      tag_38\n      jump\t// in\n    tag_37:\n      mload(0x40)\n      dup1\n      swap2\n      sub\n      swap1\n      return\n        /* \"contracts/Test6.sol\":82:341  function demoAssembly1(uint256 _x, uint256 _y)... */\n    tag_9:\n      tag_39\n      0x04\n      dup1\n      calldatasize\n      sub\n      dup2\n      add\n      swap1\n      tag_40\n      swap2\n      swap1\n      tag_29\n      jump\t// in\n    tag_40:\n      tag_41\n      jump\t// in\n    tag_39:\n      mload(0x40)\n      tag_42\n      swap2\n      swap1\n      tag_32\n      jump\t// in\n    tag_42:\n      mload(0x40)\n      dup1\n      swap2\n      sub\n      swap1\n      return\n        /* \"contracts/Test6.sol\":349:609  function demoAssembly12(uint256 _x, uint256 _y)... */\n    tag_10:\n      tag_43\n      0x04\n      dup1\n      calldatasize\n      sub\n      dup2\n      add\n      swap1\n      tag_44\n      swap2\n      swap1\n      tag_29\n      jump\t// in\n    tag_44:\n      tag_45\n      jump\t// in\n    tag_43:\n      mload(0x40)\n      tag_46\n      swap2\n      swap1\n      tag_32\n      jump\t// in\n    tag_46:\n      mload(0x40)\n      dup1\n      swap2\n      sub\n      swap1\n      return\n        /* \"contracts/Test6.sol\":1837:2487  function demoAssembly3()... */\n    tag_13:\n        /* \"contracts/Test6.sol\":1898:1915  string memory str */\n      0x60\n        /* \"contracts/Test6.sol\":1916:1934  string memory str1 */\n      dup1\n        /* \"contracts/Test6.sol\":1935:1948  uint256 local */\n      0x00\n        /* \"contracts/Test6.sol\":1949:1956  uint256 */\n      dup1\n        /* \"contracts/Test6.sol\":1957:1964  uint256 */\n      0x00\n        /* \"contracts/Test6.sol\":2013:2028  uint256 localaa */\n      dup1\n        /* \"contracts/Test6.sol\":2039:2053  uint256 local1 */\n      0x00\n        /* \"contracts/Test6.sol\":2279:2282  120 */\n      0x78\n        /* \"contracts/Test6.sol\":2268:2282  localaa := 120 */\n      swap2\n      pop\n        /* \"contracts/Test6.sol\":2312:2313  6 */\n      0x06\n        /* \"contracts/Test6.sol\":2305:2309  str1 */\n      dup7\n        /* \"contracts/Test6.sol\":2298:2314  mstore(str1 , 6) */\n      mstore\n        /* \"contracts/Test6.sol\":2352:2360  'tigers' */\n      0x7469676572730000000000000000000000000000000000000000000000000000\n        /* \"contracts/Test6.sol\":2344:2348  0x20 */\n      0x20\n        /* \"contracts/Test6.sol\":2339:2343  str1 */\n      dup8\n        /* \"contracts/Test6.sol\":2335:2349  add(str1,0x20) */\n      add\n        /* \"contracts/Test6.sol\":2328:2361  mstore(add(str1,0x20) , 'tigers') */\n      mstore\n        /* \"contracts/Test6.sol\":2385:2389  str1 */\n      dup6\n        /* \"contracts/Test6.sol\":2375:2389  local1 := str1 */\n      swap1\n      pop\n        /* \"contracts/Test6.sol\":2415:2419  0xa0 */\n      0xa0\n        /* \"contracts/Test6.sol\":2410:2414  0x40 */\n      0x40\n        /* \"contracts/Test6.sol\":2403:2420  mstore(0x40,0xa0) */\n      mstore\n        /* \"contracts/Test6.sol\":2449:2452  str */\n      dup7\n        /* \"contracts/Test6.sol\":2453:2457  str1 */\n      dup7\n        /* \"contracts/Test6.sol\":2458:2463  local */\n      dup7\n        /* \"contracts/Test6.sol\":2464:2470  local1 */\n      dup4\n        /* \"contracts/Test6.sol\":2471:2478  localaa */\n      dup6\n        /* \"contracts/Test6.sol\":2441:2479  return (str,str1,local,local1,localaa) */\n      swap7\n      pop\n      swap7\n      pop\n      swap7\n      pop\n      swap7\n      pop\n      swap7\n      pop\n      pop\n      pop\n        /* \"contracts/Test6.sol\":1837:2487  function demoAssembly3()... */\n      swap1\n      swap2\n      swap3\n      swap4\n      swap5\n      jump\t// out\n        /* \"contracts/Test6.sol\":906:1258  function demoAssembly2()... */\n    tag_17:\n        /* \"contracts/Test6.sol\":967:980  string memory */\n      0x60\n        /* \"contracts/Test6.sol\":999:1016  string memory str */\n      dup1\n        /* \"contracts/Test6.sol\":1063:1067  0x40 */\n      0x40\n        /* \"contracts/Test6.sol\":1057:1068  mload(0x40) */\n      mload\n        /* \"contracts/Test6.sol\":1050:1068  str := mload(0x40) */\n      swap1\n      pop\n        /* \"contracts/Test6.sol\":1095:1103  'edison' */\n      0x656469736f6e0000000000000000000000000000000000000000000000000000\n        /* \"contracts/Test6.sol\":1128:1129  6 */\n      0x06\n        /* \"contracts/Test6.sol\":1124:1127  str */\n      dup3\n        /* \"contracts/Test6.sol\":1117:1130  mstore(str,6) */\n      mstore\n        /* \"contracts/Test6.sol\":1165:1170  value */\n      dup1\n        /* \"contracts/Test6.sol\":1159:1163  0x20 */\n      0x20\n        /* \"contracts/Test6.sol\":1155:1158  str */\n      dup4\n        /* \"contracts/Test6.sol\":1151:1164  add(str,0x20) */\n      add\n        /* \"contracts/Test6.sol\":1144:1171  mstore(add(str,0x20),value) */\n      mstore\n        /* \"contracts/Test6.sol\":1213:1217  0x40 */\n      0x40\n        /* \"contracts/Test6.sol\":1207:1211  0x40 */\n      dup1\n        /* \"contracts/Test6.sol\":1201:1212  mload(0x40) */\n      mload\n        /* \"contracts/Test6.sol\":1197:1218  add(mload(0x40),0x40) */\n      add\n        /* \"contracts/Test6.sol\":1192:1196  0x40 */\n      0x40\n        /* \"contracts/Test6.sol\":1185:1219  mstore(0x40,add(mload(0x40),0x40)) */\n      mstore\n        /* \"contracts/Test6.sol\":1035:1230  {... */\n      pop\n        /* \"contracts/Test6.sol\":1247:1250  str */\n      dup1\n        /* \"contracts/Test6.sol\":1240:1250  return str */\n      swap2\n      pop\n      pop\n        /* \"contracts/Test6.sol\":906:1258  function demoAssembly2()... */\n      swap1\n      jump\t// out\n        /* \"contracts/Test6.sol\":2495:3290  function demoAssembly4()... */\n    tag_21:\n        /* \"contracts/Test6.sol\":2556:2572  bytes1[]  memory */\n      0x60\n        /* \"contracts/Test6.sol\":2573:2580  uint256 */\n      0x00\n        /* \"contracts/Test6.sol\":2623:2642  bytes1[] memory arr */\n      dup1\n        /* \"contracts/Test6.sol\":2658:2659  3 */\n      0x03\n        /* \"contracts/Test6.sol\":2645:2660  new bytes1[](3) */\n      0xffffffffffffffff\n      dup2\n      gt\n      iszero\n      tag_50\n      jumpi\n      tag_51\n      tag_52\n      jump\t// in\n    tag_51:\n    tag_50:\n      mload(0x40)\n      swap1\n      dup1\n      dup3\n      mstore\n      dup1\n      0x20\n      mul\n      0x20\n      add\n      dup3\n      add\n      0x40\n      mstore\n      dup1\n      iszero\n      tag_53\n      jumpi\n      dup2\n      0x20\n      add\n      0x20\n      dup3\n      mul\n      dup1\n      calldatasize\n      dup4\n      calldatacopy\n      dup1\n      dup3\n      add\n      swap2\n      pop\n      pop\n      swap1\n      pop\n    tag_53:\n      pop\n        /* \"contracts/Test6.sol\":2623:2660  bytes1[] memory arr = new bytes1[](3) */\n      swap1\n      pop\n        /* \"contracts/Test6.sol\":2775:2788  uint256 local */\n      0x00\n        /* \"contracts/Test6.sol\":3135:3136  2 */\n      0x02\n        /* \"contracts/Test6.sol\":3129:3133  0x00 */\n      0x00\n        /* \"contracts/Test6.sol\":3125:3128  arr */\n      dup4\n        /* \"contracts/Test6.sol\":3121:3134  add(arr,0x00) */\n      add\n        /* \"contracts/Test6.sol\":3114:3137  mstore(add(arr,0x00),2) */\n      mstore\n        /* \"contracts/Test6.sol\":3169:3172  'd' */\n      0x6400000000000000000000000000000000000000000000000000000000000000\n        /* \"contracts/Test6.sol\":3163:3167  0x20 */\n      0x20\n        /* \"contracts/Test6.sol\":3159:3162  arr */\n      dup4\n        /* \"contracts/Test6.sol\":3155:3168  add(arr,0x20) */\n      add\n        /* \"contracts/Test6.sol\":3148:3173  mstore(add(arr,0x20),'d') */\n      mstore\n        /* \"contracts/Test6.sol\":3205:3208  'e' */\n      0x6500000000000000000000000000000000000000000000000000000000000000\n        /* \"contracts/Test6.sol\":3199:3203  0x40 */\n      0x40\n        /* \"contracts/Test6.sol\":3195:3198  arr */\n      dup4\n        /* \"contracts/Test6.sol\":3191:3204  add(arr,0x40) */\n      add\n        /* \"contracts/Test6.sol\":3184:3209  mstore(add(arr,0x40),'e') */\n      mstore\n        /* \"contracts/Test6.sol\":3241:3244  'f' */\n      0x6600000000000000000000000000000000000000000000000000000000000000\n        /* \"contracts/Test6.sol\":3235:3239  0x60 */\n      0x60\n        /* \"contracts/Test6.sol\":3231:3234  arr */\n      dup4\n        /* \"contracts/Test6.sol\":3227:3240  add(arr,0x60) */\n      add\n        /* \"contracts/Test6.sol\":3220:3245  mstore(add(arr,0x60),'f') */\n      mstore\n        /* \"contracts/Test6.sol\":3272:3275  arr */\n      dup2\n        /* \"contracts/Test6.sol\":3276:3281  local */\n      dup2\n        /* \"contracts/Test6.sol\":3264:3282  return (arr,local) */\n      swap4\n      pop\n      swap4\n      pop\n      pop\n      pop\n        /* \"contracts/Test6.sol\":2495:3290  function demoAssembly4()... */\n      swap1\n      swap2\n      jump\t// out\n        /* \"contracts/Test6.sol\":1266:1829  function demoAssembly5()... */\n    tag_25:\n        /* \"contracts/Test6.sol\":1327:1340  string memory */\n      0x60\n        /* \"contracts/Test6.sol\":1437:1454  string memory str */\n      dup1\n        /* \"contracts/Test6.sol\":1501:1505  0x40 */\n      0x40\n        /* \"contracts/Test6.sol\":1495:1506  mload(0x40) */\n      mload\n        /* \"contracts/Test6.sol\":1488:1506  str := mload(0x40) */\n      swap1\n      pop\n        /* \"contracts/Test6.sol\":1533:1567  'edisoneredisoneredisoneredisoner' */\n      0x656469736f6e6572656469736f6e6572656469736f6e6572656469736f6e6572\n        /* \"contracts/Test6.sol\":1592:1594  32 */\n      0x20\n        /* \"contracts/Test6.sol\":1588:1591  str */\n      dup3\n        /* \"contracts/Test6.sol\":1581:1595  mstore(str,32) */\n      mstore\n        /* \"contracts/Test6.sol\":1630:1635  value */\n      dup1\n        /* \"contracts/Test6.sol\":1624:1628  0x20 */\n      0x20\n        /* \"contracts/Test6.sol\":1620:1623  str */\n      dup4\n        /* \"contracts/Test6.sol\":1616:1629  add(str,0x20) */\n      add\n        /* \"contracts/Test6.sol\":1609:1636  mstore(add(str,0x20),value) */\n      mstore\n        /* \"contracts/Test6.sol\":1671:1674  'a' */\n      0x6100000000000000000000000000000000000000000000000000000000000000\n        /* \"contracts/Test6.sol\":1665:1669  0x40 */\n      0x40\n        /* \"contracts/Test6.sol\":1661:1664  str */\n      dup4\n        /* \"contracts/Test6.sol\":1657:1670  add(str,0x40) */\n      add\n        /* \"contracts/Test6.sol\":1650:1675  mstore(add(str,0x40),'a') */\n      mstore\n        /* \"contracts/Test6.sol\":1742:1746  0x60 */\n      0x60\n        /* \"contracts/Test6.sol\":1736:1740  0x40 */\n      0x40\n        /* \"contracts/Test6.sol\":1730:1741  mload(0x40) */\n      mload\n        /* \"contracts/Test6.sol\":1726:1747  add(mload(0x40),0x60) */\n      add\n        /* \"contracts/Test6.sol\":1721:1725  0x40 */\n      0x40\n        /* \"contracts/Test6.sol\":1714:1748  mstore(0x40,add(mload(0x40),0x60)) */\n      mstore\n        /* \"contracts/Test6.sol\":1473:1801  {... */\n      pop\n        /* \"contracts/Test6.sol\":1818:1821  str */\n      dup1\n        /* \"contracts/Test6.sol\":1811:1821  return str */\n      swap2\n      pop\n      pop\n        /* \"contracts/Test6.sol\":1266:1829  function demoAssembly5()... */\n      swap1\n      jump\t// out\n        /* \"contracts/Test6.sol\":617:898  function demoAssembly11(uint256 _x, uint256 _y)... */\n    tag_30:\n        /* \"contracts/Test6.sol\":701:708  uint256 */\n      0x00\n        /* \"contracts/Test6.sol\":720:734  uint256 result */\n      dup1\n        /* \"contracts/Test6.sol\":787:789  _y */\n      dup3\n        /* \"contracts/Test6.sol\":783:785  _x */\n      dup5\n        /* \"contracts/Test6.sol\":779:790  add(_x, _y) */\n      add\n        /* \"contracts/Test6.sol\":769:790  result := add(_x, _y) */\n      swap1\n      pop\n        /* \"contracts/Test6.sol\":817:823  result */\n      dup1\n        /* \"contracts/Test6.sol\":811:815  0x90 */\n      0x90\n        /* \"contracts/Test6.sol\":804:824  mstore(0x90, result) */\n      mstore\n        /* \"contracts/Test6.sol\":884:890  result */\n      dup1\n        /* \"contracts/Test6.sol\":877:890  return result */\n      swap2\n      pop\n      pop\n        /* \"contracts/Test6.sol\":617:898  function demoAssembly11(uint256 _x, uint256 _y)... */\n      swap3\n      swap2\n      pop\n      pop\n      jump\t// out\n        /* \"contracts/Test6.sol\":3303:3401  function uintToBytes32(uint256 u) public pure returns(bytes32){... */\n    tag_36:\n        /* \"contracts/Test6.sol\":3357:3364  bytes32 */\n      0x00\n        /* \"contracts/Test6.sol\":3391:3392  u */\n      dup2\n        /* \"contracts/Test6.sol\":3383:3393  bytes32(u) */\n      0x00\n      shl\n        /* \"contracts/Test6.sol\":3376:3393  return bytes32(u) */\n      swap1\n      pop\n        /* \"contracts/Test6.sol\":3303:3401  function uintToBytes32(uint256 u) public pure returns(bytes32){... */\n      swap2\n      swap1\n      pop\n      jump\t// out\n        /* \"contracts/Test6.sol\":82:341  function demoAssembly1(uint256 _x, uint256 _y)... */\n    tag_41:\n        /* \"contracts/Test6.sol\":165:172  uint256 */\n      0x00\n        /* \"contracts/Test6.sol\":230:232  _y */\n      dup2\n        /* \"contracts/Test6.sol\":226:228  _x */\n      dup4\n        /* \"contracts/Test6.sol\":222:233  add(_x, _y) */\n      add\n        /* \"contracts/Test6.sol\":259:265  result */\n      dup1\n        /* \"contracts/Test6.sol\":254:257  0x1 */\n      0x01\n        /* \"contracts/Test6.sol\":247:266  mstore(0x1, result) */\n      mstore\n        /* \"contracts/Test6.sol\":292:293  7 */\n      0x07\n        /* \"contracts/Test6.sol\":287:290  0x0 */\n      0x00\n        /* \"contracts/Test6.sol\":280:294  mstore(0x0, 7) */\n      mstore\n        /* \"contracts/Test6.sol\":320:322  60 */\n      0x3c\n        /* \"contracts/Test6.sol\":315:318  0x0 */\n      0x00\n        /* \"contracts/Test6.sol\":308:323  return(0x0, 60) */\n      return\n        /* \"contracts/Test6.sol\":349:609  function demoAssembly12(uint256 _x, uint256 _y)... */\n    tag_45:\n        /* \"contracts/Test6.sol\":433:440  uint256 */\n      0x00\n        /* \"contracts/Test6.sol\":498:500  _y */\n      dup2\n        /* \"contracts/Test6.sol\":494:496  _x */\n      dup4\n        /* \"contracts/Test6.sol\":490:501  add(_x, _y) */\n      add\n        /* \"contracts/Test6.sol\":527:533  result */\n      dup1\n        /* \"contracts/Test6.sol\":522:525  0x1 */\n      0x01\n        /* \"contracts/Test6.sol\":515:534  mstore(0x1, result) */\n      mstore\n        /* \"contracts/Test6.sol\":560:561  7 */\n      0x07\n        /* \"contracts/Test6.sol\":555:558  0x0 */\n      0x00\n        /* \"contracts/Test6.sol\":548:562  mstore(0x0, 7) */\n      mstore\n        /* \"contracts/Test6.sol\":588:590  60 */\n      0x3c\n        /* \"contracts/Test6.sol\":583:586  0x0 */\n      0x00\n        /* \"contracts/Test6.sol\":576:591  return(0x0, 60) */\n      return\n        /* \"#utility.yul\":7:106   */\n    tag_59:\n        /* \"#utility.yul\":59:65   */\n      0x00\n        /* \"#utility.yul\":93:98   */\n      dup2\n        /* \"#utility.yul\":87:99   */\n      mload\n        /* \"#utility.yul\":77:99   */\n      swap1\n      pop\n        /* \"#utility.yul\":7:106   */\n      swap2\n      swap1\n      pop\n      jump\t// out\n        /* \"#utility.yul\":112:281   */\n    tag_60:\n        /* \"#utility.yul\":196:207   */\n      0x00\n        /* \"#utility.yul\":230:236   */\n      dup3\n        /* \"#utility.yul\":225:228   */\n      dup3\n        /* \"#utility.yul\":218:237   */\n      mstore\n        /* \"#utility.yul\":270:274   */\n      0x20\n        /* \"#utility.yul\":265:268   */\n      dup3\n        /* \"#utility.yul\":261:275   */\n      add\n        /* \"#utility.yul\":246:275   */\n      swap1\n      pop\n        /* \"#utility.yul\":112:281   */\n      swap3\n      swap2\n      pop\n      pop\n      jump\t// out\n        /* \"#utility.yul\":287:533   */\n    tag_61:\n        /* \"#utility.yul\":368:369   */\n      0x00\n        /* \"#utility.yul\":378:491   */\n    tag_85:\n        /* \"#utility.yul\":392:398   */\n      dup4\n        /* \"#utility.yul\":389:390   */\n      dup2\n        /* \"#utility.yul\":386:399   */\n      lt\n        /* \"#utility.yul\":378:491   */\n      iszero\n      tag_87\n      jumpi\n        /* \"#utility.yul\":477:478   */\n      dup1\n        /* \"#utility.yul\":472:475   */\n      dup3\n        /* \"#utility.yul\":468:479   */\n      add\n        /* \"#utility.yul\":462:480   */\n      mload\n        /* \"#utility.yul\":458:459   */\n      dup2\n        /* \"#utility.yul\":453:456   */\n      dup5\n        /* \"#utility.yul\":449:460   */\n      add\n        /* \"#utility.yul\":442:481   */\n      mstore\n        /* \"#utility.yul\":414:416   */\n      0x20\n        /* \"#utility.yul\":411:412   */\n      dup2\n        /* \"#utility.yul\":407:417   */\n      add\n        /* \"#utility.yul\":402:417   */\n      swap1\n      pop\n        /* \"#utility.yul\":378:491   */\n      jump(tag_85)\n    tag_87:\n        /* \"#utility.yul\":525:526   */\n      0x00\n        /* \"#utility.yul\":516:522   */\n      dup5\n        /* \"#utility.yul\":511:514   */\n      dup5\n        /* \"#utility.yul\":507:523   */\n      add\n        /* \"#utility.yul\":500:527   */\n      mstore\n        /* \"#utility.yul\":349:533   */\n      pop\n        /* \"#utility.yul\":287:533   */\n      pop\n      pop\n      pop\n      jump\t// out\n        /* \"#utility.yul\":539:641   */\n    tag_62:\n        /* \"#utility.yul\":580:586   */\n      0x00\n        /* \"#utility.yul\":631:633   */\n      0x1f\n        /* \"#utility.yul\":627:634   */\n      not\n        /* \"#utility.yul\":622:624   */\n      0x1f\n        /* \"#utility.yul\":615:620   */\n      dup4\n        /* \"#utility.yul\":611:625   */\n      add\n        /* \"#utility.yul\":607:635   */\n      and\n        /* \"#utility.yul\":597:635   */\n      swap1\n      pop\n        /* \"#utility.yul\":539:641   */\n      swap2\n      swap1\n      pop\n      jump\t// out\n        /* \"#utility.yul\":647:1024   */\n    tag_63:\n        /* \"#utility.yul\":735:738   */\n      0x00\n        /* \"#utility.yul\":763:802   */\n      tag_90\n        /* \"#utility.yul\":796:801   */\n      dup3\n        /* \"#utility.yul\":763:802   */\n      tag_59\n      jump\t// in\n    tag_90:\n        /* \"#utility.yul\":818:889   */\n      tag_91\n        /* \"#utility.yul\":882:888   */\n      dup2\n        /* \"#utility.yul\":877:880   */\n      dup6\n        /* \"#utility.yul\":818:889   */\n      tag_60\n      jump\t// in\n    tag_91:\n        /* \"#utility.yul\":811:889   */\n      swap4\n      pop\n        /* \"#utility.yul\":898:963   */\n      tag_92\n        /* \"#utility.yul\":956:962   */\n      dup2\n        /* \"#utility.yul\":951:954   */\n      dup6\n        /* \"#utility.yul\":944:948   */\n      0x20\n        /* \"#utility.yul\":937:942   */\n      dup7\n        /* \"#utility.yul\":933:949   */\n      add\n        /* \"#utility.yul\":898:963   */\n      tag_61\n      jump\t// in\n    tag_92:\n        /* \"#utility.yul\":988:1017   */\n      tag_93\n        /* \"#utility.yul\":1010:1016   */\n      dup2\n        /* \"#utility.yul\":988:1017   */\n      tag_62\n      jump\t// in\n    tag_93:\n        /* \"#utility.yul\":983:986   */\n      dup5\n        /* \"#utility.yul\":979:1018   */\n      add\n        /* \"#utility.yul\":972:1018   */\n      swap2\n      pop\n        /* \"#utility.yul\":739:1024   */\n      pop\n        /* \"#utility.yul\":647:1024   */\n      swap3\n      swap2\n      pop\n      pop\n      jump\t// out\n        /* \"#utility.yul\":1030:1107   */\n    tag_64:\n        /* \"#utility.yul\":1067:1074   */\n      0x00\n        /* \"#utility.yul\":1096:1101   */\n      dup2\n        /* \"#utility.yul\":1085:1101   */\n      swap1\n      pop\n        /* \"#utility.yul\":1030:1107   */\n      swap2\n      swap1\n      pop\n      jump\t// out\n        /* \"#utility.yul\":1113:1231   */\n    tag_65:\n        /* \"#utility.yul\":1200:1224   */\n      tag_96\n        /* \"#utility.yul\":1218:1223   */\n      dup2\n        /* \"#utility.yul\":1200:1224   */\n      tag_64\n      jump\t// in\n    tag_96:\n        /* \"#utility.yul\":1195:1198   */\n      dup3\n        /* \"#utility.yul\":1188:1225   */\n      mstore\n        /* \"#utility.yul\":1113:1231   */\n      pop\n      pop\n      jump\t// out\n        /* \"#utility.yul\":1237:2083   */\n    tag_15:\n        /* \"#utility.yul\":1482:1486   */\n      0x00\n        /* \"#utility.yul\":1520:1523   */\n      0xa0\n        /* \"#utility.yul\":1509:1518   */\n      dup3\n        /* \"#utility.yul\":1505:1524   */\n      add\n        /* \"#utility.yul\":1497:1524   */\n      swap1\n      pop\n        /* \"#utility.yul\":1570:1579   */\n      dup2\n        /* \"#utility.yul\":1564:1568   */\n      dup2\n        /* \"#utility.yul\":1560:1580   */\n      sub\n        /* \"#utility.yul\":1556:1557   */\n      0x00\n        /* \"#utility.yul\":1545:1554   */\n      dup4\n        /* \"#utility.yul\":1541:1558   */\n      add\n        /* \"#utility.yul\":1534:1581   */\n      mstore\n        /* \"#utility.yul\":1598:1676   */\n      tag_98\n        /* \"#utility.yul\":1671:1675   */\n      dup2\n        /* \"#utility.yul\":1662:1668   */\n      dup9\n        /* \"#utility.yul\":1598:1676   */\n      tag_63\n      jump\t// in\n    tag_98:\n        /* \"#utility.yul\":1590:1676   */\n      swap1\n      pop\n        /* \"#utility.yul\":1723:1732   */\n      dup2\n        /* \"#utility.yul\":1717:1721   */\n      dup2\n        /* \"#utility.yul\":1713:1733   */\n      sub\n        /* \"#utility.yul\":1708:1710   */\n      0x20\n        /* \"#utility.yul\":1697:1706   */\n      dup4\n        /* \"#utility.yul\":1693:1711   */\n      add\n        /* \"#utility.yul\":1686:1734   */\n      mstore\n        /* \"#utility.yul\":1751:1829   */\n      tag_99\n        /* \"#utility.yul\":1824:1828   */\n      dup2\n        /* \"#utility.yul\":1815:1821   */\n      dup8\n        /* \"#utility.yul\":1751:1829   */\n      tag_63\n      jump\t// in\n    tag_99:\n        /* \"#utility.yul\":1743:1829   */\n      swap1\n      pop\n        /* \"#utility.yul\":1839:1911   */\n      tag_100\n        /* \"#utility.yul\":1907:1909   */\n      0x40\n        /* \"#utility.yul\":1896:1905   */\n      dup4\n        /* \"#utility.yul\":1892:1910   */\n      add\n        /* \"#utility.yul\":1883:1889   */\n      dup7\n        /* \"#utility.yul\":1839:1911   */\n      tag_65\n      jump\t// in\n    tag_100:\n        /* \"#utility.yul\":1921:1993   */\n      tag_101\n        /* \"#utility.yul\":1989:1991   */\n      0x60\n        /* \"#utility.yul\":1978:1987   */\n      dup4\n        /* \"#utility.yul\":1974:1992   */\n      add\n        /* \"#utility.yul\":1965:1971   */\n      dup6\n        /* \"#utility.yul\":1921:1993   */\n      tag_65\n      jump\t// in\n    tag_101:\n        /* \"#utility.yul\":2003:2076   */\n      tag_102\n        /* \"#utility.yul\":2071:2074   */\n      0x80\n        /* \"#utility.yul\":2060:2069   */\n      dup4\n        /* \"#utility.yul\":2056:2075   */\n      add\n        /* \"#utility.yul\":2047:2053   */\n      dup5\n        /* \"#utility.yul\":2003:2076   */\n      tag_65\n      jump\t// in\n    tag_102:\n        /* \"#utility.yul\":1237:2083   */\n      swap7\n      swap6\n      pop\n      pop\n      pop\n      pop\n      pop\n      pop\n      jump\t// out\n        /* \"#utility.yul\":2089:2402   */\n    tag_19:\n        /* \"#utility.yul\":2202:2206   */\n      0x00\n        /* \"#utility.yul\":2240:2242   */\n      0x20\n        /* \"#utility.yul\":2229:2238   */\n      dup3\n        /* \"#utility.yul\":2225:2243   */\n      add\n        /* \"#utility.yul\":2217:2243   */\n      swap1\n      pop\n        /* \"#utility.yul\":2289:2298   */\n      dup2\n        /* \"#utility.yul\":2283:2287   */\n      dup2\n        /* \"#utility.yul\":2279:2299   */\n      sub\n        /* \"#utility.yul\":2275:2276   */\n      0x00\n        /* \"#utility.yul\":2264:2273   */\n      dup4\n        /* \"#utility.yul\":2260:2277   */\n      add\n        /* \"#utility.yul\":2253:2300   */\n      mstore\n        /* \"#utility.yul\":2317:2395   */\n      tag_104\n        /* \"#utility.yul\":2390:2394   */\n      dup2\n        /* \"#utility.yul\":2381:2387   */\n      dup5\n        /* \"#utility.yul\":2317:2395   */\n      tag_63\n      jump\t// in\n    tag_104:\n        /* \"#utility.yul\":2309:2395   */\n      swap1\n      pop\n        /* \"#utility.yul\":2089:2402   */\n      swap3\n      swap2\n      pop\n      pop\n      jump\t// out\n        /* \"#utility.yul\":2408:2521   */\n    tag_66:\n        /* \"#utility.yul\":2474:2480   */\n      0x00\n        /* \"#utility.yul\":2508:2513   */\n      dup2\n        /* \"#utility.yul\":2502:2514   */\n      mload\n        /* \"#utility.yul\":2492:2514   */\n      swap1\n      pop\n        /* \"#utility.yul\":2408:2521   */\n      swap2\n      swap1\n      pop\n      jump\t// out\n        /* \"#utility.yul\":2527:2710   */\n    tag_67:\n        /* \"#utility.yul\":2625:2636   */\n      0x00\n        /* \"#utility.yul\":2659:2665   */\n      dup3\n        /* \"#utility.yul\":2654:2657   */\n      dup3\n        /* \"#utility.yul\":2647:2666   */\n      mstore\n        /* \"#utility.yul\":2699:2703   */\n      0x20\n        /* \"#utility.yul\":2694:2697   */\n      dup3\n        /* \"#utility.yul\":2690:2704   */\n      add\n        /* \"#utility.yul\":2675:2704   */\n      swap1\n      pop\n        /* \"#utility.yul\":2527:2710   */\n      swap3\n      swap2\n      pop\n      pop\n      jump\t// out\n        /* \"#utility.yul\":2716:2847   */\n    tag_68:\n        /* \"#utility.yul\":2782:2786   */\n      0x00\n        /* \"#utility.yul\":2805:2808   */\n      dup2\n        /* \"#utility.yul\":2797:2808   */\n      swap1\n      pop\n        /* \"#utility.yul\":2835:2839   */\n      0x20\n        /* \"#utility.yul\":2830:2833   */\n      dup3\n        /* \"#utility.yul\":2826:2840   */\n      add\n        /* \"#utility.yul\":2818:2840   */\n      swap1\n      pop\n        /* \"#utility.yul\":2716:2847   */\n      swap2\n      swap1\n      pop\n      jump\t// out\n        /* \"#utility.yul\":2853:3002   */\n    tag_69:\n        /* \"#utility.yul\":2889:2896   */\n      0x00\n        /* \"#utility.yul\":2929:2995   */\n      0xff00000000000000000000000000000000000000000000000000000000000000\n        /* \"#utility.yul\":2922:2927   */\n      dup3\n        /* \"#utility.yul\":2918:2996   */\n      and\n        /* \"#utility.yul\":2907:2996   */\n      swap1\n      pop\n        /* \"#utility.yul\":2853:3002   */\n      swap2\n      swap1\n      pop\n      jump\t// out\n        /* \"#utility.yul\":3008:3113   */\n    tag_70:\n        /* \"#utility.yul\":3083:3106   */\n      tag_110\n        /* \"#utility.yul\":3100:3105   */\n      dup2\n        /* \"#utility.yul\":3083:3106   */\n      tag_69\n      jump\t// in\n    tag_110:\n        /* \"#utility.yul\":3078:3081   */\n      dup3\n        /* \"#utility.yul\":3071:3107   */\n      mstore\n        /* \"#utility.yul\":3008:3113   */\n      pop\n      pop\n      jump\t// out\n        /* \"#utility.yul\":3119:3294   */\n    tag_71:\n        /* \"#utility.yul\":3186:3196   */\n      0x00\n        /* \"#utility.yul\":3207:3251   */\n      tag_112\n        /* \"#utility.yul\":3247:3250   */\n      dup4\n        /* \"#utility.yul\":3239:3245   */\n      dup4\n        /* \"#utility.yul\":3207:3251   */\n      tag_70\n      jump\t// in\n    tag_112:\n        /* \"#utility.yul\":3283:3287   */\n      0x20\n        /* \"#utility.yul\":3278:3281   */\n      dup4\n        /* \"#utility.yul\":3274:3288   */\n      add\n        /* \"#utility.yul\":3260:3288   */\n      swap1\n      pop\n        /* \"#utility.yul\":3119:3294   */\n      swap3\n      swap2\n      pop\n      pop\n      jump\t// out\n        /* \"#utility.yul\":3300:3412   */\n    tag_72:\n        /* \"#utility.yul\":3369:3373   */\n      0x00\n        /* \"#utility.yul\":3401:3405   */\n      0x20\n        /* \"#utility.yul\":3396:3399   */\n      dup3\n        /* \"#utility.yul\":3392:3406   */\n      add\n        /* \"#utility.yul\":3384:3406   */\n      swap1\n      pop\n        /* \"#utility.yul\":3300:3412   */\n      swap2\n      swap1\n      pop\n      jump\t// out\n        /* \"#utility.yul\":3446:4170   */\n    tag_73:\n        /* \"#utility.yul\":3563:3566   */\n      0x00\n        /* \"#utility.yul\":3592:3645   */\n      tag_115\n        /* \"#utility.yul\":3639:3644   */\n      dup3\n        /* \"#utility.yul\":3592:3645   */\n      tag_66\n      jump\t// in\n    tag_115:\n        /* \"#utility.yul\":3661:3746   */\n      tag_116\n        /* \"#utility.yul\":3739:3745   */\n      dup2\n        /* \"#utility.yul\":3734:3737   */\n      dup6\n        /* \"#utility.yul\":3661:3746   */\n      tag_67\n      jump\t// in\n    tag_116:\n        /* \"#utility.yul\":3654:3746   */\n      swap4\n      pop\n        /* \"#utility.yul\":3770:3825   */\n      tag_117\n        /* \"#utility.yul\":3819:3824   */\n      dup4\n        /* \"#utility.yul\":3770:3825   */\n      tag_68\n      jump\t// in\n    tag_117:\n        /* \"#utility.yul\":3848:3855   */\n      dup1\n        /* \"#utility.yul\":3879:3880   */\n      0x00\n        /* \"#utility.yul\":3864:4145   */\n    tag_118:\n        /* \"#utility.yul\":3889:3895   */\n      dup4\n        /* \"#utility.yul\":3886:3887   */\n      dup2\n        /* \"#utility.yul\":3883:3896   */\n      lt\n        /* \"#utility.yul\":3864:4145   */\n      iszero\n      tag_120\n      jumpi\n        /* \"#utility.yul\":3965:3971   */\n      dup2\n        /* \"#utility.yul\":3959:3972   */\n      mload\n        /* \"#utility.yul\":3992:4053   */\n      tag_121\n        /* \"#utility.yul\":4049:4052   */\n      dup9\n        /* \"#utility.yul\":4034:4047   */\n      dup3\n        /* \"#utility.yul\":3992:4053   */\n      tag_71\n      jump\t// in\n    tag_121:\n        /* \"#utility.yul\":3985:4053   */\n      swap8\n      pop\n        /* \"#utility.yul\":4076:4135   */\n      tag_122\n        /* \"#utility.yul\":4128:4134   */\n      dup4\n        /* \"#utility.yul\":4076:4135   */\n      tag_72\n      jump\t// in\n    tag_122:\n        /* \"#utility.yul\":4066:4135   */\n      swap3\n      pop\n        /* \"#utility.yul\":3924:4145   */\n      pop\n        /* \"#utility.yul\":3911:3912   */\n      0x01\n        /* \"#utility.yul\":3908:3909   */\n      dup2\n        /* \"#utility.yul\":3904:3913   */\n      add\n        /* \"#utility.yul\":3899:3913   */\n      swap1\n      pop\n        /* \"#utility.yul\":3864:4145   */\n      jump(tag_118)\n    tag_120:\n        /* \"#utility.yul\":3868:3882   */\n      pop\n        /* \"#utility.yul\":4161:4164   */\n      dup6\n        /* \"#utility.yul\":4154:4164   */\n      swap4\n      pop\n        /* \"#utility.yul\":3568:4170   */\n      pop\n      pop\n      pop\n        /* \"#utility.yul\":3446:4170   */\n      swap3\n      swap2\n      pop\n      pop\n      jump\t// out\n        /* \"#utility.yul\":4176:4655   */\n    tag_23:\n        /* \"#utility.yul\":4345:4349   */\n      0x00\n        /* \"#utility.yul\":4383:4385   */\n      0x40\n        /* \"#utility.yul\":4372:4381   */\n      dup3\n        /* \"#utility.yul\":4368:4386   */\n      add\n        /* \"#utility.yul\":4360:4386   */\n      swap1\n      pop\n        /* \"#utility.yul\":4432:4441   */\n      dup2\n        /* \"#utility.yul\":4426:4430   */\n      dup2\n        /* \"#utility.yul\":4422:4442   */\n      sub\n        /* \"#utility.yul\":4418:4419   */\n      0x00\n        /* \"#utility.yul\":4407:4416   */\n      dup4\n        /* \"#utility.yul\":4403:4420   */\n      add\n        /* \"#utility.yul\":4396:4443   */\n      mstore\n        /* \"#utility.yul\":4460:4566   */\n      tag_124\n        /* \"#utility.yul\":4561:4565   */\n      dup2\n        /* \"#utility.yul\":4552:4558   */\n      dup6\n        /* \"#utility.yul\":4460:4566   */\n      tag_73\n      jump\t// in\n    tag_124:\n        /* \"#utility.yul\":4452:4566   */\n      swap1\n      pop\n        /* \"#utility.yul\":4576:4648   */\n      tag_125\n        /* \"#utility.yul\":4644:4646   */\n      0x20\n        /* \"#utility.yul\":4633:4642   */\n      dup4\n        /* \"#utility.yul\":4629:4647   */\n      add\n        /* \"#utility.yul\":4620:4626   */\n      dup5\n        /* \"#utility.yul\":4576:4648   */\n      tag_65\n      jump\t// in\n    tag_125:\n        /* \"#utility.yul\":4176:4655   */\n      swap4\n      swap3\n      pop\n      pop\n      pop\n      jump\t// out\n        /* \"#utility.yul\":4742:4859   */\n    tag_75:\n        /* \"#utility.yul\":4851:4852   */\n      0x00\n        /* \"#utility.yul\":4848:4849   */\n      dup1\n        /* \"#utility.yul\":4841:4853   */\n      revert\n        /* \"#utility.yul\":4988:5110   */\n    tag_77:\n        /* \"#utility.yul\":5061:5085   */\n      tag_130\n        /* \"#utility.yul\":5079:5084   */\n      dup2\n        /* \"#utility.yul\":5061:5085   */\n      tag_64\n      jump\t// in\n    tag_130:\n        /* \"#utility.yul\":5054:5059   */\n      dup2\n        /* \"#utility.yul\":5051:5086   */\n      eq\n        /* \"#utility.yul\":5041:5104   */\n      tag_131\n      jumpi\n        /* \"#utility.yul\":5100:5101   */\n      0x00\n        /* \"#utility.yul\":5097:5098   */\n      dup1\n        /* \"#utility.yul\":5090:5102   */\n      revert\n        /* \"#utility.yul\":5041:5104   */\n    tag_131:\n        /* \"#utility.yul\":4988:5110   */\n      pop\n      jump\t// out\n        /* \"#utility.yul\":5116:5255   */\n    tag_78:\n        /* \"#utility.yul\":5162:5167   */\n      0x00\n        /* \"#utility.yul\":5200:5206   */\n      dup2\n        /* \"#utility.yul\":5187:5207   */\n      calldataload\n        /* \"#utility.yul\":5178:5207   */\n      swap1\n      pop\n        /* \"#utility.yul\":5216:5249   */\n      tag_133\n        /* \"#utility.yul\":5243:5248   */\n      dup2\n        /* \"#utility.yul\":5216:5249   */\n      tag_77\n      jump\t// in\n    tag_133:\n        /* \"#utility.yul\":5116:5255   */\n      swap3\n      swap2\n      pop\n      pop\n      jump\t// out\n        /* \"#utility.yul\":5261:5735   */\n    tag_29:\n        /* \"#utility.yul\":5329:5335   */\n      0x00\n        /* \"#utility.yul\":5337:5343   */\n      dup1\n        /* \"#utility.yul\":5386:5388   */\n      0x40\n        /* \"#utility.yul\":5374:5383   */\n      dup4\n        /* \"#utility.yul\":5365:5372   */\n      dup6\n        /* \"#utility.yul\":5361:5384   */\n      sub\n        /* \"#utility.yul\":5357:5389   */\n      slt\n        /* \"#utility.yul\":5354:5473   */\n      iszero\n      tag_135\n      jumpi\n        /* \"#utility.yul\":5392:5471   */\n      tag_136\n      tag_75\n      jump\t// in\n    tag_136:\n        /* \"#utility.yul\":5354:5473   */\n    tag_135:\n        /* \"#utility.yul\":5512:5513   */\n      0x00\n        /* \"#utility.yul\":5537:5590   */\n      tag_137\n        /* \"#utility.yul\":5582:5589   */\n      dup6\n        /* \"#utility.yul\":5573:5579   */\n      dup3\n        /* \"#utility.yul\":5562:5571   */\n      dup7\n        /* \"#utility.yul\":5558:5580   */\n      add\n        /* \"#utility.yul\":5537:5590   */\n      tag_78\n      jump\t// in\n    tag_137:\n        /* \"#utility.yul\":5527:5590   */\n      swap3\n      pop\n        /* \"#utility.yul\":5483:5600   */\n      pop\n        /* \"#utility.yul\":5639:5641   */\n      0x20\n        /* \"#utility.yul\":5665:5718   */\n      tag_138\n        /* \"#utility.yul\":5710:5717   */\n      dup6\n        /* \"#utility.yul\":5701:5707   */\n      dup3\n        /* \"#utility.yul\":5690:5699   */\n      dup7\n        /* \"#utility.yul\":5686:5708   */\n      add\n        /* \"#utility.yul\":5665:5718   */\n      tag_78\n      jump\t// in\n    tag_138:\n        /* \"#utility.yul\":5655:5718   */\n      swap2\n      pop\n        /* \"#utility.yul\":5610:5728   */\n      pop\n        /* \"#utility.yul\":5261:5735   */\n      swap3\n      pop\n      swap3\n      swap1\n      pop\n      jump\t// out\n        /* \"#utility.yul\":5741:5963   */\n    tag_32:\n        /* \"#utility.yul\":5834:5838   */\n      0x00\n        /* \"#utility.yul\":5872:5874   */\n      0x20\n        /* \"#utility.yul\":5861:5870   */\n      dup3\n        /* \"#utility.yul\":5857:5875   */\n      add\n        /* \"#utility.yul\":5849:5875   */\n      swap1\n      pop\n        /* \"#utility.yul\":5885:5956   */\n      tag_140\n        /* \"#utility.yul\":5953:5954   */\n      0x00\n        /* \"#utility.yul\":5942:5951   */\n      dup4\n        /* \"#utility.yul\":5938:5955   */\n      add\n        /* \"#utility.yul\":5929:5935   */\n      dup5\n        /* \"#utility.yul\":5885:5956   */\n      tag_65\n      jump\t// in\n    tag_140:\n        /* \"#utility.yul\":5741:5963   */\n      swap3\n      swap2\n      pop\n      pop\n      jump\t// out\n        /* \"#utility.yul\":5969:6298   */\n    tag_35:\n        /* \"#utility.yul\":6028:6034   */\n      0x00\n        /* \"#utility.yul\":6077:6079   */\n      0x20\n        /* \"#utility.yul\":6065:6074   */\n      dup3\n        /* \"#utility.yul\":6056:6063   */\n      dup5\n        /* \"#utility.yul\":6052:6075   */\n      sub\n        /* \"#utility.yul\":6048:6080   */\n      slt\n        /* \"#utility.yul\":6045:6164   */\n      iszero\n      tag_142\n      jumpi\n        /* \"#utility.yul\":6083:6162   */\n      tag_143\n      tag_75\n      jump\t// in\n    tag_143:\n        /* \"#utility.yul\":6045:6164   */\n    tag_142:\n        /* \"#utility.yul\":6203:6204   */\n      0x00\n        /* \"#utility.yul\":6228:6281   */\n      tag_144\n        /* \"#utility.yul\":6273:6280   */\n      dup5\n        /* \"#utility.yul\":6264:6270   */\n      dup3\n        /* \"#utility.yul\":6253:6262   */\n      dup6\n        /* \"#utility.yul\":6249:6271   */\n      add\n        /* \"#utility.yul\":6228:6281   */\n      tag_78\n      jump\t// in\n    tag_144:\n        /* \"#utility.yul\":6218:6281   */\n      swap2\n      pop\n        /* \"#utility.yul\":6174:6291   */\n      pop\n        /* \"#utility.yul\":5969:6298   */\n      swap3\n      swap2\n      pop\n      pop\n      jump\t// out\n        /* \"#utility.yul\":6304:6381   */\n    tag_79:\n        /* \"#utility.yul\":6341:6348   */\n      0x00\n        /* \"#utility.yul\":6370:6375   */\n      dup2\n        /* \"#utility.yul\":6359:6375   */\n      swap1\n      pop\n        /* \"#utility.yul\":6304:6381   */\n      swap2\n      swap1\n      pop\n      jump\t// out\n        /* \"#utility.yul\":6387:6505   */\n    tag_80:\n        /* \"#utility.yul\":6474:6498   */\n      tag_147\n        /* \"#utility.yul\":6492:6497   */\n      dup2\n        /* \"#utility.yul\":6474:6498   */\n      tag_79\n      jump\t// in\n    tag_147:\n        /* \"#utility.yul\":6469:6472   */\n      dup3\n        /* \"#utility.yul\":6462:6499   */\n      mstore\n        /* \"#utility.yul\":6387:6505   */\n      pop\n      pop\n      jump\t// out\n        /* \"#utility.yul\":6511:6733   */\n    tag_38:\n        /* \"#utility.yul\":6604:6608   */\n      0x00\n        /* \"#utility.yul\":6642:6644   */\n      0x20\n        /* \"#utility.yul\":6631:6640   */\n      dup3\n        /* \"#utility.yul\":6627:6645   */\n      add\n        /* \"#utility.yul\":6619:6645   */\n      swap1\n      pop\n        /* \"#utility.yul\":6655:6726   */\n      tag_149\n        /* \"#utility.yul\":6723:6724   */\n      0x00\n        /* \"#utility.yul\":6712:6721   */\n      dup4\n        /* \"#utility.yul\":6708:6725   */\n      add\n        /* \"#utility.yul\":6699:6705   */\n      dup5\n        /* \"#utility.yul\":6655:6726   */\n      tag_80\n      jump\t// in\n    tag_149:\n        /* \"#utility.yul\":6511:6733   */\n      swap3\n      swap2\n      pop\n      pop\n      jump\t// out\n        /* \"#utility.yul\":6739:6919   */\n    tag_52:\n        /* \"#utility.yul\":6787:6864   */\n      0x4e487b7100000000000000000000000000000000000000000000000000000000\n        /* \"#utility.yul\":6784:6785   */\n      0x00\n        /* \"#utility.yul\":6777:6865   */\n      mstore\n        /* \"#utility.yul\":6884:6888   */\n      0x41\n        /* \"#utility.yul\":6881:6882   */\n      0x04\n        /* \"#utility.yul\":6874:6889   */\n      mstore\n        /* \"#utility.yul\":6908:6912   */\n      0x24\n        /* \"#utility.yul\":6905:6906   */\n      0x00\n        /* \"#utility.yul\":6898:6913   */\n      revert\n\n    auxdata: 0xa26469706673582212208df398ee0e84fdb3a094371a2d743eca2ce43bf9d26f827acfdb6eddae40286a64736f6c63430008160033\n}\n",
				"bytecode": {
					"linkReferences": {},
					"object": "608060405234801561000f575f80fd5b506107568061001d5f395ff3fe608060405234801561000f575f80fd5b5060043610610086575f3560e01c80636f34ed40116100595780636f34ed4014610107578063886d3db914610137578063a6404fd714610167578063cc0db3381461019757610086565b80630f3b09781461008a57806315c716ba146100ac57806318b6b5c4146100ca57806365775919146100e9575b5f80fd5b6100926101c7565b6040516100a3959493929190610483565b60405180910390f35b6100b461021d565b6040516100c191906104e2565b60405180910390f35b6100d2610260565b6040516100e09291906105e4565b60405180910390f35b6100f1610335565b6040516100fe91906104e2565b60405180910390f35b610121600480360381019061011c9190610640565b61039f565b60405161012e919061067e565b60405180910390f35b610151600480360381019061014c9190610697565b6103b4565b60405161015e91906106da565b60405180910390f35b610181600480360381019061017c9190610640565b6103bf565b60405161018e919061067e565b60405180910390f35b6101b160048036038101906101ac9190610640565b6103d0565b6040516101be919061067e565b60405180910390f35b6060805f805f805f60789150600686527f7469676572730000000000000000000000000000000000000000000000000000602087015285905060a060405286868683859650965096509650965050509091929394565b60608060405190507f656469736f6e0000000000000000000000000000000000000000000000000000600682528060208301526040805101604052508091505090565b60605f80600367ffffffffffffffff81111561027f5761027e6106f3565b5b6040519080825280602002602001820160405280156102ad5781602001602082028036833780820191505090505b5090505f60025f8301527f640000000000000000000000000000000000000000000000000000000000000060208301527f650000000000000000000000000000000000000000000000000000000000000060408301527f6600000000000000000000000000000000000000000000000000000000000000606083015281819350935050509091565b60608060405190507f656469736f6e6572656469736f6e6572656469736f6e6572656469736f6e6572602082528060208301527f61000000000000000000000000000000000000000000000000000000000000006040830152606060405101604052508091505090565b5f808284019050806090528091505092915050565b5f815f1b9050919050565b5f8183018060015260075f52603c5ff35b5f8183018060015260075f52603c5ff35b5f81519050919050565b5f82825260208201905092915050565b5f5b838110156104185780820151818401526020810190506103fd565b5f8484015250505050565b5f601f19601f8301169050919050565b5f61043d826103e1565b61044781856103eb565b93506104578185602086016103fb565b61046081610423565b840191505092915050565b5f819050919050565b61047d8161046b565b82525050565b5f60a0820190508181035f83015261049b8188610433565b905081810360208301526104af8187610433565b90506104be6040830186610474565b6104cb6060830185610474565b6104d86080830184610474565b9695505050505050565b5f6020820190508181035f8301526104fa8184610433565b905092915050565b5f81519050919050565b5f82825260208201905092915050565b5f819050602082019050919050565b5f7fff0000000000000000000000000000000000000000000000000000000000000082169050919050565b61055f8161052b565b82525050565b5f6105708383610556565b60208301905092915050565b5f602082019050919050565b5f61059282610502565b61059c818561050c565b93506105a78361051c565b805f5b838110156105d75781516105be8882610565565b97506105c98361057c565b9250506001810190506105aa565b5085935050505092915050565b5f6040820190508181035f8301526105fc8185610588565b905061060b6020830184610474565b9392505050565b5f80fd5b61061f8161046b565b8114610629575f80fd5b50565b5f8135905061063a81610616565b92915050565b5f806040838503121561065657610655610612565b5b5f6106638582860161062c565b92505060206106748582860161062c565b9150509250929050565b5f6020820190506106915f830184610474565b92915050565b5f602082840312156106ac576106ab610612565b5b5f6106b98482850161062c565b91505092915050565b5f819050919050565b6106d4816106c2565b82525050565b5f6020820190506106ed5f8301846106cb565b92915050565b7f4e487b71000000000000000000000000000000000000000000000000000000005f52604160045260245ffdfea26469706673582212208df398ee0e84fdb3a094371a2d743eca2ce43bf9d26f827acfdb6eddae40286a64736f6c63430008160033",
					"opcodes": "PUSH1 0x80 PUSH1 0x40 MSTORE CALLVALUE DUP1 ISZERO PUSH2 0xF JUMPI PUSH0 DUP1 REVERT JUMPDEST POP PUSH2 0x756 DUP1 PUSH2 0x1D PUSH0 CODECOPY PUSH0 RETURN INVALID PUSH1 0x80 PUSH1 0x40 MSTORE CALLVALUE DUP1 ISZERO PUSH2 0xF JUMPI PUSH0 DUP1 REVERT JUMPDEST POP PUSH1 0x4 CALLDATASIZE LT PUSH2 0x86 JUMPI PUSH0 CALLDATALOAD PUSH1 0xE0 SHR DUP1 PUSH4 0x6F34ED40 GT PUSH2 0x59 JUMPI DUP1 PUSH4 0x6F34ED40 EQ PUSH2 0x107 JUMPI DUP1 PUSH4 0x886D3DB9 EQ PUSH2 0x137 JUMPI DUP1 PUSH4 0xA6404FD7 EQ PUSH2 0x167 JUMPI DUP1 PUSH4 0xCC0DB338 EQ PUSH2 0x197 JUMPI PUSH2 0x86 JUMP JUMPDEST DUP1 PUSH4 0xF3B0978 EQ PUSH2 0x8A JUMPI DUP1 PUSH4 0x15C716BA EQ PUSH2 0xAC JUMPI DUP1 PUSH4 0x18B6B5C4 EQ PUSH2 0xCA JUMPI DUP1 PUSH4 0x65775919 EQ PUSH2 0xE9 JUMPI JUMPDEST PUSH0 DUP1 REVERT JUMPDEST PUSH2 0x92 PUSH2 0x1C7 JUMP JUMPDEST PUSH1 0x40 MLOAD PUSH2 0xA3 SWAP6 SWAP5 SWAP4 SWAP3 SWAP2 SWAP1 PUSH2 0x483 JUMP JUMPDEST PUSH1 0x40 MLOAD DUP1 SWAP2 SUB SWAP1 RETURN JUMPDEST PUSH2 0xB4 PUSH2 0x21D JUMP JUMPDEST PUSH1 0x40 MLOAD PUSH2 0xC1 SWAP2 SWAP1 PUSH2 0x4E2 JUMP JUMPDEST PUSH1 0x40 MLOAD DUP1 SWAP2 SUB SWAP1 RETURN JUMPDEST PUSH2 0xD2 PUSH2 0x260 JUMP JUMPDEST PUSH1 0x40 MLOAD PUSH2 0xE0 SWAP3 SWAP2 SWAP1 PUSH2 0x5E4 JUMP JUMPDEST PUSH1 0x40 MLOAD DUP1 SWAP2 SUB SWAP1 RETURN JUMPDEST PUSH2 0xF1 PUSH2 0x335 JUMP JUMPDEST PUSH1 0x40 MLOAD PUSH2 0xFE SWAP2 SWAP1 PUSH2 0x4E2 JUMP JUMPDEST PUSH1 0x40 MLOAD DUP1 SWAP2 SUB SWAP1 RETURN JUMPDEST PUSH2 0x121 PUSH1 0x4 DUP1 CALLDATASIZE SUB DUP2 ADD SWAP1 PUSH2 0x11C SWAP2 SWAP1 PUSH2 0x640 JUMP JUMPDEST PUSH2 0x39F JUMP JUMPDEST PUSH1 0x40 MLOAD PUSH2 0x12E SWAP2 SWAP1 PUSH2 0x67E JUMP JUMPDEST PUSH1 0x40 MLOAD DUP1 SWAP2 SUB SWAP1 RETURN JUMPDEST PUSH2 0x151 PUSH1 0x4 DUP1 CALLDATASIZE SUB DUP2 ADD SWAP1 PUSH2 0x14C SWAP2 SWAP1 PUSH2 0x697 JUMP JUMPDEST PUSH2 0x3B4 JUMP JUMPDEST PUSH1 0x40 MLOAD PUSH2 0x15E SWAP2 SWAP1 PUSH2 0x6DA JUMP JUMPDEST PUSH1 0x40 MLOAD DUP1 SWAP2 SUB SWAP1 RETURN JUMPDEST PUSH2 0x181 PUSH1 0x4 DUP1 CALLDATASIZE SUB DUP2 ADD SWAP1 PUSH2 0x17C SWAP2 SWAP1 PUSH2 0x640 JUMP JUMPDEST PUSH2 0x3BF JUMP JUMPDEST PUSH1 0x40 MLOAD PUSH2 0x18E SWAP2 SWAP1 PUSH2 0x67E JUMP JUMPDEST PUSH1 0x40 MLOAD DUP1 SWAP2 SUB SWAP1 RETURN JUMPDEST PUSH2 0x1B1 PUSH1 0x4 DUP1 CALLDATASIZE SUB DUP2 ADD SWAP1 PUSH2 0x1AC SWAP2 SWAP1 PUSH2 0x640 JUMP JUMPDEST PUSH2 0x3D0 JUMP JUMPDEST PUSH1 0x40 MLOAD PUSH2 0x1BE SWAP2 SWAP1 PUSH2 0x67E JUMP JUMPDEST PUSH1 0x40 MLOAD DUP1 SWAP2 SUB SWAP1 RETURN JUMPDEST PUSH1 0x60 DUP1 PUSH0 DUP1 PUSH0 DUP1 PUSH0 PUSH1 0x78 SWAP2 POP PUSH1 0x6 DUP7 MSTORE PUSH32 0x7469676572730000000000000000000000000000000000000000000000000000 PUSH1 0x20 DUP8 ADD MSTORE DUP6 SWAP1 POP PUSH1 0xA0 PUSH1 0x40 MSTORE DUP7 DUP7 DUP7 DUP4 DUP6 SWAP7 POP SWAP7 POP SWAP7 POP SWAP7 POP SWAP7 POP POP POP SWAP1 SWAP2 SWAP3 SWAP4 SWAP5 JUMP JUMPDEST PUSH1 0x60 DUP1 PUSH1 0x40 MLOAD SWAP1 POP PUSH32 0x656469736F6E0000000000000000000000000000000000000000000000000000 PUSH1 0x6 DUP3 MSTORE DUP1 PUSH1 0x20 DUP4 ADD MSTORE PUSH1 0x40 DUP1 MLOAD ADD PUSH1 0x40 MSTORE POP DUP1 SWAP2 POP POP SWAP1 JUMP JUMPDEST PUSH1 0x60 PUSH0 DUP1 PUSH1 0x3 PUSH8 0xFFFFFFFFFFFFFFFF DUP2 GT ISZERO PUSH2 0x27F JUMPI PUSH2 0x27E PUSH2 0x6F3 JUMP JUMPDEST JUMPDEST PUSH1 0x40 MLOAD SWAP1 DUP1 DUP3 MSTORE DUP1 PUSH1 0x20 MUL PUSH1 0x20 ADD DUP3 ADD PUSH1 0x40 MSTORE DUP1 ISZERO PUSH2 0x2AD JUMPI DUP2 PUSH1 0x20 ADD PUSH1 0x20 DUP3 MUL DUP1 CALLDATASIZE DUP4 CALLDATACOPY DUP1 DUP3 ADD SWAP2 POP POP SWAP1 POP JUMPDEST POP SWAP1 POP PUSH0 PUSH1 0x2 PUSH0 DUP4 ADD MSTORE PUSH32 0x6400000000000000000000000000000000000000000000000000000000000000 PUSH1 0x20 DUP4 ADD MSTORE PUSH32 0x6500000000000000000000000000000000000000000000000000000000000000 PUSH1 0x40 DUP4 ADD MSTORE PUSH32 0x6600000000000000000000000000000000000000000000000000000000000000 PUSH1 0x60 DUP4 ADD MSTORE DUP2 DUP2 SWAP4 POP SWAP4 POP POP POP SWAP1 SWAP2 JUMP JUMPDEST PUSH1 0x60 DUP1 PUSH1 0x40 MLOAD SWAP1 POP PUSH32 0x656469736F6E6572656469736F6E6572656469736F6E6572656469736F6E6572 PUSH1 0x20 DUP3 MSTORE DUP1 PUSH1 0x20 DUP4 ADD MSTORE PUSH32 0x6100000000000000000000000000000000000000000000000000000000000000 PUSH1 0x40 DUP4 ADD MSTORE PUSH1 0x60 PUSH1 0x40 MLOAD ADD PUSH1 0x40 MSTORE POP DUP1 SWAP2 POP POP SWAP1 JUMP JUMPDEST PUSH0 DUP1 DUP3 DUP5 ADD SWAP1 POP DUP1 PUSH1 0x90 MSTORE DUP1 SWAP2 POP POP SWAP3 SWAP2 POP POP JUMP JUMPDEST PUSH0 DUP2 PUSH0 SHL SWAP1 POP SWAP2 SWAP1 POP JUMP JUMPDEST PUSH0 DUP2 DUP4 ADD DUP1 PUSH1 0x1 MSTORE PUSH1 0x7 PUSH0 MSTORE PUSH1 0x3C PUSH0 RETURN JUMPDEST PUSH0 DUP2 DUP4 ADD DUP1 PUSH1 0x1 MSTORE PUSH1 0x7 PUSH0 MSTORE PUSH1 0x3C PUSH0 RETURN JUMPDEST PUSH0 DUP2 MLOAD SWAP1 POP SWAP2 SWAP1 POP JUMP JUMPDEST PUSH0 DUP3 DUP3 MSTORE PUSH1 0x20 DUP3 ADD SWAP1 POP SWAP3 SWAP2 POP POP JUMP JUMPDEST PUSH0 JUMPDEST DUP4 DUP2 LT ISZERO PUSH2 0x418 JUMPI DUP1 DUP3 ADD MLOAD DUP2 DUP5 ADD MSTORE PUSH1 0x20 DUP2 ADD SWAP1 POP PUSH2 0x3FD JUMP JUMPDEST PUSH0 DUP5 DUP5 ADD MSTORE POP POP POP POP JUMP JUMPDEST PUSH0 PUSH1 0x1F NOT PUSH1 0x1F DUP4 ADD AND SWAP1 POP SWAP2 SWAP1 POP JUMP JUMPDEST PUSH0 PUSH2 0x43D DUP3 PUSH2 0x3E1 JUMP JUMPDEST PUSH2 0x447 DUP2 DUP6 PUSH2 0x3EB JUMP JUMPDEST SWAP4 POP PUSH2 0x457 DUP2 DUP6 PUSH1 0x20 DUP7 ADD PUSH2 0x3FB JUMP JUMPDEST PUSH2 0x460 DUP2 PUSH2 0x423 JUMP JUMPDEST DUP5 ADD SWAP2 POP POP SWAP3 SWAP2 POP POP JUMP JUMPDEST PUSH0 DUP2 SWAP1 POP SWAP2 SWAP1 POP JUMP JUMPDEST PUSH2 0x47D DUP2 PUSH2 0x46B JUMP JUMPDEST DUP3 MSTORE POP POP JUMP JUMPDEST PUSH0 PUSH1 0xA0 DUP3 ADD SWAP1 POP DUP2 DUP2 SUB PUSH0 DUP4 ADD MSTORE PUSH2 0x49B DUP2 DUP9 PUSH2 0x433 JUMP JUMPDEST SWAP1 POP DUP2 DUP2 SUB PUSH1 0x20 DUP4 ADD MSTORE PUSH2 0x4AF DUP2 DUP8 PUSH2 0x433 JUMP JUMPDEST SWAP1 POP PUSH2 0x4BE PUSH1 0x40 DUP4 ADD DUP7 PUSH2 0x474 JUMP JUMPDEST PUSH2 0x4CB PUSH1 0x60 DUP4 ADD DUP6 PUSH2 0x474 JUMP JUMPDEST PUSH2 0x4D8 PUSH1 0x80 DUP4 ADD DUP5 PUSH2 0x474 JUMP JUMPDEST SWAP7 SWAP6 POP POP POP POP POP POP JUMP JUMPDEST PUSH0 PUSH1 0x20 DUP3 ADD SWAP1 POP DUP2 DUP2 SUB PUSH0 DUP4 ADD MSTORE PUSH2 0x4FA DUP2 DUP5 PUSH2 0x433 JUMP JUMPDEST SWAP1 POP SWAP3 SWAP2 POP POP JUMP JUMPDEST PUSH0 DUP2 MLOAD SWAP1 POP SWAP2 SWAP1 POP JUMP JUMPDEST PUSH0 DUP3 DUP3 MSTORE PUSH1 0x20 DUP3 ADD SWAP1 POP SWAP3 SWAP2 POP POP JUMP JUMPDEST PUSH0 DUP2 SWAP1 POP PUSH1 0x20 DUP3 ADD SWAP1 POP SWAP2 SWAP1 POP JUMP JUMPDEST PUSH0 PUSH32 0xFF00000000000000000000000000000000000000000000000000000000000000 DUP3 AND SWAP1 POP SWAP2 SWAP1 POP JUMP JUMPDEST PUSH2 0x55F DUP2 PUSH2 0x52B JUMP JUMPDEST DUP3 MSTORE POP POP JUMP JUMPDEST PUSH0 PUSH2 0x570 DUP4 DUP4 PUSH2 0x556 JUMP JUMPDEST PUSH1 0x20 DUP4 ADD SWAP1 POP SWAP3 SWAP2 POP POP JUMP JUMPDEST PUSH0 PUSH1 0x20 DUP3 ADD SWAP1 POP SWAP2 SWAP1 POP JUMP JUMPDEST PUSH0 PUSH2 0x592 DUP3 PUSH2 0x502 JUMP JUMPDEST PUSH2 0x59C DUP2 DUP6 PUSH2 0x50C JUMP JUMPDEST SWAP4 POP PUSH2 0x5A7 DUP4 PUSH2 0x51C JUMP JUMPDEST DUP1 PUSH0 JUMPDEST DUP4 DUP2 LT ISZERO PUSH2 0x5D7 JUMPI DUP2 MLOAD PUSH2 0x5BE DUP9 DUP3 PUSH2 0x565 JUMP JUMPDEST SWAP8 POP PUSH2 0x5C9 DUP4 PUSH2 0x57C JUMP JUMPDEST SWAP3 POP POP PUSH1 0x1 DUP2 ADD SWAP1 POP PUSH2 0x5AA JUMP JUMPDEST POP DUP6 SWAP4 POP POP POP POP SWAP3 SWAP2 POP POP JUMP JUMPDEST PUSH0 PUSH1 0x40 DUP3 ADD SWAP1 POP DUP2 DUP2 SUB PUSH0 DUP4 ADD MSTORE PUSH2 0x5FC DUP2 DUP6 PUSH2 0x588 JUMP JUMPDEST SWAP1 POP PUSH2 0x60B PUSH1 0x20 DUP4 ADD DUP5 PUSH2 0x474 JUMP JUMPDEST SWAP4 SWAP3 POP POP POP JUMP JUMPDEST PUSH0 DUP1 REVERT JUMPDEST PUSH2 0x61F DUP2 PUSH2 0x46B JUMP JUMPDEST DUP2 EQ PUSH2 0x629 JUMPI PUSH0 DUP1 REVERT JUMPDEST POP JUMP JUMPDEST PUSH0 DUP2 CALLDATALOAD SWAP1 POP PUSH2 0x63A DUP2 PUSH2 0x616 JUMP JUMPDEST SWAP3 SWAP2 POP POP JUMP JUMPDEST PUSH0 DUP1 PUSH1 0x40 DUP4 DUP6 SUB SLT ISZERO PUSH2 0x656 JUMPI PUSH2 0x655 PUSH2 0x612 JUMP JUMPDEST JUMPDEST PUSH0 PUSH2 0x663 DUP6 DUP3 DUP7 ADD PUSH2 0x62C JUMP JUMPDEST SWAP3 POP POP PUSH1 0x20 PUSH2 0x674 DUP6 DUP3 DUP7 ADD PUSH2 0x62C JUMP JUMPDEST SWAP2 POP POP SWAP3 POP SWAP3 SWAP1 POP JUMP JUMPDEST PUSH0 PUSH1 0x20 DUP3 ADD SWAP1 POP PUSH2 0x691 PUSH0 DUP4 ADD DUP5 PUSH2 0x474 JUMP JUMPDEST SWAP3 SWAP2 POP POP JUMP JUMPDEST PUSH0 PUSH1 0x20 DUP3 DUP5 SUB SLT ISZERO PUSH2 0x6AC JUMPI PUSH2 0x6AB PUSH2 0x612 JUMP JUMPDEST JUMPDEST PUSH0 PUSH2 0x6B9 DUP5 DUP3 DUP6 ADD PUSH2 0x62C JUMP JUMPDEST SWAP2 POP POP SWAP3 SWAP2 POP POP JUMP JUMPDEST PUSH0 DUP2 SWAP1 POP SWAP2 SWAP1 POP JUMP JUMPDEST PUSH2 0x6D4 DUP2 PUSH2 0x6C2 JUMP JUMPDEST DUP3 MSTORE POP POP JUMP JUMPDEST PUSH0 PUSH1 0x20 DUP3 ADD SWAP1 POP PUSH2 0x6ED PUSH0 DUP4 ADD DUP5 PUSH2 0x6CB JUMP JUMPDEST SWAP3 SWAP2 POP POP JUMP JUMPDEST PUSH32 0x4E487B7100000000000000000000000000000000000000000000000000000000 PUSH0 MSTORE PUSH1 0x41 PUSH1 0x4 MSTORE PUSH1 0x24 PUSH0 REVERT INVALID LOG2 PUSH5 0x6970667358 0x22 SLT KECCAK256 DUP14 RETURN SWAP9 0xEE 0xE DUP5 REVERT 0xB3 LOG0 SWAP5 CALLDATACOPY BYTE 0x2D PUSH21 0x3ECA2CE43BF9D26F827ACFDB6EDDAE40286A64736F PUSH13 0x63430008160033000000000000 "
				},
				"gasEstimates": {
					"creation": {
						"codeDepositCost": "375600",
						"executionCost": "409",
						"totalCost": "376009"
					},
					"external": {
						"demoAssembly1(uint256,uint256)": "infinite",
						"demoAssembly11(uint256,uint256)": "infinite",
						"demoAssembly12(uint256,uint256)": "infinite",
						"demoAssembly2()": "infinite",
						"demoAssembly3()": "infinite",
						"demoAssembly4()": "infinite",
						"demoAssembly5()": "infinite",
						"uintToBytes32(uint256)": "620"
					}
				},
				"methodIdentifiers": {
					"demoAssembly1(uint256,uint256)": "a6404fd7",
					"demoAssembly11(uint256,uint256)": "6f34ed40",
					"demoAssembly12(uint256,uint256)": "cc0db338",
					"demoAssembly2()": "15c716ba",
					"demoAssembly3()": "0f3b0978",
					"demoAssembly4()": "18b6b5c4",
					"demoAssembly5()": "65775919",
					"uintToBytes32(uint256)": "886d3db9"
				}
			},
			"storageLayout": {
				"storage": [],
				"types": null
			},
			"userdoc": {
				"kind": "user",
				"methods": {},
				"version": 1
			}
		}
	}
}