{
	"contracts/Test14.sol": {
		"Proxy": {
			"abi": [
				{
					"anonymous": false,
					"inputs": [
						{
							"indexed": false,
							"internalType": "address",
							"name": "",
							"type": "address"
						}
					],
					"name": "Depoly",
					"type": "event"
				},
				{
					"inputs": [
						{
							"internalType": "bytes",
							"name": "_code",
							"type": "bytes"
						}
					],
					"name": "depoly",
					"outputs": [
						{
							"internalType": "address",
							"name": "adds",
							"type": "address"
						}
					],
					"stateMutability": "payable",
					"type": "function"
				},
				{
					"inputs": [
						{
							"internalType": "address",
							"name": "_target",
							"type": "address"
						},
						{
							"internalType": "bytes",
							"name": "_data",
							"type": "bytes"
						}
					],
					"name": "execute",
					"outputs": [],
					"stateMutability": "payable",
					"type": "function"
				}
			],
			"devdoc": {
				"kind": "dev",
				"methods": {},
				"version": 1
			},
			"evm": {
				"assembly": "    /* \"contracts/Test14.sol\":709:1554  contract Proxy {... */\n  mstore(0x40, 0x80)\n  callvalue\n  dup1\n  iszero\n  tag_1\n  jumpi\n  0x00\n  dup1\n  revert\ntag_1:\n  pop\n  dataSize(sub_0)\n  dup1\n  dataOffset(sub_0)\n  0x00\n  codecopy\n  0x00\n  return\nstop\n\nsub_0: assembly {\n        /* \"contracts/Test14.sol\":709:1554  contract Proxy {... */\n      mstore(0x40, 0x80)\n      jumpi(tag_1, lt(calldatasize, 0x04))\n      shr(0xe0, calldataload(0x00))\n      dup1\n      0x18a9de28\n      eq\n      tag_2\n      jumpi\n      dup1\n      0x1cff79cd\n      eq\n      tag_3\n      jumpi\n    tag_1:\n      0x00\n      dup1\n      revert\n        /* \"contracts/Test14.sol\":802:1345  function depoly(bytes memory _code)... */\n    tag_2:\n      tag_4\n      0x04\n      dup1\n      calldatasize\n      sub\n      dup2\n      add\n      swap1\n      tag_5\n      swap2\n      swap1\n      tag_6\n      jump\t// in\n    tag_5:\n      tag_7\n      jump\t// in\n    tag_4:\n      mload(0x40)\n      tag_8\n      swap2\n      swap1\n      tag_9\n      jump\t// in\n    tag_8:\n      mload(0x40)\n      dup1\n      swap2\n      sub\n      swap1\n      return\n        /* \"contracts/Test14.sol\":1368:1551  function execute(address _target, bytes memory _data) external payable {... */\n    tag_3:\n      tag_10\n      0x04\n      dup1\n      calldatasize\n      sub\n      dup2\n      add\n      swap1\n      tag_11\n      swap2\n      swap1\n      tag_12\n      jump\t// in\n    tag_11:\n      tag_13\n      jump\t// in\n    tag_10:\n      stop\n        /* \"contracts/Test14.sol\":802:1345  function depoly(bytes memory _code)... */\n    tag_7:\n        /* \"contracts/Test14.sol\":891:903  address adds */\n      0x00\n        /* \"contracts/Test14.sol\":1235:1240  _code */\n      dup2\n        /* \"contracts/Test14.sol\":1229:1241  mload(_code) */\n      mload\n        /* \"contracts/Test14.sol\":1222:1226  0x20 */\n      0x20\n        /* \"contracts/Test14.sol\":1215:1220  _code */\n      dup4\n        /* \"contracts/Test14.sol\":1211:1227  add(_code, 0x20) */\n      add\n        /* \"contracts/Test14.sol\":1198:1209  callvalue() */\n      callvalue\n        /* \"contracts/Test14.sol\":1191:1242  create(callvalue(), add(_code, 0x20), mload(_code)) */\n      create\n        /* \"contracts/Test14.sol\":1183:1242  adds := create(callvalue(), add(_code, 0x20), mload(_code)) */\n      swap1\n      pop\n        /* \"contracts/Test14.sol\":1289:1290  0 */\n      0x00\n        /* \"contracts/Test14.sol\":1273:1291  adds != address(0) */\n      0xffffffffffffffffffffffffffffffffffffffff\n      and\n        /* \"contracts/Test14.sol\":1273:1277  adds */\n      dup2\n        /* \"contracts/Test14.sol\":1273:1291  adds != address(0) */\n      0xffffffffffffffffffffffffffffffffffffffff\n      and\n      sub\n        /* \"contracts/Test14.sol\":1265:1309  require(adds != address(0), \"Depoly Failed\") */\n      tag_15\n      jumpi\n      mload(0x40)\n      0x08c379a000000000000000000000000000000000000000000000000000000000\n      dup2\n      mstore\n      0x04\n      add\n      tag_16\n      swap1\n      tag_17\n      jump\t// in\n    tag_16:\n      mload(0x40)\n      dup1\n      swap2\n      sub\n      swap1\n      revert\n    tag_15:\n        /* \"contracts/Test14.sol\":1325:1337  Depoly(adds) */\n      0xac05afc562e334babf8e8ee74a44980404f20d1170cc1080ba089c685cf82381\n        /* \"contracts/Test14.sol\":1332:1336  adds */\n      dup2\n        /* \"contracts/Test14.sol\":1325:1337  Depoly(adds) */\n      mload(0x40)\n      tag_18\n      swap2\n      swap1\n      tag_9\n      jump\t// in\n    tag_18:\n      mload(0x40)\n      dup1\n      swap2\n      sub\n      swap1\n      log1\n        /* \"contracts/Test14.sol\":802:1345  function depoly(bytes memory _code)... */\n      swap2\n      swap1\n      pop\n      jump\t// out\n        /* \"contracts/Test14.sol\":1368:1551  function execute(address _target, bytes memory _data) external payable {... */\n    tag_13:\n        /* \"contracts/Test14.sol\":1451:1463  bool success */\n      0x00\n        /* \"contracts/Test14.sol\":1469:1476  _target */\n      dup3\n        /* \"contracts/Test14.sol\":1469:1481  _target.call */\n      0xffffffffffffffffffffffffffffffffffffffff\n      and\n        /* \"contracts/Test14.sol\":1489:1498  msg.value */\n      callvalue\n        /* \"contracts/Test14.sol\":1500:1505  _data */\n      dup4\n        /* \"contracts/Test14.sol\":1469:1506  _target.call{value: msg.value}(_data) */\n      mload(0x40)\n      tag_20\n      swap2\n      swap1\n      tag_21\n      jump\t// in\n    tag_20:\n      0x00\n      mload(0x40)\n      dup1\n      dup4\n      sub\n      dup2\n      dup6\n      dup8\n      gas\n      call\n      swap3\n      pop\n      pop\n      pop\n      returndatasize\n      dup1\n      0x00\n      dup2\n      eq\n      tag_24\n      jumpi\n      mload(0x40)\n      swap2\n      pop\n      and(add(returndatasize, 0x3f), not(0x1f))\n      dup3\n      add\n      0x40\n      mstore\n      returndatasize\n      dup3\n      mstore\n      returndatasize\n      0x00\n      0x20\n      dup5\n      add\n      returndatacopy\n      jump(tag_23)\n    tag_24:\n      0x60\n      swap2\n      pop\n    tag_23:\n      pop\n        /* \"contracts/Test14.sol\":1450:1506  (bool success, ) = _target.call{value: msg.value}(_data) */\n      pop\n      swap1\n      pop\n        /* \"contracts/Test14.sol\":1525:1532  success */\n      dup1\n        /* \"contracts/Test14.sol\":1517:1543  require(success, \"Failed\") */\n      tag_25\n      jumpi\n      mload(0x40)\n      0x08c379a000000000000000000000000000000000000000000000000000000000\n      dup2\n      mstore\n      0x04\n      add\n      tag_26\n      swap1\n      tag_27\n      jump\t// in\n    tag_26:\n      mload(0x40)\n      dup1\n      swap2\n      sub\n      swap1\n      revert\n    tag_25:\n        /* \"contracts/Test14.sol\":1439:1551  {... */\n      pop\n        /* \"contracts/Test14.sol\":1368:1551  function execute(address _target, bytes memory _data) external payable {... */\n      pop\n      pop\n      jump\t// out\n        /* \"#utility.yul\":7:82   */\n    tag_28:\n        /* \"#utility.yul\":40:46   */\n      0x00\n        /* \"#utility.yul\":73:75   */\n      0x40\n        /* \"#utility.yul\":67:76   */\n      mload\n        /* \"#utility.yul\":57:76   */\n      swap1\n      pop\n        /* \"#utility.yul\":7:82   */\n      swap1\n      jump\t// out\n        /* \"#utility.yul\":88:205   */\n    tag_29:\n        /* \"#utility.yul\":197:198   */\n      0x00\n        /* \"#utility.yul\":194:195   */\n      dup1\n        /* \"#utility.yul\":187:199   */\n      revert\n        /* \"#utility.yul\":211:328   */\n    tag_30:\n        /* \"#utility.yul\":320:321   */\n      0x00\n        /* \"#utility.yul\":317:318   */\n      dup1\n        /* \"#utility.yul\":310:322   */\n      revert\n        /* \"#utility.yul\":334:451   */\n    tag_31:\n        /* \"#utility.yul\":443:444   */\n      0x00\n        /* \"#utility.yul\":440:441   */\n      dup1\n        /* \"#utility.yul\":433:445   */\n      revert\n        /* \"#utility.yul\":457:574   */\n    tag_32:\n        /* \"#utility.yul\":566:567   */\n      0x00\n        /* \"#utility.yul\":563:564   */\n      dup1\n        /* \"#utility.yul\":556:568   */\n      revert\n        /* \"#utility.yul\":580:682   */\n    tag_33:\n        /* \"#utility.yul\":621:627   */\n      0x00\n        /* \"#utility.yul\":672:674   */\n      0x1f\n        /* \"#utility.yul\":668:675   */\n      not\n        /* \"#utility.yul\":663:665   */\n      0x1f\n        /* \"#utility.yul\":656:661   */\n      dup4\n        /* \"#utility.yul\":652:666   */\n      add\n        /* \"#utility.yul\":648:676   */\n      and\n        /* \"#utility.yul\":638:676   */\n      swap1\n      pop\n        /* \"#utility.yul\":580:682   */\n      swap2\n      swap1\n      pop\n      jump\t// out\n        /* \"#utility.yul\":688:868   */\n    tag_34:\n        /* \"#utility.yul\":736:813   */\n      0x4e487b7100000000000000000000000000000000000000000000000000000000\n        /* \"#utility.yul\":733:734   */\n      0x00\n        /* \"#utility.yul\":726:814   */\n      mstore\n        /* \"#utility.yul\":833:837   */\n      0x41\n        /* \"#utility.yul\":830:831   */\n      0x04\n        /* \"#utility.yul\":823:838   */\n      mstore\n        /* \"#utility.yul\":857:861   */\n      0x24\n        /* \"#utility.yul\":854:855   */\n      0x00\n        /* \"#utility.yul\":847:862   */\n      revert\n        /* \"#utility.yul\":874:1155   */\n    tag_35:\n        /* \"#utility.yul\":957:984   */\n      tag_64\n        /* \"#utility.yul\":979:983   */\n      dup3\n        /* \"#utility.yul\":957:984   */\n      tag_33\n      jump\t// in\n    tag_64:\n        /* \"#utility.yul\":949:955   */\n      dup2\n        /* \"#utility.yul\":945:985   */\n      add\n        /* \"#utility.yul\":1087:1093   */\n      dup2\n        /* \"#utility.yul\":1075:1085   */\n      dup2\n        /* \"#utility.yul\":1072:1094   */\n      lt\n        /* \"#utility.yul\":1051:1069   */\n      0xffffffffffffffff\n        /* \"#utility.yul\":1039:1049   */\n      dup3\n        /* \"#utility.yul\":1036:1070   */\n      gt\n        /* \"#utility.yul\":1033:1095   */\n      or\n        /* \"#utility.yul\":1030:1118   */\n      iszero\n      tag_65\n      jumpi\n        /* \"#utility.yul\":1098:1116   */\n      tag_66\n      tag_34\n      jump\t// in\n    tag_66:\n        /* \"#utility.yul\":1030:1118   */\n    tag_65:\n        /* \"#utility.yul\":1138:1148   */\n      dup1\n        /* \"#utility.yul\":1134:1136   */\n      0x40\n        /* \"#utility.yul\":1127:1149   */\n      mstore\n        /* \"#utility.yul\":917:1155   */\n      pop\n        /* \"#utility.yul\":874:1155   */\n      pop\n      pop\n      jump\t// out\n        /* \"#utility.yul\":1161:1290   */\n    tag_36:\n        /* \"#utility.yul\":1195:1201   */\n      0x00\n        /* \"#utility.yul\":1222:1242   */\n      tag_68\n      tag_28\n      jump\t// in\n    tag_68:\n        /* \"#utility.yul\":1212:1242   */\n      swap1\n      pop\n        /* \"#utility.yul\":1251:1284   */\n      tag_69\n        /* \"#utility.yul\":1279:1283   */\n      dup3\n        /* \"#utility.yul\":1271:1277   */\n      dup3\n        /* \"#utility.yul\":1251:1284   */\n      tag_35\n      jump\t// in\n    tag_69:\n        /* \"#utility.yul\":1161:1290   */\n      swap2\n      swap1\n      pop\n      jump\t// out\n        /* \"#utility.yul\":1296:1603   */\n    tag_37:\n        /* \"#utility.yul\":1357:1361   */\n      0x00\n        /* \"#utility.yul\":1447:1465   */\n      0xffffffffffffffff\n        /* \"#utility.yul\":1439:1445   */\n      dup3\n        /* \"#utility.yul\":1436:1466   */\n      gt\n        /* \"#utility.yul\":1433:1489   */\n      iszero\n      tag_71\n      jumpi\n        /* \"#utility.yul\":1469:1487   */\n      tag_72\n      tag_34\n      jump\t// in\n    tag_72:\n        /* \"#utility.yul\":1433:1489   */\n    tag_71:\n        /* \"#utility.yul\":1507:1536   */\n      tag_73\n        /* \"#utility.yul\":1529:1535   */\n      dup3\n        /* \"#utility.yul\":1507:1536   */\n      tag_33\n      jump\t// in\n    tag_73:\n        /* \"#utility.yul\":1499:1536   */\n      swap1\n      pop\n        /* \"#utility.yul\":1591:1595   */\n      0x20\n        /* \"#utility.yul\":1585:1589   */\n      dup2\n        /* \"#utility.yul\":1581:1596   */\n      add\n        /* \"#utility.yul\":1573:1596   */\n      swap1\n      pop\n        /* \"#utility.yul\":1296:1603   */\n      swap2\n      swap1\n      pop\n      jump\t// out\n        /* \"#utility.yul\":1609:1755   */\n    tag_38:\n        /* \"#utility.yul\":1706:1712   */\n      dup3\n        /* \"#utility.yul\":1701:1704   */\n      dup2\n        /* \"#utility.yul\":1696:1699   */\n      dup4\n        /* \"#utility.yul\":1683:1713   */\n      calldatacopy\n        /* \"#utility.yul\":1747:1748   */\n      0x00\n        /* \"#utility.yul\":1738:1744   */\n      dup4\n        /* \"#utility.yul\":1733:1736   */\n      dup4\n        /* \"#utility.yul\":1729:1745   */\n      add\n        /* \"#utility.yul\":1722:1749   */\n      mstore\n        /* \"#utility.yul\":1609:1755   */\n      pop\n      pop\n      pop\n      jump\t// out\n        /* \"#utility.yul\":1761:2184   */\n    tag_39:\n        /* \"#utility.yul\":1838:1843   */\n      0x00\n        /* \"#utility.yul\":1863:1928   */\n      tag_76\n        /* \"#utility.yul\":1879:1927   */\n      tag_77\n        /* \"#utility.yul\":1920:1926   */\n      dup5\n        /* \"#utility.yul\":1879:1927   */\n      tag_37\n      jump\t// in\n    tag_77:\n        /* \"#utility.yul\":1863:1928   */\n      tag_36\n      jump\t// in\n    tag_76:\n        /* \"#utility.yul\":1854:1928   */\n      swap1\n      pop\n        /* \"#utility.yul\":1951:1957   */\n      dup3\n        /* \"#utility.yul\":1944:1949   */\n      dup2\n        /* \"#utility.yul\":1937:1958   */\n      mstore\n        /* \"#utility.yul\":1989:1993   */\n      0x20\n        /* \"#utility.yul\":1982:1987   */\n      dup2\n        /* \"#utility.yul\":1978:1994   */\n      add\n        /* \"#utility.yul\":2027:2030   */\n      dup5\n        /* \"#utility.yul\":2018:2024   */\n      dup5\n        /* \"#utility.yul\":2013:2016   */\n      dup5\n        /* \"#utility.yul\":2009:2025   */\n      add\n        /* \"#utility.yul\":2006:2031   */\n      gt\n        /* \"#utility.yul\":2003:2115   */\n      iszero\n      tag_78\n      jumpi\n        /* \"#utility.yul\":2034:2113   */\n      tag_79\n      tag_32\n      jump\t// in\n    tag_79:\n        /* \"#utility.yul\":2003:2115   */\n    tag_78:\n        /* \"#utility.yul\":2124:2178   */\n      tag_80\n        /* \"#utility.yul\":2171:2177   */\n      dup5\n        /* \"#utility.yul\":2166:2169   */\n      dup3\n        /* \"#utility.yul\":2161:2164   */\n      dup6\n        /* \"#utility.yul\":2124:2178   */\n      tag_38\n      jump\t// in\n    tag_80:\n        /* \"#utility.yul\":1844:2184   */\n      pop\n        /* \"#utility.yul\":1761:2184   */\n      swap4\n      swap3\n      pop\n      pop\n      pop\n      jump\t// out\n        /* \"#utility.yul\":2203:2541   */\n    tag_40:\n        /* \"#utility.yul\":2258:2263   */\n      0x00\n        /* \"#utility.yul\":2307:2310   */\n      dup3\n        /* \"#utility.yul\":2300:2304   */\n      0x1f\n        /* \"#utility.yul\":2292:2298   */\n      dup4\n        /* \"#utility.yul\":2288:2305   */\n      add\n        /* \"#utility.yul\":2284:2311   */\n      slt\n        /* \"#utility.yul\":2274:2396   */\n      tag_82\n      jumpi\n        /* \"#utility.yul\":2315:2394   */\n      tag_83\n      tag_31\n      jump\t// in\n    tag_83:\n        /* \"#utility.yul\":2274:2396   */\n    tag_82:\n        /* \"#utility.yul\":2432:2438   */\n      dup2\n        /* \"#utility.yul\":2419:2439   */\n      calldataload\n        /* \"#utility.yul\":2457:2535   */\n      tag_84\n        /* \"#utility.yul\":2531:2534   */\n      dup5\n        /* \"#utility.yul\":2523:2529   */\n      dup3\n        /* \"#utility.yul\":2516:2520   */\n      0x20\n        /* \"#utility.yul\":2508:2514   */\n      dup7\n        /* \"#utility.yul\":2504:2521   */\n      add\n        /* \"#utility.yul\":2457:2535   */\n      tag_39\n      jump\t// in\n    tag_84:\n        /* \"#utility.yul\":2448:2535   */\n      swap2\n      pop\n        /* \"#utility.yul\":2264:2541   */\n      pop\n        /* \"#utility.yul\":2203:2541   */\n      swap3\n      swap2\n      pop\n      pop\n      jump\t// out\n        /* \"#utility.yul\":2547:3054   */\n    tag_6:\n        /* \"#utility.yul\":2615:2621   */\n      0x00\n        /* \"#utility.yul\":2664:2666   */\n      0x20\n        /* \"#utility.yul\":2652:2661   */\n      dup3\n        /* \"#utility.yul\":2643:2650   */\n      dup5\n        /* \"#utility.yul\":2639:2662   */\n      sub\n        /* \"#utility.yul\":2635:2667   */\n      slt\n        /* \"#utility.yul\":2632:2751   */\n      iszero\n      tag_86\n      jumpi\n        /* \"#utility.yul\":2670:2749   */\n      tag_87\n      tag_29\n      jump\t// in\n    tag_87:\n        /* \"#utility.yul\":2632:2751   */\n    tag_86:\n        /* \"#utility.yul\":2818:2819   */\n      0x00\n        /* \"#utility.yul\":2807:2816   */\n      dup3\n        /* \"#utility.yul\":2803:2820   */\n      add\n        /* \"#utility.yul\":2790:2821   */\n      calldataload\n        /* \"#utility.yul\":2848:2866   */\n      0xffffffffffffffff\n        /* \"#utility.yul\":2840:2846   */\n      dup2\n        /* \"#utility.yul\":2837:2867   */\n      gt\n        /* \"#utility.yul\":2834:2951   */\n      iszero\n      tag_88\n      jumpi\n        /* \"#utility.yul\":2870:2949   */\n      tag_89\n      tag_30\n      jump\t// in\n    tag_89:\n        /* \"#utility.yul\":2834:2951   */\n    tag_88:\n        /* \"#utility.yul\":2975:3037   */\n      tag_90\n        /* \"#utility.yul\":3029:3036   */\n      dup5\n        /* \"#utility.yul\":3020:3026   */\n      dup3\n        /* \"#utility.yul\":3009:3018   */\n      dup6\n        /* \"#utility.yul\":3005:3027   */\n      add\n        /* \"#utility.yul\":2975:3037   */\n      tag_40\n      jump\t// in\n    tag_90:\n        /* \"#utility.yul\":2965:3037   */\n      swap2\n      pop\n        /* \"#utility.yul\":2761:3047   */\n      pop\n        /* \"#utility.yul\":2547:3054   */\n      swap3\n      swap2\n      pop\n      pop\n      jump\t// out\n        /* \"#utility.yul\":3060:3186   */\n    tag_41:\n        /* \"#utility.yul\":3097:3104   */\n      0x00\n        /* \"#utility.yul\":3137:3179   */\n      0xffffffffffffffffffffffffffffffffffffffff\n        /* \"#utility.yul\":3130:3135   */\n      dup3\n        /* \"#utility.yul\":3126:3180   */\n      and\n        /* \"#utility.yul\":3115:3180   */\n      swap1\n      pop\n        /* \"#utility.yul\":3060:3186   */\n      swap2\n      swap1\n      pop\n      jump\t// out\n        /* \"#utility.yul\":3192:3288   */\n    tag_42:\n        /* \"#utility.yul\":3229:3236   */\n      0x00\n        /* \"#utility.yul\":3258:3282   */\n      tag_93\n        /* \"#utility.yul\":3276:3281   */\n      dup3\n        /* \"#utility.yul\":3258:3282   */\n      tag_41\n      jump\t// in\n    tag_93:\n        /* \"#utility.yul\":3247:3282   */\n      swap1\n      pop\n        /* \"#utility.yul\":3192:3288   */\n      swap2\n      swap1\n      pop\n      jump\t// out\n        /* \"#utility.yul\":3294:3412   */\n    tag_43:\n        /* \"#utility.yul\":3381:3405   */\n      tag_95\n        /* \"#utility.yul\":3399:3404   */\n      dup2\n        /* \"#utility.yul\":3381:3405   */\n      tag_42\n      jump\t// in\n    tag_95:\n        /* \"#utility.yul\":3376:3379   */\n      dup3\n        /* \"#utility.yul\":3369:3406   */\n      mstore\n        /* \"#utility.yul\":3294:3412   */\n      pop\n      pop\n      jump\t// out\n        /* \"#utility.yul\":3418:3640   */\n    tag_9:\n        /* \"#utility.yul\":3511:3515   */\n      0x00\n        /* \"#utility.yul\":3549:3551   */\n      0x20\n        /* \"#utility.yul\":3538:3547   */\n      dup3\n        /* \"#utility.yul\":3534:3552   */\n      add\n        /* \"#utility.yul\":3526:3552   */\n      swap1\n      pop\n        /* \"#utility.yul\":3562:3633   */\n      tag_97\n        /* \"#utility.yul\":3630:3631   */\n      0x00\n        /* \"#utility.yul\":3619:3628   */\n      dup4\n        /* \"#utility.yul\":3615:3632   */\n      add\n        /* \"#utility.yul\":3606:3612   */\n      dup5\n        /* \"#utility.yul\":3562:3633   */\n      tag_43\n      jump\t// in\n    tag_97:\n        /* \"#utility.yul\":3418:3640   */\n      swap3\n      swap2\n      pop\n      pop\n      jump\t// out\n        /* \"#utility.yul\":3646:3768   */\n    tag_44:\n        /* \"#utility.yul\":3719:3743   */\n      tag_99\n        /* \"#utility.yul\":3737:3742   */\n      dup2\n        /* \"#utility.yul\":3719:3743   */\n      tag_42\n      jump\t// in\n    tag_99:\n        /* \"#utility.yul\":3712:3717   */\n      dup2\n        /* \"#utility.yul\":3709:3744   */\n      eq\n        /* \"#utility.yul\":3699:3762   */\n      tag_100\n      jumpi\n        /* \"#utility.yul\":3758:3759   */\n      0x00\n        /* \"#utility.yul\":3755:3756   */\n      dup1\n        /* \"#utility.yul\":3748:3760   */\n      revert\n        /* \"#utility.yul\":3699:3762   */\n    tag_100:\n        /* \"#utility.yul\":3646:3768   */\n      pop\n      jump\t// out\n        /* \"#utility.yul\":3774:3913   */\n    tag_45:\n        /* \"#utility.yul\":3820:3825   */\n      0x00\n        /* \"#utility.yul\":3858:3864   */\n      dup2\n        /* \"#utility.yul\":3845:3865   */\n      calldataload\n        /* \"#utility.yul\":3836:3865   */\n      swap1\n      pop\n        /* \"#utility.yul\":3874:3907   */\n      tag_102\n        /* \"#utility.yul\":3901:3906   */\n      dup2\n        /* \"#utility.yul\":3874:3907   */\n      tag_44\n      jump\t// in\n    tag_102:\n        /* \"#utility.yul\":3774:3913   */\n      swap3\n      swap2\n      pop\n      pop\n      jump\t// out\n        /* \"#utility.yul\":3919:4571   */\n    tag_12:\n        /* \"#utility.yul\":3996:4002   */\n      0x00\n        /* \"#utility.yul\":4004:4010   */\n      dup1\n        /* \"#utility.yul\":4053:4055   */\n      0x40\n        /* \"#utility.yul\":4041:4050   */\n      dup4\n        /* \"#utility.yul\":4032:4039   */\n      dup6\n        /* \"#utility.yul\":4028:4051   */\n      sub\n        /* \"#utility.yul\":4024:4056   */\n      slt\n        /* \"#utility.yul\":4021:4140   */\n      iszero\n      tag_104\n      jumpi\n        /* \"#utility.yul\":4059:4138   */\n      tag_105\n      tag_29\n      jump\t// in\n    tag_105:\n        /* \"#utility.yul\":4021:4140   */\n    tag_104:\n        /* \"#utility.yul\":4179:4180   */\n      0x00\n        /* \"#utility.yul\":4204:4257   */\n      tag_106\n        /* \"#utility.yul\":4249:4256   */\n      dup6\n        /* \"#utility.yul\":4240:4246   */\n      dup3\n        /* \"#utility.yul\":4229:4238   */\n      dup7\n        /* \"#utility.yul\":4225:4247   */\n      add\n        /* \"#utility.yul\":4204:4257   */\n      tag_45\n      jump\t// in\n    tag_106:\n        /* \"#utility.yul\":4194:4257   */\n      swap3\n      pop\n        /* \"#utility.yul\":4150:4267   */\n      pop\n        /* \"#utility.yul\":4334:4336   */\n      0x20\n        /* \"#utility.yul\":4323:4332   */\n      dup4\n        /* \"#utility.yul\":4319:4337   */\n      add\n        /* \"#utility.yul\":4306:4338   */\n      calldataload\n        /* \"#utility.yul\":4365:4383   */\n      0xffffffffffffffff\n        /* \"#utility.yul\":4357:4363   */\n      dup2\n        /* \"#utility.yul\":4354:4384   */\n      gt\n        /* \"#utility.yul\":4351:4468   */\n      iszero\n      tag_107\n      jumpi\n        /* \"#utility.yul\":4387:4466   */\n      tag_108\n      tag_30\n      jump\t// in\n    tag_108:\n        /* \"#utility.yul\":4351:4468   */\n    tag_107:\n        /* \"#utility.yul\":4492:4554   */\n      tag_109\n        /* \"#utility.yul\":4546:4553   */\n      dup6\n        /* \"#utility.yul\":4537:4543   */\n      dup3\n        /* \"#utility.yul\":4526:4535   */\n      dup7\n        /* \"#utility.yul\":4522:4544   */\n      add\n        /* \"#utility.yul\":4492:4554   */\n      tag_40\n      jump\t// in\n    tag_109:\n        /* \"#utility.yul\":4482:4554   */\n      swap2\n      pop\n        /* \"#utility.yul\":4277:4564   */\n      pop\n        /* \"#utility.yul\":3919:4571   */\n      swap3\n      pop\n      swap3\n      swap1\n      pop\n      jump\t// out\n        /* \"#utility.yul\":4577:4746   */\n    tag_46:\n        /* \"#utility.yul\":4661:4672   */\n      0x00\n        /* \"#utility.yul\":4695:4701   */\n      dup3\n        /* \"#utility.yul\":4690:4693   */\n      dup3\n        /* \"#utility.yul\":4683:4702   */\n      mstore\n        /* \"#utility.yul\":4735:4739   */\n      0x20\n        /* \"#utility.yul\":4730:4733   */\n      dup3\n        /* \"#utility.yul\":4726:4740   */\n      add\n        /* \"#utility.yul\":4711:4740   */\n      swap1\n      pop\n        /* \"#utility.yul\":4577:4746   */\n      swap3\n      swap2\n      pop\n      pop\n      jump\t// out\n        /* \"#utility.yul\":4752:4915   */\n    tag_47:\n        /* \"#utility.yul\":4892:4907   */\n      0x4465706f6c79204661696c656400000000000000000000000000000000000000\n        /* \"#utility.yul\":4888:4889   */\n      0x00\n        /* \"#utility.yul\":4880:4886   */\n      dup3\n        /* \"#utility.yul\":4876:4890   */\n      add\n        /* \"#utility.yul\":4869:4908   */\n      mstore\n        /* \"#utility.yul\":4752:4915   */\n      pop\n      jump\t// out\n        /* \"#utility.yul\":4921:5287   */\n    tag_48:\n        /* \"#utility.yul\":5063:5066   */\n      0x00\n        /* \"#utility.yul\":5084:5151   */\n      tag_113\n        /* \"#utility.yul\":5148:5150   */\n      0x0d\n        /* \"#utility.yul\":5143:5146   */\n      dup4\n        /* \"#utility.yul\":5084:5151   */\n      tag_46\n      jump\t// in\n    tag_113:\n        /* \"#utility.yul\":5077:5151   */\n      swap2\n      pop\n        /* \"#utility.yul\":5160:5253   */\n      tag_114\n        /* \"#utility.yul\":5249:5252   */\n      dup3\n        /* \"#utility.yul\":5160:5253   */\n      tag_47\n      jump\t// in\n    tag_114:\n        /* \"#utility.yul\":5278:5280   */\n      0x20\n        /* \"#utility.yul\":5273:5276   */\n      dup3\n        /* \"#utility.yul\":5269:5281   */\n      add\n        /* \"#utility.yul\":5262:5281   */\n      swap1\n      pop\n        /* \"#utility.yul\":4921:5287   */\n      swap2\n      swap1\n      pop\n      jump\t// out\n        /* \"#utility.yul\":5293:5712   */\n    tag_17:\n        /* \"#utility.yul\":5459:5463   */\n      0x00\n        /* \"#utility.yul\":5497:5499   */\n      0x20\n        /* \"#utility.yul\":5486:5495   */\n      dup3\n        /* \"#utility.yul\":5482:5500   */\n      add\n        /* \"#utility.yul\":5474:5500   */\n      swap1\n      pop\n        /* \"#utility.yul\":5546:5555   */\n      dup2\n        /* \"#utility.yul\":5540:5544   */\n      dup2\n        /* \"#utility.yul\":5536:5556   */\n      sub\n        /* \"#utility.yul\":5532:5533   */\n      0x00\n        /* \"#utility.yul\":5521:5530   */\n      dup4\n        /* \"#utility.yul\":5517:5534   */\n      add\n        /* \"#utility.yul\":5510:5557   */\n      mstore\n        /* \"#utility.yul\":5574:5705   */\n      tag_116\n        /* \"#utility.yul\":5700:5704   */\n      dup2\n        /* \"#utility.yul\":5574:5705   */\n      tag_48\n      jump\t// in\n    tag_116:\n        /* \"#utility.yul\":5566:5705   */\n      swap1\n      pop\n        /* \"#utility.yul\":5293:5712   */\n      swap2\n      swap1\n      pop\n      jump\t// out\n        /* \"#utility.yul\":5718:5816   */\n    tag_49:\n        /* \"#utility.yul\":5769:5775   */\n      0x00\n        /* \"#utility.yul\":5803:5808   */\n      dup2\n        /* \"#utility.yul\":5797:5809   */\n      mload\n        /* \"#utility.yul\":5787:5809   */\n      swap1\n      pop\n        /* \"#utility.yul\":5718:5816   */\n      swap2\n      swap1\n      pop\n      jump\t// out\n        /* \"#utility.yul\":5822:5969   */\n    tag_50:\n        /* \"#utility.yul\":5923:5934   */\n      0x00\n        /* \"#utility.yul\":5960:5963   */\n      dup2\n        /* \"#utility.yul\":5945:5963   */\n      swap1\n      pop\n        /* \"#utility.yul\":5822:5969   */\n      swap3\n      swap2\n      pop\n      pop\n      jump\t// out\n        /* \"#utility.yul\":5975:6221   */\n    tag_51:\n        /* \"#utility.yul\":6056:6057   */\n      0x00\n        /* \"#utility.yul\":6066:6179   */\n    tag_120:\n        /* \"#utility.yul\":6080:6086   */\n      dup4\n        /* \"#utility.yul\":6077:6078   */\n      dup2\n        /* \"#utility.yul\":6074:6087   */\n      lt\n        /* \"#utility.yul\":6066:6179   */\n      iszero\n      tag_122\n      jumpi\n        /* \"#utility.yul\":6165:6166   */\n      dup1\n        /* \"#utility.yul\":6160:6163   */\n      dup3\n        /* \"#utility.yul\":6156:6167   */\n      add\n        /* \"#utility.yul\":6150:6168   */\n      mload\n        /* \"#utility.yul\":6146:6147   */\n      dup2\n        /* \"#utility.yul\":6141:6144   */\n      dup5\n        /* \"#utility.yul\":6137:6148   */\n      add\n        /* \"#utility.yul\":6130:6169   */\n      mstore\n        /* \"#utility.yul\":6102:6104   */\n      0x20\n        /* \"#utility.yul\":6099:6100   */\n      dup2\n        /* \"#utility.yul\":6095:6105   */\n      add\n        /* \"#utility.yul\":6090:6105   */\n      swap1\n      pop\n        /* \"#utility.yul\":6066:6179   */\n      jump(tag_120)\n    tag_122:\n        /* \"#utility.yul\":6213:6214   */\n      0x00\n        /* \"#utility.yul\":6204:6210   */\n      dup5\n        /* \"#utility.yul\":6199:6202   */\n      dup5\n        /* \"#utility.yul\":6195:6211   */\n      add\n        /* \"#utility.yul\":6188:6215   */\n      mstore\n        /* \"#utility.yul\":6037:6221   */\n      pop\n        /* \"#utility.yul\":5975:6221   */\n      pop\n      pop\n      pop\n      jump\t// out\n        /* \"#utility.yul\":6227:6613   */\n    tag_52:\n        /* \"#utility.yul\":6331:6334   */\n      0x00\n        /* \"#utility.yul\":6359:6397   */\n      tag_124\n        /* \"#utility.yul\":6391:6396   */\n      dup3\n        /* \"#utility.yul\":6359:6397   */\n      tag_49\n      jump\t// in\n    tag_124:\n        /* \"#utility.yul\":6413:6501   */\n      tag_125\n        /* \"#utility.yul\":6494:6500   */\n      dup2\n        /* \"#utility.yul\":6489:6492   */\n      dup6\n        /* \"#utility.yul\":6413:6501   */\n      tag_50\n      jump\t// in\n    tag_125:\n        /* \"#utility.yul\":6406:6501   */\n      swap4\n      pop\n        /* \"#utility.yul\":6510:6575   */\n      tag_126\n        /* \"#utility.yul\":6568:6574   */\n      dup2\n        /* \"#utility.yul\":6563:6566   */\n      dup6\n        /* \"#utility.yul\":6556:6560   */\n      0x20\n        /* \"#utility.yul\":6549:6554   */\n      dup7\n        /* \"#utility.yul\":6545:6561   */\n      add\n        /* \"#utility.yul\":6510:6575   */\n      tag_51\n      jump\t// in\n    tag_126:\n        /* \"#utility.yul\":6600:6606   */\n      dup1\n        /* \"#utility.yul\":6595:6598   */\n      dup5\n        /* \"#utility.yul\":6591:6607   */\n      add\n        /* \"#utility.yul\":6584:6607   */\n      swap2\n      pop\n        /* \"#utility.yul\":6335:6613   */\n      pop\n        /* \"#utility.yul\":6227:6613   */\n      swap3\n      swap2\n      pop\n      pop\n      jump\t// out\n        /* \"#utility.yul\":6619:6890   */\n    tag_21:\n        /* \"#utility.yul\":6749:6752   */\n      0x00\n        /* \"#utility.yul\":6771:6864   */\n      tag_128\n        /* \"#utility.yul\":6860:6863   */\n      dup3\n        /* \"#utility.yul\":6851:6857   */\n      dup5\n        /* \"#utility.yul\":6771:6864   */\n      tag_52\n      jump\t// in\n    tag_128:\n        /* \"#utility.yul\":6764:6864   */\n      swap2\n      pop\n        /* \"#utility.yul\":6881:6884   */\n      dup2\n        /* \"#utility.yul\":6874:6884   */\n      swap1\n      pop\n        /* \"#utility.yul\":6619:6890   */\n      swap3\n      swap2\n      pop\n      pop\n      jump\t// out\n        /* \"#utility.yul\":6896:7052   */\n    tag_53:\n        /* \"#utility.yul\":7036:7044   */\n      0x4661696c65640000000000000000000000000000000000000000000000000000\n        /* \"#utility.yul\":7032:7033   */\n      0x00\n        /* \"#utility.yul\":7024:7030   */\n      dup3\n        /* \"#utility.yul\":7020:7034   */\n      add\n        /* \"#utility.yul\":7013:7045   */\n      mstore\n        /* \"#utility.yul\":6896:7052   */\n      pop\n      jump\t// out\n        /* \"#utility.yul\":7058:7423   */\n    tag_54:\n        /* \"#utility.yul\":7200:7203   */\n      0x00\n        /* \"#utility.yul\":7221:7287   */\n      tag_131\n        /* \"#utility.yul\":7285:7286   */\n      0x06\n        /* \"#utility.yul\":7280:7283   */\n      dup4\n        /* \"#utility.yul\":7221:7287   */\n      tag_46\n      jump\t// in\n    tag_131:\n        /* \"#utility.yul\":7214:7287   */\n      swap2\n      pop\n        /* \"#utility.yul\":7296:7389   */\n      tag_132\n        /* \"#utility.yul\":7385:7388   */\n      dup3\n        /* \"#utility.yul\":7296:7389   */\n      tag_53\n      jump\t// in\n    tag_132:\n        /* \"#utility.yul\":7414:7416   */\n      0x20\n        /* \"#utility.yul\":7409:7412   */\n      dup3\n        /* \"#utility.yul\":7405:7417   */\n      add\n        /* \"#utility.yul\":7398:7417   */\n      swap1\n      pop\n        /* \"#utility.yul\":7058:7423   */\n      swap2\n      swap1\n      pop\n      jump\t// out\n        /* \"#utility.yul\":7429:7848   */\n    tag_27:\n        /* \"#utility.yul\":7595:7599   */\n      0x00\n        /* \"#utility.yul\":7633:7635   */\n      0x20\n        /* \"#utility.yul\":7622:7631   */\n      dup3\n        /* \"#utility.yul\":7618:7636   */\n      add\n        /* \"#utility.yul\":7610:7636   */\n      swap1\n      pop\n        /* \"#utility.yul\":7682:7691   */\n      dup2\n        /* \"#utility.yul\":7676:7680   */\n      dup2\n        /* \"#utility.yul\":7672:7692   */\n      sub\n        /* \"#utility.yul\":7668:7669   */\n      0x00\n        /* \"#utility.yul\":7657:7666   */\n      dup4\n        /* \"#utility.yul\":7653:7670   */\n      add\n        /* \"#utility.yul\":7646:7693   */\n      mstore\n        /* \"#utility.yul\":7710:7841   */\n      tag_134\n        /* \"#utility.yul\":7836:7840   */\n      dup2\n        /* \"#utility.yul\":7710:7841   */\n      tag_54\n      jump\t// in\n    tag_134:\n        /* \"#utility.yul\":7702:7841   */\n      swap1\n      pop\n        /* \"#utility.yul\":7429:7848   */\n      swap2\n      swap1\n      pop\n      jump\t// out\n\n    auxdata: 0xa2646970667358221220392fb55d45677ed69463929e7bc99a87da726eb141f8dcd2c761ea362e09afa664736f6c63430008160033\n}\n",
				"bytecode": {
					"linkReferences": {},
					"object": "608060405234801561000f575f80fd5b506105e48061001d5f395ff3fe608060405260043610610028575f3560e01c806318a9de281461002c5780631cff79cd1461005c575b5f80fd5b61004660048036038101906100419190610329565b610078565b60405161005391906103af565b60405180910390f35b610076600480360381019061007191906103f2565b61012d565b005b5f81516020830134f090505f73ffffffffffffffffffffffffffffffffffffffff168173ffffffffffffffffffffffffffffffffffffffff16036100f1576040517f08c379a00000000000000000000000000000000000000000000000000000000081526004016100e8906104a6565b60405180910390fd5b7fac05afc562e334babf8e8ee74a44980404f20d1170cc1080ba089c685cf823818160405161012091906103af565b60405180910390a1919050565b5f8273ffffffffffffffffffffffffffffffffffffffff1634836040516101549190610530565b5f6040518083038185875af1925050503d805f811461018e576040519150601f19603f3d011682016040523d82523d5f602084013e610193565b606091505b50509050806101d7576040517f08c379a00000000000000000000000000000000000000000000000000000000081526004016101ce90610590565b60405180910390fd5b505050565b5f604051905090565b5f80fd5b5f80fd5b5f80fd5b5f80fd5b5f601f19601f8301169050919050565b7f4e487b71000000000000000000000000000000000000000000000000000000005f52604160045260245ffd5b61023b826101f5565b810181811067ffffffffffffffff8211171561025a57610259610205565b5b80604052505050565b5f61026c6101dc565b90506102788282610232565b919050565b5f67ffffffffffffffff82111561029757610296610205565b5b6102a0826101f5565b9050602081019050919050565b828183375f83830152505050565b5f6102cd6102c88461027d565b610263565b9050828152602081018484840111156102e9576102e86101f1565b5b6102f48482856102ad565b509392505050565b5f82601f8301126103105761030f6101ed565b5b81356103208482602086016102bb565b91505092915050565b5f6020828403121561033e5761033d6101e5565b5b5f82013567ffffffffffffffff81111561035b5761035a6101e9565b5b610367848285016102fc565b91505092915050565b5f73ffffffffffffffffffffffffffffffffffffffff82169050919050565b5f61039982610370565b9050919050565b6103a98161038f565b82525050565b5f6020820190506103c25f8301846103a0565b92915050565b6103d18161038f565b81146103db575f80fd5b50565b5f813590506103ec816103c8565b92915050565b5f8060408385031215610408576104076101e5565b5b5f610415858286016103de565b925050602083013567ffffffffffffffff811115610436576104356101e9565b5b610442858286016102fc565b9150509250929050565b5f82825260208201905092915050565b7f4465706f6c79204661696c6564000000000000000000000000000000000000005f82015250565b5f610490600d8361044c565b915061049b8261045c565b602082019050919050565b5f6020820190508181035f8301526104bd81610484565b9050919050565b5f81519050919050565b5f81905092915050565b5f5b838110156104f55780820151818401526020810190506104da565b5f8484015250505050565b5f61050a826104c4565b61051481856104ce565b93506105248185602086016104d8565b80840191505092915050565b5f61053b8284610500565b915081905092915050565b7f4661696c656400000000000000000000000000000000000000000000000000005f82015250565b5f61057a60068361044c565b915061058582610546565b602082019050919050565b5f6020820190508181035f8301526105a78161056e565b905091905056fea2646970667358221220392fb55d45677ed69463929e7bc99a87da726eb141f8dcd2c761ea362e09afa664736f6c63430008160033",
					"opcodes": "PUSH1 0x80 PUSH1 0x40 MSTORE CALLVALUE DUP1 ISZERO PUSH2 0xF JUMPI PUSH0 DUP1 REVERT JUMPDEST POP PUSH2 0x5E4 DUP1 PUSH2 0x1D PUSH0 CODECOPY PUSH0 RETURN INVALID PUSH1 0x80 PUSH1 0x40 MSTORE PUSH1 0x4 CALLDATASIZE LT PUSH2 0x28 JUMPI PUSH0 CALLDATALOAD PUSH1 0xE0 SHR DUP1 PUSH4 0x18A9DE28 EQ PUSH2 0x2C JUMPI DUP1 PUSH4 0x1CFF79CD EQ PUSH2 0x5C JUMPI JUMPDEST PUSH0 DUP1 REVERT JUMPDEST PUSH2 0x46 PUSH1 0x4 DUP1 CALLDATASIZE SUB DUP2 ADD SWAP1 PUSH2 0x41 SWAP2 SWAP1 PUSH2 0x329 JUMP JUMPDEST PUSH2 0x78 JUMP JUMPDEST PUSH1 0x40 MLOAD PUSH2 0x53 SWAP2 SWAP1 PUSH2 0x3AF JUMP JUMPDEST PUSH1 0x40 MLOAD DUP1 SWAP2 SUB SWAP1 RETURN JUMPDEST PUSH2 0x76 PUSH1 0x4 DUP1 CALLDATASIZE SUB DUP2 ADD SWAP1 PUSH2 0x71 SWAP2 SWAP1 PUSH2 0x3F2 JUMP JUMPDEST PUSH2 0x12D JUMP JUMPDEST STOP JUMPDEST PUSH0 DUP2 MLOAD PUSH1 0x20 DUP4 ADD CALLVALUE CREATE SWAP1 POP PUSH0 PUSH20 0xFFFFFFFFFFFFFFFFFFFFFFFFFFFFFFFFFFFFFFFF AND DUP2 PUSH20 0xFFFFFFFFFFFFFFFFFFFFFFFFFFFFFFFFFFFFFFFF AND SUB PUSH2 0xF1 JUMPI PUSH1 0x40 MLOAD PUSH32 0x8C379A000000000000000000000000000000000000000000000000000000000 DUP2 MSTORE PUSH1 0x4 ADD PUSH2 0xE8 SWAP1 PUSH2 0x4A6 JUMP JUMPDEST PUSH1 0x40 MLOAD DUP1 SWAP2 SUB SWAP1 REVERT JUMPDEST PUSH32 0xAC05AFC562E334BABF8E8EE74A44980404F20D1170CC1080BA089C685CF82381 DUP2 PUSH1 0x40 MLOAD PUSH2 0x120 SWAP2 SWAP1 PUSH2 0x3AF JUMP JUMPDEST PUSH1 0x40 MLOAD DUP1 SWAP2 SUB SWAP1 LOG1 SWAP2 SWAP1 POP JUMP JUMPDEST PUSH0 DUP3 PUSH20 0xFFFFFFFFFFFFFFFFFFFFFFFFFFFFFFFFFFFFFFFF AND CALLVALUE DUP4 PUSH1 0x40 MLOAD PUSH2 0x154 SWAP2 SWAP1 PUSH2 0x530 JUMP JUMPDEST PUSH0 PUSH1 0x40 MLOAD DUP1 DUP4 SUB DUP2 DUP6 DUP8 GAS CALL SWAP3 POP POP POP RETURNDATASIZE DUP1 PUSH0 DUP2 EQ PUSH2 0x18E JUMPI PUSH1 0x40 MLOAD SWAP2 POP PUSH1 0x1F NOT PUSH1 0x3F RETURNDATASIZE ADD AND DUP3 ADD PUSH1 0x40 MSTORE RETURNDATASIZE DUP3 MSTORE RETURNDATASIZE PUSH0 PUSH1 0x20 DUP5 ADD RETURNDATACOPY PUSH2 0x193 JUMP JUMPDEST PUSH1 0x60 SWAP2 POP JUMPDEST POP POP SWAP1 POP DUP1 PUSH2 0x1D7 JUMPI PUSH1 0x40 MLOAD PUSH32 0x8C379A000000000000000000000000000000000000000000000000000000000 DUP2 MSTORE PUSH1 0x4 ADD PUSH2 0x1CE SWAP1 PUSH2 0x590 JUMP JUMPDEST PUSH1 0x40 MLOAD DUP1 SWAP2 SUB SWAP1 REVERT JUMPDEST POP POP POP JUMP JUMPDEST PUSH0 PUSH1 0x40 MLOAD SWAP1 POP SWAP1 JUMP JUMPDEST PUSH0 DUP1 REVERT JUMPDEST PUSH0 DUP1 REVERT JUMPDEST PUSH0 DUP1 REVERT JUMPDEST PUSH0 DUP1 REVERT JUMPDEST PUSH0 PUSH1 0x1F NOT PUSH1 0x1F DUP4 ADD AND SWAP1 POP SWAP2 SWAP1 POP JUMP JUMPDEST PUSH32 0x4E487B7100000000000000000000000000000000000000000000000000000000 PUSH0 MSTORE PUSH1 0x41 PUSH1 0x4 MSTORE PUSH1 0x24 PUSH0 REVERT JUMPDEST PUSH2 0x23B DUP3 PUSH2 0x1F5 JUMP JUMPDEST DUP2 ADD DUP2 DUP2 LT PUSH8 0xFFFFFFFFFFFFFFFF DUP3 GT OR ISZERO PUSH2 0x25A JUMPI PUSH2 0x259 PUSH2 0x205 JUMP JUMPDEST JUMPDEST DUP1 PUSH1 0x40 MSTORE POP POP POP JUMP JUMPDEST PUSH0 PUSH2 0x26C PUSH2 0x1DC JUMP JUMPDEST SWAP1 POP PUSH2 0x278 DUP3 DUP3 PUSH2 0x232 JUMP JUMPDEST SWAP2 SWAP1 POP JUMP JUMPDEST PUSH0 PUSH8 0xFFFFFFFFFFFFFFFF DUP3 GT ISZERO PUSH2 0x297 JUMPI PUSH2 0x296 PUSH2 0x205 JUMP JUMPDEST JUMPDEST PUSH2 0x2A0 DUP3 PUSH2 0x1F5 JUMP JUMPDEST SWAP1 POP PUSH1 0x20 DUP2 ADD SWAP1 POP SWAP2 SWAP1 POP JUMP JUMPDEST DUP3 DUP2 DUP4 CALLDATACOPY PUSH0 DUP4 DUP4 ADD MSTORE POP POP POP JUMP JUMPDEST PUSH0 PUSH2 0x2CD PUSH2 0x2C8 DUP5 PUSH2 0x27D JUMP JUMPDEST PUSH2 0x263 JUMP JUMPDEST SWAP1 POP DUP3 DUP2 MSTORE PUSH1 0x20 DUP2 ADD DUP5 DUP5 DUP5 ADD GT ISZERO PUSH2 0x2E9 JUMPI PUSH2 0x2E8 PUSH2 0x1F1 JUMP JUMPDEST JUMPDEST PUSH2 0x2F4 DUP5 DUP3 DUP6 PUSH2 0x2AD JUMP JUMPDEST POP SWAP4 SWAP3 POP POP POP JUMP JUMPDEST PUSH0 DUP3 PUSH1 0x1F DUP4 ADD SLT PUSH2 0x310 JUMPI PUSH2 0x30F PUSH2 0x1ED JUMP JUMPDEST JUMPDEST DUP2 CALLDATALOAD PUSH2 0x320 DUP5 DUP3 PUSH1 0x20 DUP7 ADD PUSH2 0x2BB JUMP JUMPDEST SWAP2 POP POP SWAP3 SWAP2 POP POP JUMP JUMPDEST PUSH0 PUSH1 0x20 DUP3 DUP5 SUB SLT ISZERO PUSH2 0x33E JUMPI PUSH2 0x33D PUSH2 0x1E5 JUMP JUMPDEST JUMPDEST PUSH0 DUP3 ADD CALLDATALOAD PUSH8 0xFFFFFFFFFFFFFFFF DUP2 GT ISZERO PUSH2 0x35B JUMPI PUSH2 0x35A PUSH2 0x1E9 JUMP JUMPDEST JUMPDEST PUSH2 0x367 DUP5 DUP3 DUP6 ADD PUSH2 0x2FC JUMP JUMPDEST SWAP2 POP POP SWAP3 SWAP2 POP POP JUMP JUMPDEST PUSH0 PUSH20 0xFFFFFFFFFFFFFFFFFFFFFFFFFFFFFFFFFFFFFFFF DUP3 AND SWAP1 POP SWAP2 SWAP1 POP JUMP JUMPDEST PUSH0 PUSH2 0x399 DUP3 PUSH2 0x370 JUMP JUMPDEST SWAP1 POP SWAP2 SWAP1 POP JUMP JUMPDEST PUSH2 0x3A9 DUP2 PUSH2 0x38F JUMP JUMPDEST DUP3 MSTORE POP POP JUMP JUMPDEST PUSH0 PUSH1 0x20 DUP3 ADD SWAP1 POP PUSH2 0x3C2 PUSH0 DUP4 ADD DUP5 PUSH2 0x3A0 JUMP JUMPDEST SWAP3 SWAP2 POP POP JUMP JUMPDEST PUSH2 0x3D1 DUP2 PUSH2 0x38F JUMP JUMPDEST DUP2 EQ PUSH2 0x3DB JUMPI PUSH0 DUP1 REVERT JUMPDEST POP JUMP JUMPDEST PUSH0 DUP2 CALLDATALOAD SWAP1 POP PUSH2 0x3EC DUP2 PUSH2 0x3C8 JUMP JUMPDEST SWAP3 SWAP2 POP POP JUMP JUMPDEST PUSH0 DUP1 PUSH1 0x40 DUP4 DUP6 SUB SLT ISZERO PUSH2 0x408 JUMPI PUSH2 0x407 PUSH2 0x1E5 JUMP JUMPDEST JUMPDEST PUSH0 PUSH2 0x415 DUP6 DUP3 DUP7 ADD PUSH2 0x3DE JUMP JUMPDEST SWAP3 POP POP PUSH1 0x20 DUP4 ADD CALLDATALOAD PUSH8 0xFFFFFFFFFFFFFFFF DUP2 GT ISZERO PUSH2 0x436 JUMPI PUSH2 0x435 PUSH2 0x1E9 JUMP JUMPDEST JUMPDEST PUSH2 0x442 DUP6 DUP3 DUP7 ADD PUSH2 0x2FC JUMP JUMPDEST SWAP2 POP POP SWAP3 POP SWAP3 SWAP1 POP JUMP JUMPDEST PUSH0 DUP3 DUP3 MSTORE PUSH1 0x20 DUP3 ADD SWAP1 POP SWAP3 SWAP2 POP POP JUMP JUMPDEST PUSH32 0x4465706F6C79204661696C656400000000000000000000000000000000000000 PUSH0 DUP3 ADD MSTORE POP JUMP JUMPDEST PUSH0 PUSH2 0x490 PUSH1 0xD DUP4 PUSH2 0x44C JUMP JUMPDEST SWAP2 POP PUSH2 0x49B DUP3 PUSH2 0x45C JUMP JUMPDEST PUSH1 0x20 DUP3 ADD SWAP1 POP SWAP2 SWAP1 POP JUMP JUMPDEST PUSH0 PUSH1 0x20 DUP3 ADD SWAP1 POP DUP2 DUP2 SUB PUSH0 DUP4 ADD MSTORE PUSH2 0x4BD DUP2 PUSH2 0x484 JUMP JUMPDEST SWAP1 POP SWAP2 SWAP1 POP JUMP JUMPDEST PUSH0 DUP2 MLOAD SWAP1 POP SWAP2 SWAP1 POP JUMP JUMPDEST PUSH0 DUP2 SWAP1 POP SWAP3 SWAP2 POP POP JUMP JUMPDEST PUSH0 JUMPDEST DUP4 DUP2 LT ISZERO PUSH2 0x4F5 JUMPI DUP1 DUP3 ADD MLOAD DUP2 DUP5 ADD MSTORE PUSH1 0x20 DUP2 ADD SWAP1 POP PUSH2 0x4DA JUMP JUMPDEST PUSH0 DUP5 DUP5 ADD MSTORE POP POP POP POP JUMP JUMPDEST PUSH0 PUSH2 0x50A DUP3 PUSH2 0x4C4 JUMP JUMPDEST PUSH2 0x514 DUP2 DUP6 PUSH2 0x4CE JUMP JUMPDEST SWAP4 POP PUSH2 0x524 DUP2 DUP6 PUSH1 0x20 DUP7 ADD PUSH2 0x4D8 JUMP JUMPDEST DUP1 DUP5 ADD SWAP2 POP POP SWAP3 SWAP2 POP POP JUMP JUMPDEST PUSH0 PUSH2 0x53B DUP3 DUP5 PUSH2 0x500 JUMP JUMPDEST SWAP2 POP DUP2 SWAP1 POP SWAP3 SWAP2 POP POP JUMP JUMPDEST PUSH32 0x4661696C65640000000000000000000000000000000000000000000000000000 PUSH0 DUP3 ADD MSTORE POP JUMP JUMPDEST PUSH0 PUSH2 0x57A PUSH1 0x6 DUP4 PUSH2 0x44C JUMP JUMPDEST SWAP2 POP PUSH2 0x585 DUP3 PUSH2 0x546 JUMP JUMPDEST PUSH1 0x20 DUP3 ADD SWAP1 POP SWAP2 SWAP1 POP JUMP JUMPDEST PUSH0 PUSH1 0x20 DUP3 ADD SWAP1 POP DUP2 DUP2 SUB PUSH0 DUP4 ADD MSTORE PUSH2 0x5A7 DUP2 PUSH2 0x56E JUMP JUMPDEST SWAP1 POP SWAP2 SWAP1 POP JUMP INVALID LOG2 PUSH5 0x6970667358 0x22 SLT KECCAK256 CODECOPY 0x2F 0xB5 0x5D GASLIMIT PUSH8 0x7ED69463929E7BC9 SWAP11 DUP8 0xDA PUSH19 0x6EB141F8DCD2C761EA362E09AFA664736F6C63 NUMBER STOP ADDMOD AND STOP CALLER "
				},
				"gasEstimates": {
					"creation": {
						"codeDepositCost": "301600",
						"executionCost": "341",
						"totalCost": "301941"
					},
					"external": {
						"depoly(bytes)": "infinite",
						"execute(address,bytes)": "infinite"
					}
				},
				"methodIdentifiers": {
					"depoly(bytes)": "18a9de28",
					"execute(address,bytes)": "1cff79cd"
				}
			},
			"storageLayout": {
				"storage": [],
				"types": null
			},
			"userdoc": {
				"kind": "user",
				"methods": {},
				"version": 1
			}
		}
	}
}