{
	"contracts/Test14.sol": {
		"Helper": {
			"abi": [
				{
					"inputs": [],
					"name": "getBytescode1",
					"outputs": [
						{
							"internalType": "bytes",
							"name": "bytecode",
							"type": "bytes"
						}
					],
					"stateMutability": "pure",
					"type": "function"
				},
				{
					"inputs": [
						{
							"internalType": "uint256",
							"name": "_x",
							"type": "uint256"
						},
						{
							"internalType": "uint256",
							"name": "_y",
							"type": "uint256"
						}
					],
					"name": "getBytescode2",
					"outputs": [
						{
							"internalType": "bytes",
							"name": "",
							"type": "bytes"
						}
					],
					"stateMutability": "pure",
					"type": "function"
				},
				{
					"inputs": [
						{
							"internalType": "address",
							"name": "_owner",
							"type": "address"
						}
					],
					"name": "getCalldata",
					"outputs": [
						{
							"internalType": "bytes",
							"name": "",
							"type": "bytes"
						}
					],
					"stateMutability": "pure",
					"type": "function"
				}
			],
			"devdoc": {
				"kind": "dev",
				"methods": {},
				"version": 1
			},
			"evm": {
				"assembly": "    /* \"contracts/Test14.sol\":1558:2351  contract Helper {... */\n  mstore(0x40, 0x80)\n  callvalue\n  dup1\n  iszero\n  tag_1\n  jumpi\n  0x00\n  dup1\n  revert\ntag_1:\n  pop\n  dataSize(sub_0)\n  dup1\n  dataOffset(sub_0)\n  0x00\n  codecopy\n  0x00\n  return\nstop\n\nsub_0: assembly {\n        /* \"contracts/Test14.sol\":1558:2351  contract Helper {... */\n      mstore(0x40, 0x80)\n      callvalue\n      dup1\n      iszero\n      tag_1\n      jumpi\n      0x00\n      dup1\n      revert\n    tag_1:\n      pop\n      jumpi(tag_2, lt(calldatasize, 0x04))\n      shr(0xe0, calldataload(0x00))\n      dup1\n      0x2064cad5\n      eq\n      tag_3\n      jumpi\n      dup1\n      0xbb3b8e5b\n      eq\n      tag_4\n      jumpi\n      dup1\n      0xf1d4d81e\n      eq\n      tag_5\n      jumpi\n    tag_2:\n      0x00\n      dup1\n      revert\n        /* \"contracts/Test14.sol\":2196:2348  function getCalldata(address _owner) external pure returns (bytes memory) {... */\n    tag_3:\n      tag_6\n      0x04\n      dup1\n      calldatasize\n      sub\n      dup2\n      add\n      swap1\n      tag_7\n      swap2\n      swap1\n      tag_8\n      jump\t// in\n    tag_7:\n      tag_9\n      jump\t// in\n    tag_6:\n      mload(0x40)\n      tag_10\n      swap2\n      swap1\n      tag_11\n      jump\t// in\n    tag_10:\n      mload(0x40)\n      dup1\n      swap2\n      sub\n      swap1\n      return\n        /* \"contracts/Test14.sol\":1624:1749  function getBytescode1() external pure returns (bytes memory bytecode) {... */\n    tag_4:\n      tag_12\n      tag_13\n      jump\t// in\n    tag_12:\n      mload(0x40)\n      tag_14\n      swap2\n      swap1\n      tag_11\n      jump\t// in\n    tag_14:\n      mload(0x40)\n      dup1\n      swap2\n      sub\n      swap1\n      return\n        /* \"contracts/Test14.sol\":1841:2117  function getBytescode2(uint256 _x, uint256 _y)... */\n    tag_5:\n      tag_15\n      0x04\n      dup1\n      calldatasize\n      sub\n      dup2\n      add\n      swap1\n      tag_16\n      swap2\n      swap1\n      tag_17\n      jump\t// in\n    tag_16:\n      tag_18\n      jump\t// in\n    tag_15:\n      mload(0x40)\n      tag_19\n      swap2\n      swap1\n      tag_11\n      jump\t// in\n    tag_19:\n      mload(0x40)\n      dup1\n      swap2\n      sub\n      swap1\n      return\n        /* \"contracts/Test14.sol\":2196:2348  function getCalldata(address _owner) external pure returns (bytes memory) {... */\n    tag_9:\n        /* \"contracts/Test14.sol\":2256:2268  bytes memory */\n      0x60\n        /* \"contracts/Test14.sol\":2333:2339  _owner */\n      dup2\n        /* \"contracts/Test14.sol\":2288:2340  abi.encodeWithSignature(\"setOwner(address)\", _owner) */\n      add(0x24, mload(0x40))\n      tag_21\n      swap2\n      swap1\n      tag_22\n      jump\t// in\n    tag_21:\n      mload(0x40)\n      0x20\n      dup2\n      dup4\n      sub\n      sub\n      dup2\n      mstore\n      swap1\n      0x40\n      mstore\n      and(not(0xffffffffffffffffffffffffffffffffffffffffffffffffffffffff), 0x13af403500000000000000000000000000000000000000000000000000000000)\n      0x20\n      dup3\n      add\n      dup1\n      mload\n      0xffffffffffffffffffffffffffffffffffffffffffffffffffffffff\n      dup4\n      dup2\n      dup4\n      and\n      or\n      dup4\n      mstore\n      pop\n      pop\n      pop\n      pop\n        /* \"contracts/Test14.sol\":2281:2340  return abi.encodeWithSignature(\"setOwner(address)\", _owner) */\n      swap1\n      pop\n        /* \"contracts/Test14.sol\":2196:2348  function getCalldata(address _owner) external pure returns (bytes memory) {... */\n      swap2\n      swap1\n      pop\n      jump\t// out\n        /* \"contracts/Test14.sol\":1624:1749  function getBytescode1() external pure returns (bytes memory bytecode) {... */\n    tag_13:\n        /* \"contracts/Test14.sol\":1672:1693  bytes memory bytecode */\n      0x60\n        /* \"contracts/Test14.sol\":1717:1741  type(Test1).creationCode */\n      mload(0x40)\n      dup1\n      0x20\n      add\n      tag_24\n      swap1\n      tag_25\n      jump\t// in\n    tag_24:\n      0x20\n      dup3\n      add\n      dup2\n      sub\n      dup3\n      mstore\n      not(0x1f)\n      0x1f\n      dup3\n      add\n      and\n      0x40\n      mstore\n      pop\n        /* \"contracts/Test14.sol\":1706:1741  bytecode = type(Test1).creationCode */\n      swap1\n      pop\n        /* \"contracts/Test14.sol\":1624:1749  function getBytescode1() external pure returns (bytes memory bytecode) {... */\n      swap1\n      jump\t// out\n        /* \"contracts/Test14.sol\":1841:2117  function getBytescode2(uint256 _x, uint256 _y)... */\n    tag_18:\n        /* \"contracts/Test14.sol\":1938:1950  bytes memory */\n      0x60\n        /* \"contracts/Test14.sol\":1968:1989  bytes memory bytecode */\n      0x00\n        /* \"contracts/Test14.sol\":1992:2016  type(Test2).creationCode */\n      mload(0x40)\n      dup1\n      0x20\n      add\n      tag_27\n      swap1\n      tag_28\n      jump\t// in\n    tag_27:\n      0x20\n      dup3\n      add\n      dup2\n      sub\n      dup3\n      mstore\n      not(0x1f)\n      0x1f\n      dup3\n      add\n      and\n      0x40\n      mstore\n      pop\n        /* \"contracts/Test14.sol\":1968:2016  bytes memory bytecode = type(Test2).creationCode */\n      swap1\n      pop\n        /* \"contracts/Test14.sol\":2080:2088  bytecode */\n      dup1\n        /* \"contracts/Test14.sol\":2101:2103  _x */\n      dup5\n        /* \"contracts/Test14.sol\":2105:2107  _y */\n      dup5\n        /* \"contracts/Test14.sol\":2090:2108  abi.encode(_x, _y) */\n      add(0x20, mload(0x40))\n      tag_29\n      swap3\n      swap2\n      swap1\n      tag_30\n      jump\t// in\n    tag_29:\n      mload(0x40)\n      0x20\n      dup2\n      dup4\n      sub\n      sub\n      dup2\n      mstore\n      swap1\n      0x40\n      mstore\n        /* \"contracts/Test14.sol\":2063:2109  abi.encodePacked(bytecode, abi.encode(_x, _y)) */\n      add(0x20, mload(0x40))\n      tag_31\n      swap3\n      swap2\n      swap1\n      tag_32\n      jump\t// in\n    tag_31:\n      mload(0x40)\n      0x20\n      dup2\n      dup4\n      sub\n      sub\n      dup2\n      mstore\n      swap1\n      0x40\n      mstore\n        /* \"contracts/Test14.sol\":2056:2109  return abi.encodePacked(bytecode, abi.encode(_x, _y)) */\n      swap2\n      pop\n      pop\n        /* \"contracts/Test14.sol\":1841:2117  function getBytescode2(uint256 _x, uint256 _y)... */\n      swap3\n      swap2\n      pop\n      pop\n      jump\t// out\n    tag_25:\n      dataSize(sub_0)\n      dup1\n      dataOffset(sub_0)\n      dup4\n      codecopy\n      add\n      swap1\n      jump\t// out\n    tag_28:\n      dataSize(sub_1)\n      dup1\n      dataOffset(sub_1)\n      dup4\n      codecopy\n      add\n      swap1\n      jump\t// out\n        /* \"#utility.yul\":88:205   */\n    tag_34:\n        /* \"#utility.yul\":197:198   */\n      0x00\n        /* \"#utility.yul\":194:195   */\n      dup1\n        /* \"#utility.yul\":187:199   */\n      revert\n        /* \"#utility.yul\":334:460   */\n    tag_36:\n        /* \"#utility.yul\":371:378   */\n      0x00\n        /* \"#utility.yul\":411:453   */\n      0xffffffffffffffffffffffffffffffffffffffff\n        /* \"#utility.yul\":404:409   */\n      dup3\n        /* \"#utility.yul\":400:454   */\n      and\n        /* \"#utility.yul\":389:454   */\n      swap1\n      pop\n        /* \"#utility.yul\":334:460   */\n      swap2\n      swap1\n      pop\n      jump\t// out\n        /* \"#utility.yul\":466:562   */\n    tag_37:\n        /* \"#utility.yul\":503:510   */\n      0x00\n        /* \"#utility.yul\":532:556   */\n      tag_58\n        /* \"#utility.yul\":550:555   */\n      dup3\n        /* \"#utility.yul\":532:556   */\n      tag_36\n      jump\t// in\n    tag_58:\n        /* \"#utility.yul\":521:556   */\n      swap1\n      pop\n        /* \"#utility.yul\":466:562   */\n      swap2\n      swap1\n      pop\n      jump\t// out\n        /* \"#utility.yul\":568:690   */\n    tag_38:\n        /* \"#utility.yul\":641:665   */\n      tag_60\n        /* \"#utility.yul\":659:664   */\n      dup2\n        /* \"#utility.yul\":641:665   */\n      tag_37\n      jump\t// in\n    tag_60:\n        /* \"#utility.yul\":634:639   */\n      dup2\n        /* \"#utility.yul\":631:666   */\n      eq\n        /* \"#utility.yul\":621:684   */\n      tag_61\n      jumpi\n        /* \"#utility.yul\":680:681   */\n      0x00\n        /* \"#utility.yul\":677:678   */\n      dup1\n        /* \"#utility.yul\":670:682   */\n      revert\n        /* \"#utility.yul\":621:684   */\n    tag_61:\n        /* \"#utility.yul\":568:690   */\n      pop\n      jump\t// out\n        /* \"#utility.yul\":696:835   */\n    tag_39:\n        /* \"#utility.yul\":742:747   */\n      0x00\n        /* \"#utility.yul\":780:786   */\n      dup2\n        /* \"#utility.yul\":767:787   */\n      calldataload\n        /* \"#utility.yul\":758:787   */\n      swap1\n      pop\n        /* \"#utility.yul\":796:829   */\n      tag_63\n        /* \"#utility.yul\":823:828   */\n      dup2\n        /* \"#utility.yul\":796:829   */\n      tag_38\n      jump\t// in\n    tag_63:\n        /* \"#utility.yul\":696:835   */\n      swap3\n      swap2\n      pop\n      pop\n      jump\t// out\n        /* \"#utility.yul\":841:1170   */\n    tag_8:\n        /* \"#utility.yul\":900:906   */\n      0x00\n        /* \"#utility.yul\":949:951   */\n      0x20\n        /* \"#utility.yul\":937:946   */\n      dup3\n        /* \"#utility.yul\":928:935   */\n      dup5\n        /* \"#utility.yul\":924:947   */\n      sub\n        /* \"#utility.yul\":920:952   */\n      slt\n        /* \"#utility.yul\":917:1036   */\n      iszero\n      tag_65\n      jumpi\n        /* \"#utility.yul\":955:1034   */\n      tag_66\n      tag_34\n      jump\t// in\n    tag_66:\n        /* \"#utility.yul\":917:1036   */\n    tag_65:\n        /* \"#utility.yul\":1075:1076   */\n      0x00\n        /* \"#utility.yul\":1100:1153   */\n      tag_67\n        /* \"#utility.yul\":1145:1152   */\n      dup5\n        /* \"#utility.yul\":1136:1142   */\n      dup3\n        /* \"#utility.yul\":1125:1134   */\n      dup6\n        /* \"#utility.yul\":1121:1143   */\n      add\n        /* \"#utility.yul\":1100:1153   */\n      tag_39\n      jump\t// in\n    tag_67:\n        /* \"#utility.yul\":1090:1153   */\n      swap2\n      pop\n        /* \"#utility.yul\":1046:1163   */\n      pop\n        /* \"#utility.yul\":841:1170   */\n      swap3\n      swap2\n      pop\n      pop\n      jump\t// out\n        /* \"#utility.yul\":1176:1274   */\n    tag_40:\n        /* \"#utility.yul\":1227:1233   */\n      0x00\n        /* \"#utility.yul\":1261:1266   */\n      dup2\n        /* \"#utility.yul\":1255:1267   */\n      mload\n        /* \"#utility.yul\":1245:1267   */\n      swap1\n      pop\n        /* \"#utility.yul\":1176:1274   */\n      swap2\n      swap1\n      pop\n      jump\t// out\n        /* \"#utility.yul\":1280:1448   */\n    tag_41:\n        /* \"#utility.yul\":1363:1374   */\n      0x00\n        /* \"#utility.yul\":1397:1403   */\n      dup3\n        /* \"#utility.yul\":1392:1395   */\n      dup3\n        /* \"#utility.yul\":1385:1404   */\n      mstore\n        /* \"#utility.yul\":1437:1441   */\n      0x20\n        /* \"#utility.yul\":1432:1435   */\n      dup3\n        /* \"#utility.yul\":1428:1442   */\n      add\n        /* \"#utility.yul\":1413:1442   */\n      swap1\n      pop\n        /* \"#utility.yul\":1280:1448   */\n      swap3\n      swap2\n      pop\n      pop\n      jump\t// out\n        /* \"#utility.yul\":1454:1700   */\n    tag_42:\n        /* \"#utility.yul\":1535:1536   */\n      0x00\n        /* \"#utility.yul\":1545:1658   */\n    tag_71:\n        /* \"#utility.yul\":1559:1565   */\n      dup4\n        /* \"#utility.yul\":1556:1557   */\n      dup2\n        /* \"#utility.yul\":1553:1566   */\n      lt\n        /* \"#utility.yul\":1545:1658   */\n      iszero\n      tag_73\n      jumpi\n        /* \"#utility.yul\":1644:1645   */\n      dup1\n        /* \"#utility.yul\":1639:1642   */\n      dup3\n        /* \"#utility.yul\":1635:1646   */\n      add\n        /* \"#utility.yul\":1629:1647   */\n      mload\n        /* \"#utility.yul\":1625:1626   */\n      dup2\n        /* \"#utility.yul\":1620:1623   */\n      dup5\n        /* \"#utility.yul\":1616:1627   */\n      add\n        /* \"#utility.yul\":1609:1648   */\n      mstore\n        /* \"#utility.yul\":1581:1583   */\n      0x20\n        /* \"#utility.yul\":1578:1579   */\n      dup2\n        /* \"#utility.yul\":1574:1584   */\n      add\n        /* \"#utility.yul\":1569:1584   */\n      swap1\n      pop\n        /* \"#utility.yul\":1545:1658   */\n      jump(tag_71)\n    tag_73:\n        /* \"#utility.yul\":1692:1693   */\n      0x00\n        /* \"#utility.yul\":1683:1689   */\n      dup5\n        /* \"#utility.yul\":1678:1681   */\n      dup5\n        /* \"#utility.yul\":1674:1690   */\n      add\n        /* \"#utility.yul\":1667:1694   */\n      mstore\n        /* \"#utility.yul\":1516:1700   */\n      pop\n        /* \"#utility.yul\":1454:1700   */\n      pop\n      pop\n      pop\n      jump\t// out\n        /* \"#utility.yul\":1706:1808   */\n    tag_43:\n        /* \"#utility.yul\":1747:1753   */\n      0x00\n        /* \"#utility.yul\":1798:1800   */\n      0x1f\n        /* \"#utility.yul\":1794:1801   */\n      not\n        /* \"#utility.yul\":1789:1791   */\n      0x1f\n        /* \"#utility.yul\":1782:1787   */\n      dup4\n        /* \"#utility.yul\":1778:1792   */\n      add\n        /* \"#utility.yul\":1774:1802   */\n      and\n        /* \"#utility.yul\":1764:1802   */\n      swap1\n      pop\n        /* \"#utility.yul\":1706:1808   */\n      swap2\n      swap1\n      pop\n      jump\t// out\n        /* \"#utility.yul\":1814:2187   */\n    tag_44:\n        /* \"#utility.yul\":1900:1903   */\n      0x00\n        /* \"#utility.yul\":1928:1966   */\n      tag_76\n        /* \"#utility.yul\":1960:1965   */\n      dup3\n        /* \"#utility.yul\":1928:1966   */\n      tag_40\n      jump\t// in\n    tag_76:\n        /* \"#utility.yul\":1982:2052   */\n      tag_77\n        /* \"#utility.yul\":2045:2051   */\n      dup2\n        /* \"#utility.yul\":2040:2043   */\n      dup6\n        /* \"#utility.yul\":1982:2052   */\n      tag_41\n      jump\t// in\n    tag_77:\n        /* \"#utility.yul\":1975:2052   */\n      swap4\n      pop\n        /* \"#utility.yul\":2061:2126   */\n      tag_78\n        /* \"#utility.yul\":2119:2125   */\n      dup2\n        /* \"#utility.yul\":2114:2117   */\n      dup6\n        /* \"#utility.yul\":2107:2111   */\n      0x20\n        /* \"#utility.yul\":2100:2105   */\n      dup7\n        /* \"#utility.yul\":2096:2112   */\n      add\n        /* \"#utility.yul\":2061:2126   */\n      tag_42\n      jump\t// in\n    tag_78:\n        /* \"#utility.yul\":2151:2180   */\n      tag_79\n        /* \"#utility.yul\":2173:2179   */\n      dup2\n        /* \"#utility.yul\":2151:2180   */\n      tag_43\n      jump\t// in\n    tag_79:\n        /* \"#utility.yul\":2146:2149   */\n      dup5\n        /* \"#utility.yul\":2142:2181   */\n      add\n        /* \"#utility.yul\":2135:2181   */\n      swap2\n      pop\n        /* \"#utility.yul\":1904:2187   */\n      pop\n        /* \"#utility.yul\":1814:2187   */\n      swap3\n      swap2\n      pop\n      pop\n      jump\t// out\n        /* \"#utility.yul\":2193:2502   */\n    tag_11:\n        /* \"#utility.yul\":2304:2308   */\n      0x00\n        /* \"#utility.yul\":2342:2344   */\n      0x20\n        /* \"#utility.yul\":2331:2340   */\n      dup3\n        /* \"#utility.yul\":2327:2345   */\n      add\n        /* \"#utility.yul\":2319:2345   */\n      swap1\n      pop\n        /* \"#utility.yul\":2391:2400   */\n      dup2\n        /* \"#utility.yul\":2385:2389   */\n      dup2\n        /* \"#utility.yul\":2381:2401   */\n      sub\n        /* \"#utility.yul\":2377:2378   */\n      0x00\n        /* \"#utility.yul\":2366:2375   */\n      dup4\n        /* \"#utility.yul\":2362:2379   */\n      add\n        /* \"#utility.yul\":2355:2402   */\n      mstore\n        /* \"#utility.yul\":2419:2495   */\n      tag_81\n        /* \"#utility.yul\":2490:2494   */\n      dup2\n        /* \"#utility.yul\":2481:2487   */\n      dup5\n        /* \"#utility.yul\":2419:2495   */\n      tag_44\n      jump\t// in\n    tag_81:\n        /* \"#utility.yul\":2411:2495   */\n      swap1\n      pop\n        /* \"#utility.yul\":2193:2502   */\n      swap3\n      swap2\n      pop\n      pop\n      jump\t// out\n        /* \"#utility.yul\":2508:2585   */\n    tag_45:\n        /* \"#utility.yul\":2545:2552   */\n      0x00\n        /* \"#utility.yul\":2574:2579   */\n      dup2\n        /* \"#utility.yul\":2563:2579   */\n      swap1\n      pop\n        /* \"#utility.yul\":2508:2585   */\n      swap2\n      swap1\n      pop\n      jump\t// out\n        /* \"#utility.yul\":2591:2713   */\n    tag_46:\n        /* \"#utility.yul\":2664:2688   */\n      tag_84\n        /* \"#utility.yul\":2682:2687   */\n      dup2\n        /* \"#utility.yul\":2664:2688   */\n      tag_45\n      jump\t// in\n    tag_84:\n        /* \"#utility.yul\":2657:2662   */\n      dup2\n        /* \"#utility.yul\":2654:2689   */\n      eq\n        /* \"#utility.yul\":2644:2707   */\n      tag_85\n      jumpi\n        /* \"#utility.yul\":2703:2704   */\n      0x00\n        /* \"#utility.yul\":2700:2701   */\n      dup1\n        /* \"#utility.yul\":2693:2705   */\n      revert\n        /* \"#utility.yul\":2644:2707   */\n    tag_85:\n        /* \"#utility.yul\":2591:2713   */\n      pop\n      jump\t// out\n        /* \"#utility.yul\":2719:2858   */\n    tag_47:\n        /* \"#utility.yul\":2765:2770   */\n      0x00\n        /* \"#utility.yul\":2803:2809   */\n      dup2\n        /* \"#utility.yul\":2790:2810   */\n      calldataload\n        /* \"#utility.yul\":2781:2810   */\n      swap1\n      pop\n        /* \"#utility.yul\":2819:2852   */\n      tag_87\n        /* \"#utility.yul\":2846:2851   */\n      dup2\n        /* \"#utility.yul\":2819:2852   */\n      tag_46\n      jump\t// in\n    tag_87:\n        /* \"#utility.yul\":2719:2858   */\n      swap3\n      swap2\n      pop\n      pop\n      jump\t// out\n        /* \"#utility.yul\":2864:3338   */\n    tag_17:\n        /* \"#utility.yul\":2932:2938   */\n      0x00\n        /* \"#utility.yul\":2940:2946   */\n      dup1\n        /* \"#utility.yul\":2989:2991   */\n      0x40\n        /* \"#utility.yul\":2977:2986   */\n      dup4\n        /* \"#utility.yul\":2968:2975   */\n      dup6\n        /* \"#utility.yul\":2964:2987   */\n      sub\n        /* \"#utility.yul\":2960:2992   */\n      slt\n        /* \"#utility.yul\":2957:3076   */\n      iszero\n      tag_89\n      jumpi\n        /* \"#utility.yul\":2995:3074   */\n      tag_90\n      tag_34\n      jump\t// in\n    tag_90:\n        /* \"#utility.yul\":2957:3076   */\n    tag_89:\n        /* \"#utility.yul\":3115:3116   */\n      0x00\n        /* \"#utility.yul\":3140:3193   */\n      tag_91\n        /* \"#utility.yul\":3185:3192   */\n      dup6\n        /* \"#utility.yul\":3176:3182   */\n      dup3\n        /* \"#utility.yul\":3165:3174   */\n      dup7\n        /* \"#utility.yul\":3161:3183   */\n      add\n        /* \"#utility.yul\":3140:3193   */\n      tag_47\n      jump\t// in\n    tag_91:\n        /* \"#utility.yul\":3130:3193   */\n      swap3\n      pop\n        /* \"#utility.yul\":3086:3203   */\n      pop\n        /* \"#utility.yul\":3242:3244   */\n      0x20\n        /* \"#utility.yul\":3268:3321   */\n      tag_92\n        /* \"#utility.yul\":3313:3320   */\n      dup6\n        /* \"#utility.yul\":3304:3310   */\n      dup3\n        /* \"#utility.yul\":3293:3302   */\n      dup7\n        /* \"#utility.yul\":3289:3311   */\n      add\n        /* \"#utility.yul\":3268:3321   */\n      tag_47\n      jump\t// in\n    tag_92:\n        /* \"#utility.yul\":3258:3321   */\n      swap2\n      pop\n        /* \"#utility.yul\":3213:3331   */\n      pop\n        /* \"#utility.yul\":2864:3338   */\n      swap3\n      pop\n      swap3\n      swap1\n      pop\n      jump\t// out\n        /* \"#utility.yul\":3344:3462   */\n    tag_48:\n        /* \"#utility.yul\":3431:3455   */\n      tag_94\n        /* \"#utility.yul\":3449:3454   */\n      dup2\n        /* \"#utility.yul\":3431:3455   */\n      tag_37\n      jump\t// in\n    tag_94:\n        /* \"#utility.yul\":3426:3429   */\n      dup3\n        /* \"#utility.yul\":3419:3456   */\n      mstore\n        /* \"#utility.yul\":3344:3462   */\n      pop\n      pop\n      jump\t// out\n        /* \"#utility.yul\":3468:3690   */\n    tag_22:\n        /* \"#utility.yul\":3561:3565   */\n      0x00\n        /* \"#utility.yul\":3599:3601   */\n      0x20\n        /* \"#utility.yul\":3588:3597   */\n      dup3\n        /* \"#utility.yul\":3584:3602   */\n      add\n        /* \"#utility.yul\":3576:3602   */\n      swap1\n      pop\n        /* \"#utility.yul\":3612:3683   */\n      tag_96\n        /* \"#utility.yul\":3680:3681   */\n      0x00\n        /* \"#utility.yul\":3669:3678   */\n      dup4\n        /* \"#utility.yul\":3665:3682   */\n      add\n        /* \"#utility.yul\":3656:3662   */\n      dup5\n        /* \"#utility.yul\":3612:3683   */\n      tag_48\n      jump\t// in\n    tag_96:\n        /* \"#utility.yul\":3468:3690   */\n      swap3\n      swap2\n      pop\n      pop\n      jump\t// out\n        /* \"#utility.yul\":3696:3814   */\n    tag_49:\n        /* \"#utility.yul\":3783:3807   */\n      tag_98\n        /* \"#utility.yul\":3801:3806   */\n      dup2\n        /* \"#utility.yul\":3783:3807   */\n      tag_45\n      jump\t// in\n    tag_98:\n        /* \"#utility.yul\":3778:3781   */\n      dup3\n        /* \"#utility.yul\":3771:3808   */\n      mstore\n        /* \"#utility.yul\":3696:3814   */\n      pop\n      pop\n      jump\t// out\n        /* \"#utility.yul\":3820:4152   */\n    tag_30:\n        /* \"#utility.yul\":3941:3945   */\n      0x00\n        /* \"#utility.yul\":3979:3981   */\n      0x40\n        /* \"#utility.yul\":3968:3977   */\n      dup3\n        /* \"#utility.yul\":3964:3982   */\n      add\n        /* \"#utility.yul\":3956:3982   */\n      swap1\n      pop\n        /* \"#utility.yul\":3992:4063   */\n      tag_100\n        /* \"#utility.yul\":4060:4061   */\n      0x00\n        /* \"#utility.yul\":4049:4058   */\n      dup4\n        /* \"#utility.yul\":4045:4062   */\n      add\n        /* \"#utility.yul\":4036:4042   */\n      dup6\n        /* \"#utility.yul\":3992:4063   */\n      tag_49\n      jump\t// in\n    tag_100:\n        /* \"#utility.yul\":4073:4145   */\n      tag_101\n        /* \"#utility.yul\":4141:4143   */\n      0x20\n        /* \"#utility.yul\":4130:4139   */\n      dup4\n        /* \"#utility.yul\":4126:4144   */\n      add\n        /* \"#utility.yul\":4117:4123   */\n      dup5\n        /* \"#utility.yul\":4073:4145   */\n      tag_49\n      jump\t// in\n    tag_101:\n        /* \"#utility.yul\":3820:4152   */\n      swap4\n      swap3\n      pop\n      pop\n      pop\n      jump\t// out\n        /* \"#utility.yul\":4158:4305   */\n    tag_50:\n        /* \"#utility.yul\":4259:4270   */\n      0x00\n        /* \"#utility.yul\":4296:4299   */\n      dup2\n        /* \"#utility.yul\":4281:4299   */\n      swap1\n      pop\n        /* \"#utility.yul\":4158:4305   */\n      swap3\n      swap2\n      pop\n      pop\n      jump\t// out\n        /* \"#utility.yul\":4311:4697   */\n    tag_51:\n        /* \"#utility.yul\":4415:4418   */\n      0x00\n        /* \"#utility.yul\":4443:4481   */\n      tag_104\n        /* \"#utility.yul\":4475:4480   */\n      dup3\n        /* \"#utility.yul\":4443:4481   */\n      tag_40\n      jump\t// in\n    tag_104:\n        /* \"#utility.yul\":4497:4585   */\n      tag_105\n        /* \"#utility.yul\":4578:4584   */\n      dup2\n        /* \"#utility.yul\":4573:4576   */\n      dup6\n        /* \"#utility.yul\":4497:4585   */\n      tag_50\n      jump\t// in\n    tag_105:\n        /* \"#utility.yul\":4490:4585   */\n      swap4\n      pop\n        /* \"#utility.yul\":4594:4659   */\n      tag_106\n        /* \"#utility.yul\":4652:4658   */\n      dup2\n        /* \"#utility.yul\":4647:4650   */\n      dup6\n        /* \"#utility.yul\":4640:4644   */\n      0x20\n        /* \"#utility.yul\":4633:4638   */\n      dup7\n        /* \"#utility.yul\":4629:4645   */\n      add\n        /* \"#utility.yul\":4594:4659   */\n      tag_42\n      jump\t// in\n    tag_106:\n        /* \"#utility.yul\":4684:4690   */\n      dup1\n        /* \"#utility.yul\":4679:4682   */\n      dup5\n        /* \"#utility.yul\":4675:4691   */\n      add\n        /* \"#utility.yul\":4668:4691   */\n      swap2\n      pop\n        /* \"#utility.yul\":4419:4697   */\n      pop\n        /* \"#utility.yul\":4311:4697   */\n      swap3\n      swap2\n      pop\n      pop\n      jump\t// out\n        /* \"#utility.yul\":4703:5130   */\n    tag_32:\n        /* \"#utility.yul\":4879:4882   */\n      0x00\n        /* \"#utility.yul\":4901:4994   */\n      tag_108\n        /* \"#utility.yul\":4990:4993   */\n      dup3\n        /* \"#utility.yul\":4981:4987   */\n      dup6\n        /* \"#utility.yul\":4901:4994   */\n      tag_51\n      jump\t// in\n    tag_108:\n        /* \"#utility.yul\":4894:4994   */\n      swap2\n      pop\n        /* \"#utility.yul\":5011:5104   */\n      tag_109\n        /* \"#utility.yul\":5100:5103   */\n      dup3\n        /* \"#utility.yul\":5091:5097   */\n      dup5\n        /* \"#utility.yul\":5011:5104   */\n      tag_51\n      jump\t// in\n    tag_109:\n        /* \"#utility.yul\":5004:5104   */\n      swap2\n      pop\n        /* \"#utility.yul\":5121:5124   */\n      dup2\n        /* \"#utility.yul\":5114:5124   */\n      swap1\n      pop\n        /* \"#utility.yul\":4703:5130   */\n      swap4\n      swap3\n      pop\n      pop\n      pop\n      jump\t// out\n    stop\n\n    sub_0: assembly {\n            /* \"contracts/Test14.sol\":61:254  contract Test1 {... */\n          mstore(0x40, 0x80)\n            /* \"contracts/Test14.sol\":106:116  msg.sender */\n          caller\n            /* \"contracts/Test14.sol\":83:116  address public owner = msg.sender */\n          0x00\n          dup1\n          0x0100\n          exp\n          dup2\n          sload\n          dup2\n          0xffffffffffffffffffffffffffffffffffffffff\n          mul\n          not\n          and\n          swap1\n          dup4\n          0xffffffffffffffffffffffffffffffffffffffff\n          and\n          mul\n          or\n          swap1\n          sstore\n          pop\n            /* \"contracts/Test14.sol\":61:254  contract Test1 {... */\n          callvalue\n          dup1\n          iszero\n          tag_1\n          jumpi\n          0x00\n          dup1\n          revert\n        tag_1:\n          pop\n          dataSize(sub_0)\n          dup1\n          dataOffset(sub_0)\n          0x00\n          codecopy\n          0x00\n          return\n        stop\n\n        sub_0: assembly {\n                /* \"contracts/Test14.sol\":61:254  contract Test1 {... */\n              mstore(0x40, 0x80)\n              callvalue\n              dup1\n              iszero\n              tag_1\n              jumpi\n              0x00\n              dup1\n              revert\n            tag_1:\n              pop\n              jumpi(tag_2, lt(calldatasize, 0x04))\n              shr(0xe0, calldataload(0x00))\n              dup1\n              0x13af4035\n              eq\n              tag_3\n              jumpi\n              dup1\n              0x8da5cb5b\n              eq\n              tag_4\n              jumpi\n            tag_2:\n              0x00\n              dup1\n              revert\n                /* \"contracts/Test14.sol\":125:251  function setOwner(address _owner) public {... */\n            tag_3:\n              tag_5\n              0x04\n              dup1\n              calldatasize\n              sub\n              dup2\n              add\n              swap1\n              tag_6\n              swap2\n              swap1\n              tag_7\n              jump\t// in\n            tag_6:\n              tag_8\n              jump\t// in\n            tag_5:\n              stop\n                /* \"contracts/Test14.sol\":83:116  address public owner = msg.sender */\n            tag_4:\n              tag_9\n              tag_10\n              jump\t// in\n            tag_9:\n              mload(0x40)\n              tag_11\n              swap2\n              swap1\n              tag_12\n              jump\t// in\n            tag_11:\n              mload(0x40)\n              dup1\n              swap2\n              sub\n              swap1\n              return\n                /* \"contracts/Test14.sol\":125:251  function setOwner(address _owner) public {... */\n            tag_8:\n                /* \"contracts/Test14.sol\":199:204  owner */\n              0x00\n              dup1\n              sload\n              swap1\n              0x0100\n              exp\n              swap1\n              div\n              0xffffffffffffffffffffffffffffffffffffffff\n              and\n                /* \"contracts/Test14.sol\":185:204  msg.sender == owner */\n              0xffffffffffffffffffffffffffffffffffffffff\n              and\n                /* \"contracts/Test14.sol\":185:195  msg.sender */\n              caller\n                /* \"contracts/Test14.sol\":185:204  msg.sender == owner */\n              0xffffffffffffffffffffffffffffffffffffffff\n              and\n              eq\n                /* \"contracts/Test14.sol\":177:218  require(msg.sender == owner, \"now owner\") */\n              tag_14\n              jumpi\n              mload(0x40)\n              0x08c379a000000000000000000000000000000000000000000000000000000000\n              dup2\n              mstore\n              0x04\n              add\n              tag_15\n              swap1\n              tag_16\n              jump\t// in\n            tag_15:\n              mload(0x40)\n              dup1\n              swap2\n              sub\n              swap1\n              revert\n            tag_14:\n                /* \"contracts/Test14.sol\":237:243  _owner */\n              dup1\n                /* \"contracts/Test14.sol\":229:234  owner */\n              0x00\n              dup1\n                /* \"contracts/Test14.sol\":229:243  owner = _owner */\n              0x0100\n              exp\n              dup2\n              sload\n              dup2\n              0xffffffffffffffffffffffffffffffffffffffff\n              mul\n              not\n              and\n              swap1\n              dup4\n              0xffffffffffffffffffffffffffffffffffffffff\n              and\n              mul\n              or\n              swap1\n              sstore\n              pop\n                /* \"contracts/Test14.sol\":125:251  function setOwner(address _owner) public {... */\n              pop\n              jump\t// out\n                /* \"contracts/Test14.sol\":83:116  address public owner = msg.sender */\n            tag_10:\n              0x00\n              dup1\n              sload\n              swap1\n              0x0100\n              exp\n              swap1\n              div\n              0xffffffffffffffffffffffffffffffffffffffff\n              and\n              dup2\n              jump\t// out\n                /* \"#utility.yul\":88:205   */\n            tag_18:\n                /* \"#utility.yul\":197:198   */\n              0x00\n                /* \"#utility.yul\":194:195   */\n              dup1\n                /* \"#utility.yul\":187:199   */\n              revert\n                /* \"#utility.yul\":334:460   */\n            tag_20:\n                /* \"#utility.yul\":371:378   */\n              0x00\n                /* \"#utility.yul\":411:453   */\n              0xffffffffffffffffffffffffffffffffffffffff\n                /* \"#utility.yul\":404:409   */\n              dup3\n                /* \"#utility.yul\":400:454   */\n              and\n                /* \"#utility.yul\":389:454   */\n              swap1\n              pop\n                /* \"#utility.yul\":334:460   */\n              swap2\n              swap1\n              pop\n              jump\t// out\n                /* \"#utility.yul\":466:562   */\n            tag_21:\n                /* \"#utility.yul\":503:510   */\n              0x00\n                /* \"#utility.yul\":532:556   */\n              tag_34\n                /* \"#utility.yul\":550:555   */\n              dup3\n                /* \"#utility.yul\":532:556   */\n              tag_20\n              jump\t// in\n            tag_34:\n                /* \"#utility.yul\":521:556   */\n              swap1\n              pop\n                /* \"#utility.yul\":466:562   */\n              swap2\n              swap1\n              pop\n              jump\t// out\n                /* \"#utility.yul\":568:690   */\n            tag_22:\n                /* \"#utility.yul\":641:665   */\n              tag_36\n                /* \"#utility.yul\":659:664   */\n              dup2\n                /* \"#utility.yul\":641:665   */\n              tag_21\n              jump\t// in\n            tag_36:\n                /* \"#utility.yul\":634:639   */\n              dup2\n                /* \"#utility.yul\":631:666   */\n              eq\n                /* \"#utility.yul\":621:684   */\n              tag_37\n              jumpi\n                /* \"#utility.yul\":680:681   */\n              0x00\n                /* \"#utility.yul\":677:678   */\n              dup1\n                /* \"#utility.yul\":670:682   */\n              revert\n                /* \"#utility.yul\":621:684   */\n            tag_37:\n                /* \"#utility.yul\":568:690   */\n              pop\n              jump\t// out\n                /* \"#utility.yul\":696:835   */\n            tag_23:\n                /* \"#utility.yul\":742:747   */\n              0x00\n                /* \"#utility.yul\":780:786   */\n              dup2\n                /* \"#utility.yul\":767:787   */\n              calldataload\n                /* \"#utility.yul\":758:787   */\n              swap1\n              pop\n                /* \"#utility.yul\":796:829   */\n              tag_39\n                /* \"#utility.yul\":823:828   */\n              dup2\n                /* \"#utility.yul\":796:829   */\n              tag_22\n              jump\t// in\n            tag_39:\n                /* \"#utility.yul\":696:835   */\n              swap3\n              swap2\n              pop\n              pop\n              jump\t// out\n                /* \"#utility.yul\":841:1170   */\n            tag_7:\n                /* \"#utility.yul\":900:906   */\n              0x00\n                /* \"#utility.yul\":949:951   */\n              0x20\n                /* \"#utility.yul\":937:946   */\n              dup3\n                /* \"#utility.yul\":928:935   */\n              dup5\n                /* \"#utility.yul\":924:947   */\n              sub\n                /* \"#utility.yul\":920:952   */\n              slt\n                /* \"#utility.yul\":917:1036   */\n              iszero\n              tag_41\n              jumpi\n                /* \"#utility.yul\":955:1034   */\n              tag_42\n              tag_18\n              jump\t// in\n            tag_42:\n                /* \"#utility.yul\":917:1036   */\n            tag_41:\n                /* \"#utility.yul\":1075:1076   */\n              0x00\n                /* \"#utility.yul\":1100:1153   */\n              tag_43\n                /* \"#utility.yul\":1145:1152   */\n              dup5\n                /* \"#utility.yul\":1136:1142   */\n              dup3\n                /* \"#utility.yul\":1125:1134   */\n              dup6\n                /* \"#utility.yul\":1121:1143   */\n              add\n                /* \"#utility.yul\":1100:1153   */\n              tag_23\n              jump\t// in\n            tag_43:\n                /* \"#utility.yul\":1090:1153   */\n              swap2\n              pop\n                /* \"#utility.yul\":1046:1163   */\n              pop\n                /* \"#utility.yul\":841:1170   */\n              swap3\n              swap2\n              pop\n              pop\n              jump\t// out\n                /* \"#utility.yul\":1176:1294   */\n            tag_24:\n                /* \"#utility.yul\":1263:1287   */\n              tag_45\n                /* \"#utility.yul\":1281:1286   */\n              dup2\n                /* \"#utility.yul\":1263:1287   */\n              tag_21\n              jump\t// in\n            tag_45:\n                /* \"#utility.yul\":1258:1261   */\n              dup3\n                /* \"#utility.yul\":1251:1288   */\n              mstore\n                /* \"#utility.yul\":1176:1294   */\n              pop\n              pop\n              jump\t// out\n                /* \"#utility.yul\":1300:1522   */\n            tag_12:\n                /* \"#utility.yul\":1393:1397   */\n              0x00\n                /* \"#utility.yul\":1431:1433   */\n              0x20\n                /* \"#utility.yul\":1420:1429   */\n              dup3\n                /* \"#utility.yul\":1416:1434   */\n              add\n                /* \"#utility.yul\":1408:1434   */\n              swap1\n              pop\n                /* \"#utility.yul\":1444:1515   */\n              tag_47\n                /* \"#utility.yul\":1512:1513   */\n              0x00\n                /* \"#utility.yul\":1501:1510   */\n              dup4\n                /* \"#utility.yul\":1497:1514   */\n              add\n                /* \"#utility.yul\":1488:1494   */\n              dup5\n                /* \"#utility.yul\":1444:1515   */\n              tag_24\n              jump\t// in\n            tag_47:\n                /* \"#utility.yul\":1300:1522   */\n              swap3\n              swap2\n              pop\n              pop\n              jump\t// out\n                /* \"#utility.yul\":1528:1697   */\n            tag_25:\n                /* \"#utility.yul\":1612:1623   */\n              0x00\n                /* \"#utility.yul\":1646:1652   */\n              dup3\n                /* \"#utility.yul\":1641:1644   */\n              dup3\n                /* \"#utility.yul\":1634:1653   */\n              mstore\n                /* \"#utility.yul\":1686:1690   */\n              0x20\n                /* \"#utility.yul\":1681:1684   */\n              dup3\n                /* \"#utility.yul\":1677:1691   */\n              add\n                /* \"#utility.yul\":1662:1691   */\n              swap1\n              pop\n                /* \"#utility.yul\":1528:1697   */\n              swap3\n              swap2\n              pop\n              pop\n              jump\t// out\n                /* \"#utility.yul\":1703:1862   */\n            tag_26:\n                /* \"#utility.yul\":1843:1854   */\n              0x6e6f77206f776e65720000000000000000000000000000000000000000000000\n                /* \"#utility.yul\":1839:1840   */\n              0x00\n                /* \"#utility.yul\":1831:1837   */\n              dup3\n                /* \"#utility.yul\":1827:1841   */\n              add\n                /* \"#utility.yul\":1820:1855   */\n              mstore\n                /* \"#utility.yul\":1703:1862   */\n              pop\n              jump\t// out\n                /* \"#utility.yul\":1868:2233   */\n            tag_27:\n                /* \"#utility.yul\":2010:2013   */\n              0x00\n                /* \"#utility.yul\":2031:2097   */\n              tag_51\n                /* \"#utility.yul\":2095:2096   */\n              0x09\n                /* \"#utility.yul\":2090:2093   */\n              dup4\n                /* \"#utility.yul\":2031:2097   */\n              tag_25\n              jump\t// in\n            tag_51:\n                /* \"#utility.yul\":2024:2097   */\n              swap2\n              pop\n                /* \"#utility.yul\":2106:2199   */\n              tag_52\n                /* \"#utility.yul\":2195:2198   */\n              dup3\n                /* \"#utility.yul\":2106:2199   */\n              tag_26\n              jump\t// in\n            tag_52:\n                /* \"#utility.yul\":2224:2226   */\n              0x20\n                /* \"#utility.yul\":2219:2222   */\n              dup3\n                /* \"#utility.yul\":2215:2227   */\n              add\n                /* \"#utility.yul\":2208:2227   */\n              swap1\n              pop\n                /* \"#utility.yul\":1868:2233   */\n              swap2\n              swap1\n              pop\n              jump\t// out\n                /* \"#utility.yul\":2239:2658   */\n            tag_16:\n                /* \"#utility.yul\":2405:2409   */\n              0x00\n                /* \"#utility.yul\":2443:2445   */\n              0x20\n                /* \"#utility.yul\":2432:2441   */\n              dup3\n                /* \"#utility.yul\":2428:2446   */\n              add\n                /* \"#utility.yul\":2420:2446   */\n              swap1\n              pop\n                /* \"#utility.yul\":2492:2501   */\n              dup2\n                /* \"#utility.yul\":2486:2490   */\n              dup2\n                /* \"#utility.yul\":2482:2502   */\n              sub\n                /* \"#utility.yul\":2478:2479   */\n              0x00\n                /* \"#utility.yul\":2467:2476   */\n              dup4\n                /* \"#utility.yul\":2463:2480   */\n              add\n                /* \"#utility.yul\":2456:2503   */\n              mstore\n                /* \"#utility.yul\":2520:2651   */\n              tag_54\n                /* \"#utility.yul\":2646:2650   */\n              dup2\n                /* \"#utility.yul\":2520:2651   */\n              tag_27\n              jump\t// in\n            tag_54:\n                /* \"#utility.yul\":2512:2651   */\n              swap1\n              pop\n                /* \"#utility.yul\":2239:2658   */\n              swap2\n              swap1\n              pop\n              jump\t// out\n\n            auxdata: 0xa2646970667358221220102759a8aac943f7bbd2ac627af7c9c7489763be3569bc832e20338494849d2e64736f6c63430008160033\n        }\n    }\n\n    sub_1: assembly {\n            /* \"contracts/Test14.sol\":258:488  contract Test2 {... */\n          mstore(0x40, 0x80)\n            /* \"contracts/Test14.sol\":303:313  msg.sender */\n          caller\n            /* \"contracts/Test14.sol\":280:313  address public owner = msg.sender */\n          0x00\n          dup1\n          0x0100\n          exp\n          dup2\n          sload\n          dup2\n          0xffffffffffffffffffffffffffffffffffffffff\n          mul\n          not\n          and\n          swap1\n          dup4\n          0xffffffffffffffffffffffffffffffffffffffff\n          and\n          mul\n          or\n          swap1\n          sstore\n          pop\n            /* \"contracts/Test14.sol\":343:352  msg.value */\n          callvalue\n            /* \"contracts/Test14.sol\":320:352  uint256 public value = msg.value */\n          0x01\n          sstore\n            /* \"contracts/Test14.sol\":407:485  constructor(uint256 _x, uint256 _y) {... */\n          callvalue\n          dup1\n          iszero\n          tag_1\n          jumpi\n          0x00\n          dup1\n          revert\n        tag_1:\n          pop\n          mload(0x40)\n          sub(codesize, bytecodeSize)\n          dup1\n          bytecodeSize\n          dup4\n          codecopy\n          dup2\n          dup2\n          add\n          0x40\n          mstore\n          dup2\n          add\n          swap1\n          tag_2\n          swap2\n          swap1\n          tag_3\n          jump\t// in\n        tag_2:\n            /* \"contracts/Test14.sol\":458:460  _x */\n          dup2\n            /* \"contracts/Test14.sol\":454:455  x */\n          0x02\n            /* \"contracts/Test14.sol\":454:460  x = _x */\n          dup2\n          swap1\n          sstore\n          pop\n            /* \"contracts/Test14.sol\":475:477  _y */\n          dup1\n            /* \"contracts/Test14.sol\":471:472  y */\n          0x03\n            /* \"contracts/Test14.sol\":471:477  y = _y */\n          dup2\n          swap1\n          sstore\n          pop\n            /* \"contracts/Test14.sol\":407:485  constructor(uint256 _x, uint256 _y) {... */\n          pop\n          pop\n            /* \"contracts/Test14.sol\":258:488  contract Test2 {... */\n          jump(tag_6)\n            /* \"#utility.yul\":88:205   */\n        tag_8:\n            /* \"#utility.yul\":197:198   */\n          0x00\n            /* \"#utility.yul\":194:195   */\n          dup1\n            /* \"#utility.yul\":187:199   */\n          revert\n            /* \"#utility.yul\":334:411   */\n        tag_10:\n            /* \"#utility.yul\":371:378   */\n          0x00\n            /* \"#utility.yul\":400:405   */\n          dup2\n            /* \"#utility.yul\":389:405   */\n          swap1\n          pop\n            /* \"#utility.yul\":334:411   */\n          swap2\n          swap1\n          pop\n          jump\t// out\n            /* \"#utility.yul\":417:539   */\n        tag_11:\n            /* \"#utility.yul\":490:514   */\n          tag_19\n            /* \"#utility.yul\":508:513   */\n          dup2\n            /* \"#utility.yul\":490:514   */\n          tag_10\n          jump\t// in\n        tag_19:\n            /* \"#utility.yul\":483:488   */\n          dup2\n            /* \"#utility.yul\":480:515   */\n          eq\n            /* \"#utility.yul\":470:533   */\n          tag_20\n          jumpi\n            /* \"#utility.yul\":529:530   */\n          0x00\n            /* \"#utility.yul\":526:527   */\n          dup1\n            /* \"#utility.yul\":519:531   */\n          revert\n            /* \"#utility.yul\":470:533   */\n        tag_20:\n            /* \"#utility.yul\":417:539   */\n          pop\n          jump\t// out\n            /* \"#utility.yul\":545:688   */\n        tag_12:\n            /* \"#utility.yul\":602:607   */\n          0x00\n            /* \"#utility.yul\":633:639   */\n          dup2\n            /* \"#utility.yul\":627:640   */\n          mload\n            /* \"#utility.yul\":618:640   */\n          swap1\n          pop\n            /* \"#utility.yul\":649:682   */\n          tag_22\n            /* \"#utility.yul\":676:681   */\n          dup2\n            /* \"#utility.yul\":649:682   */\n          tag_11\n          jump\t// in\n        tag_22:\n            /* \"#utility.yul\":545:688   */\n          swap3\n          swap2\n          pop\n          pop\n          jump\t// out\n            /* \"#utility.yul\":694:1201   */\n        tag_3:\n            /* \"#utility.yul\":773:779   */\n          0x00\n            /* \"#utility.yul\":781:787   */\n          dup1\n            /* \"#utility.yul\":830:832   */\n          0x40\n            /* \"#utility.yul\":818:827   */\n          dup4\n            /* \"#utility.yul\":809:816   */\n          dup6\n            /* \"#utility.yul\":805:828   */\n          sub\n            /* \"#utility.yul\":801:833   */\n          slt\n            /* \"#utility.yul\":798:917   */\n          iszero\n          tag_24\n          jumpi\n            /* \"#utility.yul\":836:915   */\n          tag_25\n          tag_8\n          jump\t// in\n        tag_25:\n            /* \"#utility.yul\":798:917   */\n        tag_24:\n            /* \"#utility.yul\":956:957   */\n          0x00\n            /* \"#utility.yul\":981:1045   */\n          tag_26\n            /* \"#utility.yul\":1037:1044   */\n          dup6\n            /* \"#utility.yul\":1028:1034   */\n          dup3\n            /* \"#utility.yul\":1017:1026   */\n          dup7\n            /* \"#utility.yul\":1013:1035   */\n          add\n            /* \"#utility.yul\":981:1045   */\n          tag_12\n          jump\t// in\n        tag_26:\n            /* \"#utility.yul\":971:1045   */\n          swap3\n          pop\n            /* \"#utility.yul\":927:1055   */\n          pop\n            /* \"#utility.yul\":1094:1096   */\n          0x20\n            /* \"#utility.yul\":1120:1184   */\n          tag_27\n            /* \"#utility.yul\":1176:1183   */\n          dup6\n            /* \"#utility.yul\":1167:1173   */\n          dup3\n            /* \"#utility.yul\":1156:1165   */\n          dup7\n            /* \"#utility.yul\":1152:1174   */\n          add\n            /* \"#utility.yul\":1120:1184   */\n          tag_12\n          jump\t// in\n        tag_27:\n            /* \"#utility.yul\":1110:1184   */\n          swap2\n          pop\n            /* \"#utility.yul\":1065:1194   */\n          pop\n            /* \"#utility.yul\":694:1201   */\n          swap3\n          pop\n          swap3\n          swap1\n          pop\n          jump\t// out\n            /* \"contracts/Test14.sol\":258:488  contract Test2 {... */\n        tag_6:\n          dataSize(sub_0)\n          dup1\n          dataOffset(sub_0)\n          0x00\n          codecopy\n          0x00\n          return\n        stop\n\n        sub_0: assembly {\n                /* \"contracts/Test14.sol\":258:488  contract Test2 {... */\n              mstore(0x40, 0x80)\n              callvalue\n              dup1\n              iszero\n              tag_1\n              jumpi\n              0x00\n              dup1\n              revert\n            tag_1:\n              pop\n              jumpi(tag_2, lt(calldatasize, 0x04))\n              shr(0xe0, calldataload(0x00))\n              dup1\n              0x0c55699c\n              eq\n              tag_3\n              jumpi\n              dup1\n              0x3fa4f245\n              eq\n              tag_4\n              jumpi\n              dup1\n              0x8da5cb5b\n              eq\n              tag_5\n              jumpi\n              dup1\n              0xa56dfe4a\n              eq\n              tag_6\n              jumpi\n            tag_2:\n              0x00\n              dup1\n              revert\n                /* \"contracts/Test14.sol\":359:375  uint256 public x */\n            tag_3:\n              tag_7\n              tag_8\n              jump\t// in\n            tag_7:\n              mload(0x40)\n              tag_9\n              swap2\n              swap1\n              tag_10\n              jump\t// in\n            tag_9:\n              mload(0x40)\n              dup1\n              swap2\n              sub\n              swap1\n              return\n                /* \"contracts/Test14.sol\":320:352  uint256 public value = msg.value */\n            tag_4:\n              tag_11\n              tag_12\n              jump\t// in\n            tag_11:\n              mload(0x40)\n              tag_13\n              swap2\n              swap1\n              tag_10\n              jump\t// in\n            tag_13:\n              mload(0x40)\n              dup1\n              swap2\n              sub\n              swap1\n              return\n                /* \"contracts/Test14.sol\":280:313  address public owner = msg.sender */\n            tag_5:\n              tag_14\n              tag_15\n              jump\t// in\n            tag_14:\n              mload(0x40)\n              tag_16\n              swap2\n              swap1\n              tag_17\n              jump\t// in\n            tag_16:\n              mload(0x40)\n              dup1\n              swap2\n              sub\n              swap1\n              return\n                /* \"contracts/Test14.sol\":382:398  uint256 public y */\n            tag_6:\n              tag_18\n              tag_19\n              jump\t// in\n            tag_18:\n              mload(0x40)\n              tag_20\n              swap2\n              swap1\n              tag_10\n              jump\t// in\n            tag_20:\n              mload(0x40)\n              dup1\n              swap2\n              sub\n              swap1\n              return\n                /* \"contracts/Test14.sol\":359:375  uint256 public x */\n            tag_8:\n              sload(0x02)\n              dup2\n              jump\t// out\n                /* \"contracts/Test14.sol\":320:352  uint256 public value = msg.value */\n            tag_12:\n              sload(0x01)\n              dup2\n              jump\t// out\n                /* \"contracts/Test14.sol\":280:313  address public owner = msg.sender */\n            tag_15:\n              0x00\n              dup1\n              sload\n              swap1\n              0x0100\n              exp\n              swap1\n              div\n              0xffffffffffffffffffffffffffffffffffffffff\n              and\n              dup2\n              jump\t// out\n                /* \"contracts/Test14.sol\":382:398  uint256 public y */\n            tag_19:\n              sload(0x03)\n              dup2\n              jump\t// out\n                /* \"#utility.yul\":7:84   */\n            tag_21:\n                /* \"#utility.yul\":44:51   */\n              0x00\n                /* \"#utility.yul\":73:78   */\n              dup2\n                /* \"#utility.yul\":62:78   */\n              swap1\n              pop\n                /* \"#utility.yul\":7:84   */\n              swap2\n              swap1\n              pop\n              jump\t// out\n                /* \"#utility.yul\":90:208   */\n            tag_22:\n                /* \"#utility.yul\":177:201   */\n              tag_29\n                /* \"#utility.yul\":195:200   */\n              dup2\n                /* \"#utility.yul\":177:201   */\n              tag_21\n              jump\t// in\n            tag_29:\n                /* \"#utility.yul\":172:175   */\n              dup3\n                /* \"#utility.yul\":165:202   */\n              mstore\n                /* \"#utility.yul\":90:208   */\n              pop\n              pop\n              jump\t// out\n                /* \"#utility.yul\":214:436   */\n            tag_10:\n                /* \"#utility.yul\":307:311   */\n              0x00\n                /* \"#utility.yul\":345:347   */\n              0x20\n                /* \"#utility.yul\":334:343   */\n              dup3\n                /* \"#utility.yul\":330:348   */\n              add\n                /* \"#utility.yul\":322:348   */\n              swap1\n              pop\n                /* \"#utility.yul\":358:429   */\n              tag_31\n                /* \"#utility.yul\":426:427   */\n              0x00\n                /* \"#utility.yul\":415:424   */\n              dup4\n                /* \"#utility.yul\":411:428   */\n              add\n                /* \"#utility.yul\":402:408   */\n              dup5\n                /* \"#utility.yul\":358:429   */\n              tag_22\n              jump\t// in\n            tag_31:\n                /* \"#utility.yul\":214:436   */\n              swap3\n              swap2\n              pop\n              pop\n              jump\t// out\n                /* \"#utility.yul\":442:568   */\n            tag_23:\n                /* \"#utility.yul\":479:486   */\n              0x00\n                /* \"#utility.yul\":519:561   */\n              0xffffffffffffffffffffffffffffffffffffffff\n                /* \"#utility.yul\":512:517   */\n              dup3\n                /* \"#utility.yul\":508:562   */\n              and\n                /* \"#utility.yul\":497:562   */\n              swap1\n              pop\n                /* \"#utility.yul\":442:568   */\n              swap2\n              swap1\n              pop\n              jump\t// out\n                /* \"#utility.yul\":574:670   */\n            tag_24:\n                /* \"#utility.yul\":611:618   */\n              0x00\n                /* \"#utility.yul\":640:664   */\n              tag_34\n                /* \"#utility.yul\":658:663   */\n              dup3\n                /* \"#utility.yul\":640:664   */\n              tag_23\n              jump\t// in\n            tag_34:\n                /* \"#utility.yul\":629:664   */\n              swap1\n              pop\n                /* \"#utility.yul\":574:670   */\n              swap2\n              swap1\n              pop\n              jump\t// out\n                /* \"#utility.yul\":676:794   */\n            tag_25:\n                /* \"#utility.yul\":763:787   */\n              tag_36\n                /* \"#utility.yul\":781:786   */\n              dup2\n                /* \"#utility.yul\":763:787   */\n              tag_24\n              jump\t// in\n            tag_36:\n                /* \"#utility.yul\":758:761   */\n              dup3\n                /* \"#utility.yul\":751:788   */\n              mstore\n                /* \"#utility.yul\":676:794   */\n              pop\n              pop\n              jump\t// out\n                /* \"#utility.yul\":800:1022   */\n            tag_17:\n                /* \"#utility.yul\":893:897   */\n              0x00\n                /* \"#utility.yul\":931:933   */\n              0x20\n                /* \"#utility.yul\":920:929   */\n              dup3\n                /* \"#utility.yul\":916:934   */\n              add\n                /* \"#utility.yul\":908:934   */\n              swap1\n              pop\n                /* \"#utility.yul\":944:1015   */\n              tag_38\n                /* \"#utility.yul\":1012:1013   */\n              0x00\n                /* \"#utility.yul\":1001:1010   */\n              dup4\n                /* \"#utility.yul\":997:1014   */\n              add\n                /* \"#utility.yul\":988:994   */\n              dup5\n                /* \"#utility.yul\":944:1015   */\n              tag_25\n              jump\t// in\n            tag_38:\n                /* \"#utility.yul\":800:1022   */\n              swap3\n              swap2\n              pop\n              pop\n              jump\t// out\n\n            auxdata: 0xa2646970667358221220016b1ef72199aeee3d31590e9381e4fa7e01ad35aea2575972bc29e167074dfd64736f6c63430008160033\n        }\n    }\n\n    auxdata: 0xa2646970667358221220486ab6357de59ef980e7f15478ac92f72b129423bc879a3581502447ea5b672064736f6c63430008160033\n}\n",
				"bytecode": {
					"linkReferences": {},
					"object": "608060405234801561000f575f80fd5b50610a8b8061001d5f395ff3fe608060405234801561000f575f80fd5b506004361061003f575f3560e01c80632064cad514610043578063bb3b8e5b14610073578063f1d4d81e14610091575b5f80fd5b61005d60048036038101906100589190610270565b6100c1565b60405161006a9190610325565b60405180910390f35b61007b610158565b6040516100889190610325565b60405180910390f35b6100ab60048036038101906100a69190610378565b610183565b6040516100b89190610325565b60405180910390f35b6060816040516024016100d491906103c5565b6040516020818303038152906040527f13af4035000000000000000000000000000000000000000000000000000000007bffffffffffffffffffffffffffffffffffffffffffffffffffffffff19166020820180517bffffffffffffffffffffffffffffffffffffffffffffffffffffffff83818316178352505050509050919050565b60606040518060200161016a906101f8565b6020820181038252601f19601f82011660405250905090565b60605f6040518060200161019690610205565b6020820181038252601f19601f8201166040525090508084846040516020016101c09291906103ed565b6040516020818303038152906040526040516020016101e092919061044e565b60405160208183030381529060405291505092915050565b61031f8061047283390190565b6102c58061079183390190565b5f80fd5b5f73ffffffffffffffffffffffffffffffffffffffff82169050919050565b5f61023f82610216565b9050919050565b61024f81610235565b8114610259575f80fd5b50565b5f8135905061026a81610246565b92915050565b5f6020828403121561028557610284610212565b5b5f6102928482850161025c565b91505092915050565b5f81519050919050565b5f82825260208201905092915050565b5f5b838110156102d25780820151818401526020810190506102b7565b5f8484015250505050565b5f601f19601f8301169050919050565b5f6102f78261029b565b61030181856102a5565b93506103118185602086016102b5565b61031a816102dd565b840191505092915050565b5f6020820190508181035f83015261033d81846102ed565b905092915050565b5f819050919050565b61035781610345565b8114610361575f80fd5b50565b5f813590506103728161034e565b92915050565b5f806040838503121561038e5761038d610212565b5b5f61039b85828601610364565b92505060206103ac85828601610364565b9150509250929050565b6103bf81610235565b82525050565b5f6020820190506103d85f8301846103b6565b92915050565b6103e781610345565b82525050565b5f6040820190506104005f8301856103de565b61040d60208301846103de565b9392505050565b5f81905092915050565b5f6104288261029b565b6104328185610414565b93506104428185602086016102b5565b80840191505092915050565b5f610459828561041e565b9150610465828461041e565b9150819050939250505056fe6080604052335f806101000a81548173ffffffffffffffffffffffffffffffffffffffff021916908373ffffffffffffffffffffffffffffffffffffffff16021790555034801561004e575f80fd5b506102c38061005c5f395ff3fe608060405234801561000f575f80fd5b5060043610610034575f3560e01c806313af4035146100385780638da5cb5b14610054575b5f80fd5b610052600480360381019061004d91906101c2565b610072565b005b61005c610141565b60405161006991906101fc565b60405180910390f35b5f8054906101000a900473ffffffffffffffffffffffffffffffffffffffff1673ffffffffffffffffffffffffffffffffffffffff163373ffffffffffffffffffffffffffffffffffffffff16146100ff576040517f08c379a00000000000000000000000000000000000000000000000000000000081526004016100f69061026f565b60405180910390fd5b805f806101000a81548173ffffffffffffffffffffffffffffffffffffffff021916908373ffffffffffffffffffffffffffffffffffffffff16021790555050565b5f8054906101000a900473ffffffffffffffffffffffffffffffffffffffff1681565b5f80fd5b5f73ffffffffffffffffffffffffffffffffffffffff82169050919050565b5f61019182610168565b9050919050565b6101a181610187565b81146101ab575f80fd5b50565b5f813590506101bc81610198565b92915050565b5f602082840312156101d7576101d6610164565b5b5f6101e4848285016101ae565b91505092915050565b6101f681610187565b82525050565b5f60208201905061020f5f8301846101ed565b92915050565b5f82825260208201905092915050565b7f6e6f77206f776e657200000000000000000000000000000000000000000000005f82015250565b5f610259600983610215565b915061026482610225565b602082019050919050565b5f6020820190508181035f8301526102868161024d565b905091905056fea2646970667358221220102759a8aac943f7bbd2ac627af7c9c7489763be3569bc832e20338494849d2e64736f6c634300081600336080604052335f806101000a81548173ffffffffffffffffffffffffffffffffffffffff021916908373ffffffffffffffffffffffffffffffffffffffff16021790555034600155348015610052575f80fd5b506040516102c53803806102c5833981810160405281019061007491906100c0565b816002819055508060038190555050506100fe565b5f80fd5b5f819050919050565b61009f8161008d565b81146100a9575f80fd5b50565b5f815190506100ba81610096565b92915050565b5f80604083850312156100d6576100d5610089565b5b5f6100e3858286016100ac565b92505060206100f4858286016100ac565b9150509250929050565b6101ba8061010b5f395ff3fe608060405234801561000f575f80fd5b506004361061004a575f3560e01c80630c55699c1461004e5780633fa4f2451461006c5780638da5cb5b1461008a578063a56dfe4a146100a8575b5f80fd5b6100566100c6565b6040516100639190610113565b60405180910390f35b6100746100cc565b6040516100819190610113565b60405180910390f35b6100926100d2565b60405161009f919061016b565b60405180910390f35b6100b06100f5565b6040516100bd9190610113565b60405180910390f35b60025481565b60015481565b5f8054906101000a900473ffffffffffffffffffffffffffffffffffffffff1681565b60035481565b5f819050919050565b61010d816100fb565b82525050565b5f6020820190506101265f830184610104565b92915050565b5f73ffffffffffffffffffffffffffffffffffffffff82169050919050565b5f6101558261012c565b9050919050565b6101658161014b565b82525050565b5f60208201905061017e5f83018461015c565b9291505056fea2646970667358221220016b1ef72199aeee3d31590e9381e4fa7e01ad35aea2575972bc29e167074dfd64736f6c63430008160033a2646970667358221220486ab6357de59ef980e7f15478ac92f72b129423bc879a3581502447ea5b672064736f6c63430008160033",
					"opcodes": "PUSH1 0x80 PUSH1 0x40 MSTORE CALLVALUE DUP1 ISZERO PUSH2 0xF JUMPI PUSH0 DUP1 REVERT JUMPDEST POP PUSH2 0xA8B DUP1 PUSH2 0x1D PUSH0 CODECOPY PUSH0 RETURN INVALID PUSH1 0x80 PUSH1 0x40 MSTORE CALLVALUE DUP1 ISZERO PUSH2 0xF JUMPI PUSH0 DUP1 REVERT JUMPDEST POP PUSH1 0x4 CALLDATASIZE LT PUSH2 0x3F JUMPI PUSH0 CALLDATALOAD PUSH1 0xE0 SHR DUP1 PUSH4 0x2064CAD5 EQ PUSH2 0x43 JUMPI DUP1 PUSH4 0xBB3B8E5B EQ PUSH2 0x73 JUMPI DUP1 PUSH4 0xF1D4D81E EQ PUSH2 0x91 JUMPI JUMPDEST PUSH0 DUP1 REVERT JUMPDEST PUSH2 0x5D PUSH1 0x4 DUP1 CALLDATASIZE SUB DUP2 ADD SWAP1 PUSH2 0x58 SWAP2 SWAP1 PUSH2 0x270 JUMP JUMPDEST PUSH2 0xC1 JUMP JUMPDEST PUSH1 0x40 MLOAD PUSH2 0x6A SWAP2 SWAP1 PUSH2 0x325 JUMP JUMPDEST PUSH1 0x40 MLOAD DUP1 SWAP2 SUB SWAP1 RETURN JUMPDEST PUSH2 0x7B PUSH2 0x158 JUMP JUMPDEST PUSH1 0x40 MLOAD PUSH2 0x88 SWAP2 SWAP1 PUSH2 0x325 JUMP JUMPDEST PUSH1 0x40 MLOAD DUP1 SWAP2 SUB SWAP1 RETURN JUMPDEST PUSH2 0xAB PUSH1 0x4 DUP1 CALLDATASIZE SUB DUP2 ADD SWAP1 PUSH2 0xA6 SWAP2 SWAP1 PUSH2 0x378 JUMP JUMPDEST PUSH2 0x183 JUMP JUMPDEST PUSH1 0x40 MLOAD PUSH2 0xB8 SWAP2 SWAP1 PUSH2 0x325 JUMP JUMPDEST PUSH1 0x40 MLOAD DUP1 SWAP2 SUB SWAP1 RETURN JUMPDEST PUSH1 0x60 DUP2 PUSH1 0x40 MLOAD PUSH1 0x24 ADD PUSH2 0xD4 SWAP2 SWAP1 PUSH2 0x3C5 JUMP JUMPDEST PUSH1 0x40 MLOAD PUSH1 0x20 DUP2 DUP4 SUB SUB DUP2 MSTORE SWAP1 PUSH1 0x40 MSTORE PUSH32 0x13AF403500000000000000000000000000000000000000000000000000000000 PUSH28 0xFFFFFFFFFFFFFFFFFFFFFFFFFFFFFFFFFFFFFFFFFFFFFFFFFFFFFFFF NOT AND PUSH1 0x20 DUP3 ADD DUP1 MLOAD PUSH28 0xFFFFFFFFFFFFFFFFFFFFFFFFFFFFFFFFFFFFFFFFFFFFFFFFFFFFFFFF DUP4 DUP2 DUP4 AND OR DUP4 MSTORE POP POP POP POP SWAP1 POP SWAP2 SWAP1 POP JUMP JUMPDEST PUSH1 0x60 PUSH1 0x40 MLOAD DUP1 PUSH1 0x20 ADD PUSH2 0x16A SWAP1 PUSH2 0x1F8 JUMP JUMPDEST PUSH1 0x20 DUP3 ADD DUP2 SUB DUP3 MSTORE PUSH1 0x1F NOT PUSH1 0x1F DUP3 ADD AND PUSH1 0x40 MSTORE POP SWAP1 POP SWAP1 JUMP JUMPDEST PUSH1 0x60 PUSH0 PUSH1 0x40 MLOAD DUP1 PUSH1 0x20 ADD PUSH2 0x196 SWAP1 PUSH2 0x205 JUMP JUMPDEST PUSH1 0x20 DUP3 ADD DUP2 SUB DUP3 MSTORE PUSH1 0x1F NOT PUSH1 0x1F DUP3 ADD AND PUSH1 0x40 MSTORE POP SWAP1 POP DUP1 DUP5 DUP5 PUSH1 0x40 MLOAD PUSH1 0x20 ADD PUSH2 0x1C0 SWAP3 SWAP2 SWAP1 PUSH2 0x3ED JUMP JUMPDEST PUSH1 0x40 MLOAD PUSH1 0x20 DUP2 DUP4 SUB SUB DUP2 MSTORE SWAP1 PUSH1 0x40 MSTORE PUSH1 0x40 MLOAD PUSH1 0x20 ADD PUSH2 0x1E0 SWAP3 SWAP2 SWAP1 PUSH2 0x44E JUMP JUMPDEST PUSH1 0x40 MLOAD PUSH1 0x20 DUP2 DUP4 SUB SUB DUP2 MSTORE SWAP1 PUSH1 0x40 MSTORE SWAP2 POP POP SWAP3 SWAP2 POP POP JUMP JUMPDEST PUSH2 0x31F DUP1 PUSH2 0x472 DUP4 CODECOPY ADD SWAP1 JUMP JUMPDEST PUSH2 0x2C5 DUP1 PUSH2 0x791 DUP4 CODECOPY ADD SWAP1 JUMP JUMPDEST PUSH0 DUP1 REVERT JUMPDEST PUSH0 PUSH20 0xFFFFFFFFFFFFFFFFFFFFFFFFFFFFFFFFFFFFFFFF DUP3 AND SWAP1 POP SWAP2 SWAP1 POP JUMP JUMPDEST PUSH0 PUSH2 0x23F DUP3 PUSH2 0x216 JUMP JUMPDEST SWAP1 POP SWAP2 SWAP1 POP JUMP JUMPDEST PUSH2 0x24F DUP2 PUSH2 0x235 JUMP JUMPDEST DUP2 EQ PUSH2 0x259 JUMPI PUSH0 DUP1 REVERT JUMPDEST POP JUMP JUMPDEST PUSH0 DUP2 CALLDATALOAD SWAP1 POP PUSH2 0x26A DUP2 PUSH2 0x246 JUMP JUMPDEST SWAP3 SWAP2 POP POP JUMP JUMPDEST PUSH0 PUSH1 0x20 DUP3 DUP5 SUB SLT ISZERO PUSH2 0x285 JUMPI PUSH2 0x284 PUSH2 0x212 JUMP JUMPDEST JUMPDEST PUSH0 PUSH2 0x292 DUP5 DUP3 DUP6 ADD PUSH2 0x25C JUMP JUMPDEST SWAP2 POP POP SWAP3 SWAP2 POP POP JUMP JUMPDEST PUSH0 DUP2 MLOAD SWAP1 POP SWAP2 SWAP1 POP JUMP JUMPDEST PUSH0 DUP3 DUP3 MSTORE PUSH1 0x20 DUP3 ADD SWAP1 POP SWAP3 SWAP2 POP POP JUMP JUMPDEST PUSH0 JUMPDEST DUP4 DUP2 LT ISZERO PUSH2 0x2D2 JUMPI DUP1 DUP3 ADD MLOAD DUP2 DUP5 ADD MSTORE PUSH1 0x20 DUP2 ADD SWAP1 POP PUSH2 0x2B7 JUMP JUMPDEST PUSH0 DUP5 DUP5 ADD MSTORE POP POP POP POP JUMP JUMPDEST PUSH0 PUSH1 0x1F NOT PUSH1 0x1F DUP4 ADD AND SWAP1 POP SWAP2 SWAP1 POP JUMP JUMPDEST PUSH0 PUSH2 0x2F7 DUP3 PUSH2 0x29B JUMP JUMPDEST PUSH2 0x301 DUP2 DUP6 PUSH2 0x2A5 JUMP JUMPDEST SWAP4 POP PUSH2 0x311 DUP2 DUP6 PUSH1 0x20 DUP7 ADD PUSH2 0x2B5 JUMP JUMPDEST PUSH2 0x31A DUP2 PUSH2 0x2DD JUMP JUMPDEST DUP5 ADD SWAP2 POP POP SWAP3 SWAP2 POP POP JUMP JUMPDEST PUSH0 PUSH1 0x20 DUP3 ADD SWAP1 POP DUP2 DUP2 SUB PUSH0 DUP4 ADD MSTORE PUSH2 0x33D DUP2 DUP5 PUSH2 0x2ED JUMP JUMPDEST SWAP1 POP SWAP3 SWAP2 POP POP JUMP JUMPDEST PUSH0 DUP2 SWAP1 POP SWAP2 SWAP1 POP JUMP JUMPDEST PUSH2 0x357 DUP2 PUSH2 0x345 JUMP JUMPDEST DUP2 EQ PUSH2 0x361 JUMPI PUSH0 DUP1 REVERT JUMPDEST POP JUMP JUMPDEST PUSH0 DUP2 CALLDATALOAD SWAP1 POP PUSH2 0x372 DUP2 PUSH2 0x34E JUMP JUMPDEST SWAP3 SWAP2 POP POP JUMP JUMPDEST PUSH0 DUP1 PUSH1 0x40 DUP4 DUP6 SUB SLT ISZERO PUSH2 0x38E JUMPI PUSH2 0x38D PUSH2 0x212 JUMP JUMPDEST JUMPDEST PUSH0 PUSH2 0x39B DUP6 DUP3 DUP7 ADD PUSH2 0x364 JUMP JUMPDEST SWAP3 POP POP PUSH1 0x20 PUSH2 0x3AC DUP6 DUP3 DUP7 ADD PUSH2 0x364 JUMP JUMPDEST SWAP2 POP POP SWAP3 POP SWAP3 SWAP1 POP JUMP JUMPDEST PUSH2 0x3BF DUP2 PUSH2 0x235 JUMP JUMPDEST DUP3 MSTORE POP POP JUMP JUMPDEST PUSH0 PUSH1 0x20 DUP3 ADD SWAP1 POP PUSH2 0x3D8 PUSH0 DUP4 ADD DUP5 PUSH2 0x3B6 JUMP JUMPDEST SWAP3 SWAP2 POP POP JUMP JUMPDEST PUSH2 0x3E7 DUP2 PUSH2 0x345 JUMP JUMPDEST DUP3 MSTORE POP POP JUMP JUMPDEST PUSH0 PUSH1 0x40 DUP3 ADD SWAP1 POP PUSH2 0x400 PUSH0 DUP4 ADD DUP6 PUSH2 0x3DE JUMP JUMPDEST PUSH2 0x40D PUSH1 0x20 DUP4 ADD DUP5 PUSH2 0x3DE JUMP JUMPDEST SWAP4 SWAP3 POP POP POP JUMP JUMPDEST PUSH0 DUP2 SWAP1 POP SWAP3 SWAP2 POP POP JUMP JUMPDEST PUSH0 PUSH2 0x428 DUP3 PUSH2 0x29B JUMP JUMPDEST PUSH2 0x432 DUP2 DUP6 PUSH2 0x414 JUMP JUMPDEST SWAP4 POP PUSH2 0x442 DUP2 DUP6 PUSH1 0x20 DUP7 ADD PUSH2 0x2B5 JUMP JUMPDEST DUP1 DUP5 ADD SWAP2 POP POP SWAP3 SWAP2 POP POP JUMP JUMPDEST PUSH0 PUSH2 0x459 DUP3 DUP6 PUSH2 0x41E JUMP JUMPDEST SWAP2 POP PUSH2 0x465 DUP3 DUP5 PUSH2 0x41E JUMP JUMPDEST SWAP2 POP DUP2 SWAP1 POP SWAP4 SWAP3 POP POP POP JUMP INVALID PUSH1 0x80 PUSH1 0x40 MSTORE CALLER PUSH0 DUP1 PUSH2 0x100 EXP DUP2 SLOAD DUP2 PUSH20 0xFFFFFFFFFFFFFFFFFFFFFFFFFFFFFFFFFFFFFFFF MUL NOT AND SWAP1 DUP4 PUSH20 0xFFFFFFFFFFFFFFFFFFFFFFFFFFFFFFFFFFFFFFFF AND MUL OR SWAP1 SSTORE POP CALLVALUE DUP1 ISZERO PUSH2 0x4E JUMPI PUSH0 DUP1 REVERT JUMPDEST POP PUSH2 0x2C3 DUP1 PUSH2 0x5C PUSH0 CODECOPY PUSH0 RETURN INVALID PUSH1 0x80 PUSH1 0x40 MSTORE CALLVALUE DUP1 ISZERO PUSH2 0xF JUMPI PUSH0 DUP1 REVERT JUMPDEST POP PUSH1 0x4 CALLDATASIZE LT PUSH2 0x34 JUMPI PUSH0 CALLDATALOAD PUSH1 0xE0 SHR DUP1 PUSH4 0x13AF4035 EQ PUSH2 0x38 JUMPI DUP1 PUSH4 0x8DA5CB5B EQ PUSH2 0x54 JUMPI JUMPDEST PUSH0 DUP1 REVERT JUMPDEST PUSH2 0x52 PUSH1 0x4 DUP1 CALLDATASIZE SUB DUP2 ADD SWAP1 PUSH2 0x4D SWAP2 SWAP1 PUSH2 0x1C2 JUMP JUMPDEST PUSH2 0x72 JUMP JUMPDEST STOP JUMPDEST PUSH2 0x5C PUSH2 0x141 JUMP JUMPDEST PUSH1 0x40 MLOAD PUSH2 0x69 SWAP2 SWAP1 PUSH2 0x1FC JUMP JUMPDEST PUSH1 0x40 MLOAD DUP1 SWAP2 SUB SWAP1 RETURN JUMPDEST PUSH0 DUP1 SLOAD SWAP1 PUSH2 0x100 EXP SWAP1 DIV PUSH20 0xFFFFFFFFFFFFFFFFFFFFFFFFFFFFFFFFFFFFFFFF AND PUSH20 0xFFFFFFFFFFFFFFFFFFFFFFFFFFFFFFFFFFFFFFFF AND CALLER PUSH20 0xFFFFFFFFFFFFFFFFFFFFFFFFFFFFFFFFFFFFFFFF AND EQ PUSH2 0xFF JUMPI PUSH1 0x40 MLOAD PUSH32 0x8C379A000000000000000000000000000000000000000000000000000000000 DUP2 MSTORE PUSH1 0x4 ADD PUSH2 0xF6 SWAP1 PUSH2 0x26F JUMP JUMPDEST PUSH1 0x40 MLOAD DUP1 SWAP2 SUB SWAP1 REVERT JUMPDEST DUP1 PUSH0 DUP1 PUSH2 0x100 EXP DUP2 SLOAD DUP2 PUSH20 0xFFFFFFFFFFFFFFFFFFFFFFFFFFFFFFFFFFFFFFFF MUL NOT AND SWAP1 DUP4 PUSH20 0xFFFFFFFFFFFFFFFFFFFFFFFFFFFFFFFFFFFFFFFF AND MUL OR SWAP1 SSTORE POP POP JUMP JUMPDEST PUSH0 DUP1 SLOAD SWAP1 PUSH2 0x100 EXP SWAP1 DIV PUSH20 0xFFFFFFFFFFFFFFFFFFFFFFFFFFFFFFFFFFFFFFFF AND DUP2 JUMP JUMPDEST PUSH0 DUP1 REVERT JUMPDEST PUSH0 PUSH20 0xFFFFFFFFFFFFFFFFFFFFFFFFFFFFFFFFFFFFFFFF DUP3 AND SWAP1 POP SWAP2 SWAP1 POP JUMP JUMPDEST PUSH0 PUSH2 0x191 DUP3 PUSH2 0x168 JUMP JUMPDEST SWAP1 POP SWAP2 SWAP1 POP JUMP JUMPDEST PUSH2 0x1A1 DUP2 PUSH2 0x187 JUMP JUMPDEST DUP2 EQ PUSH2 0x1AB JUMPI PUSH0 DUP1 REVERT JUMPDEST POP JUMP JUMPDEST PUSH0 DUP2 CALLDATALOAD SWAP1 POP PUSH2 0x1BC DUP2 PUSH2 0x198 JUMP JUMPDEST SWAP3 SWAP2 POP POP JUMP JUMPDEST PUSH0 PUSH1 0x20 DUP3 DUP5 SUB SLT ISZERO PUSH2 0x1D7 JUMPI PUSH2 0x1D6 PUSH2 0x164 JUMP JUMPDEST JUMPDEST PUSH0 PUSH2 0x1E4 DUP5 DUP3 DUP6 ADD PUSH2 0x1AE JUMP JUMPDEST SWAP2 POP POP SWAP3 SWAP2 POP POP JUMP JUMPDEST PUSH2 0x1F6 DUP2 PUSH2 0x187 JUMP JUMPDEST DUP3 MSTORE POP POP JUMP JUMPDEST PUSH0 PUSH1 0x20 DUP3 ADD SWAP1 POP PUSH2 0x20F PUSH0 DUP4 ADD DUP5 PUSH2 0x1ED JUMP JUMPDEST SWAP3 SWAP2 POP POP JUMP JUMPDEST PUSH0 DUP3 DUP3 MSTORE PUSH1 0x20 DUP3 ADD SWAP1 POP SWAP3 SWAP2 POP POP JUMP JUMPDEST PUSH32 0x6E6F77206F776E65720000000000000000000000000000000000000000000000 PUSH0 DUP3 ADD MSTORE POP JUMP JUMPDEST PUSH0 PUSH2 0x259 PUSH1 0x9 DUP4 PUSH2 0x215 JUMP JUMPDEST SWAP2 POP PUSH2 0x264 DUP3 PUSH2 0x225 JUMP JUMPDEST PUSH1 0x20 DUP3 ADD SWAP1 POP SWAP2 SWAP1 POP JUMP JUMPDEST PUSH0 PUSH1 0x20 DUP3 ADD SWAP1 POP DUP2 DUP2 SUB PUSH0 DUP4 ADD MSTORE PUSH2 0x286 DUP2 PUSH2 0x24D JUMP JUMPDEST SWAP1 POP SWAP2 SWAP1 POP JUMP INVALID LOG2 PUSH5 0x6970667358 0x22 SLT KECCAK256 LT 0x27 MSIZE 0xA8 0xAA 0xC9 NUMBER 0xF7 0xBB 0xD2 0xAC PUSH3 0x7AF7C9 0xC7 BASEFEE SWAP8 PUSH4 0xBE3569BC DUP4 0x2E KECCAK256 CALLER DUP5 SWAP5 DUP5 SWAP14 0x2E PUSH5 0x736F6C6343 STOP ADDMOD AND STOP CALLER PUSH1 0x80 PUSH1 0x40 MSTORE CALLER PUSH0 DUP1 PUSH2 0x100 EXP DUP2 SLOAD DUP2 PUSH20 0xFFFFFFFFFFFFFFFFFFFFFFFFFFFFFFFFFFFFFFFF MUL NOT AND SWAP1 DUP4 PUSH20 0xFFFFFFFFFFFFFFFFFFFFFFFFFFFFFFFFFFFFFFFF AND MUL OR SWAP1 SSTORE POP CALLVALUE PUSH1 0x1 SSTORE CALLVALUE DUP1 ISZERO PUSH2 0x52 JUMPI PUSH0 DUP1 REVERT JUMPDEST POP PUSH1 0x40 MLOAD PUSH2 0x2C5 CODESIZE SUB DUP1 PUSH2 0x2C5 DUP4 CODECOPY DUP2 DUP2 ADD PUSH1 0x40 MSTORE DUP2 ADD SWAP1 PUSH2 0x74 SWAP2 SWAP1 PUSH2 0xC0 JUMP JUMPDEST DUP2 PUSH1 0x2 DUP2 SWAP1 SSTORE POP DUP1 PUSH1 0x3 DUP2 SWAP1 SSTORE POP POP POP PUSH2 0xFE JUMP JUMPDEST PUSH0 DUP1 REVERT JUMPDEST PUSH0 DUP2 SWAP1 POP SWAP2 SWAP1 POP JUMP JUMPDEST PUSH2 0x9F DUP2 PUSH2 0x8D JUMP JUMPDEST DUP2 EQ PUSH2 0xA9 JUMPI PUSH0 DUP1 REVERT JUMPDEST POP JUMP JUMPDEST PUSH0 DUP2 MLOAD SWAP1 POP PUSH2 0xBA DUP2 PUSH2 0x96 JUMP JUMPDEST SWAP3 SWAP2 POP POP JUMP JUMPDEST PUSH0 DUP1 PUSH1 0x40 DUP4 DUP6 SUB SLT ISZERO PUSH2 0xD6 JUMPI PUSH2 0xD5 PUSH2 0x89 JUMP JUMPDEST JUMPDEST PUSH0 PUSH2 0xE3 DUP6 DUP3 DUP7 ADD PUSH2 0xAC JUMP JUMPDEST SWAP3 POP POP PUSH1 0x20 PUSH2 0xF4 DUP6 DUP3 DUP7 ADD PUSH2 0xAC JUMP JUMPDEST SWAP2 POP POP SWAP3 POP SWAP3 SWAP1 POP JUMP JUMPDEST PUSH2 0x1BA DUP1 PUSH2 0x10B PUSH0 CODECOPY PUSH0 RETURN INVALID PUSH1 0x80 PUSH1 0x40 MSTORE CALLVALUE DUP1 ISZERO PUSH2 0xF JUMPI PUSH0 DUP1 REVERT JUMPDEST POP PUSH1 0x4 CALLDATASIZE LT PUSH2 0x4A JUMPI PUSH0 CALLDATALOAD PUSH1 0xE0 SHR DUP1 PUSH4 0xC55699C EQ PUSH2 0x4E JUMPI DUP1 PUSH4 0x3FA4F245 EQ PUSH2 0x6C JUMPI DUP1 PUSH4 0x8DA5CB5B EQ PUSH2 0x8A JUMPI DUP1 PUSH4 0xA56DFE4A EQ PUSH2 0xA8 JUMPI JUMPDEST PUSH0 DUP1 REVERT JUMPDEST PUSH2 0x56 PUSH2 0xC6 JUMP JUMPDEST PUSH1 0x40 MLOAD PUSH2 0x63 SWAP2 SWAP1 PUSH2 0x113 JUMP JUMPDEST PUSH1 0x40 MLOAD DUP1 SWAP2 SUB SWAP1 RETURN JUMPDEST PUSH2 0x74 PUSH2 0xCC JUMP JUMPDEST PUSH1 0x40 MLOAD PUSH2 0x81 SWAP2 SWAP1 PUSH2 0x113 JUMP JUMPDEST PUSH1 0x40 MLOAD DUP1 SWAP2 SUB SWAP1 RETURN JUMPDEST PUSH2 0x92 PUSH2 0xD2 JUMP JUMPDEST PUSH1 0x40 MLOAD PUSH2 0x9F SWAP2 SWAP1 PUSH2 0x16B JUMP JUMPDEST PUSH1 0x40 MLOAD DUP1 SWAP2 SUB SWAP1 RETURN JUMPDEST PUSH2 0xB0 PUSH2 0xF5 JUMP JUMPDEST PUSH1 0x40 MLOAD PUSH2 0xBD SWAP2 SWAP1 PUSH2 0x113 JUMP JUMPDEST PUSH1 0x40 MLOAD DUP1 SWAP2 SUB SWAP1 RETURN JUMPDEST PUSH1 0x2 SLOAD DUP2 JUMP JUMPDEST PUSH1 0x1 SLOAD DUP2 JUMP JUMPDEST PUSH0 DUP1 SLOAD SWAP1 PUSH2 0x100 EXP SWAP1 DIV PUSH20 0xFFFFFFFFFFFFFFFFFFFFFFFFFFFFFFFFFFFFFFFF AND DUP2 JUMP JUMPDEST PUSH1 0x3 SLOAD DUP2 JUMP JUMPDEST PUSH0 DUP2 SWAP1 POP SWAP2 SWAP1 POP JUMP JUMPDEST PUSH2 0x10D DUP2 PUSH2 0xFB JUMP JUMPDEST DUP3 MSTORE POP POP JUMP JUMPDEST PUSH0 PUSH1 0x20 DUP3 ADD SWAP1 POP PUSH2 0x126 PUSH0 DUP4 ADD DUP5 PUSH2 0x104 JUMP JUMPDEST SWAP3 SWAP2 POP POP JUMP JUMPDEST PUSH0 PUSH20 0xFFFFFFFFFFFFFFFFFFFFFFFFFFFFFFFFFFFFFFFF DUP3 AND SWAP1 POP SWAP2 SWAP1 POP JUMP JUMPDEST PUSH0 PUSH2 0x155 DUP3 PUSH2 0x12C JUMP JUMPDEST SWAP1 POP SWAP2 SWAP1 POP JUMP JUMPDEST PUSH2 0x165 DUP2 PUSH2 0x14B JUMP JUMPDEST DUP3 MSTORE POP POP JUMP JUMPDEST PUSH0 PUSH1 0x20 DUP3 ADD SWAP1 POP PUSH2 0x17E PUSH0 DUP4 ADD DUP5 PUSH2 0x15C JUMP JUMPDEST SWAP3 SWAP2 POP POP JUMP INVALID LOG2 PUSH5 0x6970667358 0x22 SLT KECCAK256 ADD PUSH12 0x1EF72199AEEE3D31590E9381 0xE4 STATICCALL PUSH31 0x1AD35AEA2575972BC29E167074DFD64736F6C63430008160033A264697066 PUSH20 0x58221220486AB6357DE59EF980E7F15478AC92F7 0x2B SLT SWAP5 0x23 0xBC DUP8 SWAP11 CALLDATALOAD DUP2 POP 0x24 SELFBALANCE 0xEA JUMPDEST PUSH8 0x2064736F6C634300 ADDMOD AND STOP CALLER "
				},
				"gasEstimates": {
					"creation": {
						"codeDepositCost": "539800",
						"executionCost": "573",
						"totalCost": "540373"
					},
					"external": {
						"getBytescode1()": "infinite",
						"getBytescode2(uint256,uint256)": "infinite",
						"getCalldata(address)": "infinite"
					}
				},
				"methodIdentifiers": {
					"getBytescode1()": "bb3b8e5b",
					"getBytescode2(uint256,uint256)": "f1d4d81e",
					"getCalldata(address)": "2064cad5"
				}
			},
			"storageLayout": {
				"storage": [],
				"types": null
			},
			"userdoc": {
				"kind": "user",
				"methods": {},
				"version": 1
			}
		}
	}
}