{
	"contracts/Demo14.sol": {
		"Proxy": {
			"abi": [
				{
					"inputs": [
						{
							"internalType": "uint256",
							"name": "",
							"type": "uint256"
						}
					],
					"name": "CrowdfundingList",
					"outputs": [
						{
							"internalType": "address",
							"name": "",
							"type": "address"
						}
					],
					"stateMutability": "view",
					"type": "function"
				},
				{
					"inputs": [
						{
							"internalType": "bytes",
							"name": "bytecode",
							"type": "bytes"
						},
						{
							"internalType": "uint256",
							"name": "_salt",
							"type": "uint256"
						}
					],
					"name": "deploy",
					"outputs": [
						{
							"internalType": "address",
							"name": "",
							"type": "address"
						}
					],
					"stateMutability": "nonpayable",
					"type": "function"
				},
				{
					"inputs": [
						{
							"internalType": "address",
							"name": "beneficiary_",
							"type": "address"
						},
						{
							"internalType": "uint256",
							"name": "fundingGoal_",
							"type": "uint256"
						}
					],
					"name": "getBytecode",
					"outputs": [
						{
							"internalType": "bytes",
							"name": "",
							"type": "bytes"
						}
					],
					"stateMutability": "pure",
					"type": "function"
				}
			],
			"devdoc": {
				"kind": "dev",
				"methods": {},
				"version": 1
			},
			"evm": {
				"assembly": "    /* \"contracts/Demo14.sol\":5392:6096  contract Proxy{... */\n  mstore(0x40, 0x80)\n  callvalue\n  dup1\n  iszero\n  tag_1\n  jumpi\n  0x00\n  dup1\n  revert\ntag_1:\n  pop\n  dataSize(sub_0)\n  dup1\n  dataOffset(sub_0)\n  0x00\n  codecopy\n  0x00\n  return\nstop\n\nsub_0: assembly {\n        /* \"contracts/Demo14.sol\":5392:6096  contract Proxy{... */\n      mstore(0x40, 0x80)\n      callvalue\n      dup1\n      iszero\n      tag_1\n      jumpi\n      0x00\n      dup1\n      revert\n    tag_1:\n      pop\n      jumpi(tag_2, lt(calldatasize, 0x04))\n      shr(0xe0, calldataload(0x00))\n      dup1\n      0x81871cbc\n      eq\n      tag_3\n      jumpi\n      dup1\n      0x9c4ae2d0\n      eq\n      tag_4\n      jumpi\n      dup1\n      0xf420b258\n      eq\n      tag_5\n      jumpi\n    tag_2:\n      0x00\n      dup1\n      revert\n        /* \"contracts/Demo14.sol\":5455:5722  function getBytecode(address beneficiary_,uint256 fundingGoal_) public pure returns (bytes memory) {... */\n    tag_3:\n      tag_6\n      0x04\n      dup1\n      calldatasize\n      sub\n      dup2\n      add\n      swap1\n      tag_7\n      swap2\n      swap1\n      tag_8\n      jump\t// in\n    tag_7:\n      tag_9\n      jump\t// in\n    tag_6:\n      mload(0x40)\n      tag_10\n      swap2\n      swap1\n      tag_11\n      jump\t// in\n    tag_10:\n      mload(0x40)\n      dup1\n      swap2\n      sub\n      swap1\n      return\n        /* \"contracts/Demo14.sol\":5730:6093  function deploy(bytes memory bytecode, uint256 _salt)... */\n    tag_4:\n      tag_12\n      0x04\n      dup1\n      calldatasize\n      sub\n      dup2\n      add\n      swap1\n      tag_13\n      swap2\n      swap1\n      tag_14\n      jump\t// in\n    tag_13:\n      tag_15\n      jump\t// in\n    tag_12:\n      mload(0x40)\n      tag_16\n      swap2\n      swap1\n      tag_17\n      jump\t// in\n    tag_16:\n      mload(0x40)\n      dup1\n      swap2\n      sub\n      swap1\n      return\n        /* \"contracts/Demo14.sol\":5413:5446  address[] public CrowdfundingList */\n    tag_5:\n      tag_18\n      0x04\n      dup1\n      calldatasize\n      sub\n      dup2\n      add\n      swap1\n      tag_19\n      swap2\n      swap1\n      tag_20\n      jump\t// in\n    tag_19:\n      tag_21\n      jump\t// in\n    tag_18:\n      mload(0x40)\n      tag_22\n      swap2\n      swap1\n      tag_17\n      jump\t// in\n    tag_22:\n      mload(0x40)\n      dup1\n      swap2\n      sub\n      swap1\n      return\n        /* \"contracts/Demo14.sol\":5455:5722  function getBytecode(address beneficiary_,uint256 fundingGoal_) public pure returns (bytes memory) {... */\n    tag_9:\n        /* \"contracts/Demo14.sol\":5540:5552  bytes memory */\n      0x60\n        /* \"contracts/Demo14.sol\":5565:5586  bytes memory bytecode */\n      0x00\n        /* \"contracts/Demo14.sol\":5589:5628  type(DelegateCrowdfunding).creationCode */\n      mload(0x40)\n      dup1\n      0x20\n      add\n      tag_24\n      swap1\n      tag_25\n      jump\t// in\n    tag_24:\n      0x20\n      dup3\n      add\n      dup2\n      sub\n      dup3\n      mstore\n      not(0x1f)\n      0x1f\n      dup3\n      add\n      and\n      0x40\n      mstore\n      pop\n        /* \"contracts/Demo14.sol\":5565:5628  bytes memory bytecode = type(DelegateCrowdfunding).creationCode */\n      swap1\n      pop\n        /* \"contracts/Demo14.sol\":5665:5673  bytecode */\n      dup1\n        /* \"contracts/Demo14.sol\":5686:5698  beneficiary_ */\n      dup5\n        /* \"contracts/Demo14.sol\":5700:5712  fundingGoal_ */\n      dup5\n        /* \"contracts/Demo14.sol\":5675:5713  abi.encode(beneficiary_, fundingGoal_) */\n      add(0x20, mload(0x40))\n      tag_26\n      swap3\n      swap2\n      swap1\n      tag_27\n      jump\t// in\n    tag_26:\n      mload(0x40)\n      0x20\n      dup2\n      dup4\n      sub\n      sub\n      dup2\n      mstore\n      swap1\n      0x40\n      mstore\n        /* \"contracts/Demo14.sol\":5648:5714  abi.encodePacked(bytecode, abi.encode(beneficiary_, fundingGoal_)) */\n      add(0x20, mload(0x40))\n      tag_28\n      swap3\n      swap2\n      swap1\n      tag_29\n      jump\t// in\n    tag_28:\n      mload(0x40)\n      0x20\n      dup2\n      dup4\n      sub\n      sub\n      dup2\n      mstore\n      swap1\n      0x40\n      mstore\n        /* \"contracts/Demo14.sol\":5641:5714  return abi.encodePacked(bytecode, abi.encode(beneficiary_, fundingGoal_)) */\n      swap2\n      pop\n      pop\n        /* \"contracts/Demo14.sol\":5455:5722  function getBytecode(address beneficiary_,uint256 fundingGoal_) public pure returns (bytes memory) {... */\n      swap3\n      swap2\n      pop\n      pop\n      jump\t// out\n        /* \"contracts/Demo14.sol\":5730:6093  function deploy(bytes memory bytecode, uint256 _salt)... */\n    tag_15:\n        /* \"contracts/Demo14.sol\":5820:5827  address */\n      0x00\n        /* \"contracts/Demo14.sol\":5839:5851  address addr */\n      dup1\n        /* \"contracts/Demo14.sol\":5889:5890  0 */\n      0x00\n        /* \"contracts/Demo14.sol\":5870:5878  bytecode */\n      dup5\n        /* \"contracts/Demo14.sol\":5870:5885  bytecode.length */\n      mload\n        /* \"contracts/Demo14.sol\":5870:5890  bytecode.length != 0 */\n      sub\n        /* \"contracts/Demo14.sol\":5862:5910  require(bytecode.length != 0,\"bytecode is zero\") */\n      tag_31\n      jumpi\n      mload(0x40)\n      0x08c379a000000000000000000000000000000000000000000000000000000000\n      dup2\n      mstore\n      0x04\n      add\n      tag_32\n      swap1\n      tag_33\n      jump\t// in\n    tag_32:\n      mload(0x40)\n      dup1\n      swap2\n      sub\n      swap1\n      revert\n    tag_31:\n        /* \"contracts/Demo14.sol\":5997:6002  _salt */\n      dup3\n        /* \"contracts/Demo14.sol\":5987:5995  bytecode */\n      dup5\n        /* \"contracts/Demo14.sol\":5981:5996  mload(bytecode) */\n      mload\n        /* \"contracts/Demo14.sol\":5975:5979  0x20 */\n      0x20\n        /* \"contracts/Demo14.sol\":5966:5974  bytecode */\n      dup7\n        /* \"contracts/Demo14.sol\":5962:5980  add(bytecode,0x20) */\n      add\n        /* \"contracts/Demo14.sol\":5960:5961  0 */\n      0x00\n        /* \"contracts/Demo14.sol\":5952:6003  create2(0,add(bytecode,0x20),mload(bytecode),_salt) */\n      create2\n        /* \"contracts/Demo14.sol\":5944:6003  addr := create2(0,add(bytecode,0x20),mload(bytecode),_salt) */\n      swap1\n      pop\n        /* \"contracts/Demo14.sol\":6034:6050  CrowdfundingList */\n      0x00\n        /* \"contracts/Demo14.sol\":6056:6060  addr */\n      dup2\n        /* \"contracts/Demo14.sol\":6034:6061  CrowdfundingList.push(addr) */\n      swap1\n      dup1\n      0x01\n      dup2\n      sload\n      add\n      dup1\n      dup3\n      sstore\n      dup1\n      swap2\n      pop\n      pop\n      0x01\n      swap1\n      sub\n      swap1\n      0x00\n      mstore\n      keccak256(0x00, 0x20)\n      add\n      0x00\n      swap1\n      swap2\n      swap1\n      swap2\n      swap1\n      swap2\n      0x0100\n      exp\n      dup2\n      sload\n      dup2\n      0xffffffffffffffffffffffffffffffffffffffff\n      mul\n      not\n      and\n      swap1\n      dup4\n      0xffffffffffffffffffffffffffffffffffffffff\n      and\n      mul\n      or\n      swap1\n      sstore\n      pop\n        /* \"contracts/Demo14.sol\":6081:6085  addr */\n      dup1\n        /* \"contracts/Demo14.sol\":6074:6085  return addr */\n      swap2\n      pop\n      pop\n        /* \"contracts/Demo14.sol\":5730:6093  function deploy(bytes memory bytecode, uint256 _salt)... */\n      swap3\n      swap2\n      pop\n      pop\n      jump\t// out\n        /* \"contracts/Demo14.sol\":5413:5446  address[] public CrowdfundingList */\n    tag_21:\n      0x00\n      dup2\n      dup2\n      sload\n      dup2\n      lt\n      tag_35\n      jumpi\n      0x00\n      dup1\n      revert\n    tag_35:\n      swap1\n      0x00\n      mstore\n      keccak256(0x00, 0x20)\n      add\n      0x00\n      swap2\n      pop\n      sload\n      swap1\n      0x0100\n      exp\n      swap1\n      div\n      0xffffffffffffffffffffffffffffffffffffffff\n      and\n      dup2\n      jump\t// out\n    tag_25:\n      dataSize(sub_0)\n      dup1\n      dataOffset(sub_0)\n      dup4\n      codecopy\n      add\n      swap1\n      jump\t// out\n        /* \"#utility.yul\":7:82   */\n    tag_37:\n        /* \"#utility.yul\":40:46   */\n      0x00\n        /* \"#utility.yul\":73:75   */\n      0x40\n        /* \"#utility.yul\":67:76   */\n      mload\n        /* \"#utility.yul\":57:76   */\n      swap1\n      pop\n        /* \"#utility.yul\":7:82   */\n      swap1\n      jump\t// out\n        /* \"#utility.yul\":88:205   */\n    tag_38:\n        /* \"#utility.yul\":197:198   */\n      0x00\n        /* \"#utility.yul\":194:195   */\n      dup1\n        /* \"#utility.yul\":187:199   */\n      revert\n        /* \"#utility.yul\":211:328   */\n    tag_39:\n        /* \"#utility.yul\":320:321   */\n      0x00\n        /* \"#utility.yul\":317:318   */\n      dup1\n        /* \"#utility.yul\":310:322   */\n      revert\n        /* \"#utility.yul\":334:460   */\n    tag_40:\n        /* \"#utility.yul\":371:378   */\n      0x00\n        /* \"#utility.yul\":411:453   */\n      0xffffffffffffffffffffffffffffffffffffffff\n        /* \"#utility.yul\":404:409   */\n      dup3\n        /* \"#utility.yul\":400:454   */\n      and\n        /* \"#utility.yul\":389:454   */\n      swap1\n      pop\n        /* \"#utility.yul\":334:460   */\n      swap2\n      swap1\n      pop\n      jump\t// out\n        /* \"#utility.yul\":466:562   */\n    tag_41:\n        /* \"#utility.yul\":503:510   */\n      0x00\n        /* \"#utility.yul\":532:556   */\n      tag_74\n        /* \"#utility.yul\":550:555   */\n      dup3\n        /* \"#utility.yul\":532:556   */\n      tag_40\n      jump\t// in\n    tag_74:\n        /* \"#utility.yul\":521:556   */\n      swap1\n      pop\n        /* \"#utility.yul\":466:562   */\n      swap2\n      swap1\n      pop\n      jump\t// out\n        /* \"#utility.yul\":568:690   */\n    tag_42:\n        /* \"#utility.yul\":641:665   */\n      tag_76\n        /* \"#utility.yul\":659:664   */\n      dup2\n        /* \"#utility.yul\":641:665   */\n      tag_41\n      jump\t// in\n    tag_76:\n        /* \"#utility.yul\":634:639   */\n      dup2\n        /* \"#utility.yul\":631:666   */\n      eq\n        /* \"#utility.yul\":621:684   */\n      tag_77\n      jumpi\n        /* \"#utility.yul\":680:681   */\n      0x00\n        /* \"#utility.yul\":677:678   */\n      dup1\n        /* \"#utility.yul\":670:682   */\n      revert\n        /* \"#utility.yul\":621:684   */\n    tag_77:\n        /* \"#utility.yul\":568:690   */\n      pop\n      jump\t// out\n        /* \"#utility.yul\":696:835   */\n    tag_43:\n        /* \"#utility.yul\":742:747   */\n      0x00\n        /* \"#utility.yul\":780:786   */\n      dup2\n        /* \"#utility.yul\":767:787   */\n      calldataload\n        /* \"#utility.yul\":758:787   */\n      swap1\n      pop\n        /* \"#utility.yul\":796:829   */\n      tag_79\n        /* \"#utility.yul\":823:828   */\n      dup2\n        /* \"#utility.yul\":796:829   */\n      tag_42\n      jump\t// in\n    tag_79:\n        /* \"#utility.yul\":696:835   */\n      swap3\n      swap2\n      pop\n      pop\n      jump\t// out\n        /* \"#utility.yul\":841:918   */\n    tag_44:\n        /* \"#utility.yul\":878:885   */\n      0x00\n        /* \"#utility.yul\":907:912   */\n      dup2\n        /* \"#utility.yul\":896:912   */\n      swap1\n      pop\n        /* \"#utility.yul\":841:918   */\n      swap2\n      swap1\n      pop\n      jump\t// out\n        /* \"#utility.yul\":924:1046   */\n    tag_45:\n        /* \"#utility.yul\":997:1021   */\n      tag_82\n        /* \"#utility.yul\":1015:1020   */\n      dup2\n        /* \"#utility.yul\":997:1021   */\n      tag_44\n      jump\t// in\n    tag_82:\n        /* \"#utility.yul\":990:995   */\n      dup2\n        /* \"#utility.yul\":987:1022   */\n      eq\n        /* \"#utility.yul\":977:1040   */\n      tag_83\n      jumpi\n        /* \"#utility.yul\":1036:1037   */\n      0x00\n        /* \"#utility.yul\":1033:1034   */\n      dup1\n        /* \"#utility.yul\":1026:1038   */\n      revert\n        /* \"#utility.yul\":977:1040   */\n    tag_83:\n        /* \"#utility.yul\":924:1046   */\n      pop\n      jump\t// out\n        /* \"#utility.yul\":1052:1191   */\n    tag_46:\n        /* \"#utility.yul\":1098:1103   */\n      0x00\n        /* \"#utility.yul\":1136:1142   */\n      dup2\n        /* \"#utility.yul\":1123:1143   */\n      calldataload\n        /* \"#utility.yul\":1114:1143   */\n      swap1\n      pop\n        /* \"#utility.yul\":1152:1185   */\n      tag_85\n        /* \"#utility.yul\":1179:1184   */\n      dup2\n        /* \"#utility.yul\":1152:1185   */\n      tag_45\n      jump\t// in\n    tag_85:\n        /* \"#utility.yul\":1052:1191   */\n      swap3\n      swap2\n      pop\n      pop\n      jump\t// out\n        /* \"#utility.yul\":1197:1671   */\n    tag_8:\n        /* \"#utility.yul\":1265:1271   */\n      0x00\n        /* \"#utility.yul\":1273:1279   */\n      dup1\n        /* \"#utility.yul\":1322:1324   */\n      0x40\n        /* \"#utility.yul\":1310:1319   */\n      dup4\n        /* \"#utility.yul\":1301:1308   */\n      dup6\n        /* \"#utility.yul\":1297:1320   */\n      sub\n        /* \"#utility.yul\":1293:1325   */\n      slt\n        /* \"#utility.yul\":1290:1409   */\n      iszero\n      tag_87\n      jumpi\n        /* \"#utility.yul\":1328:1407   */\n      tag_88\n      tag_38\n      jump\t// in\n    tag_88:\n        /* \"#utility.yul\":1290:1409   */\n    tag_87:\n        /* \"#utility.yul\":1448:1449   */\n      0x00\n        /* \"#utility.yul\":1473:1526   */\n      tag_89\n        /* \"#utility.yul\":1518:1525   */\n      dup6\n        /* \"#utility.yul\":1509:1515   */\n      dup3\n        /* \"#utility.yul\":1498:1507   */\n      dup7\n        /* \"#utility.yul\":1494:1516   */\n      add\n        /* \"#utility.yul\":1473:1526   */\n      tag_43\n      jump\t// in\n    tag_89:\n        /* \"#utility.yul\":1463:1526   */\n      swap3\n      pop\n        /* \"#utility.yul\":1419:1536   */\n      pop\n        /* \"#utility.yul\":1575:1577   */\n      0x20\n        /* \"#utility.yul\":1601:1654   */\n      tag_90\n        /* \"#utility.yul\":1646:1653   */\n      dup6\n        /* \"#utility.yul\":1637:1643   */\n      dup3\n        /* \"#utility.yul\":1626:1635   */\n      dup7\n        /* \"#utility.yul\":1622:1644   */\n      add\n        /* \"#utility.yul\":1601:1654   */\n      tag_46\n      jump\t// in\n    tag_90:\n        /* \"#utility.yul\":1591:1654   */\n      swap2\n      pop\n        /* \"#utility.yul\":1546:1664   */\n      pop\n        /* \"#utility.yul\":1197:1671   */\n      swap3\n      pop\n      swap3\n      swap1\n      pop\n      jump\t// out\n        /* \"#utility.yul\":1677:1775   */\n    tag_47:\n        /* \"#utility.yul\":1728:1734   */\n      0x00\n        /* \"#utility.yul\":1762:1767   */\n      dup2\n        /* \"#utility.yul\":1756:1768   */\n      mload\n        /* \"#utility.yul\":1746:1768   */\n      swap1\n      pop\n        /* \"#utility.yul\":1677:1775   */\n      swap2\n      swap1\n      pop\n      jump\t// out\n        /* \"#utility.yul\":1781:1949   */\n    tag_48:\n        /* \"#utility.yul\":1864:1875   */\n      0x00\n        /* \"#utility.yul\":1898:1904   */\n      dup3\n        /* \"#utility.yul\":1893:1896   */\n      dup3\n        /* \"#utility.yul\":1886:1905   */\n      mstore\n        /* \"#utility.yul\":1938:1942   */\n      0x20\n        /* \"#utility.yul\":1933:1936   */\n      dup3\n        /* \"#utility.yul\":1929:1943   */\n      add\n        /* \"#utility.yul\":1914:1943   */\n      swap1\n      pop\n        /* \"#utility.yul\":1781:1949   */\n      swap3\n      swap2\n      pop\n      pop\n      jump\t// out\n        /* \"#utility.yul\":1955:2201   */\n    tag_49:\n        /* \"#utility.yul\":2036:2037   */\n      0x00\n        /* \"#utility.yul\":2046:2159   */\n    tag_94:\n        /* \"#utility.yul\":2060:2066   */\n      dup4\n        /* \"#utility.yul\":2057:2058   */\n      dup2\n        /* \"#utility.yul\":2054:2067   */\n      lt\n        /* \"#utility.yul\":2046:2159   */\n      iszero\n      tag_96\n      jumpi\n        /* \"#utility.yul\":2145:2146   */\n      dup1\n        /* \"#utility.yul\":2140:2143   */\n      dup3\n        /* \"#utility.yul\":2136:2147   */\n      add\n        /* \"#utility.yul\":2130:2148   */\n      mload\n        /* \"#utility.yul\":2126:2127   */\n      dup2\n        /* \"#utility.yul\":2121:2124   */\n      dup5\n        /* \"#utility.yul\":2117:2128   */\n      add\n        /* \"#utility.yul\":2110:2149   */\n      mstore\n        /* \"#utility.yul\":2082:2084   */\n      0x20\n        /* \"#utility.yul\":2079:2080   */\n      dup2\n        /* \"#utility.yul\":2075:2085   */\n      add\n        /* \"#utility.yul\":2070:2085   */\n      swap1\n      pop\n        /* \"#utility.yul\":2046:2159   */\n      jump(tag_94)\n    tag_96:\n        /* \"#utility.yul\":2193:2194   */\n      0x00\n        /* \"#utility.yul\":2184:2190   */\n      dup5\n        /* \"#utility.yul\":2179:2182   */\n      dup5\n        /* \"#utility.yul\":2175:2191   */\n      add\n        /* \"#utility.yul\":2168:2195   */\n      mstore\n        /* \"#utility.yul\":2017:2201   */\n      pop\n        /* \"#utility.yul\":1955:2201   */\n      pop\n      pop\n      pop\n      jump\t// out\n        /* \"#utility.yul\":2207:2309   */\n    tag_50:\n        /* \"#utility.yul\":2248:2254   */\n      0x00\n        /* \"#utility.yul\":2299:2301   */\n      0x1f\n        /* \"#utility.yul\":2295:2302   */\n      not\n        /* \"#utility.yul\":2290:2292   */\n      0x1f\n        /* \"#utility.yul\":2283:2288   */\n      dup4\n        /* \"#utility.yul\":2279:2293   */\n      add\n        /* \"#utility.yul\":2275:2303   */\n      and\n        /* \"#utility.yul\":2265:2303   */\n      swap1\n      pop\n        /* \"#utility.yul\":2207:2309   */\n      swap2\n      swap1\n      pop\n      jump\t// out\n        /* \"#utility.yul\":2315:2688   */\n    tag_51:\n        /* \"#utility.yul\":2401:2404   */\n      0x00\n        /* \"#utility.yul\":2429:2467   */\n      tag_99\n        /* \"#utility.yul\":2461:2466   */\n      dup3\n        /* \"#utility.yul\":2429:2467   */\n      tag_47\n      jump\t// in\n    tag_99:\n        /* \"#utility.yul\":2483:2553   */\n      tag_100\n        /* \"#utility.yul\":2546:2552   */\n      dup2\n        /* \"#utility.yul\":2541:2544   */\n      dup6\n        /* \"#utility.yul\":2483:2553   */\n      tag_48\n      jump\t// in\n    tag_100:\n        /* \"#utility.yul\":2476:2553   */\n      swap4\n      pop\n        /* \"#utility.yul\":2562:2627   */\n      tag_101\n        /* \"#utility.yul\":2620:2626   */\n      dup2\n        /* \"#utility.yul\":2615:2618   */\n      dup6\n        /* \"#utility.yul\":2608:2612   */\n      0x20\n        /* \"#utility.yul\":2601:2606   */\n      dup7\n        /* \"#utility.yul\":2597:2613   */\n      add\n        /* \"#utility.yul\":2562:2627   */\n      tag_49\n      jump\t// in\n    tag_101:\n        /* \"#utility.yul\":2652:2681   */\n      tag_102\n        /* \"#utility.yul\":2674:2680   */\n      dup2\n        /* \"#utility.yul\":2652:2681   */\n      tag_50\n      jump\t// in\n    tag_102:\n        /* \"#utility.yul\":2647:2650   */\n      dup5\n        /* \"#utility.yul\":2643:2682   */\n      add\n        /* \"#utility.yul\":2636:2682   */\n      swap2\n      pop\n        /* \"#utility.yul\":2405:2688   */\n      pop\n        /* \"#utility.yul\":2315:2688   */\n      swap3\n      swap2\n      pop\n      pop\n      jump\t// out\n        /* \"#utility.yul\":2694:3003   */\n    tag_11:\n        /* \"#utility.yul\":2805:2809   */\n      0x00\n        /* \"#utility.yul\":2843:2845   */\n      0x20\n        /* \"#utility.yul\":2832:2841   */\n      dup3\n        /* \"#utility.yul\":2828:2846   */\n      add\n        /* \"#utility.yul\":2820:2846   */\n      swap1\n      pop\n        /* \"#utility.yul\":2892:2901   */\n      dup2\n        /* \"#utility.yul\":2886:2890   */\n      dup2\n        /* \"#utility.yul\":2882:2902   */\n      sub\n        /* \"#utility.yul\":2878:2879   */\n      0x00\n        /* \"#utility.yul\":2867:2876   */\n      dup4\n        /* \"#utility.yul\":2863:2880   */\n      add\n        /* \"#utility.yul\":2856:2903   */\n      mstore\n        /* \"#utility.yul\":2920:2996   */\n      tag_104\n        /* \"#utility.yul\":2991:2995   */\n      dup2\n        /* \"#utility.yul\":2982:2988   */\n      dup5\n        /* \"#utility.yul\":2920:2996   */\n      tag_51\n      jump\t// in\n    tag_104:\n        /* \"#utility.yul\":2912:2996   */\n      swap1\n      pop\n        /* \"#utility.yul\":2694:3003   */\n      swap3\n      swap2\n      pop\n      pop\n      jump\t// out\n        /* \"#utility.yul\":3009:3126   */\n    tag_52:\n        /* \"#utility.yul\":3118:3119   */\n      0x00\n        /* \"#utility.yul\":3115:3116   */\n      dup1\n        /* \"#utility.yul\":3108:3120   */\n      revert\n        /* \"#utility.yul\":3132:3249   */\n    tag_53:\n        /* \"#utility.yul\":3241:3242   */\n      0x00\n        /* \"#utility.yul\":3238:3239   */\n      dup1\n        /* \"#utility.yul\":3231:3243   */\n      revert\n        /* \"#utility.yul\":3255:3435   */\n    tag_54:\n        /* \"#utility.yul\":3303:3380   */\n      0x4e487b7100000000000000000000000000000000000000000000000000000000\n        /* \"#utility.yul\":3300:3301   */\n      0x00\n        /* \"#utility.yul\":3293:3381   */\n      mstore\n        /* \"#utility.yul\":3400:3404   */\n      0x41\n        /* \"#utility.yul\":3397:3398   */\n      0x04\n        /* \"#utility.yul\":3390:3405   */\n      mstore\n        /* \"#utility.yul\":3424:3428   */\n      0x24\n        /* \"#utility.yul\":3421:3422   */\n      0x00\n        /* \"#utility.yul\":3414:3429   */\n      revert\n        /* \"#utility.yul\":3441:3722   */\n    tag_55:\n        /* \"#utility.yul\":3524:3551   */\n      tag_109\n        /* \"#utility.yul\":3546:3550   */\n      dup3\n        /* \"#utility.yul\":3524:3551   */\n      tag_50\n      jump\t// in\n    tag_109:\n        /* \"#utility.yul\":3516:3522   */\n      dup2\n        /* \"#utility.yul\":3512:3552   */\n      add\n        /* \"#utility.yul\":3654:3660   */\n      dup2\n        /* \"#utility.yul\":3642:3652   */\n      dup2\n        /* \"#utility.yul\":3639:3661   */\n      lt\n        /* \"#utility.yul\":3618:3636   */\n      0xffffffffffffffff\n        /* \"#utility.yul\":3606:3616   */\n      dup3\n        /* \"#utility.yul\":3603:3637   */\n      gt\n        /* \"#utility.yul\":3600:3662   */\n      or\n        /* \"#utility.yul\":3597:3685   */\n      iszero\n      tag_110\n      jumpi\n        /* \"#utility.yul\":3665:3683   */\n      tag_111\n      tag_54\n      jump\t// in\n    tag_111:\n        /* \"#utility.yul\":3597:3685   */\n    tag_110:\n        /* \"#utility.yul\":3705:3715   */\n      dup1\n        /* \"#utility.yul\":3701:3703   */\n      0x40\n        /* \"#utility.yul\":3694:3716   */\n      mstore\n        /* \"#utility.yul\":3484:3722   */\n      pop\n        /* \"#utility.yul\":3441:3722   */\n      pop\n      pop\n      jump\t// out\n        /* \"#utility.yul\":3728:3857   */\n    tag_56:\n        /* \"#utility.yul\":3762:3768   */\n      0x00\n        /* \"#utility.yul\":3789:3809   */\n      tag_113\n      tag_37\n      jump\t// in\n    tag_113:\n        /* \"#utility.yul\":3779:3809   */\n      swap1\n      pop\n        /* \"#utility.yul\":3818:3851   */\n      tag_114\n        /* \"#utility.yul\":3846:3850   */\n      dup3\n        /* \"#utility.yul\":3838:3844   */\n      dup3\n        /* \"#utility.yul\":3818:3851   */\n      tag_55\n      jump\t// in\n    tag_114:\n        /* \"#utility.yul\":3728:3857   */\n      swap2\n      swap1\n      pop\n      jump\t// out\n        /* \"#utility.yul\":3863:4170   */\n    tag_57:\n        /* \"#utility.yul\":3924:3928   */\n      0x00\n        /* \"#utility.yul\":4014:4032   */\n      0xffffffffffffffff\n        /* \"#utility.yul\":4006:4012   */\n      dup3\n        /* \"#utility.yul\":4003:4033   */\n      gt\n        /* \"#utility.yul\":4000:4056   */\n      iszero\n      tag_116\n      jumpi\n        /* \"#utility.yul\":4036:4054   */\n      tag_117\n      tag_54\n      jump\t// in\n    tag_117:\n        /* \"#utility.yul\":4000:4056   */\n    tag_116:\n        /* \"#utility.yul\":4074:4103   */\n      tag_118\n        /* \"#utility.yul\":4096:4102   */\n      dup3\n        /* \"#utility.yul\":4074:4103   */\n      tag_50\n      jump\t// in\n    tag_118:\n        /* \"#utility.yul\":4066:4103   */\n      swap1\n      pop\n        /* \"#utility.yul\":4158:4162   */\n      0x20\n        /* \"#utility.yul\":4152:4156   */\n      dup2\n        /* \"#utility.yul\":4148:4163   */\n      add\n        /* \"#utility.yul\":4140:4163   */\n      swap1\n      pop\n        /* \"#utility.yul\":3863:4170   */\n      swap2\n      swap1\n      pop\n      jump\t// out\n        /* \"#utility.yul\":4176:4322   */\n    tag_58:\n        /* \"#utility.yul\":4273:4279   */\n      dup3\n        /* \"#utility.yul\":4268:4271   */\n      dup2\n        /* \"#utility.yul\":4263:4266   */\n      dup4\n        /* \"#utility.yul\":4250:4280   */\n      calldatacopy\n        /* \"#utility.yul\":4314:4315   */\n      0x00\n        /* \"#utility.yul\":4305:4311   */\n      dup4\n        /* \"#utility.yul\":4300:4303   */\n      dup4\n        /* \"#utility.yul\":4296:4312   */\n      add\n        /* \"#utility.yul\":4289:4316   */\n      mstore\n        /* \"#utility.yul\":4176:4322   */\n      pop\n      pop\n      pop\n      jump\t// out\n        /* \"#utility.yul\":4328:4751   */\n    tag_59:\n        /* \"#utility.yul\":4405:4410   */\n      0x00\n        /* \"#utility.yul\":4430:4495   */\n      tag_121\n        /* \"#utility.yul\":4446:4494   */\n      tag_122\n        /* \"#utility.yul\":4487:4493   */\n      dup5\n        /* \"#utility.yul\":4446:4494   */\n      tag_57\n      jump\t// in\n    tag_122:\n        /* \"#utility.yul\":4430:4495   */\n      tag_56\n      jump\t// in\n    tag_121:\n        /* \"#utility.yul\":4421:4495   */\n      swap1\n      pop\n        /* \"#utility.yul\":4518:4524   */\n      dup3\n        /* \"#utility.yul\":4511:4516   */\n      dup2\n        /* \"#utility.yul\":4504:4525   */\n      mstore\n        /* \"#utility.yul\":4556:4560   */\n      0x20\n        /* \"#utility.yul\":4549:4554   */\n      dup2\n        /* \"#utility.yul\":4545:4561   */\n      add\n        /* \"#utility.yul\":4594:4597   */\n      dup5\n        /* \"#utility.yul\":4585:4591   */\n      dup5\n        /* \"#utility.yul\":4580:4583   */\n      dup5\n        /* \"#utility.yul\":4576:4592   */\n      add\n        /* \"#utility.yul\":4573:4598   */\n      gt\n        /* \"#utility.yul\":4570:4682   */\n      iszero\n      tag_123\n      jumpi\n        /* \"#utility.yul\":4601:4680   */\n      tag_124\n      tag_53\n      jump\t// in\n    tag_124:\n        /* \"#utility.yul\":4570:4682   */\n    tag_123:\n        /* \"#utility.yul\":4691:4745   */\n      tag_125\n        /* \"#utility.yul\":4738:4744   */\n      dup5\n        /* \"#utility.yul\":4733:4736   */\n      dup3\n        /* \"#utility.yul\":4728:4731   */\n      dup6\n        /* \"#utility.yul\":4691:4745   */\n      tag_58\n      jump\t// in\n    tag_125:\n        /* \"#utility.yul\":4411:4751   */\n      pop\n        /* \"#utility.yul\":4328:4751   */\n      swap4\n      swap3\n      pop\n      pop\n      pop\n      jump\t// out\n        /* \"#utility.yul\":4770:5108   */\n    tag_60:\n        /* \"#utility.yul\":4825:4830   */\n      0x00\n        /* \"#utility.yul\":4874:4877   */\n      dup3\n        /* \"#utility.yul\":4867:4871   */\n      0x1f\n        /* \"#utility.yul\":4859:4865   */\n      dup4\n        /* \"#utility.yul\":4855:4872   */\n      add\n        /* \"#utility.yul\":4851:4878   */\n      slt\n        /* \"#utility.yul\":4841:4963   */\n      tag_127\n      jumpi\n        /* \"#utility.yul\":4882:4961   */\n      tag_128\n      tag_52\n      jump\t// in\n    tag_128:\n        /* \"#utility.yul\":4841:4963   */\n    tag_127:\n        /* \"#utility.yul\":4999:5005   */\n      dup2\n        /* \"#utility.yul\":4986:5006   */\n      calldataload\n        /* \"#utility.yul\":5024:5102   */\n      tag_129\n        /* \"#utility.yul\":5098:5101   */\n      dup5\n        /* \"#utility.yul\":5090:5096   */\n      dup3\n        /* \"#utility.yul\":5083:5087   */\n      0x20\n        /* \"#utility.yul\":5075:5081   */\n      dup7\n        /* \"#utility.yul\":5071:5088   */\n      add\n        /* \"#utility.yul\":5024:5102   */\n      tag_59\n      jump\t// in\n    tag_129:\n        /* \"#utility.yul\":5015:5102   */\n      swap2\n      pop\n        /* \"#utility.yul\":4831:5108   */\n      pop\n        /* \"#utility.yul\":4770:5108   */\n      swap3\n      swap2\n      pop\n      pop\n      jump\t// out\n        /* \"#utility.yul\":5114:5766   */\n    tag_14:\n        /* \"#utility.yul\":5191:5197   */\n      0x00\n        /* \"#utility.yul\":5199:5205   */\n      dup1\n        /* \"#utility.yul\":5248:5250   */\n      0x40\n        /* \"#utility.yul\":5236:5245   */\n      dup4\n        /* \"#utility.yul\":5227:5234   */\n      dup6\n        /* \"#utility.yul\":5223:5246   */\n      sub\n        /* \"#utility.yul\":5219:5251   */\n      slt\n        /* \"#utility.yul\":5216:5335   */\n      iszero\n      tag_131\n      jumpi\n        /* \"#utility.yul\":5254:5333   */\n      tag_132\n      tag_38\n      jump\t// in\n    tag_132:\n        /* \"#utility.yul\":5216:5335   */\n    tag_131:\n        /* \"#utility.yul\":5402:5403   */\n      0x00\n        /* \"#utility.yul\":5391:5400   */\n      dup4\n        /* \"#utility.yul\":5387:5404   */\n      add\n        /* \"#utility.yul\":5374:5405   */\n      calldataload\n        /* \"#utility.yul\":5432:5450   */\n      0xffffffffffffffff\n        /* \"#utility.yul\":5424:5430   */\n      dup2\n        /* \"#utility.yul\":5421:5451   */\n      gt\n        /* \"#utility.yul\":5418:5535   */\n      iszero\n      tag_133\n      jumpi\n        /* \"#utility.yul\":5454:5533   */\n      tag_134\n      tag_39\n      jump\t// in\n    tag_134:\n        /* \"#utility.yul\":5418:5535   */\n    tag_133:\n        /* \"#utility.yul\":5559:5621   */\n      tag_135\n        /* \"#utility.yul\":5613:5620   */\n      dup6\n        /* \"#utility.yul\":5604:5610   */\n      dup3\n        /* \"#utility.yul\":5593:5602   */\n      dup7\n        /* \"#utility.yul\":5589:5611   */\n      add\n        /* \"#utility.yul\":5559:5621   */\n      tag_60\n      jump\t// in\n    tag_135:\n        /* \"#utility.yul\":5549:5621   */\n      swap3\n      pop\n        /* \"#utility.yul\":5345:5631   */\n      pop\n        /* \"#utility.yul\":5670:5672   */\n      0x20\n        /* \"#utility.yul\":5696:5749   */\n      tag_136\n        /* \"#utility.yul\":5741:5748   */\n      dup6\n        /* \"#utility.yul\":5732:5738   */\n      dup3\n        /* \"#utility.yul\":5721:5730   */\n      dup7\n        /* \"#utility.yul\":5717:5739   */\n      add\n        /* \"#utility.yul\":5696:5749   */\n      tag_46\n      jump\t// in\n    tag_136:\n        /* \"#utility.yul\":5686:5749   */\n      swap2\n      pop\n        /* \"#utility.yul\":5641:5759   */\n      pop\n        /* \"#utility.yul\":5114:5766   */\n      swap3\n      pop\n      swap3\n      swap1\n      pop\n      jump\t// out\n        /* \"#utility.yul\":5772:5890   */\n    tag_61:\n        /* \"#utility.yul\":5859:5883   */\n      tag_138\n        /* \"#utility.yul\":5877:5882   */\n      dup2\n        /* \"#utility.yul\":5859:5883   */\n      tag_41\n      jump\t// in\n    tag_138:\n        /* \"#utility.yul\":5854:5857   */\n      dup3\n        /* \"#utility.yul\":5847:5884   */\n      mstore\n        /* \"#utility.yul\":5772:5890   */\n      pop\n      pop\n      jump\t// out\n        /* \"#utility.yul\":5896:6118   */\n    tag_17:\n        /* \"#utility.yul\":5989:5993   */\n      0x00\n        /* \"#utility.yul\":6027:6029   */\n      0x20\n        /* \"#utility.yul\":6016:6025   */\n      dup3\n        /* \"#utility.yul\":6012:6030   */\n      add\n        /* \"#utility.yul\":6004:6030   */\n      swap1\n      pop\n        /* \"#utility.yul\":6040:6111   */\n      tag_140\n        /* \"#utility.yul\":6108:6109   */\n      0x00\n        /* \"#utility.yul\":6097:6106   */\n      dup4\n        /* \"#utility.yul\":6093:6110   */\n      add\n        /* \"#utility.yul\":6084:6090   */\n      dup5\n        /* \"#utility.yul\":6040:6111   */\n      tag_61\n      jump\t// in\n    tag_140:\n        /* \"#utility.yul\":5896:6118   */\n      swap3\n      swap2\n      pop\n      pop\n      jump\t// out\n        /* \"#utility.yul\":6124:6453   */\n    tag_20:\n        /* \"#utility.yul\":6183:6189   */\n      0x00\n        /* \"#utility.yul\":6232:6234   */\n      0x20\n        /* \"#utility.yul\":6220:6229   */\n      dup3\n        /* \"#utility.yul\":6211:6218   */\n      dup5\n        /* \"#utility.yul\":6207:6230   */\n      sub\n        /* \"#utility.yul\":6203:6235   */\n      slt\n        /* \"#utility.yul\":6200:6319   */\n      iszero\n      tag_142\n      jumpi\n        /* \"#utility.yul\":6238:6317   */\n      tag_143\n      tag_38\n      jump\t// in\n    tag_143:\n        /* \"#utility.yul\":6200:6319   */\n    tag_142:\n        /* \"#utility.yul\":6358:6359   */\n      0x00\n        /* \"#utility.yul\":6383:6436   */\n      tag_144\n        /* \"#utility.yul\":6428:6435   */\n      dup5\n        /* \"#utility.yul\":6419:6425   */\n      dup3\n        /* \"#utility.yul\":6408:6417   */\n      dup6\n        /* \"#utility.yul\":6404:6426   */\n      add\n        /* \"#utility.yul\":6383:6436   */\n      tag_46\n      jump\t// in\n    tag_144:\n        /* \"#utility.yul\":6373:6436   */\n      swap2\n      pop\n        /* \"#utility.yul\":6329:6446   */\n      pop\n        /* \"#utility.yul\":6124:6453   */\n      swap3\n      swap2\n      pop\n      pop\n      jump\t// out\n        /* \"#utility.yul\":6459:6577   */\n    tag_62:\n        /* \"#utility.yul\":6546:6570   */\n      tag_146\n        /* \"#utility.yul\":6564:6569   */\n      dup2\n        /* \"#utility.yul\":6546:6570   */\n      tag_44\n      jump\t// in\n    tag_146:\n        /* \"#utility.yul\":6541:6544   */\n      dup3\n        /* \"#utility.yul\":6534:6571   */\n      mstore\n        /* \"#utility.yul\":6459:6577   */\n      pop\n      pop\n      jump\t// out\n        /* \"#utility.yul\":6583:6915   */\n    tag_27:\n        /* \"#utility.yul\":6704:6708   */\n      0x00\n        /* \"#utility.yul\":6742:6744   */\n      0x40\n        /* \"#utility.yul\":6731:6740   */\n      dup3\n        /* \"#utility.yul\":6727:6745   */\n      add\n        /* \"#utility.yul\":6719:6745   */\n      swap1\n      pop\n        /* \"#utility.yul\":6755:6826   */\n      tag_148\n        /* \"#utility.yul\":6823:6824   */\n      0x00\n        /* \"#utility.yul\":6812:6821   */\n      dup4\n        /* \"#utility.yul\":6808:6825   */\n      add\n        /* \"#utility.yul\":6799:6805   */\n      dup6\n        /* \"#utility.yul\":6755:6826   */\n      tag_61\n      jump\t// in\n    tag_148:\n        /* \"#utility.yul\":6836:6908   */\n      tag_149\n        /* \"#utility.yul\":6904:6906   */\n      0x20\n        /* \"#utility.yul\":6893:6902   */\n      dup4\n        /* \"#utility.yul\":6889:6907   */\n      add\n        /* \"#utility.yul\":6880:6886   */\n      dup5\n        /* \"#utility.yul\":6836:6908   */\n      tag_62\n      jump\t// in\n    tag_149:\n        /* \"#utility.yul\":6583:6915   */\n      swap4\n      swap3\n      pop\n      pop\n      pop\n      jump\t// out\n        /* \"#utility.yul\":6921:7068   */\n    tag_63:\n        /* \"#utility.yul\":7022:7033   */\n      0x00\n        /* \"#utility.yul\":7059:7062   */\n      dup2\n        /* \"#utility.yul\":7044:7062   */\n      swap1\n      pop\n        /* \"#utility.yul\":6921:7068   */\n      swap3\n      swap2\n      pop\n      pop\n      jump\t// out\n        /* \"#utility.yul\":7074:7460   */\n    tag_64:\n        /* \"#utility.yul\":7178:7181   */\n      0x00\n        /* \"#utility.yul\":7206:7244   */\n      tag_152\n        /* \"#utility.yul\":7238:7243   */\n      dup3\n        /* \"#utility.yul\":7206:7244   */\n      tag_47\n      jump\t// in\n    tag_152:\n        /* \"#utility.yul\":7260:7348   */\n      tag_153\n        /* \"#utility.yul\":7341:7347   */\n      dup2\n        /* \"#utility.yul\":7336:7339   */\n      dup6\n        /* \"#utility.yul\":7260:7348   */\n      tag_63\n      jump\t// in\n    tag_153:\n        /* \"#utility.yul\":7253:7348   */\n      swap4\n      pop\n        /* \"#utility.yul\":7357:7422   */\n      tag_154\n        /* \"#utility.yul\":7415:7421   */\n      dup2\n        /* \"#utility.yul\":7410:7413   */\n      dup6\n        /* \"#utility.yul\":7403:7407   */\n      0x20\n        /* \"#utility.yul\":7396:7401   */\n      dup7\n        /* \"#utility.yul\":7392:7408   */\n      add\n        /* \"#utility.yul\":7357:7422   */\n      tag_49\n      jump\t// in\n    tag_154:\n        /* \"#utility.yul\":7447:7453   */\n      dup1\n        /* \"#utility.yul\":7442:7445   */\n      dup5\n        /* \"#utility.yul\":7438:7454   */\n      add\n        /* \"#utility.yul\":7431:7454   */\n      swap2\n      pop\n        /* \"#utility.yul\":7182:7460   */\n      pop\n        /* \"#utility.yul\":7074:7460   */\n      swap3\n      swap2\n      pop\n      pop\n      jump\t// out\n        /* \"#utility.yul\":7466:7893   */\n    tag_29:\n        /* \"#utility.yul\":7642:7645   */\n      0x00\n        /* \"#utility.yul\":7664:7757   */\n      tag_156\n        /* \"#utility.yul\":7753:7756   */\n      dup3\n        /* \"#utility.yul\":7744:7750   */\n      dup6\n        /* \"#utility.yul\":7664:7757   */\n      tag_64\n      jump\t// in\n    tag_156:\n        /* \"#utility.yul\":7657:7757   */\n      swap2\n      pop\n        /* \"#utility.yul\":7774:7867   */\n      tag_157\n        /* \"#utility.yul\":7863:7866   */\n      dup3\n        /* \"#utility.yul\":7854:7860   */\n      dup5\n        /* \"#utility.yul\":7774:7867   */\n      tag_64\n      jump\t// in\n    tag_157:\n        /* \"#utility.yul\":7767:7867   */\n      swap2\n      pop\n        /* \"#utility.yul\":7884:7887   */\n      dup2\n        /* \"#utility.yul\":7877:7887   */\n      swap1\n      pop\n        /* \"#utility.yul\":7466:7893   */\n      swap4\n      swap3\n      pop\n      pop\n      pop\n      jump\t// out\n        /* \"#utility.yul\":7899:8068   */\n    tag_65:\n        /* \"#utility.yul\":7983:7994   */\n      0x00\n        /* \"#utility.yul\":8017:8023   */\n      dup3\n        /* \"#utility.yul\":8012:8015   */\n      dup3\n        /* \"#utility.yul\":8005:8024   */\n      mstore\n        /* \"#utility.yul\":8057:8061   */\n      0x20\n        /* \"#utility.yul\":8052:8055   */\n      dup3\n        /* \"#utility.yul\":8048:8062   */\n      add\n        /* \"#utility.yul\":8033:8062   */\n      swap1\n      pop\n        /* \"#utility.yul\":7899:8068   */\n      swap3\n      swap2\n      pop\n      pop\n      jump\t// out\n        /* \"#utility.yul\":8074:8240   */\n    tag_66:\n        /* \"#utility.yul\":8214:8232   */\n      0x62797465636f6465206973207a65726f00000000000000000000000000000000\n        /* \"#utility.yul\":8210:8211   */\n      0x00\n        /* \"#utility.yul\":8202:8208   */\n      dup3\n        /* \"#utility.yul\":8198:8212   */\n      add\n        /* \"#utility.yul\":8191:8233   */\n      mstore\n        /* \"#utility.yul\":8074:8240   */\n      pop\n      jump\t// out\n        /* \"#utility.yul\":8246:8612   */\n    tag_67:\n        /* \"#utility.yul\":8388:8391   */\n      0x00\n        /* \"#utility.yul\":8409:8476   */\n      tag_161\n        /* \"#utility.yul\":8473:8475   */\n      0x10\n        /* \"#utility.yul\":8468:8471   */\n      dup4\n        /* \"#utility.yul\":8409:8476   */\n      tag_65\n      jump\t// in\n    tag_161:\n        /* \"#utility.yul\":8402:8476   */\n      swap2\n      pop\n        /* \"#utility.yul\":8485:8578   */\n      tag_162\n        /* \"#utility.yul\":8574:8577   */\n      dup3\n        /* \"#utility.yul\":8485:8578   */\n      tag_66\n      jump\t// in\n    tag_162:\n        /* \"#utility.yul\":8603:8605   */\n      0x20\n        /* \"#utility.yul\":8598:8601   */\n      dup3\n        /* \"#utility.yul\":8594:8606   */\n      add\n        /* \"#utility.yul\":8587:8606   */\n      swap1\n      pop\n        /* \"#utility.yul\":8246:8612   */\n      swap2\n      swap1\n      pop\n      jump\t// out\n        /* \"#utility.yul\":8618:9037   */\n    tag_33:\n        /* \"#utility.yul\":8784:8788   */\n      0x00\n        /* \"#utility.yul\":8822:8824   */\n      0x20\n        /* \"#utility.yul\":8811:8820   */\n      dup3\n        /* \"#utility.yul\":8807:8825   */\n      add\n        /* \"#utility.yul\":8799:8825   */\n      swap1\n      pop\n        /* \"#utility.yul\":8871:8880   */\n      dup2\n        /* \"#utility.yul\":8865:8869   */\n      dup2\n        /* \"#utility.yul\":8861:8881   */\n      sub\n        /* \"#utility.yul\":8857:8858   */\n      0x00\n        /* \"#utility.yul\":8846:8855   */\n      dup4\n        /* \"#utility.yul\":8842:8859   */\n      add\n        /* \"#utility.yul\":8835:8882   */\n      mstore\n        /* \"#utility.yul\":8899:9030   */\n      tag_164\n        /* \"#utility.yul\":9025:9029   */\n      dup2\n        /* \"#utility.yul\":8899:9030   */\n      tag_67\n      jump\t// in\n    tag_164:\n        /* \"#utility.yul\":8891:9030   */\n      swap1\n      pop\n        /* \"#utility.yul\":8618:9037   */\n      swap2\n      swap1\n      pop\n      jump\t// out\n    stop\n\n    sub_0: assembly {\n            /* \"contracts/Demo14.sol\":3152:5386  contract DelegateCrowdfunding{... */\n          mstore(0x40, 0xc0)\n            /* \"contracts/Demo14.sol\":3451:3455  true */\n          0x01\n            /* \"contracts/Demo14.sol\":3427:3455  bool public validable = true */\n          0x02\n          exp(0x0100, 0x00)\n          dup2\n          sload\n          dup2\n          0xff\n          mul\n          not\n          and\n          swap1\n          dup4\n          iszero\n          iszero\n          mul\n          or\n          swap1\n          sstore\n          pop\n            /* \"contracts/Demo14.sol\":3506:3516  30 seconds */\n          0x1e\n            /* \"contracts/Demo14.sol\":3488:3503  block.timestamp */\n          timestamp\n            /* \"contracts/Demo14.sol\":3488:3516  block.timestamp + 30 seconds */\n          tag_1\n          swap2\n          swap1\n          tag_2\n          jump\t// in\n        tag_1:\n            /* \"contracts/Demo14.sol\":3462:3516  uint256 public deadline = block.timestamp + 30 seconds */\n          0x03\n          sstore\n            /* \"contracts/Demo14.sol\":3525:3661  constructor(address beneficiary_,uint256 fundingGoal_){... */\n          callvalue\n          dup1\n          iszero\n          tag_3\n          jumpi\n          0x00\n          dup1\n          revert\n        tag_3:\n          pop\n          mload(0x40)\n          sub(codesize, bytecodeSize)\n          dup1\n          bytecodeSize\n          dup4\n          codecopy\n          dup2\n          dup2\n          add\n          0x40\n          mstore\n          dup2\n          add\n          swap1\n          tag_4\n          swap2\n          swap1\n          tag_5\n          jump\t// in\n        tag_4:\n            /* \"contracts/Demo14.sol\":3604:3616  beneficiary_ */\n          dup2\n            /* \"contracts/Demo14.sol\":3590:3616  beneficiary = beneficiary_ */\n          0xffffffffffffffffffffffffffffffffffffffff\n          and\n          0x80\n          dup2\n          0xffffffffffffffffffffffffffffffffffffffff\n          and\n          dup2\n          mstore\n          pop\n          pop\n            /* \"contracts/Demo14.sol\":3641:3653  fundingGoal_ */\n          dup1\n            /* \"contracts/Demo14.sol\":3627:3653  fundingGoal = fundingGoal_ */\n          0xa0\n          dup2\n          dup2\n          mstore\n          pop\n          pop\n            /* \"contracts/Demo14.sol\":3525:3661  constructor(address beneficiary_,uint256 fundingGoal_){... */\n          pop\n          pop\n            /* \"contracts/Demo14.sol\":3152:5386  contract DelegateCrowdfunding{... */\n          jump(tag_8)\n            /* \"#utility.yul\":7:84   */\n        tag_9:\n            /* \"#utility.yul\":44:51   */\n          0x00\n            /* \"#utility.yul\":73:78   */\n          dup2\n            /* \"#utility.yul\":62:78   */\n          swap1\n          pop\n            /* \"#utility.yul\":7:84   */\n          swap2\n          swap1\n          pop\n          jump\t// out\n            /* \"#utility.yul\":90:270   */\n        tag_10:\n            /* \"#utility.yul\":138:215   */\n          0x4e487b7100000000000000000000000000000000000000000000000000000000\n            /* \"#utility.yul\":135:136   */\n          0x00\n            /* \"#utility.yul\":128:216   */\n          mstore\n            /* \"#utility.yul\":235:239   */\n          0x11\n            /* \"#utility.yul\":232:233   */\n          0x04\n            /* \"#utility.yul\":225:240   */\n          mstore\n            /* \"#utility.yul\":259:263   */\n          0x24\n            /* \"#utility.yul\":256:257   */\n          0x00\n            /* \"#utility.yul\":249:264   */\n          revert\n            /* \"#utility.yul\":276:467   */\n        tag_2:\n            /* \"#utility.yul\":316:319   */\n          0x00\n            /* \"#utility.yul\":335:355   */\n          tag_24\n            /* \"#utility.yul\":353:354   */\n          dup3\n            /* \"#utility.yul\":335:355   */\n          tag_9\n          jump\t// in\n        tag_24:\n            /* \"#utility.yul\":330:355   */\n          swap2\n          pop\n            /* \"#utility.yul\":369:389   */\n          tag_25\n            /* \"#utility.yul\":387:388   */\n          dup4\n            /* \"#utility.yul\":369:389   */\n          tag_9\n          jump\t// in\n        tag_25:\n            /* \"#utility.yul\":364:389   */\n          swap3\n          pop\n            /* \"#utility.yul\":412:413   */\n          dup3\n            /* \"#utility.yul\":409:410   */\n          dup3\n            /* \"#utility.yul\":405:414   */\n          add\n            /* \"#utility.yul\":398:414   */\n          swap1\n          pop\n            /* \"#utility.yul\":433:436   */\n          dup1\n            /* \"#utility.yul\":430:431   */\n          dup3\n            /* \"#utility.yul\":427:437   */\n          gt\n            /* \"#utility.yul\":424:460   */\n          iszero\n          tag_26\n          jumpi\n            /* \"#utility.yul\":440:458   */\n          tag_27\n          tag_10\n          jump\t// in\n        tag_27:\n            /* \"#utility.yul\":424:460   */\n        tag_26:\n            /* \"#utility.yul\":276:467   */\n          swap3\n          swap2\n          pop\n          pop\n          jump\t// out\n            /* \"#utility.yul\":554:671   */\n        tag_12:\n            /* \"#utility.yul\":663:664   */\n          0x00\n            /* \"#utility.yul\":660:661   */\n          dup1\n            /* \"#utility.yul\":653:665   */\n          revert\n            /* \"#utility.yul\":800:926   */\n        tag_14:\n            /* \"#utility.yul\":837:844   */\n          0x00\n            /* \"#utility.yul\":877:919   */\n          0xffffffffffffffffffffffffffffffffffffffff\n            /* \"#utility.yul\":870:875   */\n          dup3\n            /* \"#utility.yul\":866:920   */\n          and\n            /* \"#utility.yul\":855:920   */\n          swap1\n          pop\n            /* \"#utility.yul\":800:926   */\n          swap2\n          swap1\n          pop\n          jump\t// out\n            /* \"#utility.yul\":932:1028   */\n        tag_15:\n            /* \"#utility.yul\":969:976   */\n          0x00\n            /* \"#utility.yul\":998:1022   */\n          tag_33\n            /* \"#utility.yul\":1016:1021   */\n          dup3\n            /* \"#utility.yul\":998:1022   */\n          tag_14\n          jump\t// in\n        tag_33:\n            /* \"#utility.yul\":987:1022   */\n          swap1\n          pop\n            /* \"#utility.yul\":932:1028   */\n          swap2\n          swap1\n          pop\n          jump\t// out\n            /* \"#utility.yul\":1034:1156   */\n        tag_16:\n            /* \"#utility.yul\":1107:1131   */\n          tag_35\n            /* \"#utility.yul\":1125:1130   */\n          dup2\n            /* \"#utility.yul\":1107:1131   */\n          tag_15\n          jump\t// in\n        tag_35:\n            /* \"#utility.yul\":1100:1105   */\n          dup2\n            /* \"#utility.yul\":1097:1132   */\n          eq\n            /* \"#utility.yul\":1087:1150   */\n          tag_36\n          jumpi\n            /* \"#utility.yul\":1146:1147   */\n          0x00\n            /* \"#utility.yul\":1143:1144   */\n          dup1\n            /* \"#utility.yul\":1136:1148   */\n          revert\n            /* \"#utility.yul\":1087:1150   */\n        tag_36:\n            /* \"#utility.yul\":1034:1156   */\n          pop\n          jump\t// out\n            /* \"#utility.yul\":1162:1305   */\n        tag_17:\n            /* \"#utility.yul\":1219:1224   */\n          0x00\n            /* \"#utility.yul\":1250:1256   */\n          dup2\n            /* \"#utility.yul\":1244:1257   */\n          mload\n            /* \"#utility.yul\":1235:1257   */\n          swap1\n          pop\n            /* \"#utility.yul\":1266:1299   */\n          tag_38\n            /* \"#utility.yul\":1293:1298   */\n          dup2\n            /* \"#utility.yul\":1266:1299   */\n          tag_16\n          jump\t// in\n        tag_38:\n            /* \"#utility.yul\":1162:1305   */\n          swap3\n          swap2\n          pop\n          pop\n          jump\t// out\n            /* \"#utility.yul\":1311:1433   */\n        tag_18:\n            /* \"#utility.yul\":1384:1408   */\n          tag_40\n            /* \"#utility.yul\":1402:1407   */\n          dup2\n            /* \"#utility.yul\":1384:1408   */\n          tag_9\n          jump\t// in\n        tag_40:\n            /* \"#utility.yul\":1377:1382   */\n          dup2\n            /* \"#utility.yul\":1374:1409   */\n          eq\n            /* \"#utility.yul\":1364:1427   */\n          tag_41\n          jumpi\n            /* \"#utility.yul\":1423:1424   */\n          0x00\n            /* \"#utility.yul\":1420:1421   */\n          dup1\n            /* \"#utility.yul\":1413:1425   */\n          revert\n            /* \"#utility.yul\":1364:1427   */\n        tag_41:\n            /* \"#utility.yul\":1311:1433   */\n          pop\n          jump\t// out\n            /* \"#utility.yul\":1439:1582   */\n        tag_19:\n            /* \"#utility.yul\":1496:1501   */\n          0x00\n            /* \"#utility.yul\":1527:1533   */\n          dup2\n            /* \"#utility.yul\":1521:1534   */\n          mload\n            /* \"#utility.yul\":1512:1534   */\n          swap1\n          pop\n            /* \"#utility.yul\":1543:1576   */\n          tag_43\n            /* \"#utility.yul\":1570:1575   */\n          dup2\n            /* \"#utility.yul\":1543:1576   */\n          tag_18\n          jump\t// in\n        tag_43:\n            /* \"#utility.yul\":1439:1582   */\n          swap3\n          swap2\n          pop\n          pop\n          jump\t// out\n            /* \"#utility.yul\":1588:2095   */\n        tag_5:\n            /* \"#utility.yul\":1667:1673   */\n          0x00\n            /* \"#utility.yul\":1675:1681   */\n          dup1\n            /* \"#utility.yul\":1724:1726   */\n          0x40\n            /* \"#utility.yul\":1712:1721   */\n          dup4\n            /* \"#utility.yul\":1703:1710   */\n          dup6\n            /* \"#utility.yul\":1699:1722   */\n          sub\n            /* \"#utility.yul\":1695:1727   */\n          slt\n            /* \"#utility.yul\":1692:1811   */\n          iszero\n          tag_45\n          jumpi\n            /* \"#utility.yul\":1730:1809   */\n          tag_46\n          tag_12\n          jump\t// in\n        tag_46:\n            /* \"#utility.yul\":1692:1811   */\n        tag_45:\n            /* \"#utility.yul\":1850:1851   */\n          0x00\n            /* \"#utility.yul\":1875:1939   */\n          tag_47\n            /* \"#utility.yul\":1931:1938   */\n          dup6\n            /* \"#utility.yul\":1922:1928   */\n          dup3\n            /* \"#utility.yul\":1911:1920   */\n          dup7\n            /* \"#utility.yul\":1907:1929   */\n          add\n            /* \"#utility.yul\":1875:1939   */\n          tag_17\n          jump\t// in\n        tag_47:\n            /* \"#utility.yul\":1865:1939   */\n          swap3\n          pop\n            /* \"#utility.yul\":1821:1949   */\n          pop\n            /* \"#utility.yul\":1988:1990   */\n          0x20\n            /* \"#utility.yul\":2014:2078   */\n          tag_48\n            /* \"#utility.yul\":2070:2077   */\n          dup6\n            /* \"#utility.yul\":2061:2067   */\n          dup3\n            /* \"#utility.yul\":2050:2059   */\n          dup7\n            /* \"#utility.yul\":2046:2068   */\n          add\n            /* \"#utility.yul\":2014:2078   */\n          tag_19\n          jump\t// in\n        tag_48:\n            /* \"#utility.yul\":2004:2078   */\n          swap2\n          pop\n            /* \"#utility.yul\":1959:2088   */\n          pop\n            /* \"#utility.yul\":1588:2095   */\n          swap3\n          pop\n          swap3\n          swap1\n          pop\n          jump\t// out\n            /* \"contracts/Demo14.sol\":3152:5386  contract DelegateCrowdfunding{... */\n        tag_8:\n          mload(0x80)\n          mload(0xa0)\n          codecopy(0x00, dataOffset(sub_0), dataSize(sub_0))\n          0x00\n          assignImmutable(\"0xce47c6a6203c86acfd7865975167278728484259db8b8a7290f4c95a7e90b8b5\")\n          0x00\n          assignImmutable(\"0x02a376f5b86b2a0b74ef8a37fb97e833964982679603a95fa2ae2b100dd27bab\")\n          return(0x00, dataSize(sub_0))\n        stop\n\n        sub_0: assembly {\n                /* \"contracts/Demo14.sol\":3152:5386  contract DelegateCrowdfunding{... */\n              mstore(0x40, 0x80)\n              jumpi(tag_1, lt(calldatasize, 0x04))\n              shr(0xe0, calldataload(0x00))\n              dup1\n              0xb3de648b\n              gt\n              tag_14\n              jumpi\n              dup1\n              0xb3de648b\n              eq\n              tag_8\n              jumpi\n              dup1\n              0xc74073a1\n              eq\n              tag_9\n              jumpi\n              dup1\n              0xdc0d3dff\n              eq\n              tag_10\n              jumpi\n              dup1\n              0xdec16058\n              eq\n              tag_11\n              jumpi\n              dup1\n              0xe2dc4310\n              eq\n              tag_12\n              jumpi\n              dup1\n              0xf95e4368\n              eq\n              tag_13\n              jumpi\n              jump(tag_1)\n            tag_14:\n              dup1\n              0x04a79c97\n              eq\n              tag_2\n              jumpi\n              dup1\n              0x29dcb0cf\n              eq\n              tag_3\n              jumpi\n              dup1\n              0x38af3eed\n              eq\n              tag_4\n              jumpi\n              dup1\n              0x51cff8d9\n              eq\n              tag_5\n              jumpi\n              dup1\n              0x7a3a0e84\n              eq\n              tag_6\n              jumpi\n              dup1\n              0x94de8484\n              eq\n              tag_7\n              jumpi\n            tag_1:\n              0x00\n              dup1\n              revert\n                /* \"contracts/Demo14.sol\":3360:3388  uint256 public fundingAmount */\n            tag_2:\n              callvalue\n              dup1\n              iszero\n              tag_15\n              jumpi\n              0x00\n              dup1\n              revert\n            tag_15:\n              pop\n              tag_16\n              tag_17\n              jump\t// in\n            tag_16:\n              mload(0x40)\n              tag_18\n              swap2\n              swap1\n              tag_19\n              jump\t// in\n            tag_18:\n              mload(0x40)\n              dup1\n              swap2\n              sub\n              swap1\n              return\n                /* \"contracts/Demo14.sol\":3462:3516  uint256 public deadline = block.timestamp + 30 seconds */\n            tag_3:\n              callvalue\n              dup1\n              iszero\n              tag_20\n              jumpi\n              0x00\n              dup1\n              revert\n            tag_20:\n              pop\n              tag_21\n              tag_22\n              jump\t// in\n            tag_21:\n              mload(0x40)\n              tag_23\n              swap2\n              swap1\n              tag_19\n              jump\t// in\n            tag_23:\n              mload(0x40)\n              dup1\n              swap2\n              sub\n              swap1\n              return\n                /* \"contracts/Demo14.sol\":3267:3303  address public immutable beneficiary */\n            tag_4:\n              callvalue\n              dup1\n              iszero\n              tag_24\n              jumpi\n              0x00\n              dup1\n              revert\n            tag_24:\n              pop\n              tag_25\n              tag_26\n              jump\t// in\n            tag_25:\n              mload(0x40)\n              tag_27\n              swap2\n              swap1\n              tag_28\n              jump\t// in\n            tag_27:\n              mload(0x40)\n              dup1\n              swap2\n              sub\n              swap1\n              return\n                /* \"contracts/Demo14.sol\":4614:4920  function withdraw(address _delegateAddr) public returns(bool){... */\n            tag_5:\n              callvalue\n              dup1\n              iszero\n              tag_29\n              jumpi\n              0x00\n              dup1\n              revert\n            tag_29:\n              pop\n              tag_30\n              0x04\n              dup1\n              calldatasize\n              sub\n              dup2\n              add\n              swap1\n              tag_31\n              swap2\n              swap1\n              tag_32\n              jump\t// in\n            tag_31:\n              tag_33\n              jump\t// in\n            tag_30:\n              mload(0x40)\n              tag_34\n              swap2\n              swap1\n              tag_35\n              jump\t// in\n            tag_34:\n              mload(0x40)\n              dup1\n              swap2\n              sub\n              swap1\n              return\n                /* \"contracts/Demo14.sol\":3310:3346  uint256 public immutable fundingGoal */\n            tag_6:\n              callvalue\n              dup1\n              iszero\n              tag_36\n              jumpi\n              0x00\n              dup1\n              revert\n            tag_36:\n              pop\n              tag_37\n              tag_38\n              jump\t// in\n            tag_37:\n              mload(0x40)\n              tag_39\n              swap2\n              swap1\n              tag_19\n              jump\t// in\n            tag_39:\n              mload(0x40)\n              dup1\n              swap2\n              sub\n              swap1\n              return\n                /* \"contracts/Demo14.sol\":3427:3455  bool public validable = true */\n            tag_7:\n              callvalue\n              dup1\n              iszero\n              tag_40\n              jumpi\n              0x00\n              dup1\n              revert\n            tag_40:\n              pop\n              tag_41\n              tag_42\n              jump\t// in\n            tag_41:\n              mload(0x40)\n              tag_43\n              swap2\n              swap1\n              tag_35\n              jump\t// in\n            tag_43:\n              mload(0x40)\n              dup1\n              swap2\n              sub\n              swap1\n              return\n                /* \"contracts/Demo14.sol\":5264:5381  function f(uint x) public view returns (uint256 r) {... */\n            tag_8:\n              callvalue\n              dup1\n              iszero\n              tag_44\n              jumpi\n              0x00\n              dup1\n              revert\n            tag_44:\n              pop\n              tag_45\n              0x04\n              dup1\n              calldatasize\n              sub\n              dup2\n              add\n              swap1\n              tag_46\n              swap2\n              swap1\n              tag_47\n              jump\t// in\n            tag_46:\n              tag_48\n              jump\t// in\n            tag_45:\n              mload(0x40)\n              tag_49\n              swap2\n              swap1\n              tag_19\n              jump\t// in\n            tag_49:\n              mload(0x40)\n              dup1\n              swap2\n              sub\n              swap1\n              return\n                /* \"contracts/Demo14.sol\":4307:4606  function close(address _delegateAddr) public returns(bool){   ... */\n            tag_9:\n              callvalue\n              dup1\n              iszero\n              tag_50\n              jumpi\n              0x00\n              dup1\n              revert\n            tag_50:\n              pop\n              tag_51\n              0x04\n              dup1\n              calldatasize\n              sub\n              dup2\n              add\n              swap1\n              tag_52\n              swap2\n              swap1\n              tag_32\n              jump\t// in\n            tag_52:\n              tag_53\n              jump\t// in\n            tag_51:\n              mload(0x40)\n              tag_54\n              swap2\n              swap1\n              tag_35\n              jump\t// in\n            tag_54:\n              mload(0x40)\n              dup1\n              swap2\n              sub\n              swap1\n              return\n                /* \"contracts/Demo14.sol\":3395:3418  Funder[] public funders */\n            tag_10:\n              callvalue\n              dup1\n              iszero\n              tag_55\n              jumpi\n              0x00\n              dup1\n              revert\n            tag_55:\n              pop\n              tag_56\n              0x04\n              dup1\n              calldatasize\n              sub\n              dup2\n              add\n              swap1\n              tag_57\n              swap2\n              swap1\n              tag_47\n              jump\t// in\n            tag_57:\n              tag_58\n              jump\t// in\n            tag_56:\n              mload(0x40)\n              tag_59\n              swap3\n              swap2\n              swap1\n              tag_60\n              jump\t// in\n            tag_59:\n              mload(0x40)\n              dup1\n              swap2\n              sub\n              swap1\n              return\n                /* \"contracts/Demo14.sol\":3669:4038  function getFundersIndex(address _delegateAddr,address _addr) public returns(uint256 index_){... */\n            tag_11:\n              callvalue\n              dup1\n              iszero\n              tag_61\n              jumpi\n              0x00\n              dup1\n              revert\n            tag_61:\n              pop\n              tag_62\n              0x04\n              dup1\n              calldatasize\n              sub\n              dup2\n              add\n              swap1\n              tag_63\n              swap2\n              swap1\n              tag_64\n              jump\t// in\n            tag_63:\n              tag_65\n              jump\t// in\n            tag_62:\n              mload(0x40)\n              tag_66\n              swap2\n              swap1\n              tag_19\n              jump\t// in\n            tag_66:\n              mload(0x40)\n              dup1\n              swap2\n              sub\n              swap1\n              return\n                /* \"contracts/Demo14.sol\":4046:4299  function contribution(address _delegateAddr) public payable {... */\n            tag_12:\n              tag_67\n              0x04\n              dup1\n              calldatasize\n              sub\n              dup2\n              add\n              swap1\n              tag_68\n              swap2\n              swap1\n              tag_32\n              jump\t// in\n            tag_68:\n              tag_69\n              jump\t// in\n            tag_67:\n              stop\n                /* \"contracts/Demo14.sol\":4928:5256  function fundersLength(address _delegateAddr) public  returns(uint256){... */\n            tag_13:\n              callvalue\n              dup1\n              iszero\n              tag_70\n              jumpi\n              0x00\n              dup1\n              revert\n            tag_70:\n              pop\n              tag_71\n              0x04\n              dup1\n              calldatasize\n              sub\n              dup2\n              add\n              swap1\n              tag_72\n              swap2\n              swap1\n              tag_32\n              jump\t// in\n            tag_72:\n              tag_73\n              jump\t// in\n            tag_71:\n              mload(0x40)\n              tag_74\n              swap2\n              swap1\n              tag_19\n              jump\t// in\n            tag_74:\n              mload(0x40)\n              dup1\n              swap2\n              sub\n              swap1\n              return\n                /* \"contracts/Demo14.sol\":3360:3388  uint256 public fundingAmount */\n            tag_17:\n              sload(0x00)\n              dup2\n              jump\t// out\n                /* \"contracts/Demo14.sol\":3462:3516  uint256 public deadline = block.timestamp + 30 seconds */\n            tag_22:\n              sload(0x03)\n              dup2\n              jump\t// out\n                /* \"contracts/Demo14.sol\":3267:3303  address public immutable beneficiary */\n            tag_26:\n              immutable(\"0x02a376f5b86b2a0b74ef8a37fb97e833964982679603a95fa2ae2b100dd27bab\")\n              dup2\n              jump\t// out\n                /* \"contracts/Demo14.sol\":4614:4920  function withdraw(address _delegateAddr) public returns(bool){... */\n            tag_33:\n                /* \"contracts/Demo14.sol\":4670:4674  bool */\n              0x00\n                /* \"contracts/Demo14.sol\":4686:4703  bytes memory sign */\n              dup1\n                /* \"contracts/Demo14.sol\":4706:4743  abi.encodeWithSignature(\"withdraw()\") */\n              add(0x24, mload(0x40))\n              mload(0x40)\n              0x20\n              dup2\n              dup4\n              sub\n              sub\n              dup2\n              mstore\n              swap1\n              0x40\n              mstore\n              and(not(0xffffffffffffffffffffffffffffffffffffffffffffffffffffffff), 0x3ccfd60b00000000000000000000000000000000000000000000000000000000)\n              0x20\n              dup3\n              add\n              dup1\n              mload\n              0xffffffffffffffffffffffffffffffffffffffffffffffffffffffff\n              dup4\n              dup2\n              dup4\n              and\n              or\n              dup4\n              mstore\n              pop\n              pop\n              pop\n              pop\n                /* \"contracts/Demo14.sol\":4686:4743  bytes memory sign = abi.encodeWithSignature(\"withdraw()\") */\n              swap1\n              pop\n                /* \"contracts/Demo14.sol\":4755:4767  bool success */\n              0x00\n                /* \"contracts/Demo14.sol\":4768:4786  bytes  memory data */\n              dup1\n                /* \"contracts/Demo14.sol\":4790:4803  _delegateAddr */\n              dup5\n                /* \"contracts/Demo14.sol\":4790:4816  _delegateAddr.delegatecall */\n              0xffffffffffffffffffffffffffffffffffffffff\n              and\n                /* \"contracts/Demo14.sol\":4817:4821  sign */\n              dup4\n                /* \"contracts/Demo14.sol\":4790:4822  _delegateAddr.delegatecall(sign) */\n              mload(0x40)\n              tag_76\n              swap2\n              swap1\n              tag_77\n              jump\t// in\n            tag_76:\n              0x00\n              mload(0x40)\n              dup1\n              dup4\n              sub\n              dup2\n              dup6\n              gas\n              delegatecall\n              swap2\n              pop\n              pop\n              returndatasize\n              dup1\n              0x00\n              dup2\n              eq\n              tag_80\n              jumpi\n              mload(0x40)\n              swap2\n              pop\n              and(add(returndatasize, 0x3f), not(0x1f))\n              dup3\n              add\n              0x40\n              mstore\n              returndatasize\n              dup3\n              mstore\n              returndatasize\n              0x00\n              0x20\n              dup5\n              add\n              returndatacopy\n              jump(tag_79)\n            tag_80:\n              0x60\n              swap2\n              pop\n            tag_79:\n              pop\n                /* \"contracts/Demo14.sol\":4754:4822  (bool success,bytes  memory data) = _delegateAddr.delegatecall(sign) */\n              swap2\n              pop\n              swap2\n              pop\n                /* \"contracts/Demo14.sol\":4841:4848  success */\n              dup2\n                /* \"contracts/Demo14.sol\":4833:4871  require(success,\"call withdraw error\") */\n              tag_81\n              jumpi\n              mload(0x40)\n              0x08c379a000000000000000000000000000000000000000000000000000000000\n              dup2\n              mstore\n              0x04\n              add\n              tag_82\n              swap1\n              tag_83\n              jump\t// in\n            tag_82:\n              mload(0x40)\n              dup1\n              swap2\n              sub\n              swap1\n              revert\n            tag_81:\n                /* \"contracts/Demo14.sol\":4900:4904  data */\n              dup1\n                /* \"contracts/Demo14.sol\":4889:4912  abi.decode(data,(bool)) */\n              dup1\n              0x20\n              add\n              swap1\n              mload\n              dup2\n              add\n              swap1\n              tag_84\n              swap2\n              swap1\n              tag_85\n              jump\t// in\n            tag_84:\n                /* \"contracts/Demo14.sol\":4882:4912  return abi.decode(data,(bool)) */\n              swap4\n              pop\n              pop\n              pop\n              pop\n                /* \"contracts/Demo14.sol\":4614:4920  function withdraw(address _delegateAddr) public returns(bool){... */\n              swap2\n              swap1\n              pop\n              jump\t// out\n                /* \"contracts/Demo14.sol\":3310:3346  uint256 public immutable fundingGoal */\n            tag_38:\n              immutable(\"0xce47c6a6203c86acfd7865975167278728484259db8b8a7290f4c95a7e90b8b5\")\n              dup2\n              jump\t// out\n                /* \"contracts/Demo14.sol\":3427:3455  bool public validable = true */\n            tag_42:\n              0x02\n              0x00\n              swap1\n              sload\n              swap1\n              0x0100\n              exp\n              swap1\n              div\n              0xff\n              and\n              dup2\n              jump\t// out\n                /* \"contracts/Demo14.sol\":5264:5381  function f(uint x) public view returns (uint256 r) {... */\n            tag_48:\n                /* \"contracts/Demo14.sol\":5304:5313  uint256 r */\n              0x00\n                /* \"contracts/Demo14.sol\":5361:5362  x */\n              dup2\n                /* \"contracts/Demo14.sol\":5355:5363  sload(x) */\n              sload\n                /* \"contracts/Demo14.sol\":5350:5363  r := sload(x) */\n              swap1\n              pop\n                /* \"contracts/Demo14.sol\":5264:5381  function f(uint x) public view returns (uint256 r) {... */\n              swap2\n              swap1\n              pop\n              jump\t// out\n                /* \"contracts/Demo14.sol\":4307:4606  function close(address _delegateAddr) public returns(bool){   ... */\n            tag_53:\n                /* \"contracts/Demo14.sol\":4360:4364  bool */\n              0x00\n                /* \"contracts/Demo14.sol\":4379:4396  bytes memory sign */\n              dup1\n                /* \"contracts/Demo14.sol\":4399:4433  abi.encodeWithSignature(\"close()\") */\n              add(0x24, mload(0x40))\n              mload(0x40)\n              0x20\n              dup2\n              dup4\n              sub\n              sub\n              dup2\n              mstore\n              swap1\n              0x40\n              mstore\n              and(not(0xffffffffffffffffffffffffffffffffffffffffffffffffffffffff), 0x43d726d600000000000000000000000000000000000000000000000000000000)\n              0x20\n              dup3\n              add\n              dup1\n              mload\n              0xffffffffffffffffffffffffffffffffffffffffffffffffffffffff\n              dup4\n              dup2\n              dup4\n              and\n              or\n              dup4\n              mstore\n              pop\n              pop\n              pop\n              pop\n                /* \"contracts/Demo14.sol\":4379:4433  bytes memory sign = abi.encodeWithSignature(\"close()\") */\n              swap1\n              pop\n                /* \"contracts/Demo14.sol\":4445:4457  bool success */\n              0x00\n                /* \"contracts/Demo14.sol\":4458:4475  bytes memory data */\n              dup1\n                /* \"contracts/Demo14.sol\":4479:4492  _delegateAddr */\n              dup5\n                /* \"contracts/Demo14.sol\":4479:4505  _delegateAddr.delegatecall */\n              0xffffffffffffffffffffffffffffffffffffffff\n              and\n                /* \"contracts/Demo14.sol\":4506:4510  sign */\n              dup4\n                /* \"contracts/Demo14.sol\":4479:4511  _delegateAddr.delegatecall(sign) */\n              mload(0x40)\n              tag_88\n              swap2\n              swap1\n              tag_77\n              jump\t// in\n            tag_88:\n              0x00\n              mload(0x40)\n              dup1\n              dup4\n              sub\n              dup2\n              dup6\n              gas\n              delegatecall\n              swap2\n              pop\n              pop\n              returndatasize\n              dup1\n              0x00\n              dup2\n              eq\n              tag_91\n              jumpi\n              mload(0x40)\n              swap2\n              pop\n              and(add(returndatasize, 0x3f), not(0x1f))\n              dup3\n              add\n              0x40\n              mstore\n              returndatasize\n              dup3\n              mstore\n              returndatasize\n              0x00\n              0x20\n              dup5\n              add\n              returndatacopy\n              jump(tag_90)\n            tag_91:\n              0x60\n              swap2\n              pop\n            tag_90:\n              pop\n                /* \"contracts/Demo14.sol\":4444:4511  (bool success,bytes memory data) = _delegateAddr.delegatecall(sign) */\n              swap2\n              pop\n              swap2\n              pop\n                /* \"contracts/Demo14.sol\":4530:4537  success */\n              dup2\n                /* \"contracts/Demo14.sol\":4522:4557  require(success,\"call close error\") */\n              tag_92\n              jumpi\n              mload(0x40)\n              0x08c379a000000000000000000000000000000000000000000000000000000000\n              dup2\n              mstore\n              0x04\n              add\n              tag_93\n              swap1\n              tag_94\n              jump\t// in\n            tag_93:\n              mload(0x40)\n              dup1\n              swap2\n              sub\n              swap1\n              revert\n            tag_92:\n                /* \"contracts/Demo14.sol\":4586:4590  data */\n              dup1\n                /* \"contracts/Demo14.sol\":4575:4598  abi.decode(data,(bool)) */\n              dup1\n              0x20\n              add\n              swap1\n              mload\n              dup2\n              add\n              swap1\n              tag_95\n              swap2\n              swap1\n              tag_85\n              jump\t// in\n            tag_95:\n                /* \"contracts/Demo14.sol\":4568:4598  return abi.decode(data,(bool)) */\n              swap4\n              pop\n              pop\n              pop\n              pop\n                /* \"contracts/Demo14.sol\":4307:4606  function close(address _delegateAddr) public returns(bool){   ... */\n              swap2\n              swap1\n              pop\n              jump\t// out\n                /* \"contracts/Demo14.sol\":3395:3418  Funder[] public funders */\n            tag_58:\n              0x01\n              dup2\n              dup2\n              sload\n              dup2\n              lt\n              tag_96\n              jumpi\n              0x00\n              dup1\n              revert\n            tag_96:\n              swap1\n              0x00\n              mstore\n              keccak256(0x00, 0x20)\n              swap1\n              0x02\n              mul\n              add\n              0x00\n              swap2\n              pop\n              swap1\n              pop\n              dup1\n              0x00\n              add\n              0x00\n              swap1\n              sload\n              swap1\n              0x0100\n              exp\n              swap1\n              div\n              0xffffffffffffffffffffffffffffffffffffffff\n              and\n              swap1\n              dup1\n              0x01\n              add\n              sload\n              swap1\n              pop\n              dup3\n              jump\t// out\n                /* \"contracts/Demo14.sol\":3669:4038  function getFundersIndex(address _delegateAddr,address _addr) public returns(uint256 index_){... */\n            tag_65:\n                /* \"contracts/Demo14.sol\":3746:3760  uint256 index_ */\n              0x00\n                /* \"contracts/Demo14.sol\":3772:3789  bytes memory sign */\n              dup1\n                /* \"contracts/Demo14.sol\":3843:3848  _addr */\n              dup3\n                /* \"contracts/Demo14.sol\":3792:3849  abi.encodeWithSignature(\"getFundersIndex(address)\",_addr) */\n              add(0x24, mload(0x40))\n              tag_99\n              swap2\n              swap1\n              tag_28\n              jump\t// in\n            tag_99:\n              mload(0x40)\n              0x20\n              dup2\n              dup4\n              sub\n              sub\n              dup2\n              mstore\n              swap1\n              0x40\n              mstore\n              and(not(0xffffffffffffffffffffffffffffffffffffffffffffffffffffffff), 0x0c05158500000000000000000000000000000000000000000000000000000000)\n              0x20\n              dup3\n              add\n              dup1\n              mload\n              0xffffffffffffffffffffffffffffffffffffffffffffffffffffffff\n              dup4\n              dup2\n              dup4\n              and\n              or\n              dup4\n              mstore\n              pop\n              pop\n              pop\n              pop\n                /* \"contracts/Demo14.sol\":3772:3849  bytes memory sign = abi.encodeWithSignature(\"getFundersIndex(address)\",_addr) */\n              swap1\n              pop\n                /* \"contracts/Demo14.sol\":3861:3873  bool success */\n              0x00\n                /* \"contracts/Demo14.sol\":3874:3891  bytes memory data */\n              dup1\n                /* \"contracts/Demo14.sol\":3894:3907  _delegateAddr */\n              dup6\n                /* \"contracts/Demo14.sol\":3894:3920  _delegateAddr.delegatecall */\n              0xffffffffffffffffffffffffffffffffffffffff\n              and\n                /* \"contracts/Demo14.sol\":3921:3925  sign */\n              dup4\n                /* \"contracts/Demo14.sol\":3894:3926  _delegateAddr.delegatecall(sign) */\n              mload(0x40)\n              tag_100\n              swap2\n              swap1\n              tag_77\n              jump\t// in\n            tag_100:\n              0x00\n              mload(0x40)\n              dup1\n              dup4\n              sub\n              dup2\n              dup6\n              gas\n              delegatecall\n              swap2\n              pop\n              pop\n              returndatasize\n              dup1\n              0x00\n              dup2\n              eq\n              tag_103\n              jumpi\n              mload(0x40)\n              swap2\n              pop\n              and(add(returndatasize, 0x3f), not(0x1f))\n              dup3\n              add\n              0x40\n              mstore\n              returndatasize\n              dup3\n              mstore\n              returndatasize\n              0x00\n              0x20\n              dup5\n              add\n              returndatacopy\n              jump(tag_102)\n            tag_103:\n              0x60\n              swap2\n              pop\n            tag_102:\n              pop\n                /* \"contracts/Demo14.sol\":3860:3926  (bool success,bytes memory data)= _delegateAddr.delegatecall(sign) */\n              swap2\n              pop\n              swap2\n              pop\n                /* \"contracts/Demo14.sol\":3945:3952  success */\n              dup2\n                /* \"contracts/Demo14.sol\":3937:3983  require(success,\"call getFundersIndex error \") */\n              tag_104\n              jumpi\n              mload(0x40)\n              0x08c379a000000000000000000000000000000000000000000000000000000000\n              dup2\n              mstore\n              0x04\n              add\n              tag_105\n              swap1\n              tag_106\n              jump\t// in\n            tag_105:\n              mload(0x40)\n              dup1\n              swap2\n              sub\n              swap1\n              revert\n            tag_104:\n                /* \"contracts/Demo14.sol\":4015:4019  data */\n              dup1\n                /* \"contracts/Demo14.sol\":4004:4030  abi.decode(data,(uint256)) */\n              dup1\n              0x20\n              add\n              swap1\n              mload\n              dup2\n              add\n              swap1\n              tag_107\n              swap2\n              swap1\n              tag_108\n              jump\t// in\n            tag_107:\n                /* \"contracts/Demo14.sol\":3994:4030  index_ =  abi.decode(data,(uint256)) */\n              swap4\n              pop\n                /* \"contracts/Demo14.sol\":3761:4038  {... */\n              pop\n              pop\n              pop\n                /* \"contracts/Demo14.sol\":3669:4038  function getFundersIndex(address _delegateAddr,address _addr) public returns(uint256 index_){... */\n              swap3\n              swap2\n              pop\n              pop\n              jump\t// out\n                /* \"contracts/Demo14.sol\":4046:4299  function contribution(address _delegateAddr) public payable {... */\n            tag_69:\n                /* \"contracts/Demo14.sol\":4117:4134  bytes memory sign */\n              0x00\n                /* \"contracts/Demo14.sol\":4137:4178  abi.encodeWithSignature(\"contribution()\") */\n              add(0x24, mload(0x40))\n              mload(0x40)\n              0x20\n              dup2\n              dup4\n              sub\n              sub\n              dup2\n              mstore\n              swap1\n              0x40\n              mstore\n              and(not(0xffffffffffffffffffffffffffffffffffffffffffffffffffffffff), 0x50520b1f00000000000000000000000000000000000000000000000000000000)\n              0x20\n              dup3\n              add\n              dup1\n              mload\n              0xffffffffffffffffffffffffffffffffffffffffffffffffffffffff\n              dup4\n              dup2\n              dup4\n              and\n              or\n              dup4\n              mstore\n              pop\n              pop\n              pop\n              pop\n                /* \"contracts/Demo14.sol\":4117:4178  bytes memory sign = abi.encodeWithSignature(\"contribution()\") */\n              swap1\n              pop\n                /* \"contracts/Demo14.sol\":4190:4202  bool success */\n              0x00\n                /* \"contracts/Demo14.sol\":4206:4219  _delegateAddr */\n              dup3\n                /* \"contracts/Demo14.sol\":4206:4232  _delegateAddr.delegatecall */\n              0xffffffffffffffffffffffffffffffffffffffff\n              and\n                /* \"contracts/Demo14.sol\":4233:4237  sign */\n              dup3\n                /* \"contracts/Demo14.sol\":4206:4238  _delegateAddr.delegatecall(sign) */\n              mload(0x40)\n              tag_110\n              swap2\n              swap1\n              tag_77\n              jump\t// in\n            tag_110:\n              0x00\n              mload(0x40)\n              dup1\n              dup4\n              sub\n              dup2\n              dup6\n              gas\n              delegatecall\n              swap2\n              pop\n              pop\n              returndatasize\n              dup1\n              0x00\n              dup2\n              eq\n              tag_113\n              jumpi\n              mload(0x40)\n              swap2\n              pop\n              and(add(returndatasize, 0x3f), not(0x1f))\n              dup3\n              add\n              0x40\n              mstore\n              returndatasize\n              dup3\n              mstore\n              returndatasize\n              0x00\n              0x20\n              dup5\n              add\n              returndatacopy\n              jump(tag_112)\n            tag_113:\n              0x60\n              swap2\n              pop\n            tag_112:\n              pop\n                /* \"contracts/Demo14.sol\":4189:4238  (bool success,)= _delegateAddr.delegatecall(sign) */\n              pop\n              swap1\n              pop\n                /* \"contracts/Demo14.sol\":4257:4264  success */\n              dup1\n                /* \"contracts/Demo14.sol\":4249:4291  require(success,\"call contribution error\") */\n              tag_114\n              jumpi\n              mload(0x40)\n              0x08c379a000000000000000000000000000000000000000000000000000000000\n              dup2\n              mstore\n              0x04\n              add\n              tag_115\n              swap1\n              tag_116\n              jump\t// in\n            tag_115:\n              mload(0x40)\n              dup1\n              swap2\n              sub\n              swap1\n              revert\n            tag_114:\n                /* \"contracts/Demo14.sol\":4106:4299  {... */\n              pop\n              pop\n                /* \"contracts/Demo14.sol\":4046:4299  function contribution(address _delegateAddr) public payable {... */\n              pop\n              jump\t// out\n                /* \"contracts/Demo14.sol\":4928:5256  function fundersLength(address _delegateAddr) public  returns(uint256){... */\n            tag_73:\n                /* \"contracts/Demo14.sol\":4990:4997  uint256 */\n              0x00\n                /* \"contracts/Demo14.sol\":5009:5026  bytes memory sign */\n              dup1\n                /* \"contracts/Demo14.sol\":5029:5071  abi.encodeWithSignature(\"fundersLength()\") */\n              add(0x24, mload(0x40))\n              mload(0x40)\n              0x20\n              dup2\n              dup4\n              sub\n              sub\n              dup2\n              mstore\n              swap1\n              0x40\n              mstore\n              and(not(0xffffffffffffffffffffffffffffffffffffffffffffffffffffffff), 0xe3d9473500000000000000000000000000000000000000000000000000000000)\n              0x20\n              dup3\n              add\n              dup1\n              mload\n              0xffffffffffffffffffffffffffffffffffffffffffffffffffffffff\n              dup4\n              dup2\n              dup4\n              and\n              or\n              dup4\n              mstore\n              pop\n              pop\n              pop\n              pop\n                /* \"contracts/Demo14.sol\":5009:5071  bytes memory sign = abi.encodeWithSignature(\"fundersLength()\") */\n              swap1\n              pop\n                /* \"contracts/Demo14.sol\":5083:5095  bool success */\n              0x00\n                /* \"contracts/Demo14.sol\":5096:5114  bytes  memory data */\n              dup1\n                /* \"contracts/Demo14.sol\":5118:5131  _delegateAddr */\n              dup5\n                /* \"contracts/Demo14.sol\":5118:5144  _delegateAddr.delegatecall */\n              0xffffffffffffffffffffffffffffffffffffffff\n              and\n                /* \"contracts/Demo14.sol\":5145:5149  sign */\n              dup4\n                /* \"contracts/Demo14.sol\":5118:5150  _delegateAddr.delegatecall(sign) */\n              mload(0x40)\n              tag_118\n              swap2\n              swap1\n              tag_77\n              jump\t// in\n            tag_118:\n              0x00\n              mload(0x40)\n              dup1\n              dup4\n              sub\n              dup2\n              dup6\n              gas\n              delegatecall\n              swap2\n              pop\n              pop\n              returndatasize\n              dup1\n              0x00\n              dup2\n              eq\n              tag_121\n              jumpi\n              mload(0x40)\n              swap2\n              pop\n              and(add(returndatasize, 0x3f), not(0x1f))\n              dup3\n              add\n              0x40\n              mstore\n              returndatasize\n              dup3\n              mstore\n              returndatasize\n              0x00\n              0x20\n              dup5\n              add\n              returndatacopy\n              jump(tag_120)\n            tag_121:\n              0x60\n              swap2\n              pop\n            tag_120:\n              pop\n                /* \"contracts/Demo14.sol\":5082:5150  (bool success,bytes  memory data) = _delegateAddr.delegatecall(sign) */\n              swap2\n              pop\n              swap2\n              pop\n                /* \"contracts/Demo14.sol\":5169:5176  success */\n              dup2\n                /* \"contracts/Demo14.sol\":5161:5204  require(success,\"call fundersLength error\") */\n              tag_122\n              jumpi\n              mload(0x40)\n              0x08c379a000000000000000000000000000000000000000000000000000000000\n              dup2\n              mstore\n              0x04\n              add\n              tag_123\n              swap1\n              tag_124\n              jump\t// in\n            tag_123:\n              mload(0x40)\n              dup1\n              swap2\n              sub\n              swap1\n              revert\n            tag_122:\n                /* \"contracts/Demo14.sol\":5233:5237  data */\n              dup1\n                /* \"contracts/Demo14.sol\":5222:5248  abi.decode(data,(uint256)) */\n              dup1\n              0x20\n              add\n              swap1\n              mload\n              dup2\n              add\n              swap1\n              tag_125\n              swap2\n              swap1\n              tag_108\n              jump\t// in\n            tag_125:\n                /* \"contracts/Demo14.sol\":5215:5248  return abi.decode(data,(uint256)) */\n              swap4\n              pop\n              pop\n              pop\n              pop\n                /* \"contracts/Demo14.sol\":4928:5256  function fundersLength(address _delegateAddr) public  returns(uint256){... */\n              swap2\n              swap1\n              pop\n              jump\t// out\n                /* \"#utility.yul\":7:84   */\n            tag_126:\n                /* \"#utility.yul\":44:51   */\n              0x00\n                /* \"#utility.yul\":73:78   */\n              dup2\n                /* \"#utility.yul\":62:78   */\n              swap1\n              pop\n                /* \"#utility.yul\":7:84   */\n              swap2\n              swap1\n              pop\n              jump\t// out\n                /* \"#utility.yul\":90:208   */\n            tag_127:\n                /* \"#utility.yul\":177:201   */\n              tag_161\n                /* \"#utility.yul\":195:200   */\n              dup2\n                /* \"#utility.yul\":177:201   */\n              tag_126\n              jump\t// in\n            tag_161:\n                /* \"#utility.yul\":172:175   */\n              dup3\n                /* \"#utility.yul\":165:202   */\n              mstore\n                /* \"#utility.yul\":90:208   */\n              pop\n              pop\n              jump\t// out\n                /* \"#utility.yul\":214:436   */\n            tag_19:\n                /* \"#utility.yul\":307:311   */\n              0x00\n                /* \"#utility.yul\":345:347   */\n              0x20\n                /* \"#utility.yul\":334:343   */\n              dup3\n                /* \"#utility.yul\":330:348   */\n              add\n                /* \"#utility.yul\":322:348   */\n              swap1\n              pop\n                /* \"#utility.yul\":358:429   */\n              tag_163\n                /* \"#utility.yul\":426:427   */\n              0x00\n                /* \"#utility.yul\":415:424   */\n              dup4\n                /* \"#utility.yul\":411:428   */\n              add\n                /* \"#utility.yul\":402:408   */\n              dup5\n                /* \"#utility.yul\":358:429   */\n              tag_127\n              jump\t// in\n            tag_163:\n                /* \"#utility.yul\":214:436   */\n              swap3\n              swap2\n              pop\n              pop\n              jump\t// out\n                /* \"#utility.yul\":442:568   */\n            tag_128:\n                /* \"#utility.yul\":479:486   */\n              0x00\n                /* \"#utility.yul\":519:561   */\n              0xffffffffffffffffffffffffffffffffffffffff\n                /* \"#utility.yul\":512:517   */\n              dup3\n                /* \"#utility.yul\":508:562   */\n              and\n                /* \"#utility.yul\":497:562   */\n              swap1\n              pop\n                /* \"#utility.yul\":442:568   */\n              swap2\n              swap1\n              pop\n              jump\t// out\n                /* \"#utility.yul\":574:670   */\n            tag_129:\n                /* \"#utility.yul\":611:618   */\n              0x00\n                /* \"#utility.yul\":640:664   */\n              tag_166\n                /* \"#utility.yul\":658:663   */\n              dup3\n                /* \"#utility.yul\":640:664   */\n              tag_128\n              jump\t// in\n            tag_166:\n                /* \"#utility.yul\":629:664   */\n              swap1\n              pop\n                /* \"#utility.yul\":574:670   */\n              swap2\n              swap1\n              pop\n              jump\t// out\n                /* \"#utility.yul\":676:794   */\n            tag_130:\n                /* \"#utility.yul\":763:787   */\n              tag_168\n                /* \"#utility.yul\":781:786   */\n              dup2\n                /* \"#utility.yul\":763:787   */\n              tag_129\n              jump\t// in\n            tag_168:\n                /* \"#utility.yul\":758:761   */\n              dup3\n                /* \"#utility.yul\":751:788   */\n              mstore\n                /* \"#utility.yul\":676:794   */\n              pop\n              pop\n              jump\t// out\n                /* \"#utility.yul\":800:1022   */\n            tag_28:\n                /* \"#utility.yul\":893:897   */\n              0x00\n                /* \"#utility.yul\":931:933   */\n              0x20\n                /* \"#utility.yul\":920:929   */\n              dup3\n                /* \"#utility.yul\":916:934   */\n              add\n                /* \"#utility.yul\":908:934   */\n              swap1\n              pop\n                /* \"#utility.yul\":944:1015   */\n              tag_170\n                /* \"#utility.yul\":1012:1013   */\n              0x00\n                /* \"#utility.yul\":1001:1010   */\n              dup4\n                /* \"#utility.yul\":997:1014   */\n              add\n                /* \"#utility.yul\":988:994   */\n              dup5\n                /* \"#utility.yul\":944:1015   */\n              tag_130\n              jump\t// in\n            tag_170:\n                /* \"#utility.yul\":800:1022   */\n              swap3\n              swap2\n              pop\n              pop\n              jump\t// out\n                /* \"#utility.yul\":1109:1226   */\n            tag_132:\n                /* \"#utility.yul\":1218:1219   */\n              0x00\n                /* \"#utility.yul\":1215:1216   */\n              dup1\n                /* \"#utility.yul\":1208:1220   */\n              revert\n                /* \"#utility.yul\":1355:1477   */\n            tag_134:\n                /* \"#utility.yul\":1428:1452   */\n              tag_175\n                /* \"#utility.yul\":1446:1451   */\n              dup2\n                /* \"#utility.yul\":1428:1452   */\n              tag_129\n              jump\t// in\n            tag_175:\n                /* \"#utility.yul\":1421:1426   */\n              dup2\n                /* \"#utility.yul\":1418:1453   */\n              eq\n                /* \"#utility.yul\":1408:1471   */\n              tag_176\n              jumpi\n                /* \"#utility.yul\":1467:1468   */\n              0x00\n                /* \"#utility.yul\":1464:1465   */\n              dup1\n                /* \"#utility.yul\":1457:1469   */\n              revert\n                /* \"#utility.yul\":1408:1471   */\n            tag_176:\n                /* \"#utility.yul\":1355:1477   */\n              pop\n              jump\t// out\n                /* \"#utility.yul\":1483:1622   */\n            tag_135:\n                /* \"#utility.yul\":1529:1534   */\n              0x00\n                /* \"#utility.yul\":1567:1573   */\n              dup2\n                /* \"#utility.yul\":1554:1574   */\n              calldataload\n                /* \"#utility.yul\":1545:1574   */\n              swap1\n              pop\n                /* \"#utility.yul\":1583:1616   */\n              tag_178\n                /* \"#utility.yul\":1610:1615   */\n              dup2\n                /* \"#utility.yul\":1583:1616   */\n              tag_134\n              jump\t// in\n            tag_178:\n                /* \"#utility.yul\":1483:1622   */\n              swap3\n              swap2\n              pop\n              pop\n              jump\t// out\n                /* \"#utility.yul\":1628:1957   */\n            tag_32:\n                /* \"#utility.yul\":1687:1693   */\n              0x00\n                /* \"#utility.yul\":1736:1738   */\n              0x20\n                /* \"#utility.yul\":1724:1733   */\n              dup3\n                /* \"#utility.yul\":1715:1722   */\n              dup5\n                /* \"#utility.yul\":1711:1734   */\n              sub\n                /* \"#utility.yul\":1707:1739   */\n              slt\n                /* \"#utility.yul\":1704:1823   */\n              iszero\n              tag_180\n              jumpi\n                /* \"#utility.yul\":1742:1821   */\n              tag_181\n              tag_132\n              jump\t// in\n            tag_181:\n                /* \"#utility.yul\":1704:1823   */\n            tag_180:\n                /* \"#utility.yul\":1862:1863   */\n              0x00\n                /* \"#utility.yul\":1887:1940   */\n              tag_182\n                /* \"#utility.yul\":1932:1939   */\n              dup5\n                /* \"#utility.yul\":1923:1929   */\n              dup3\n                /* \"#utility.yul\":1912:1921   */\n              dup6\n                /* \"#utility.yul\":1908:1930   */\n              add\n                /* \"#utility.yul\":1887:1940   */\n              tag_135\n              jump\t// in\n            tag_182:\n                /* \"#utility.yul\":1877:1940   */\n              swap2\n              pop\n                /* \"#utility.yul\":1833:1950   */\n              pop\n                /* \"#utility.yul\":1628:1957   */\n              swap3\n              swap2\n              pop\n              pop\n              jump\t// out\n                /* \"#utility.yul\":1963:2053   */\n            tag_136:\n                /* \"#utility.yul\":1997:2004   */\n              0x00\n                /* \"#utility.yul\":2040:2045   */\n              dup2\n                /* \"#utility.yul\":2033:2046   */\n              iszero\n                /* \"#utility.yul\":2026:2047   */\n              iszero\n                /* \"#utility.yul\":2015:2047   */\n              swap1\n              pop\n                /* \"#utility.yul\":1963:2053   */\n              swap2\n              swap1\n              pop\n              jump\t// out\n                /* \"#utility.yul\":2059:2168   */\n            tag_137:\n                /* \"#utility.yul\":2140:2161   */\n              tag_185\n                /* \"#utility.yul\":2155:2160   */\n              dup2\n                /* \"#utility.yul\":2140:2161   */\n              tag_136\n              jump\t// in\n            tag_185:\n                /* \"#utility.yul\":2135:2138   */\n              dup3\n                /* \"#utility.yul\":2128:2162   */\n              mstore\n                /* \"#utility.yul\":2059:2168   */\n              pop\n              pop\n              jump\t// out\n                /* \"#utility.yul\":2174:2384   */\n            tag_35:\n                /* \"#utility.yul\":2261:2265   */\n              0x00\n                /* \"#utility.yul\":2299:2301   */\n              0x20\n                /* \"#utility.yul\":2288:2297   */\n              dup3\n                /* \"#utility.yul\":2284:2302   */\n              add\n                /* \"#utility.yul\":2276:2302   */\n              swap1\n              pop\n                /* \"#utility.yul\":2312:2377   */\n              tag_187\n                /* \"#utility.yul\":2374:2375   */\n              0x00\n                /* \"#utility.yul\":2363:2372   */\n              dup4\n                /* \"#utility.yul\":2359:2376   */\n              add\n                /* \"#utility.yul\":2350:2356   */\n              dup5\n                /* \"#utility.yul\":2312:2377   */\n              tag_137\n              jump\t// in\n            tag_187:\n                /* \"#utility.yul\":2174:2384   */\n              swap3\n              swap2\n              pop\n              pop\n              jump\t// out\n                /* \"#utility.yul\":2390:2512   */\n            tag_138:\n                /* \"#utility.yul\":2463:2487   */\n              tag_189\n                /* \"#utility.yul\":2481:2486   */\n              dup2\n                /* \"#utility.yul\":2463:2487   */\n              tag_126\n              jump\t// in\n            tag_189:\n                /* \"#utility.yul\":2456:2461   */\n              dup2\n                /* \"#utility.yul\":2453:2488   */\n              eq\n                /* \"#utility.yul\":2443:2506   */\n              tag_190\n              jumpi\n                /* \"#utility.yul\":2502:2503   */\n              0x00\n                /* \"#utility.yul\":2499:2500   */\n              dup1\n                /* \"#utility.yul\":2492:2504   */\n              revert\n                /* \"#utility.yul\":2443:2506   */\n            tag_190:\n                /* \"#utility.yul\":2390:2512   */\n              pop\n              jump\t// out\n                /* \"#utility.yul\":2518:2657   */\n            tag_139:\n                /* \"#utility.yul\":2564:2569   */\n              0x00\n                /* \"#utility.yul\":2602:2608   */\n              dup2\n                /* \"#utility.yul\":2589:2609   */\n              calldataload\n                /* \"#utility.yul\":2580:2609   */\n              swap1\n              pop\n                /* \"#utility.yul\":2618:2651   */\n              tag_192\n                /* \"#utility.yul\":2645:2650   */\n              dup2\n                /* \"#utility.yul\":2618:2651   */\n              tag_138\n              jump\t// in\n            tag_192:\n                /* \"#utility.yul\":2518:2657   */\n              swap3\n              swap2\n              pop\n              pop\n              jump\t// out\n                /* \"#utility.yul\":2663:2992   */\n            tag_47:\n                /* \"#utility.yul\":2722:2728   */\n              0x00\n                /* \"#utility.yul\":2771:2773   */\n              0x20\n                /* \"#utility.yul\":2759:2768   */\n              dup3\n                /* \"#utility.yul\":2750:2757   */\n              dup5\n                /* \"#utility.yul\":2746:2769   */\n              sub\n                /* \"#utility.yul\":2742:2774   */\n              slt\n                /* \"#utility.yul\":2739:2858   */\n              iszero\n              tag_194\n              jumpi\n                /* \"#utility.yul\":2777:2856   */\n              tag_195\n              tag_132\n              jump\t// in\n            tag_195:\n                /* \"#utility.yul\":2739:2858   */\n            tag_194:\n                /* \"#utility.yul\":2897:2898   */\n              0x00\n                /* \"#utility.yul\":2922:2975   */\n              tag_196\n                /* \"#utility.yul\":2967:2974   */\n              dup5\n                /* \"#utility.yul\":2958:2964   */\n              dup3\n                /* \"#utility.yul\":2947:2956   */\n              dup6\n                /* \"#utility.yul\":2943:2965   */\n              add\n                /* \"#utility.yul\":2922:2975   */\n              tag_139\n              jump\t// in\n            tag_196:\n                /* \"#utility.yul\":2912:2975   */\n              swap2\n              pop\n                /* \"#utility.yul\":2868:2985   */\n              pop\n                /* \"#utility.yul\":2663:2992   */\n              swap3\n              swap2\n              pop\n              pop\n              jump\t// out\n                /* \"#utility.yul\":2998:3330   */\n            tag_60:\n                /* \"#utility.yul\":3119:3123   */\n              0x00\n                /* \"#utility.yul\":3157:3159   */\n              0x40\n                /* \"#utility.yul\":3146:3155   */\n              dup3\n                /* \"#utility.yul\":3142:3160   */\n              add\n                /* \"#utility.yul\":3134:3160   */\n              swap1\n              pop\n                /* \"#utility.yul\":3170:3241   */\n              tag_198\n                /* \"#utility.yul\":3238:3239   */\n              0x00\n                /* \"#utility.yul\":3227:3236   */\n              dup4\n                /* \"#utility.yul\":3223:3240   */\n              add\n                /* \"#utility.yul\":3214:3220   */\n              dup6\n                /* \"#utility.yul\":3170:3241   */\n              tag_130\n              jump\t// in\n            tag_198:\n                /* \"#utility.yul\":3251:3323   */\n              tag_199\n                /* \"#utility.yul\":3319:3321   */\n              0x20\n                /* \"#utility.yul\":3308:3317   */\n              dup4\n                /* \"#utility.yul\":3304:3322   */\n              add\n                /* \"#utility.yul\":3295:3301   */\n              dup5\n                /* \"#utility.yul\":3251:3323   */\n              tag_127\n              jump\t// in\n            tag_199:\n                /* \"#utility.yul\":2998:3330   */\n              swap4\n              swap3\n              pop\n              pop\n              pop\n              jump\t// out\n                /* \"#utility.yul\":3336:3810   */\n            tag_64:\n                /* \"#utility.yul\":3404:3410   */\n              0x00\n                /* \"#utility.yul\":3412:3418   */\n              dup1\n                /* \"#utility.yul\":3461:3463   */\n              0x40\n                /* \"#utility.yul\":3449:3458   */\n              dup4\n                /* \"#utility.yul\":3440:3447   */\n              dup6\n                /* \"#utility.yul\":3436:3459   */\n              sub\n                /* \"#utility.yul\":3432:3464   */\n              slt\n                /* \"#utility.yul\":3429:3548   */\n              iszero\n              tag_201\n              jumpi\n                /* \"#utility.yul\":3467:3546   */\n              tag_202\n              tag_132\n              jump\t// in\n            tag_202:\n                /* \"#utility.yul\":3429:3548   */\n            tag_201:\n                /* \"#utility.yul\":3587:3588   */\n              0x00\n                /* \"#utility.yul\":3612:3665   */\n              tag_203\n                /* \"#utility.yul\":3657:3664   */\n              dup6\n                /* \"#utility.yul\":3648:3654   */\n              dup3\n                /* \"#utility.yul\":3637:3646   */\n              dup7\n                /* \"#utility.yul\":3633:3655   */\n              add\n                /* \"#utility.yul\":3612:3665   */\n              tag_135\n              jump\t// in\n            tag_203:\n                /* \"#utility.yul\":3602:3665   */\n              swap3\n              pop\n                /* \"#utility.yul\":3558:3675   */\n              pop\n                /* \"#utility.yul\":3714:3716   */\n              0x20\n                /* \"#utility.yul\":3740:3793   */\n              tag_204\n                /* \"#utility.yul\":3785:3792   */\n              dup6\n                /* \"#utility.yul\":3776:3782   */\n              dup3\n                /* \"#utility.yul\":3765:3774   */\n              dup7\n                /* \"#utility.yul\":3761:3783   */\n              add\n                /* \"#utility.yul\":3740:3793   */\n              tag_135\n              jump\t// in\n            tag_204:\n                /* \"#utility.yul\":3730:3793   */\n              swap2\n              pop\n                /* \"#utility.yul\":3685:3803   */\n              pop\n                /* \"#utility.yul\":3336:3810   */\n              swap3\n              pop\n              swap3\n              swap1\n              pop\n              jump\t// out\n                /* \"#utility.yul\":3816:3914   */\n            tag_140:\n                /* \"#utility.yul\":3867:3873   */\n              0x00\n                /* \"#utility.yul\":3901:3906   */\n              dup2\n                /* \"#utility.yul\":3895:3907   */\n              mload\n                /* \"#utility.yul\":3885:3907   */\n              swap1\n              pop\n                /* \"#utility.yul\":3816:3914   */\n              swap2\n              swap1\n              pop\n              jump\t// out\n                /* \"#utility.yul\":3920:4067   */\n            tag_141:\n                /* \"#utility.yul\":4021:4032   */\n              0x00\n                /* \"#utility.yul\":4058:4061   */\n              dup2\n                /* \"#utility.yul\":4043:4061   */\n              swap1\n              pop\n                /* \"#utility.yul\":3920:4067   */\n              swap3\n              swap2\n              pop\n              pop\n              jump\t// out\n                /* \"#utility.yul\":4073:4319   */\n            tag_142:\n                /* \"#utility.yul\":4154:4155   */\n              0x00\n                /* \"#utility.yul\":4164:4277   */\n            tag_208:\n                /* \"#utility.yul\":4178:4184   */\n              dup4\n                /* \"#utility.yul\":4175:4176   */\n              dup2\n                /* \"#utility.yul\":4172:4185   */\n              lt\n                /* \"#utility.yul\":4164:4277   */\n              iszero\n              tag_210\n              jumpi\n                /* \"#utility.yul\":4263:4264   */\n              dup1\n                /* \"#utility.yul\":4258:4261   */\n              dup3\n                /* \"#utility.yul\":4254:4265   */\n              add\n                /* \"#utility.yul\":4248:4266   */\n              mload\n                /* \"#utility.yul\":4244:4245   */\n              dup2\n                /* \"#utility.yul\":4239:4242   */\n              dup5\n                /* \"#utility.yul\":4235:4246   */\n              add\n                /* \"#utility.yul\":4228:4267   */\n              mstore\n                /* \"#utility.yul\":4200:4202   */\n              0x20\n                /* \"#utility.yul\":4197:4198   */\n              dup2\n                /* \"#utility.yul\":4193:4203   */\n              add\n                /* \"#utility.yul\":4188:4203   */\n              swap1\n              pop\n                /* \"#utility.yul\":4164:4277   */\n              jump(tag_208)\n            tag_210:\n                /* \"#utility.yul\":4311:4312   */\n              0x00\n                /* \"#utility.yul\":4302:4308   */\n              dup5\n                /* \"#utility.yul\":4297:4300   */\n              dup5\n                /* \"#utility.yul\":4293:4309   */\n              add\n                /* \"#utility.yul\":4286:4313   */\n              mstore\n                /* \"#utility.yul\":4135:4319   */\n              pop\n                /* \"#utility.yul\":4073:4319   */\n              pop\n              pop\n              pop\n              jump\t// out\n                /* \"#utility.yul\":4325:4711   */\n            tag_143:\n                /* \"#utility.yul\":4429:4432   */\n              0x00\n                /* \"#utility.yul\":4457:4495   */\n              tag_212\n                /* \"#utility.yul\":4489:4494   */\n              dup3\n                /* \"#utility.yul\":4457:4495   */\n              tag_140\n              jump\t// in\n            tag_212:\n                /* \"#utility.yul\":4511:4599   */\n              tag_213\n                /* \"#utility.yul\":4592:4598   */\n              dup2\n                /* \"#utility.yul\":4587:4590   */\n              dup6\n                /* \"#utility.yul\":4511:4599   */\n              tag_141\n              jump\t// in\n            tag_213:\n                /* \"#utility.yul\":4504:4599   */\n              swap4\n              pop\n                /* \"#utility.yul\":4608:4673   */\n              tag_214\n                /* \"#utility.yul\":4666:4672   */\n              dup2\n                /* \"#utility.yul\":4661:4664   */\n              dup6\n                /* \"#utility.yul\":4654:4658   */\n              0x20\n                /* \"#utility.yul\":4647:4652   */\n              dup7\n                /* \"#utility.yul\":4643:4659   */\n              add\n                /* \"#utility.yul\":4608:4673   */\n              tag_142\n              jump\t// in\n            tag_214:\n                /* \"#utility.yul\":4698:4704   */\n              dup1\n                /* \"#utility.yul\":4693:4696   */\n              dup5\n                /* \"#utility.yul\":4689:4705   */\n              add\n                /* \"#utility.yul\":4682:4705   */\n              swap2\n              pop\n                /* \"#utility.yul\":4433:4711   */\n              pop\n                /* \"#utility.yul\":4325:4711   */\n              swap3\n              swap2\n              pop\n              pop\n              jump\t// out\n                /* \"#utility.yul\":4717:4988   */\n            tag_77:\n                /* \"#utility.yul\":4847:4850   */\n              0x00\n                /* \"#utility.yul\":4869:4962   */\n              tag_216\n                /* \"#utility.yul\":4958:4961   */\n              dup3\n                /* \"#utility.yul\":4949:4955   */\n              dup5\n                /* \"#utility.yul\":4869:4962   */\n              tag_143\n              jump\t// in\n            tag_216:\n                /* \"#utility.yul\":4862:4962   */\n              swap2\n              pop\n                /* \"#utility.yul\":4979:4982   */\n              dup2\n                /* \"#utility.yul\":4972:4982   */\n              swap1\n              pop\n                /* \"#utility.yul\":4717:4988   */\n              swap3\n              swap2\n              pop\n              pop\n              jump\t// out\n                /* \"#utility.yul\":4994:5163   */\n            tag_144:\n                /* \"#utility.yul\":5078:5089   */\n              0x00\n                /* \"#utility.yul\":5112:5118   */\n              dup3\n                /* \"#utility.yul\":5107:5110   */\n              dup3\n                /* \"#utility.yul\":5100:5119   */\n              mstore\n                /* \"#utility.yul\":5152:5156   */\n              0x20\n                /* \"#utility.yul\":5147:5150   */\n              dup3\n                /* \"#utility.yul\":5143:5157   */\n              add\n                /* \"#utility.yul\":5128:5157   */\n              swap1\n              pop\n                /* \"#utility.yul\":4994:5163   */\n              swap3\n              swap2\n              pop\n              pop\n              jump\t// out\n                /* \"#utility.yul\":5169:5338   */\n            tag_145:\n                /* \"#utility.yul\":5309:5330   */\n              0x63616c6c207769746864726177206572726f7200000000000000000000000000\n                /* \"#utility.yul\":5305:5306   */\n              0x00\n                /* \"#utility.yul\":5297:5303   */\n              dup3\n                /* \"#utility.yul\":5293:5307   */\n              add\n                /* \"#utility.yul\":5286:5331   */\n              mstore\n                /* \"#utility.yul\":5169:5338   */\n              pop\n              jump\t// out\n                /* \"#utility.yul\":5344:5710   */\n            tag_146:\n                /* \"#utility.yul\":5486:5489   */\n              0x00\n                /* \"#utility.yul\":5507:5574   */\n              tag_220\n                /* \"#utility.yul\":5571:5573   */\n              0x13\n                /* \"#utility.yul\":5566:5569   */\n              dup4\n                /* \"#utility.yul\":5507:5574   */\n              tag_144\n              jump\t// in\n            tag_220:\n                /* \"#utility.yul\":5500:5574   */\n              swap2\n              pop\n                /* \"#utility.yul\":5583:5676   */\n              tag_221\n                /* \"#utility.yul\":5672:5675   */\n              dup3\n                /* \"#utility.yul\":5583:5676   */\n              tag_145\n              jump\t// in\n            tag_221:\n                /* \"#utility.yul\":5701:5703   */\n              0x20\n                /* \"#utility.yul\":5696:5699   */\n              dup3\n                /* \"#utility.yul\":5692:5704   */\n              add\n                /* \"#utility.yul\":5685:5704   */\n              swap1\n              pop\n                /* \"#utility.yul\":5344:5710   */\n              swap2\n              swap1\n              pop\n              jump\t// out\n                /* \"#utility.yul\":5716:6135   */\n            tag_83:\n                /* \"#utility.yul\":5882:5886   */\n              0x00\n                /* \"#utility.yul\":5920:5922   */\n              0x20\n                /* \"#utility.yul\":5909:5918   */\n              dup3\n                /* \"#utility.yul\":5905:5923   */\n              add\n                /* \"#utility.yul\":5897:5923   */\n              swap1\n              pop\n                /* \"#utility.yul\":5969:5978   */\n              dup2\n                /* \"#utility.yul\":5963:5967   */\n              dup2\n                /* \"#utility.yul\":5959:5979   */\n              sub\n                /* \"#utility.yul\":5955:5956   */\n              0x00\n                /* \"#utility.yul\":5944:5953   */\n              dup4\n                /* \"#utility.yul\":5940:5957   */\n              add\n                /* \"#utility.yul\":5933:5980   */\n              mstore\n                /* \"#utility.yul\":5997:6128   */\n              tag_223\n                /* \"#utility.yul\":6123:6127   */\n              dup2\n                /* \"#utility.yul\":5997:6128   */\n              tag_146\n              jump\t// in\n            tag_223:\n                /* \"#utility.yul\":5989:6128   */\n              swap1\n              pop\n                /* \"#utility.yul\":5716:6135   */\n              swap2\n              swap1\n              pop\n              jump\t// out\n                /* \"#utility.yul\":6141:6257   */\n            tag_147:\n                /* \"#utility.yul\":6211:6232   */\n              tag_225\n                /* \"#utility.yul\":6226:6231   */\n              dup2\n                /* \"#utility.yul\":6211:6232   */\n              tag_136\n              jump\t// in\n            tag_225:\n                /* \"#utility.yul\":6204:6209   */\n              dup2\n                /* \"#utility.yul\":6201:6233   */\n              eq\n                /* \"#utility.yul\":6191:6251   */\n              tag_226\n              jumpi\n                /* \"#utility.yul\":6247:6248   */\n              0x00\n                /* \"#utility.yul\":6244:6245   */\n              dup1\n                /* \"#utility.yul\":6237:6249   */\n              revert\n                /* \"#utility.yul\":6191:6251   */\n            tag_226:\n                /* \"#utility.yul\":6141:6257   */\n              pop\n              jump\t// out\n                /* \"#utility.yul\":6263:6400   */\n            tag_148:\n                /* \"#utility.yul\":6317:6322   */\n              0x00\n                /* \"#utility.yul\":6348:6354   */\n              dup2\n                /* \"#utility.yul\":6342:6355   */\n              mload\n                /* \"#utility.yul\":6333:6355   */\n              swap1\n              pop\n                /* \"#utility.yul\":6364:6394   */\n              tag_228\n                /* \"#utility.yul\":6388:6393   */\n              dup2\n                /* \"#utility.yul\":6364:6394   */\n              tag_147\n              jump\t// in\n            tag_228:\n                /* \"#utility.yul\":6263:6400   */\n              swap3\n              swap2\n              pop\n              pop\n              jump\t// out\n                /* \"#utility.yul\":6406:6751   */\n            tag_85:\n                /* \"#utility.yul\":6473:6479   */\n              0x00\n                /* \"#utility.yul\":6522:6524   */\n              0x20\n                /* \"#utility.yul\":6510:6519   */\n              dup3\n                /* \"#utility.yul\":6501:6508   */\n              dup5\n                /* \"#utility.yul\":6497:6520   */\n              sub\n                /* \"#utility.yul\":6493:6525   */\n              slt\n                /* \"#utility.yul\":6490:6609   */\n              iszero\n              tag_230\n              jumpi\n                /* \"#utility.yul\":6528:6607   */\n              tag_231\n              tag_132\n              jump\t// in\n            tag_231:\n                /* \"#utility.yul\":6490:6609   */\n            tag_230:\n                /* \"#utility.yul\":6648:6649   */\n              0x00\n                /* \"#utility.yul\":6673:6734   */\n              tag_232\n                /* \"#utility.yul\":6726:6733   */\n              dup5\n                /* \"#utility.yul\":6717:6723   */\n              dup3\n                /* \"#utility.yul\":6706:6715   */\n              dup6\n                /* \"#utility.yul\":6702:6724   */\n              add\n                /* \"#utility.yul\":6673:6734   */\n              tag_148\n              jump\t// in\n            tag_232:\n                /* \"#utility.yul\":6663:6734   */\n              swap2\n              pop\n                /* \"#utility.yul\":6619:6744   */\n              pop\n                /* \"#utility.yul\":6406:6751   */\n              swap3\n              swap2\n              pop\n              pop\n              jump\t// out\n                /* \"#utility.yul\":6757:6923   */\n            tag_149:\n                /* \"#utility.yul\":6897:6915   */\n              0x63616c6c20636c6f7365206572726f7200000000000000000000000000000000\n                /* \"#utility.yul\":6893:6894   */\n              0x00\n                /* \"#utility.yul\":6885:6891   */\n              dup3\n                /* \"#utility.yul\":6881:6895   */\n              add\n                /* \"#utility.yul\":6874:6916   */\n              mstore\n                /* \"#utility.yul\":6757:6923   */\n              pop\n              jump\t// out\n                /* \"#utility.yul\":6929:7295   */\n            tag_150:\n                /* \"#utility.yul\":7071:7074   */\n              0x00\n                /* \"#utility.yul\":7092:7159   */\n              tag_235\n                /* \"#utility.yul\":7156:7158   */\n              0x10\n                /* \"#utility.yul\":7151:7154   */\n              dup4\n                /* \"#utility.yul\":7092:7159   */\n              tag_144\n              jump\t// in\n            tag_235:\n                /* \"#utility.yul\":7085:7159   */\n              swap2\n              pop\n                /* \"#utility.yul\":7168:7261   */\n              tag_236\n                /* \"#utility.yul\":7257:7260   */\n              dup3\n                /* \"#utility.yul\":7168:7261   */\n              tag_149\n              jump\t// in\n            tag_236:\n                /* \"#utility.yul\":7286:7288   */\n              0x20\n                /* \"#utility.yul\":7281:7284   */\n              dup3\n                /* \"#utility.yul\":7277:7289   */\n              add\n                /* \"#utility.yul\":7270:7289   */\n              swap1\n              pop\n                /* \"#utility.yul\":6929:7295   */\n              swap2\n              swap1\n              pop\n              jump\t// out\n                /* \"#utility.yul\":7301:7720   */\n            tag_94:\n                /* \"#utility.yul\":7467:7471   */\n              0x00\n                /* \"#utility.yul\":7505:7507   */\n              0x20\n                /* \"#utility.yul\":7494:7503   */\n              dup3\n                /* \"#utility.yul\":7490:7508   */\n              add\n                /* \"#utility.yul\":7482:7508   */\n              swap1\n              pop\n                /* \"#utility.yul\":7554:7563   */\n              dup2\n                /* \"#utility.yul\":7548:7552   */\n              dup2\n                /* \"#utility.yul\":7544:7564   */\n              sub\n                /* \"#utility.yul\":7540:7541   */\n              0x00\n                /* \"#utility.yul\":7529:7538   */\n              dup4\n                /* \"#utility.yul\":7525:7542   */\n              add\n                /* \"#utility.yul\":7518:7565   */\n              mstore\n                /* \"#utility.yul\":7582:7713   */\n              tag_238\n                /* \"#utility.yul\":7708:7712   */\n              dup2\n                /* \"#utility.yul\":7582:7713   */\n              tag_150\n              jump\t// in\n            tag_238:\n                /* \"#utility.yul\":7574:7713   */\n              swap1\n              pop\n                /* \"#utility.yul\":7301:7720   */\n              swap2\n              swap1\n              pop\n              jump\t// out\n                /* \"#utility.yul\":7726:7903   */\n            tag_151:\n                /* \"#utility.yul\":7866:7895   */\n              0x63616c6c2067657446756e64657273496e646578206572726f72200000000000\n                /* \"#utility.yul\":7862:7863   */\n              0x00\n                /* \"#utility.yul\":7854:7860   */\n              dup3\n                /* \"#utility.yul\":7850:7864   */\n              add\n                /* \"#utility.yul\":7843:7896   */\n              mstore\n                /* \"#utility.yul\":7726:7903   */\n              pop\n              jump\t// out\n                /* \"#utility.yul\":7909:8275   */\n            tag_152:\n                /* \"#utility.yul\":8051:8054   */\n              0x00\n                /* \"#utility.yul\":8072:8139   */\n              tag_241\n                /* \"#utility.yul\":8136:8138   */\n              0x1b\n                /* \"#utility.yul\":8131:8134   */\n              dup4\n                /* \"#utility.yul\":8072:8139   */\n              tag_144\n              jump\t// in\n            tag_241:\n                /* \"#utility.yul\":8065:8139   */\n              swap2\n              pop\n                /* \"#utility.yul\":8148:8241   */\n              tag_242\n                /* \"#utility.yul\":8237:8240   */\n              dup3\n                /* \"#utility.yul\":8148:8241   */\n              tag_151\n              jump\t// in\n            tag_242:\n                /* \"#utility.yul\":8266:8268   */\n              0x20\n                /* \"#utility.yul\":8261:8264   */\n              dup3\n                /* \"#utility.yul\":8257:8269   */\n              add\n                /* \"#utility.yul\":8250:8269   */\n              swap1\n              pop\n                /* \"#utility.yul\":7909:8275   */\n              swap2\n              swap1\n              pop\n              jump\t// out\n                /* \"#utility.yul\":8281:8700   */\n            tag_106:\n                /* \"#utility.yul\":8447:8451   */\n              0x00\n                /* \"#utility.yul\":8485:8487   */\n              0x20\n                /* \"#utility.yul\":8474:8483   */\n              dup3\n                /* \"#utility.yul\":8470:8488   */\n              add\n                /* \"#utility.yul\":8462:8488   */\n              swap1\n              pop\n                /* \"#utility.yul\":8534:8543   */\n              dup2\n                /* \"#utility.yul\":8528:8532   */\n              dup2\n                /* \"#utility.yul\":8524:8544   */\n              sub\n                /* \"#utility.yul\":8520:8521   */\n              0x00\n                /* \"#utility.yul\":8509:8518   */\n              dup4\n                /* \"#utility.yul\":8505:8522   */\n              add\n                /* \"#utility.yul\":8498:8545   */\n              mstore\n                /* \"#utility.yul\":8562:8693   */\n              tag_244\n                /* \"#utility.yul\":8688:8692   */\n              dup2\n                /* \"#utility.yul\":8562:8693   */\n              tag_152\n              jump\t// in\n            tag_244:\n                /* \"#utility.yul\":8554:8693   */\n              swap1\n              pop\n                /* \"#utility.yul\":8281:8700   */\n              swap2\n              swap1\n              pop\n              jump\t// out\n                /* \"#utility.yul\":8706:8849   */\n            tag_153:\n                /* \"#utility.yul\":8763:8768   */\n              0x00\n                /* \"#utility.yul\":8794:8800   */\n              dup2\n                /* \"#utility.yul\":8788:8801   */\n              mload\n                /* \"#utility.yul\":8779:8801   */\n              swap1\n              pop\n                /* \"#utility.yul\":8810:8843   */\n              tag_246\n                /* \"#utility.yul\":8837:8842   */\n              dup2\n                /* \"#utility.yul\":8810:8843   */\n              tag_138\n              jump\t// in\n            tag_246:\n                /* \"#utility.yul\":8706:8849   */\n              swap3\n              swap2\n              pop\n              pop\n              jump\t// out\n                /* \"#utility.yul\":8855:9206   */\n            tag_108:\n                /* \"#utility.yul\":8925:8931   */\n              0x00\n                /* \"#utility.yul\":8974:8976   */\n              0x20\n                /* \"#utility.yul\":8962:8971   */\n              dup3\n                /* \"#utility.yul\":8953:8960   */\n              dup5\n                /* \"#utility.yul\":8949:8972   */\n              sub\n                /* \"#utility.yul\":8945:8977   */\n              slt\n                /* \"#utility.yul\":8942:9061   */\n              iszero\n              tag_248\n              jumpi\n                /* \"#utility.yul\":8980:9059   */\n              tag_249\n              tag_132\n              jump\t// in\n            tag_249:\n                /* \"#utility.yul\":8942:9061   */\n            tag_248:\n                /* \"#utility.yul\":9100:9101   */\n              0x00\n                /* \"#utility.yul\":9125:9189   */\n              tag_250\n                /* \"#utility.yul\":9181:9188   */\n              dup5\n                /* \"#utility.yul\":9172:9178   */\n              dup3\n                /* \"#utility.yul\":9161:9170   */\n              dup6\n                /* \"#utility.yul\":9157:9179   */\n              add\n                /* \"#utility.yul\":9125:9189   */\n              tag_153\n              jump\t// in\n            tag_250:\n                /* \"#utility.yul\":9115:9189   */\n              swap2\n              pop\n                /* \"#utility.yul\":9071:9199   */\n              pop\n                /* \"#utility.yul\":8855:9206   */\n              swap3\n              swap2\n              pop\n              pop\n              jump\t// out\n                /* \"#utility.yul\":9212:9385   */\n            tag_154:\n                /* \"#utility.yul\":9352:9377   */\n              0x63616c6c20636f6e747269627574696f6e206572726f72000000000000000000\n                /* \"#utility.yul\":9348:9349   */\n              0x00\n                /* \"#utility.yul\":9340:9346   */\n              dup3\n                /* \"#utility.yul\":9336:9350   */\n              add\n                /* \"#utility.yul\":9329:9378   */\n              mstore\n                /* \"#utility.yul\":9212:9385   */\n              pop\n              jump\t// out\n                /* \"#utility.yul\":9391:9757   */\n            tag_155:\n                /* \"#utility.yul\":9533:9536   */\n              0x00\n                /* \"#utility.yul\":9554:9621   */\n              tag_253\n                /* \"#utility.yul\":9618:9620   */\n              0x17\n                /* \"#utility.yul\":9613:9616   */\n              dup4\n                /* \"#utility.yul\":9554:9621   */\n              tag_144\n              jump\t// in\n            tag_253:\n                /* \"#utility.yul\":9547:9621   */\n              swap2\n              pop\n                /* \"#utility.yul\":9630:9723   */\n              tag_254\n                /* \"#utility.yul\":9719:9722   */\n              dup3\n                /* \"#utility.yul\":9630:9723   */\n              tag_154\n              jump\t// in\n            tag_254:\n                /* \"#utility.yul\":9748:9750   */\n              0x20\n                /* \"#utility.yul\":9743:9746   */\n              dup3\n                /* \"#utility.yul\":9739:9751   */\n              add\n                /* \"#utility.yul\":9732:9751   */\n              swap1\n              pop\n                /* \"#utility.yul\":9391:9757   */\n              swap2\n              swap1\n              pop\n              jump\t// out\n                /* \"#utility.yul\":9763:10182   */\n            tag_116:\n                /* \"#utility.yul\":9929:9933   */\n              0x00\n                /* \"#utility.yul\":9967:9969   */\n              0x20\n                /* \"#utility.yul\":9956:9965   */\n              dup3\n                /* \"#utility.yul\":9952:9970   */\n              add\n                /* \"#utility.yul\":9944:9970   */\n              swap1\n              pop\n                /* \"#utility.yul\":10016:10025   */\n              dup2\n                /* \"#utility.yul\":10010:10014   */\n              dup2\n                /* \"#utility.yul\":10006:10026   */\n              sub\n                /* \"#utility.yul\":10002:10003   */\n              0x00\n                /* \"#utility.yul\":9991:10000   */\n              dup4\n                /* \"#utility.yul\":9987:10004   */\n              add\n                /* \"#utility.yul\":9980:10027   */\n              mstore\n                /* \"#utility.yul\":10044:10175   */\n              tag_256\n                /* \"#utility.yul\":10170:10174   */\n              dup2\n                /* \"#utility.yul\":10044:10175   */\n              tag_155\n              jump\t// in\n            tag_256:\n                /* \"#utility.yul\":10036:10175   */\n              swap1\n              pop\n                /* \"#utility.yul\":9763:10182   */\n              swap2\n              swap1\n              pop\n              jump\t// out\n                /* \"#utility.yul\":10188:10362   */\n            tag_156:\n                /* \"#utility.yul\":10328:10354   */\n              0x63616c6c2066756e646572734c656e677468206572726f720000000000000000\n                /* \"#utility.yul\":10324:10325   */\n              0x00\n                /* \"#utility.yul\":10316:10322   */\n              dup3\n                /* \"#utility.yul\":10312:10326   */\n              add\n                /* \"#utility.yul\":10305:10355   */\n              mstore\n                /* \"#utility.yul\":10188:10362   */\n              pop\n              jump\t// out\n                /* \"#utility.yul\":10368:10734   */\n            tag_157:\n                /* \"#utility.yul\":10510:10513   */\n              0x00\n                /* \"#utility.yul\":10531:10598   */\n              tag_259\n                /* \"#utility.yul\":10595:10597   */\n              0x18\n                /* \"#utility.yul\":10590:10593   */\n              dup4\n                /* \"#utility.yul\":10531:10598   */\n              tag_144\n              jump\t// in\n            tag_259:\n                /* \"#utility.yul\":10524:10598   */\n              swap2\n              pop\n                /* \"#utility.yul\":10607:10700   */\n              tag_260\n                /* \"#utility.yul\":10696:10699   */\n              dup3\n                /* \"#utility.yul\":10607:10700   */\n              tag_156\n              jump\t// in\n            tag_260:\n                /* \"#utility.yul\":10725:10727   */\n              0x20\n                /* \"#utility.yul\":10720:10723   */\n              dup3\n                /* \"#utility.yul\":10716:10728   */\n              add\n                /* \"#utility.yul\":10709:10728   */\n              swap1\n              pop\n                /* \"#utility.yul\":10368:10734   */\n              swap2\n              swap1\n              pop\n              jump\t// out\n                /* \"#utility.yul\":10740:11159   */\n            tag_124:\n                /* \"#utility.yul\":10906:10910   */\n              0x00\n                /* \"#utility.yul\":10944:10946   */\n              0x20\n                /* \"#utility.yul\":10933:10942   */\n              dup3\n                /* \"#utility.yul\":10929:10947   */\n              add\n                /* \"#utility.yul\":10921:10947   */\n              swap1\n              pop\n                /* \"#utility.yul\":10993:11002   */\n              dup2\n                /* \"#utility.yul\":10987:10991   */\n              dup2\n                /* \"#utility.yul\":10983:11003   */\n              sub\n                /* \"#utility.yul\":10979:10980   */\n              0x00\n                /* \"#utility.yul\":10968:10977   */\n              dup4\n                /* \"#utility.yul\":10964:10981   */\n              add\n                /* \"#utility.yul\":10957:11004   */\n              mstore\n                /* \"#utility.yul\":11021:11152   */\n              tag_262\n                /* \"#utility.yul\":11147:11151   */\n              dup2\n                /* \"#utility.yul\":11021:11152   */\n              tag_157\n              jump\t// in\n            tag_262:\n                /* \"#utility.yul\":11013:11152   */\n              swap1\n              pop\n                /* \"#utility.yul\":10740:11159   */\n              swap2\n              swap1\n              pop\n              jump\t// out\n\n            auxdata: 0xa26469706673582212202f1bae94318afd73aff73c87dec46323880f40b61c808bdfc64f56963582b9c764736f6c63430008160033\n        }\n    }\n\n    auxdata: 0xa264697066735822122027194e9c04ce4c1197e6c2d093bfa151aeafdb9f4e23ba98d9f8d5f88359774164736f6c63430008160033\n}\n",
				"bytecode": {
					"linkReferences": {},
					"object": "608060405234801561000f575f80fd5b506118e68061001d5f395ff3fe608060405234801562000010575f80fd5b506004361062000044575f3560e01c806381871cbc14620000485780639c4ae2d0146200007e578063f420b25814620000b4575b5f80fd5b62000066600480360381019062000060919062000314565b620000ea565b604051620000759190620003ed565b60405180910390f35b6200009c600480360381019062000096919062000557565b62000165565b604051620000ab9190620005cc565b60405180910390f35b620000d26004803603810190620000cc9190620005e7565b62000221565b604051620000e19190620005cc565b60405180910390f35b60605f60405180602001620000ff906200025c565b6020820181038252601f19601f8201166040525090508084846040516020016200012b92919062000628565b6040516020818303038152906040526040516020016200014d92919062000693565b60405160208183030381529060405291505092915050565b5f805f845103620001ad576040517f08c379a0000000000000000000000000000000000000000000000000000000008152600401620001a49062000718565b60405180910390fd5b828451602086015ff590505f81908060018154018082558091505060019003905f5260205f20015f9091909190916101000a81548173ffffffffffffffffffffffffffffffffffffffff021916908373ffffffffffffffffffffffffffffffffffffffff1602179055508091505092915050565b5f818154811062000230575f80fd5b905f5260205f20015f915054906101000a900473ffffffffffffffffffffffffffffffffffffffff1681565b611178806200073983390190565b5f604051905090565b5f80fd5b5f80fd5b5f73ffffffffffffffffffffffffffffffffffffffff82169050919050565b5f620002a6826200027b565b9050919050565b620002b8816200029a565b8114620002c3575f80fd5b50565b5f81359050620002d681620002ad565b92915050565b5f819050919050565b620002f081620002dc565b8114620002fb575f80fd5b50565b5f813590506200030e81620002e5565b92915050565b5f80604083850312156200032d576200032c62000273565b5b5f6200033c85828601620002c6565b92505060206200034f85828601620002fe565b9150509250929050565b5f81519050919050565b5f82825260208201905092915050565b5f5b838110156200039257808201518184015260208101905062000375565b5f8484015250505050565b5f601f19601f8301169050919050565b5f620003b98262000359565b620003c5818562000363565b9350620003d781856020860162000373565b620003e2816200039d565b840191505092915050565b5f6020820190508181035f830152620004078184620003ad565b905092915050565b5f80fd5b5f80fd5b7f4e487b71000000000000000000000000000000000000000000000000000000005f52604160045260245ffd5b6200044f826200039d565b810181811067ffffffffffffffff8211171562000471576200047062000417565b5b80604052505050565b5f620004856200026a565b905062000493828262000444565b919050565b5f67ffffffffffffffff821115620004b557620004b462000417565b5b620004c0826200039d565b9050602081019050919050565b828183375f83830152505050565b5f620004f1620004eb8462000498565b6200047a565b90508281526020810184848401111562000510576200050f62000413565b5b6200051d848285620004cd565b509392505050565b5f82601f8301126200053c576200053b6200040f565b5b81356200054e848260208601620004db565b91505092915050565b5f806040838503121562000570576200056f62000273565b5b5f83013567ffffffffffffffff81111562000590576200058f62000277565b5b6200059e8582860162000525565b9250506020620005b185828601620002fe565b9150509250929050565b620005c6816200029a565b82525050565b5f602082019050620005e15f830184620005bb565b92915050565b5f60208284031215620005ff57620005fe62000273565b5b5f6200060e84828501620002fe565b91505092915050565b6200062281620002dc565b82525050565b5f6040820190506200063d5f830185620005bb565b6200064c602083018462000617565b9392505050565b5f81905092915050565b5f620006698262000359565b62000675818562000653565b93506200068781856020860162000373565b80840191505092915050565b5f620006a082856200065d565b9150620006ae82846200065d565b91508190509392505050565b5f82825260208201905092915050565b7f62797465636f6465206973207a65726f000000000000000000000000000000005f82015250565b5f62000700601083620006ba565b91506200070d82620006ca565b602082019050919050565b5f6020820190508181035f8301526200073181620006f2565b905091905056fe60c0604052600160025f6101000a81548160ff021916908315150217905550601e426200002d9190620000dc565b6003553480156200003c575f80fd5b5060405162001178380380620011788339818101604052810190620000629190620001aa565b8173ffffffffffffffffffffffffffffffffffffffff1660808173ffffffffffffffffffffffffffffffffffffffff16815250508060a081815250505050620001ef565b5f819050919050565b7f4e487b71000000000000000000000000000000000000000000000000000000005f52601160045260245ffd5b5f620000e882620000a6565b9150620000f583620000a6565b925082820190508082111562000110576200010f620000af565b5b92915050565b5f80fd5b5f73ffffffffffffffffffffffffffffffffffffffff82169050919050565b5f62000145826200011a565b9050919050565b620001578162000139565b811462000162575f80fd5b50565b5f8151905062000175816200014c565b92915050565b6200018681620000a6565b811462000191575f80fd5b50565b5f81519050620001a4816200017b565b92915050565b5f8060408385031215620001c357620001c262000116565b5b5f620001d28582860162000165565b9250506020620001e58582860162000194565b9150509250929050565b60805160a051610f67620002115f395f61048001525f61030e0152610f675ff3fe6080604052600436106100a6575f3560e01c8063b3de648b11610063578063b3de648b146101b8578063c74073a1146101f4578063dc0d3dff14610230578063dec160581461026d578063e2dc4310146102a9578063f95e4368146102c5576100a6565b806304a79c97146100aa57806329dcb0cf146100d457806338af3eed146100fe57806351cff8d9146101285780637a3a0e841461016457806394de84841461018e575b5f80fd5b3480156100b5575f80fd5b506100be610301565b6040516100cb9190610a4c565b60405180910390f35b3480156100df575f80fd5b506100e8610306565b6040516100f59190610a4c565b60405180910390f35b348015610109575f80fd5b5061011261030c565b60405161011f9190610aa4565b60405180910390f35b348015610133575f80fd5b5061014e60048036038101906101499190610aeb565b610330565b60405161015b9190610b30565b60405180910390f35b34801561016f575f80fd5b5061017861047e565b6040516101859190610a4c565b60405180910390f35b348015610199575f80fd5b506101a26104a2565b6040516101af9190610b30565b60405180910390f35b3480156101c3575f80fd5b506101de60048036038101906101d99190610b73565b6104b4565b6040516101eb9190610a4c565b60405180910390f35b3480156101ff575f80fd5b5061021a60048036038101906102159190610aeb565b6104be565b6040516102279190610b30565b60405180910390f35b34801561023b575f80fd5b5061025660048036038101906102519190610b73565b61060c565b604051610264929190610b9e565b60405180910390f35b348015610278575f80fd5b50610293600480360381019061028e9190610bc5565b61065a565b6040516102a09190610a4c565b60405180910390f35b6102c360048036038101906102be9190610aeb565b6107b4565b005b3480156102d0575f80fd5b506102eb60048036038101906102e69190610aeb565b6108e6565b6040516102f89190610a4c565b60405180910390f35b5f5481565b60035481565b7f000000000000000000000000000000000000000000000000000000000000000081565b5f806040516024016040516020818303038152906040527f3ccfd60b000000000000000000000000000000000000000000000000000000007bffffffffffffffffffffffffffffffffffffffffffffffffffffffff19166020820180517bffffffffffffffffffffffffffffffffffffffffffffffffffffffff838183161783525050505090505f808473ffffffffffffffffffffffffffffffffffffffff16836040516103de9190610c6f565b5f60405180830381855af49150503d805f8114610416576040519150601f19603f3d011682016040523d82523d5f602084013e61041b565b606091505b509150915081610460576040517f08c379a000000000000000000000000000000000000000000000000000000000815260040161045790610cdf565b60405180910390fd5b808060200190518101906104749190610d27565b9350505050919050565b7f000000000000000000000000000000000000000000000000000000000000000081565b60025f9054906101000a900460ff1681565b5f81549050919050565b5f806040516024016040516020818303038152906040527f43d726d6000000000000000000000000000000000000000000000000000000007bffffffffffffffffffffffffffffffffffffffffffffffffffffffff19166020820180517bffffffffffffffffffffffffffffffffffffffffffffffffffffffff838183161783525050505090505f808473ffffffffffffffffffffffffffffffffffffffff168360405161056c9190610c6f565b5f60405180830381855af49150503d805f81146105a4576040519150601f19603f3d011682016040523d82523d5f602084013e6105a9565b606091505b5091509150816105ee576040517f08c379a00000000000000000000000000000000000000000000000000000000081526004016105e590610d9c565b60405180910390fd5b808060200190518101906106029190610d27565b9350505050919050565b6001818154811061061b575f80fd5b905f5260205f2090600202015f91509050805f015f9054906101000a900473ffffffffffffffffffffffffffffffffffffffff16908060010154905082565b5f808260405160240161066d9190610aa4565b6040516020818303038152906040527f0c051585000000000000000000000000000000000000000000000000000000007bffffffffffffffffffffffffffffffffffffffffffffffffffffffff19166020820180517bffffffffffffffffffffffffffffffffffffffffffffffffffffffff838183161783525050505090505f808573ffffffffffffffffffffffffffffffffffffffff16836040516107139190610c6f565b5f60405180830381855af49150503d805f811461074b576040519150601f19603f3d011682016040523d82523d5f602084013e610750565b606091505b509150915081610795576040517f08c379a000000000000000000000000000000000000000000000000000000000815260040161078c90610e04565b60405180910390fd5b808060200190518101906107a99190610e36565b935050505092915050565b5f6040516024016040516020818303038152906040527f50520b1f000000000000000000000000000000000000000000000000000000007bffffffffffffffffffffffffffffffffffffffffffffffffffffffff19166020820180517bffffffffffffffffffffffffffffffffffffffffffffffffffffffff838183161783525050505090505f8273ffffffffffffffffffffffffffffffffffffffff16826040516108609190610c6f565b5f60405180830381855af49150503d805f8114610898576040519150601f19603f3d011682016040523d82523d5f602084013e61089d565b606091505b50509050806108e1576040517f08c379a00000000000000000000000000000000000000000000000000000000081526004016108d890610eab565b60405180910390fd5b505050565b5f806040516024016040516020818303038152906040527fe3d94735000000000000000000000000000000000000000000000000000000007bffffffffffffffffffffffffffffffffffffffffffffffffffffffff19166020820180517bffffffffffffffffffffffffffffffffffffffffffffffffffffffff838183161783525050505090505f808473ffffffffffffffffffffffffffffffffffffffff16836040516109949190610c6f565b5f60405180830381855af49150503d805f81146109cc576040519150601f19603f3d011682016040523d82523d5f602084013e6109d1565b606091505b509150915081610a16576040517f08c379a0000000000000000000000000000000000000000000000000000000008152600401610a0d90610f13565b60405180910390fd5b80806020019051810190610a2a9190610e36565b9350505050919050565b5f819050919050565b610a4681610a34565b82525050565b5f602082019050610a5f5f830184610a3d565b92915050565b5f73ffffffffffffffffffffffffffffffffffffffff82169050919050565b5f610a8e82610a65565b9050919050565b610a9e81610a84565b82525050565b5f602082019050610ab75f830184610a95565b92915050565b5f80fd5b610aca81610a84565b8114610ad4575f80fd5b50565b5f81359050610ae581610ac1565b92915050565b5f60208284031215610b0057610aff610abd565b5b5f610b0d84828501610ad7565b91505092915050565b5f8115159050919050565b610b2a81610b16565b82525050565b5f602082019050610b435f830184610b21565b92915050565b610b5281610a34565b8114610b5c575f80fd5b50565b5f81359050610b6d81610b49565b92915050565b5f60208284031215610b8857610b87610abd565b5b5f610b9584828501610b5f565b91505092915050565b5f604082019050610bb15f830185610a95565b610bbe6020830184610a3d565b9392505050565b5f8060408385031215610bdb57610bda610abd565b5b5f610be885828601610ad7565b9250506020610bf985828601610ad7565b9150509250929050565b5f81519050919050565b5f81905092915050565b5f5b83811015610c34578082015181840152602081019050610c19565b5f8484015250505050565b5f610c4982610c03565b610c538185610c0d565b9350610c63818560208601610c17565b80840191505092915050565b5f610c7a8284610c3f565b915081905092915050565b5f82825260208201905092915050565b7f63616c6c207769746864726177206572726f72000000000000000000000000005f82015250565b5f610cc9601383610c85565b9150610cd482610c95565b602082019050919050565b5f6020820190508181035f830152610cf681610cbd565b9050919050565b610d0681610b16565b8114610d10575f80fd5b50565b5f81519050610d2181610cfd565b92915050565b5f60208284031215610d3c57610d3b610abd565b5b5f610d4984828501610d13565b91505092915050565b7f63616c6c20636c6f7365206572726f72000000000000000000000000000000005f82015250565b5f610d86601083610c85565b9150610d9182610d52565b602082019050919050565b5f6020820190508181035f830152610db381610d7a565b9050919050565b7f63616c6c2067657446756e64657273496e646578206572726f722000000000005f82015250565b5f610dee601b83610c85565b9150610df982610dba565b602082019050919050565b5f6020820190508181035f830152610e1b81610de2565b9050919050565b5f81519050610e3081610b49565b92915050565b5f60208284031215610e4b57610e4a610abd565b5b5f610e5884828501610e22565b91505092915050565b7f63616c6c20636f6e747269627574696f6e206572726f720000000000000000005f82015250565b5f610e95601783610c85565b9150610ea082610e61565b602082019050919050565b5f6020820190508181035f830152610ec281610e89565b9050919050565b7f63616c6c2066756e646572734c656e677468206572726f7200000000000000005f82015250565b5f610efd601883610c85565b9150610f0882610ec9565b602082019050919050565b5f6020820190508181035f830152610f2a81610ef1565b905091905056fea26469706673582212202f1bae94318afd73aff73c87dec46323880f40b61c808bdfc64f56963582b9c764736f6c63430008160033a264697066735822122027194e9c04ce4c1197e6c2d093bfa151aeafdb9f4e23ba98d9f8d5f88359774164736f6c63430008160033",
					"opcodes": "PUSH1 0x80 PUSH1 0x40 MSTORE CALLVALUE DUP1 ISZERO PUSH2 0xF JUMPI PUSH0 DUP1 REVERT JUMPDEST POP PUSH2 0x18E6 DUP1 PUSH2 0x1D PUSH0 CODECOPY PUSH0 RETURN INVALID PUSH1 0x80 PUSH1 0x40 MSTORE CALLVALUE DUP1 ISZERO PUSH3 0x10 JUMPI PUSH0 DUP1 REVERT JUMPDEST POP PUSH1 0x4 CALLDATASIZE LT PUSH3 0x44 JUMPI PUSH0 CALLDATALOAD PUSH1 0xE0 SHR DUP1 PUSH4 0x81871CBC EQ PUSH3 0x48 JUMPI DUP1 PUSH4 0x9C4AE2D0 EQ PUSH3 0x7E JUMPI DUP1 PUSH4 0xF420B258 EQ PUSH3 0xB4 JUMPI JUMPDEST PUSH0 DUP1 REVERT JUMPDEST PUSH3 0x66 PUSH1 0x4 DUP1 CALLDATASIZE SUB DUP2 ADD SWAP1 PUSH3 0x60 SWAP2 SWAP1 PUSH3 0x314 JUMP JUMPDEST PUSH3 0xEA JUMP JUMPDEST PUSH1 0x40 MLOAD PUSH3 0x75 SWAP2 SWAP1 PUSH3 0x3ED JUMP JUMPDEST PUSH1 0x40 MLOAD DUP1 SWAP2 SUB SWAP1 RETURN JUMPDEST PUSH3 0x9C PUSH1 0x4 DUP1 CALLDATASIZE SUB DUP2 ADD SWAP1 PUSH3 0x96 SWAP2 SWAP1 PUSH3 0x557 JUMP JUMPDEST PUSH3 0x165 JUMP JUMPDEST PUSH1 0x40 MLOAD PUSH3 0xAB SWAP2 SWAP1 PUSH3 0x5CC JUMP JUMPDEST PUSH1 0x40 MLOAD DUP1 SWAP2 SUB SWAP1 RETURN JUMPDEST PUSH3 0xD2 PUSH1 0x4 DUP1 CALLDATASIZE SUB DUP2 ADD SWAP1 PUSH3 0xCC SWAP2 SWAP1 PUSH3 0x5E7 JUMP JUMPDEST PUSH3 0x221 JUMP JUMPDEST PUSH1 0x40 MLOAD PUSH3 0xE1 SWAP2 SWAP1 PUSH3 0x5CC JUMP JUMPDEST PUSH1 0x40 MLOAD DUP1 SWAP2 SUB SWAP1 RETURN JUMPDEST PUSH1 0x60 PUSH0 PUSH1 0x40 MLOAD DUP1 PUSH1 0x20 ADD PUSH3 0xFF SWAP1 PUSH3 0x25C JUMP JUMPDEST PUSH1 0x20 DUP3 ADD DUP2 SUB DUP3 MSTORE PUSH1 0x1F NOT PUSH1 0x1F DUP3 ADD AND PUSH1 0x40 MSTORE POP SWAP1 POP DUP1 DUP5 DUP5 PUSH1 0x40 MLOAD PUSH1 0x20 ADD PUSH3 0x12B SWAP3 SWAP2 SWAP1 PUSH3 0x628 JUMP JUMPDEST PUSH1 0x40 MLOAD PUSH1 0x20 DUP2 DUP4 SUB SUB DUP2 MSTORE SWAP1 PUSH1 0x40 MSTORE PUSH1 0x40 MLOAD PUSH1 0x20 ADD PUSH3 0x14D SWAP3 SWAP2 SWAP1 PUSH3 0x693 JUMP JUMPDEST PUSH1 0x40 MLOAD PUSH1 0x20 DUP2 DUP4 SUB SUB DUP2 MSTORE SWAP1 PUSH1 0x40 MSTORE SWAP2 POP POP SWAP3 SWAP2 POP POP JUMP JUMPDEST PUSH0 DUP1 PUSH0 DUP5 MLOAD SUB PUSH3 0x1AD JUMPI PUSH1 0x40 MLOAD PUSH32 0x8C379A000000000000000000000000000000000000000000000000000000000 DUP2 MSTORE PUSH1 0x4 ADD PUSH3 0x1A4 SWAP1 PUSH3 0x718 JUMP JUMPDEST PUSH1 0x40 MLOAD DUP1 SWAP2 SUB SWAP1 REVERT JUMPDEST DUP3 DUP5 MLOAD PUSH1 0x20 DUP7 ADD PUSH0 CREATE2 SWAP1 POP PUSH0 DUP2 SWAP1 DUP1 PUSH1 0x1 DUP2 SLOAD ADD DUP1 DUP3 SSTORE DUP1 SWAP2 POP POP PUSH1 0x1 SWAP1 SUB SWAP1 PUSH0 MSTORE PUSH1 0x20 PUSH0 KECCAK256 ADD PUSH0 SWAP1 SWAP2 SWAP1 SWAP2 SWAP1 SWAP2 PUSH2 0x100 EXP DUP2 SLOAD DUP2 PUSH20 0xFFFFFFFFFFFFFFFFFFFFFFFFFFFFFFFFFFFFFFFF MUL NOT AND SWAP1 DUP4 PUSH20 0xFFFFFFFFFFFFFFFFFFFFFFFFFFFFFFFFFFFFFFFF AND MUL OR SWAP1 SSTORE POP DUP1 SWAP2 POP POP SWAP3 SWAP2 POP POP JUMP JUMPDEST PUSH0 DUP2 DUP2 SLOAD DUP2 LT PUSH3 0x230 JUMPI PUSH0 DUP1 REVERT JUMPDEST SWAP1 PUSH0 MSTORE PUSH1 0x20 PUSH0 KECCAK256 ADD PUSH0 SWAP2 POP SLOAD SWAP1 PUSH2 0x100 EXP SWAP1 DIV PUSH20 0xFFFFFFFFFFFFFFFFFFFFFFFFFFFFFFFFFFFFFFFF AND DUP2 JUMP JUMPDEST PUSH2 0x1178 DUP1 PUSH3 0x739 DUP4 CODECOPY ADD SWAP1 JUMP JUMPDEST PUSH0 PUSH1 0x40 MLOAD SWAP1 POP SWAP1 JUMP JUMPDEST PUSH0 DUP1 REVERT JUMPDEST PUSH0 DUP1 REVERT JUMPDEST PUSH0 PUSH20 0xFFFFFFFFFFFFFFFFFFFFFFFFFFFFFFFFFFFFFFFF DUP3 AND SWAP1 POP SWAP2 SWAP1 POP JUMP JUMPDEST PUSH0 PUSH3 0x2A6 DUP3 PUSH3 0x27B JUMP JUMPDEST SWAP1 POP SWAP2 SWAP1 POP JUMP JUMPDEST PUSH3 0x2B8 DUP2 PUSH3 0x29A JUMP JUMPDEST DUP2 EQ PUSH3 0x2C3 JUMPI PUSH0 DUP1 REVERT JUMPDEST POP JUMP JUMPDEST PUSH0 DUP2 CALLDATALOAD SWAP1 POP PUSH3 0x2D6 DUP2 PUSH3 0x2AD JUMP JUMPDEST SWAP3 SWAP2 POP POP JUMP JUMPDEST PUSH0 DUP2 SWAP1 POP SWAP2 SWAP1 POP JUMP JUMPDEST PUSH3 0x2F0 DUP2 PUSH3 0x2DC JUMP JUMPDEST DUP2 EQ PUSH3 0x2FB JUMPI PUSH0 DUP1 REVERT JUMPDEST POP JUMP JUMPDEST PUSH0 DUP2 CALLDATALOAD SWAP1 POP PUSH3 0x30E DUP2 PUSH3 0x2E5 JUMP JUMPDEST SWAP3 SWAP2 POP POP JUMP JUMPDEST PUSH0 DUP1 PUSH1 0x40 DUP4 DUP6 SUB SLT ISZERO PUSH3 0x32D JUMPI PUSH3 0x32C PUSH3 0x273 JUMP JUMPDEST JUMPDEST PUSH0 PUSH3 0x33C DUP6 DUP3 DUP7 ADD PUSH3 0x2C6 JUMP JUMPDEST SWAP3 POP POP PUSH1 0x20 PUSH3 0x34F DUP6 DUP3 DUP7 ADD PUSH3 0x2FE JUMP JUMPDEST SWAP2 POP POP SWAP3 POP SWAP3 SWAP1 POP JUMP JUMPDEST PUSH0 DUP2 MLOAD SWAP1 POP SWAP2 SWAP1 POP JUMP JUMPDEST PUSH0 DUP3 DUP3 MSTORE PUSH1 0x20 DUP3 ADD SWAP1 POP SWAP3 SWAP2 POP POP JUMP JUMPDEST PUSH0 JUMPDEST DUP4 DUP2 LT ISZERO PUSH3 0x392 JUMPI DUP1 DUP3 ADD MLOAD DUP2 DUP5 ADD MSTORE PUSH1 0x20 DUP2 ADD SWAP1 POP PUSH3 0x375 JUMP JUMPDEST PUSH0 DUP5 DUP5 ADD MSTORE POP POP POP POP JUMP JUMPDEST PUSH0 PUSH1 0x1F NOT PUSH1 0x1F DUP4 ADD AND SWAP1 POP SWAP2 SWAP1 POP JUMP JUMPDEST PUSH0 PUSH3 0x3B9 DUP3 PUSH3 0x359 JUMP JUMPDEST PUSH3 0x3C5 DUP2 DUP6 PUSH3 0x363 JUMP JUMPDEST SWAP4 POP PUSH3 0x3D7 DUP2 DUP6 PUSH1 0x20 DUP7 ADD PUSH3 0x373 JUMP JUMPDEST PUSH3 0x3E2 DUP2 PUSH3 0x39D JUMP JUMPDEST DUP5 ADD SWAP2 POP POP SWAP3 SWAP2 POP POP JUMP JUMPDEST PUSH0 PUSH1 0x20 DUP3 ADD SWAP1 POP DUP2 DUP2 SUB PUSH0 DUP4 ADD MSTORE PUSH3 0x407 DUP2 DUP5 PUSH3 0x3AD JUMP JUMPDEST SWAP1 POP SWAP3 SWAP2 POP POP JUMP JUMPDEST PUSH0 DUP1 REVERT JUMPDEST PUSH0 DUP1 REVERT JUMPDEST PUSH32 0x4E487B7100000000000000000000000000000000000000000000000000000000 PUSH0 MSTORE PUSH1 0x41 PUSH1 0x4 MSTORE PUSH1 0x24 PUSH0 REVERT JUMPDEST PUSH3 0x44F DUP3 PUSH3 0x39D JUMP JUMPDEST DUP2 ADD DUP2 DUP2 LT PUSH8 0xFFFFFFFFFFFFFFFF DUP3 GT OR ISZERO PUSH3 0x471 JUMPI PUSH3 0x470 PUSH3 0x417 JUMP JUMPDEST JUMPDEST DUP1 PUSH1 0x40 MSTORE POP POP POP JUMP JUMPDEST PUSH0 PUSH3 0x485 PUSH3 0x26A JUMP JUMPDEST SWAP1 POP PUSH3 0x493 DUP3 DUP3 PUSH3 0x444 JUMP JUMPDEST SWAP2 SWAP1 POP JUMP JUMPDEST PUSH0 PUSH8 0xFFFFFFFFFFFFFFFF DUP3 GT ISZERO PUSH3 0x4B5 JUMPI PUSH3 0x4B4 PUSH3 0x417 JUMP JUMPDEST JUMPDEST PUSH3 0x4C0 DUP3 PUSH3 0x39D JUMP JUMPDEST SWAP1 POP PUSH1 0x20 DUP2 ADD SWAP1 POP SWAP2 SWAP1 POP JUMP JUMPDEST DUP3 DUP2 DUP4 CALLDATACOPY PUSH0 DUP4 DUP4 ADD MSTORE POP POP POP JUMP JUMPDEST PUSH0 PUSH3 0x4F1 PUSH3 0x4EB DUP5 PUSH3 0x498 JUMP JUMPDEST PUSH3 0x47A JUMP JUMPDEST SWAP1 POP DUP3 DUP2 MSTORE PUSH1 0x20 DUP2 ADD DUP5 DUP5 DUP5 ADD GT ISZERO PUSH3 0x510 JUMPI PUSH3 0x50F PUSH3 0x413 JUMP JUMPDEST JUMPDEST PUSH3 0x51D DUP5 DUP3 DUP6 PUSH3 0x4CD JUMP JUMPDEST POP SWAP4 SWAP3 POP POP POP JUMP JUMPDEST PUSH0 DUP3 PUSH1 0x1F DUP4 ADD SLT PUSH3 0x53C JUMPI PUSH3 0x53B PUSH3 0x40F JUMP JUMPDEST JUMPDEST DUP2 CALLDATALOAD PUSH3 0x54E DUP5 DUP3 PUSH1 0x20 DUP7 ADD PUSH3 0x4DB JUMP JUMPDEST SWAP2 POP POP SWAP3 SWAP2 POP POP JUMP JUMPDEST PUSH0 DUP1 PUSH1 0x40 DUP4 DUP6 SUB SLT ISZERO PUSH3 0x570 JUMPI PUSH3 0x56F PUSH3 0x273 JUMP JUMPDEST JUMPDEST PUSH0 DUP4 ADD CALLDATALOAD PUSH8 0xFFFFFFFFFFFFFFFF DUP2 GT ISZERO PUSH3 0x590 JUMPI PUSH3 0x58F PUSH3 0x277 JUMP JUMPDEST JUMPDEST PUSH3 0x59E DUP6 DUP3 DUP7 ADD PUSH3 0x525 JUMP JUMPDEST SWAP3 POP POP PUSH1 0x20 PUSH3 0x5B1 DUP6 DUP3 DUP7 ADD PUSH3 0x2FE JUMP JUMPDEST SWAP2 POP POP SWAP3 POP SWAP3 SWAP1 POP JUMP JUMPDEST PUSH3 0x5C6 DUP2 PUSH3 0x29A JUMP JUMPDEST DUP3 MSTORE POP POP JUMP JUMPDEST PUSH0 PUSH1 0x20 DUP3 ADD SWAP1 POP PUSH3 0x5E1 PUSH0 DUP4 ADD DUP5 PUSH3 0x5BB JUMP JUMPDEST SWAP3 SWAP2 POP POP JUMP JUMPDEST PUSH0 PUSH1 0x20 DUP3 DUP5 SUB SLT ISZERO PUSH3 0x5FF JUMPI PUSH3 0x5FE PUSH3 0x273 JUMP JUMPDEST JUMPDEST PUSH0 PUSH3 0x60E DUP5 DUP3 DUP6 ADD PUSH3 0x2FE JUMP JUMPDEST SWAP2 POP POP SWAP3 SWAP2 POP POP JUMP JUMPDEST PUSH3 0x622 DUP2 PUSH3 0x2DC JUMP JUMPDEST DUP3 MSTORE POP POP JUMP JUMPDEST PUSH0 PUSH1 0x40 DUP3 ADD SWAP1 POP PUSH3 0x63D PUSH0 DUP4 ADD DUP6 PUSH3 0x5BB JUMP JUMPDEST PUSH3 0x64C PUSH1 0x20 DUP4 ADD DUP5 PUSH3 0x617 JUMP JUMPDEST SWAP4 SWAP3 POP POP POP JUMP JUMPDEST PUSH0 DUP2 SWAP1 POP SWAP3 SWAP2 POP POP JUMP JUMPDEST PUSH0 PUSH3 0x669 DUP3 PUSH3 0x359 JUMP JUMPDEST PUSH3 0x675 DUP2 DUP6 PUSH3 0x653 JUMP JUMPDEST SWAP4 POP PUSH3 0x687 DUP2 DUP6 PUSH1 0x20 DUP7 ADD PUSH3 0x373 JUMP JUMPDEST DUP1 DUP5 ADD SWAP2 POP POP SWAP3 SWAP2 POP POP JUMP JUMPDEST PUSH0 PUSH3 0x6A0 DUP3 DUP6 PUSH3 0x65D JUMP JUMPDEST SWAP2 POP PUSH3 0x6AE DUP3 DUP5 PUSH3 0x65D JUMP JUMPDEST SWAP2 POP DUP2 SWAP1 POP SWAP4 SWAP3 POP POP POP JUMP JUMPDEST PUSH0 DUP3 DUP3 MSTORE PUSH1 0x20 DUP3 ADD SWAP1 POP SWAP3 SWAP2 POP POP JUMP JUMPDEST PUSH32 0x62797465636F6465206973207A65726F00000000000000000000000000000000 PUSH0 DUP3 ADD MSTORE POP JUMP JUMPDEST PUSH0 PUSH3 0x700 PUSH1 0x10 DUP4 PUSH3 0x6BA JUMP JUMPDEST SWAP2 POP PUSH3 0x70D DUP3 PUSH3 0x6CA JUMP JUMPDEST PUSH1 0x20 DUP3 ADD SWAP1 POP SWAP2 SWAP1 POP JUMP JUMPDEST PUSH0 PUSH1 0x20 DUP3 ADD SWAP1 POP DUP2 DUP2 SUB PUSH0 DUP4 ADD MSTORE PUSH3 0x731 DUP2 PUSH3 0x6F2 JUMP JUMPDEST SWAP1 POP SWAP2 SWAP1 POP JUMP INVALID PUSH1 0xC0 PUSH1 0x40 MSTORE PUSH1 0x1 PUSH1 0x2 PUSH0 PUSH2 0x100 EXP DUP2 SLOAD DUP2 PUSH1 0xFF MUL NOT AND SWAP1 DUP4 ISZERO ISZERO MUL OR SWAP1 SSTORE POP PUSH1 0x1E TIMESTAMP PUSH3 0x2D SWAP2 SWAP1 PUSH3 0xDC JUMP JUMPDEST PUSH1 0x3 SSTORE CALLVALUE DUP1 ISZERO PUSH3 0x3C JUMPI PUSH0 DUP1 REVERT JUMPDEST POP PUSH1 0x40 MLOAD PUSH3 0x1178 CODESIZE SUB DUP1 PUSH3 0x1178 DUP4 CODECOPY DUP2 DUP2 ADD PUSH1 0x40 MSTORE DUP2 ADD SWAP1 PUSH3 0x62 SWAP2 SWAP1 PUSH3 0x1AA JUMP JUMPDEST DUP2 PUSH20 0xFFFFFFFFFFFFFFFFFFFFFFFFFFFFFFFFFFFFFFFF AND PUSH1 0x80 DUP2 PUSH20 0xFFFFFFFFFFFFFFFFFFFFFFFFFFFFFFFFFFFFFFFF AND DUP2 MSTORE POP POP DUP1 PUSH1 0xA0 DUP2 DUP2 MSTORE POP POP POP POP PUSH3 0x1EF JUMP JUMPDEST PUSH0 DUP2 SWAP1 POP SWAP2 SWAP1 POP JUMP JUMPDEST PUSH32 0x4E487B7100000000000000000000000000000000000000000000000000000000 PUSH0 MSTORE PUSH1 0x11 PUSH1 0x4 MSTORE PUSH1 0x24 PUSH0 REVERT JUMPDEST PUSH0 PUSH3 0xE8 DUP3 PUSH3 0xA6 JUMP JUMPDEST SWAP2 POP PUSH3 0xF5 DUP4 PUSH3 0xA6 JUMP JUMPDEST SWAP3 POP DUP3 DUP3 ADD SWAP1 POP DUP1 DUP3 GT ISZERO PUSH3 0x110 JUMPI PUSH3 0x10F PUSH3 0xAF JUMP JUMPDEST JUMPDEST SWAP3 SWAP2 POP POP JUMP JUMPDEST PUSH0 DUP1 REVERT JUMPDEST PUSH0 PUSH20 0xFFFFFFFFFFFFFFFFFFFFFFFFFFFFFFFFFFFFFFFF DUP3 AND SWAP1 POP SWAP2 SWAP1 POP JUMP JUMPDEST PUSH0 PUSH3 0x145 DUP3 PUSH3 0x11A JUMP JUMPDEST SWAP1 POP SWAP2 SWAP1 POP JUMP JUMPDEST PUSH3 0x157 DUP2 PUSH3 0x139 JUMP JUMPDEST DUP2 EQ PUSH3 0x162 JUMPI PUSH0 DUP1 REVERT JUMPDEST POP JUMP JUMPDEST PUSH0 DUP2 MLOAD SWAP1 POP PUSH3 0x175 DUP2 PUSH3 0x14C JUMP JUMPDEST SWAP3 SWAP2 POP POP JUMP JUMPDEST PUSH3 0x186 DUP2 PUSH3 0xA6 JUMP JUMPDEST DUP2 EQ PUSH3 0x191 JUMPI PUSH0 DUP1 REVERT JUMPDEST POP JUMP JUMPDEST PUSH0 DUP2 MLOAD SWAP1 POP PUSH3 0x1A4 DUP2 PUSH3 0x17B JUMP JUMPDEST SWAP3 SWAP2 POP POP JUMP JUMPDEST PUSH0 DUP1 PUSH1 0x40 DUP4 DUP6 SUB SLT ISZERO PUSH3 0x1C3 JUMPI PUSH3 0x1C2 PUSH3 0x116 JUMP JUMPDEST JUMPDEST PUSH0 PUSH3 0x1D2 DUP6 DUP3 DUP7 ADD PUSH3 0x165 JUMP JUMPDEST SWAP3 POP POP PUSH1 0x20 PUSH3 0x1E5 DUP6 DUP3 DUP7 ADD PUSH3 0x194 JUMP JUMPDEST SWAP2 POP POP SWAP3 POP SWAP3 SWAP1 POP JUMP JUMPDEST PUSH1 0x80 MLOAD PUSH1 0xA0 MLOAD PUSH2 0xF67 PUSH3 0x211 PUSH0 CODECOPY PUSH0 PUSH2 0x480 ADD MSTORE PUSH0 PUSH2 0x30E ADD MSTORE PUSH2 0xF67 PUSH0 RETURN INVALID PUSH1 0x80 PUSH1 0x40 MSTORE PUSH1 0x4 CALLDATASIZE LT PUSH2 0xA6 JUMPI PUSH0 CALLDATALOAD PUSH1 0xE0 SHR DUP1 PUSH4 0xB3DE648B GT PUSH2 0x63 JUMPI DUP1 PUSH4 0xB3DE648B EQ PUSH2 0x1B8 JUMPI DUP1 PUSH4 0xC74073A1 EQ PUSH2 0x1F4 JUMPI DUP1 PUSH4 0xDC0D3DFF EQ PUSH2 0x230 JUMPI DUP1 PUSH4 0xDEC16058 EQ PUSH2 0x26D JUMPI DUP1 PUSH4 0xE2DC4310 EQ PUSH2 0x2A9 JUMPI DUP1 PUSH4 0xF95E4368 EQ PUSH2 0x2C5 JUMPI PUSH2 0xA6 JUMP JUMPDEST DUP1 PUSH4 0x4A79C97 EQ PUSH2 0xAA JUMPI DUP1 PUSH4 0x29DCB0CF EQ PUSH2 0xD4 JUMPI DUP1 PUSH4 0x38AF3EED EQ PUSH2 0xFE JUMPI DUP1 PUSH4 0x51CFF8D9 EQ PUSH2 0x128 JUMPI DUP1 PUSH4 0x7A3A0E84 EQ PUSH2 0x164 JUMPI DUP1 PUSH4 0x94DE8484 EQ PUSH2 0x18E JUMPI JUMPDEST PUSH0 DUP1 REVERT JUMPDEST CALLVALUE DUP1 ISZERO PUSH2 0xB5 JUMPI PUSH0 DUP1 REVERT JUMPDEST POP PUSH2 0xBE PUSH2 0x301 JUMP JUMPDEST PUSH1 0x40 MLOAD PUSH2 0xCB SWAP2 SWAP1 PUSH2 0xA4C JUMP JUMPDEST PUSH1 0x40 MLOAD DUP1 SWAP2 SUB SWAP1 RETURN JUMPDEST CALLVALUE DUP1 ISZERO PUSH2 0xDF JUMPI PUSH0 DUP1 REVERT JUMPDEST POP PUSH2 0xE8 PUSH2 0x306 JUMP JUMPDEST PUSH1 0x40 MLOAD PUSH2 0xF5 SWAP2 SWAP1 PUSH2 0xA4C JUMP JUMPDEST PUSH1 0x40 MLOAD DUP1 SWAP2 SUB SWAP1 RETURN JUMPDEST CALLVALUE DUP1 ISZERO PUSH2 0x109 JUMPI PUSH0 DUP1 REVERT JUMPDEST POP PUSH2 0x112 PUSH2 0x30C JUMP JUMPDEST PUSH1 0x40 MLOAD PUSH2 0x11F SWAP2 SWAP1 PUSH2 0xAA4 JUMP JUMPDEST PUSH1 0x40 MLOAD DUP1 SWAP2 SUB SWAP1 RETURN JUMPDEST CALLVALUE DUP1 ISZERO PUSH2 0x133 JUMPI PUSH0 DUP1 REVERT JUMPDEST POP PUSH2 0x14E PUSH1 0x4 DUP1 CALLDATASIZE SUB DUP2 ADD SWAP1 PUSH2 0x149 SWAP2 SWAP1 PUSH2 0xAEB JUMP JUMPDEST PUSH2 0x330 JUMP JUMPDEST PUSH1 0x40 MLOAD PUSH2 0x15B SWAP2 SWAP1 PUSH2 0xB30 JUMP JUMPDEST PUSH1 0x40 MLOAD DUP1 SWAP2 SUB SWAP1 RETURN JUMPDEST CALLVALUE DUP1 ISZERO PUSH2 0x16F JUMPI PUSH0 DUP1 REVERT JUMPDEST POP PUSH2 0x178 PUSH2 0x47E JUMP JUMPDEST PUSH1 0x40 MLOAD PUSH2 0x185 SWAP2 SWAP1 PUSH2 0xA4C JUMP JUMPDEST PUSH1 0x40 MLOAD DUP1 SWAP2 SUB SWAP1 RETURN JUMPDEST CALLVALUE DUP1 ISZERO PUSH2 0x199 JUMPI PUSH0 DUP1 REVERT JUMPDEST POP PUSH2 0x1A2 PUSH2 0x4A2 JUMP JUMPDEST PUSH1 0x40 MLOAD PUSH2 0x1AF SWAP2 SWAP1 PUSH2 0xB30 JUMP JUMPDEST PUSH1 0x40 MLOAD DUP1 SWAP2 SUB SWAP1 RETURN JUMPDEST CALLVALUE DUP1 ISZERO PUSH2 0x1C3 JUMPI PUSH0 DUP1 REVERT JUMPDEST POP PUSH2 0x1DE PUSH1 0x4 DUP1 CALLDATASIZE SUB DUP2 ADD SWAP1 PUSH2 0x1D9 SWAP2 SWAP1 PUSH2 0xB73 JUMP JUMPDEST PUSH2 0x4B4 JUMP JUMPDEST PUSH1 0x40 MLOAD PUSH2 0x1EB SWAP2 SWAP1 PUSH2 0xA4C JUMP JUMPDEST PUSH1 0x40 MLOAD DUP1 SWAP2 SUB SWAP1 RETURN JUMPDEST CALLVALUE DUP1 ISZERO PUSH2 0x1FF JUMPI PUSH0 DUP1 REVERT JUMPDEST POP PUSH2 0x21A PUSH1 0x4 DUP1 CALLDATASIZE SUB DUP2 ADD SWAP1 PUSH2 0x215 SWAP2 SWAP1 PUSH2 0xAEB JUMP JUMPDEST PUSH2 0x4BE JUMP JUMPDEST PUSH1 0x40 MLOAD PUSH2 0x227 SWAP2 SWAP1 PUSH2 0xB30 JUMP JUMPDEST PUSH1 0x40 MLOAD DUP1 SWAP2 SUB SWAP1 RETURN JUMPDEST CALLVALUE DUP1 ISZERO PUSH2 0x23B JUMPI PUSH0 DUP1 REVERT JUMPDEST POP PUSH2 0x256 PUSH1 0x4 DUP1 CALLDATASIZE SUB DUP2 ADD SWAP1 PUSH2 0x251 SWAP2 SWAP1 PUSH2 0xB73 JUMP JUMPDEST PUSH2 0x60C JUMP JUMPDEST PUSH1 0x40 MLOAD PUSH2 0x264 SWAP3 SWAP2 SWAP1 PUSH2 0xB9E JUMP JUMPDEST PUSH1 0x40 MLOAD DUP1 SWAP2 SUB SWAP1 RETURN JUMPDEST CALLVALUE DUP1 ISZERO PUSH2 0x278 JUMPI PUSH0 DUP1 REVERT JUMPDEST POP PUSH2 0x293 PUSH1 0x4 DUP1 CALLDATASIZE SUB DUP2 ADD SWAP1 PUSH2 0x28E SWAP2 SWAP1 PUSH2 0xBC5 JUMP JUMPDEST PUSH2 0x65A JUMP JUMPDEST PUSH1 0x40 MLOAD PUSH2 0x2A0 SWAP2 SWAP1 PUSH2 0xA4C JUMP JUMPDEST PUSH1 0x40 MLOAD DUP1 SWAP2 SUB SWAP1 RETURN JUMPDEST PUSH2 0x2C3 PUSH1 0x4 DUP1 CALLDATASIZE SUB DUP2 ADD SWAP1 PUSH2 0x2BE SWAP2 SWAP1 PUSH2 0xAEB JUMP JUMPDEST PUSH2 0x7B4 JUMP JUMPDEST STOP JUMPDEST CALLVALUE DUP1 ISZERO PUSH2 0x2D0 JUMPI PUSH0 DUP1 REVERT JUMPDEST POP PUSH2 0x2EB PUSH1 0x4 DUP1 CALLDATASIZE SUB DUP2 ADD SWAP1 PUSH2 0x2E6 SWAP2 SWAP1 PUSH2 0xAEB JUMP JUMPDEST PUSH2 0x8E6 JUMP JUMPDEST PUSH1 0x40 MLOAD PUSH2 0x2F8 SWAP2 SWAP1 PUSH2 0xA4C JUMP JUMPDEST PUSH1 0x40 MLOAD DUP1 SWAP2 SUB SWAP1 RETURN JUMPDEST PUSH0 SLOAD DUP2 JUMP JUMPDEST PUSH1 0x3 SLOAD DUP2 JUMP JUMPDEST PUSH32 0x0 DUP2 JUMP JUMPDEST PUSH0 DUP1 PUSH1 0x40 MLOAD PUSH1 0x24 ADD PUSH1 0x40 MLOAD PUSH1 0x20 DUP2 DUP4 SUB SUB DUP2 MSTORE SWAP1 PUSH1 0x40 MSTORE PUSH32 0x3CCFD60B00000000000000000000000000000000000000000000000000000000 PUSH28 0xFFFFFFFFFFFFFFFFFFFFFFFFFFFFFFFFFFFFFFFFFFFFFFFFFFFFFFFF NOT AND PUSH1 0x20 DUP3 ADD DUP1 MLOAD PUSH28 0xFFFFFFFFFFFFFFFFFFFFFFFFFFFFFFFFFFFFFFFFFFFFFFFFFFFFFFFF DUP4 DUP2 DUP4 AND OR DUP4 MSTORE POP POP POP POP SWAP1 POP PUSH0 DUP1 DUP5 PUSH20 0xFFFFFFFFFFFFFFFFFFFFFFFFFFFFFFFFFFFFFFFF AND DUP4 PUSH1 0x40 MLOAD PUSH2 0x3DE SWAP2 SWAP1 PUSH2 0xC6F JUMP JUMPDEST PUSH0 PUSH1 0x40 MLOAD DUP1 DUP4 SUB DUP2 DUP6 GAS DELEGATECALL SWAP2 POP POP RETURNDATASIZE DUP1 PUSH0 DUP2 EQ PUSH2 0x416 JUMPI PUSH1 0x40 MLOAD SWAP2 POP PUSH1 0x1F NOT PUSH1 0x3F RETURNDATASIZE ADD AND DUP3 ADD PUSH1 0x40 MSTORE RETURNDATASIZE DUP3 MSTORE RETURNDATASIZE PUSH0 PUSH1 0x20 DUP5 ADD RETURNDATACOPY PUSH2 0x41B JUMP JUMPDEST PUSH1 0x60 SWAP2 POP JUMPDEST POP SWAP2 POP SWAP2 POP DUP2 PUSH2 0x460 JUMPI PUSH1 0x40 MLOAD PUSH32 0x8C379A000000000000000000000000000000000000000000000000000000000 DUP2 MSTORE PUSH1 0x4 ADD PUSH2 0x457 SWAP1 PUSH2 0xCDF JUMP JUMPDEST PUSH1 0x40 MLOAD DUP1 SWAP2 SUB SWAP1 REVERT JUMPDEST DUP1 DUP1 PUSH1 0x20 ADD SWAP1 MLOAD DUP2 ADD SWAP1 PUSH2 0x474 SWAP2 SWAP1 PUSH2 0xD27 JUMP JUMPDEST SWAP4 POP POP POP POP SWAP2 SWAP1 POP JUMP JUMPDEST PUSH32 0x0 DUP2 JUMP JUMPDEST PUSH1 0x2 PUSH0 SWAP1 SLOAD SWAP1 PUSH2 0x100 EXP SWAP1 DIV PUSH1 0xFF AND DUP2 JUMP JUMPDEST PUSH0 DUP2 SLOAD SWAP1 POP SWAP2 SWAP1 POP JUMP JUMPDEST PUSH0 DUP1 PUSH1 0x40 MLOAD PUSH1 0x24 ADD PUSH1 0x40 MLOAD PUSH1 0x20 DUP2 DUP4 SUB SUB DUP2 MSTORE SWAP1 PUSH1 0x40 MSTORE PUSH32 0x43D726D600000000000000000000000000000000000000000000000000000000 PUSH28 0xFFFFFFFFFFFFFFFFFFFFFFFFFFFFFFFFFFFFFFFFFFFFFFFFFFFFFFFF NOT AND PUSH1 0x20 DUP3 ADD DUP1 MLOAD PUSH28 0xFFFFFFFFFFFFFFFFFFFFFFFFFFFFFFFFFFFFFFFFFFFFFFFFFFFFFFFF DUP4 DUP2 DUP4 AND OR DUP4 MSTORE POP POP POP POP SWAP1 POP PUSH0 DUP1 DUP5 PUSH20 0xFFFFFFFFFFFFFFFFFFFFFFFFFFFFFFFFFFFFFFFF AND DUP4 PUSH1 0x40 MLOAD PUSH2 0x56C SWAP2 SWAP1 PUSH2 0xC6F JUMP JUMPDEST PUSH0 PUSH1 0x40 MLOAD DUP1 DUP4 SUB DUP2 DUP6 GAS DELEGATECALL SWAP2 POP POP RETURNDATASIZE DUP1 PUSH0 DUP2 EQ PUSH2 0x5A4 JUMPI PUSH1 0x40 MLOAD SWAP2 POP PUSH1 0x1F NOT PUSH1 0x3F RETURNDATASIZE ADD AND DUP3 ADD PUSH1 0x40 MSTORE RETURNDATASIZE DUP3 MSTORE RETURNDATASIZE PUSH0 PUSH1 0x20 DUP5 ADD RETURNDATACOPY PUSH2 0x5A9 JUMP JUMPDEST PUSH1 0x60 SWAP2 POP JUMPDEST POP SWAP2 POP SWAP2 POP DUP2 PUSH2 0x5EE JUMPI PUSH1 0x40 MLOAD PUSH32 0x8C379A000000000000000000000000000000000000000000000000000000000 DUP2 MSTORE PUSH1 0x4 ADD PUSH2 0x5E5 SWAP1 PUSH2 0xD9C JUMP JUMPDEST PUSH1 0x40 MLOAD DUP1 SWAP2 SUB SWAP1 REVERT JUMPDEST DUP1 DUP1 PUSH1 0x20 ADD SWAP1 MLOAD DUP2 ADD SWAP1 PUSH2 0x602 SWAP2 SWAP1 PUSH2 0xD27 JUMP JUMPDEST SWAP4 POP POP POP POP SWAP2 SWAP1 POP JUMP JUMPDEST PUSH1 0x1 DUP2 DUP2 SLOAD DUP2 LT PUSH2 0x61B JUMPI PUSH0 DUP1 REVERT JUMPDEST SWAP1 PUSH0 MSTORE PUSH1 0x20 PUSH0 KECCAK256 SWAP1 PUSH1 0x2 MUL ADD PUSH0 SWAP2 POP SWAP1 POP DUP1 PUSH0 ADD PUSH0 SWAP1 SLOAD SWAP1 PUSH2 0x100 EXP SWAP1 DIV PUSH20 0xFFFFFFFFFFFFFFFFFFFFFFFFFFFFFFFFFFFFFFFF AND SWAP1 DUP1 PUSH1 0x1 ADD SLOAD SWAP1 POP DUP3 JUMP JUMPDEST PUSH0 DUP1 DUP3 PUSH1 0x40 MLOAD PUSH1 0x24 ADD PUSH2 0x66D SWAP2 SWAP1 PUSH2 0xAA4 JUMP JUMPDEST PUSH1 0x40 MLOAD PUSH1 0x20 DUP2 DUP4 SUB SUB DUP2 MSTORE SWAP1 PUSH1 0x40 MSTORE PUSH32 0xC05158500000000000000000000000000000000000000000000000000000000 PUSH28 0xFFFFFFFFFFFFFFFFFFFFFFFFFFFFFFFFFFFFFFFFFFFFFFFFFFFFFFFF NOT AND PUSH1 0x20 DUP3 ADD DUP1 MLOAD PUSH28 0xFFFFFFFFFFFFFFFFFFFFFFFFFFFFFFFFFFFFFFFFFFFFFFFFFFFFFFFF DUP4 DUP2 DUP4 AND OR DUP4 MSTORE POP POP POP POP SWAP1 POP PUSH0 DUP1 DUP6 PUSH20 0xFFFFFFFFFFFFFFFFFFFFFFFFFFFFFFFFFFFFFFFF AND DUP4 PUSH1 0x40 MLOAD PUSH2 0x713 SWAP2 SWAP1 PUSH2 0xC6F JUMP JUMPDEST PUSH0 PUSH1 0x40 MLOAD DUP1 DUP4 SUB DUP2 DUP6 GAS DELEGATECALL SWAP2 POP POP RETURNDATASIZE DUP1 PUSH0 DUP2 EQ PUSH2 0x74B JUMPI PUSH1 0x40 MLOAD SWAP2 POP PUSH1 0x1F NOT PUSH1 0x3F RETURNDATASIZE ADD AND DUP3 ADD PUSH1 0x40 MSTORE RETURNDATASIZE DUP3 MSTORE RETURNDATASIZE PUSH0 PUSH1 0x20 DUP5 ADD RETURNDATACOPY PUSH2 0x750 JUMP JUMPDEST PUSH1 0x60 SWAP2 POP JUMPDEST POP SWAP2 POP SWAP2 POP DUP2 PUSH2 0x795 JUMPI PUSH1 0x40 MLOAD PUSH32 0x8C379A000000000000000000000000000000000000000000000000000000000 DUP2 MSTORE PUSH1 0x4 ADD PUSH2 0x78C SWAP1 PUSH2 0xE04 JUMP JUMPDEST PUSH1 0x40 MLOAD DUP1 SWAP2 SUB SWAP1 REVERT JUMPDEST DUP1 DUP1 PUSH1 0x20 ADD SWAP1 MLOAD DUP2 ADD SWAP1 PUSH2 0x7A9 SWAP2 SWAP1 PUSH2 0xE36 JUMP JUMPDEST SWAP4 POP POP POP POP SWAP3 SWAP2 POP POP JUMP JUMPDEST PUSH0 PUSH1 0x40 MLOAD PUSH1 0x24 ADD PUSH1 0x40 MLOAD PUSH1 0x20 DUP2 DUP4 SUB SUB DUP2 MSTORE SWAP1 PUSH1 0x40 MSTORE PUSH32 0x50520B1F00000000000000000000000000000000000000000000000000000000 PUSH28 0xFFFFFFFFFFFFFFFFFFFFFFFFFFFFFFFFFFFFFFFFFFFFFFFFFFFFFFFF NOT AND PUSH1 0x20 DUP3 ADD DUP1 MLOAD PUSH28 0xFFFFFFFFFFFFFFFFFFFFFFFFFFFFFFFFFFFFFFFFFFFFFFFFFFFFFFFF DUP4 DUP2 DUP4 AND OR DUP4 MSTORE POP POP POP POP SWAP1 POP PUSH0 DUP3 PUSH20 0xFFFFFFFFFFFFFFFFFFFFFFFFFFFFFFFFFFFFFFFF AND DUP3 PUSH1 0x40 MLOAD PUSH2 0x860 SWAP2 SWAP1 PUSH2 0xC6F JUMP JUMPDEST PUSH0 PUSH1 0x40 MLOAD DUP1 DUP4 SUB DUP2 DUP6 GAS DELEGATECALL SWAP2 POP POP RETURNDATASIZE DUP1 PUSH0 DUP2 EQ PUSH2 0x898 JUMPI PUSH1 0x40 MLOAD SWAP2 POP PUSH1 0x1F NOT PUSH1 0x3F RETURNDATASIZE ADD AND DUP3 ADD PUSH1 0x40 MSTORE RETURNDATASIZE DUP3 MSTORE RETURNDATASIZE PUSH0 PUSH1 0x20 DUP5 ADD RETURNDATACOPY PUSH2 0x89D JUMP JUMPDEST PUSH1 0x60 SWAP2 POP JUMPDEST POP POP SWAP1 POP DUP1 PUSH2 0x8E1 JUMPI PUSH1 0x40 MLOAD PUSH32 0x8C379A000000000000000000000000000000000000000000000000000000000 DUP2 MSTORE PUSH1 0x4 ADD PUSH2 0x8D8 SWAP1 PUSH2 0xEAB JUMP JUMPDEST PUSH1 0x40 MLOAD DUP1 SWAP2 SUB SWAP1 REVERT JUMPDEST POP POP POP JUMP JUMPDEST PUSH0 DUP1 PUSH1 0x40 MLOAD PUSH1 0x24 ADD PUSH1 0x40 MLOAD PUSH1 0x20 DUP2 DUP4 SUB SUB DUP2 MSTORE SWAP1 PUSH1 0x40 MSTORE PUSH32 0xE3D9473500000000000000000000000000000000000000000000000000000000 PUSH28 0xFFFFFFFFFFFFFFFFFFFFFFFFFFFFFFFFFFFFFFFFFFFFFFFFFFFFFFFF NOT AND PUSH1 0x20 DUP3 ADD DUP1 MLOAD PUSH28 0xFFFFFFFFFFFFFFFFFFFFFFFFFFFFFFFFFFFFFFFFFFFFFFFFFFFFFFFF DUP4 DUP2 DUP4 AND OR DUP4 MSTORE POP POP POP POP SWAP1 POP PUSH0 DUP1 DUP5 PUSH20 0xFFFFFFFFFFFFFFFFFFFFFFFFFFFFFFFFFFFFFFFF AND DUP4 PUSH1 0x40 MLOAD PUSH2 0x994 SWAP2 SWAP1 PUSH2 0xC6F JUMP JUMPDEST PUSH0 PUSH1 0x40 MLOAD DUP1 DUP4 SUB DUP2 DUP6 GAS DELEGATECALL SWAP2 POP POP RETURNDATASIZE DUP1 PUSH0 DUP2 EQ PUSH2 0x9CC JUMPI PUSH1 0x40 MLOAD SWAP2 POP PUSH1 0x1F NOT PUSH1 0x3F RETURNDATASIZE ADD AND DUP3 ADD PUSH1 0x40 MSTORE RETURNDATASIZE DUP3 MSTORE RETURNDATASIZE PUSH0 PUSH1 0x20 DUP5 ADD RETURNDATACOPY PUSH2 0x9D1 JUMP JUMPDEST PUSH1 0x60 SWAP2 POP JUMPDEST POP SWAP2 POP SWAP2 POP DUP2 PUSH2 0xA16 JUMPI PUSH1 0x40 MLOAD PUSH32 0x8C379A000000000000000000000000000000000000000000000000000000000 DUP2 MSTORE PUSH1 0x4 ADD PUSH2 0xA0D SWAP1 PUSH2 0xF13 JUMP JUMPDEST PUSH1 0x40 MLOAD DUP1 SWAP2 SUB SWAP1 REVERT JUMPDEST DUP1 DUP1 PUSH1 0x20 ADD SWAP1 MLOAD DUP2 ADD SWAP1 PUSH2 0xA2A SWAP2 SWAP1 PUSH2 0xE36 JUMP JUMPDEST SWAP4 POP POP POP POP SWAP2 SWAP1 POP JUMP JUMPDEST PUSH0 DUP2 SWAP1 POP SWAP2 SWAP1 POP JUMP JUMPDEST PUSH2 0xA46 DUP2 PUSH2 0xA34 JUMP JUMPDEST DUP3 MSTORE POP POP JUMP JUMPDEST PUSH0 PUSH1 0x20 DUP3 ADD SWAP1 POP PUSH2 0xA5F PUSH0 DUP4 ADD DUP5 PUSH2 0xA3D JUMP JUMPDEST SWAP3 SWAP2 POP POP JUMP JUMPDEST PUSH0 PUSH20 0xFFFFFFFFFFFFFFFFFFFFFFFFFFFFFFFFFFFFFFFF DUP3 AND SWAP1 POP SWAP2 SWAP1 POP JUMP JUMPDEST PUSH0 PUSH2 0xA8E DUP3 PUSH2 0xA65 JUMP JUMPDEST SWAP1 POP SWAP2 SWAP1 POP JUMP JUMPDEST PUSH2 0xA9E DUP2 PUSH2 0xA84 JUMP JUMPDEST DUP3 MSTORE POP POP JUMP JUMPDEST PUSH0 PUSH1 0x20 DUP3 ADD SWAP1 POP PUSH2 0xAB7 PUSH0 DUP4 ADD DUP5 PUSH2 0xA95 JUMP JUMPDEST SWAP3 SWAP2 POP POP JUMP JUMPDEST PUSH0 DUP1 REVERT JUMPDEST PUSH2 0xACA DUP2 PUSH2 0xA84 JUMP JUMPDEST DUP2 EQ PUSH2 0xAD4 JUMPI PUSH0 DUP1 REVERT JUMPDEST POP JUMP JUMPDEST PUSH0 DUP2 CALLDATALOAD SWAP1 POP PUSH2 0xAE5 DUP2 PUSH2 0xAC1 JUMP JUMPDEST SWAP3 SWAP2 POP POP JUMP JUMPDEST PUSH0 PUSH1 0x20 DUP3 DUP5 SUB SLT ISZERO PUSH2 0xB00 JUMPI PUSH2 0xAFF PUSH2 0xABD JUMP JUMPDEST JUMPDEST PUSH0 PUSH2 0xB0D DUP5 DUP3 DUP6 ADD PUSH2 0xAD7 JUMP JUMPDEST SWAP2 POP POP SWAP3 SWAP2 POP POP JUMP JUMPDEST PUSH0 DUP2 ISZERO ISZERO SWAP1 POP SWAP2 SWAP1 POP JUMP JUMPDEST PUSH2 0xB2A DUP2 PUSH2 0xB16 JUMP JUMPDEST DUP3 MSTORE POP POP JUMP JUMPDEST PUSH0 PUSH1 0x20 DUP3 ADD SWAP1 POP PUSH2 0xB43 PUSH0 DUP4 ADD DUP5 PUSH2 0xB21 JUMP JUMPDEST SWAP3 SWAP2 POP POP JUMP JUMPDEST PUSH2 0xB52 DUP2 PUSH2 0xA34 JUMP JUMPDEST DUP2 EQ PUSH2 0xB5C JUMPI PUSH0 DUP1 REVERT JUMPDEST POP JUMP JUMPDEST PUSH0 DUP2 CALLDATALOAD SWAP1 POP PUSH2 0xB6D DUP2 PUSH2 0xB49 JUMP JUMPDEST SWAP3 SWAP2 POP POP JUMP JUMPDEST PUSH0 PUSH1 0x20 DUP3 DUP5 SUB SLT ISZERO PUSH2 0xB88 JUMPI PUSH2 0xB87 PUSH2 0xABD JUMP JUMPDEST JUMPDEST PUSH0 PUSH2 0xB95 DUP5 DUP3 DUP6 ADD PUSH2 0xB5F JUMP JUMPDEST SWAP2 POP POP SWAP3 SWAP2 POP POP JUMP JUMPDEST PUSH0 PUSH1 0x40 DUP3 ADD SWAP1 POP PUSH2 0xBB1 PUSH0 DUP4 ADD DUP6 PUSH2 0xA95 JUMP JUMPDEST PUSH2 0xBBE PUSH1 0x20 DUP4 ADD DUP5 PUSH2 0xA3D JUMP JUMPDEST SWAP4 SWAP3 POP POP POP JUMP JUMPDEST PUSH0 DUP1 PUSH1 0x40 DUP4 DUP6 SUB SLT ISZERO PUSH2 0xBDB JUMPI PUSH2 0xBDA PUSH2 0xABD JUMP JUMPDEST JUMPDEST PUSH0 PUSH2 0xBE8 DUP6 DUP3 DUP7 ADD PUSH2 0xAD7 JUMP JUMPDEST SWAP3 POP POP PUSH1 0x20 PUSH2 0xBF9 DUP6 DUP3 DUP7 ADD PUSH2 0xAD7 JUMP JUMPDEST SWAP2 POP POP SWAP3 POP SWAP3 SWAP1 POP JUMP JUMPDEST PUSH0 DUP2 MLOAD SWAP1 POP SWAP2 SWAP1 POP JUMP JUMPDEST PUSH0 DUP2 SWAP1 POP SWAP3 SWAP2 POP POP JUMP JUMPDEST PUSH0 JUMPDEST DUP4 DUP2 LT ISZERO PUSH2 0xC34 JUMPI DUP1 DUP3 ADD MLOAD DUP2 DUP5 ADD MSTORE PUSH1 0x20 DUP2 ADD SWAP1 POP PUSH2 0xC19 JUMP JUMPDEST PUSH0 DUP5 DUP5 ADD MSTORE POP POP POP POP JUMP JUMPDEST PUSH0 PUSH2 0xC49 DUP3 PUSH2 0xC03 JUMP JUMPDEST PUSH2 0xC53 DUP2 DUP6 PUSH2 0xC0D JUMP JUMPDEST SWAP4 POP PUSH2 0xC63 DUP2 DUP6 PUSH1 0x20 DUP7 ADD PUSH2 0xC17 JUMP JUMPDEST DUP1 DUP5 ADD SWAP2 POP POP SWAP3 SWAP2 POP POP JUMP JUMPDEST PUSH0 PUSH2 0xC7A DUP3 DUP5 PUSH2 0xC3F JUMP JUMPDEST SWAP2 POP DUP2 SWAP1 POP SWAP3 SWAP2 POP POP JUMP JUMPDEST PUSH0 DUP3 DUP3 MSTORE PUSH1 0x20 DUP3 ADD SWAP1 POP SWAP3 SWAP2 POP POP JUMP JUMPDEST PUSH32 0x63616C6C207769746864726177206572726F7200000000000000000000000000 PUSH0 DUP3 ADD MSTORE POP JUMP JUMPDEST PUSH0 PUSH2 0xCC9 PUSH1 0x13 DUP4 PUSH2 0xC85 JUMP JUMPDEST SWAP2 POP PUSH2 0xCD4 DUP3 PUSH2 0xC95 JUMP JUMPDEST PUSH1 0x20 DUP3 ADD SWAP1 POP SWAP2 SWAP1 POP JUMP JUMPDEST PUSH0 PUSH1 0x20 DUP3 ADD SWAP1 POP DUP2 DUP2 SUB PUSH0 DUP4 ADD MSTORE PUSH2 0xCF6 DUP2 PUSH2 0xCBD JUMP JUMPDEST SWAP1 POP SWAP2 SWAP1 POP JUMP JUMPDEST PUSH2 0xD06 DUP2 PUSH2 0xB16 JUMP JUMPDEST DUP2 EQ PUSH2 0xD10 JUMPI PUSH0 DUP1 REVERT JUMPDEST POP JUMP JUMPDEST PUSH0 DUP2 MLOAD SWAP1 POP PUSH2 0xD21 DUP2 PUSH2 0xCFD JUMP JUMPDEST SWAP3 SWAP2 POP POP JUMP JUMPDEST PUSH0 PUSH1 0x20 DUP3 DUP5 SUB SLT ISZERO PUSH2 0xD3C JUMPI PUSH2 0xD3B PUSH2 0xABD JUMP JUMPDEST JUMPDEST PUSH0 PUSH2 0xD49 DUP5 DUP3 DUP6 ADD PUSH2 0xD13 JUMP JUMPDEST SWAP2 POP POP SWAP3 SWAP2 POP POP JUMP JUMPDEST PUSH32 0x63616C6C20636C6F7365206572726F7200000000000000000000000000000000 PUSH0 DUP3 ADD MSTORE POP JUMP JUMPDEST PUSH0 PUSH2 0xD86 PUSH1 0x10 DUP4 PUSH2 0xC85 JUMP JUMPDEST SWAP2 POP PUSH2 0xD91 DUP3 PUSH2 0xD52 JUMP JUMPDEST PUSH1 0x20 DUP3 ADD SWAP1 POP SWAP2 SWAP1 POP JUMP JUMPDEST PUSH0 PUSH1 0x20 DUP3 ADD SWAP1 POP DUP2 DUP2 SUB PUSH0 DUP4 ADD MSTORE PUSH2 0xDB3 DUP2 PUSH2 0xD7A JUMP JUMPDEST SWAP1 POP SWAP2 SWAP1 POP JUMP JUMPDEST PUSH32 0x63616C6C2067657446756E64657273496E646578206572726F72200000000000 PUSH0 DUP3 ADD MSTORE POP JUMP JUMPDEST PUSH0 PUSH2 0xDEE PUSH1 0x1B DUP4 PUSH2 0xC85 JUMP JUMPDEST SWAP2 POP PUSH2 0xDF9 DUP3 PUSH2 0xDBA JUMP JUMPDEST PUSH1 0x20 DUP3 ADD SWAP1 POP SWAP2 SWAP1 POP JUMP JUMPDEST PUSH0 PUSH1 0x20 DUP3 ADD SWAP1 POP DUP2 DUP2 SUB PUSH0 DUP4 ADD MSTORE PUSH2 0xE1B DUP2 PUSH2 0xDE2 JUMP JUMPDEST SWAP1 POP SWAP2 SWAP1 POP JUMP JUMPDEST PUSH0 DUP2 MLOAD SWAP1 POP PUSH2 0xE30 DUP2 PUSH2 0xB49 JUMP JUMPDEST SWAP3 SWAP2 POP POP JUMP JUMPDEST PUSH0 PUSH1 0x20 DUP3 DUP5 SUB SLT ISZERO PUSH2 0xE4B JUMPI PUSH2 0xE4A PUSH2 0xABD JUMP JUMPDEST JUMPDEST PUSH0 PUSH2 0xE58 DUP5 DUP3 DUP6 ADD PUSH2 0xE22 JUMP JUMPDEST SWAP2 POP POP SWAP3 SWAP2 POP POP JUMP JUMPDEST PUSH32 0x63616C6C20636F6E747269627574696F6E206572726F72000000000000000000 PUSH0 DUP3 ADD MSTORE POP JUMP JUMPDEST PUSH0 PUSH2 0xE95 PUSH1 0x17 DUP4 PUSH2 0xC85 JUMP JUMPDEST SWAP2 POP PUSH2 0xEA0 DUP3 PUSH2 0xE61 JUMP JUMPDEST PUSH1 0x20 DUP3 ADD SWAP1 POP SWAP2 SWAP1 POP JUMP JUMPDEST PUSH0 PUSH1 0x20 DUP3 ADD SWAP1 POP DUP2 DUP2 SUB PUSH0 DUP4 ADD MSTORE PUSH2 0xEC2 DUP2 PUSH2 0xE89 JUMP JUMPDEST SWAP1 POP SWAP2 SWAP1 POP JUMP JUMPDEST PUSH32 0x63616C6C2066756E646572734C656E677468206572726F720000000000000000 PUSH0 DUP3 ADD MSTORE POP JUMP JUMPDEST PUSH0 PUSH2 0xEFD PUSH1 0x18 DUP4 PUSH2 0xC85 JUMP JUMPDEST SWAP2 POP PUSH2 0xF08 DUP3 PUSH2 0xEC9 JUMP JUMPDEST PUSH1 0x20 DUP3 ADD SWAP1 POP SWAP2 SWAP1 POP JUMP JUMPDEST PUSH0 PUSH1 0x20 DUP3 ADD SWAP1 POP DUP2 DUP2 SUB PUSH0 DUP4 ADD MSTORE PUSH2 0xF2A DUP2 PUSH2 0xEF1 JUMP JUMPDEST SWAP1 POP SWAP2 SWAP1 POP JUMP INVALID LOG2 PUSH5 0x6970667358 0x22 SLT KECCAK256 0x2F SHL 0xAE SWAP5 BALANCE DUP11 REVERT PUSH20 0xAFF73C87DEC46323880F40B61C808BDFC64F5696 CALLDATALOAD DUP3 0xB9 0xC7 PUSH5 0x736F6C6343 STOP ADDMOD AND STOP CALLER LOG2 PUSH5 0x6970667358 0x22 SLT KECCAK256 0x27 NOT 0x4E SWAP13 DIV 0xCE 0x4C GT SWAP8 0xE6 0xC2 0xD0 SWAP4 0xBF LOG1 MLOAD 0xAE 0xAF 0xDB SWAP16 0x4E 0x23 0xBA SWAP9 0xD9 0xF8 0xD5 0xF8 DUP4 MSIZE PUSH24 0x4164736F6C63430008160033000000000000000000000000 "
				},
				"gasEstimates": {
					"creation": {
						"codeDepositCost": "1274800",
						"executionCost": "1327",
						"totalCost": "1276127"
					},
					"external": {
						"CrowdfundingList(uint256)": "4965",
						"deploy(bytes,uint256)": "infinite",
						"getBytecode(address,uint256)": "infinite"
					}
				},
				"methodIdentifiers": {
					"CrowdfundingList(uint256)": "f420b258",
					"deploy(bytes,uint256)": "9c4ae2d0",
					"getBytecode(address,uint256)": "81871cbc"
				}
			},
			"storageLayout": {
				"storage": [
					{
						"astId": 519,
						"contract": "contracts/Demo14.sol:Proxy",
						"label": "CrowdfundingList",
						"offset": 0,
						"slot": "0",
						"type": "t_array(t_address)dyn_storage"
					}
				],
				"types": {
					"t_address": {
						"encoding": "inplace",
						"label": "address",
						"numberOfBytes": "20"
					},
					"t_array(t_address)dyn_storage": {
						"base": "t_address",
						"encoding": "dynamic_array",
						"label": "address[]",
						"numberOfBytes": "32"
					}
				}
			},
			"userdoc": {
				"kind": "user",
				"methods": {},
				"version": 1
			}
		}
	}
}