{
	"contracts/Demo14.sol": {
		"Crowdfunding": {
			"abi": [
				{
					"inputs": [
						{
							"internalType": "address",
							"name": "beneficiary_",
							"type": "address"
						},
						{
							"internalType": "uint256",
							"name": "fundingGoal_",
							"type": "uint256"
						}
					],
					"stateMutability": "nonpayable",
					"type": "constructor"
				},
				{
					"inputs": [],
					"name": "beneficiary",
					"outputs": [
						{
							"internalType": "address",
							"name": "",
							"type": "address"
						}
					],
					"stateMutability": "view",
					"type": "function"
				},
				{
					"inputs": [],
					"name": "close",
					"outputs": [
						{
							"internalType": "bool",
							"name": "",
							"type": "bool"
						}
					],
					"stateMutability": "nonpayable",
					"type": "function"
				},
				{
					"inputs": [],
					"name": "contribution",
					"outputs": [],
					"stateMutability": "payable",
					"type": "function"
				},
				{
					"inputs": [],
					"name": "deadline",
					"outputs": [
						{
							"internalType": "uint256",
							"name": "",
							"type": "uint256"
						}
					],
					"stateMutability": "view",
					"type": "function"
				},
				{
					"inputs": [
						{
							"internalType": "uint256",
							"name": "x",
							"type": "uint256"
						}
					],
					"name": "f",
					"outputs": [
						{
							"internalType": "uint256",
							"name": "r",
							"type": "uint256"
						}
					],
					"stateMutability": "view",
					"type": "function"
				},
				{
					"inputs": [
						{
							"internalType": "uint256",
							"name": "",
							"type": "uint256"
						}
					],
					"name": "funders",
					"outputs": [
						{
							"internalType": "address",
							"name": "funder",
							"type": "address"
						},
						{
							"internalType": "uint256",
							"name": "amount",
							"type": "uint256"
						}
					],
					"stateMutability": "view",
					"type": "function"
				},
				{
					"inputs": [],
					"name": "fundersLength",
					"outputs": [
						{
							"internalType": "uint256",
							"name": "",
							"type": "uint256"
						}
					],
					"stateMutability": "view",
					"type": "function"
				},
				{
					"inputs": [],
					"name": "fundingAmount",
					"outputs": [
						{
							"internalType": "uint256",
							"name": "",
							"type": "uint256"
						}
					],
					"stateMutability": "view",
					"type": "function"
				},
				{
					"inputs": [],
					"name": "fundingGoal",
					"outputs": [
						{
							"internalType": "uint256",
							"name": "",
							"type": "uint256"
						}
					],
					"stateMutability": "view",
					"type": "function"
				},
				{
					"inputs": [
						{
							"internalType": "address",
							"name": "_addr",
							"type": "address"
						}
					],
					"name": "getFundersIndex",
					"outputs": [
						{
							"internalType": "uint256",
							"name": "index_",
							"type": "uint256"
						}
					],
					"stateMutability": "view",
					"type": "function"
				},
				{
					"inputs": [],
					"name": "validable",
					"outputs": [
						{
							"internalType": "bool",
							"name": "",
							"type": "bool"
						}
					],
					"stateMutability": "view",
					"type": "function"
				},
				{
					"inputs": [],
					"name": "withdraw",
					"outputs": [
						{
							"internalType": "bool",
							"name": "",
							"type": "bool"
						}
					],
					"stateMutability": "nonpayable",
					"type": "function"
				}
			],
			"devdoc": {
				"kind": "dev",
				"methods": {},
				"version": 1
			},
			"evm": {
				"assembly": "    /* \"contracts/Demo14.sol\":61:3148  contract Crowdfunding{... */\n  mstore(0x40, 0xc0)\n    /* \"contracts/Demo14.sol\":352:356  true */\n  0x01\n    /* \"contracts/Demo14.sol\":328:356  bool public validable = true */\n  0x02\n  exp(0x0100, 0x00)\n  dup2\n  sload\n  dup2\n  0xff\n  mul\n  not\n  and\n  swap1\n  dup4\n  iszero\n  iszero\n  mul\n  or\n  swap1\n  sstore\n  pop\n    /* \"contracts/Demo14.sol\":407:416  1 seconds */\n  0x01\n    /* \"contracts/Demo14.sol\":389:404  block.timestamp */\n  timestamp\n    /* \"contracts/Demo14.sol\":389:416  block.timestamp + 1 seconds */\n  tag_1\n  swap2\n  swap1\n  tag_2\n  jump\t// in\ntag_1:\n    /* \"contracts/Demo14.sol\":363:416  uint256 public deadline = block.timestamp + 1 seconds */\n  0x03\n  sstore\n    /* \"contracts/Demo14.sol\":425:561  constructor(address beneficiary_,uint256 fundingGoal_){... */\n  callvalue\n  dup1\n  iszero\n  tag_3\n  jumpi\n  0x00\n  dup1\n  revert\ntag_3:\n  pop\n  mload(0x40)\n  sub(codesize, bytecodeSize)\n  dup1\n  bytecodeSize\n  dup4\n  codecopy\n  dup2\n  dup2\n  add\n  0x40\n  mstore\n  dup2\n  add\n  swap1\n  tag_4\n  swap2\n  swap1\n  tag_5\n  jump\t// in\ntag_4:\n    /* \"contracts/Demo14.sol\":504:516  beneficiary_ */\n  dup2\n    /* \"contracts/Demo14.sol\":490:516  beneficiary = beneficiary_ */\n  0xffffffffffffffffffffffffffffffffffffffff\n  and\n  0x80\n  dup2\n  0xffffffffffffffffffffffffffffffffffffffff\n  and\n  dup2\n  mstore\n  pop\n  pop\n    /* \"contracts/Demo14.sol\":541:553  fundingGoal_ */\n  dup1\n    /* \"contracts/Demo14.sol\":527:553  fundingGoal = fundingGoal_ */\n  0xa0\n  dup2\n  dup2\n  mstore\n  pop\n  pop\n    /* \"contracts/Demo14.sol\":425:561  constructor(address beneficiary_,uint256 fundingGoal_){... */\n  pop\n  pop\n    /* \"contracts/Demo14.sol\":61:3148  contract Crowdfunding{... */\n  jump(tag_8)\n    /* \"#utility.yul\":7:84   */\ntag_9:\n    /* \"#utility.yul\":44:51   */\n  0x00\n    /* \"#utility.yul\":73:78   */\n  dup2\n    /* \"#utility.yul\":62:78   */\n  swap1\n  pop\n    /* \"#utility.yul\":7:84   */\n  swap2\n  swap1\n  pop\n  jump\t// out\n    /* \"#utility.yul\":90:270   */\ntag_10:\n    /* \"#utility.yul\":138:215   */\n  0x4e487b7100000000000000000000000000000000000000000000000000000000\n    /* \"#utility.yul\":135:136   */\n  0x00\n    /* \"#utility.yul\":128:216   */\n  mstore\n    /* \"#utility.yul\":235:239   */\n  0x11\n    /* \"#utility.yul\":232:233   */\n  0x04\n    /* \"#utility.yul\":225:240   */\n  mstore\n    /* \"#utility.yul\":259:263   */\n  0x24\n    /* \"#utility.yul\":256:257   */\n  0x00\n    /* \"#utility.yul\":249:264   */\n  revert\n    /* \"#utility.yul\":276:467   */\ntag_2:\n    /* \"#utility.yul\":316:319   */\n  0x00\n    /* \"#utility.yul\":335:355   */\n  tag_24\n    /* \"#utility.yul\":353:354   */\n  dup3\n    /* \"#utility.yul\":335:355   */\n  tag_9\n  jump\t// in\ntag_24:\n    /* \"#utility.yul\":330:355   */\n  swap2\n  pop\n    /* \"#utility.yul\":369:389   */\n  tag_25\n    /* \"#utility.yul\":387:388   */\n  dup4\n    /* \"#utility.yul\":369:389   */\n  tag_9\n  jump\t// in\ntag_25:\n    /* \"#utility.yul\":364:389   */\n  swap3\n  pop\n    /* \"#utility.yul\":412:413   */\n  dup3\n    /* \"#utility.yul\":409:410   */\n  dup3\n    /* \"#utility.yul\":405:414   */\n  add\n    /* \"#utility.yul\":398:414   */\n  swap1\n  pop\n    /* \"#utility.yul\":433:436   */\n  dup1\n    /* \"#utility.yul\":430:431   */\n  dup3\n    /* \"#utility.yul\":427:437   */\n  gt\n    /* \"#utility.yul\":424:460   */\n  iszero\n  tag_26\n  jumpi\n    /* \"#utility.yul\":440:458   */\n  tag_27\n  tag_10\n  jump\t// in\ntag_27:\n    /* \"#utility.yul\":424:460   */\ntag_26:\n    /* \"#utility.yul\":276:467   */\n  swap3\n  swap2\n  pop\n  pop\n  jump\t// out\n    /* \"#utility.yul\":554:671   */\ntag_12:\n    /* \"#utility.yul\":663:664   */\n  0x00\n    /* \"#utility.yul\":660:661   */\n  dup1\n    /* \"#utility.yul\":653:665   */\n  revert\n    /* \"#utility.yul\":800:926   */\ntag_14:\n    /* \"#utility.yul\":837:844   */\n  0x00\n    /* \"#utility.yul\":877:919   */\n  0xffffffffffffffffffffffffffffffffffffffff\n    /* \"#utility.yul\":870:875   */\n  dup3\n    /* \"#utility.yul\":866:920   */\n  and\n    /* \"#utility.yul\":855:920   */\n  swap1\n  pop\n    /* \"#utility.yul\":800:926   */\n  swap2\n  swap1\n  pop\n  jump\t// out\n    /* \"#utility.yul\":932:1028   */\ntag_15:\n    /* \"#utility.yul\":969:976   */\n  0x00\n    /* \"#utility.yul\":998:1022   */\n  tag_33\n    /* \"#utility.yul\":1016:1021   */\n  dup3\n    /* \"#utility.yul\":998:1022   */\n  tag_14\n  jump\t// in\ntag_33:\n    /* \"#utility.yul\":987:1022   */\n  swap1\n  pop\n    /* \"#utility.yul\":932:1028   */\n  swap2\n  swap1\n  pop\n  jump\t// out\n    /* \"#utility.yul\":1034:1156   */\ntag_16:\n    /* \"#utility.yul\":1107:1131   */\n  tag_35\n    /* \"#utility.yul\":1125:1130   */\n  dup2\n    /* \"#utility.yul\":1107:1131   */\n  tag_15\n  jump\t// in\ntag_35:\n    /* \"#utility.yul\":1100:1105   */\n  dup2\n    /* \"#utility.yul\":1097:1132   */\n  eq\n    /* \"#utility.yul\":1087:1150   */\n  tag_36\n  jumpi\n    /* \"#utility.yul\":1146:1147   */\n  0x00\n    /* \"#utility.yul\":1143:1144   */\n  dup1\n    /* \"#utility.yul\":1136:1148   */\n  revert\n    /* \"#utility.yul\":1087:1150   */\ntag_36:\n    /* \"#utility.yul\":1034:1156   */\n  pop\n  jump\t// out\n    /* \"#utility.yul\":1162:1305   */\ntag_17:\n    /* \"#utility.yul\":1219:1224   */\n  0x00\n    /* \"#utility.yul\":1250:1256   */\n  dup2\n    /* \"#utility.yul\":1244:1257   */\n  mload\n    /* \"#utility.yul\":1235:1257   */\n  swap1\n  pop\n    /* \"#utility.yul\":1266:1299   */\n  tag_38\n    /* \"#utility.yul\":1293:1298   */\n  dup2\n    /* \"#utility.yul\":1266:1299   */\n  tag_16\n  jump\t// in\ntag_38:\n    /* \"#utility.yul\":1162:1305   */\n  swap3\n  swap2\n  pop\n  pop\n  jump\t// out\n    /* \"#utility.yul\":1311:1433   */\ntag_18:\n    /* \"#utility.yul\":1384:1408   */\n  tag_40\n    /* \"#utility.yul\":1402:1407   */\n  dup2\n    /* \"#utility.yul\":1384:1408   */\n  tag_9\n  jump\t// in\ntag_40:\n    /* \"#utility.yul\":1377:1382   */\n  dup2\n    /* \"#utility.yul\":1374:1409   */\n  eq\n    /* \"#utility.yul\":1364:1427   */\n  tag_41\n  jumpi\n    /* \"#utility.yul\":1423:1424   */\n  0x00\n    /* \"#utility.yul\":1420:1421   */\n  dup1\n    /* \"#utility.yul\":1413:1425   */\n  revert\n    /* \"#utility.yul\":1364:1427   */\ntag_41:\n    /* \"#utility.yul\":1311:1433   */\n  pop\n  jump\t// out\n    /* \"#utility.yul\":1439:1582   */\ntag_19:\n    /* \"#utility.yul\":1496:1501   */\n  0x00\n    /* \"#utility.yul\":1527:1533   */\n  dup2\n    /* \"#utility.yul\":1521:1534   */\n  mload\n    /* \"#utility.yul\":1512:1534   */\n  swap1\n  pop\n    /* \"#utility.yul\":1543:1576   */\n  tag_43\n    /* \"#utility.yul\":1570:1575   */\n  dup2\n    /* \"#utility.yul\":1543:1576   */\n  tag_18\n  jump\t// in\ntag_43:\n    /* \"#utility.yul\":1439:1582   */\n  swap3\n  swap2\n  pop\n  pop\n  jump\t// out\n    /* \"#utility.yul\":1588:2095   */\ntag_5:\n    /* \"#utility.yul\":1667:1673   */\n  0x00\n    /* \"#utility.yul\":1675:1681   */\n  dup1\n    /* \"#utility.yul\":1724:1726   */\n  0x40\n    /* \"#utility.yul\":1712:1721   */\n  dup4\n    /* \"#utility.yul\":1703:1710   */\n  dup6\n    /* \"#utility.yul\":1699:1722   */\n  sub\n    /* \"#utility.yul\":1695:1727   */\n  slt\n    /* \"#utility.yul\":1692:1811   */\n  iszero\n  tag_45\n  jumpi\n    /* \"#utility.yul\":1730:1809   */\n  tag_46\n  tag_12\n  jump\t// in\ntag_46:\n    /* \"#utility.yul\":1692:1811   */\ntag_45:\n    /* \"#utility.yul\":1850:1851   */\n  0x00\n    /* \"#utility.yul\":1875:1939   */\n  tag_47\n    /* \"#utility.yul\":1931:1938   */\n  dup6\n    /* \"#utility.yul\":1922:1928   */\n  dup3\n    /* \"#utility.yul\":1911:1920   */\n  dup7\n    /* \"#utility.yul\":1907:1929   */\n  add\n    /* \"#utility.yul\":1875:1939   */\n  tag_17\n  jump\t// in\ntag_47:\n    /* \"#utility.yul\":1865:1939   */\n  swap3\n  pop\n    /* \"#utility.yul\":1821:1949   */\n  pop\n    /* \"#utility.yul\":1988:1990   */\n  0x20\n    /* \"#utility.yul\":2014:2078   */\n  tag_48\n    /* \"#utility.yul\":2070:2077   */\n  dup6\n    /* \"#utility.yul\":2061:2067   */\n  dup3\n    /* \"#utility.yul\":2050:2059   */\n  dup7\n    /* \"#utility.yul\":2046:2068   */\n  add\n    /* \"#utility.yul\":2014:2078   */\n  tag_19\n  jump\t// in\ntag_48:\n    /* \"#utility.yul\":2004:2078   */\n  swap2\n  pop\n    /* \"#utility.yul\":1959:2088   */\n  pop\n    /* \"#utility.yul\":1588:2095   */\n  swap3\n  pop\n  swap3\n  swap1\n  pop\n  jump\t// out\n    /* \"contracts/Demo14.sol\":61:3148  contract Crowdfunding{... */\ntag_8:\n  mload(0x80)\n  mload(0xa0)\n  codecopy(0x00, dataOffset(sub_0), dataSize(sub_0))\n  0x00\n  assignImmutable(\"0x1a192fabce13988b84994d4296e6cdc418d55e2f1d7f942188d4040b94fc57ac\")\n  0x00\n  assignImmutable(\"0xe4b1702d9298fee62dfeccc57d322a463ad55ca201256d01f62b45b2e1c21c10\")\n  return(0x00, dataSize(sub_0))\nstop\n\nsub_0: assembly {\n        /* \"contracts/Demo14.sol\":61:3148  contract Crowdfunding{... */\n      mstore(0x40, 0x80)\n      jumpi(tag_1, lt(calldatasize, 0x04))\n      shr(0xe0, calldataload(0x00))\n      dup1\n      0x50520b1f\n      gt\n      tag_14\n      jumpi\n      dup1\n      0x50520b1f\n      eq\n      tag_8\n      jumpi\n      dup1\n      0x7a3a0e84\n      eq\n      tag_9\n      jumpi\n      dup1\n      0x94de8484\n      eq\n      tag_10\n      jumpi\n      dup1\n      0xb3de648b\n      eq\n      tag_11\n      jumpi\n      dup1\n      0xdc0d3dff\n      eq\n      tag_12\n      jumpi\n      dup1\n      0xe3d94735\n      eq\n      tag_13\n      jumpi\n      jump(tag_1)\n    tag_14:\n      dup1\n      0x04a79c97\n      eq\n      tag_2\n      jumpi\n      dup1\n      0x0c051585\n      eq\n      tag_3\n      jumpi\n      dup1\n      0x29dcb0cf\n      eq\n      tag_4\n      jumpi\n      dup1\n      0x38af3eed\n      eq\n      tag_5\n      jumpi\n      dup1\n      0x3ccfd60b\n      eq\n      tag_6\n      jumpi\n      dup1\n      0x43d726d6\n      eq\n      tag_7\n      jumpi\n    tag_1:\n      0x00\n      dup1\n      revert\n        /* \"contracts/Demo14.sol\":261:289  uint256 public fundingAmount */\n    tag_2:\n      callvalue\n      dup1\n      iszero\n      tag_15\n      jumpi\n      0x00\n      dup1\n      revert\n    tag_15:\n      pop\n      tag_16\n      tag_17\n      jump\t// in\n    tag_16:\n      mload(0x40)\n      tag_18\n      swap2\n      swap1\n      tag_19\n      jump\t// in\n    tag_18:\n      mload(0x40)\n      dup1\n      swap2\n      sub\n      swap1\n      return\n        /* \"contracts/Demo14.sol\":569:894  function getFundersIndex(address _addr) public view returns(uint256 index_){... */\n    tag_3:\n      callvalue\n      dup1\n      iszero\n      tag_20\n      jumpi\n      0x00\n      dup1\n      revert\n    tag_20:\n      pop\n      tag_21\n      0x04\n      dup1\n      calldatasize\n      sub\n      dup2\n      add\n      swap1\n      tag_22\n      swap2\n      swap1\n      tag_23\n      jump\t// in\n    tag_22:\n      tag_24\n      jump\t// in\n    tag_21:\n      mload(0x40)\n      tag_25\n      swap2\n      swap1\n      tag_19\n      jump\t// in\n    tag_25:\n      mload(0x40)\n      dup1\n      swap2\n      sub\n      swap1\n      return\n        /* \"contracts/Demo14.sol\":363:416  uint256 public deadline = block.timestamp + 1 seconds */\n    tag_4:\n      callvalue\n      dup1\n      iszero\n      tag_26\n      jumpi\n      0x00\n      dup1\n      revert\n    tag_26:\n      pop\n      tag_27\n      tag_28\n      jump\t// in\n    tag_27:\n      mload(0x40)\n      tag_29\n      swap2\n      swap1\n      tag_19\n      jump\t// in\n    tag_29:\n      mload(0x40)\n      dup1\n      swap2\n      sub\n      swap1\n      return\n        /* \"contracts/Demo14.sol\":168:204  address public immutable beneficiary */\n    tag_5:\n      callvalue\n      dup1\n      iszero\n      tag_30\n      jumpi\n      0x00\n      dup1\n      revert\n    tag_30:\n      pop\n      tag_31\n      tag_32\n      jump\t// in\n    tag_31:\n      mload(0x40)\n      tag_33\n      swap2\n      swap1\n      tag_34\n      jump\t// in\n    tag_33:\n      mload(0x40)\n      dup1\n      swap2\n      sub\n      swap1\n      return\n        /* \"contracts/Demo14.sol\":2375:2917  function withdraw() public returns(bool){... */\n    tag_6:\n      callvalue\n      dup1\n      iszero\n      tag_35\n      jumpi\n      0x00\n      dup1\n      revert\n    tag_35:\n      pop\n      tag_36\n      tag_37\n      jump\t// in\n    tag_36:\n      mload(0x40)\n      tag_38\n      swap2\n      swap1\n      tag_39\n      jump\t// in\n    tag_38:\n      mload(0x40)\n      dup1\n      swap2\n      sub\n      swap1\n      return\n        /* \"contracts/Demo14.sol\":1697:2367  function close() public returns(bool){   ... */\n    tag_7:\n      callvalue\n      dup1\n      iszero\n      tag_40\n      jumpi\n      0x00\n      dup1\n      revert\n    tag_40:\n      pop\n      tag_41\n      tag_42\n      jump\t// in\n    tag_41:\n      mload(0x40)\n      tag_43\n      swap2\n      swap1\n      tag_39\n      jump\t// in\n    tag_43:\n      mload(0x40)\n      dup1\n      swap2\n      sub\n      swap1\n      return\n        /* \"contracts/Demo14.sol\":902:1411  function contribution() public payable {... */\n    tag_8:\n      tag_44\n      tag_45\n      jump\t// in\n    tag_44:\n      stop\n        /* \"contracts/Demo14.sol\":211:247  uint256 public immutable fundingGoal */\n    tag_9:\n      callvalue\n      dup1\n      iszero\n      tag_46\n      jumpi\n      0x00\n      dup1\n      revert\n    tag_46:\n      pop\n      tag_47\n      tag_48\n      jump\t// in\n    tag_47:\n      mload(0x40)\n      tag_49\n      swap2\n      swap1\n      tag_19\n      jump\t// in\n    tag_49:\n      mload(0x40)\n      dup1\n      swap2\n      sub\n      swap1\n      return\n        /* \"contracts/Demo14.sol\":328:356  bool public validable = true */\n    tag_10:\n      callvalue\n      dup1\n      iszero\n      tag_50\n      jumpi\n      0x00\n      dup1\n      revert\n    tag_50:\n      pop\n      tag_51\n      tag_52\n      jump\t// in\n    tag_51:\n      mload(0x40)\n      tag_53\n      swap2\n      swap1\n      tag_39\n      jump\t// in\n    tag_53:\n      mload(0x40)\n      dup1\n      swap2\n      sub\n      swap1\n      return\n        /* \"contracts/Demo14.sol\":3026:3143  function f(uint x) public view returns (uint256 r) {... */\n    tag_11:\n      callvalue\n      dup1\n      iszero\n      tag_54\n      jumpi\n      0x00\n      dup1\n      revert\n    tag_54:\n      pop\n      tag_55\n      0x04\n      dup1\n      calldatasize\n      sub\n      dup2\n      add\n      swap1\n      tag_56\n      swap2\n      swap1\n      tag_57\n      jump\t// in\n    tag_56:\n      tag_58\n      jump\t// in\n    tag_55:\n      mload(0x40)\n      tag_59\n      swap2\n      swap1\n      tag_19\n      jump\t// in\n    tag_59:\n      mload(0x40)\n      dup1\n      swap2\n      sub\n      swap1\n      return\n        /* \"contracts/Demo14.sol\":296:319  Funder[] public funders */\n    tag_12:\n      callvalue\n      dup1\n      iszero\n      tag_60\n      jumpi\n      0x00\n      dup1\n      revert\n    tag_60:\n      pop\n      tag_61\n      0x04\n      dup1\n      calldatasize\n      sub\n      dup2\n      add\n      swap1\n      tag_62\n      swap2\n      swap1\n      tag_57\n      jump\t// in\n    tag_62:\n      tag_63\n      jump\t// in\n    tag_61:\n      mload(0x40)\n      tag_64\n      swap3\n      swap2\n      swap1\n      tag_65\n      jump\t// in\n    tag_64:\n      mload(0x40)\n      dup1\n      swap2\n      sub\n      swap1\n      return\n        /* \"contracts/Demo14.sol\":2925:3018  function fundersLength() public view returns(uint256){... */\n    tag_13:\n      callvalue\n      dup1\n      iszero\n      tag_66\n      jumpi\n      0x00\n      dup1\n      revert\n    tag_66:\n      pop\n      tag_67\n      tag_68\n      jump\t// in\n    tag_67:\n      mload(0x40)\n      tag_69\n      swap2\n      swap1\n      tag_19\n      jump\t// in\n    tag_69:\n      mload(0x40)\n      dup1\n      swap2\n      sub\n      swap1\n      return\n        /* \"contracts/Demo14.sol\":261:289  uint256 public fundingAmount */\n    tag_17:\n      sload(0x00)\n      dup2\n      jump\t// out\n        /* \"contracts/Demo14.sol\":569:894  function getFundersIndex(address _addr) public view returns(uint256 index_){... */\n    tag_24:\n        /* \"contracts/Demo14.sol\":629:643  uint256 index_ */\n      0x00\n        /* \"contracts/Demo14.sol\":655:676  Funder storage funder */\n      dup1\n        /* \"contracts/Demo14.sol\":691:700  uint256 i */\n      0x00\n        /* \"contracts/Demo14.sol\":687:855  for(uint256 i = 0;i<funders.length;i++){... */\n    tag_71:\n        /* \"contracts/Demo14.sol\":707:714  funders */\n      0x01\n        /* \"contracts/Demo14.sol\":707:721  funders.length */\n      dup1\n      sload\n      swap1\n      pop\n        /* \"contracts/Demo14.sol\":705:706  i */\n      dup2\n        /* \"contracts/Demo14.sol\":705:721  i<funders.length */\n      lt\n        /* \"contracts/Demo14.sol\":687:855  for(uint256 i = 0;i<funders.length;i++){... */\n      iszero\n      tag_72\n      jumpi\n        /* \"contracts/Demo14.sol\":750:757  funders */\n      0x01\n        /* \"contracts/Demo14.sol\":758:759  i */\n      dup2\n        /* \"contracts/Demo14.sol\":750:760  funders[i] */\n      dup2\n      sload\n      dup2\n      lt\n      tag_74\n      jumpi\n      tag_75\n      tag_76\n      jump\t// in\n    tag_75:\n    tag_74:\n      swap1\n      0x00\n      mstore\n      keccak256(0x00, 0x20)\n      swap1\n      0x02\n      mul\n      add\n        /* \"contracts/Demo14.sol\":741:760  funder = funders[i] */\n      swap2\n      pop\n        /* \"contracts/Demo14.sol\":787:793  funder */\n      dup2\n        /* \"contracts/Demo14.sol\":787:800  funder.funder */\n      0x00\n      add\n      0x00\n      swap1\n      sload\n      swap1\n      0x0100\n      exp\n      swap1\n      div\n      0xffffffffffffffffffffffffffffffffffffffff\n      and\n        /* \"contracts/Demo14.sol\":778:800  _addr == funder.funder */\n      0xffffffffffffffffffffffffffffffffffffffff\n      and\n        /* \"contracts/Demo14.sol\":778:783  _addr */\n      dup5\n        /* \"contracts/Demo14.sol\":778:800  _addr == funder.funder */\n      0xffffffffffffffffffffffffffffffffffffffff\n      and\n      sub\n        /* \"contracts/Demo14.sol\":775:844  if(_addr == funder.funder){... */\n      tag_78\n      jumpi\n        /* \"contracts/Demo14.sol\":827:828  i */\n      dup1\n        /* \"contracts/Demo14.sol\":820:828  return i */\n      swap3\n      pop\n      pop\n      pop\n      jump(tag_70)\n        /* \"contracts/Demo14.sol\":775:844  if(_addr == funder.funder){... */\n    tag_78:\n        /* \"contracts/Demo14.sol\":722:725  i++ */\n      dup1\n      dup1\n      0x01\n      add\n      swap2\n      pop\n      pop\n        /* \"contracts/Demo14.sol\":687:855  for(uint256 i = 0;i<funders.length;i++){... */\n      jump(tag_71)\n    tag_72:\n      pop\n        /* \"contracts/Demo14.sol\":872:879  funders */\n      0x01\n        /* \"contracts/Demo14.sol\":872:886  funders.length */\n      dup1\n      sload\n      swap1\n      pop\n        /* \"contracts/Demo14.sol\":865:886  return funders.length */\n      swap2\n      pop\n      pop\n        /* \"contracts/Demo14.sol\":569:894  function getFundersIndex(address _addr) public view returns(uint256 index_){... */\n    tag_70:\n      swap2\n      swap1\n      pop\n      jump\t// out\n        /* \"contracts/Demo14.sol\":363:416  uint256 public deadline = block.timestamp + 1 seconds */\n    tag_28:\n      sload(0x03)\n      dup2\n      jump\t// out\n        /* \"contracts/Demo14.sol\":168:204  address public immutable beneficiary */\n    tag_32:\n      immutable(\"0xe4b1702d9298fee62dfeccc57d322a463ad55ca201256d01f62b45b2e1c21c10\")\n      dup2\n      jump\t// out\n        /* \"contracts/Demo14.sol\":2375:2917  function withdraw() public returns(bool){... */\n    tag_37:\n        /* \"contracts/Demo14.sol\":2410:2414  bool */\n      0x00\n        /* \"contracts/Demo14.sol\":2452:2460  deadline */\n      sload(0x03)\n        /* \"contracts/Demo14.sol\":2434:2449  block.timestamp */\n      timestamp\n        /* \"contracts/Demo14.sol\":2434:2460  block.timestamp > deadline */\n      gt\n        /* \"contracts/Demo14.sol\":2426:2485  require(block.timestamp > deadline,\"invalid withdraw time\") */\n      tag_80\n      jumpi\n      mload(0x40)\n      0x08c379a000000000000000000000000000000000000000000000000000000000\n      dup2\n      mstore\n      0x04\n      add\n      tag_81\n      swap1\n      tag_82\n      jump\t// in\n    tag_81:\n      mload(0x40)\n      dup1\n      swap2\n      sub\n      swap1\n      revert\n    tag_80:\n        /* \"contracts/Demo14.sol\":2504:2513  validable */\n      0x02\n      0x00\n      swap1\n      sload\n      swap1\n      0x0100\n      exp\n      swap1\n      div\n      0xff\n      and\n        /* \"contracts/Demo14.sol\":2496:2545  require(validable,\"Crowdfunding has been closed\") */\n      tag_83\n      jumpi\n      mload(0x40)\n      0x08c379a000000000000000000000000000000000000000000000000000000000\n      dup2\n      mstore\n      0x04\n      add\n      tag_84\n      swap1\n      tag_85\n      jump\t// in\n    tag_84:\n      mload(0x40)\n      dup1\n      swap2\n      sub\n      swap1\n      revert\n    tag_83:\n        /* \"contracts/Demo14.sol\":2580:2591  fundingGoal */\n      immutable(\"0x1a192fabce13988b84994d4296e6cdc418d55e2f1d7f942188d4040b94fc57ac\")\n        /* \"contracts/Demo14.sol\":2564:2577  fundingAmount */\n      sload(0x00)\n        /* \"contracts/Demo14.sol\":2564:2591  fundingAmount < fundingGoal */\n      lt\n        /* \"contracts/Demo14.sol\":2564:2610  fundingAmount < fundingGoal && fundingAmount>0 */\n      dup1\n      iszero\n      tag_86\n      jumpi\n      pop\n        /* \"contracts/Demo14.sol\":2609:2610  0 */\n      0x00\n        /* \"contracts/Demo14.sol\":2595:2608  fundingAmount */\n      dup1\n      sload\n        /* \"contracts/Demo14.sol\":2595:2610  fundingAmount>0 */\n      gt\n        /* \"contracts/Demo14.sol\":2564:2610  fundingAmount < fundingGoal && fundingAmount>0 */\n    tag_86:\n        /* \"contracts/Demo14.sol\":2556:2643  require(fundingAmount < fundingGoal && fundingAmount>0,\"fundingGoal has been finished\") */\n      tag_87\n      jumpi\n      mload(0x40)\n      0x08c379a000000000000000000000000000000000000000000000000000000000\n      dup2\n      mstore\n      0x04\n      add\n      tag_88\n      swap1\n      tag_89\n      jump\t// in\n    tag_88:\n      mload(0x40)\n      dup1\n      swap2\n      sub\n      swap1\n      revert\n    tag_87:\n        /* \"contracts/Demo14.sol\":2656:2669  uint256 index */\n      0x00\n        /* \"contracts/Demo14.sol\":2672:2699  getFundersIndex(msg.sender) */\n      tag_90\n        /* \"contracts/Demo14.sol\":2688:2698  msg.sender */\n      caller\n        /* \"contracts/Demo14.sol\":2672:2687  getFundersIndex */\n      tag_24\n        /* \"contracts/Demo14.sol\":2672:2699  getFundersIndex(msg.sender) */\n      jump\t// in\n    tag_90:\n        /* \"contracts/Demo14.sol\":2656:2699  uint256 index = getFundersIndex(msg.sender) */\n      swap1\n      pop\n        /* \"contracts/Demo14.sol\":2722:2729  funders */\n      0x01\n        /* \"contracts/Demo14.sol\":2722:2736  funders.length */\n      dup1\n      sload\n      swap1\n      pop\n        /* \"contracts/Demo14.sol\":2713:2718  index */\n      dup2\n        /* \"contracts/Demo14.sol\":2713:2736  index == funders.length */\n      sub\n        /* \"contracts/Demo14.sol\":2710:2776  if(index == funders.length){... */\n      tag_91\n      jumpi\n        /* \"contracts/Demo14.sol\":2759:2764  false */\n      0x00\n        /* \"contracts/Demo14.sol\":2752:2764  return false */\n      swap2\n      pop\n      pop\n      jump(tag_79)\n        /* \"contracts/Demo14.sol\":2710:2776  if(index == funders.length){... */\n    tag_91:\n        /* \"contracts/Demo14.sol\":2803:2810  funders */\n      0x01\n        /* \"contracts/Demo14.sol\":2811:2816  index */\n      dup2\n        /* \"contracts/Demo14.sol\":2803:2817  funders[index] */\n      dup2\n      sload\n      dup2\n      lt\n      tag_92\n      jumpi\n      tag_93\n      tag_76\n      jump\t// in\n    tag_93:\n    tag_92:\n      swap1\n      0x00\n      mstore\n      keccak256(0x00, 0x20)\n      swap1\n      0x02\n      mul\n      add\n        /* \"contracts/Demo14.sol\":2803:2824  funders[index].amount */\n      0x01\n      add\n      sload\n        /* \"contracts/Demo14.sol\":2786:2799  fundingAmount */\n      0x00\n      dup1\n        /* \"contracts/Demo14.sol\":2786:2824  fundingAmount -= funders[index].amount */\n      dup3\n      dup3\n      sload\n      tag_95\n      swap2\n      swap1\n      tag_96\n      jump\t// in\n    tag_95:\n      swap3\n      pop\n      pop\n      dup2\n      swap1\n      sstore\n      pop\n        /* \"contracts/Demo14.sol\":2844:2854  msg.sender */\n      caller\n        /* \"contracts/Demo14.sol\":2835:2864  payable (msg.sender).transfer */\n      0xffffffffffffffffffffffffffffffffffffffff\n      and\n        /* \"contracts/Demo14.sol\":2835:2887  payable (msg.sender).transfer(funders[index].amount) */\n      0x08fc\n        /* \"contracts/Demo14.sol\":2865:2872  funders */\n      0x01\n        /* \"contracts/Demo14.sol\":2873:2878  index */\n      dup4\n        /* \"contracts/Demo14.sol\":2865:2879  funders[index] */\n      dup2\n      sload\n      dup2\n      lt\n      tag_97\n      jumpi\n      tag_98\n      tag_76\n      jump\t// in\n    tag_98:\n    tag_97:\n      swap1\n      0x00\n      mstore\n      keccak256(0x00, 0x20)\n      swap1\n      0x02\n      mul\n      add\n        /* \"contracts/Demo14.sol\":2865:2886  funders[index].amount */\n      0x01\n      add\n      sload\n        /* \"contracts/Demo14.sol\":2835:2887  payable (msg.sender).transfer(funders[index].amount) */\n      swap1\n      dup2\n      iszero\n      mul\n      swap1\n      mload(0x40)\n      0x00\n      mload(0x40)\n      dup1\n      dup4\n      sub\n      dup2\n      dup6\n      dup9\n      dup9\n      call\n      swap4\n      pop\n      pop\n      pop\n      pop\n      iszero\n      dup1\n      iszero\n      tag_101\n      jumpi\n      returndatasize\n      0x00\n      dup1\n      returndatacopy\n      revert(0x00, returndatasize)\n    tag_101:\n      pop\n        /* \"contracts/Demo14.sol\":2905:2909  true */\n      0x01\n        /* \"contracts/Demo14.sol\":2898:2909  return true */\n      swap2\n      pop\n      pop\n        /* \"contracts/Demo14.sol\":2375:2917  function withdraw() public returns(bool){... */\n    tag_79:\n      swap1\n      jump\t// out\n        /* \"contracts/Demo14.sol\":1697:2367  function close() public returns(bool){   ... */\n    tag_42:\n        /* \"contracts/Demo14.sol\":1729:1733  bool */\n      0x00\n        /* \"contracts/Demo14.sol\":1756:1765  validable */\n      0x02\n      0x00\n      swap1\n      sload\n      swap1\n      0x0100\n      exp\n      swap1\n      div\n      0xff\n      and\n        /* \"contracts/Demo14.sol\":1748:1797  require(validable,\"Crowdfunding has been closed\") */\n      tag_103\n      jumpi\n      mload(0x40)\n      0x08c379a000000000000000000000000000000000000000000000000000000000\n      dup2\n      mstore\n      0x04\n      add\n      tag_104\n      swap1\n      tag_85\n      jump\t// in\n    tag_104:\n      mload(0x40)\n      dup1\n      swap2\n      sub\n      swap1\n      revert\n    tag_103:\n        /* \"contracts/Demo14.sol\":1830:1841  beneficiary */\n      immutable(\"0xe4b1702d9298fee62dfeccc57d322a463ad55ca201256d01f62b45b2e1c21c10\")\n        /* \"contracts/Demo14.sol\":1816:1841  msg.sender == beneficiary */\n      0xffffffffffffffffffffffffffffffffffffffff\n      and\n        /* \"contracts/Demo14.sol\":1816:1826  msg.sender */\n      caller\n        /* \"contracts/Demo14.sol\":1816:1841  msg.sender == beneficiary */\n      0xffffffffffffffffffffffffffffffffffffffff\n      and\n      eq\n        /* \"contracts/Demo14.sol\":1808:1860  require(msg.sender == beneficiary,\"invalid address\") */\n      tag_105\n      jumpi\n      mload(0x40)\n      0x08c379a000000000000000000000000000000000000000000000000000000000\n      dup2\n      mstore\n      0x04\n      add\n      tag_106\n      swap1\n      tag_107\n      jump\t// in\n    tag_106:\n      mload(0x40)\n      dup1\n      swap2\n      sub\n      swap1\n      revert\n    tag_105:\n        /* \"contracts/Demo14.sol\":1893:1901  deadline */\n      sload(0x03)\n        /* \"contracts/Demo14.sol\":1874:1889  block.timestamp */\n      timestamp\n        /* \"contracts/Demo14.sol\":1874:1901  block.timestamp <= deadline */\n      gt\n        /* \"contracts/Demo14.sol\":1871:1941  if(block.timestamp <= deadline){... */\n      tag_108\n      jumpi\n        /* \"contracts/Demo14.sol\":1924:1929  false */\n      0x00\n        /* \"contracts/Demo14.sol\":1917:1929  return false */\n      swap1\n      pop\n      jump(tag_102)\n        /* \"contracts/Demo14.sol\":1871:1941  if(block.timestamp <= deadline){... */\n    tag_108:\n        /* \"contracts/Demo14.sol\":1972:1983  fundingGoal */\n      immutable(\"0x1a192fabce13988b84994d4296e6cdc418d55e2f1d7f942188d4040b94fc57ac\")\n        /* \"contracts/Demo14.sol\":1956:1969  fundingAmount */\n      sload(0x00)\n        /* \"contracts/Demo14.sol\":1956:1983  fundingAmount < fundingGoal */\n      lt\n        /* \"contracts/Demo14.sol\":1956:2004  fundingAmount < fundingGoal && fundingAmount > 0 */\n      dup1\n      iszero\n      tag_109\n      jumpi\n      pop\n        /* \"contracts/Demo14.sol\":2003:2004  0 */\n      0x00\n        /* \"contracts/Demo14.sol\":1987:2000  fundingAmount */\n      dup1\n      sload\n        /* \"contracts/Demo14.sol\":1987:2004  fundingAmount > 0 */\n      gt\n        /* \"contracts/Demo14.sol\":1956:2004  fundingAmount < fundingGoal && fundingAmount > 0 */\n    tag_109:\n        /* \"contracts/Demo14.sol\":1953:2043  if(fundingAmount < fundingGoal && fundingAmount > 0){... */\n      iszero\n      tag_110\n      jumpi\n        /* \"contracts/Demo14.sol\":2026:2031  false */\n      0x00\n        /* \"contracts/Demo14.sol\":2019:2031  return false */\n      swap1\n      pop\n      jump(tag_102)\n        /* \"contracts/Demo14.sol\":1953:2043  if(fundingAmount < fundingGoal && fundingAmount > 0){... */\n    tag_110:\n        /* \"contracts/Demo14.sol\":2065:2070  false */\n      0x00\n        /* \"contracts/Demo14.sol\":2053:2062  validable */\n      0x02\n      0x00\n        /* \"contracts/Demo14.sol\":2053:2070  validable = false */\n      0x0100\n      exp\n      dup2\n      sload\n      dup2\n      0xff\n      mul\n      not\n      and\n      swap1\n      dup4\n      iszero\n      iszero\n      mul\n      or\n      swap1\n      sstore\n      pop\n        /* \"contracts/Demo14.sol\":2120:2131  fundingGoal */\n      immutable(\"0x1a192fabce13988b84994d4296e6cdc418d55e2f1d7f942188d4040b94fc57ac\")\n        /* \"contracts/Demo14.sol\":2103:2116  fundingAmount */\n      sload(0x00)\n        /* \"contracts/Demo14.sol\":2103:2131  fundingAmount >= fundingGoal */\n      lt\n        /* \"contracts/Demo14.sol\":2100:2338  if(fundingAmount >= fundingGoal){... */\n      tag_111\n      jumpi\n        /* \"contracts/Demo14.sol\":2147:2161  uint256 amount */\n      0x00\n        /* \"contracts/Demo14.sol\":2164:2177  fundingAmount */\n      dup1\n      sload\n        /* \"contracts/Demo14.sol\":2147:2177  uint256 amount = fundingAmount */\n      swap1\n      pop\n        /* \"contracts/Demo14.sol\":2243:2244  0 */\n      0x00\n        /* \"contracts/Demo14.sol\":2227:2240  fundingAmount */\n      dup1\n        /* \"contracts/Demo14.sol\":2227:2244  fundingAmount = 0 */\n      dup2\n      swap1\n      sstore\n      pop\n        /* \"contracts/Demo14.sol\":2297:2308  beneficiary */\n      immutable(\"0xe4b1702d9298fee62dfeccc57d322a463ad55ca201256d01f62b45b2e1c21c10\")\n        /* \"contracts/Demo14.sol\":2288:2318  payable (beneficiary).transfer */\n      0xffffffffffffffffffffffffffffffffffffffff\n      and\n        /* \"contracts/Demo14.sol\":2288:2326  payable (beneficiary).transfer(amount) */\n      0x08fc\n        /* \"contracts/Demo14.sol\":2319:2325  amount */\n      dup3\n        /* \"contracts/Demo14.sol\":2288:2326  payable (beneficiary).transfer(amount) */\n      swap1\n      dup2\n      iszero\n      mul\n      swap1\n      mload(0x40)\n      0x00\n      mload(0x40)\n      dup1\n      dup4\n      sub\n      dup2\n      dup6\n      dup9\n      dup9\n      call\n      swap4\n      pop\n      pop\n      pop\n      pop\n      iszero\n      dup1\n      iszero\n      tag_113\n      jumpi\n      returndatasize\n      0x00\n      dup1\n      returndatacopy\n      revert(0x00, returndatasize)\n    tag_113:\n      pop\n        /* \"contracts/Demo14.sol\":2132:2338  {... */\n      pop\n        /* \"contracts/Demo14.sol\":2100:2338  if(fundingAmount >= fundingGoal){... */\n    tag_111:\n        /* \"contracts/Demo14.sol\":2355:2359  true */\n      0x01\n        /* \"contracts/Demo14.sol\":2348:2359  return true */\n      swap1\n      pop\n        /* \"contracts/Demo14.sol\":1697:2367  function close() public returns(bool){   ... */\n    tag_102:\n      swap1\n      jump\t// out\n        /* \"contracts/Demo14.sol\":902:1411  function contribution() public payable {... */\n    tag_45:\n        /* \"contracts/Demo14.sol\":960:969  validable */\n      0x02\n      0x00\n      swap1\n      sload\n      swap1\n      0x0100\n      exp\n      swap1\n      div\n      0xff\n      and\n        /* \"contracts/Demo14.sol\":952:1001  require(validable,\"Crowdfunding has been closed\") */\n      tag_115\n      jumpi\n      mload(0x40)\n      0x08c379a000000000000000000000000000000000000000000000000000000000\n      dup2\n      mstore\n      0x04\n      add\n      tag_116\n      swap1\n      tag_85\n      jump\t// in\n    tag_116:\n      mload(0x40)\n      dup1\n      swap2\n      sub\n      swap1\n      revert\n    tag_115:\n        /* \"contracts/Demo14.sol\":1039:1047  deadline */\n      sload(0x03)\n        /* \"contracts/Demo14.sol\":1020:1035  block.timestamp */\n      timestamp\n        /* \"contracts/Demo14.sol\":1020:1047  block.timestamp <= deadline */\n      gt\n      iszero\n        /* \"contracts/Demo14.sol\":1012:1075  require(block.timestamp <= deadline,\"Crowdfunding is finished\") */\n      tag_117\n      jumpi\n      mload(0x40)\n      0x08c379a000000000000000000000000000000000000000000000000000000000\n      dup2\n      mstore\n      0x04\n      add\n      tag_118\n      swap1\n      tag_119\n      jump\t// in\n    tag_118:\n      mload(0x40)\n      dup1\n      swap2\n      sub\n      swap1\n      revert\n    tag_117:\n        /* \"contracts/Demo14.sol\":1103:1112  msg.value */\n      callvalue\n        /* \"contracts/Demo14.sol\":1086:1099  fundingAmount */\n      0x00\n      dup1\n        /* \"contracts/Demo14.sol\":1086:1112  fundingAmount += msg.value */\n      dup3\n      dup3\n      sload\n      tag_120\n      swap2\n      swap1\n      tag_121\n      jump\t// in\n    tag_120:\n      swap3\n      pop\n      pop\n      dup2\n      swap1\n      sstore\n      pop\n        /* \"contracts/Demo14.sol\":1123:1136  uint256 index */\n      0x00\n        /* \"contracts/Demo14.sol\":1139:1166  getFundersIndex(msg.sender) */\n      tag_122\n        /* \"contracts/Demo14.sol\":1155:1165  msg.sender */\n      caller\n        /* \"contracts/Demo14.sol\":1139:1154  getFundersIndex */\n      tag_24\n        /* \"contracts/Demo14.sol\":1139:1166  getFundersIndex(msg.sender) */\n      jump\t// in\n    tag_122:\n        /* \"contracts/Demo14.sol\":1123:1166  uint256 index = getFundersIndex(msg.sender) */\n      swap1\n      pop\n        /* \"contracts/Demo14.sol\":1189:1196  funders */\n      0x01\n        /* \"contracts/Demo14.sol\":1189:1203  funders.length */\n      dup1\n      sload\n      swap1\n      pop\n        /* \"contracts/Demo14.sol\":1180:1185  index */\n      dup2\n        /* \"contracts/Demo14.sol\":1180:1203  index == funders.length */\n      sub\n        /* \"contracts/Demo14.sol\":1177:1404  if(index == funders.length){... */\n      tag_123\n      jumpi\n        /* \"contracts/Demo14.sol\":1219:1226  funders */\n      0x01\n        /* \"contracts/Demo14.sol\":1232:1326  Funder({... */\n      mload(0x40)\n      dup1\n      0x40\n      add\n      0x40\n      mstore\n      dup1\n        /* \"contracts/Demo14.sol\":1265:1275  msg.sender */\n      caller\n        /* \"contracts/Demo14.sol\":1232:1326  Funder({... */\n      0xffffffffffffffffffffffffffffffffffffffff\n      and\n      dup2\n      mstore\n      0x20\n      add\n        /* \"contracts/Demo14.sol\":1301:1310  msg.value */\n      callvalue\n        /* \"contracts/Demo14.sol\":1232:1326  Funder({... */\n      dup2\n      mstore\n      pop\n        /* \"contracts/Demo14.sol\":1219:1327  funders.push(Funder({... */\n      swap1\n      dup1\n      0x01\n      dup2\n      sload\n      add\n      dup1\n      dup3\n      sstore\n      dup1\n      swap2\n      pop\n      pop\n      0x01\n      swap1\n      sub\n      swap1\n      0x00\n      mstore\n      keccak256(0x00, 0x20)\n      swap1\n      0x02\n      mul\n      add\n      0x00\n      swap1\n      swap2\n      swap1\n      swap2\n      swap1\n      swap2\n      pop\n      0x00\n      dup3\n      add\n      mload\n      dup2\n      0x00\n      add\n      exp(0x0100, 0x00)\n      dup2\n      sload\n      dup2\n      0xffffffffffffffffffffffffffffffffffffffff\n      mul\n      not\n      and\n      swap1\n      dup4\n      0xffffffffffffffffffffffffffffffffffffffff\n      and\n      mul\n      or\n      swap1\n      sstore\n      pop\n      0x20\n      dup3\n      add\n      mload\n      dup2\n      0x01\n      add\n      sstore\n      pop\n      pop\n        /* \"contracts/Demo14.sol\":1177:1404  if(index == funders.length){... */\n      jump(tag_125)\n    tag_123:\n        /* \"contracts/Demo14.sol\":1383:1392  msg.value */\n      callvalue\n        /* \"contracts/Demo14.sol\":1358:1365  funders */\n      0x01\n        /* \"contracts/Demo14.sol\":1366:1371  index */\n      dup3\n        /* \"contracts/Demo14.sol\":1358:1372  funders[index] */\n      dup2\n      sload\n      dup2\n      lt\n      tag_126\n      jumpi\n      tag_127\n      tag_76\n      jump\t// in\n    tag_127:\n    tag_126:\n      swap1\n      0x00\n      mstore\n      keccak256(0x00, 0x20)\n      swap1\n      0x02\n      mul\n      add\n        /* \"contracts/Demo14.sol\":1358:1379  funders[index].amount */\n      0x01\n      add\n      0x00\n        /* \"contracts/Demo14.sol\":1358:1392  funders[index].amount += msg.value */\n      dup3\n      dup3\n      sload\n      tag_129\n      swap2\n      swap1\n      tag_121\n      jump\t// in\n    tag_129:\n      swap3\n      pop\n      pop\n      dup2\n      swap1\n      sstore\n      pop\n        /* \"contracts/Demo14.sol\":1177:1404  if(index == funders.length){... */\n    tag_125:\n        /* \"contracts/Demo14.sol\":941:1411  {... */\n      pop\n        /* \"contracts/Demo14.sol\":902:1411  function contribution() public payable {... */\n      jump\t// out\n        /* \"contracts/Demo14.sol\":211:247  uint256 public immutable fundingGoal */\n    tag_48:\n      immutable(\"0x1a192fabce13988b84994d4296e6cdc418d55e2f1d7f942188d4040b94fc57ac\")\n      dup2\n      jump\t// out\n        /* \"contracts/Demo14.sol\":328:356  bool public validable = true */\n    tag_52:\n      0x02\n      0x00\n      swap1\n      sload\n      swap1\n      0x0100\n      exp\n      swap1\n      div\n      0xff\n      and\n      dup2\n      jump\t// out\n        /* \"contracts/Demo14.sol\":3026:3143  function f(uint x) public view returns (uint256 r) {... */\n    tag_58:\n        /* \"contracts/Demo14.sol\":3066:3075  uint256 r */\n      0x00\n        /* \"contracts/Demo14.sol\":3123:3124  x */\n      dup2\n        /* \"contracts/Demo14.sol\":3117:3125  sload(x) */\n      sload\n        /* \"contracts/Demo14.sol\":3112:3125  r := sload(x) */\n      swap1\n      pop\n        /* \"contracts/Demo14.sol\":3026:3143  function f(uint x) public view returns (uint256 r) {... */\n      swap2\n      swap1\n      pop\n      jump\t// out\n        /* \"contracts/Demo14.sol\":296:319  Funder[] public funders */\n    tag_63:\n      0x01\n      dup2\n      dup2\n      sload\n      dup2\n      lt\n      tag_131\n      jumpi\n      0x00\n      dup1\n      revert\n    tag_131:\n      swap1\n      0x00\n      mstore\n      keccak256(0x00, 0x20)\n      swap1\n      0x02\n      mul\n      add\n      0x00\n      swap2\n      pop\n      swap1\n      pop\n      dup1\n      0x00\n      add\n      0x00\n      swap1\n      sload\n      swap1\n      0x0100\n      exp\n      swap1\n      div\n      0xffffffffffffffffffffffffffffffffffffffff\n      and\n      swap1\n      dup1\n      0x01\n      add\n      sload\n      swap1\n      pop\n      dup3\n      jump\t// out\n        /* \"contracts/Demo14.sol\":2925:3018  function fundersLength() public view returns(uint256){... */\n    tag_68:\n        /* \"contracts/Demo14.sol\":2970:2977  uint256 */\n      0x00\n        /* \"contracts/Demo14.sol\":2996:3003  funders */\n      0x01\n        /* \"contracts/Demo14.sol\":2996:3010  funders.length */\n      dup1\n      sload\n      swap1\n      pop\n        /* \"contracts/Demo14.sol\":2989:3010  return funders.length */\n      swap1\n      pop\n        /* \"contracts/Demo14.sol\":2925:3018  function fundersLength() public view returns(uint256){... */\n      swap1\n      jump\t// out\n        /* \"#utility.yul\":7:84   */\n    tag_134:\n        /* \"#utility.yul\":44:51   */\n      0x00\n        /* \"#utility.yul\":73:78   */\n      dup2\n        /* \"#utility.yul\":62:78   */\n      swap1\n      pop\n        /* \"#utility.yul\":7:84   */\n      swap2\n      swap1\n      pop\n      jump\t// out\n        /* \"#utility.yul\":90:208   */\n    tag_135:\n        /* \"#utility.yul\":177:201   */\n      tag_163\n        /* \"#utility.yul\":195:200   */\n      dup2\n        /* \"#utility.yul\":177:201   */\n      tag_134\n      jump\t// in\n    tag_163:\n        /* \"#utility.yul\":172:175   */\n      dup3\n        /* \"#utility.yul\":165:202   */\n      mstore\n        /* \"#utility.yul\":90:208   */\n      pop\n      pop\n      jump\t// out\n        /* \"#utility.yul\":214:436   */\n    tag_19:\n        /* \"#utility.yul\":307:311   */\n      0x00\n        /* \"#utility.yul\":345:347   */\n      0x20\n        /* \"#utility.yul\":334:343   */\n      dup3\n        /* \"#utility.yul\":330:348   */\n      add\n        /* \"#utility.yul\":322:348   */\n      swap1\n      pop\n        /* \"#utility.yul\":358:429   */\n      tag_165\n        /* \"#utility.yul\":426:427   */\n      0x00\n        /* \"#utility.yul\":415:424   */\n      dup4\n        /* \"#utility.yul\":411:428   */\n      add\n        /* \"#utility.yul\":402:408   */\n      dup5\n        /* \"#utility.yul\":358:429   */\n      tag_135\n      jump\t// in\n    tag_165:\n        /* \"#utility.yul\":214:436   */\n      swap3\n      swap2\n      pop\n      pop\n      jump\t// out\n        /* \"#utility.yul\":523:640   */\n    tag_137:\n        /* \"#utility.yul\":632:633   */\n      0x00\n        /* \"#utility.yul\":629:630   */\n      dup1\n        /* \"#utility.yul\":622:634   */\n      revert\n        /* \"#utility.yul\":769:895   */\n    tag_139:\n        /* \"#utility.yul\":806:813   */\n      0x00\n        /* \"#utility.yul\":846:888   */\n      0xffffffffffffffffffffffffffffffffffffffff\n        /* \"#utility.yul\":839:844   */\n      dup3\n        /* \"#utility.yul\":835:889   */\n      and\n        /* \"#utility.yul\":824:889   */\n      swap1\n      pop\n        /* \"#utility.yul\":769:895   */\n      swap2\n      swap1\n      pop\n      jump\t// out\n        /* \"#utility.yul\":901:997   */\n    tag_140:\n        /* \"#utility.yul\":938:945   */\n      0x00\n        /* \"#utility.yul\":967:991   */\n      tag_171\n        /* \"#utility.yul\":985:990   */\n      dup3\n        /* \"#utility.yul\":967:991   */\n      tag_139\n      jump\t// in\n    tag_171:\n        /* \"#utility.yul\":956:991   */\n      swap1\n      pop\n        /* \"#utility.yul\":901:997   */\n      swap2\n      swap1\n      pop\n      jump\t// out\n        /* \"#utility.yul\":1003:1125   */\n    tag_141:\n        /* \"#utility.yul\":1076:1100   */\n      tag_173\n        /* \"#utility.yul\":1094:1099   */\n      dup2\n        /* \"#utility.yul\":1076:1100   */\n      tag_140\n      jump\t// in\n    tag_173:\n        /* \"#utility.yul\":1069:1074   */\n      dup2\n        /* \"#utility.yul\":1066:1101   */\n      eq\n        /* \"#utility.yul\":1056:1119   */\n      tag_174\n      jumpi\n        /* \"#utility.yul\":1115:1116   */\n      0x00\n        /* \"#utility.yul\":1112:1113   */\n      dup1\n        /* \"#utility.yul\":1105:1117   */\n      revert\n        /* \"#utility.yul\":1056:1119   */\n    tag_174:\n        /* \"#utility.yul\":1003:1125   */\n      pop\n      jump\t// out\n        /* \"#utility.yul\":1131:1270   */\n    tag_142:\n        /* \"#utility.yul\":1177:1182   */\n      0x00\n        /* \"#utility.yul\":1215:1221   */\n      dup2\n        /* \"#utility.yul\":1202:1222   */\n      calldataload\n        /* \"#utility.yul\":1193:1222   */\n      swap1\n      pop\n        /* \"#utility.yul\":1231:1264   */\n      tag_176\n        /* \"#utility.yul\":1258:1263   */\n      dup2\n        /* \"#utility.yul\":1231:1264   */\n      tag_141\n      jump\t// in\n    tag_176:\n        /* \"#utility.yul\":1131:1270   */\n      swap3\n      swap2\n      pop\n      pop\n      jump\t// out\n        /* \"#utility.yul\":1276:1605   */\n    tag_23:\n        /* \"#utility.yul\":1335:1341   */\n      0x00\n        /* \"#utility.yul\":1384:1386   */\n      0x20\n        /* \"#utility.yul\":1372:1381   */\n      dup3\n        /* \"#utility.yul\":1363:1370   */\n      dup5\n        /* \"#utility.yul\":1359:1382   */\n      sub\n        /* \"#utility.yul\":1355:1387   */\n      slt\n        /* \"#utility.yul\":1352:1471   */\n      iszero\n      tag_178\n      jumpi\n        /* \"#utility.yul\":1390:1469   */\n      tag_179\n      tag_137\n      jump\t// in\n    tag_179:\n        /* \"#utility.yul\":1352:1471   */\n    tag_178:\n        /* \"#utility.yul\":1510:1511   */\n      0x00\n        /* \"#utility.yul\":1535:1588   */\n      tag_180\n        /* \"#utility.yul\":1580:1587   */\n      dup5\n        /* \"#utility.yul\":1571:1577   */\n      dup3\n        /* \"#utility.yul\":1560:1569   */\n      dup6\n        /* \"#utility.yul\":1556:1578   */\n      add\n        /* \"#utility.yul\":1535:1588   */\n      tag_142\n      jump\t// in\n    tag_180:\n        /* \"#utility.yul\":1525:1588   */\n      swap2\n      pop\n        /* \"#utility.yul\":1481:1598   */\n      pop\n        /* \"#utility.yul\":1276:1605   */\n      swap3\n      swap2\n      pop\n      pop\n      jump\t// out\n        /* \"#utility.yul\":1611:1729   */\n    tag_143:\n        /* \"#utility.yul\":1698:1722   */\n      tag_182\n        /* \"#utility.yul\":1716:1721   */\n      dup2\n        /* \"#utility.yul\":1698:1722   */\n      tag_140\n      jump\t// in\n    tag_182:\n        /* \"#utility.yul\":1693:1696   */\n      dup3\n        /* \"#utility.yul\":1686:1723   */\n      mstore\n        /* \"#utility.yul\":1611:1729   */\n      pop\n      pop\n      jump\t// out\n        /* \"#utility.yul\":1735:1957   */\n    tag_34:\n        /* \"#utility.yul\":1828:1832   */\n      0x00\n        /* \"#utility.yul\":1866:1868   */\n      0x20\n        /* \"#utility.yul\":1855:1864   */\n      dup3\n        /* \"#utility.yul\":1851:1869   */\n      add\n        /* \"#utility.yul\":1843:1869   */\n      swap1\n      pop\n        /* \"#utility.yul\":1879:1950   */\n      tag_184\n        /* \"#utility.yul\":1947:1948   */\n      0x00\n        /* \"#utility.yul\":1936:1945   */\n      dup4\n        /* \"#utility.yul\":1932:1949   */\n      add\n        /* \"#utility.yul\":1923:1929   */\n      dup5\n        /* \"#utility.yul\":1879:1950   */\n      tag_143\n      jump\t// in\n    tag_184:\n        /* \"#utility.yul\":1735:1957   */\n      swap3\n      swap2\n      pop\n      pop\n      jump\t// out\n        /* \"#utility.yul\":1963:2053   */\n    tag_144:\n        /* \"#utility.yul\":1997:2004   */\n      0x00\n        /* \"#utility.yul\":2040:2045   */\n      dup2\n        /* \"#utility.yul\":2033:2046   */\n      iszero\n        /* \"#utility.yul\":2026:2047   */\n      iszero\n        /* \"#utility.yul\":2015:2047   */\n      swap1\n      pop\n        /* \"#utility.yul\":1963:2053   */\n      swap2\n      swap1\n      pop\n      jump\t// out\n        /* \"#utility.yul\":2059:2168   */\n    tag_145:\n        /* \"#utility.yul\":2140:2161   */\n      tag_187\n        /* \"#utility.yul\":2155:2160   */\n      dup2\n        /* \"#utility.yul\":2140:2161   */\n      tag_144\n      jump\t// in\n    tag_187:\n        /* \"#utility.yul\":2135:2138   */\n      dup3\n        /* \"#utility.yul\":2128:2162   */\n      mstore\n        /* \"#utility.yul\":2059:2168   */\n      pop\n      pop\n      jump\t// out\n        /* \"#utility.yul\":2174:2384   */\n    tag_39:\n        /* \"#utility.yul\":2261:2265   */\n      0x00\n        /* \"#utility.yul\":2299:2301   */\n      0x20\n        /* \"#utility.yul\":2288:2297   */\n      dup3\n        /* \"#utility.yul\":2284:2302   */\n      add\n        /* \"#utility.yul\":2276:2302   */\n      swap1\n      pop\n        /* \"#utility.yul\":2312:2377   */\n      tag_189\n        /* \"#utility.yul\":2374:2375   */\n      0x00\n        /* \"#utility.yul\":2363:2372   */\n      dup4\n        /* \"#utility.yul\":2359:2376   */\n      add\n        /* \"#utility.yul\":2350:2356   */\n      dup5\n        /* \"#utility.yul\":2312:2377   */\n      tag_145\n      jump\t// in\n    tag_189:\n        /* \"#utility.yul\":2174:2384   */\n      swap3\n      swap2\n      pop\n      pop\n      jump\t// out\n        /* \"#utility.yul\":2390:2512   */\n    tag_146:\n        /* \"#utility.yul\":2463:2487   */\n      tag_191\n        /* \"#utility.yul\":2481:2486   */\n      dup2\n        /* \"#utility.yul\":2463:2487   */\n      tag_134\n      jump\t// in\n    tag_191:\n        /* \"#utility.yul\":2456:2461   */\n      dup2\n        /* \"#utility.yul\":2453:2488   */\n      eq\n        /* \"#utility.yul\":2443:2506   */\n      tag_192\n      jumpi\n        /* \"#utility.yul\":2502:2503   */\n      0x00\n        /* \"#utility.yul\":2499:2500   */\n      dup1\n        /* \"#utility.yul\":2492:2504   */\n      revert\n        /* \"#utility.yul\":2443:2506   */\n    tag_192:\n        /* \"#utility.yul\":2390:2512   */\n      pop\n      jump\t// out\n        /* \"#utility.yul\":2518:2657   */\n    tag_147:\n        /* \"#utility.yul\":2564:2569   */\n      0x00\n        /* \"#utility.yul\":2602:2608   */\n      dup2\n        /* \"#utility.yul\":2589:2609   */\n      calldataload\n        /* \"#utility.yul\":2580:2609   */\n      swap1\n      pop\n        /* \"#utility.yul\":2618:2651   */\n      tag_194\n        /* \"#utility.yul\":2645:2650   */\n      dup2\n        /* \"#utility.yul\":2618:2651   */\n      tag_146\n      jump\t// in\n    tag_194:\n        /* \"#utility.yul\":2518:2657   */\n      swap3\n      swap2\n      pop\n      pop\n      jump\t// out\n        /* \"#utility.yul\":2663:2992   */\n    tag_57:\n        /* \"#utility.yul\":2722:2728   */\n      0x00\n        /* \"#utility.yul\":2771:2773   */\n      0x20\n        /* \"#utility.yul\":2759:2768   */\n      dup3\n        /* \"#utility.yul\":2750:2757   */\n      dup5\n        /* \"#utility.yul\":2746:2769   */\n      sub\n        /* \"#utility.yul\":2742:2774   */\n      slt\n        /* \"#utility.yul\":2739:2858   */\n      iszero\n      tag_196\n      jumpi\n        /* \"#utility.yul\":2777:2856   */\n      tag_197\n      tag_137\n      jump\t// in\n    tag_197:\n        /* \"#utility.yul\":2739:2858   */\n    tag_196:\n        /* \"#utility.yul\":2897:2898   */\n      0x00\n        /* \"#utility.yul\":2922:2975   */\n      tag_198\n        /* \"#utility.yul\":2967:2974   */\n      dup5\n        /* \"#utility.yul\":2958:2964   */\n      dup3\n        /* \"#utility.yul\":2947:2956   */\n      dup6\n        /* \"#utility.yul\":2943:2965   */\n      add\n        /* \"#utility.yul\":2922:2975   */\n      tag_147\n      jump\t// in\n    tag_198:\n        /* \"#utility.yul\":2912:2975   */\n      swap2\n      pop\n        /* \"#utility.yul\":2868:2985   */\n      pop\n        /* \"#utility.yul\":2663:2992   */\n      swap3\n      swap2\n      pop\n      pop\n      jump\t// out\n        /* \"#utility.yul\":2998:3330   */\n    tag_65:\n        /* \"#utility.yul\":3119:3123   */\n      0x00\n        /* \"#utility.yul\":3157:3159   */\n      0x40\n        /* \"#utility.yul\":3146:3155   */\n      dup3\n        /* \"#utility.yul\":3142:3160   */\n      add\n        /* \"#utility.yul\":3134:3160   */\n      swap1\n      pop\n        /* \"#utility.yul\":3170:3241   */\n      tag_200\n        /* \"#utility.yul\":3238:3239   */\n      0x00\n        /* \"#utility.yul\":3227:3236   */\n      dup4\n        /* \"#utility.yul\":3223:3240   */\n      add\n        /* \"#utility.yul\":3214:3220   */\n      dup6\n        /* \"#utility.yul\":3170:3241   */\n      tag_143\n      jump\t// in\n    tag_200:\n        /* \"#utility.yul\":3251:3323   */\n      tag_201\n        /* \"#utility.yul\":3319:3321   */\n      0x20\n        /* \"#utility.yul\":3308:3317   */\n      dup4\n        /* \"#utility.yul\":3304:3322   */\n      add\n        /* \"#utility.yul\":3295:3301   */\n      dup5\n        /* \"#utility.yul\":3251:3323   */\n      tag_135\n      jump\t// in\n    tag_201:\n        /* \"#utility.yul\":2998:3330   */\n      swap4\n      swap3\n      pop\n      pop\n      pop\n      jump\t// out\n        /* \"#utility.yul\":3336:3516   */\n    tag_76:\n        /* \"#utility.yul\":3384:3461   */\n      0x4e487b7100000000000000000000000000000000000000000000000000000000\n        /* \"#utility.yul\":3381:3382   */\n      0x00\n        /* \"#utility.yul\":3374:3462   */\n      mstore\n        /* \"#utility.yul\":3481:3485   */\n      0x32\n        /* \"#utility.yul\":3478:3479   */\n      0x04\n        /* \"#utility.yul\":3471:3486   */\n      mstore\n        /* \"#utility.yul\":3505:3509   */\n      0x24\n        /* \"#utility.yul\":3502:3503   */\n      0x00\n        /* \"#utility.yul\":3495:3510   */\n      revert\n        /* \"#utility.yul\":3522:3691   */\n    tag_148:\n        /* \"#utility.yul\":3606:3617   */\n      0x00\n        /* \"#utility.yul\":3640:3646   */\n      dup3\n        /* \"#utility.yul\":3635:3638   */\n      dup3\n        /* \"#utility.yul\":3628:3647   */\n      mstore\n        /* \"#utility.yul\":3680:3684   */\n      0x20\n        /* \"#utility.yul\":3675:3678   */\n      dup3\n        /* \"#utility.yul\":3671:3685   */\n      add\n        /* \"#utility.yul\":3656:3685   */\n      swap1\n      pop\n        /* \"#utility.yul\":3522:3691   */\n      swap3\n      swap2\n      pop\n      pop\n      jump\t// out\n        /* \"#utility.yul\":3697:3868   */\n    tag_149:\n        /* \"#utility.yul\":3837:3860   */\n      0x696e76616c69642077697468647261772074696d650000000000000000000000\n        /* \"#utility.yul\":3833:3834   */\n      0x00\n        /* \"#utility.yul\":3825:3831   */\n      dup3\n        /* \"#utility.yul\":3821:3835   */\n      add\n        /* \"#utility.yul\":3814:3861   */\n      mstore\n        /* \"#utility.yul\":3697:3868   */\n      pop\n      jump\t// out\n        /* \"#utility.yul\":3874:4240   */\n    tag_150:\n        /* \"#utility.yul\":4016:4019   */\n      0x00\n        /* \"#utility.yul\":4037:4104   */\n      tag_206\n        /* \"#utility.yul\":4101:4103   */\n      0x15\n        /* \"#utility.yul\":4096:4099   */\n      dup4\n        /* \"#utility.yul\":4037:4104   */\n      tag_148\n      jump\t// in\n    tag_206:\n        /* \"#utility.yul\":4030:4104   */\n      swap2\n      pop\n        /* \"#utility.yul\":4113:4206   */\n      tag_207\n        /* \"#utility.yul\":4202:4205   */\n      dup3\n        /* \"#utility.yul\":4113:4206   */\n      tag_149\n      jump\t// in\n    tag_207:\n        /* \"#utility.yul\":4231:4233   */\n      0x20\n        /* \"#utility.yul\":4226:4229   */\n      dup3\n        /* \"#utility.yul\":4222:4234   */\n      add\n        /* \"#utility.yul\":4215:4234   */\n      swap1\n      pop\n        /* \"#utility.yul\":3874:4240   */\n      swap2\n      swap1\n      pop\n      jump\t// out\n        /* \"#utility.yul\":4246:4665   */\n    tag_82:\n        /* \"#utility.yul\":4412:4416   */\n      0x00\n        /* \"#utility.yul\":4450:4452   */\n      0x20\n        /* \"#utility.yul\":4439:4448   */\n      dup3\n        /* \"#utility.yul\":4435:4453   */\n      add\n        /* \"#utility.yul\":4427:4453   */\n      swap1\n      pop\n        /* \"#utility.yul\":4499:4508   */\n      dup2\n        /* \"#utility.yul\":4493:4497   */\n      dup2\n        /* \"#utility.yul\":4489:4509   */\n      sub\n        /* \"#utility.yul\":4485:4486   */\n      0x00\n        /* \"#utility.yul\":4474:4483   */\n      dup4\n        /* \"#utility.yul\":4470:4487   */\n      add\n        /* \"#utility.yul\":4463:4510   */\n      mstore\n        /* \"#utility.yul\":4527:4658   */\n      tag_209\n        /* \"#utility.yul\":4653:4657   */\n      dup2\n        /* \"#utility.yul\":4527:4658   */\n      tag_150\n      jump\t// in\n    tag_209:\n        /* \"#utility.yul\":4519:4658   */\n      swap1\n      pop\n        /* \"#utility.yul\":4246:4665   */\n      swap2\n      swap1\n      pop\n      jump\t// out\n        /* \"#utility.yul\":4671:4849   */\n    tag_151:\n        /* \"#utility.yul\":4811:4841   */\n      0x43726f776466756e64696e6720686173206265656e20636c6f73656400000000\n        /* \"#utility.yul\":4807:4808   */\n      0x00\n        /* \"#utility.yul\":4799:4805   */\n      dup3\n        /* \"#utility.yul\":4795:4809   */\n      add\n        /* \"#utility.yul\":4788:4842   */\n      mstore\n        /* \"#utility.yul\":4671:4849   */\n      pop\n      jump\t// out\n        /* \"#utility.yul\":4855:5221   */\n    tag_152:\n        /* \"#utility.yul\":4997:5000   */\n      0x00\n        /* \"#utility.yul\":5018:5085   */\n      tag_212\n        /* \"#utility.yul\":5082:5084   */\n      0x1c\n        /* \"#utility.yul\":5077:5080   */\n      dup4\n        /* \"#utility.yul\":5018:5085   */\n      tag_148\n      jump\t// in\n    tag_212:\n        /* \"#utility.yul\":5011:5085   */\n      swap2\n      pop\n        /* \"#utility.yul\":5094:5187   */\n      tag_213\n        /* \"#utility.yul\":5183:5186   */\n      dup3\n        /* \"#utility.yul\":5094:5187   */\n      tag_151\n      jump\t// in\n    tag_213:\n        /* \"#utility.yul\":5212:5214   */\n      0x20\n        /* \"#utility.yul\":5207:5210   */\n      dup3\n        /* \"#utility.yul\":5203:5215   */\n      add\n        /* \"#utility.yul\":5196:5215   */\n      swap1\n      pop\n        /* \"#utility.yul\":4855:5221   */\n      swap2\n      swap1\n      pop\n      jump\t// out\n        /* \"#utility.yul\":5227:5646   */\n    tag_85:\n        /* \"#utility.yul\":5393:5397   */\n      0x00\n        /* \"#utility.yul\":5431:5433   */\n      0x20\n        /* \"#utility.yul\":5420:5429   */\n      dup3\n        /* \"#utility.yul\":5416:5434   */\n      add\n        /* \"#utility.yul\":5408:5434   */\n      swap1\n      pop\n        /* \"#utility.yul\":5480:5489   */\n      dup2\n        /* \"#utility.yul\":5474:5478   */\n      dup2\n        /* \"#utility.yul\":5470:5490   */\n      sub\n        /* \"#utility.yul\":5466:5467   */\n      0x00\n        /* \"#utility.yul\":5455:5464   */\n      dup4\n        /* \"#utility.yul\":5451:5468   */\n      add\n        /* \"#utility.yul\":5444:5491   */\n      mstore\n        /* \"#utility.yul\":5508:5639   */\n      tag_215\n        /* \"#utility.yul\":5634:5638   */\n      dup2\n        /* \"#utility.yul\":5508:5639   */\n      tag_152\n      jump\t// in\n    tag_215:\n        /* \"#utility.yul\":5500:5639   */\n      swap1\n      pop\n        /* \"#utility.yul\":5227:5646   */\n      swap2\n      swap1\n      pop\n      jump\t// out\n        /* \"#utility.yul\":5652:5831   */\n    tag_153:\n        /* \"#utility.yul\":5792:5823   */\n      0x66756e64696e67476f616c20686173206265656e2066696e6973686564000000\n        /* \"#utility.yul\":5788:5789   */\n      0x00\n        /* \"#utility.yul\":5780:5786   */\n      dup3\n        /* \"#utility.yul\":5776:5790   */\n      add\n        /* \"#utility.yul\":5769:5824   */\n      mstore\n        /* \"#utility.yul\":5652:5831   */\n      pop\n      jump\t// out\n        /* \"#utility.yul\":5837:6203   */\n    tag_154:\n        /* \"#utility.yul\":5979:5982   */\n      0x00\n        /* \"#utility.yul\":6000:6067   */\n      tag_218\n        /* \"#utility.yul\":6064:6066   */\n      0x1d\n        /* \"#utility.yul\":6059:6062   */\n      dup4\n        /* \"#utility.yul\":6000:6067   */\n      tag_148\n      jump\t// in\n    tag_218:\n        /* \"#utility.yul\":5993:6067   */\n      swap2\n      pop\n        /* \"#utility.yul\":6076:6169   */\n      tag_219\n        /* \"#utility.yul\":6165:6168   */\n      dup3\n        /* \"#utility.yul\":6076:6169   */\n      tag_153\n      jump\t// in\n    tag_219:\n        /* \"#utility.yul\":6194:6196   */\n      0x20\n        /* \"#utility.yul\":6189:6192   */\n      dup3\n        /* \"#utility.yul\":6185:6197   */\n      add\n        /* \"#utility.yul\":6178:6197   */\n      swap1\n      pop\n        /* \"#utility.yul\":5837:6203   */\n      swap2\n      swap1\n      pop\n      jump\t// out\n        /* \"#utility.yul\":6209:6628   */\n    tag_89:\n        /* \"#utility.yul\":6375:6379   */\n      0x00\n        /* \"#utility.yul\":6413:6415   */\n      0x20\n        /* \"#utility.yul\":6402:6411   */\n      dup3\n        /* \"#utility.yul\":6398:6416   */\n      add\n        /* \"#utility.yul\":6390:6416   */\n      swap1\n      pop\n        /* \"#utility.yul\":6462:6471   */\n      dup2\n        /* \"#utility.yul\":6456:6460   */\n      dup2\n        /* \"#utility.yul\":6452:6472   */\n      sub\n        /* \"#utility.yul\":6448:6449   */\n      0x00\n        /* \"#utility.yul\":6437:6446   */\n      dup4\n        /* \"#utility.yul\":6433:6450   */\n      add\n        /* \"#utility.yul\":6426:6473   */\n      mstore\n        /* \"#utility.yul\":6490:6621   */\n      tag_221\n        /* \"#utility.yul\":6616:6620   */\n      dup2\n        /* \"#utility.yul\":6490:6621   */\n      tag_154\n      jump\t// in\n    tag_221:\n        /* \"#utility.yul\":6482:6621   */\n      swap1\n      pop\n        /* \"#utility.yul\":6209:6628   */\n      swap2\n      swap1\n      pop\n      jump\t// out\n        /* \"#utility.yul\":6634:6814   */\n    tag_155:\n        /* \"#utility.yul\":6682:6759   */\n      0x4e487b7100000000000000000000000000000000000000000000000000000000\n        /* \"#utility.yul\":6679:6680   */\n      0x00\n        /* \"#utility.yul\":6672:6760   */\n      mstore\n        /* \"#utility.yul\":6779:6783   */\n      0x11\n        /* \"#utility.yul\":6776:6777   */\n      0x04\n        /* \"#utility.yul\":6769:6784   */\n      mstore\n        /* \"#utility.yul\":6803:6807   */\n      0x24\n        /* \"#utility.yul\":6800:6801   */\n      0x00\n        /* \"#utility.yul\":6793:6808   */\n      revert\n        /* \"#utility.yul\":6820:7014   */\n    tag_96:\n        /* \"#utility.yul\":6860:6864   */\n      0x00\n        /* \"#utility.yul\":6880:6900   */\n      tag_224\n        /* \"#utility.yul\":6898:6899   */\n      dup3\n        /* \"#utility.yul\":6880:6900   */\n      tag_134\n      jump\t// in\n    tag_224:\n        /* \"#utility.yul\":6875:6900   */\n      swap2\n      pop\n        /* \"#utility.yul\":6914:6934   */\n      tag_225\n        /* \"#utility.yul\":6932:6933   */\n      dup4\n        /* \"#utility.yul\":6914:6934   */\n      tag_134\n      jump\t// in\n    tag_225:\n        /* \"#utility.yul\":6909:6934   */\n      swap3\n      pop\n        /* \"#utility.yul\":6958:6959   */\n      dup3\n        /* \"#utility.yul\":6955:6956   */\n      dup3\n        /* \"#utility.yul\":6951:6960   */\n      sub\n        /* \"#utility.yul\":6943:6960   */\n      swap1\n      pop\n        /* \"#utility.yul\":6982:6983   */\n      dup2\n        /* \"#utility.yul\":6976:6980   */\n      dup2\n        /* \"#utility.yul\":6973:6984   */\n      gt\n        /* \"#utility.yul\":6970:7007   */\n      iszero\n      tag_226\n      jumpi\n        /* \"#utility.yul\":6987:7005   */\n      tag_227\n      tag_155\n      jump\t// in\n    tag_227:\n        /* \"#utility.yul\":6970:7007   */\n    tag_226:\n        /* \"#utility.yul\":6820:7014   */\n      swap3\n      swap2\n      pop\n      pop\n      jump\t// out\n        /* \"#utility.yul\":7020:7185   */\n    tag_156:\n        /* \"#utility.yul\":7160:7177   */\n      0x696e76616c696420616464726573730000000000000000000000000000000000\n        /* \"#utility.yul\":7156:7157   */\n      0x00\n        /* \"#utility.yul\":7148:7154   */\n      dup3\n        /* \"#utility.yul\":7144:7158   */\n      add\n        /* \"#utility.yul\":7137:7178   */\n      mstore\n        /* \"#utility.yul\":7020:7185   */\n      pop\n      jump\t// out\n        /* \"#utility.yul\":7191:7557   */\n    tag_157:\n        /* \"#utility.yul\":7333:7336   */\n      0x00\n        /* \"#utility.yul\":7354:7421   */\n      tag_230\n        /* \"#utility.yul\":7418:7420   */\n      0x0f\n        /* \"#utility.yul\":7413:7416   */\n      dup4\n        /* \"#utility.yul\":7354:7421   */\n      tag_148\n      jump\t// in\n    tag_230:\n        /* \"#utility.yul\":7347:7421   */\n      swap2\n      pop\n        /* \"#utility.yul\":7430:7523   */\n      tag_231\n        /* \"#utility.yul\":7519:7522   */\n      dup3\n        /* \"#utility.yul\":7430:7523   */\n      tag_156\n      jump\t// in\n    tag_231:\n        /* \"#utility.yul\":7548:7550   */\n      0x20\n        /* \"#utility.yul\":7543:7546   */\n      dup3\n        /* \"#utility.yul\":7539:7551   */\n      add\n        /* \"#utility.yul\":7532:7551   */\n      swap1\n      pop\n        /* \"#utility.yul\":7191:7557   */\n      swap2\n      swap1\n      pop\n      jump\t// out\n        /* \"#utility.yul\":7563:7982   */\n    tag_107:\n        /* \"#utility.yul\":7729:7733   */\n      0x00\n        /* \"#utility.yul\":7767:7769   */\n      0x20\n        /* \"#utility.yul\":7756:7765   */\n      dup3\n        /* \"#utility.yul\":7752:7770   */\n      add\n        /* \"#utility.yul\":7744:7770   */\n      swap1\n      pop\n        /* \"#utility.yul\":7816:7825   */\n      dup2\n        /* \"#utility.yul\":7810:7814   */\n      dup2\n        /* \"#utility.yul\":7806:7826   */\n      sub\n        /* \"#utility.yul\":7802:7803   */\n      0x00\n        /* \"#utility.yul\":7791:7800   */\n      dup4\n        /* \"#utility.yul\":7787:7804   */\n      add\n        /* \"#utility.yul\":7780:7827   */\n      mstore\n        /* \"#utility.yul\":7844:7975   */\n      tag_233\n        /* \"#utility.yul\":7970:7974   */\n      dup2\n        /* \"#utility.yul\":7844:7975   */\n      tag_157\n      jump\t// in\n    tag_233:\n        /* \"#utility.yul\":7836:7975   */\n      swap1\n      pop\n        /* \"#utility.yul\":7563:7982   */\n      swap2\n      swap1\n      pop\n      jump\t// out\n        /* \"#utility.yul\":7988:8162   */\n    tag_158:\n        /* \"#utility.yul\":8128:8154   */\n      0x43726f776466756e64696e672069732066696e69736865640000000000000000\n        /* \"#utility.yul\":8124:8125   */\n      0x00\n        /* \"#utility.yul\":8116:8122   */\n      dup3\n        /* \"#utility.yul\":8112:8126   */\n      add\n        /* \"#utility.yul\":8105:8155   */\n      mstore\n        /* \"#utility.yul\":7988:8162   */\n      pop\n      jump\t// out\n        /* \"#utility.yul\":8168:8534   */\n    tag_159:\n        /* \"#utility.yul\":8310:8313   */\n      0x00\n        /* \"#utility.yul\":8331:8398   */\n      tag_236\n        /* \"#utility.yul\":8395:8397   */\n      0x18\n        /* \"#utility.yul\":8390:8393   */\n      dup4\n        /* \"#utility.yul\":8331:8398   */\n      tag_148\n      jump\t// in\n    tag_236:\n        /* \"#utility.yul\":8324:8398   */\n      swap2\n      pop\n        /* \"#utility.yul\":8407:8500   */\n      tag_237\n        /* \"#utility.yul\":8496:8499   */\n      dup3\n        /* \"#utility.yul\":8407:8500   */\n      tag_158\n      jump\t// in\n    tag_237:\n        /* \"#utility.yul\":8525:8527   */\n      0x20\n        /* \"#utility.yul\":8520:8523   */\n      dup3\n        /* \"#utility.yul\":8516:8528   */\n      add\n        /* \"#utility.yul\":8509:8528   */\n      swap1\n      pop\n        /* \"#utility.yul\":8168:8534   */\n      swap2\n      swap1\n      pop\n      jump\t// out\n        /* \"#utility.yul\":8540:8959   */\n    tag_119:\n        /* \"#utility.yul\":8706:8710   */\n      0x00\n        /* \"#utility.yul\":8744:8746   */\n      0x20\n        /* \"#utility.yul\":8733:8742   */\n      dup3\n        /* \"#utility.yul\":8729:8747   */\n      add\n        /* \"#utility.yul\":8721:8747   */\n      swap1\n      pop\n        /* \"#utility.yul\":8793:8802   */\n      dup2\n        /* \"#utility.yul\":8787:8791   */\n      dup2\n        /* \"#utility.yul\":8783:8803   */\n      sub\n        /* \"#utility.yul\":8779:8780   */\n      0x00\n        /* \"#utility.yul\":8768:8777   */\n      dup4\n        /* \"#utility.yul\":8764:8781   */\n      add\n        /* \"#utility.yul\":8757:8804   */\n      mstore\n        /* \"#utility.yul\":8821:8952   */\n      tag_239\n        /* \"#utility.yul\":8947:8951   */\n      dup2\n        /* \"#utility.yul\":8821:8952   */\n      tag_159\n      jump\t// in\n    tag_239:\n        /* \"#utility.yul\":8813:8952   */\n      swap1\n      pop\n        /* \"#utility.yul\":8540:8959   */\n      swap2\n      swap1\n      pop\n      jump\t// out\n        /* \"#utility.yul\":8965:9156   */\n    tag_121:\n        /* \"#utility.yul\":9005:9008   */\n      0x00\n        /* \"#utility.yul\":9024:9044   */\n      tag_241\n        /* \"#utility.yul\":9042:9043   */\n      dup3\n        /* \"#utility.yul\":9024:9044   */\n      tag_134\n      jump\t// in\n    tag_241:\n        /* \"#utility.yul\":9019:9044   */\n      swap2\n      pop\n        /* \"#utility.yul\":9058:9078   */\n      tag_242\n        /* \"#utility.yul\":9076:9077   */\n      dup4\n        /* \"#utility.yul\":9058:9078   */\n      tag_134\n      jump\t// in\n    tag_242:\n        /* \"#utility.yul\":9053:9078   */\n      swap3\n      pop\n        /* \"#utility.yul\":9101:9102   */\n      dup3\n        /* \"#utility.yul\":9098:9099   */\n      dup3\n        /* \"#utility.yul\":9094:9103   */\n      add\n        /* \"#utility.yul\":9087:9103   */\n      swap1\n      pop\n        /* \"#utility.yul\":9122:9125   */\n      dup1\n        /* \"#utility.yul\":9119:9120   */\n      dup3\n        /* \"#utility.yul\":9116:9126   */\n      gt\n        /* \"#utility.yul\":9113:9149   */\n      iszero\n      tag_243\n      jumpi\n        /* \"#utility.yul\":9129:9147   */\n      tag_244\n      tag_155\n      jump\t// in\n    tag_244:\n        /* \"#utility.yul\":9113:9149   */\n    tag_243:\n        /* \"#utility.yul\":8965:9156   */\n      swap3\n      swap2\n      pop\n      pop\n      jump\t// out\n\n    auxdata: 0xa2646970667358221220e09d52badf9c6f3faf7c01954504110e4f205d7913657b3fd437dfe5a979ddf364736f6c63430008160033\n}\n",
				"bytecode": {
					"linkReferences": {},
					"object": "60c0604052600160025f6101000a81548160ff0219169083151502179055506001426200002d9190620000dc565b6003553480156200003c575f80fd5b506040516200105d3803806200105d8339818101604052810190620000629190620001aa565b8173ffffffffffffffffffffffffffffffffffffffff1660808173ffffffffffffffffffffffffffffffffffffffff16815250508060a081815250505050620001ef565b5f819050919050565b7f4e487b71000000000000000000000000000000000000000000000000000000005f52601160045260245ffd5b5f620000e882620000a6565b9150620000f583620000a6565b925082820190508082111562000110576200010f620000af565b5b92915050565b5f80fd5b5f73ffffffffffffffffffffffffffffffffffffffff82169050919050565b5f62000145826200011a565b9050919050565b620001578162000139565b811462000162575f80fd5b50565b5f8151905062000175816200014c565b92915050565b6200018681620000a6565b811462000191575f80fd5b50565b5f81519050620001a4816200017b565b92915050565b5f8060408385031215620001c357620001c262000116565b5b5f620001d28582860162000165565b9250506020620001e58582860162000194565b9150509250929050565b60805160a051610e29620002345f395f818161042c01528181610654015281816106aa01526108f201525f8181610375015281816105b501526106dd0152610e295ff3fe6080604052600436106100a6575f3560e01c806350520b1f1161006357806350520b1f146101b85780637a3a0e84146101c257806394de8484146101ec578063b3de648b14610216578063dc0d3dff14610252578063e3d947351461028f576100a6565b806304a79c97146100aa5780630c051585146100d457806329dcb0cf1461011057806338af3eed1461013a5780633ccfd60b1461016457806343d726d61461018e575b5f80fd5b3480156100b5575f80fd5b506100be6102b9565b6040516100cb91906109a2565b60405180910390f35b3480156100df575f80fd5b506100fa60048036038101906100f59190610a19565b6102be565b60405161010791906109a2565b60405180910390f35b34801561011b575f80fd5b5061012461036d565b60405161013191906109a2565b60405180910390f35b348015610145575f80fd5b5061014e610373565b60405161015b9190610a53565b60405180910390f35b34801561016f575f80fd5b50610178610397565b6040516101859190610a86565b60405180910390f35b348015610199575f80fd5b506101a2610564565b6040516101af9190610a86565b60405180910390f35b6101c0610749565b005b3480156101cd575f80fd5b506101d66108f0565b6040516101e391906109a2565b60405180910390f35b3480156101f7575f80fd5b50610200610914565b60405161020d9190610a86565b60405180910390f35b348015610221575f80fd5b5061023c60048036038101906102379190610ac9565b610926565b60405161024991906109a2565b60405180910390f35b34801561025d575f80fd5b5061027860048036038101906102739190610ac9565b610930565b604051610286929190610af4565b60405180910390f35b34801561029a575f80fd5b506102a361097e565b6040516102b091906109a2565b60405180910390f35b5f5481565b5f805f5b60018054905081101561035d57600181815481106102e3576102e2610b1b565b5b905f5260205f2090600202019150815f015f9054906101000a900473ffffffffffffffffffffffffffffffffffffffff1673ffffffffffffffffffffffffffffffffffffffff168473ffffffffffffffffffffffffffffffffffffffff1603610350578092505050610368565b80806001019150506102c2565b506001805490509150505b919050565b60035481565b7f000000000000000000000000000000000000000000000000000000000000000081565b5f60035442116103dc576040517f08c379a00000000000000000000000000000000000000000000000000000000081526004016103d390610ba2565b60405180910390fd5b60025f9054906101000a900460ff1661042a576040517f08c379a000000000000000000000000000000000000000000000000000000000815260040161042190610c0a565b60405180910390fd5b7f00000000000000000000000000000000000000000000000000000000000000005f5410801561045a57505f8054115b610499576040517f08c379a000000000000000000000000000000000000000000000000000000000815260040161049090610c72565b60405180910390fd5b5f6104a3336102be565b905060018054905081036104ba575f915050610561565b600181815481106104ce576104cd610b1b565b5b905f5260205f209060020201600101545f808282546104ed9190610cbd565b925050819055503373ffffffffffffffffffffffffffffffffffffffff166108fc6001838154811061052257610521610b1b565b5b905f5260205f2090600202016001015490811502906040515f60405180830381858888f1935050505015801561055a573d5f803e3d5ffd5b5060019150505b90565b5f60025f9054906101000a900460ff166105b3576040517f08c379a00000000000000000000000000000000000000000000000000000000081526004016105aa90610c0a565b60405180910390fd5b7f000000000000000000000000000000000000000000000000000000000000000073ffffffffffffffffffffffffffffffffffffffff163373ffffffffffffffffffffffffffffffffffffffff1614610641576040517f08c379a000000000000000000000000000000000000000000000000000000000815260040161063890610d3a565b60405180910390fd5b6003544211610652575f9050610746565b7f00000000000000000000000000000000000000000000000000000000000000005f5410801561068257505f8054115b1561068f575f9050610746565b5f60025f6101000a81548160ff0219169083151502179055507f00000000000000000000000000000000000000000000000000000000000000005f5410610741575f805490505f80819055507f000000000000000000000000000000000000000000000000000000000000000073ffffffffffffffffffffffffffffffffffffffff166108fc8290811502906040515f60405180830381858888f1935050505015801561073e573d5f803e3d5ffd5b50505b600190505b90565b60025f9054906101000a900460ff16610797576040517f08c379a000000000000000000000000000000000000000000000000000000000815260040161078e90610c0a565b60405180910390fd5b6003544211156107dc576040517f08c379a00000000000000000000000000000000000000000000000000000000081526004016107d390610da2565b60405180910390fd5b345f808282546107ec9190610dc0565b925050819055505f6107fd336102be565b905060018054905081036108b357600160405180604001604052803373ffffffffffffffffffffffffffffffffffffffff16815260200134815250908060018154018082558091505060019003905f5260205f2090600202015f909190919091505f820151815f015f6101000a81548173ffffffffffffffffffffffffffffffffffffffff021916908373ffffffffffffffffffffffffffffffffffffffff1602179055506020820151816001015550506108ed565b34600182815481106108c8576108c7610b1b565b5b905f5260205f2090600202016001015f8282546108e59190610dc0565b925050819055505b50565b7f000000000000000000000000000000000000000000000000000000000000000081565b60025f9054906101000a900460ff1681565b5f81549050919050565b6001818154811061093f575f80fd5b905f5260205f2090600202015f91509050805f015f9054906101000a900473ffffffffffffffffffffffffffffffffffffffff16908060010154905082565b5f600180549050905090565b5f819050919050565b61099c8161098a565b82525050565b5f6020820190506109b55f830184610993565b92915050565b5f80fd5b5f73ffffffffffffffffffffffffffffffffffffffff82169050919050565b5f6109e8826109bf565b9050919050565b6109f8816109de565b8114610a02575f80fd5b50565b5f81359050610a13816109ef565b92915050565b5f60208284031215610a2e57610a2d6109bb565b5b5f610a3b84828501610a05565b91505092915050565b610a4d816109de565b82525050565b5f602082019050610a665f830184610a44565b92915050565b5f8115159050919050565b610a8081610a6c565b82525050565b5f602082019050610a995f830184610a77565b92915050565b610aa88161098a565b8114610ab2575f80fd5b50565b5f81359050610ac381610a9f565b92915050565b5f60208284031215610ade57610add6109bb565b5b5f610aeb84828501610ab5565b91505092915050565b5f604082019050610b075f830185610a44565b610b146020830184610993565b9392505050565b7f4e487b71000000000000000000000000000000000000000000000000000000005f52603260045260245ffd5b5f82825260208201905092915050565b7f696e76616c69642077697468647261772074696d6500000000000000000000005f82015250565b5f610b8c601583610b48565b9150610b9782610b58565b602082019050919050565b5f6020820190508181035f830152610bb981610b80565b9050919050565b7f43726f776466756e64696e6720686173206265656e20636c6f736564000000005f82015250565b5f610bf4601c83610b48565b9150610bff82610bc0565b602082019050919050565b5f6020820190508181035f830152610c2181610be8565b9050919050565b7f66756e64696e67476f616c20686173206265656e2066696e69736865640000005f82015250565b5f610c5c601d83610b48565b9150610c6782610c28565b602082019050919050565b5f6020820190508181035f830152610c8981610c50565b9050919050565b7f4e487b71000000000000000000000000000000000000000000000000000000005f52601160045260245ffd5b5f610cc78261098a565b9150610cd28361098a565b9250828203905081811115610cea57610ce9610c90565b5b92915050565b7f696e76616c6964206164647265737300000000000000000000000000000000005f82015250565b5f610d24600f83610b48565b9150610d2f82610cf0565b602082019050919050565b5f6020820190508181035f830152610d5181610d18565b9050919050565b7f43726f776466756e64696e672069732066696e697368656400000000000000005f82015250565b5f610d8c601883610b48565b9150610d9782610d58565b602082019050919050565b5f6020820190508181035f830152610db981610d80565b9050919050565b5f610dca8261098a565b9150610dd58361098a565b9250828201905080821115610ded57610dec610c90565b5b9291505056fea2646970667358221220e09d52badf9c6f3faf7c01954504110e4f205d7913657b3fd437dfe5a979ddf364736f6c63430008160033",
					"opcodes": "PUSH1 0xC0 PUSH1 0x40 MSTORE PUSH1 0x1 PUSH1 0x2 PUSH0 PUSH2 0x100 EXP DUP2 SLOAD DUP2 PUSH1 0xFF MUL NOT AND SWAP1 DUP4 ISZERO ISZERO MUL OR SWAP1 SSTORE POP PUSH1 0x1 TIMESTAMP PUSH3 0x2D SWAP2 SWAP1 PUSH3 0xDC JUMP JUMPDEST PUSH1 0x3 SSTORE CALLVALUE DUP1 ISZERO PUSH3 0x3C JUMPI PUSH0 DUP1 REVERT JUMPDEST POP PUSH1 0x40 MLOAD PUSH3 0x105D CODESIZE SUB DUP1 PUSH3 0x105D DUP4 CODECOPY DUP2 DUP2 ADD PUSH1 0x40 MSTORE DUP2 ADD SWAP1 PUSH3 0x62 SWAP2 SWAP1 PUSH3 0x1AA JUMP JUMPDEST DUP2 PUSH20 0xFFFFFFFFFFFFFFFFFFFFFFFFFFFFFFFFFFFFFFFF AND PUSH1 0x80 DUP2 PUSH20 0xFFFFFFFFFFFFFFFFFFFFFFFFFFFFFFFFFFFFFFFF AND DUP2 MSTORE POP POP DUP1 PUSH1 0xA0 DUP2 DUP2 MSTORE POP POP POP POP PUSH3 0x1EF JUMP JUMPDEST PUSH0 DUP2 SWAP1 POP SWAP2 SWAP1 POP JUMP JUMPDEST PUSH32 0x4E487B7100000000000000000000000000000000000000000000000000000000 PUSH0 MSTORE PUSH1 0x11 PUSH1 0x4 MSTORE PUSH1 0x24 PUSH0 REVERT JUMPDEST PUSH0 PUSH3 0xE8 DUP3 PUSH3 0xA6 JUMP JUMPDEST SWAP2 POP PUSH3 0xF5 DUP4 PUSH3 0xA6 JUMP JUMPDEST SWAP3 POP DUP3 DUP3 ADD SWAP1 POP DUP1 DUP3 GT ISZERO PUSH3 0x110 JUMPI PUSH3 0x10F PUSH3 0xAF JUMP JUMPDEST JUMPDEST SWAP3 SWAP2 POP POP JUMP JUMPDEST PUSH0 DUP1 REVERT JUMPDEST PUSH0 PUSH20 0xFFFFFFFFFFFFFFFFFFFFFFFFFFFFFFFFFFFFFFFF DUP3 AND SWAP1 POP SWAP2 SWAP1 POP JUMP JUMPDEST PUSH0 PUSH3 0x145 DUP3 PUSH3 0x11A JUMP JUMPDEST SWAP1 POP SWAP2 SWAP1 POP JUMP JUMPDEST PUSH3 0x157 DUP2 PUSH3 0x139 JUMP JUMPDEST DUP2 EQ PUSH3 0x162 JUMPI PUSH0 DUP1 REVERT JUMPDEST POP JUMP JUMPDEST PUSH0 DUP2 MLOAD SWAP1 POP PUSH3 0x175 DUP2 PUSH3 0x14C JUMP JUMPDEST SWAP3 SWAP2 POP POP JUMP JUMPDEST PUSH3 0x186 DUP2 PUSH3 0xA6 JUMP JUMPDEST DUP2 EQ PUSH3 0x191 JUMPI PUSH0 DUP1 REVERT JUMPDEST POP JUMP JUMPDEST PUSH0 DUP2 MLOAD SWAP1 POP PUSH3 0x1A4 DUP2 PUSH3 0x17B JUMP JUMPDEST SWAP3 SWAP2 POP POP JUMP JUMPDEST PUSH0 DUP1 PUSH1 0x40 DUP4 DUP6 SUB SLT ISZERO PUSH3 0x1C3 JUMPI PUSH3 0x1C2 PUSH3 0x116 JUMP JUMPDEST JUMPDEST PUSH0 PUSH3 0x1D2 DUP6 DUP3 DUP7 ADD PUSH3 0x165 JUMP JUMPDEST SWAP3 POP POP PUSH1 0x20 PUSH3 0x1E5 DUP6 DUP3 DUP7 ADD PUSH3 0x194 JUMP JUMPDEST SWAP2 POP POP SWAP3 POP SWAP3 SWAP1 POP JUMP JUMPDEST PUSH1 0x80 MLOAD PUSH1 0xA0 MLOAD PUSH2 0xE29 PUSH3 0x234 PUSH0 CODECOPY PUSH0 DUP2 DUP2 PUSH2 0x42C ADD MSTORE DUP2 DUP2 PUSH2 0x654 ADD MSTORE DUP2 DUP2 PUSH2 0x6AA ADD MSTORE PUSH2 0x8F2 ADD MSTORE PUSH0 DUP2 DUP2 PUSH2 0x375 ADD MSTORE DUP2 DUP2 PUSH2 0x5B5 ADD MSTORE PUSH2 0x6DD ADD MSTORE PUSH2 0xE29 PUSH0 RETURN INVALID PUSH1 0x80 PUSH1 0x40 MSTORE PUSH1 0x4 CALLDATASIZE LT PUSH2 0xA6 JUMPI PUSH0 CALLDATALOAD PUSH1 0xE0 SHR DUP1 PUSH4 0x50520B1F GT PUSH2 0x63 JUMPI DUP1 PUSH4 0x50520B1F EQ PUSH2 0x1B8 JUMPI DUP1 PUSH4 0x7A3A0E84 EQ PUSH2 0x1C2 JUMPI DUP1 PUSH4 0x94DE8484 EQ PUSH2 0x1EC JUMPI DUP1 PUSH4 0xB3DE648B EQ PUSH2 0x216 JUMPI DUP1 PUSH4 0xDC0D3DFF EQ PUSH2 0x252 JUMPI DUP1 PUSH4 0xE3D94735 EQ PUSH2 0x28F JUMPI PUSH2 0xA6 JUMP JUMPDEST DUP1 PUSH4 0x4A79C97 EQ PUSH2 0xAA JUMPI DUP1 PUSH4 0xC051585 EQ PUSH2 0xD4 JUMPI DUP1 PUSH4 0x29DCB0CF EQ PUSH2 0x110 JUMPI DUP1 PUSH4 0x38AF3EED EQ PUSH2 0x13A JUMPI DUP1 PUSH4 0x3CCFD60B EQ PUSH2 0x164 JUMPI DUP1 PUSH4 0x43D726D6 EQ PUSH2 0x18E JUMPI JUMPDEST PUSH0 DUP1 REVERT JUMPDEST CALLVALUE DUP1 ISZERO PUSH2 0xB5 JUMPI PUSH0 DUP1 REVERT JUMPDEST POP PUSH2 0xBE PUSH2 0x2B9 JUMP JUMPDEST PUSH1 0x40 MLOAD PUSH2 0xCB SWAP2 SWAP1 PUSH2 0x9A2 JUMP JUMPDEST PUSH1 0x40 MLOAD DUP1 SWAP2 SUB SWAP1 RETURN JUMPDEST CALLVALUE DUP1 ISZERO PUSH2 0xDF JUMPI PUSH0 DUP1 REVERT JUMPDEST POP PUSH2 0xFA PUSH1 0x4 DUP1 CALLDATASIZE SUB DUP2 ADD SWAP1 PUSH2 0xF5 SWAP2 SWAP1 PUSH2 0xA19 JUMP JUMPDEST PUSH2 0x2BE JUMP JUMPDEST PUSH1 0x40 MLOAD PUSH2 0x107 SWAP2 SWAP1 PUSH2 0x9A2 JUMP JUMPDEST PUSH1 0x40 MLOAD DUP1 SWAP2 SUB SWAP1 RETURN JUMPDEST CALLVALUE DUP1 ISZERO PUSH2 0x11B JUMPI PUSH0 DUP1 REVERT JUMPDEST POP PUSH2 0x124 PUSH2 0x36D JUMP JUMPDEST PUSH1 0x40 MLOAD PUSH2 0x131 SWAP2 SWAP1 PUSH2 0x9A2 JUMP JUMPDEST PUSH1 0x40 MLOAD DUP1 SWAP2 SUB SWAP1 RETURN JUMPDEST CALLVALUE DUP1 ISZERO PUSH2 0x145 JUMPI PUSH0 DUP1 REVERT JUMPDEST POP PUSH2 0x14E PUSH2 0x373 JUMP JUMPDEST PUSH1 0x40 MLOAD PUSH2 0x15B SWAP2 SWAP1 PUSH2 0xA53 JUMP JUMPDEST PUSH1 0x40 MLOAD DUP1 SWAP2 SUB SWAP1 RETURN JUMPDEST CALLVALUE DUP1 ISZERO PUSH2 0x16F JUMPI PUSH0 DUP1 REVERT JUMPDEST POP PUSH2 0x178 PUSH2 0x397 JUMP JUMPDEST PUSH1 0x40 MLOAD PUSH2 0x185 SWAP2 SWAP1 PUSH2 0xA86 JUMP JUMPDEST PUSH1 0x40 MLOAD DUP1 SWAP2 SUB SWAP1 RETURN JUMPDEST CALLVALUE DUP1 ISZERO PUSH2 0x199 JUMPI PUSH0 DUP1 REVERT JUMPDEST POP PUSH2 0x1A2 PUSH2 0x564 JUMP JUMPDEST PUSH1 0x40 MLOAD PUSH2 0x1AF SWAP2 SWAP1 PUSH2 0xA86 JUMP JUMPDEST PUSH1 0x40 MLOAD DUP1 SWAP2 SUB SWAP1 RETURN JUMPDEST PUSH2 0x1C0 PUSH2 0x749 JUMP JUMPDEST STOP JUMPDEST CALLVALUE DUP1 ISZERO PUSH2 0x1CD JUMPI PUSH0 DUP1 REVERT JUMPDEST POP PUSH2 0x1D6 PUSH2 0x8F0 JUMP JUMPDEST PUSH1 0x40 MLOAD PUSH2 0x1E3 SWAP2 SWAP1 PUSH2 0x9A2 JUMP JUMPDEST PUSH1 0x40 MLOAD DUP1 SWAP2 SUB SWAP1 RETURN JUMPDEST CALLVALUE DUP1 ISZERO PUSH2 0x1F7 JUMPI PUSH0 DUP1 REVERT JUMPDEST POP PUSH2 0x200 PUSH2 0x914 JUMP JUMPDEST PUSH1 0x40 MLOAD PUSH2 0x20D SWAP2 SWAP1 PUSH2 0xA86 JUMP JUMPDEST PUSH1 0x40 MLOAD DUP1 SWAP2 SUB SWAP1 RETURN JUMPDEST CALLVALUE DUP1 ISZERO PUSH2 0x221 JUMPI PUSH0 DUP1 REVERT JUMPDEST POP PUSH2 0x23C PUSH1 0x4 DUP1 CALLDATASIZE SUB DUP2 ADD SWAP1 PUSH2 0x237 SWAP2 SWAP1 PUSH2 0xAC9 JUMP JUMPDEST PUSH2 0x926 JUMP JUMPDEST PUSH1 0x40 MLOAD PUSH2 0x249 SWAP2 SWAP1 PUSH2 0x9A2 JUMP JUMPDEST PUSH1 0x40 MLOAD DUP1 SWAP2 SUB SWAP1 RETURN JUMPDEST CALLVALUE DUP1 ISZERO PUSH2 0x25D JUMPI PUSH0 DUP1 REVERT JUMPDEST POP PUSH2 0x278 PUSH1 0x4 DUP1 CALLDATASIZE SUB DUP2 ADD SWAP1 PUSH2 0x273 SWAP2 SWAP1 PUSH2 0xAC9 JUMP JUMPDEST PUSH2 0x930 JUMP JUMPDEST PUSH1 0x40 MLOAD PUSH2 0x286 SWAP3 SWAP2 SWAP1 PUSH2 0xAF4 JUMP JUMPDEST PUSH1 0x40 MLOAD DUP1 SWAP2 SUB SWAP1 RETURN JUMPDEST CALLVALUE DUP1 ISZERO PUSH2 0x29A JUMPI PUSH0 DUP1 REVERT JUMPDEST POP PUSH2 0x2A3 PUSH2 0x97E JUMP JUMPDEST PUSH1 0x40 MLOAD PUSH2 0x2B0 SWAP2 SWAP1 PUSH2 0x9A2 JUMP JUMPDEST PUSH1 0x40 MLOAD DUP1 SWAP2 SUB SWAP1 RETURN JUMPDEST PUSH0 SLOAD DUP2 JUMP JUMPDEST PUSH0 DUP1 PUSH0 JUMPDEST PUSH1 0x1 DUP1 SLOAD SWAP1 POP DUP2 LT ISZERO PUSH2 0x35D JUMPI PUSH1 0x1 DUP2 DUP2 SLOAD DUP2 LT PUSH2 0x2E3 JUMPI PUSH2 0x2E2 PUSH2 0xB1B JUMP JUMPDEST JUMPDEST SWAP1 PUSH0 MSTORE PUSH1 0x20 PUSH0 KECCAK256 SWAP1 PUSH1 0x2 MUL ADD SWAP2 POP DUP2 PUSH0 ADD PUSH0 SWAP1 SLOAD SWAP1 PUSH2 0x100 EXP SWAP1 DIV PUSH20 0xFFFFFFFFFFFFFFFFFFFFFFFFFFFFFFFFFFFFFFFF AND PUSH20 0xFFFFFFFFFFFFFFFFFFFFFFFFFFFFFFFFFFFFFFFF AND DUP5 PUSH20 0xFFFFFFFFFFFFFFFFFFFFFFFFFFFFFFFFFFFFFFFF AND SUB PUSH2 0x350 JUMPI DUP1 SWAP3 POP POP POP PUSH2 0x368 JUMP JUMPDEST DUP1 DUP1 PUSH1 0x1 ADD SWAP2 POP POP PUSH2 0x2C2 JUMP JUMPDEST POP PUSH1 0x1 DUP1 SLOAD SWAP1 POP SWAP2 POP POP JUMPDEST SWAP2 SWAP1 POP JUMP JUMPDEST PUSH1 0x3 SLOAD DUP2 JUMP JUMPDEST PUSH32 0x0 DUP2 JUMP JUMPDEST PUSH0 PUSH1 0x3 SLOAD TIMESTAMP GT PUSH2 0x3DC JUMPI PUSH1 0x40 MLOAD PUSH32 0x8C379A000000000000000000000000000000000000000000000000000000000 DUP2 MSTORE PUSH1 0x4 ADD PUSH2 0x3D3 SWAP1 PUSH2 0xBA2 JUMP JUMPDEST PUSH1 0x40 MLOAD DUP1 SWAP2 SUB SWAP1 REVERT JUMPDEST PUSH1 0x2 PUSH0 SWAP1 SLOAD SWAP1 PUSH2 0x100 EXP SWAP1 DIV PUSH1 0xFF AND PUSH2 0x42A JUMPI PUSH1 0x40 MLOAD PUSH32 0x8C379A000000000000000000000000000000000000000000000000000000000 DUP2 MSTORE PUSH1 0x4 ADD PUSH2 0x421 SWAP1 PUSH2 0xC0A JUMP JUMPDEST PUSH1 0x40 MLOAD DUP1 SWAP2 SUB SWAP1 REVERT JUMPDEST PUSH32 0x0 PUSH0 SLOAD LT DUP1 ISZERO PUSH2 0x45A JUMPI POP PUSH0 DUP1 SLOAD GT JUMPDEST PUSH2 0x499 JUMPI PUSH1 0x40 MLOAD PUSH32 0x8C379A000000000000000000000000000000000000000000000000000000000 DUP2 MSTORE PUSH1 0x4 ADD PUSH2 0x490 SWAP1 PUSH2 0xC72 JUMP JUMPDEST PUSH1 0x40 MLOAD DUP1 SWAP2 SUB SWAP1 REVERT JUMPDEST PUSH0 PUSH2 0x4A3 CALLER PUSH2 0x2BE JUMP JUMPDEST SWAP1 POP PUSH1 0x1 DUP1 SLOAD SWAP1 POP DUP2 SUB PUSH2 0x4BA JUMPI PUSH0 SWAP2 POP POP PUSH2 0x561 JUMP JUMPDEST PUSH1 0x1 DUP2 DUP2 SLOAD DUP2 LT PUSH2 0x4CE JUMPI PUSH2 0x4CD PUSH2 0xB1B JUMP JUMPDEST JUMPDEST SWAP1 PUSH0 MSTORE PUSH1 0x20 PUSH0 KECCAK256 SWAP1 PUSH1 0x2 MUL ADD PUSH1 0x1 ADD SLOAD PUSH0 DUP1 DUP3 DUP3 SLOAD PUSH2 0x4ED SWAP2 SWAP1 PUSH2 0xCBD JUMP JUMPDEST SWAP3 POP POP DUP2 SWAP1 SSTORE POP CALLER PUSH20 0xFFFFFFFFFFFFFFFFFFFFFFFFFFFFFFFFFFFFFFFF AND PUSH2 0x8FC PUSH1 0x1 DUP4 DUP2 SLOAD DUP2 LT PUSH2 0x522 JUMPI PUSH2 0x521 PUSH2 0xB1B JUMP JUMPDEST JUMPDEST SWAP1 PUSH0 MSTORE PUSH1 0x20 PUSH0 KECCAK256 SWAP1 PUSH1 0x2 MUL ADD PUSH1 0x1 ADD SLOAD SWAP1 DUP2 ISZERO MUL SWAP1 PUSH1 0x40 MLOAD PUSH0 PUSH1 0x40 MLOAD DUP1 DUP4 SUB DUP2 DUP6 DUP9 DUP9 CALL SWAP4 POP POP POP POP ISZERO DUP1 ISZERO PUSH2 0x55A JUMPI RETURNDATASIZE PUSH0 DUP1 RETURNDATACOPY RETURNDATASIZE PUSH0 REVERT JUMPDEST POP PUSH1 0x1 SWAP2 POP POP JUMPDEST SWAP1 JUMP JUMPDEST PUSH0 PUSH1 0x2 PUSH0 SWAP1 SLOAD SWAP1 PUSH2 0x100 EXP SWAP1 DIV PUSH1 0xFF AND PUSH2 0x5B3 JUMPI PUSH1 0x40 MLOAD PUSH32 0x8C379A000000000000000000000000000000000000000000000000000000000 DUP2 MSTORE PUSH1 0x4 ADD PUSH2 0x5AA SWAP1 PUSH2 0xC0A JUMP JUMPDEST PUSH1 0x40 MLOAD DUP1 SWAP2 SUB SWAP1 REVERT JUMPDEST PUSH32 0x0 PUSH20 0xFFFFFFFFFFFFFFFFFFFFFFFFFFFFFFFFFFFFFFFF AND CALLER PUSH20 0xFFFFFFFFFFFFFFFFFFFFFFFFFFFFFFFFFFFFFFFF AND EQ PUSH2 0x641 JUMPI PUSH1 0x40 MLOAD PUSH32 0x8C379A000000000000000000000000000000000000000000000000000000000 DUP2 MSTORE PUSH1 0x4 ADD PUSH2 0x638 SWAP1 PUSH2 0xD3A JUMP JUMPDEST PUSH1 0x40 MLOAD DUP1 SWAP2 SUB SWAP1 REVERT JUMPDEST PUSH1 0x3 SLOAD TIMESTAMP GT PUSH2 0x652 JUMPI PUSH0 SWAP1 POP PUSH2 0x746 JUMP JUMPDEST PUSH32 0x0 PUSH0 SLOAD LT DUP1 ISZERO PUSH2 0x682 JUMPI POP PUSH0 DUP1 SLOAD GT JUMPDEST ISZERO PUSH2 0x68F JUMPI PUSH0 SWAP1 POP PUSH2 0x746 JUMP JUMPDEST PUSH0 PUSH1 0x2 PUSH0 PUSH2 0x100 EXP DUP2 SLOAD DUP2 PUSH1 0xFF MUL NOT AND SWAP1 DUP4 ISZERO ISZERO MUL OR SWAP1 SSTORE POP PUSH32 0x0 PUSH0 SLOAD LT PUSH2 0x741 JUMPI PUSH0 DUP1 SLOAD SWAP1 POP PUSH0 DUP1 DUP2 SWAP1 SSTORE POP PUSH32 0x0 PUSH20 0xFFFFFFFFFFFFFFFFFFFFFFFFFFFFFFFFFFFFFFFF AND PUSH2 0x8FC DUP3 SWAP1 DUP2 ISZERO MUL SWAP1 PUSH1 0x40 MLOAD PUSH0 PUSH1 0x40 MLOAD DUP1 DUP4 SUB DUP2 DUP6 DUP9 DUP9 CALL SWAP4 POP POP POP POP ISZERO DUP1 ISZERO PUSH2 0x73E JUMPI RETURNDATASIZE PUSH0 DUP1 RETURNDATACOPY RETURNDATASIZE PUSH0 REVERT JUMPDEST POP POP JUMPDEST PUSH1 0x1 SWAP1 POP JUMPDEST SWAP1 JUMP JUMPDEST PUSH1 0x2 PUSH0 SWAP1 SLOAD SWAP1 PUSH2 0x100 EXP SWAP1 DIV PUSH1 0xFF AND PUSH2 0x797 JUMPI PUSH1 0x40 MLOAD PUSH32 0x8C379A000000000000000000000000000000000000000000000000000000000 DUP2 MSTORE PUSH1 0x4 ADD PUSH2 0x78E SWAP1 PUSH2 0xC0A JUMP JUMPDEST PUSH1 0x40 MLOAD DUP1 SWAP2 SUB SWAP1 REVERT JUMPDEST PUSH1 0x3 SLOAD TIMESTAMP GT ISZERO PUSH2 0x7DC JUMPI PUSH1 0x40 MLOAD PUSH32 0x8C379A000000000000000000000000000000000000000000000000000000000 DUP2 MSTORE PUSH1 0x4 ADD PUSH2 0x7D3 SWAP1 PUSH2 0xDA2 JUMP JUMPDEST PUSH1 0x40 MLOAD DUP1 SWAP2 SUB SWAP1 REVERT JUMPDEST CALLVALUE PUSH0 DUP1 DUP3 DUP3 SLOAD PUSH2 0x7EC SWAP2 SWAP1 PUSH2 0xDC0 JUMP JUMPDEST SWAP3 POP POP DUP2 SWAP1 SSTORE POP PUSH0 PUSH2 0x7FD CALLER PUSH2 0x2BE JUMP JUMPDEST SWAP1 POP PUSH1 0x1 DUP1 SLOAD SWAP1 POP DUP2 SUB PUSH2 0x8B3 JUMPI PUSH1 0x1 PUSH1 0x40 MLOAD DUP1 PUSH1 0x40 ADD PUSH1 0x40 MSTORE DUP1 CALLER PUSH20 0xFFFFFFFFFFFFFFFFFFFFFFFFFFFFFFFFFFFFFFFF AND DUP2 MSTORE PUSH1 0x20 ADD CALLVALUE DUP2 MSTORE POP SWAP1 DUP1 PUSH1 0x1 DUP2 SLOAD ADD DUP1 DUP3 SSTORE DUP1 SWAP2 POP POP PUSH1 0x1 SWAP1 SUB SWAP1 PUSH0 MSTORE PUSH1 0x20 PUSH0 KECCAK256 SWAP1 PUSH1 0x2 MUL ADD PUSH0 SWAP1 SWAP2 SWAP1 SWAP2 SWAP1 SWAP2 POP PUSH0 DUP3 ADD MLOAD DUP2 PUSH0 ADD PUSH0 PUSH2 0x100 EXP DUP2 SLOAD DUP2 PUSH20 0xFFFFFFFFFFFFFFFFFFFFFFFFFFFFFFFFFFFFFFFF MUL NOT AND SWAP1 DUP4 PUSH20 0xFFFFFFFFFFFFFFFFFFFFFFFFFFFFFFFFFFFFFFFF AND MUL OR SWAP1 SSTORE POP PUSH1 0x20 DUP3 ADD MLOAD DUP2 PUSH1 0x1 ADD SSTORE POP POP PUSH2 0x8ED JUMP JUMPDEST CALLVALUE PUSH1 0x1 DUP3 DUP2 SLOAD DUP2 LT PUSH2 0x8C8 JUMPI PUSH2 0x8C7 PUSH2 0xB1B JUMP JUMPDEST JUMPDEST SWAP1 PUSH0 MSTORE PUSH1 0x20 PUSH0 KECCAK256 SWAP1 PUSH1 0x2 MUL ADD PUSH1 0x1 ADD PUSH0 DUP3 DUP3 SLOAD PUSH2 0x8E5 SWAP2 SWAP1 PUSH2 0xDC0 JUMP JUMPDEST SWAP3 POP POP DUP2 SWAP1 SSTORE POP JUMPDEST POP JUMP JUMPDEST PUSH32 0x0 DUP2 JUMP JUMPDEST PUSH1 0x2 PUSH0 SWAP1 SLOAD SWAP1 PUSH2 0x100 EXP SWAP1 DIV PUSH1 0xFF AND DUP2 JUMP JUMPDEST PUSH0 DUP2 SLOAD SWAP1 POP SWAP2 SWAP1 POP JUMP JUMPDEST PUSH1 0x1 DUP2 DUP2 SLOAD DUP2 LT PUSH2 0x93F JUMPI PUSH0 DUP1 REVERT JUMPDEST SWAP1 PUSH0 MSTORE PUSH1 0x20 PUSH0 KECCAK256 SWAP1 PUSH1 0x2 MUL ADD PUSH0 SWAP2 POP SWAP1 POP DUP1 PUSH0 ADD PUSH0 SWAP1 SLOAD SWAP1 PUSH2 0x100 EXP SWAP1 DIV PUSH20 0xFFFFFFFFFFFFFFFFFFFFFFFFFFFFFFFFFFFFFFFF AND SWAP1 DUP1 PUSH1 0x1 ADD SLOAD SWAP1 POP DUP3 JUMP JUMPDEST PUSH0 PUSH1 0x1 DUP1 SLOAD SWAP1 POP SWAP1 POP SWAP1 JUMP JUMPDEST PUSH0 DUP2 SWAP1 POP SWAP2 SWAP1 POP JUMP JUMPDEST PUSH2 0x99C DUP2 PUSH2 0x98A JUMP JUMPDEST DUP3 MSTORE POP POP JUMP JUMPDEST PUSH0 PUSH1 0x20 DUP3 ADD SWAP1 POP PUSH2 0x9B5 PUSH0 DUP4 ADD DUP5 PUSH2 0x993 JUMP JUMPDEST SWAP3 SWAP2 POP POP JUMP JUMPDEST PUSH0 DUP1 REVERT JUMPDEST PUSH0 PUSH20 0xFFFFFFFFFFFFFFFFFFFFFFFFFFFFFFFFFFFFFFFF DUP3 AND SWAP1 POP SWAP2 SWAP1 POP JUMP JUMPDEST PUSH0 PUSH2 0x9E8 DUP3 PUSH2 0x9BF JUMP JUMPDEST SWAP1 POP SWAP2 SWAP1 POP JUMP JUMPDEST PUSH2 0x9F8 DUP2 PUSH2 0x9DE JUMP JUMPDEST DUP2 EQ PUSH2 0xA02 JUMPI PUSH0 DUP1 REVERT JUMPDEST POP JUMP JUMPDEST PUSH0 DUP2 CALLDATALOAD SWAP1 POP PUSH2 0xA13 DUP2 PUSH2 0x9EF JUMP JUMPDEST SWAP3 SWAP2 POP POP JUMP JUMPDEST PUSH0 PUSH1 0x20 DUP3 DUP5 SUB SLT ISZERO PUSH2 0xA2E JUMPI PUSH2 0xA2D PUSH2 0x9BB JUMP JUMPDEST JUMPDEST PUSH0 PUSH2 0xA3B DUP5 DUP3 DUP6 ADD PUSH2 0xA05 JUMP JUMPDEST SWAP2 POP POP SWAP3 SWAP2 POP POP JUMP JUMPDEST PUSH2 0xA4D DUP2 PUSH2 0x9DE JUMP JUMPDEST DUP3 MSTORE POP POP JUMP JUMPDEST PUSH0 PUSH1 0x20 DUP3 ADD SWAP1 POP PUSH2 0xA66 PUSH0 DUP4 ADD DUP5 PUSH2 0xA44 JUMP JUMPDEST SWAP3 SWAP2 POP POP JUMP JUMPDEST PUSH0 DUP2 ISZERO ISZERO SWAP1 POP SWAP2 SWAP1 POP JUMP JUMPDEST PUSH2 0xA80 DUP2 PUSH2 0xA6C JUMP JUMPDEST DUP3 MSTORE POP POP JUMP JUMPDEST PUSH0 PUSH1 0x20 DUP3 ADD SWAP1 POP PUSH2 0xA99 PUSH0 DUP4 ADD DUP5 PUSH2 0xA77 JUMP JUMPDEST SWAP3 SWAP2 POP POP JUMP JUMPDEST PUSH2 0xAA8 DUP2 PUSH2 0x98A JUMP JUMPDEST DUP2 EQ PUSH2 0xAB2 JUMPI PUSH0 DUP1 REVERT JUMPDEST POP JUMP JUMPDEST PUSH0 DUP2 CALLDATALOAD SWAP1 POP PUSH2 0xAC3 DUP2 PUSH2 0xA9F JUMP JUMPDEST SWAP3 SWAP2 POP POP JUMP JUMPDEST PUSH0 PUSH1 0x20 DUP3 DUP5 SUB SLT ISZERO PUSH2 0xADE JUMPI PUSH2 0xADD PUSH2 0x9BB JUMP JUMPDEST JUMPDEST PUSH0 PUSH2 0xAEB DUP5 DUP3 DUP6 ADD PUSH2 0xAB5 JUMP JUMPDEST SWAP2 POP POP SWAP3 SWAP2 POP POP JUMP JUMPDEST PUSH0 PUSH1 0x40 DUP3 ADD SWAP1 POP PUSH2 0xB07 PUSH0 DUP4 ADD DUP6 PUSH2 0xA44 JUMP JUMPDEST PUSH2 0xB14 PUSH1 0x20 DUP4 ADD DUP5 PUSH2 0x993 JUMP JUMPDEST SWAP4 SWAP3 POP POP POP JUMP JUMPDEST PUSH32 0x4E487B7100000000000000000000000000000000000000000000000000000000 PUSH0 MSTORE PUSH1 0x32 PUSH1 0x4 MSTORE PUSH1 0x24 PUSH0 REVERT JUMPDEST PUSH0 DUP3 DUP3 MSTORE PUSH1 0x20 DUP3 ADD SWAP1 POP SWAP3 SWAP2 POP POP JUMP JUMPDEST PUSH32 0x696E76616C69642077697468647261772074696D650000000000000000000000 PUSH0 DUP3 ADD MSTORE POP JUMP JUMPDEST PUSH0 PUSH2 0xB8C PUSH1 0x15 DUP4 PUSH2 0xB48 JUMP JUMPDEST SWAP2 POP PUSH2 0xB97 DUP3 PUSH2 0xB58 JUMP JUMPDEST PUSH1 0x20 DUP3 ADD SWAP1 POP SWAP2 SWAP1 POP JUMP JUMPDEST PUSH0 PUSH1 0x20 DUP3 ADD SWAP1 POP DUP2 DUP2 SUB PUSH0 DUP4 ADD MSTORE PUSH2 0xBB9 DUP2 PUSH2 0xB80 JUMP JUMPDEST SWAP1 POP SWAP2 SWAP1 POP JUMP JUMPDEST PUSH32 0x43726F776466756E64696E6720686173206265656E20636C6F73656400000000 PUSH0 DUP3 ADD MSTORE POP JUMP JUMPDEST PUSH0 PUSH2 0xBF4 PUSH1 0x1C DUP4 PUSH2 0xB48 JUMP JUMPDEST SWAP2 POP PUSH2 0xBFF DUP3 PUSH2 0xBC0 JUMP JUMPDEST PUSH1 0x20 DUP3 ADD SWAP1 POP SWAP2 SWAP1 POP JUMP JUMPDEST PUSH0 PUSH1 0x20 DUP3 ADD SWAP1 POP DUP2 DUP2 SUB PUSH0 DUP4 ADD MSTORE PUSH2 0xC21 DUP2 PUSH2 0xBE8 JUMP JUMPDEST SWAP1 POP SWAP2 SWAP1 POP JUMP JUMPDEST PUSH32 0x66756E64696E67476F616C20686173206265656E2066696E6973686564000000 PUSH0 DUP3 ADD MSTORE POP JUMP JUMPDEST PUSH0 PUSH2 0xC5C PUSH1 0x1D DUP4 PUSH2 0xB48 JUMP JUMPDEST SWAP2 POP PUSH2 0xC67 DUP3 PUSH2 0xC28 JUMP JUMPDEST PUSH1 0x20 DUP3 ADD SWAP1 POP SWAP2 SWAP1 POP JUMP JUMPDEST PUSH0 PUSH1 0x20 DUP3 ADD SWAP1 POP DUP2 DUP2 SUB PUSH0 DUP4 ADD MSTORE PUSH2 0xC89 DUP2 PUSH2 0xC50 JUMP JUMPDEST SWAP1 POP SWAP2 SWAP1 POP JUMP JUMPDEST PUSH32 0x4E487B7100000000000000000000000000000000000000000000000000000000 PUSH0 MSTORE PUSH1 0x11 PUSH1 0x4 MSTORE PUSH1 0x24 PUSH0 REVERT JUMPDEST PUSH0 PUSH2 0xCC7 DUP3 PUSH2 0x98A JUMP JUMPDEST SWAP2 POP PUSH2 0xCD2 DUP4 PUSH2 0x98A JUMP JUMPDEST SWAP3 POP DUP3 DUP3 SUB SWAP1 POP DUP2 DUP2 GT ISZERO PUSH2 0xCEA JUMPI PUSH2 0xCE9 PUSH2 0xC90 JUMP JUMPDEST JUMPDEST SWAP3 SWAP2 POP POP JUMP JUMPDEST PUSH32 0x696E76616C696420616464726573730000000000000000000000000000000000 PUSH0 DUP3 ADD MSTORE POP JUMP JUMPDEST PUSH0 PUSH2 0xD24 PUSH1 0xF DUP4 PUSH2 0xB48 JUMP JUMPDEST SWAP2 POP PUSH2 0xD2F DUP3 PUSH2 0xCF0 JUMP JUMPDEST PUSH1 0x20 DUP3 ADD SWAP1 POP SWAP2 SWAP1 POP JUMP JUMPDEST PUSH0 PUSH1 0x20 DUP3 ADD SWAP1 POP DUP2 DUP2 SUB PUSH0 DUP4 ADD MSTORE PUSH2 0xD51 DUP2 PUSH2 0xD18 JUMP JUMPDEST SWAP1 POP SWAP2 SWAP1 POP JUMP JUMPDEST PUSH32 0x43726F776466756E64696E672069732066696E69736865640000000000000000 PUSH0 DUP3 ADD MSTORE POP JUMP JUMPDEST PUSH0 PUSH2 0xD8C PUSH1 0x18 DUP4 PUSH2 0xB48 JUMP JUMPDEST SWAP2 POP PUSH2 0xD97 DUP3 PUSH2 0xD58 JUMP JUMPDEST PUSH1 0x20 DUP3 ADD SWAP1 POP SWAP2 SWAP1 POP JUMP JUMPDEST PUSH0 PUSH1 0x20 DUP3 ADD SWAP1 POP DUP2 DUP2 SUB PUSH0 DUP4 ADD MSTORE PUSH2 0xDB9 DUP2 PUSH2 0xD80 JUMP JUMPDEST SWAP1 POP SWAP2 SWAP1 POP JUMP JUMPDEST PUSH0 PUSH2 0xDCA DUP3 PUSH2 0x98A JUMP JUMPDEST SWAP2 POP PUSH2 0xDD5 DUP4 PUSH2 0x98A JUMP JUMPDEST SWAP3 POP DUP3 DUP3 ADD SWAP1 POP DUP1 DUP3 GT ISZERO PUSH2 0xDED JUMPI PUSH2 0xDEC PUSH2 0xC90 JUMP JUMPDEST JUMPDEST SWAP3 SWAP2 POP POP JUMP INVALID LOG2 PUSH5 0x6970667358 0x22 SLT KECCAK256 0xE0 SWAP14 MSTORE 0xBA 0xDF SWAP13 PUSH16 0x3FAF7C01954504110E4F205D7913657B EXTCODEHASH 0xD4 CALLDATACOPY 0xDF 0xE5 0xA9 PUSH26 0xDDF364736F6C6343000816003300000000000000000000000000 "
				},
				"gasEstimates": {
					"creation": {
						"codeDepositCost": "725000",
						"executionCost": "infinite",
						"totalCost": "infinite"
					},
					"external": {
						"beneficiary()": "infinite",
						"close()": "infinite",
						"contribution()": "infinite",
						"deadline()": "2470",
						"f(uint256)": "infinite",
						"funders(uint256)": "infinite",
						"fundersLength()": "2550",
						"fundingAmount()": "2425",
						"fundingGoal()": "infinite",
						"getFundersIndex(address)": "infinite",
						"validable()": "2510",
						"withdraw()": "infinite"
					}
				},
				"methodIdentifiers": {
					"beneficiary()": "38af3eed",
					"close()": "43d726d6",
					"contribution()": "50520b1f",
					"deadline()": "29dcb0cf",
					"f(uint256)": "b3de648b",
					"funders(uint256)": "dc0d3dff",
					"fundersLength()": "e3d94735",
					"fundingAmount()": "04a79c97",
					"fundingGoal()": "7a3a0e84",
					"getFundersIndex(address)": "0c051585",
					"validable()": "94de8484",
					"withdraw()": "3ccfd60b"
				}
			},
			"storageLayout": {
				"storage": [
					{
						"astId": 12,
						"contract": "contracts/Demo14.sol:Crowdfunding",
						"label": "fundingAmount",
						"offset": 0,
						"slot": "0",
						"type": "t_uint256"
					},
					{
						"astId": 16,
						"contract": "contracts/Demo14.sol:Crowdfunding",
						"label": "funders",
						"offset": 0,
						"slot": "1",
						"type": "t_array(t_struct(Funder)6_storage)dyn_storage"
					},
					{
						"astId": 19,
						"contract": "contracts/Demo14.sol:Crowdfunding",
						"label": "validable",
						"offset": 0,
						"slot": "2",
						"type": "t_bool"
					},
					{
						"astId": 25,
						"contract": "contracts/Demo14.sol:Crowdfunding",
						"label": "deadline",
						"offset": 0,
						"slot": "3",
						"type": "t_uint256"
					}
				],
				"types": {
					"t_address": {
						"encoding": "inplace",
						"label": "address",
						"numberOfBytes": "20"
					},
					"t_array(t_struct(Funder)6_storage)dyn_storage": {
						"base": "t_struct(Funder)6_storage",
						"encoding": "dynamic_array",
						"label": "struct Crowdfunding.Funder[]",
						"numberOfBytes": "32"
					},
					"t_bool": {
						"encoding": "inplace",
						"label": "bool",
						"numberOfBytes": "1"
					},
					"t_struct(Funder)6_storage": {
						"encoding": "inplace",
						"label": "struct Crowdfunding.Funder",
						"members": [
							{
								"astId": 3,
								"contract": "contracts/Demo14.sol:Crowdfunding",
								"label": "funder",
								"offset": 0,
								"slot": "0",
								"type": "t_address"
							},
							{
								"astId": 5,
								"contract": "contracts/Demo14.sol:Crowdfunding",
								"label": "amount",
								"offset": 0,
								"slot": "1",
								"type": "t_uint256"
							}
						],
						"numberOfBytes": "64"
					},
					"t_uint256": {
						"encoding": "inplace",
						"label": "uint256",
						"numberOfBytes": "32"
					}
				}
			},
			"userdoc": {
				"kind": "user",
				"methods": {},
				"version": 1
			}
		}
	}
}