{
	"contracts/Demo4.sol": {
		"Demo": {
			"abi": [
				{
					"inputs": [],
					"name": "num",
					"outputs": [
						{
							"internalType": "int8",
							"name": "",
							"type": "int8"
						}
					],
					"stateMutability": "view",
					"type": "function"
				},
				{
					"inputs": [],
					"name": "test",
					"outputs": [
						{
							"internalType": "int256",
							"name": "",
							"type": "int256"
						}
					],
					"stateMutability": "view",
					"type": "function"
				}
			],
			"devdoc": {
				"kind": "dev",
				"methods": {},
				"version": 1
			},
			"evm": {
				"assembly": "    /* \"contracts/Demo4.sol\":65:198  contract Demo{... */\n  mstore(0x40, 0x80)\n    /* \"contracts/Demo4.sol\":103:105  -8 */\n  0xfffffffffffffffffffffffffffffffffffffffffffffffffffffffffffffff8\n    /* \"contracts/Demo4.sol\":85:105  int8 public num = -8 */\n  0x00\n  dup1\n  0x0100\n  exp\n  dup2\n  sload\n  dup2\n  0xff\n  mul\n  not\n  and\n  swap1\n  dup4\n  0x00\n  signextend\n  0xff\n  and\n  mul\n  or\n  swap1\n  sstore\n  pop\n    /* \"contracts/Demo4.sol\":65:198  contract Demo{... */\n  callvalue\n  dup1\n  iszero\n  tag_1\n  jumpi\n  0x00\n  dup1\n  revert\ntag_1:\n  pop\n  dataSize(sub_0)\n  dup1\n  dataOffset(sub_0)\n  0x00\n  codecopy\n  0x00\n  return\nstop\n\nsub_0: assembly {\n        /* \"contracts/Demo4.sol\":65:198  contract Demo{... */\n      mstore(0x40, 0x80)\n      callvalue\n      dup1\n      iszero\n      tag_1\n      jumpi\n      0x00\n      dup1\n      revert\n    tag_1:\n      pop\n      jumpi(tag_2, lt(calldatasize, 0x04))\n      shr(0xe0, calldataload(0x00))\n      dup1\n      0x4e70b1dc\n      eq\n      tag_3\n      jumpi\n      dup1\n      0xf8a8fd6d\n      eq\n      tag_4\n      jumpi\n    tag_2:\n      0x00\n      dup1\n      revert\n        /* \"contracts/Demo4.sol\":85:105  int8 public num = -8 */\n    tag_3:\n      tag_5\n      tag_6\n      jump\t// in\n    tag_5:\n      mload(0x40)\n      tag_7\n      swap2\n      swap1\n      tag_8\n      jump\t// in\n    tag_7:\n      mload(0x40)\n      dup1\n      swap2\n      sub\n      swap1\n      return\n        /* \"contracts/Demo4.sol\":114:195  function test() public view  returns(int256){... */\n    tag_4:\n      tag_9\n      tag_10\n      jump\t// in\n    tag_9:\n      mload(0x40)\n      tag_11\n      swap2\n      swap1\n      tag_12\n      jump\t// in\n    tag_11:\n      mload(0x40)\n      dup1\n      swap2\n      sub\n      swap1\n      return\n        /* \"contracts/Demo4.sol\":85:105  int8 public num = -8 */\n    tag_6:\n      0x00\n      dup1\n      sload\n      swap1\n      0x0100\n      exp\n      swap1\n      div\n      0x00\n      signextend\n      dup2\n      jump\t// out\n        /* \"contracts/Demo4.sol\":114:195  function test() public view  returns(int256){... */\n    tag_10:\n        /* \"contracts/Demo4.sol\":151:157  int256 */\n      0x00\n        /* \"contracts/Demo4.sol\":183:186  num */\n      dup1\n      0x00\n      swap1\n      sload\n      swap1\n      0x0100\n      exp\n      swap1\n      div\n      0x00\n      signextend\n        /* \"contracts/Demo4.sol\":176:187  int256(num) */\n      0x00\n      signextend\n        /* \"contracts/Demo4.sol\":169:187  return int256(num) */\n      swap1\n      pop\n        /* \"contracts/Demo4.sol\":114:195  function test() public view  returns(int256){... */\n      swap1\n      jump\t// out\n        /* \"#utility.yul\":7:96   */\n    tag_14:\n        /* \"#utility.yul\":41:48   */\n      0x00\n        /* \"#utility.yul\":84:89   */\n      dup2\n        /* \"#utility.yul\":81:82   */\n      0x00\n        /* \"#utility.yul\":70:90   */\n      signextend\n        /* \"#utility.yul\":59:90   */\n      swap1\n      pop\n        /* \"#utility.yul\":7:96   */\n      swap2\n      swap1\n      pop\n      jump\t// out\n        /* \"#utility.yul\":102:211   */\n    tag_15:\n        /* \"#utility.yul\":183:204   */\n      tag_21\n        /* \"#utility.yul\":198:203   */\n      dup2\n        /* \"#utility.yul\":183:204   */\n      tag_14\n      jump\t// in\n    tag_21:\n        /* \"#utility.yul\":178:181   */\n      dup3\n        /* \"#utility.yul\":171:205   */\n      mstore\n        /* \"#utility.yul\":102:211   */\n      pop\n      pop\n      jump\t// out\n        /* \"#utility.yul\":217:427   */\n    tag_8:\n        /* \"#utility.yul\":304:308   */\n      0x00\n        /* \"#utility.yul\":342:344   */\n      0x20\n        /* \"#utility.yul\":331:340   */\n      dup3\n        /* \"#utility.yul\":327:345   */\n      add\n        /* \"#utility.yul\":319:345   */\n      swap1\n      pop\n        /* \"#utility.yul\":355:420   */\n      tag_23\n        /* \"#utility.yul\":417:418   */\n      0x00\n        /* \"#utility.yul\":406:415   */\n      dup4\n        /* \"#utility.yul\":402:419   */\n      add\n        /* \"#utility.yul\":393:399   */\n      dup5\n        /* \"#utility.yul\":355:420   */\n      tag_15\n      jump\t// in\n    tag_23:\n        /* \"#utility.yul\":217:427   */\n      swap3\n      swap2\n      pop\n      pop\n      jump\t// out\n        /* \"#utility.yul\":433:509   */\n    tag_16:\n        /* \"#utility.yul\":469:476   */\n      0x00\n        /* \"#utility.yul\":498:503   */\n      dup2\n        /* \"#utility.yul\":487:503   */\n      swap1\n      pop\n        /* \"#utility.yul\":433:509   */\n      swap2\n      swap1\n      pop\n      jump\t// out\n        /* \"#utility.yul\":515:630   */\n    tag_17:\n        /* \"#utility.yul\":600:623   */\n      tag_26\n        /* \"#utility.yul\":617:622   */\n      dup2\n        /* \"#utility.yul\":600:623   */\n      tag_16\n      jump\t// in\n    tag_26:\n        /* \"#utility.yul\":595:598   */\n      dup3\n        /* \"#utility.yul\":588:624   */\n      mstore\n        /* \"#utility.yul\":515:630   */\n      pop\n      pop\n      jump\t// out\n        /* \"#utility.yul\":636:854   */\n    tag_12:\n        /* \"#utility.yul\":727:731   */\n      0x00\n        /* \"#utility.yul\":765:767   */\n      0x20\n        /* \"#utility.yul\":754:763   */\n      dup3\n        /* \"#utility.yul\":750:768   */\n      add\n        /* \"#utility.yul\":742:768   */\n      swap1\n      pop\n        /* \"#utility.yul\":778:847   */\n      tag_28\n        /* \"#utility.yul\":844:845   */\n      0x00\n        /* \"#utility.yul\":833:842   */\n      dup4\n        /* \"#utility.yul\":829:846   */\n      add\n        /* \"#utility.yul\":820:826   */\n      dup5\n        /* \"#utility.yul\":778:847   */\n      tag_17\n      jump\t// in\n    tag_28:\n        /* \"#utility.yul\":636:854   */\n      swap3\n      swap2\n      pop\n      pop\n      jump\t// out\n\n    auxdata: 0xa264697066735822122017dff0a1f03fbb1e0207c99f99bdc642c673db4cf0588b5340eac5ee47d3227d64736f6c63430008180033\n}\n",
				"bytecode": {
					"linkReferences": {},
					"object": "60806040527ffffffffffffffffffffffffffffffffffffffffffffffffffffffffffffffff85f806101000a81548160ff02191690835f0b60ff16021790555034801561004a575f80fd5b5061011e806100585f395ff3fe6080604052348015600e575f80fd5b50600436106030575f3560e01c80634e70b1dc146034578063f8a8fd6d14604e575b5f80fd5b603a6068565b6040516045919060a4565b60405180910390f35b60546077565b604051605f919060d1565b60405180910390f35b5f8054906101000a90045f0b81565b5f805f9054906101000a90045f0b5f0b905090565b5f815f0b9050919050565b609e81608c565b82525050565b5f60208201905060b55f8301846097565b92915050565b5f819050919050565b60cb8160bb565b82525050565b5f60208201905060e25f83018460c4565b9291505056fea264697066735822122017dff0a1f03fbb1e0207c99f99bdc642c673db4cf0588b5340eac5ee47d3227d64736f6c63430008180033",
					"opcodes": "PUSH1 0x80 PUSH1 0x40 MSTORE PUSH32 0xFFFFFFFFFFFFFFFFFFFFFFFFFFFFFFFFFFFFFFFFFFFFFFFFFFFFFFFFFFFFFFF8 PUSH0 DUP1 PUSH2 0x100 EXP DUP2 SLOAD DUP2 PUSH1 0xFF MUL NOT AND SWAP1 DUP4 PUSH0 SIGNEXTEND PUSH1 0xFF AND MUL OR SWAP1 SSTORE POP CALLVALUE DUP1 ISZERO PUSH2 0x4A JUMPI PUSH0 DUP1 REVERT JUMPDEST POP PUSH2 0x11E DUP1 PUSH2 0x58 PUSH0 CODECOPY PUSH0 RETURN INVALID PUSH1 0x80 PUSH1 0x40 MSTORE CALLVALUE DUP1 ISZERO PUSH1 0xE JUMPI PUSH0 DUP1 REVERT JUMPDEST POP PUSH1 0x4 CALLDATASIZE LT PUSH1 0x30 JUMPI PUSH0 CALLDATALOAD PUSH1 0xE0 SHR DUP1 PUSH4 0x4E70B1DC EQ PUSH1 0x34 JUMPI DUP1 PUSH4 0xF8A8FD6D EQ PUSH1 0x4E JUMPI JUMPDEST PUSH0 DUP1 REVERT JUMPDEST PUSH1 0x3A PUSH1 0x68 JUMP JUMPDEST PUSH1 0x40 MLOAD PUSH1 0x45 SWAP2 SWAP1 PUSH1 0xA4 JUMP JUMPDEST PUSH1 0x40 MLOAD DUP1 SWAP2 SUB SWAP1 RETURN JUMPDEST PUSH1 0x54 PUSH1 0x77 JUMP JUMPDEST PUSH1 0x40 MLOAD PUSH1 0x5F SWAP2 SWAP1 PUSH1 0xD1 JUMP JUMPDEST PUSH1 0x40 MLOAD DUP1 SWAP2 SUB SWAP1 RETURN JUMPDEST PUSH0 DUP1 SLOAD SWAP1 PUSH2 0x100 EXP SWAP1 DIV PUSH0 SIGNEXTEND DUP2 JUMP JUMPDEST PUSH0 DUP1 PUSH0 SWAP1 SLOAD SWAP1 PUSH2 0x100 EXP SWAP1 DIV PUSH0 SIGNEXTEND PUSH0 SIGNEXTEND SWAP1 POP SWAP1 JUMP JUMPDEST PUSH0 DUP2 PUSH0 SIGNEXTEND SWAP1 POP SWAP2 SWAP1 POP JUMP JUMPDEST PUSH1 0x9E DUP2 PUSH1 0x8C JUMP JUMPDEST DUP3 MSTORE POP POP JUMP JUMPDEST PUSH0 PUSH1 0x20 DUP3 ADD SWAP1 POP PUSH1 0xB5 PUSH0 DUP4 ADD DUP5 PUSH1 0x97 JUMP JUMPDEST SWAP3 SWAP2 POP POP JUMP JUMPDEST PUSH0 DUP2 SWAP1 POP SWAP2 SWAP1 POP JUMP JUMPDEST PUSH1 0xCB DUP2 PUSH1 0xBB JUMP JUMPDEST DUP3 MSTORE POP POP JUMP JUMPDEST PUSH0 PUSH1 0x20 DUP3 ADD SWAP1 POP PUSH1 0xE2 PUSH0 DUP4 ADD DUP5 PUSH1 0xC4 JUMP JUMPDEST SWAP3 SWAP2 POP POP JUMP INVALID LOG2 PUSH5 0x6970667358 0x22 SLT KECCAK256 OR 0xDF CREATE LOG1 CREATE EXTCODEHASH 0xBB 0x1E MUL SMOD 0xC9 SWAP16 SWAP10 0xBD 0xC6 TIMESTAMP 0xC6 PUSH20 0xDB4CF0588B5340EAC5EE47D3227D64736F6C6343 STOP ADDMOD XOR STOP CALLER "
				},
				"gasEstimates": {
					"creation": {
						"codeDepositCost": "57200",
						"executionCost": "24376",
						"totalCost": "81576"
					},
					"external": {
						"num()": "2443",
						"test()": "2475"
					}
				},
				"methodIdentifiers": {
					"num()": "4e70b1dc",
					"test()": "f8a8fd6d"
				}
			},
			"storageLayout": {
				"storage": [
					{
						"astId": 5,
						"contract": "contracts/Demo4.sol:Demo",
						"label": "num",
						"offset": 0,
						"slot": "0",
						"type": "t_int8"
					}
				],
				"types": {
					"t_int8": {
						"encoding": "inplace",
						"label": "int8",
						"numberOfBytes": "1"
					}
				}
			},
			"userdoc": {
				"kind": "user",
				"methods": {},
				"version": 1
			}
		}
	}
}