{
	"contracts/Test5.sol": {
		"Demo": {
			"abi": [
				{
					"inputs": [
						{
							"internalType": "uint256",
							"name": "x",
							"type": "uint256"
						},
						{
							"internalType": "uint256",
							"name": "y",
							"type": "uint256"
						}
					],
					"name": "PRBMath_MulDiv18_Overflow",
					"type": "error"
				},
				{
					"inputs": [
						{
							"internalType": "uint256",
							"name": "x",
							"type": "uint256"
						},
						{
							"internalType": "uint256",
							"name": "y",
							"type": "uint256"
						},
						{
							"internalType": "uint256",
							"name": "denominator",
							"type": "uint256"
						}
					],
					"name": "PRBMath_MulDiv_Overflow",
					"type": "error"
				},
				{
					"inputs": [
						{
							"internalType": "uint256",
							"name": "x",
							"type": "uint256"
						}
					],
					"name": "PRBMath_UD60x18_Convert_Overflow",
					"type": "error"
				},
				{
					"inputs": [
						{
							"internalType": "uint256",
							"name": "num",
							"type": "uint256"
						}
					],
					"name": "change1",
					"outputs": [
						{
							"internalType": "UD60x18",
							"name": "result",
							"type": "uint256"
						}
					],
					"stateMutability": "pure",
					"type": "function"
				},
				{
					"inputs": [
						{
							"internalType": "UD60x18",
							"name": "num",
							"type": "uint256"
						}
					],
					"name": "change2",
					"outputs": [
						{
							"internalType": "uint256",
							"name": "result",
							"type": "uint256"
						}
					],
					"stateMutability": "pure",
					"type": "function"
				},
				{
					"inputs": [
						{
							"internalType": "UD60x18",
							"name": "x",
							"type": "uint256"
						},
						{
							"internalType": "UD60x18",
							"name": "y",
							"type": "uint256"
						}
					],
					"name": "div",
					"outputs": [
						{
							"internalType": "UD60x18",
							"name": "result",
							"type": "uint256"
						}
					],
					"stateMutability": "pure",
					"type": "function"
				},
				{
					"inputs": [
						{
							"internalType": "UD60x18",
							"name": "x",
							"type": "uint256"
						},
						{
							"internalType": "UD60x18",
							"name": "y",
							"type": "uint256"
						}
					],
					"name": "mul",
					"outputs": [
						{
							"internalType": "UD60x18",
							"name": "result",
							"type": "uint256"
						}
					],
					"stateMutability": "pure",
					"type": "function"
				}
			],
			"devdoc": {
				"kind": "dev",
				"methods": {},
				"version": 1
			},
			"evm": {
				"assembly": "    /* \"contracts/Test5.sol\":164:661  contract Demo{... */\n  mstore(0x40, 0x80)\n  callvalue\n  dup1\n  iszero\n  tag_1\n  jumpi\n  0x00\n  dup1\n  revert\ntag_1:\n  pop\n  dataSize(sub_0)\n  dup1\n  dataOffset(sub_0)\n  0x00\n  codecopy\n  0x00\n  return\nstop\n\nsub_0: assembly {\n        /* \"contracts/Test5.sol\":164:661  contract Demo{... */\n      mstore(0x40, 0x80)\n      callvalue\n      dup1\n      iszero\n      tag_1\n      jumpi\n      0x00\n      dup1\n      revert\n    tag_1:\n      pop\n      jumpi(tag_2, lt(calldatasize, 0x04))\n      shr(0xe0, calldataload(0x00))\n      dup1\n      0x7df5a2eb\n      eq\n      tag_3\n      jumpi\n      dup1\n      0x98f0b612\n      eq\n      tag_4\n      jumpi\n      dup1\n      0xa391c15b\n      eq\n      tag_5\n      jumpi\n      dup1\n      0xc8a4ac9c\n      eq\n      tag_6\n      jumpi\n    tag_2:\n      0x00\n      dup1\n      revert\n        /* \"contracts/Test5.sol\":442:546  function change1(uint256 num)  public pure returns (UD60x18 result){... */\n    tag_3:\n      tag_7\n      0x04\n      dup1\n      calldatasize\n      sub\n      dup2\n      add\n      swap1\n      tag_8\n      swap2\n      swap1\n      tag_9\n      jump\t// in\n    tag_8:\n      tag_10\n      jump\t// in\n    tag_7:\n      mload(0x40)\n      tag_11\n      swap2\n      swap1\n      tag_12\n      jump\t// in\n    tag_11:\n      mload(0x40)\n      dup1\n      swap2\n      sub\n      swap1\n      return\n        /* \"contracts/Test5.sol\":552:656  function change2(UD60x18 num)  public pure returns (uint256 result){... */\n    tag_4:\n      tag_13\n      0x04\n      dup1\n      calldatasize\n      sub\n      dup2\n      add\n      swap1\n      tag_14\n      swap2\n      swap1\n      tag_15\n      jump\t// in\n    tag_14:\n      tag_16\n      jump\t// in\n    tag_13:\n      mload(0x40)\n      tag_17\n      swap2\n      swap1\n      tag_18\n      jump\t// in\n    tag_17:\n      mload(0x40)\n      dup1\n      swap2\n      sub\n      swap1\n      return\n        /* \"contracts/Test5.sol\":184:293  function div(UD60x18 x, UD60x18 y) public pure returns (UD60x18 result){... */\n    tag_5:\n      tag_19\n      0x04\n      dup1\n      calldatasize\n      sub\n      dup2\n      add\n      swap1\n      tag_20\n      swap2\n      swap1\n      tag_21\n      jump\t// in\n    tag_20:\n      tag_22\n      jump\t// in\n    tag_19:\n      mload(0x40)\n      tag_23\n      swap2\n      swap1\n      tag_12\n      jump\t// in\n    tag_23:\n      mload(0x40)\n      dup1\n      swap2\n      sub\n      swap1\n      return\n        /* \"contracts/Test5.sol\":299:436  function mul(UD60x18 x, UD60x18 y) public pure returns (UD60x18 result) {... */\n    tag_6:\n      tag_24\n      0x04\n      dup1\n      calldatasize\n      sub\n      dup2\n      add\n      swap1\n      tag_25\n      swap2\n      swap1\n      tag_21\n      jump\t// in\n    tag_25:\n      tag_26\n      jump\t// in\n    tag_24:\n      mload(0x40)\n      tag_27\n      swap2\n      swap1\n      tag_12\n      jump\t// in\n    tag_27:\n      mload(0x40)\n      dup1\n      swap2\n      sub\n      swap1\n      return\n        /* \"contracts/Test5.sol\":442:546  function change1(uint256 num)  public pure returns (UD60x18 result){... */\n    tag_10:\n        /* \"contracts/Test5.sol\":494:508  UD60x18 result */\n      0x00\n        /* \"contracts/Test5.sol\":526:538  convert(num) */\n      tag_29\n        /* \"contracts/Test5.sol\":534:537  num */\n      dup3\n        /* \"contracts/Test5.sol\":526:533  convert */\n      tag_30\n        /* \"contracts/Test5.sol\":526:538  convert(num) */\n      jump\t// in\n    tag_29:\n        /* \"contracts/Test5.sol\":518:538  return  convert(num) */\n      swap1\n      pop\n        /* \"contracts/Test5.sol\":442:546  function change1(uint256 num)  public pure returns (UD60x18 result){... */\n      swap2\n      swap1\n      pop\n      jump\t// out\n        /* \"contracts/Test5.sol\":552:656  function change2(UD60x18 num)  public pure returns (uint256 result){... */\n    tag_16:\n        /* \"contracts/Test5.sol\":604:618  uint256 result */\n      0x00\n        /* \"contracts/Test5.sol\":636:648  convert(num) */\n      tag_32\n        /* \"contracts/Test5.sol\":644:647  num */\n      dup3\n        /* \"contracts/Test5.sol\":636:643  convert */\n      tag_33\n        /* \"contracts/Test5.sol\":636:648  convert(num) */\n      jump\t// in\n    tag_32:\n        /* \"contracts/Test5.sol\":628:648  return  convert(num) */\n      swap1\n      pop\n        /* \"contracts/Test5.sol\":552:656  function change2(UD60x18 num)  public pure returns (uint256 result){... */\n      swap2\n      swap1\n      pop\n      jump\t// out\n        /* \"contracts/Test5.sol\":184:293  function div(UD60x18 x, UD60x18 y) public pure returns (UD60x18 result){... */\n    tag_22:\n        /* \"contracts/Test5.sol\":240:254  UD60x18 result */\n      0x00\n        /* \"contracts/Test5.sol\":274:282  x.div(y) */\n      tag_35\n        /* \"contracts/Test5.sol\":280:281  y */\n      dup3\n        /* \"contracts/Test5.sol\":274:275  x */\n      dup5\n        /* \"contracts/Test5.sol\":274:279  x.div */\n      tag_36\n      swap1\n        /* \"contracts/Test5.sol\":274:282  x.div(y) */\n      swap2\n      swap1\n      0xffffffff\n      and\n      jump\t// in\n    tag_35:\n        /* \"contracts/Test5.sol\":266:282  return  x.div(y) */\n      swap1\n      pop\n        /* \"contracts/Test5.sol\":184:293  function div(UD60x18 x, UD60x18 y) public pure returns (UD60x18 result){... */\n      swap3\n      swap2\n      pop\n      pop\n      jump\t// out\n        /* \"contracts/Test5.sol\":299:436  function mul(UD60x18 x, UD60x18 y) public pure returns (UD60x18 result) {... */\n    tag_26:\n        /* \"contracts/Test5.sol\":355:369  UD60x18 result */\n      0x00\n        /* \"contracts/Test5.sol\":389:397  x.mul(y) */\n      tag_38\n        /* \"contracts/Test5.sol\":395:396  y */\n      dup3\n        /* \"contracts/Test5.sol\":389:390  x */\n      dup5\n        /* \"contracts/Test5.sol\":389:394  x.mul */\n      tag_39\n      swap1\n        /* \"contracts/Test5.sol\":389:397  x.mul(y) */\n      swap2\n      swap1\n      0xffffffff\n      and\n      jump\t// in\n    tag_38:\n        /* \"contracts/Test5.sol\":382:397  return x.mul(y) */\n      swap1\n      pop\n        /* \"contracts/Test5.sol\":299:436  function mul(UD60x18 x, UD60x18 y) public pure returns (UD60x18 result) {... */\n      swap3\n      swap2\n      pop\n      pop\n      jump\t// out\n        /* \"@prb/math/src/ud60x18/Conversions.sol\":824:1043  function convert(uint256 x) pure returns (UD60x18 result) {... */\n    tag_30:\n        /* \"@prb/math/src/ud60x18/Conversions.sol\":866:880  UD60x18 result */\n      0x00\n        /* \"@prb/math/src/ud60x18/Constants.sol\":1663:1667  1e18 */\n      0x0de0b6b3a7640000\n        /* \"@prb/math/src/ud60x18/Constants.sol\":1082:1161  115792089237316195423570985008687907853269984665640564039457_584007913129639935 */\n      0xffffffffffffffffffffffffffffffffffffffffffffffffffffffffffffffff\n        /* \"@prb/math/src/ud60x18/Conversions.sol\":896:916  uMAX_UD60x18 / uUNIT */\n      tag_41\n      swap2\n      swap1\n      tag_42\n      jump\t// in\n    tag_41:\n        /* \"@prb/math/src/ud60x18/Conversions.sol\":892:893  x */\n      dup3\n        /* \"@prb/math/src/ud60x18/Conversions.sol\":892:916  x > uMAX_UD60x18 / uUNIT */\n      gt\n        /* \"@prb/math/src/ud60x18/Conversions.sol\":888:977  if (x > uMAX_UD60x18 / uUNIT) {... */\n      iszero\n      tag_43\n      jumpi\n        /* \"@prb/math/src/ud60x18/Conversions.sol\":968:969  x */\n      dup2\n        /* \"@prb/math/src/ud60x18/Conversions.sol\":935:970  PRBMath_UD60x18_Convert_Overflow(x) */\n      mload(0x40)\n      0x1cd951a700000000000000000000000000000000000000000000000000000000\n      dup2\n      mstore\n      0x04\n      add\n      tag_44\n      swap2\n      swap1\n      tag_18\n      jump\t// in\n    tag_44:\n      mload(0x40)\n      dup1\n      swap2\n      sub\n      swap1\n      revert\n        /* \"@prb/math/src/ud60x18/Conversions.sol\":888:977  if (x > uMAX_UD60x18 / uUNIT) {... */\n    tag_43:\n        /* \"@prb/math/src/ud60x18/Constants.sol\":1663:1667  1e18 */\n      0x0de0b6b3a7640000\n        /* \"@prb/math/src/ud60x18/Conversions.sol\":1024:1025  x */\n      dup3\n        /* \"@prb/math/src/ud60x18/Conversions.sol\":1024:1033  x * uUNIT */\n      mul\n        /* \"@prb/math/src/ud60x18/Conversions.sol\":1002:1034  result = UD60x18.wrap(x * uUNIT) */\n      swap1\n      pop\n        /* \"@prb/math/src/ud60x18/Conversions.sol\":824:1043  function convert(uint256 x) pure returns (UD60x18 result) {... */\n      swap2\n      swap1\n      pop\n      jump\t// out\n        /* \"@prb/math/src/ud60x18/Conversions.sol\":453:554  function convert(UD60x18 x) pure returns (uint256 result) {... */\n    tag_33:\n        /* \"@prb/math/src/ud60x18/Conversions.sol\":495:509  uint256 result */\n      0x00\n        /* \"@prb/math/src/ud60x18/Constants.sol\":1663:1667  1e18 */\n      0x0de0b6b3a7640000\n        /* \"@prb/math/src/ud60x18/Conversions.sol\":541:542  x */\n      dup3\n        /* \"@prb/math/src/ud60x18/Conversions.sol\":526:551  UD60x18.unwrap(x) / uUNIT */\n      tag_46\n      swap2\n      swap1\n      tag_42\n      jump\t// in\n    tag_46:\n        /* \"@prb/math/src/ud60x18/Conversions.sol\":517:551  result = UD60x18.unwrap(x) / uUNIT */\n      swap1\n      pop\n        /* \"@prb/math/src/ud60x18/Conversions.sol\":453:554  function convert(UD60x18 x) pure returns (uint256 result) {... */\n      swap2\n      swap1\n      pop\n      jump\t// out\n        /* \"@prb/math/src/ud60x18/Math.sol\":3163:3296  function div(UD60x18 x, UD60x18 y) pure returns (UD60x18 result) {... */\n    tag_36:\n        /* \"@prb/math/src/ud60x18/Math.sol\":3212:3226  UD60x18 result */\n      0x00\n        /* \"@prb/math/src/ud60x18/Math.sol\":3243:3293  wrap(Common.mulDiv(x.unwrap(), uUNIT, y.unwrap())) */\n      tag_48\n        /* \"@prb/math/src/ud60x18/Math.sol\":3248:3292  Common.mulDiv(x.unwrap(), uUNIT, y.unwrap()) */\n      tag_49\n        /* \"@prb/math/src/ud60x18/Math.sol\":3262:3272  x.unwrap() */\n      tag_50\n        /* \"@prb/math/src/ud60x18/Math.sol\":3262:3263  x */\n      dup6\n        /* \"@prb/math/src/ud60x18/Math.sol\":3262:3270  x.unwrap */\n      tag_51\n        /* \"@prb/math/src/ud60x18/Math.sol\":3262:3272  x.unwrap() */\n      jump\t// in\n    tag_50:\n        /* \"@prb/math/src/ud60x18/Constants.sol\":1663:1667  1e18 */\n      0x0de0b6b3a7640000\n        /* \"@prb/math/src/ud60x18/Math.sol\":3281:3291  y.unwrap() */\n      tag_52\n        /* \"@prb/math/src/ud60x18/Math.sol\":3281:3282  y */\n      dup7\n        /* \"@prb/math/src/ud60x18/Math.sol\":3281:3289  y.unwrap */\n      tag_51\n        /* \"@prb/math/src/ud60x18/Math.sol\":3281:3291  y.unwrap() */\n      jump\t// in\n    tag_52:\n        /* \"@prb/math/src/ud60x18/Math.sol\":3248:3261  Common.mulDiv */\n      tag_53\n        /* \"@prb/math/src/ud60x18/Math.sol\":3248:3292  Common.mulDiv(x.unwrap(), uUNIT, y.unwrap()) */\n      jump\t// in\n    tag_49:\n        /* \"@prb/math/src/ud60x18/Math.sol\":3243:3247  wrap */\n      tag_54\n        /* \"@prb/math/src/ud60x18/Math.sol\":3243:3293  wrap(Common.mulDiv(x.unwrap(), uUNIT, y.unwrap())) */\n      jump\t// in\n    tag_48:\n        /* \"@prb/math/src/ud60x18/Math.sol\":3234:3293  result = wrap(Common.mulDiv(x.unwrap(), uUNIT, y.unwrap())) */\n      swap1\n      pop\n        /* \"@prb/math/src/ud60x18/Math.sol\":3163:3296  function div(UD60x18 x, UD60x18 y) pure returns (UD60x18 result) {... */\n      swap3\n      swap2\n      pop\n      pop\n      jump\t// out\n        /* \"@prb/math/src/ud60x18/Math.sol\":18989:19117  function mul(UD60x18 x, UD60x18 y) pure returns (UD60x18 result) {... */\n    tag_39:\n        /* \"@prb/math/src/ud60x18/Math.sol\":19038:19052  UD60x18 result */\n      0x00\n        /* \"@prb/math/src/ud60x18/Math.sol\":19069:19114  wrap(Common.mulDiv18(x.unwrap(), y.unwrap())) */\n      tag_56\n        /* \"@prb/math/src/ud60x18/Math.sol\":19074:19113  Common.mulDiv18(x.unwrap(), y.unwrap()) */\n      tag_57\n        /* \"@prb/math/src/ud60x18/Math.sol\":19090:19100  x.unwrap() */\n      tag_58\n        /* \"@prb/math/src/ud60x18/Math.sol\":19090:19091  x */\n      dup6\n        /* \"@prb/math/src/ud60x18/Math.sol\":19090:19098  x.unwrap */\n      tag_51\n        /* \"@prb/math/src/ud60x18/Math.sol\":19090:19100  x.unwrap() */\n      jump\t// in\n    tag_58:\n        /* \"@prb/math/src/ud60x18/Math.sol\":19102:19112  y.unwrap() */\n      tag_59\n        /* \"@prb/math/src/ud60x18/Math.sol\":19102:19103  y */\n      dup6\n        /* \"@prb/math/src/ud60x18/Math.sol\":19102:19110  y.unwrap */\n      tag_51\n        /* \"@prb/math/src/ud60x18/Math.sol\":19102:19112  y.unwrap() */\n      jump\t// in\n    tag_59:\n        /* \"@prb/math/src/ud60x18/Math.sol\":19074:19089  Common.mulDiv18 */\n      tag_60\n        /* \"@prb/math/src/ud60x18/Math.sol\":19074:19113  Common.mulDiv18(x.unwrap(), y.unwrap()) */\n      jump\t// in\n    tag_57:\n        /* \"@prb/math/src/ud60x18/Math.sol\":19069:19073  wrap */\n      tag_54\n        /* \"@prb/math/src/ud60x18/Math.sol\":19069:19114  wrap(Common.mulDiv18(x.unwrap(), y.unwrap())) */\n      jump\t// in\n    tag_56:\n        /* \"@prb/math/src/ud60x18/Math.sol\":19060:19114  result = wrap(Common.mulDiv18(x.unwrap(), y.unwrap())) */\n      swap1\n      pop\n        /* \"@prb/math/src/ud60x18/Math.sol\":18989:19117  function mul(UD60x18 x, UD60x18 y) pure returns (UD60x18 result) {... */\n      swap3\n      swap2\n      pop\n      pop\n      jump\t// out\n        /* \"@prb/math/src/ud60x18/Casting.sol\":2901:2993  function unwrap(UD60x18 x) pure returns (uint256 result) {... */\n    tag_51:\n        /* \"@prb/math/src/ud60x18/Casting.sol\":2942:2956  uint256 result */\n      0x00\n        /* \"@prb/math/src/ud60x18/Casting.sol\":2988:2989  x */\n      dup2\n        /* \"@prb/math/src/ud60x18/Casting.sol\":2964:2990  result = UD60x18.unwrap(x) */\n      swap1\n      pop\n        /* \"@prb/math/src/ud60x18/Casting.sol\":2901:2993  function unwrap(UD60x18 x) pure returns (uint256 result) {... */\n      swap2\n      swap1\n      pop\n      jump\t// out\n        /* \"@prb/math/src/Common.sol\":14474:18595  function mulDiv(uint256 x, uint256 y, uint256 denominator) pure returns (uint256 result) {... */\n    tag_53:\n        /* \"@prb/math/src/Common.sol\":14547:14561  uint256 result */\n      0x00\n        /* \"@prb/math/src/Common.sol\":14842:14855  uint256 prod0 */\n      dup1\n        /* \"@prb/math/src/Common.sol\":14906:14919  uint256 prod1 */\n      0x00\n        /* \"@prb/math/src/Common.sol\":15031:15032  0 */\n      dup1\n        /* \"@prb/math/src/Common.sol\":15027:15033  not(0) */\n      not\n        /* \"@prb/math/src/Common.sol\":15024:15025  y */\n      dup6\n        /* \"@prb/math/src/Common.sol\":15021:15022  x */\n      dup8\n        /* \"@prb/math/src/Common.sol\":15014:15034  mulmod(x, y, not(0)) */\n      mulmod\n        /* \"@prb/math/src/Common.sol\":15059:15060  y */\n      dup6\n        /* \"@prb/math/src/Common.sol\":15056:15057  x */\n      dup8\n        /* \"@prb/math/src/Common.sol\":15052:15061  mul(x, y) */\n      mul\n        /* \"@prb/math/src/Common.sol\":15043:15061  prod0 := mul(x, y) */\n      swap3\n      pop\n        /* \"@prb/math/src/Common.sol\":15106:15111  prod0 */\n      dup3\n        /* \"@prb/math/src/Common.sol\":15102:15104  mm */\n      dup2\n        /* \"@prb/math/src/Common.sol\":15099:15112  lt(mm, prod0) */\n      lt\n        /* \"@prb/math/src/Common.sol\":15091:15096  prod0 */\n      dup4\n        /* \"@prb/math/src/Common.sol\":15087:15089  mm */\n      dup3\n        /* \"@prb/math/src/Common.sol\":15083:15097  sub(mm, prod0) */\n      sub\n        /* \"@prb/math/src/Common.sol\":15079:15113  sub(sub(mm, prod0), lt(mm, prod0)) */\n      sub\n        /* \"@prb/math/src/Common.sol\":15070:15113  prod1 := sub(sub(mm, prod0), lt(mm, prod0)) */\n      swap2\n      pop\n        /* \"@prb/math/src/Common.sol\":14994:15119  {... */\n      pop\n        /* \"@prb/math/src/Common.sol\":15193:15194  0 */\n      0x00\n        /* \"@prb/math/src/Common.sol\":15184:15189  prod1 */\n      dup2\n        /* \"@prb/math/src/Common.sol\":15184:15194  prod1 == 0 */\n      sub\n        /* \"@prb/math/src/Common.sol\":15180:15273  if (prod1 == 0) {... */\n      tag_63\n      jumpi\n        /* \"@prb/math/src/Common.sol\":15245:15256  denominator */\n      dup4\n        /* \"@prb/math/src/Common.sol\":15237:15242  prod0 */\n      dup3\n        /* \"@prb/math/src/Common.sol\":15237:15256  prod0 / denominator */\n      dup2\n      tag_64\n      jumpi\n      tag_65\n      tag_66\n      jump\t// in\n    tag_65:\n    tag_64:\n      div\n        /* \"@prb/math/src/Common.sol\":15230:15256  return prod0 / denominator */\n      swap3\n      pop\n      pop\n      pop\n      jump(tag_62)\n        /* \"@prb/math/src/Common.sol\":15180:15273  if (prod1 == 0) {... */\n    tag_63:\n        /* \"@prb/math/src/Common.sol\":15372:15383  denominator */\n      dup4\n        /* \"@prb/math/src/Common.sol\":15363:15368  prod1 */\n      dup2\n        /* \"@prb/math/src/Common.sol\":15363:15383  prod1 >= denominator */\n      lt\n        /* \"@prb/math/src/Common.sol\":15359:15451  if (prod1 >= denominator) {... */\n      tag_67\n      jumpi\n        /* \"@prb/math/src/Common.sol\":15426:15427  x */\n      dup6\n        /* \"@prb/math/src/Common.sol\":15429:15430  y */\n      dup6\n        /* \"@prb/math/src/Common.sol\":15432:15443  denominator */\n      dup6\n        /* \"@prb/math/src/Common.sol\":15402:15444  PRBMath_MulDiv_Overflow(x, y, denominator) */\n      mload(0x40)\n      0x63a0577800000000000000000000000000000000000000000000000000000000\n      dup2\n      mstore\n      0x04\n      add\n      tag_68\n      swap4\n      swap3\n      swap2\n      swap1\n      tag_69\n      jump\t// in\n    tag_68:\n      mload(0x40)\n      dup1\n      swap2\n      sub\n      swap1\n      revert\n        /* \"@prb/math/src/Common.sol\":15359:15451  if (prod1 >= denominator) {... */\n    tag_67:\n        /* \"@prb/math/src/Common.sol\":15723:15740  uint256 remainder */\n      0x00\n        /* \"@prb/math/src/Common.sol\":15870:15881  denominator */\n      dup5\n        /* \"@prb/math/src/Common.sol\":15867:15868  y */\n      dup7\n        /* \"@prb/math/src/Common.sol\":15864:15865  x */\n      dup9\n        /* \"@prb/math/src/Common.sol\":15857:15882  mulmod(x, y, denominator) */\n      mulmod\n        /* \"@prb/math/src/Common.sol\":15844:15882  remainder := mulmod(x, y, denominator) */\n      swap1\n      pop\n        /* \"@prb/math/src/Common.sol\":15982:15987  prod0 */\n      dup3\n        /* \"@prb/math/src/Common.sol\":15971:15980  remainder */\n      dup2\n        /* \"@prb/math/src/Common.sol\":15968:15988  gt(remainder, prod0) */\n      gt\n        /* \"@prb/math/src/Common.sol\":15961:15966  prod1 */\n      dup3\n        /* \"@prb/math/src/Common.sol\":15957:15989  sub(prod1, gt(remainder, prod0)) */\n      sub\n        /* \"@prb/math/src/Common.sol\":15948:15989  prod1 := sub(prod1, gt(remainder, prod0)) */\n      swap2\n      pop\n        /* \"@prb/math/src/Common.sol\":16018:16027  remainder */\n      dup1\n        /* \"@prb/math/src/Common.sol\":16011:16016  prod0 */\n      dup4\n        /* \"@prb/math/src/Common.sol\":16007:16028  sub(prod0, remainder) */\n      sub\n        /* \"@prb/math/src/Common.sol\":15998:16028  prod0 := sub(prod0, remainder) */\n      swap3\n      pop\n        /* \"@prb/math/src/Common.sol\":16387:16402  uint256 lpotdod */\n      0x00\n        /* \"@prb/math/src/Common.sol\":16435:16436  1 */\n      0x01\n        /* \"@prb/math/src/Common.sol\":16421:16432  denominator */\n      dup7\n        /* \"@prb/math/src/Common.sol\":16420:16432  ~denominator */\n      not\n        /* \"@prb/math/src/Common.sol\":16420:16436  ~denominator + 1 */\n      add\n        /* \"@prb/math/src/Common.sol\":16405:16416  denominator */\n      dup7\n        /* \"@prb/math/src/Common.sol\":16405:16437  denominator & (~denominator + 1) */\n      and\n        /* \"@prb/math/src/Common.sol\":16387:16437  uint256 lpotdod = denominator & (~denominator + 1) */\n      swap1\n      pop\n        /* \"@prb/math/src/Common.sol\":16447:16469  uint256 flippedLpotdod */\n      0x00\n        /* \"@prb/math/src/Common.sol\":16607:16614  lpotdod */\n      dup2\n        /* \"@prb/math/src/Common.sol\":16594:16605  denominator */\n      dup8\n        /* \"@prb/math/src/Common.sol\":16590:16615  div(denominator, lpotdod) */\n      div\n        /* \"@prb/math/src/Common.sol\":16575:16615  denominator := div(denominator, lpotdod) */\n      swap7\n      pop\n        /* \"@prb/math/src/Common.sol\":16697:16704  lpotdod */\n      dup2\n        /* \"@prb/math/src/Common.sol\":16690:16695  prod0 */\n      dup6\n        /* \"@prb/math/src/Common.sol\":16686:16705  div(prod0, lpotdod) */\n      div\n        /* \"@prb/math/src/Common.sol\":16677:16705  prod0 := div(prod0, lpotdod) */\n      swap5\n      pop\n        /* \"@prb/math/src/Common.sol\":17135:17136  1 */\n      0x01\n        /* \"@prb/math/src/Common.sol\":17125:17132  lpotdod */\n      dup3\n        /* \"@prb/math/src/Common.sol\":17115:17122  lpotdod */\n      dup4\n        /* \"@prb/math/src/Common.sol\":17112:17113  0 */\n      0x00\n        /* \"@prb/math/src/Common.sol\":17108:17123  sub(0, lpotdod) */\n      sub\n        /* \"@prb/math/src/Common.sol\":17104:17133  div(sub(0, lpotdod), lpotdod) */\n      div\n        /* \"@prb/math/src/Common.sol\":17100:17137  add(div(sub(0, lpotdod), lpotdod), 1) */\n      add\n        /* \"@prb/math/src/Common.sol\":17082:17137  flippedLpotdod := add(div(sub(0, lpotdod), lpotdod), 1) */\n      swap1\n      pop\n        /* \"@prb/math/src/Common.sol\":17222:17236  flippedLpotdod */\n      dup1\n        /* \"@prb/math/src/Common.sol\":17214:17219  prod1 */\n      dup5\n        /* \"@prb/math/src/Common.sol\":17214:17236  prod1 * flippedLpotdod */\n      mul\n        /* \"@prb/math/src/Common.sol\":17205:17236  prod0 |= prod1 * flippedLpotdod */\n      dup6\n      or\n      swap5\n      pop\n        /* \"@prb/math/src/Common.sol\":17538:17553  uint256 inverse */\n      0x00\n        /* \"@prb/math/src/Common.sol\":17576:17577  2 */\n      0x02\n        /* \"@prb/math/src/Common.sol\":17561:17572  denominator */\n      dup9\n        /* \"@prb/math/src/Common.sol\":17557:17558  3 */\n      0x03\n        /* \"@prb/math/src/Common.sol\":17557:17572  3 * denominator */\n      mul\n        /* \"@prb/math/src/Common.sol\":17556:17577  (3 * denominator) ^ 2 */\n      xor\n        /* \"@prb/math/src/Common.sol\":17538:17577  uint256 inverse = (3 * denominator) ^ 2 */\n      swap1\n      pop\n        /* \"@prb/math/src/Common.sol\":17811:17818  inverse */\n      dup1\n        /* \"@prb/math/src/Common.sol\":17797:17808  denominator */\n      dup9\n        /* \"@prb/math/src/Common.sol\":17797:17818  denominator * inverse */\n      mul\n        /* \"@prb/math/src/Common.sol\":17793:17794  2 */\n      0x02\n        /* \"@prb/math/src/Common.sol\":17793:17818  2 - denominator * inverse */\n      sub\n        /* \"@prb/math/src/Common.sol\":17782:17818  inverse *= 2 - denominator * inverse */\n      dup2\n      mul\n      swap1\n      pop\n        /* \"@prb/math/src/Common.sol\":17876:17883  inverse */\n      dup1\n        /* \"@prb/math/src/Common.sol\":17862:17873  denominator */\n      dup9\n        /* \"@prb/math/src/Common.sol\":17862:17883  denominator * inverse */\n      mul\n        /* \"@prb/math/src/Common.sol\":17858:17859  2 */\n      0x02\n        /* \"@prb/math/src/Common.sol\":17858:17883  2 - denominator * inverse */\n      sub\n        /* \"@prb/math/src/Common.sol\":17847:17883  inverse *= 2 - denominator * inverse */\n      dup2\n      mul\n      swap1\n      pop\n        /* \"@prb/math/src/Common.sol\":17942:17949  inverse */\n      dup1\n        /* \"@prb/math/src/Common.sol\":17928:17939  denominator */\n      dup9\n        /* \"@prb/math/src/Common.sol\":17928:17949  denominator * inverse */\n      mul\n        /* \"@prb/math/src/Common.sol\":17924:17925  2 */\n      0x02\n        /* \"@prb/math/src/Common.sol\":17924:17949  2 - denominator * inverse */\n      sub\n        /* \"@prb/math/src/Common.sol\":17913:17949  inverse *= 2 - denominator * inverse */\n      dup2\n      mul\n      swap1\n      pop\n        /* \"@prb/math/src/Common.sol\":18008:18015  inverse */\n      dup1\n        /* \"@prb/math/src/Common.sol\":17994:18005  denominator */\n      dup9\n        /* \"@prb/math/src/Common.sol\":17994:18015  denominator * inverse */\n      mul\n        /* \"@prb/math/src/Common.sol\":17990:17991  2 */\n      0x02\n        /* \"@prb/math/src/Common.sol\":17990:18015  2 - denominator * inverse */\n      sub\n        /* \"@prb/math/src/Common.sol\":17979:18015  inverse *= 2 - denominator * inverse */\n      dup2\n      mul\n      swap1\n      pop\n        /* \"@prb/math/src/Common.sol\":18074:18081  inverse */\n      dup1\n        /* \"@prb/math/src/Common.sol\":18060:18071  denominator */\n      dup9\n        /* \"@prb/math/src/Common.sol\":18060:18081  denominator * inverse */\n      mul\n        /* \"@prb/math/src/Common.sol\":18056:18057  2 */\n      0x02\n        /* \"@prb/math/src/Common.sol\":18056:18081  2 - denominator * inverse */\n      sub\n        /* \"@prb/math/src/Common.sol\":18045:18081  inverse *= 2 - denominator * inverse */\n      dup2\n      mul\n      swap1\n      pop\n        /* \"@prb/math/src/Common.sol\":18141:18148  inverse */\n      dup1\n        /* \"@prb/math/src/Common.sol\":18127:18138  denominator */\n      dup9\n        /* \"@prb/math/src/Common.sol\":18127:18148  denominator * inverse */\n      mul\n        /* \"@prb/math/src/Common.sol\":18123:18124  2 */\n      0x02\n        /* \"@prb/math/src/Common.sol\":18123:18148  2 - denominator * inverse */\n      sub\n        /* \"@prb/math/src/Common.sol\":18112:18148  inverse *= 2 - denominator * inverse */\n      dup2\n      mul\n      swap1\n      pop\n        /* \"@prb/math/src/Common.sol\":18579:18586  inverse */\n      dup1\n        /* \"@prb/math/src/Common.sol\":18571:18576  prod0 */\n      dup7\n        /* \"@prb/math/src/Common.sol\":18571:18586  prod0 * inverse */\n      mul\n        /* \"@prb/math/src/Common.sol\":18562:18586  result = prod0 * inverse */\n      swap7\n      pop\n        /* \"@prb/math/src/Common.sol\":16040:18593  unchecked {... */\n      pop\n      pop\n      pop\n        /* \"@prb/math/src/Common.sol\":14563:18595  {... */\n      pop\n      pop\n      pop\n        /* \"@prb/math/src/Common.sol\":14474:18595  function mulDiv(uint256 x, uint256 y, uint256 denominator) pure returns (uint256 result) {... */\n    tag_62:\n      swap4\n      swap3\n      pop\n      pop\n      pop\n      jump\t// out\n        /* \"@prb/math/src/ud60x18/Casting.sol\":3059:3147  function wrap(uint256 x) pure returns (UD60x18 result) {... */\n    tag_54:\n        /* \"@prb/math/src/ud60x18/Casting.sol\":3098:3112  UD60x18 result */\n      0x00\n        /* \"@prb/math/src/ud60x18/Casting.sol\":3142:3143  x */\n      dup2\n        /* \"@prb/math/src/ud60x18/Casting.sol\":3120:3144  result = UD60x18.wrap(x) */\n      swap1\n      pop\n        /* \"@prb/math/src/ud60x18/Casting.sol\":3059:3147  function wrap(uint256 x) pure returns (UD60x18 result) {... */\n      swap2\n      swap1\n      pop\n      jump\t// out\n        /* \"@prb/math/src/Common.sol\":19579:20398  function mulDiv18(uint256 x, uint256 y) pure returns (uint256 result) {... */\n    tag_60:\n        /* \"@prb/math/src/Common.sol\":19633:19647  uint256 result */\n      0x00\n        /* \"@prb/math/src/Common.sol\":19655:19668  uint256 prod0 */\n      dup1\n        /* \"@prb/math/src/Common.sol\":19674:19687  uint256 prod1 */\n      0x00\n        /* \"@prb/math/src/Common.sol\":19755:19756  0 */\n      dup1\n        /* \"@prb/math/src/Common.sol\":19751:19757  not(0) */\n      not\n        /* \"@prb/math/src/Common.sol\":19748:19749  y */\n      dup5\n        /* \"@prb/math/src/Common.sol\":19745:19746  x */\n      dup7\n        /* \"@prb/math/src/Common.sol\":19738:19758  mulmod(x, y, not(0)) */\n      mulmod\n        /* \"@prb/math/src/Common.sol\":19783:19784  y */\n      dup5\n        /* \"@prb/math/src/Common.sol\":19780:19781  x */\n      dup7\n        /* \"@prb/math/src/Common.sol\":19776:19785  mul(x, y) */\n      mul\n        /* \"@prb/math/src/Common.sol\":19767:19785  prod0 := mul(x, y) */\n      swap3\n      pop\n        /* \"@prb/math/src/Common.sol\":19830:19835  prod0 */\n      dup3\n        /* \"@prb/math/src/Common.sol\":19826:19828  mm */\n      dup2\n        /* \"@prb/math/src/Common.sol\":19823:19836  lt(mm, prod0) */\n      lt\n        /* \"@prb/math/src/Common.sol\":19815:19820  prod0 */\n      dup4\n        /* \"@prb/math/src/Common.sol\":19811:19813  mm */\n      dup3\n        /* \"@prb/math/src/Common.sol\":19807:19821  sub(mm, prod0) */\n      sub\n        /* \"@prb/math/src/Common.sol\":19803:19837  sub(sub(mm, prod0), lt(mm, prod0)) */\n      sub\n        /* \"@prb/math/src/Common.sol\":19794:19837  prod1 := sub(sub(mm, prod0), lt(mm, prod0)) */\n      swap2\n      pop\n        /* \"@prb/math/src/Common.sol\":19718:19843  {... */\n      pop\n        /* \"@prb/math/src/Common.sol\":19862:19863  0 */\n      0x00\n        /* \"@prb/math/src/Common.sol\":19853:19858  prod1 */\n      dup2\n        /* \"@prb/math/src/Common.sol\":19853:19863  prod1 == 0 */\n      sub\n        /* \"@prb/math/src/Common.sol\":19849:19935  if (prod1 == 0) {... */\n      tag_72\n      jumpi\n        /* \"@prb/math/src/Common.sol\":1504:1508  1e18 */\n      0x0de0b6b3a7640000\n        /* \"@prb/math/src/Common.sol\":19906:19911  prod0 */\n      dup3\n        /* \"@prb/math/src/Common.sol\":19906:19918  prod0 / UNIT */\n      dup2\n      tag_73\n      jumpi\n      tag_74\n      tag_66\n      jump\t// in\n    tag_74:\n    tag_73:\n      div\n        /* \"@prb/math/src/Common.sol\":19899:19918  return prod0 / UNIT */\n      swap3\n      pop\n      pop\n      pop\n      jump(tag_71)\n        /* \"@prb/math/src/Common.sol\":19849:19935  if (prod1 == 0) {... */\n    tag_72:\n        /* \"@prb/math/src/Common.sol\":1504:1508  1e18 */\n      0x0de0b6b3a7640000\n        /* \"@prb/math/src/Common.sol\":19945:19950  prod1 */\n      dup2\n        /* \"@prb/math/src/Common.sol\":19945:19958  prod1 >= UNIT */\n      lt\n        /* \"@prb/math/src/Common.sol\":19941:20015  if (prod1 >= UNIT) {... */\n      tag_75\n      jumpi\n        /* \"@prb/math/src/Common.sol\":20003:20004  x */\n      dup5\n        /* \"@prb/math/src/Common.sol\":20006:20007  y */\n      dup5\n        /* \"@prb/math/src/Common.sol\":19977:20008  PRBMath_MulDiv18_Overflow(x, y) */\n      mload(0x40)\n      0x5173648d00000000000000000000000000000000000000000000000000000000\n      dup2\n      mstore\n      0x04\n      add\n      tag_76\n      swap3\n      swap2\n      swap1\n      tag_77\n      jump\t// in\n    tag_76:\n      mload(0x40)\n      dup1\n      swap2\n      sub\n      swap1\n      revert\n        /* \"@prb/math/src/Common.sol\":19941:20015  if (prod1 >= UNIT) {... */\n    tag_75:\n        /* \"@prb/math/src/Common.sol\":20021:20038  uint256 remainder */\n      0x00\n        /* \"@prb/math/src/Common.sol\":20105:20109  UNIT */\n      0x0de0b6b3a7640000\n        /* \"@prb/math/src/Common.sol\":20102:20103  y */\n      dup6\n        /* \"@prb/math/src/Common.sol\":20099:20100  x */\n      dup8\n        /* \"@prb/math/src/Common.sol\":20092:20110  mulmod(x, y, UNIT) */\n      mulmod\n        /* \"@prb/math/src/Common.sol\":20079:20110  remainder := mulmod(x, y, UNIT) */\n      swap1\n      pop\n        /* \"@prb/math/src/Common.sol\":20364:20376  UNIT_INVERSE */\n      0xaccb18165bd6fe31ae1cf318dc5b51eee0e1ba569b88cd74c1773b91fac10669\n        /* \"@prb/math/src/Common.sol\":20325:20326  1 */\n      0x01\n        /* \"@prb/math/src/Common.sol\":20312:20322  UNIT_LPOTD */\n      0x040000\n        /* \"@prb/math/src/Common.sol\":20299:20309  UNIT_LPOTD */\n      dup1\n        /* \"@prb/math/src/Common.sol\":20296:20297  0 */\n      0x00\n        /* \"@prb/math/src/Common.sol\":20292:20310  sub(0, UNIT_LPOTD) */\n      sub\n        /* \"@prb/math/src/Common.sol\":20288:20323  div(sub(0, UNIT_LPOTD), UNIT_LPOTD) */\n      div\n        /* \"@prb/math/src/Common.sol\":20284:20327  add(div(sub(0, UNIT_LPOTD), UNIT_LPOTD), 1) */\n      add\n        /* \"@prb/math/src/Common.sol\":20275:20280  prod0 */\n      dup5\n        /* \"@prb/math/src/Common.sol\":20264:20273  remainder */\n      dup4\n        /* \"@prb/math/src/Common.sol\":20261:20281  gt(remainder, prod0) */\n      gt\n        /* \"@prb/math/src/Common.sol\":20254:20259  prod1 */\n      dup5\n        /* \"@prb/math/src/Common.sol\":20250:20282  sub(prod1, gt(remainder, prod0)) */\n      sub\n        /* \"@prb/math/src/Common.sol\":20246:20328  mul(sub(prod1, gt(remainder, prod0)), add(div(sub(0, UNIT_LPOTD), UNIT_LPOTD), 1)) */\n      mul\n        /* \"@prb/math/src/Common.sol\":20213:20223  UNIT_LPOTD */\n      0x040000\n        /* \"@prb/math/src/Common.sol\":20201:20210  remainder */\n      dup4\n        /* \"@prb/math/src/Common.sol\":20194:20199  prod0 */\n      dup7\n        /* \"@prb/math/src/Common.sol\":20190:20211  sub(prod0, remainder) */\n      sub\n        /* \"@prb/math/src/Common.sol\":20186:20224  div(sub(prod0, remainder), UNIT_LPOTD) */\n      div\n        /* \"@prb/math/src/Common.sol\":20162:20346  or(... */\n      or\n        /* \"@prb/math/src/Common.sol\":20141:20390  mul(... */\n      mul\n        /* \"@prb/math/src/Common.sol\":20119:20390  result :=... */\n      swap4\n      pop\n        /* \"@prb/math/src/Common.sol\":20069:20396  {... */\n      pop\n      pop\n      pop\n        /* \"@prb/math/src/Common.sol\":19579:20398  function mulDiv18(uint256 x, uint256 y) pure returns (uint256 result) {... */\n    tag_71:\n      swap3\n      swap2\n      pop\n      pop\n      jump\t// out\n        /* \"#utility.yul\":88:205   */\n    tag_79:\n        /* \"#utility.yul\":197:198   */\n      0x00\n        /* \"#utility.yul\":194:195   */\n      dup1\n        /* \"#utility.yul\":187:199   */\n      revert\n        /* \"#utility.yul\":334:411   */\n    tag_81:\n        /* \"#utility.yul\":371:378   */\n      0x00\n        /* \"#utility.yul\":400:405   */\n      dup2\n        /* \"#utility.yul\":389:405   */\n      swap1\n      pop\n        /* \"#utility.yul\":334:411   */\n      swap2\n      swap1\n      pop\n      jump\t// out\n        /* \"#utility.yul\":417:539   */\n    tag_82:\n        /* \"#utility.yul\":490:514   */\n      tag_97\n        /* \"#utility.yul\":508:513   */\n      dup2\n        /* \"#utility.yul\":490:514   */\n      tag_81\n      jump\t// in\n    tag_97:\n        /* \"#utility.yul\":483:488   */\n      dup2\n        /* \"#utility.yul\":480:515   */\n      eq\n        /* \"#utility.yul\":470:533   */\n      tag_98\n      jumpi\n        /* \"#utility.yul\":529:530   */\n      0x00\n        /* \"#utility.yul\":526:527   */\n      dup1\n        /* \"#utility.yul\":519:531   */\n      revert\n        /* \"#utility.yul\":470:533   */\n    tag_98:\n        /* \"#utility.yul\":417:539   */\n      pop\n      jump\t// out\n        /* \"#utility.yul\":545:684   */\n    tag_83:\n        /* \"#utility.yul\":591:596   */\n      0x00\n        /* \"#utility.yul\":629:635   */\n      dup2\n        /* \"#utility.yul\":616:636   */\n      calldataload\n        /* \"#utility.yul\":607:636   */\n      swap1\n      pop\n        /* \"#utility.yul\":645:678   */\n      tag_100\n        /* \"#utility.yul\":672:677   */\n      dup2\n        /* \"#utility.yul\":645:678   */\n      tag_82\n      jump\t// in\n    tag_100:\n        /* \"#utility.yul\":545:684   */\n      swap3\n      swap2\n      pop\n      pop\n      jump\t// out\n        /* \"#utility.yul\":690:1019   */\n    tag_9:\n        /* \"#utility.yul\":749:755   */\n      0x00\n        /* \"#utility.yul\":798:800   */\n      0x20\n        /* \"#utility.yul\":786:795   */\n      dup3\n        /* \"#utility.yul\":777:784   */\n      dup5\n        /* \"#utility.yul\":773:796   */\n      sub\n        /* \"#utility.yul\":769:801   */\n      slt\n        /* \"#utility.yul\":766:885   */\n      iszero\n      tag_102\n      jumpi\n        /* \"#utility.yul\":804:883   */\n      tag_103\n      tag_79\n      jump\t// in\n    tag_103:\n        /* \"#utility.yul\":766:885   */\n    tag_102:\n        /* \"#utility.yul\":924:925   */\n      0x00\n        /* \"#utility.yul\":949:1002   */\n      tag_104\n        /* \"#utility.yul\":994:1001   */\n      dup5\n        /* \"#utility.yul\":985:991   */\n      dup3\n        /* \"#utility.yul\":974:983   */\n      dup6\n        /* \"#utility.yul\":970:992   */\n      add\n        /* \"#utility.yul\":949:1002   */\n      tag_83\n      jump\t// in\n    tag_104:\n        /* \"#utility.yul\":939:1002   */\n      swap2\n      pop\n        /* \"#utility.yul\":895:1012   */\n      pop\n        /* \"#utility.yul\":690:1019   */\n      swap3\n      swap2\n      pop\n      pop\n      jump\t// out\n        /* \"#utility.yul\":1025:1085   */\n    tag_84:\n        /* \"#utility.yul\":1053:1056   */\n      0x00\n        /* \"#utility.yul\":1074:1079   */\n      dup2\n        /* \"#utility.yul\":1067:1079   */\n      swap1\n      pop\n        /* \"#utility.yul\":1025:1085   */\n      swap2\n      swap1\n      pop\n      jump\t// out\n        /* \"#utility.yul\":1091:1233   */\n    tag_85:\n        /* \"#utility.yul\":1141:1150   */\n      0x00\n        /* \"#utility.yul\":1174:1227   */\n      tag_107\n        /* \"#utility.yul\":1192:1226   */\n      tag_108\n        /* \"#utility.yul\":1201:1225   */\n      tag_109\n        /* \"#utility.yul\":1219:1224   */\n      dup5\n        /* \"#utility.yul\":1201:1225   */\n      tag_81\n      jump\t// in\n    tag_109:\n        /* \"#utility.yul\":1192:1226   */\n      tag_84\n      jump\t// in\n    tag_108:\n        /* \"#utility.yul\":1174:1227   */\n      tag_81\n      jump\t// in\n    tag_107:\n        /* \"#utility.yul\":1161:1227   */\n      swap1\n      pop\n        /* \"#utility.yul\":1091:1233   */\n      swap2\n      swap1\n      pop\n      jump\t// out\n        /* \"#utility.yul\":1239:1398   */\n    tag_86:\n        /* \"#utility.yul\":1354:1391   */\n      tag_111\n        /* \"#utility.yul\":1385:1390   */\n      dup2\n        /* \"#utility.yul\":1354:1391   */\n      tag_85\n      jump\t// in\n    tag_111:\n        /* \"#utility.yul\":1349:1352   */\n      dup3\n        /* \"#utility.yul\":1342:1392   */\n      mstore\n        /* \"#utility.yul\":1239:1398   */\n      pop\n      pop\n      jump\t// out\n        /* \"#utility.yul\":1404:1682   */\n    tag_12:\n        /* \"#utility.yul\":1525:1529   */\n      0x00\n        /* \"#utility.yul\":1563:1565   */\n      0x20\n        /* \"#utility.yul\":1552:1561   */\n      dup3\n        /* \"#utility.yul\":1548:1566   */\n      add\n        /* \"#utility.yul\":1540:1566   */\n      swap1\n      pop\n        /* \"#utility.yul\":1576:1675   */\n      tag_113\n        /* \"#utility.yul\":1672:1673   */\n      0x00\n        /* \"#utility.yul\":1661:1670   */\n      dup4\n        /* \"#utility.yul\":1657:1674   */\n      add\n        /* \"#utility.yul\":1648:1654   */\n      dup5\n        /* \"#utility.yul\":1576:1675   */\n      tag_86\n      jump\t// in\n    tag_113:\n        /* \"#utility.yul\":1404:1682   */\n      swap3\n      swap2\n      pop\n      pop\n      jump\t// out\n        /* \"#utility.yul\":1688:1838   */\n    tag_87:\n        /* \"#utility.yul\":1789:1813   */\n      tag_115\n        /* \"#utility.yul\":1807:1812   */\n      dup2\n        /* \"#utility.yul\":1789:1813   */\n      tag_81\n      jump\t// in\n    tag_115:\n        /* \"#utility.yul\":1782:1787   */\n      dup2\n        /* \"#utility.yul\":1779:1814   */\n      eq\n        /* \"#utility.yul\":1769:1832   */\n      tag_116\n      jumpi\n        /* \"#utility.yul\":1828:1829   */\n      0x00\n        /* \"#utility.yul\":1825:1826   */\n      dup1\n        /* \"#utility.yul\":1818:1830   */\n      revert\n        /* \"#utility.yul\":1769:1832   */\n    tag_116:\n        /* \"#utility.yul\":1688:1838   */\n      pop\n      jump\t// out\n        /* \"#utility.yul\":1844:2039   */\n    tag_88:\n        /* \"#utility.yul\":1918:1923   */\n      0x00\n        /* \"#utility.yul\":1956:1962   */\n      dup2\n        /* \"#utility.yul\":1943:1963   */\n      calldataload\n        /* \"#utility.yul\":1934:1963   */\n      swap1\n      pop\n        /* \"#utility.yul\":1972:2033   */\n      tag_118\n        /* \"#utility.yul\":2027:2032   */\n      dup2\n        /* \"#utility.yul\":1972:2033   */\n      tag_87\n      jump\t// in\n    tag_118:\n        /* \"#utility.yul\":1844:2039   */\n      swap3\n      swap2\n      pop\n      pop\n      jump\t// out\n        /* \"#utility.yul\":2045:2430   */\n    tag_15:\n        /* \"#utility.yul\":2132:2138   */\n      0x00\n        /* \"#utility.yul\":2181:2183   */\n      0x20\n        /* \"#utility.yul\":2169:2178   */\n      dup3\n        /* \"#utility.yul\":2160:2167   */\n      dup5\n        /* \"#utility.yul\":2156:2179   */\n      sub\n        /* \"#utility.yul\":2152:2184   */\n      slt\n        /* \"#utility.yul\":2149:2268   */\n      iszero\n      tag_120\n      jumpi\n        /* \"#utility.yul\":2187:2266   */\n      tag_121\n      tag_79\n      jump\t// in\n    tag_121:\n        /* \"#utility.yul\":2149:2268   */\n    tag_120:\n        /* \"#utility.yul\":2307:2308   */\n      0x00\n        /* \"#utility.yul\":2332:2413   */\n      tag_122\n        /* \"#utility.yul\":2405:2412   */\n      dup5\n        /* \"#utility.yul\":2396:2402   */\n      dup3\n        /* \"#utility.yul\":2385:2394   */\n      dup6\n        /* \"#utility.yul\":2381:2403   */\n      add\n        /* \"#utility.yul\":2332:2413   */\n      tag_88\n      jump\t// in\n    tag_122:\n        /* \"#utility.yul\":2322:2413   */\n      swap2\n      pop\n        /* \"#utility.yul\":2278:2423   */\n      pop\n        /* \"#utility.yul\":2045:2430   */\n      swap3\n      swap2\n      pop\n      pop\n      jump\t// out\n        /* \"#utility.yul\":2436:2554   */\n    tag_89:\n        /* \"#utility.yul\":2523:2547   */\n      tag_124\n        /* \"#utility.yul\":2541:2546   */\n      dup2\n        /* \"#utility.yul\":2523:2547   */\n      tag_81\n      jump\t// in\n    tag_124:\n        /* \"#utility.yul\":2518:2521   */\n      dup3\n        /* \"#utility.yul\":2511:2548   */\n      mstore\n        /* \"#utility.yul\":2436:2554   */\n      pop\n      pop\n      jump\t// out\n        /* \"#utility.yul\":2560:2782   */\n    tag_18:\n        /* \"#utility.yul\":2653:2657   */\n      0x00\n        /* \"#utility.yul\":2691:2693   */\n      0x20\n        /* \"#utility.yul\":2680:2689   */\n      dup3\n        /* \"#utility.yul\":2676:2694   */\n      add\n        /* \"#utility.yul\":2668:2694   */\n      swap1\n      pop\n        /* \"#utility.yul\":2704:2775   */\n      tag_126\n        /* \"#utility.yul\":2772:2773   */\n      0x00\n        /* \"#utility.yul\":2761:2770   */\n      dup4\n        /* \"#utility.yul\":2757:2774   */\n      add\n        /* \"#utility.yul\":2748:2754   */\n      dup5\n        /* \"#utility.yul\":2704:2775   */\n      tag_89\n      jump\t// in\n    tag_126:\n        /* \"#utility.yul\":2560:2782   */\n      swap3\n      swap2\n      pop\n      pop\n      jump\t// out\n        /* \"#utility.yul\":2788:3374   */\n    tag_21:\n        /* \"#utility.yul\":2912:2918   */\n      0x00\n        /* \"#utility.yul\":2920:2926   */\n      dup1\n        /* \"#utility.yul\":2969:2971   */\n      0x40\n        /* \"#utility.yul\":2957:2966   */\n      dup4\n        /* \"#utility.yul\":2948:2955   */\n      dup6\n        /* \"#utility.yul\":2944:2967   */\n      sub\n        /* \"#utility.yul\":2940:2972   */\n      slt\n        /* \"#utility.yul\":2937:3056   */\n      iszero\n      tag_128\n      jumpi\n        /* \"#utility.yul\":2975:3054   */\n      tag_129\n      tag_79\n      jump\t// in\n    tag_129:\n        /* \"#utility.yul\":2937:3056   */\n    tag_128:\n        /* \"#utility.yul\":3095:3096   */\n      0x00\n        /* \"#utility.yul\":3120:3201   */\n      tag_130\n        /* \"#utility.yul\":3193:3200   */\n      dup6\n        /* \"#utility.yul\":3184:3190   */\n      dup3\n        /* \"#utility.yul\":3173:3182   */\n      dup7\n        /* \"#utility.yul\":3169:3191   */\n      add\n        /* \"#utility.yul\":3120:3201   */\n      tag_88\n      jump\t// in\n    tag_130:\n        /* \"#utility.yul\":3110:3201   */\n      swap3\n      pop\n        /* \"#utility.yul\":3066:3211   */\n      pop\n        /* \"#utility.yul\":3250:3252   */\n      0x20\n        /* \"#utility.yul\":3276:3357   */\n      tag_131\n        /* \"#utility.yul\":3349:3356   */\n      dup6\n        /* \"#utility.yul\":3340:3346   */\n      dup3\n        /* \"#utility.yul\":3329:3338   */\n      dup7\n        /* \"#utility.yul\":3325:3347   */\n      add\n        /* \"#utility.yul\":3276:3357   */\n      tag_88\n      jump\t// in\n    tag_131:\n        /* \"#utility.yul\":3266:3357   */\n      swap2\n      pop\n        /* \"#utility.yul\":3221:3367   */\n      pop\n        /* \"#utility.yul\":2788:3374   */\n      swap3\n      pop\n      swap3\n      swap1\n      pop\n      jump\t// out\n        /* \"#utility.yul\":3380:3560   */\n    tag_66:\n        /* \"#utility.yul\":3428:3505   */\n      0x4e487b7100000000000000000000000000000000000000000000000000000000\n        /* \"#utility.yul\":3425:3426   */\n      0x00\n        /* \"#utility.yul\":3418:3506   */\n      mstore\n        /* \"#utility.yul\":3525:3529   */\n      0x12\n        /* \"#utility.yul\":3522:3523   */\n      0x04\n        /* \"#utility.yul\":3515:3530   */\n      mstore\n        /* \"#utility.yul\":3549:3553   */\n      0x24\n        /* \"#utility.yul\":3546:3547   */\n      0x00\n        /* \"#utility.yul\":3539:3554   */\n      revert\n        /* \"#utility.yul\":3752:3937   */\n    tag_42:\n        /* \"#utility.yul\":3792:3793   */\n      0x00\n        /* \"#utility.yul\":3809:3829   */\n      tag_135\n        /* \"#utility.yul\":3827:3828   */\n      dup3\n        /* \"#utility.yul\":3809:3829   */\n      tag_81\n      jump\t// in\n    tag_135:\n        /* \"#utility.yul\":3804:3829   */\n      swap2\n      pop\n        /* \"#utility.yul\":3843:3863   */\n      tag_136\n        /* \"#utility.yul\":3861:3862   */\n      dup4\n        /* \"#utility.yul\":3843:3863   */\n      tag_81\n      jump\t// in\n    tag_136:\n        /* \"#utility.yul\":3838:3863   */\n      swap3\n      pop\n        /* \"#utility.yul\":3882:3883   */\n      dup3\n        /* \"#utility.yul\":3872:3907   */\n      tag_137\n      jumpi\n        /* \"#utility.yul\":3887:3905   */\n      tag_138\n      tag_66\n      jump\t// in\n    tag_138:\n        /* \"#utility.yul\":3872:3907   */\n    tag_137:\n        /* \"#utility.yul\":3929:3930   */\n      dup3\n        /* \"#utility.yul\":3926:3927   */\n      dup3\n        /* \"#utility.yul\":3922:3931   */\n      div\n        /* \"#utility.yul\":3917:3931   */\n      swap1\n      pop\n        /* \"#utility.yul\":3752:3937   */\n      swap3\n      swap2\n      pop\n      pop\n      jump\t// out\n        /* \"#utility.yul\":3943:4385   */\n    tag_69:\n        /* \"#utility.yul\":4092:4096   */\n      0x00\n        /* \"#utility.yul\":4130:4132   */\n      0x60\n        /* \"#utility.yul\":4119:4128   */\n      dup3\n        /* \"#utility.yul\":4115:4133   */\n      add\n        /* \"#utility.yul\":4107:4133   */\n      swap1\n      pop\n        /* \"#utility.yul\":4143:4214   */\n      tag_140\n        /* \"#utility.yul\":4211:4212   */\n      0x00\n        /* \"#utility.yul\":4200:4209   */\n      dup4\n        /* \"#utility.yul\":4196:4213   */\n      add\n        /* \"#utility.yul\":4187:4193   */\n      dup7\n        /* \"#utility.yul\":4143:4214   */\n      tag_89\n      jump\t// in\n    tag_140:\n        /* \"#utility.yul\":4224:4296   */\n      tag_141\n        /* \"#utility.yul\":4292:4294   */\n      0x20\n        /* \"#utility.yul\":4281:4290   */\n      dup4\n        /* \"#utility.yul\":4277:4295   */\n      add\n        /* \"#utility.yul\":4268:4274   */\n      dup6\n        /* \"#utility.yul\":4224:4296   */\n      tag_89\n      jump\t// in\n    tag_141:\n        /* \"#utility.yul\":4306:4378   */\n      tag_142\n        /* \"#utility.yul\":4374:4376   */\n      0x40\n        /* \"#utility.yul\":4363:4372   */\n      dup4\n        /* \"#utility.yul\":4359:4377   */\n      add\n        /* \"#utility.yul\":4350:4356   */\n      dup5\n        /* \"#utility.yul\":4306:4378   */\n      tag_89\n      jump\t// in\n    tag_142:\n        /* \"#utility.yul\":3943:4385   */\n      swap5\n      swap4\n      pop\n      pop\n      pop\n      pop\n      jump\t// out\n        /* \"#utility.yul\":4391:4723   */\n    tag_77:\n        /* \"#utility.yul\":4512:4516   */\n      0x00\n        /* \"#utility.yul\":4550:4552   */\n      0x40\n        /* \"#utility.yul\":4539:4548   */\n      dup3\n        /* \"#utility.yul\":4535:4553   */\n      add\n        /* \"#utility.yul\":4527:4553   */\n      swap1\n      pop\n        /* \"#utility.yul\":4563:4634   */\n      tag_144\n        /* \"#utility.yul\":4631:4632   */\n      0x00\n        /* \"#utility.yul\":4620:4629   */\n      dup4\n        /* \"#utility.yul\":4616:4633   */\n      add\n        /* \"#utility.yul\":4607:4613   */\n      dup6\n        /* \"#utility.yul\":4563:4634   */\n      tag_89\n      jump\t// in\n    tag_144:\n        /* \"#utility.yul\":4644:4716   */\n      tag_145\n        /* \"#utility.yul\":4712:4714   */\n      0x20\n        /* \"#utility.yul\":4701:4710   */\n      dup4\n        /* \"#utility.yul\":4697:4715   */\n      add\n        /* \"#utility.yul\":4688:4694   */\n      dup5\n        /* \"#utility.yul\":4644:4716   */\n      tag_89\n      jump\t// in\n    tag_145:\n        /* \"#utility.yul\":4391:4723   */\n      swap4\n      swap3\n      pop\n      pop\n      pop\n      jump\t// out\n\n    auxdata: 0xa264697066735822122028ff9ead36c6e8f917b66483ff55a39302a14dbfedb266818fd5158ac47ff52664736f6c63430008180033\n}\n",
				"bytecode": {
					"linkReferences": {},
					"object": "608060405234801561000f575f80fd5b506106d58061001d5f395ff3fe608060405234801561000f575f80fd5b506004361061004a575f3560e01c80637df5a2eb1461004e57806398f0b6121461007e578063a391c15b146100ae578063c8a4ac9c146100de575b5f80fd5b610068600480360381019061006391906104ae565b61010e565b6040516100759190610512565b60405180910390f35b61009860048036038101906100939190610555565b61011f565b6040516100a5919061058f565b60405180910390f35b6100c860048036038101906100c391906105a8565b610130565b6040516100d59190610512565b60405180910390f35b6100f860048036038101906100f391906105a8565b61014c565b6040516101059190610512565b60405180910390f35b5f61011882610168565b9050919050565b5f610129826101f3565b9050919050565b5f610144828461020f90919063ffffffff16565b905092915050565b5f610160828461024390919063ffffffff16565b905092915050565b5f670de0b6b3a76400007fffffffffffffffffffffffffffffffffffffffffffffffffffffffffffffffff61019d9190610613565b8211156101e157816040517f1cd951a70000000000000000000000000000000000000000000000000000000081526004016101d8919061058f565b60405180910390fd5b670de0b6b3a764000082029050919050565b5f670de0b6b3a7640000826102089190610613565b9050919050565b5f61023b61023661021f8561026e565b670de0b6b3a76400006102318661026e565b610277565b610389565b905092915050565b5f6102666102616102538561026e565b61025c8561026e565b610392565b610389565b905092915050565b5f819050919050565b5f805f80198587098587029250828110838203039150505f81036102af578382816102a5576102a46105e6565b5b0492505050610382565b8381106102f7578585856040517f63a057780000000000000000000000000000000000000000000000000000000081526004016102ee93929190610643565b60405180910390fd5b5f8486880990508281118203915080830392505f6001861901861690505f81870496508185049450600182835f0304019050808402851794505f60028860030218905080880260020381029050808802600203810290508088026002038102905080880260020381029050808802600203810290508088026002038102905080860296505050505050505b9392505050565b5f819050919050565b5f805f80198486098486029250828110838203039150505f81036103d257670de0b6b3a764000082816103c8576103c76105e6565b5b0492505050610471565b670de0b6b3a764000081106104205784846040517f5173648d000000000000000000000000000000000000000000000000000000008152600401610417929190610678565b60405180910390fd5b5f670de0b6b3a764000085870990507faccb18165bd6fe31ae1cf318dc5b51eee0e1ba569b88cd74c1773b91fac10669600162040000805f0304018483118403026204000083860304170293505050505b92915050565b5f80fd5b5f819050919050565b61048d8161047b565b8114610497575f80fd5b50565b5f813590506104a881610484565b92915050565b5f602082840312156104c3576104c2610477565b5b5f6104d08482850161049a565b91505092915050565b5f819050919050565b5f6104fc6104f76104f28461047b565b6104d9565b61047b565b9050919050565b61050c816104e2565b82525050565b5f6020820190506105255f830184610503565b92915050565b6105348161047b565b811461053e575f80fd5b50565b5f8135905061054f8161052b565b92915050565b5f6020828403121561056a57610569610477565b5b5f61057784828501610541565b91505092915050565b6105898161047b565b82525050565b5f6020820190506105a25f830184610580565b92915050565b5f80604083850312156105be576105bd610477565b5b5f6105cb85828601610541565b92505060206105dc85828601610541565b9150509250929050565b7f4e487b71000000000000000000000000000000000000000000000000000000005f52601260045260245ffd5b5f61061d8261047b565b91506106288361047b565b925082610638576106376105e6565b5b828204905092915050565b5f6060820190506106565f830186610580565b6106636020830185610580565b6106706040830184610580565b949350505050565b5f60408201905061068b5f830185610580565b6106986020830184610580565b939250505056fea264697066735822122028ff9ead36c6e8f917b66483ff55a39302a14dbfedb266818fd5158ac47ff52664736f6c63430008180033",
					"opcodes": "PUSH1 0x80 PUSH1 0x40 MSTORE CALLVALUE DUP1 ISZERO PUSH2 0xF JUMPI PUSH0 DUP1 REVERT JUMPDEST POP PUSH2 0x6D5 DUP1 PUSH2 0x1D PUSH0 CODECOPY PUSH0 RETURN INVALID PUSH1 0x80 PUSH1 0x40 MSTORE CALLVALUE DUP1 ISZERO PUSH2 0xF JUMPI PUSH0 DUP1 REVERT JUMPDEST POP PUSH1 0x4 CALLDATASIZE LT PUSH2 0x4A JUMPI PUSH0 CALLDATALOAD PUSH1 0xE0 SHR DUP1 PUSH4 0x7DF5A2EB EQ PUSH2 0x4E JUMPI DUP1 PUSH4 0x98F0B612 EQ PUSH2 0x7E JUMPI DUP1 PUSH4 0xA391C15B EQ PUSH2 0xAE JUMPI DUP1 PUSH4 0xC8A4AC9C EQ PUSH2 0xDE JUMPI JUMPDEST PUSH0 DUP1 REVERT JUMPDEST PUSH2 0x68 PUSH1 0x4 DUP1 CALLDATASIZE SUB DUP2 ADD SWAP1 PUSH2 0x63 SWAP2 SWAP1 PUSH2 0x4AE JUMP JUMPDEST PUSH2 0x10E JUMP JUMPDEST PUSH1 0x40 MLOAD PUSH2 0x75 SWAP2 SWAP1 PUSH2 0x512 JUMP JUMPDEST PUSH1 0x40 MLOAD DUP1 SWAP2 SUB SWAP1 RETURN JUMPDEST PUSH2 0x98 PUSH1 0x4 DUP1 CALLDATASIZE SUB DUP2 ADD SWAP1 PUSH2 0x93 SWAP2 SWAP1 PUSH2 0x555 JUMP JUMPDEST PUSH2 0x11F JUMP JUMPDEST PUSH1 0x40 MLOAD PUSH2 0xA5 SWAP2 SWAP1 PUSH2 0x58F JUMP JUMPDEST PUSH1 0x40 MLOAD DUP1 SWAP2 SUB SWAP1 RETURN JUMPDEST PUSH2 0xC8 PUSH1 0x4 DUP1 CALLDATASIZE SUB DUP2 ADD SWAP1 PUSH2 0xC3 SWAP2 SWAP1 PUSH2 0x5A8 JUMP JUMPDEST PUSH2 0x130 JUMP JUMPDEST PUSH1 0x40 MLOAD PUSH2 0xD5 SWAP2 SWAP1 PUSH2 0x512 JUMP JUMPDEST PUSH1 0x40 MLOAD DUP1 SWAP2 SUB SWAP1 RETURN JUMPDEST PUSH2 0xF8 PUSH1 0x4 DUP1 CALLDATASIZE SUB DUP2 ADD SWAP1 PUSH2 0xF3 SWAP2 SWAP1 PUSH2 0x5A8 JUMP JUMPDEST PUSH2 0x14C JUMP JUMPDEST PUSH1 0x40 MLOAD PUSH2 0x105 SWAP2 SWAP1 PUSH2 0x512 JUMP JUMPDEST PUSH1 0x40 MLOAD DUP1 SWAP2 SUB SWAP1 RETURN JUMPDEST PUSH0 PUSH2 0x118 DUP3 PUSH2 0x168 JUMP JUMPDEST SWAP1 POP SWAP2 SWAP1 POP JUMP JUMPDEST PUSH0 PUSH2 0x129 DUP3 PUSH2 0x1F3 JUMP JUMPDEST SWAP1 POP SWAP2 SWAP1 POP JUMP JUMPDEST PUSH0 PUSH2 0x144 DUP3 DUP5 PUSH2 0x20F SWAP1 SWAP2 SWAP1 PUSH4 0xFFFFFFFF AND JUMP JUMPDEST SWAP1 POP SWAP3 SWAP2 POP POP JUMP JUMPDEST PUSH0 PUSH2 0x160 DUP3 DUP5 PUSH2 0x243 SWAP1 SWAP2 SWAP1 PUSH4 0xFFFFFFFF AND JUMP JUMPDEST SWAP1 POP SWAP3 SWAP2 POP POP JUMP JUMPDEST PUSH0 PUSH8 0xDE0B6B3A7640000 PUSH32 0xFFFFFFFFFFFFFFFFFFFFFFFFFFFFFFFFFFFFFFFFFFFFFFFFFFFFFFFFFFFFFFFF PUSH2 0x19D SWAP2 SWAP1 PUSH2 0x613 JUMP JUMPDEST DUP3 GT ISZERO PUSH2 0x1E1 JUMPI DUP2 PUSH1 0x40 MLOAD PUSH32 0x1CD951A700000000000000000000000000000000000000000000000000000000 DUP2 MSTORE PUSH1 0x4 ADD PUSH2 0x1D8 SWAP2 SWAP1 PUSH2 0x58F JUMP JUMPDEST PUSH1 0x40 MLOAD DUP1 SWAP2 SUB SWAP1 REVERT JUMPDEST PUSH8 0xDE0B6B3A7640000 DUP3 MUL SWAP1 POP SWAP2 SWAP1 POP JUMP JUMPDEST PUSH0 PUSH8 0xDE0B6B3A7640000 DUP3 PUSH2 0x208 SWAP2 SWAP1 PUSH2 0x613 JUMP JUMPDEST SWAP1 POP SWAP2 SWAP1 POP JUMP JUMPDEST PUSH0 PUSH2 0x23B PUSH2 0x236 PUSH2 0x21F DUP6 PUSH2 0x26E JUMP JUMPDEST PUSH8 0xDE0B6B3A7640000 PUSH2 0x231 DUP7 PUSH2 0x26E JUMP JUMPDEST PUSH2 0x277 JUMP JUMPDEST PUSH2 0x389 JUMP JUMPDEST SWAP1 POP SWAP3 SWAP2 POP POP JUMP JUMPDEST PUSH0 PUSH2 0x266 PUSH2 0x261 PUSH2 0x253 DUP6 PUSH2 0x26E JUMP JUMPDEST PUSH2 0x25C DUP6 PUSH2 0x26E JUMP JUMPDEST PUSH2 0x392 JUMP JUMPDEST PUSH2 0x389 JUMP JUMPDEST SWAP1 POP SWAP3 SWAP2 POP POP JUMP JUMPDEST PUSH0 DUP2 SWAP1 POP SWAP2 SWAP1 POP JUMP JUMPDEST PUSH0 DUP1 PUSH0 DUP1 NOT DUP6 DUP8 MULMOD DUP6 DUP8 MUL SWAP3 POP DUP3 DUP2 LT DUP4 DUP3 SUB SUB SWAP2 POP POP PUSH0 DUP2 SUB PUSH2 0x2AF JUMPI DUP4 DUP3 DUP2 PUSH2 0x2A5 JUMPI PUSH2 0x2A4 PUSH2 0x5E6 JUMP JUMPDEST JUMPDEST DIV SWAP3 POP POP POP PUSH2 0x382 JUMP JUMPDEST DUP4 DUP2 LT PUSH2 0x2F7 JUMPI DUP6 DUP6 DUP6 PUSH1 0x40 MLOAD PUSH32 0x63A0577800000000000000000000000000000000000000000000000000000000 DUP2 MSTORE PUSH1 0x4 ADD PUSH2 0x2EE SWAP4 SWAP3 SWAP2 SWAP1 PUSH2 0x643 JUMP JUMPDEST PUSH1 0x40 MLOAD DUP1 SWAP2 SUB SWAP1 REVERT JUMPDEST PUSH0 DUP5 DUP7 DUP9 MULMOD SWAP1 POP DUP3 DUP2 GT DUP3 SUB SWAP2 POP DUP1 DUP4 SUB SWAP3 POP PUSH0 PUSH1 0x1 DUP7 NOT ADD DUP7 AND SWAP1 POP PUSH0 DUP2 DUP8 DIV SWAP7 POP DUP2 DUP6 DIV SWAP5 POP PUSH1 0x1 DUP3 DUP4 PUSH0 SUB DIV ADD SWAP1 POP DUP1 DUP5 MUL DUP6 OR SWAP5 POP PUSH0 PUSH1 0x2 DUP9 PUSH1 0x3 MUL XOR SWAP1 POP DUP1 DUP9 MUL PUSH1 0x2 SUB DUP2 MUL SWAP1 POP DUP1 DUP9 MUL PUSH1 0x2 SUB DUP2 MUL SWAP1 POP DUP1 DUP9 MUL PUSH1 0x2 SUB DUP2 MUL SWAP1 POP DUP1 DUP9 MUL PUSH1 0x2 SUB DUP2 MUL SWAP1 POP DUP1 DUP9 MUL PUSH1 0x2 SUB DUP2 MUL SWAP1 POP DUP1 DUP9 MUL PUSH1 0x2 SUB DUP2 MUL SWAP1 POP DUP1 DUP7 MUL SWAP7 POP POP POP POP POP POP POP JUMPDEST SWAP4 SWAP3 POP POP POP JUMP JUMPDEST PUSH0 DUP2 SWAP1 POP SWAP2 SWAP1 POP JUMP JUMPDEST PUSH0 DUP1 PUSH0 DUP1 NOT DUP5 DUP7 MULMOD DUP5 DUP7 MUL SWAP3 POP DUP3 DUP2 LT DUP4 DUP3 SUB SUB SWAP2 POP POP PUSH0 DUP2 SUB PUSH2 0x3D2 JUMPI PUSH8 0xDE0B6B3A7640000 DUP3 DUP2 PUSH2 0x3C8 JUMPI PUSH2 0x3C7 PUSH2 0x5E6 JUMP JUMPDEST JUMPDEST DIV SWAP3 POP POP POP PUSH2 0x471 JUMP JUMPDEST PUSH8 0xDE0B6B3A7640000 DUP2 LT PUSH2 0x420 JUMPI DUP5 DUP5 PUSH1 0x40 MLOAD PUSH32 0x5173648D00000000000000000000000000000000000000000000000000000000 DUP2 MSTORE PUSH1 0x4 ADD PUSH2 0x417 SWAP3 SWAP2 SWAP1 PUSH2 0x678 JUMP JUMPDEST PUSH1 0x40 MLOAD DUP1 SWAP2 SUB SWAP1 REVERT JUMPDEST PUSH0 PUSH8 0xDE0B6B3A7640000 DUP6 DUP8 MULMOD SWAP1 POP PUSH32 0xACCB18165BD6FE31AE1CF318DC5B51EEE0E1BA569B88CD74C1773B91FAC10669 PUSH1 0x1 PUSH3 0x40000 DUP1 PUSH0 SUB DIV ADD DUP5 DUP4 GT DUP5 SUB MUL PUSH3 0x40000 DUP4 DUP7 SUB DIV OR MUL SWAP4 POP POP POP POP JUMPDEST SWAP3 SWAP2 POP POP JUMP JUMPDEST PUSH0 DUP1 REVERT JUMPDEST PUSH0 DUP2 SWAP1 POP SWAP2 SWAP1 POP JUMP JUMPDEST PUSH2 0x48D DUP2 PUSH2 0x47B JUMP JUMPDEST DUP2 EQ PUSH2 0x497 JUMPI PUSH0 DUP1 REVERT JUMPDEST POP JUMP JUMPDEST PUSH0 DUP2 CALLDATALOAD SWAP1 POP PUSH2 0x4A8 DUP2 PUSH2 0x484 JUMP JUMPDEST SWAP3 SWAP2 POP POP JUMP JUMPDEST PUSH0 PUSH1 0x20 DUP3 DUP5 SUB SLT ISZERO PUSH2 0x4C3 JUMPI PUSH2 0x4C2 PUSH2 0x477 JUMP JUMPDEST JUMPDEST PUSH0 PUSH2 0x4D0 DUP5 DUP3 DUP6 ADD PUSH2 0x49A JUMP JUMPDEST SWAP2 POP POP SWAP3 SWAP2 POP POP JUMP JUMPDEST PUSH0 DUP2 SWAP1 POP SWAP2 SWAP1 POP JUMP JUMPDEST PUSH0 PUSH2 0x4FC PUSH2 0x4F7 PUSH2 0x4F2 DUP5 PUSH2 0x47B JUMP JUMPDEST PUSH2 0x4D9 JUMP JUMPDEST PUSH2 0x47B JUMP JUMPDEST SWAP1 POP SWAP2 SWAP1 POP JUMP JUMPDEST PUSH2 0x50C DUP2 PUSH2 0x4E2 JUMP JUMPDEST DUP3 MSTORE POP POP JUMP JUMPDEST PUSH0 PUSH1 0x20 DUP3 ADD SWAP1 POP PUSH2 0x525 PUSH0 DUP4 ADD DUP5 PUSH2 0x503 JUMP JUMPDEST SWAP3 SWAP2 POP POP JUMP JUMPDEST PUSH2 0x534 DUP2 PUSH2 0x47B JUMP JUMPDEST DUP2 EQ PUSH2 0x53E JUMPI PUSH0 DUP1 REVERT JUMPDEST POP JUMP JUMPDEST PUSH0 DUP2 CALLDATALOAD SWAP1 POP PUSH2 0x54F DUP2 PUSH2 0x52B JUMP JUMPDEST SWAP3 SWAP2 POP POP JUMP JUMPDEST PUSH0 PUSH1 0x20 DUP3 DUP5 SUB SLT ISZERO PUSH2 0x56A JUMPI PUSH2 0x569 PUSH2 0x477 JUMP JUMPDEST JUMPDEST PUSH0 PUSH2 0x577 DUP5 DUP3 DUP6 ADD PUSH2 0x541 JUMP JUMPDEST SWAP2 POP POP SWAP3 SWAP2 POP POP JUMP JUMPDEST PUSH2 0x589 DUP2 PUSH2 0x47B JUMP JUMPDEST DUP3 MSTORE POP POP JUMP JUMPDEST PUSH0 PUSH1 0x20 DUP3 ADD SWAP1 POP PUSH2 0x5A2 PUSH0 DUP4 ADD DUP5 PUSH2 0x580 JUMP JUMPDEST SWAP3 SWAP2 POP POP JUMP JUMPDEST PUSH0 DUP1 PUSH1 0x40 DUP4 DUP6 SUB SLT ISZERO PUSH2 0x5BE JUMPI PUSH2 0x5BD PUSH2 0x477 JUMP JUMPDEST JUMPDEST PUSH0 PUSH2 0x5CB DUP6 DUP3 DUP7 ADD PUSH2 0x541 JUMP JUMPDEST SWAP3 POP POP PUSH1 0x20 PUSH2 0x5DC DUP6 DUP3 DUP7 ADD PUSH2 0x541 JUMP JUMPDEST SWAP2 POP POP SWAP3 POP SWAP3 SWAP1 POP JUMP JUMPDEST PUSH32 0x4E487B7100000000000000000000000000000000000000000000000000000000 PUSH0 MSTORE PUSH1 0x12 PUSH1 0x4 MSTORE PUSH1 0x24 PUSH0 REVERT JUMPDEST PUSH0 PUSH2 0x61D DUP3 PUSH2 0x47B JUMP JUMPDEST SWAP2 POP PUSH2 0x628 DUP4 PUSH2 0x47B JUMP JUMPDEST SWAP3 POP DUP3 PUSH2 0x638 JUMPI PUSH2 0x637 PUSH2 0x5E6 JUMP JUMPDEST JUMPDEST DUP3 DUP3 DIV SWAP1 POP SWAP3 SWAP2 POP POP JUMP JUMPDEST PUSH0 PUSH1 0x60 DUP3 ADD SWAP1 POP PUSH2 0x656 PUSH0 DUP4 ADD DUP7 PUSH2 0x580 JUMP JUMPDEST PUSH2 0x663 PUSH1 0x20 DUP4 ADD DUP6 PUSH2 0x580 JUMP JUMPDEST PUSH2 0x670 PUSH1 0x40 DUP4 ADD DUP5 PUSH2 0x580 JUMP JUMPDEST SWAP5 SWAP4 POP POP POP POP JUMP JUMPDEST PUSH0 PUSH1 0x40 DUP3 ADD SWAP1 POP PUSH2 0x68B PUSH0 DUP4 ADD DUP6 PUSH2 0x580 JUMP JUMPDEST PUSH2 0x698 PUSH1 0x20 DUP4 ADD DUP5 PUSH2 0x580 JUMP JUMPDEST SWAP4 SWAP3 POP POP POP JUMP INVALID LOG2 PUSH5 0x6970667358 0x22 SLT KECCAK256 0x28 SELFDESTRUCT SWAP15 0xAD CALLDATASIZE 0xC6 0xE8 0xF9 OR 0xB6 PUSH5 0x83FF55A393 MUL LOG1 0x4D 0xBF 0xED 0xB2 PUSH7 0x818FD5158AC47F CREATE2 0x26 PUSH5 0x736F6C6343 STOP ADDMOD XOR STOP CALLER "
				},
				"gasEstimates": {
					"creation": {
						"codeDepositCost": "349800",
						"executionCost": "384",
						"totalCost": "350184"
					},
					"external": {
						"change1(uint256)": "infinite",
						"change2(uint256)": "infinite",
						"div(uint256,uint256)": "infinite",
						"mul(uint256,uint256)": "infinite"
					}
				},
				"methodIdentifiers": {
					"change1(uint256)": "7df5a2eb",
					"change2(uint256)": "98f0b612",
					"div(uint256,uint256)": "a391c15b",
					"mul(uint256,uint256)": "c8a4ac9c"
				}
			},
			"storageLayout": {
				"storage": [],
				"types": null
			},
			"userdoc": {
				"errors": {
					"PRBMath_MulDiv18_Overflow(uint256,uint256)": [
						{
							"notice": "Thrown when the resultant value in {mulDiv18} overflows uint256."
						}
					],
					"PRBMath_MulDiv_Overflow(uint256,uint256,uint256)": [
						{
							"notice": "Thrown when the resultant value in {mulDiv} overflows uint256."
						}
					],
					"PRBMath_UD60x18_Convert_Overflow(uint256)": [
						{
							"notice": "Thrown when converting a basic integer to the fixed-point format overflows UD60x18."
						}
					]
				},
				"kind": "user",
				"methods": {},
				"version": 1
			}
		}
	}
}