{
	"data": {
		"bytecode": {
			"linkReferences": {},
			"object": "61074261004e600b8282823980515f1a607314610042577f4e487b71000000000000000000000000000000000000000000000000000000005f525f60045260245ffd5b305f52607381538281f3fe7300000000000000000000000000000000000000003014608060405260043610610034575f3560e01c8063e0f7f77214610038575b5f80fd5b610052600480360381019061004d919061064c565b610068565b60405161005f9190610699565b60405180910390f35b5f80617fff60708560801c6fffffffffffffffffffffffffffffffff16901c166fffffffffffffffffffffffffffffffff1690505f617fff60708560801c6fffffffffffffffffffffffffffffffff16901c166fffffffffffffffffffffffffffffffff169050617fff820361011f57617fff81036100fe576f7fff800000000000000000000000000060801b9250505061050f565b6f8000000000000000000000000000000060801b841685189250505061050f565b617fff810361019b575f60801b6dffffffffffffffffffffffffffff60801b85166fffffffffffffffffffffffffffffffff191614610175576f7fff800000000000000000000000000060801b9250505061050f565b6f8000000000000000000000000000000060801b848618165f60801b179250505061050f565b5f60801b6f7fffffffffffffffffffffffffffffff60801b85166fffffffffffffffffffffffffffffffff191603610252575f60801b6f7fffffffffffffffffffffffffffffff60801b86166fffffffffffffffffffffffffffffffff19160361021c576f7fff800000000000000000000000000060801b9250505061050f565b6f8000000000000000000000000000000060801b848618166f7fff000000000000000000000000000060801b179250505061050f565b5f6dffffffffffffffffffffffffffff8560801c166fffffffffffffffffffffffffffffffff1690505f820361028b57600191506102a0565b6e010000000000000000000000000000811790505b5f6dffffffffffffffffffffffffffff8760801c166fffffffffffffffffffffffffffffffff1690505f84036102ff575f81146102fa575f6102e182610515565b60e20390508082901b9150600194506072810384019350505b610318565b60726e0100000000000000000000000000008217901b90505b818181610328576103276106b2565b5b0490505f810361038f575f60801b6f8000000000000000000000000000000060801b878918166fffffffffffffffffffffffffffffffff19161161036f575f60801b610384565b6f8000000000000000000000000000000060801b5b94505050505061050f565b6d10000000000000000000000000008110156103ae576103ad6106df565b5b5f6e08000000000000000000000000000082101561040e576e040000000000000000000000000000821015610403576e0200000000000000000000000000008210156103fb5760706103fe565b60715b610406565b60725b60ff16610418565b61041782610515565b5b90506140718401818601111561043557617fff94505f91506104cf565b83613ffc82870101101561044e575f94505f91506104ce565b83613f8c82870101101561049b5783613ffc860111156104795783613ffc86010382901b9150610493565b83613ffc8601101561049257613ffc8585030382901c91505b5b5f94506104cd565b60708111156104ae576070810382901c91505b6dffffffffffffffffffffffffffff8216915083613f8d828701010394505b5b5b81607086901b6f8000000000000000000000000000000060801b898b181660801c6fffffffffffffffffffffffffffffffff16171760801b955050505050505b92915050565b5f808211610521575f80fd5b5f700100000000000000000000000000000000831061054857608083901c92506080810190505b68010000000000000000831061056657604083901c92506040810190505b640100000000831061058057602083901c92506020810190505b62010000831061059857601083901c92506010810190505b61010083106105af57600883901c92506008810190505b601083106105c557600483901c92506004810190505b600483106105db57600283901c92506002810190505b600283106105ea576001810190505b80915050919050565b5f80fd5b5f7fffffffffffffffffffffffffffffffff0000000000000000000000000000000082169050919050565b61062b816105f7565b8114610635575f80fd5b50565b5f8135905061064681610622565b92915050565b5f8060408385031215610662576106616105f3565b5b5f61066f85828601610638565b925050602061068085828601610638565b9150509250929050565b610693816105f7565b82525050565b5f6020820190506106ac5f83018461068a565b92915050565b7f4e487b71000000000000000000000000000000000000000000000000000000005f52601260045260245ffd5b7f4e487b71000000000000000000000000000000000000000000000000000000005f52600160045260245ffdfea2646970667358221220e4394e0863f36d7e29934a6e30e2ac9e51952838c900485530070dbcece92cd164736f6c63430008180033",
			"opcodes": "PUSH2 0x742 PUSH2 0x4E PUSH1 0xB DUP3 DUP3 DUP3 CODECOPY DUP1 MLOAD PUSH0 BYTE PUSH1 0x73 EQ PUSH2 0x42 JUMPI PUSH32 0x4E487B7100000000000000000000000000000000000000000000000000000000 PUSH0 MSTORE PUSH0 PUSH1 0x4 MSTORE PUSH1 0x24 PUSH0 REVERT JUMPDEST ADDRESS PUSH0 MSTORE PUSH1 0x73 DUP2 MSTORE8 DUP3 DUP2 RETURN INVALID PUSH20 0x0 ADDRESS EQ PUSH1 0x80 PUSH1 0x40 MSTORE PUSH1 0x4 CALLDATASIZE LT PUSH2 0x34 JUMPI PUSH0 CALLDATALOAD PUSH1 0xE0 SHR DUP1 PUSH4 0xE0F7F772 EQ PUSH2 0x38 JUMPI JUMPDEST PUSH0 DUP1 REVERT JUMPDEST PUSH2 0x52 PUSH1 0x4 DUP1 CALLDATASIZE SUB DUP2 ADD SWAP1 PUSH2 0x4D SWAP2 SWAP1 PUSH2 0x64C JUMP JUMPDEST PUSH2 0x68 JUMP JUMPDEST PUSH1 0x40 MLOAD PUSH2 0x5F SWAP2 SWAP1 PUSH2 0x699 JUMP JUMPDEST PUSH1 0x40 MLOAD DUP1 SWAP2 SUB SWAP1 RETURN JUMPDEST PUSH0 DUP1 PUSH2 0x7FFF PUSH1 0x70 DUP6 PUSH1 0x80 SHR PUSH16 0xFFFFFFFFFFFFFFFFFFFFFFFFFFFFFFFF AND SWAP1 SHR AND PUSH16 0xFFFFFFFFFFFFFFFFFFFFFFFFFFFFFFFF AND SWAP1 POP PUSH0 PUSH2 0x7FFF PUSH1 0x70 DUP6 PUSH1 0x80 SHR PUSH16 0xFFFFFFFFFFFFFFFFFFFFFFFFFFFFFFFF AND SWAP1 SHR AND PUSH16 0xFFFFFFFFFFFFFFFFFFFFFFFFFFFFFFFF AND SWAP1 POP PUSH2 0x7FFF DUP3 SUB PUSH2 0x11F JUMPI PUSH2 0x7FFF DUP2 SUB PUSH2 0xFE JUMPI PUSH16 0x7FFF8000000000000000000000000000 PUSH1 0x80 SHL SWAP3 POP POP POP PUSH2 0x50F JUMP JUMPDEST PUSH16 0x80000000000000000000000000000000 PUSH1 0x80 SHL DUP5 AND DUP6 XOR SWAP3 POP POP POP PUSH2 0x50F JUMP JUMPDEST PUSH2 0x7FFF DUP2 SUB PUSH2 0x19B JUMPI PUSH0 PUSH1 0x80 SHL PUSH14 0xFFFFFFFFFFFFFFFFFFFFFFFFFFFF PUSH1 0x80 SHL DUP6 AND PUSH16 0xFFFFFFFFFFFFFFFFFFFFFFFFFFFFFFFF NOT AND EQ PUSH2 0x175 JUMPI PUSH16 0x7FFF8000000000000000000000000000 PUSH1 0x80 SHL SWAP3 POP POP POP PUSH2 0x50F JUMP JUMPDEST PUSH16 0x80000000000000000000000000000000 PUSH1 0x80 SHL DUP5 DUP7 XOR AND PUSH0 PUSH1 0x80 SHL OR SWAP3 POP POP POP PUSH2 0x50F JUMP JUMPDEST PUSH0 PUSH1 0x80 SHL PUSH16 0x7FFFFFFFFFFFFFFFFFFFFFFFFFFFFFFF PUSH1 0x80 SHL DUP6 AND PUSH16 0xFFFFFFFFFFFFFFFFFFFFFFFFFFFFFFFF NOT AND SUB PUSH2 0x252 JUMPI PUSH0 PUSH1 0x80 SHL PUSH16 0x7FFFFFFFFFFFFFFFFFFFFFFFFFFFFFFF PUSH1 0x80 SHL DUP7 AND PUSH16 0xFFFFFFFFFFFFFFFFFFFFFFFFFFFFFFFF NOT AND SUB PUSH2 0x21C JUMPI PUSH16 0x7FFF8000000000000000000000000000 PUSH1 0x80 SHL SWAP3 POP POP POP PUSH2 0x50F JUMP JUMPDEST PUSH16 0x80000000000000000000000000000000 PUSH1 0x80 SHL DUP5 DUP7 XOR AND PUSH16 0x7FFF0000000000000000000000000000 PUSH1 0x80 SHL OR SWAP3 POP POP POP PUSH2 0x50F JUMP JUMPDEST PUSH0 PUSH14 0xFFFFFFFFFFFFFFFFFFFFFFFFFFFF DUP6 PUSH1 0x80 SHR AND PUSH16 0xFFFFFFFFFFFFFFFFFFFFFFFFFFFFFFFF AND SWAP1 POP PUSH0 DUP3 SUB PUSH2 0x28B JUMPI PUSH1 0x1 SWAP2 POP PUSH2 0x2A0 JUMP JUMPDEST PUSH15 0x10000000000000000000000000000 DUP2 OR SWAP1 POP JUMPDEST PUSH0 PUSH14 0xFFFFFFFFFFFFFFFFFFFFFFFFFFFF DUP8 PUSH1 0x80 SHR AND PUSH16 0xFFFFFFFFFFFFFFFFFFFFFFFFFFFFFFFF AND SWAP1 POP PUSH0 DUP5 SUB PUSH2 0x2FF JUMPI PUSH0 DUP2 EQ PUSH2 0x2FA JUMPI PUSH0 PUSH2 0x2E1 DUP3 PUSH2 0x515 JUMP JUMPDEST PUSH1 0xE2 SUB SWAP1 POP DUP1 DUP3 SWAP1 SHL SWAP2 POP PUSH1 0x1 SWAP5 POP PUSH1 0x72 DUP2 SUB DUP5 ADD SWAP4 POP POP JUMPDEST PUSH2 0x318 JUMP JUMPDEST PUSH1 0x72 PUSH15 0x10000000000000000000000000000 DUP3 OR SWAP1 SHL SWAP1 POP JUMPDEST DUP2 DUP2 DUP2 PUSH2 0x328 JUMPI PUSH2 0x327 PUSH2 0x6B2 JUMP JUMPDEST JUMPDEST DIV SWAP1 POP PUSH0 DUP2 SUB PUSH2 0x38F JUMPI PUSH0 PUSH1 0x80 SHL PUSH16 0x80000000000000000000000000000000 PUSH1 0x80 SHL DUP8 DUP10 XOR AND PUSH16 0xFFFFFFFFFFFFFFFFFFFFFFFFFFFFFFFF NOT AND GT PUSH2 0x36F JUMPI PUSH0 PUSH1 0x80 SHL PUSH2 0x384 JUMP JUMPDEST PUSH16 0x80000000000000000000000000000000 PUSH1 0x80 SHL JUMPDEST SWAP5 POP POP POP POP POP PUSH2 0x50F JUMP JUMPDEST PUSH14 0x1000000000000000000000000000 DUP2 LT ISZERO PUSH2 0x3AE JUMPI PUSH2 0x3AD PUSH2 0x6DF JUMP JUMPDEST JUMPDEST PUSH0 PUSH15 0x80000000000000000000000000000 DUP3 LT ISZERO PUSH2 0x40E JUMPI PUSH15 0x40000000000000000000000000000 DUP3 LT ISZERO PUSH2 0x403 JUMPI PUSH15 0x20000000000000000000000000000 DUP3 LT ISZERO PUSH2 0x3FB JUMPI PUSH1 0x70 PUSH2 0x3FE JUMP JUMPDEST PUSH1 0x71 JUMPDEST PUSH2 0x406 JUMP JUMPDEST PUSH1 0x72 JUMPDEST PUSH1 0xFF AND PUSH2 0x418 JUMP JUMPDEST PUSH2 0x417 DUP3 PUSH2 0x515 JUMP JUMPDEST JUMPDEST SWAP1 POP PUSH2 0x4071 DUP5 ADD DUP2 DUP7 ADD GT ISZERO PUSH2 0x435 JUMPI PUSH2 0x7FFF SWAP5 POP PUSH0 SWAP2 POP PUSH2 0x4CF JUMP JUMPDEST DUP4 PUSH2 0x3FFC DUP3 DUP8 ADD ADD LT ISZERO PUSH2 0x44E JUMPI PUSH0 SWAP5 POP PUSH0 SWAP2 POP PUSH2 0x4CE JUMP JUMPDEST DUP4 PUSH2 0x3F8C DUP3 DUP8 ADD ADD LT ISZERO PUSH2 0x49B JUMPI DUP4 PUSH2 0x3FFC DUP7 ADD GT ISZERO PUSH2 0x479 JUMPI DUP4 PUSH2 0x3FFC DUP7 ADD SUB DUP3 SWAP1 SHL SWAP2 POP PUSH2 0x493 JUMP JUMPDEST DUP4 PUSH2 0x3FFC DUP7 ADD LT ISZERO PUSH2 0x492 JUMPI PUSH2 0x3FFC DUP6 DUP6 SUB SUB DUP3 SWAP1 SHR SWAP2 POP JUMPDEST JUMPDEST PUSH0 SWAP5 POP PUSH2 0x4CD JUMP JUMPDEST PUSH1 0x70 DUP2 GT ISZERO PUSH2 0x4AE JUMPI PUSH1 0x70 DUP2 SUB DUP3 SWAP1 SHR SWAP2 POP JUMPDEST PUSH14 0xFFFFFFFFFFFFFFFFFFFFFFFFFFFF DUP3 AND SWAP2 POP DUP4 PUSH2 0x3F8D DUP3 DUP8 ADD ADD SUB SWAP5 POP JUMPDEST JUMPDEST JUMPDEST DUP2 PUSH1 0x70 DUP7 SWAP1 SHL PUSH16 0x80000000000000000000000000000000 PUSH1 0x80 SHL DUP10 DUP12 XOR AND PUSH1 0x80 SHR PUSH16 0xFFFFFFFFFFFFFFFFFFFFFFFFFFFFFFFF AND OR OR PUSH1 0x80 SHL SWAP6 POP POP POP POP POP POP JUMPDEST SWAP3 SWAP2 POP POP JUMP JUMPDEST PUSH0 DUP1 DUP3 GT PUSH2 0x521 JUMPI PUSH0 DUP1 REVERT JUMPDEST PUSH0 PUSH17 0x100000000000000000000000000000000 DUP4 LT PUSH2 0x548 JUMPI PUSH1 0x80 DUP4 SWAP1 SHR SWAP3 POP PUSH1 0x80 DUP2 ADD SWAP1 POP JUMPDEST PUSH9 0x10000000000000000 DUP4 LT PUSH2 0x566 JUMPI PUSH1 0x40 DUP4 SWAP1 SHR SWAP3 POP PUSH1 0x40 DUP2 ADD SWAP1 POP JUMPDEST PUSH5 0x100000000 DUP4 LT PUSH2 0x580 JUMPI PUSH1 0x20 DUP4 SWAP1 SHR SWAP3 POP PUSH1 0x20 DUP2 ADD SWAP1 POP JUMPDEST PUSH3 0x10000 DUP4 LT PUSH2 0x598 JUMPI PUSH1 0x10 DUP4 SWAP1 SHR SWAP3 POP PUSH1 0x10 DUP2 ADD SWAP1 POP JUMPDEST PUSH2 0x100 DUP4 LT PUSH2 0x5AF JUMPI PUSH1 0x8 DUP4 SWAP1 SHR SWAP3 POP PUSH1 0x8 DUP2 ADD SWAP1 POP JUMPDEST PUSH1 0x10 DUP4 LT PUSH2 0x5C5 JUMPI PUSH1 0x4 DUP4 SWAP1 SHR SWAP3 POP PUSH1 0x4 DUP2 ADD SWAP1 POP JUMPDEST PUSH1 0x4 DUP4 LT PUSH2 0x5DB JUMPI PUSH1 0x2 DUP4 SWAP1 SHR SWAP3 POP PUSH1 0x2 DUP2 ADD SWAP1 POP JUMPDEST PUSH1 0x2 DUP4 LT PUSH2 0x5EA JUMPI PUSH1 0x1 DUP2 ADD SWAP1 POP JUMPDEST DUP1 SWAP2 POP POP SWAP2 SWAP1 POP JUMP JUMPDEST PUSH0 DUP1 REVERT JUMPDEST PUSH0 PUSH32 0xFFFFFFFFFFFFFFFFFFFFFFFFFFFFFFFF00000000000000000000000000000000 DUP3 AND SWAP1 POP SWAP2 SWAP1 POP JUMP JUMPDEST PUSH2 0x62B DUP2 PUSH2 0x5F7 JUMP JUMPDEST DUP2 EQ PUSH2 0x635 JUMPI PUSH0 DUP1 REVERT JUMPDEST POP JUMP JUMPDEST PUSH0 DUP2 CALLDATALOAD SWAP1 POP PUSH2 0x646 DUP2 PUSH2 0x622 JUMP JUMPDEST SWAP3 SWAP2 POP POP JUMP JUMPDEST PUSH0 DUP1 PUSH1 0x40 DUP4 DUP6 SUB SLT ISZERO PUSH2 0x662 JUMPI PUSH2 0x661 PUSH2 0x5F3 JUMP JUMPDEST JUMPDEST PUSH0 PUSH2 0x66F DUP6 DUP3 DUP7 ADD PUSH2 0x638 JUMP JUMPDEST SWAP3 POP POP PUSH1 0x20 PUSH2 0x680 DUP6 DUP3 DUP7 ADD PUSH2 0x638 JUMP JUMPDEST SWAP2 POP POP SWAP3 POP SWAP3 SWAP1 POP JUMP JUMPDEST PUSH2 0x693 DUP2 PUSH2 0x5F7 JUMP JUMPDEST DUP3 MSTORE POP POP JUMP JUMPDEST PUSH0 PUSH1 0x20 DUP3 ADD SWAP1 POP PUSH2 0x6AC PUSH0 DUP4 ADD DUP5 PUSH2 0x68A JUMP JUMPDEST SWAP3 SWAP2 POP POP JUMP JUMPDEST PUSH32 0x4E487B7100000000000000000000000000000000000000000000000000000000 PUSH0 MSTORE PUSH1 0x12 PUSH1 0x4 MSTORE PUSH1 0x24 PUSH0 REVERT JUMPDEST PUSH32 0x4E487B7100000000000000000000000000000000000000000000000000000000 PUSH0 MSTORE PUSH1 0x1 PUSH1 0x4 MSTORE PUSH1 0x24 PUSH0 REVERT INVALID LOG2 PUSH5 0x6970667358 0x22 SLT KECCAK256 0xE4 CODECOPY 0x4E ADDMOD PUSH4 0xF36D7E29 SWAP4 BLOBBASEFEE PUSH15 0x30E2AC9E51952838C900485530070D 0xBC 0xEC 0xE9 0x2C 0xD1 PUSH5 0x736F6C6343 STOP ADDMOD XOR STOP CALLER "
		},
		"gasEstimates": {
			"creation": {
				"codeDepositCost": "371600",
				"executionCost": "434",
				"totalCost": "372034"
			},
			"external": {
				"div(bytes16,bytes16)": "infinite"
			},
			"internal": {
				"abs(bytes16)": "infinite",
				"add(bytes16,bytes16)": "infinite",
				"cmp(bytes16,bytes16)": "infinite",
				"eq(bytes16,bytes16)": "infinite",
				"exp(bytes16)": "infinite",
				"from128x128(int256)": "infinite",
				"from64x64(int128)": "infinite",
				"fromDouble(bytes8)": "infinite",
				"fromInt(int256)": "infinite",
				"fromOctuple(bytes32)": "infinite",
				"fromUInt(uint256)": "infinite",
				"isInfinity(bytes16)": "infinite",
				"isNaN(bytes16)": "infinite",
				"ln(bytes16)": "infinite",
				"log_2(bytes16)": "infinite",
				"mostSignificantBit(uint256)": "469",
				"mul(bytes16,bytes16)": "infinite",
				"neg(bytes16)": "infinite",
				"pow_2(bytes16)": "infinite",
				"sign(bytes16)": "infinite",
				"sqrt(bytes16)": "infinite",
				"sub(bytes16,bytes16)": "infinite",
				"to128x128(bytes16)": "infinite",
				"to64x64(bytes16)": "infinite",
				"toDouble(bytes16)": "infinite",
				"toInt(bytes16)": "infinite",
				"toOctuple(bytes16)": "infinite",
				"toUInt(bytes16)": "infinite"
			}
		},
		"methodIdentifiers": {
			"div(bytes16,bytes16)": "e0f7f772"
		}
	},
	"abi": [
		{
			"inputs": [
				{
					"internalType": "bytes16",
					"name": "x",
					"type": "bytes16"
				},
				{
					"internalType": "bytes16",
					"name": "y",
					"type": "bytes16"
				}
			],
			"name": "div",
			"outputs": [
				{
					"internalType": "bytes16",
					"name": "",
					"type": "bytes16"
				}
			],
			"stateMutability": "pure",
			"type": "function"
		}
	]
}