{
	"data": {
		"bytecode": {
			"linkReferences": {},
			"object": "608060405234801561000f575f80fd5b506103ac8061001d5f395ff3fe608060405234801561000f575f80fd5b5060043610610029575f3560e01c806332eb12f11461002d575b5f80fd5b610047600480360381019061004291906101db565b61005d565b604051610054919061021e565b60405180910390f35b5f8061038f6040516024016100729190610286565b6040516020818303038152906040527f29e99f07000000000000000000000000000000000000000000000000000000007bffffffffffffffffffffffffffffffffffffffffffffffffffffffff19166020820180517bffffffffffffffffffffffffffffffffffffffffffffffffffffffff838183161783525050505090505f8373ffffffffffffffffffffffffffffffffffffffff165f83604051610118919061030b565b5f6040518083038185875af1925050503d805f8114610152576040519150601f19603f3d011682016040523d82523d5f602084013e610157565b606091505b509150505f81806020019051810190610170919061034b565b9050809350505050919050565b5f80fd5b5f73ffffffffffffffffffffffffffffffffffffffff82169050919050565b5f6101aa82610181565b9050919050565b6101ba816101a0565b81146101c4575f80fd5b50565b5f813590506101d5816101b1565b92915050565b5f602082840312156101f0576101ef61017d565b5b5f6101fd848285016101c7565b91505092915050565b5f819050919050565b61021881610206565b82525050565b5f6020820190506102315f83018461020f565b92915050565b5f819050919050565b5f61ffff82169050919050565b5f819050919050565b5f61027061026b61026684610237565b61024d565b610240565b9050919050565b61028081610256565b82525050565b5f6020820190506102995f830184610277565b92915050565b5f81519050919050565b5f81905092915050565b5f5b838110156102d05780820151818401526020810190506102b5565b5f8484015250505050565b5f6102e58261029f565b6102ef81856102a9565b93506102ff8185602086016102b3565b80840191505092915050565b5f61031682846102db565b915081905092915050565b61032a81610206565b8114610334575f80fd5b50565b5f8151905061034581610321565b92915050565b5f602082840312156103605761035f61017d565b5b5f61036d84828501610337565b9150509291505056fea2646970667358221220287ee2d9490fde19d19759de3748be2097c9ece93e1df311c945ec1ee2e201a864736f6c63430008160033",
			"opcodes": "PUSH1 0x80 PUSH1 0x40 MSTORE CALLVALUE DUP1 ISZERO PUSH2 0xF JUMPI PUSH0 DUP1 REVERT JUMPDEST POP PUSH2 0x3AC DUP1 PUSH2 0x1D PUSH0 CODECOPY PUSH0 RETURN INVALID PUSH1 0x80 PUSH1 0x40 MSTORE CALLVALUE DUP1 ISZERO PUSH2 0xF JUMPI PUSH0 DUP1 REVERT JUMPDEST POP PUSH1 0x4 CALLDATASIZE LT PUSH2 0x29 JUMPI PUSH0 CALLDATALOAD PUSH1 0xE0 SHR DUP1 PUSH4 0x32EB12F1 EQ PUSH2 0x2D JUMPI JUMPDEST PUSH0 DUP1 REVERT JUMPDEST PUSH2 0x47 PUSH1 0x4 DUP1 CALLDATASIZE SUB DUP2 ADD SWAP1 PUSH2 0x42 SWAP2 SWAP1 PUSH2 0x1DB JUMP JUMPDEST PUSH2 0x5D JUMP JUMPDEST PUSH1 0x40 MLOAD PUSH2 0x54 SWAP2 SWAP1 PUSH2 0x21E JUMP JUMPDEST PUSH1 0x40 MLOAD DUP1 SWAP2 SUB SWAP1 RETURN JUMPDEST PUSH0 DUP1 PUSH2 0x38F PUSH1 0x40 MLOAD PUSH1 0x24 ADD PUSH2 0x72 SWAP2 SWAP1 PUSH2 0x286 JUMP JUMPDEST PUSH1 0x40 MLOAD PUSH1 0x20 DUP2 DUP4 SUB SUB DUP2 MSTORE SWAP1 PUSH1 0x40 MSTORE PUSH32 0x29E99F0700000000000000000000000000000000000000000000000000000000 PUSH28 0xFFFFFFFFFFFFFFFFFFFFFFFFFFFFFFFFFFFFFFFFFFFFFFFFFFFFFFFF NOT AND PUSH1 0x20 DUP3 ADD DUP1 MLOAD PUSH28 0xFFFFFFFFFFFFFFFFFFFFFFFFFFFFFFFFFFFFFFFFFFFFFFFFFFFFFFFF DUP4 DUP2 DUP4 AND OR DUP4 MSTORE POP POP POP POP SWAP1 POP PUSH0 DUP4 PUSH20 0xFFFFFFFFFFFFFFFFFFFFFFFFFFFFFFFFFFFFFFFF AND PUSH0 DUP4 PUSH1 0x40 MLOAD PUSH2 0x118 SWAP2 SWAP1 PUSH2 0x30B JUMP JUMPDEST PUSH0 PUSH1 0x40 MLOAD DUP1 DUP4 SUB DUP2 DUP6 DUP8 GAS CALL SWAP3 POP POP POP RETURNDATASIZE DUP1 PUSH0 DUP2 EQ PUSH2 0x152 JUMPI PUSH1 0x40 MLOAD SWAP2 POP PUSH1 0x1F NOT PUSH1 0x3F RETURNDATASIZE ADD AND DUP3 ADD PUSH1 0x40 MSTORE RETURNDATASIZE DUP3 MSTORE RETURNDATASIZE PUSH0 PUSH1 0x20 DUP5 ADD RETURNDATACOPY PUSH2 0x157 JUMP JUMPDEST PUSH1 0x60 SWAP2 POP JUMPDEST POP SWAP2 POP POP PUSH0 DUP2 DUP1 PUSH1 0x20 ADD SWAP1 MLOAD DUP2 ADD SWAP1 PUSH2 0x170 SWAP2 SWAP1 PUSH2 0x34B JUMP JUMPDEST SWAP1 POP DUP1 SWAP4 POP POP POP POP SWAP2 SWAP1 POP JUMP JUMPDEST PUSH0 DUP1 REVERT JUMPDEST PUSH0 PUSH20 0xFFFFFFFFFFFFFFFFFFFFFFFFFFFFFFFFFFFFFFFF DUP3 AND SWAP1 POP SWAP2 SWAP1 POP JUMP JUMPDEST PUSH0 PUSH2 0x1AA DUP3 PUSH2 0x181 JUMP JUMPDEST SWAP1 POP SWAP2 SWAP1 POP JUMP JUMPDEST PUSH2 0x1BA DUP2 PUSH2 0x1A0 JUMP JUMPDEST DUP2 EQ PUSH2 0x1C4 JUMPI PUSH0 DUP1 REVERT JUMPDEST POP JUMP JUMPDEST PUSH0 DUP2 CALLDATALOAD SWAP1 POP PUSH2 0x1D5 DUP2 PUSH2 0x1B1 JUMP JUMPDEST SWAP3 SWAP2 POP POP JUMP JUMPDEST PUSH0 PUSH1 0x20 DUP3 DUP5 SUB SLT ISZERO PUSH2 0x1F0 JUMPI PUSH2 0x1EF PUSH2 0x17D JUMP JUMPDEST JUMPDEST PUSH0 PUSH2 0x1FD DUP5 DUP3 DUP6 ADD PUSH2 0x1C7 JUMP JUMPDEST SWAP2 POP POP SWAP3 SWAP2 POP POP JUMP JUMPDEST PUSH0 DUP2 SWAP1 POP SWAP2 SWAP1 POP JUMP JUMPDEST PUSH2 0x218 DUP2 PUSH2 0x206 JUMP JUMPDEST DUP3 MSTORE POP POP JUMP JUMPDEST PUSH0 PUSH1 0x20 DUP3 ADD SWAP1 POP PUSH2 0x231 PUSH0 DUP4 ADD DUP5 PUSH2 0x20F JUMP JUMPDEST SWAP3 SWAP2 POP POP JUMP JUMPDEST PUSH0 DUP2 SWAP1 POP SWAP2 SWAP1 POP JUMP JUMPDEST PUSH0 PUSH2 0xFFFF DUP3 AND SWAP1 POP SWAP2 SWAP1 POP JUMP JUMPDEST PUSH0 DUP2 SWAP1 POP SWAP2 SWAP1 POP JUMP JUMPDEST PUSH0 PUSH2 0x270 PUSH2 0x26B PUSH2 0x266 DUP5 PUSH2 0x237 JUMP JUMPDEST PUSH2 0x24D JUMP JUMPDEST PUSH2 0x240 JUMP JUMPDEST SWAP1 POP SWAP2 SWAP1 POP JUMP JUMPDEST PUSH2 0x280 DUP2 PUSH2 0x256 JUMP JUMPDEST DUP3 MSTORE POP POP JUMP JUMPDEST PUSH0 PUSH1 0x20 DUP3 ADD SWAP1 POP PUSH2 0x299 PUSH0 DUP4 ADD DUP5 PUSH2 0x277 JUMP JUMPDEST SWAP3 SWAP2 POP POP JUMP JUMPDEST PUSH0 DUP2 MLOAD SWAP1 POP SWAP2 SWAP1 POP JUMP JUMPDEST PUSH0 DUP2 SWAP1 POP SWAP3 SWAP2 POP POP JUMP JUMPDEST PUSH0 JUMPDEST DUP4 DUP2 LT ISZERO PUSH2 0x2D0 JUMPI DUP1 DUP3 ADD MLOAD DUP2 DUP5 ADD MSTORE PUSH1 0x20 DUP2 ADD SWAP1 POP PUSH2 0x2B5 JUMP JUMPDEST PUSH0 DUP5 DUP5 ADD MSTORE POP POP POP POP JUMP JUMPDEST PUSH0 PUSH2 0x2E5 DUP3 PUSH2 0x29F JUMP JUMPDEST PUSH2 0x2EF DUP2 DUP6 PUSH2 0x2A9 JUMP JUMPDEST SWAP4 POP PUSH2 0x2FF DUP2 DUP6 PUSH1 0x20 DUP7 ADD PUSH2 0x2B3 JUMP JUMPDEST DUP1 DUP5 ADD SWAP2 POP POP SWAP3 SWAP2 POP POP JUMP JUMPDEST PUSH0 PUSH2 0x316 DUP3 DUP5 PUSH2 0x2DB JUMP JUMPDEST SWAP2 POP DUP2 SWAP1 POP SWAP3 SWAP2 POP POP JUMP JUMPDEST PUSH2 0x32A DUP2 PUSH2 0x206 JUMP JUMPDEST DUP2 EQ PUSH2 0x334 JUMPI PUSH0 DUP1 REVERT JUMPDEST POP JUMP JUMPDEST PUSH0 DUP2 MLOAD SWAP1 POP PUSH2 0x345 DUP2 PUSH2 0x321 JUMP JUMPDEST SWAP3 SWAP2 POP POP JUMP JUMPDEST PUSH0 PUSH1 0x20 DUP3 DUP5 SUB SLT ISZERO PUSH2 0x360 JUMPI PUSH2 0x35F PUSH2 0x17D JUMP JUMPDEST JUMPDEST PUSH0 PUSH2 0x36D DUP5 DUP3 DUP6 ADD PUSH2 0x337 JUMP JUMPDEST SWAP2 POP POP SWAP3 SWAP2 POP POP JUMP INVALID LOG2 PUSH5 0x6970667358 0x22 SLT KECCAK256 0x28 PUSH31 0xE2D9490FDE19D19759DE3748BE2097C9ECE93E1DF311C945EC1EE2E201A864 PUSH20 0x6F6C634300081600330000000000000000000000 "
		},
		"gasEstimates": {
			"creation": {
				"codeDepositCost": "188000",
				"executionCost": "230",
				"totalCost": "188230"
			},
			"external": {
				"callTest(address)": "infinite"
			}
		},
		"methodIdentifiers": {
			"callTest(address)": "32eb12f1"
		}
	},
	"abi": [
		{
			"inputs": [
				{
					"internalType": "address",
					"name": "_addr",
					"type": "address"
				}
			],
			"name": "callTest",
			"outputs": [
				{
					"internalType": "uint256",
					"name": "",
					"type": "uint256"
				}
			],
			"stateMutability": "nonpayable",
			"type": "function"
		}
	]
}