{
	"data": {
		"bytecode": {
			"linkReferences": {},
			"object": "608060405234801561000f575f80fd5b506105cb8061001d5f395ff3fe608060405260043610610049575f3560e01c80637c94c8ca1461004d57806382347440146100895780638f9116b0146100c6578063a263701a146100e2578063ef7aea621461010a575b5f80fd5b348015610058575f80fd5b50610073600480360381019061006e91906103b4565b610132565b60405161008091906103f7565b60405180910390f35b348015610094575f80fd5b506100af60048036038101906100aa91906103b4565b6101a7565b6040516100bd929190610410565b60405180910390f35b6100e060048036038101906100db91906103b4565b610222565b005b3480156100ed575f80fd5b5061010860048036038101906101039190610461565b610282565b005b348015610115575f80fd5b50610130600480360381019061012b91906104da565b6102ec565b005b5f8173ffffffffffffffffffffffffffffffffffffffff16635197c7aa6040518163ffffffff1660e01b8152600401602060405180830381865afa15801561017c573d5f803e3d5ffd5b505050506040513d601f19601f820116820180604052508101906101a0919061052c565b9050919050565b5f808273ffffffffffffffffffffffffffffffffffffffff16639c54a16f6040518163ffffffff1660e01b81526004016040805180830381865afa1580156101f1573d5f803e3d5ffd5b505050506040513d601f19601f820116820180604052508101906102159190610557565b8092508193505050915091565b8073ffffffffffffffffffffffffffffffffffffffff1663822ca214346040518263ffffffff1660e01b81526004015f604051808303818588803b158015610268575f80fd5b505af115801561027a573d5f803e3d5ffd5b505050505050565b8173ffffffffffffffffffffffffffffffffffffffff16634018d9aa826040518263ffffffff1660e01b81526004016102bb91906103f7565b5f604051808303815f87803b1580156102d2575f80fd5b505af11580156102e4573d5f803e3d5ffd5b505050505050565b8173ffffffffffffffffffffffffffffffffffffffff16634018d9aa826040518263ffffffff1660e01b815260040161032591906103f7565b5f604051808303815f87803b15801561033c575f80fd5b505af115801561034e573d5f803e3d5ffd5b505050505050565b5f80fd5b5f73ffffffffffffffffffffffffffffffffffffffff82169050919050565b5f6103838261035a565b9050919050565b61039381610379565b811461039d575f80fd5b50565b5f813590506103ae8161038a565b92915050565b5f602082840312156103c9576103c8610356565b5b5f6103d6848285016103a0565b91505092915050565b5f819050919050565b6103f1816103df565b82525050565b5f60208201905061040a5f8301846103e8565b92915050565b5f6040820190506104235f8301856103e8565b61043060208301846103e8565b9392505050565b610440816103df565b811461044a575f80fd5b50565b5f8135905061045b81610437565b92915050565b5f806040838503121561047757610476610356565b5b5f610484858286016103a0565b92505060206104958582860161044d565b9150509250929050565b5f6104a982610379565b9050919050565b6104b98161049f565b81146104c3575f80fd5b50565b5f813590506104d4816104b0565b92915050565b5f80604083850312156104f0576104ef610356565b5b5f6104fd858286016104c6565b925050602061050e8582860161044d565b9150509250929050565b5f8151905061052681610437565b92915050565b5f6020828403121561054157610540610356565b5b5f61054e84828501610518565b91505092915050565b5f806040838503121561056d5761056c610356565b5b5f61057a85828601610518565b925050602061058b85828601610518565b915050925092905056fea264697066735822122064b68ae091e075262ea6ffd41ec9e059a85fcfcfabeb7bfa816eb744612962a464736f6c63430008160033",
			"opcodes": "PUSH1 0x80 PUSH1 0x40 MSTORE CALLVALUE DUP1 ISZERO PUSH2 0xF JUMPI PUSH0 DUP1 REVERT JUMPDEST POP PUSH2 0x5CB DUP1 PUSH2 0x1D PUSH0 CODECOPY PUSH0 RETURN INVALID PUSH1 0x80 PUSH1 0x40 MSTORE PUSH1 0x4 CALLDATASIZE LT PUSH2 0x49 JUMPI PUSH0 CALLDATALOAD PUSH1 0xE0 SHR DUP1 PUSH4 0x7C94C8CA EQ PUSH2 0x4D JUMPI DUP1 PUSH4 0x82347440 EQ PUSH2 0x89 JUMPI DUP1 PUSH4 0x8F9116B0 EQ PUSH2 0xC6 JUMPI DUP1 PUSH4 0xA263701A EQ PUSH2 0xE2 JUMPI DUP1 PUSH4 0xEF7AEA62 EQ PUSH2 0x10A JUMPI JUMPDEST PUSH0 DUP1 REVERT JUMPDEST CALLVALUE DUP1 ISZERO PUSH2 0x58 JUMPI PUSH0 DUP1 REVERT JUMPDEST POP PUSH2 0x73 PUSH1 0x4 DUP1 CALLDATASIZE SUB DUP2 ADD SWAP1 PUSH2 0x6E SWAP2 SWAP1 PUSH2 0x3B4 JUMP JUMPDEST PUSH2 0x132 JUMP JUMPDEST PUSH1 0x40 MLOAD PUSH2 0x80 SWAP2 SWAP1 PUSH2 0x3F7 JUMP JUMPDEST PUSH1 0x40 MLOAD DUP1 SWAP2 SUB SWAP1 RETURN JUMPDEST CALLVALUE DUP1 ISZERO PUSH2 0x94 JUMPI PUSH0 DUP1 REVERT JUMPDEST POP PUSH2 0xAF PUSH1 0x4 DUP1 CALLDATASIZE SUB DUP2 ADD SWAP1 PUSH2 0xAA SWAP2 SWAP1 PUSH2 0x3B4 JUMP JUMPDEST PUSH2 0x1A7 JUMP JUMPDEST PUSH1 0x40 MLOAD PUSH2 0xBD SWAP3 SWAP2 SWAP1 PUSH2 0x410 JUMP JUMPDEST PUSH1 0x40 MLOAD DUP1 SWAP2 SUB SWAP1 RETURN JUMPDEST PUSH2 0xE0 PUSH1 0x4 DUP1 CALLDATASIZE SUB DUP2 ADD SWAP1 PUSH2 0xDB SWAP2 SWAP1 PUSH2 0x3B4 JUMP JUMPDEST PUSH2 0x222 JUMP JUMPDEST STOP JUMPDEST CALLVALUE DUP1 ISZERO PUSH2 0xED JUMPI PUSH0 DUP1 REVERT JUMPDEST POP PUSH2 0x108 PUSH1 0x4 DUP1 CALLDATASIZE SUB DUP2 ADD SWAP1 PUSH2 0x103 SWAP2 SWAP1 PUSH2 0x461 JUMP JUMPDEST PUSH2 0x282 JUMP JUMPDEST STOP JUMPDEST CALLVALUE DUP1 ISZERO PUSH2 0x115 JUMPI PUSH0 DUP1 REVERT JUMPDEST POP PUSH2 0x130 PUSH1 0x4 DUP1 CALLDATASIZE SUB DUP2 ADD SWAP1 PUSH2 0x12B SWAP2 SWAP1 PUSH2 0x4DA JUMP JUMPDEST PUSH2 0x2EC JUMP JUMPDEST STOP JUMPDEST PUSH0 DUP2 PUSH20 0xFFFFFFFFFFFFFFFFFFFFFFFFFFFFFFFFFFFFFFFF AND PUSH4 0x5197C7AA PUSH1 0x40 MLOAD DUP2 PUSH4 0xFFFFFFFF AND PUSH1 0xE0 SHL DUP2 MSTORE PUSH1 0x4 ADD PUSH1 0x20 PUSH1 0x40 MLOAD DUP1 DUP4 SUB DUP2 DUP7 GAS STATICCALL ISZERO DUP1 ISZERO PUSH2 0x17C JUMPI RETURNDATASIZE PUSH0 DUP1 RETURNDATACOPY RETURNDATASIZE PUSH0 REVERT JUMPDEST POP POP POP POP PUSH1 0x40 MLOAD RETURNDATASIZE PUSH1 0x1F NOT PUSH1 0x1F DUP3 ADD AND DUP3 ADD DUP1 PUSH1 0x40 MSTORE POP DUP2 ADD SWAP1 PUSH2 0x1A0 SWAP2 SWAP1 PUSH2 0x52C JUMP JUMPDEST SWAP1 POP SWAP2 SWAP1 POP JUMP JUMPDEST PUSH0 DUP1 DUP3 PUSH20 0xFFFFFFFFFFFFFFFFFFFFFFFFFFFFFFFFFFFFFFFF AND PUSH4 0x9C54A16F PUSH1 0x40 MLOAD DUP2 PUSH4 0xFFFFFFFF AND PUSH1 0xE0 SHL DUP2 MSTORE PUSH1 0x4 ADD PUSH1 0x40 DUP1 MLOAD DUP1 DUP4 SUB DUP2 DUP7 GAS STATICCALL ISZERO DUP1 ISZERO PUSH2 0x1F1 JUMPI RETURNDATASIZE PUSH0 DUP1 RETURNDATACOPY RETURNDATASIZE PUSH0 REVERT JUMPDEST POP POP POP POP PUSH1 0x40 MLOAD RETURNDATASIZE PUSH1 0x1F NOT PUSH1 0x1F DUP3 ADD AND DUP3 ADD DUP1 PUSH1 0x40 MSTORE POP DUP2 ADD SWAP1 PUSH2 0x215 SWAP2 SWAP1 PUSH2 0x557 JUMP JUMPDEST DUP1 SWAP3 POP DUP2 SWAP4 POP POP POP SWAP2 POP SWAP2 JUMP JUMPDEST DUP1 PUSH20 0xFFFFFFFFFFFFFFFFFFFFFFFFFFFFFFFFFFFFFFFF AND PUSH4 0x822CA214 CALLVALUE PUSH1 0x40 MLOAD DUP3 PUSH4 0xFFFFFFFF AND PUSH1 0xE0 SHL DUP2 MSTORE PUSH1 0x4 ADD PUSH0 PUSH1 0x40 MLOAD DUP1 DUP4 SUB DUP2 DUP6 DUP9 DUP1 EXTCODESIZE ISZERO DUP1 ISZERO PUSH2 0x268 JUMPI PUSH0 DUP1 REVERT JUMPDEST POP GAS CALL ISZERO DUP1 ISZERO PUSH2 0x27A JUMPI RETURNDATASIZE PUSH0 DUP1 RETURNDATACOPY RETURNDATASIZE PUSH0 REVERT JUMPDEST POP POP POP POP POP POP JUMP JUMPDEST DUP2 PUSH20 0xFFFFFFFFFFFFFFFFFFFFFFFFFFFFFFFFFFFFFFFF AND PUSH4 0x4018D9AA DUP3 PUSH1 0x40 MLOAD DUP3 PUSH4 0xFFFFFFFF AND PUSH1 0xE0 SHL DUP2 MSTORE PUSH1 0x4 ADD PUSH2 0x2BB SWAP2 SWAP1 PUSH2 0x3F7 JUMP JUMPDEST PUSH0 PUSH1 0x40 MLOAD DUP1 DUP4 SUB DUP2 PUSH0 DUP8 DUP1 EXTCODESIZE ISZERO DUP1 ISZERO PUSH2 0x2D2 JUMPI PUSH0 DUP1 REVERT JUMPDEST POP GAS CALL ISZERO DUP1 ISZERO PUSH2 0x2E4 JUMPI RETURNDATASIZE PUSH0 DUP1 RETURNDATACOPY RETURNDATASIZE PUSH0 REVERT JUMPDEST POP POP POP POP POP POP JUMP JUMPDEST DUP2 PUSH20 0xFFFFFFFFFFFFFFFFFFFFFFFFFFFFFFFFFFFFFFFF AND PUSH4 0x4018D9AA DUP3 PUSH1 0x40 MLOAD DUP3 PUSH4 0xFFFFFFFF AND PUSH1 0xE0 SHL DUP2 MSTORE PUSH1 0x4 ADD PUSH2 0x325 SWAP2 SWAP1 PUSH2 0x3F7 JUMP JUMPDEST PUSH0 PUSH1 0x40 MLOAD DUP1 DUP4 SUB DUP2 PUSH0 DUP8 DUP1 EXTCODESIZE ISZERO DUP1 ISZERO PUSH2 0x33C JUMPI PUSH0 DUP1 REVERT JUMPDEST POP GAS CALL ISZERO DUP1 ISZERO PUSH2 0x34E JUMPI RETURNDATASIZE PUSH0 DUP1 RETURNDATACOPY RETURNDATASIZE PUSH0 REVERT JUMPDEST POP POP POP POP POP POP JUMP JUMPDEST PUSH0 DUP1 REVERT JUMPDEST PUSH0 PUSH20 0xFFFFFFFFFFFFFFFFFFFFFFFFFFFFFFFFFFFFFFFF DUP3 AND SWAP1 POP SWAP2 SWAP1 POP JUMP JUMPDEST PUSH0 PUSH2 0x383 DUP3 PUSH2 0x35A JUMP JUMPDEST SWAP1 POP SWAP2 SWAP1 POP JUMP JUMPDEST PUSH2 0x393 DUP2 PUSH2 0x379 JUMP JUMPDEST DUP2 EQ PUSH2 0x39D JUMPI PUSH0 DUP1 REVERT JUMPDEST POP JUMP JUMPDEST PUSH0 DUP2 CALLDATALOAD SWAP1 POP PUSH2 0x3AE DUP2 PUSH2 0x38A JUMP JUMPDEST SWAP3 SWAP2 POP POP JUMP JUMPDEST PUSH0 PUSH1 0x20 DUP3 DUP5 SUB SLT ISZERO PUSH2 0x3C9 JUMPI PUSH2 0x3C8 PUSH2 0x356 JUMP JUMPDEST JUMPDEST PUSH0 PUSH2 0x3D6 DUP5 DUP3 DUP6 ADD PUSH2 0x3A0 JUMP JUMPDEST SWAP2 POP POP SWAP3 SWAP2 POP POP JUMP JUMPDEST PUSH0 DUP2 SWAP1 POP SWAP2 SWAP1 POP JUMP JUMPDEST PUSH2 0x3F1 DUP2 PUSH2 0x3DF JUMP JUMPDEST DUP3 MSTORE POP POP JUMP JUMPDEST PUSH0 PUSH1 0x20 DUP3 ADD SWAP1 POP PUSH2 0x40A PUSH0 DUP4 ADD DUP5 PUSH2 0x3E8 JUMP JUMPDEST SWAP3 SWAP2 POP POP JUMP JUMPDEST PUSH0 PUSH1 0x40 DUP3 ADD SWAP1 POP PUSH2 0x423 PUSH0 DUP4 ADD DUP6 PUSH2 0x3E8 JUMP JUMPDEST PUSH2 0x430 PUSH1 0x20 DUP4 ADD DUP5 PUSH2 0x3E8 JUMP JUMPDEST SWAP4 SWAP3 POP POP POP JUMP JUMPDEST PUSH2 0x440 DUP2 PUSH2 0x3DF JUMP JUMPDEST DUP2 EQ PUSH2 0x44A JUMPI PUSH0 DUP1 REVERT JUMPDEST POP JUMP JUMPDEST PUSH0 DUP2 CALLDATALOAD SWAP1 POP PUSH2 0x45B DUP2 PUSH2 0x437 JUMP JUMPDEST SWAP3 SWAP2 POP POP JUMP JUMPDEST PUSH0 DUP1 PUSH1 0x40 DUP4 DUP6 SUB SLT ISZERO PUSH2 0x477 JUMPI PUSH2 0x476 PUSH2 0x356 JUMP JUMPDEST JUMPDEST PUSH0 PUSH2 0x484 DUP6 DUP3 DUP7 ADD PUSH2 0x3A0 JUMP JUMPDEST SWAP3 POP POP PUSH1 0x20 PUSH2 0x495 DUP6 DUP3 DUP7 ADD PUSH2 0x44D JUMP JUMPDEST SWAP2 POP POP SWAP3 POP SWAP3 SWAP1 POP JUMP JUMPDEST PUSH0 PUSH2 0x4A9 DUP3 PUSH2 0x379 JUMP JUMPDEST SWAP1 POP SWAP2 SWAP1 POP JUMP JUMPDEST PUSH2 0x4B9 DUP2 PUSH2 0x49F JUMP JUMPDEST DUP2 EQ PUSH2 0x4C3 JUMPI PUSH0 DUP1 REVERT JUMPDEST POP JUMP JUMPDEST PUSH0 DUP2 CALLDATALOAD SWAP1 POP PUSH2 0x4D4 DUP2 PUSH2 0x4B0 JUMP JUMPDEST SWAP3 SWAP2 POP POP JUMP JUMPDEST PUSH0 DUP1 PUSH1 0x40 DUP4 DUP6 SUB SLT ISZERO PUSH2 0x4F0 JUMPI PUSH2 0x4EF PUSH2 0x356 JUMP JUMPDEST JUMPDEST PUSH0 PUSH2 0x4FD DUP6 DUP3 DUP7 ADD PUSH2 0x4C6 JUMP JUMPDEST SWAP3 POP POP PUSH1 0x20 PUSH2 0x50E DUP6 DUP3 DUP7 ADD PUSH2 0x44D JUMP JUMPDEST SWAP2 POP POP SWAP3 POP SWAP3 SWAP1 POP JUMP JUMPDEST PUSH0 DUP2 MLOAD SWAP1 POP PUSH2 0x526 DUP2 PUSH2 0x437 JUMP JUMPDEST SWAP3 SWAP2 POP POP JUMP JUMPDEST PUSH0 PUSH1 0x20 DUP3 DUP5 SUB SLT ISZERO PUSH2 0x541 JUMPI PUSH2 0x540 PUSH2 0x356 JUMP JUMPDEST JUMPDEST PUSH0 PUSH2 0x54E DUP5 DUP3 DUP6 ADD PUSH2 0x518 JUMP JUMPDEST SWAP2 POP POP SWAP3 SWAP2 POP POP JUMP JUMPDEST PUSH0 DUP1 PUSH1 0x40 DUP4 DUP6 SUB SLT ISZERO PUSH2 0x56D JUMPI PUSH2 0x56C PUSH2 0x356 JUMP JUMPDEST JUMPDEST PUSH0 PUSH2 0x57A DUP6 DUP3 DUP7 ADD PUSH2 0x518 JUMP JUMPDEST SWAP3 POP POP PUSH1 0x20 PUSH2 0x58B DUP6 DUP3 DUP7 ADD PUSH2 0x518 JUMP JUMPDEST SWAP2 POP POP SWAP3 POP SWAP3 SWAP1 POP JUMP INVALID LOG2 PUSH5 0x6970667358 0x22 SLT KECCAK256 PUSH5 0xB68AE091E0 PUSH22 0x262EA6FFD41EC9E059A85FCFCFABEB7BFA816EB74461 0x29 PUSH3 0xA46473 PUSH16 0x6C634300081600330000000000000000 "
		},
		"gasEstimates": {
			"creation": {
				"codeDepositCost": "296600",
				"executionCost": "335",
				"totalCost": "296935"
			},
			"external": {
				"getX(address)": "infinite",
				"getXandY(address)": "infinite",
				"setX1(address,uint256)": "infinite",
				"setX2(address,uint256)": "infinite",
				"setYBySendEth(address)": "infinite"
			}
		},
		"methodIdentifiers": {
			"getX(address)": "7c94c8ca",
			"getXandY(address)": "82347440",
			"setX1(address,uint256)": "a263701a",
			"setX2(address,uint256)": "ef7aea62",
			"setYBySendEth(address)": "8f9116b0"
		}
	},
	"abi": [
		{
			"inputs": [
				{
					"internalType": "address",
					"name": "_ads",
					"type": "address"
				}
			],
			"name": "getX",
			"outputs": [
				{
					"internalType": "uint256",
					"name": "",
					"type": "uint256"
				}
			],
			"stateMutability": "view",
			"type": "function"
		},
		{
			"inputs": [
				{
					"internalType": "address",
					"name": "_ads",
					"type": "address"
				}
			],
			"name": "getXandY",
			"outputs": [
				{
					"internalType": "uint256",
					"name": "__x",
					"type": "uint256"
				},
				{
					"internalType": "uint256",
					"name": "__y",
					"type": "uint256"
				}
			],
			"stateMutability": "view",
			"type": "function"
		},
		{
			"inputs": [
				{
					"internalType": "address",
					"name": "_ads",
					"type": "address"
				},
				{
					"internalType": "uint256",
					"name": "_x",
					"type": "uint256"
				}
			],
			"name": "setX1",
			"outputs": [],
			"stateMutability": "nonpayable",
			"type": "function"
		},
		{
			"inputs": [
				{
					"internalType": "contract Test",
					"name": "_ads",
					"type": "address"
				},
				{
					"internalType": "uint256",
					"name": "_x",
					"type": "uint256"
				}
			],
			"name": "setX2",
			"outputs": [],
			"stateMutability": "nonpayable",
			"type": "function"
		},
		{
			"inputs": [
				{
					"internalType": "address",
					"name": "_ads",
					"type": "address"
				}
			],
			"name": "setYBySendEth",
			"outputs": [],
			"stateMutability": "payable",
			"type": "function"
		}
	]
}