{
	"data": {
		"bytecode": {
			"linkReferences": {},
			"object": "60c0604052600160025f6101000a81548160ff021916908315150217905550601e426200002d9190620000dc565b6003553480156200003c575f80fd5b5060405162001178380380620011788339818101604052810190620000629190620001aa565b8173ffffffffffffffffffffffffffffffffffffffff1660808173ffffffffffffffffffffffffffffffffffffffff16815250508060a081815250505050620001ef565b5f819050919050565b7f4e487b71000000000000000000000000000000000000000000000000000000005f52601160045260245ffd5b5f620000e882620000a6565b9150620000f583620000a6565b925082820190508082111562000110576200010f620000af565b5b92915050565b5f80fd5b5f73ffffffffffffffffffffffffffffffffffffffff82169050919050565b5f62000145826200011a565b9050919050565b620001578162000139565b811462000162575f80fd5b50565b5f8151905062000175816200014c565b92915050565b6200018681620000a6565b811462000191575f80fd5b50565b5f81519050620001a4816200017b565b92915050565b5f8060408385031215620001c357620001c262000116565b5b5f620001d28582860162000165565b9250506020620001e58582860162000194565b9150509250929050565b60805160a051610f67620002115f395f61048001525f61030e0152610f675ff3fe6080604052600436106100a6575f3560e01c8063b3de648b11610063578063b3de648b146101b8578063c74073a1146101f4578063dc0d3dff14610230578063dec160581461026d578063e2dc4310146102a9578063f95e4368146102c5576100a6565b806304a79c97146100aa57806329dcb0cf146100d457806338af3eed146100fe57806351cff8d9146101285780637a3a0e841461016457806394de84841461018e575b5f80fd5b3480156100b5575f80fd5b506100be610301565b6040516100cb9190610a4c565b60405180910390f35b3480156100df575f80fd5b506100e8610306565b6040516100f59190610a4c565b60405180910390f35b348015610109575f80fd5b5061011261030c565b60405161011f9190610aa4565b60405180910390f35b348015610133575f80fd5b5061014e60048036038101906101499190610aeb565b610330565b60405161015b9190610b30565b60405180910390f35b34801561016f575f80fd5b5061017861047e565b6040516101859190610a4c565b60405180910390f35b348015610199575f80fd5b506101a26104a2565b6040516101af9190610b30565b60405180910390f35b3480156101c3575f80fd5b506101de60048036038101906101d99190610b73565b6104b4565b6040516101eb9190610a4c565b60405180910390f35b3480156101ff575f80fd5b5061021a60048036038101906102159190610aeb565b6104be565b6040516102279190610b30565b60405180910390f35b34801561023b575f80fd5b5061025660048036038101906102519190610b73565b61060c565b604051610264929190610b9e565b60405180910390f35b348015610278575f80fd5b50610293600480360381019061028e9190610bc5565b61065a565b6040516102a09190610a4c565b60405180910390f35b6102c360048036038101906102be9190610aeb565b6107b4565b005b3480156102d0575f80fd5b506102eb60048036038101906102e69190610aeb565b6108e6565b6040516102f89190610a4c565b60405180910390f35b5f5481565b60035481565b7f000000000000000000000000000000000000000000000000000000000000000081565b5f806040516024016040516020818303038152906040527f3ccfd60b000000000000000000000000000000000000000000000000000000007bffffffffffffffffffffffffffffffffffffffffffffffffffffffff19166020820180517bffffffffffffffffffffffffffffffffffffffffffffffffffffffff838183161783525050505090505f808473ffffffffffffffffffffffffffffffffffffffff16836040516103de9190610c6f565b5f60405180830381855af49150503d805f8114610416576040519150601f19603f3d011682016040523d82523d5f602084013e61041b565b606091505b509150915081610460576040517f08c379a000000000000000000000000000000000000000000000000000000000815260040161045790610cdf565b60405180910390fd5b808060200190518101906104749190610d27565b9350505050919050565b7f000000000000000000000000000000000000000000000000000000000000000081565b60025f9054906101000a900460ff1681565b5f81549050919050565b5f806040516024016040516020818303038152906040527f43d726d6000000000000000000000000000000000000000000000000000000007bffffffffffffffffffffffffffffffffffffffffffffffffffffffff19166020820180517bffffffffffffffffffffffffffffffffffffffffffffffffffffffff838183161783525050505090505f808473ffffffffffffffffffffffffffffffffffffffff168360405161056c9190610c6f565b5f60405180830381855af49150503d805f81146105a4576040519150601f19603f3d011682016040523d82523d5f602084013e6105a9565b606091505b5091509150816105ee576040517f08c379a00000000000000000000000000000000000000000000000000000000081526004016105e590610d9c565b60405180910390fd5b808060200190518101906106029190610d27565b9350505050919050565b6001818154811061061b575f80fd5b905f5260205f2090600202015f91509050805f015f9054906101000a900473ffffffffffffffffffffffffffffffffffffffff16908060010154905082565b5f808260405160240161066d9190610aa4565b6040516020818303038152906040527f0c051585000000000000000000000000000000000000000000000000000000007bffffffffffffffffffffffffffffffffffffffffffffffffffffffff19166020820180517bffffffffffffffffffffffffffffffffffffffffffffffffffffffff838183161783525050505090505f808573ffffffffffffffffffffffffffffffffffffffff16836040516107139190610c6f565b5f60405180830381855af49150503d805f811461074b576040519150601f19603f3d011682016040523d82523d5f602084013e610750565b606091505b509150915081610795576040517f08c379a000000000000000000000000000000000000000000000000000000000815260040161078c90610e04565b60405180910390fd5b808060200190518101906107a99190610e36565b935050505092915050565b5f6040516024016040516020818303038152906040527f50520b1f000000000000000000000000000000000000000000000000000000007bffffffffffffffffffffffffffffffffffffffffffffffffffffffff19166020820180517bffffffffffffffffffffffffffffffffffffffffffffffffffffffff838183161783525050505090505f8273ffffffffffffffffffffffffffffffffffffffff16826040516108609190610c6f565b5f60405180830381855af49150503d805f8114610898576040519150601f19603f3d011682016040523d82523d5f602084013e61089d565b606091505b50509050806108e1576040517f08c379a00000000000000000000000000000000000000000000000000000000081526004016108d890610eab565b60405180910390fd5b505050565b5f806040516024016040516020818303038152906040527fe3d94735000000000000000000000000000000000000000000000000000000007bffffffffffffffffffffffffffffffffffffffffffffffffffffffff19166020820180517bffffffffffffffffffffffffffffffffffffffffffffffffffffffff838183161783525050505090505f808473ffffffffffffffffffffffffffffffffffffffff16836040516109949190610c6f565b5f60405180830381855af49150503d805f81146109cc576040519150601f19603f3d011682016040523d82523d5f602084013e6109d1565b606091505b509150915081610a16576040517f08c379a0000000000000000000000000000000000000000000000000000000008152600401610a0d90610f13565b60405180910390fd5b80806020019051810190610a2a9190610e36565b9350505050919050565b5f819050919050565b610a4681610a34565b82525050565b5f602082019050610a5f5f830184610a3d565b92915050565b5f73ffffffffffffffffffffffffffffffffffffffff82169050919050565b5f610a8e82610a65565b9050919050565b610a9e81610a84565b82525050565b5f602082019050610ab75f830184610a95565b92915050565b5f80fd5b610aca81610a84565b8114610ad4575f80fd5b50565b5f81359050610ae581610ac1565b92915050565b5f60208284031215610b0057610aff610abd565b5b5f610b0d84828501610ad7565b91505092915050565b5f8115159050919050565b610b2a81610b16565b82525050565b5f602082019050610b435f830184610b21565b92915050565b610b5281610a34565b8114610b5c575f80fd5b50565b5f81359050610b6d81610b49565b92915050565b5f60208284031215610b8857610b87610abd565b5b5f610b9584828501610b5f565b91505092915050565b5f604082019050610bb15f830185610a95565b610bbe6020830184610a3d565b9392505050565b5f8060408385031215610bdb57610bda610abd565b5b5f610be885828601610ad7565b9250506020610bf985828601610ad7565b9150509250929050565b5f81519050919050565b5f81905092915050565b5f5b83811015610c34578082015181840152602081019050610c19565b5f8484015250505050565b5f610c4982610c03565b610c538185610c0d565b9350610c63818560208601610c17565b80840191505092915050565b5f610c7a8284610c3f565b915081905092915050565b5f82825260208201905092915050565b7f63616c6c207769746864726177206572726f72000000000000000000000000005f82015250565b5f610cc9601383610c85565b9150610cd482610c95565b602082019050919050565b5f6020820190508181035f830152610cf681610cbd565b9050919050565b610d0681610b16565b8114610d10575f80fd5b50565b5f81519050610d2181610cfd565b92915050565b5f60208284031215610d3c57610d3b610abd565b5b5f610d4984828501610d13565b91505092915050565b7f63616c6c20636c6f7365206572726f72000000000000000000000000000000005f82015250565b5f610d86601083610c85565b9150610d9182610d52565b602082019050919050565b5f6020820190508181035f830152610db381610d7a565b9050919050565b7f63616c6c2067657446756e64657273496e646578206572726f722000000000005f82015250565b5f610dee601b83610c85565b9150610df982610dba565b602082019050919050565b5f6020820190508181035f830152610e1b81610de2565b9050919050565b5f81519050610e3081610b49565b92915050565b5f60208284031215610e4b57610e4a610abd565b5b5f610e5884828501610e22565b91505092915050565b7f63616c6c20636f6e747269627574696f6e206572726f720000000000000000005f82015250565b5f610e95601783610c85565b9150610ea082610e61565b602082019050919050565b5f6020820190508181035f830152610ec281610e89565b9050919050565b7f63616c6c2066756e646572734c656e677468206572726f7200000000000000005f82015250565b5f610efd601883610c85565b9150610f0882610ec9565b602082019050919050565b5f6020820190508181035f830152610f2a81610ef1565b905091905056fea26469706673582212202f1bae94318afd73aff73c87dec46323880f40b61c808bdfc64f56963582b9c764736f6c63430008160033",
			"opcodes": "PUSH1 0xC0 PUSH1 0x40 MSTORE PUSH1 0x1 PUSH1 0x2 PUSH0 PUSH2 0x100 EXP DUP2 SLOAD DUP2 PUSH1 0xFF MUL NOT AND SWAP1 DUP4 ISZERO ISZERO MUL OR SWAP1 SSTORE POP PUSH1 0x1E TIMESTAMP PUSH3 0x2D SWAP2 SWAP1 PUSH3 0xDC JUMP JUMPDEST PUSH1 0x3 SSTORE CALLVALUE DUP1 ISZERO PUSH3 0x3C JUMPI PUSH0 DUP1 REVERT JUMPDEST POP PUSH1 0x40 MLOAD PUSH3 0x1178 CODESIZE SUB DUP1 PUSH3 0x1178 DUP4 CODECOPY DUP2 DUP2 ADD PUSH1 0x40 MSTORE DUP2 ADD SWAP1 PUSH3 0x62 SWAP2 SWAP1 PUSH3 0x1AA JUMP JUMPDEST DUP2 PUSH20 0xFFFFFFFFFFFFFFFFFFFFFFFFFFFFFFFFFFFFFFFF AND PUSH1 0x80 DUP2 PUSH20 0xFFFFFFFFFFFFFFFFFFFFFFFFFFFFFFFFFFFFFFFF AND DUP2 MSTORE POP POP DUP1 PUSH1 0xA0 DUP2 DUP2 MSTORE POP POP POP POP PUSH3 0x1EF JUMP JUMPDEST PUSH0 DUP2 SWAP1 POP SWAP2 SWAP1 POP JUMP JUMPDEST PUSH32 0x4E487B7100000000000000000000000000000000000000000000000000000000 PUSH0 MSTORE PUSH1 0x11 PUSH1 0x4 MSTORE PUSH1 0x24 PUSH0 REVERT JUMPDEST PUSH0 PUSH3 0xE8 DUP3 PUSH3 0xA6 JUMP JUMPDEST SWAP2 POP PUSH3 0xF5 DUP4 PUSH3 0xA6 JUMP JUMPDEST SWAP3 POP DUP3 DUP3 ADD SWAP1 POP DUP1 DUP3 GT ISZERO PUSH3 0x110 JUMPI PUSH3 0x10F PUSH3 0xAF JUMP JUMPDEST JUMPDEST SWAP3 SWAP2 POP POP JUMP JUMPDEST PUSH0 DUP1 REVERT JUMPDEST PUSH0 PUSH20 0xFFFFFFFFFFFFFFFFFFFFFFFFFFFFFFFFFFFFFFFF DUP3 AND SWAP1 POP SWAP2 SWAP1 POP JUMP JUMPDEST PUSH0 PUSH3 0x145 DUP3 PUSH3 0x11A JUMP JUMPDEST SWAP1 POP SWAP2 SWAP1 POP JUMP JUMPDEST PUSH3 0x157 DUP2 PUSH3 0x139 JUMP JUMPDEST DUP2 EQ PUSH3 0x162 JUMPI PUSH0 DUP1 REVERT JUMPDEST POP JUMP JUMPDEST PUSH0 DUP2 MLOAD SWAP1 POP PUSH3 0x175 DUP2 PUSH3 0x14C JUMP JUMPDEST SWAP3 SWAP2 POP POP JUMP JUMPDEST PUSH3 0x186 DUP2 PUSH3 0xA6 JUMP JUMPDEST DUP2 EQ PUSH3 0x191 JUMPI PUSH0 DUP1 REVERT JUMPDEST POP JUMP JUMPDEST PUSH0 DUP2 MLOAD SWAP1 POP PUSH3 0x1A4 DUP2 PUSH3 0x17B JUMP JUMPDEST SWAP3 SWAP2 POP POP JUMP JUMPDEST PUSH0 DUP1 PUSH1 0x40 DUP4 DUP6 SUB SLT ISZERO PUSH3 0x1C3 JUMPI PUSH3 0x1C2 PUSH3 0x116 JUMP JUMPDEST JUMPDEST PUSH0 PUSH3 0x1D2 DUP6 DUP3 DUP7 ADD PUSH3 0x165 JUMP JUMPDEST SWAP3 POP POP PUSH1 0x20 PUSH3 0x1E5 DUP6 DUP3 DUP7 ADD PUSH3 0x194 JUMP JUMPDEST SWAP2 POP POP SWAP3 POP SWAP3 SWAP1 POP JUMP JUMPDEST PUSH1 0x80 MLOAD PUSH1 0xA0 MLOAD PUSH2 0xF67 PUSH3 0x211 PUSH0 CODECOPY PUSH0 PUSH2 0x480 ADD MSTORE PUSH0 PUSH2 0x30E ADD MSTORE PUSH2 0xF67 PUSH0 RETURN INVALID PUSH1 0x80 PUSH1 0x40 MSTORE PUSH1 0x4 CALLDATASIZE LT PUSH2 0xA6 JUMPI PUSH0 CALLDATALOAD PUSH1 0xE0 SHR DUP1 PUSH4 0xB3DE648B GT PUSH2 0x63 JUMPI DUP1 PUSH4 0xB3DE648B EQ PUSH2 0x1B8 JUMPI DUP1 PUSH4 0xC74073A1 EQ PUSH2 0x1F4 JUMPI DUP1 PUSH4 0xDC0D3DFF EQ PUSH2 0x230 JUMPI DUP1 PUSH4 0xDEC16058 EQ PUSH2 0x26D JUMPI DUP1 PUSH4 0xE2DC4310 EQ PUSH2 0x2A9 JUMPI DUP1 PUSH4 0xF95E4368 EQ PUSH2 0x2C5 JUMPI PUSH2 0xA6 JUMP JUMPDEST DUP1 PUSH4 0x4A79C97 EQ PUSH2 0xAA JUMPI DUP1 PUSH4 0x29DCB0CF EQ PUSH2 0xD4 JUMPI DUP1 PUSH4 0x38AF3EED EQ PUSH2 0xFE JUMPI DUP1 PUSH4 0x51CFF8D9 EQ PUSH2 0x128 JUMPI DUP1 PUSH4 0x7A3A0E84 EQ PUSH2 0x164 JUMPI DUP1 PUSH4 0x94DE8484 EQ PUSH2 0x18E JUMPI JUMPDEST PUSH0 DUP1 REVERT JUMPDEST CALLVALUE DUP1 ISZERO PUSH2 0xB5 JUMPI PUSH0 DUP1 REVERT JUMPDEST POP PUSH2 0xBE PUSH2 0x301 JUMP JUMPDEST PUSH1 0x40 MLOAD PUSH2 0xCB SWAP2 SWAP1 PUSH2 0xA4C JUMP JUMPDEST PUSH1 0x40 MLOAD DUP1 SWAP2 SUB SWAP1 RETURN JUMPDEST CALLVALUE DUP1 ISZERO PUSH2 0xDF JUMPI PUSH0 DUP1 REVERT JUMPDEST POP PUSH2 0xE8 PUSH2 0x306 JUMP JUMPDEST PUSH1 0x40 MLOAD PUSH2 0xF5 SWAP2 SWAP1 PUSH2 0xA4C JUMP JUMPDEST PUSH1 0x40 MLOAD DUP1 SWAP2 SUB SWAP1 RETURN JUMPDEST CALLVALUE DUP1 ISZERO PUSH2 0x109 JUMPI PUSH0 DUP1 REVERT JUMPDEST POP PUSH2 0x112 PUSH2 0x30C JUMP JUMPDEST PUSH1 0x40 MLOAD PUSH2 0x11F SWAP2 SWAP1 PUSH2 0xAA4 JUMP JUMPDEST PUSH1 0x40 MLOAD DUP1 SWAP2 SUB SWAP1 RETURN JUMPDEST CALLVALUE DUP1 ISZERO PUSH2 0x133 JUMPI PUSH0 DUP1 REVERT JUMPDEST POP PUSH2 0x14E PUSH1 0x4 DUP1 CALLDATASIZE SUB DUP2 ADD SWAP1 PUSH2 0x149 SWAP2 SWAP1 PUSH2 0xAEB JUMP JUMPDEST PUSH2 0x330 JUMP JUMPDEST PUSH1 0x40 MLOAD PUSH2 0x15B SWAP2 SWAP1 PUSH2 0xB30 JUMP JUMPDEST PUSH1 0x40 MLOAD DUP1 SWAP2 SUB SWAP1 RETURN JUMPDEST CALLVALUE DUP1 ISZERO PUSH2 0x16F JUMPI PUSH0 DUP1 REVERT JUMPDEST POP PUSH2 0x178 PUSH2 0x47E JUMP JUMPDEST PUSH1 0x40 MLOAD PUSH2 0x185 SWAP2 SWAP1 PUSH2 0xA4C JUMP JUMPDEST PUSH1 0x40 MLOAD DUP1 SWAP2 SUB SWAP1 RETURN JUMPDEST CALLVALUE DUP1 ISZERO PUSH2 0x199 JUMPI PUSH0 DUP1 REVERT JUMPDEST POP PUSH2 0x1A2 PUSH2 0x4A2 JUMP JUMPDEST PUSH1 0x40 MLOAD PUSH2 0x1AF SWAP2 SWAP1 PUSH2 0xB30 JUMP JUMPDEST PUSH1 0x40 MLOAD DUP1 SWAP2 SUB SWAP1 RETURN JUMPDEST CALLVALUE DUP1 ISZERO PUSH2 0x1C3 JUMPI PUSH0 DUP1 REVERT JUMPDEST POP PUSH2 0x1DE PUSH1 0x4 DUP1 CALLDATASIZE SUB DUP2 ADD SWAP1 PUSH2 0x1D9 SWAP2 SWAP1 PUSH2 0xB73 JUMP JUMPDEST PUSH2 0x4B4 JUMP JUMPDEST PUSH1 0x40 MLOAD PUSH2 0x1EB SWAP2 SWAP1 PUSH2 0xA4C JUMP JUMPDEST PUSH1 0x40 MLOAD DUP1 SWAP2 SUB SWAP1 RETURN JUMPDEST CALLVALUE DUP1 ISZERO PUSH2 0x1FF JUMPI PUSH0 DUP1 REVERT JUMPDEST POP PUSH2 0x21A PUSH1 0x4 DUP1 CALLDATASIZE SUB DUP2 ADD SWAP1 PUSH2 0x215 SWAP2 SWAP1 PUSH2 0xAEB JUMP JUMPDEST PUSH2 0x4BE JUMP JUMPDEST PUSH1 0x40 MLOAD PUSH2 0x227 SWAP2 SWAP1 PUSH2 0xB30 JUMP JUMPDEST PUSH1 0x40 MLOAD DUP1 SWAP2 SUB SWAP1 RETURN JUMPDEST CALLVALUE DUP1 ISZERO PUSH2 0x23B JUMPI PUSH0 DUP1 REVERT JUMPDEST POP PUSH2 0x256 PUSH1 0x4 DUP1 CALLDATASIZE SUB DUP2 ADD SWAP1 PUSH2 0x251 SWAP2 SWAP1 PUSH2 0xB73 JUMP JUMPDEST PUSH2 0x60C JUMP JUMPDEST PUSH1 0x40 MLOAD PUSH2 0x264 SWAP3 SWAP2 SWAP1 PUSH2 0xB9E JUMP JUMPDEST PUSH1 0x40 MLOAD DUP1 SWAP2 SUB SWAP1 RETURN JUMPDEST CALLVALUE DUP1 ISZERO PUSH2 0x278 JUMPI PUSH0 DUP1 REVERT JUMPDEST POP PUSH2 0x293 PUSH1 0x4 DUP1 CALLDATASIZE SUB DUP2 ADD SWAP1 PUSH2 0x28E SWAP2 SWAP1 PUSH2 0xBC5 JUMP JUMPDEST PUSH2 0x65A JUMP JUMPDEST PUSH1 0x40 MLOAD PUSH2 0x2A0 SWAP2 SWAP1 PUSH2 0xA4C JUMP JUMPDEST PUSH1 0x40 MLOAD DUP1 SWAP2 SUB SWAP1 RETURN JUMPDEST PUSH2 0x2C3 PUSH1 0x4 DUP1 CALLDATASIZE SUB DUP2 ADD SWAP1 PUSH2 0x2BE SWAP2 SWAP1 PUSH2 0xAEB JUMP JUMPDEST PUSH2 0x7B4 JUMP JUMPDEST STOP JUMPDEST CALLVALUE DUP1 ISZERO PUSH2 0x2D0 JUMPI PUSH0 DUP1 REVERT JUMPDEST POP PUSH2 0x2EB PUSH1 0x4 DUP1 CALLDATASIZE SUB DUP2 ADD SWAP1 PUSH2 0x2E6 SWAP2 SWAP1 PUSH2 0xAEB JUMP JUMPDEST PUSH2 0x8E6 JUMP JUMPDEST PUSH1 0x40 MLOAD PUSH2 0x2F8 SWAP2 SWAP1 PUSH2 0xA4C JUMP JUMPDEST PUSH1 0x40 MLOAD DUP1 SWAP2 SUB SWAP1 RETURN JUMPDEST PUSH0 SLOAD DUP2 JUMP JUMPDEST PUSH1 0x3 SLOAD DUP2 JUMP JUMPDEST PUSH32 0x0 DUP2 JUMP JUMPDEST PUSH0 DUP1 PUSH1 0x40 MLOAD PUSH1 0x24 ADD PUSH1 0x40 MLOAD PUSH1 0x20 DUP2 DUP4 SUB SUB DUP2 MSTORE SWAP1 PUSH1 0x40 MSTORE PUSH32 0x3CCFD60B00000000000000000000000000000000000000000000000000000000 PUSH28 0xFFFFFFFFFFFFFFFFFFFFFFFFFFFFFFFFFFFFFFFFFFFFFFFFFFFFFFFF NOT AND PUSH1 0x20 DUP3 ADD DUP1 MLOAD PUSH28 0xFFFFFFFFFFFFFFFFFFFFFFFFFFFFFFFFFFFFFFFFFFFFFFFFFFFFFFFF DUP4 DUP2 DUP4 AND OR DUP4 MSTORE POP POP POP POP SWAP1 POP PUSH0 DUP1 DUP5 PUSH20 0xFFFFFFFFFFFFFFFFFFFFFFFFFFFFFFFFFFFFFFFF AND DUP4 PUSH1 0x40 MLOAD PUSH2 0x3DE SWAP2 SWAP1 PUSH2 0xC6F JUMP JUMPDEST PUSH0 PUSH1 0x40 MLOAD DUP1 DUP4 SUB DUP2 DUP6 GAS DELEGATECALL SWAP2 POP POP RETURNDATASIZE DUP1 PUSH0 DUP2 EQ PUSH2 0x416 JUMPI PUSH1 0x40 MLOAD SWAP2 POP PUSH1 0x1F NOT PUSH1 0x3F RETURNDATASIZE ADD AND DUP3 ADD PUSH1 0x40 MSTORE RETURNDATASIZE DUP3 MSTORE RETURNDATASIZE PUSH0 PUSH1 0x20 DUP5 ADD RETURNDATACOPY PUSH2 0x41B JUMP JUMPDEST PUSH1 0x60 SWAP2 POP JUMPDEST POP SWAP2 POP SWAP2 POP DUP2 PUSH2 0x460 JUMPI PUSH1 0x40 MLOAD PUSH32 0x8C379A000000000000000000000000000000000000000000000000000000000 DUP2 MSTORE PUSH1 0x4 ADD PUSH2 0x457 SWAP1 PUSH2 0xCDF JUMP JUMPDEST PUSH1 0x40 MLOAD DUP1 SWAP2 SUB SWAP1 REVERT JUMPDEST DUP1 DUP1 PUSH1 0x20 ADD SWAP1 MLOAD DUP2 ADD SWAP1 PUSH2 0x474 SWAP2 SWAP1 PUSH2 0xD27 JUMP JUMPDEST SWAP4 POP POP POP POP SWAP2 SWAP1 POP JUMP JUMPDEST PUSH32 0x0 DUP2 JUMP JUMPDEST PUSH1 0x2 PUSH0 SWAP1 SLOAD SWAP1 PUSH2 0x100 EXP SWAP1 DIV PUSH1 0xFF AND DUP2 JUMP JUMPDEST PUSH0 DUP2 SLOAD SWAP1 POP SWAP2 SWAP1 POP JUMP JUMPDEST PUSH0 DUP1 PUSH1 0x40 MLOAD PUSH1 0x24 ADD PUSH1 0x40 MLOAD PUSH1 0x20 DUP2 DUP4 SUB SUB DUP2 MSTORE SWAP1 PUSH1 0x40 MSTORE PUSH32 0x43D726D600000000000000000000000000000000000000000000000000000000 PUSH28 0xFFFFFFFFFFFFFFFFFFFFFFFFFFFFFFFFFFFFFFFFFFFFFFFFFFFFFFFF NOT AND PUSH1 0x20 DUP3 ADD DUP1 MLOAD PUSH28 0xFFFFFFFFFFFFFFFFFFFFFFFFFFFFFFFFFFFFFFFFFFFFFFFFFFFFFFFF DUP4 DUP2 DUP4 AND OR DUP4 MSTORE POP POP POP POP SWAP1 POP PUSH0 DUP1 DUP5 PUSH20 0xFFFFFFFFFFFFFFFFFFFFFFFFFFFFFFFFFFFFFFFF AND DUP4 PUSH1 0x40 MLOAD PUSH2 0x56C SWAP2 SWAP1 PUSH2 0xC6F JUMP JUMPDEST PUSH0 PUSH1 0x40 MLOAD DUP1 DUP4 SUB DUP2 DUP6 GAS DELEGATECALL SWAP2 POP POP RETURNDATASIZE DUP1 PUSH0 DUP2 EQ PUSH2 0x5A4 JUMPI PUSH1 0x40 MLOAD SWAP2 POP PUSH1 0x1F NOT PUSH1 0x3F RETURNDATASIZE ADD AND DUP3 ADD PUSH1 0x40 MSTORE RETURNDATASIZE DUP3 MSTORE RETURNDATASIZE PUSH0 PUSH1 0x20 DUP5 ADD RETURNDATACOPY PUSH2 0x5A9 JUMP JUMPDEST PUSH1 0x60 SWAP2 POP JUMPDEST POP SWAP2 POP SWAP2 POP DUP2 PUSH2 0x5EE JUMPI PUSH1 0x40 MLOAD PUSH32 0x8C379A000000000000000000000000000000000000000000000000000000000 DUP2 MSTORE PUSH1 0x4 ADD PUSH2 0x5E5 SWAP1 PUSH2 0xD9C JUMP JUMPDEST PUSH1 0x40 MLOAD DUP1 SWAP2 SUB SWAP1 REVERT JUMPDEST DUP1 DUP1 PUSH1 0x20 ADD SWAP1 MLOAD DUP2 ADD SWAP1 PUSH2 0x602 SWAP2 SWAP1 PUSH2 0xD27 JUMP JUMPDEST SWAP4 POP POP POP POP SWAP2 SWAP1 POP JUMP JUMPDEST PUSH1 0x1 DUP2 DUP2 SLOAD DUP2 LT PUSH2 0x61B JUMPI PUSH0 DUP1 REVERT JUMPDEST SWAP1 PUSH0 MSTORE PUSH1 0x20 PUSH0 KECCAK256 SWAP1 PUSH1 0x2 MUL ADD PUSH0 SWAP2 POP SWAP1 POP DUP1 PUSH0 ADD PUSH0 SWAP1 SLOAD SWAP1 PUSH2 0x100 EXP SWAP1 DIV PUSH20 0xFFFFFFFFFFFFFFFFFFFFFFFFFFFFFFFFFFFFFFFF AND SWAP1 DUP1 PUSH1 0x1 ADD SLOAD SWAP1 POP DUP3 JUMP JUMPDEST PUSH0 DUP1 DUP3 PUSH1 0x40 MLOAD PUSH1 0x24 ADD PUSH2 0x66D SWAP2 SWAP1 PUSH2 0xAA4 JUMP JUMPDEST PUSH1 0x40 MLOAD PUSH1 0x20 DUP2 DUP4 SUB SUB DUP2 MSTORE SWAP1 PUSH1 0x40 MSTORE PUSH32 0xC05158500000000000000000000000000000000000000000000000000000000 PUSH28 0xFFFFFFFFFFFFFFFFFFFFFFFFFFFFFFFFFFFFFFFFFFFFFFFFFFFFFFFF NOT AND PUSH1 0x20 DUP3 ADD DUP1 MLOAD PUSH28 0xFFFFFFFFFFFFFFFFFFFFFFFFFFFFFFFFFFFFFFFFFFFFFFFFFFFFFFFF DUP4 DUP2 DUP4 AND OR DUP4 MSTORE POP POP POP POP SWAP1 POP PUSH0 DUP1 DUP6 PUSH20 0xFFFFFFFFFFFFFFFFFFFFFFFFFFFFFFFFFFFFFFFF AND DUP4 PUSH1 0x40 MLOAD PUSH2 0x713 SWAP2 SWAP1 PUSH2 0xC6F JUMP JUMPDEST PUSH0 PUSH1 0x40 MLOAD DUP1 DUP4 SUB DUP2 DUP6 GAS DELEGATECALL SWAP2 POP POP RETURNDATASIZE DUP1 PUSH0 DUP2 EQ PUSH2 0x74B JUMPI PUSH1 0x40 MLOAD SWAP2 POP PUSH1 0x1F NOT PUSH1 0x3F RETURNDATASIZE ADD AND DUP3 ADD PUSH1 0x40 MSTORE RETURNDATASIZE DUP3 MSTORE RETURNDATASIZE PUSH0 PUSH1 0x20 DUP5 ADD RETURNDATACOPY PUSH2 0x750 JUMP JUMPDEST PUSH1 0x60 SWAP2 POP JUMPDEST POP SWAP2 POP SWAP2 POP DUP2 PUSH2 0x795 JUMPI PUSH1 0x40 MLOAD PUSH32 0x8C379A000000000000000000000000000000000000000000000000000000000 DUP2 MSTORE PUSH1 0x4 ADD PUSH2 0x78C SWAP1 PUSH2 0xE04 JUMP JUMPDEST PUSH1 0x40 MLOAD DUP1 SWAP2 SUB SWAP1 REVERT JUMPDEST DUP1 DUP1 PUSH1 0x20 ADD SWAP1 MLOAD DUP2 ADD SWAP1 PUSH2 0x7A9 SWAP2 SWAP1 PUSH2 0xE36 JUMP JUMPDEST SWAP4 POP POP POP POP SWAP3 SWAP2 POP POP JUMP JUMPDEST PUSH0 PUSH1 0x40 MLOAD PUSH1 0x24 ADD PUSH1 0x40 MLOAD PUSH1 0x20 DUP2 DUP4 SUB SUB DUP2 MSTORE SWAP1 PUSH1 0x40 MSTORE PUSH32 0x50520B1F00000000000000000000000000000000000000000000000000000000 PUSH28 0xFFFFFFFFFFFFFFFFFFFFFFFFFFFFFFFFFFFFFFFFFFFFFFFFFFFFFFFF NOT AND PUSH1 0x20 DUP3 ADD DUP1 MLOAD PUSH28 0xFFFFFFFFFFFFFFFFFFFFFFFFFFFFFFFFFFFFFFFFFFFFFFFFFFFFFFFF DUP4 DUP2 DUP4 AND OR DUP4 MSTORE POP POP POP POP SWAP1 POP PUSH0 DUP3 PUSH20 0xFFFFFFFFFFFFFFFFFFFFFFFFFFFFFFFFFFFFFFFF AND DUP3 PUSH1 0x40 MLOAD PUSH2 0x860 SWAP2 SWAP1 PUSH2 0xC6F JUMP JUMPDEST PUSH0 PUSH1 0x40 MLOAD DUP1 DUP4 SUB DUP2 DUP6 GAS DELEGATECALL SWAP2 POP POP RETURNDATASIZE DUP1 PUSH0 DUP2 EQ PUSH2 0x898 JUMPI PUSH1 0x40 MLOAD SWAP2 POP PUSH1 0x1F NOT PUSH1 0x3F RETURNDATASIZE ADD AND DUP3 ADD PUSH1 0x40 MSTORE RETURNDATASIZE DUP3 MSTORE RETURNDATASIZE PUSH0 PUSH1 0x20 DUP5 ADD RETURNDATACOPY PUSH2 0x89D JUMP JUMPDEST PUSH1 0x60 SWAP2 POP JUMPDEST POP POP SWAP1 POP DUP1 PUSH2 0x8E1 JUMPI PUSH1 0x40 MLOAD PUSH32 0x8C379A000000000000000000000000000000000000000000000000000000000 DUP2 MSTORE PUSH1 0x4 ADD PUSH2 0x8D8 SWAP1 PUSH2 0xEAB JUMP JUMPDEST PUSH1 0x40 MLOAD DUP1 SWAP2 SUB SWAP1 REVERT JUMPDEST POP POP POP JUMP JUMPDEST PUSH0 DUP1 PUSH1 0x40 MLOAD PUSH1 0x24 ADD PUSH1 0x40 MLOAD PUSH1 0x20 DUP2 DUP4 SUB SUB DUP2 MSTORE SWAP1 PUSH1 0x40 MSTORE PUSH32 0xE3D9473500000000000000000000000000000000000000000000000000000000 PUSH28 0xFFFFFFFFFFFFFFFFFFFFFFFFFFFFFFFFFFFFFFFFFFFFFFFFFFFFFFFF NOT AND PUSH1 0x20 DUP3 ADD DUP1 MLOAD PUSH28 0xFFFFFFFFFFFFFFFFFFFFFFFFFFFFFFFFFFFFFFFFFFFFFFFFFFFFFFFF DUP4 DUP2 DUP4 AND OR DUP4 MSTORE POP POP POP POP SWAP1 POP PUSH0 DUP1 DUP5 PUSH20 0xFFFFFFFFFFFFFFFFFFFFFFFFFFFFFFFFFFFFFFFF AND DUP4 PUSH1 0x40 MLOAD PUSH2 0x994 SWAP2 SWAP1 PUSH2 0xC6F JUMP JUMPDEST PUSH0 PUSH1 0x40 MLOAD DUP1 DUP4 SUB DUP2 DUP6 GAS DELEGATECALL SWAP2 POP POP RETURNDATASIZE DUP1 PUSH0 DUP2 EQ PUSH2 0x9CC JUMPI PUSH1 0x40 MLOAD SWAP2 POP PUSH1 0x1F NOT PUSH1 0x3F RETURNDATASIZE ADD AND DUP3 ADD PUSH1 0x40 MSTORE RETURNDATASIZE DUP3 MSTORE RETURNDATASIZE PUSH0 PUSH1 0x20 DUP5 ADD RETURNDATACOPY PUSH2 0x9D1 JUMP JUMPDEST PUSH1 0x60 SWAP2 POP JUMPDEST POP SWAP2 POP SWAP2 POP DUP2 PUSH2 0xA16 JUMPI PUSH1 0x40 MLOAD PUSH32 0x8C379A000000000000000000000000000000000000000000000000000000000 DUP2 MSTORE PUSH1 0x4 ADD PUSH2 0xA0D SWAP1 PUSH2 0xF13 JUMP JUMPDEST PUSH1 0x40 MLOAD DUP1 SWAP2 SUB SWAP1 REVERT JUMPDEST DUP1 DUP1 PUSH1 0x20 ADD SWAP1 MLOAD DUP2 ADD SWAP1 PUSH2 0xA2A SWAP2 SWAP1 PUSH2 0xE36 JUMP JUMPDEST SWAP4 POP POP POP POP SWAP2 SWAP1 POP JUMP JUMPDEST PUSH0 DUP2 SWAP1 POP SWAP2 SWAP1 POP JUMP JUMPDEST PUSH2 0xA46 DUP2 PUSH2 0xA34 JUMP JUMPDEST DUP3 MSTORE POP POP JUMP JUMPDEST PUSH0 PUSH1 0x20 DUP3 ADD SWAP1 POP PUSH2 0xA5F PUSH0 DUP4 ADD DUP5 PUSH2 0xA3D JUMP JUMPDEST SWAP3 SWAP2 POP POP JUMP JUMPDEST PUSH0 PUSH20 0xFFFFFFFFFFFFFFFFFFFFFFFFFFFFFFFFFFFFFFFF DUP3 AND SWAP1 POP SWAP2 SWAP1 POP JUMP JUMPDEST PUSH0 PUSH2 0xA8E DUP3 PUSH2 0xA65 JUMP JUMPDEST SWAP1 POP SWAP2 SWAP1 POP JUMP JUMPDEST PUSH2 0xA9E DUP2 PUSH2 0xA84 JUMP JUMPDEST DUP3 MSTORE POP POP JUMP JUMPDEST PUSH0 PUSH1 0x20 DUP3 ADD SWAP1 POP PUSH2 0xAB7 PUSH0 DUP4 ADD DUP5 PUSH2 0xA95 JUMP JUMPDEST SWAP3 SWAP2 POP POP JUMP JUMPDEST PUSH0 DUP1 REVERT JUMPDEST PUSH2 0xACA DUP2 PUSH2 0xA84 JUMP JUMPDEST DUP2 EQ PUSH2 0xAD4 JUMPI PUSH0 DUP1 REVERT JUMPDEST POP JUMP JUMPDEST PUSH0 DUP2 CALLDATALOAD SWAP1 POP PUSH2 0xAE5 DUP2 PUSH2 0xAC1 JUMP JUMPDEST SWAP3 SWAP2 POP POP JUMP JUMPDEST PUSH0 PUSH1 0x20 DUP3 DUP5 SUB SLT ISZERO PUSH2 0xB00 JUMPI PUSH2 0xAFF PUSH2 0xABD JUMP JUMPDEST JUMPDEST PUSH0 PUSH2 0xB0D DUP5 DUP3 DUP6 ADD PUSH2 0xAD7 JUMP JUMPDEST SWAP2 POP POP SWAP3 SWAP2 POP POP JUMP JUMPDEST PUSH0 DUP2 ISZERO ISZERO SWAP1 POP SWAP2 SWAP1 POP JUMP JUMPDEST PUSH2 0xB2A DUP2 PUSH2 0xB16 JUMP JUMPDEST DUP3 MSTORE POP POP JUMP JUMPDEST PUSH0 PUSH1 0x20 DUP3 ADD SWAP1 POP PUSH2 0xB43 PUSH0 DUP4 ADD DUP5 PUSH2 0xB21 JUMP JUMPDEST SWAP3 SWAP2 POP POP JUMP JUMPDEST PUSH2 0xB52 DUP2 PUSH2 0xA34 JUMP JUMPDEST DUP2 EQ PUSH2 0xB5C JUMPI PUSH0 DUP1 REVERT JUMPDEST POP JUMP JUMPDEST PUSH0 DUP2 CALLDATALOAD SWAP1 POP PUSH2 0xB6D DUP2 PUSH2 0xB49 JUMP JUMPDEST SWAP3 SWAP2 POP POP JUMP JUMPDEST PUSH0 PUSH1 0x20 DUP3 DUP5 SUB SLT ISZERO PUSH2 0xB88 JUMPI PUSH2 0xB87 PUSH2 0xABD JUMP JUMPDEST JUMPDEST PUSH0 PUSH2 0xB95 DUP5 DUP3 DUP6 ADD PUSH2 0xB5F JUMP JUMPDEST SWAP2 POP POP SWAP3 SWAP2 POP POP JUMP JUMPDEST PUSH0 PUSH1 0x40 DUP3 ADD SWAP1 POP PUSH2 0xBB1 PUSH0 DUP4 ADD DUP6 PUSH2 0xA95 JUMP JUMPDEST PUSH2 0xBBE PUSH1 0x20 DUP4 ADD DUP5 PUSH2 0xA3D JUMP JUMPDEST SWAP4 SWAP3 POP POP POP JUMP JUMPDEST PUSH0 DUP1 PUSH1 0x40 DUP4 DUP6 SUB SLT ISZERO PUSH2 0xBDB JUMPI PUSH2 0xBDA PUSH2 0xABD JUMP JUMPDEST JUMPDEST PUSH0 PUSH2 0xBE8 DUP6 DUP3 DUP7 ADD PUSH2 0xAD7 JUMP JUMPDEST SWAP3 POP POP PUSH1 0x20 PUSH2 0xBF9 DUP6 DUP3 DUP7 ADD PUSH2 0xAD7 JUMP JUMPDEST SWAP2 POP POP SWAP3 POP SWAP3 SWAP1 POP JUMP JUMPDEST PUSH0 DUP2 MLOAD SWAP1 POP SWAP2 SWAP1 POP JUMP JUMPDEST PUSH0 DUP2 SWAP1 POP SWAP3 SWAP2 POP POP JUMP JUMPDEST PUSH0 JUMPDEST DUP4 DUP2 LT ISZERO PUSH2 0xC34 JUMPI DUP1 DUP3 ADD MLOAD DUP2 DUP5 ADD MSTORE PUSH1 0x20 DUP2 ADD SWAP1 POP PUSH2 0xC19 JUMP JUMPDEST PUSH0 DUP5 DUP5 ADD MSTORE POP POP POP POP JUMP JUMPDEST PUSH0 PUSH2 0xC49 DUP3 PUSH2 0xC03 JUMP JUMPDEST PUSH2 0xC53 DUP2 DUP6 PUSH2 0xC0D JUMP JUMPDEST SWAP4 POP PUSH2 0xC63 DUP2 DUP6 PUSH1 0x20 DUP7 ADD PUSH2 0xC17 JUMP JUMPDEST DUP1 DUP5 ADD SWAP2 POP POP SWAP3 SWAP2 POP POP JUMP JUMPDEST PUSH0 PUSH2 0xC7A DUP3 DUP5 PUSH2 0xC3F JUMP JUMPDEST SWAP2 POP DUP2 SWAP1 POP SWAP3 SWAP2 POP POP JUMP JUMPDEST PUSH0 DUP3 DUP3 MSTORE PUSH1 0x20 DUP3 ADD SWAP1 POP SWAP3 SWAP2 POP POP JUMP JUMPDEST PUSH32 0x63616C6C207769746864726177206572726F7200000000000000000000000000 PUSH0 DUP3 ADD MSTORE POP JUMP JUMPDEST PUSH0 PUSH2 0xCC9 PUSH1 0x13 DUP4 PUSH2 0xC85 JUMP JUMPDEST SWAP2 POP PUSH2 0xCD4 DUP3 PUSH2 0xC95 JUMP JUMPDEST PUSH1 0x20 DUP3 ADD SWAP1 POP SWAP2 SWAP1 POP JUMP JUMPDEST PUSH0 PUSH1 0x20 DUP3 ADD SWAP1 POP DUP2 DUP2 SUB PUSH0 DUP4 ADD MSTORE PUSH2 0xCF6 DUP2 PUSH2 0xCBD JUMP JUMPDEST SWAP1 POP SWAP2 SWAP1 POP JUMP JUMPDEST PUSH2 0xD06 DUP2 PUSH2 0xB16 JUMP JUMPDEST DUP2 EQ PUSH2 0xD10 JUMPI PUSH0 DUP1 REVERT JUMPDEST POP JUMP JUMPDEST PUSH0 DUP2 MLOAD SWAP1 POP PUSH2 0xD21 DUP2 PUSH2 0xCFD JUMP JUMPDEST SWAP3 SWAP2 POP POP JUMP JUMPDEST PUSH0 PUSH1 0x20 DUP3 DUP5 SUB SLT ISZERO PUSH2 0xD3C JUMPI PUSH2 0xD3B PUSH2 0xABD JUMP JUMPDEST JUMPDEST PUSH0 PUSH2 0xD49 DUP5 DUP3 DUP6 ADD PUSH2 0xD13 JUMP JUMPDEST SWAP2 POP POP SWAP3 SWAP2 POP POP JUMP JUMPDEST PUSH32 0x63616C6C20636C6F7365206572726F7200000000000000000000000000000000 PUSH0 DUP3 ADD MSTORE POP JUMP JUMPDEST PUSH0 PUSH2 0xD86 PUSH1 0x10 DUP4 PUSH2 0xC85 JUMP JUMPDEST SWAP2 POP PUSH2 0xD91 DUP3 PUSH2 0xD52 JUMP JUMPDEST PUSH1 0x20 DUP3 ADD SWAP1 POP SWAP2 SWAP1 POP JUMP JUMPDEST PUSH0 PUSH1 0x20 DUP3 ADD SWAP1 POP DUP2 DUP2 SUB PUSH0 DUP4 ADD MSTORE PUSH2 0xDB3 DUP2 PUSH2 0xD7A JUMP JUMPDEST SWAP1 POP SWAP2 SWAP1 POP JUMP JUMPDEST PUSH32 0x63616C6C2067657446756E64657273496E646578206572726F72200000000000 PUSH0 DUP3 ADD MSTORE POP JUMP JUMPDEST PUSH0 PUSH2 0xDEE PUSH1 0x1B DUP4 PUSH2 0xC85 JUMP JUMPDEST SWAP2 POP PUSH2 0xDF9 DUP3 PUSH2 0xDBA JUMP JUMPDEST PUSH1 0x20 DUP3 ADD SWAP1 POP SWAP2 SWAP1 POP JUMP JUMPDEST PUSH0 PUSH1 0x20 DUP3 ADD SWAP1 POP DUP2 DUP2 SUB PUSH0 DUP4 ADD MSTORE PUSH2 0xE1B DUP2 PUSH2 0xDE2 JUMP JUMPDEST SWAP1 POP SWAP2 SWAP1 POP JUMP JUMPDEST PUSH0 DUP2 MLOAD SWAP1 POP PUSH2 0xE30 DUP2 PUSH2 0xB49 JUMP JUMPDEST SWAP3 SWAP2 POP POP JUMP JUMPDEST PUSH0 PUSH1 0x20 DUP3 DUP5 SUB SLT ISZERO PUSH2 0xE4B JUMPI PUSH2 0xE4A PUSH2 0xABD JUMP JUMPDEST JUMPDEST PUSH0 PUSH2 0xE58 DUP5 DUP3 DUP6 ADD PUSH2 0xE22 JUMP JUMPDEST SWAP2 POP POP SWAP3 SWAP2 POP POP JUMP JUMPDEST PUSH32 0x63616C6C20636F6E747269627574696F6E206572726F72000000000000000000 PUSH0 DUP3 ADD MSTORE POP JUMP JUMPDEST PUSH0 PUSH2 0xE95 PUSH1 0x17 DUP4 PUSH2 0xC85 JUMP JUMPDEST SWAP2 POP PUSH2 0xEA0 DUP3 PUSH2 0xE61 JUMP JUMPDEST PUSH1 0x20 DUP3 ADD SWAP1 POP SWAP2 SWAP1 POP JUMP JUMPDEST PUSH0 PUSH1 0x20 DUP3 ADD SWAP1 POP DUP2 DUP2 SUB PUSH0 DUP4 ADD MSTORE PUSH2 0xEC2 DUP2 PUSH2 0xE89 JUMP JUMPDEST SWAP1 POP SWAP2 SWAP1 POP JUMP JUMPDEST PUSH32 0x63616C6C2066756E646572734C656E677468206572726F720000000000000000 PUSH0 DUP3 ADD MSTORE POP JUMP JUMPDEST PUSH0 PUSH2 0xEFD PUSH1 0x18 DUP4 PUSH2 0xC85 JUMP JUMPDEST SWAP2 POP PUSH2 0xF08 DUP3 PUSH2 0xEC9 JUMP JUMPDEST PUSH1 0x20 DUP3 ADD SWAP1 POP SWAP2 SWAP1 POP JUMP JUMPDEST PUSH0 PUSH1 0x20 DUP3 ADD SWAP1 POP DUP2 DUP2 SUB PUSH0 DUP4 ADD MSTORE PUSH2 0xF2A DUP2 PUSH2 0xEF1 JUMP JUMPDEST SWAP1 POP SWAP2 SWAP1 POP JUMP INVALID LOG2 PUSH5 0x6970667358 0x22 SLT KECCAK256 0x2F SHL 0xAE SWAP5 BALANCE DUP11 REVERT PUSH20 0xAFF73C87DEC46323880F40B61C808BDFC64F5696 CALLDATALOAD DUP3 0xB9 0xC7 PUSH5 0x736F6C6343 STOP ADDMOD AND STOP CALLER "
		},
		"gasEstimates": {
			"creation": {
				"codeDepositCost": "788600",
				"executionCost": "infinite",
				"totalCost": "infinite"
			},
			"external": {
				"beneficiary()": "infinite",
				"close(address)": "infinite",
				"contribution(address)": "infinite",
				"deadline()": "2448",
				"f(uint256)": "infinite",
				"funders(uint256)": "infinite",
				"fundersLength(address)": "infinite",
				"fundingAmount()": "2425",
				"fundingGoal()": "infinite",
				"getFundersIndex(address,address)": "infinite",
				"validable()": "2577",
				"withdraw(address)": "infinite"
			}
		},
		"methodIdentifiers": {
			"beneficiary()": "38af3eed",
			"close(address)": "c74073a1",
			"contribution(address)": "e2dc4310",
			"deadline()": "29dcb0cf",
			"f(uint256)": "b3de648b",
			"funders(uint256)": "dc0d3dff",
			"fundersLength(address)": "f95e4368",
			"fundingAmount()": "04a79c97",
			"fundingGoal()": "7a3a0e84",
			"getFundersIndex(address,address)": "dec16058",
			"validable()": "94de8484",
			"withdraw(address)": "51cff8d9"
		}
	},
	"abi": [
		{
			"inputs": [
				{
					"internalType": "address",
					"name": "beneficiary_",
					"type": "address"
				},
				{
					"internalType": "uint256",
					"name": "fundingGoal_",
					"type": "uint256"
				}
			],
			"stateMutability": "nonpayable",
			"type": "constructor"
		},
		{
			"inputs": [],
			"name": "beneficiary",
			"outputs": [
				{
					"internalType": "address",
					"name": "",
					"type": "address"
				}
			],
			"stateMutability": "view",
			"type": "function"
		},
		{
			"inputs": [
				{
					"internalType": "address",
					"name": "_delegateAddr",
					"type": "address"
				}
			],
			"name": "close",
			"outputs": [
				{
					"internalType": "bool",
					"name": "",
					"type": "bool"
				}
			],
			"stateMutability": "nonpayable",
			"type": "function"
		},
		{
			"inputs": [
				{
					"internalType": "address",
					"name": "_delegateAddr",
					"type": "address"
				}
			],
			"name": "contribution",
			"outputs": [],
			"stateMutability": "payable",
			"type": "function"
		},
		{
			"inputs": [],
			"name": "deadline",
			"outputs": [
				{
					"internalType": "uint256",
					"name": "",
					"type": "uint256"
				}
			],
			"stateMutability": "view",
			"type": "function"
		},
		{
			"inputs": [
				{
					"internalType": "uint256",
					"name": "x",
					"type": "uint256"
				}
			],
			"name": "f",
			"outputs": [
				{
					"internalType": "uint256",
					"name": "r",
					"type": "uint256"
				}
			],
			"stateMutability": "view",
			"type": "function"
		},
		{
			"inputs": [
				{
					"internalType": "uint256",
					"name": "",
					"type": "uint256"
				}
			],
			"name": "funders",
			"outputs": [
				{
					"internalType": "address",
					"name": "funder",
					"type": "address"
				},
				{
					"internalType": "uint256",
					"name": "amount",
					"type": "uint256"
				}
			],
			"stateMutability": "view",
			"type": "function"
		},
		{
			"inputs": [
				{
					"internalType": "address",
					"name": "_delegateAddr",
					"type": "address"
				}
			],
			"name": "fundersLength",
			"outputs": [
				{
					"internalType": "uint256",
					"name": "",
					"type": "uint256"
				}
			],
			"stateMutability": "nonpayable",
			"type": "function"
		},
		{
			"inputs": [],
			"name": "fundingAmount",
			"outputs": [
				{
					"internalType": "uint256",
					"name": "",
					"type": "uint256"
				}
			],
			"stateMutability": "view",
			"type": "function"
		},
		{
			"inputs": [],
			"name": "fundingGoal",
			"outputs": [
				{
					"internalType": "uint256",
					"name": "",
					"type": "uint256"
				}
			],
			"stateMutability": "view",
			"type": "function"
		},
		{
			"inputs": [
				{
					"internalType": "address",
					"name": "_delegateAddr",
					"type": "address"
				},
				{
					"internalType": "address",
					"name": "_addr",
					"type": "address"
				}
			],
			"name": "getFundersIndex",
			"outputs": [
				{
					"internalType": "uint256",
					"name": "index_",
					"type": "uint256"
				}
			],
			"stateMutability": "nonpayable",
			"type": "function"
		},
		{
			"inputs": [],
			"name": "validable",
			"outputs": [
				{
					"internalType": "bool",
					"name": "",
					"type": "bool"
				}
			],
			"stateMutability": "view",
			"type": "function"
		},
		{
			"inputs": [
				{
					"internalType": "address",
					"name": "_delegateAddr",
					"type": "address"
				}
			],
			"name": "withdraw",
			"outputs": [
				{
					"internalType": "bool",
					"name": "",
					"type": "bool"
				}
			],
			"stateMutability": "nonpayable",
			"type": "function"
		}
	]
}