{
	"data": {
		"bytecode": {
			"linkReferences": {},
			"object": "61021361004e600b8282823980515f1a607314610042577f4e487b71000000000000000000000000000000000000000000000000000000005f525f60045260245ffd5b305f52607381538281f3fe730000000000000000000000000000000000000000301460806040526004361061004a575f3560e01c8063504f5e561461004e578063a391c15b1461007e578063c8a4ac9c146100ae575b5f80fd5b6100686004803603810190610063919061014c565b6100de565b6040516100759190610186565b60405180910390f35b6100986004803603810190610093919061019f565b6100ef565b6040516100a59190610186565b60405180910390f35b6100c860048036038101906100c3919061019f565b610102565b6040516100d59190610186565b60405180910390f35b5f6100e8826100de565b9050919050565b5f6100fa83836100ef565b905092915050565b5f61010d8383610102565b905092915050565b5f80fd5b5f819050919050565b61012b81610119565b8114610135575f80fd5b50565b5f8135905061014681610122565b92915050565b5f6020828403121561016157610160610115565b5b5f61016e84828501610138565b91505092915050565b61018081610119565b82525050565b5f6020820190506101995f830184610177565b92915050565b5f80604083850312156101b5576101b4610115565b5b5f6101c285828601610138565b92505060206101d385828601610138565b915050925092905056fea2646970667358221220670b1edc759ace191b7878ce395a8380fb46ea30f7f4c1cb2ccafdc66af3376364736f6c63430008180033",
			"opcodes": "PUSH2 0x213 PUSH2 0x4E PUSH1 0xB DUP3 DUP3 DUP3 CODECOPY DUP1 MLOAD PUSH0 BYTE PUSH1 0x73 EQ PUSH2 0x42 JUMPI PUSH32 0x4E487B7100000000000000000000000000000000000000000000000000000000 PUSH0 MSTORE PUSH0 PUSH1 0x4 MSTORE PUSH1 0x24 PUSH0 REVERT JUMPDEST ADDRESS PUSH0 MSTORE PUSH1 0x73 DUP2 MSTORE8 DUP3 DUP2 RETURN INVALID PUSH20 0x0 ADDRESS EQ PUSH1 0x80 PUSH1 0x40 MSTORE PUSH1 0x4 CALLDATASIZE LT PUSH2 0x4A JUMPI PUSH0 CALLDATALOAD PUSH1 0xE0 SHR DUP1 PUSH4 0x504F5E56 EQ PUSH2 0x4E JUMPI DUP1 PUSH4 0xA391C15B EQ PUSH2 0x7E JUMPI DUP1 PUSH4 0xC8A4AC9C EQ PUSH2 0xAE JUMPI JUMPDEST PUSH0 DUP1 REVERT JUMPDEST PUSH2 0x68 PUSH1 0x4 DUP1 CALLDATASIZE SUB DUP2 ADD SWAP1 PUSH2 0x63 SWAP2 SWAP1 PUSH2 0x14C JUMP JUMPDEST PUSH2 0xDE JUMP JUMPDEST PUSH1 0x40 MLOAD PUSH2 0x75 SWAP2 SWAP1 PUSH2 0x186 JUMP JUMPDEST PUSH1 0x40 MLOAD DUP1 SWAP2 SUB SWAP1 RETURN JUMPDEST PUSH2 0x98 PUSH1 0x4 DUP1 CALLDATASIZE SUB DUP2 ADD SWAP1 PUSH2 0x93 SWAP2 SWAP1 PUSH2 0x19F JUMP JUMPDEST PUSH2 0xEF JUMP JUMPDEST PUSH1 0x40 MLOAD PUSH2 0xA5 SWAP2 SWAP1 PUSH2 0x186 JUMP JUMPDEST PUSH1 0x40 MLOAD DUP1 SWAP2 SUB SWAP1 RETURN JUMPDEST PUSH2 0xC8 PUSH1 0x4 DUP1 CALLDATASIZE SUB DUP2 ADD SWAP1 PUSH2 0xC3 SWAP2 SWAP1 PUSH2 0x19F JUMP JUMPDEST PUSH2 0x102 JUMP JUMPDEST PUSH1 0x40 MLOAD PUSH2 0xD5 SWAP2 SWAP1 PUSH2 0x186 JUMP JUMPDEST PUSH1 0x40 MLOAD DUP1 SWAP2 SUB SWAP1 RETURN JUMPDEST PUSH0 PUSH2 0xE8 DUP3 PUSH2 0xDE JUMP JUMPDEST SWAP1 POP SWAP2 SWAP1 POP JUMP JUMPDEST PUSH0 PUSH2 0xFA DUP4 DUP4 PUSH2 0xEF JUMP JUMPDEST SWAP1 POP SWAP3 SWAP2 POP POP JUMP JUMPDEST PUSH0 PUSH2 0x10D DUP4 DUP4 PUSH2 0x102 JUMP JUMPDEST SWAP1 POP SWAP3 SWAP2 POP POP JUMP JUMPDEST PUSH0 DUP1 REVERT JUMPDEST PUSH0 DUP2 SWAP1 POP SWAP2 SWAP1 POP JUMP JUMPDEST PUSH2 0x12B DUP2 PUSH2 0x119 JUMP JUMPDEST DUP2 EQ PUSH2 0x135 JUMPI PUSH0 DUP1 REVERT JUMPDEST POP JUMP JUMPDEST PUSH0 DUP2 CALLDATALOAD SWAP1 POP PUSH2 0x146 DUP2 PUSH2 0x122 JUMP JUMPDEST SWAP3 SWAP2 POP POP JUMP JUMPDEST PUSH0 PUSH1 0x20 DUP3 DUP5 SUB SLT ISZERO PUSH2 0x161 JUMPI PUSH2 0x160 PUSH2 0x115 JUMP JUMPDEST JUMPDEST PUSH0 PUSH2 0x16E DUP5 DUP3 DUP6 ADD PUSH2 0x138 JUMP JUMPDEST SWAP2 POP POP SWAP3 SWAP2 POP POP JUMP JUMPDEST PUSH2 0x180 DUP2 PUSH2 0x119 JUMP JUMPDEST DUP3 MSTORE POP POP JUMP JUMPDEST PUSH0 PUSH1 0x20 DUP3 ADD SWAP1 POP PUSH2 0x199 PUSH0 DUP4 ADD DUP5 PUSH2 0x177 JUMP JUMPDEST SWAP3 SWAP2 POP POP JUMP JUMPDEST PUSH0 DUP1 PUSH1 0x40 DUP4 DUP6 SUB SLT ISZERO PUSH2 0x1B5 JUMPI PUSH2 0x1B4 PUSH2 0x115 JUMP JUMPDEST JUMPDEST PUSH0 PUSH2 0x1C2 DUP6 DUP3 DUP7 ADD PUSH2 0x138 JUMP JUMPDEST SWAP3 POP POP PUSH1 0x20 PUSH2 0x1D3 DUP6 DUP3 DUP7 ADD PUSH2 0x138 JUMP JUMPDEST SWAP2 POP POP SWAP3 POP SWAP3 SWAP1 POP JUMP INVALID LOG2 PUSH5 0x6970667358 0x22 SLT KECCAK256 PUSH8 0xB1EDC759ACE191B PUSH25 0x78CE395A8380FB46EA30F7F4C1CB2CCAFDC66AF3376364736F PUSH13 0x63430008180033000000000000 "
		},
		"gasEstimates": {
			"creation": {
				"codeDepositCost": "106200",
				"executionCost": "176",
				"totalCost": "106376"
			},
			"external": {
				"div(uint256,uint256)": "infinite",
				"floor(uint256)": "infinite",
				"mul(uint256,uint256)": "infinite"
			},
			"internal": {
				"add(UFixed256x18,UFixed256x18)": "infinite",
				"floor(UFixed256x18)": "infinite",
				"mul(UFixed256x18,uint256)": "infinite",
				"toUFixed256x18(uint256)": "infinite"
			}
		},
		"methodIdentifiers": {
			"div(uint256,uint256)": "a391c15b",
			"floor(uint256)": "504f5e56",
			"mul(uint256,uint256)": "c8a4ac9c"
		}
	},
	"abi": [
		{
			"inputs": [
				{
					"internalType": "uint256",
					"name": "x",
					"type": "uint256"
				},
				{
					"internalType": "uint256",
					"name": "y",
					"type": "uint256"
				}
			],
			"name": "div",
			"outputs": [
				{
					"internalType": "uint256",
					"name": "result",
					"type": "uint256"
				}
			],
			"stateMutability": "pure",
			"type": "function"
		},
		{
			"inputs": [
				{
					"internalType": "uint256",
					"name": "x",
					"type": "uint256"
				}
			],
			"name": "floor",
			"outputs": [
				{
					"internalType": "uint256",
					"name": "result",
					"type": "uint256"
				}
			],
			"stateMutability": "pure",
			"type": "function"
		},
		{
			"inputs": [
				{
					"internalType": "uint256",
					"name": "x",
					"type": "uint256"
				},
				{
					"internalType": "uint256",
					"name": "y",
					"type": "uint256"
				}
			],
			"name": "mul",
			"outputs": [
				{
					"internalType": "uint256",
					"name": "result",
					"type": "uint256"
				}
			],
			"stateMutability": "pure",
			"type": "function"
		}
	]
}