{
	"data": {
		"bytecode": {
			"linkReferences": {},
			"object": "608060405234801561000f575f80fd5b506103428061001d5f395ff3fe608060405234801561000f575f80fd5b5060043610610029575f3560e01c806380a003ff1461002d575b5f80fd5b61004760048036038101906100429190610155565b61005f565b6040516100569392919061027c565b60405180910390f35b60605f805f3686866040516100759291906102f4565b6040518091039020878760405161008d9291906102f4565b604051809103902083838080601f0160208091040260200160405190810160405280939291908181526020018383808284375f81840152601f19601f820116905080830192505050505050509250909192509250925092509250925092565b5f80fd5b5f80fd5b5f80fd5b5f80fd5b5f80fd5b5f8083601f840112610115576101146100f4565b5b8235905067ffffffffffffffff811115610132576101316100f8565b5b60208301915083600182028301111561014e5761014d6100fc565b5b9250929050565b5f806020838503121561016b5761016a6100ec565b5b5f83013567ffffffffffffffff811115610188576101876100f0565b5b61019485828601610100565b92509250509250929050565b5f81519050919050565b5f82825260208201905092915050565b5f5b838110156101d75780820151818401526020810190506101bc565b5f8484015250505050565b5f601f19601f8301169050919050565b5f6101fc826101a0565b61020681856101aa565b93506102168185602086016101ba565b61021f816101e2565b840191505092915050565b5f819050919050565b61023c8161022a565b82525050565b5f7fffffffff0000000000000000000000000000000000000000000000000000000082169050919050565b61027681610242565b82525050565b5f6060820190508181035f83015261029481866101f2565b90506102a36020830185610233565b6102b0604083018461026d565b949350505050565b5f81905092915050565b828183375f83830152505050565b5f6102db83856102b8565b93506102e88385846102c2565b82840190509392505050565b5f6103008284866102d0565b9150819050939250505056fea2646970667358221220ae06ab1ca8e0861c29355481d478f75fbca5f0cbbee329144d884471af66481f64736f6c63430008160033",
			"opcodes": "PUSH1 0x80 PUSH1 0x40 MSTORE CALLVALUE DUP1 ISZERO PUSH2 0xF JUMPI PUSH0 DUP1 REVERT JUMPDEST POP PUSH2 0x342 DUP1 PUSH2 0x1D PUSH0 CODECOPY PUSH0 RETURN INVALID PUSH1 0x80 PUSH1 0x40 MSTORE CALLVALUE DUP1 ISZERO PUSH2 0xF JUMPI PUSH0 DUP1 REVERT JUMPDEST POP PUSH1 0x4 CALLDATASIZE LT PUSH2 0x29 JUMPI PUSH0 CALLDATALOAD PUSH1 0xE0 SHR DUP1 PUSH4 0x80A003FF EQ PUSH2 0x2D JUMPI JUMPDEST PUSH0 DUP1 REVERT JUMPDEST PUSH2 0x47 PUSH1 0x4 DUP1 CALLDATASIZE SUB DUP2 ADD SWAP1 PUSH2 0x42 SWAP2 SWAP1 PUSH2 0x155 JUMP JUMPDEST PUSH2 0x5F JUMP JUMPDEST PUSH1 0x40 MLOAD PUSH2 0x56 SWAP4 SWAP3 SWAP2 SWAP1 PUSH2 0x27C JUMP JUMPDEST PUSH1 0x40 MLOAD DUP1 SWAP2 SUB SWAP1 RETURN JUMPDEST PUSH1 0x60 PUSH0 DUP1 PUSH0 CALLDATASIZE DUP7 DUP7 PUSH1 0x40 MLOAD PUSH2 0x75 SWAP3 SWAP2 SWAP1 PUSH2 0x2F4 JUMP JUMPDEST PUSH1 0x40 MLOAD DUP1 SWAP2 SUB SWAP1 KECCAK256 DUP8 DUP8 PUSH1 0x40 MLOAD PUSH2 0x8D SWAP3 SWAP2 SWAP1 PUSH2 0x2F4 JUMP JUMPDEST PUSH1 0x40 MLOAD DUP1 SWAP2 SUB SWAP1 KECCAK256 DUP4 DUP4 DUP1 DUP1 PUSH1 0x1F ADD PUSH1 0x20 DUP1 SWAP2 DIV MUL PUSH1 0x20 ADD PUSH1 0x40 MLOAD SWAP1 DUP2 ADD PUSH1 0x40 MSTORE DUP1 SWAP4 SWAP3 SWAP2 SWAP1 DUP2 DUP2 MSTORE PUSH1 0x20 ADD DUP4 DUP4 DUP1 DUP3 DUP5 CALLDATACOPY PUSH0 DUP2 DUP5 ADD MSTORE PUSH1 0x1F NOT PUSH1 0x1F DUP3 ADD AND SWAP1 POP DUP1 DUP4 ADD SWAP3 POP POP POP POP POP POP POP SWAP3 POP SWAP1 SWAP2 SWAP3 POP SWAP3 POP SWAP3 POP SWAP3 POP SWAP3 POP SWAP3 POP SWAP3 JUMP JUMPDEST PUSH0 DUP1 REVERT JUMPDEST PUSH0 DUP1 REVERT JUMPDEST PUSH0 DUP1 REVERT JUMPDEST PUSH0 DUP1 REVERT JUMPDEST PUSH0 DUP1 REVERT JUMPDEST PUSH0 DUP1 DUP4 PUSH1 0x1F DUP5 ADD SLT PUSH2 0x115 JUMPI PUSH2 0x114 PUSH2 0xF4 JUMP JUMPDEST JUMPDEST DUP3 CALLDATALOAD SWAP1 POP PUSH8 0xFFFFFFFFFFFFFFFF DUP2 GT ISZERO PUSH2 0x132 JUMPI PUSH2 0x131 PUSH2 0xF8 JUMP JUMPDEST JUMPDEST PUSH1 0x20 DUP4 ADD SWAP2 POP DUP4 PUSH1 0x1 DUP3 MUL DUP4 ADD GT ISZERO PUSH2 0x14E JUMPI PUSH2 0x14D PUSH2 0xFC JUMP JUMPDEST JUMPDEST SWAP3 POP SWAP3 SWAP1 POP JUMP JUMPDEST PUSH0 DUP1 PUSH1 0x20 DUP4 DUP6 SUB SLT ISZERO PUSH2 0x16B JUMPI PUSH2 0x16A PUSH2 0xEC JUMP JUMPDEST JUMPDEST PUSH0 DUP4 ADD CALLDATALOAD PUSH8 0xFFFFFFFFFFFFFFFF DUP2 GT ISZERO PUSH2 0x188 JUMPI PUSH2 0x187 PUSH2 0xF0 JUMP JUMPDEST JUMPDEST PUSH2 0x194 DUP6 DUP3 DUP7 ADD PUSH2 0x100 JUMP JUMPDEST SWAP3 POP SWAP3 POP POP SWAP3 POP SWAP3 SWAP1 POP JUMP JUMPDEST PUSH0 DUP2 MLOAD SWAP1 POP SWAP2 SWAP1 POP JUMP JUMPDEST PUSH0 DUP3 DUP3 MSTORE PUSH1 0x20 DUP3 ADD SWAP1 POP SWAP3 SWAP2 POP POP JUMP JUMPDEST PUSH0 JUMPDEST DUP4 DUP2 LT ISZERO PUSH2 0x1D7 JUMPI DUP1 DUP3 ADD MLOAD DUP2 DUP5 ADD MSTORE PUSH1 0x20 DUP2 ADD SWAP1 POP PUSH2 0x1BC JUMP JUMPDEST PUSH0 DUP5 DUP5 ADD MSTORE POP POP POP POP JUMP JUMPDEST PUSH0 PUSH1 0x1F NOT PUSH1 0x1F DUP4 ADD AND SWAP1 POP SWAP2 SWAP1 POP JUMP JUMPDEST PUSH0 PUSH2 0x1FC DUP3 PUSH2 0x1A0 JUMP JUMPDEST PUSH2 0x206 DUP2 DUP6 PUSH2 0x1AA JUMP JUMPDEST SWAP4 POP PUSH2 0x216 DUP2 DUP6 PUSH1 0x20 DUP7 ADD PUSH2 0x1BA JUMP JUMPDEST PUSH2 0x21F DUP2 PUSH2 0x1E2 JUMP JUMPDEST DUP5 ADD SWAP2 POP POP SWAP3 SWAP2 POP POP JUMP JUMPDEST PUSH0 DUP2 SWAP1 POP SWAP2 SWAP1 POP JUMP JUMPDEST PUSH2 0x23C DUP2 PUSH2 0x22A JUMP JUMPDEST DUP3 MSTORE POP POP JUMP JUMPDEST PUSH0 PUSH32 0xFFFFFFFF00000000000000000000000000000000000000000000000000000000 DUP3 AND SWAP1 POP SWAP2 SWAP1 POP JUMP JUMPDEST PUSH2 0x276 DUP2 PUSH2 0x242 JUMP JUMPDEST DUP3 MSTORE POP POP JUMP JUMPDEST PUSH0 PUSH1 0x60 DUP3 ADD SWAP1 POP DUP2 DUP2 SUB PUSH0 DUP4 ADD MSTORE PUSH2 0x294 DUP2 DUP7 PUSH2 0x1F2 JUMP JUMPDEST SWAP1 POP PUSH2 0x2A3 PUSH1 0x20 DUP4 ADD DUP6 PUSH2 0x233 JUMP JUMPDEST PUSH2 0x2B0 PUSH1 0x40 DUP4 ADD DUP5 PUSH2 0x26D JUMP JUMPDEST SWAP5 SWAP4 POP POP POP POP JUMP JUMPDEST PUSH0 DUP2 SWAP1 POP SWAP3 SWAP2 POP POP JUMP JUMPDEST DUP3 DUP2 DUP4 CALLDATACOPY PUSH0 DUP4 DUP4 ADD MSTORE POP POP POP JUMP JUMPDEST PUSH0 PUSH2 0x2DB DUP4 DUP6 PUSH2 0x2B8 JUMP JUMPDEST SWAP4 POP PUSH2 0x2E8 DUP4 DUP6 DUP5 PUSH2 0x2C2 JUMP JUMPDEST DUP3 DUP5 ADD SWAP1 POP SWAP4 SWAP3 POP POP POP JUMP JUMPDEST PUSH0 PUSH2 0x300 DUP3 DUP5 DUP7 PUSH2 0x2D0 JUMP JUMPDEST SWAP2 POP DUP2 SWAP1 POP SWAP4 SWAP3 POP POP POP JUMP INVALID LOG2 PUSH5 0x6970667358 0x22 SLT KECCAK256 0xAE MOD 0xAB SHR 0xA8 0xE0 DUP7 SHR 0x29 CALLDATALOAD SLOAD DUP2 0xD4 PUSH25 0xF75FBCA5F0CBBEE329144D884471AF66481F64736F6C634300 ADDMOD AND STOP CALLER "
		},
		"gasEstimates": {
			"creation": {
				"codeDepositCost": "166800",
				"executionCost": "212",
				"totalCost": "167012"
			},
			"external": {
				"getSelector(string)": "infinite"
			}
		},
		"methodIdentifiers": {
			"getSelector(string)": "80a003ff"
		}
	},
	"abi": [
		{
			"inputs": [
				{
					"internalType": "string",
					"name": "_func",
					"type": "string"
				}
			],
			"name": "getSelector",
			"outputs": [
				{
					"internalType": "bytes",
					"name": "",
					"type": "bytes"
				},
				{
					"internalType": "bytes32",
					"name": "",
					"type": "bytes32"
				},
				{
					"internalType": "bytes4",
					"name": "",
					"type": "bytes4"
				}
			],
			"stateMutability": "pure",
			"type": "function"
		}
	]
}