{
	"data": {
		"bytecode": {
			"linkReferences": {},
			"object": "608060405234801561000f575f80fd5b506103c18061001d5f395ff3fe608060405234801561000f575f80fd5b506004361061003f575f3560e01c806324b049051461004357806327e235e3146100615780637e105ce214610091575b5f80fd5b61004b6100c1565b60405161005891906101c7565b60405180910390f35b61007b6004803603810190610076919061023e565b610160565b60405161008891906101c7565b60405180910390f35b6100ab60048036038101906100a6919061023e565b610174565b6040516100b891906102f3565b60405180910390f35b5f806100cc33610174565b90505f815114610111576040517f08c379a00000000000000000000000000000000000000000000000000000000081526004016101089061036d565b60405180910390fd5b5f61029a9050805f803373ffffffffffffffffffffffffffffffffffffffff1673ffffffffffffffffffffffffffffffffffffffff1681526020019081526020015f2081905550809250505090565b5f602052805f5260405f205f915090505481565b60608173ffffffffffffffffffffffffffffffffffffffff16803b806020016040519081016040528181525f908060200190933c9050919050565b5f819050919050565b6101c1816101af565b82525050565b5f6020820190506101da5f8301846101b8565b92915050565b5f80fd5b5f73ffffffffffffffffffffffffffffffffffffffff82169050919050565b5f61020d826101e4565b9050919050565b61021d81610203565b8114610227575f80fd5b50565b5f8135905061023881610214565b92915050565b5f60208284031215610253576102526101e0565b5b5f6102608482850161022a565b91505092915050565b5f81519050919050565b5f82825260208201905092915050565b5f5b838110156102a0578082015181840152602081019050610285565b5f8484015250505050565b5f601f19601f8301169050919050565b5f6102c582610269565b6102cf8185610273565b93506102df818560208601610283565b6102e8816102ab565b840191505092915050565b5f6020820190508181035f83015261030b81846102bb565b905092915050565b5f82825260208201905092915050565b7f696e76616c696420636f6e7472616374000000000000000000000000000000005f82015250565b5f610357601083610313565b915061036282610323565b602082019050919050565b5f6020820190508181035f8301526103848161034b565b905091905056fea26469706673582212205b21ad5bb9ed5791521fe0367737780d54ce45d4d156abd0b5d5f35d24e47b5e64736f6c63430008180033",
			"opcodes": "PUSH1 0x80 PUSH1 0x40 MSTORE CALLVALUE DUP1 ISZERO PUSH2 0xF JUMPI PUSH0 DUP1 REVERT JUMPDEST POP PUSH2 0x3C1 DUP1 PUSH2 0x1D PUSH0 CODECOPY PUSH0 RETURN INVALID PUSH1 0x80 PUSH1 0x40 MSTORE CALLVALUE DUP1 ISZERO PUSH2 0xF JUMPI PUSH0 DUP1 REVERT JUMPDEST POP PUSH1 0x4 CALLDATASIZE LT PUSH2 0x3F JUMPI PUSH0 CALLDATALOAD PUSH1 0xE0 SHR DUP1 PUSH4 0x24B04905 EQ PUSH2 0x43 JUMPI DUP1 PUSH4 0x27E235E3 EQ PUSH2 0x61 JUMPI DUP1 PUSH4 0x7E105CE2 EQ PUSH2 0x91 JUMPI JUMPDEST PUSH0 DUP1 REVERT JUMPDEST PUSH2 0x4B PUSH2 0xC1 JUMP JUMPDEST PUSH1 0x40 MLOAD PUSH2 0x58 SWAP2 SWAP1 PUSH2 0x1C7 JUMP JUMPDEST PUSH1 0x40 MLOAD DUP1 SWAP2 SUB SWAP1 RETURN JUMPDEST PUSH2 0x7B PUSH1 0x4 DUP1 CALLDATASIZE SUB DUP2 ADD SWAP1 PUSH2 0x76 SWAP2 SWAP1 PUSH2 0x23E JUMP JUMPDEST PUSH2 0x160 JUMP JUMPDEST PUSH1 0x40 MLOAD PUSH2 0x88 SWAP2 SWAP1 PUSH2 0x1C7 JUMP JUMPDEST PUSH1 0x40 MLOAD DUP1 SWAP2 SUB SWAP1 RETURN JUMPDEST PUSH2 0xAB PUSH1 0x4 DUP1 CALLDATASIZE SUB DUP2 ADD SWAP1 PUSH2 0xA6 SWAP2 SWAP1 PUSH2 0x23E JUMP JUMPDEST PUSH2 0x174 JUMP JUMPDEST PUSH1 0x40 MLOAD PUSH2 0xB8 SWAP2 SWAP1 PUSH2 0x2F3 JUMP JUMPDEST PUSH1 0x40 MLOAD DUP1 SWAP2 SUB SWAP1 RETURN JUMPDEST PUSH0 DUP1 PUSH2 0xCC CALLER PUSH2 0x174 JUMP JUMPDEST SWAP1 POP PUSH0 DUP2 MLOAD EQ PUSH2 0x111 JUMPI PUSH1 0x40 MLOAD PUSH32 0x8C379A000000000000000000000000000000000000000000000000000000000 DUP2 MSTORE PUSH1 0x4 ADD PUSH2 0x108 SWAP1 PUSH2 0x36D JUMP JUMPDEST PUSH1 0x40 MLOAD DUP1 SWAP2 SUB SWAP1 REVERT JUMPDEST PUSH0 PUSH2 0x29A SWAP1 POP DUP1 PUSH0 DUP1 CALLER PUSH20 0xFFFFFFFFFFFFFFFFFFFFFFFFFFFFFFFFFFFFFFFF AND PUSH20 0xFFFFFFFFFFFFFFFFFFFFFFFFFFFFFFFFFFFFFFFF AND DUP2 MSTORE PUSH1 0x20 ADD SWAP1 DUP2 MSTORE PUSH1 0x20 ADD PUSH0 KECCAK256 DUP2 SWAP1 SSTORE POP DUP1 SWAP3 POP POP POP SWAP1 JUMP JUMPDEST PUSH0 PUSH1 0x20 MSTORE DUP1 PUSH0 MSTORE PUSH1 0x40 PUSH0 KECCAK256 PUSH0 SWAP2 POP SWAP1 POP SLOAD DUP2 JUMP JUMPDEST PUSH1 0x60 DUP2 PUSH20 0xFFFFFFFFFFFFFFFFFFFFFFFFFFFFFFFFFFFFFFFF AND DUP1 EXTCODESIZE DUP1 PUSH1 0x20 ADD PUSH1 0x40 MLOAD SWAP1 DUP2 ADD PUSH1 0x40 MSTORE DUP2 DUP2 MSTORE PUSH0 SWAP1 DUP1 PUSH1 0x20 ADD SWAP1 SWAP4 EXTCODECOPY SWAP1 POP SWAP2 SWAP1 POP JUMP JUMPDEST PUSH0 DUP2 SWAP1 POP SWAP2 SWAP1 POP JUMP JUMPDEST PUSH2 0x1C1 DUP2 PUSH2 0x1AF JUMP JUMPDEST DUP3 MSTORE POP POP JUMP JUMPDEST PUSH0 PUSH1 0x20 DUP3 ADD SWAP1 POP PUSH2 0x1DA PUSH0 DUP4 ADD DUP5 PUSH2 0x1B8 JUMP JUMPDEST SWAP3 SWAP2 POP POP JUMP JUMPDEST PUSH0 DUP1 REVERT JUMPDEST PUSH0 PUSH20 0xFFFFFFFFFFFFFFFFFFFFFFFFFFFFFFFFFFFFFFFF DUP3 AND SWAP1 POP SWAP2 SWAP1 POP JUMP JUMPDEST PUSH0 PUSH2 0x20D DUP3 PUSH2 0x1E4 JUMP JUMPDEST SWAP1 POP SWAP2 SWAP1 POP JUMP JUMPDEST PUSH2 0x21D DUP2 PUSH2 0x203 JUMP JUMPDEST DUP2 EQ PUSH2 0x227 JUMPI PUSH0 DUP1 REVERT JUMPDEST POP JUMP JUMPDEST PUSH0 DUP2 CALLDATALOAD SWAP1 POP PUSH2 0x238 DUP2 PUSH2 0x214 JUMP JUMPDEST SWAP3 SWAP2 POP POP JUMP JUMPDEST PUSH0 PUSH1 0x20 DUP3 DUP5 SUB SLT ISZERO PUSH2 0x253 JUMPI PUSH2 0x252 PUSH2 0x1E0 JUMP JUMPDEST JUMPDEST PUSH0 PUSH2 0x260 DUP5 DUP3 DUP6 ADD PUSH2 0x22A JUMP JUMPDEST SWAP2 POP POP SWAP3 SWAP2 POP POP JUMP JUMPDEST PUSH0 DUP2 MLOAD SWAP1 POP SWAP2 SWAP1 POP JUMP JUMPDEST PUSH0 DUP3 DUP3 MSTORE PUSH1 0x20 DUP3 ADD SWAP1 POP SWAP3 SWAP2 POP POP JUMP JUMPDEST PUSH0 JUMPDEST DUP4 DUP2 LT ISZERO PUSH2 0x2A0 JUMPI DUP1 DUP3 ADD MLOAD DUP2 DUP5 ADD MSTORE PUSH1 0x20 DUP2 ADD SWAP1 POP PUSH2 0x285 JUMP JUMPDEST PUSH0 DUP5 DUP5 ADD MSTORE POP POP POP POP JUMP JUMPDEST PUSH0 PUSH1 0x1F NOT PUSH1 0x1F DUP4 ADD AND SWAP1 POP SWAP2 SWAP1 POP JUMP JUMPDEST PUSH0 PUSH2 0x2C5 DUP3 PUSH2 0x269 JUMP JUMPDEST PUSH2 0x2CF DUP2 DUP6 PUSH2 0x273 JUMP JUMPDEST SWAP4 POP PUSH2 0x2DF DUP2 DUP6 PUSH1 0x20 DUP7 ADD PUSH2 0x283 JUMP JUMPDEST PUSH2 0x2E8 DUP2 PUSH2 0x2AB JUMP JUMPDEST DUP5 ADD SWAP2 POP POP SWAP3 SWAP2 POP POP JUMP JUMPDEST PUSH0 PUSH1 0x20 DUP3 ADD SWAP1 POP DUP2 DUP2 SUB PUSH0 DUP4 ADD MSTORE PUSH2 0x30B DUP2 DUP5 PUSH2 0x2BB JUMP JUMPDEST SWAP1 POP SWAP3 SWAP2 POP POP JUMP JUMPDEST PUSH0 DUP3 DUP3 MSTORE PUSH1 0x20 DUP3 ADD SWAP1 POP SWAP3 SWAP2 POP POP JUMP JUMPDEST PUSH32 0x696E76616C696420636F6E747261637400000000000000000000000000000000 PUSH0 DUP3 ADD MSTORE POP JUMP JUMPDEST PUSH0 PUSH2 0x357 PUSH1 0x10 DUP4 PUSH2 0x313 JUMP JUMPDEST SWAP2 POP PUSH2 0x362 DUP3 PUSH2 0x323 JUMP JUMPDEST PUSH1 0x20 DUP3 ADD SWAP1 POP SWAP2 SWAP1 POP JUMP JUMPDEST PUSH0 PUSH1 0x20 DUP3 ADD SWAP1 POP DUP2 DUP2 SUB PUSH0 DUP4 ADD MSTORE PUSH2 0x384 DUP2 PUSH2 0x34B JUMP JUMPDEST SWAP1 POP SWAP2 SWAP1 POP JUMP INVALID LOG2 PUSH5 0x6970667358 0x22 SLT KECCAK256 JUMPDEST 0x21 0xAD JUMPDEST 0xB9 0xED JUMPI SWAP2 MSTORE 0x1F 0xE0 CALLDATASIZE PUSH24 0x37780D54CE45D4D156ABD0B5D5F35D24E47B5E64736F6C63 NUMBER STOP ADDMOD XOR STOP CALLER "
		},
		"gasEstimates": {
			"creation": {
				"codeDepositCost": "192200",
				"executionCost": "236",
				"totalCost": "192436"
			},
			"external": {
				"balances(address)": "2801",
				"getCode(address)": "infinite",
				"gift()": "infinite"
			}
		},
		"methodIdentifiers": {
			"balances(address)": "27e235e3",
			"getCode(address)": "7e105ce2",
			"gift()": "24b04905"
		}
	},
	"abi": [
		{
			"inputs": [
				{
					"internalType": "address",
					"name": "",
					"type": "address"
				}
			],
			"name": "balances",
			"outputs": [
				{
					"internalType": "uint256",
					"name": "",
					"type": "uint256"
				}
			],
			"stateMutability": "view",
			"type": "function"
		},
		{
			"inputs": [
				{
					"internalType": "address",
					"name": "_addr",
					"type": "address"
				}
			],
			"name": "getCode",
			"outputs": [
				{
					"internalType": "bytes",
					"name": "",
					"type": "bytes"
				}
			],
			"stateMutability": "view",
			"type": "function"
		},
		{
			"inputs": [],
			"name": "gift",
			"outputs": [
				{
					"internalType": "uint256",
					"name": "",
					"type": "uint256"
				}
			],
			"stateMutability": "nonpayable",
			"type": "function"
		}
	]
}