{
	"data": {
		"bytecode": {
			"linkReferences": {},
			"object": "608060405234801561000f575f80fd5b506103fc8061001d5f395ff3fe608060405234801561000f575f80fd5b5060043610610034575f3560e01c8063401afe6414610038578063493d27ca14610068575b5f80fd5b610052600480360381019061004d91906101b4565b610098565b60405161005f919061022b565b60405180910390f35b610082600480360381019061007d91906101b4565b6100ab565b60405161008f919061022b565b60405180910390f35b5f6100a383836100c8565b905092915050565b5f6100c06100b984846100c8565b60c86100dd565b905092915050565b5f81836100d59190610271565b905092915050565b5f808361ffff1690505f8361ffff1690505f816064846100fd91906102b5565b610107919061031e565b905061ffff80168163ffffffff161115610156576040517f08c379a000000000000000000000000000000000000000000000000000000000815260040161014d906103a8565b60405180910390fd5b8160648461016491906102b5565b61016e919061031e565b935050505092915050565b5f80fd5b5f61ffff82169050919050565b6101938161017d565b811461019d575f80fd5b50565b5f813590506101ae8161018a565b92915050565b5f80604083850312156101ca576101c9610179565b5b5f6101d7858286016101a0565b92505060206101e8858286016101a0565b9150509250929050565b5f819050919050565b5f61021561021061020b8461017d565b6101f2565b61017d565b9050919050565b610225816101fb565b82525050565b5f60208201905061023e5f83018461021c565b92915050565b7f4e487b71000000000000000000000000000000000000000000000000000000005f52601160045260245ffd5b5f61027b8261017d565b91506102868361017d565b9250828201905061ffff8111156102a05761029f610244565b5b92915050565b5f63ffffffff82169050919050565b5f6102bf826102a6565b91506102ca836102a6565b92508282026102d8816102a6565b91508082146102ea576102e9610244565b5b5092915050565b7f4e487b71000000000000000000000000000000000000000000000000000000005f52601260045260245ffd5b5f610328826102a6565b9150610333836102a6565b925082610343576103426102f1565b5b828204905092915050565b5f82825260208201905092915050565b7f446976696465206f766572666c6f7700000000000000000000000000000000005f82015250565b5f610392600f8361034e565b915061039d8261035e565b602082019050919050565b5f6020820190508181035f8301526103bf81610386565b905091905056fea26469706673582212205a0b418c84e414fbbddac0dd07ebad5c1a26a3053472a117e55a6b52c5fc079564736f6c63430008180033",
			"opcodes": "PUSH1 0x80 PUSH1 0x40 MSTORE CALLVALUE DUP1 ISZERO PUSH2 0xF JUMPI PUSH0 DUP1 REVERT JUMPDEST POP PUSH2 0x3FC DUP1 PUSH2 0x1D PUSH0 CODECOPY PUSH0 RETURN INVALID PUSH1 0x80 PUSH1 0x40 MSTORE CALLVALUE DUP1 ISZERO PUSH2 0xF JUMPI PUSH0 DUP1 REVERT JUMPDEST POP PUSH1 0x4 CALLDATASIZE LT PUSH2 0x34 JUMPI PUSH0 CALLDATALOAD PUSH1 0xE0 SHR DUP1 PUSH4 0x401AFE64 EQ PUSH2 0x38 JUMPI DUP1 PUSH4 0x493D27CA EQ PUSH2 0x68 JUMPI JUMPDEST PUSH0 DUP1 REVERT JUMPDEST PUSH2 0x52 PUSH1 0x4 DUP1 CALLDATASIZE SUB DUP2 ADD SWAP1 PUSH2 0x4D SWAP2 SWAP1 PUSH2 0x1B4 JUMP JUMPDEST PUSH2 0x98 JUMP JUMPDEST PUSH1 0x40 MLOAD PUSH2 0x5F SWAP2 SWAP1 PUSH2 0x22B JUMP JUMPDEST PUSH1 0x40 MLOAD DUP1 SWAP2 SUB SWAP1 RETURN JUMPDEST PUSH2 0x82 PUSH1 0x4 DUP1 CALLDATASIZE SUB DUP2 ADD SWAP1 PUSH2 0x7D SWAP2 SWAP1 PUSH2 0x1B4 JUMP JUMPDEST PUSH2 0xAB JUMP JUMPDEST PUSH1 0x40 MLOAD PUSH2 0x8F SWAP2 SWAP1 PUSH2 0x22B JUMP JUMPDEST PUSH1 0x40 MLOAD DUP1 SWAP2 SUB SWAP1 RETURN JUMPDEST PUSH0 PUSH2 0xA3 DUP4 DUP4 PUSH2 0xC8 JUMP JUMPDEST SWAP1 POP SWAP3 SWAP2 POP POP JUMP JUMPDEST PUSH0 PUSH2 0xC0 PUSH2 0xB9 DUP5 DUP5 PUSH2 0xC8 JUMP JUMPDEST PUSH1 0xC8 PUSH2 0xDD JUMP JUMPDEST SWAP1 POP SWAP3 SWAP2 POP POP JUMP JUMPDEST PUSH0 DUP2 DUP4 PUSH2 0xD5 SWAP2 SWAP1 PUSH2 0x271 JUMP JUMPDEST SWAP1 POP SWAP3 SWAP2 POP POP JUMP JUMPDEST PUSH0 DUP1 DUP4 PUSH2 0xFFFF AND SWAP1 POP PUSH0 DUP4 PUSH2 0xFFFF AND SWAP1 POP PUSH0 DUP2 PUSH1 0x64 DUP5 PUSH2 0xFD SWAP2 SWAP1 PUSH2 0x2B5 JUMP JUMPDEST PUSH2 0x107 SWAP2 SWAP1 PUSH2 0x31E JUMP JUMPDEST SWAP1 POP PUSH2 0xFFFF DUP1 AND DUP2 PUSH4 0xFFFFFFFF AND GT ISZERO PUSH2 0x156 JUMPI PUSH1 0x40 MLOAD PUSH32 0x8C379A000000000000000000000000000000000000000000000000000000000 DUP2 MSTORE PUSH1 0x4 ADD PUSH2 0x14D SWAP1 PUSH2 0x3A8 JUMP JUMPDEST PUSH1 0x40 MLOAD DUP1 SWAP2 SUB SWAP1 REVERT JUMPDEST DUP2 PUSH1 0x64 DUP5 PUSH2 0x164 SWAP2 SWAP1 PUSH2 0x2B5 JUMP JUMPDEST PUSH2 0x16E SWAP2 SWAP1 PUSH2 0x31E JUMP JUMPDEST SWAP4 POP POP POP POP SWAP3 SWAP2 POP POP JUMP JUMPDEST PUSH0 DUP1 REVERT JUMPDEST PUSH0 PUSH2 0xFFFF DUP3 AND SWAP1 POP SWAP2 SWAP1 POP JUMP JUMPDEST PUSH2 0x193 DUP2 PUSH2 0x17D JUMP JUMPDEST DUP2 EQ PUSH2 0x19D JUMPI PUSH0 DUP1 REVERT JUMPDEST POP JUMP JUMPDEST PUSH0 DUP2 CALLDATALOAD SWAP1 POP PUSH2 0x1AE DUP2 PUSH2 0x18A JUMP JUMPDEST SWAP3 SWAP2 POP POP JUMP JUMPDEST PUSH0 DUP1 PUSH1 0x40 DUP4 DUP6 SUB SLT ISZERO PUSH2 0x1CA JUMPI PUSH2 0x1C9 PUSH2 0x179 JUMP JUMPDEST JUMPDEST PUSH0 PUSH2 0x1D7 DUP6 DUP3 DUP7 ADD PUSH2 0x1A0 JUMP JUMPDEST SWAP3 POP POP PUSH1 0x20 PUSH2 0x1E8 DUP6 DUP3 DUP7 ADD PUSH2 0x1A0 JUMP JUMPDEST SWAP2 POP POP SWAP3 POP SWAP3 SWAP1 POP JUMP JUMPDEST PUSH0 DUP2 SWAP1 POP SWAP2 SWAP1 POP JUMP JUMPDEST PUSH0 PUSH2 0x215 PUSH2 0x210 PUSH2 0x20B DUP5 PUSH2 0x17D JUMP JUMPDEST PUSH2 0x1F2 JUMP JUMPDEST PUSH2 0x17D JUMP JUMPDEST SWAP1 POP SWAP2 SWAP1 POP JUMP JUMPDEST PUSH2 0x225 DUP2 PUSH2 0x1FB JUMP JUMPDEST DUP3 MSTORE POP POP JUMP JUMPDEST PUSH0 PUSH1 0x20 DUP3 ADD SWAP1 POP PUSH2 0x23E PUSH0 DUP4 ADD DUP5 PUSH2 0x21C JUMP JUMPDEST SWAP3 SWAP2 POP POP JUMP JUMPDEST PUSH32 0x4E487B7100000000000000000000000000000000000000000000000000000000 PUSH0 MSTORE PUSH1 0x11 PUSH1 0x4 MSTORE PUSH1 0x24 PUSH0 REVERT JUMPDEST PUSH0 PUSH2 0x27B DUP3 PUSH2 0x17D JUMP JUMPDEST SWAP2 POP PUSH2 0x286 DUP4 PUSH2 0x17D JUMP JUMPDEST SWAP3 POP DUP3 DUP3 ADD SWAP1 POP PUSH2 0xFFFF DUP2 GT ISZERO PUSH2 0x2A0 JUMPI PUSH2 0x29F PUSH2 0x244 JUMP JUMPDEST JUMPDEST SWAP3 SWAP2 POP POP JUMP JUMPDEST PUSH0 PUSH4 0xFFFFFFFF DUP3 AND SWAP1 POP SWAP2 SWAP1 POP JUMP JUMPDEST PUSH0 PUSH2 0x2BF DUP3 PUSH2 0x2A6 JUMP JUMPDEST SWAP2 POP PUSH2 0x2CA DUP4 PUSH2 0x2A6 JUMP JUMPDEST SWAP3 POP DUP3 DUP3 MUL PUSH2 0x2D8 DUP2 PUSH2 0x2A6 JUMP JUMPDEST SWAP2 POP DUP1 DUP3 EQ PUSH2 0x2EA JUMPI PUSH2 0x2E9 PUSH2 0x244 JUMP JUMPDEST JUMPDEST POP SWAP3 SWAP2 POP POP JUMP JUMPDEST PUSH32 0x4E487B7100000000000000000000000000000000000000000000000000000000 PUSH0 MSTORE PUSH1 0x12 PUSH1 0x4 MSTORE PUSH1 0x24 PUSH0 REVERT JUMPDEST PUSH0 PUSH2 0x328 DUP3 PUSH2 0x2A6 JUMP JUMPDEST SWAP2 POP PUSH2 0x333 DUP4 PUSH2 0x2A6 JUMP JUMPDEST SWAP3 POP DUP3 PUSH2 0x343 JUMPI PUSH2 0x342 PUSH2 0x2F1 JUMP JUMPDEST JUMPDEST DUP3 DUP3 DIV SWAP1 POP SWAP3 SWAP2 POP POP JUMP JUMPDEST PUSH0 DUP3 DUP3 MSTORE PUSH1 0x20 DUP3 ADD SWAP1 POP SWAP3 SWAP2 POP POP JUMP JUMPDEST PUSH32 0x446976696465206F766572666C6F770000000000000000000000000000000000 PUSH0 DUP3 ADD MSTORE POP JUMP JUMPDEST PUSH0 PUSH2 0x392 PUSH1 0xF DUP4 PUSH2 0x34E JUMP JUMPDEST SWAP2 POP PUSH2 0x39D DUP3 PUSH2 0x35E JUMP JUMPDEST PUSH1 0x20 DUP3 ADD SWAP1 POP SWAP2 SWAP1 POP JUMP JUMPDEST PUSH0 PUSH1 0x20 DUP3 ADD SWAP1 POP DUP2 DUP2 SUB PUSH0 DUP4 ADD MSTORE PUSH2 0x3BF DUP2 PUSH2 0x386 JUMP JUMPDEST SWAP1 POP SWAP2 SWAP1 POP JUMP INVALID LOG2 PUSH5 0x6970667358 0x22 SLT KECCAK256 GAS SIGNEXTEND COINBASE DUP13 DUP5 0xE4 EQ 0xFB 0xBD 0xDA 0xC0 0xDD SMOD 0xEB 0xAD TLOAD BYTE 0x26 LOG3 SDIV CALLVALUE PUSH19 0xA117E55A6B52C5FC079564736F6C6343000818 STOP CALLER "
		},
		"gasEstimates": {
			"creation": {
				"codeDepositCost": "204000",
				"executionCost": "243",
				"totalCost": "204243"
			},
			"external": {
				"add1(uint16,uint16)": "infinite",
				"avg(uint16,uint16)": "infinite"
			}
		},
		"methodIdentifiers": {
			"add1(uint16,uint16)": "401afe64",
			"avg(uint16,uint16)": "493d27ca"
		}
	},
	"abi": [
		{
			"inputs": [
				{
					"internalType": "UFixed16x2",
					"name": "c",
					"type": "uint16"
				},
				{
					"internalType": "UFixed16x2",
					"name": "d",
					"type": "uint16"
				}
			],
			"name": "add1",
			"outputs": [
				{
					"internalType": "UFixed16x2",
					"name": "",
					"type": "uint16"
				}
			],
			"stateMutability": "pure",
			"type": "function"
		},
		{
			"inputs": [
				{
					"internalType": "UFixed16x2",
					"name": "a",
					"type": "uint16"
				},
				{
					"internalType": "UFixed16x2",
					"name": "b",
					"type": "uint16"
				}
			],
			"name": "avg",
			"outputs": [
				{
					"internalType": "UFixed16x2",
					"name": "",
					"type": "uint16"
				}
			],
			"stateMutability": "pure",
			"type": "function"
		}
	]
}