{
	"data": {
		"bytecode": {
			"linkReferences": {},
			"object": "608060405234801561000f575f80fd5b50335f806101000a81548173ffffffffffffffffffffffffffffffffffffffff021916908373ffffffffffffffffffffffffffffffffffffffff16021790555061090c8061005c5f395ff3fe608060405234801561000f575f80fd5b506004361061004a575f3560e01c806306fdde031461004e5780630dbe671f1461006c57806329e99f071461008a5780636b59084d146100ba575b5f80fd5b6100566100d8565b60405161006391906103ac565b60405180910390f35b610074610164565b60405161008191906103e4565b60405180910390f35b6100a4600480360381019061009f919061042b565b61016a565b6040516100b191906103e4565b60405180910390f35b6100c2610307565b6040516100cf91906103e4565b60405180910390f35b600280546100e590610483565b80601f016020809104026020016040519081016040528092919081815260200182805461011190610483565b801561015c5780601f106101335761010080835404028352916020019161015c565b820191905f5260205f20905b81548152906001019060200180831161013f57829003601f168201915b505050505081565b60015481565b5f81600a81116101af576040517f08c379a00000000000000000000000000000000000000000000000000000000081526004016101a6906104fd565b60405180910390fd5b6040518060400160405280600581526020017f7469676572000000000000000000000000000000000000000000000000000000815250600290816101f391906106e5565b508260148111610238576040517f08c379a000000000000000000000000000000000000000000000000000000000815260040161022f906107fe565b60405180910390fd5b7f640000000000000000000000000000000000000000000000000000000000000060025f815461026790610483565b81106102765761027561081c565b5b81546001161561029357905f5260205f2090602091828204019190065b601f036101000a81548160ff021916907f010000000000000000000000000000000000000000000000000000000000000084040217905550600a6001819055506001549250600180546102e69190610876565b60018190555050600180546102fb9190610876565b60018190555050919050565b5f600780610318576103176108a9565b5b6032606408905090565b5f81519050919050565b5f82825260208201905092915050565b5f5b8381101561035957808201518184015260208101905061033e565b5f8484015250505050565b5f601f19601f8301169050919050565b5f61037e82610322565b610388818561032c565b935061039881856020860161033c565b6103a181610364565b840191505092915050565b5f6020820190508181035f8301526103c48184610374565b905092915050565b5f819050919050565b6103de816103cc565b82525050565b5f6020820190506103f75f8301846103d5565b92915050565b5f80fd5b61040a816103cc565b8114610414575f80fd5b50565b5f8135905061042581610401565b92915050565b5f602082840312156104405761043f6103fd565b5b5f61044d84828501610417565b91505092915050565b7f4e487b71000000000000000000000000000000000000000000000000000000005f52602260045260245ffd5b5f600282049050600182168061049a57607f821691505b6020821081036104ad576104ac610456565b5b50919050565b7f6e756d206572726f7231000000000000000000000000000000000000000000005f82015250565b5f6104e7600a8361032c565b91506104f2826104b3565b602082019050919050565b5f6020820190508181035f830152610514816104db565b9050919050565b7f4e487b71000000000000000000000000000000000000000000000000000000005f52604160045260245ffd5b5f819050815f5260205f209050919050565b5f6020601f8301049050919050565b5f82821b905092915050565b5f600883026105a47fffffffffffffffffffffffffffffffffffffffffffffffffffffffffffffffff82610569565b6105ae8683610569565b95508019841693508086168417925050509392505050565b5f819050919050565b5f6105e96105e46105df846103cc565b6105c6565b6103cc565b9050919050565b5f819050919050565b610602836105cf565b61061661060e826105f0565b848454610575565b825550505050565b5f90565b61062a61061e565b6106358184846105f9565b505050565b5b818110156106585761064d5f82610622565b60018101905061063b565b5050565b601f82111561069d5761066e81610548565b6106778461055a565b81016020851015610686578190505b61069a6106928561055a565b83018261063a565b50505b505050565b5f82821c905092915050565b5f6106bd5f19846008026106a2565b1980831691505092915050565b5f6106d583836106ae565b9150826002028217905092915050565b6106ee82610322565b67ffffffffffffffff8111156107075761070661051b565b5b6107118254610483565b61071c82828561065c565b5f60209050601f83116001811461074d575f841561073b578287015190505b61074585826106ca565b8655506107ac565b601f19841661075b86610548565b5f5b828110156107825784890151825560018201915060208501945060208101905061075d565b8683101561079f578489015161079b601f8916826106ae565b8355505b6001600288020188555050505b505050505050565b7f6e756d206572726f7232000000000000000000000000000000000000000000005f82015250565b5f6107e8600a8361032c565b91506107f3826107b4565b602082019050919050565b5f6020820190508181035f830152610815816107dc565b9050919050565b7f4e487b71000000000000000000000000000000000000000000000000000000005f52603260045260245ffd5b7f4e487b71000000000000000000000000000000000000000000000000000000005f52601160045260245ffd5b5f610880826103cc565b915061088b836103cc565b92508282019050808211156108a3576108a2610849565b5b92915050565b7f4e487b71000000000000000000000000000000000000000000000000000000005f52601260045260245ffdfea2646970667358221220d85507c2698eff3ff2b684b440c60dd664f63eae58b28a7079a3a4d821d9f80b64736f6c63430008160033",
			"opcodes": "PUSH1 0x80 PUSH1 0x40 MSTORE CALLVALUE DUP1 ISZERO PUSH2 0xF JUMPI PUSH0 DUP1 REVERT JUMPDEST POP CALLER PUSH0 DUP1 PUSH2 0x100 EXP DUP2 SLOAD DUP2 PUSH20 0xFFFFFFFFFFFFFFFFFFFFFFFFFFFFFFFFFFFFFFFF MUL NOT AND SWAP1 DUP4 PUSH20 0xFFFFFFFFFFFFFFFFFFFFFFFFFFFFFFFFFFFFFFFF AND MUL OR SWAP1 SSTORE POP PUSH2 0x90C DUP1 PUSH2 0x5C PUSH0 CODECOPY PUSH0 RETURN INVALID PUSH1 0x80 PUSH1 0x40 MSTORE CALLVALUE DUP1 ISZERO PUSH2 0xF JUMPI PUSH0 DUP1 REVERT JUMPDEST POP PUSH1 0x4 CALLDATASIZE LT PUSH2 0x4A JUMPI PUSH0 CALLDATALOAD PUSH1 0xE0 SHR DUP1 PUSH4 0x6FDDE03 EQ PUSH2 0x4E JUMPI DUP1 PUSH4 0xDBE671F EQ PUSH2 0x6C JUMPI DUP1 PUSH4 0x29E99F07 EQ PUSH2 0x8A JUMPI DUP1 PUSH4 0x6B59084D EQ PUSH2 0xBA JUMPI JUMPDEST PUSH0 DUP1 REVERT JUMPDEST PUSH2 0x56 PUSH2 0xD8 JUMP JUMPDEST PUSH1 0x40 MLOAD PUSH2 0x63 SWAP2 SWAP1 PUSH2 0x3AC JUMP JUMPDEST PUSH1 0x40 MLOAD DUP1 SWAP2 SUB SWAP1 RETURN JUMPDEST PUSH2 0x74 PUSH2 0x164 JUMP JUMPDEST PUSH1 0x40 MLOAD PUSH2 0x81 SWAP2 SWAP1 PUSH2 0x3E4 JUMP JUMPDEST PUSH1 0x40 MLOAD DUP1 SWAP2 SUB SWAP1 RETURN JUMPDEST PUSH2 0xA4 PUSH1 0x4 DUP1 CALLDATASIZE SUB DUP2 ADD SWAP1 PUSH2 0x9F SWAP2 SWAP1 PUSH2 0x42B JUMP JUMPDEST PUSH2 0x16A JUMP JUMPDEST PUSH1 0x40 MLOAD PUSH2 0xB1 SWAP2 SWAP1 PUSH2 0x3E4 JUMP JUMPDEST PUSH1 0x40 MLOAD DUP1 SWAP2 SUB SWAP1 RETURN JUMPDEST PUSH2 0xC2 PUSH2 0x307 JUMP JUMPDEST PUSH1 0x40 MLOAD PUSH2 0xCF SWAP2 SWAP1 PUSH2 0x3E4 JUMP JUMPDEST PUSH1 0x40 MLOAD DUP1 SWAP2 SUB SWAP1 RETURN JUMPDEST PUSH1 0x2 DUP1 SLOAD PUSH2 0xE5 SWAP1 PUSH2 0x483 JUMP JUMPDEST DUP1 PUSH1 0x1F ADD PUSH1 0x20 DUP1 SWAP2 DIV MUL PUSH1 0x20 ADD PUSH1 0x40 MLOAD SWAP1 DUP2 ADD PUSH1 0x40 MSTORE DUP1 SWAP3 SWAP2 SWAP1 DUP2 DUP2 MSTORE PUSH1 0x20 ADD DUP3 DUP1 SLOAD PUSH2 0x111 SWAP1 PUSH2 0x483 JUMP JUMPDEST DUP1 ISZERO PUSH2 0x15C JUMPI DUP1 PUSH1 0x1F LT PUSH2 0x133 JUMPI PUSH2 0x100 DUP1 DUP4 SLOAD DIV MUL DUP4 MSTORE SWAP2 PUSH1 0x20 ADD SWAP2 PUSH2 0x15C JUMP JUMPDEST DUP3 ADD SWAP2 SWAP1 PUSH0 MSTORE PUSH1 0x20 PUSH0 KECCAK256 SWAP1 JUMPDEST DUP2 SLOAD DUP2 MSTORE SWAP1 PUSH1 0x1 ADD SWAP1 PUSH1 0x20 ADD DUP1 DUP4 GT PUSH2 0x13F JUMPI DUP3 SWAP1 SUB PUSH1 0x1F AND DUP3 ADD SWAP2 JUMPDEST POP POP POP POP POP DUP2 JUMP JUMPDEST PUSH1 0x1 SLOAD DUP2 JUMP JUMPDEST PUSH0 DUP2 PUSH1 0xA DUP2 GT PUSH2 0x1AF JUMPI PUSH1 0x40 MLOAD PUSH32 0x8C379A000000000000000000000000000000000000000000000000000000000 DUP2 MSTORE PUSH1 0x4 ADD PUSH2 0x1A6 SWAP1 PUSH2 0x4FD JUMP JUMPDEST PUSH1 0x40 MLOAD DUP1 SWAP2 SUB SWAP1 REVERT JUMPDEST PUSH1 0x40 MLOAD DUP1 PUSH1 0x40 ADD PUSH1 0x40 MSTORE DUP1 PUSH1 0x5 DUP2 MSTORE PUSH1 0x20 ADD PUSH32 0x7469676572000000000000000000000000000000000000000000000000000000 DUP2 MSTORE POP PUSH1 0x2 SWAP1 DUP2 PUSH2 0x1F3 SWAP2 SWAP1 PUSH2 0x6E5 JUMP JUMPDEST POP DUP3 PUSH1 0x14 DUP2 GT PUSH2 0x238 JUMPI PUSH1 0x40 MLOAD PUSH32 0x8C379A000000000000000000000000000000000000000000000000000000000 DUP2 MSTORE PUSH1 0x4 ADD PUSH2 0x22F SWAP1 PUSH2 0x7FE JUMP JUMPDEST PUSH1 0x40 MLOAD DUP1 SWAP2 SUB SWAP1 REVERT JUMPDEST PUSH32 0x6400000000000000000000000000000000000000000000000000000000000000 PUSH1 0x2 PUSH0 DUP2 SLOAD PUSH2 0x267 SWAP1 PUSH2 0x483 JUMP JUMPDEST DUP2 LT PUSH2 0x276 JUMPI PUSH2 0x275 PUSH2 0x81C JUMP JUMPDEST JUMPDEST DUP2 SLOAD PUSH1 0x1 AND ISZERO PUSH2 0x293 JUMPI SWAP1 PUSH0 MSTORE PUSH1 0x20 PUSH0 KECCAK256 SWAP1 PUSH1 0x20 SWAP2 DUP3 DUP3 DIV ADD SWAP2 SWAP1 MOD JUMPDEST PUSH1 0x1F SUB PUSH2 0x100 EXP DUP2 SLOAD DUP2 PUSH1 0xFF MUL NOT AND SWAP1 PUSH32 0x100000000000000000000000000000000000000000000000000000000000000 DUP5 DIV MUL OR SWAP1 SSTORE POP PUSH1 0xA PUSH1 0x1 DUP2 SWAP1 SSTORE POP PUSH1 0x1 SLOAD SWAP3 POP PUSH1 0x1 DUP1 SLOAD PUSH2 0x2E6 SWAP2 SWAP1 PUSH2 0x876 JUMP JUMPDEST PUSH1 0x1 DUP2 SWAP1 SSTORE POP POP PUSH1 0x1 DUP1 SLOAD PUSH2 0x2FB SWAP2 SWAP1 PUSH2 0x876 JUMP JUMPDEST PUSH1 0x1 DUP2 SWAP1 SSTORE POP POP SWAP2 SWAP1 POP JUMP JUMPDEST PUSH0 PUSH1 0x7 DUP1 PUSH2 0x318 JUMPI PUSH2 0x317 PUSH2 0x8A9 JUMP JUMPDEST JUMPDEST PUSH1 0x32 PUSH1 0x64 ADDMOD SWAP1 POP SWAP1 JUMP JUMPDEST PUSH0 DUP2 MLOAD SWAP1 POP SWAP2 SWAP1 POP JUMP JUMPDEST PUSH0 DUP3 DUP3 MSTORE PUSH1 0x20 DUP3 ADD SWAP1 POP SWAP3 SWAP2 POP POP JUMP JUMPDEST PUSH0 JUMPDEST DUP4 DUP2 LT ISZERO PUSH2 0x359 JUMPI DUP1 DUP3 ADD MLOAD DUP2 DUP5 ADD MSTORE PUSH1 0x20 DUP2 ADD SWAP1 POP PUSH2 0x33E JUMP JUMPDEST PUSH0 DUP5 DUP5 ADD MSTORE POP POP POP POP JUMP JUMPDEST PUSH0 PUSH1 0x1F NOT PUSH1 0x1F DUP4 ADD AND SWAP1 POP SWAP2 SWAP1 POP JUMP JUMPDEST PUSH0 PUSH2 0x37E DUP3 PUSH2 0x322 JUMP JUMPDEST PUSH2 0x388 DUP2 DUP6 PUSH2 0x32C JUMP JUMPDEST SWAP4 POP PUSH2 0x398 DUP2 DUP6 PUSH1 0x20 DUP7 ADD PUSH2 0x33C JUMP JUMPDEST PUSH2 0x3A1 DUP2 PUSH2 0x364 JUMP JUMPDEST DUP5 ADD SWAP2 POP POP SWAP3 SWAP2 POP POP JUMP JUMPDEST PUSH0 PUSH1 0x20 DUP3 ADD SWAP1 POP DUP2 DUP2 SUB PUSH0 DUP4 ADD MSTORE PUSH2 0x3C4 DUP2 DUP5 PUSH2 0x374 JUMP JUMPDEST SWAP1 POP SWAP3 SWAP2 POP POP JUMP JUMPDEST PUSH0 DUP2 SWAP1 POP SWAP2 SWAP1 POP JUMP JUMPDEST PUSH2 0x3DE DUP2 PUSH2 0x3CC JUMP JUMPDEST DUP3 MSTORE POP POP JUMP JUMPDEST PUSH0 PUSH1 0x20 DUP3 ADD SWAP1 POP PUSH2 0x3F7 PUSH0 DUP4 ADD DUP5 PUSH2 0x3D5 JUMP JUMPDEST SWAP3 SWAP2 POP POP JUMP JUMPDEST PUSH0 DUP1 REVERT JUMPDEST PUSH2 0x40A DUP2 PUSH2 0x3CC JUMP JUMPDEST DUP2 EQ PUSH2 0x414 JUMPI PUSH0 DUP1 REVERT JUMPDEST POP JUMP JUMPDEST PUSH0 DUP2 CALLDATALOAD SWAP1 POP PUSH2 0x425 DUP2 PUSH2 0x401 JUMP JUMPDEST SWAP3 SWAP2 POP POP JUMP JUMPDEST PUSH0 PUSH1 0x20 DUP3 DUP5 SUB SLT ISZERO PUSH2 0x440 JUMPI PUSH2 0x43F PUSH2 0x3FD JUMP JUMPDEST JUMPDEST PUSH0 PUSH2 0x44D DUP5 DUP3 DUP6 ADD PUSH2 0x417 JUMP JUMPDEST SWAP2 POP POP SWAP3 SWAP2 POP POP JUMP JUMPDEST PUSH32 0x4E487B7100000000000000000000000000000000000000000000000000000000 PUSH0 MSTORE PUSH1 0x22 PUSH1 0x4 MSTORE PUSH1 0x24 PUSH0 REVERT JUMPDEST PUSH0 PUSH1 0x2 DUP3 DIV SWAP1 POP PUSH1 0x1 DUP3 AND DUP1 PUSH2 0x49A JUMPI PUSH1 0x7F DUP3 AND SWAP2 POP JUMPDEST PUSH1 0x20 DUP3 LT DUP2 SUB PUSH2 0x4AD JUMPI PUSH2 0x4AC PUSH2 0x456 JUMP JUMPDEST JUMPDEST POP SWAP2 SWAP1 POP JUMP JUMPDEST PUSH32 0x6E756D206572726F723100000000000000000000000000000000000000000000 PUSH0 DUP3 ADD MSTORE POP JUMP JUMPDEST PUSH0 PUSH2 0x4E7 PUSH1 0xA DUP4 PUSH2 0x32C JUMP JUMPDEST SWAP2 POP PUSH2 0x4F2 DUP3 PUSH2 0x4B3 JUMP JUMPDEST PUSH1 0x20 DUP3 ADD SWAP1 POP SWAP2 SWAP1 POP JUMP JUMPDEST PUSH0 PUSH1 0x20 DUP3 ADD SWAP1 POP DUP2 DUP2 SUB PUSH0 DUP4 ADD MSTORE PUSH2 0x514 DUP2 PUSH2 0x4DB JUMP JUMPDEST SWAP1 POP SWAP2 SWAP1 POP JUMP JUMPDEST PUSH32 0x4E487B7100000000000000000000000000000000000000000000000000000000 PUSH0 MSTORE PUSH1 0x41 PUSH1 0x4 MSTORE PUSH1 0x24 PUSH0 REVERT JUMPDEST PUSH0 DUP2 SWAP1 POP DUP2 PUSH0 MSTORE PUSH1 0x20 PUSH0 KECCAK256 SWAP1 POP SWAP2 SWAP1 POP JUMP JUMPDEST PUSH0 PUSH1 0x20 PUSH1 0x1F DUP4 ADD DIV SWAP1 POP SWAP2 SWAP1 POP JUMP JUMPDEST PUSH0 DUP3 DUP3 SHL SWAP1 POP SWAP3 SWAP2 POP POP JUMP JUMPDEST PUSH0 PUSH1 0x8 DUP4 MUL PUSH2 0x5A4 PUSH32 0xFFFFFFFFFFFFFFFFFFFFFFFFFFFFFFFFFFFFFFFFFFFFFFFFFFFFFFFFFFFFFFFF DUP3 PUSH2 0x569 JUMP JUMPDEST PUSH2 0x5AE DUP7 DUP4 PUSH2 0x569 JUMP JUMPDEST SWAP6 POP DUP1 NOT DUP5 AND SWAP4 POP DUP1 DUP7 AND DUP5 OR SWAP3 POP POP POP SWAP4 SWAP3 POP POP POP JUMP JUMPDEST PUSH0 DUP2 SWAP1 POP SWAP2 SWAP1 POP JUMP JUMPDEST PUSH0 PUSH2 0x5E9 PUSH2 0x5E4 PUSH2 0x5DF DUP5 PUSH2 0x3CC JUMP JUMPDEST PUSH2 0x5C6 JUMP JUMPDEST PUSH2 0x3CC JUMP JUMPDEST SWAP1 POP SWAP2 SWAP1 POP JUMP JUMPDEST PUSH0 DUP2 SWAP1 POP SWAP2 SWAP1 POP JUMP JUMPDEST PUSH2 0x602 DUP4 PUSH2 0x5CF JUMP JUMPDEST PUSH2 0x616 PUSH2 0x60E DUP3 PUSH2 0x5F0 JUMP JUMPDEST DUP5 DUP5 SLOAD PUSH2 0x575 JUMP JUMPDEST DUP3 SSTORE POP POP POP POP JUMP JUMPDEST PUSH0 SWAP1 JUMP JUMPDEST PUSH2 0x62A PUSH2 0x61E JUMP JUMPDEST PUSH2 0x635 DUP2 DUP5 DUP5 PUSH2 0x5F9 JUMP JUMPDEST POP POP POP JUMP JUMPDEST JUMPDEST DUP2 DUP2 LT ISZERO PUSH2 0x658 JUMPI PUSH2 0x64D PUSH0 DUP3 PUSH2 0x622 JUMP JUMPDEST PUSH1 0x1 DUP2 ADD SWAP1 POP PUSH2 0x63B JUMP JUMPDEST POP POP JUMP JUMPDEST PUSH1 0x1F DUP3 GT ISZERO PUSH2 0x69D JUMPI PUSH2 0x66E DUP2 PUSH2 0x548 JUMP JUMPDEST PUSH2 0x677 DUP5 PUSH2 0x55A JUMP JUMPDEST DUP2 ADD PUSH1 0x20 DUP6 LT ISZERO PUSH2 0x686 JUMPI DUP2 SWAP1 POP JUMPDEST PUSH2 0x69A PUSH2 0x692 DUP6 PUSH2 0x55A JUMP JUMPDEST DUP4 ADD DUP3 PUSH2 0x63A JUMP JUMPDEST POP POP JUMPDEST POP POP POP JUMP JUMPDEST PUSH0 DUP3 DUP3 SHR SWAP1 POP SWAP3 SWAP2 POP POP JUMP JUMPDEST PUSH0 PUSH2 0x6BD PUSH0 NOT DUP5 PUSH1 0x8 MUL PUSH2 0x6A2 JUMP JUMPDEST NOT DUP1 DUP4 AND SWAP2 POP POP SWAP3 SWAP2 POP POP JUMP JUMPDEST PUSH0 PUSH2 0x6D5 DUP4 DUP4 PUSH2 0x6AE JUMP JUMPDEST SWAP2 POP DUP3 PUSH1 0x2 MUL DUP3 OR SWAP1 POP SWAP3 SWAP2 POP POP JUMP JUMPDEST PUSH2 0x6EE DUP3 PUSH2 0x322 JUMP JUMPDEST PUSH8 0xFFFFFFFFFFFFFFFF DUP2 GT ISZERO PUSH2 0x707 JUMPI PUSH2 0x706 PUSH2 0x51B JUMP JUMPDEST JUMPDEST PUSH2 0x711 DUP3 SLOAD PUSH2 0x483 JUMP JUMPDEST PUSH2 0x71C DUP3 DUP3 DUP6 PUSH2 0x65C JUMP JUMPDEST PUSH0 PUSH1 0x20 SWAP1 POP PUSH1 0x1F DUP4 GT PUSH1 0x1 DUP2 EQ PUSH2 0x74D JUMPI PUSH0 DUP5 ISZERO PUSH2 0x73B JUMPI DUP3 DUP8 ADD MLOAD SWAP1 POP JUMPDEST PUSH2 0x745 DUP6 DUP3 PUSH2 0x6CA JUMP JUMPDEST DUP7 SSTORE POP PUSH2 0x7AC JUMP JUMPDEST PUSH1 0x1F NOT DUP5 AND PUSH2 0x75B DUP7 PUSH2 0x548 JUMP JUMPDEST PUSH0 JUMPDEST DUP3 DUP2 LT ISZERO PUSH2 0x782 JUMPI DUP5 DUP10 ADD MLOAD DUP3 SSTORE PUSH1 0x1 DUP3 ADD SWAP2 POP PUSH1 0x20 DUP6 ADD SWAP5 POP PUSH1 0x20 DUP2 ADD SWAP1 POP PUSH2 0x75D JUMP JUMPDEST DUP7 DUP4 LT ISZERO PUSH2 0x79F JUMPI DUP5 DUP10 ADD MLOAD PUSH2 0x79B PUSH1 0x1F DUP10 AND DUP3 PUSH2 0x6AE JUMP JUMPDEST DUP4 SSTORE POP JUMPDEST PUSH1 0x1 PUSH1 0x2 DUP9 MUL ADD DUP9 SSTORE POP POP POP JUMPDEST POP POP POP POP POP POP JUMP JUMPDEST PUSH32 0x6E756D206572726F723200000000000000000000000000000000000000000000 PUSH0 DUP3 ADD MSTORE POP JUMP JUMPDEST PUSH0 PUSH2 0x7E8 PUSH1 0xA DUP4 PUSH2 0x32C JUMP JUMPDEST SWAP2 POP PUSH2 0x7F3 DUP3 PUSH2 0x7B4 JUMP JUMPDEST PUSH1 0x20 DUP3 ADD SWAP1 POP SWAP2 SWAP1 POP JUMP JUMPDEST PUSH0 PUSH1 0x20 DUP3 ADD SWAP1 POP DUP2 DUP2 SUB PUSH0 DUP4 ADD MSTORE PUSH2 0x815 DUP2 PUSH2 0x7DC JUMP JUMPDEST SWAP1 POP SWAP2 SWAP1 POP JUMP JUMPDEST PUSH32 0x4E487B7100000000000000000000000000000000000000000000000000000000 PUSH0 MSTORE PUSH1 0x32 PUSH1 0x4 MSTORE PUSH1 0x24 PUSH0 REVERT JUMPDEST PUSH32 0x4E487B7100000000000000000000000000000000000000000000000000000000 PUSH0 MSTORE PUSH1 0x11 PUSH1 0x4 MSTORE PUSH1 0x24 PUSH0 REVERT JUMPDEST PUSH0 PUSH2 0x880 DUP3 PUSH2 0x3CC JUMP JUMPDEST SWAP2 POP PUSH2 0x88B DUP4 PUSH2 0x3CC JUMP JUMPDEST SWAP3 POP DUP3 DUP3 ADD SWAP1 POP DUP1 DUP3 GT ISZERO PUSH2 0x8A3 JUMPI PUSH2 0x8A2 PUSH2 0x849 JUMP JUMPDEST JUMPDEST SWAP3 SWAP2 POP POP JUMP JUMPDEST PUSH32 0x4E487B7100000000000000000000000000000000000000000000000000000000 PUSH0 MSTORE PUSH1 0x12 PUSH1 0x4 MSTORE PUSH1 0x24 PUSH0 REVERT INVALID LOG2 PUSH5 0x6970667358 0x22 SLT KECCAK256 0xD8 SSTORE SMOD 0xC2 PUSH10 0x8EFF3FF2B684B440C60D 0xD6 PUSH5 0xF63EAE58B2 DUP11 PUSH17 0x79A3A4D821D9F80B64736F6C6343000816 STOP CALLER "
		},
		"gasEstimates": {
			"creation": {
				"codeDepositCost": "463200",
				"executionCost": "24762",
				"totalCost": "487962"
			},
			"external": {
				"a()": "2425",
				"name()": "infinite",
				"test(uint256)": "infinite",
				"test1()": "407"
			}
		},
		"methodIdentifiers": {
			"a()": "0dbe671f",
			"name()": "06fdde03",
			"test(uint256)": "29e99f07",
			"test1()": "6b59084d"
		}
	},
	"abi": [
		{
			"inputs": [],
			"stateMutability": "nonpayable",
			"type": "constructor"
		},
		{
			"inputs": [],
			"name": "a",
			"outputs": [
				{
					"internalType": "uint256",
					"name": "",
					"type": "uint256"
				}
			],
			"stateMutability": "view",
			"type": "function"
		},
		{
			"inputs": [],
			"name": "name",
			"outputs": [
				{
					"internalType": "string",
					"name": "",
					"type": "string"
				}
			],
			"stateMutability": "view",
			"type": "function"
		},
		{
			"inputs": [
				{
					"internalType": "uint256",
					"name": "num",
					"type": "uint256"
				}
			],
			"name": "test",
			"outputs": [
				{
					"internalType": "uint256",
					"name": "",
					"type": "uint256"
				}
			],
			"stateMutability": "nonpayable",
			"type": "function"
		},
		{
			"inputs": [],
			"name": "test1",
			"outputs": [
				{
					"internalType": "uint256",
					"name": "",
					"type": "uint256"
				}
			],
			"stateMutability": "pure",
			"type": "function"
		}
	]
}