{
	"data": {
		"bytecode": {
			"linkReferences": {},
			"object": "608060405234801561000f575f80fd5b506104538061001d5f395ff3fe608060405260043610610033575f3560e01c806366e41cb7146100375780636b55e991146100615780636b59084d14610091575b5f80fd5b348015610042575f80fd5b5061004b6100bb565b60405161005891906101ee565b60405180910390f35b61007b6004803603810190610076919061026c565b6100e6565b60405161008891906101ee565b60405180910390f35b34801561009c575f80fd5b506100a5610121565b6040516100b291906101ee565b60405180910390f35b6060604051806020016100cd9061014c565b6020820181038252601f19601f82011660405250905090565b60608173ffffffffffffffffffffffffffffffffffffffff16803b806020016040519081016040528181525f908060200190933c9050919050565b60606040518060200161013390610158565b6020820181038252601f19601f82011660405250905090565b60b58061029883390190565b60d18061034d83390190565b5f81519050919050565b5f82825260208201905092915050565b5f5b8381101561019b578082015181840152602081019050610180565b5f8484015250505050565b5f601f19601f8301169050919050565b5f6101c082610164565b6101ca818561016e565b93506101da81856020860161017e565b6101e3816101a6565b840191505092915050565b5f6020820190508181035f83015261020681846101b6565b905092915050565b5f80fd5b5f73ffffffffffffffffffffffffffffffffffffffff82169050919050565b5f61023b82610212565b9050919050565b61024b81610231565b8114610255575f80fd5b50565b5f8135905061026681610242565b92915050565b5f602082840312156102815761028061020e565b5b5f61028e84828501610258565b9150509291505056fe608060405260043610601e575f3560e01c806312065fe0146026576024565b36602457005b005b3480156030575f80fd5b506037604b565b604051604291906068565b60405180910390f35b5f47905090565b5f819050919050565b6062816052565b82525050565b5f60208201905060795f830184605b565b9291505056fea2646970667358221220e28ce6b647076966fb5612d137c260372325d5ee31fd6e58500981e5a7ff2e0564736f6c63430008180033608060405234801561000f575f80fd5b5060b58061001c5f395ff3fe608060405260043610601e575f3560e01c806312065fe0146026576024565b36602457005b005b3480156030575f80fd5b506037604b565b604051604291906068565b60405180910390f35b5f47905090565b5f819050919050565b6062816052565b82525050565b5f60208201905060795f830184605b565b9291505056fea2646970667358221220e28ce6b647076966fb5612d137c260372325d5ee31fd6e58500981e5a7ff2e0564736f6c63430008180033a264697066735822122084d04122417e48b9c51f7842e0101e847a7ec02afb0c59dfdbbdf48bc5897ed864736f6c63430008180033",
			"opcodes": "PUSH1 0x80 PUSH1 0x40 MSTORE CALLVALUE DUP1 ISZERO PUSH2 0xF JUMPI PUSH0 DUP1 REVERT JUMPDEST POP PUSH2 0x453 DUP1 PUSH2 0x1D PUSH0 CODECOPY PUSH0 RETURN INVALID PUSH1 0x80 PUSH1 0x40 MSTORE PUSH1 0x4 CALLDATASIZE LT PUSH2 0x33 JUMPI PUSH0 CALLDATALOAD PUSH1 0xE0 SHR DUP1 PUSH4 0x66E41CB7 EQ PUSH2 0x37 JUMPI DUP1 PUSH4 0x6B55E991 EQ PUSH2 0x61 JUMPI DUP1 PUSH4 0x6B59084D EQ PUSH2 0x91 JUMPI JUMPDEST PUSH0 DUP1 REVERT JUMPDEST CALLVALUE DUP1 ISZERO PUSH2 0x42 JUMPI PUSH0 DUP1 REVERT JUMPDEST POP PUSH2 0x4B PUSH2 0xBB JUMP JUMPDEST PUSH1 0x40 MLOAD PUSH2 0x58 SWAP2 SWAP1 PUSH2 0x1EE JUMP JUMPDEST PUSH1 0x40 MLOAD DUP1 SWAP2 SUB SWAP1 RETURN JUMPDEST PUSH2 0x7B PUSH1 0x4 DUP1 CALLDATASIZE SUB DUP2 ADD SWAP1 PUSH2 0x76 SWAP2 SWAP1 PUSH2 0x26C JUMP JUMPDEST PUSH2 0xE6 JUMP JUMPDEST PUSH1 0x40 MLOAD PUSH2 0x88 SWAP2 SWAP1 PUSH2 0x1EE JUMP JUMPDEST PUSH1 0x40 MLOAD DUP1 SWAP2 SUB SWAP1 RETURN JUMPDEST CALLVALUE DUP1 ISZERO PUSH2 0x9C JUMPI PUSH0 DUP1 REVERT JUMPDEST POP PUSH2 0xA5 PUSH2 0x121 JUMP JUMPDEST PUSH1 0x40 MLOAD PUSH2 0xB2 SWAP2 SWAP1 PUSH2 0x1EE JUMP JUMPDEST PUSH1 0x40 MLOAD DUP1 SWAP2 SUB SWAP1 RETURN JUMPDEST PUSH1 0x60 PUSH1 0x40 MLOAD DUP1 PUSH1 0x20 ADD PUSH2 0xCD SWAP1 PUSH2 0x14C JUMP JUMPDEST PUSH1 0x20 DUP3 ADD DUP2 SUB DUP3 MSTORE PUSH1 0x1F NOT PUSH1 0x1F DUP3 ADD AND PUSH1 0x40 MSTORE POP SWAP1 POP SWAP1 JUMP JUMPDEST PUSH1 0x60 DUP2 PUSH20 0xFFFFFFFFFFFFFFFFFFFFFFFFFFFFFFFFFFFFFFFF AND DUP1 EXTCODESIZE DUP1 PUSH1 0x20 ADD PUSH1 0x40 MLOAD SWAP1 DUP2 ADD PUSH1 0x40 MSTORE DUP2 DUP2 MSTORE PUSH0 SWAP1 DUP1 PUSH1 0x20 ADD SWAP1 SWAP4 EXTCODECOPY SWAP1 POP SWAP2 SWAP1 POP JUMP JUMPDEST PUSH1 0x60 PUSH1 0x40 MLOAD DUP1 PUSH1 0x20 ADD PUSH2 0x133 SWAP1 PUSH2 0x158 JUMP JUMPDEST PUSH1 0x20 DUP3 ADD DUP2 SUB DUP3 MSTORE PUSH1 0x1F NOT PUSH1 0x1F DUP3 ADD AND PUSH1 0x40 MSTORE POP SWAP1 POP SWAP1 JUMP JUMPDEST PUSH1 0xB5 DUP1 PUSH2 0x298 DUP4 CODECOPY ADD SWAP1 JUMP JUMPDEST PUSH1 0xD1 DUP1 PUSH2 0x34D DUP4 CODECOPY ADD SWAP1 JUMP JUMPDEST PUSH0 DUP2 MLOAD SWAP1 POP SWAP2 SWAP1 POP JUMP JUMPDEST PUSH0 DUP3 DUP3 MSTORE PUSH1 0x20 DUP3 ADD SWAP1 POP SWAP3 SWAP2 POP POP JUMP JUMPDEST PUSH0 JUMPDEST DUP4 DUP2 LT ISZERO PUSH2 0x19B JUMPI DUP1 DUP3 ADD MLOAD DUP2 DUP5 ADD MSTORE PUSH1 0x20 DUP2 ADD SWAP1 POP PUSH2 0x180 JUMP JUMPDEST PUSH0 DUP5 DUP5 ADD MSTORE POP POP POP POP JUMP JUMPDEST PUSH0 PUSH1 0x1F NOT PUSH1 0x1F DUP4 ADD AND SWAP1 POP SWAP2 SWAP1 POP JUMP JUMPDEST PUSH0 PUSH2 0x1C0 DUP3 PUSH2 0x164 JUMP JUMPDEST PUSH2 0x1CA DUP2 DUP6 PUSH2 0x16E JUMP JUMPDEST SWAP4 POP PUSH2 0x1DA DUP2 DUP6 PUSH1 0x20 DUP7 ADD PUSH2 0x17E JUMP JUMPDEST PUSH2 0x1E3 DUP2 PUSH2 0x1A6 JUMP JUMPDEST DUP5 ADD SWAP2 POP POP SWAP3 SWAP2 POP POP JUMP JUMPDEST PUSH0 PUSH1 0x20 DUP3 ADD SWAP1 POP DUP2 DUP2 SUB PUSH0 DUP4 ADD MSTORE PUSH2 0x206 DUP2 DUP5 PUSH2 0x1B6 JUMP JUMPDEST SWAP1 POP SWAP3 SWAP2 POP POP JUMP JUMPDEST PUSH0 DUP1 REVERT JUMPDEST PUSH0 PUSH20 0xFFFFFFFFFFFFFFFFFFFFFFFFFFFFFFFFFFFFFFFF DUP3 AND SWAP1 POP SWAP2 SWAP1 POP JUMP JUMPDEST PUSH0 PUSH2 0x23B DUP3 PUSH2 0x212 JUMP JUMPDEST SWAP1 POP SWAP2 SWAP1 POP JUMP JUMPDEST PUSH2 0x24B DUP2 PUSH2 0x231 JUMP JUMPDEST DUP2 EQ PUSH2 0x255 JUMPI PUSH0 DUP1 REVERT JUMPDEST POP JUMP JUMPDEST PUSH0 DUP2 CALLDATALOAD SWAP1 POP PUSH2 0x266 DUP2 PUSH2 0x242 JUMP JUMPDEST SWAP3 SWAP2 POP POP JUMP JUMPDEST PUSH0 PUSH1 0x20 DUP3 DUP5 SUB SLT ISZERO PUSH2 0x281 JUMPI PUSH2 0x280 PUSH2 0x20E JUMP JUMPDEST JUMPDEST PUSH0 PUSH2 0x28E DUP5 DUP3 DUP6 ADD PUSH2 0x258 JUMP JUMPDEST SWAP2 POP POP SWAP3 SWAP2 POP POP JUMP INVALID PUSH1 0x80 PUSH1 0x40 MSTORE PUSH1 0x4 CALLDATASIZE LT PUSH1 0x1E JUMPI PUSH0 CALLDATALOAD PUSH1 0xE0 SHR DUP1 PUSH4 0x12065FE0 EQ PUSH1 0x26 JUMPI PUSH1 0x24 JUMP JUMPDEST CALLDATASIZE PUSH1 0x24 JUMPI STOP JUMPDEST STOP JUMPDEST CALLVALUE DUP1 ISZERO PUSH1 0x30 JUMPI PUSH0 DUP1 REVERT JUMPDEST POP PUSH1 0x37 PUSH1 0x4B JUMP JUMPDEST PUSH1 0x40 MLOAD PUSH1 0x42 SWAP2 SWAP1 PUSH1 0x68 JUMP JUMPDEST PUSH1 0x40 MLOAD DUP1 SWAP2 SUB SWAP1 RETURN JUMPDEST PUSH0 SELFBALANCE SWAP1 POP SWAP1 JUMP JUMPDEST PUSH0 DUP2 SWAP1 POP SWAP2 SWAP1 POP JUMP JUMPDEST PUSH1 0x62 DUP2 PUSH1 0x52 JUMP JUMPDEST DUP3 MSTORE POP POP JUMP JUMPDEST PUSH0 PUSH1 0x20 DUP3 ADD SWAP1 POP PUSH1 0x79 PUSH0 DUP4 ADD DUP5 PUSH1 0x5B JUMP JUMPDEST SWAP3 SWAP2 POP POP JUMP INVALID LOG2 PUSH5 0x6970667358 0x22 SLT KECCAK256 0xE2 DUP13 0xE6 0xB6 SELFBALANCE SMOD PUSH10 0x66FB5612D137C2603723 0x25 0xD5 0xEE BALANCE REVERT PUSH15 0x58500981E5A7FF2E0564736F6C6343 STOP ADDMOD XOR STOP CALLER PUSH1 0x80 PUSH1 0x40 MSTORE CALLVALUE DUP1 ISZERO PUSH2 0xF JUMPI PUSH0 DUP1 REVERT JUMPDEST POP PUSH1 0xB5 DUP1 PUSH2 0x1C PUSH0 CODECOPY PUSH0 RETURN INVALID PUSH1 0x80 PUSH1 0x40 MSTORE PUSH1 0x4 CALLDATASIZE LT PUSH1 0x1E JUMPI PUSH0 CALLDATALOAD PUSH1 0xE0 SHR DUP1 PUSH4 0x12065FE0 EQ PUSH1 0x26 JUMPI PUSH1 0x24 JUMP JUMPDEST CALLDATASIZE PUSH1 0x24 JUMPI STOP JUMPDEST STOP JUMPDEST CALLVALUE DUP1 ISZERO PUSH1 0x30 JUMPI PUSH0 DUP1 REVERT JUMPDEST POP PUSH1 0x37 PUSH1 0x4B JUMP JUMPDEST PUSH1 0x40 MLOAD PUSH1 0x42 SWAP2 SWAP1 PUSH1 0x68 JUMP JUMPDEST PUSH1 0x40 MLOAD DUP1 SWAP2 SUB SWAP1 RETURN JUMPDEST PUSH0 SELFBALANCE SWAP1 POP SWAP1 JUMP JUMPDEST PUSH0 DUP2 SWAP1 POP SWAP2 SWAP1 POP JUMP JUMPDEST PUSH1 0x62 DUP2 PUSH1 0x52 JUMP JUMPDEST DUP3 MSTORE POP POP JUMP JUMPDEST PUSH0 PUSH1 0x20 DUP3 ADD SWAP1 POP PUSH1 0x79 PUSH0 DUP4 ADD DUP5 PUSH1 0x5B JUMP JUMPDEST SWAP3 SWAP2 POP POP JUMP INVALID LOG2 PUSH5 0x6970667358 0x22 SLT KECCAK256 0xE2 DUP13 0xE6 0xB6 SELFBALANCE SMOD PUSH10 0x66FB5612D137C2603723 0x25 0xD5 0xEE BALANCE REVERT PUSH15 0x58500981E5A7FF2E0564736F6C6343 STOP ADDMOD XOR STOP CALLER LOG2 PUSH5 0x6970667358 0x22 SLT KECCAK256 DUP5 0xD0 COINBASE 0x22 COINBASE PUSH31 0x48B9C51F7842E0101E847A7EC02AFB0C59DFDBBDF48BC5897ED864736F6C63 NUMBER STOP ADDMOD XOR STOP CALLER "
		},
		"gasEstimates": {
			"creation": {
				"codeDepositCost": "221400",
				"executionCost": "261",
				"totalCost": "221661"
			},
			"external": {
				"test1()": "infinite",
				"test2()": "infinite",
				"transferEther(address)": "infinite"
			}
		},
		"methodIdentifiers": {
			"test1()": "6b59084d",
			"test2()": "66e41cb7",
			"transferEther(address)": "6b55e991"
		}
	},
	"abi": [
		{
			"inputs": [],
			"name": "test1",
			"outputs": [
				{
					"internalType": "bytes",
					"name": "",
					"type": "bytes"
				}
			],
			"stateMutability": "pure",
			"type": "function"
		},
		{
			"inputs": [],
			"name": "test2",
			"outputs": [
				{
					"internalType": "bytes",
					"name": "",
					"type": "bytes"
				}
			],
			"stateMutability": "pure",
			"type": "function"
		},
		{
			"inputs": [
				{
					"internalType": "address",
					"name": "_addr",
					"type": "address"
				}
			],
			"name": "transferEther",
			"outputs": [
				{
					"internalType": "bytes",
					"name": "",
					"type": "bytes"
				}
			],
			"stateMutability": "payable",
			"type": "function"
		}
	]
}