{
	"contracts/MyNFT/PudgyPenguins.sol": {
		"CreditTiger": {
			"abi": [
				{
					"inputs": [
						{
							"internalType": "address",
							"name": "initialOwner",
							"type": "address"
						}
					],
					"stateMutability": "nonpayable",
					"type": "constructor"
				},
				{
					"inputs": [],
					"name": "ERC721EnumerableForbiddenBatchMint",
					"type": "error"
				},
				{
					"inputs": [
						{
							"internalType": "address",
							"name": "owner",
							"type": "address"
						},
						{
							"internalType": "uint256",
							"name": "index",
							"type": "uint256"
						}
					],
					"name": "ERC721OutOfBoundsIndex",
					"type": "error"
				},
				{
					"inputs": [],
					"name": "EnforcedPause",
					"type": "error"
				},
				{
					"inputs": [],
					"name": "ExpectedPause",
					"type": "error"
				},
				{
					"inputs": [
						{
							"internalType": "address",
							"name": "owner",
							"type": "address"
						}
					],
					"name": "OwnableInvalidOwner",
					"type": "error"
				},
				{
					"inputs": [
						{
							"internalType": "address",
							"name": "account",
							"type": "address"
						}
					],
					"name": "OwnableUnauthorizedAccount",
					"type": "error"
				},
				{
					"anonymous": false,
					"inputs": [
						{
							"indexed": true,
							"internalType": "address",
							"name": "owner",
							"type": "address"
						},
						{
							"indexed": true,
							"internalType": "address",
							"name": "approved",
							"type": "address"
						},
						{
							"indexed": true,
							"internalType": "uint256",
							"name": "tokenId",
							"type": "uint256"
						}
					],
					"name": "Approval",
					"type": "event"
				},
				{
					"anonymous": false,
					"inputs": [
						{
							"indexed": true,
							"internalType": "address",
							"name": "owner",
							"type": "address"
						},
						{
							"indexed": true,
							"internalType": "address",
							"name": "operator",
							"type": "address"
						},
						{
							"indexed": false,
							"internalType": "bool",
							"name": "approved",
							"type": "bool"
						}
					],
					"name": "ApprovalForAll",
					"type": "event"
				},
				{
					"anonymous": false,
					"inputs": [
						{
							"indexed": false,
							"internalType": "string",
							"name": "msg",
							"type": "string"
						}
					],
					"name": "Log",
					"type": "event"
				},
				{
					"anonymous": false,
					"inputs": [
						{
							"indexed": true,
							"internalType": "address",
							"name": "previousOwner",
							"type": "address"
						},
						{
							"indexed": true,
							"internalType": "address",
							"name": "newOwner",
							"type": "address"
						}
					],
					"name": "OwnershipTransferred",
					"type": "event"
				},
				{
					"anonymous": false,
					"inputs": [
						{
							"indexed": false,
							"internalType": "address",
							"name": "account",
							"type": "address"
						}
					],
					"name": "Paused",
					"type": "event"
				},
				{
					"anonymous": false,
					"inputs": [
						{
							"indexed": true,
							"internalType": "address",
							"name": "from",
							"type": "address"
						},
						{
							"indexed": true,
							"internalType": "address",
							"name": "to",
							"type": "address"
						},
						{
							"indexed": true,
							"internalType": "uint256",
							"name": "tokenId",
							"type": "uint256"
						}
					],
					"name": "Transfer",
					"type": "event"
				},
				{
					"anonymous": false,
					"inputs": [
						{
							"indexed": false,
							"internalType": "address",
							"name": "account",
							"type": "address"
						}
					],
					"name": "Unpaused",
					"type": "event"
				},
				{
					"inputs": [
						{
							"internalType": "address",
							"name": "to",
							"type": "address"
						},
						{
							"internalType": "uint256",
							"name": "tokenId",
							"type": "uint256"
						}
					],
					"name": "approve",
					"outputs": [],
					"stateMutability": "nonpayable",
					"type": "function"
				},
				{
					"inputs": [
						{
							"internalType": "address",
							"name": "owner",
							"type": "address"
						}
					],
					"name": "balanceOf",
					"outputs": [
						{
							"internalType": "uint256",
							"name": "",
							"type": "uint256"
						}
					],
					"stateMutability": "view",
					"type": "function"
				},
				{
					"inputs": [
						{
							"internalType": "uint256",
							"name": "tokenId",
							"type": "uint256"
						}
					],
					"name": "burn",
					"outputs": [],
					"stateMutability": "nonpayable",
					"type": "function"
				},
				{
					"inputs": [
						{
							"internalType": "uint256",
							"name": "tokenId",
							"type": "uint256"
						}
					],
					"name": "getApproved",
					"outputs": [
						{
							"internalType": "address",
							"name": "",
							"type": "address"
						}
					],
					"stateMutability": "view",
					"type": "function"
				},
				{
					"inputs": [
						{
							"internalType": "address",
							"name": "owner",
							"type": "address"
						},
						{
							"internalType": "address",
							"name": "operator",
							"type": "address"
						}
					],
					"name": "isApprovedForAll",
					"outputs": [
						{
							"internalType": "bool",
							"name": "",
							"type": "bool"
						}
					],
					"stateMutability": "view",
					"type": "function"
				},
				{
					"inputs": [],
					"name": "name",
					"outputs": [
						{
							"internalType": "string",
							"name": "",
							"type": "string"
						}
					],
					"stateMutability": "view",
					"type": "function"
				},
				{
					"inputs": [],
					"name": "owner",
					"outputs": [
						{
							"internalType": "address",
							"name": "",
							"type": "address"
						}
					],
					"stateMutability": "view",
					"type": "function"
				},
				{
					"inputs": [
						{
							"internalType": "uint256",
							"name": "tokenId",
							"type": "uint256"
						}
					],
					"name": "ownerOf",
					"outputs": [
						{
							"internalType": "address",
							"name": "",
							"type": "address"
						}
					],
					"stateMutability": "view",
					"type": "function"
				},
				{
					"inputs": [],
					"name": "paused",
					"outputs": [
						{
							"internalType": "bool",
							"name": "",
							"type": "bool"
						}
					],
					"stateMutability": "view",
					"type": "function"
				},
				{
					"inputs": [],
					"name": "renounceOwnership",
					"outputs": [],
					"stateMutability": "nonpayable",
					"type": "function"
				},
				{
					"inputs": [
						{
							"internalType": "address",
							"name": "from",
							"type": "address"
						},
						{
							"internalType": "address",
							"name": "to",
							"type": "address"
						},
						{
							"internalType": "uint256",
							"name": "tokenId",
							"type": "uint256"
						}
					],
					"name": "safeTransferFrom",
					"outputs": [],
					"stateMutability": "nonpayable",
					"type": "function"
				},
				{
					"inputs": [
						{
							"internalType": "address",
							"name": "from",
							"type": "address"
						},
						{
							"internalType": "address",
							"name": "to",
							"type": "address"
						},
						{
							"internalType": "uint256",
							"name": "tokenId",
							"type": "uint256"
						},
						{
							"internalType": "bytes",
							"name": "data",
							"type": "bytes"
						}
					],
					"name": "safeTransferFrom",
					"outputs": [],
					"stateMutability": "nonpayable",
					"type": "function"
				},
				{
					"inputs": [
						{
							"internalType": "address",
							"name": "operator",
							"type": "address"
						},
						{
							"internalType": "bool",
							"name": "approved",
							"type": "bool"
						}
					],
					"name": "setApprovalForAll",
					"outputs": [],
					"stateMutability": "nonpayable",
					"type": "function"
				},
				{
					"inputs": [
						{
							"internalType": "bytes4",
							"name": "interfaceId",
							"type": "bytes4"
						}
					],
					"name": "supportsInterface",
					"outputs": [
						{
							"internalType": "bool",
							"name": "",
							"type": "bool"
						}
					],
					"stateMutability": "view",
					"type": "function"
				},
				{
					"inputs": [],
					"name": "symbol",
					"outputs": [
						{
							"internalType": "string",
							"name": "",
							"type": "string"
						}
					],
					"stateMutability": "view",
					"type": "function"
				},
				{
					"inputs": [],
					"name": "test1",
					"outputs": [],
					"stateMutability": "nonpayable",
					"type": "function"
				},
				{
					"inputs": [
						{
							"internalType": "uint256",
							"name": "index",
							"type": "uint256"
						}
					],
					"name": "tokenByIndex",
					"outputs": [
						{
							"internalType": "uint256",
							"name": "",
							"type": "uint256"
						}
					],
					"stateMutability": "view",
					"type": "function"
				},
				{
					"inputs": [
						{
							"internalType": "address",
							"name": "owner",
							"type": "address"
						},
						{
							"internalType": "uint256",
							"name": "index",
							"type": "uint256"
						}
					],
					"name": "tokenOfOwnerByIndex",
					"outputs": [
						{
							"internalType": "uint256",
							"name": "",
							"type": "uint256"
						}
					],
					"stateMutability": "view",
					"type": "function"
				},
				{
					"inputs": [
						{
							"internalType": "uint256",
							"name": "tokenId",
							"type": "uint256"
						}
					],
					"name": "tokenURI",
					"outputs": [
						{
							"internalType": "string",
							"name": "",
							"type": "string"
						}
					],
					"stateMutability": "view",
					"type": "function"
				},
				{
					"inputs": [],
					"name": "totalSupply",
					"outputs": [
						{
							"internalType": "uint256",
							"name": "",
							"type": "uint256"
						}
					],
					"stateMutability": "view",
					"type": "function"
				},
				{
					"inputs": [
						{
							"internalType": "address",
							"name": "from",
							"type": "address"
						},
						{
							"internalType": "address",
							"name": "to",
							"type": "address"
						},
						{
							"internalType": "uint256",
							"name": "tokenId",
							"type": "uint256"
						}
					],
					"name": "transferFrom",
					"outputs": [],
					"stateMutability": "nonpayable",
					"type": "function"
				},
				{
					"inputs": [
						{
							"internalType": "address",
							"name": "newOwner",
							"type": "address"
						}
					],
					"name": "transferOwnership",
					"outputs": [],
					"stateMutability": "nonpayable",
					"type": "function"
				}
			],
			"devdoc": {
				"errors": {
					"ERC721EnumerableForbiddenBatchMint()": [
						{
							"details": "Batch mint is not allowed."
						}
					],
					"ERC721OutOfBoundsIndex(address,uint256)": [
						{
							"details": "An `owner`'s token query was out of bounds for `index`. NOTE: The owner being `address(0)` indicates a global out of bounds index."
						}
					],
					"EnforcedPause()": [
						{
							"details": "The operation failed because the contract is paused."
						}
					],
					"ExpectedPause()": [
						{
							"details": "The operation failed because the contract is not paused."
						}
					],
					"OwnableInvalidOwner(address)": [
						{
							"details": "The owner is not a valid owner account. (eg. `address(0)`)"
						}
					],
					"OwnableUnauthorizedAccount(address)": [
						{
							"details": "The caller account is not authorized to perform an operation."
						}
					]
				},
				"events": {
					"Approval(address,address,uint256)": {
						"details": "Emitted when `owner` enables `approved` to manage the `tokenId` token."
					},
					"ApprovalForAll(address,address,bool)": {
						"details": "Emitted when `owner` enables or disables (`approved`) `operator` to manage all of its assets."
					},
					"Paused(address)": {
						"details": "Emitted when the pause is triggered by `account`."
					},
					"Transfer(address,address,uint256)": {
						"details": "Emitted when `tokenId` token is transferred from `from` to `to`."
					},
					"Unpaused(address)": {
						"details": "Emitted when the pause is lifted by `account`."
					}
				},
				"kind": "dev",
				"methods": {
					"approve(address,uint256)": {
						"details": "See {IERC721-approve}."
					},
					"balanceOf(address)": {
						"details": "See {IERC721-balanceOf}."
					},
					"burn(uint256)": {
						"details": "Burns `tokenId`. See {ERC721-_burn}. Requirements: - The caller must own `tokenId` or be an approved operator."
					},
					"getApproved(uint256)": {
						"details": "See {IERC721-getApproved}."
					},
					"isApprovedForAll(address,address)": {
						"details": "See {IERC721-isApprovedForAll}."
					},
					"name()": {
						"details": "See {IERC721Metadata-name}."
					},
					"owner()": {
						"details": "Returns the address of the current owner."
					},
					"ownerOf(uint256)": {
						"details": "See {IERC721-ownerOf}."
					},
					"paused()": {
						"details": "Returns true if the contract is paused, and false otherwise."
					},
					"renounceOwnership()": {
						"details": "Leaves the contract without owner. It will not be possible to call `onlyOwner` functions. Can only be called by the current owner. NOTE: Renouncing ownership will leave the contract without an owner, thereby disabling any functionality that is only available to the owner."
					},
					"safeTransferFrom(address,address,uint256)": {
						"details": "See {IERC721-safeTransferFrom}."
					},
					"safeTransferFrom(address,address,uint256,bytes)": {
						"details": "See {IERC721-safeTransferFrom}."
					},
					"setApprovalForAll(address,bool)": {
						"details": "See {IERC721-setApprovalForAll}."
					},
					"symbol()": {
						"details": "See {IERC721Metadata-symbol}."
					},
					"tokenByIndex(uint256)": {
						"details": "See {IERC721Enumerable-tokenByIndex}."
					},
					"tokenOfOwnerByIndex(address,uint256)": {
						"details": "See {IERC721Enumerable-tokenOfOwnerByIndex}."
					},
					"tokenURI(uint256)": {
						"details": "See {IERC721Metadata-tokenURI}."
					},
					"totalSupply()": {
						"details": "See {IERC721Enumerable-totalSupply}."
					},
					"transferFrom(address,address,uint256)": {
						"details": "See {IERC721-transferFrom}."
					},
					"transferOwnership(address)": {
						"details": "Transfers ownership of the contract to a new account (`newOwner`). Can only be called by the current owner."
					}
				},
				"version": 1
			},
			"evm": {
				"assembly": "    /* \"contracts/MyNFT/PudgyPenguins.sol\":293:1253  contract CreditTiger is  ERC721Enumerable,Ownable, ERC721Burnable, ERC721Pausable {... */\n  mstore(0x40, 0x80)\n    /* \"contracts/MyNFT/PudgyPenguins.sol\":425:521  constructor(address initialOwner) ERC721(\"Credit-Tiger\", \"CTT\") Ownable(initialOwner) {... */\n  callvalue\n  dup1\n  iszero\n  tag_1\n  jumpi\n  0x00\n  dup1\n  revert\ntag_1:\n  pop\n  mload(0x40)\n  sub(codesize, bytecodeSize)\n  dup1\n  bytecodeSize\n  dup4\n  codecopy\n  dup2\n  dup2\n  add\n  0x40\n  mstore\n  dup2\n  add\n  swap1\n  tag_2\n  swap2\n  swap1\n  tag_3\n  jump\t// in\ntag_2:\n    /* \"contracts/MyNFT/PudgyPenguins.sol\":497:509  initialOwner */\n  dup1\n    /* \"contracts/MyNFT/ERC721.sol\":1353:1469  constructor(string memory name_, string memory symbol_) {... */\n  mload(0x40)\n  dup1\n  0x40\n  add\n  0x40\n  mstore\n  dup1\n  0x0c\n  dup2\n  mstore\n  0x20\n  add\n  0x4372656469742d54696765720000000000000000000000000000000000000000\n  dup2\n  mstore\n  pop\n  mload(0x40)\n  dup1\n  0x40\n  add\n  0x40\n  mstore\n  dup1\n  0x03\n  dup2\n  mstore\n  0x20\n  add\n  0x4354540000000000000000000000000000000000000000000000000000000000\n  dup2\n  mstore\n  pop\n    /* \"contracts/MyNFT/ERC721.sol\":1428:1433  name_ */\n  dup2\n    /* \"contracts/MyNFT/ERC721.sol\":1420:1425  _name */\n  0x00\n    /* \"contracts/MyNFT/ERC721.sol\":1420:1433  _name = name_ */\n  swap1\n  dup2\n  tag_9\n  swap2\n  swap1\n  tag_10\n  jump\t// in\ntag_9:\n  pop\n    /* \"contracts/MyNFT/ERC721.sol\":1454:1461  symbol_ */\n  dup1\n    /* \"contracts/MyNFT/ERC721.sol\":1444:1451  _symbol */\n  0x01\n    /* \"contracts/MyNFT/ERC721.sol\":1444:1461  _symbol = symbol_ */\n  swap1\n  dup2\n  tag_11\n  swap2\n  swap1\n  tag_10\n  jump\t// in\ntag_11:\n  pop\n    /* \"contracts/MyNFT/ERC721.sol\":1353:1469  constructor(string memory name_, string memory symbol_) {... */\n  pop\n  pop\n    /* \"contracts/MyNFT/Ownable.sol\":1328:1329  0 */\n  0x00\n    /* \"contracts/MyNFT/Ownable.sol\":1304:1330  initialOwner == address(0) */\n  0xffffffffffffffffffffffffffffffffffffffff\n  and\n    /* \"contracts/MyNFT/Ownable.sol\":1304:1316  initialOwner */\n  dup2\n    /* \"contracts/MyNFT/Ownable.sol\":1304:1330  initialOwner == address(0) */\n  0xffffffffffffffffffffffffffffffffffffffff\n  and\n  sub\n    /* \"contracts/MyNFT/Ownable.sol\":1300:1397  if (initialOwner == address(0)) {... */\n  tag_13\n  jumpi\n    /* \"contracts/MyNFT/Ownable.sol\":1382:1383  0 */\n  0x00\n    /* \"contracts/MyNFT/Ownable.sol\":1354:1385  OwnableInvalidOwner(address(0)) */\n  mload(0x40)\n  0x1e4fbdf700000000000000000000000000000000000000000000000000000000\n  dup2\n  mstore\n  0x04\n  add\n  tag_14\n  swap2\n  swap1\n  tag_15\n  jump\t// in\ntag_14:\n  mload(0x40)\n  dup1\n  swap2\n  sub\n  swap1\n  revert\n    /* \"contracts/MyNFT/Ownable.sol\":1300:1397  if (initialOwner == address(0)) {... */\ntag_13:\n    /* \"contracts/MyNFT/Ownable.sol\":1407:1439  _transferOwnership(initialOwner) */\n  tag_16\n    /* \"contracts/MyNFT/Ownable.sol\":1426:1438  initialOwner */\n  dup2\n    /* \"contracts/MyNFT/Ownable.sol\":1407:1425  _transferOwnership */\n  shl(0x20, tag_17)\n    /* \"contracts/MyNFT/Ownable.sol\":1407:1439  _transferOwnership(initialOwner) */\n  0x20\n  shr\n  jump\t// in\ntag_16:\n    /* \"contracts/MyNFT/Ownable.sol\":1255:1447  constructor(address initialOwner) {... */\n  pop\n    /* \"contracts/MyNFT/Pausable.sol\":1277:1282  false */\n  0x00\n    /* \"contracts/MyNFT/Pausable.sol\":1267:1274  _paused */\n  0x0a\n  0x14\n    /* \"contracts/MyNFT/Pausable.sol\":1267:1282  _paused = false */\n  0x0100\n  exp\n  dup2\n  sload\n  dup2\n  0xff\n  mul\n  not\n  and\n  swap1\n  dup4\n  iszero\n  iszero\n  mul\n  or\n  swap1\n  sstore\n  pop\n    /* \"contracts/MyNFT/PudgyPenguins.sol\":425:521  constructor(address initialOwner) ERC721(\"Credit-Tiger\", \"CTT\") Ownable(initialOwner) {... */\n  pop\n    /* \"contracts/MyNFT/PudgyPenguins.sol\":293:1253  contract CreditTiger is  ERC721Enumerable,Ownable, ERC721Burnable, ERC721Pausable {... */\n  jump(tag_20)\n    /* \"contracts/MyNFT/Ownable.sol\":2999:3190  function _transferOwnership(address newOwner) internal virtual {... */\ntag_17:\n    /* \"contracts/MyNFT/Ownable.sol\":3073:3089  address oldOwner */\n  0x00\n    /* \"contracts/MyNFT/Ownable.sol\":3092:3098  _owner */\n  0x0a\n  0x00\n  swap1\n  sload\n  swap1\n  0x0100\n  exp\n  swap1\n  div\n  0xffffffffffffffffffffffffffffffffffffffff\n  and\n    /* \"contracts/MyNFT/Ownable.sol\":3073:3098  address oldOwner = _owner */\n  swap1\n  pop\n    /* \"contracts/MyNFT/Ownable.sol\":3118:3126  newOwner */\n  dup2\n    /* \"contracts/MyNFT/Ownable.sol\":3109:3115  _owner */\n  0x0a\n  0x00\n    /* \"contracts/MyNFT/Ownable.sol\":3109:3126  _owner = newOwner */\n  0x0100\n  exp\n  dup2\n  sload\n  dup2\n  0xffffffffffffffffffffffffffffffffffffffff\n  mul\n  not\n  and\n  swap1\n  dup4\n  0xffffffffffffffffffffffffffffffffffffffff\n  and\n  mul\n  or\n  swap1\n  sstore\n  pop\n    /* \"contracts/MyNFT/Ownable.sol\":3173:3181  newOwner */\n  dup2\n    /* \"contracts/MyNFT/Ownable.sol\":3142:3182  OwnershipTransferred(oldOwner, newOwner) */\n  0xffffffffffffffffffffffffffffffffffffffff\n  and\n    /* \"contracts/MyNFT/Ownable.sol\":3163:3171  oldOwner */\n  dup2\n    /* \"contracts/MyNFT/Ownable.sol\":3142:3182  OwnershipTransferred(oldOwner, newOwner) */\n  0xffffffffffffffffffffffffffffffffffffffff\n  and\n  0x8be0079c531659141344cd1fd0a4f28419497f9722a3daafe3b4186f6b6457e0\n  mload(0x40)\n  mload(0x40)\n  dup1\n  swap2\n  sub\n  swap1\n  log3\n    /* \"contracts/MyNFT/Ownable.sol\":3062:3190  {... */\n  pop\n    /* \"contracts/MyNFT/Ownable.sol\":2999:3190  function _transferOwnership(address newOwner) internal virtual {... */\n  pop\n  jump\t// out\n    /* \"#utility.yul\":88:205   */\ntag_23:\n    /* \"#utility.yul\":197:198   */\n  0x00\n    /* \"#utility.yul\":194:195   */\n  dup1\n    /* \"#utility.yul\":187:199   */\n  revert\n    /* \"#utility.yul\":334:460   */\ntag_25:\n    /* \"#utility.yul\":371:378   */\n  0x00\n    /* \"#utility.yul\":411:453   */\n  0xffffffffffffffffffffffffffffffffffffffff\n    /* \"#utility.yul\":404:409   */\n  dup3\n    /* \"#utility.yul\":400:454   */\n  and\n    /* \"#utility.yul\":389:454   */\n  swap1\n  pop\n    /* \"#utility.yul\":334:460   */\n  swap2\n  swap1\n  pop\n  jump\t// out\n    /* \"#utility.yul\":466:562   */\ntag_26:\n    /* \"#utility.yul\":503:510   */\n  0x00\n    /* \"#utility.yul\":532:556   */\n  tag_56\n    /* \"#utility.yul\":550:555   */\n  dup3\n    /* \"#utility.yul\":532:556   */\n  tag_25\n  jump\t// in\ntag_56:\n    /* \"#utility.yul\":521:556   */\n  swap1\n  pop\n    /* \"#utility.yul\":466:562   */\n  swap2\n  swap1\n  pop\n  jump\t// out\n    /* \"#utility.yul\":568:690   */\ntag_27:\n    /* \"#utility.yul\":641:665   */\n  tag_58\n    /* \"#utility.yul\":659:664   */\n  dup2\n    /* \"#utility.yul\":641:665   */\n  tag_26\n  jump\t// in\ntag_58:\n    /* \"#utility.yul\":634:639   */\n  dup2\n    /* \"#utility.yul\":631:666   */\n  eq\n    /* \"#utility.yul\":621:684   */\n  tag_59\n  jumpi\n    /* \"#utility.yul\":680:681   */\n  0x00\n    /* \"#utility.yul\":677:678   */\n  dup1\n    /* \"#utility.yul\":670:682   */\n  revert\n    /* \"#utility.yul\":621:684   */\ntag_59:\n    /* \"#utility.yul\":568:690   */\n  pop\n  jump\t// out\n    /* \"#utility.yul\":696:839   */\ntag_28:\n    /* \"#utility.yul\":753:758   */\n  0x00\n    /* \"#utility.yul\":784:790   */\n  dup2\n    /* \"#utility.yul\":778:791   */\n  mload\n    /* \"#utility.yul\":769:791   */\n  swap1\n  pop\n    /* \"#utility.yul\":800:833   */\n  tag_61\n    /* \"#utility.yul\":827:832   */\n  dup2\n    /* \"#utility.yul\":800:833   */\n  tag_27\n  jump\t// in\ntag_61:\n    /* \"#utility.yul\":696:839   */\n  swap3\n  swap2\n  pop\n  pop\n  jump\t// out\n    /* \"#utility.yul\":845:1196   */\ntag_3:\n    /* \"#utility.yul\":915:921   */\n  0x00\n    /* \"#utility.yul\":964:966   */\n  0x20\n    /* \"#utility.yul\":952:961   */\n  dup3\n    /* \"#utility.yul\":943:950   */\n  dup5\n    /* \"#utility.yul\":939:962   */\n  sub\n    /* \"#utility.yul\":935:967   */\n  slt\n    /* \"#utility.yul\":932:1051   */\n  iszero\n  tag_63\n  jumpi\n    /* \"#utility.yul\":970:1049   */\n  tag_64\n  tag_23\n  jump\t// in\ntag_64:\n    /* \"#utility.yul\":932:1051   */\ntag_63:\n    /* \"#utility.yul\":1090:1091   */\n  0x00\n    /* \"#utility.yul\":1115:1179   */\n  tag_65\n    /* \"#utility.yul\":1171:1178   */\n  dup5\n    /* \"#utility.yul\":1162:1168   */\n  dup3\n    /* \"#utility.yul\":1151:1160   */\n  dup6\n    /* \"#utility.yul\":1147:1169   */\n  add\n    /* \"#utility.yul\":1115:1179   */\n  tag_28\n  jump\t// in\ntag_65:\n    /* \"#utility.yul\":1105:1179   */\n  swap2\n  pop\n    /* \"#utility.yul\":1061:1189   */\n  pop\n    /* \"#utility.yul\":845:1196   */\n  swap3\n  swap2\n  pop\n  pop\n  jump\t// out\n    /* \"#utility.yul\":1202:1301   */\ntag_29:\n    /* \"#utility.yul\":1254:1260   */\n  0x00\n    /* \"#utility.yul\":1288:1293   */\n  dup2\n    /* \"#utility.yul\":1282:1294   */\n  mload\n    /* \"#utility.yul\":1272:1294   */\n  swap1\n  pop\n    /* \"#utility.yul\":1202:1301   */\n  swap2\n  swap1\n  pop\n  jump\t// out\n    /* \"#utility.yul\":1307:1487   */\ntag_30:\n    /* \"#utility.yul\":1355:1432   */\n  0x4e487b7100000000000000000000000000000000000000000000000000000000\n    /* \"#utility.yul\":1352:1353   */\n  0x00\n    /* \"#utility.yul\":1345:1433   */\n  mstore\n    /* \"#utility.yul\":1452:1456   */\n  0x41\n    /* \"#utility.yul\":1449:1450   */\n  0x04\n    /* \"#utility.yul\":1442:1457   */\n  mstore\n    /* \"#utility.yul\":1476:1480   */\n  0x24\n    /* \"#utility.yul\":1473:1474   */\n  0x00\n    /* \"#utility.yul\":1466:1481   */\n  revert\n    /* \"#utility.yul\":1493:1673   */\ntag_31:\n    /* \"#utility.yul\":1541:1618   */\n  0x4e487b7100000000000000000000000000000000000000000000000000000000\n    /* \"#utility.yul\":1538:1539   */\n  0x00\n    /* \"#utility.yul\":1531:1619   */\n  mstore\n    /* \"#utility.yul\":1638:1642   */\n  0x22\n    /* \"#utility.yul\":1635:1636   */\n  0x04\n    /* \"#utility.yul\":1628:1643   */\n  mstore\n    /* \"#utility.yul\":1662:1666   */\n  0x24\n    /* \"#utility.yul\":1659:1660   */\n  0x00\n    /* \"#utility.yul\":1652:1667   */\n  revert\n    /* \"#utility.yul\":1679:1999   */\ntag_32:\n    /* \"#utility.yul\":1723:1729   */\n  0x00\n    /* \"#utility.yul\":1760:1761   */\n  0x02\n    /* \"#utility.yul\":1754:1758   */\n  dup3\n    /* \"#utility.yul\":1750:1762   */\n  div\n    /* \"#utility.yul\":1740:1762   */\n  swap1\n  pop\n    /* \"#utility.yul\":1807:1808   */\n  0x01\n    /* \"#utility.yul\":1801:1805   */\n  dup3\n    /* \"#utility.yul\":1797:1809   */\n  and\n    /* \"#utility.yul\":1828:1846   */\n  dup1\n    /* \"#utility.yul\":1818:1899   */\n  tag_70\n  jumpi\n    /* \"#utility.yul\":1884:1888   */\n  0x7f\n    /* \"#utility.yul\":1876:1882   */\n  dup3\n    /* \"#utility.yul\":1872:1889   */\n  and\n    /* \"#utility.yul\":1862:1889   */\n  swap2\n  pop\n    /* \"#utility.yul\":1818:1899   */\ntag_70:\n    /* \"#utility.yul\":1946:1948   */\n  0x20\n    /* \"#utility.yul\":1938:1944   */\n  dup3\n    /* \"#utility.yul\":1935:1949   */\n  lt\n    /* \"#utility.yul\":1915:1933   */\n  dup2\n    /* \"#utility.yul\":1912:1950   */\n  sub\n    /* \"#utility.yul\":1909:1993   */\n  tag_71\n  jumpi\n    /* \"#utility.yul\":1965:1983   */\n  tag_72\n  tag_31\n  jump\t// in\ntag_72:\n    /* \"#utility.yul\":1909:1993   */\ntag_71:\n    /* \"#utility.yul\":1730:1999   */\n  pop\n    /* \"#utility.yul\":1679:1999   */\n  swap2\n  swap1\n  pop\n  jump\t// out\n    /* \"#utility.yul\":2005:2146   */\ntag_33:\n    /* \"#utility.yul\":2054:2058   */\n  0x00\n    /* \"#utility.yul\":2077:2080   */\n  dup2\n    /* \"#utility.yul\":2069:2080   */\n  swap1\n  pop\n    /* \"#utility.yul\":2100:2103   */\n  dup2\n    /* \"#utility.yul\":2097:2098   */\n  0x00\n    /* \"#utility.yul\":2090:2104   */\n  mstore\n    /* \"#utility.yul\":2134:2138   */\n  0x20\n    /* \"#utility.yul\":2131:2132   */\n  0x00\n    /* \"#utility.yul\":2121:2139   */\n  keccak256\n    /* \"#utility.yul\":2113:2139   */\n  swap1\n  pop\n    /* \"#utility.yul\":2005:2146   */\n  swap2\n  swap1\n  pop\n  jump\t// out\n    /* \"#utility.yul\":2152:2245   */\ntag_34:\n    /* \"#utility.yul\":2189:2195   */\n  0x00\n    /* \"#utility.yul\":2236:2238   */\n  0x20\n    /* \"#utility.yul\":2231:2233   */\n  0x1f\n    /* \"#utility.yul\":2224:2229   */\n  dup4\n    /* \"#utility.yul\":2220:2234   */\n  add\n    /* \"#utility.yul\":2216:2239   */\n  div\n    /* \"#utility.yul\":2206:2239   */\n  swap1\n  pop\n    /* \"#utility.yul\":2152:2245   */\n  swap2\n  swap1\n  pop\n  jump\t// out\n    /* \"#utility.yul\":2251:2358   */\ntag_35:\n    /* \"#utility.yul\":2295:2303   */\n  0x00\n    /* \"#utility.yul\":2345:2350   */\n  dup3\n    /* \"#utility.yul\":2339:2343   */\n  dup3\n    /* \"#utility.yul\":2335:2351   */\n  shl\n    /* \"#utility.yul\":2314:2351   */\n  swap1\n  pop\n    /* \"#utility.yul\":2251:2358   */\n  swap3\n  swap2\n  pop\n  pop\n  jump\t// out\n    /* \"#utility.yul\":2364:2757   */\ntag_36:\n    /* \"#utility.yul\":2433:2439   */\n  0x00\n    /* \"#utility.yul\":2483:2484   */\n  0x08\n    /* \"#utility.yul\":2471:2481   */\n  dup4\n    /* \"#utility.yul\":2467:2485   */\n  mul\n    /* \"#utility.yul\":2506:2603   */\n  tag_77\n    /* \"#utility.yul\":2536:2602   */\n  0xffffffffffffffffffffffffffffffffffffffffffffffffffffffffffffffff\n    /* \"#utility.yul\":2525:2534   */\n  dup3\n    /* \"#utility.yul\":2506:2603   */\n  tag_35\n  jump\t// in\ntag_77:\n    /* \"#utility.yul\":2624:2663   */\n  tag_78\n    /* \"#utility.yul\":2654:2662   */\n  dup7\n    /* \"#utility.yul\":2643:2652   */\n  dup4\n    /* \"#utility.yul\":2624:2663   */\n  tag_35\n  jump\t// in\ntag_78:\n    /* \"#utility.yul\":2612:2663   */\n  swap6\n  pop\n    /* \"#utility.yul\":2696:2700   */\n  dup1\n    /* \"#utility.yul\":2692:2701   */\n  not\n    /* \"#utility.yul\":2685:2690   */\n  dup5\n    /* \"#utility.yul\":2681:2702   */\n  and\n    /* \"#utility.yul\":2672:2702   */\n  swap4\n  pop\n    /* \"#utility.yul\":2745:2749   */\n  dup1\n    /* \"#utility.yul\":2735:2743   */\n  dup7\n    /* \"#utility.yul\":2731:2750   */\n  and\n    /* \"#utility.yul\":2724:2729   */\n  dup5\n    /* \"#utility.yul\":2721:2751   */\n  or\n    /* \"#utility.yul\":2711:2751   */\n  swap3\n  pop\n    /* \"#utility.yul\":2440:2757   */\n  pop\n  pop\n    /* \"#utility.yul\":2364:2757   */\n  swap4\n  swap3\n  pop\n  pop\n  pop\n  jump\t// out\n    /* \"#utility.yul\":2763:2840   */\ntag_37:\n    /* \"#utility.yul\":2800:2807   */\n  0x00\n    /* \"#utility.yul\":2829:2834   */\n  dup2\n    /* \"#utility.yul\":2818:2834   */\n  swap1\n  pop\n    /* \"#utility.yul\":2763:2840   */\n  swap2\n  swap1\n  pop\n  jump\t// out\n    /* \"#utility.yul\":2846:2906   */\ntag_38:\n    /* \"#utility.yul\":2874:2877   */\n  0x00\n    /* \"#utility.yul\":2895:2900   */\n  dup2\n    /* \"#utility.yul\":2888:2900   */\n  swap1\n  pop\n    /* \"#utility.yul\":2846:2906   */\n  swap2\n  swap1\n  pop\n  jump\t// out\n    /* \"#utility.yul\":2912:3054   */\ntag_39:\n    /* \"#utility.yul\":2962:2971   */\n  0x00\n    /* \"#utility.yul\":2995:3048   */\n  tag_82\n    /* \"#utility.yul\":3013:3047   */\n  tag_83\n    /* \"#utility.yul\":3022:3046   */\n  tag_84\n    /* \"#utility.yul\":3040:3045   */\n  dup5\n    /* \"#utility.yul\":3022:3046   */\n  tag_37\n  jump\t// in\ntag_84:\n    /* \"#utility.yul\":3013:3047   */\n  tag_38\n  jump\t// in\ntag_83:\n    /* \"#utility.yul\":2995:3048   */\n  tag_37\n  jump\t// in\ntag_82:\n    /* \"#utility.yul\":2982:3048   */\n  swap1\n  pop\n    /* \"#utility.yul\":2912:3054   */\n  swap2\n  swap1\n  pop\n  jump\t// out\n    /* \"#utility.yul\":3060:3135   */\ntag_40:\n    /* \"#utility.yul\":3103:3106   */\n  0x00\n    /* \"#utility.yul\":3124:3129   */\n  dup2\n    /* \"#utility.yul\":3117:3129   */\n  swap1\n  pop\n    /* \"#utility.yul\":3060:3135   */\n  swap2\n  swap1\n  pop\n  jump\t// out\n    /* \"#utility.yul\":3141:3410   */\ntag_41:\n    /* \"#utility.yul\":3251:3290   */\n  tag_87\n    /* \"#utility.yul\":3282:3289   */\n  dup4\n    /* \"#utility.yul\":3251:3290   */\n  tag_39\n  jump\t// in\ntag_87:\n    /* \"#utility.yul\":3312:3403   */\n  tag_88\n    /* \"#utility.yul\":3361:3402   */\n  tag_89\n    /* \"#utility.yul\":3385:3401   */\n  dup3\n    /* \"#utility.yul\":3361:3402   */\n  tag_40\n  jump\t// in\ntag_89:\n    /* \"#utility.yul\":3353:3359   */\n  dup5\n    /* \"#utility.yul\":3346:3350   */\n  dup5\n    /* \"#utility.yul\":3340:3351   */\n  sload\n    /* \"#utility.yul\":3312:3403   */\n  tag_36\n  jump\t// in\ntag_88:\n    /* \"#utility.yul\":3306:3310   */\n  dup3\n    /* \"#utility.yul\":3299:3404   */\n  sstore\n    /* \"#utility.yul\":3217:3410   */\n  pop\n    /* \"#utility.yul\":3141:3410   */\n  pop\n  pop\n  pop\n  jump\t// out\n    /* \"#utility.yul\":3416:3489   */\ntag_42:\n    /* \"#utility.yul\":3461:3464   */\n  0x00\n    /* \"#utility.yul\":3416:3489   */\n  swap1\n  jump\t// out\n    /* \"#utility.yul\":3495:3684   */\ntag_43:\n    /* \"#utility.yul\":3572:3604   */\n  tag_92\n  tag_42\n  jump\t// in\ntag_92:\n    /* \"#utility.yul\":3613:3678   */\n  tag_93\n    /* \"#utility.yul\":3671:3677   */\n  dup2\n    /* \"#utility.yul\":3663:3669   */\n  dup5\n    /* \"#utility.yul\":3657:3661   */\n  dup5\n    /* \"#utility.yul\":3613:3678   */\n  tag_41\n  jump\t// in\ntag_93:\n    /* \"#utility.yul\":3548:3684   */\n  pop\n    /* \"#utility.yul\":3495:3684   */\n  pop\n  pop\n  jump\t// out\n    /* \"#utility.yul\":3690:3876   */\ntag_44:\n    /* \"#utility.yul\":3750:3870   */\ntag_95:\n    /* \"#utility.yul\":3767:3770   */\n  dup2\n    /* \"#utility.yul\":3760:3765   */\n  dup2\n    /* \"#utility.yul\":3757:3771   */\n  lt\n    /* \"#utility.yul\":3750:3870   */\n  iszero\n  tag_97\n  jumpi\n    /* \"#utility.yul\":3821:3860   */\n  tag_98\n    /* \"#utility.yul\":3858:3859   */\n  0x00\n    /* \"#utility.yul\":3851:3856   */\n  dup3\n    /* \"#utility.yul\":3821:3860   */\n  tag_43\n  jump\t// in\ntag_98:\n    /* \"#utility.yul\":3794:3795   */\n  0x01\n    /* \"#utility.yul\":3787:3792   */\n  dup2\n    /* \"#utility.yul\":3783:3796   */\n  add\n    /* \"#utility.yul\":3774:3796   */\n  swap1\n  pop\n    /* \"#utility.yul\":3750:3870   */\n  jump(tag_95)\ntag_97:\n    /* \"#utility.yul\":3690:3876   */\n  pop\n  pop\n  jump\t// out\n    /* \"#utility.yul\":3882:4425   */\ntag_45:\n    /* \"#utility.yul\":3983:3985   */\n  0x1f\n    /* \"#utility.yul\":3978:3981   */\n  dup3\n    /* \"#utility.yul\":3975:3986   */\n  gt\n    /* \"#utility.yul\":3972:4418   */\n  iszero\n  tag_100\n  jumpi\n    /* \"#utility.yul\":4017:4055   */\n  tag_101\n    /* \"#utility.yul\":4049:4054   */\n  dup2\n    /* \"#utility.yul\":4017:4055   */\n  tag_33\n  jump\t// in\ntag_101:\n    /* \"#utility.yul\":4101:4130   */\n  tag_102\n    /* \"#utility.yul\":4119:4129   */\n  dup5\n    /* \"#utility.yul\":4101:4130   */\n  tag_34\n  jump\t// in\ntag_102:\n    /* \"#utility.yul\":4091:4099   */\n  dup2\n    /* \"#utility.yul\":4087:4131   */\n  add\n    /* \"#utility.yul\":4284:4286   */\n  0x20\n    /* \"#utility.yul\":4272:4282   */\n  dup6\n    /* \"#utility.yul\":4269:4287   */\n  lt\n    /* \"#utility.yul\":4266:4315   */\n  iszero\n  tag_103\n  jumpi\n    /* \"#utility.yul\":4305:4313   */\n  dup2\n    /* \"#utility.yul\":4290:4313   */\n  swap1\n  pop\n    /* \"#utility.yul\":4266:4315   */\ntag_103:\n    /* \"#utility.yul\":4328:4408   */\n  tag_104\n    /* \"#utility.yul\":4384:4406   */\n  tag_105\n    /* \"#utility.yul\":4402:4405   */\n  dup6\n    /* \"#utility.yul\":4384:4406   */\n  tag_34\n  jump\t// in\ntag_105:\n    /* \"#utility.yul\":4374:4382   */\n  dup4\n    /* \"#utility.yul\":4370:4407   */\n  add\n    /* \"#utility.yul\":4357:4368   */\n  dup3\n    /* \"#utility.yul\":4328:4408   */\n  tag_44\n  jump\t// in\ntag_104:\n    /* \"#utility.yul\":3987:4418   */\n  pop\n  pop\n    /* \"#utility.yul\":3972:4418   */\ntag_100:\n    /* \"#utility.yul\":3882:4425   */\n  pop\n  pop\n  pop\n  jump\t// out\n    /* \"#utility.yul\":4431:4548   */\ntag_46:\n    /* \"#utility.yul\":4485:4493   */\n  0x00\n    /* \"#utility.yul\":4535:4540   */\n  dup3\n    /* \"#utility.yul\":4529:4533   */\n  dup3\n    /* \"#utility.yul\":4525:4541   */\n  shr\n    /* \"#utility.yul\":4504:4541   */\n  swap1\n  pop\n    /* \"#utility.yul\":4431:4548   */\n  swap3\n  swap2\n  pop\n  pop\n  jump\t// out\n    /* \"#utility.yul\":4554:4723   */\ntag_47:\n    /* \"#utility.yul\":4598:4604   */\n  0x00\n    /* \"#utility.yul\":4631:4682   */\n  tag_108\n    /* \"#utility.yul\":4679:4680   */\n  0x00\n    /* \"#utility.yul\":4675:4681   */\n  not\n    /* \"#utility.yul\":4667:4672   */\n  dup5\n    /* \"#utility.yul\":4664:4665   */\n  0x08\n    /* \"#utility.yul\":4660:4673   */\n  mul\n    /* \"#utility.yul\":4631:4682   */\n  tag_46\n  jump\t// in\ntag_108:\n    /* \"#utility.yul\":4627:4683   */\n  not\n    /* \"#utility.yul\":4712:4716   */\n  dup1\n    /* \"#utility.yul\":4706:4710   */\n  dup4\n    /* \"#utility.yul\":4702:4717   */\n  and\n    /* \"#utility.yul\":4692:4717   */\n  swap2\n  pop\n    /* \"#utility.yul\":4605:4723   */\n  pop\n    /* \"#utility.yul\":4554:4723   */\n  swap3\n  swap2\n  pop\n  pop\n  jump\t// out\n    /* \"#utility.yul\":4728:5023   */\ntag_48:\n    /* \"#utility.yul\":4804:4808   */\n  0x00\n    /* \"#utility.yul\":4950:4979   */\n  tag_110\n    /* \"#utility.yul\":4975:4978   */\n  dup4\n    /* \"#utility.yul\":4969:4973   */\n  dup4\n    /* \"#utility.yul\":4950:4979   */\n  tag_47\n  jump\t// in\ntag_110:\n    /* \"#utility.yul\":4942:4979   */\n  swap2\n  pop\n    /* \"#utility.yul\":5012:5015   */\n  dup3\n    /* \"#utility.yul\":5009:5010   */\n  0x02\n    /* \"#utility.yul\":5005:5016   */\n  mul\n    /* \"#utility.yul\":4999:5003   */\n  dup3\n    /* \"#utility.yul\":4996:5017   */\n  or\n    /* \"#utility.yul\":4988:5017   */\n  swap1\n  pop\n    /* \"#utility.yul\":4728:5023   */\n  swap3\n  swap2\n  pop\n  pop\n  jump\t// out\n    /* \"#utility.yul\":5028:6423   */\ntag_10:\n    /* \"#utility.yul\":5145:5182   */\n  tag_112\n    /* \"#utility.yul\":5178:5181   */\n  dup3\n    /* \"#utility.yul\":5145:5182   */\n  tag_29\n  jump\t// in\ntag_112:\n    /* \"#utility.yul\":5247:5265   */\n  0xffffffffffffffff\n    /* \"#utility.yul\":5239:5245   */\n  dup2\n    /* \"#utility.yul\":5236:5266   */\n  gt\n    /* \"#utility.yul\":5233:5289   */\n  iszero\n  tag_113\n  jumpi\n    /* \"#utility.yul\":5269:5287   */\n  tag_114\n  tag_30\n  jump\t// in\ntag_114:\n    /* \"#utility.yul\":5233:5289   */\ntag_113:\n    /* \"#utility.yul\":5313:5351   */\n  tag_115\n    /* \"#utility.yul\":5345:5349   */\n  dup3\n    /* \"#utility.yul\":5339:5350   */\n  sload\n    /* \"#utility.yul\":5313:5351   */\n  tag_32\n  jump\t// in\ntag_115:\n    /* \"#utility.yul\":5398:5465   */\n  tag_116\n    /* \"#utility.yul\":5458:5464   */\n  dup3\n    /* \"#utility.yul\":5450:5456   */\n  dup3\n    /* \"#utility.yul\":5444:5448   */\n  dup6\n    /* \"#utility.yul\":5398:5465   */\n  tag_45\n  jump\t// in\ntag_116:\n    /* \"#utility.yul\":5492:5493   */\n  0x00\n    /* \"#utility.yul\":5516:5520   */\n  0x20\n    /* \"#utility.yul\":5503:5520   */\n  swap1\n  pop\n    /* \"#utility.yul\":5548:5550   */\n  0x1f\n    /* \"#utility.yul\":5540:5546   */\n  dup4\n    /* \"#utility.yul\":5537:5551   */\n  gt\n    /* \"#utility.yul\":5565:5566   */\n  0x01\n    /* \"#utility.yul\":5560:6178   */\n  dup2\n  eq\n  tag_118\n  jumpi\n    /* \"#utility.yul\":6222:6223   */\n  0x00\n    /* \"#utility.yul\":6239:6245   */\n  dup5\n    /* \"#utility.yul\":6236:6313   */\n  iszero\n  tag_119\n  jumpi\n    /* \"#utility.yul\":6288:6297   */\n  dup3\n    /* \"#utility.yul\":6283:6286   */\n  dup8\n    /* \"#utility.yul\":6279:6298   */\n  add\n    /* \"#utility.yul\":6273:6299   */\n  mload\n    /* \"#utility.yul\":6264:6299   */\n  swap1\n  pop\n    /* \"#utility.yul\":6236:6313   */\ntag_119:\n    /* \"#utility.yul\":6339:6406   */\n  tag_120\n    /* \"#utility.yul\":6399:6405   */\n  dup6\n    /* \"#utility.yul\":6392:6397   */\n  dup3\n    /* \"#utility.yul\":6339:6406   */\n  tag_48\n  jump\t// in\ntag_120:\n    /* \"#utility.yul\":6333:6337   */\n  dup7\n    /* \"#utility.yul\":6326:6407   */\n  sstore\n    /* \"#utility.yul\":6195:6417   */\n  pop\n    /* \"#utility.yul\":5530:6417   */\n  jump(tag_117)\n    /* \"#utility.yul\":5560:6178   */\ntag_118:\n    /* \"#utility.yul\":5612:5616   */\n  0x1f\n    /* \"#utility.yul\":5608:5617   */\n  not\n    /* \"#utility.yul\":5600:5606   */\n  dup5\n    /* \"#utility.yul\":5596:5618   */\n  and\n    /* \"#utility.yul\":5646:5683   */\n  tag_121\n    /* \"#utility.yul\":5678:5682   */\n  dup7\n    /* \"#utility.yul\":5646:5683   */\n  tag_33\n  jump\t// in\ntag_121:\n    /* \"#utility.yul\":5705:5706   */\n  0x00\n    /* \"#utility.yul\":5719:5927   */\ntag_122:\n    /* \"#utility.yul\":5733:5740   */\n  dup3\n    /* \"#utility.yul\":5730:5731   */\n  dup2\n    /* \"#utility.yul\":5727:5741   */\n  lt\n    /* \"#utility.yul\":5719:5927   */\n  iszero\n  tag_124\n  jumpi\n    /* \"#utility.yul\":5812:5821   */\n  dup5\n    /* \"#utility.yul\":5807:5810   */\n  dup10\n    /* \"#utility.yul\":5803:5822   */\n  add\n    /* \"#utility.yul\":5797:5823   */\n  mload\n    /* \"#utility.yul\":5789:5795   */\n  dup3\n    /* \"#utility.yul\":5782:5824   */\n  sstore\n    /* \"#utility.yul\":5863:5864   */\n  0x01\n    /* \"#utility.yul\":5855:5861   */\n  dup3\n    /* \"#utility.yul\":5851:5865   */\n  add\n    /* \"#utility.yul\":5841:5865   */\n  swap2\n  pop\n    /* \"#utility.yul\":5910:5912   */\n  0x20\n    /* \"#utility.yul\":5899:5908   */\n  dup6\n    /* \"#utility.yul\":5895:5913   */\n  add\n    /* \"#utility.yul\":5882:5913   */\n  swap5\n  pop\n    /* \"#utility.yul\":5756:5760   */\n  0x20\n    /* \"#utility.yul\":5753:5754   */\n  dup2\n    /* \"#utility.yul\":5749:5761   */\n  add\n    /* \"#utility.yul\":5744:5761   */\n  swap1\n  pop\n    /* \"#utility.yul\":5719:5927   */\n  jump(tag_122)\ntag_124:\n    /* \"#utility.yul\":5955:5961   */\n  dup7\n    /* \"#utility.yul\":5946:5953   */\n  dup4\n    /* \"#utility.yul\":5943:5962   */\n  lt\n    /* \"#utility.yul\":5940:6119   */\n  iszero\n  tag_125\n  jumpi\n    /* \"#utility.yul\":6013:6022   */\n  dup5\n    /* \"#utility.yul\":6008:6011   */\n  dup10\n    /* \"#utility.yul\":6004:6023   */\n  add\n    /* \"#utility.yul\":5998:6024   */\n  mload\n    /* \"#utility.yul\":6056:6104   */\n  tag_126\n    /* \"#utility.yul\":6098:6102   */\n  0x1f\n    /* \"#utility.yul\":6090:6096   */\n  dup10\n    /* \"#utility.yul\":6086:6103   */\n  and\n    /* \"#utility.yul\":6075:6084   */\n  dup3\n    /* \"#utility.yul\":6056:6104   */\n  tag_47\n  jump\t// in\ntag_126:\n    /* \"#utility.yul\":6048:6054   */\n  dup4\n    /* \"#utility.yul\":6041:6105   */\n  sstore\n    /* \"#utility.yul\":5963:6119   */\n  pop\n    /* \"#utility.yul\":5940:6119   */\ntag_125:\n    /* \"#utility.yul\":6165:6166   */\n  0x01\n    /* \"#utility.yul\":6161:6162   */\n  0x02\n    /* \"#utility.yul\":6153:6159   */\n  dup9\n    /* \"#utility.yul\":6149:6163   */\n  mul\n    /* \"#utility.yul\":6145:6167   */\n  add\n    /* \"#utility.yul\":6139:6143   */\n  dup9\n    /* \"#utility.yul\":6132:6168   */\n  sstore\n    /* \"#utility.yul\":5567:6178   */\n  pop\n  pop\n  pop\n    /* \"#utility.yul\":5530:6417   */\ntag_117:\n  pop\n    /* \"#utility.yul\":5120:6423   */\n  pop\n  pop\n  pop\n    /* \"#utility.yul\":5028:6423   */\n  pop\n  pop\n  jump\t// out\n    /* \"#utility.yul\":6429:6547   */\ntag_49:\n    /* \"#utility.yul\":6516:6540   */\n  tag_128\n    /* \"#utility.yul\":6534:6539   */\n  dup2\n    /* \"#utility.yul\":6516:6540   */\n  tag_26\n  jump\t// in\ntag_128:\n    /* \"#utility.yul\":6511:6514   */\n  dup3\n    /* \"#utility.yul\":6504:6541   */\n  mstore\n    /* \"#utility.yul\":6429:6547   */\n  pop\n  pop\n  jump\t// out\n    /* \"#utility.yul\":6553:6775   */\ntag_15:\n    /* \"#utility.yul\":6646:6650   */\n  0x00\n    /* \"#utility.yul\":6684:6686   */\n  0x20\n    /* \"#utility.yul\":6673:6682   */\n  dup3\n    /* \"#utility.yul\":6669:6687   */\n  add\n    /* \"#utility.yul\":6661:6687   */\n  swap1\n  pop\n    /* \"#utility.yul\":6697:6768   */\n  tag_130\n    /* \"#utility.yul\":6765:6766   */\n  0x00\n    /* \"#utility.yul\":6754:6763   */\n  dup4\n    /* \"#utility.yul\":6750:6767   */\n  add\n    /* \"#utility.yul\":6741:6747   */\n  dup5\n    /* \"#utility.yul\":6697:6768   */\n  tag_49\n  jump\t// in\ntag_130:\n    /* \"#utility.yul\":6553:6775   */\n  swap3\n  swap2\n  pop\n  pop\n  jump\t// out\n    /* \"contracts/MyNFT/PudgyPenguins.sol\":293:1253  contract CreditTiger is  ERC721Enumerable,Ownable, ERC721Burnable, ERC721Pausable {... */\ntag_20:\n  dataSize(sub_0)\n  dup1\n  dataOffset(sub_0)\n  0x00\n  codecopy\n  0x00\n  return\nstop\n\nsub_0: assembly {\n        /* \"contracts/MyNFT/PudgyPenguins.sol\":293:1253  contract CreditTiger is  ERC721Enumerable,Ownable, ERC721Burnable, ERC721Pausable {... */\n      mstore(0x40, 0x80)\n      callvalue\n      dup1\n      iszero\n      tag_1\n      jumpi\n      0x00\n      dup1\n      revert\n    tag_1:\n      pop\n      jumpi(tag_2, lt(calldatasize, 0x04))\n      shr(0xe0, calldataload(0x00))\n      dup1\n      0x6352211e\n      gt\n      tag_25\n      jumpi\n      dup1\n      0x95d89b41\n      gt\n      tag_26\n      jumpi\n      dup1\n      0x95d89b41\n      eq\n      tag_19\n      jumpi\n      dup1\n      0xa22cb465\n      eq\n      tag_20\n      jumpi\n      dup1\n      0xb88d4fde\n      eq\n      tag_21\n      jumpi\n      dup1\n      0xc87b56dd\n      eq\n      tag_22\n      jumpi\n      dup1\n      0xe985e9c5\n      eq\n      tag_23\n      jumpi\n      dup1\n      0xf2fde38b\n      eq\n      tag_24\n      jumpi\n      jump(tag_2)\n    tag_26:\n      dup1\n      0x6352211e\n      eq\n      tag_14\n      jumpi\n      dup1\n      0x6b59084d\n      eq\n      tag_15\n      jumpi\n      dup1\n      0x70a08231\n      eq\n      tag_16\n      jumpi\n      dup1\n      0x715018a6\n      eq\n      tag_17\n      jumpi\n      dup1\n      0x8da5cb5b\n      eq\n      tag_18\n      jumpi\n      jump(tag_2)\n    tag_25:\n      dup1\n      0x23b872dd\n      gt\n      tag_27\n      jumpi\n      dup1\n      0x23b872dd\n      eq\n      tag_8\n      jumpi\n      dup1\n      0x2f745c59\n      eq\n      tag_9\n      jumpi\n      dup1\n      0x42842e0e\n      eq\n      tag_10\n      jumpi\n      dup1\n      0x42966c68\n      eq\n      tag_11\n      jumpi\n      dup1\n      0x4f6ccce7\n      eq\n      tag_12\n      jumpi\n      dup1\n      0x5c975abb\n      eq\n      tag_13\n      jumpi\n      jump(tag_2)\n    tag_27:\n      dup1\n      0x01ffc9a7\n      eq\n      tag_3\n      jumpi\n      dup1\n      0x06fdde03\n      eq\n      tag_4\n      jumpi\n      dup1\n      0x081812fc\n      eq\n      tag_5\n      jumpi\n      dup1\n      0x095ea7b3\n      eq\n      tag_6\n      jumpi\n      dup1\n      0x18160ddd\n      eq\n      tag_7\n      jumpi\n    tag_2:\n      0x00\n      dup1\n      revert\n        /* \"contracts/MyNFT/PudgyPenguins.sol\":1066:1244  function supportsInterface(bytes4 interfaceId) public view virtual override(ERC721Enumerable,ERC721) returns (bool) {... */\n    tag_3:\n      tag_28\n      0x04\n      dup1\n      calldatasize\n      sub\n      dup2\n      add\n      swap1\n      tag_29\n      swap2\n      swap1\n      tag_30\n      jump\t// in\n    tag_29:\n      tag_31\n      jump\t// in\n    tag_28:\n      mload(0x40)\n      tag_32\n      swap2\n      swap1\n      tag_33\n      jump\t// in\n    tag_32:\n      mload(0x40)\n      dup1\n      swap2\n      sub\n      swap1\n      return\n        /* \"contracts/MyNFT/ERC721.sol\":2375:2466  function name() public view virtual returns (string memory) {... */\n    tag_4:\n      tag_34\n      tag_35\n      jump\t// in\n    tag_34:\n      mload(0x40)\n      tag_36\n      swap2\n      swap1\n      tag_37\n      jump\t// in\n    tag_36:\n      mload(0x40)\n      dup1\n      swap2\n      sub\n      swap1\n      return\n        /* \"contracts/MyNFT/ERC721.sol\":3547:3705  function getApproved(uint256 tokenId) public view virtual returns (address) {... */\n    tag_5:\n      tag_38\n      0x04\n      dup1\n      calldatasize\n      sub\n      dup2\n      add\n      swap1\n      tag_39\n      swap2\n      swap1\n      tag_40\n      jump\t// in\n    tag_39:\n      tag_41\n      jump\t// in\n    tag_38:\n      mload(0x40)\n      tag_42\n      swap2\n      swap1\n      tag_43\n      jump\t// in\n    tag_42:\n      mload(0x40)\n      dup1\n      swap2\n      sub\n      swap1\n      return\n        /* \"contracts/MyNFT/ERC721.sol\":3366:3481  function approve(address to, uint256 tokenId) public virtual {... */\n    tag_6:\n      tag_44\n      0x04\n      dup1\n      calldatasize\n      sub\n      dup2\n      add\n      swap1\n      tag_45\n      swap2\n      swap1\n      tag_46\n      jump\t// in\n    tag_45:\n      tag_47\n      jump\t// in\n    tag_44:\n      stop\n        /* \"contracts/MyNFT/ERC721Enumerable.sol\":2089:2193  function totalSupply() public view virtual returns (uint256) {... */\n    tag_7:\n      tag_48\n      tag_49\n      jump\t// in\n    tag_48:\n      mload(0x40)\n      tag_50\n      swap2\n      swap1\n      tag_51\n      jump\t// in\n    tag_50:\n      mload(0x40)\n      dup1\n      swap2\n      sub\n      swap1\n      return\n        /* \"contracts/MyNFT/ERC721.sol\":4216:4810  function transferFrom(address from, address to, uint256 tokenId) public virtual {... */\n    tag_8:\n      tag_52\n      0x04\n      dup1\n      calldatasize\n      sub\n      dup2\n      add\n      swap1\n      tag_53\n      swap2\n      swap1\n      tag_54\n      jump\t// in\n    tag_53:\n      tag_55\n      jump\t// in\n    tag_52:\n      stop\n        /* \"contracts/MyNFT/ERC721Enumerable.sol\":1753:2013  function tokenOfOwnerByIndex(address owner, uint256 index) public view virtual returns (uint256) {... */\n    tag_9:\n      tag_56\n      0x04\n      dup1\n      calldatasize\n      sub\n      dup2\n      add\n      swap1\n      tag_57\n      swap2\n      swap1\n      tag_46\n      jump\t// in\n    tag_57:\n      tag_58\n      jump\t// in\n    tag_56:\n      mload(0x40)\n      tag_59\n      swap2\n      swap1\n      tag_51\n      jump\t// in\n    tag_59:\n      mload(0x40)\n      dup1\n      swap2\n      sub\n      swap1\n      return\n        /* \"contracts/MyNFT/ERC721.sol\":4881:5015  function safeTransferFrom(address from, address to, uint256 tokenId) public {... */\n    tag_10:\n      tag_60\n      0x04\n      dup1\n      calldatasize\n      sub\n      dup2\n      add\n      swap1\n      tag_61\n      swap2\n      swap1\n      tag_54\n      jump\t// in\n    tag_61:\n      tag_62\n      jump\t// in\n    tag_60:\n      stop\n        /* \"contracts/MyNFT/ERC721Burnable.sol\":569:887  function burn(uint256 tokenId) public virtual {... */\n    tag_11:\n      tag_63\n      0x04\n      dup1\n      calldatasize\n      sub\n      dup2\n      add\n      swap1\n      tag_64\n      swap2\n      swap1\n      tag_40\n      jump\t// in\n    tag_64:\n      tag_65\n      jump\t// in\n    tag_63:\n      stop\n        /* \"contracts/MyNFT/ERC721Enumerable.sol\":2270:2501  function tokenByIndex(uint256 index) public view virtual returns (uint256) {... */\n    tag_12:\n      tag_66\n      0x04\n      dup1\n      calldatasize\n      sub\n      dup2\n      add\n      swap1\n      tag_67\n      swap2\n      swap1\n      tag_40\n      jump\t// in\n    tag_67:\n      tag_68\n      jump\t// in\n    tag_66:\n      mload(0x40)\n      tag_69\n      swap2\n      swap1\n      tag_51\n      jump\t// in\n    tag_69:\n      mload(0x40)\n      dup1\n      swap2\n      sub\n      swap1\n      return\n        /* \"contracts/MyNFT/Pausable.sol\":1916:2002  function paused() public view virtual returns (bool) {... */\n    tag_13:\n      tag_70\n      tag_71\n      jump\t// in\n    tag_70:\n      mload(0x40)\n      tag_72\n      swap2\n      swap1\n      tag_33\n      jump\t// in\n    tag_72:\n      mload(0x40)\n      dup1\n      swap2\n      sub\n      swap1\n      return\n        /* \"contracts/MyNFT/ERC721.sol\":2188:2308  function ownerOf(uint256 tokenId) public view virtual returns (address) {... */\n    tag_14:\n      tag_73\n      0x04\n      dup1\n      calldatasize\n      sub\n      dup2\n      add\n      swap1\n      tag_74\n      swap2\n      swap1\n      tag_40\n      jump\t// in\n    tag_74:\n      tag_75\n      jump\t// in\n    tag_73:\n      mload(0x40)\n      tag_76\n      swap2\n      swap1\n      tag_43\n      jump\t// in\n    tag_76:\n      mload(0x40)\n      dup1\n      swap2\n      sub\n      swap1\n      return\n        /* \"contracts/MyNFT/PudgyPenguins.sol\":905:1052  function test1() public  override(ERC721Enumerable,ERC721,ERC721Pausable)  {... */\n    tag_15:\n      tag_77\n      tag_78\n      jump\t// in\n    tag_77:\n      stop\n        /* \"contracts/MyNFT/ERC721.sol\":1910:2126  function balanceOf(address owner) public view virtual returns (uint256) {... */\n    tag_16:\n      tag_79\n      0x04\n      dup1\n      calldatasize\n      sub\n      dup2\n      add\n      swap1\n      tag_80\n      swap2\n      swap1\n      tag_81\n      jump\t// in\n    tag_80:\n      tag_82\n      jump\t// in\n    tag_79:\n      mload(0x40)\n      tag_83\n      swap2\n      swap1\n      tag_51\n      jump\t// in\n    tag_83:\n      mload(0x40)\n      dup1\n      swap2\n      sub\n      swap1\n      return\n        /* \"contracts/MyNFT/Ownable.sol\":2361:2464  function renounceOwnership() public virtual onlyOwner {... */\n    tag_17:\n      tag_84\n      tag_85\n      jump\t// in\n    tag_84:\n      stop\n        /* \"contracts/MyNFT/Ownable.sol\":1686:1773  function owner() public view virtual returns (address) {... */\n    tag_18:\n      tag_86\n      tag_87\n      jump\t// in\n    tag_86:\n      mload(0x40)\n      tag_88\n      swap2\n      swap1\n      tag_43\n      jump\t// in\n    tag_88:\n      mload(0x40)\n      dup1\n      swap2\n      sub\n      swap1\n      return\n        /* \"contracts/MyNFT/ERC721.sol\":2535:2630  function symbol() public view virtual returns (string memory) {... */\n    tag_19:\n      tag_89\n      tag_90\n      jump\t// in\n    tag_89:\n      mload(0x40)\n      tag_91\n      swap2\n      swap1\n      tag_37\n      jump\t// in\n    tag_91:\n      mload(0x40)\n      dup1\n      swap2\n      sub\n      swap1\n      return\n        /* \"contracts/MyNFT/ERC721.sol\":3777:3923  function setApprovalForAll(address operator, bool approved) public virtual {... */\n    tag_20:\n      tag_92\n      0x04\n      dup1\n      calldatasize\n      sub\n      dup2\n      add\n      swap1\n      tag_93\n      swap2\n      swap1\n      tag_94\n      jump\t// in\n    tag_93:\n      tag_95\n      jump\t// in\n    tag_92:\n      stop\n        /* \"contracts/MyNFT/ERC721.sol\":5086:5297  function safeTransferFrom(address from, address to, uint256 tokenId, bytes memory data) public virtual {... */\n    tag_21:\n      tag_96\n      0x04\n      dup1\n      calldatasize\n      sub\n      dup2\n      add\n      swap1\n      tag_97\n      swap2\n      swap1\n      tag_98\n      jump\t// in\n    tag_97:\n      tag_99\n      jump\t// in\n    tag_96:\n      stop\n        /* \"contracts/MyNFT/ERC721.sol\":2701:2961  function tokenURI(uint256 tokenId) public view virtual returns (string memory) {... */\n    tag_22:\n      tag_100\n      0x04\n      dup1\n      calldatasize\n      sub\n      dup2\n      add\n      swap1\n      tag_101\n      swap2\n      swap1\n      tag_40\n      jump\t// in\n    tag_101:\n      tag_102\n      jump\t// in\n    tag_100:\n      mload(0x40)\n      tag_103\n      swap2\n      swap1\n      tag_37\n      jump\t// in\n    tag_103:\n      mload(0x40)\n      dup1\n      swap2\n      sub\n      swap1\n      return\n        /* \"contracts/MyNFT/ERC721.sol\":3994:4149  function isApprovedForAll(address owner, address operator) public view virtual returns (bool) {... */\n    tag_23:\n      tag_104\n      0x04\n      dup1\n      calldatasize\n      sub\n      dup2\n      add\n      swap1\n      tag_105\n      swap2\n      swap1\n      tag_106\n      jump\t// in\n    tag_105:\n      tag_107\n      jump\t// in\n    tag_104:\n      mload(0x40)\n      tag_108\n      swap2\n      swap1\n      tag_33\n      jump\t// in\n    tag_108:\n      mload(0x40)\n      dup1\n      swap2\n      sub\n      swap1\n      return\n        /* \"contracts/MyNFT/Ownable.sol\":2619:2839  function transferOwnership(address newOwner) public virtual onlyOwner {... */\n    tag_24:\n      tag_109\n      0x04\n      dup1\n      calldatasize\n      sub\n      dup2\n      add\n      swap1\n      tag_110\n      swap2\n      swap1\n      tag_81\n      jump\t// in\n    tag_110:\n      tag_111\n      jump\t// in\n    tag_109:\n      stop\n        /* \"contracts/MyNFT/PudgyPenguins.sol\":1066:1244  function supportsInterface(bytes4 interfaceId) public view virtual override(ERC721Enumerable,ERC721) returns (bool) {... */\n    tag_31:\n        /* \"contracts/MyNFT/PudgyPenguins.sol\":1176:1180  bool */\n      0x00\n        /* \"contracts/MyNFT/PudgyPenguins.sol\":1200:1236  super.supportsInterface(interfaceId) */\n      tag_113\n        /* \"contracts/MyNFT/PudgyPenguins.sol\":1224:1235  interfaceId */\n      dup3\n        /* \"contracts/MyNFT/PudgyPenguins.sol\":1200:1223  super.supportsInterface */\n      tag_114\n        /* \"contracts/MyNFT/PudgyPenguins.sol\":1200:1236  super.supportsInterface(interfaceId) */\n      jump\t// in\n    tag_113:\n        /* \"contracts/MyNFT/PudgyPenguins.sol\":1193:1236  return super.supportsInterface(interfaceId) */\n      swap1\n      pop\n        /* \"contracts/MyNFT/PudgyPenguins.sol\":1066:1244  function supportsInterface(bytes4 interfaceId) public view virtual override(ERC721Enumerable,ERC721) returns (bool) {... */\n      swap2\n      swap1\n      pop\n      jump\t// out\n        /* \"contracts/MyNFT/ERC721.sol\":2375:2466  function name() public view virtual returns (string memory) {... */\n    tag_35:\n        /* \"contracts/MyNFT/ERC721.sol\":2420:2433  string memory */\n      0x60\n        /* \"contracts/MyNFT/ERC721.sol\":2453:2458  _name */\n      0x00\n        /* \"contracts/MyNFT/ERC721.sol\":2446:2458  return _name */\n      dup1\n      sload\n      tag_116\n      swap1\n      tag_117\n      jump\t// in\n    tag_116:\n      dup1\n      0x1f\n      add\n      0x20\n      dup1\n      swap2\n      div\n      mul\n      0x20\n      add\n      mload(0x40)\n      swap1\n      dup2\n      add\n      0x40\n      mstore\n      dup1\n      swap3\n      swap2\n      swap1\n      dup2\n      dup2\n      mstore\n      0x20\n      add\n      dup3\n      dup1\n      sload\n      tag_118\n      swap1\n      tag_117\n      jump\t// in\n    tag_118:\n      dup1\n      iszero\n      tag_119\n      jumpi\n      dup1\n      0x1f\n      lt\n      tag_120\n      jumpi\n      0x0100\n      dup1\n      dup4\n      sload\n      div\n      mul\n      dup4\n      mstore\n      swap2\n      0x20\n      add\n      swap2\n      jump(tag_119)\n    tag_120:\n      dup3\n      add\n      swap2\n      swap1\n      0x00\n      mstore\n      keccak256(0x00, 0x20)\n      swap1\n    tag_121:\n      dup2\n      sload\n      dup2\n      mstore\n      swap1\n      0x01\n      add\n      swap1\n      0x20\n      add\n      dup1\n      dup4\n      gt\n      tag_121\n      jumpi\n      dup3\n      swap1\n      sub\n      0x1f\n      and\n      dup3\n      add\n      swap2\n    tag_119:\n      pop\n      pop\n      pop\n      pop\n      pop\n      swap1\n      pop\n        /* \"contracts/MyNFT/ERC721.sol\":2375:2466  function name() public view virtual returns (string memory) {... */\n      swap1\n      jump\t// out\n        /* \"contracts/MyNFT/ERC721.sol\":3547:3705  function getApproved(uint256 tokenId) public view virtual returns (address) {... */\n    tag_41:\n        /* \"contracts/MyNFT/ERC721.sol\":3614:3621  address */\n      0x00\n        /* \"contracts/MyNFT/ERC721.sol\":3634:3656  _requireOwned(tokenId) */\n      tag_123\n        /* \"contracts/MyNFT/ERC721.sol\":3648:3655  tokenId */\n      dup3\n        /* \"contracts/MyNFT/ERC721.sol\":3634:3647  _requireOwned */\n      tag_124\n        /* \"contracts/MyNFT/ERC721.sol\":3634:3656  _requireOwned(tokenId) */\n      jump\t// in\n    tag_123:\n      pop\n        /* \"contracts/MyNFT/ERC721.sol\":3676:3697  _getApproved(tokenId) */\n      tag_125\n        /* \"contracts/MyNFT/ERC721.sol\":3689:3696  tokenId */\n      dup3\n        /* \"contracts/MyNFT/ERC721.sol\":3676:3688  _getApproved */\n      tag_126\n        /* \"contracts/MyNFT/ERC721.sol\":3676:3697  _getApproved(tokenId) */\n      jump\t// in\n    tag_125:\n        /* \"contracts/MyNFT/ERC721.sol\":3669:3697  return _getApproved(tokenId) */\n      swap1\n      pop\n        /* \"contracts/MyNFT/ERC721.sol\":3547:3705  function getApproved(uint256 tokenId) public view virtual returns (address) {... */\n      swap2\n      swap1\n      pop\n      jump\t// out\n        /* \"contracts/MyNFT/ERC721.sol\":3366:3481  function approve(address to, uint256 tokenId) public virtual {... */\n    tag_47:\n        /* \"contracts/MyNFT/ERC721.sol\":3438:3473  _approve(to, tokenId, _msgSender()) */\n      tag_128\n        /* \"contracts/MyNFT/ERC721.sol\":3447:3449  to */\n      dup3\n        /* \"contracts/MyNFT/ERC721.sol\":3451:3458  tokenId */\n      dup3\n        /* \"contracts/MyNFT/ERC721.sol\":3460:3472  _msgSender() */\n      tag_129\n        /* \"contracts/MyNFT/ERC721.sol\":3460:3470  _msgSender */\n      tag_130\n        /* \"contracts/MyNFT/ERC721.sol\":3460:3472  _msgSender() */\n      jump\t// in\n    tag_129:\n        /* \"contracts/MyNFT/ERC721.sol\":3438:3446  _approve */\n      tag_131\n        /* \"contracts/MyNFT/ERC721.sol\":3438:3473  _approve(to, tokenId, _msgSender()) */\n      jump\t// in\n    tag_128:\n        /* \"contracts/MyNFT/ERC721.sol\":3366:3481  function approve(address to, uint256 tokenId) public virtual {... */\n      pop\n      pop\n      jump\t// out\n        /* \"contracts/MyNFT/ERC721Enumerable.sol\":2089:2193  function totalSupply() public view virtual returns (uint256) {... */\n    tag_49:\n        /* \"contracts/MyNFT/ERC721Enumerable.sol\":2141:2148  uint256 */\n      0x00\n        /* \"contracts/MyNFT/ERC721Enumerable.sol\":2168:2178  _allTokens */\n      0x08\n        /* \"contracts/MyNFT/ERC721Enumerable.sol\":2168:2185  _allTokens.length */\n      dup1\n      sload\n      swap1\n      pop\n        /* \"contracts/MyNFT/ERC721Enumerable.sol\":2161:2185  return _allTokens.length */\n      swap1\n      pop\n        /* \"contracts/MyNFT/ERC721Enumerable.sol\":2089:2193  function totalSupply() public view virtual returns (uint256) {... */\n      swap1\n      jump\t// out\n        /* \"contracts/MyNFT/ERC721.sol\":4216:4810  function transferFrom(address from, address to, uint256 tokenId) public virtual {... */\n    tag_55:\n        /* \"contracts/MyNFT/ERC721.sol\":4620:4641  address previousOwner */\n      0x00\n        /* \"contracts/MyNFT/ERC721.sol\":4644:4678  _update(to, tokenId, _msgSender()) */\n      tag_135\n        /* \"contracts/MyNFT/ERC721.sol\":4652:4654  to */\n      dup4\n        /* \"contracts/MyNFT/ERC721.sol\":4656:4663  tokenId */\n      dup4\n        /* \"contracts/MyNFT/ERC721.sol\":4665:4677  _msgSender() */\n      tag_136\n        /* \"contracts/MyNFT/ERC721.sol\":4665:4675  _msgSender */\n      tag_130\n        /* \"contracts/MyNFT/ERC721.sol\":4665:4677  _msgSender() */\n      jump\t// in\n    tag_136:\n        /* \"contracts/MyNFT/ERC721.sol\":4644:4651  _update */\n      tag_137\n        /* \"contracts/MyNFT/ERC721.sol\":4644:4678  _update(to, tokenId, _msgSender()) */\n      jump\t// in\n    tag_135:\n        /* \"contracts/MyNFT/ERC721.sol\":4620:4678  address previousOwner = _update(to, tokenId, _msgSender()) */\n      swap1\n      pop\n        /* \"contracts/MyNFT/ERC721.sol\":4296:4810  {... */\n      pop\n        /* \"contracts/MyNFT/ERC721.sol\":4216:4810  function transferFrom(address from, address to, uint256 tokenId) public virtual {... */\n      pop\n      pop\n      pop\n      jump\t// out\n        /* \"contracts/MyNFT/ERC721Enumerable.sol\":1753:2013  function tokenOfOwnerByIndex(address owner, uint256 index) public view virtual returns (uint256) {... */\n    tag_58:\n        /* \"contracts/MyNFT/ERC721Enumerable.sol\":1841:1848  uint256 */\n      0x00\n        /* \"contracts/MyNFT/ERC721Enumerable.sol\":1874:1890  balanceOf(owner) */\n      tag_140\n        /* \"contracts/MyNFT/ERC721Enumerable.sol\":1884:1889  owner */\n      dup4\n        /* \"contracts/MyNFT/ERC721Enumerable.sol\":1874:1883  balanceOf */\n      tag_82\n        /* \"contracts/MyNFT/ERC721Enumerable.sol\":1874:1890  balanceOf(owner) */\n      jump\t// in\n    tag_140:\n        /* \"contracts/MyNFT/ERC721Enumerable.sol\":1865:1870  index */\n      dup3\n        /* \"contracts/MyNFT/ERC721Enumerable.sol\":1865:1890  index >= balanceOf(owner) */\n      lt\n        /* \"contracts/MyNFT/ERC721Enumerable.sol\":1861:1962  if (index >= balanceOf(owner)) {... */\n      tag_141\n      jumpi\n        /* \"contracts/MyNFT/ERC721Enumerable.sol\":1937:1942  owner */\n      dup3\n        /* \"contracts/MyNFT/ERC721Enumerable.sol\":1944:1949  index */\n      dup3\n        /* \"contracts/MyNFT/ERC721Enumerable.sol\":1914:1950  ERC721OutOfBoundsIndex(owner, index) */\n      mload(0x40)\n      0xa57d13dc00000000000000000000000000000000000000000000000000000000\n      dup2\n      mstore\n      0x04\n      add\n      tag_142\n      swap3\n      swap2\n      swap1\n      tag_143\n      jump\t// in\n    tag_142:\n      mload(0x40)\n      dup1\n      swap2\n      sub\n      swap1\n      revert\n        /* \"contracts/MyNFT/ERC721Enumerable.sol\":1861:1962  if (index >= balanceOf(owner)) {... */\n    tag_141:\n        /* \"contracts/MyNFT/ERC721Enumerable.sol\":1979:1991  _ownedTokens */\n      0x06\n        /* \"contracts/MyNFT/ERC721Enumerable.sol\":1979:1998  _ownedTokens[owner] */\n      0x00\n        /* \"contracts/MyNFT/ERC721Enumerable.sol\":1992:1997  owner */\n      dup5\n        /* \"contracts/MyNFT/ERC721Enumerable.sol\":1979:1998  _ownedTokens[owner] */\n      0xffffffffffffffffffffffffffffffffffffffff\n      and\n      0xffffffffffffffffffffffffffffffffffffffff\n      and\n      dup2\n      mstore\n      0x20\n      add\n      swap1\n      dup2\n      mstore\n      0x20\n      add\n      0x00\n      keccak256\n        /* \"contracts/MyNFT/ERC721Enumerable.sol\":1979:2005  _ownedTokens[owner][index] */\n      0x00\n        /* \"contracts/MyNFT/ERC721Enumerable.sol\":1999:2004  index */\n      dup4\n        /* \"contracts/MyNFT/ERC721Enumerable.sol\":1979:2005  _ownedTokens[owner][index] */\n      dup2\n      mstore\n      0x20\n      add\n      swap1\n      dup2\n      mstore\n      0x20\n      add\n      0x00\n      keccak256\n      sload\n        /* \"contracts/MyNFT/ERC721Enumerable.sol\":1972:2005  return _ownedTokens[owner][index] */\n      swap1\n      pop\n        /* \"contracts/MyNFT/ERC721Enumerable.sol\":1753:2013  function tokenOfOwnerByIndex(address owner, uint256 index) public view virtual returns (uint256) {... */\n      swap3\n      swap2\n      pop\n      pop\n      jump\t// out\n        /* \"contracts/MyNFT/ERC721.sol\":4881:5015  function safeTransferFrom(address from, address to, uint256 tokenId) public {... */\n    tag_62:\n        /* \"contracts/MyNFT/ERC721.sol\":4968:5007  safeTransferFrom(from, to, tokenId, \"\") */\n      tag_145\n        /* \"contracts/MyNFT/ERC721.sol\":4985:4989  from */\n      dup4\n        /* \"contracts/MyNFT/ERC721.sol\":4991:4993  to */\n      dup4\n        /* \"contracts/MyNFT/ERC721.sol\":4995:5002  tokenId */\n      dup4\n        /* \"contracts/MyNFT/ERC721.sol\":4968:5007  safeTransferFrom(from, to, tokenId, \"\") */\n      mload(0x40)\n      dup1\n      0x20\n      add\n      0x40\n      mstore\n      dup1\n      0x00\n      dup2\n      mstore\n      pop\n        /* \"contracts/MyNFT/ERC721.sol\":4968:4984  safeTransferFrom */\n      tag_99\n        /* \"contracts/MyNFT/ERC721.sol\":4968:5007  safeTransferFrom(from, to, tokenId, \"\") */\n      jump\t// in\n    tag_145:\n        /* \"contracts/MyNFT/ERC721.sol\":4881:5015  function safeTransferFrom(address from, address to, uint256 tokenId) public {... */\n      pop\n      pop\n      pop\n      jump\t// out\n        /* \"contracts/MyNFT/ERC721Burnable.sol\":569:887  function burn(uint256 tokenId) public virtual {... */\n    tag_65:\n        /* \"contracts/MyNFT/ERC721Burnable.sol\":837:879  _update(address(0), tokenId, _msgSender()) */\n      tag_147\n        /* \"contracts/MyNFT/ERC721Burnable.sol\":853:854  0 */\n      0x00\n        /* \"contracts/MyNFT/ERC721Burnable.sol\":857:864  tokenId */\n      dup3\n        /* \"contracts/MyNFT/ERC721Burnable.sol\":866:878  _msgSender() */\n      tag_148\n        /* \"contracts/MyNFT/ERC721Burnable.sol\":866:876  _msgSender */\n      tag_130\n        /* \"contracts/MyNFT/ERC721Burnable.sol\":866:878  _msgSender() */\n      jump\t// in\n    tag_148:\n        /* \"contracts/MyNFT/ERC721Burnable.sol\":837:844  _update */\n      tag_137\n        /* \"contracts/MyNFT/ERC721Burnable.sol\":837:879  _update(address(0), tokenId, _msgSender()) */\n      jump\t// in\n    tag_147:\n      pop\n        /* \"contracts/MyNFT/ERC721Burnable.sol\":569:887  function burn(uint256 tokenId) public virtual {... */\n      pop\n      jump\t// out\n        /* \"contracts/MyNFT/ERC721Enumerable.sol\":2270:2501  function tokenByIndex(uint256 index) public view virtual returns (uint256) {... */\n    tag_68:\n        /* \"contracts/MyNFT/ERC721Enumerable.sol\":2336:2343  uint256 */\n      0x00\n        /* \"contracts/MyNFT/ERC721Enumerable.sol\":2369:2382  totalSupply() */\n      tag_150\n        /* \"contracts/MyNFT/ERC721Enumerable.sol\":2369:2380  totalSupply */\n      tag_49\n        /* \"contracts/MyNFT/ERC721Enumerable.sol\":2369:2382  totalSupply() */\n      jump\t// in\n    tag_150:\n        /* \"contracts/MyNFT/ERC721Enumerable.sol\":2360:2365  index */\n      dup3\n        /* \"contracts/MyNFT/ERC721Enumerable.sol\":2360:2382  index >= totalSupply() */\n      lt\n        /* \"contracts/MyNFT/ERC721Enumerable.sol\":2356:2459  if (index >= totalSupply()) {... */\n      tag_151\n      jumpi\n        /* \"contracts/MyNFT/ERC721Enumerable.sol\":2437:2438  0 */\n      0x00\n        /* \"contracts/MyNFT/ERC721Enumerable.sol\":2441:2446  index */\n      dup3\n        /* \"contracts/MyNFT/ERC721Enumerable.sol\":2406:2447  ERC721OutOfBoundsIndex(address(0), index) */\n      mload(0x40)\n      0xa57d13dc00000000000000000000000000000000000000000000000000000000\n      dup2\n      mstore\n      0x04\n      add\n      tag_152\n      swap3\n      swap2\n      swap1\n      tag_143\n      jump\t// in\n    tag_152:\n      mload(0x40)\n      dup1\n      swap2\n      sub\n      swap1\n      revert\n        /* \"contracts/MyNFT/ERC721Enumerable.sol\":2356:2459  if (index >= totalSupply()) {... */\n    tag_151:\n        /* \"contracts/MyNFT/ERC721Enumerable.sol\":2476:2486  _allTokens */\n      0x08\n        /* \"contracts/MyNFT/ERC721Enumerable.sol\":2487:2492  index */\n      dup3\n        /* \"contracts/MyNFT/ERC721Enumerable.sol\":2476:2493  _allTokens[index] */\n      dup2\n      sload\n      dup2\n      lt\n      tag_153\n      jumpi\n      tag_154\n      tag_155\n      jump\t// in\n    tag_154:\n    tag_153:\n      swap1\n      0x00\n      mstore\n      keccak256(0x00, 0x20)\n      add\n      sload\n        /* \"contracts/MyNFT/ERC721Enumerable.sol\":2469:2493  return _allTokens[index] */\n      swap1\n      pop\n        /* \"contracts/MyNFT/ERC721Enumerable.sol\":2270:2501  function tokenByIndex(uint256 index) public view virtual returns (uint256) {... */\n      swap2\n      swap1\n      pop\n      jump\t// out\n        /* \"contracts/MyNFT/Pausable.sol\":1916:2002  function paused() public view virtual returns (bool) {... */\n    tag_71:\n        /* \"contracts/MyNFT/Pausable.sol\":1963:1967  bool */\n      0x00\n        /* \"contracts/MyNFT/Pausable.sol\":1987:1994  _paused */\n      0x0a\n      0x14\n      swap1\n      sload\n      swap1\n      0x0100\n      exp\n      swap1\n      div\n      0xff\n      and\n        /* \"contracts/MyNFT/Pausable.sol\":1980:1994  return _paused */\n      swap1\n      pop\n        /* \"contracts/MyNFT/Pausable.sol\":1916:2002  function paused() public view virtual returns (bool) {... */\n      swap1\n      jump\t// out\n        /* \"contracts/MyNFT/ERC721.sol\":2188:2308  function ownerOf(uint256 tokenId) public view virtual returns (address) {... */\n    tag_75:\n        /* \"contracts/MyNFT/ERC721.sol\":2251:2258  address */\n      0x00\n        /* \"contracts/MyNFT/ERC721.sol\":2278:2300  _requireOwned(tokenId) */\n      tag_159\n        /* \"contracts/MyNFT/ERC721.sol\":2292:2299  tokenId */\n      dup3\n        /* \"contracts/MyNFT/ERC721.sol\":2278:2291  _requireOwned */\n      tag_124\n        /* \"contracts/MyNFT/ERC721.sol\":2278:2300  _requireOwned(tokenId) */\n      jump\t// in\n    tag_159:\n        /* \"contracts/MyNFT/ERC721.sol\":2271:2300  return _requireOwned(tokenId) */\n      swap1\n      pop\n        /* \"contracts/MyNFT/ERC721.sol\":2188:2308  function ownerOf(uint256 tokenId) public view virtual returns (address) {... */\n      swap2\n      swap1\n      pop\n      jump\t// out\n        /* \"contracts/MyNFT/PudgyPenguins.sol\":905:1052  function test1() public  override(ERC721Enumerable,ERC721,ERC721Pausable)  {... */\n    tag_78:\n        /* \"contracts/MyNFT/PudgyPenguins.sol\":996:1020  Log(\"CreditTiger.test1\") */\n      0xcf34ef537ac33ee1ac626ca1587a0a7e8e51561e5514f8cb36afa1c5102b3bab\n      mload(0x40)\n      tag_161\n      swap1\n      tag_162\n      jump\t// in\n    tag_161:\n      mload(0x40)\n      dup1\n      swap2\n      sub\n      swap1\n      log1\n        /* \"contracts/MyNFT/PudgyPenguins.sol\":1031:1044  super.test1() */\n      tag_163\n        /* \"contracts/MyNFT/PudgyPenguins.sol\":1031:1042  super.test1 */\n      tag_164\n        /* \"contracts/MyNFT/PudgyPenguins.sol\":1031:1044  super.test1() */\n      jump\t// in\n    tag_163:\n        /* \"contracts/MyNFT/PudgyPenguins.sol\":905:1052  function test1() public  override(ERC721Enumerable,ERC721,ERC721Pausable)  {... */\n      jump\t// out\n        /* \"contracts/MyNFT/ERC721.sol\":1910:2126  function balanceOf(address owner) public view virtual returns (uint256) {... */\n    tag_82:\n        /* \"contracts/MyNFT/ERC721.sol\":1973:1980  uint256 */\n      0x00\n        /* \"contracts/MyNFT/ERC721.sol\":2102:2111  _balances */\n      0x03\n        /* \"contracts/MyNFT/ERC721.sol\":2102:2118  _balances[owner] */\n      0x00\n        /* \"contracts/MyNFT/ERC721.sol\":2112:2117  owner */\n      dup4\n        /* \"contracts/MyNFT/ERC721.sol\":2102:2118  _balances[owner] */\n      0xffffffffffffffffffffffffffffffffffffffff\n      and\n      0xffffffffffffffffffffffffffffffffffffffff\n      and\n      dup2\n      mstore\n      0x20\n      add\n      swap1\n      dup2\n      mstore\n      0x20\n      add\n      0x00\n      keccak256\n      sload\n        /* \"contracts/MyNFT/ERC721.sol\":2095:2118  return _balances[owner] */\n      swap1\n      pop\n        /* \"contracts/MyNFT/ERC721.sol\":1910:2126  function balanceOf(address owner) public view virtual returns (uint256) {... */\n      swap2\n      swap1\n      pop\n      jump\t// out\n        /* \"contracts/MyNFT/Ownable.sol\":2361:2464  function renounceOwnership() public virtual onlyOwner {... */\n    tag_85:\n        /* \"contracts/MyNFT/Ownable.sol\":1572:1585  _checkOwner() */\n      tag_168\n        /* \"contracts/MyNFT/Ownable.sol\":1572:1583  _checkOwner */\n      tag_169\n        /* \"contracts/MyNFT/Ownable.sol\":1572:1585  _checkOwner() */\n      jump\t// in\n    tag_168:\n        /* \"contracts/MyNFT/Ownable.sol\":2426:2456  _transferOwnership(address(0)) */\n      tag_171\n        /* \"contracts/MyNFT/Ownable.sol\":2453:2454  0 */\n      0x00\n        /* \"contracts/MyNFT/Ownable.sol\":2426:2444  _transferOwnership */\n      tag_172\n        /* \"contracts/MyNFT/Ownable.sol\":2426:2456  _transferOwnership(address(0)) */\n      jump\t// in\n    tag_171:\n        /* \"contracts/MyNFT/Ownable.sol\":2361:2464  function renounceOwnership() public virtual onlyOwner {... */\n      jump\t// out\n        /* \"contracts/MyNFT/Ownable.sol\":1686:1773  function owner() public view virtual returns (address) {... */\n    tag_87:\n        /* \"contracts/MyNFT/Ownable.sol\":1732:1739  address */\n      0x00\n        /* \"contracts/MyNFT/Ownable.sol\":1759:1765  _owner */\n      0x0a\n      0x00\n      swap1\n      sload\n      swap1\n      0x0100\n      exp\n      swap1\n      div\n      0xffffffffffffffffffffffffffffffffffffffff\n      and\n        /* \"contracts/MyNFT/Ownable.sol\":1752:1765  return _owner */\n      swap1\n      pop\n        /* \"contracts/MyNFT/Ownable.sol\":1686:1773  function owner() public view virtual returns (address) {... */\n      swap1\n      jump\t// out\n        /* \"contracts/MyNFT/ERC721.sol\":2535:2630  function symbol() public view virtual returns (string memory) {... */\n    tag_90:\n        /* \"contracts/MyNFT/ERC721.sol\":2582:2595  string memory */\n      0x60\n        /* \"contracts/MyNFT/ERC721.sol\":2615:2622  _symbol */\n      0x01\n        /* \"contracts/MyNFT/ERC721.sol\":2608:2622  return _symbol */\n      dup1\n      sload\n      tag_175\n      swap1\n      tag_117\n      jump\t// in\n    tag_175:\n      dup1\n      0x1f\n      add\n      0x20\n      dup1\n      swap2\n      div\n      mul\n      0x20\n      add\n      mload(0x40)\n      swap1\n      dup2\n      add\n      0x40\n      mstore\n      dup1\n      swap3\n      swap2\n      swap1\n      dup2\n      dup2\n      mstore\n      0x20\n      add\n      dup3\n      dup1\n      sload\n      tag_176\n      swap1\n      tag_117\n      jump\t// in\n    tag_176:\n      dup1\n      iszero\n      tag_177\n      jumpi\n      dup1\n      0x1f\n      lt\n      tag_178\n      jumpi\n      0x0100\n      dup1\n      dup4\n      sload\n      div\n      mul\n      dup4\n      mstore\n      swap2\n      0x20\n      add\n      swap2\n      jump(tag_177)\n    tag_178:\n      dup3\n      add\n      swap2\n      swap1\n      0x00\n      mstore\n      keccak256(0x00, 0x20)\n      swap1\n    tag_179:\n      dup2\n      sload\n      dup2\n      mstore\n      swap1\n      0x01\n      add\n      swap1\n      0x20\n      add\n      dup1\n      dup4\n      gt\n      tag_179\n      jumpi\n      dup3\n      swap1\n      sub\n      0x1f\n      and\n      dup3\n      add\n      swap2\n    tag_177:\n      pop\n      pop\n      pop\n      pop\n      pop\n      swap1\n      pop\n        /* \"contracts/MyNFT/ERC721.sol\":2535:2630  function symbol() public view virtual returns (string memory) {... */\n      swap1\n      jump\t// out\n        /* \"contracts/MyNFT/ERC721.sol\":3777:3923  function setApprovalForAll(address operator, bool approved) public virtual {... */\n    tag_95:\n        /* \"contracts/MyNFT/ERC721.sol\":3863:3915  _setApprovalForAll(_msgSender(), operator, approved) */\n      tag_181\n        /* \"contracts/MyNFT/ERC721.sol\":3882:3894  _msgSender() */\n      tag_182\n        /* \"contracts/MyNFT/ERC721.sol\":3882:3892  _msgSender */\n      tag_130\n        /* \"contracts/MyNFT/ERC721.sol\":3882:3894  _msgSender() */\n      jump\t// in\n    tag_182:\n        /* \"contracts/MyNFT/ERC721.sol\":3896:3904  operator */\n      dup4\n        /* \"contracts/MyNFT/ERC721.sol\":3906:3914  approved */\n      dup4\n        /* \"contracts/MyNFT/ERC721.sol\":3863:3881  _setApprovalForAll */\n      tag_183\n        /* \"contracts/MyNFT/ERC721.sol\":3863:3915  _setApprovalForAll(_msgSender(), operator, approved) */\n      jump\t// in\n    tag_181:\n        /* \"contracts/MyNFT/ERC721.sol\":3777:3923  function setApprovalForAll(address operator, bool approved) public virtual {... */\n      pop\n      pop\n      jump\t// out\n        /* \"contracts/MyNFT/ERC721.sol\":5086:5297  function safeTransferFrom(address from, address to, uint256 tokenId, bytes memory data) public virtual {... */\n    tag_99:\n        /* \"contracts/MyNFT/ERC721.sol\":5200:5231  transferFrom(from, to, tokenId) */\n      tag_185\n        /* \"contracts/MyNFT/ERC721.sol\":5213:5217  from */\n      dup5\n        /* \"contracts/MyNFT/ERC721.sol\":5219:5221  to */\n      dup5\n        /* \"contracts/MyNFT/ERC721.sol\":5223:5230  tokenId */\n      dup5\n        /* \"contracts/MyNFT/ERC721.sol\":5200:5212  transferFrom */\n      tag_55\n        /* \"contracts/MyNFT/ERC721.sol\":5200:5231  transferFrom(from, to, tokenId) */\n      jump\t// in\n    tag_185:\n        /* \"contracts/MyNFT/ERC721.sol\":5242:5289  _checkOnERC721Received(from, to, tokenId, data) */\n      tag_186\n        /* \"contracts/MyNFT/ERC721.sol\":5265:5269  from */\n      dup5\n        /* \"contracts/MyNFT/ERC721.sol\":5271:5273  to */\n      dup5\n        /* \"contracts/MyNFT/ERC721.sol\":5275:5282  tokenId */\n      dup5\n        /* \"contracts/MyNFT/ERC721.sol\":5284:5288  data */\n      dup5\n        /* \"contracts/MyNFT/ERC721.sol\":5242:5264  _checkOnERC721Received */\n      tag_187\n        /* \"contracts/MyNFT/ERC721.sol\":5242:5289  _checkOnERC721Received(from, to, tokenId, data) */\n      jump\t// in\n    tag_186:\n        /* \"contracts/MyNFT/ERC721.sol\":5086:5297  function safeTransferFrom(address from, address to, uint256 tokenId, bytes memory data) public virtual {... */\n      pop\n      pop\n      pop\n      pop\n      jump\t// out\n        /* \"contracts/MyNFT/ERC721.sol\":2701:2961  function tokenURI(uint256 tokenId) public view virtual returns (string memory) {... */\n    tag_102:\n        /* \"contracts/MyNFT/ERC721.sol\":2765:2778  string memory */\n      0x60\n        /* \"contracts/MyNFT/ERC721.sol\":2791:2813  _requireOwned(tokenId) */\n      tag_189\n        /* \"contracts/MyNFT/ERC721.sol\":2805:2812  tokenId */\n      dup3\n        /* \"contracts/MyNFT/ERC721.sol\":2791:2804  _requireOwned */\n      tag_124\n        /* \"contracts/MyNFT/ERC721.sol\":2791:2813  _requireOwned(tokenId) */\n      jump\t// in\n    tag_189:\n      pop\n        /* \"contracts/MyNFT/ERC721.sol\":2826:2847  string memory baseURI */\n      0x00\n        /* \"contracts/MyNFT/ERC721.sol\":2850:2860  _baseURI() */\n      tag_190\n        /* \"contracts/MyNFT/ERC721.sol\":2850:2858  _baseURI */\n      tag_191\n        /* \"contracts/MyNFT/ERC721.sol\":2850:2860  _baseURI() */\n      jump\t// in\n    tag_190:\n        /* \"contracts/MyNFT/ERC721.sol\":2826:2860  string memory baseURI = _baseURI() */\n      swap1\n      pop\n        /* \"contracts/MyNFT/ERC721.sol\":2902:2903  0 */\n      0x00\n        /* \"contracts/MyNFT/ERC721.sol\":2884:2891  baseURI */\n      dup2\n        /* \"contracts/MyNFT/ERC721.sol\":2878:2899  bytes(baseURI).length */\n      mload\n        /* \"contracts/MyNFT/ERC721.sol\":2878:2903  bytes(baseURI).length > 0 */\n      gt\n        /* \"contracts/MyNFT/ERC721.sol\":2878:2953  bytes(baseURI).length > 0 ? string.concat(baseURI, tokenId.toString()) : \"\" */\n      tag_192\n      jumpi\n      mload(0x40)\n      dup1\n      0x20\n      add\n      0x40\n      mstore\n      dup1\n      0x00\n      dup2\n      mstore\n      pop\n      jump(tag_193)\n    tag_192:\n        /* \"contracts/MyNFT/ERC721.sol\":2920:2927  baseURI */\n      dup1\n        /* \"contracts/MyNFT/ERC721.sol\":2929:2947  tokenId.toString() */\n      tag_194\n        /* \"contracts/MyNFT/ERC721.sol\":2929:2936  tokenId */\n      dup5\n        /* \"contracts/MyNFT/ERC721.sol\":2929:2945  tokenId.toString */\n      tag_195\n        /* \"contracts/MyNFT/ERC721.sol\":2929:2947  tokenId.toString() */\n      jump\t// in\n    tag_194:\n        /* \"contracts/MyNFT/ERC721.sol\":2906:2948  string.concat(baseURI, tokenId.toString()) */\n      add(0x20, mload(0x40))\n      tag_196\n      swap3\n      swap2\n      swap1\n      tag_197\n      jump\t// in\n    tag_196:\n      mload(0x40)\n      0x20\n      dup2\n      dup4\n      sub\n      sub\n      dup2\n      mstore\n      swap1\n      0x40\n      mstore\n        /* \"contracts/MyNFT/ERC721.sol\":2878:2953  bytes(baseURI).length > 0 ? string.concat(baseURI, tokenId.toString()) : \"\" */\n    tag_193:\n        /* \"contracts/MyNFT/ERC721.sol\":2871:2953  return bytes(baseURI).length > 0 ? string.concat(baseURI, tokenId.toString()) : \"\" */\n      swap2\n      pop\n      pop\n        /* \"contracts/MyNFT/ERC721.sol\":2701:2961  function tokenURI(uint256 tokenId) public view virtual returns (string memory) {... */\n      swap2\n      swap1\n      pop\n      jump\t// out\n        /* \"contracts/MyNFT/ERC721.sol\":3994:4149  function isApprovedForAll(address owner, address operator) public view virtual returns (bool) {... */\n    tag_107:\n        /* \"contracts/MyNFT/ERC721.sol\":4082:4086  bool */\n      0x00\n        /* \"contracts/MyNFT/ERC721.sol\":4106:4124  _operatorApprovals */\n      0x05\n        /* \"contracts/MyNFT/ERC721.sol\":4106:4131  _operatorApprovals[owner] */\n      0x00\n        /* \"contracts/MyNFT/ERC721.sol\":4125:4130  owner */\n      dup5\n        /* \"contracts/MyNFT/ERC721.sol\":4106:4131  _operatorApprovals[owner] */\n      0xffffffffffffffffffffffffffffffffffffffff\n      and\n      0xffffffffffffffffffffffffffffffffffffffff\n      and\n      dup2\n      mstore\n      0x20\n      add\n      swap1\n      dup2\n      mstore\n      0x20\n      add\n      0x00\n      keccak256\n        /* \"contracts/MyNFT/ERC721.sol\":4106:4141  _operatorApprovals[owner][operator] */\n      0x00\n        /* \"contracts/MyNFT/ERC721.sol\":4132:4140  operator */\n      dup4\n        /* \"contracts/MyNFT/ERC721.sol\":4106:4141  _operatorApprovals[owner][operator] */\n      0xffffffffffffffffffffffffffffffffffffffff\n      and\n      0xffffffffffffffffffffffffffffffffffffffff\n      and\n      dup2\n      mstore\n      0x20\n      add\n      swap1\n      dup2\n      mstore\n      0x20\n      add\n      0x00\n      keccak256\n      0x00\n      swap1\n      sload\n      swap1\n      0x0100\n      exp\n      swap1\n      div\n      0xff\n      and\n        /* \"contracts/MyNFT/ERC721.sol\":4099:4141  return _operatorApprovals[owner][operator] */\n      swap1\n      pop\n        /* \"contracts/MyNFT/ERC721.sol\":3994:4149  function isApprovedForAll(address owner, address operator) public view virtual returns (bool) {... */\n      swap3\n      swap2\n      pop\n      pop\n      jump\t// out\n        /* \"contracts/MyNFT/Ownable.sol\":2619:2839  function transferOwnership(address newOwner) public virtual onlyOwner {... */\n    tag_111:\n        /* \"contracts/MyNFT/Ownable.sol\":1572:1585  _checkOwner() */\n      tag_200\n        /* \"contracts/MyNFT/Ownable.sol\":1572:1583  _checkOwner */\n      tag_169\n        /* \"contracts/MyNFT/Ownable.sol\":1572:1585  _checkOwner() */\n      jump\t// in\n    tag_200:\n        /* \"contracts/MyNFT/Ownable.sol\":2724:2725  0 */\n      0x00\n        /* \"contracts/MyNFT/Ownable.sol\":2704:2726  newOwner == address(0) */\n      0xffffffffffffffffffffffffffffffffffffffff\n      and\n        /* \"contracts/MyNFT/Ownable.sol\":2704:2712  newOwner */\n      dup2\n        /* \"contracts/MyNFT/Ownable.sol\":2704:2726  newOwner == address(0) */\n      0xffffffffffffffffffffffffffffffffffffffff\n      and\n      sub\n        /* \"contracts/MyNFT/Ownable.sol\":2700:2793  if (newOwner == address(0)) {... */\n      tag_202\n      jumpi\n        /* \"contracts/MyNFT/Ownable.sol\":2778:2779  0 */\n      0x00\n        /* \"contracts/MyNFT/Ownable.sol\":2750:2781  OwnableInvalidOwner(address(0)) */\n      mload(0x40)\n      0x1e4fbdf700000000000000000000000000000000000000000000000000000000\n      dup2\n      mstore\n      0x04\n      add\n      tag_203\n      swap2\n      swap1\n      tag_43\n      jump\t// in\n    tag_203:\n      mload(0x40)\n      dup1\n      swap2\n      sub\n      swap1\n      revert\n        /* \"contracts/MyNFT/Ownable.sol\":2700:2793  if (newOwner == address(0)) {... */\n    tag_202:\n        /* \"contracts/MyNFT/Ownable.sol\":2803:2831  _transferOwnership(newOwner) */\n      tag_204\n        /* \"contracts/MyNFT/Ownable.sol\":2822:2830  newOwner */\n      dup2\n        /* \"contracts/MyNFT/Ownable.sol\":2803:2821  _transferOwnership */\n      tag_172\n        /* \"contracts/MyNFT/Ownable.sol\":2803:2831  _transferOwnership(newOwner) */\n      jump\t// in\n    tag_204:\n        /* \"contracts/MyNFT/Ownable.sol\":2619:2839  function transferOwnership(address newOwner) public virtual onlyOwner {... */\n      pop\n      jump\t// out\n        /* \"contracts/MyNFT/ERC721Enumerable.sol\":1445:1669  function supportsInterface(bytes4 interfaceId) public view virtual override(IERC165, ERC721) returns (bool) {... */\n    tag_114:\n        /* \"contracts/MyNFT/ERC721Enumerable.sol\":1547:1551  bool */\n      0x00\n        /* \"contracts/MyNFT/ERC721Enumerable.sol\":1586:1621  type(IERC721Enumerable).interfaceId */\n      0x780e9d6300000000000000000000000000000000000000000000000000000000\n        /* \"contracts/MyNFT/ERC721Enumerable.sol\":1571:1621  interfaceId == type(IERC721Enumerable).interfaceId */\n      not(0xffffffffffffffffffffffffffffffffffffffffffffffffffffffff)\n      and\n        /* \"contracts/MyNFT/ERC721Enumerable.sol\":1571:1582  interfaceId */\n      dup3\n        /* \"contracts/MyNFT/ERC721Enumerable.sol\":1571:1621  interfaceId == type(IERC721Enumerable).interfaceId */\n      not(0xffffffffffffffffffffffffffffffffffffffffffffffffffffffff)\n      and\n      eq\n        /* \"contracts/MyNFT/ERC721Enumerable.sol\":1571:1661  interfaceId == type(IERC721Enumerable).interfaceId || super.supportsInterface(interfaceId) */\n      dup1\n      tag_206\n      jumpi\n      pop\n        /* \"contracts/MyNFT/ERC721Enumerable.sol\":1625:1661  super.supportsInterface(interfaceId) */\n      tag_207\n        /* \"contracts/MyNFT/ERC721Enumerable.sol\":1649:1660  interfaceId */\n      dup3\n        /* \"contracts/MyNFT/ERC721Enumerable.sol\":1625:1648  super.supportsInterface */\n      tag_208\n        /* \"contracts/MyNFT/ERC721Enumerable.sol\":1625:1661  super.supportsInterface(interfaceId) */\n      jump\t// in\n    tag_207:\n        /* \"contracts/MyNFT/ERC721Enumerable.sol\":1571:1661  interfaceId == type(IERC721Enumerable).interfaceId || super.supportsInterface(interfaceId) */\n    tag_206:\n        /* \"contracts/MyNFT/ERC721Enumerable.sol\":1564:1661  return interfaceId == type(IERC721Enumerable).interfaceId || super.supportsInterface(interfaceId) */\n      swap1\n      pop\n        /* \"contracts/MyNFT/ERC721Enumerable.sol\":1445:1669  function supportsInterface(bytes4 interfaceId) public view virtual override(IERC165, ERC721) returns (bool) {... */\n      swap2\n      swap1\n      pop\n      jump\t// out\n        /* \"contracts/MyNFT/ERC721.sol\":16671:16921  function _requireOwned(uint256 tokenId) internal view returns (address) {... */\n    tag_124:\n        /* \"contracts/MyNFT/ERC721.sol\":16734:16741  address */\n      0x00\n        /* \"contracts/MyNFT/ERC721.sol\":16754:16767  address owner */\n      dup1\n        /* \"contracts/MyNFT/ERC721.sol\":16770:16787  _ownerOf(tokenId) */\n      tag_210\n        /* \"contracts/MyNFT/ERC721.sol\":16779:16786  tokenId */\n      dup4\n        /* \"contracts/MyNFT/ERC721.sol\":16770:16778  _ownerOf */\n      tag_211\n        /* \"contracts/MyNFT/ERC721.sol\":16770:16787  _ownerOf(tokenId) */\n      jump\t// in\n    tag_210:\n        /* \"contracts/MyNFT/ERC721.sol\":16754:16787  address owner = _ownerOf(tokenId) */\n      swap1\n      pop\n        /* \"contracts/MyNFT/ERC721.sol\":16908:16913  owner */\n      dup1\n        /* \"contracts/MyNFT/ERC721.sol\":16901:16913  return owner */\n      swap2\n      pop\n      pop\n        /* \"contracts/MyNFT/ERC721.sol\":16671:16921  function _requireOwned(uint256 tokenId) internal view returns (address) {... */\n      swap2\n      swap1\n      pop\n      jump\t// out\n        /* \"contracts/MyNFT/ERC721.sol\":6060:6189  function _getApproved(uint256 tokenId) internal view virtual returns (address) {... */\n    tag_126:\n        /* \"contracts/MyNFT/ERC721.sol\":6130:6137  address */\n      0x00\n        /* \"contracts/MyNFT/ERC721.sol\":6157:6172  _tokenApprovals */\n      0x04\n        /* \"contracts/MyNFT/ERC721.sol\":6157:6181  _tokenApprovals[tokenId] */\n      0x00\n        /* \"contracts/MyNFT/ERC721.sol\":6173:6180  tokenId */\n      dup4\n        /* \"contracts/MyNFT/ERC721.sol\":6157:6181  _tokenApprovals[tokenId] */\n      dup2\n      mstore\n      0x20\n      add\n      swap1\n      dup2\n      mstore\n      0x20\n      add\n      0x00\n      keccak256\n      0x00\n      swap1\n      sload\n      swap1\n      0x0100\n      exp\n      swap1\n      div\n      0xffffffffffffffffffffffffffffffffffffffff\n      and\n        /* \"contracts/MyNFT/ERC721.sol\":6150:6181  return _tokenApprovals[tokenId] */\n      swap1\n      pop\n        /* \"contracts/MyNFT/ERC721.sol\":6060:6189  function _getApproved(uint256 tokenId) internal view virtual returns (address) {... */\n      swap2\n      swap1\n      pop\n      jump\t// out\n        /* \"contracts/MyNFT/Context.sol\":672:770  function _msgSender() internal view virtual returns (address) {... */\n    tag_130:\n        /* \"contracts/MyNFT/Context.sol\":725:732  address */\n      0x00\n        /* \"contracts/MyNFT/Context.sol\":752:762  msg.sender */\n      caller\n        /* \"contracts/MyNFT/Context.sol\":745:762  return msg.sender */\n      swap1\n      pop\n        /* \"contracts/MyNFT/Context.sol\":672:770  function _msgSender() internal view virtual returns (address) {... */\n      swap1\n      jump\t// out\n        /* \"contracts/MyNFT/ERC721.sol\":14897:15019  function _approve(address to, uint256 tokenId, address auth) internal {... */\n    tag_131:\n        /* \"contracts/MyNFT/ERC721.sol\":14978:15011  _approve(to, tokenId, auth, true) */\n      tag_216\n        /* \"contracts/MyNFT/ERC721.sol\":14987:14989  to */\n      dup4\n        /* \"contracts/MyNFT/ERC721.sol\":14991:14998  tokenId */\n      dup4\n        /* \"contracts/MyNFT/ERC721.sol\":15000:15004  auth */\n      dup4\n        /* \"contracts/MyNFT/ERC721.sol\":15006:15010  true */\n      0x01\n        /* \"contracts/MyNFT/ERC721.sol\":14978:14986  _approve */\n      tag_217\n        /* \"contracts/MyNFT/ERC721.sol\":14978:15011  _approve(to, tokenId, auth, true) */\n      jump\t// in\n    tag_216:\n        /* \"contracts/MyNFT/ERC721.sol\":14897:15019  function _approve(address to, uint256 tokenId, address auth) internal {... */\n      pop\n      pop\n      pop\n      jump\t// out\n        /* \"contracts/MyNFT/PudgyPenguins.sol\":711:895  function _update(address to, uint256 tokenId, address auth) internal virtual override(ERC721Enumerable,ERC721,ERC721Pausable) returns (address) {... */\n    tag_137:\n        /* \"contracts/MyNFT/PudgyPenguins.sol\":846:853  address */\n      0x00\n        /* \"contracts/MyNFT/PudgyPenguins.sol\":711:895  function _update(address to, uint256 tokenId, address auth) internal virtual override(ERC721Enumerable,ERC721,ERC721Pausable) returns (address) {... */\n      swap4\n      swap3\n      pop\n      pop\n      pop\n      jump\t// out\n        /* \"contracts/MyNFT/ERC721Pausable.sol\":1354:1471  function test1() public override  virtual {... */\n    tag_164:\n        /* \"contracts/MyNFT/ERC721Pausable.sol\":1412:1439  Log(\"ERC721Pausable.test1\") */\n      0xcf34ef537ac33ee1ac626ca1587a0a7e8e51561e5514f8cb36afa1c5102b3bab\n      mload(0x40)\n      tag_220\n      swap1\n      tag_221\n      jump\t// in\n    tag_220:\n      mload(0x40)\n      dup1\n      swap2\n      sub\n      swap1\n      log1\n        /* \"contracts/MyNFT/ERC721Pausable.sol\":1450:1463  super.test1() */\n      tag_222\n        /* \"contracts/MyNFT/ERC721Pausable.sol\":1450:1461  super.test1 */\n      tag_223\n        /* \"contracts/MyNFT/ERC721Pausable.sol\":1450:1463  super.test1() */\n      jump\t// in\n    tag_222:\n        /* \"contracts/MyNFT/ERC721Pausable.sol\":1354:1471  function test1() public override  virtual {... */\n      jump\t// out\n        /* \"contracts/MyNFT/Ownable.sol\":1851:2017  function _checkOwner() internal view virtual {... */\n    tag_169:\n        /* \"contracts/MyNFT/Ownable.sol\":1922:1934  _msgSender() */\n      tag_225\n        /* \"contracts/MyNFT/Ownable.sol\":1922:1932  _msgSender */\n      tag_130\n        /* \"contracts/MyNFT/Ownable.sol\":1922:1934  _msgSender() */\n      jump\t// in\n    tag_225:\n        /* \"contracts/MyNFT/Ownable.sol\":1911:1934  owner() != _msgSender() */\n      0xffffffffffffffffffffffffffffffffffffffff\n      and\n        /* \"contracts/MyNFT/Ownable.sol\":1911:1918  owner() */\n      tag_226\n        /* \"contracts/MyNFT/Ownable.sol\":1911:1916  owner */\n      tag_87\n        /* \"contracts/MyNFT/Ownable.sol\":1911:1918  owner() */\n      jump\t// in\n    tag_226:\n        /* \"contracts/MyNFT/Ownable.sol\":1911:1934  owner() != _msgSender() */\n      0xffffffffffffffffffffffffffffffffffffffff\n      and\n      eq\n        /* \"contracts/MyNFT/Ownable.sol\":1907:2010  if (owner() != _msgSender()) {... */\n      tag_227\n      jumpi\n        /* \"contracts/MyNFT/Ownable.sol\":1985:1997  _msgSender() */\n      tag_228\n        /* \"contracts/MyNFT/Ownable.sol\":1985:1995  _msgSender */\n      tag_130\n        /* \"contracts/MyNFT/Ownable.sol\":1985:1997  _msgSender() */\n      jump\t// in\n    tag_228:\n        /* \"contracts/MyNFT/Ownable.sol\":1958:1998  OwnableUnauthorizedAccount(_msgSender()) */\n      mload(0x40)\n      0x118cdaa700000000000000000000000000000000000000000000000000000000\n      dup2\n      mstore\n      0x04\n      add\n      tag_229\n      swap2\n      swap1\n      tag_43\n      jump\t// in\n    tag_229:\n      mload(0x40)\n      dup1\n      swap2\n      sub\n      swap1\n      revert\n        /* \"contracts/MyNFT/Ownable.sol\":1907:2010  if (owner() != _msgSender()) {... */\n    tag_227:\n        /* \"contracts/MyNFT/Ownable.sol\":1851:2017  function _checkOwner() internal view virtual {... */\n      jump\t// out\n        /* \"contracts/MyNFT/Ownable.sol\":2999:3190  function _transferOwnership(address newOwner) internal virtual {... */\n    tag_172:\n        /* \"contracts/MyNFT/Ownable.sol\":3073:3089  address oldOwner */\n      0x00\n        /* \"contracts/MyNFT/Ownable.sol\":3092:3098  _owner */\n      0x0a\n      0x00\n      swap1\n      sload\n      swap1\n      0x0100\n      exp\n      swap1\n      div\n      0xffffffffffffffffffffffffffffffffffffffff\n      and\n        /* \"contracts/MyNFT/Ownable.sol\":3073:3098  address oldOwner = _owner */\n      swap1\n      pop\n        /* \"contracts/MyNFT/Ownable.sol\":3118:3126  newOwner */\n      dup2\n        /* \"contracts/MyNFT/Ownable.sol\":3109:3115  _owner */\n      0x0a\n      0x00\n        /* \"contracts/MyNFT/Ownable.sol\":3109:3126  _owner = newOwner */\n      0x0100\n      exp\n      dup2\n      sload\n      dup2\n      0xffffffffffffffffffffffffffffffffffffffff\n      mul\n      not\n      and\n      swap1\n      dup4\n      0xffffffffffffffffffffffffffffffffffffffff\n      and\n      mul\n      or\n      swap1\n      sstore\n      pop\n        /* \"contracts/MyNFT/Ownable.sol\":3173:3181  newOwner */\n      dup2\n        /* \"contracts/MyNFT/Ownable.sol\":3142:3182  OwnershipTransferred(oldOwner, newOwner) */\n      0xffffffffffffffffffffffffffffffffffffffff\n      and\n        /* \"contracts/MyNFT/Ownable.sol\":3163:3171  oldOwner */\n      dup2\n        /* \"contracts/MyNFT/Ownable.sol\":3142:3182  OwnershipTransferred(oldOwner, newOwner) */\n      0xffffffffffffffffffffffffffffffffffffffff\n      and\n      0x8be0079c531659141344cd1fd0a4f28419497f9722a3daafe3b4186f6b6457e0\n      mload(0x40)\n      mload(0x40)\n      dup1\n      swap2\n      sub\n      swap1\n      log3\n        /* \"contracts/MyNFT/Ownable.sol\":3062:3190  {... */\n      pop\n        /* \"contracts/MyNFT/Ownable.sol\":2999:3190  function _transferOwnership(address newOwner) internal virtual {... */\n      pop\n      jump\t// out\n        /* \"contracts/MyNFT/ERC721.sol\":16107:16428  function _setApprovalForAll(address owner, address operator, bool approved) internal virtual {... */\n    tag_183:\n        /* \"contracts/MyNFT/ERC721.sol\":16355:16363  approved */\n      dup1\n        /* \"contracts/MyNFT/ERC721.sol\":16317:16335  _operatorApprovals */\n      0x05\n        /* \"contracts/MyNFT/ERC721.sol\":16317:16342  _operatorApprovals[owner] */\n      0x00\n        /* \"contracts/MyNFT/ERC721.sol\":16336:16341  owner */\n      dup6\n        /* \"contracts/MyNFT/ERC721.sol\":16317:16342  _operatorApprovals[owner] */\n      0xffffffffffffffffffffffffffffffffffffffff\n      and\n      0xffffffffffffffffffffffffffffffffffffffff\n      and\n      dup2\n      mstore\n      0x20\n      add\n      swap1\n      dup2\n      mstore\n      0x20\n      add\n      0x00\n      keccak256\n        /* \"contracts/MyNFT/ERC721.sol\":16317:16352  _operatorApprovals[owner][operator] */\n      0x00\n        /* \"contracts/MyNFT/ERC721.sol\":16343:16351  operator */\n      dup5\n        /* \"contracts/MyNFT/ERC721.sol\":16317:16352  _operatorApprovals[owner][operator] */\n      0xffffffffffffffffffffffffffffffffffffffff\n      and\n      0xffffffffffffffffffffffffffffffffffffffff\n      and\n      dup2\n      mstore\n      0x20\n      add\n      swap1\n      dup2\n      mstore\n      0x20\n      add\n      0x00\n      keccak256\n      0x00\n        /* \"contracts/MyNFT/ERC721.sol\":16317:16363  _operatorApprovals[owner][operator] = approved */\n      0x0100\n      exp\n      dup2\n      sload\n      dup2\n      0xff\n      mul\n      not\n      and\n      swap1\n      dup4\n      iszero\n      iszero\n      mul\n      or\n      swap1\n      sstore\n      pop\n        /* \"contracts/MyNFT/ERC721.sol\":16401:16409  operator */\n      dup2\n        /* \"contracts/MyNFT/ERC721.sol\":16379:16420  ApprovalForAll(owner, operator, approved) */\n      0xffffffffffffffffffffffffffffffffffffffff\n      and\n        /* \"contracts/MyNFT/ERC721.sol\":16394:16399  owner */\n      dup4\n        /* \"contracts/MyNFT/ERC721.sol\":16379:16420  ApprovalForAll(owner, operator, approved) */\n      0xffffffffffffffffffffffffffffffffffffffff\n      and\n      0x17307eab39ab6107e8899845ad3d59bd9653f200f220920489ca2b5937696c31\n        /* \"contracts/MyNFT/ERC721.sol\":16411:16419  approved */\n      dup4\n        /* \"contracts/MyNFT/ERC721.sol\":16379:16420  ApprovalForAll(owner, operator, approved) */\n      mload(0x40)\n      tag_233\n      swap2\n      swap1\n      tag_33\n      jump\t// in\n    tag_233:\n      mload(0x40)\n      dup1\n      swap2\n      sub\n      swap1\n      log3\n        /* \"contracts/MyNFT/ERC721.sol\":16107:16428  function _setApprovalForAll(address owner, address operator, bool approved) internal virtual {... */\n      pop\n      pop\n      pop\n      jump\t// out\n        /* \"contracts/MyNFT/ERC721.sol\":17471:18276  function _checkOnERC721Received(address from, address to, uint256 tokenId, bytes memory data) private {... */\n    tag_187:\n        /* \"contracts/MyNFT/ERC721.sol\":17605:17606  0 */\n      0x00\n        /* \"contracts/MyNFT/ERC721.sol\":17588:17590  to */\n      dup4\n        /* \"contracts/MyNFT/ERC721.sol\":17588:17602  to.code.length */\n      0xffffffffffffffffffffffffffffffffffffffff\n      and\n      extcodesize\n        /* \"contracts/MyNFT/ERC721.sol\":17588:17606  to.code.length > 0 */\n      gt\n        /* \"contracts/MyNFT/ERC721.sol\":17584:18269  if (to.code.length > 0) {... */\n      iszero\n      tag_235\n      jumpi\n        /* \"contracts/MyNFT/ERC721.sol\":17643:17645  to */\n      dup3\n        /* \"contracts/MyNFT/ERC721.sol\":17627:17663  IERC721Receiver(to).onERC721Received */\n      0xffffffffffffffffffffffffffffffffffffffff\n      and\n      0x150b7a02\n        /* \"contracts/MyNFT/ERC721.sol\":17664:17676  _msgSender() */\n      tag_236\n        /* \"contracts/MyNFT/ERC721.sol\":17664:17674  _msgSender */\n      tag_130\n        /* \"contracts/MyNFT/ERC721.sol\":17664:17676  _msgSender() */\n      jump\t// in\n    tag_236:\n        /* \"contracts/MyNFT/ERC721.sol\":17678:17682  from */\n      dup7\n        /* \"contracts/MyNFT/ERC721.sol\":17684:17691  tokenId */\n      dup6\n        /* \"contracts/MyNFT/ERC721.sol\":17693:17697  data */\n      dup6\n        /* \"contracts/MyNFT/ERC721.sol\":17627:17698  IERC721Receiver(to).onERC721Received(_msgSender(), from, tokenId, data) */\n      mload(0x40)\n      dup6\n      0xffffffff\n      and\n      0xe0\n      shl\n      dup2\n      mstore\n      0x04\n      add\n      tag_237\n      swap5\n      swap4\n      swap3\n      swap2\n      swap1\n      tag_238\n      jump\t// in\n    tag_237:\n      0x20\n      mload(0x40)\n      dup1\n      dup4\n      sub\n      dup2\n      0x00\n      dup8\n      gas\n      call\n      swap3\n      pop\n      pop\n      pop\n      dup1\n      iszero\n      tag_239\n      jumpi\n      pop\n      mload(0x40)\n      returndatasize\n      not(0x1f)\n      0x1f\n      dup3\n      add\n      and\n      dup3\n      add\n      dup1\n      0x40\n      mstore\n      pop\n      dup2\n      add\n      swap1\n      tag_240\n      swap2\n      swap1\n      tag_241\n      jump\t// in\n    tag_240:\n      0x01\n    tag_239:\n        /* \"contracts/MyNFT/ERC721.sol\":17623:18258  try IERC721Receiver(to).onERC721Received(_msgSender(), from, tokenId, data) returns (bytes4 retval) {... */\n      tag_242\n      jumpi\n      returndatasize\n      dup1\n      0x00\n      dup2\n      eq\n      tag_247\n      jumpi\n      mload(0x40)\n      swap2\n      pop\n      and(add(returndatasize, 0x3f), not(0x1f))\n      dup3\n      add\n      0x40\n      mstore\n      returndatasize\n      dup3\n      mstore\n      returndatasize\n      0x00\n      0x20\n      dup5\n      add\n      returndatacopy\n      jump(tag_246)\n    tag_247:\n      0x60\n      swap2\n      pop\n    tag_246:\n      pop\n        /* \"contracts/MyNFT/ERC721.sol\":17961:17962  0 */\n      0x00\n        /* \"contracts/MyNFT/ERC721.sol\":17944:17950  reason */\n      dup2\n        /* \"contracts/MyNFT/ERC721.sol\":17944:17957  reason.length */\n      mload\n        /* \"contracts/MyNFT/ERC721.sol\":17944:17962  reason.length == 0 */\n      sub\n        /* \"contracts/MyNFT/ERC721.sol\":17940:18243  if (reason.length == 0) {... */\n      iszero\n      tag_249\n      jumpi\n        /* \"contracts/MyNFT/ERC721.sol\":18193:18199  reason */\n      dup1\n        /* \"contracts/MyNFT/ERC721.sol\":18187:18200  mload(reason) */\n      mload\n        /* \"contracts/MyNFT/ERC721.sol\":18178:18184  reason */\n      dup2\n        /* \"contracts/MyNFT/ERC721.sol\":18174:18176  32 */\n      0x20\n        /* \"contracts/MyNFT/ERC721.sol\":18170:18185  add(32, reason) */\n      add\n        /* \"contracts/MyNFT/ERC721.sol\":18163:18201  revert(add(32, reason), mload(reason)) */\n      revert\n        /* \"contracts/MyNFT/ERC721.sol\":17940:18243  if (reason.length == 0) {... */\n    tag_249:\n        /* \"contracts/MyNFT/ERC721.sol\":17893:18258  catch (bytes memory reason) {... */\n      pop\n        /* \"contracts/MyNFT/ERC721.sol\":17623:18258  try IERC721Receiver(to).onERC721Received(_msgSender(), from, tokenId, data) returns (bytes4 retval) {... */\n      jump(tag_250)\n    tag_242:\n        /* \"contracts/MyNFT/ERC721.sol\":17699:17892  returns (bytes4 retval) {... */\n      pop\n        /* \"contracts/MyNFT/ERC721.sol\":17623:18258  try IERC721Receiver(to).onERC721Received(_msgSender(), from, tokenId, data) returns (bytes4 retval) {... */\n    tag_250:\n        /* \"contracts/MyNFT/ERC721.sol\":17584:18269  if (to.code.length > 0) {... */\n    tag_235:\n        /* \"contracts/MyNFT/ERC721.sol\":17471:18276  function _checkOnERC721Received(address from, address to, uint256 tokenId, bytes memory data) private {... */\n      pop\n      pop\n      pop\n      pop\n      jump\t// out\n        /* \"contracts/MyNFT/ERC721.sol\":3210:3304  function _baseURI() internal view virtual returns (string memory) {... */\n    tag_191:\n        /* \"contracts/MyNFT/ERC721.sol\":3261:3274  string memory */\n      0x60\n        /* \"contracts/MyNFT/ERC721.sol\":3287:3296  return \"\" */\n      mload(0x40)\n      dup1\n      0x20\n      add\n      0x40\n      mstore\n      dup1\n      0x00\n      dup2\n      mstore\n      pop\n      swap1\n      pop\n        /* \"contracts/MyNFT/ERC721.sol\":3210:3304  function _baseURI() internal view virtual returns (string memory) {... */\n      swap1\n      jump\t// out\n        /* \"contracts/MyNFT/Strings.sol\":650:1368  function toString(uint256 value) internal pure returns (string memory) {... */\n    tag_195:\n        /* \"contracts/MyNFT/Strings.sol\":706:719  string memory */\n      0x60\n        /* \"contracts/MyNFT/Strings.sol\":757:771  uint256 length */\n      0x00\n        /* \"contracts/MyNFT/Strings.sol\":794:795  1 */\n      0x01\n        /* \"contracts/MyNFT/Strings.sol\":774:791  Math.log10(value) */\n      tag_254\n        /* \"contracts/MyNFT/Strings.sol\":785:790  value */\n      dup5\n        /* \"contracts/MyNFT/Strings.sol\":774:784  Math.log10 */\n      tag_255\n        /* \"contracts/MyNFT/Strings.sol\":774:791  Math.log10(value) */\n      jump\t// in\n    tag_254:\n        /* \"contracts/MyNFT/Strings.sol\":774:795  Math.log10(value) + 1 */\n      add\n        /* \"contracts/MyNFT/Strings.sol\":757:795  uint256 length = Math.log10(value) + 1 */\n      swap1\n      pop\n        /* \"contracts/MyNFT/Strings.sol\":810:830  string memory buffer */\n      0x00\n        /* \"contracts/MyNFT/Strings.sol\":844:850  length */\n      dup2\n        /* \"contracts/MyNFT/Strings.sol\":833:851  new string(length) */\n      0xffffffffffffffff\n      dup2\n      gt\n      iszero\n      tag_256\n      jumpi\n      tag_257\n      tag_258\n      jump\t// in\n    tag_257:\n    tag_256:\n      mload(0x40)\n      swap1\n      dup1\n      dup3\n      mstore\n      dup1\n      0x1f\n      add\n      not(0x1f)\n      and\n      0x20\n      add\n      dup3\n      add\n      0x40\n      mstore\n      dup1\n      iszero\n      tag_259\n      jumpi\n      dup2\n      0x20\n      add\n      0x01\n      dup3\n      mul\n      dup1\n      calldatasize\n      dup4\n      calldatacopy\n      dup1\n      dup3\n      add\n      swap2\n      pop\n      pop\n      swap1\n      pop\n    tag_259:\n      pop\n        /* \"contracts/MyNFT/Strings.sol\":810:851  string memory buffer = new string(length) */\n      swap1\n      pop\n        /* \"contracts/MyNFT/Strings.sol\":866:877  uint256 ptr */\n      0x00\n        /* \"contracts/MyNFT/Strings.sol\":995:1001  length */\n      dup3\n        /* \"contracts/MyNFT/Strings.sol\":991:993  32 */\n      0x20\n        /* \"contracts/MyNFT/Strings.sol\":987:1002  add(32, length) */\n      add\n        /* \"contracts/MyNFT/Strings.sol\":979:985  buffer */\n      dup3\n        /* \"contracts/MyNFT/Strings.sol\":975:1003  add(buffer, add(32, length)) */\n      add\n        /* \"contracts/MyNFT/Strings.sol\":968:1003  ptr := add(buffer, add(32, length)) */\n      swap1\n      pop\n        /* \"contracts/MyNFT/Strings.sol\":1032:1322  while (true) {... */\n    tag_260:\n        /* \"contracts/MyNFT/Strings.sol\":1039:1043  true */\n      0x01\n        /* \"contracts/MyNFT/Strings.sol\":1032:1322  while (true) {... */\n      iszero\n      tag_261\n      jumpi\n        /* \"contracts/MyNFT/Strings.sol\":1064:1069  ptr-- */\n      dup1\n      dup1\n      0x01\n      swap1\n      sub\n      swap2\n      pop\n      pop\n        /* \"contracts/MyNFT/Strings.sol\":1206:1216  HEX_DIGITS */\n      0x3031323334353637383961626364656600000000000000000000000000000000\n        /* \"contracts/MyNFT/Strings.sol\":1201:1203  10 */\n      0x0a\n        /* \"contracts/MyNFT/Strings.sol\":1194:1199  value */\n      dup7\n        /* \"contracts/MyNFT/Strings.sol\":1190:1204  mod(value, 10) */\n      mod\n        /* \"contracts/MyNFT/Strings.sol\":1185:1217  byte(mod(value, 10), HEX_DIGITS) */\n      byte\n        /* \"contracts/MyNFT/Strings.sol\":1180:1183  ptr */\n      dup2\n        /* \"contracts/MyNFT/Strings.sol\":1172:1218  mstore8(ptr, byte(mod(value, 10), HEX_DIGITS)) */\n      mstore8\n        /* \"contracts/MyNFT/Strings.sol\":1264:1266  10 */\n      0x0a\n        /* \"contracts/MyNFT/Strings.sol\":1255:1266  value /= 10 */\n      dup6\n      dup2\n      tag_262\n      jumpi\n      tag_263\n      tag_264\n      jump\t// in\n    tag_263:\n    tag_262:\n      div\n      swap5\n      pop\n        /* \"contracts/MyNFT/Strings.sol\":1298:1299  0 */\n      0x00\n        /* \"contracts/MyNFT/Strings.sol\":1289:1294  value */\n      dup6\n        /* \"contracts/MyNFT/Strings.sol\":1289:1299  value == 0 */\n      sub\n        /* \"contracts/MyNFT/Strings.sol\":1032:1322  while (true) {... */\n      tag_260\n        /* \"contracts/MyNFT/Strings.sol\":1285:1306  if (value == 0) break */\n      jumpi\n        /* \"contracts/MyNFT/Strings.sol\":1032:1322  while (true) {... */\n    tag_261:\n        /* \"contracts/MyNFT/Strings.sol\":1343:1349  buffer */\n      dup2\n        /* \"contracts/MyNFT/Strings.sol\":1336:1349  return buffer */\n      swap4\n      pop\n      pop\n      pop\n      pop\n        /* \"contracts/MyNFT/Strings.sol\":650:1368  function toString(uint256 value) internal pure returns (string memory) {... */\n      swap2\n      swap1\n      pop\n      jump\t// out\n        /* \"contracts/MyNFT/ERC721.sol\":1541:1846  function supportsInterface(bytes4 interfaceId) public view virtual override(ERC165, IERC165) returns (bool) {... */\n    tag_208:\n        /* \"contracts/MyNFT/ERC721.sol\":1643:1647  bool */\n      0x00\n        /* \"contracts/MyNFT/ERC721.sol\":1695:1720  type(IERC721).interfaceId */\n      0x80ac58cd00000000000000000000000000000000000000000000000000000000\n        /* \"contracts/MyNFT/ERC721.sol\":1680:1720  interfaceId == type(IERC721).interfaceId */\n      not(0xffffffffffffffffffffffffffffffffffffffffffffffffffffffff)\n      and\n        /* \"contracts/MyNFT/ERC721.sol\":1680:1691  interfaceId */\n      dup3\n        /* \"contracts/MyNFT/ERC721.sol\":1680:1720  interfaceId == type(IERC721).interfaceId */\n      not(0xffffffffffffffffffffffffffffffffffffffffffffffffffffffff)\n      and\n      eq\n        /* \"contracts/MyNFT/ERC721.sol\":1680:1785  interfaceId == type(IERC721).interfaceId ||... */\n      dup1\n      tag_267\n      jumpi\n      pop\n        /* \"contracts/MyNFT/ERC721.sol\":1752:1785  type(IERC721Metadata).interfaceId */\n      0x5b5e139f00000000000000000000000000000000000000000000000000000000\n        /* \"contracts/MyNFT/ERC721.sol\":1737:1785  interfaceId == type(IERC721Metadata).interfaceId */\n      not(0xffffffffffffffffffffffffffffffffffffffffffffffffffffffff)\n      and\n        /* \"contracts/MyNFT/ERC721.sol\":1737:1748  interfaceId */\n      dup3\n        /* \"contracts/MyNFT/ERC721.sol\":1737:1785  interfaceId == type(IERC721Metadata).interfaceId */\n      not(0xffffffffffffffffffffffffffffffffffffffffffffffffffffffff)\n      and\n      eq\n        /* \"contracts/MyNFT/ERC721.sol\":1680:1785  interfaceId == type(IERC721).interfaceId ||... */\n    tag_267:\n        /* \"contracts/MyNFT/ERC721.sol\":1680:1838  interfaceId == type(IERC721).interfaceId ||... */\n      dup1\n      tag_268\n      jumpi\n      pop\n        /* \"contracts/MyNFT/ERC721.sol\":1802:1838  super.supportsInterface(interfaceId) */\n      tag_269\n        /* \"contracts/MyNFT/ERC721.sol\":1826:1837  interfaceId */\n      dup3\n        /* \"contracts/MyNFT/ERC721.sol\":1802:1825  super.supportsInterface */\n      tag_270\n        /* \"contracts/MyNFT/ERC721.sol\":1802:1838  super.supportsInterface(interfaceId) */\n      jump\t// in\n    tag_269:\n        /* \"contracts/MyNFT/ERC721.sol\":1680:1838  interfaceId == type(IERC721).interfaceId ||... */\n    tag_268:\n        /* \"contracts/MyNFT/ERC721.sol\":1660:1838  return... */\n      swap1\n      pop\n        /* \"contracts/MyNFT/ERC721.sol\":1541:1846  function supportsInterface(bytes4 interfaceId) public view virtual override(ERC165, IERC165) returns (bool) {... */\n      swap2\n      swap1\n      pop\n      jump\t// out\n        /* \"contracts/MyNFT/ERC721.sol\":5822:5939  function _ownerOf(uint256 tokenId) internal view virtual returns (address) {... */\n    tag_211:\n        /* \"contracts/MyNFT/ERC721.sol\":5888:5895  address */\n      0x00\n        /* \"contracts/MyNFT/ERC721.sol\":5915:5922  _owners */\n      0x02\n        /* \"contracts/MyNFT/ERC721.sol\":5915:5931  _owners[tokenId] */\n      0x00\n        /* \"contracts/MyNFT/ERC721.sol\":5923:5930  tokenId */\n      dup4\n        /* \"contracts/MyNFT/ERC721.sol\":5915:5931  _owners[tokenId] */\n      dup2\n      mstore\n      0x20\n      add\n      swap1\n      dup2\n      mstore\n      0x20\n      add\n      0x00\n      keccak256\n      0x00\n      swap1\n      sload\n      swap1\n      0x0100\n      exp\n      swap1\n      div\n      0xffffffffffffffffffffffffffffffffffffffff\n      and\n        /* \"contracts/MyNFT/ERC721.sol\":5908:5931  return _owners[tokenId] */\n      swap1\n      pop\n        /* \"contracts/MyNFT/ERC721.sol\":5822:5939  function _ownerOf(uint256 tokenId) internal view virtual returns (address) {... */\n      swap2\n      swap1\n      pop\n      jump\t// out\n        /* \"contracts/MyNFT/ERC721.sol\":15207:15888  function _approve(address to, uint256 tokenId, address auth, bool emitEvent) internal virtual {... */\n    tag_217:\n        /* \"contracts/MyNFT/ERC721.sol\":15369:15378  emitEvent */\n      dup1\n        /* \"contracts/MyNFT/ERC721.sol\":15369:15400  emitEvent || auth != address(0) */\n      dup1\n      tag_273\n      jumpi\n      pop\n        /* \"contracts/MyNFT/ERC721.sol\":15398:15399  0 */\n      0x00\n        /* \"contracts/MyNFT/ERC721.sol\":15382:15400  auth != address(0) */\n      0xffffffffffffffffffffffffffffffffffffffff\n      and\n        /* \"contracts/MyNFT/ERC721.sol\":15382:15386  auth */\n      dup3\n        /* \"contracts/MyNFT/ERC721.sol\":15382:15400  auth != address(0) */\n      0xffffffffffffffffffffffffffffffffffffffff\n      and\n      eq\n      iszero\n        /* \"contracts/MyNFT/ERC721.sol\":15369:15400  emitEvent || auth != address(0) */\n    tag_273:\n        /* \"contracts/MyNFT/ERC721.sol\":15365:15839  if (emitEvent || auth != address(0)) {... */\n      iszero\n      tag_274\n      jumpi\n        /* \"contracts/MyNFT/ERC721.sol\":15417:15430  address owner */\n      0x00\n        /* \"contracts/MyNFT/ERC721.sol\":15433:15455  _requireOwned(tokenId) */\n      tag_275\n        /* \"contracts/MyNFT/ERC721.sol\":15447:15454  tokenId */\n      dup5\n        /* \"contracts/MyNFT/ERC721.sol\":15433:15446  _requireOwned */\n      tag_124\n        /* \"contracts/MyNFT/ERC721.sol\":15433:15455  _requireOwned(tokenId) */\n      jump\t// in\n    tag_275:\n        /* \"contracts/MyNFT/ERC721.sol\":15417:15455  address owner = _requireOwned(tokenId) */\n      swap1\n      pop\n        /* \"contracts/MyNFT/ERC721.sol\":15602:15603  0 */\n      0x00\n        /* \"contracts/MyNFT/ERC721.sol\":15586:15604  auth != address(0) */\n      0xffffffffffffffffffffffffffffffffffffffff\n      and\n        /* \"contracts/MyNFT/ERC721.sol\":15586:15590  auth */\n      dup4\n        /* \"contracts/MyNFT/ERC721.sol\":15586:15604  auth != address(0) */\n      0xffffffffffffffffffffffffffffffffffffffff\n      and\n      eq\n      iszero\n        /* \"contracts/MyNFT/ERC721.sol\":15586:15621  auth != address(0) && owner != auth */\n      dup1\n      iszero\n      tag_276\n      jumpi\n      pop\n        /* \"contracts/MyNFT/ERC721.sol\":15617:15621  auth */\n      dup3\n        /* \"contracts/MyNFT/ERC721.sol\":15608:15621  owner != auth */\n      0xffffffffffffffffffffffffffffffffffffffff\n      and\n        /* \"contracts/MyNFT/ERC721.sol\":15608:15613  owner */\n      dup2\n        /* \"contracts/MyNFT/ERC721.sol\":15608:15621  owner != auth */\n      0xffffffffffffffffffffffffffffffffffffffff\n      and\n      eq\n      iszero\n        /* \"contracts/MyNFT/ERC721.sol\":15586:15621  auth != address(0) && owner != auth */\n    tag_276:\n        /* \"contracts/MyNFT/ERC721.sol\":15586:15655  auth != address(0) && owner != auth && !isApprovedForAll(owner, auth) */\n      dup1\n      iszero\n      tag_277\n      jumpi\n      pop\n        /* \"contracts/MyNFT/ERC721.sol\":15626:15655  isApprovedForAll(owner, auth) */\n      tag_278\n        /* \"contracts/MyNFT/ERC721.sol\":15643:15648  owner */\n      dup2\n        /* \"contracts/MyNFT/ERC721.sol\":15650:15654  auth */\n      dup5\n        /* \"contracts/MyNFT/ERC721.sol\":15626:15642  isApprovedForAll */\n      tag_107\n        /* \"contracts/MyNFT/ERC721.sol\":15626:15655  isApprovedForAll(owner, auth) */\n      jump\t// in\n    tag_278:\n        /* \"contracts/MyNFT/ERC721.sol\":15625:15655  !isApprovedForAll(owner, auth) */\n      iszero\n        /* \"contracts/MyNFT/ERC721.sol\":15586:15655  auth != address(0) && owner != auth && !isApprovedForAll(owner, auth) */\n    tag_277:\n        /* \"contracts/MyNFT/ERC721.sol\":15582:15729  if (auth != address(0) && owner != auth && !isApprovedForAll(owner, auth)) {... */\n      pop\n        /* \"contracts/MyNFT/ERC721.sol\":15749:15758  emitEvent */\n      dup2\n        /* \"contracts/MyNFT/ERC721.sol\":15745:15828  if (emitEvent) {... */\n      iszero\n      tag_280\n      jumpi\n        /* \"contracts/MyNFT/ERC721.sol\":15804:15811  tokenId */\n      dup4\n        /* \"contracts/MyNFT/ERC721.sol\":15800:15802  to */\n      dup6\n        /* \"contracts/MyNFT/ERC721.sol\":15784:15812  Approval(owner, to, tokenId) */\n      0xffffffffffffffffffffffffffffffffffffffff\n      and\n        /* \"contracts/MyNFT/ERC721.sol\":15793:15798  owner */\n      dup3\n        /* \"contracts/MyNFT/ERC721.sol\":15784:15812  Approval(owner, to, tokenId) */\n      0xffffffffffffffffffffffffffffffffffffffff\n      and\n      0x8c5be1e5ebec7d5bd14f71427d1e84f3dd0314c0f7b2291e5b200ac8c7c3b925\n      mload(0x40)\n      mload(0x40)\n      dup1\n      swap2\n      sub\n      swap1\n      log4\n        /* \"contracts/MyNFT/ERC721.sol\":15745:15828  if (emitEvent) {... */\n    tag_280:\n        /* \"contracts/MyNFT/ERC721.sol\":15402:15839  {... */\n      pop\n        /* \"contracts/MyNFT/ERC721.sol\":15365:15839  if (emitEvent || auth != address(0)) {... */\n    tag_274:\n        /* \"contracts/MyNFT/ERC721.sol\":15878:15880  to */\n      dup4\n        /* \"contracts/MyNFT/ERC721.sol\":15851:15866  _tokenApprovals */\n      0x04\n        /* \"contracts/MyNFT/ERC721.sol\":15851:15875  _tokenApprovals[tokenId] */\n      0x00\n        /* \"contracts/MyNFT/ERC721.sol\":15867:15874  tokenId */\n      dup6\n        /* \"contracts/MyNFT/ERC721.sol\":15851:15875  _tokenApprovals[tokenId] */\n      dup2\n      mstore\n      0x20\n      add\n      swap1\n      dup2\n      mstore\n      0x20\n      add\n      0x00\n      keccak256\n      0x00\n        /* \"contracts/MyNFT/ERC721.sol\":15851:15880  _tokenApprovals[tokenId] = to */\n      0x0100\n      exp\n      dup2\n      sload\n      dup2\n      0xffffffffffffffffffffffffffffffffffffffff\n      mul\n      not\n      and\n      swap1\n      dup4\n      0xffffffffffffffffffffffffffffffffffffffff\n      and\n      mul\n      or\n      swap1\n      sstore\n      pop\n        /* \"contracts/MyNFT/ERC721.sol\":15207:15888  function _approve(address to, uint256 tokenId, address auth, bool emitEvent) internal virtual {... */\n      pop\n      pop\n      pop\n      pop\n      jump\t// out\n        /* \"contracts/MyNFT/ERC721Enumerable.sol\":2509:2628  function test1() public override  virtual {... */\n    tag_223:\n        /* \"contracts/MyNFT/ERC721Enumerable.sol\":2567:2596  Log(\"ERC721Enumerable.test1\") */\n      0xcf34ef537ac33ee1ac626ca1587a0a7e8e51561e5514f8cb36afa1c5102b3bab\n      mload(0x40)\n      tag_282\n      swap1\n      tag_283\n      jump\t// in\n    tag_282:\n      mload(0x40)\n      dup1\n      swap2\n      sub\n      swap1\n      log1\n        /* \"contracts/MyNFT/ERC721Enumerable.sol\":2607:2620  super.test1() */\n      tag_284\n        /* \"contracts/MyNFT/ERC721Enumerable.sol\":2607:2618  super.test1 */\n      tag_285\n        /* \"contracts/MyNFT/ERC721Enumerable.sol\":2607:2620  super.test1() */\n      jump\t// in\n    tag_284:\n        /* \"contracts/MyNFT/ERC721Enumerable.sol\":2509:2628  function test1() public override  virtual {... */\n      jump\t// out\n        /* \"contracts/MyNFT/Math.sol\":13016:13964  function log10(uint256 value) internal pure returns (uint256) {... */\n    tag_255:\n        /* \"contracts/MyNFT/Math.sol\":13069:13076  uint256 */\n      0x00\n        /* \"contracts/MyNFT/Math.sol\":13089:13103  uint256 result */\n      dup1\n        /* \"contracts/MyNFT/Math.sol\":13106:13107  0 */\n      0x00\n        /* \"contracts/MyNFT/Math.sol\":13089:13107  uint256 result = 0 */\n      swap1\n      pop\n        /* \"contracts/MyNFT/Math.sol\":13156:13164  10 ** 64 */\n      0x184f03e93ff9f4daa797ed6e38ed64bf6a1f010000000000000000\n        /* \"contracts/MyNFT/Math.sol\":13147:13152  value */\n      dup4\n        /* \"contracts/MyNFT/Math.sol\":13147:13164  value >= 10 ** 64 */\n      lt\n        /* \"contracts/MyNFT/Math.sol\":13143:13249  if (value >= 10 ** 64) {... */\n      tag_287\n      jumpi\n        /* \"contracts/MyNFT/Math.sol\":13194:13202  10 ** 64 */\n      0x184f03e93ff9f4daa797ed6e38ed64bf6a1f010000000000000000\n        /* \"contracts/MyNFT/Math.sol\":13185:13202  value /= 10 ** 64 */\n      dup4\n      dup2\n      tag_288\n      jumpi\n      tag_289\n      tag_264\n      jump\t// in\n    tag_289:\n    tag_288:\n      div\n      swap3\n      pop\n        /* \"contracts/MyNFT/Math.sol\":13231:13233  64 */\n      0x40\n        /* \"contracts/MyNFT/Math.sol\":13221:13233  result += 64 */\n      dup2\n      add\n      swap1\n      pop\n        /* \"contracts/MyNFT/Math.sol\":13143:13249  if (value >= 10 ** 64) {... */\n    tag_287:\n        /* \"contracts/MyNFT/Math.sol\":13276:13284  10 ** 32 */\n      0x04ee2d6d415b85acef8100000000\n        /* \"contracts/MyNFT/Math.sol\":13267:13272  value */\n      dup4\n        /* \"contracts/MyNFT/Math.sol\":13267:13284  value >= 10 ** 32 */\n      lt\n        /* \"contracts/MyNFT/Math.sol\":13263:13369  if (value >= 10 ** 32) {... */\n      tag_290\n      jumpi\n        /* \"contracts/MyNFT/Math.sol\":13314:13322  10 ** 32 */\n      0x04ee2d6d415b85acef8100000000\n        /* \"contracts/MyNFT/Math.sol\":13305:13322  value /= 10 ** 32 */\n      dup4\n      dup2\n      tag_291\n      jumpi\n      tag_292\n      tag_264\n      jump\t// in\n    tag_292:\n    tag_291:\n      div\n      swap3\n      pop\n        /* \"contracts/MyNFT/Math.sol\":13351:13353  32 */\n      0x20\n        /* \"contracts/MyNFT/Math.sol\":13341:13353  result += 32 */\n      dup2\n      add\n      swap1\n      pop\n        /* \"contracts/MyNFT/Math.sol\":13263:13369  if (value >= 10 ** 32) {... */\n    tag_290:\n        /* \"contracts/MyNFT/Math.sol\":13396:13404  10 ** 16 */\n      0x2386f26fc10000\n        /* \"contracts/MyNFT/Math.sol\":13387:13392  value */\n      dup4\n        /* \"contracts/MyNFT/Math.sol\":13387:13404  value >= 10 ** 16 */\n      lt\n        /* \"contracts/MyNFT/Math.sol\":13383:13489  if (value >= 10 ** 16) {... */\n      tag_293\n      jumpi\n        /* \"contracts/MyNFT/Math.sol\":13434:13442  10 ** 16 */\n      0x2386f26fc10000\n        /* \"contracts/MyNFT/Math.sol\":13425:13442  value /= 10 ** 16 */\n      dup4\n      dup2\n      tag_294\n      jumpi\n      tag_295\n      tag_264\n      jump\t// in\n    tag_295:\n    tag_294:\n      div\n      swap3\n      pop\n        /* \"contracts/MyNFT/Math.sol\":13471:13473  16 */\n      0x10\n        /* \"contracts/MyNFT/Math.sol\":13461:13473  result += 16 */\n      dup2\n      add\n      swap1\n      pop\n        /* \"contracts/MyNFT/Math.sol\":13383:13489  if (value >= 10 ** 16) {... */\n    tag_293:\n        /* \"contracts/MyNFT/Math.sol\":13516:13523  10 ** 8 */\n      0x05f5e100\n        /* \"contracts/MyNFT/Math.sol\":13507:13512  value */\n      dup4\n        /* \"contracts/MyNFT/Math.sol\":13507:13523  value >= 10 ** 8 */\n      lt\n        /* \"contracts/MyNFT/Math.sol\":13503:13606  if (value >= 10 ** 8) {... */\n      tag_296\n      jumpi\n        /* \"contracts/MyNFT/Math.sol\":13553:13560  10 ** 8 */\n      0x05f5e100\n        /* \"contracts/MyNFT/Math.sol\":13544:13560  value /= 10 ** 8 */\n      dup4\n      dup2\n      tag_297\n      jumpi\n      tag_298\n      tag_264\n      jump\t// in\n    tag_298:\n    tag_297:\n      div\n      swap3\n      pop\n        /* \"contracts/MyNFT/Math.sol\":13589:13590  8 */\n      0x08\n        /* \"contracts/MyNFT/Math.sol\":13579:13590  result += 8 */\n      dup2\n      add\n      swap1\n      pop\n        /* \"contracts/MyNFT/Math.sol\":13503:13606  if (value >= 10 ** 8) {... */\n    tag_296:\n        /* \"contracts/MyNFT/Math.sol\":13633:13640  10 ** 4 */\n      0x2710\n        /* \"contracts/MyNFT/Math.sol\":13624:13629  value */\n      dup4\n        /* \"contracts/MyNFT/Math.sol\":13624:13640  value >= 10 ** 4 */\n      lt\n        /* \"contracts/MyNFT/Math.sol\":13620:13723  if (value >= 10 ** 4) {... */\n      tag_299\n      jumpi\n        /* \"contracts/MyNFT/Math.sol\":13670:13677  10 ** 4 */\n      0x2710\n        /* \"contracts/MyNFT/Math.sol\":13661:13677  value /= 10 ** 4 */\n      dup4\n      dup2\n      tag_300\n      jumpi\n      tag_301\n      tag_264\n      jump\t// in\n    tag_301:\n    tag_300:\n      div\n      swap3\n      pop\n        /* \"contracts/MyNFT/Math.sol\":13706:13707  4 */\n      0x04\n        /* \"contracts/MyNFT/Math.sol\":13696:13707  result += 4 */\n      dup2\n      add\n      swap1\n      pop\n        /* \"contracts/MyNFT/Math.sol\":13620:13723  if (value >= 10 ** 4) {... */\n    tag_299:\n        /* \"contracts/MyNFT/Math.sol\":13750:13757  10 ** 2 */\n      0x64\n        /* \"contracts/MyNFT/Math.sol\":13741:13746  value */\n      dup4\n        /* \"contracts/MyNFT/Math.sol\":13741:13757  value >= 10 ** 2 */\n      lt\n        /* \"contracts/MyNFT/Math.sol\":13737:13840  if (value >= 10 ** 2) {... */\n      tag_302\n      jumpi\n        /* \"contracts/MyNFT/Math.sol\":13787:13794  10 ** 2 */\n      0x64\n        /* \"contracts/MyNFT/Math.sol\":13778:13794  value /= 10 ** 2 */\n      dup4\n      dup2\n      tag_303\n      jumpi\n      tag_304\n      tag_264\n      jump\t// in\n    tag_304:\n    tag_303:\n      div\n      swap3\n      pop\n        /* \"contracts/MyNFT/Math.sol\":13823:13824  2 */\n      0x02\n        /* \"contracts/MyNFT/Math.sol\":13813:13824  result += 2 */\n      dup2\n      add\n      swap1\n      pop\n        /* \"contracts/MyNFT/Math.sol\":13737:13840  if (value >= 10 ** 2) {... */\n    tag_302:\n        /* \"contracts/MyNFT/Math.sol\":13867:13874  10 ** 1 */\n      0x0a\n        /* \"contracts/MyNFT/Math.sol\":13858:13863  value */\n      dup4\n        /* \"contracts/MyNFT/Math.sol\":13858:13874  value >= 10 ** 1 */\n      lt\n        /* \"contracts/MyNFT/Math.sol\":13854:13922  if (value >= 10 ** 1) {... */\n      tag_305\n      jumpi\n        /* \"contracts/MyNFT/Math.sol\":13905:13906  1 */\n      0x01\n        /* \"contracts/MyNFT/Math.sol\":13895:13906  result += 1 */\n      dup2\n      add\n      swap1\n      pop\n        /* \"contracts/MyNFT/Math.sol\":13854:13922  if (value >= 10 ** 1) {... */\n    tag_305:\n        /* \"contracts/MyNFT/Math.sol\":13950:13956  result */\n      dup1\n        /* \"contracts/MyNFT/Math.sol\":13943:13956  return result */\n      swap2\n      pop\n      pop\n        /* \"contracts/MyNFT/Math.sol\":13016:13964  function log10(uint256 value) internal pure returns (uint256) {... */\n      swap2\n      swap1\n      pop\n      jump\t// out\n        /* \"contracts/MyNFT/ERC165.sol\":786:934  function supportsInterface(bytes4 interfaceId) public view virtual returns (bool) {... */\n    tag_270:\n        /* \"contracts/MyNFT/ERC165.sol\":862:866  bool */\n      0x00\n        /* \"contracts/MyNFT/ERC165.sol\":901:926  type(IERC165).interfaceId */\n      0x01ffc9a700000000000000000000000000000000000000000000000000000000\n        /* \"contracts/MyNFT/ERC165.sol\":886:926  interfaceId == type(IERC165).interfaceId */\n      not(0xffffffffffffffffffffffffffffffffffffffffffffffffffffffff)\n      and\n        /* \"contracts/MyNFT/ERC165.sol\":886:897  interfaceId */\n      dup3\n        /* \"contracts/MyNFT/ERC165.sol\":886:926  interfaceId == type(IERC165).interfaceId */\n      not(0xffffffffffffffffffffffffffffffffffffffffffffffffffffffff)\n      and\n      eq\n        /* \"contracts/MyNFT/ERC165.sol\":879:926  return interfaceId == type(IERC165).interfaceId */\n      swap1\n      pop\n        /* \"contracts/MyNFT/ERC165.sol\":786:934  function supportsInterface(bytes4 interfaceId) public view virtual returns (bool) {... */\n      swap2\n      swap1\n      pop\n      jump\t// out\n        /* \"contracts/MyNFT/ERC721.sol\":8458:8533  function test1() public virtual {... */\n    tag_285:\n        /* \"contracts/MyNFT/ERC721.sol\":8506:8525  Log(\"ERC721.test1\") */\n      0xcf34ef537ac33ee1ac626ca1587a0a7e8e51561e5514f8cb36afa1c5102b3bab\n      mload(0x40)\n      tag_308\n      swap1\n      tag_309\n      jump\t// in\n    tag_308:\n      mload(0x40)\n      dup1\n      swap2\n      sub\n      swap1\n      log1\n        /* \"contracts/MyNFT/ERC721.sol\":8458:8533  function test1() public virtual {... */\n      jump\t// out\n        /* \"#utility.yul\":7:82   */\n    tag_310:\n        /* \"#utility.yul\":40:46   */\n      0x00\n        /* \"#utility.yul\":73:75   */\n      0x40\n        /* \"#utility.yul\":67:76   */\n      mload\n        /* \"#utility.yul\":57:76   */\n      swap1\n      pop\n        /* \"#utility.yul\":7:82   */\n      swap1\n      jump\t// out\n        /* \"#utility.yul\":88:205   */\n    tag_311:\n        /* \"#utility.yul\":197:198   */\n      0x00\n        /* \"#utility.yul\":194:195   */\n      dup1\n        /* \"#utility.yul\":187:199   */\n      revert\n        /* \"#utility.yul\":211:328   */\n    tag_312:\n        /* \"#utility.yul\":320:321   */\n      0x00\n        /* \"#utility.yul\":317:318   */\n      dup1\n        /* \"#utility.yul\":310:322   */\n      revert\n        /* \"#utility.yul\":334:483   */\n    tag_313:\n        /* \"#utility.yul\":370:377   */\n      0x00\n        /* \"#utility.yul\":410:476   */\n      0xffffffff00000000000000000000000000000000000000000000000000000000\n        /* \"#utility.yul\":403:408   */\n      dup3\n        /* \"#utility.yul\":399:477   */\n      and\n        /* \"#utility.yul\":388:477   */\n      swap1\n      pop\n        /* \"#utility.yul\":334:483   */\n      swap2\n      swap1\n      pop\n      jump\t// out\n        /* \"#utility.yul\":489:609   */\n    tag_314:\n        /* \"#utility.yul\":561:584   */\n      tag_363\n        /* \"#utility.yul\":578:583   */\n      dup2\n        /* \"#utility.yul\":561:584   */\n      tag_313\n      jump\t// in\n    tag_363:\n        /* \"#utility.yul\":554:559   */\n      dup2\n        /* \"#utility.yul\":551:585   */\n      eq\n        /* \"#utility.yul\":541:603   */\n      tag_364\n      jumpi\n        /* \"#utility.yul\":599:600   */\n      0x00\n        /* \"#utility.yul\":596:597   */\n      dup1\n        /* \"#utility.yul\":589:601   */\n      revert\n        /* \"#utility.yul\":541:603   */\n    tag_364:\n        /* \"#utility.yul\":489:609   */\n      pop\n      jump\t// out\n        /* \"#utility.yul\":615:752   */\n    tag_315:\n        /* \"#utility.yul\":660:665   */\n      0x00\n        /* \"#utility.yul\":698:704   */\n      dup2\n        /* \"#utility.yul\":685:705   */\n      calldataload\n        /* \"#utility.yul\":676:705   */\n      swap1\n      pop\n        /* \"#utility.yul\":714:746   */\n      tag_366\n        /* \"#utility.yul\":740:745   */\n      dup2\n        /* \"#utility.yul\":714:746   */\n      tag_314\n      jump\t// in\n    tag_366:\n        /* \"#utility.yul\":615:752   */\n      swap3\n      swap2\n      pop\n      pop\n      jump\t// out\n        /* \"#utility.yul\":758:1085   */\n    tag_30:\n        /* \"#utility.yul\":816:822   */\n      0x00\n        /* \"#utility.yul\":865:867   */\n      0x20\n        /* \"#utility.yul\":853:862   */\n      dup3\n        /* \"#utility.yul\":844:851   */\n      dup5\n        /* \"#utility.yul\":840:863   */\n      sub\n        /* \"#utility.yul\":836:868   */\n      slt\n        /* \"#utility.yul\":833:952   */\n      iszero\n      tag_368\n      jumpi\n        /* \"#utility.yul\":871:950   */\n      tag_369\n      tag_311\n      jump\t// in\n    tag_369:\n        /* \"#utility.yul\":833:952   */\n    tag_368:\n        /* \"#utility.yul\":991:992   */\n      0x00\n        /* \"#utility.yul\":1016:1068   */\n      tag_370\n        /* \"#utility.yul\":1060:1067   */\n      dup5\n        /* \"#utility.yul\":1051:1057   */\n      dup3\n        /* \"#utility.yul\":1040:1049   */\n      dup6\n        /* \"#utility.yul\":1036:1058   */\n      add\n        /* \"#utility.yul\":1016:1068   */\n      tag_315\n      jump\t// in\n    tag_370:\n        /* \"#utility.yul\":1006:1068   */\n      swap2\n      pop\n        /* \"#utility.yul\":962:1078   */\n      pop\n        /* \"#utility.yul\":758:1085   */\n      swap3\n      swap2\n      pop\n      pop\n      jump\t// out\n        /* \"#utility.yul\":1091:1181   */\n    tag_316:\n        /* \"#utility.yul\":1125:1132   */\n      0x00\n        /* \"#utility.yul\":1168:1173   */\n      dup2\n        /* \"#utility.yul\":1161:1174   */\n      iszero\n        /* \"#utility.yul\":1154:1175   */\n      iszero\n        /* \"#utility.yul\":1143:1175   */\n      swap1\n      pop\n        /* \"#utility.yul\":1091:1181   */\n      swap2\n      swap1\n      pop\n      jump\t// out\n        /* \"#utility.yul\":1187:1296   */\n    tag_317:\n        /* \"#utility.yul\":1268:1289   */\n      tag_373\n        /* \"#utility.yul\":1283:1288   */\n      dup2\n        /* \"#utility.yul\":1268:1289   */\n      tag_316\n      jump\t// in\n    tag_373:\n        /* \"#utility.yul\":1263:1266   */\n      dup3\n        /* \"#utility.yul\":1256:1290   */\n      mstore\n        /* \"#utility.yul\":1187:1296   */\n      pop\n      pop\n      jump\t// out\n        /* \"#utility.yul\":1302:1512   */\n    tag_33:\n        /* \"#utility.yul\":1389:1393   */\n      0x00\n        /* \"#utility.yul\":1427:1429   */\n      0x20\n        /* \"#utility.yul\":1416:1425   */\n      dup3\n        /* \"#utility.yul\":1412:1430   */\n      add\n        /* \"#utility.yul\":1404:1430   */\n      swap1\n      pop\n        /* \"#utility.yul\":1440:1505   */\n      tag_375\n        /* \"#utility.yul\":1502:1503   */\n      0x00\n        /* \"#utility.yul\":1491:1500   */\n      dup4\n        /* \"#utility.yul\":1487:1504   */\n      add\n        /* \"#utility.yul\":1478:1484   */\n      dup5\n        /* \"#utility.yul\":1440:1505   */\n      tag_317\n      jump\t// in\n    tag_375:\n        /* \"#utility.yul\":1302:1512   */\n      swap3\n      swap2\n      pop\n      pop\n      jump\t// out\n        /* \"#utility.yul\":1518:1617   */\n    tag_318:\n        /* \"#utility.yul\":1570:1576   */\n      0x00\n        /* \"#utility.yul\":1604:1609   */\n      dup2\n        /* \"#utility.yul\":1598:1610   */\n      mload\n        /* \"#utility.yul\":1588:1610   */\n      swap1\n      pop\n        /* \"#utility.yul\":1518:1617   */\n      swap2\n      swap1\n      pop\n      jump\t// out\n        /* \"#utility.yul\":1623:1792   */\n    tag_319:\n        /* \"#utility.yul\":1707:1718   */\n      0x00\n        /* \"#utility.yul\":1741:1747   */\n      dup3\n        /* \"#utility.yul\":1736:1739   */\n      dup3\n        /* \"#utility.yul\":1729:1748   */\n      mstore\n        /* \"#utility.yul\":1781:1785   */\n      0x20\n        /* \"#utility.yul\":1776:1779   */\n      dup3\n        /* \"#utility.yul\":1772:1786   */\n      add\n        /* \"#utility.yul\":1757:1786   */\n      swap1\n      pop\n        /* \"#utility.yul\":1623:1792   */\n      swap3\n      swap2\n      pop\n      pop\n      jump\t// out\n        /* \"#utility.yul\":1798:2044   */\n    tag_320:\n        /* \"#utility.yul\":1879:1880   */\n      0x00\n        /* \"#utility.yul\":1889:2002   */\n    tag_379:\n        /* \"#utility.yul\":1903:1909   */\n      dup4\n        /* \"#utility.yul\":1900:1901   */\n      dup2\n        /* \"#utility.yul\":1897:1910   */\n      lt\n        /* \"#utility.yul\":1889:2002   */\n      iszero\n      tag_381\n      jumpi\n        /* \"#utility.yul\":1988:1989   */\n      dup1\n        /* \"#utility.yul\":1983:1986   */\n      dup3\n        /* \"#utility.yul\":1979:1990   */\n      add\n        /* \"#utility.yul\":1973:1991   */\n      mload\n        /* \"#utility.yul\":1969:1970   */\n      dup2\n        /* \"#utility.yul\":1964:1967   */\n      dup5\n        /* \"#utility.yul\":1960:1971   */\n      add\n        /* \"#utility.yul\":1953:1992   */\n      mstore\n        /* \"#utility.yul\":1925:1927   */\n      0x20\n        /* \"#utility.yul\":1922:1923   */\n      dup2\n        /* \"#utility.yul\":1918:1928   */\n      add\n        /* \"#utility.yul\":1913:1928   */\n      swap1\n      pop\n        /* \"#utility.yul\":1889:2002   */\n      jump(tag_379)\n    tag_381:\n        /* \"#utility.yul\":2036:2037   */\n      0x00\n        /* \"#utility.yul\":2027:2033   */\n      dup5\n        /* \"#utility.yul\":2022:2025   */\n      dup5\n        /* \"#utility.yul\":2018:2034   */\n      add\n        /* \"#utility.yul\":2011:2038   */\n      mstore\n        /* \"#utility.yul\":1860:2044   */\n      pop\n        /* \"#utility.yul\":1798:2044   */\n      pop\n      pop\n      pop\n      jump\t// out\n        /* \"#utility.yul\":2050:2152   */\n    tag_321:\n        /* \"#utility.yul\":2091:2097   */\n      0x00\n        /* \"#utility.yul\":2142:2144   */\n      0x1f\n        /* \"#utility.yul\":2138:2145   */\n      not\n        /* \"#utility.yul\":2133:2135   */\n      0x1f\n        /* \"#utility.yul\":2126:2131   */\n      dup4\n        /* \"#utility.yul\":2122:2136   */\n      add\n        /* \"#utility.yul\":2118:2146   */\n      and\n        /* \"#utility.yul\":2108:2146   */\n      swap1\n      pop\n        /* \"#utility.yul\":2050:2152   */\n      swap2\n      swap1\n      pop\n      jump\t// out\n        /* \"#utility.yul\":2158:2535   */\n    tag_322:\n        /* \"#utility.yul\":2246:2249   */\n      0x00\n        /* \"#utility.yul\":2274:2313   */\n      tag_384\n        /* \"#utility.yul\":2307:2312   */\n      dup3\n        /* \"#utility.yul\":2274:2313   */\n      tag_318\n      jump\t// in\n    tag_384:\n        /* \"#utility.yul\":2329:2400   */\n      tag_385\n        /* \"#utility.yul\":2393:2399   */\n      dup2\n        /* \"#utility.yul\":2388:2391   */\n      dup6\n        /* \"#utility.yul\":2329:2400   */\n      tag_319\n      jump\t// in\n    tag_385:\n        /* \"#utility.yul\":2322:2400   */\n      swap4\n      pop\n        /* \"#utility.yul\":2409:2474   */\n      tag_386\n        /* \"#utility.yul\":2467:2473   */\n      dup2\n        /* \"#utility.yul\":2462:2465   */\n      dup6\n        /* \"#utility.yul\":2455:2459   */\n      0x20\n        /* \"#utility.yul\":2448:2453   */\n      dup7\n        /* \"#utility.yul\":2444:2460   */\n      add\n        /* \"#utility.yul\":2409:2474   */\n      tag_320\n      jump\t// in\n    tag_386:\n        /* \"#utility.yul\":2499:2528   */\n      tag_387\n        /* \"#utility.yul\":2521:2527   */\n      dup2\n        /* \"#utility.yul\":2499:2528   */\n      tag_321\n      jump\t// in\n    tag_387:\n        /* \"#utility.yul\":2494:2497   */\n      dup5\n        /* \"#utility.yul\":2490:2529   */\n      add\n        /* \"#utility.yul\":2483:2529   */\n      swap2\n      pop\n        /* \"#utility.yul\":2250:2535   */\n      pop\n        /* \"#utility.yul\":2158:2535   */\n      swap3\n      swap2\n      pop\n      pop\n      jump\t// out\n        /* \"#utility.yul\":2541:2854   */\n    tag_37:\n        /* \"#utility.yul\":2654:2658   */\n      0x00\n        /* \"#utility.yul\":2692:2694   */\n      0x20\n        /* \"#utility.yul\":2681:2690   */\n      dup3\n        /* \"#utility.yul\":2677:2695   */\n      add\n        /* \"#utility.yul\":2669:2695   */\n      swap1\n      pop\n        /* \"#utility.yul\":2741:2750   */\n      dup2\n        /* \"#utility.yul\":2735:2739   */\n      dup2\n        /* \"#utility.yul\":2731:2751   */\n      sub\n        /* \"#utility.yul\":2727:2728   */\n      0x00\n        /* \"#utility.yul\":2716:2725   */\n      dup4\n        /* \"#utility.yul\":2712:2729   */\n      add\n        /* \"#utility.yul\":2705:2752   */\n      mstore\n        /* \"#utility.yul\":2769:2847   */\n      tag_389\n        /* \"#utility.yul\":2842:2846   */\n      dup2\n        /* \"#utility.yul\":2833:2839   */\n      dup5\n        /* \"#utility.yul\":2769:2847   */\n      tag_322\n      jump\t// in\n    tag_389:\n        /* \"#utility.yul\":2761:2847   */\n      swap1\n      pop\n        /* \"#utility.yul\":2541:2854   */\n      swap3\n      swap2\n      pop\n      pop\n      jump\t// out\n        /* \"#utility.yul\":2860:2937   */\n    tag_323:\n        /* \"#utility.yul\":2897:2904   */\n      0x00\n        /* \"#utility.yul\":2926:2931   */\n      dup2\n        /* \"#utility.yul\":2915:2931   */\n      swap1\n      pop\n        /* \"#utility.yul\":2860:2937   */\n      swap2\n      swap1\n      pop\n      jump\t// out\n        /* \"#utility.yul\":2943:3065   */\n    tag_324:\n        /* \"#utility.yul\":3016:3040   */\n      tag_392\n        /* \"#utility.yul\":3034:3039   */\n      dup2\n        /* \"#utility.yul\":3016:3040   */\n      tag_323\n      jump\t// in\n    tag_392:\n        /* \"#utility.yul\":3009:3014   */\n      dup2\n        /* \"#utility.yul\":3006:3041   */\n      eq\n        /* \"#utility.yul\":2996:3059   */\n      tag_393\n      jumpi\n        /* \"#utility.yul\":3055:3056   */\n      0x00\n        /* \"#utility.yul\":3052:3053   */\n      dup1\n        /* \"#utility.yul\":3045:3057   */\n      revert\n        /* \"#utility.yul\":2996:3059   */\n    tag_393:\n        /* \"#utility.yul\":2943:3065   */\n      pop\n      jump\t// out\n        /* \"#utility.yul\":3071:3210   */\n    tag_325:\n        /* \"#utility.yul\":3117:3122   */\n      0x00\n        /* \"#utility.yul\":3155:3161   */\n      dup2\n        /* \"#utility.yul\":3142:3162   */\n      calldataload\n        /* \"#utility.yul\":3133:3162   */\n      swap1\n      pop\n        /* \"#utility.yul\":3171:3204   */\n      tag_395\n        /* \"#utility.yul\":3198:3203   */\n      dup2\n        /* \"#utility.yul\":3171:3204   */\n      tag_324\n      jump\t// in\n    tag_395:\n        /* \"#utility.yul\":3071:3210   */\n      swap3\n      swap2\n      pop\n      pop\n      jump\t// out\n        /* \"#utility.yul\":3216:3545   */\n    tag_40:\n        /* \"#utility.yul\":3275:3281   */\n      0x00\n        /* \"#utility.yul\":3324:3326   */\n      0x20\n        /* \"#utility.yul\":3312:3321   */\n      dup3\n        /* \"#utility.yul\":3303:3310   */\n      dup5\n        /* \"#utility.yul\":3299:3322   */\n      sub\n        /* \"#utility.yul\":3295:3327   */\n      slt\n        /* \"#utility.yul\":3292:3411   */\n      iszero\n      tag_397\n      jumpi\n        /* \"#utility.yul\":3330:3409   */\n      tag_398\n      tag_311\n      jump\t// in\n    tag_398:\n        /* \"#utility.yul\":3292:3411   */\n    tag_397:\n        /* \"#utility.yul\":3450:3451   */\n      0x00\n        /* \"#utility.yul\":3475:3528   */\n      tag_399\n        /* \"#utility.yul\":3520:3527   */\n      dup5\n        /* \"#utility.yul\":3511:3517   */\n      dup3\n        /* \"#utility.yul\":3500:3509   */\n      dup6\n        /* \"#utility.yul\":3496:3518   */\n      add\n        /* \"#utility.yul\":3475:3528   */\n      tag_325\n      jump\t// in\n    tag_399:\n        /* \"#utility.yul\":3465:3528   */\n      swap2\n      pop\n        /* \"#utility.yul\":3421:3538   */\n      pop\n        /* \"#utility.yul\":3216:3545   */\n      swap3\n      swap2\n      pop\n      pop\n      jump\t// out\n        /* \"#utility.yul\":3551:3677   */\n    tag_326:\n        /* \"#utility.yul\":3588:3595   */\n      0x00\n        /* \"#utility.yul\":3628:3670   */\n      0xffffffffffffffffffffffffffffffffffffffff\n        /* \"#utility.yul\":3621:3626   */\n      dup3\n        /* \"#utility.yul\":3617:3671   */\n      and\n        /* \"#utility.yul\":3606:3671   */\n      swap1\n      pop\n        /* \"#utility.yul\":3551:3677   */\n      swap2\n      swap1\n      pop\n      jump\t// out\n        /* \"#utility.yul\":3683:3779   */\n    tag_327:\n        /* \"#utility.yul\":3720:3727   */\n      0x00\n        /* \"#utility.yul\":3749:3773   */\n      tag_402\n        /* \"#utility.yul\":3767:3772   */\n      dup3\n        /* \"#utility.yul\":3749:3773   */\n      tag_326\n      jump\t// in\n    tag_402:\n        /* \"#utility.yul\":3738:3773   */\n      swap1\n      pop\n        /* \"#utility.yul\":3683:3779   */\n      swap2\n      swap1\n      pop\n      jump\t// out\n        /* \"#utility.yul\":3785:3903   */\n    tag_328:\n        /* \"#utility.yul\":3872:3896   */\n      tag_404\n        /* \"#utility.yul\":3890:3895   */\n      dup2\n        /* \"#utility.yul\":3872:3896   */\n      tag_327\n      jump\t// in\n    tag_404:\n        /* \"#utility.yul\":3867:3870   */\n      dup3\n        /* \"#utility.yul\":3860:3897   */\n      mstore\n        /* \"#utility.yul\":3785:3903   */\n      pop\n      pop\n      jump\t// out\n        /* \"#utility.yul\":3909:4131   */\n    tag_43:\n        /* \"#utility.yul\":4002:4006   */\n      0x00\n        /* \"#utility.yul\":4040:4042   */\n      0x20\n        /* \"#utility.yul\":4029:4038   */\n      dup3\n        /* \"#utility.yul\":4025:4043   */\n      add\n        /* \"#utility.yul\":4017:4043   */\n      swap1\n      pop\n        /* \"#utility.yul\":4053:4124   */\n      tag_406\n        /* \"#utility.yul\":4121:4122   */\n      0x00\n        /* \"#utility.yul\":4110:4119   */\n      dup4\n        /* \"#utility.yul\":4106:4123   */\n      add\n        /* \"#utility.yul\":4097:4103   */\n      dup5\n        /* \"#utility.yul\":4053:4124   */\n      tag_328\n      jump\t// in\n    tag_406:\n        /* \"#utility.yul\":3909:4131   */\n      swap3\n      swap2\n      pop\n      pop\n      jump\t// out\n        /* \"#utility.yul\":4137:4259   */\n    tag_329:\n        /* \"#utility.yul\":4210:4234   */\n      tag_408\n        /* \"#utility.yul\":4228:4233   */\n      dup2\n        /* \"#utility.yul\":4210:4234   */\n      tag_327\n      jump\t// in\n    tag_408:\n        /* \"#utility.yul\":4203:4208   */\n      dup2\n        /* \"#utility.yul\":4200:4235   */\n      eq\n        /* \"#utility.yul\":4190:4253   */\n      tag_409\n      jumpi\n        /* \"#utility.yul\":4249:4250   */\n      0x00\n        /* \"#utility.yul\":4246:4247   */\n      dup1\n        /* \"#utility.yul\":4239:4251   */\n      revert\n        /* \"#utility.yul\":4190:4253   */\n    tag_409:\n        /* \"#utility.yul\":4137:4259   */\n      pop\n      jump\t// out\n        /* \"#utility.yul\":4265:4404   */\n    tag_330:\n        /* \"#utility.yul\":4311:4316   */\n      0x00\n        /* \"#utility.yul\":4349:4355   */\n      dup2\n        /* \"#utility.yul\":4336:4356   */\n      calldataload\n        /* \"#utility.yul\":4327:4356   */\n      swap1\n      pop\n        /* \"#utility.yul\":4365:4398   */\n      tag_411\n        /* \"#utility.yul\":4392:4397   */\n      dup2\n        /* \"#utility.yul\":4365:4398   */\n      tag_329\n      jump\t// in\n    tag_411:\n        /* \"#utility.yul\":4265:4404   */\n      swap3\n      swap2\n      pop\n      pop\n      jump\t// out\n        /* \"#utility.yul\":4410:4884   */\n    tag_46:\n        /* \"#utility.yul\":4478:4484   */\n      0x00\n        /* \"#utility.yul\":4486:4492   */\n      dup1\n        /* \"#utility.yul\":4535:4537   */\n      0x40\n        /* \"#utility.yul\":4523:4532   */\n      dup4\n        /* \"#utility.yul\":4514:4521   */\n      dup6\n        /* \"#utility.yul\":4510:4533   */\n      sub\n        /* \"#utility.yul\":4506:4538   */\n      slt\n        /* \"#utility.yul\":4503:4622   */\n      iszero\n      tag_413\n      jumpi\n        /* \"#utility.yul\":4541:4620   */\n      tag_414\n      tag_311\n      jump\t// in\n    tag_414:\n        /* \"#utility.yul\":4503:4622   */\n    tag_413:\n        /* \"#utility.yul\":4661:4662   */\n      0x00\n        /* \"#utility.yul\":4686:4739   */\n      tag_415\n        /* \"#utility.yul\":4731:4738   */\n      dup6\n        /* \"#utility.yul\":4722:4728   */\n      dup3\n        /* \"#utility.yul\":4711:4720   */\n      dup7\n        /* \"#utility.yul\":4707:4729   */\n      add\n        /* \"#utility.yul\":4686:4739   */\n      tag_330\n      jump\t// in\n    tag_415:\n        /* \"#utility.yul\":4676:4739   */\n      swap3\n      pop\n        /* \"#utility.yul\":4632:4749   */\n      pop\n        /* \"#utility.yul\":4788:4790   */\n      0x20\n        /* \"#utility.yul\":4814:4867   */\n      tag_416\n        /* \"#utility.yul\":4859:4866   */\n      dup6\n        /* \"#utility.yul\":4850:4856   */\n      dup3\n        /* \"#utility.yul\":4839:4848   */\n      dup7\n        /* \"#utility.yul\":4835:4857   */\n      add\n        /* \"#utility.yul\":4814:4867   */\n      tag_325\n      jump\t// in\n    tag_416:\n        /* \"#utility.yul\":4804:4867   */\n      swap2\n      pop\n        /* \"#utility.yul\":4759:4877   */\n      pop\n        /* \"#utility.yul\":4410:4884   */\n      swap3\n      pop\n      swap3\n      swap1\n      pop\n      jump\t// out\n        /* \"#utility.yul\":4890:5008   */\n    tag_331:\n        /* \"#utility.yul\":4977:5001   */\n      tag_418\n        /* \"#utility.yul\":4995:5000   */\n      dup2\n        /* \"#utility.yul\":4977:5001   */\n      tag_323\n      jump\t// in\n    tag_418:\n        /* \"#utility.yul\":4972:4975   */\n      dup3\n        /* \"#utility.yul\":4965:5002   */\n      mstore\n        /* \"#utility.yul\":4890:5008   */\n      pop\n      pop\n      jump\t// out\n        /* \"#utility.yul\":5014:5236   */\n    tag_51:\n        /* \"#utility.yul\":5107:5111   */\n      0x00\n        /* \"#utility.yul\":5145:5147   */\n      0x20\n        /* \"#utility.yul\":5134:5143   */\n      dup3\n        /* \"#utility.yul\":5130:5148   */\n      add\n        /* \"#utility.yul\":5122:5148   */\n      swap1\n      pop\n        /* \"#utility.yul\":5158:5229   */\n      tag_420\n        /* \"#utility.yul\":5226:5227   */\n      0x00\n        /* \"#utility.yul\":5215:5224   */\n      dup4\n        /* \"#utility.yul\":5211:5228   */\n      add\n        /* \"#utility.yul\":5202:5208   */\n      dup5\n        /* \"#utility.yul\":5158:5229   */\n      tag_331\n      jump\t// in\n    tag_420:\n        /* \"#utility.yul\":5014:5236   */\n      swap3\n      swap2\n      pop\n      pop\n      jump\t// out\n        /* \"#utility.yul\":5242:5861   */\n    tag_54:\n        /* \"#utility.yul\":5319:5325   */\n      0x00\n        /* \"#utility.yul\":5327:5333   */\n      dup1\n        /* \"#utility.yul\":5335:5341   */\n      0x00\n        /* \"#utility.yul\":5384:5386   */\n      0x60\n        /* \"#utility.yul\":5372:5381   */\n      dup5\n        /* \"#utility.yul\":5363:5370   */\n      dup7\n        /* \"#utility.yul\":5359:5382   */\n      sub\n        /* \"#utility.yul\":5355:5387   */\n      slt\n        /* \"#utility.yul\":5352:5471   */\n      iszero\n      tag_422\n      jumpi\n        /* \"#utility.yul\":5390:5469   */\n      tag_423\n      tag_311\n      jump\t// in\n    tag_423:\n        /* \"#utility.yul\":5352:5471   */\n    tag_422:\n        /* \"#utility.yul\":5510:5511   */\n      0x00\n        /* \"#utility.yul\":5535:5588   */\n      tag_424\n        /* \"#utility.yul\":5580:5587   */\n      dup7\n        /* \"#utility.yul\":5571:5577   */\n      dup3\n        /* \"#utility.yul\":5560:5569   */\n      dup8\n        /* \"#utility.yul\":5556:5578   */\n      add\n        /* \"#utility.yul\":5535:5588   */\n      tag_330\n      jump\t// in\n    tag_424:\n        /* \"#utility.yul\":5525:5588   */\n      swap4\n      pop\n        /* \"#utility.yul\":5481:5598   */\n      pop\n        /* \"#utility.yul\":5637:5639   */\n      0x20\n        /* \"#utility.yul\":5663:5716   */\n      tag_425\n        /* \"#utility.yul\":5708:5715   */\n      dup7\n        /* \"#utility.yul\":5699:5705   */\n      dup3\n        /* \"#utility.yul\":5688:5697   */\n      dup8\n        /* \"#utility.yul\":5684:5706   */\n      add\n        /* \"#utility.yul\":5663:5716   */\n      tag_330\n      jump\t// in\n    tag_425:\n        /* \"#utility.yul\":5653:5716   */\n      swap3\n      pop\n        /* \"#utility.yul\":5608:5726   */\n      pop\n        /* \"#utility.yul\":5765:5767   */\n      0x40\n        /* \"#utility.yul\":5791:5844   */\n      tag_426\n        /* \"#utility.yul\":5836:5843   */\n      dup7\n        /* \"#utility.yul\":5827:5833   */\n      dup3\n        /* \"#utility.yul\":5816:5825   */\n      dup8\n        /* \"#utility.yul\":5812:5834   */\n      add\n        /* \"#utility.yul\":5791:5844   */\n      tag_325\n      jump\t// in\n    tag_426:\n        /* \"#utility.yul\":5781:5844   */\n      swap2\n      pop\n        /* \"#utility.yul\":5736:5854   */\n      pop\n        /* \"#utility.yul\":5242:5861   */\n      swap3\n      pop\n      swap3\n      pop\n      swap3\n      jump\t// out\n        /* \"#utility.yul\":5867:6196   */\n    tag_81:\n        /* \"#utility.yul\":5926:5932   */\n      0x00\n        /* \"#utility.yul\":5975:5977   */\n      0x20\n        /* \"#utility.yul\":5963:5972   */\n      dup3\n        /* \"#utility.yul\":5954:5961   */\n      dup5\n        /* \"#utility.yul\":5950:5973   */\n      sub\n        /* \"#utility.yul\":5946:5978   */\n      slt\n        /* \"#utility.yul\":5943:6062   */\n      iszero\n      tag_428\n      jumpi\n        /* \"#utility.yul\":5981:6060   */\n      tag_429\n      tag_311\n      jump\t// in\n    tag_429:\n        /* \"#utility.yul\":5943:6062   */\n    tag_428:\n        /* \"#utility.yul\":6101:6102   */\n      0x00\n        /* \"#utility.yul\":6126:6179   */\n      tag_430\n        /* \"#utility.yul\":6171:6178   */\n      dup5\n        /* \"#utility.yul\":6162:6168   */\n      dup3\n        /* \"#utility.yul\":6151:6160   */\n      dup6\n        /* \"#utility.yul\":6147:6169   */\n      add\n        /* \"#utility.yul\":6126:6179   */\n      tag_330\n      jump\t// in\n    tag_430:\n        /* \"#utility.yul\":6116:6179   */\n      swap2\n      pop\n        /* \"#utility.yul\":6072:6189   */\n      pop\n        /* \"#utility.yul\":5867:6196   */\n      swap3\n      swap2\n      pop\n      pop\n      jump\t// out\n        /* \"#utility.yul\":6202:6318   */\n    tag_332:\n        /* \"#utility.yul\":6272:6293   */\n      tag_432\n        /* \"#utility.yul\":6287:6292   */\n      dup2\n        /* \"#utility.yul\":6272:6293   */\n      tag_316\n      jump\t// in\n    tag_432:\n        /* \"#utility.yul\":6265:6270   */\n      dup2\n        /* \"#utility.yul\":6262:6294   */\n      eq\n        /* \"#utility.yul\":6252:6312   */\n      tag_433\n      jumpi\n        /* \"#utility.yul\":6308:6309   */\n      0x00\n        /* \"#utility.yul\":6305:6306   */\n      dup1\n        /* \"#utility.yul\":6298:6310   */\n      revert\n        /* \"#utility.yul\":6252:6312   */\n    tag_433:\n        /* \"#utility.yul\":6202:6318   */\n      pop\n      jump\t// out\n        /* \"#utility.yul\":6324:6457   */\n    tag_333:\n        /* \"#utility.yul\":6367:6372   */\n      0x00\n        /* \"#utility.yul\":6405:6411   */\n      dup2\n        /* \"#utility.yul\":6392:6412   */\n      calldataload\n        /* \"#utility.yul\":6383:6412   */\n      swap1\n      pop\n        /* \"#utility.yul\":6421:6451   */\n      tag_435\n        /* \"#utility.yul\":6445:6450   */\n      dup2\n        /* \"#utility.yul\":6421:6451   */\n      tag_332\n      jump\t// in\n    tag_435:\n        /* \"#utility.yul\":6324:6457   */\n      swap3\n      swap2\n      pop\n      pop\n      jump\t// out\n        /* \"#utility.yul\":6463:6931   */\n    tag_94:\n        /* \"#utility.yul\":6528:6534   */\n      0x00\n        /* \"#utility.yul\":6536:6542   */\n      dup1\n        /* \"#utility.yul\":6585:6587   */\n      0x40\n        /* \"#utility.yul\":6573:6582   */\n      dup4\n        /* \"#utility.yul\":6564:6571   */\n      dup6\n        /* \"#utility.yul\":6560:6583   */\n      sub\n        /* \"#utility.yul\":6556:6588   */\n      slt\n        /* \"#utility.yul\":6553:6672   */\n      iszero\n      tag_437\n      jumpi\n        /* \"#utility.yul\":6591:6670   */\n      tag_438\n      tag_311\n      jump\t// in\n    tag_438:\n        /* \"#utility.yul\":6553:6672   */\n    tag_437:\n        /* \"#utility.yul\":6711:6712   */\n      0x00\n        /* \"#utility.yul\":6736:6789   */\n      tag_439\n        /* \"#utility.yul\":6781:6788   */\n      dup6\n        /* \"#utility.yul\":6772:6778   */\n      dup3\n        /* \"#utility.yul\":6761:6770   */\n      dup7\n        /* \"#utility.yul\":6757:6779   */\n      add\n        /* \"#utility.yul\":6736:6789   */\n      tag_330\n      jump\t// in\n    tag_439:\n        /* \"#utility.yul\":6726:6789   */\n      swap3\n      pop\n        /* \"#utility.yul\":6682:6799   */\n      pop\n        /* \"#utility.yul\":6838:6840   */\n      0x20\n        /* \"#utility.yul\":6864:6914   */\n      tag_440\n        /* \"#utility.yul\":6906:6913   */\n      dup6\n        /* \"#utility.yul\":6897:6903   */\n      dup3\n        /* \"#utility.yul\":6886:6895   */\n      dup7\n        /* \"#utility.yul\":6882:6904   */\n      add\n        /* \"#utility.yul\":6864:6914   */\n      tag_333\n      jump\t// in\n    tag_440:\n        /* \"#utility.yul\":6854:6914   */\n      swap2\n      pop\n        /* \"#utility.yul\":6809:6924   */\n      pop\n        /* \"#utility.yul\":6463:6931   */\n      swap3\n      pop\n      swap3\n      swap1\n      pop\n      jump\t// out\n        /* \"#utility.yul\":6937:7054   */\n    tag_334:\n        /* \"#utility.yul\":7046:7047   */\n      0x00\n        /* \"#utility.yul\":7043:7044   */\n      dup1\n        /* \"#utility.yul\":7036:7048   */\n      revert\n        /* \"#utility.yul\":7060:7177   */\n    tag_335:\n        /* \"#utility.yul\":7169:7170   */\n      0x00\n        /* \"#utility.yul\":7166:7167   */\n      dup1\n        /* \"#utility.yul\":7159:7171   */\n      revert\n        /* \"#utility.yul\":7183:7363   */\n    tag_258:\n        /* \"#utility.yul\":7231:7308   */\n      0x4e487b7100000000000000000000000000000000000000000000000000000000\n        /* \"#utility.yul\":7228:7229   */\n      0x00\n        /* \"#utility.yul\":7221:7309   */\n      mstore\n        /* \"#utility.yul\":7328:7332   */\n      0x41\n        /* \"#utility.yul\":7325:7326   */\n      0x04\n        /* \"#utility.yul\":7318:7333   */\n      mstore\n        /* \"#utility.yul\":7352:7356   */\n      0x24\n        /* \"#utility.yul\":7349:7350   */\n      0x00\n        /* \"#utility.yul\":7342:7357   */\n      revert\n        /* \"#utility.yul\":7369:7650   */\n    tag_336:\n        /* \"#utility.yul\":7452:7479   */\n      tag_445\n        /* \"#utility.yul\":7474:7478   */\n      dup3\n        /* \"#utility.yul\":7452:7479   */\n      tag_321\n      jump\t// in\n    tag_445:\n        /* \"#utility.yul\":7444:7450   */\n      dup2\n        /* \"#utility.yul\":7440:7480   */\n      add\n        /* \"#utility.yul\":7582:7588   */\n      dup2\n        /* \"#utility.yul\":7570:7580   */\n      dup2\n        /* \"#utility.yul\":7567:7589   */\n      lt\n        /* \"#utility.yul\":7546:7564   */\n      0xffffffffffffffff\n        /* \"#utility.yul\":7534:7544   */\n      dup3\n        /* \"#utility.yul\":7531:7565   */\n      gt\n        /* \"#utility.yul\":7528:7590   */\n      or\n        /* \"#utility.yul\":7525:7613   */\n      iszero\n      tag_446\n      jumpi\n        /* \"#utility.yul\":7593:7611   */\n      tag_447\n      tag_258\n      jump\t// in\n    tag_447:\n        /* \"#utility.yul\":7525:7613   */\n    tag_446:\n        /* \"#utility.yul\":7633:7643   */\n      dup1\n        /* \"#utility.yul\":7629:7631   */\n      0x40\n        /* \"#utility.yul\":7622:7644   */\n      mstore\n        /* \"#utility.yul\":7412:7650   */\n      pop\n        /* \"#utility.yul\":7369:7650   */\n      pop\n      pop\n      jump\t// out\n        /* \"#utility.yul\":7656:7785   */\n    tag_337:\n        /* \"#utility.yul\":7690:7696   */\n      0x00\n        /* \"#utility.yul\":7717:7737   */\n      tag_449\n      tag_310\n      jump\t// in\n    tag_449:\n        /* \"#utility.yul\":7707:7737   */\n      swap1\n      pop\n        /* \"#utility.yul\":7746:7779   */\n      tag_450\n        /* \"#utility.yul\":7774:7778   */\n      dup3\n        /* \"#utility.yul\":7766:7772   */\n      dup3\n        /* \"#utility.yul\":7746:7779   */\n      tag_336\n      jump\t// in\n    tag_450:\n        /* \"#utility.yul\":7656:7785   */\n      swap2\n      swap1\n      pop\n      jump\t// out\n        /* \"#utility.yul\":7791:8098   */\n    tag_338:\n        /* \"#utility.yul\":7852:7856   */\n      0x00\n        /* \"#utility.yul\":7942:7960   */\n      0xffffffffffffffff\n        /* \"#utility.yul\":7934:7940   */\n      dup3\n        /* \"#utility.yul\":7931:7961   */\n      gt\n        /* \"#utility.yul\":7928:7984   */\n      iszero\n      tag_452\n      jumpi\n        /* \"#utility.yul\":7964:7982   */\n      tag_453\n      tag_258\n      jump\t// in\n    tag_453:\n        /* \"#utility.yul\":7928:7984   */\n    tag_452:\n        /* \"#utility.yul\":8002:8031   */\n      tag_454\n        /* \"#utility.yul\":8024:8030   */\n      dup3\n        /* \"#utility.yul\":8002:8031   */\n      tag_321\n      jump\t// in\n    tag_454:\n        /* \"#utility.yul\":7994:8031   */\n      swap1\n      pop\n        /* \"#utility.yul\":8086:8090   */\n      0x20\n        /* \"#utility.yul\":8080:8084   */\n      dup2\n        /* \"#utility.yul\":8076:8091   */\n      add\n        /* \"#utility.yul\":8068:8091   */\n      swap1\n      pop\n        /* \"#utility.yul\":7791:8098   */\n      swap2\n      swap1\n      pop\n      jump\t// out\n        /* \"#utility.yul\":8104:8250   */\n    tag_339:\n        /* \"#utility.yul\":8201:8207   */\n      dup3\n        /* \"#utility.yul\":8196:8199   */\n      dup2\n        /* \"#utility.yul\":8191:8194   */\n      dup4\n        /* \"#utility.yul\":8178:8208   */\n      calldatacopy\n        /* \"#utility.yul\":8242:8243   */\n      0x00\n        /* \"#utility.yul\":8233:8239   */\n      dup4\n        /* \"#utility.yul\":8228:8231   */\n      dup4\n        /* \"#utility.yul\":8224:8240   */\n      add\n        /* \"#utility.yul\":8217:8244   */\n      mstore\n        /* \"#utility.yul\":8104:8250   */\n      pop\n      pop\n      pop\n      jump\t// out\n        /* \"#utility.yul\":8256:8679   */\n    tag_340:\n        /* \"#utility.yul\":8333:8338   */\n      0x00\n        /* \"#utility.yul\":8358:8423   */\n      tag_457\n        /* \"#utility.yul\":8374:8422   */\n      tag_458\n        /* \"#utility.yul\":8415:8421   */\n      dup5\n        /* \"#utility.yul\":8374:8422   */\n      tag_338\n      jump\t// in\n    tag_458:\n        /* \"#utility.yul\":8358:8423   */\n      tag_337\n      jump\t// in\n    tag_457:\n        /* \"#utility.yul\":8349:8423   */\n      swap1\n      pop\n        /* \"#utility.yul\":8446:8452   */\n      dup3\n        /* \"#utility.yul\":8439:8444   */\n      dup2\n        /* \"#utility.yul\":8432:8453   */\n      mstore\n        /* \"#utility.yul\":8484:8488   */\n      0x20\n        /* \"#utility.yul\":8477:8482   */\n      dup2\n        /* \"#utility.yul\":8473:8489   */\n      add\n        /* \"#utility.yul\":8522:8525   */\n      dup5\n        /* \"#utility.yul\":8513:8519   */\n      dup5\n        /* \"#utility.yul\":8508:8511   */\n      dup5\n        /* \"#utility.yul\":8504:8520   */\n      add\n        /* \"#utility.yul\":8501:8526   */\n      gt\n        /* \"#utility.yul\":8498:8610   */\n      iszero\n      tag_459\n      jumpi\n        /* \"#utility.yul\":8529:8608   */\n      tag_460\n      tag_335\n      jump\t// in\n    tag_460:\n        /* \"#utility.yul\":8498:8610   */\n    tag_459:\n        /* \"#utility.yul\":8619:8673   */\n      tag_461\n        /* \"#utility.yul\":8666:8672   */\n      dup5\n        /* \"#utility.yul\":8661:8664   */\n      dup3\n        /* \"#utility.yul\":8656:8659   */\n      dup6\n        /* \"#utility.yul\":8619:8673   */\n      tag_339\n      jump\t// in\n    tag_461:\n        /* \"#utility.yul\":8339:8679   */\n      pop\n        /* \"#utility.yul\":8256:8679   */\n      swap4\n      swap3\n      pop\n      pop\n      pop\n      jump\t// out\n        /* \"#utility.yul\":8698:9036   */\n    tag_341:\n        /* \"#utility.yul\":8753:8758   */\n      0x00\n        /* \"#utility.yul\":8802:8805   */\n      dup3\n        /* \"#utility.yul\":8795:8799   */\n      0x1f\n        /* \"#utility.yul\":8787:8793   */\n      dup4\n        /* \"#utility.yul\":8783:8800   */\n      add\n        /* \"#utility.yul\":8779:8806   */\n      slt\n        /* \"#utility.yul\":8769:8891   */\n      tag_463\n      jumpi\n        /* \"#utility.yul\":8810:8889   */\n      tag_464\n      tag_334\n      jump\t// in\n    tag_464:\n        /* \"#utility.yul\":8769:8891   */\n    tag_463:\n        /* \"#utility.yul\":8927:8933   */\n      dup2\n        /* \"#utility.yul\":8914:8934   */\n      calldataload\n        /* \"#utility.yul\":8952:9030   */\n      tag_465\n        /* \"#utility.yul\":9026:9029   */\n      dup5\n        /* \"#utility.yul\":9018:9024   */\n      dup3\n        /* \"#utility.yul\":9011:9015   */\n      0x20\n        /* \"#utility.yul\":9003:9009   */\n      dup7\n        /* \"#utility.yul\":8999:9016   */\n      add\n        /* \"#utility.yul\":8952:9030   */\n      tag_340\n      jump\t// in\n    tag_465:\n        /* \"#utility.yul\":8943:9030   */\n      swap2\n      pop\n        /* \"#utility.yul\":8759:9036   */\n      pop\n        /* \"#utility.yul\":8698:9036   */\n      swap3\n      swap2\n      pop\n      pop\n      jump\t// out\n        /* \"#utility.yul\":9042:9985   */\n    tag_98:\n        /* \"#utility.yul\":9137:9143   */\n      0x00\n        /* \"#utility.yul\":9145:9151   */\n      dup1\n        /* \"#utility.yul\":9153:9159   */\n      0x00\n        /* \"#utility.yul\":9161:9167   */\n      dup1\n        /* \"#utility.yul\":9210:9213   */\n      0x80\n        /* \"#utility.yul\":9198:9207   */\n      dup6\n        /* \"#utility.yul\":9189:9196   */\n      dup8\n        /* \"#utility.yul\":9185:9208   */\n      sub\n        /* \"#utility.yul\":9181:9214   */\n      slt\n        /* \"#utility.yul\":9178:9298   */\n      iszero\n      tag_467\n      jumpi\n        /* \"#utility.yul\":9217:9296   */\n      tag_468\n      tag_311\n      jump\t// in\n    tag_468:\n        /* \"#utility.yul\":9178:9298   */\n    tag_467:\n        /* \"#utility.yul\":9337:9338   */\n      0x00\n        /* \"#utility.yul\":9362:9415   */\n      tag_469\n        /* \"#utility.yul\":9407:9414   */\n      dup8\n        /* \"#utility.yul\":9398:9404   */\n      dup3\n        /* \"#utility.yul\":9387:9396   */\n      dup9\n        /* \"#utility.yul\":9383:9405   */\n      add\n        /* \"#utility.yul\":9362:9415   */\n      tag_330\n      jump\t// in\n    tag_469:\n        /* \"#utility.yul\":9352:9415   */\n      swap5\n      pop\n        /* \"#utility.yul\":9308:9425   */\n      pop\n        /* \"#utility.yul\":9464:9466   */\n      0x20\n        /* \"#utility.yul\":9490:9543   */\n      tag_470\n        /* \"#utility.yul\":9535:9542   */\n      dup8\n        /* \"#utility.yul\":9526:9532   */\n      dup3\n        /* \"#utility.yul\":9515:9524   */\n      dup9\n        /* \"#utility.yul\":9511:9533   */\n      add\n        /* \"#utility.yul\":9490:9543   */\n      tag_330\n      jump\t// in\n    tag_470:\n        /* \"#utility.yul\":9480:9543   */\n      swap4\n      pop\n        /* \"#utility.yul\":9435:9553   */\n      pop\n        /* \"#utility.yul\":9592:9594   */\n      0x40\n        /* \"#utility.yul\":9618:9671   */\n      tag_471\n        /* \"#utility.yul\":9663:9670   */\n      dup8\n        /* \"#utility.yul\":9654:9660   */\n      dup3\n        /* \"#utility.yul\":9643:9652   */\n      dup9\n        /* \"#utility.yul\":9639:9661   */\n      add\n        /* \"#utility.yul\":9618:9671   */\n      tag_325\n      jump\t// in\n    tag_471:\n        /* \"#utility.yul\":9608:9671   */\n      swap3\n      pop\n        /* \"#utility.yul\":9563:9681   */\n      pop\n        /* \"#utility.yul\":9748:9750   */\n      0x60\n        /* \"#utility.yul\":9737:9746   */\n      dup6\n        /* \"#utility.yul\":9733:9751   */\n      add\n        /* \"#utility.yul\":9720:9752   */\n      calldataload\n        /* \"#utility.yul\":9779:9797   */\n      0xffffffffffffffff\n        /* \"#utility.yul\":9771:9777   */\n      dup2\n        /* \"#utility.yul\":9768:9798   */\n      gt\n        /* \"#utility.yul\":9765:9882   */\n      iszero\n      tag_472\n      jumpi\n        /* \"#utility.yul\":9801:9880   */\n      tag_473\n      tag_312\n      jump\t// in\n    tag_473:\n        /* \"#utility.yul\":9765:9882   */\n    tag_472:\n        /* \"#utility.yul\":9906:9968   */\n      tag_474\n        /* \"#utility.yul\":9960:9967   */\n      dup8\n        /* \"#utility.yul\":9951:9957   */\n      dup3\n        /* \"#utility.yul\":9940:9949   */\n      dup9\n        /* \"#utility.yul\":9936:9958   */\n      add\n        /* \"#utility.yul\":9906:9968   */\n      tag_341\n      jump\t// in\n    tag_474:\n        /* \"#utility.yul\":9896:9968   */\n      swap2\n      pop\n        /* \"#utility.yul\":9691:9978   */\n      pop\n        /* \"#utility.yul\":9042:9985   */\n      swap3\n      swap6\n      swap2\n      swap5\n      pop\n      swap3\n      pop\n      jump\t// out\n        /* \"#utility.yul\":9991:10465   */\n    tag_106:\n        /* \"#utility.yul\":10059:10065   */\n      0x00\n        /* \"#utility.yul\":10067:10073   */\n      dup1\n        /* \"#utility.yul\":10116:10118   */\n      0x40\n        /* \"#utility.yul\":10104:10113   */\n      dup4\n        /* \"#utility.yul\":10095:10102   */\n      dup6\n        /* \"#utility.yul\":10091:10114   */\n      sub\n        /* \"#utility.yul\":10087:10119   */\n      slt\n        /* \"#utility.yul\":10084:10203   */\n      iszero\n      tag_476\n      jumpi\n        /* \"#utility.yul\":10122:10201   */\n      tag_477\n      tag_311\n      jump\t// in\n    tag_477:\n        /* \"#utility.yul\":10084:10203   */\n    tag_476:\n        /* \"#utility.yul\":10242:10243   */\n      0x00\n        /* \"#utility.yul\":10267:10320   */\n      tag_478\n        /* \"#utility.yul\":10312:10319   */\n      dup6\n        /* \"#utility.yul\":10303:10309   */\n      dup3\n        /* \"#utility.yul\":10292:10301   */\n      dup7\n        /* \"#utility.yul\":10288:10310   */\n      add\n        /* \"#utility.yul\":10267:10320   */\n      tag_330\n      jump\t// in\n    tag_478:\n        /* \"#utility.yul\":10257:10320   */\n      swap3\n      pop\n        /* \"#utility.yul\":10213:10330   */\n      pop\n        /* \"#utility.yul\":10369:10371   */\n      0x20\n        /* \"#utility.yul\":10395:10448   */\n      tag_479\n        /* \"#utility.yul\":10440:10447   */\n      dup6\n        /* \"#utility.yul\":10431:10437   */\n      dup3\n        /* \"#utility.yul\":10420:10429   */\n      dup7\n        /* \"#utility.yul\":10416:10438   */\n      add\n        /* \"#utility.yul\":10395:10448   */\n      tag_330\n      jump\t// in\n    tag_479:\n        /* \"#utility.yul\":10385:10448   */\n      swap2\n      pop\n        /* \"#utility.yul\":10340:10458   */\n      pop\n        /* \"#utility.yul\":9991:10465   */\n      swap3\n      pop\n      swap3\n      swap1\n      pop\n      jump\t// out\n        /* \"#utility.yul\":10471:10651   */\n    tag_342:\n        /* \"#utility.yul\":10519:10596   */\n      0x4e487b7100000000000000000000000000000000000000000000000000000000\n        /* \"#utility.yul\":10516:10517   */\n      0x00\n        /* \"#utility.yul\":10509:10597   */\n      mstore\n        /* \"#utility.yul\":10616:10620   */\n      0x22\n        /* \"#utility.yul\":10613:10614   */\n      0x04\n        /* \"#utility.yul\":10606:10621   */\n      mstore\n        /* \"#utility.yul\":10640:10644   */\n      0x24\n        /* \"#utility.yul\":10637:10638   */\n      0x00\n        /* \"#utility.yul\":10630:10645   */\n      revert\n        /* \"#utility.yul\":10657:10977   */\n    tag_117:\n        /* \"#utility.yul\":10701:10707   */\n      0x00\n        /* \"#utility.yul\":10738:10739   */\n      0x02\n        /* \"#utility.yul\":10732:10736   */\n      dup3\n        /* \"#utility.yul\":10728:10740   */\n      div\n        /* \"#utility.yul\":10718:10740   */\n      swap1\n      pop\n        /* \"#utility.yul\":10785:10786   */\n      0x01\n        /* \"#utility.yul\":10779:10783   */\n      dup3\n        /* \"#utility.yul\":10775:10787   */\n      and\n        /* \"#utility.yul\":10806:10824   */\n      dup1\n        /* \"#utility.yul\":10796:10877   */\n      tag_482\n      jumpi\n        /* \"#utility.yul\":10862:10866   */\n      0x7f\n        /* \"#utility.yul\":10854:10860   */\n      dup3\n        /* \"#utility.yul\":10850:10867   */\n      and\n        /* \"#utility.yul\":10840:10867   */\n      swap2\n      pop\n        /* \"#utility.yul\":10796:10877   */\n    tag_482:\n        /* \"#utility.yul\":10924:10926   */\n      0x20\n        /* \"#utility.yul\":10916:10922   */\n      dup3\n        /* \"#utility.yul\":10913:10927   */\n      lt\n        /* \"#utility.yul\":10893:10911   */\n      dup2\n        /* \"#utility.yul\":10890:10928   */\n      sub\n        /* \"#utility.yul\":10887:10971   */\n      tag_483\n      jumpi\n        /* \"#utility.yul\":10943:10961   */\n      tag_484\n      tag_342\n      jump\t// in\n    tag_484:\n        /* \"#utility.yul\":10887:10971   */\n    tag_483:\n        /* \"#utility.yul\":10708:10977   */\n      pop\n        /* \"#utility.yul\":10657:10977   */\n      swap2\n      swap1\n      pop\n      jump\t// out\n        /* \"#utility.yul\":10983:11315   */\n    tag_143:\n        /* \"#utility.yul\":11104:11108   */\n      0x00\n        /* \"#utility.yul\":11142:11144   */\n      0x40\n        /* \"#utility.yul\":11131:11140   */\n      dup3\n        /* \"#utility.yul\":11127:11145   */\n      add\n        /* \"#utility.yul\":11119:11145   */\n      swap1\n      pop\n        /* \"#utility.yul\":11155:11226   */\n      tag_486\n        /* \"#utility.yul\":11223:11224   */\n      0x00\n        /* \"#utility.yul\":11212:11221   */\n      dup4\n        /* \"#utility.yul\":11208:11225   */\n      add\n        /* \"#utility.yul\":11199:11205   */\n      dup6\n        /* \"#utility.yul\":11155:11226   */\n      tag_328\n      jump\t// in\n    tag_486:\n        /* \"#utility.yul\":11236:11308   */\n      tag_487\n        /* \"#utility.yul\":11304:11306   */\n      0x20\n        /* \"#utility.yul\":11293:11302   */\n      dup4\n        /* \"#utility.yul\":11289:11307   */\n      add\n        /* \"#utility.yul\":11280:11286   */\n      dup5\n        /* \"#utility.yul\":11236:11308   */\n      tag_331\n      jump\t// in\n    tag_487:\n        /* \"#utility.yul\":10983:11315   */\n      swap4\n      swap3\n      pop\n      pop\n      pop\n      jump\t// out\n        /* \"#utility.yul\":11321:11501   */\n    tag_155:\n        /* \"#utility.yul\":11369:11446   */\n      0x4e487b7100000000000000000000000000000000000000000000000000000000\n        /* \"#utility.yul\":11366:11367   */\n      0x00\n        /* \"#utility.yul\":11359:11447   */\n      mstore\n        /* \"#utility.yul\":11466:11470   */\n      0x32\n        /* \"#utility.yul\":11463:11464   */\n      0x04\n        /* \"#utility.yul\":11456:11471   */\n      mstore\n        /* \"#utility.yul\":11490:11494   */\n      0x24\n        /* \"#utility.yul\":11487:11488   */\n      0x00\n        /* \"#utility.yul\":11480:11495   */\n      revert\n        /* \"#utility.yul\":11507:11674   */\n    tag_343:\n        /* \"#utility.yul\":11647:11666   */\n      0x43726564697454696765722e7465737431000000000000000000000000000000\n        /* \"#utility.yul\":11643:11644   */\n      0x00\n        /* \"#utility.yul\":11635:11641   */\n      dup3\n        /* \"#utility.yul\":11631:11645   */\n      add\n        /* \"#utility.yul\":11624:11667   */\n      mstore\n        /* \"#utility.yul\":11507:11674   */\n      pop\n      jump\t// out\n        /* \"#utility.yul\":11680:12046   */\n    tag_344:\n        /* \"#utility.yul\":11822:11825   */\n      0x00\n        /* \"#utility.yul\":11843:11910   */\n      tag_491\n        /* \"#utility.yul\":11907:11909   */\n      0x11\n        /* \"#utility.yul\":11902:11905   */\n      dup4\n        /* \"#utility.yul\":11843:11910   */\n      tag_319\n      jump\t// in\n    tag_491:\n        /* \"#utility.yul\":11836:11910   */\n      swap2\n      pop\n        /* \"#utility.yul\":11919:12012   */\n      tag_492\n        /* \"#utility.yul\":12008:12011   */\n      dup3\n        /* \"#utility.yul\":11919:12012   */\n      tag_343\n      jump\t// in\n    tag_492:\n        /* \"#utility.yul\":12037:12039   */\n      0x20\n        /* \"#utility.yul\":12032:12035   */\n      dup3\n        /* \"#utility.yul\":12028:12040   */\n      add\n        /* \"#utility.yul\":12021:12040   */\n      swap1\n      pop\n        /* \"#utility.yul\":11680:12046   */\n      swap2\n      swap1\n      pop\n      jump\t// out\n        /* \"#utility.yul\":12052:12471   */\n    tag_162:\n        /* \"#utility.yul\":12218:12222   */\n      0x00\n        /* \"#utility.yul\":12256:12258   */\n      0x20\n        /* \"#utility.yul\":12245:12254   */\n      dup3\n        /* \"#utility.yul\":12241:12259   */\n      add\n        /* \"#utility.yul\":12233:12259   */\n      swap1\n      pop\n        /* \"#utility.yul\":12305:12314   */\n      dup2\n        /* \"#utility.yul\":12299:12303   */\n      dup2\n        /* \"#utility.yul\":12295:12315   */\n      sub\n        /* \"#utility.yul\":12291:12292   */\n      0x00\n        /* \"#utility.yul\":12280:12289   */\n      dup4\n        /* \"#utility.yul\":12276:12293   */\n      add\n        /* \"#utility.yul\":12269:12316   */\n      mstore\n        /* \"#utility.yul\":12333:12464   */\n      tag_494\n        /* \"#utility.yul\":12459:12463   */\n      dup2\n        /* \"#utility.yul\":12333:12464   */\n      tag_344\n      jump\t// in\n    tag_494:\n        /* \"#utility.yul\":12325:12464   */\n      swap1\n      pop\n        /* \"#utility.yul\":12052:12471   */\n      swap2\n      swap1\n      pop\n      jump\t// out\n        /* \"#utility.yul\":12477:12625   */\n    tag_345:\n        /* \"#utility.yul\":12579:12590   */\n      0x00\n        /* \"#utility.yul\":12616:12619   */\n      dup2\n        /* \"#utility.yul\":12601:12619   */\n      swap1\n      pop\n        /* \"#utility.yul\":12477:12625   */\n      swap3\n      swap2\n      pop\n      pop\n      jump\t// out\n        /* \"#utility.yul\":12631:13021   */\n    tag_346:\n        /* \"#utility.yul\":12737:12740   */\n      0x00\n        /* \"#utility.yul\":12765:12804   */\n      tag_497\n        /* \"#utility.yul\":12798:12803   */\n      dup3\n        /* \"#utility.yul\":12765:12804   */\n      tag_318\n      jump\t// in\n    tag_497:\n        /* \"#utility.yul\":12820:12909   */\n      tag_498\n        /* \"#utility.yul\":12902:12908   */\n      dup2\n        /* \"#utility.yul\":12897:12900   */\n      dup6\n        /* \"#utility.yul\":12820:12909   */\n      tag_345\n      jump\t// in\n    tag_498:\n        /* \"#utility.yul\":12813:12909   */\n      swap4\n      pop\n        /* \"#utility.yul\":12918:12983   */\n      tag_499\n        /* \"#utility.yul\":12976:12982   */\n      dup2\n        /* \"#utility.yul\":12971:12974   */\n      dup6\n        /* \"#utility.yul\":12964:12968   */\n      0x20\n        /* \"#utility.yul\":12957:12962   */\n      dup7\n        /* \"#utility.yul\":12953:12969   */\n      add\n        /* \"#utility.yul\":12918:12983   */\n      tag_320\n      jump\t// in\n    tag_499:\n        /* \"#utility.yul\":13008:13014   */\n      dup1\n        /* \"#utility.yul\":13003:13006   */\n      dup5\n        /* \"#utility.yul\":12999:13015   */\n      add\n        /* \"#utility.yul\":12992:13015   */\n      swap2\n      pop\n        /* \"#utility.yul\":12741:13021   */\n      pop\n        /* \"#utility.yul\":12631:13021   */\n      swap3\n      swap2\n      pop\n      pop\n      jump\t// out\n        /* \"#utility.yul\":13027:13462   */\n    tag_197:\n        /* \"#utility.yul\":13207:13210   */\n      0x00\n        /* \"#utility.yul\":13229:13324   */\n      tag_501\n        /* \"#utility.yul\":13320:13323   */\n      dup3\n        /* \"#utility.yul\":13311:13317   */\n      dup6\n        /* \"#utility.yul\":13229:13324   */\n      tag_346\n      jump\t// in\n    tag_501:\n        /* \"#utility.yul\":13222:13324   */\n      swap2\n      pop\n        /* \"#utility.yul\":13341:13436   */\n      tag_502\n        /* \"#utility.yul\":13432:13435   */\n      dup3\n        /* \"#utility.yul\":13423:13429   */\n      dup5\n        /* \"#utility.yul\":13341:13436   */\n      tag_346\n      jump\t// in\n    tag_502:\n        /* \"#utility.yul\":13334:13436   */\n      swap2\n      pop\n        /* \"#utility.yul\":13453:13456   */\n      dup2\n        /* \"#utility.yul\":13446:13456   */\n      swap1\n      pop\n        /* \"#utility.yul\":13027:13462   */\n      swap4\n      swap3\n      pop\n      pop\n      pop\n      jump\t// out\n        /* \"#utility.yul\":13468:13638   */\n    tag_347:\n        /* \"#utility.yul\":13608:13630   */\n      0x4552433732315061757361626c652e7465737431000000000000000000000000\n        /* \"#utility.yul\":13604:13605   */\n      0x00\n        /* \"#utility.yul\":13596:13602   */\n      dup3\n        /* \"#utility.yul\":13592:13606   */\n      add\n        /* \"#utility.yul\":13585:13631   */\n      mstore\n        /* \"#utility.yul\":13468:13638   */\n      pop\n      jump\t// out\n        /* \"#utility.yul\":13644:14010   */\n    tag_348:\n        /* \"#utility.yul\":13786:13789   */\n      0x00\n        /* \"#utility.yul\":13807:13874   */\n      tag_505\n        /* \"#utility.yul\":13871:13873   */\n      0x14\n        /* \"#utility.yul\":13866:13869   */\n      dup4\n        /* \"#utility.yul\":13807:13874   */\n      tag_319\n      jump\t// in\n    tag_505:\n        /* \"#utility.yul\":13800:13874   */\n      swap2\n      pop\n        /* \"#utility.yul\":13883:13976   */\n      tag_506\n        /* \"#utility.yul\":13972:13975   */\n      dup3\n        /* \"#utility.yul\":13883:13976   */\n      tag_347\n      jump\t// in\n    tag_506:\n        /* \"#utility.yul\":14001:14003   */\n      0x20\n        /* \"#utility.yul\":13996:13999   */\n      dup3\n        /* \"#utility.yul\":13992:14004   */\n      add\n        /* \"#utility.yul\":13985:14004   */\n      swap1\n      pop\n        /* \"#utility.yul\":13644:14010   */\n      swap2\n      swap1\n      pop\n      jump\t// out\n        /* \"#utility.yul\":14016:14435   */\n    tag_221:\n        /* \"#utility.yul\":14182:14186   */\n      0x00\n        /* \"#utility.yul\":14220:14222   */\n      0x20\n        /* \"#utility.yul\":14209:14218   */\n      dup3\n        /* \"#utility.yul\":14205:14223   */\n      add\n        /* \"#utility.yul\":14197:14223   */\n      swap1\n      pop\n        /* \"#utility.yul\":14269:14278   */\n      dup2\n        /* \"#utility.yul\":14263:14267   */\n      dup2\n        /* \"#utility.yul\":14259:14279   */\n      sub\n        /* \"#utility.yul\":14255:14256   */\n      0x00\n        /* \"#utility.yul\":14244:14253   */\n      dup4\n        /* \"#utility.yul\":14240:14257   */\n      add\n        /* \"#utility.yul\":14233:14280   */\n      mstore\n        /* \"#utility.yul\":14297:14428   */\n      tag_508\n        /* \"#utility.yul\":14423:14427   */\n      dup2\n        /* \"#utility.yul\":14297:14428   */\n      tag_348\n      jump\t// in\n    tag_508:\n        /* \"#utility.yul\":14289:14428   */\n      swap1\n      pop\n        /* \"#utility.yul\":14016:14435   */\n      swap2\n      swap1\n      pop\n      jump\t// out\n        /* \"#utility.yul\":14441:14539   */\n    tag_349:\n        /* \"#utility.yul\":14492:14498   */\n      0x00\n        /* \"#utility.yul\":14526:14531   */\n      dup2\n        /* \"#utility.yul\":14520:14532   */\n      mload\n        /* \"#utility.yul\":14510:14532   */\n      swap1\n      pop\n        /* \"#utility.yul\":14441:14539   */\n      swap2\n      swap1\n      pop\n      jump\t// out\n        /* \"#utility.yul\":14545:14713   */\n    tag_350:\n        /* \"#utility.yul\":14628:14639   */\n      0x00\n        /* \"#utility.yul\":14662:14668   */\n      dup3\n        /* \"#utility.yul\":14657:14660   */\n      dup3\n        /* \"#utility.yul\":14650:14669   */\n      mstore\n        /* \"#utility.yul\":14702:14706   */\n      0x20\n        /* \"#utility.yul\":14697:14700   */\n      dup3\n        /* \"#utility.yul\":14693:14707   */\n      add\n        /* \"#utility.yul\":14678:14707   */\n      swap1\n      pop\n        /* \"#utility.yul\":14545:14713   */\n      swap3\n      swap2\n      pop\n      pop\n      jump\t// out\n        /* \"#utility.yul\":14719:15092   */\n    tag_351:\n        /* \"#utility.yul\":14805:14808   */\n      0x00\n        /* \"#utility.yul\":14833:14871   */\n      tag_512\n        /* \"#utility.yul\":14865:14870   */\n      dup3\n        /* \"#utility.yul\":14833:14871   */\n      tag_349\n      jump\t// in\n    tag_512:\n        /* \"#utility.yul\":14887:14957   */\n      tag_513\n        /* \"#utility.yul\":14950:14956   */\n      dup2\n        /* \"#utility.yul\":14945:14948   */\n      dup6\n        /* \"#utility.yul\":14887:14957   */\n      tag_350\n      jump\t// in\n    tag_513:\n        /* \"#utility.yul\":14880:14957   */\n      swap4\n      pop\n        /* \"#utility.yul\":14966:15031   */\n      tag_514\n        /* \"#utility.yul\":15024:15030   */\n      dup2\n        /* \"#utility.yul\":15019:15022   */\n      dup6\n        /* \"#utility.yul\":15012:15016   */\n      0x20\n        /* \"#utility.yul\":15005:15010   */\n      dup7\n        /* \"#utility.yul\":15001:15017   */\n      add\n        /* \"#utility.yul\":14966:15031   */\n      tag_320\n      jump\t// in\n    tag_514:\n        /* \"#utility.yul\":15056:15085   */\n      tag_515\n        /* \"#utility.yul\":15078:15084   */\n      dup2\n        /* \"#utility.yul\":15056:15085   */\n      tag_321\n      jump\t// in\n    tag_515:\n        /* \"#utility.yul\":15051:15054   */\n      dup5\n        /* \"#utility.yul\":15047:15086   */\n      add\n        /* \"#utility.yul\":15040:15086   */\n      swap2\n      pop\n        /* \"#utility.yul\":14809:15092   */\n      pop\n        /* \"#utility.yul\":14719:15092   */\n      swap3\n      swap2\n      pop\n      pop\n      jump\t// out\n        /* \"#utility.yul\":15098:15738   */\n    tag_238:\n        /* \"#utility.yul\":15293:15297   */\n      0x00\n        /* \"#utility.yul\":15331:15334   */\n      0x80\n        /* \"#utility.yul\":15320:15329   */\n      dup3\n        /* \"#utility.yul\":15316:15335   */\n      add\n        /* \"#utility.yul\":15308:15335   */\n      swap1\n      pop\n        /* \"#utility.yul\":15345:15416   */\n      tag_517\n        /* \"#utility.yul\":15413:15414   */\n      0x00\n        /* \"#utility.yul\":15402:15411   */\n      dup4\n        /* \"#utility.yul\":15398:15415   */\n      add\n        /* \"#utility.yul\":15389:15395   */\n      dup8\n        /* \"#utility.yul\":15345:15416   */\n      tag_328\n      jump\t// in\n    tag_517:\n        /* \"#utility.yul\":15426:15498   */\n      tag_518\n        /* \"#utility.yul\":15494:15496   */\n      0x20\n        /* \"#utility.yul\":15483:15492   */\n      dup4\n        /* \"#utility.yul\":15479:15497   */\n      add\n        /* \"#utility.yul\":15470:15476   */\n      dup7\n        /* \"#utility.yul\":15426:15498   */\n      tag_328\n      jump\t// in\n    tag_518:\n        /* \"#utility.yul\":15508:15580   */\n      tag_519\n        /* \"#utility.yul\":15576:15578   */\n      0x40\n        /* \"#utility.yul\":15565:15574   */\n      dup4\n        /* \"#utility.yul\":15561:15579   */\n      add\n        /* \"#utility.yul\":15552:15558   */\n      dup6\n        /* \"#utility.yul\":15508:15580   */\n      tag_331\n      jump\t// in\n    tag_519:\n        /* \"#utility.yul\":15627:15636   */\n      dup2\n        /* \"#utility.yul\":15621:15625   */\n      dup2\n        /* \"#utility.yul\":15617:15637   */\n      sub\n        /* \"#utility.yul\":15612:15614   */\n      0x60\n        /* \"#utility.yul\":15601:15610   */\n      dup4\n        /* \"#utility.yul\":15597:15615   */\n      add\n        /* \"#utility.yul\":15590:15638   */\n      mstore\n        /* \"#utility.yul\":15655:15731   */\n      tag_520\n        /* \"#utility.yul\":15726:15730   */\n      dup2\n        /* \"#utility.yul\":15717:15723   */\n      dup5\n        /* \"#utility.yul\":15655:15731   */\n      tag_351\n      jump\t// in\n    tag_520:\n        /* \"#utility.yul\":15647:15731   */\n      swap1\n      pop\n        /* \"#utility.yul\":15098:15738   */\n      swap6\n      swap5\n      pop\n      pop\n      pop\n      pop\n      pop\n      jump\t// out\n        /* \"#utility.yul\":15744:15885   */\n    tag_352:\n        /* \"#utility.yul\":15800:15805   */\n      0x00\n        /* \"#utility.yul\":15831:15837   */\n      dup2\n        /* \"#utility.yul\":15825:15838   */\n      mload\n        /* \"#utility.yul\":15816:15838   */\n      swap1\n      pop\n        /* \"#utility.yul\":15847:15879   */\n      tag_522\n        /* \"#utility.yul\":15873:15878   */\n      dup2\n        /* \"#utility.yul\":15847:15879   */\n      tag_314\n      jump\t// in\n    tag_522:\n        /* \"#utility.yul\":15744:15885   */\n      swap3\n      swap2\n      pop\n      pop\n      jump\t// out\n        /* \"#utility.yul\":15891:16240   */\n    tag_241:\n        /* \"#utility.yul\":15960:15966   */\n      0x00\n        /* \"#utility.yul\":16009:16011   */\n      0x20\n        /* \"#utility.yul\":15997:16006   */\n      dup3\n        /* \"#utility.yul\":15988:15995   */\n      dup5\n        /* \"#utility.yul\":15984:16007   */\n      sub\n        /* \"#utility.yul\":15980:16012   */\n      slt\n        /* \"#utility.yul\":15977:16096   */\n      iszero\n      tag_524\n      jumpi\n        /* \"#utility.yul\":16015:16094   */\n      tag_525\n      tag_311\n      jump\t// in\n    tag_525:\n        /* \"#utility.yul\":15977:16096   */\n    tag_524:\n        /* \"#utility.yul\":16135:16136   */\n      0x00\n        /* \"#utility.yul\":16160:16223   */\n      tag_526\n        /* \"#utility.yul\":16215:16222   */\n      dup5\n        /* \"#utility.yul\":16206:16212   */\n      dup3\n        /* \"#utility.yul\":16195:16204   */\n      dup6\n        /* \"#utility.yul\":16191:16213   */\n      add\n        /* \"#utility.yul\":16160:16223   */\n      tag_352\n      jump\t// in\n    tag_526:\n        /* \"#utility.yul\":16150:16223   */\n      swap2\n      pop\n        /* \"#utility.yul\":16106:16233   */\n      pop\n        /* \"#utility.yul\":15891:16240   */\n      swap3\n      swap2\n      pop\n      pop\n      jump\t// out\n        /* \"#utility.yul\":16246:16426   */\n    tag_264:\n        /* \"#utility.yul\":16294:16371   */\n      0x4e487b7100000000000000000000000000000000000000000000000000000000\n        /* \"#utility.yul\":16291:16292   */\n      0x00\n        /* \"#utility.yul\":16284:16372   */\n      mstore\n        /* \"#utility.yul\":16391:16395   */\n      0x12\n        /* \"#utility.yul\":16388:16389   */\n      0x04\n        /* \"#utility.yul\":16381:16396   */\n      mstore\n        /* \"#utility.yul\":16415:16419   */\n      0x24\n        /* \"#utility.yul\":16412:16413   */\n      0x00\n        /* \"#utility.yul\":16405:16420   */\n      revert\n        /* \"#utility.yul\":16432:16604   */\n    tag_353:\n        /* \"#utility.yul\":16572:16596   */\n      0x455243373231456e756d657261626c652e746573743100000000000000000000\n        /* \"#utility.yul\":16568:16569   */\n      0x00\n        /* \"#utility.yul\":16560:16566   */\n      dup3\n        /* \"#utility.yul\":16556:16570   */\n      add\n        /* \"#utility.yul\":16549:16597   */\n      mstore\n        /* \"#utility.yul\":16432:16604   */\n      pop\n      jump\t// out\n        /* \"#utility.yul\":16610:16976   */\n    tag_354:\n        /* \"#utility.yul\":16752:16755   */\n      0x00\n        /* \"#utility.yul\":16773:16840   */\n      tag_530\n        /* \"#utility.yul\":16837:16839   */\n      0x16\n        /* \"#utility.yul\":16832:16835   */\n      dup4\n        /* \"#utility.yul\":16773:16840   */\n      tag_319\n      jump\t// in\n    tag_530:\n        /* \"#utility.yul\":16766:16840   */\n      swap2\n      pop\n        /* \"#utility.yul\":16849:16942   */\n      tag_531\n        /* \"#utility.yul\":16938:16941   */\n      dup3\n        /* \"#utility.yul\":16849:16942   */\n      tag_353\n      jump\t// in\n    tag_531:\n        /* \"#utility.yul\":16967:16969   */\n      0x20\n        /* \"#utility.yul\":16962:16965   */\n      dup3\n        /* \"#utility.yul\":16958:16970   */\n      add\n        /* \"#utility.yul\":16951:16970   */\n      swap1\n      pop\n        /* \"#utility.yul\":16610:16976   */\n      swap2\n      swap1\n      pop\n      jump\t// out\n        /* \"#utility.yul\":16982:17401   */\n    tag_283:\n        /* \"#utility.yul\":17148:17152   */\n      0x00\n        /* \"#utility.yul\":17186:17188   */\n      0x20\n        /* \"#utility.yul\":17175:17184   */\n      dup3\n        /* \"#utility.yul\":17171:17189   */\n      add\n        /* \"#utility.yul\":17163:17189   */\n      swap1\n      pop\n        /* \"#utility.yul\":17235:17244   */\n      dup2\n        /* \"#utility.yul\":17229:17233   */\n      dup2\n        /* \"#utility.yul\":17225:17245   */\n      sub\n        /* \"#utility.yul\":17221:17222   */\n      0x00\n        /* \"#utility.yul\":17210:17219   */\n      dup4\n        /* \"#utility.yul\":17206:17223   */\n      add\n        /* \"#utility.yul\":17199:17246   */\n      mstore\n        /* \"#utility.yul\":17263:17394   */\n      tag_533\n        /* \"#utility.yul\":17389:17393   */\n      dup2\n        /* \"#utility.yul\":17263:17394   */\n      tag_354\n      jump\t// in\n    tag_533:\n        /* \"#utility.yul\":17255:17394   */\n      swap1\n      pop\n        /* \"#utility.yul\":16982:17401   */\n      swap2\n      swap1\n      pop\n      jump\t// out\n        /* \"#utility.yul\":17407:17569   */\n    tag_355:\n        /* \"#utility.yul\":17547:17561   */\n      0x4552433732312e74657374310000000000000000000000000000000000000000\n        /* \"#utility.yul\":17543:17544   */\n      0x00\n        /* \"#utility.yul\":17535:17541   */\n      dup3\n        /* \"#utility.yul\":17531:17545   */\n      add\n        /* \"#utility.yul\":17524:17562   */\n      mstore\n        /* \"#utility.yul\":17407:17569   */\n      pop\n      jump\t// out\n        /* \"#utility.yul\":17575:17941   */\n    tag_356:\n        /* \"#utility.yul\":17717:17720   */\n      0x00\n        /* \"#utility.yul\":17738:17805   */\n      tag_536\n        /* \"#utility.yul\":17802:17804   */\n      0x0c\n        /* \"#utility.yul\":17797:17800   */\n      dup4\n        /* \"#utility.yul\":17738:17805   */\n      tag_319\n      jump\t// in\n    tag_536:\n        /* \"#utility.yul\":17731:17805   */\n      swap2\n      pop\n        /* \"#utility.yul\":17814:17907   */\n      tag_537\n        /* \"#utility.yul\":17903:17906   */\n      dup3\n        /* \"#utility.yul\":17814:17907   */\n      tag_355\n      jump\t// in\n    tag_537:\n        /* \"#utility.yul\":17932:17934   */\n      0x20\n        /* \"#utility.yul\":17927:17930   */\n      dup3\n        /* \"#utility.yul\":17923:17935   */\n      add\n        /* \"#utility.yul\":17916:17935   */\n      swap1\n      pop\n        /* \"#utility.yul\":17575:17941   */\n      swap2\n      swap1\n      pop\n      jump\t// out\n        /* \"#utility.yul\":17947:18366   */\n    tag_309:\n        /* \"#utility.yul\":18113:18117   */\n      0x00\n        /* \"#utility.yul\":18151:18153   */\n      0x20\n        /* \"#utility.yul\":18140:18149   */\n      dup3\n        /* \"#utility.yul\":18136:18154   */\n      add\n        /* \"#utility.yul\":18128:18154   */\n      swap1\n      pop\n        /* \"#utility.yul\":18200:18209   */\n      dup2\n        /* \"#utility.yul\":18194:18198   */\n      dup2\n        /* \"#utility.yul\":18190:18210   */\n      sub\n        /* \"#utility.yul\":18186:18187   */\n      0x00\n        /* \"#utility.yul\":18175:18184   */\n      dup4\n        /* \"#utility.yul\":18171:18188   */\n      add\n        /* \"#utility.yul\":18164:18211   */\n      mstore\n        /* \"#utility.yul\":18228:18359   */\n      tag_539\n        /* \"#utility.yul\":18354:18358   */\n      dup2\n        /* \"#utility.yul\":18228:18359   */\n      tag_356\n      jump\t// in\n    tag_539:\n        /* \"#utility.yul\":18220:18359   */\n      swap1\n      pop\n        /* \"#utility.yul\":17947:18366   */\n      swap2\n      swap1\n      pop\n      jump\t// out\n\n    auxdata: 0xa264697066735822122075f0a60c55f958137f151ebff34c1a89ccb5e398a8137c821f74c92b638bdb6664736f6c63430008140033\n}\n",
				"bytecode": {
					"linkReferences": {},
					"object": "608060405234801562000010575f80fd5b506040516200235338038062002353833981810160405281019062000036919062000296565b806040518060400160405280600c81526020017f4372656469742d546967657200000000000000000000000000000000000000008152506040518060400160405280600381526020017f4354540000000000000000000000000000000000000000000000000000000000815250815f9081620000b391906200052a565b508060019081620000c591906200052a565b5050505f73ffffffffffffffffffffffffffffffffffffffff168173ffffffffffffffffffffffffffffffffffffffff16036200013b575f6040517f1e4fbdf70000000000000000000000000000000000000000000000000000000081526004016200013291906200061f565b60405180910390fd5b6200014c816200016e60201b60201c565b505f600a60146101000a81548160ff021916908315150217905550506200063a565b5f600a5f9054906101000a900473ffffffffffffffffffffffffffffffffffffffff16905081600a5f6101000a81548173ffffffffffffffffffffffffffffffffffffffff021916908373ffffffffffffffffffffffffffffffffffffffff1602179055508173ffffffffffffffffffffffffffffffffffffffff168173ffffffffffffffffffffffffffffffffffffffff167f8be0079c531659141344cd1fd0a4f28419497f9722a3daafe3b4186f6b6457e060405160405180910390a35050565b5f80fd5b5f73ffffffffffffffffffffffffffffffffffffffff82169050919050565b5f620002608262000235565b9050919050565b620002728162000254565b81146200027d575f80fd5b50565b5f81519050620002908162000267565b92915050565b5f60208284031215620002ae57620002ad62000231565b5b5f620002bd8482850162000280565b91505092915050565b5f81519050919050565b7f4e487b71000000000000000000000000000000000000000000000000000000005f52604160045260245ffd5b7f4e487b71000000000000000000000000000000000000000000000000000000005f52602260045260245ffd5b5f60028204905060018216806200034257607f821691505b602082108103620003585762000357620002fd565b5b50919050565b5f819050815f5260205f209050919050565b5f6020601f8301049050919050565b5f82821b905092915050565b5f60088302620003bc7fffffffffffffffffffffffffffffffffffffffffffffffffffffffffffffffff826200037f565b620003c886836200037f565b95508019841693508086168417925050509392505050565b5f819050919050565b5f819050919050565b5f620004126200040c6200040684620003e0565b620003e9565b620003e0565b9050919050565b5f819050919050565b6200042d83620003f2565b620004456200043c8262000419565b8484546200038b565b825550505050565b5f90565b6200045b6200044d565b6200046881848462000422565b505050565b5b818110156200048f57620004835f8262000451565b6001810190506200046e565b5050565b601f821115620004de57620004a8816200035e565b620004b38462000370565b81016020851015620004c3578190505b620004db620004d28562000370565b8301826200046d565b50505b505050565b5f82821c905092915050565b5f620005005f1984600802620004e3565b1980831691505092915050565b5f6200051a8383620004ef565b9150826002028217905092915050565b6200053582620002c6565b67ffffffffffffffff811115620005515762000550620002d0565b5b6200055d82546200032a565b6200056a82828562000493565b5f60209050601f831160018114620005a0575f84156200058b578287015190505b6200059785826200050d565b86555062000606565b601f198416620005b0866200035e565b5f5b82811015620005d957848901518255600182019150602085019450602081019050620005b2565b86831015620005f95784890151620005f5601f891682620004ef565b8355505b6001600288020188555050505b505050505050565b620006198162000254565b82525050565b5f602082019050620006345f8301846200060e565b92915050565b611d0b80620006485f395ff3fe608060405234801561000f575f80fd5b5060043610610140575f3560e01c80636352211e116100b657806395d89b411161007a57806395d89b4114610360578063a22cb4651461037e578063b88d4fde1461039a578063c87b56dd146103b6578063e985e9c5146103e6578063f2fde38b1461041657610140565b80636352211e146102ce5780636b59084d146102fe57806370a0823114610308578063715018a6146103385780638da5cb5b1461034257610140565b806323b872dd1161010857806323b872dd146101fc5780632f745c591461021857806342842e0e1461024857806342966c68146102645780634f6ccce7146102805780635c975abb146102b057610140565b806301ffc9a71461014457806306fdde0314610174578063081812fc14610192578063095ea7b3146101c257806318160ddd146101de575b5f80fd5b61015e60048036038101906101599190611404565b610432565b60405161016b9190611449565b60405180910390f35b61017c610443565b60405161018991906114ec565b60405180910390f35b6101ac60048036038101906101a7919061153f565b6104d2565b6040516101b991906115a9565b60405180910390f35b6101dc60048036038101906101d791906115ec565b6104ed565b005b6101e6610503565b6040516101f39190611639565b60405180910390f35b61021660048036038101906102119190611652565b61050f565b005b610232600480360381019061022d91906115ec565b61052a565b60405161023f9190611639565b60405180910390f35b610262600480360381019061025d9190611652565b6105ce565b005b61027e6004803603810190610279919061153f565b6105ed565b005b61029a6004803603810190610295919061153f565b610603565b6040516102a79190611639565b60405180910390f35b6102b8610675565b6040516102c59190611449565b60405180910390f35b6102e860048036038101906102e3919061153f565b61068b565b6040516102f591906115a9565b60405180910390f35b61030661069c565b005b610322600480360381019061031d91906116a2565b6106db565b60405161032f9190611639565b60405180910390f35b610340610721565b005b61034a610734565b60405161035791906115a9565b60405180910390f35b61036861075c565b60405161037591906114ec565b60405180910390f35b610398600480360381019061039391906116f7565b6107ec565b005b6103b460048036038101906103af9190611861565b610802565b005b6103d060048036038101906103cb919061153f565b61081f565b6040516103dd91906114ec565b60405180910390f35b61040060048036038101906103fb91906118e1565b610885565b60405161040d9190611449565b60405180910390f35b610430600480360381019061042b91906116a2565b610913565b005b5f61043c82610997565b9050919050565b60605f80546104519061194c565b80601f016020809104026020016040519081016040528092919081815260200182805461047d9061194c565b80156104c85780601f1061049f576101008083540402835291602001916104c8565b820191905f5260205f20905b8154815290600101906020018083116104ab57829003601f168201915b5050505050905090565b5f6104dc82610a10565b506104e682610a26565b9050919050565b6104ff82826104fa610a5f565b610a66565b5050565b5f600880549050905090565b5f610522838361051d610a5f565b610a78565b905050505050565b5f610534836106db565b82106105795782826040517fa57d13dc00000000000000000000000000000000000000000000000000000000815260040161057092919061197c565b60405180910390fd5b60065f8473ffffffffffffffffffffffffffffffffffffffff1673ffffffffffffffffffffffffffffffffffffffff1681526020019081526020015f205f8381526020019081526020015f2054905092915050565b6105e883838360405180602001604052805f815250610802565b505050565b6105ff5f826105fa610a5f565b610a78565b5050565b5f61060c610503565b8210610651575f826040517fa57d13dc00000000000000000000000000000000000000000000000000000000815260040161064892919061197c565b60405180910390fd5b60088281548110610665576106646119a3565b5b905f5260205f2001549050919050565b5f600a60149054906101000a900460ff16905090565b5f61069582610a10565b9050919050565b7fcf34ef537ac33ee1ac626ca1587a0a7e8e51561e5514f8cb36afa1c5102b3bab6040516106c990611a1a565b60405180910390a16106d9610a80565b565b5f60035f8373ffffffffffffffffffffffffffffffffffffffff1673ffffffffffffffffffffffffffffffffffffffff1681526020019081526020015f20549050919050565b610729610abf565b6107325f610b46565b565b5f600a5f9054906101000a900473ffffffffffffffffffffffffffffffffffffffff16905090565b60606001805461076b9061194c565b80601f01602080910402602001604051908101604052809291908181526020018280546107979061194c565b80156107e25780601f106107b9576101008083540402835291602001916107e2565b820191905f5260205f20905b8154815290600101906020018083116107c557829003601f168201915b5050505050905090565b6107fe6107f7610a5f565b8383610c09565b5050565b61080d84848461050f565b61081984848484610d02565b50505050565b606061082a82610a10565b505f610834610df6565b90505f8151116108525760405180602001604052805f81525061087d565b8061085c84610e0c565b60405160200161086d929190611a72565b6040516020818303038152906040525b915050919050565b5f60055f8473ffffffffffffffffffffffffffffffffffffffff1673ffffffffffffffffffffffffffffffffffffffff1681526020019081526020015f205f8373ffffffffffffffffffffffffffffffffffffffff1673ffffffffffffffffffffffffffffffffffffffff1681526020019081526020015f205f9054906101000a900460ff16905092915050565b61091b610abf565b5f73ffffffffffffffffffffffffffffffffffffffff168173ffffffffffffffffffffffffffffffffffffffff160361098b575f6040517f1e4fbdf700000000000000000000000000000000000000000000000000000000815260040161098291906115a9565b60405180910390fd5b61099481610b46565b50565b5f7f780e9d63000000000000000000000000000000000000000000000000000000007bffffffffffffffffffffffffffffffffffffffffffffffffffffffff1916827bffffffffffffffffffffffffffffffffffffffffffffffffffffffff19161480610a095750610a0882610ed6565b5b9050919050565b5f80610a1b83610fb7565b905080915050919050565b5f60045f8381526020019081526020015f205f9054906101000a900473ffffffffffffffffffffffffffffffffffffffff169050919050565b5f33905090565b610a738383836001610ff0565b505050565b5f9392505050565b7fcf34ef537ac33ee1ac626ca1587a0a7e8e51561e5514f8cb36afa1c5102b3bab604051610aad90611adf565b60405180910390a1610abd61116e565b565b610ac7610a5f565b73ffffffffffffffffffffffffffffffffffffffff16610ae5610734565b73ffffffffffffffffffffffffffffffffffffffff1614610b4457610b08610a5f565b6040517f118cdaa7000000000000000000000000000000000000000000000000000000008152600401610b3b91906115a9565b60405180910390fd5b565b5f600a5f9054906101000a900473ffffffffffffffffffffffffffffffffffffffff16905081600a5f6101000a81548173ffffffffffffffffffffffffffffffffffffffff021916908373ffffffffffffffffffffffffffffffffffffffff1602179055508173ffffffffffffffffffffffffffffffffffffffff168173ffffffffffffffffffffffffffffffffffffffff167f8be0079c531659141344cd1fd0a4f28419497f9722a3daafe3b4186f6b6457e060405160405180910390a35050565b8060055f8573ffffffffffffffffffffffffffffffffffffffff1673ffffffffffffffffffffffffffffffffffffffff1681526020019081526020015f205f8473ffffffffffffffffffffffffffffffffffffffff1673ffffffffffffffffffffffffffffffffffffffff1681526020019081526020015f205f6101000a81548160ff0219169083151502179055508173ffffffffffffffffffffffffffffffffffffffff168373ffffffffffffffffffffffffffffffffffffffff167f17307eab39ab6107e8899845ad3d59bd9653f200f220920489ca2b5937696c3183604051610cf59190611449565b60405180910390a3505050565b5f8373ffffffffffffffffffffffffffffffffffffffff163b1115610df0578273ffffffffffffffffffffffffffffffffffffffff1663150b7a02610d45610a5f565b8685856040518563ffffffff1660e01b8152600401610d679493929190611b4f565b6020604051808303815f875af1925050508015610da257506040513d601f19601f82011682018060405250810190610d9f9190611bad565b60015b610ded573d805f8114610dd0576040519150601f19603f3d011682016040523d82523d5f602084013e610dd5565b606091505b505f81510315610de757805181602001fd5b50610def565b505b5b50505050565b606060405180602001604052805f815250905090565b60605f6001610e1a846111ad565b0190505f8167ffffffffffffffff811115610e3857610e3761173d565b5b6040519080825280601f01601f191660200182016040528015610e6a5781602001600182028036833780820191505090505b5090505f82602001820190505b600115610ecb578080600190039150507f3031323334353637383961626364656600000000000000000000000000000000600a86061a8153600a8581610ec057610ebf611bd8565b5b0494505f8503610e77575b819350505050919050565b5f7f80ac58cd000000000000000000000000000000000000000000000000000000007bffffffffffffffffffffffffffffffffffffffffffffffffffffffff1916827bffffffffffffffffffffffffffffffffffffffffffffffffffffffff19161480610fa057507f5b5e139f000000000000000000000000000000000000000000000000000000007bffffffffffffffffffffffffffffffffffffffffffffffffffffffff1916827bffffffffffffffffffffffffffffffffffffffffffffffffffffffff1916145b80610fb05750610faf826112fe565b5b9050919050565b5f60025f8381526020019081526020015f205f9054906101000a900473ffffffffffffffffffffffffffffffffffffffff169050919050565b808061102857505f73ffffffffffffffffffffffffffffffffffffffff168273ffffffffffffffffffffffffffffffffffffffff1614155b15611119575f61103784610a10565b90505f73ffffffffffffffffffffffffffffffffffffffff168373ffffffffffffffffffffffffffffffffffffffff16141580156110a157508273ffffffffffffffffffffffffffffffffffffffff168173ffffffffffffffffffffffffffffffffffffffff1614155b80156110b457506110b28184610885565b155b50811561111757838573ffffffffffffffffffffffffffffffffffffffff168273ffffffffffffffffffffffffffffffffffffffff167f8c5be1e5ebec7d5bd14f71427d1e84f3dd0314c0f7b2291e5b200ac8c7c3b92560405160405180910390a45b505b8360045f8581526020019081526020015f205f6101000a81548173ffffffffffffffffffffffffffffffffffffffff021916908373ffffffffffffffffffffffffffffffffffffffff16021790555050505050565b7fcf34ef537ac33ee1ac626ca1587a0a7e8e51561e5514f8cb36afa1c5102b3bab60405161119b90611c4f565b60405180910390a16111ab611367565b565b5f805f90507a184f03e93ff9f4daa797ed6e38ed64bf6a1f0100000000000000008310611209577a184f03e93ff9f4daa797ed6e38ed64bf6a1f01000000000000000083816111ff576111fe611bd8565b5b0492506040810190505b6d04ee2d6d415b85acef81000000008310611246576d04ee2d6d415b85acef8100000000838161123c5761123b611bd8565b5b0492506020810190505b662386f26fc10000831061127557662386f26fc10000838161126b5761126a611bd8565b5b0492506010810190505b6305f5e100831061129e576305f5e100838161129457611293611bd8565b5b0492506008810190505b61271083106112c35761271083816112b9576112b8611bd8565b5b0492506004810190505b606483106112e657606483816112dc576112db611bd8565b5b0492506002810190505b600a83106112f5576001810190505b80915050919050565b5f7f01ffc9a7000000000000000000000000000000000000000000000000000000007bffffffffffffffffffffffffffffffffffffffffffffffffffffffff1916827bffffffffffffffffffffffffffffffffffffffffffffffffffffffff1916149050919050565b7fcf34ef537ac33ee1ac626ca1587a0a7e8e51561e5514f8cb36afa1c5102b3bab60405161139490611cb7565b60405180910390a1565b5f604051905090565b5f80fd5b5f80fd5b5f7fffffffff0000000000000000000000000000000000000000000000000000000082169050919050565b6113e3816113af565b81146113ed575f80fd5b50565b5f813590506113fe816113da565b92915050565b5f60208284031215611419576114186113a7565b5b5f611426848285016113f0565b91505092915050565b5f8115159050919050565b6114438161142f565b82525050565b5f60208201905061145c5f83018461143a565b92915050565b5f81519050919050565b5f82825260208201905092915050565b5f5b8381101561149957808201518184015260208101905061147e565b5f8484015250505050565b5f601f19601f8301169050919050565b5f6114be82611462565b6114c8818561146c565b93506114d881856020860161147c565b6114e1816114a4565b840191505092915050565b5f6020820190508181035f83015261150481846114b4565b905092915050565b5f819050919050565b61151e8161150c565b8114611528575f80fd5b50565b5f8135905061153981611515565b92915050565b5f60208284031215611554576115536113a7565b5b5f6115618482850161152b565b91505092915050565b5f73ffffffffffffffffffffffffffffffffffffffff82169050919050565b5f6115938261156a565b9050919050565b6115a381611589565b82525050565b5f6020820190506115bc5f83018461159a565b92915050565b6115cb81611589565b81146115d5575f80fd5b50565b5f813590506115e6816115c2565b92915050565b5f8060408385031215611602576116016113a7565b5b5f61160f858286016115d8565b92505060206116208582860161152b565b9150509250929050565b6116338161150c565b82525050565b5f60208201905061164c5f83018461162a565b92915050565b5f805f60608486031215611669576116686113a7565b5b5f611676868287016115d8565b9350506020611687868287016115d8565b92505060406116988682870161152b565b9150509250925092565b5f602082840312156116b7576116b66113a7565b5b5f6116c4848285016115d8565b91505092915050565b6116d68161142f565b81146116e0575f80fd5b50565b5f813590506116f1816116cd565b92915050565b5f806040838503121561170d5761170c6113a7565b5b5f61171a858286016115d8565b925050602061172b858286016116e3565b9150509250929050565b5f80fd5b5f80fd5b7f4e487b71000000000000000000000000000000000000000000000000000000005f52604160045260245ffd5b611773826114a4565b810181811067ffffffffffffffff821117156117925761179161173d565b5b80604052505050565b5f6117a461139e565b90506117b0828261176a565b919050565b5f67ffffffffffffffff8211156117cf576117ce61173d565b5b6117d8826114a4565b9050602081019050919050565b828183375f83830152505050565b5f611805611800846117b5565b61179b565b90508281526020810184848401111561182157611820611739565b5b61182c8482856117e5565b509392505050565b5f82601f83011261184857611847611735565b5b81356118588482602086016117f3565b91505092915050565b5f805f8060808587031215611879576118786113a7565b5b5f611886878288016115d8565b9450506020611897878288016115d8565b93505060406118a88782880161152b565b925050606085013567ffffffffffffffff8111156118c9576118c86113ab565b5b6118d587828801611834565b91505092959194509250565b5f80604083850312156118f7576118f66113a7565b5b5f611904858286016115d8565b9250506020611915858286016115d8565b9150509250929050565b7f4e487b71000000000000000000000000000000000000000000000000000000005f52602260045260245ffd5b5f600282049050600182168061196357607f821691505b6020821081036119765761197561191f565b5b50919050565b5f60408201905061198f5f83018561159a565b61199c602083018461162a565b9392505050565b7f4e487b71000000000000000000000000000000000000000000000000000000005f52603260045260245ffd5b7f43726564697454696765722e74657374310000000000000000000000000000005f82015250565b5f611a0460118361146c565b9150611a0f826119d0565b602082019050919050565b5f6020820190508181035f830152611a31816119f8565b9050919050565b5f81905092915050565b5f611a4c82611462565b611a568185611a38565b9350611a6681856020860161147c565b80840191505092915050565b5f611a7d8285611a42565b9150611a898284611a42565b91508190509392505050565b7f4552433732315061757361626c652e74657374310000000000000000000000005f82015250565b5f611ac960148361146c565b9150611ad482611a95565b602082019050919050565b5f6020820190508181035f830152611af681611abd565b9050919050565b5f81519050919050565b5f82825260208201905092915050565b5f611b2182611afd565b611b2b8185611b07565b9350611b3b81856020860161147c565b611b44816114a4565b840191505092915050565b5f608082019050611b625f83018761159a565b611b6f602083018661159a565b611b7c604083018561162a565b8181036060830152611b8e8184611b17565b905095945050505050565b5f81519050611ba7816113da565b92915050565b5f60208284031215611bc257611bc16113a7565b5b5f611bcf84828501611b99565b91505092915050565b7f4e487b71000000000000000000000000000000000000000000000000000000005f52601260045260245ffd5b7f455243373231456e756d657261626c652e7465737431000000000000000000005f82015250565b5f611c3960168361146c565b9150611c4482611c05565b602082019050919050565b5f6020820190508181035f830152611c6681611c2d565b9050919050565b7f4552433732312e746573743100000000000000000000000000000000000000005f82015250565b5f611ca1600c8361146c565b9150611cac82611c6d565b602082019050919050565b5f6020820190508181035f830152611cce81611c95565b905091905056fea264697066735822122075f0a60c55f958137f151ebff34c1a89ccb5e398a8137c821f74c92b638bdb6664736f6c63430008140033",
					"opcodes": "PUSH1 0x80 PUSH1 0x40 MSTORE CALLVALUE DUP1 ISZERO PUSH3 0x10 JUMPI PUSH0 DUP1 REVERT JUMPDEST POP PUSH1 0x40 MLOAD PUSH3 0x2353 CODESIZE SUB DUP1 PUSH3 0x2353 DUP4 CODECOPY DUP2 DUP2 ADD PUSH1 0x40 MSTORE DUP2 ADD SWAP1 PUSH3 0x36 SWAP2 SWAP1 PUSH3 0x296 JUMP JUMPDEST DUP1 PUSH1 0x40 MLOAD DUP1 PUSH1 0x40 ADD PUSH1 0x40 MSTORE DUP1 PUSH1 0xC DUP2 MSTORE PUSH1 0x20 ADD PUSH32 0x4372656469742D54696765720000000000000000000000000000000000000000 DUP2 MSTORE POP PUSH1 0x40 MLOAD DUP1 PUSH1 0x40 ADD PUSH1 0x40 MSTORE DUP1 PUSH1 0x3 DUP2 MSTORE PUSH1 0x20 ADD PUSH32 0x4354540000000000000000000000000000000000000000000000000000000000 DUP2 MSTORE POP DUP2 PUSH0 SWAP1 DUP2 PUSH3 0xB3 SWAP2 SWAP1 PUSH3 0x52A JUMP JUMPDEST POP DUP1 PUSH1 0x1 SWAP1 DUP2 PUSH3 0xC5 SWAP2 SWAP1 PUSH3 0x52A JUMP JUMPDEST POP POP POP PUSH0 PUSH20 0xFFFFFFFFFFFFFFFFFFFFFFFFFFFFFFFFFFFFFFFF AND DUP2 PUSH20 0xFFFFFFFFFFFFFFFFFFFFFFFFFFFFFFFFFFFFFFFF AND SUB PUSH3 0x13B JUMPI PUSH0 PUSH1 0x40 MLOAD PUSH32 0x1E4FBDF700000000000000000000000000000000000000000000000000000000 DUP2 MSTORE PUSH1 0x4 ADD PUSH3 0x132 SWAP2 SWAP1 PUSH3 0x61F JUMP JUMPDEST PUSH1 0x40 MLOAD DUP1 SWAP2 SUB SWAP1 REVERT JUMPDEST PUSH3 0x14C DUP2 PUSH3 0x16E PUSH1 0x20 SHL PUSH1 0x20 SHR JUMP JUMPDEST POP PUSH0 PUSH1 0xA PUSH1 0x14 PUSH2 0x100 EXP DUP2 SLOAD DUP2 PUSH1 0xFF MUL NOT AND SWAP1 DUP4 ISZERO ISZERO MUL OR SWAP1 SSTORE POP POP PUSH3 0x63A JUMP JUMPDEST PUSH0 PUSH1 0xA PUSH0 SWAP1 SLOAD SWAP1 PUSH2 0x100 EXP SWAP1 DIV PUSH20 0xFFFFFFFFFFFFFFFFFFFFFFFFFFFFFFFFFFFFFFFF AND SWAP1 POP DUP2 PUSH1 0xA PUSH0 PUSH2 0x100 EXP DUP2 SLOAD DUP2 PUSH20 0xFFFFFFFFFFFFFFFFFFFFFFFFFFFFFFFFFFFFFFFF MUL NOT AND SWAP1 DUP4 PUSH20 0xFFFFFFFFFFFFFFFFFFFFFFFFFFFFFFFFFFFFFFFF AND MUL OR SWAP1 SSTORE POP DUP2 PUSH20 0xFFFFFFFFFFFFFFFFFFFFFFFFFFFFFFFFFFFFFFFF AND DUP2 PUSH20 0xFFFFFFFFFFFFFFFFFFFFFFFFFFFFFFFFFFFFFFFF AND PUSH32 0x8BE0079C531659141344CD1FD0A4F28419497F9722A3DAAFE3B4186F6B6457E0 PUSH1 0x40 MLOAD PUSH1 0x40 MLOAD DUP1 SWAP2 SUB SWAP1 LOG3 POP POP JUMP JUMPDEST PUSH0 DUP1 REVERT JUMPDEST PUSH0 PUSH20 0xFFFFFFFFFFFFFFFFFFFFFFFFFFFFFFFFFFFFFFFF DUP3 AND SWAP1 POP SWAP2 SWAP1 POP JUMP JUMPDEST PUSH0 PUSH3 0x260 DUP3 PUSH3 0x235 JUMP JUMPDEST SWAP1 POP SWAP2 SWAP1 POP JUMP JUMPDEST PUSH3 0x272 DUP2 PUSH3 0x254 JUMP JUMPDEST DUP2 EQ PUSH3 0x27D JUMPI PUSH0 DUP1 REVERT JUMPDEST POP JUMP JUMPDEST PUSH0 DUP2 MLOAD SWAP1 POP PUSH3 0x290 DUP2 PUSH3 0x267 JUMP JUMPDEST SWAP3 SWAP2 POP POP JUMP JUMPDEST PUSH0 PUSH1 0x20 DUP3 DUP5 SUB SLT ISZERO PUSH3 0x2AE JUMPI PUSH3 0x2AD PUSH3 0x231 JUMP JUMPDEST JUMPDEST PUSH0 PUSH3 0x2BD DUP5 DUP3 DUP6 ADD PUSH3 0x280 JUMP JUMPDEST SWAP2 POP POP SWAP3 SWAP2 POP POP JUMP JUMPDEST PUSH0 DUP2 MLOAD SWAP1 POP SWAP2 SWAP1 POP JUMP JUMPDEST PUSH32 0x4E487B7100000000000000000000000000000000000000000000000000000000 PUSH0 MSTORE PUSH1 0x41 PUSH1 0x4 MSTORE PUSH1 0x24 PUSH0 REVERT JUMPDEST PUSH32 0x4E487B7100000000000000000000000000000000000000000000000000000000 PUSH0 MSTORE PUSH1 0x22 PUSH1 0x4 MSTORE PUSH1 0x24 PUSH0 REVERT JUMPDEST PUSH0 PUSH1 0x2 DUP3 DIV SWAP1 POP PUSH1 0x1 DUP3 AND DUP1 PUSH3 0x342 JUMPI PUSH1 0x7F DUP3 AND SWAP2 POP JUMPDEST PUSH1 0x20 DUP3 LT DUP2 SUB PUSH3 0x358 JUMPI PUSH3 0x357 PUSH3 0x2FD JUMP JUMPDEST JUMPDEST POP SWAP2 SWAP1 POP JUMP JUMPDEST PUSH0 DUP2 SWAP1 POP DUP2 PUSH0 MSTORE PUSH1 0x20 PUSH0 KECCAK256 SWAP1 POP SWAP2 SWAP1 POP JUMP JUMPDEST PUSH0 PUSH1 0x20 PUSH1 0x1F DUP4 ADD DIV SWAP1 POP SWAP2 SWAP1 POP JUMP JUMPDEST PUSH0 DUP3 DUP3 SHL SWAP1 POP SWAP3 SWAP2 POP POP JUMP JUMPDEST PUSH0 PUSH1 0x8 DUP4 MUL PUSH3 0x3BC PUSH32 0xFFFFFFFFFFFFFFFFFFFFFFFFFFFFFFFFFFFFFFFFFFFFFFFFFFFFFFFFFFFFFFFF DUP3 PUSH3 0x37F JUMP JUMPDEST PUSH3 0x3C8 DUP7 DUP4 PUSH3 0x37F JUMP JUMPDEST SWAP6 POP DUP1 NOT DUP5 AND SWAP4 POP DUP1 DUP7 AND DUP5 OR SWAP3 POP POP POP SWAP4 SWAP3 POP POP POP JUMP JUMPDEST PUSH0 DUP2 SWAP1 POP SWAP2 SWAP1 POP JUMP JUMPDEST PUSH0 DUP2 SWAP1 POP SWAP2 SWAP1 POP JUMP JUMPDEST PUSH0 PUSH3 0x412 PUSH3 0x40C PUSH3 0x406 DUP5 PUSH3 0x3E0 JUMP JUMPDEST PUSH3 0x3E9 JUMP JUMPDEST PUSH3 0x3E0 JUMP JUMPDEST SWAP1 POP SWAP2 SWAP1 POP JUMP JUMPDEST PUSH0 DUP2 SWAP1 POP SWAP2 SWAP1 POP JUMP JUMPDEST PUSH3 0x42D DUP4 PUSH3 0x3F2 JUMP JUMPDEST PUSH3 0x445 PUSH3 0x43C DUP3 PUSH3 0x419 JUMP JUMPDEST DUP5 DUP5 SLOAD PUSH3 0x38B JUMP JUMPDEST DUP3 SSTORE POP POP POP POP JUMP JUMPDEST PUSH0 SWAP1 JUMP JUMPDEST PUSH3 0x45B PUSH3 0x44D JUMP JUMPDEST PUSH3 0x468 DUP2 DUP5 DUP5 PUSH3 0x422 JUMP JUMPDEST POP POP POP JUMP JUMPDEST JUMPDEST DUP2 DUP2 LT ISZERO PUSH3 0x48F JUMPI PUSH3 0x483 PUSH0 DUP3 PUSH3 0x451 JUMP JUMPDEST PUSH1 0x1 DUP2 ADD SWAP1 POP PUSH3 0x46E JUMP JUMPDEST POP POP JUMP JUMPDEST PUSH1 0x1F DUP3 GT ISZERO PUSH3 0x4DE JUMPI PUSH3 0x4A8 DUP2 PUSH3 0x35E JUMP JUMPDEST PUSH3 0x4B3 DUP5 PUSH3 0x370 JUMP JUMPDEST DUP2 ADD PUSH1 0x20 DUP6 LT ISZERO PUSH3 0x4C3 JUMPI DUP2 SWAP1 POP JUMPDEST PUSH3 0x4DB PUSH3 0x4D2 DUP6 PUSH3 0x370 JUMP JUMPDEST DUP4 ADD DUP3 PUSH3 0x46D JUMP JUMPDEST POP POP JUMPDEST POP POP POP JUMP JUMPDEST PUSH0 DUP3 DUP3 SHR SWAP1 POP SWAP3 SWAP2 POP POP JUMP JUMPDEST PUSH0 PUSH3 0x500 PUSH0 NOT DUP5 PUSH1 0x8 MUL PUSH3 0x4E3 JUMP JUMPDEST NOT DUP1 DUP4 AND SWAP2 POP POP SWAP3 SWAP2 POP POP JUMP JUMPDEST PUSH0 PUSH3 0x51A DUP4 DUP4 PUSH3 0x4EF JUMP JUMPDEST SWAP2 POP DUP3 PUSH1 0x2 MUL DUP3 OR SWAP1 POP SWAP3 SWAP2 POP POP JUMP JUMPDEST PUSH3 0x535 DUP3 PUSH3 0x2C6 JUMP JUMPDEST PUSH8 0xFFFFFFFFFFFFFFFF DUP2 GT ISZERO PUSH3 0x551 JUMPI PUSH3 0x550 PUSH3 0x2D0 JUMP JUMPDEST JUMPDEST PUSH3 0x55D DUP3 SLOAD PUSH3 0x32A JUMP JUMPDEST PUSH3 0x56A DUP3 DUP3 DUP6 PUSH3 0x493 JUMP JUMPDEST PUSH0 PUSH1 0x20 SWAP1 POP PUSH1 0x1F DUP4 GT PUSH1 0x1 DUP2 EQ PUSH3 0x5A0 JUMPI PUSH0 DUP5 ISZERO PUSH3 0x58B JUMPI DUP3 DUP8 ADD MLOAD SWAP1 POP JUMPDEST PUSH3 0x597 DUP6 DUP3 PUSH3 0x50D JUMP JUMPDEST DUP7 SSTORE POP PUSH3 0x606 JUMP JUMPDEST PUSH1 0x1F NOT DUP5 AND PUSH3 0x5B0 DUP7 PUSH3 0x35E JUMP JUMPDEST PUSH0 JUMPDEST DUP3 DUP2 LT ISZERO PUSH3 0x5D9 JUMPI DUP5 DUP10 ADD MLOAD DUP3 SSTORE PUSH1 0x1 DUP3 ADD SWAP2 POP PUSH1 0x20 DUP6 ADD SWAP5 POP PUSH1 0x20 DUP2 ADD SWAP1 POP PUSH3 0x5B2 JUMP JUMPDEST DUP7 DUP4 LT ISZERO PUSH3 0x5F9 JUMPI DUP5 DUP10 ADD MLOAD PUSH3 0x5F5 PUSH1 0x1F DUP10 AND DUP3 PUSH3 0x4EF JUMP JUMPDEST DUP4 SSTORE POP JUMPDEST PUSH1 0x1 PUSH1 0x2 DUP9 MUL ADD DUP9 SSTORE POP POP POP JUMPDEST POP POP POP POP POP POP JUMP JUMPDEST PUSH3 0x619 DUP2 PUSH3 0x254 JUMP JUMPDEST DUP3 MSTORE POP POP JUMP JUMPDEST PUSH0 PUSH1 0x20 DUP3 ADD SWAP1 POP PUSH3 0x634 PUSH0 DUP4 ADD DUP5 PUSH3 0x60E JUMP JUMPDEST SWAP3 SWAP2 POP POP JUMP JUMPDEST PUSH2 0x1D0B DUP1 PUSH3 0x648 PUSH0 CODECOPY PUSH0 RETURN INVALID PUSH1 0x80 PUSH1 0x40 MSTORE CALLVALUE DUP1 ISZERO PUSH2 0xF JUMPI PUSH0 DUP1 REVERT JUMPDEST POP PUSH1 0x4 CALLDATASIZE LT PUSH2 0x140 JUMPI PUSH0 CALLDATALOAD PUSH1 0xE0 SHR DUP1 PUSH4 0x6352211E GT PUSH2 0xB6 JUMPI DUP1 PUSH4 0x95D89B41 GT PUSH2 0x7A JUMPI DUP1 PUSH4 0x95D89B41 EQ PUSH2 0x360 JUMPI DUP1 PUSH4 0xA22CB465 EQ PUSH2 0x37E JUMPI DUP1 PUSH4 0xB88D4FDE EQ PUSH2 0x39A JUMPI DUP1 PUSH4 0xC87B56DD EQ PUSH2 0x3B6 JUMPI DUP1 PUSH4 0xE985E9C5 EQ PUSH2 0x3E6 JUMPI DUP1 PUSH4 0xF2FDE38B EQ PUSH2 0x416 JUMPI PUSH2 0x140 JUMP JUMPDEST DUP1 PUSH4 0x6352211E EQ PUSH2 0x2CE JUMPI DUP1 PUSH4 0x6B59084D EQ PUSH2 0x2FE JUMPI DUP1 PUSH4 0x70A08231 EQ PUSH2 0x308 JUMPI DUP1 PUSH4 0x715018A6 EQ PUSH2 0x338 JUMPI DUP1 PUSH4 0x8DA5CB5B EQ PUSH2 0x342 JUMPI PUSH2 0x140 JUMP JUMPDEST DUP1 PUSH4 0x23B872DD GT PUSH2 0x108 JUMPI DUP1 PUSH4 0x23B872DD EQ PUSH2 0x1FC JUMPI DUP1 PUSH4 0x2F745C59 EQ PUSH2 0x218 JUMPI DUP1 PUSH4 0x42842E0E EQ PUSH2 0x248 JUMPI DUP1 PUSH4 0x42966C68 EQ PUSH2 0x264 JUMPI DUP1 PUSH4 0x4F6CCCE7 EQ PUSH2 0x280 JUMPI DUP1 PUSH4 0x5C975ABB EQ PUSH2 0x2B0 JUMPI PUSH2 0x140 JUMP JUMPDEST DUP1 PUSH4 0x1FFC9A7 EQ PUSH2 0x144 JUMPI DUP1 PUSH4 0x6FDDE03 EQ PUSH2 0x174 JUMPI DUP1 PUSH4 0x81812FC EQ PUSH2 0x192 JUMPI DUP1 PUSH4 0x95EA7B3 EQ PUSH2 0x1C2 JUMPI DUP1 PUSH4 0x18160DDD EQ PUSH2 0x1DE JUMPI JUMPDEST PUSH0 DUP1 REVERT JUMPDEST PUSH2 0x15E PUSH1 0x4 DUP1 CALLDATASIZE SUB DUP2 ADD SWAP1 PUSH2 0x159 SWAP2 SWAP1 PUSH2 0x1404 JUMP JUMPDEST PUSH2 0x432 JUMP JUMPDEST PUSH1 0x40 MLOAD PUSH2 0x16B SWAP2 SWAP1 PUSH2 0x1449 JUMP JUMPDEST PUSH1 0x40 MLOAD DUP1 SWAP2 SUB SWAP1 RETURN JUMPDEST PUSH2 0x17C PUSH2 0x443 JUMP JUMPDEST PUSH1 0x40 MLOAD PUSH2 0x189 SWAP2 SWAP1 PUSH2 0x14EC JUMP JUMPDEST PUSH1 0x40 MLOAD DUP1 SWAP2 SUB SWAP1 RETURN JUMPDEST PUSH2 0x1AC PUSH1 0x4 DUP1 CALLDATASIZE SUB DUP2 ADD SWAP1 PUSH2 0x1A7 SWAP2 SWAP1 PUSH2 0x153F JUMP JUMPDEST PUSH2 0x4D2 JUMP JUMPDEST PUSH1 0x40 MLOAD PUSH2 0x1B9 SWAP2 SWAP1 PUSH2 0x15A9 JUMP JUMPDEST PUSH1 0x40 MLOAD DUP1 SWAP2 SUB SWAP1 RETURN JUMPDEST PUSH2 0x1DC PUSH1 0x4 DUP1 CALLDATASIZE SUB DUP2 ADD SWAP1 PUSH2 0x1D7 SWAP2 SWAP1 PUSH2 0x15EC JUMP JUMPDEST PUSH2 0x4ED JUMP JUMPDEST STOP JUMPDEST PUSH2 0x1E6 PUSH2 0x503 JUMP JUMPDEST PUSH1 0x40 MLOAD PUSH2 0x1F3 SWAP2 SWAP1 PUSH2 0x1639 JUMP JUMPDEST PUSH1 0x40 MLOAD DUP1 SWAP2 SUB SWAP1 RETURN JUMPDEST PUSH2 0x216 PUSH1 0x4 DUP1 CALLDATASIZE SUB DUP2 ADD SWAP1 PUSH2 0x211 SWAP2 SWAP1 PUSH2 0x1652 JUMP JUMPDEST PUSH2 0x50F JUMP JUMPDEST STOP JUMPDEST PUSH2 0x232 PUSH1 0x4 DUP1 CALLDATASIZE SUB DUP2 ADD SWAP1 PUSH2 0x22D SWAP2 SWAP1 PUSH2 0x15EC JUMP JUMPDEST PUSH2 0x52A JUMP JUMPDEST PUSH1 0x40 MLOAD PUSH2 0x23F SWAP2 SWAP1 PUSH2 0x1639 JUMP JUMPDEST PUSH1 0x40 MLOAD DUP1 SWAP2 SUB SWAP1 RETURN JUMPDEST PUSH2 0x262 PUSH1 0x4 DUP1 CALLDATASIZE SUB DUP2 ADD SWAP1 PUSH2 0x25D SWAP2 SWAP1 PUSH2 0x1652 JUMP JUMPDEST PUSH2 0x5CE JUMP JUMPDEST STOP JUMPDEST PUSH2 0x27E PUSH1 0x4 DUP1 CALLDATASIZE SUB DUP2 ADD SWAP1 PUSH2 0x279 SWAP2 SWAP1 PUSH2 0x153F JUMP JUMPDEST PUSH2 0x5ED JUMP JUMPDEST STOP JUMPDEST PUSH2 0x29A PUSH1 0x4 DUP1 CALLDATASIZE SUB DUP2 ADD SWAP1 PUSH2 0x295 SWAP2 SWAP1 PUSH2 0x153F JUMP JUMPDEST PUSH2 0x603 JUMP JUMPDEST PUSH1 0x40 MLOAD PUSH2 0x2A7 SWAP2 SWAP1 PUSH2 0x1639 JUMP JUMPDEST PUSH1 0x40 MLOAD DUP1 SWAP2 SUB SWAP1 RETURN JUMPDEST PUSH2 0x2B8 PUSH2 0x675 JUMP JUMPDEST PUSH1 0x40 MLOAD PUSH2 0x2C5 SWAP2 SWAP1 PUSH2 0x1449 JUMP JUMPDEST PUSH1 0x40 MLOAD DUP1 SWAP2 SUB SWAP1 RETURN JUMPDEST PUSH2 0x2E8 PUSH1 0x4 DUP1 CALLDATASIZE SUB DUP2 ADD SWAP1 PUSH2 0x2E3 SWAP2 SWAP1 PUSH2 0x153F JUMP JUMPDEST PUSH2 0x68B JUMP JUMPDEST PUSH1 0x40 MLOAD PUSH2 0x2F5 SWAP2 SWAP1 PUSH2 0x15A9 JUMP JUMPDEST PUSH1 0x40 MLOAD DUP1 SWAP2 SUB SWAP1 RETURN JUMPDEST PUSH2 0x306 PUSH2 0x69C JUMP JUMPDEST STOP JUMPDEST PUSH2 0x322 PUSH1 0x4 DUP1 CALLDATASIZE SUB DUP2 ADD SWAP1 PUSH2 0x31D SWAP2 SWAP1 PUSH2 0x16A2 JUMP JUMPDEST PUSH2 0x6DB JUMP JUMPDEST PUSH1 0x40 MLOAD PUSH2 0x32F SWAP2 SWAP1 PUSH2 0x1639 JUMP JUMPDEST PUSH1 0x40 MLOAD DUP1 SWAP2 SUB SWAP1 RETURN JUMPDEST PUSH2 0x340 PUSH2 0x721 JUMP JUMPDEST STOP JUMPDEST PUSH2 0x34A PUSH2 0x734 JUMP JUMPDEST PUSH1 0x40 MLOAD PUSH2 0x357 SWAP2 SWAP1 PUSH2 0x15A9 JUMP JUMPDEST PUSH1 0x40 MLOAD DUP1 SWAP2 SUB SWAP1 RETURN JUMPDEST PUSH2 0x368 PUSH2 0x75C JUMP JUMPDEST PUSH1 0x40 MLOAD PUSH2 0x375 SWAP2 SWAP1 PUSH2 0x14EC JUMP JUMPDEST PUSH1 0x40 MLOAD DUP1 SWAP2 SUB SWAP1 RETURN JUMPDEST PUSH2 0x398 PUSH1 0x4 DUP1 CALLDATASIZE SUB DUP2 ADD SWAP1 PUSH2 0x393 SWAP2 SWAP1 PUSH2 0x16F7 JUMP JUMPDEST PUSH2 0x7EC JUMP JUMPDEST STOP JUMPDEST PUSH2 0x3B4 PUSH1 0x4 DUP1 CALLDATASIZE SUB DUP2 ADD SWAP1 PUSH2 0x3AF SWAP2 SWAP1 PUSH2 0x1861 JUMP JUMPDEST PUSH2 0x802 JUMP JUMPDEST STOP JUMPDEST PUSH2 0x3D0 PUSH1 0x4 DUP1 CALLDATASIZE SUB DUP2 ADD SWAP1 PUSH2 0x3CB SWAP2 SWAP1 PUSH2 0x153F JUMP JUMPDEST PUSH2 0x81F JUMP JUMPDEST PUSH1 0x40 MLOAD PUSH2 0x3DD SWAP2 SWAP1 PUSH2 0x14EC JUMP JUMPDEST PUSH1 0x40 MLOAD DUP1 SWAP2 SUB SWAP1 RETURN JUMPDEST PUSH2 0x400 PUSH1 0x4 DUP1 CALLDATASIZE SUB DUP2 ADD SWAP1 PUSH2 0x3FB SWAP2 SWAP1 PUSH2 0x18E1 JUMP JUMPDEST PUSH2 0x885 JUMP JUMPDEST PUSH1 0x40 MLOAD PUSH2 0x40D SWAP2 SWAP1 PUSH2 0x1449 JUMP JUMPDEST PUSH1 0x40 MLOAD DUP1 SWAP2 SUB SWAP1 RETURN JUMPDEST PUSH2 0x430 PUSH1 0x4 DUP1 CALLDATASIZE SUB DUP2 ADD SWAP1 PUSH2 0x42B SWAP2 SWAP1 PUSH2 0x16A2 JUMP JUMPDEST PUSH2 0x913 JUMP JUMPDEST STOP JUMPDEST PUSH0 PUSH2 0x43C DUP3 PUSH2 0x997 JUMP JUMPDEST SWAP1 POP SWAP2 SWAP1 POP JUMP JUMPDEST PUSH1 0x60 PUSH0 DUP1 SLOAD PUSH2 0x451 SWAP1 PUSH2 0x194C JUMP JUMPDEST DUP1 PUSH1 0x1F ADD PUSH1 0x20 DUP1 SWAP2 DIV MUL PUSH1 0x20 ADD PUSH1 0x40 MLOAD SWAP1 DUP2 ADD PUSH1 0x40 MSTORE DUP1 SWAP3 SWAP2 SWAP1 DUP2 DUP2 MSTORE PUSH1 0x20 ADD DUP3 DUP1 SLOAD PUSH2 0x47D SWAP1 PUSH2 0x194C JUMP JUMPDEST DUP1 ISZERO PUSH2 0x4C8 JUMPI DUP1 PUSH1 0x1F LT PUSH2 0x49F JUMPI PUSH2 0x100 DUP1 DUP4 SLOAD DIV MUL DUP4 MSTORE SWAP2 PUSH1 0x20 ADD SWAP2 PUSH2 0x4C8 JUMP JUMPDEST DUP3 ADD SWAP2 SWAP1 PUSH0 MSTORE PUSH1 0x20 PUSH0 KECCAK256 SWAP1 JUMPDEST DUP2 SLOAD DUP2 MSTORE SWAP1 PUSH1 0x1 ADD SWAP1 PUSH1 0x20 ADD DUP1 DUP4 GT PUSH2 0x4AB JUMPI DUP3 SWAP1 SUB PUSH1 0x1F AND DUP3 ADD SWAP2 JUMPDEST POP POP POP POP POP SWAP1 POP SWAP1 JUMP JUMPDEST PUSH0 PUSH2 0x4DC DUP3 PUSH2 0xA10 JUMP JUMPDEST POP PUSH2 0x4E6 DUP3 PUSH2 0xA26 JUMP JUMPDEST SWAP1 POP SWAP2 SWAP1 POP JUMP JUMPDEST PUSH2 0x4FF DUP3 DUP3 PUSH2 0x4FA PUSH2 0xA5F JUMP JUMPDEST PUSH2 0xA66 JUMP JUMPDEST POP POP JUMP JUMPDEST PUSH0 PUSH1 0x8 DUP1 SLOAD SWAP1 POP SWAP1 POP SWAP1 JUMP JUMPDEST PUSH0 PUSH2 0x522 DUP4 DUP4 PUSH2 0x51D PUSH2 0xA5F JUMP JUMPDEST PUSH2 0xA78 JUMP JUMPDEST SWAP1 POP POP POP POP POP JUMP JUMPDEST PUSH0 PUSH2 0x534 DUP4 PUSH2 0x6DB JUMP JUMPDEST DUP3 LT PUSH2 0x579 JUMPI DUP3 DUP3 PUSH1 0x40 MLOAD PUSH32 0xA57D13DC00000000000000000000000000000000000000000000000000000000 DUP2 MSTORE PUSH1 0x4 ADD PUSH2 0x570 SWAP3 SWAP2 SWAP1 PUSH2 0x197C JUMP JUMPDEST PUSH1 0x40 MLOAD DUP1 SWAP2 SUB SWAP1 REVERT JUMPDEST PUSH1 0x6 PUSH0 DUP5 PUSH20 0xFFFFFFFFFFFFFFFFFFFFFFFFFFFFFFFFFFFFFFFF AND PUSH20 0xFFFFFFFFFFFFFFFFFFFFFFFFFFFFFFFFFFFFFFFF AND DUP2 MSTORE PUSH1 0x20 ADD SWAP1 DUP2 MSTORE PUSH1 0x20 ADD PUSH0 KECCAK256 PUSH0 DUP4 DUP2 MSTORE PUSH1 0x20 ADD SWAP1 DUP2 MSTORE PUSH1 0x20 ADD PUSH0 KECCAK256 SLOAD SWAP1 POP SWAP3 SWAP2 POP POP JUMP JUMPDEST PUSH2 0x5E8 DUP4 DUP4 DUP4 PUSH1 0x40 MLOAD DUP1 PUSH1 0x20 ADD PUSH1 0x40 MSTORE DUP1 PUSH0 DUP2 MSTORE POP PUSH2 0x802 JUMP JUMPDEST POP POP POP JUMP JUMPDEST PUSH2 0x5FF PUSH0 DUP3 PUSH2 0x5FA PUSH2 0xA5F JUMP JUMPDEST PUSH2 0xA78 JUMP JUMPDEST POP POP JUMP JUMPDEST PUSH0 PUSH2 0x60C PUSH2 0x503 JUMP JUMPDEST DUP3 LT PUSH2 0x651 JUMPI PUSH0 DUP3 PUSH1 0x40 MLOAD PUSH32 0xA57D13DC00000000000000000000000000000000000000000000000000000000 DUP2 MSTORE PUSH1 0x4 ADD PUSH2 0x648 SWAP3 SWAP2 SWAP1 PUSH2 0x197C JUMP JUMPDEST PUSH1 0x40 MLOAD DUP1 SWAP2 SUB SWAP1 REVERT JUMPDEST PUSH1 0x8 DUP3 DUP2 SLOAD DUP2 LT PUSH2 0x665 JUMPI PUSH2 0x664 PUSH2 0x19A3 JUMP JUMPDEST JUMPDEST SWAP1 PUSH0 MSTORE PUSH1 0x20 PUSH0 KECCAK256 ADD SLOAD SWAP1 POP SWAP2 SWAP1 POP JUMP JUMPDEST PUSH0 PUSH1 0xA PUSH1 0x14 SWAP1 SLOAD SWAP1 PUSH2 0x100 EXP SWAP1 DIV PUSH1 0xFF AND SWAP1 POP SWAP1 JUMP JUMPDEST PUSH0 PUSH2 0x695 DUP3 PUSH2 0xA10 JUMP JUMPDEST SWAP1 POP SWAP2 SWAP1 POP JUMP JUMPDEST PUSH32 0xCF34EF537AC33EE1AC626CA1587A0A7E8E51561E5514F8CB36AFA1C5102B3BAB PUSH1 0x40 MLOAD PUSH2 0x6C9 SWAP1 PUSH2 0x1A1A JUMP JUMPDEST PUSH1 0x40 MLOAD DUP1 SWAP2 SUB SWAP1 LOG1 PUSH2 0x6D9 PUSH2 0xA80 JUMP JUMPDEST JUMP JUMPDEST PUSH0 PUSH1 0x3 PUSH0 DUP4 PUSH20 0xFFFFFFFFFFFFFFFFFFFFFFFFFFFFFFFFFFFFFFFF AND PUSH20 0xFFFFFFFFFFFFFFFFFFFFFFFFFFFFFFFFFFFFFFFF AND DUP2 MSTORE PUSH1 0x20 ADD SWAP1 DUP2 MSTORE PUSH1 0x20 ADD PUSH0 KECCAK256 SLOAD SWAP1 POP SWAP2 SWAP1 POP JUMP JUMPDEST PUSH2 0x729 PUSH2 0xABF JUMP JUMPDEST PUSH2 0x732 PUSH0 PUSH2 0xB46 JUMP JUMPDEST JUMP JUMPDEST PUSH0 PUSH1 0xA PUSH0 SWAP1 SLOAD SWAP1 PUSH2 0x100 EXP SWAP1 DIV PUSH20 0xFFFFFFFFFFFFFFFFFFFFFFFFFFFFFFFFFFFFFFFF AND SWAP1 POP SWAP1 JUMP JUMPDEST PUSH1 0x60 PUSH1 0x1 DUP1 SLOAD PUSH2 0x76B SWAP1 PUSH2 0x194C JUMP JUMPDEST DUP1 PUSH1 0x1F ADD PUSH1 0x20 DUP1 SWAP2 DIV MUL PUSH1 0x20 ADD PUSH1 0x40 MLOAD SWAP1 DUP2 ADD PUSH1 0x40 MSTORE DUP1 SWAP3 SWAP2 SWAP1 DUP2 DUP2 MSTORE PUSH1 0x20 ADD DUP3 DUP1 SLOAD PUSH2 0x797 SWAP1 PUSH2 0x194C JUMP JUMPDEST DUP1 ISZERO PUSH2 0x7E2 JUMPI DUP1 PUSH1 0x1F LT PUSH2 0x7B9 JUMPI PUSH2 0x100 DUP1 DUP4 SLOAD DIV MUL DUP4 MSTORE SWAP2 PUSH1 0x20 ADD SWAP2 PUSH2 0x7E2 JUMP JUMPDEST DUP3 ADD SWAP2 SWAP1 PUSH0 MSTORE PUSH1 0x20 PUSH0 KECCAK256 SWAP1 JUMPDEST DUP2 SLOAD DUP2 MSTORE SWAP1 PUSH1 0x1 ADD SWAP1 PUSH1 0x20 ADD DUP1 DUP4 GT PUSH2 0x7C5 JUMPI DUP3 SWAP1 SUB PUSH1 0x1F AND DUP3 ADD SWAP2 JUMPDEST POP POP POP POP POP SWAP1 POP SWAP1 JUMP JUMPDEST PUSH2 0x7FE PUSH2 0x7F7 PUSH2 0xA5F JUMP JUMPDEST DUP4 DUP4 PUSH2 0xC09 JUMP JUMPDEST POP POP JUMP JUMPDEST PUSH2 0x80D DUP5 DUP5 DUP5 PUSH2 0x50F JUMP JUMPDEST PUSH2 0x819 DUP5 DUP5 DUP5 DUP5 PUSH2 0xD02 JUMP JUMPDEST POP POP POP POP JUMP JUMPDEST PUSH1 0x60 PUSH2 0x82A DUP3 PUSH2 0xA10 JUMP JUMPDEST POP PUSH0 PUSH2 0x834 PUSH2 0xDF6 JUMP JUMPDEST SWAP1 POP PUSH0 DUP2 MLOAD GT PUSH2 0x852 JUMPI PUSH1 0x40 MLOAD DUP1 PUSH1 0x20 ADD PUSH1 0x40 MSTORE DUP1 PUSH0 DUP2 MSTORE POP PUSH2 0x87D JUMP JUMPDEST DUP1 PUSH2 0x85C DUP5 PUSH2 0xE0C JUMP JUMPDEST PUSH1 0x40 MLOAD PUSH1 0x20 ADD PUSH2 0x86D SWAP3 SWAP2 SWAP1 PUSH2 0x1A72 JUMP JUMPDEST PUSH1 0x40 MLOAD PUSH1 0x20 DUP2 DUP4 SUB SUB DUP2 MSTORE SWAP1 PUSH1 0x40 MSTORE JUMPDEST SWAP2 POP POP SWAP2 SWAP1 POP JUMP JUMPDEST PUSH0 PUSH1 0x5 PUSH0 DUP5 PUSH20 0xFFFFFFFFFFFFFFFFFFFFFFFFFFFFFFFFFFFFFFFF AND PUSH20 0xFFFFFFFFFFFFFFFFFFFFFFFFFFFFFFFFFFFFFFFF AND DUP2 MSTORE PUSH1 0x20 ADD SWAP1 DUP2 MSTORE PUSH1 0x20 ADD PUSH0 KECCAK256 PUSH0 DUP4 PUSH20 0xFFFFFFFFFFFFFFFFFFFFFFFFFFFFFFFFFFFFFFFF AND PUSH20 0xFFFFFFFFFFFFFFFFFFFFFFFFFFFFFFFFFFFFFFFF AND DUP2 MSTORE PUSH1 0x20 ADD SWAP1 DUP2 MSTORE PUSH1 0x20 ADD PUSH0 KECCAK256 PUSH0 SWAP1 SLOAD SWAP1 PUSH2 0x100 EXP SWAP1 DIV PUSH1 0xFF AND SWAP1 POP SWAP3 SWAP2 POP POP JUMP JUMPDEST PUSH2 0x91B PUSH2 0xABF JUMP JUMPDEST PUSH0 PUSH20 0xFFFFFFFFFFFFFFFFFFFFFFFFFFFFFFFFFFFFFFFF AND DUP2 PUSH20 0xFFFFFFFFFFFFFFFFFFFFFFFFFFFFFFFFFFFFFFFF AND SUB PUSH2 0x98B JUMPI PUSH0 PUSH1 0x40 MLOAD PUSH32 0x1E4FBDF700000000000000000000000000000000000000000000000000000000 DUP2 MSTORE PUSH1 0x4 ADD PUSH2 0x982 SWAP2 SWAP1 PUSH2 0x15A9 JUMP JUMPDEST PUSH1 0x40 MLOAD DUP1 SWAP2 SUB SWAP1 REVERT JUMPDEST PUSH2 0x994 DUP2 PUSH2 0xB46 JUMP JUMPDEST POP JUMP JUMPDEST PUSH0 PUSH32 0x780E9D6300000000000000000000000000000000000000000000000000000000 PUSH28 0xFFFFFFFFFFFFFFFFFFFFFFFFFFFFFFFFFFFFFFFFFFFFFFFFFFFFFFFF NOT AND DUP3 PUSH28 0xFFFFFFFFFFFFFFFFFFFFFFFFFFFFFFFFFFFFFFFFFFFFFFFFFFFFFFFF NOT AND EQ DUP1 PUSH2 0xA09 JUMPI POP PUSH2 0xA08 DUP3 PUSH2 0xED6 JUMP JUMPDEST JUMPDEST SWAP1 POP SWAP2 SWAP1 POP JUMP JUMPDEST PUSH0 DUP1 PUSH2 0xA1B DUP4 PUSH2 0xFB7 JUMP JUMPDEST SWAP1 POP DUP1 SWAP2 POP POP SWAP2 SWAP1 POP JUMP JUMPDEST PUSH0 PUSH1 0x4 PUSH0 DUP4 DUP2 MSTORE PUSH1 0x20 ADD SWAP1 DUP2 MSTORE PUSH1 0x20 ADD PUSH0 KECCAK256 PUSH0 SWAP1 SLOAD SWAP1 PUSH2 0x100 EXP SWAP1 DIV PUSH20 0xFFFFFFFFFFFFFFFFFFFFFFFFFFFFFFFFFFFFFFFF AND SWAP1 POP SWAP2 SWAP1 POP JUMP JUMPDEST PUSH0 CALLER SWAP1 POP SWAP1 JUMP JUMPDEST PUSH2 0xA73 DUP4 DUP4 DUP4 PUSH1 0x1 PUSH2 0xFF0 JUMP JUMPDEST POP POP POP JUMP JUMPDEST PUSH0 SWAP4 SWAP3 POP POP POP JUMP JUMPDEST PUSH32 0xCF34EF537AC33EE1AC626CA1587A0A7E8E51561E5514F8CB36AFA1C5102B3BAB PUSH1 0x40 MLOAD PUSH2 0xAAD SWAP1 PUSH2 0x1ADF JUMP JUMPDEST PUSH1 0x40 MLOAD DUP1 SWAP2 SUB SWAP1 LOG1 PUSH2 0xABD PUSH2 0x116E JUMP JUMPDEST JUMP JUMPDEST PUSH2 0xAC7 PUSH2 0xA5F JUMP JUMPDEST PUSH20 0xFFFFFFFFFFFFFFFFFFFFFFFFFFFFFFFFFFFFFFFF AND PUSH2 0xAE5 PUSH2 0x734 JUMP JUMPDEST PUSH20 0xFFFFFFFFFFFFFFFFFFFFFFFFFFFFFFFFFFFFFFFF AND EQ PUSH2 0xB44 JUMPI PUSH2 0xB08 PUSH2 0xA5F JUMP JUMPDEST PUSH1 0x40 MLOAD PUSH32 0x118CDAA700000000000000000000000000000000000000000000000000000000 DUP2 MSTORE PUSH1 0x4 ADD PUSH2 0xB3B SWAP2 SWAP1 PUSH2 0x15A9 JUMP JUMPDEST PUSH1 0x40 MLOAD DUP1 SWAP2 SUB SWAP1 REVERT JUMPDEST JUMP JUMPDEST PUSH0 PUSH1 0xA PUSH0 SWAP1 SLOAD SWAP1 PUSH2 0x100 EXP SWAP1 DIV PUSH20 0xFFFFFFFFFFFFFFFFFFFFFFFFFFFFFFFFFFFFFFFF AND SWAP1 POP DUP2 PUSH1 0xA PUSH0 PUSH2 0x100 EXP DUP2 SLOAD DUP2 PUSH20 0xFFFFFFFFFFFFFFFFFFFFFFFFFFFFFFFFFFFFFFFF MUL NOT AND SWAP1 DUP4 PUSH20 0xFFFFFFFFFFFFFFFFFFFFFFFFFFFFFFFFFFFFFFFF AND MUL OR SWAP1 SSTORE POP DUP2 PUSH20 0xFFFFFFFFFFFFFFFFFFFFFFFFFFFFFFFFFFFFFFFF AND DUP2 PUSH20 0xFFFFFFFFFFFFFFFFFFFFFFFFFFFFFFFFFFFFFFFF AND PUSH32 0x8BE0079C531659141344CD1FD0A4F28419497F9722A3DAAFE3B4186F6B6457E0 PUSH1 0x40 MLOAD PUSH1 0x40 MLOAD DUP1 SWAP2 SUB SWAP1 LOG3 POP POP JUMP JUMPDEST DUP1 PUSH1 0x5 PUSH0 DUP6 PUSH20 0xFFFFFFFFFFFFFFFFFFFFFFFFFFFFFFFFFFFFFFFF AND PUSH20 0xFFFFFFFFFFFFFFFFFFFFFFFFFFFFFFFFFFFFFFFF AND DUP2 MSTORE PUSH1 0x20 ADD SWAP1 DUP2 MSTORE PUSH1 0x20 ADD PUSH0 KECCAK256 PUSH0 DUP5 PUSH20 0xFFFFFFFFFFFFFFFFFFFFFFFFFFFFFFFFFFFFFFFF AND PUSH20 0xFFFFFFFFFFFFFFFFFFFFFFFFFFFFFFFFFFFFFFFF AND DUP2 MSTORE PUSH1 0x20 ADD SWAP1 DUP2 MSTORE PUSH1 0x20 ADD PUSH0 KECCAK256 PUSH0 PUSH2 0x100 EXP DUP2 SLOAD DUP2 PUSH1 0xFF MUL NOT AND SWAP1 DUP4 ISZERO ISZERO MUL OR SWAP1 SSTORE POP DUP2 PUSH20 0xFFFFFFFFFFFFFFFFFFFFFFFFFFFFFFFFFFFFFFFF AND DUP4 PUSH20 0xFFFFFFFFFFFFFFFFFFFFFFFFFFFFFFFFFFFFFFFF AND PUSH32 0x17307EAB39AB6107E8899845AD3D59BD9653F200F220920489CA2B5937696C31 DUP4 PUSH1 0x40 MLOAD PUSH2 0xCF5 SWAP2 SWAP1 PUSH2 0x1449 JUMP JUMPDEST PUSH1 0x40 MLOAD DUP1 SWAP2 SUB SWAP1 LOG3 POP POP POP JUMP JUMPDEST PUSH0 DUP4 PUSH20 0xFFFFFFFFFFFFFFFFFFFFFFFFFFFFFFFFFFFFFFFF AND EXTCODESIZE GT ISZERO PUSH2 0xDF0 JUMPI DUP3 PUSH20 0xFFFFFFFFFFFFFFFFFFFFFFFFFFFFFFFFFFFFFFFF AND PUSH4 0x150B7A02 PUSH2 0xD45 PUSH2 0xA5F JUMP JUMPDEST DUP7 DUP6 DUP6 PUSH1 0x40 MLOAD DUP6 PUSH4 0xFFFFFFFF AND PUSH1 0xE0 SHL DUP2 MSTORE PUSH1 0x4 ADD PUSH2 0xD67 SWAP5 SWAP4 SWAP3 SWAP2 SWAP1 PUSH2 0x1B4F JUMP JUMPDEST PUSH1 0x20 PUSH1 0x40 MLOAD DUP1 DUP4 SUB DUP2 PUSH0 DUP8 GAS CALL SWAP3 POP POP POP DUP1 ISZERO PUSH2 0xDA2 JUMPI POP PUSH1 0x40 MLOAD RETURNDATASIZE PUSH1 0x1F NOT PUSH1 0x1F DUP3 ADD AND DUP3 ADD DUP1 PUSH1 0x40 MSTORE POP DUP2 ADD SWAP1 PUSH2 0xD9F SWAP2 SWAP1 PUSH2 0x1BAD JUMP JUMPDEST PUSH1 0x1 JUMPDEST PUSH2 0xDED JUMPI RETURNDATASIZE DUP1 PUSH0 DUP2 EQ PUSH2 0xDD0 JUMPI PUSH1 0x40 MLOAD SWAP2 POP PUSH1 0x1F NOT PUSH1 0x3F RETURNDATASIZE ADD AND DUP3 ADD PUSH1 0x40 MSTORE RETURNDATASIZE DUP3 MSTORE RETURNDATASIZE PUSH0 PUSH1 0x20 DUP5 ADD RETURNDATACOPY PUSH2 0xDD5 JUMP JUMPDEST PUSH1 0x60 SWAP2 POP JUMPDEST POP PUSH0 DUP2 MLOAD SUB ISZERO PUSH2 0xDE7 JUMPI DUP1 MLOAD DUP2 PUSH1 0x20 ADD REVERT JUMPDEST POP PUSH2 0xDEF JUMP JUMPDEST POP JUMPDEST JUMPDEST POP POP POP POP JUMP JUMPDEST PUSH1 0x60 PUSH1 0x40 MLOAD DUP1 PUSH1 0x20 ADD PUSH1 0x40 MSTORE DUP1 PUSH0 DUP2 MSTORE POP SWAP1 POP SWAP1 JUMP JUMPDEST PUSH1 0x60 PUSH0 PUSH1 0x1 PUSH2 0xE1A DUP5 PUSH2 0x11AD JUMP JUMPDEST ADD SWAP1 POP PUSH0 DUP2 PUSH8 0xFFFFFFFFFFFFFFFF DUP2 GT ISZERO PUSH2 0xE38 JUMPI PUSH2 0xE37 PUSH2 0x173D JUMP JUMPDEST JUMPDEST PUSH1 0x40 MLOAD SWAP1 DUP1 DUP3 MSTORE DUP1 PUSH1 0x1F ADD PUSH1 0x1F NOT AND PUSH1 0x20 ADD DUP3 ADD PUSH1 0x40 MSTORE DUP1 ISZERO PUSH2 0xE6A JUMPI DUP2 PUSH1 0x20 ADD PUSH1 0x1 DUP3 MUL DUP1 CALLDATASIZE DUP4 CALLDATACOPY DUP1 DUP3 ADD SWAP2 POP POP SWAP1 POP JUMPDEST POP SWAP1 POP PUSH0 DUP3 PUSH1 0x20 ADD DUP3 ADD SWAP1 POP JUMPDEST PUSH1 0x1 ISZERO PUSH2 0xECB JUMPI DUP1 DUP1 PUSH1 0x1 SWAP1 SUB SWAP2 POP POP PUSH32 0x3031323334353637383961626364656600000000000000000000000000000000 PUSH1 0xA DUP7 MOD BYTE DUP2 MSTORE8 PUSH1 0xA DUP6 DUP2 PUSH2 0xEC0 JUMPI PUSH2 0xEBF PUSH2 0x1BD8 JUMP JUMPDEST JUMPDEST DIV SWAP5 POP PUSH0 DUP6 SUB PUSH2 0xE77 JUMPI JUMPDEST DUP2 SWAP4 POP POP POP POP SWAP2 SWAP1 POP JUMP JUMPDEST PUSH0 PUSH32 0x80AC58CD00000000000000000000000000000000000000000000000000000000 PUSH28 0xFFFFFFFFFFFFFFFFFFFFFFFFFFFFFFFFFFFFFFFFFFFFFFFFFFFFFFFF NOT AND DUP3 PUSH28 0xFFFFFFFFFFFFFFFFFFFFFFFFFFFFFFFFFFFFFFFFFFFFFFFFFFFFFFFF NOT AND EQ DUP1 PUSH2 0xFA0 JUMPI POP PUSH32 0x5B5E139F00000000000000000000000000000000000000000000000000000000 PUSH28 0xFFFFFFFFFFFFFFFFFFFFFFFFFFFFFFFFFFFFFFFFFFFFFFFFFFFFFFFF NOT AND DUP3 PUSH28 0xFFFFFFFFFFFFFFFFFFFFFFFFFFFFFFFFFFFFFFFFFFFFFFFFFFFFFFFF NOT AND EQ JUMPDEST DUP1 PUSH2 0xFB0 JUMPI POP PUSH2 0xFAF DUP3 PUSH2 0x12FE JUMP JUMPDEST JUMPDEST SWAP1 POP SWAP2 SWAP1 POP JUMP JUMPDEST PUSH0 PUSH1 0x2 PUSH0 DUP4 DUP2 MSTORE PUSH1 0x20 ADD SWAP1 DUP2 MSTORE PUSH1 0x20 ADD PUSH0 KECCAK256 PUSH0 SWAP1 SLOAD SWAP1 PUSH2 0x100 EXP SWAP1 DIV PUSH20 0xFFFFFFFFFFFFFFFFFFFFFFFFFFFFFFFFFFFFFFFF AND SWAP1 POP SWAP2 SWAP1 POP JUMP JUMPDEST DUP1 DUP1 PUSH2 0x1028 JUMPI POP PUSH0 PUSH20 0xFFFFFFFFFFFFFFFFFFFFFFFFFFFFFFFFFFFFFFFF AND DUP3 PUSH20 0xFFFFFFFFFFFFFFFFFFFFFFFFFFFFFFFFFFFFFFFF AND EQ ISZERO JUMPDEST ISZERO PUSH2 0x1119 JUMPI PUSH0 PUSH2 0x1037 DUP5 PUSH2 0xA10 JUMP JUMPDEST SWAP1 POP PUSH0 PUSH20 0xFFFFFFFFFFFFFFFFFFFFFFFFFFFFFFFFFFFFFFFF AND DUP4 PUSH20 0xFFFFFFFFFFFFFFFFFFFFFFFFFFFFFFFFFFFFFFFF AND EQ ISZERO DUP1 ISZERO PUSH2 0x10A1 JUMPI POP DUP3 PUSH20 0xFFFFFFFFFFFFFFFFFFFFFFFFFFFFFFFFFFFFFFFF AND DUP2 PUSH20 0xFFFFFFFFFFFFFFFFFFFFFFFFFFFFFFFFFFFFFFFF AND EQ ISZERO JUMPDEST DUP1 ISZERO PUSH2 0x10B4 JUMPI POP PUSH2 0x10B2 DUP2 DUP5 PUSH2 0x885 JUMP JUMPDEST ISZERO JUMPDEST POP DUP2 ISZERO PUSH2 0x1117 JUMPI DUP4 DUP6 PUSH20 0xFFFFFFFFFFFFFFFFFFFFFFFFFFFFFFFFFFFFFFFF AND DUP3 PUSH20 0xFFFFFFFFFFFFFFFFFFFFFFFFFFFFFFFFFFFFFFFF AND PUSH32 0x8C5BE1E5EBEC7D5BD14F71427D1E84F3DD0314C0F7B2291E5B200AC8C7C3B925 PUSH1 0x40 MLOAD PUSH1 0x40 MLOAD DUP1 SWAP2 SUB SWAP1 LOG4 JUMPDEST POP JUMPDEST DUP4 PUSH1 0x4 PUSH0 DUP6 DUP2 MSTORE PUSH1 0x20 ADD SWAP1 DUP2 MSTORE PUSH1 0x20 ADD PUSH0 KECCAK256 PUSH0 PUSH2 0x100 EXP DUP2 SLOAD DUP2 PUSH20 0xFFFFFFFFFFFFFFFFFFFFFFFFFFFFFFFFFFFFFFFF MUL NOT AND SWAP1 DUP4 PUSH20 0xFFFFFFFFFFFFFFFFFFFFFFFFFFFFFFFFFFFFFFFF AND MUL OR SWAP1 SSTORE POP POP POP POP POP JUMP JUMPDEST PUSH32 0xCF34EF537AC33EE1AC626CA1587A0A7E8E51561E5514F8CB36AFA1C5102B3BAB PUSH1 0x40 MLOAD PUSH2 0x119B SWAP1 PUSH2 0x1C4F JUMP JUMPDEST PUSH1 0x40 MLOAD DUP1 SWAP2 SUB SWAP1 LOG1 PUSH2 0x11AB PUSH2 0x1367 JUMP JUMPDEST JUMP JUMPDEST PUSH0 DUP1 PUSH0 SWAP1 POP PUSH27 0x184F03E93FF9F4DAA797ED6E38ED64BF6A1F010000000000000000 DUP4 LT PUSH2 0x1209 JUMPI PUSH27 0x184F03E93FF9F4DAA797ED6E38ED64BF6A1F010000000000000000 DUP4 DUP2 PUSH2 0x11FF JUMPI PUSH2 0x11FE PUSH2 0x1BD8 JUMP JUMPDEST JUMPDEST DIV SWAP3 POP PUSH1 0x40 DUP2 ADD SWAP1 POP JUMPDEST PUSH14 0x4EE2D6D415B85ACEF8100000000 DUP4 LT PUSH2 0x1246 JUMPI PUSH14 0x4EE2D6D415B85ACEF8100000000 DUP4 DUP2 PUSH2 0x123C JUMPI PUSH2 0x123B PUSH2 0x1BD8 JUMP JUMPDEST JUMPDEST DIV SWAP3 POP PUSH1 0x20 DUP2 ADD SWAP1 POP JUMPDEST PUSH7 0x2386F26FC10000 DUP4 LT PUSH2 0x1275 JUMPI PUSH7 0x2386F26FC10000 DUP4 DUP2 PUSH2 0x126B JUMPI PUSH2 0x126A PUSH2 0x1BD8 JUMP JUMPDEST JUMPDEST DIV SWAP3 POP PUSH1 0x10 DUP2 ADD SWAP1 POP JUMPDEST PUSH4 0x5F5E100 DUP4 LT PUSH2 0x129E JUMPI PUSH4 0x5F5E100 DUP4 DUP2 PUSH2 0x1294 JUMPI PUSH2 0x1293 PUSH2 0x1BD8 JUMP JUMPDEST JUMPDEST DIV SWAP3 POP PUSH1 0x8 DUP2 ADD SWAP1 POP JUMPDEST PUSH2 0x2710 DUP4 LT PUSH2 0x12C3 JUMPI PUSH2 0x2710 DUP4 DUP2 PUSH2 0x12B9 JUMPI PUSH2 0x12B8 PUSH2 0x1BD8 JUMP JUMPDEST JUMPDEST DIV SWAP3 POP PUSH1 0x4 DUP2 ADD SWAP1 POP JUMPDEST PUSH1 0x64 DUP4 LT PUSH2 0x12E6 JUMPI PUSH1 0x64 DUP4 DUP2 PUSH2 0x12DC JUMPI PUSH2 0x12DB PUSH2 0x1BD8 JUMP JUMPDEST JUMPDEST DIV SWAP3 POP PUSH1 0x2 DUP2 ADD SWAP1 POP JUMPDEST PUSH1 0xA DUP4 LT PUSH2 0x12F5 JUMPI PUSH1 0x1 DUP2 ADD SWAP1 POP JUMPDEST DUP1 SWAP2 POP POP SWAP2 SWAP1 POP JUMP JUMPDEST PUSH0 PUSH32 0x1FFC9A700000000000000000000000000000000000000000000000000000000 PUSH28 0xFFFFFFFFFFFFFFFFFFFFFFFFFFFFFFFFFFFFFFFFFFFFFFFFFFFFFFFF NOT AND DUP3 PUSH28 0xFFFFFFFFFFFFFFFFFFFFFFFFFFFFFFFFFFFFFFFFFFFFFFFFFFFFFFFF NOT AND EQ SWAP1 POP SWAP2 SWAP1 POP JUMP JUMPDEST PUSH32 0xCF34EF537AC33EE1AC626CA1587A0A7E8E51561E5514F8CB36AFA1C5102B3BAB PUSH1 0x40 MLOAD PUSH2 0x1394 SWAP1 PUSH2 0x1CB7 JUMP JUMPDEST PUSH1 0x40 MLOAD DUP1 SWAP2 SUB SWAP1 LOG1 JUMP JUMPDEST PUSH0 PUSH1 0x40 MLOAD SWAP1 POP SWAP1 JUMP JUMPDEST PUSH0 DUP1 REVERT JUMPDEST PUSH0 DUP1 REVERT JUMPDEST PUSH0 PUSH32 0xFFFFFFFF00000000000000000000000000000000000000000000000000000000 DUP3 AND SWAP1 POP SWAP2 SWAP1 POP JUMP JUMPDEST PUSH2 0x13E3 DUP2 PUSH2 0x13AF JUMP JUMPDEST DUP2 EQ PUSH2 0x13ED JUMPI PUSH0 DUP1 REVERT JUMPDEST POP JUMP JUMPDEST PUSH0 DUP2 CALLDATALOAD SWAP1 POP PUSH2 0x13FE DUP2 PUSH2 0x13DA JUMP JUMPDEST SWAP3 SWAP2 POP POP JUMP JUMPDEST PUSH0 PUSH1 0x20 DUP3 DUP5 SUB SLT ISZERO PUSH2 0x1419 JUMPI PUSH2 0x1418 PUSH2 0x13A7 JUMP JUMPDEST JUMPDEST PUSH0 PUSH2 0x1426 DUP5 DUP3 DUP6 ADD PUSH2 0x13F0 JUMP JUMPDEST SWAP2 POP POP SWAP3 SWAP2 POP POP JUMP JUMPDEST PUSH0 DUP2 ISZERO ISZERO SWAP1 POP SWAP2 SWAP1 POP JUMP JUMPDEST PUSH2 0x1443 DUP2 PUSH2 0x142F JUMP JUMPDEST DUP3 MSTORE POP POP JUMP JUMPDEST PUSH0 PUSH1 0x20 DUP3 ADD SWAP1 POP PUSH2 0x145C PUSH0 DUP4 ADD DUP5 PUSH2 0x143A JUMP JUMPDEST SWAP3 SWAP2 POP POP JUMP JUMPDEST PUSH0 DUP2 MLOAD SWAP1 POP SWAP2 SWAP1 POP JUMP JUMPDEST PUSH0 DUP3 DUP3 MSTORE PUSH1 0x20 DUP3 ADD SWAP1 POP SWAP3 SWAP2 POP POP JUMP JUMPDEST PUSH0 JUMPDEST DUP4 DUP2 LT ISZERO PUSH2 0x1499 JUMPI DUP1 DUP3 ADD MLOAD DUP2 DUP5 ADD MSTORE PUSH1 0x20 DUP2 ADD SWAP1 POP PUSH2 0x147E JUMP JUMPDEST PUSH0 DUP5 DUP5 ADD MSTORE POP POP POP POP JUMP JUMPDEST PUSH0 PUSH1 0x1F NOT PUSH1 0x1F DUP4 ADD AND SWAP1 POP SWAP2 SWAP1 POP JUMP JUMPDEST PUSH0 PUSH2 0x14BE DUP3 PUSH2 0x1462 JUMP JUMPDEST PUSH2 0x14C8 DUP2 DUP6 PUSH2 0x146C JUMP JUMPDEST SWAP4 POP PUSH2 0x14D8 DUP2 DUP6 PUSH1 0x20 DUP7 ADD PUSH2 0x147C JUMP JUMPDEST PUSH2 0x14E1 DUP2 PUSH2 0x14A4 JUMP JUMPDEST DUP5 ADD SWAP2 POP POP SWAP3 SWAP2 POP POP JUMP JUMPDEST PUSH0 PUSH1 0x20 DUP3 ADD SWAP1 POP DUP2 DUP2 SUB PUSH0 DUP4 ADD MSTORE PUSH2 0x1504 DUP2 DUP5 PUSH2 0x14B4 JUMP JUMPDEST SWAP1 POP SWAP3 SWAP2 POP POP JUMP JUMPDEST PUSH0 DUP2 SWAP1 POP SWAP2 SWAP1 POP JUMP JUMPDEST PUSH2 0x151E DUP2 PUSH2 0x150C JUMP JUMPDEST DUP2 EQ PUSH2 0x1528 JUMPI PUSH0 DUP1 REVERT JUMPDEST POP JUMP JUMPDEST PUSH0 DUP2 CALLDATALOAD SWAP1 POP PUSH2 0x1539 DUP2 PUSH2 0x1515 JUMP JUMPDEST SWAP3 SWAP2 POP POP JUMP JUMPDEST PUSH0 PUSH1 0x20 DUP3 DUP5 SUB SLT ISZERO PUSH2 0x1554 JUMPI PUSH2 0x1553 PUSH2 0x13A7 JUMP JUMPDEST JUMPDEST PUSH0 PUSH2 0x1561 DUP5 DUP3 DUP6 ADD PUSH2 0x152B JUMP JUMPDEST SWAP2 POP POP SWAP3 SWAP2 POP POP JUMP JUMPDEST PUSH0 PUSH20 0xFFFFFFFFFFFFFFFFFFFFFFFFFFFFFFFFFFFFFFFF DUP3 AND SWAP1 POP SWAP2 SWAP1 POP JUMP JUMPDEST PUSH0 PUSH2 0x1593 DUP3 PUSH2 0x156A JUMP JUMPDEST SWAP1 POP SWAP2 SWAP1 POP JUMP JUMPDEST PUSH2 0x15A3 DUP2 PUSH2 0x1589 JUMP JUMPDEST DUP3 MSTORE POP POP JUMP JUMPDEST PUSH0 PUSH1 0x20 DUP3 ADD SWAP1 POP PUSH2 0x15BC PUSH0 DUP4 ADD DUP5 PUSH2 0x159A JUMP JUMPDEST SWAP3 SWAP2 POP POP JUMP JUMPDEST PUSH2 0x15CB DUP2 PUSH2 0x1589 JUMP JUMPDEST DUP2 EQ PUSH2 0x15D5 JUMPI PUSH0 DUP1 REVERT JUMPDEST POP JUMP JUMPDEST PUSH0 DUP2 CALLDATALOAD SWAP1 POP PUSH2 0x15E6 DUP2 PUSH2 0x15C2 JUMP JUMPDEST SWAP3 SWAP2 POP POP JUMP JUMPDEST PUSH0 DUP1 PUSH1 0x40 DUP4 DUP6 SUB SLT ISZERO PUSH2 0x1602 JUMPI PUSH2 0x1601 PUSH2 0x13A7 JUMP JUMPDEST JUMPDEST PUSH0 PUSH2 0x160F DUP6 DUP3 DUP7 ADD PUSH2 0x15D8 JUMP JUMPDEST SWAP3 POP POP PUSH1 0x20 PUSH2 0x1620 DUP6 DUP3 DUP7 ADD PUSH2 0x152B JUMP JUMPDEST SWAP2 POP POP SWAP3 POP SWAP3 SWAP1 POP JUMP JUMPDEST PUSH2 0x1633 DUP2 PUSH2 0x150C JUMP JUMPDEST DUP3 MSTORE POP POP JUMP JUMPDEST PUSH0 PUSH1 0x20 DUP3 ADD SWAP1 POP PUSH2 0x164C PUSH0 DUP4 ADD DUP5 PUSH2 0x162A JUMP JUMPDEST SWAP3 SWAP2 POP POP JUMP JUMPDEST PUSH0 DUP1 PUSH0 PUSH1 0x60 DUP5 DUP7 SUB SLT ISZERO PUSH2 0x1669 JUMPI PUSH2 0x1668 PUSH2 0x13A7 JUMP JUMPDEST JUMPDEST PUSH0 PUSH2 0x1676 DUP7 DUP3 DUP8 ADD PUSH2 0x15D8 JUMP JUMPDEST SWAP4 POP POP PUSH1 0x20 PUSH2 0x1687 DUP7 DUP3 DUP8 ADD PUSH2 0x15D8 JUMP JUMPDEST SWAP3 POP POP PUSH1 0x40 PUSH2 0x1698 DUP7 DUP3 DUP8 ADD PUSH2 0x152B JUMP JUMPDEST SWAP2 POP POP SWAP3 POP SWAP3 POP SWAP3 JUMP JUMPDEST PUSH0 PUSH1 0x20 DUP3 DUP5 SUB SLT ISZERO PUSH2 0x16B7 JUMPI PUSH2 0x16B6 PUSH2 0x13A7 JUMP JUMPDEST JUMPDEST PUSH0 PUSH2 0x16C4 DUP5 DUP3 DUP6 ADD PUSH2 0x15D8 JUMP JUMPDEST SWAP2 POP POP SWAP3 SWAP2 POP POP JUMP JUMPDEST PUSH2 0x16D6 DUP2 PUSH2 0x142F JUMP JUMPDEST DUP2 EQ PUSH2 0x16E0 JUMPI PUSH0 DUP1 REVERT JUMPDEST POP JUMP JUMPDEST PUSH0 DUP2 CALLDATALOAD SWAP1 POP PUSH2 0x16F1 DUP2 PUSH2 0x16CD JUMP JUMPDEST SWAP3 SWAP2 POP POP JUMP JUMPDEST PUSH0 DUP1 PUSH1 0x40 DUP4 DUP6 SUB SLT ISZERO PUSH2 0x170D JUMPI PUSH2 0x170C PUSH2 0x13A7 JUMP JUMPDEST JUMPDEST PUSH0 PUSH2 0x171A DUP6 DUP3 DUP7 ADD PUSH2 0x15D8 JUMP JUMPDEST SWAP3 POP POP PUSH1 0x20 PUSH2 0x172B DUP6 DUP3 DUP7 ADD PUSH2 0x16E3 JUMP JUMPDEST SWAP2 POP POP SWAP3 POP SWAP3 SWAP1 POP JUMP JUMPDEST PUSH0 DUP1 REVERT JUMPDEST PUSH0 DUP1 REVERT JUMPDEST PUSH32 0x4E487B7100000000000000000000000000000000000000000000000000000000 PUSH0 MSTORE PUSH1 0x41 PUSH1 0x4 MSTORE PUSH1 0x24 PUSH0 REVERT JUMPDEST PUSH2 0x1773 DUP3 PUSH2 0x14A4 JUMP JUMPDEST DUP2 ADD DUP2 DUP2 LT PUSH8 0xFFFFFFFFFFFFFFFF DUP3 GT OR ISZERO PUSH2 0x1792 JUMPI PUSH2 0x1791 PUSH2 0x173D JUMP JUMPDEST JUMPDEST DUP1 PUSH1 0x40 MSTORE POP POP POP JUMP JUMPDEST PUSH0 PUSH2 0x17A4 PUSH2 0x139E JUMP JUMPDEST SWAP1 POP PUSH2 0x17B0 DUP3 DUP3 PUSH2 0x176A JUMP JUMPDEST SWAP2 SWAP1 POP JUMP JUMPDEST PUSH0 PUSH8 0xFFFFFFFFFFFFFFFF DUP3 GT ISZERO PUSH2 0x17CF JUMPI PUSH2 0x17CE PUSH2 0x173D JUMP JUMPDEST JUMPDEST PUSH2 0x17D8 DUP3 PUSH2 0x14A4 JUMP JUMPDEST SWAP1 POP PUSH1 0x20 DUP2 ADD SWAP1 POP SWAP2 SWAP1 POP JUMP JUMPDEST DUP3 DUP2 DUP4 CALLDATACOPY PUSH0 DUP4 DUP4 ADD MSTORE POP POP POP JUMP JUMPDEST PUSH0 PUSH2 0x1805 PUSH2 0x1800 DUP5 PUSH2 0x17B5 JUMP JUMPDEST PUSH2 0x179B JUMP JUMPDEST SWAP1 POP DUP3 DUP2 MSTORE PUSH1 0x20 DUP2 ADD DUP5 DUP5 DUP5 ADD GT ISZERO PUSH2 0x1821 JUMPI PUSH2 0x1820 PUSH2 0x1739 JUMP JUMPDEST JUMPDEST PUSH2 0x182C DUP5 DUP3 DUP6 PUSH2 0x17E5 JUMP JUMPDEST POP SWAP4 SWAP3 POP POP POP JUMP JUMPDEST PUSH0 DUP3 PUSH1 0x1F DUP4 ADD SLT PUSH2 0x1848 JUMPI PUSH2 0x1847 PUSH2 0x1735 JUMP JUMPDEST JUMPDEST DUP2 CALLDATALOAD PUSH2 0x1858 DUP5 DUP3 PUSH1 0x20 DUP7 ADD PUSH2 0x17F3 JUMP JUMPDEST SWAP2 POP POP SWAP3 SWAP2 POP POP JUMP JUMPDEST PUSH0 DUP1 PUSH0 DUP1 PUSH1 0x80 DUP6 DUP8 SUB SLT ISZERO PUSH2 0x1879 JUMPI PUSH2 0x1878 PUSH2 0x13A7 JUMP JUMPDEST JUMPDEST PUSH0 PUSH2 0x1886 DUP8 DUP3 DUP9 ADD PUSH2 0x15D8 JUMP JUMPDEST SWAP5 POP POP PUSH1 0x20 PUSH2 0x1897 DUP8 DUP3 DUP9 ADD PUSH2 0x15D8 JUMP JUMPDEST SWAP4 POP POP PUSH1 0x40 PUSH2 0x18A8 DUP8 DUP3 DUP9 ADD PUSH2 0x152B JUMP JUMPDEST SWAP3 POP POP PUSH1 0x60 DUP6 ADD CALLDATALOAD PUSH8 0xFFFFFFFFFFFFFFFF DUP2 GT ISZERO PUSH2 0x18C9 JUMPI PUSH2 0x18C8 PUSH2 0x13AB JUMP JUMPDEST JUMPDEST PUSH2 0x18D5 DUP8 DUP3 DUP9 ADD PUSH2 0x1834 JUMP JUMPDEST SWAP2 POP POP SWAP3 SWAP6 SWAP2 SWAP5 POP SWAP3 POP JUMP JUMPDEST PUSH0 DUP1 PUSH1 0x40 DUP4 DUP6 SUB SLT ISZERO PUSH2 0x18F7 JUMPI PUSH2 0x18F6 PUSH2 0x13A7 JUMP JUMPDEST JUMPDEST PUSH0 PUSH2 0x1904 DUP6 DUP3 DUP7 ADD PUSH2 0x15D8 JUMP JUMPDEST SWAP3 POP POP PUSH1 0x20 PUSH2 0x1915 DUP6 DUP3 DUP7 ADD PUSH2 0x15D8 JUMP JUMPDEST SWAP2 POP POP SWAP3 POP SWAP3 SWAP1 POP JUMP JUMPDEST PUSH32 0x4E487B7100000000000000000000000000000000000000000000000000000000 PUSH0 MSTORE PUSH1 0x22 PUSH1 0x4 MSTORE PUSH1 0x24 PUSH0 REVERT JUMPDEST PUSH0 PUSH1 0x2 DUP3 DIV SWAP1 POP PUSH1 0x1 DUP3 AND DUP1 PUSH2 0x1963 JUMPI PUSH1 0x7F DUP3 AND SWAP2 POP JUMPDEST PUSH1 0x20 DUP3 LT DUP2 SUB PUSH2 0x1976 JUMPI PUSH2 0x1975 PUSH2 0x191F JUMP JUMPDEST JUMPDEST POP SWAP2 SWAP1 POP JUMP JUMPDEST PUSH0 PUSH1 0x40 DUP3 ADD SWAP1 POP PUSH2 0x198F PUSH0 DUP4 ADD DUP6 PUSH2 0x159A JUMP JUMPDEST PUSH2 0x199C PUSH1 0x20 DUP4 ADD DUP5 PUSH2 0x162A JUMP JUMPDEST SWAP4 SWAP3 POP POP POP JUMP JUMPDEST PUSH32 0x4E487B7100000000000000000000000000000000000000000000000000000000 PUSH0 MSTORE PUSH1 0x32 PUSH1 0x4 MSTORE PUSH1 0x24 PUSH0 REVERT JUMPDEST PUSH32 0x43726564697454696765722E7465737431000000000000000000000000000000 PUSH0 DUP3 ADD MSTORE POP JUMP JUMPDEST PUSH0 PUSH2 0x1A04 PUSH1 0x11 DUP4 PUSH2 0x146C JUMP JUMPDEST SWAP2 POP PUSH2 0x1A0F DUP3 PUSH2 0x19D0 JUMP JUMPDEST PUSH1 0x20 DUP3 ADD SWAP1 POP SWAP2 SWAP1 POP JUMP JUMPDEST PUSH0 PUSH1 0x20 DUP3 ADD SWAP1 POP DUP2 DUP2 SUB PUSH0 DUP4 ADD MSTORE PUSH2 0x1A31 DUP2 PUSH2 0x19F8 JUMP JUMPDEST SWAP1 POP SWAP2 SWAP1 POP JUMP JUMPDEST PUSH0 DUP2 SWAP1 POP SWAP3 SWAP2 POP POP JUMP JUMPDEST PUSH0 PUSH2 0x1A4C DUP3 PUSH2 0x1462 JUMP JUMPDEST PUSH2 0x1A56 DUP2 DUP6 PUSH2 0x1A38 JUMP JUMPDEST SWAP4 POP PUSH2 0x1A66 DUP2 DUP6 PUSH1 0x20 DUP7 ADD PUSH2 0x147C JUMP JUMPDEST DUP1 DUP5 ADD SWAP2 POP POP SWAP3 SWAP2 POP POP JUMP JUMPDEST PUSH0 PUSH2 0x1A7D DUP3 DUP6 PUSH2 0x1A42 JUMP JUMPDEST SWAP2 POP PUSH2 0x1A89 DUP3 DUP5 PUSH2 0x1A42 JUMP JUMPDEST SWAP2 POP DUP2 SWAP1 POP SWAP4 SWAP3 POP POP POP JUMP JUMPDEST PUSH32 0x4552433732315061757361626C652E7465737431000000000000000000000000 PUSH0 DUP3 ADD MSTORE POP JUMP JUMPDEST PUSH0 PUSH2 0x1AC9 PUSH1 0x14 DUP4 PUSH2 0x146C JUMP JUMPDEST SWAP2 POP PUSH2 0x1AD4 DUP3 PUSH2 0x1A95 JUMP JUMPDEST PUSH1 0x20 DUP3 ADD SWAP1 POP SWAP2 SWAP1 POP JUMP JUMPDEST PUSH0 PUSH1 0x20 DUP3 ADD SWAP1 POP DUP2 DUP2 SUB PUSH0 DUP4 ADD MSTORE PUSH2 0x1AF6 DUP2 PUSH2 0x1ABD JUMP JUMPDEST SWAP1 POP SWAP2 SWAP1 POP JUMP JUMPDEST PUSH0 DUP2 MLOAD SWAP1 POP SWAP2 SWAP1 POP JUMP JUMPDEST PUSH0 DUP3 DUP3 MSTORE PUSH1 0x20 DUP3 ADD SWAP1 POP SWAP3 SWAP2 POP POP JUMP JUMPDEST PUSH0 PUSH2 0x1B21 DUP3 PUSH2 0x1AFD JUMP JUMPDEST PUSH2 0x1B2B DUP2 DUP6 PUSH2 0x1B07 JUMP JUMPDEST SWAP4 POP PUSH2 0x1B3B DUP2 DUP6 PUSH1 0x20 DUP7 ADD PUSH2 0x147C JUMP JUMPDEST PUSH2 0x1B44 DUP2 PUSH2 0x14A4 JUMP JUMPDEST DUP5 ADD SWAP2 POP POP SWAP3 SWAP2 POP POP JUMP JUMPDEST PUSH0 PUSH1 0x80 DUP3 ADD SWAP1 POP PUSH2 0x1B62 PUSH0 DUP4 ADD DUP8 PUSH2 0x159A JUMP JUMPDEST PUSH2 0x1B6F PUSH1 0x20 DUP4 ADD DUP7 PUSH2 0x159A JUMP JUMPDEST PUSH2 0x1B7C PUSH1 0x40 DUP4 ADD DUP6 PUSH2 0x162A JUMP JUMPDEST DUP2 DUP2 SUB PUSH1 0x60 DUP4 ADD MSTORE PUSH2 0x1B8E DUP2 DUP5 PUSH2 0x1B17 JUMP JUMPDEST SWAP1 POP SWAP6 SWAP5 POP POP POP POP POP JUMP JUMPDEST PUSH0 DUP2 MLOAD SWAP1 POP PUSH2 0x1BA7 DUP2 PUSH2 0x13DA JUMP JUMPDEST SWAP3 SWAP2 POP POP JUMP JUMPDEST PUSH0 PUSH1 0x20 DUP3 DUP5 SUB SLT ISZERO PUSH2 0x1BC2 JUMPI PUSH2 0x1BC1 PUSH2 0x13A7 JUMP JUMPDEST JUMPDEST PUSH0 PUSH2 0x1BCF DUP5 DUP3 DUP6 ADD PUSH2 0x1B99 JUMP JUMPDEST SWAP2 POP POP SWAP3 SWAP2 POP POP JUMP JUMPDEST PUSH32 0x4E487B7100000000000000000000000000000000000000000000000000000000 PUSH0 MSTORE PUSH1 0x12 PUSH1 0x4 MSTORE PUSH1 0x24 PUSH0 REVERT JUMPDEST PUSH32 0x455243373231456E756D657261626C652E746573743100000000000000000000 PUSH0 DUP3 ADD MSTORE POP JUMP JUMPDEST PUSH0 PUSH2 0x1C39 PUSH1 0x16 DUP4 PUSH2 0x146C JUMP JUMPDEST SWAP2 POP PUSH2 0x1C44 DUP3 PUSH2 0x1C05 JUMP JUMPDEST PUSH1 0x20 DUP3 ADD SWAP1 POP SWAP2 SWAP1 POP JUMP JUMPDEST PUSH0 PUSH1 0x20 DUP3 ADD SWAP1 POP DUP2 DUP2 SUB PUSH0 DUP4 ADD MSTORE PUSH2 0x1C66 DUP2 PUSH2 0x1C2D JUMP JUMPDEST SWAP1 POP SWAP2 SWAP1 POP JUMP JUMPDEST PUSH32 0x4552433732312E74657374310000000000000000000000000000000000000000 PUSH0 DUP3 ADD MSTORE POP JUMP JUMPDEST PUSH0 PUSH2 0x1CA1 PUSH1 0xC DUP4 PUSH2 0x146C JUMP JUMPDEST SWAP2 POP PUSH2 0x1CAC DUP3 PUSH2 0x1C6D JUMP JUMPDEST PUSH1 0x20 DUP3 ADD SWAP1 POP SWAP2 SWAP1 POP JUMP JUMPDEST PUSH0 PUSH1 0x20 DUP3 ADD SWAP1 POP DUP2 DUP2 SUB PUSH0 DUP4 ADD MSTORE PUSH2 0x1CCE DUP2 PUSH2 0x1C95 JUMP JUMPDEST SWAP1 POP SWAP2 SWAP1 POP JUMP INVALID LOG2 PUSH5 0x6970667358 0x22 SLT KECCAK256 PUSH22 0xF0A60C55F958137F151EBFF34C1A89CCB5E398A8137C DUP3 0x1F PUSH21 0xC92B638BDB6664736F6C6343000814003300000000 "
				},
				"gasEstimates": {
					"creation": {
						"codeDepositCost": "1487000",
						"executionCost": "infinite",
						"totalCost": "infinite"
					},
					"external": {
						"approve(address,uint256)": "31925",
						"balanceOf(address)": "2896",
						"burn(uint256)": "571",
						"getApproved(uint256)": "5275",
						"isApprovedForAll(address,address)": "infinite",
						"name()": "infinite",
						"owner()": "2626",
						"ownerOf(uint256)": "2972",
						"paused()": "2657",
						"renounceOwnership()": "infinite",
						"safeTransferFrom(address,address,uint256)": "infinite",
						"safeTransferFrom(address,address,uint256,bytes)": "infinite",
						"setApprovalForAll(address,bool)": "infinite",
						"supportsInterface(bytes4)": "917",
						"symbol()": "infinite",
						"test1()": "infinite",
						"tokenByIndex(uint256)": "infinite",
						"tokenOfOwnerByIndex(address,uint256)": "infinite",
						"tokenURI(uint256)": "3410",
						"totalSupply()": "2552",
						"transferFrom(address,address,uint256)": "infinite",
						"transferOwnership(address)": "infinite"
					},
					"internal": {
						"_increaseBalance(address,uint128)": "infinite",
						"_update(address,uint256,address)": "23"
					}
				},
				"methodIdentifiers": {
					"approve(address,uint256)": "095ea7b3",
					"balanceOf(address)": "70a08231",
					"burn(uint256)": "42966c68",
					"getApproved(uint256)": "081812fc",
					"isApprovedForAll(address,address)": "e985e9c5",
					"name()": "06fdde03",
					"owner()": "8da5cb5b",
					"ownerOf(uint256)": "6352211e",
					"paused()": "5c975abb",
					"renounceOwnership()": "715018a6",
					"safeTransferFrom(address,address,uint256)": "42842e0e",
					"safeTransferFrom(address,address,uint256,bytes)": "b88d4fde",
					"setApprovalForAll(address,bool)": "a22cb465",
					"supportsInterface(bytes4)": "01ffc9a7",
					"symbol()": "95d89b41",
					"test1()": "6b59084d",
					"tokenByIndex(uint256)": "4f6ccce7",
					"tokenOfOwnerByIndex(address,uint256)": "2f745c59",
					"tokenURI(uint256)": "c87b56dd",
					"totalSupply()": "18160ddd",
					"transferFrom(address,address,uint256)": "23b872dd",
					"transferOwnership(address)": "f2fde38b"
				}
			},
			"storageLayout": {
				"storage": [
					{
						"astId": 82,
						"contract": "contracts/MyNFT/PudgyPenguins.sol:CreditTiger",
						"label": "_name",
						"offset": 0,
						"slot": "0",
						"type": "t_string_storage"
					},
					{
						"astId": 84,
						"contract": "contracts/MyNFT/PudgyPenguins.sol:CreditTiger",
						"label": "_symbol",
						"offset": 0,
						"slot": "1",
						"type": "t_string_storage"
					},
					{
						"astId": 88,
						"contract": "contracts/MyNFT/PudgyPenguins.sol:CreditTiger",
						"label": "_owners",
						"offset": 0,
						"slot": "2",
						"type": "t_mapping(t_uint256,t_address)"
					},
					{
						"astId": 92,
						"contract": "contracts/MyNFT/PudgyPenguins.sol:CreditTiger",
						"label": "_balances",
						"offset": 0,
						"slot": "3",
						"type": "t_mapping(t_address,t_uint256)"
					},
					{
						"astId": 96,
						"contract": "contracts/MyNFT/PudgyPenguins.sol:CreditTiger",
						"label": "_tokenApprovals",
						"offset": 0,
						"slot": "4",
						"type": "t_mapping(t_uint256,t_address)"
					},
					{
						"astId": 102,
						"contract": "contracts/MyNFT/PudgyPenguins.sol:CreditTiger",
						"label": "_operatorApprovals",
						"offset": 0,
						"slot": "5",
						"type": "t_mapping(t_address,t_mapping(t_address,t_bool))"
					},
					{
						"astId": 1034,
						"contract": "contracts/MyNFT/PudgyPenguins.sol:CreditTiger",
						"label": "_ownedTokens",
						"offset": 0,
						"slot": "6",
						"type": "t_mapping(t_address,t_mapping(t_uint256,t_uint256))"
					},
					{
						"astId": 1038,
						"contract": "contracts/MyNFT/PudgyPenguins.sol:CreditTiger",
						"label": "_ownedTokensIndex",
						"offset": 0,
						"slot": "7",
						"type": "t_mapping(t_uint256,t_uint256)"
					},
					{
						"astId": 1041,
						"contract": "contracts/MyNFT/PudgyPenguins.sol:CreditTiger",
						"label": "_allTokens",
						"offset": 0,
						"slot": "8",
						"type": "t_array(t_uint256)dyn_storage"
					},
					{
						"astId": 1045,
						"contract": "contracts/MyNFT/PudgyPenguins.sol:CreditTiger",
						"label": "_allTokensIndex",
						"offset": 0,
						"slot": "9",
						"type": "t_mapping(t_uint256,t_uint256)"
					},
					{
						"astId": 2733,
						"contract": "contracts/MyNFT/PudgyPenguins.sol:CreditTiger",
						"label": "_owner",
						"offset": 0,
						"slot": "10",
						"type": "t_address"
					},
					{
						"astId": 2881,
						"contract": "contracts/MyNFT/PudgyPenguins.sol:CreditTiger",
						"label": "_paused",
						"offset": 20,
						"slot": "10",
						"type": "t_bool"
					}
				],
				"types": {
					"t_address": {
						"encoding": "inplace",
						"label": "address",
						"numberOfBytes": "20"
					},
					"t_array(t_uint256)dyn_storage": {
						"base": "t_uint256",
						"encoding": "dynamic_array",
						"label": "uint256[]",
						"numberOfBytes": "32"
					},
					"t_bool": {
						"encoding": "inplace",
						"label": "bool",
						"numberOfBytes": "1"
					},
					"t_mapping(t_address,t_bool)": {
						"encoding": "mapping",
						"key": "t_address",
						"label": "mapping(address => bool)",
						"numberOfBytes": "32",
						"value": "t_bool"
					},
					"t_mapping(t_address,t_mapping(t_address,t_bool))": {
						"encoding": "mapping",
						"key": "t_address",
						"label": "mapping(address => mapping(address => bool))",
						"numberOfBytes": "32",
						"value": "t_mapping(t_address,t_bool)"
					},
					"t_mapping(t_address,t_mapping(t_uint256,t_uint256))": {
						"encoding": "mapping",
						"key": "t_address",
						"label": "mapping(address => mapping(uint256 => uint256))",
						"numberOfBytes": "32",
						"value": "t_mapping(t_uint256,t_uint256)"
					},
					"t_mapping(t_address,t_uint256)": {
						"encoding": "mapping",
						"key": "t_address",
						"label": "mapping(address => uint256)",
						"numberOfBytes": "32",
						"value": "t_uint256"
					},
					"t_mapping(t_uint256,t_address)": {
						"encoding": "mapping",
						"key": "t_uint256",
						"label": "mapping(uint256 => address)",
						"numberOfBytes": "32",
						"value": "t_address"
					},
					"t_mapping(t_uint256,t_uint256)": {
						"encoding": "mapping",
						"key": "t_uint256",
						"label": "mapping(uint256 => uint256)",
						"numberOfBytes": "32",
						"value": "t_uint256"
					},
					"t_string_storage": {
						"encoding": "bytes",
						"label": "string",
						"numberOfBytes": "32"
					},
					"t_uint256": {
						"encoding": "inplace",
						"label": "uint256",
						"numberOfBytes": "32"
					}
				}
			},
			"userdoc": {
				"kind": "user",
				"methods": {},
				"version": 1
			}
		}
	}
}